{
  "_format": "hh-sol-artifact-1",
  "contractName": "ThrustpadInstantAirdrop",
  "sourceName": "contracts/airdrop/ThrustpadInstantAirdrop.sol",
  "abi": [
    {
      "inputs": [
        {
          "internalType": "address",
          "name": "_token",
          "type": "address"
        },
        {
          "internalType": "bytes32",
          "name": "_merkleRoot",
          "type": "bytes32"
        }
      ],
      "stateMutability": "nonpayable",
      "type": "constructor"
    },
    {
      "inputs": [
        {
          "internalType": "address",
          "name": "owner",
          "type": "address"
        }
      ],
      "name": "OwnableInvalidOwner",
      "type": "error"
    },
    {
      "inputs": [
        {
          "internalType": "address",
          "name": "account",
          "type": "address"
        }
      ],
      "name": "OwnableUnauthorizedAccount",
      "type": "error"
    },
    {
      "inputs": [],
      "name": "ReentrancyGuardReentrantCall",
      "type": "error"
    },
    {
      "anonymous": false,
      "inputs": [
        {
          "indexed": true,
          "internalType": "address",
          "name": "account",
          "type": "address"
        },
        {
          "indexed": false,
          "internalType": "uint256",
          "name": "amount",
          "type": "uint256"
        }
      ],
      "name": "Claimed",
      "type": "event"
    },
    {
      "anonymous": false,
      "inputs": [
        {
          "indexed": true,
          "internalType": "address",
          "name": "previousOwner",
          "type": "address"
        },
        {
          "indexed": true,
          "internalType": "address",
          "name": "newOwner",
          "type": "address"
        }
      ],
      "name": "OwnershipTransferred",
      "type": "event"
    },
    {
      "inputs": [
        {
          "internalType": "uint256",
          "name": "amount",
          "type": "uint256"
        },
        {
          "internalType": "bytes32[]",
          "name": "proof",
          "type": "bytes32[]"
        }
      ],
      "name": "claim",
      "outputs": [],
      "stateMutability": "nonpayable",
      "type": "function"
    },
    {
      "inputs": [
        {
          "internalType": "address",
          "name": "",
          "type": "address"
        }
      ],
      "name": "claimed",
      "outputs": [
        {
          "internalType": "bool",
          "name": "",
          "type": "bool"
        }
      ],
      "stateMutability": "view",
      "type": "function"
    },
    {
      "inputs": [],
      "name": "merkleRoot",
      "outputs": [
        {
          "internalType": "bytes32",
          "name": "",
          "type": "bytes32"
        }
      ],
      "stateMutability": "view",
      "type": "function"
    },
    {
      "inputs": [],
      "name": "owner",
      "outputs": [
        {
          "internalType": "address",
          "name": "",
          "type": "address"
        }
      ],
      "stateMutability": "view",
      "type": "function"
    },
    {
      "inputs": [],
      "name": "renounceOwnership",
      "outputs": [],
      "stateMutability": "nonpayable",
      "type": "function"
    },
    {
      "inputs": [],
      "name": "token",
      "outputs": [
        {
          "internalType": "contract IERC20",
          "name": "",
          "type": "address"
        }
      ],
      "stateMutability": "view",
      "type": "function"
    },
    {
      "inputs": [],
      "name": "totalClaimed",
      "outputs": [
        {
          "internalType": "uint256",
          "name": "",
          "type": "uint256"
        }
      ],
      "stateMutability": "view",
      "type": "function"
    },
    {
      "inputs": [
        {
          "internalType": "address",
          "name": "newOwner",
          "type": "address"
        }
      ],
      "name": "transferOwnership",
      "outputs": [],
      "stateMutability": "nonpayable",
      "type": "function"
    }
  ],
  "bytecode": "0x60806040523480156200001157600080fd5b50604051620010513803806200105183398181016040528101906200003791906200027f565b32600073ffffffffffffffffffffffffffffffffffffffff168173ffffffffffffffffffffffffffffffffffffffff1603620000ad5760006040517f1e4fbdf7000000000000000000000000000000000000000000000000000000008152600401620000a49190620002d7565b60405180910390fd5b620000be816200011660201b60201c565b506001808190555081600260006101000a81548173ffffffffffffffffffffffffffffffffffffffff021916908373ffffffffffffffffffffffffffffffffffffffff160217905550806003819055505050620002f4565b60008060009054906101000a900473ffffffffffffffffffffffffffffffffffffffff169050816000806101000a81548173ffffffffffffffffffffffffffffffffffffffff021916908373ffffffffffffffffffffffffffffffffffffffff1602179055508173ffffffffffffffffffffffffffffffffffffffff168173ffffffffffffffffffffffffffffffffffffffff167f8be0079c531659141344cd1fd0a4f28419497f9722a3daafe3b4186f6b6457e060405160405180910390a35050565b600080fd5b600073ffffffffffffffffffffffffffffffffffffffff82169050919050565b60006200020c82620001df565b9050919050565b6200021e81620001ff565b81146200022a57600080fd5b50565b6000815190506200023e8162000213565b92915050565b6000819050919050565b620002598162000244565b81146200026557600080fd5b50565b60008151905062000279816200024e565b92915050565b60008060408385031215620002995762000298620001da565b5b6000620002a9858286016200022d565b9250506020620002bc8582860162000268565b9150509250929050565b620002d181620001ff565b82525050565b6000602082019050620002ee6000830184620002c6565b92915050565b610d4d80620003046000396000f3fe608060405234801561001057600080fd5b50600436106100885760003560e01c8063c884ef831161005b578063c884ef83146100ef578063d54ad2a11461011f578063f2fde38b1461013d578063fc0c546a1461015957610088565b80632eb4a7ab1461008d5780632f52ebb7146100ab578063715018a6146100c75780638da5cb5b146100d1575b600080fd5b610095610177565b6040516100a291906107e3565b60405180910390f35b6100c560048036038101906100c091906108a3565b61017d565b005b6100cf6103cb565b005b6100d96103df565b6040516100e69190610944565b60405180910390f35b6101096004803603810190610104919061098b565b610408565b60405161011691906109d3565b60405180910390f35b610127610428565b60405161013491906109fd565b60405180910390f35b6101576004803603810190610152919061098b565b61042e565b005b6101616104b4565b60405161016e9190610a77565b60405180910390f35b60035481565b6101856104da565b600460003373ffffffffffffffffffffffffffffffffffffffff1673ffffffffffffffffffffffffffffffffffffffff16815260200190815260200160002060009054906101000a900460ff1615610212576040517f08c379a000000000000000000000000000000000000000000000000000000000815260040161020990610b15565b60405180910390fd5b61025e828280806020026020016040519081016040528093929190818152602001838360200280828437600081840152601f19601f820116905080830192505050505050508433610520565b6001600460003373ffffffffffffffffffffffffffffffffffffffff1673ffffffffffffffffffffffffffffffffffffffff16815260200190815260200160002060006101000a81548160ff02191690831515021790555082600560008282546102c89190610b64565b92505081905550600260009054906101000a900473ffffffffffffffffffffffffffffffffffffffff1673ffffffffffffffffffffffffffffffffffffffff1663a9059cbb30856040518363ffffffff1660e01b815260040161032c929190610b98565b6020604051808303816000875af115801561034b573d6000803e3d6000fd5b505050506040513d601f19601f8201168201806040525081019061036f9190610bed565b503373ffffffffffffffffffffffffffffffffffffffff167fd8138f8a3f377c5259ca548e70e4c2de94f129f5a11036a15b69513cba2b426a846040516103b691906109fd565b60405180910390a26103c66105c5565b505050565b6103d36105ce565b6103dd6000610655565b565b60008060009054906101000a900473ffffffffffffffffffffffffffffffffffffffff16905090565b60046020528060005260406000206000915054906101000a900460ff1681565b60055481565b6104366105ce565b600073ffffffffffffffffffffffffffffffffffffffff168173ffffffffffffffffffffffffffffffffffffffff16036104a85760006040517f1e4fbdf700000000000000000000000000000000000000000000000000000000815260040161049f9190610944565b60405180910390fd5b6104b181610655565b50565b600260009054906101000a900473ffffffffffffffffffffffffffffffffffffffff1681565b600260015403610516576040517f3ee5aeb500000000000000000000000000000000000000000000000000000000815260040160405180910390fd5b6002600181905550565b60008183604051602001610535929190610b98565b6040516020818303038152906040528051906020012060405160200161055b9190610c3b565b6040516020818303038152906040528051906020012090506105808460035483610719565b6105bf576040517f08c379a00000000000000000000000000000000000000000000000000000000081526004016105b690610cc8565b60405180910390fd5b50505050565b60018081905550565b6105d6610730565b73ffffffffffffffffffffffffffffffffffffffff166105f46103df565b73ffffffffffffffffffffffffffffffffffffffff161461065357610617610730565b6040517f118cdaa700000000000000000000000000000000000000000000000000000000815260040161064a9190610944565b60405180910390fd5b565b60008060009054906101000a900473ffffffffffffffffffffffffffffffffffffffff169050816000806101000a81548173ffffffffffffffffffffffffffffffffffffffff021916908373ffffffffffffffffffffffffffffffffffffffff1602179055508173ffffffffffffffffffffffffffffffffffffffff168173ffffffffffffffffffffffffffffffffffffffff167f8be0079c531659141344cd1fd0a4f28419497f9722a3daafe3b4186f6b6457e060405160405180910390a35050565b6000826107268584610738565b1490509392505050565b600033905090565b60008082905060005b845181101561077d5761076e8286838151811061076157610760610ce8565b5b6020026020010151610788565b91508080600101915050610741565b508091505092915050565b60008183106107a05761079b82846107b3565b6107ab565b6107aa83836107b3565b5b905092915050565b600082600052816020526040600020905092915050565b6000819050919050565b6107dd816107ca565b82525050565b60006020820190506107f860008301846107d4565b92915050565b600080fd5b600080fd5b6000819050919050565b61081b81610808565b811461082657600080fd5b50565b60008135905061083881610812565b92915050565b600080fd5b600080fd5b600080fd5b60008083601f8401126108635761086261083e565b5b8235905067ffffffffffffffff8111156108805761087f610843565b5b60208301915083602082028301111561089c5761089b610848565b5b9250929050565b6000806000604084860312156108bc576108bb6107fe565b5b60006108ca86828701610829565b935050602084013567ffffffffffffffff8111156108eb576108ea610803565b5b6108f78682870161084d565b92509250509250925092565b600073ffffffffffffffffffffffffffffffffffffffff82169050919050565b600061092e82610903565b9050919050565b61093e81610923565b82525050565b60006020820190506109596000830184610935565b92915050565b61096881610923565b811461097357600080fd5b50565b6000813590506109858161095f565b92915050565b6000602082840312156109a1576109a06107fe565b5b60006109af84828501610976565b91505092915050565b60008115159050919050565b6109cd816109b8565b82525050565b60006020820190506109e860008301846109c4565b92915050565b6109f781610808565b82525050565b6000602082019050610a1260008301846109ee565b92915050565b6000819050919050565b6000610a3d610a38610a3384610903565b610a18565b610903565b9050919050565b6000610a4f82610a22565b9050919050565b6000610a6182610a44565b9050919050565b610a7181610a56565b82525050565b6000602082019050610a8c6000830184610a68565b92915050565b600082825260208201905092915050565b7f546872757374706164496e7374616e7441697264726f703a204163636f756e7460008201527f20616c726561647920636c61696d656400000000000000000000000000000000602082015250565b6000610aff603083610a92565b9150610b0a82610aa3565b604082019050919050565b60006020820190508181036000830152610b2e81610af2565b9050919050565b7f4e487b7100000000000000000000000000000000000000000000000000000000600052601160045260246000fd5b6000610b6f82610808565b9150610b7a83610808565b9250828201905080821115610b9257610b91610b35565b5b92915050565b6000604082019050610bad6000830185610935565b610bba60208301846109ee565b9392505050565b610bca816109b8565b8114610bd557600080fd5b50565b600081519050610be781610bc1565b92915050565b600060208284031215610c0357610c026107fe565b5b6000610c1184828501610bd8565b91505092915050565b6000819050919050565b610c35610c30826107ca565b610c1a565b82525050565b6000610c478284610c24565b60208201915081905092915050565b7f546872757374706164496e7374616e7441697264726f703a20496e76616c696460008201527f2070726f6f660000000000000000000000000000000000000000000000000000602082015250565b6000610cb2602683610a92565b9150610cbd82610c56565b604082019050919050565b60006020820190508181036000830152610ce181610ca5565b9050919050565b7f4e487b7100000000000000000000000000000000000000000000000000000000600052603260045260246000fdfea26469706673582212209f091f11b5a4f47a7d49e6384be4bd9040e308cc470e5367d9225cd5673bd2e764736f6c63430008180033",
  "linkReferences": {},
  "deployedLinkReferences": {}
}