{
  "_format": "hh-sol-artifact-1",
  "contractName": "ThrustpadInstantAirdrop",
  "sourceName": "contracts/airdrop/ThrustpadInstantAirdrop.sol",
  "abi": [
    {
      "inputs": [
        {
          "internalType": "address",
          "name": "_token",
          "type": "address"
        },
        {
          "internalType": "bytes32",
          "name": "_merkleRoot",
          "type": "bytes32"
        },
        {
          "internalType": "address",
          "name": "_owner",
          "type": "address"
        }
      ],
      "stateMutability": "nonpayable",
      "type": "constructor"
    },
    {
      "inputs": [
        {
          "internalType": "address",
          "name": "owner",
          "type": "address"
        }
      ],
      "name": "OwnableInvalidOwner",
      "type": "error"
    },
    {
      "inputs": [
        {
          "internalType": "address",
          "name": "account",
          "type": "address"
        }
      ],
      "name": "OwnableUnauthorizedAccount",
      "type": "error"
    },
    {
      "inputs": [],
      "name": "ReentrancyGuardReentrantCall",
      "type": "error"
    },
    {
      "anonymous": false,
      "inputs": [
        {
          "indexed": true,
          "internalType": "address",
          "name": "account",
          "type": "address"
        },
        {
          "indexed": false,
          "internalType": "uint256",
          "name": "amount",
          "type": "uint256"
        }
      ],
      "name": "Claimed",
      "type": "event"
    },
    {
      "anonymous": false,
      "inputs": [
        {
          "indexed": true,
          "internalType": "address",
          "name": "previousOwner",
          "type": "address"
        },
        {
          "indexed": true,
          "internalType": "address",
          "name": "newOwner",
          "type": "address"
        }
      ],
      "name": "OwnershipTransferred",
      "type": "event"
    },
    {
      "inputs": [
        {
          "internalType": "uint256",
          "name": "amount",
          "type": "uint256"
        },
        {
          "internalType": "bytes32[]",
          "name": "proof",
          "type": "bytes32[]"
        }
      ],
      "name": "claim",
      "outputs": [],
      "stateMutability": "nonpayable",
      "type": "function"
    },
    {
      "inputs": [
        {
          "internalType": "address",
          "name": "",
          "type": "address"
        }
      ],
      "name": "claimed",
      "outputs": [
        {
          "internalType": "bool",
          "name": "",
          "type": "bool"
        }
      ],
      "stateMutability": "view",
      "type": "function"
    },
    {
      "inputs": [],
      "name": "merkleRoot",
      "outputs": [
        {
          "internalType": "bytes32",
          "name": "",
          "type": "bytes32"
        }
      ],
      "stateMutability": "view",
      "type": "function"
    },
    {
      "inputs": [],
      "name": "owner",
      "outputs": [
        {
          "internalType": "address",
          "name": "",
          "type": "address"
        }
      ],
      "stateMutability": "view",
      "type": "function"
    },
    {
      "inputs": [],
      "name": "renounceOwnership",
      "outputs": [],
      "stateMutability": "nonpayable",
      "type": "function"
    },
    {
      "inputs": [],
      "name": "token",
      "outputs": [
        {
          "internalType": "contract IERC20",
          "name": "",
          "type": "address"
        }
      ],
      "stateMutability": "view",
      "type": "function"
    },
    {
      "inputs": [],
      "name": "totalClaimed",
      "outputs": [
        {
          "internalType": "uint256",
          "name": "",
          "type": "uint256"
        }
      ],
      "stateMutability": "view",
      "type": "function"
    },
    {
      "inputs": [
        {
          "internalType": "address",
          "name": "newOwner",
          "type": "address"
        }
      ],
      "name": "transferOwnership",
      "outputs": [],
      "stateMutability": "nonpayable",
      "type": "function"
    }
  ],
  "bytecode": "0x608060405234801561001057600080fd5b5060405161086938038061086983398101604081905261002f91610102565b806001600160a01b03811661005e57604051631e4fbdf760e01b81526000600482015260240160405180910390fd5b61006781610096565b505060018055600280546001600160a01b0319166001600160a01b03939093169290921790915560035561013e565b600080546001600160a01b038381166001600160a01b0319831681178455604051919092169283917f8be0079c531659141344cd1fd0a4f28419497f9722a3daafe3b4186f6b6457e09190a35050565b80516001600160a01b03811681146100fd57600080fd5b919050565b60008060006060848603121561011757600080fd5b610120846100e6565b925060208401519150610135604085016100e6565b90509250925092565b61071c8061014d6000396000f3fe608060405234801561001057600080fd5b50600436106100885760003560e01c8063c884ef831161005b578063c884ef83146100eb578063d54ad2a11461011e578063f2fde38b14610127578063fc0c546a1461013a57600080fd5b80632eb4a7ab1461008d5780632f52ebb7146100a9578063715018a6146100be5780638da5cb5b146100c6575b600080fd5b61009660035481565b6040519081526020015b60405180910390f35b6100bc6100b73660046105e5565b61014d565b005b6100bc610323565b6000546001600160a01b03165b6040516001600160a01b0390911681526020016100a0565b61010e6100f9366004610664565b60046020526000908152604090205460ff1681565b60405190151581526020016100a0565b61009660055481565b6100bc610135366004610664565b610337565b6002546100d3906001600160a01b031681565b61015561038e565b3360009081526004602052604090205460ff16156101e05760405162461bcd60e51b815260206004820152603060248201527f546872757374706164496e7374616e7441697264726f703a204163636f756e7460448201527f20616c726561647920636c61696d65640000000000000000000000000000000060648201526084015b60405180910390fd5b6102208282808060200260200160405190810160405280939291908181526020018383602002808284376000920191909152508792503391506103d19050565b336000908152600460205260408120805460ff191660011790556005805485929061024c90849061068d565b90915550506002546040517fa9059cbb000000000000000000000000000000000000000000000000000000008152336004820152602481018590526001600160a01b039091169063a9059cbb906044016020604051808303816000875af11580156102bb573d6000803e3d6000fd5b505050506040513d601f19601f820116820180604052508101906102df91906106ae565b5060405183815233907fd8138f8a3f377c5259ca548e70e4c2de94f129f5a11036a15b69513cba2b426a9060200160405180910390a261031e60018055565b505050565b61032b6104aa565b61033560006104f0565b565b61033f6104aa565b6001600160a01b038116610382576040517f1e4fbdf7000000000000000000000000000000000000000000000000000000008152600060048201526024016101d7565b61038b816104f0565b50565b6002600154036103ca576040517f3ee5aeb500000000000000000000000000000000000000000000000000000000815260040160405180910390fd5b6002600155565b604080516001600160a01b038316602082015290810183905260009060600160408051601f19818403018152828252805160209182012090830152016040516020818303038152906040528051906020012090506104328460035483610558565b6104a45760405162461bcd60e51b815260206004820152602660248201527f546872757374706164496e7374616e7441697264726f703a20496e76616c696460448201527f2070726f6f66000000000000000000000000000000000000000000000000000060648201526084016101d7565b50505050565b6000546001600160a01b03163314610335576040517f118cdaa70000000000000000000000000000000000000000000000000000000081523360048201526024016101d7565b600080546001600160a01b038381167fffffffffffffffffffffffff0000000000000000000000000000000000000000831681178455604051919092169283917f8be0079c531659141344cd1fd0a4f28419497f9722a3daafe3b4186f6b6457e09190a35050565b600082610565858461056e565b14949350505050565b600081815b84518110156105a95761059f82868381518110610592576105926106d0565b60200260200101516105b3565b9150600101610573565b5090505b92915050565b60008183106105cf5760008281526020849052604090206105de565b60008381526020839052604090205b9392505050565b6000806000604084860312156105fa57600080fd5b83359250602084013567ffffffffffffffff8082111561061957600080fd5b818601915086601f83011261062d57600080fd5b81358181111561063c57600080fd5b8760208260051b850101111561065157600080fd5b6020830194508093505050509250925092565b60006020828403121561067657600080fd5b81356001600160a01b03811681146105de57600080fd5b808201808211156105ad57634e487b7160e01b600052601160045260246000fd5b6000602082840312156106c057600080fd5b815180151581146105de57600080fd5b634e487b7160e01b600052603260045260246000fdfea2646970667358221220f8bb484ed51f244f8df6b3409b6d10432bb491f3484d9fa9320d5cd1d1a3138164736f6c63430008180033",
  "linkReferences": {},
  "deployedLinkReferences": {}
}