{
  "_format": "hh-sol-artifact-1",
  "contractName": "ThrustpadTokenFactory",
  "sourceName": "contracts/token/ThrustpadTokenFactory.sol",
  "abi": [
    {
      "inputs": [],
      "stateMutability": "nonpayable",
      "type": "constructor"
    },
    {
      "inputs": [
        {
          "internalType": "address",
          "name": "owner",
          "type": "address"
        }
      ],
      "name": "OwnableInvalidOwner",
      "type": "error"
    },
    {
      "inputs": [
        {
          "internalType": "address",
          "name": "account",
          "type": "address"
        }
      ],
      "name": "OwnableUnauthorizedAccount",
      "type": "error"
    },
    {
      "anonymous": false,
      "inputs": [
        {
          "indexed": true,
          "internalType": "address",
          "name": "creator",
          "type": "address"
        },
        {
          "indexed": true,
          "internalType": "address",
          "name": "token",
          "type": "address"
        }
      ],
      "name": "NewToken",
      "type": "event"
    },
    {
      "anonymous": false,
      "inputs": [
        {
          "indexed": true,
          "internalType": "address",
          "name": "previousOwner",
          "type": "address"
        },
        {
          "indexed": true,
          "internalType": "address",
          "name": "newOwner",
          "type": "address"
        }
      ],
      "name": "OwnershipTransferred",
      "type": "event"
    },
    {
      "inputs": [],
      "name": "creationFee",
      "outputs": [
        {
          "internalType": "uint256",
          "name": "",
          "type": "uint256"
        }
      ],
      "stateMutability": "view",
      "type": "function"
    },
    {
      "inputs": [
        {
          "internalType": "address",
          "name": "",
          "type": "address"
        },
        {
          "internalType": "uint256",
          "name": "",
          "type": "uint256"
        }
      ],
      "name": "deployedTokens",
      "outputs": [
        {
          "internalType": "address",
          "name": "",
          "type": "address"
        }
      ],
      "stateMutability": "view",
      "type": "function"
    },
    {
      "inputs": [],
      "name": "feeEarned",
      "outputs": [
        {
          "internalType": "uint256",
          "name": "",
          "type": "uint256"
        }
      ],
      "stateMutability": "view",
      "type": "function"
    },
    {
      "inputs": [
        {
          "internalType": "bytes",
          "name": "bytecode",
          "type": "bytes"
        },
        {
          "internalType": "uint256",
          "name": "salt",
          "type": "uint256"
        }
      ],
      "name": "getAddressCreate2",
      "outputs": [
        {
          "internalType": "address",
          "name": "",
          "type": "address"
        }
      ],
      "stateMutability": "view",
      "type": "function"
    },
    {
      "inputs": [
        {
          "internalType": "string",
          "name": "name",
          "type": "string"
        },
        {
          "internalType": "string",
          "name": "symbol",
          "type": "string"
        },
        {
          "internalType": "uint256",
          "name": "decimals",
          "type": "uint256"
        },
        {
          "internalType": "uint256",
          "name": "supply",
          "type": "uint256"
        },
        {
          "components": [
            {
              "internalType": "bool",
              "name": "mintable",
              "type": "bool"
            },
            {
              "internalType": "bool",
              "name": "pausable",
              "type": "bool"
            },
            {
              "internalType": "bool",
              "name": "burnable",
              "type": "bool"
            }
          ],
          "internalType": "struct LaunchType",
          "name": "launchType",
          "type": "tuple"
        },
        {
          "internalType": "address",
          "name": "_owner",
          "type": "address"
        }
      ],
      "name": "getBytecode",
      "outputs": [
        {
          "internalType": "bytes",
          "name": "",
          "type": "bytes"
        }
      ],
      "stateMutability": "pure",
      "type": "function"
    },
    {
      "inputs": [
        {
          "internalType": "address",
          "name": "creator",
          "type": "address"
        }
      ],
      "name": "getdeployedTokens",
      "outputs": [
        {
          "internalType": "address[]",
          "name": "",
          "type": "address[]"
        }
      ],
      "stateMutability": "view",
      "type": "function"
    },
    {
      "inputs": [
        {
          "internalType": "address",
          "name": "creator",
          "type": "address"
        }
      ],
      "name": "getdeployedTokensLen",
      "outputs": [
        {
          "internalType": "uint256",
          "name": "",
          "type": "uint256"
        }
      ],
      "stateMutability": "view",
      "type": "function"
    },
    {
      "inputs": [
        {
          "internalType": "string",
          "name": "name",
          "type": "string"
        },
        {
          "internalType": "string",
          "name": "symbol",
          "type": "string"
        },
        {
          "internalType": "uint256",
          "name": "decimals",
          "type": "uint256"
        },
        {
          "internalType": "uint256",
          "name": "supply",
          "type": "uint256"
        },
        {
          "components": [
            {
              "internalType": "bool",
              "name": "mintable",
              "type": "bool"
            },
            {
              "internalType": "bool",
              "name": "pausable",
              "type": "bool"
            },
            {
              "internalType": "bool",
              "name": "burnable",
              "type": "bool"
            }
          ],
          "internalType": "struct LaunchType",
          "name": "launchType",
          "type": "tuple"
        }
      ],
      "name": "newToken",
      "outputs": [
        {
          "internalType": "address",
          "name": "",
          "type": "address"
        }
      ],
      "stateMutability": "payable",
      "type": "function"
    },
    {
      "inputs": [],
      "name": "owner",
      "outputs": [
        {
          "internalType": "address",
          "name": "",
          "type": "address"
        }
      ],
      "stateMutability": "view",
      "type": "function"
    },
    {
      "inputs": [],
      "name": "renounceOwnership",
      "outputs": [],
      "stateMutability": "nonpayable",
      "type": "function"
    },
    {
      "inputs": [
        {
          "internalType": "address",
          "name": "newOwner",
          "type": "address"
        }
      ],
      "name": "transferOwnership",
      "outputs": [],
      "stateMutability": "nonpayable",
      "type": "function"
    },
    {
      "inputs": [
        {
          "internalType": "uint256",
          "name": "_fee",
          "type": "uint256"
        }
      ],
      "name": "updateCreationFee",
      "outputs": [],
      "stateMutability": "nonpayable",
      "type": "function"
    },
    {
      "inputs": [],
      "name": "withdraw",
      "outputs": [],
      "stateMutability": "nonpayable",
      "type": "function"
    },
    {
      "inputs": [
        {
          "internalType": "address",
          "name": "token",
          "type": "address"
        }
      ],
      "name": "withdrawToken",
      "outputs": [],
      "stateMutability": "nonpayable",
      "type": "function"
    },
    {
      "stateMutability": "payable",
      "type": "receive"
    }
  ],
  "bytecode": "0x6080604052674563918244f4000060025534801561001c57600080fd5b50338061004357604051631e4fbdf760e01b81526000600482015260240160405180910390fd5b61004c81610052565b506100a2565b600080546001600160a01b038381166001600160a01b0319831681178455604051919092169283917f8be0079c531659141344cd1fd0a4f28419497f9722a3daafe3b4186f6b6457e09190a35050565b612456806100b16000396000f3fe608060405260043610620000f35760003560e01c80638da5cb5b1162000089578063aa642def1162000060578063aa642def1462000297578063d5f63a0614620002cb578063dce0b4e414620002e3578063f2fde38b14620002fb57600080fd5b80638da5cb5b14620002095780638fd4ec5d14620002295780639f886f26146200027257600080fd5b80636fa2379511620000ca5780636fa237951462000182578063715018a614620001a75780637785cec614620001bf5780638947606914620001e457600080fd5b80633ccfd60b14620001005780633d9dcbcc146200011a57806352e4b288146200014e57600080fd5b36620000fb57005b600080fd5b3480156200010d57600080fd5b506200011862000320565b005b620001316200012b36600462000a66565b62000368565b6040516001600160a01b0390911681526020015b60405180910390f35b3480156200015b57600080fd5b50620001736200016d36600462000b15565b620004fa565b60405162000145919062000c0d565b3480156200018f57600080fd5b5062000118620001a136600462000c22565b62000580565b348015620001b457600080fd5b50620001186200058f565b348015620001cc57600080fd5b5062000131620001de36600462000c3c565b620005a7565b348015620001f157600080fd5b50620001186200020336600462000c69565b620005e0565b3480156200021657600080fd5b506000546001600160a01b031662000131565b3480156200023657600080fd5b50620002636200024836600462000c69565b6001600160a01b031660009081526001602052604090205490565b60405190815260200162000145565b3480156200027f57600080fd5b50620001316200029136600462000c87565b6200071e565b348015620002a457600080fd5b50620002bc620002b636600462000c69565b62000795565b60405162000145919062000ce5565b348015620002d857600080fd5b506200026360035481565b348015620002f057600080fd5b506200026360025481565b3480156200030857600080fd5b50620001186200031a36600462000c69565b6200080d565b6200032a62000867565b600080546040516001600160a01b03909116914780156108fc02929091818181858888f1935050505015801562000365573d6000803e3d6000fd5b50565b600060025434101562000402576040517f08c379a000000000000000000000000000000000000000000000000000000000815260206004820152602760248201527f546872757374706164546f6b656e466163746f72793a20496e7375666669636960448201527f656e74206665650000000000000000000000000000000000000000000000000060648201526084015b60405180910390fd5b336000818152600160205260408082205490519192909189918991899189918991906200042f906200090c565b620004409695949392919062000d34565b8190604051809103906000f590508015801562000461573d6000803e3d6000fd5b50336000818152600160208181526040808420805493840181558452908320909101805473ffffffffffffffffffffffffffffffffffffffff19166001600160a01b0386169081179091559051939450927f46960970e01c8cbebf9e58299b0acf8137b299ef06eb6c4f5be2c0443d5e5f229190a33460036000828254620004ea919062000daa565b9091555090979650505050505050565b606060006040518060200162000510906200090c565b6020820181038252601f19601f82011660405250905080888888888888604051602001620005449695949392919062000d34565b60408051601f198184030181529082905262000564929160200162000dcc565b6040516020818303038152906040529150509695505050505050565b6200058a62000867565b600255565b6200059962000867565b620005a56000620008af565b565b60016020528160005260406000208181548110620005c457600080fd5b6000918252602090912001546001600160a01b03169150829050565b620005ea62000867565b806001600160a01b031663a9059cbb6200060c6000546001600160a01b031690565b6040517f70a082310000000000000000000000000000000000000000000000000000000081523060048201526001600160a01b038516906370a0823190602401602060405180830381865afa1580156200066a573d6000803e3d6000fd5b505050506040513d601f19601f8201168201806040525081019062000690919062000dff565b6040517fffffffff0000000000000000000000000000000000000000000000000000000060e085901b1681526001600160a01b03909216600483015260248201526044016020604051808303816000875af1158015620006f4573d6000803e3d6000fd5b505050506040513d601f19601f820116820180604052508101906200071a919062000e19565b5050565b8151602080840191909120604080517fff00000000000000000000000000000000000000000000000000000000000000818501523060601b6bffffffffffffffffffffffff191660218201526035810185905260558082019390935281518082039093018352607501905280519101205b92915050565b6001600160a01b0381166000908152600160209081526040918290208054835181840281018401909452808452606093928301828280156200080157602002820191906000526020600020905b81546001600160a01b03168152600190910190602001808311620007e2575b50505050509050919050565b6200081762000867565b6001600160a01b0381166200085c576040517f1e4fbdf700000000000000000000000000000000000000000000000000000000815260006004820152602401620003f9565b6200036581620008af565b6000546001600160a01b03163314620005a5576040517f118cdaa7000000000000000000000000000000000000000000000000000000008152336004820152602401620003f9565b600080546001600160a01b0383811673ffffffffffffffffffffffffffffffffffffffff19831681178455604051919092169283917f8be0079c531659141344cd1fd0a4f28419497f9722a3daafe3b4186f6b6457e09190a35050565b6115e78062000e3a83390190565b634e487b7160e01b600052604160045260246000fd5b600067ffffffffffffffff808411156200094e576200094e6200091a565b604051601f8501601f19908116603f011681019082821181831017156200097957620009796200091a565b816040528093508581528686860111156200099357600080fd5b858560208301376000602087830101525050509392505050565b600082601f830112620009bf57600080fd5b620009d08383356020850162000930565b9392505050565b80151581146200036557600080fd5b600060608284031215620009f957600080fd5b6040516060810181811067ffffffffffffffff8211171562000a1f5762000a1f6200091a565b604052905080823562000a3281620009d7565b8152602083013562000a4481620009d7565b6020820152604083013562000a5981620009d7565b6040919091015292915050565b600080600080600060e0868803121562000a7f57600080fd5b853567ffffffffffffffff8082111562000a9857600080fd5b62000aa689838a01620009ad565b9650602088013591508082111562000abd57600080fd5b5062000acc88828901620009ad565b945050604086013592506060860135915062000aec8760808801620009e6565b90509295509295909350565b80356001600160a01b038116811462000b1057600080fd5b919050565b600080600080600080610100878903121562000b3057600080fd5b863567ffffffffffffffff8082111562000b4957600080fd5b62000b578a838b01620009ad565b9750602089013591508082111562000b6e57600080fd5b5062000b7d89828a01620009ad565b955050604087013593506060870135925062000b9d8860808901620009e6565b915062000bad60e0880162000af8565b90509295509295509295565b60005b8381101562000bd657818101518382015260200162000bbc565b50506000910152565b6000815180845262000bf981602086016020860162000bb9565b601f01601f19169290920160200192915050565b602081526000620009d0602083018462000bdf565b60006020828403121562000c3557600080fd5b5035919050565b6000806040838503121562000c5057600080fd5b62000c5b8362000af8565b946020939093013593505050565b60006020828403121562000c7c57600080fd5b620009d08262000af8565b6000806040838503121562000c9b57600080fd5b823567ffffffffffffffff81111562000cb357600080fd5b8301601f8101851362000cc557600080fd5b62000cd68582356020840162000930565b95602094909401359450505050565b6020808252825182820181905260009190848201906040850190845b8181101562000d285783516001600160a01b03168352928401929184019160010162000d01565b50909695505050505050565b600061010080835262000d4a8184018a62000bdf565b9050828103602084015262000d60818962000bdf565b9150508560408301528460608301528351151560808301526020840151151560a08301526040840151151560c08301526001600160a01b03831660e0830152979650505050505050565b808201808211156200078f57634e487b7160e01b600052601160045260246000fd5b6000835162000de081846020880162000bb9565b83519083019062000df681836020880162000bb9565b01949350505050565b60006020828403121562000e1257600080fd5b5051919050565b60006020828403121562000e2c57600080fd5b8151620009d081620009d756fe60806040523480156200001157600080fd5b50604051620015e7380380620015e7833981016040819052620000349162000461565b8086866003620000458382620005da565b506004620000548282620005da565b50506005805460ff19169055506001600160a01b0381166200009157604051631e4fbdf760e01b8152600060048201526024015b60405180910390fd5b6200009c8162000117565b506007849055620000c632620000b486600a620007bb565b620000c09086620007d0565b62000171565b5080516006805460208401516040909401511515620100000262ff0000199415156101000261ff00199415159490941661ffff19909216919091179290921792909216179055506200080092505050565b600580546001600160a01b03838116610100818102610100600160a81b031985161790945560405193909204169182907f8be0079c531659141344cd1fd0a4f28419497f9722a3daafe3b4186f6b6457e090600090a35050565b6001600160a01b0382166200019d5760405163ec442f0560e01b81526000600482015260240162000088565b620001ab60008383620001af565b5050565b620001bc838383620001c1565b505050565b620001cb620001d8565b620001bc838383620001ff565b60055460ff1615620001fd5760405163d93c066560e01b815260040160405180910390fd5b565b6001600160a01b0383166200022e578060026000828254620002229190620007ea565b90915550620002a29050565b6001600160a01b03831660009081526020819052604090205481811015620002835760405163391434e360e21b81526001600160a01b0385166004820152602481018290526044810183905260640162000088565b6001600160a01b03841660009081526020819052604090209082900390555b6001600160a01b038216620002c057600280548290039055620002df565b6001600160a01b03821660009081526020819052604090208054820190555b816001600160a01b0316836001600160a01b03167fddf252ad1be2c89b69c2b068fc378daa952ba7f163c4a11628f55a4df523b3ef836040516200032591815260200190565b60405180910390a3505050565b634e487b7160e01b600052604160045260246000fd5b604051606081016001600160401b03811182821017156200036d576200036d62000332565b60405290565b604051601f8201601f191681016001600160401b03811182821017156200039e576200039e62000332565b604052919050565b600082601f830112620003b857600080fd5b81516001600160401b03811115620003d457620003d462000332565b6020620003ea601f8301601f1916820162000373565b8281528582848701011115620003ff57600080fd5b60005b838110156200041f57858101830151828201840152820162000402565b506000928101909101919091529392505050565b805180151581146200044457600080fd5b919050565b80516001600160a01b03811681146200044457600080fd5b6000806000806000808688036101008112156200047d57600080fd5b87516001600160401b03808211156200049557600080fd5b620004a38b838c01620003a6565b985060208a0151915080821115620004ba57600080fd5b50620004c98a828b01620003a6565b96505060408801519450606088015193506060607f1982011215620004ed57600080fd5b50620004f862000348565b620005066080890162000433565b81526200051660a0890162000433565b60208201526200052960c0890162000433565b604082015291506200053e60e0880162000449565b90509295509295509295565b600181811c908216806200055f57607f821691505b6020821081036200058057634e487b7160e01b600052602260045260246000fd5b50919050565b601f821115620001bc576000816000526020600020601f850160051c81016020861015620005b15750805b601f850160051c820191505b81811015620005d257828155600101620005bd565b505050505050565b81516001600160401b03811115620005f657620005f662000332565b6200060e816200060784546200054a565b8462000586565b602080601f8311600181146200064657600084156200062d5750858301515b600019600386901b1c1916600185901b178555620005d2565b600085815260208120601f198616915b82811015620006775788860151825594840194600190910190840162000656565b5085821015620006965787850151600019600388901b60f8161c191681555b5050505050600190811b01905550565b634e487b7160e01b600052601160045260246000fd5b600181815b80851115620006fd578160001904821115620006e157620006e1620006a6565b80851615620006ef57918102915b93841c9390800290620006c1565b509250929050565b6000826200071657506001620007b5565b816200072557506000620007b5565b81600181146200073e5760028114620007495762000769565b6001915050620007b5565b60ff8411156200075d576200075d620006a6565b50506001821b620007b5565b5060208310610133831016604e8410600b84101617156200078e575081810a620007b5565b6200079a8383620006bc565b8060001904821115620007b157620007b1620006a6565b0290505b92915050565b6000620007c9838362000705565b9392505050565b8082028115828204841417620007b557620007b5620006a6565b80820180821115620007b557620007b5620006a6565b610dd780620008106000396000f3fe608060405234801561001057600080fd5b506004361061016c5760003560e01c806370a08231116100cd5780639006215211610081578063a9059cbb11610066578063a9059cbb146102ec578063dd62ed3e146102ff578063f2fde38b1461033857600080fd5b806390062152146102a557806395d89b41146102e457600080fd5b806379cc6790116100b257806379cc6790146102615780638456cb59146102745780638da5cb5b1461027c57600080fd5b806370a0823114610230578063715018a61461025957600080fd5b806332424aa31161012457806340c10f191161010957806340c10f19146101ff57806342966c68146102125780635c975abb1461022557600080fd5b806332424aa3146101ec5780633f4ba83a146101f557600080fd5b806318160ddd1161015557806318160ddd146101b257806323b872dd146101c4578063313ce567146101d757600080fd5b806306fdde0314610171578063095ea7b31461018f575b600080fd5b61017961034b565b6040516101869190610c07565b60405180910390f35b6101a261019d366004610c72565b6103dd565b6040519015158152602001610186565b6002545b604051908152602001610186565b6101a26101d2366004610c9c565b6103f7565b60075460405160ff9091168152602001610186565b6101b660075481565b6101fd61041b565b005b6101fd61020d366004610c72565b61048f565b6101fd610220366004610cd8565b6104fc565b60055460ff166101a2565b6101b661023e366004610cf1565b6001600160a01b031660009081526020819052604090205490565b6101fd610566565b6101fd61026f366004610c72565b610578565b6101fd61058d565b60055461010090046001600160a01b03166040516001600160a01b039091168152602001610186565b6006546102c59060ff808216916101008104821691620100009091041683565b6040805193151584529115156020840152151590820152606001610186565b6101796105fa565b6101a26102fa366004610c72565b610609565b6101b661030d366004610d13565b6001600160a01b03918216600090815260016020908152604080832093909416825291909152205490565b6101fd610346366004610cf1565b610617565b60606003805461035a90610d46565b80601f016020809104026020016040519081016040528092919081815260200182805461038690610d46565b80156103d35780601f106103a8576101008083540402835291602001916103d3565b820191906000526020600020905b8154815290600101906020018083116103b657829003601f168201915b5050505050905090565b6000336103eb81858561066b565b60019150505b92915050565b60003361040585828561067d565b610410858585610714565b506001949350505050565b610423610773565b60065460ff6101009091041615156001146104855760405162461bcd60e51b815260206004820152601360248201527f70617573696e672069732064697361626c65640000000000000000000000000060448201526064015b60405180910390fd5b61048d6107bf565b565b610497610773565b60065460ff1615156001146104ee5760405162461bcd60e51b815260206004820152601360248201527f6d696e74696e672069732064697361626c656400000000000000000000000000604482015260640161047c565b6104f88282610811565b5050565b60065462010000900460ff1615156001146105595760405162461bcd60e51b815260206004820152601360248201527f6275726e696e672069732064697361626c656400000000000000000000000000604482015260640161047c565b6105633382610847565b50565b61056e610773565b61048d600061087d565b61058382338361067d565b6104f88282610847565b610595610773565b60065460ff6101009091041615156001146105f25760405162461bcd60e51b815260206004820152601360248201527f70617573696e672069732064697361626c656400000000000000000000000000604482015260640161047c565b61048d6108ee565b60606004805461035a90610d46565b6000336103eb818585610714565b61061f610773565b6001600160a01b038116610662576040517f1e4fbdf70000000000000000000000000000000000000000000000000000000081526000600482015260240161047c565b6105638161087d565b610678838383600161092b565b505050565b6001600160a01b03838116600090815260016020908152604080832093861683529290522054600019811461070e57818110156106ff576040517ffb8f41b20000000000000000000000000000000000000000000000000000000081526001600160a01b0384166004820152602481018290526044810183905260640161047c565b61070e8484848403600061092b565b50505050565b6001600160a01b03831661073e57604051634b637e8f60e11b81526000600482015260240161047c565b6001600160a01b0382166107685760405163ec442f0560e01b81526000600482015260240161047c565b610678838383610a32565b6005546001600160a01b0361010090910416331461048d576040517f118cdaa700000000000000000000000000000000000000000000000000000000815233600482015260240161047c565b6107c7610a3d565b6005805460ff191690557f5db9ee0a495bf2e6ff9c91a7834c1ba4fdd244a5e8aa4e537bd38aeae4b073aa335b6040516001600160a01b03909116815260200160405180910390a1565b6001600160a01b03821661083b5760405163ec442f0560e01b81526000600482015260240161047c565b6104f860008383610a32565b6001600160a01b03821661087157604051634b637e8f60e11b81526000600482015260240161047c565b6104f882600083610a32565b600580546001600160a01b038381166101008181027fffffffffffffffffffffff0000000000000000000000000000000000000000ff85161790945560405193909204169182907f8be0079c531659141344cd1fd0a4f28419497f9722a3daafe3b4186f6b6457e090600090a35050565b6108f6610a79565b6005805460ff191660011790557f62e78cea01bee320cd4e420270b5ea74000d11b0c9f74754ebdbfc544b05a2586107f43390565b6001600160a01b03841661096e576040517fe602df050000000000000000000000000000000000000000000000000000000081526000600482015260240161047c565b6001600160a01b0383166109b1576040517f94280d620000000000000000000000000000000000000000000000000000000081526000600482015260240161047c565b6001600160a01b038085166000908152600160209081526040808320938716835292905220829055801561070e57826001600160a01b0316846001600160a01b03167f8c5be1e5ebec7d5bd14f71427d1e84f3dd0314c0f7b2291e5b200ac8c7c3b92584604051610a2491815260200190565b60405180910390a350505050565b610678838383610ab6565b60055460ff1661048d576040517f8dfc202b00000000000000000000000000000000000000000000000000000000815260040160405180910390fd5b60055460ff161561048d576040517fd93c066500000000000000000000000000000000000000000000000000000000815260040160405180910390fd5b610abe610a79565b6106788383836001600160a01b038316610aef578060026000828254610ae49190610d80565b90915550610b7a9050565b6001600160a01b03831660009081526020819052604090205481811015610b5b576040517fe450d38c0000000000000000000000000000000000000000000000000000000081526001600160a01b0385166004820152602481018290526044810183905260640161047c565b6001600160a01b03841660009081526020819052604090209082900390555b6001600160a01b038216610b9657600280548290039055610bb5565b6001600160a01b03821660009081526020819052604090208054820190555b816001600160a01b0316836001600160a01b03167fddf252ad1be2c89b69c2b068fc378daa952ba7f163c4a11628f55a4df523b3ef83604051610bfa91815260200190565b60405180910390a3505050565b60006020808352835180602085015260005b81811015610c3557858101830151858201604001528201610c19565b506000604082860101526040601f19601f8301168501019250505092915050565b80356001600160a01b0381168114610c6d57600080fd5b919050565b60008060408385031215610c8557600080fd5b610c8e83610c56565b946020939093013593505050565b600080600060608486031215610cb157600080fd5b610cba84610c56565b9250610cc860208501610c56565b9150604084013590509250925092565b600060208284031215610cea57600080fd5b5035919050565b600060208284031215610d0357600080fd5b610d0c82610c56565b9392505050565b60008060408385031215610d2657600080fd5b610d2f83610c56565b9150610d3d60208401610c56565b90509250929050565b600181811c90821680610d5a57607f821691505b602082108103610d7a57634e487b7160e01b600052602260045260246000fd5b50919050565b808201808211156103f157634e487b7160e01b600052601160045260246000fdfea26469706673582212200fc1fe4fc4b157b7562d37389bae0bdcf5501cbe569307eb966107f367aecee764736f6c63430008180033a2646970667358221220fada5553cf00e4392b82dec736e2b829736837d590e6d1b40c20f3898bbae9ed64736f6c63430008180033",
  "linkReferences": {},
  "deployedLinkReferences": {}
}