{
  "_format": "hh-sol-artifact-1",
  "contractName": "ThrustpadTokenFactory",
  "sourceName": "contracts/token/ThrustpadTokenFactory.sol",
  "abi": [
    {
      "anonymous": false,
      "inputs": [
        {
          "indexed": true,
          "internalType": "address",
          "name": "creator",
          "type": "address"
        },
        {
          "indexed": true,
          "internalType": "address",
          "name": "token",
          "type": "address"
        }
      ],
      "name": "NewToken",
      "type": "event"
    },
    {
      "inputs": [
        {
          "internalType": "address",
          "name": "",
          "type": "address"
        },
        {
          "internalType": "uint256",
          "name": "",
          "type": "uint256"
        }
      ],
      "name": "deployedTokens",
      "outputs": [
        {
          "internalType": "address",
          "name": "",
          "type": "address"
        }
      ],
      "stateMutability": "view",
      "type": "function"
    },
    {
      "inputs": [
        {
          "internalType": "bytes",
          "name": "bytecode",
          "type": "bytes"
        },
        {
          "internalType": "uint256",
          "name": "salt",
          "type": "uint256"
        }
      ],
      "name": "getAddressCreate2",
      "outputs": [
        {
          "internalType": "address",
          "name": "",
          "type": "address"
        }
      ],
      "stateMutability": "view",
      "type": "function"
    },
    {
      "inputs": [
        {
          "internalType": "string",
          "name": "name",
          "type": "string"
        },
        {
          "internalType": "string",
          "name": "symbol",
          "type": "string"
        },
        {
          "internalType": "uint256",
          "name": "decimals",
          "type": "uint256"
        },
        {
          "internalType": "uint256",
          "name": "supply",
          "type": "uint256"
        },
        {
          "components": [
            {
              "internalType": "bool",
              "name": "mintable",
              "type": "bool"
            },
            {
              "internalType": "bool",
              "name": "pausable",
              "type": "bool"
            },
            {
              "internalType": "bool",
              "name": "burnable",
              "type": "bool"
            }
          ],
          "internalType": "struct LaunchType",
          "name": "launchType",
          "type": "tuple"
        }
      ],
      "name": "getBytecode",
      "outputs": [
        {
          "internalType": "bytes",
          "name": "",
          "type": "bytes"
        }
      ],
      "stateMutability": "pure",
      "type": "function"
    },
    {
      "inputs": [
        {
          "internalType": "address",
          "name": "creator",
          "type": "address"
        }
      ],
      "name": "getdeployedTokens",
      "outputs": [
        {
          "internalType": "address[]",
          "name": "",
          "type": "address[]"
        }
      ],
      "stateMutability": "view",
      "type": "function"
    },
    {
      "inputs": [
        {
          "internalType": "address",
          "name": "creator",
          "type": "address"
        }
      ],
      "name": "getdeployedTokensLen",
      "outputs": [
        {
          "internalType": "uint256",
          "name": "",
          "type": "uint256"
        }
      ],
      "stateMutability": "view",
      "type": "function"
    },
    {
      "inputs": [
        {
          "internalType": "string",
          "name": "name",
          "type": "string"
        },
        {
          "internalType": "string",
          "name": "symbol",
          "type": "string"
        },
        {
          "internalType": "uint256",
          "name": "decimals",
          "type": "uint256"
        },
        {
          "internalType": "uint256",
          "name": "supply",
          "type": "uint256"
        },
        {
          "components": [
            {
              "internalType": "bool",
              "name": "mintable",
              "type": "bool"
            },
            {
              "internalType": "bool",
              "name": "pausable",
              "type": "bool"
            },
            {
              "internalType": "bool",
              "name": "burnable",
              "type": "bool"
            }
          ],
          "internalType": "struct LaunchType",
          "name": "launchType",
          "type": "tuple"
        }
      ],
      "name": "newToken",
      "outputs": [
        {
          "internalType": "address",
          "name": "",
          "type": "address"
        }
      ],
      "stateMutability": "nonpayable",
      "type": "function"
    }
  ],
  "bytecode": "0x608060405234801561001057600080fd5b5061373f806100206000396000f3fe60806040523480156200001157600080fd5b50600436106200006a5760003560e01c80633d9dcbcc146200006f57806348d4095314620000a55780637785cec614620000db5780638fd4ec5d14620001115780639f886f261462000147578063aa642def146200017d575b600080fd5b6200008d6004803603810190620000879190620007f1565b620001b3565b6040516200009c9190620008fc565b60405180910390f35b620000c36004803603810190620000bd9190620007f1565b62000348565b604051620000d29190620009a2565b60405180910390f35b620000f96004803603810190620000f39190620009f7565b620003cd565b604051620001089190620008fc565b60405180910390f35b6200012f600480360381019062000129919062000a3e565b6200041c565b6040516200013e919062000a81565b60405180910390f35b6200016560048036038101906200015f919062000b52565b62000467565b604051620001749190620008fc565b60405180910390f35b6200019b600480360381019062000195919062000a3e565b620004b3565b604051620001aa919062000c86565b60405180910390f35b6000806000803373ffffffffffffffffffffffffffffffffffffffff1673ffffffffffffffffffffffffffffffffffffffff1681526020019081526020016000208054905060001b87878787876040516200020e9062000581565b6200021e95949392919062000d60565b8190604051809103906000f59050801580156200023f573d6000803e3d6000fd5b5090506000803373ffffffffffffffffffffffffffffffffffffffff1673ffffffffffffffffffffffffffffffffffffffff168152602001908152602001600020819080600181540180825580915050600190039060005260206000200160009091909190916101000a81548173ffffffffffffffffffffffffffffffffffffffff021916908373ffffffffffffffffffffffffffffffffffffffff1602179055508073ffffffffffffffffffffffffffffffffffffffff163373ffffffffffffffffffffffffffffffffffffffff167f46960970e01c8cbebf9e58299b0acf8137b299ef06eb6c4f5be2c0443d5e5f2260405160405180910390a38091505095945050505050565b60606000604051806020016200035e9062000581565b6020820181038252601f19601f8201166040525090508087878787876040516020016200039095949392919062000d60565b604051602081830303815290604052604051602001620003b292919062000e0d565b60405160208183030381529060405291505095945050505050565b60006020528160005260406000208181548110620003ea57600080fd5b906000526020600020016000915091509054906101000a900473ffffffffffffffffffffffffffffffffffffffff1681565b60008060008373ffffffffffffffffffffffffffffffffffffffff1673ffffffffffffffffffffffffffffffffffffffff168152602001908152602001600020805490509050919050565b60008060ff60f81b308486805190602001206040516020016200048e949392919062000f2a565b6040516020818303038152906040528051906020012090508060001c91505092915050565b60606000808373ffffffffffffffffffffffffffffffffffffffff1673ffffffffffffffffffffffffffffffffffffffff1681526020019081526020016000208054806020026020016040519081016040528092919081815260200182805480156200057557602002820191906000526020600020905b8160009054906101000a900473ffffffffffffffffffffffffffffffffffffffff1673ffffffffffffffffffffffffffffffffffffffff16815260200190600101908083116200052a575b50505050509050919050565b6127898062000f8183390190565b6000604051905090565b600080fd5b600080fd5b600080fd5b600080fd5b6000601f19601f8301169050919050565b7f4e487b7100000000000000000000000000000000000000000000000000000000600052604160045260246000fd5b620005f882620005ad565b810181811067ffffffffffffffff821117156200061a5762000619620005be565b5b80604052505050565b60006200062f6200058f565b90506200063d8282620005ed565b919050565b600067ffffffffffffffff82111562000660576200065f620005be565b5b6200066b82620005ad565b9050602081019050919050565b82818337600083830152505050565b60006200069e620006988462000642565b62000623565b905082815260208101848484011115620006bd57620006bc620005a8565b5b620006ca84828562000678565b509392505050565b600082601f830112620006ea57620006e9620005a3565b5b8135620006fc84826020860162000687565b91505092915050565b6000819050919050565b6200071a8162000705565b81146200072657600080fd5b50565b6000813590506200073a816200070f565b92915050565b600080fd5b60008115159050919050565b6200075c8162000745565b81146200076857600080fd5b50565b6000813590506200077c8162000751565b92915050565b6000606082840312156200079b576200079a62000740565b5b620007a7606062000623565b90506000620007b9848285016200076b565b6000830152506020620007cf848285016200076b565b6020830152506040620007e5848285016200076b565b60408301525092915050565b600080600080600060e0868803121562000810576200080f62000599565b5b600086013567ffffffffffffffff8111156200083157620008306200059e565b5b6200083f88828901620006d2565b955050602086013567ffffffffffffffff8111156200086357620008626200059e565b5b6200087188828901620006d2565b9450506040620008848882890162000729565b9350506060620008978882890162000729565b9250506080620008aa8882890162000782565b9150509295509295909350565b600073ffffffffffffffffffffffffffffffffffffffff82169050919050565b6000620008e482620008b7565b9050919050565b620008f681620008d7565b82525050565b6000602082019050620009136000830184620008eb565b92915050565b600081519050919050565b600082825260208201905092915050565b60005b838110156200095557808201518184015260208101905062000938565b60008484015250505050565b60006200096e8262000919565b6200097a818562000924565b93506200098c81856020860162000935565b6200099781620005ad565b840191505092915050565b60006020820190508181036000830152620009be818462000961565b905092915050565b620009d181620008d7565b8114620009dd57600080fd5b50565b600081359050620009f181620009c6565b92915050565b6000806040838503121562000a115762000a1062000599565b5b600062000a2185828601620009e0565b925050602062000a348582860162000729565b9150509250929050565b60006020828403121562000a575762000a5662000599565b5b600062000a6784828501620009e0565b91505092915050565b62000a7b8162000705565b82525050565b600060208201905062000a98600083018462000a70565b92915050565b600067ffffffffffffffff82111562000abc5762000abb620005be565b5b62000ac782620005ad565b9050602081019050919050565b600062000aeb62000ae58462000a9e565b62000623565b90508281526020810184848401111562000b0a5762000b09620005a8565b5b62000b1784828562000678565b509392505050565b600082601f83011262000b375762000b36620005a3565b5b813562000b4984826020860162000ad4565b91505092915050565b6000806040838503121562000b6c5762000b6b62000599565b5b600083013567ffffffffffffffff81111562000b8d5762000b8c6200059e565b5b62000b9b8582860162000b1f565b925050602062000bae8582860162000729565b9150509250929050565b600081519050919050565b600082825260208201905092915050565b6000819050602082019050919050565b62000bef81620008d7565b82525050565b600062000c03838362000be4565b60208301905092915050565b6000602082019050919050565b600062000c298262000bb8565b62000c35818562000bc3565b935062000c428362000bd4565b8060005b8381101562000c7957815162000c5d888262000bf5565b975062000c6a8362000c0f565b92505060018101905062000c46565b5085935050505092915050565b6000602082019050818103600083015262000ca2818462000c1c565b905092915050565b600081519050919050565b600082825260208201905092915050565b600062000cd38262000caa565b62000cdf818562000cb5565b935062000cf181856020860162000935565b62000cfc81620005ad565b840191505092915050565b62000d128162000745565b82525050565b60608201600082015162000d30600085018262000d07565b50602082015162000d45602085018262000d07565b50604082015162000d5a604085018262000d07565b50505050565b600060e082019050818103600083015262000d7c818862000cc6565b9050818103602083015262000d92818762000cc6565b905062000da3604083018662000a70565b62000db2606083018562000a70565b62000dc1608083018462000d18565b9695505050505050565b600081905092915050565b600062000de38262000919565b62000def818562000dcb565b935062000e0181856020860162000935565b80840191505092915050565b600062000e1b828562000dd6565b915062000e29828462000dd6565b91508190509392505050565b60007fff0000000000000000000000000000000000000000000000000000000000000082169050919050565b6000819050919050565b62000e8062000e7a8262000e35565b62000e61565b82525050565b60008160601b9050919050565b600062000ea08262000e86565b9050919050565b600062000eb48262000e93565b9050919050565b62000ed062000eca82620008d7565b62000ea7565b82525050565b6000819050919050565b62000ef562000eef8262000705565b62000ed6565b82525050565b6000819050919050565b6000819050919050565b62000f2462000f1e8262000efb565b62000f05565b82525050565b600062000f38828762000e6b565b60018201915062000f4a828662000ebb565b60148201915062000f5c828562000ee0565b60208201915062000f6e828462000f0f565b6020820191508190509594505050505056fe60806040523480156200001157600080fd5b506040516200278938038062002789833981810160405281019062000037919062000843565b32858581600390816200004b919062000b4a565b5080600490816200005d919062000b4a565b5050506000600560006101000a81548160ff021916908315150217905550600073ffffffffffffffffffffffffffffffffffffffff168173ffffffffffffffffffffffffffffffffffffffff1603620000f05760006040517f1e4fbdf7000000000000000000000000000000000000000000000000000000008152600401620000e7919062000c76565b60405180910390fd5b6200010181620001a060201b60201c565b506200012f3284600a62000116919062000e16565b8462000123919062000e67565b6200026660201b60201c565b80600660008201518160000160006101000a81548160ff02191690831515021790555060208201518160000160016101000a81548160ff02191690831515021790555060408201518160000160026101000a81548160ff021916908315150217905550905050505050505062000f58565b6000600560019054906101000a900473ffffffffffffffffffffffffffffffffffffffff16905081600560016101000a81548173ffffffffffffffffffffffffffffffffffffffff021916908373ffffffffffffffffffffffffffffffffffffffff1602179055508173ffffffffffffffffffffffffffffffffffffffff168173ffffffffffffffffffffffffffffffffffffffff167f8be0079c531659141344cd1fd0a4f28419497f9722a3daafe3b4186f6b6457e060405160405180910390a35050565b600073ffffffffffffffffffffffffffffffffffffffff168273ffffffffffffffffffffffffffffffffffffffff1603620002db5760006040517fec442f05000000000000000000000000000000000000000000000000000000008152600401620002d2919062000c76565b60405180910390fd5b620002ef60008383620002f360201b60201c565b5050565b620003068383836200030b60201b60201c565b505050565b6200031b6200033360201b60201c565b6200032e8383836200037d60201b60201c565b505050565b62000343620005ad60201b60201c565b156200037b576040517fd93c066500000000000000000000000000000000000000000000000000000000815260040160405180910390fd5b565b600073ffffffffffffffffffffffffffffffffffffffff168373ffffffffffffffffffffffffffffffffffffffff1603620003d3578060026000828254620003c6919062000eb2565b92505081905550620004a9565b60008060008573ffffffffffffffffffffffffffffffffffffffff1673ffffffffffffffffffffffffffffffffffffffff1681526020019081526020016000205490508181101562000462578381836040517fe450d38c000000000000000000000000000000000000000000000000000000008152600401620004599392919062000efe565b60405180910390fd5b8181036000808673ffffffffffffffffffffffffffffffffffffffff1673ffffffffffffffffffffffffffffffffffffffff16815260200190815260200160002081905550505b600073ffffffffffffffffffffffffffffffffffffffff168273ffffffffffffffffffffffffffffffffffffffff1603620004f4578060026000828254039250508190555062000541565b806000808473ffffffffffffffffffffffffffffffffffffffff1673ffffffffffffffffffffffffffffffffffffffff168152602001908152602001600020600082825401925050819055505b8173ffffffffffffffffffffffffffffffffffffffff168373ffffffffffffffffffffffffffffffffffffffff167fddf252ad1be2c89b69c2b068fc378daa952ba7f163c4a11628f55a4df523b3ef83604051620005a0919062000f3b565b60405180910390a3505050565b6000600560009054906101000a900460ff16905090565b6000604051905090565b600080fd5b600080fd5b600080fd5b600080fd5b6000601f19601f8301169050919050565b7f4e487b7100000000000000000000000000000000000000000000000000000000600052604160045260246000fd5b6200062d82620005e2565b810181811067ffffffffffffffff821117156200064f576200064e620005f3565b5b80604052505050565b600062000664620005c4565b905062000672828262000622565b919050565b600067ffffffffffffffff821115620006955762000694620005f3565b5b620006a082620005e2565b9050602081019050919050565b60005b83811015620006cd578082015181840152602081019050620006b0565b60008484015250505050565b6000620006f0620006ea8462000677565b62000658565b9050828152602081018484840111156200070f576200070e620005dd565b5b6200071c848285620006ad565b509392505050565b600082601f8301126200073c576200073b620005d8565b5b81516200074e848260208601620006d9565b91505092915050565b6000819050919050565b6200076c8162000757565b81146200077857600080fd5b50565b6000815190506200078c8162000761565b92915050565b600080fd5b60008115159050919050565b620007ae8162000797565b8114620007ba57600080fd5b50565b600081519050620007ce81620007a3565b92915050565b600060608284031215620007ed57620007ec62000792565b5b620007f9606062000658565b905060006200080b84828501620007bd565b60008301525060206200082184828501620007bd565b60208301525060406200083784828501620007bd565b60408301525092915050565b600080600080600060e08688031215620008625762000861620005ce565b5b600086015167ffffffffffffffff811115620008835762000882620005d3565b5b620008918882890162000724565b955050602086015167ffffffffffffffff811115620008b557620008b4620005d3565b5b620008c38882890162000724565b9450506040620008d6888289016200077b565b9350506060620008e9888289016200077b565b9250506080620008fc88828901620007d4565b9150509295509295909350565b600081519050919050565b7f4e487b7100000000000000000000000000000000000000000000000000000000600052602260045260246000fd5b600060028204905060018216806200095c57607f821691505b60208210810362000972576200097162000914565b5b50919050565b60008190508160005260206000209050919050565b60006020601f8301049050919050565b600082821b905092915050565b600060088302620009dc7fffffffffffffffffffffffffffffffffffffffffffffffffffffffffffffffff826200099d565b620009e886836200099d565b95508019841693508086168417925050509392505050565b6000819050919050565b600062000a2b62000a2562000a1f8462000757565b62000a00565b62000757565b9050919050565b6000819050919050565b62000a478362000a0a565b62000a5f62000a568262000a32565b848454620009aa565b825550505050565b600090565b62000a7662000a67565b62000a8381848462000a3c565b505050565b5b8181101562000aab5762000a9f60008262000a6c565b60018101905062000a89565b5050565b601f82111562000afa5762000ac48162000978565b62000acf846200098d565b8101602085101562000adf578190505b62000af762000aee856200098d565b83018262000a88565b50505b505050565b600082821c905092915050565b600062000b1f6000198460080262000aff565b1980831691505092915050565b600062000b3a838362000b0c565b9150826002028217905092915050565b62000b558262000909565b67ffffffffffffffff81111562000b715762000b70620005f3565b5b62000b7d825462000943565b62000b8a82828562000aaf565b600060209050601f83116001811462000bc2576000841562000bad578287015190505b62000bb9858262000b2c565b86555062000c29565b601f19841662000bd28662000978565b60005b8281101562000bfc5784890151825560018201915060208501945060208101905062000bd5565b8683101562000c1c578489015162000c18601f89168262000b0c565b8355505b6001600288020188555050505b505050505050565b600073ffffffffffffffffffffffffffffffffffffffff82169050919050565b600062000c5e8262000c31565b9050919050565b62000c708162000c51565b82525050565b600060208201905062000c8d600083018462000c65565b92915050565b7f4e487b7100000000000000000000000000000000000000000000000000000000600052601160045260246000fd5b60008160011c9050919050565b6000808291508390505b600185111562000d215780860481111562000cf95762000cf862000c93565b5b600185161562000d095780820291505b808102905062000d198562000cc2565b945062000cd9565b94509492505050565b60008262000d3c576001905062000e0f565b8162000d4c576000905062000e0f565b816001811462000d65576002811462000d705762000da6565b600191505062000e0f565b60ff84111562000d855762000d8462000c93565b5b8360020a91508482111562000d9f5762000d9e62000c93565b5b5062000e0f565b5060208310610133831016604e8410600b841016171562000de05782820a90508381111562000dda5762000dd962000c93565b5b62000e0f565b62000def848484600162000ccf565b9250905081840481111562000e095762000e0862000c93565b5b81810290505b9392505050565b600062000e238262000757565b915062000e308362000757565b925062000e5f7fffffffffffffffffffffffffffffffffffffffffffffffffffffffffffffffff848462000d2a565b905092915050565b600062000e748262000757565b915062000e818362000757565b925082820262000e918162000757565b9150828204841483151762000eab5762000eaa62000c93565b5b5092915050565b600062000ebf8262000757565b915062000ecc8362000757565b925082820190508082111562000ee75762000ee662000c93565b5b92915050565b62000ef88162000757565b82525050565b600060608201905062000f15600083018662000c65565b62000f24602083018562000eed565b62000f33604083018462000eed565b949350505050565b600060208201905062000f52600083018462000eed565b92915050565b6118218062000f686000396000f3fe608060405234801561001057600080fd5b50600436106101215760003560e01c806370a08231116100ad578063900621521161007157806390062152146102be57806395d89b41146102de578063a9059cbb146102fc578063dd62ed3e1461032c578063f2fde38b1461035c57610121565b806370a0823114610240578063715018a61461027057806379cc67901461027a5780638456cb59146102965780638da5cb5b146102a057610121565b8063313ce567116100f4578063313ce567146101c25780633f4ba83a146101e057806340c10f19146101ea57806342966c68146102065780635c975abb1461022257610121565b806306fdde0314610126578063095ea7b31461014457806318160ddd1461017457806323b872dd14610192575b600080fd5b61012e610378565b60405161013b91906112cd565b60405180910390f35b61015e60048036038101906101599190611388565b61040a565b60405161016b91906113e3565b60405180910390f35b61017c61042d565b604051610189919061140d565b60405180910390f35b6101ac60048036038101906101a79190611428565b610437565b6040516101b991906113e3565b60405180910390f35b6101ca610466565b6040516101d79190611497565b60405180910390f35b6101e861046f565b005b61020460048036038101906101ff9190611388565b6104da565b005b610220600480360381019061021b91906114b2565b610549565b005b61022a6105b6565b60405161023791906113e3565b60405180910390f35b61025a600480360381019061025591906114df565b6105cd565b604051610267919061140d565b60405180910390f35b610278610615565b005b610294600480360381019061028f9190611388565b610629565b005b61029e610649565b005b6102a86106b4565b6040516102b5919061151b565b60405180910390f35b6102c66106de565b6040516102d593929190611536565b60405180910390f35b6102e661071d565b6040516102f391906112cd565b60405180910390f35b61031660048036038101906103119190611388565b6107af565b60405161032391906113e3565b60405180910390f35b6103466004803603810190610341919061156d565b6107d2565b604051610353919061140d565b60405180910390f35b610376600480360381019061037191906114df565b610859565b005b606060038054610387906115dc565b80601f01602080910402602001604051908101604052809291908181526020018280546103b3906115dc565b80156104005780601f106103d557610100808354040283529160200191610400565b820191906000526020600020905b8154815290600101906020018083116103e357829003601f168201915b5050505050905090565b6000806104156108df565b90506104228185856108e7565b600191505092915050565b6000600254905090565b6000806104426108df565b905061044f8582856108f9565b61045a85858561098d565b60019150509392505050565b60006012905090565b610477610a81565b60011515600660000160019054906101000a900460ff161515146104d0576040517f08c379a00000000000000000000000000000000000000000000000000000000081526004016104c790611659565b60405180910390fd5b6104d8610b08565b565b6104e2610a81565b60011515600660000160009054906101000a900460ff1615151461053b576040517f08c379a0000000000000000000000000000000000000000000000000000000008152600401610532906116c5565b60405180910390fd5b6105458282610b6b565b5050565b60011515600660000160029054906101000a900460ff161515146105a2576040517f08c379a000000000000000000000000000000000000000000000000000000000815260040161059990611731565b60405180910390fd5b6105b36105ad6108df565b82610bed565b50565b6000600560009054906101000a900460ff16905090565b60008060008373ffffffffffffffffffffffffffffffffffffffff1673ffffffffffffffffffffffffffffffffffffffff168152602001908152602001600020549050919050565b61061d610a81565b6106276000610c6f565b565b61063b826106356108df565b836108f9565b6106458282610bed565b5050565b610651610a81565b60011515600660000160019054906101000a900460ff161515146106aa576040517f08c379a00000000000000000000000000000000000000000000000000000000081526004016106a190611659565b60405180910390fd5b6106b2610d35565b565b6000600560019054906101000a900473ffffffffffffffffffffffffffffffffffffffff16905090565b60068060000160009054906101000a900460ff16908060000160019054906101000a900460ff16908060000160029054906101000a900460ff16905083565b60606004805461072c906115dc565b80601f0160208091040260200160405190810160405280929190818152602001828054610758906115dc565b80156107a55780601f1061077a576101008083540402835291602001916107a5565b820191906000526020600020905b81548152906001019060200180831161078857829003601f168201915b5050505050905090565b6000806107ba6108df565b90506107c781858561098d565b600191505092915050565b6000600160008473ffffffffffffffffffffffffffffffffffffffff1673ffffffffffffffffffffffffffffffffffffffff16815260200190815260200160002060008373ffffffffffffffffffffffffffffffffffffffff1673ffffffffffffffffffffffffffffffffffffffff16815260200190815260200160002054905092915050565b610861610a81565b600073ffffffffffffffffffffffffffffffffffffffff168173ffffffffffffffffffffffffffffffffffffffff16036108d35760006040517f1e4fbdf70000000000000000000000000000000000000000000000000000000081526004016108ca919061151b565b60405180910390fd5b6108dc81610c6f565b50565b600033905090565b6108f48383836001610d98565b505050565b600061090584846107d2565b90507fffffffffffffffffffffffffffffffffffffffffffffffffffffffffffffffff81146109875781811015610977578281836040517ffb8f41b200000000000000000000000000000000000000000000000000000000815260040161096e93929190611751565b60405180910390fd5b61098684848484036000610d98565b5b50505050565b600073ffffffffffffffffffffffffffffffffffffffff168373ffffffffffffffffffffffffffffffffffffffff16036109ff5760006040517f96c6fd1e0000000000000000000000000000000000000000000000000000000081526004016109f6919061151b565b60405180910390fd5b600073ffffffffffffffffffffffffffffffffffffffff168273ffffffffffffffffffffffffffffffffffffffff1603610a715760006040517fec442f05000000000000000000000000000000000000000000000000000000008152600401610a68919061151b565b60405180910390fd5b610a7c838383610f6f565b505050565b610a896108df565b73ffffffffffffffffffffffffffffffffffffffff16610aa76106b4565b73ffffffffffffffffffffffffffffffffffffffff1614610b0657610aca6108df565b6040517f118cdaa7000000000000000000000000000000000000000000000000000000008152600401610afd919061151b565b60405180910390fd5b565b610b10610f7f565b6000600560006101000a81548160ff0219169083151502179055507f5db9ee0a495bf2e6ff9c91a7834c1ba4fdd244a5e8aa4e537bd38aeae4b073aa610b546108df565b604051610b61919061151b565b60405180910390a1565b600073ffffffffffffffffffffffffffffffffffffffff168273ffffffffffffffffffffffffffffffffffffffff1603610bdd5760006040517fec442f05000000000000000000000000000000000000000000000000000000008152600401610bd4919061151b565b60405180910390fd5b610be960008383610f6f565b5050565b600073ffffffffffffffffffffffffffffffffffffffff168273ffffffffffffffffffffffffffffffffffffffff1603610c5f5760006040517f96c6fd1e000000000000000000000000000000000000000000000000000000008152600401610c56919061151b565b60405180910390fd5b610c6b82600083610f6f565b5050565b6000600560019054906101000a900473ffffffffffffffffffffffffffffffffffffffff16905081600560016101000a81548173ffffffffffffffffffffffffffffffffffffffff021916908373ffffffffffffffffffffffffffffffffffffffff1602179055508173ffffffffffffffffffffffffffffffffffffffff168173ffffffffffffffffffffffffffffffffffffffff167f8be0079c531659141344cd1fd0a4f28419497f9722a3daafe3b4186f6b6457e060405160405180910390a35050565b610d3d610fbf565b6001600560006101000a81548160ff0219169083151502179055507f62e78cea01bee320cd4e420270b5ea74000d11b0c9f74754ebdbfc544b05a258610d816108df565b604051610d8e919061151b565b60405180910390a1565b600073ffffffffffffffffffffffffffffffffffffffff168473ffffffffffffffffffffffffffffffffffffffff1603610e0a5760006040517fe602df05000000000000000000000000000000000000000000000000000000008152600401610e01919061151b565b60405180910390fd5b600073ffffffffffffffffffffffffffffffffffffffff168373ffffffffffffffffffffffffffffffffffffffff1603610e7c5760006040517f94280d62000000000000000000000000000000000000000000000000000000008152600401610e73919061151b565b60405180910390fd5b81600160008673ffffffffffffffffffffffffffffffffffffffff1673ffffffffffffffffffffffffffffffffffffffff16815260200190815260200160002060008573ffffffffffffffffffffffffffffffffffffffff1673ffffffffffffffffffffffffffffffffffffffff168152602001908152602001600020819055508015610f69578273ffffffffffffffffffffffffffffffffffffffff168473ffffffffffffffffffffffffffffffffffffffff167f8c5be1e5ebec7d5bd14f71427d1e84f3dd0314c0f7b2291e5b200ac8c7c3b92584604051610f60919061140d565b60405180910390a35b50505050565b610f7a838383611000565b505050565b610f876105b6565b610fbd576040517f8dfc202b00000000000000000000000000000000000000000000000000000000815260040160405180910390fd5b565b610fc76105b6565b15610ffe576040517fd93c066500000000000000000000000000000000000000000000000000000000815260040160405180910390fd5b565b611008610fbf565b611013838383611018565b505050565b600073ffffffffffffffffffffffffffffffffffffffff168373ffffffffffffffffffffffffffffffffffffffff160361106a57806002600082825461105e91906117b7565b9250508190555061113d565b60008060008573ffffffffffffffffffffffffffffffffffffffff1673ffffffffffffffffffffffffffffffffffffffff168152602001908152602001600020549050818110156110f6578381836040517fe450d38c0000000000000000000000000000000000000000000000000000000081526004016110ed93929190611751565b60405180910390fd5b8181036000808673ffffffffffffffffffffffffffffffffffffffff1673ffffffffffffffffffffffffffffffffffffffff16815260200190815260200160002081905550505b600073ffffffffffffffffffffffffffffffffffffffff168273ffffffffffffffffffffffffffffffffffffffff160361118657806002600082825403925050819055506111d3565b806000808473ffffffffffffffffffffffffffffffffffffffff1673ffffffffffffffffffffffffffffffffffffffff168152602001908152602001600020600082825401925050819055505b8173ffffffffffffffffffffffffffffffffffffffff168373ffffffffffffffffffffffffffffffffffffffff167fddf252ad1be2c89b69c2b068fc378daa952ba7f163c4a11628f55a4df523b3ef83604051611230919061140d565b60405180910390a3505050565b600081519050919050565b600082825260208201905092915050565b60005b8381101561127757808201518184015260208101905061125c565b60008484015250505050565b6000601f19601f8301169050919050565b600061129f8261123d565b6112a98185611248565b93506112b9818560208601611259565b6112c281611283565b840191505092915050565b600060208201905081810360008301526112e78184611294565b905092915050565b600080fd5b600073ffffffffffffffffffffffffffffffffffffffff82169050919050565b600061131f826112f4565b9050919050565b61132f81611314565b811461133a57600080fd5b50565b60008135905061134c81611326565b92915050565b6000819050919050565b61136581611352565b811461137057600080fd5b50565b6000813590506113828161135c565b92915050565b6000806040838503121561139f5761139e6112ef565b5b60006113ad8582860161133d565b92505060206113be85828601611373565b9150509250929050565b60008115159050919050565b6113dd816113c8565b82525050565b60006020820190506113f860008301846113d4565b92915050565b61140781611352565b82525050565b600060208201905061142260008301846113fe565b92915050565b600080600060608486031215611441576114406112ef565b5b600061144f8682870161133d565b93505060206114608682870161133d565b925050604061147186828701611373565b9150509250925092565b600060ff82169050919050565b6114918161147b565b82525050565b60006020820190506114ac6000830184611488565b92915050565b6000602082840312156114c8576114c76112ef565b5b60006114d684828501611373565b91505092915050565b6000602082840312156114f5576114f46112ef565b5b60006115038482850161133d565b91505092915050565b61151581611314565b82525050565b6000602082019050611530600083018461150c565b92915050565b600060608201905061154b60008301866113d4565b61155860208301856113d4565b61156560408301846113d4565b949350505050565b60008060408385031215611584576115836112ef565b5b60006115928582860161133d565b92505060206115a38582860161133d565b9150509250929050565b7f4e487b7100000000000000000000000000000000000000000000000000000000600052602260045260246000fd5b600060028204905060018216806115f457607f821691505b602082108103611607576116066115ad565b5b50919050565b7f70617573696e672069732064697361626c656400000000000000000000000000600082015250565b6000611643601383611248565b915061164e8261160d565b602082019050919050565b6000602082019050818103600083015261167281611636565b9050919050565b7f6d696e74696e672069732064697361626c656400000000000000000000000000600082015250565b60006116af601383611248565b91506116ba82611679565b602082019050919050565b600060208201905081810360008301526116de816116a2565b9050919050565b7f6275726e696e672069732064697361626c656400000000000000000000000000600082015250565b600061171b601383611248565b9150611726826116e5565b602082019050919050565b6000602082019050818103600083015261174a8161170e565b9050919050565b6000606082019050611766600083018661150c565b61177360208301856113fe565b61178060408301846113fe565b949350505050565b7f4e487b7100000000000000000000000000000000000000000000000000000000600052601160045260246000fd5b60006117c282611352565b91506117cd83611352565b92508282019050808211156117e5576117e4611788565b5b9291505056fea2646970667358221220a6b97f80fd1bdf452453561f033a00ccb61e72c964afb00bcee2a27124a4d54a64736f6c63430008180033a26469706673582212202d5d024756736971d5f3c8ec50a075e490849d8a39c24db3fe0b96964e131f0464736f6c63430008180033",
  "linkReferences": {},
  "deployedLinkReferences": {}
}