{
  "_format": "hh-sol-artifact-1",
  "contractName": "ThrustpadTokenFactory",
  "sourceName": "contracts/token/ThrustpadTokenFactory.sol",
  "abi": [
    {
      "inputs": [],
      "stateMutability": "nonpayable",
      "type": "constructor"
    },
    {
      "inputs": [
        {
          "internalType": "address",
          "name": "owner",
          "type": "address"
        }
      ],
      "name": "OwnableInvalidOwner",
      "type": "error"
    },
    {
      "inputs": [
        {
          "internalType": "address",
          "name": "account",
          "type": "address"
        }
      ],
      "name": "OwnableUnauthorizedAccount",
      "type": "error"
    },
    {
      "anonymous": false,
      "inputs": [
        {
          "indexed": true,
          "internalType": "address",
          "name": "creator",
          "type": "address"
        },
        {
          "indexed": true,
          "internalType": "address",
          "name": "token",
          "type": "address"
        }
      ],
      "name": "NewToken",
      "type": "event"
    },
    {
      "anonymous": false,
      "inputs": [
        {
          "indexed": true,
          "internalType": "address",
          "name": "previousOwner",
          "type": "address"
        },
        {
          "indexed": true,
          "internalType": "address",
          "name": "newOwner",
          "type": "address"
        }
      ],
      "name": "OwnershipTransferred",
      "type": "event"
    },
    {
      "inputs": [],
      "name": "creationFee",
      "outputs": [
        {
          "internalType": "uint256",
          "name": "",
          "type": "uint256"
        }
      ],
      "stateMutability": "view",
      "type": "function"
    },
    {
      "inputs": [
        {
          "internalType": "address",
          "name": "",
          "type": "address"
        },
        {
          "internalType": "uint256",
          "name": "",
          "type": "uint256"
        }
      ],
      "name": "deployedTokens",
      "outputs": [
        {
          "internalType": "address",
          "name": "",
          "type": "address"
        }
      ],
      "stateMutability": "view",
      "type": "function"
    },
    {
      "inputs": [],
      "name": "feeEarned",
      "outputs": [
        {
          "internalType": "uint256",
          "name": "",
          "type": "uint256"
        }
      ],
      "stateMutability": "view",
      "type": "function"
    },
    {
      "inputs": [
        {
          "internalType": "bytes",
          "name": "bytecode",
          "type": "bytes"
        },
        {
          "internalType": "uint256",
          "name": "salt",
          "type": "uint256"
        }
      ],
      "name": "getAddressCreate2",
      "outputs": [
        {
          "internalType": "address",
          "name": "",
          "type": "address"
        }
      ],
      "stateMutability": "view",
      "type": "function"
    },
    {
      "inputs": [
        {
          "internalType": "string",
          "name": "name",
          "type": "string"
        },
        {
          "internalType": "string",
          "name": "symbol",
          "type": "string"
        },
        {
          "internalType": "uint256",
          "name": "decimals",
          "type": "uint256"
        },
        {
          "internalType": "uint256",
          "name": "supply",
          "type": "uint256"
        },
        {
          "components": [
            {
              "internalType": "bool",
              "name": "mintable",
              "type": "bool"
            },
            {
              "internalType": "bool",
              "name": "pausable",
              "type": "bool"
            },
            {
              "internalType": "bool",
              "name": "burnable",
              "type": "bool"
            }
          ],
          "internalType": "struct LaunchType",
          "name": "launchType",
          "type": "tuple"
        },
        {
          "internalType": "address",
          "name": "_owner",
          "type": "address"
        }
      ],
      "name": "getBytecode",
      "outputs": [
        {
          "internalType": "bytes",
          "name": "",
          "type": "bytes"
        }
      ],
      "stateMutability": "pure",
      "type": "function"
    },
    {
      "inputs": [
        {
          "internalType": "address",
          "name": "creator",
          "type": "address"
        }
      ],
      "name": "getdeployedTokens",
      "outputs": [
        {
          "internalType": "address[]",
          "name": "",
          "type": "address[]"
        }
      ],
      "stateMutability": "view",
      "type": "function"
    },
    {
      "inputs": [
        {
          "internalType": "address",
          "name": "creator",
          "type": "address"
        }
      ],
      "name": "getdeployedTokensLen",
      "outputs": [
        {
          "internalType": "uint256",
          "name": "",
          "type": "uint256"
        }
      ],
      "stateMutability": "view",
      "type": "function"
    },
    {
      "inputs": [
        {
          "internalType": "string",
          "name": "name",
          "type": "string"
        },
        {
          "internalType": "string",
          "name": "symbol",
          "type": "string"
        },
        {
          "internalType": "uint256",
          "name": "decimals",
          "type": "uint256"
        },
        {
          "internalType": "uint256",
          "name": "supply",
          "type": "uint256"
        },
        {
          "components": [
            {
              "internalType": "bool",
              "name": "mintable",
              "type": "bool"
            },
            {
              "internalType": "bool",
              "name": "pausable",
              "type": "bool"
            },
            {
              "internalType": "bool",
              "name": "burnable",
              "type": "bool"
            }
          ],
          "internalType": "struct LaunchType",
          "name": "launchType",
          "type": "tuple"
        }
      ],
      "name": "newToken",
      "outputs": [
        {
          "internalType": "address",
          "name": "",
          "type": "address"
        }
      ],
      "stateMutability": "payable",
      "type": "function"
    },
    {
      "inputs": [],
      "name": "owner",
      "outputs": [
        {
          "internalType": "address",
          "name": "",
          "type": "address"
        }
      ],
      "stateMutability": "view",
      "type": "function"
    },
    {
      "inputs": [],
      "name": "renounceOwnership",
      "outputs": [],
      "stateMutability": "nonpayable",
      "type": "function"
    },
    {
      "inputs": [
        {
          "internalType": "address",
          "name": "newOwner",
          "type": "address"
        }
      ],
      "name": "transferOwnership",
      "outputs": [],
      "stateMutability": "nonpayable",
      "type": "function"
    },
    {
      "inputs": [],
      "name": "withdraw",
      "outputs": [],
      "stateMutability": "nonpayable",
      "type": "function"
    },
    {
      "inputs": [
        {
          "internalType": "address",
          "name": "token",
          "type": "address"
        }
      ],
      "name": "withdrawToken",
      "outputs": [],
      "stateMutability": "nonpayable",
      "type": "function"
    },
    {
      "stateMutability": "payable",
      "type": "receive"
    }
  ],
  "bytecode": "0x6080604052670de0b6b3a76400006002553480156200001d57600080fd5b5033600073ffffffffffffffffffffffffffffffffffffffff168173ffffffffffffffffffffffffffffffffffffffff1603620000945760006040517f1e4fbdf70000000000000000000000000000000000000000000000000000000081526004016200008b9190620001b5565b60405180910390fd5b620000a581620000ac60201b60201c565b50620001d2565b60008060009054906101000a900473ffffffffffffffffffffffffffffffffffffffff169050816000806101000a81548173ffffffffffffffffffffffffffffffffffffffff021916908373ffffffffffffffffffffffffffffffffffffffff1602179055508173ffffffffffffffffffffffffffffffffffffffff168173ffffffffffffffffffffffffffffffffffffffff167f8be0079c531659141344cd1fd0a4f28419497f9722a3daafe3b4186f6b6457e060405160405180910390a35050565b600073ffffffffffffffffffffffffffffffffffffffff82169050919050565b60006200019d8262000170565b9050919050565b620001af8162000190565b82525050565b6000602082019050620001cc6000830184620001a4565b92915050565b61405f80620001e26000396000f3fe608060405260043610620000d95760003560e01c80638da5cb5b116200008b578063aa642def1162000061578063aa642def14620002be578063d5f63a061462000302578063dce0b4e41462000332578063f2fde38b146200036257620000e1565b80638da5cb5b14620002065780638fd4ec5d14620002365780639f886f26146200027a57620000e1565b80633ccfd60b14620000e65780633d9dcbcc146200010057806352e4b2881462000136578063715018a6146200017a5780637785cec614620001945780638947606914620001d857620000e1565b36620000e157005b600080fd5b348015620000f357600080fd5b50620000fe62000390565b005b6200011e600480360381019062000118919062000de6565b620003ed565b6040516200012d919062000ef1565b60405180910390f35b3480156200014357600080fd5b506200016260048036038101906200015c919062000f3f565b620005ea565b604051620001719190620010a3565b60405180910390f35b3480156200018757600080fd5b506200019262000672565b005b348015620001a157600080fd5b50620001c06004803603810190620001ba9190620010c7565b6200068a565b604051620001cf919062000ef1565b60405180910390f35b348015620001e557600080fd5b50620002046004803603810190620001fe91906200110e565b620006d9565b005b3480156200021357600080fd5b506200021e620007f1565b6040516200022d919062000ef1565b60405180910390f35b3480156200024357600080fd5b506200026260048036038101906200025c91906200110e565b6200081a565b60405162000271919062001151565b60405180910390f35b3480156200028757600080fd5b50620002a66004803603810190620002a0919062001222565b62000866565b604051620002b5919062000ef1565b60405180910390f35b348015620002cb57600080fd5b50620002ea6004803603810190620002e491906200110e565b620008b2565b604051620002f9919062001356565b60405180910390f35b3480156200030f57600080fd5b506200031a62000981565b60405162000329919062001151565b60405180910390f35b3480156200033f57600080fd5b506200034a62000987565b60405162000359919062001151565b60405180910390f35b3480156200036f57600080fd5b506200038e60048036038101906200038891906200110e565b6200098d565b005b6200039a62000a1a565b620003a4620007f1565b73ffffffffffffffffffffffffffffffffffffffff166108fc479081150290604051600060405180830381858888f19350505050158015620003ea573d6000803e3d6000fd5b50565b600060025434101562000437576040517f08c379a00000000000000000000000000000000000000000000000000000000081526004016200042e9062001401565b60405180910390fd5b6000600160003373ffffffffffffffffffffffffffffffffffffffff1673ffffffffffffffffffffffffffffffffffffffff1681526020019081526020016000208054905060001b878787878733604051620004939062000b76565b620004a496959493929190620014c8565b8190604051809103906000f5905080158015620004c5573d6000803e3d6000fd5b509050600160003373ffffffffffffffffffffffffffffffffffffffff1673ffffffffffffffffffffffffffffffffffffffff168152602001908152602001600020819080600181540180825580915050600190039060005260206000200160009091909190916101000a81548173ffffffffffffffffffffffffffffffffffffffff021916908373ffffffffffffffffffffffffffffffffffffffff1602179055508073ffffffffffffffffffffffffffffffffffffffff163373ffffffffffffffffffffffffffffffffffffffff167f46960970e01c8cbebf9e58299b0acf8137b299ef06eb6c4f5be2c0443d5e5f2260405160405180910390a33460036000828254620005d6919062001573565b925050819055508091505095945050505050565b6060600060405180602001620006009062000b76565b6020820181038252601f19601f820116604052509050808888888888886040516020016200063496959493929190620014c8565b60405160208183030381529060405260405160200162000656929190620015f0565b6040516020818303038152906040529150509695505050505050565b6200067c62000a1a565b62000688600062000aaa565b565b60016020528160005260406000208181548110620006a757600080fd5b906000526020600020016000915091509054906101000a900473ffffffffffffffffffffffffffffffffffffffff1681565b620006e362000a1a565b8073ffffffffffffffffffffffffffffffffffffffff1663a9059cbb62000709620007f1565b8373ffffffffffffffffffffffffffffffffffffffff166370a08231306040518263ffffffff1660e01b815260040162000744919062000ef1565b602060405180830381865afa15801562000762573d6000803e3d6000fd5b505050506040513d601f19601f820116820180604052508101906200078891906200162f565b6040518363ffffffff1660e01b8152600401620007a792919062001661565b6020604051808303816000875af1158015620007c7573d6000803e3d6000fd5b505050506040513d601f19601f82011682018060405250810190620007ed9190620016a5565b5050565b60008060009054906101000a900473ffffffffffffffffffffffffffffffffffffffff16905090565b6000600160008373ffffffffffffffffffffffffffffffffffffffff1673ffffffffffffffffffffffffffffffffffffffff168152602001908152602001600020805490509050919050565b60008060ff60f81b308486805190602001206040516020016200088d9493929190620017cc565b6040516020818303038152906040528051906020012090508060001c91505092915050565b6060600160008373ffffffffffffffffffffffffffffffffffffffff1673ffffffffffffffffffffffffffffffffffffffff1681526020019081526020016000208054806020026020016040519081016040528092919081815260200182805480156200097557602002820191906000526020600020905b8160009054906101000a900473ffffffffffffffffffffffffffffffffffffffff1673ffffffffffffffffffffffffffffffffffffffff16815260200190600101908083116200092a575b50505050509050919050565b60035481565b60025481565b6200099762000a1a565b600073ffffffffffffffffffffffffffffffffffffffff168173ffffffffffffffffffffffffffffffffffffffff160362000a0c5760006040517f1e4fbdf700000000000000000000000000000000000000000000000000000000815260040162000a03919062000ef1565b60405180910390fd5b62000a178162000aaa565b50565b62000a2462000b6e565b73ffffffffffffffffffffffffffffffffffffffff1662000a44620007f1565b73ffffffffffffffffffffffffffffffffffffffff161462000aa85762000a6a62000b6e565b6040517f118cdaa700000000000000000000000000000000000000000000000000000000815260040162000a9f919062000ef1565b60405180910390fd5b565b60008060009054906101000a900473ffffffffffffffffffffffffffffffffffffffff169050816000806101000a81548173ffffffffffffffffffffffffffffffffffffffff021916908373ffffffffffffffffffffffffffffffffffffffff1602179055508173ffffffffffffffffffffffffffffffffffffffff168173ffffffffffffffffffffffffffffffffffffffff167f8be0079c531659141344cd1fd0a4f28419497f9722a3daafe3b4186f6b6457e060405160405180910390a35050565b600033905090565b612807806200182383390190565b6000604051905090565b600080fd5b600080fd5b600080fd5b600080fd5b6000601f19601f8301169050919050565b7f4e487b7100000000000000000000000000000000000000000000000000000000600052604160045260246000fd5b62000bed8262000ba2565b810181811067ffffffffffffffff8211171562000c0f5762000c0e62000bb3565b5b80604052505050565b600062000c2462000b84565b905062000c32828262000be2565b919050565b600067ffffffffffffffff82111562000c555762000c5462000bb3565b5b62000c608262000ba2565b9050602081019050919050565b82818337600083830152505050565b600062000c9362000c8d8462000c37565b62000c18565b90508281526020810184848401111562000cb25762000cb162000b9d565b5b62000cbf84828562000c6d565b509392505050565b600082601f83011262000cdf5762000cde62000b98565b5b813562000cf184826020860162000c7c565b91505092915050565b6000819050919050565b62000d0f8162000cfa565b811462000d1b57600080fd5b50565b60008135905062000d2f8162000d04565b92915050565b600080fd5b60008115159050919050565b62000d518162000d3a565b811462000d5d57600080fd5b50565b60008135905062000d718162000d46565b92915050565b60006060828403121562000d905762000d8f62000d35565b5b62000d9c606062000c18565b9050600062000dae8482850162000d60565b600083015250602062000dc48482850162000d60565b602083015250604062000dda8482850162000d60565b60408301525092915050565b600080600080600060e0868803121562000e055762000e0462000b8e565b5b600086013567ffffffffffffffff81111562000e265762000e2562000b93565b5b62000e348882890162000cc7565b955050602086013567ffffffffffffffff81111562000e585762000e5762000b93565b5b62000e668882890162000cc7565b945050604062000e798882890162000d1e565b935050606062000e8c8882890162000d1e565b925050608062000e9f8882890162000d77565b9150509295509295909350565b600073ffffffffffffffffffffffffffffffffffffffff82169050919050565b600062000ed98262000eac565b9050919050565b62000eeb8162000ecc565b82525050565b600060208201905062000f08600083018462000ee0565b92915050565b62000f198162000ecc565b811462000f2557600080fd5b50565b60008135905062000f398162000f0e565b92915050565b600080600080600080610100878903121562000f605762000f5f62000b8e565b5b600087013567ffffffffffffffff81111562000f815762000f8062000b93565b5b62000f8f89828a0162000cc7565b965050602087013567ffffffffffffffff81111562000fb35762000fb262000b93565b5b62000fc189828a0162000cc7565b955050604062000fd489828a0162000d1e565b945050606062000fe789828a0162000d1e565b935050608062000ffa89828a0162000d77565b92505060e06200100d89828a0162000f28565b9150509295509295509295565b600081519050919050565b600082825260208201905092915050565b60005b838110156200105657808201518184015260208101905062001039565b60008484015250505050565b60006200106f826200101a565b6200107b818562001025565b93506200108d81856020860162001036565b620010988162000ba2565b840191505092915050565b60006020820190508181036000830152620010bf818462001062565b905092915050565b60008060408385031215620010e157620010e062000b8e565b5b6000620010f18582860162000f28565b9250506020620011048582860162000d1e565b9150509250929050565b60006020828403121562001127576200112662000b8e565b5b6000620011378482850162000f28565b91505092915050565b6200114b8162000cfa565b82525050565b600060208201905062001168600083018462001140565b92915050565b600067ffffffffffffffff8211156200118c576200118b62000bb3565b5b620011978262000ba2565b9050602081019050919050565b6000620011bb620011b5846200116e565b62000c18565b905082815260208101848484011115620011da57620011d962000b9d565b5b620011e784828562000c6d565b509392505050565b600082601f83011262001207576200120662000b98565b5b813562001219848260208601620011a4565b91505092915050565b600080604083850312156200123c576200123b62000b8e565b5b600083013567ffffffffffffffff8111156200125d576200125c62000b93565b5b6200126b85828601620011ef565b92505060206200127e8582860162000d1e565b9150509250929050565b600081519050919050565b600082825260208201905092915050565b6000819050602082019050919050565b620012bf8162000ecc565b82525050565b6000620012d38383620012b4565b60208301905092915050565b6000602082019050919050565b6000620012f98262001288565b62001305818562001293565b93506200131283620012a4565b8060005b83811015620013495781516200132d8882620012c5565b97506200133a83620012df565b92505060018101905062001316565b5085935050505092915050565b60006020820190508181036000830152620013728184620012ec565b905092915050565b600082825260208201905092915050565b7f546872757374706164546f6b656e466163746f72793a20496e7375666669636960008201527f656e742066656500000000000000000000000000000000000000000000000000602082015250565b6000620013e96027836200137a565b9150620013f6826200138b565b604082019050919050565b600060208201905081810360008301526200141c81620013da565b9050919050565b600081519050919050565b60006200143b8262001423565b6200144781856200137a565b93506200145981856020860162001036565b620014648162000ba2565b840191505092915050565b6200147a8162000d3a565b82525050565b6060820160008201516200149860008501826200146f565b506020820151620014ad60208501826200146f565b506040820151620014c260408501826200146f565b50505050565b6000610100820190508181036000830152620014e581896200142e565b90508181036020830152620014fb81886200142e565b90506200150c604083018762001140565b6200151b606083018662001140565b6200152a608083018562001480565b6200153960e083018462000ee0565b979650505050505050565b7f4e487b7100000000000000000000000000000000000000000000000000000000600052601160045260246000fd5b6000620015808262000cfa565b91506200158d8362000cfa565b9250828201905080821115620015a857620015a762001544565b5b92915050565b600081905092915050565b6000620015c6826200101a565b620015d28185620015ae565b9350620015e481856020860162001036565b80840191505092915050565b6000620015fe8285620015b9565b91506200160c8284620015b9565b91508190509392505050565b600081519050620016298162000d04565b92915050565b60006020828403121562001648576200164762000b8e565b5b6000620016588482850162001618565b91505092915050565b600060408201905062001678600083018562000ee0565b62001687602083018462001140565b9392505050565b6000815190506200169f8162000d46565b92915050565b600060208284031215620016be57620016bd62000b8e565b5b6000620016ce848285016200168e565b91505092915050565b60007fff0000000000000000000000000000000000000000000000000000000000000082169050919050565b6000819050919050565b620017226200171c82620016d7565b62001703565b82525050565b60008160601b9050919050565b6000620017428262001728565b9050919050565b6000620017568262001735565b9050919050565b620017726200176c8262000ecc565b62001749565b82525050565b6000819050919050565b62001797620017918262000cfa565b62001778565b82525050565b6000819050919050565b6000819050919050565b620017c6620017c0826200179d565b620017a7565b82525050565b6000620017da82876200170d565b600182019150620017ec82866200175d565b601482019150620017fe828562001782565b602082019150620018108284620017b1565b6020820191508190509594505050505056fe60806040523480156200001157600080fd5b5060405162002807380380620028078339818101604052810190620000379190620008b0565b80868681600390816200004b919062000bcc565b5080600490816200005d919062000bcc565b5050506000600560006101000a81548160ff021916908315150217905550600073ffffffffffffffffffffffffffffffffffffffff168173ffffffffffffffffffffffffffffffffffffffff1603620000f05760006040517f1e4fbdf7000000000000000000000000000000000000000000000000000000008152600401620000e7919062000cc4565b60405180910390fd5b6200010181620001a860201b60201c565b5083600781905550620001363285600a6200011d919062000e64565b856200012a919062000eb5565b6200026e60201b60201c565b81600660008201518160000160006101000a81548160ff02191690831515021790555060208201518160000160016101000a81548160ff02191690831515021790555060408201518160000160026101000a81548160ff02191690831515021790555090505050505050505062000fa6565b6000600560019054906101000a900473ffffffffffffffffffffffffffffffffffffffff16905081600560016101000a81548173ffffffffffffffffffffffffffffffffffffffff021916908373ffffffffffffffffffffffffffffffffffffffff1602179055508173ffffffffffffffffffffffffffffffffffffffff168173ffffffffffffffffffffffffffffffffffffffff167f8be0079c531659141344cd1fd0a4f28419497f9722a3daafe3b4186f6b6457e060405160405180910390a35050565b600073ffffffffffffffffffffffffffffffffffffffff168273ffffffffffffffffffffffffffffffffffffffff1603620002e35760006040517fec442f05000000000000000000000000000000000000000000000000000000008152600401620002da919062000cc4565b60405180910390fd5b620002f760008383620002fb60201b60201c565b5050565b6200030e8383836200031360201b60201c565b505050565b620003236200033b60201b60201c565b620003368383836200038560201b60201c565b505050565b6200034b620005b560201b60201c565b1562000383576040517fd93c066500000000000000000000000000000000000000000000000000000000815260040160405180910390fd5b565b600073ffffffffffffffffffffffffffffffffffffffff168373ffffffffffffffffffffffffffffffffffffffff1603620003db578060026000828254620003ce919062000f00565b92505081905550620004b1565b60008060008573ffffffffffffffffffffffffffffffffffffffff1673ffffffffffffffffffffffffffffffffffffffff168152602001908152602001600020549050818110156200046a578381836040517fe450d38c000000000000000000000000000000000000000000000000000000008152600401620004619392919062000f4c565b60405180910390fd5b8181036000808673ffffffffffffffffffffffffffffffffffffffff1673ffffffffffffffffffffffffffffffffffffffff16815260200190815260200160002081905550505b600073ffffffffffffffffffffffffffffffffffffffff168273ffffffffffffffffffffffffffffffffffffffff1603620004fc578060026000828254039250508190555062000549565b806000808473ffffffffffffffffffffffffffffffffffffffff1673ffffffffffffffffffffffffffffffffffffffff168152602001908152602001600020600082825401925050819055505b8173ffffffffffffffffffffffffffffffffffffffff168373ffffffffffffffffffffffffffffffffffffffff167fddf252ad1be2c89b69c2b068fc378daa952ba7f163c4a11628f55a4df523b3ef83604051620005a8919062000f89565b60405180910390a3505050565b6000600560009054906101000a900460ff16905090565b6000604051905090565b600080fd5b600080fd5b600080fd5b600080fd5b6000601f19601f8301169050919050565b7f4e487b7100000000000000000000000000000000000000000000000000000000600052604160045260246000fd5b6200063582620005ea565b810181811067ffffffffffffffff82111715620006575762000656620005fb565b5b80604052505050565b60006200066c620005cc565b90506200067a82826200062a565b919050565b600067ffffffffffffffff8211156200069d576200069c620005fb565b5b620006a882620005ea565b9050602081019050919050565b60005b83811015620006d5578082015181840152602081019050620006b8565b60008484015250505050565b6000620006f8620006f2846200067f565b62000660565b905082815260208101848484011115620007175762000716620005e5565b5b62000724848285620006b5565b509392505050565b600082601f830112620007445762000743620005e0565b5b815162000756848260208601620006e1565b91505092915050565b6000819050919050565b62000774816200075f565b81146200078057600080fd5b50565b600081519050620007948162000769565b92915050565b600080fd5b60008115159050919050565b620007b6816200079f565b8114620007c257600080fd5b50565b600081519050620007d681620007ab565b92915050565b600060608284031215620007f557620007f46200079a565b5b62000801606062000660565b905060006200081384828501620007c5565b60008301525060206200082984828501620007c5565b60208301525060406200083f84828501620007c5565b60408301525092915050565b600073ffffffffffffffffffffffffffffffffffffffff82169050919050565b600062000878826200084b565b9050919050565b6200088a816200086b565b81146200089657600080fd5b50565b600081519050620008aa816200087f565b92915050565b6000806000806000806101008789031215620008d157620008d0620005d6565b5b600087015167ffffffffffffffff811115620008f257620008f1620005db565b5b6200090089828a016200072c565b965050602087015167ffffffffffffffff811115620009245762000923620005db565b5b6200093289828a016200072c565b95505060406200094589828a0162000783565b94505060606200095889828a0162000783565b93505060806200096b89828a01620007dc565b92505060e06200097e89828a0162000899565b9150509295509295509295565b600081519050919050565b7f4e487b7100000000000000000000000000000000000000000000000000000000600052602260045260246000fd5b60006002820490506001821680620009de57607f821691505b602082108103620009f457620009f362000996565b5b50919050565b60008190508160005260206000209050919050565b60006020601f8301049050919050565b600082821b905092915050565b60006008830262000a5e7fffffffffffffffffffffffffffffffffffffffffffffffffffffffffffffffff8262000a1f565b62000a6a868362000a1f565b95508019841693508086168417925050509392505050565b6000819050919050565b600062000aad62000aa762000aa1846200075f565b62000a82565b6200075f565b9050919050565b6000819050919050565b62000ac98362000a8c565b62000ae162000ad88262000ab4565b84845462000a2c565b825550505050565b600090565b62000af862000ae9565b62000b0581848462000abe565b505050565b5b8181101562000b2d5762000b2160008262000aee565b60018101905062000b0b565b5050565b601f82111562000b7c5762000b4681620009fa565b62000b518462000a0f565b8101602085101562000b61578190505b62000b7962000b708562000a0f565b83018262000b0a565b50505b505050565b600082821c905092915050565b600062000ba16000198460080262000b81565b1980831691505092915050565b600062000bbc838362000b8e565b9150826002028217905092915050565b62000bd7826200098b565b67ffffffffffffffff81111562000bf35762000bf2620005fb565b5b62000bff8254620009c5565b62000c0c82828562000b31565b600060209050601f83116001811462000c44576000841562000c2f578287015190505b62000c3b858262000bae565b86555062000cab565b601f19841662000c5486620009fa565b60005b8281101562000c7e5784890151825560018201915060208501945060208101905062000c57565b8683101562000c9e578489015162000c9a601f89168262000b8e565b8355505b6001600288020188555050505b505050505050565b62000cbe816200086b565b82525050565b600060208201905062000cdb600083018462000cb3565b92915050565b7f4e487b7100000000000000000000000000000000000000000000000000000000600052601160045260246000fd5b60008160011c9050919050565b6000808291508390505b600185111562000d6f5780860481111562000d475762000d4662000ce1565b5b600185161562000d575780820291505b808102905062000d678562000d10565b945062000d27565b94509492505050565b60008262000d8a576001905062000e5d565b8162000d9a576000905062000e5d565b816001811462000db3576002811462000dbe5762000df4565b600191505062000e5d565b60ff84111562000dd35762000dd262000ce1565b5b8360020a91508482111562000ded5762000dec62000ce1565b5b5062000e5d565b5060208310610133831016604e8410600b841016171562000e2e5782820a90508381111562000e285762000e2762000ce1565b5b62000e5d565b62000e3d848484600162000d1d565b9250905081840481111562000e575762000e5662000ce1565b5b81810290505b9392505050565b600062000e71826200075f565b915062000e7e836200075f565b925062000ead7fffffffffffffffffffffffffffffffffffffffffffffffffffffffffffffffff848462000d78565b905092915050565b600062000ec2826200075f565b915062000ecf836200075f565b925082820262000edf816200075f565b9150828204841483151762000ef95762000ef862000ce1565b5b5092915050565b600062000f0d826200075f565b915062000f1a836200075f565b925082820190508082111562000f355762000f3462000ce1565b5b92915050565b62000f46816200075f565b82525050565b600060608201905062000f63600083018662000cb3565b62000f72602083018562000f3b565b62000f81604083018462000f3b565b949350505050565b600060208201905062000fa0600083018462000f3b565b92915050565b6118518062000fb66000396000f3fe608060405234801561001057600080fd5b506004361061012c5760003560e01c806370a08231116100ad578063900621521161007157806390062152146102e757806395d89b4114610307578063a9059cbb14610325578063dd62ed3e14610355578063f2fde38b146103855761012c565b806370a0823114610269578063715018a61461029957806379cc6790146102a35780638456cb59146102bf5780638da5cb5b146102c95761012c565b806332424aa3116100f457806332424aa3146101eb5780633f4ba83a1461020957806340c10f191461021357806342966c681461022f5780635c975abb1461024b5761012c565b806306fdde0314610131578063095ea7b31461014f57806318160ddd1461017f57806323b872dd1461019d578063313ce567146101cd575b600080fd5b6101396103a1565b60405161014691906112fd565b60405180910390f35b610169600480360381019061016491906113b8565b610433565b6040516101769190611413565b60405180910390f35b610187610456565b604051610194919061143d565b60405180910390f35b6101b760048036038101906101b29190611458565b610460565b6040516101c49190611413565b60405180910390f35b6101d561048f565b6040516101e291906114c7565b60405180910390f35b6101f3610499565b604051610200919061143d565b60405180910390f35b61021161049f565b005b61022d600480360381019061022891906113b8565b61050a565b005b610249600480360381019061024491906114e2565b610579565b005b6102536105e6565b6040516102609190611413565b60405180910390f35b610283600480360381019061027e919061150f565b6105fd565b604051610290919061143d565b60405180910390f35b6102a1610645565b005b6102bd60048036038101906102b891906113b8565b610659565b005b6102c7610679565b005b6102d16106e4565b6040516102de919061154b565b60405180910390f35b6102ef61070e565b6040516102fe93929190611566565b60405180910390f35b61030f61074d565b60405161031c91906112fd565b60405180910390f35b61033f600480360381019061033a91906113b8565b6107df565b60405161034c9190611413565b60405180910390f35b61036f600480360381019061036a919061159d565b610802565b60405161037c919061143d565b60405180910390f35b61039f600480360381019061039a919061150f565b610889565b005b6060600380546103b09061160c565b80601f01602080910402602001604051908101604052809291908181526020018280546103dc9061160c565b80156104295780601f106103fe57610100808354040283529160200191610429565b820191906000526020600020905b81548152906001019060200180831161040c57829003601f168201915b5050505050905090565b60008061043e61090f565b905061044b818585610917565b600191505092915050565b6000600254905090565b60008061046b61090f565b9050610478858285610929565b6104838585856109bd565b60019150509392505050565b6000600754905090565b60075481565b6104a7610ab1565b60011515600660000160019054906101000a900460ff16151514610500576040517f08c379a00000000000000000000000000000000000000000000000000000000081526004016104f790611689565b60405180910390fd5b610508610b38565b565b610512610ab1565b60011515600660000160009054906101000a900460ff1615151461056b576040517f08c379a0000000000000000000000000000000000000000000000000000000008152600401610562906116f5565b60405180910390fd5b6105758282610b9b565b5050565b60011515600660000160029054906101000a900460ff161515146105d2576040517f08c379a00000000000000000000000000000000000000000000000000000000081526004016105c990611761565b60405180910390fd5b6105e36105dd61090f565b82610c1d565b50565b6000600560009054906101000a900460ff16905090565b60008060008373ffffffffffffffffffffffffffffffffffffffff1673ffffffffffffffffffffffffffffffffffffffff168152602001908152602001600020549050919050565b61064d610ab1565b6106576000610c9f565b565b61066b8261066561090f565b83610929565b6106758282610c1d565b5050565b610681610ab1565b60011515600660000160019054906101000a900460ff161515146106da576040517f08c379a00000000000000000000000000000000000000000000000000000000081526004016106d190611689565b60405180910390fd5b6106e2610d65565b565b6000600560019054906101000a900473ffffffffffffffffffffffffffffffffffffffff16905090565b60068060000160009054906101000a900460ff16908060000160019054906101000a900460ff16908060000160029054906101000a900460ff16905083565b60606004805461075c9061160c565b80601f01602080910402602001604051908101604052809291908181526020018280546107889061160c565b80156107d55780601f106107aa576101008083540402835291602001916107d5565b820191906000526020600020905b8154815290600101906020018083116107b857829003601f168201915b5050505050905090565b6000806107ea61090f565b90506107f78185856109bd565b600191505092915050565b6000600160008473ffffffffffffffffffffffffffffffffffffffff1673ffffffffffffffffffffffffffffffffffffffff16815260200190815260200160002060008373ffffffffffffffffffffffffffffffffffffffff1673ffffffffffffffffffffffffffffffffffffffff16815260200190815260200160002054905092915050565b610891610ab1565b600073ffffffffffffffffffffffffffffffffffffffff168173ffffffffffffffffffffffffffffffffffffffff16036109035760006040517f1e4fbdf70000000000000000000000000000000000000000000000000000000081526004016108fa919061154b565b60405180910390fd5b61090c81610c9f565b50565b600033905090565b6109248383836001610dc8565b505050565b60006109358484610802565b90507fffffffffffffffffffffffffffffffffffffffffffffffffffffffffffffffff81146109b757818110156109a7578281836040517ffb8f41b200000000000000000000000000000000000000000000000000000000815260040161099e93929190611781565b60405180910390fd5b6109b684848484036000610dc8565b5b50505050565b600073ffffffffffffffffffffffffffffffffffffffff168373ffffffffffffffffffffffffffffffffffffffff1603610a2f5760006040517f96c6fd1e000000000000000000000000000000000000000000000000000000008152600401610a26919061154b565b60405180910390fd5b600073ffffffffffffffffffffffffffffffffffffffff168273ffffffffffffffffffffffffffffffffffffffff1603610aa15760006040517fec442f05000000000000000000000000000000000000000000000000000000008152600401610a98919061154b565b60405180910390fd5b610aac838383610f9f565b505050565b610ab961090f565b73ffffffffffffffffffffffffffffffffffffffff16610ad76106e4565b73ffffffffffffffffffffffffffffffffffffffff1614610b3657610afa61090f565b6040517f118cdaa7000000000000000000000000000000000000000000000000000000008152600401610b2d919061154b565b60405180910390fd5b565b610b40610faf565b6000600560006101000a81548160ff0219169083151502179055507f5db9ee0a495bf2e6ff9c91a7834c1ba4fdd244a5e8aa4e537bd38aeae4b073aa610b8461090f565b604051610b91919061154b565b60405180910390a1565b600073ffffffffffffffffffffffffffffffffffffffff168273ffffffffffffffffffffffffffffffffffffffff1603610c0d5760006040517fec442f05000000000000000000000000000000000000000000000000000000008152600401610c04919061154b565b60405180910390fd5b610c1960008383610f9f565b5050565b600073ffffffffffffffffffffffffffffffffffffffff168273ffffffffffffffffffffffffffffffffffffffff1603610c8f5760006040517f96c6fd1e000000000000000000000000000000000000000000000000000000008152600401610c86919061154b565b60405180910390fd5b610c9b82600083610f9f565b5050565b6000600560019054906101000a900473ffffffffffffffffffffffffffffffffffffffff16905081600560016101000a81548173ffffffffffffffffffffffffffffffffffffffff021916908373ffffffffffffffffffffffffffffffffffffffff1602179055508173ffffffffffffffffffffffffffffffffffffffff168173ffffffffffffffffffffffffffffffffffffffff167f8be0079c531659141344cd1fd0a4f28419497f9722a3daafe3b4186f6b6457e060405160405180910390a35050565b610d6d610fef565b6001600560006101000a81548160ff0219169083151502179055507f62e78cea01bee320cd4e420270b5ea74000d11b0c9f74754ebdbfc544b05a258610db161090f565b604051610dbe919061154b565b60405180910390a1565b600073ffffffffffffffffffffffffffffffffffffffff168473ffffffffffffffffffffffffffffffffffffffff1603610e3a5760006040517fe602df05000000000000000000000000000000000000000000000000000000008152600401610e31919061154b565b60405180910390fd5b600073ffffffffffffffffffffffffffffffffffffffff168373ffffffffffffffffffffffffffffffffffffffff1603610eac5760006040517f94280d62000000000000000000000000000000000000000000000000000000008152600401610ea3919061154b565b60405180910390fd5b81600160008673ffffffffffffffffffffffffffffffffffffffff1673ffffffffffffffffffffffffffffffffffffffff16815260200190815260200160002060008573ffffffffffffffffffffffffffffffffffffffff1673ffffffffffffffffffffffffffffffffffffffff168152602001908152602001600020819055508015610f99578273ffffffffffffffffffffffffffffffffffffffff168473ffffffffffffffffffffffffffffffffffffffff167f8c5be1e5ebec7d5bd14f71427d1e84f3dd0314c0f7b2291e5b200ac8c7c3b92584604051610f90919061143d565b60405180910390a35b50505050565b610faa838383611030565b505050565b610fb76105e6565b610fed576040517f8dfc202b00000000000000000000000000000000000000000000000000000000815260040160405180910390fd5b565b610ff76105e6565b1561102e576040517fd93c066500000000000000000000000000000000000000000000000000000000815260040160405180910390fd5b565b611038610fef565b611043838383611048565b505050565b600073ffffffffffffffffffffffffffffffffffffffff168373ffffffffffffffffffffffffffffffffffffffff160361109a57806002600082825461108e91906117e7565b9250508190555061116d565b60008060008573ffffffffffffffffffffffffffffffffffffffff1673ffffffffffffffffffffffffffffffffffffffff16815260200190815260200160002054905081811015611126578381836040517fe450d38c00000000000000000000000000000000000000000000000000000000815260040161111d93929190611781565b60405180910390fd5b8181036000808673ffffffffffffffffffffffffffffffffffffffff1673ffffffffffffffffffffffffffffffffffffffff16815260200190815260200160002081905550505b600073ffffffffffffffffffffffffffffffffffffffff168273ffffffffffffffffffffffffffffffffffffffff16036111b65780600260008282540392505081905550611203565b806000808473ffffffffffffffffffffffffffffffffffffffff1673ffffffffffffffffffffffffffffffffffffffff168152602001908152602001600020600082825401925050819055505b8173ffffffffffffffffffffffffffffffffffffffff168373ffffffffffffffffffffffffffffffffffffffff167fddf252ad1be2c89b69c2b068fc378daa952ba7f163c4a11628f55a4df523b3ef83604051611260919061143d565b60405180910390a3505050565b600081519050919050565b600082825260208201905092915050565b60005b838110156112a757808201518184015260208101905061128c565b60008484015250505050565b6000601f19601f8301169050919050565b60006112cf8261126d565b6112d98185611278565b93506112e9818560208601611289565b6112f2816112b3565b840191505092915050565b6000602082019050818103600083015261131781846112c4565b905092915050565b600080fd5b600073ffffffffffffffffffffffffffffffffffffffff82169050919050565b600061134f82611324565b9050919050565b61135f81611344565b811461136a57600080fd5b50565b60008135905061137c81611356565b92915050565b6000819050919050565b61139581611382565b81146113a057600080fd5b50565b6000813590506113b28161138c565b92915050565b600080604083850312156113cf576113ce61131f565b5b60006113dd8582860161136d565b92505060206113ee858286016113a3565b9150509250929050565b60008115159050919050565b61140d816113f8565b82525050565b60006020820190506114286000830184611404565b92915050565b61143781611382565b82525050565b6000602082019050611452600083018461142e565b92915050565b6000806000606084860312156114715761147061131f565b5b600061147f8682870161136d565b93505060206114908682870161136d565b92505060406114a1868287016113a3565b9150509250925092565b600060ff82169050919050565b6114c1816114ab565b82525050565b60006020820190506114dc60008301846114b8565b92915050565b6000602082840312156114f8576114f761131f565b5b6000611506848285016113a3565b91505092915050565b6000602082840312156115255761152461131f565b5b60006115338482850161136d565b91505092915050565b61154581611344565b82525050565b6000602082019050611560600083018461153c565b92915050565b600060608201905061157b6000830186611404565b6115886020830185611404565b6115956040830184611404565b949350505050565b600080604083850312156115b4576115b361131f565b5b60006115c28582860161136d565b92505060206115d38582860161136d565b9150509250929050565b7f4e487b7100000000000000000000000000000000000000000000000000000000600052602260045260246000fd5b6000600282049050600182168061162457607f821691505b602082108103611637576116366115dd565b5b50919050565b7f70617573696e672069732064697361626c656400000000000000000000000000600082015250565b6000611673601383611278565b915061167e8261163d565b602082019050919050565b600060208201905081810360008301526116a281611666565b9050919050565b7f6d696e74696e672069732064697361626c656400000000000000000000000000600082015250565b60006116df601383611278565b91506116ea826116a9565b602082019050919050565b6000602082019050818103600083015261170e816116d2565b9050919050565b7f6275726e696e672069732064697361626c656400000000000000000000000000600082015250565b600061174b601383611278565b915061175682611715565b602082019050919050565b6000602082019050818103600083015261177a8161173e565b9050919050565b6000606082019050611796600083018661153c565b6117a3602083018561142e565b6117b0604083018461142e565b949350505050565b7f4e487b7100000000000000000000000000000000000000000000000000000000600052601160045260246000fd5b60006117f282611382565b91506117fd83611382565b9250828201905080821115611815576118146117b8565b5b9291505056fea2646970667358221220ecfc30d68f4db0e60983a6cec2132e85344d91dde8c88cd6a4cad6339a1351ad64736f6c63430008180033a2646970667358221220bbfac08ef9585ffd0894eb200b614814f4dc807011e2dc4e44042a1119cbc7d164736f6c63430008180033",
  "linkReferences": {},
  "deployedLinkReferences": {}
}