{
  "_format": "hh-sol-artifact-1",
  "contractName": "ThrustpadTokenFactory",
  "sourceName": "contracts/token/ThrustpadTokenFactory.sol",
  "abi": [
    {
      "inputs": [],
      "stateMutability": "nonpayable",
      "type": "constructor"
    },
    {
      "inputs": [
        {
          "internalType": "address",
          "name": "owner",
          "type": "address"
        }
      ],
      "name": "OwnableInvalidOwner",
      "type": "error"
    },
    {
      "inputs": [
        {
          "internalType": "address",
          "name": "account",
          "type": "address"
        }
      ],
      "name": "OwnableUnauthorizedAccount",
      "type": "error"
    },
    {
      "anonymous": false,
      "inputs": [
        {
          "indexed": true,
          "internalType": "address",
          "name": "creator",
          "type": "address"
        },
        {
          "indexed": true,
          "internalType": "address",
          "name": "token",
          "type": "address"
        }
      ],
      "name": "NewToken",
      "type": "event"
    },
    {
      "anonymous": false,
      "inputs": [
        {
          "indexed": true,
          "internalType": "address",
          "name": "previousOwner",
          "type": "address"
        },
        {
          "indexed": true,
          "internalType": "address",
          "name": "newOwner",
          "type": "address"
        }
      ],
      "name": "OwnershipTransferred",
      "type": "event"
    },
    {
      "inputs": [],
      "name": "creationFee",
      "outputs": [
        {
          "internalType": "uint256",
          "name": "",
          "type": "uint256"
        }
      ],
      "stateMutability": "view",
      "type": "function"
    },
    {
      "inputs": [
        {
          "internalType": "address",
          "name": "",
          "type": "address"
        },
        {
          "internalType": "uint256",
          "name": "",
          "type": "uint256"
        }
      ],
      "name": "deployedTokens",
      "outputs": [
        {
          "internalType": "address",
          "name": "",
          "type": "address"
        }
      ],
      "stateMutability": "view",
      "type": "function"
    },
    {
      "inputs": [],
      "name": "feeEarned",
      "outputs": [
        {
          "internalType": "uint256",
          "name": "",
          "type": "uint256"
        }
      ],
      "stateMutability": "view",
      "type": "function"
    },
    {
      "inputs": [
        {
          "internalType": "bytes",
          "name": "bytecode",
          "type": "bytes"
        },
        {
          "internalType": "uint256",
          "name": "salt",
          "type": "uint256"
        }
      ],
      "name": "getAddressCreate2",
      "outputs": [
        {
          "internalType": "address",
          "name": "",
          "type": "address"
        }
      ],
      "stateMutability": "view",
      "type": "function"
    },
    {
      "inputs": [
        {
          "internalType": "string",
          "name": "name",
          "type": "string"
        },
        {
          "internalType": "string",
          "name": "symbol",
          "type": "string"
        },
        {
          "internalType": "uint256",
          "name": "decimals",
          "type": "uint256"
        },
        {
          "internalType": "uint256",
          "name": "supply",
          "type": "uint256"
        },
        {
          "components": [
            {
              "internalType": "bool",
              "name": "mintable",
              "type": "bool"
            },
            {
              "internalType": "bool",
              "name": "pausable",
              "type": "bool"
            },
            {
              "internalType": "bool",
              "name": "burnable",
              "type": "bool"
            }
          ],
          "internalType": "struct LaunchType",
          "name": "launchType",
          "type": "tuple"
        }
      ],
      "name": "getBytecode",
      "outputs": [
        {
          "internalType": "bytes",
          "name": "",
          "type": "bytes"
        }
      ],
      "stateMutability": "pure",
      "type": "function"
    },
    {
      "inputs": [
        {
          "internalType": "address",
          "name": "creator",
          "type": "address"
        }
      ],
      "name": "getdeployedTokens",
      "outputs": [
        {
          "internalType": "address[]",
          "name": "",
          "type": "address[]"
        }
      ],
      "stateMutability": "view",
      "type": "function"
    },
    {
      "inputs": [
        {
          "internalType": "address",
          "name": "creator",
          "type": "address"
        }
      ],
      "name": "getdeployedTokensLen",
      "outputs": [
        {
          "internalType": "uint256",
          "name": "",
          "type": "uint256"
        }
      ],
      "stateMutability": "view",
      "type": "function"
    },
    {
      "inputs": [
        {
          "internalType": "string",
          "name": "name",
          "type": "string"
        },
        {
          "internalType": "string",
          "name": "symbol",
          "type": "string"
        },
        {
          "internalType": "uint256",
          "name": "decimals",
          "type": "uint256"
        },
        {
          "internalType": "uint256",
          "name": "supply",
          "type": "uint256"
        },
        {
          "components": [
            {
              "internalType": "bool",
              "name": "mintable",
              "type": "bool"
            },
            {
              "internalType": "bool",
              "name": "pausable",
              "type": "bool"
            },
            {
              "internalType": "bool",
              "name": "burnable",
              "type": "bool"
            }
          ],
          "internalType": "struct LaunchType",
          "name": "launchType",
          "type": "tuple"
        }
      ],
      "name": "newToken",
      "outputs": [
        {
          "internalType": "address",
          "name": "",
          "type": "address"
        }
      ],
      "stateMutability": "payable",
      "type": "function"
    },
    {
      "inputs": [],
      "name": "owner",
      "outputs": [
        {
          "internalType": "address",
          "name": "",
          "type": "address"
        }
      ],
      "stateMutability": "view",
      "type": "function"
    },
    {
      "inputs": [],
      "name": "renounceOwnership",
      "outputs": [],
      "stateMutability": "nonpayable",
      "type": "function"
    },
    {
      "inputs": [
        {
          "internalType": "address",
          "name": "newOwner",
          "type": "address"
        }
      ],
      "name": "transferOwnership",
      "outputs": [],
      "stateMutability": "nonpayable",
      "type": "function"
    },
    {
      "inputs": [],
      "name": "withdraw",
      "outputs": [],
      "stateMutability": "nonpayable",
      "type": "function"
    },
    {
      "inputs": [
        {
          "internalType": "address",
          "name": "token",
          "type": "address"
        }
      ],
      "name": "withdrawToken",
      "outputs": [],
      "stateMutability": "nonpayable",
      "type": "function"
    },
    {
      "stateMutability": "payable",
      "type": "receive"
    }
  ],
  "bytecode": "0x6080604052670de0b6b3a76400006002553480156200001d57600080fd5b5033600073ffffffffffffffffffffffffffffffffffffffff168173ffffffffffffffffffffffffffffffffffffffff1603620000945760006040517f1e4fbdf70000000000000000000000000000000000000000000000000000000081526004016200008b9190620001b5565b60405180910390fd5b620000a581620000ac60201b60201c565b50620001d2565b60008060009054906101000a900473ffffffffffffffffffffffffffffffffffffffff169050816000806101000a81548173ffffffffffffffffffffffffffffffffffffffff021916908373ffffffffffffffffffffffffffffffffffffffff1602179055508173ffffffffffffffffffffffffffffffffffffffff168173ffffffffffffffffffffffffffffffffffffffff167f8be0079c531659141344cd1fd0a4f28419497f9722a3daafe3b4186f6b6457e060405160405180910390a35050565b600073ffffffffffffffffffffffffffffffffffffffff82169050919050565b60006200019d8262000170565b9050919050565b620001af8162000190565b82525050565b6000602082019050620001cc6000830184620001a4565b92915050565b613f2780620001e26000396000f3fe608060405260043610620000d95760003560e01c80638da5cb5b116200008b578063aa642def1162000061578063aa642def14620002be578063d5f63a061462000302578063dce0b4e41462000332578063f2fde38b146200036257620000e1565b80638da5cb5b14620002065780638fd4ec5d14620002365780639f886f26146200027a57620000e1565b80633ccfd60b14620000e65780633d9dcbcc146200010057806348d409531462000136578063715018a6146200017a5780637785cec614620001945780638947606914620001d857620000e1565b36620000e157005b600080fd5b348015620000f357600080fd5b50620000fe62000390565b005b6200011e600480360381019062000118919062000de1565b620003ed565b6040516200012d919062000eec565b60405180910390f35b3480156200014357600080fd5b506200016260048036038101906200015c919062000de1565b620005e8565b60405162000171919062000f92565b60405180910390f35b3480156200018757600080fd5b50620001926200066d565b005b348015620001a157600080fd5b50620001c06004803603810190620001ba919062000fe7565b62000685565b604051620001cf919062000eec565b60405180910390f35b348015620001e557600080fd5b50620002046004803603810190620001fe91906200102e565b620006d4565b005b3480156200021357600080fd5b506200021e620007ec565b6040516200022d919062000eec565b60405180910390f35b3480156200024357600080fd5b506200026260048036038101906200025c91906200102e565b62000815565b60405162000271919062001071565b60405180910390f35b3480156200028757600080fd5b50620002a66004803603810190620002a0919062001142565b62000861565b604051620002b5919062000eec565b60405180910390f35b348015620002cb57600080fd5b50620002ea6004803603810190620002e491906200102e565b620008ad565b604051620002f9919062001276565b60405180910390f35b3480156200030f57600080fd5b506200031a6200097c565b60405162000329919062001071565b60405180910390f35b3480156200033f57600080fd5b506200034a62000982565b60405162000359919062001071565b60405180910390f35b3480156200036f57600080fd5b506200038e60048036038101906200038891906200102e565b62000988565b005b6200039a62000a15565b620003a4620007ec565b73ffffffffffffffffffffffffffffffffffffffff166108fc479081150290604051600060405180830381858888f19350505050158015620003ea573d6000803e3d6000fd5b50565b600060025434101562000437576040517f08c379a00000000000000000000000000000000000000000000000000000000081526004016200042e9062001321565b60405180910390fd5b6000600160003373ffffffffffffffffffffffffffffffffffffffff1673ffffffffffffffffffffffffffffffffffffffff1681526020019081526020016000208054905060001b8787878787604051620004929062000b71565b620004a2959493929190620013e8565b8190604051809103906000f5905080158015620004c3573d6000803e3d6000fd5b509050600160003373ffffffffffffffffffffffffffffffffffffffff1673ffffffffffffffffffffffffffffffffffffffff168152602001908152602001600020819080600181540180825580915050600190039060005260206000200160009091909190916101000a81548173ffffffffffffffffffffffffffffffffffffffff021916908373ffffffffffffffffffffffffffffffffffffffff1602179055508073ffffffffffffffffffffffffffffffffffffffff163373ffffffffffffffffffffffffffffffffffffffff167f46960970e01c8cbebf9e58299b0acf8137b299ef06eb6c4f5be2c0443d5e5f2260405160405180910390a33460036000828254620005d4919062001482565b925050819055508091505095945050505050565b6060600060405180602001620005fe9062000b71565b6020820181038252601f19601f82011660405250905080878787878760405160200162000630959493929190620013e8565b60405160208183030381529060405260405160200162000652929190620014ff565b60405160208183030381529060405291505095945050505050565b6200067762000a15565b62000683600062000aa5565b565b60016020528160005260406000208181548110620006a257600080fd5b906000526020600020016000915091509054906101000a900473ffffffffffffffffffffffffffffffffffffffff1681565b620006de62000a15565b8073ffffffffffffffffffffffffffffffffffffffff1663a9059cbb62000704620007ec565b8373ffffffffffffffffffffffffffffffffffffffff166370a08231306040518263ffffffff1660e01b81526004016200073f919062000eec565b602060405180830381865afa1580156200075d573d6000803e3d6000fd5b505050506040513d601f19601f820116820180604052508101906200078391906200153e565b6040518363ffffffff1660e01b8152600401620007a292919062001570565b6020604051808303816000875af1158015620007c2573d6000803e3d6000fd5b505050506040513d601f19601f82011682018060405250810190620007e89190620015b4565b5050565b60008060009054906101000a900473ffffffffffffffffffffffffffffffffffffffff16905090565b6000600160008373ffffffffffffffffffffffffffffffffffffffff1673ffffffffffffffffffffffffffffffffffffffff168152602001908152602001600020805490509050919050565b60008060ff60f81b30848680519060200120604051602001620008889493929190620016db565b6040516020818303038152906040528051906020012090508060001c91505092915050565b6060600160008373ffffffffffffffffffffffffffffffffffffffff1673ffffffffffffffffffffffffffffffffffffffff1681526020019081526020016000208054806020026020016040519081016040528092919081815260200182805480156200097057602002820191906000526020600020905b8160009054906101000a900473ffffffffffffffffffffffffffffffffffffffff1673ffffffffffffffffffffffffffffffffffffffff168152602001906001019080831162000925575b50505050509050919050565b60035481565b60025481565b6200099262000a15565b600073ffffffffffffffffffffffffffffffffffffffff168173ffffffffffffffffffffffffffffffffffffffff160362000a075760006040517f1e4fbdf7000000000000000000000000000000000000000000000000000000008152600401620009fe919062000eec565b60405180910390fd5b62000a128162000aa5565b50565b62000a1f62000b69565b73ffffffffffffffffffffffffffffffffffffffff1662000a3f620007ec565b73ffffffffffffffffffffffffffffffffffffffff161462000aa35762000a6562000b69565b6040517f118cdaa700000000000000000000000000000000000000000000000000000000815260040162000a9a919062000eec565b60405180910390fd5b565b60008060009054906101000a900473ffffffffffffffffffffffffffffffffffffffff169050816000806101000a81548173ffffffffffffffffffffffffffffffffffffffff021916908373ffffffffffffffffffffffffffffffffffffffff1602179055508173ffffffffffffffffffffffffffffffffffffffff168173ffffffffffffffffffffffffffffffffffffffff167f8be0079c531659141344cd1fd0a4f28419497f9722a3daafe3b4186f6b6457e060405160405180910390a35050565b600033905090565b6127c0806200173283390190565b6000604051905090565b600080fd5b600080fd5b600080fd5b600080fd5b6000601f19601f8301169050919050565b7f4e487b7100000000000000000000000000000000000000000000000000000000600052604160045260246000fd5b62000be88262000b9d565b810181811067ffffffffffffffff8211171562000c0a5762000c0962000bae565b5b80604052505050565b600062000c1f62000b7f565b905062000c2d828262000bdd565b919050565b600067ffffffffffffffff82111562000c505762000c4f62000bae565b5b62000c5b8262000b9d565b9050602081019050919050565b82818337600083830152505050565b600062000c8e62000c888462000c32565b62000c13565b90508281526020810184848401111562000cad5762000cac62000b98565b5b62000cba84828562000c68565b509392505050565b600082601f83011262000cda5762000cd962000b93565b5b813562000cec84826020860162000c77565b91505092915050565b6000819050919050565b62000d0a8162000cf5565b811462000d1657600080fd5b50565b60008135905062000d2a8162000cff565b92915050565b600080fd5b60008115159050919050565b62000d4c8162000d35565b811462000d5857600080fd5b50565b60008135905062000d6c8162000d41565b92915050565b60006060828403121562000d8b5762000d8a62000d30565b5b62000d97606062000c13565b9050600062000da98482850162000d5b565b600083015250602062000dbf8482850162000d5b565b602083015250604062000dd58482850162000d5b565b60408301525092915050565b600080600080600060e0868803121562000e005762000dff62000b89565b5b600086013567ffffffffffffffff81111562000e215762000e2062000b8e565b5b62000e2f8882890162000cc2565b955050602086013567ffffffffffffffff81111562000e535762000e5262000b8e565b5b62000e618882890162000cc2565b945050604062000e748882890162000d19565b935050606062000e878882890162000d19565b925050608062000e9a8882890162000d72565b9150509295509295909350565b600073ffffffffffffffffffffffffffffffffffffffff82169050919050565b600062000ed48262000ea7565b9050919050565b62000ee68162000ec7565b82525050565b600060208201905062000f03600083018462000edb565b92915050565b600081519050919050565b600082825260208201905092915050565b60005b8381101562000f4557808201518184015260208101905062000f28565b60008484015250505050565b600062000f5e8262000f09565b62000f6a818562000f14565b935062000f7c81856020860162000f25565b62000f878162000b9d565b840191505092915050565b6000602082019050818103600083015262000fae818462000f51565b905092915050565b62000fc18162000ec7565b811462000fcd57600080fd5b50565b60008135905062000fe18162000fb6565b92915050565b6000806040838503121562001001576200100062000b89565b5b6000620010118582860162000fd0565b9250506020620010248582860162000d19565b9150509250929050565b60006020828403121562001047576200104662000b89565b5b6000620010578482850162000fd0565b91505092915050565b6200106b8162000cf5565b82525050565b600060208201905062001088600083018462001060565b92915050565b600067ffffffffffffffff821115620010ac57620010ab62000bae565b5b620010b78262000b9d565b9050602081019050919050565b6000620010db620010d5846200108e565b62000c13565b905082815260208101848484011115620010fa57620010f962000b98565b5b6200110784828562000c68565b509392505050565b600082601f83011262001127576200112662000b93565b5b813562001139848260208601620010c4565b91505092915050565b600080604083850312156200115c576200115b62000b89565b5b600083013567ffffffffffffffff8111156200117d576200117c62000b8e565b5b6200118b858286016200110f565b92505060206200119e8582860162000d19565b9150509250929050565b600081519050919050565b600082825260208201905092915050565b6000819050602082019050919050565b620011df8162000ec7565b82525050565b6000620011f38383620011d4565b60208301905092915050565b6000602082019050919050565b60006200121982620011a8565b620012258185620011b3565b93506200123283620011c4565b8060005b83811015620012695781516200124d8882620011e5565b97506200125a83620011ff565b92505060018101905062001236565b5085935050505092915050565b600060208201905081810360008301526200129281846200120c565b905092915050565b600082825260208201905092915050565b7f546872757374706164546f6b656e466163746f72793a20496e7375666669636960008201527f656e742066656500000000000000000000000000000000000000000000000000602082015250565b6000620013096027836200129a565b91506200131682620012ab565b604082019050919050565b600060208201905081810360008301526200133c81620012fa565b9050919050565b600081519050919050565b60006200135b8262001343565b6200136781856200129a565b93506200137981856020860162000f25565b620013848162000b9d565b840191505092915050565b6200139a8162000d35565b82525050565b606082016000820151620013b860008501826200138f565b506020820151620013cd60208501826200138f565b506040820151620013e260408501826200138f565b50505050565b600060e08201905081810360008301526200140481886200134e565b905081810360208301526200141a81876200134e565b90506200142b604083018662001060565b6200143a606083018562001060565b620014496080830184620013a0565b9695505050505050565b7f4e487b7100000000000000000000000000000000000000000000000000000000600052601160045260246000fd5b60006200148f8262000cf5565b91506200149c8362000cf5565b9250828201905080821115620014b757620014b662001453565b5b92915050565b600081905092915050565b6000620014d58262000f09565b620014e18185620014bd565b9350620014f381856020860162000f25565b80840191505092915050565b60006200150d8285620014c8565b91506200151b8284620014c8565b91508190509392505050565b600081519050620015388162000cff565b92915050565b60006020828403121562001557576200155662000b89565b5b6000620015678482850162001527565b91505092915050565b600060408201905062001587600083018562000edb565b62001596602083018462001060565b9392505050565b600081519050620015ae8162000d41565b92915050565b600060208284031215620015cd57620015cc62000b89565b5b6000620015dd848285016200159d565b91505092915050565b60007fff0000000000000000000000000000000000000000000000000000000000000082169050919050565b6000819050919050565b620016316200162b82620015e6565b62001612565b82525050565b60008160601b9050919050565b6000620016518262001637565b9050919050565b6000620016658262001644565b9050919050565b620016816200167b8262000ec7565b62001658565b82525050565b6000819050919050565b620016a6620016a08262000cf5565b62001687565b82525050565b6000819050919050565b6000819050919050565b620016d5620016cf82620016ac565b620016b6565b82525050565b6000620016e982876200161c565b600182019150620016fb82866200166c565b6014820191506200170d828562001691565b6020820191506200171f8284620016c0565b6020820191508190509594505050505056fe60806040523480156200001157600080fd5b50604051620027c0380380620027c083398181016040528101906200003791906200084a565b32858581600390816200004b919062000b51565b5080600490816200005d919062000b51565b5050506000600560006101000a81548160ff021916908315150217905550600073ffffffffffffffffffffffffffffffffffffffff168173ffffffffffffffffffffffffffffffffffffffff1603620000f05760006040517f1e4fbdf7000000000000000000000000000000000000000000000000000000008152600401620000e7919062000c7d565b60405180910390fd5b6200010181620001a760201b60201c565b5082600781905550620001363284600a6200011d919062000e1d565b846200012a919062000e6e565b6200026d60201b60201c565b80600660008201518160000160006101000a81548160ff02191690831515021790555060208201518160000160016101000a81548160ff02191690831515021790555060408201518160000160026101000a81548160ff021916908315150217905550905050505050505062000f5f565b6000600560019054906101000a900473ffffffffffffffffffffffffffffffffffffffff16905081600560016101000a81548173ffffffffffffffffffffffffffffffffffffffff021916908373ffffffffffffffffffffffffffffffffffffffff1602179055508173ffffffffffffffffffffffffffffffffffffffff168173ffffffffffffffffffffffffffffffffffffffff167f8be0079c531659141344cd1fd0a4f28419497f9722a3daafe3b4186f6b6457e060405160405180910390a35050565b600073ffffffffffffffffffffffffffffffffffffffff168273ffffffffffffffffffffffffffffffffffffffff1603620002e25760006040517fec442f05000000000000000000000000000000000000000000000000000000008152600401620002d9919062000c7d565b60405180910390fd5b620002f660008383620002fa60201b60201c565b5050565b6200030d8383836200031260201b60201c565b505050565b620003226200033a60201b60201c565b620003358383836200038460201b60201c565b505050565b6200034a620005b460201b60201c565b1562000382576040517fd93c066500000000000000000000000000000000000000000000000000000000815260040160405180910390fd5b565b600073ffffffffffffffffffffffffffffffffffffffff168373ffffffffffffffffffffffffffffffffffffffff1603620003da578060026000828254620003cd919062000eb9565b92505081905550620004b0565b60008060008573ffffffffffffffffffffffffffffffffffffffff1673ffffffffffffffffffffffffffffffffffffffff1681526020019081526020016000205490508181101562000469578381836040517fe450d38c000000000000000000000000000000000000000000000000000000008152600401620004609392919062000f05565b60405180910390fd5b8181036000808673ffffffffffffffffffffffffffffffffffffffff1673ffffffffffffffffffffffffffffffffffffffff16815260200190815260200160002081905550505b600073ffffffffffffffffffffffffffffffffffffffff168273ffffffffffffffffffffffffffffffffffffffff1603620004fb578060026000828254039250508190555062000548565b806000808473ffffffffffffffffffffffffffffffffffffffff1673ffffffffffffffffffffffffffffffffffffffff168152602001908152602001600020600082825401925050819055505b8173ffffffffffffffffffffffffffffffffffffffff168373ffffffffffffffffffffffffffffffffffffffff167fddf252ad1be2c89b69c2b068fc378daa952ba7f163c4a11628f55a4df523b3ef83604051620005a7919062000f42565b60405180910390a3505050565b6000600560009054906101000a900460ff16905090565b6000604051905090565b600080fd5b600080fd5b600080fd5b600080fd5b6000601f19601f8301169050919050565b7f4e487b7100000000000000000000000000000000000000000000000000000000600052604160045260246000fd5b6200063482620005e9565b810181811067ffffffffffffffff82111715620006565762000655620005fa565b5b80604052505050565b60006200066b620005cb565b905062000679828262000629565b919050565b600067ffffffffffffffff8211156200069c576200069b620005fa565b5b620006a782620005e9565b9050602081019050919050565b60005b83811015620006d4578082015181840152602081019050620006b7565b60008484015250505050565b6000620006f7620006f1846200067e565b6200065f565b905082815260208101848484011115620007165762000715620005e4565b5b62000723848285620006b4565b509392505050565b600082601f830112620007435762000742620005df565b5b815162000755848260208601620006e0565b91505092915050565b6000819050919050565b62000773816200075e565b81146200077f57600080fd5b50565b600081519050620007938162000768565b92915050565b600080fd5b60008115159050919050565b620007b5816200079e565b8114620007c157600080fd5b50565b600081519050620007d581620007aa565b92915050565b600060608284031215620007f457620007f362000799565b5b6200080060606200065f565b905060006200081284828501620007c4565b60008301525060206200082884828501620007c4565b60208301525060406200083e84828501620007c4565b60408301525092915050565b600080600080600060e08688031215620008695762000868620005d5565b5b600086015167ffffffffffffffff8111156200088a5762000889620005da565b5b62000898888289016200072b565b955050602086015167ffffffffffffffff811115620008bc57620008bb620005da565b5b620008ca888289016200072b565b9450506040620008dd8882890162000782565b9350506060620008f08882890162000782565b92505060806200090388828901620007db565b9150509295509295909350565b600081519050919050565b7f4e487b7100000000000000000000000000000000000000000000000000000000600052602260045260246000fd5b600060028204905060018216806200096357607f821691505b6020821081036200097957620009786200091b565b5b50919050565b60008190508160005260206000209050919050565b60006020601f8301049050919050565b600082821b905092915050565b600060088302620009e37fffffffffffffffffffffffffffffffffffffffffffffffffffffffffffffffff82620009a4565b620009ef8683620009a4565b95508019841693508086168417925050509392505050565b6000819050919050565b600062000a3262000a2c62000a26846200075e565b62000a07565b6200075e565b9050919050565b6000819050919050565b62000a4e8362000a11565b62000a6662000a5d8262000a39565b848454620009b1565b825550505050565b600090565b62000a7d62000a6e565b62000a8a81848462000a43565b505050565b5b8181101562000ab25762000aa660008262000a73565b60018101905062000a90565b5050565b601f82111562000b015762000acb816200097f565b62000ad68462000994565b8101602085101562000ae6578190505b62000afe62000af58562000994565b83018262000a8f565b50505b505050565b600082821c905092915050565b600062000b266000198460080262000b06565b1980831691505092915050565b600062000b41838362000b13565b9150826002028217905092915050565b62000b5c8262000910565b67ffffffffffffffff81111562000b785762000b77620005fa565b5b62000b8482546200094a565b62000b9182828562000ab6565b600060209050601f83116001811462000bc9576000841562000bb4578287015190505b62000bc0858262000b33565b86555062000c30565b601f19841662000bd9866200097f565b60005b8281101562000c035784890151825560018201915060208501945060208101905062000bdc565b8683101562000c23578489015162000c1f601f89168262000b13565b8355505b6001600288020188555050505b505050505050565b600073ffffffffffffffffffffffffffffffffffffffff82169050919050565b600062000c658262000c38565b9050919050565b62000c778162000c58565b82525050565b600060208201905062000c94600083018462000c6c565b92915050565b7f4e487b7100000000000000000000000000000000000000000000000000000000600052601160045260246000fd5b60008160011c9050919050565b6000808291508390505b600185111562000d285780860481111562000d005762000cff62000c9a565b5b600185161562000d105780820291505b808102905062000d208562000cc9565b945062000ce0565b94509492505050565b60008262000d43576001905062000e16565b8162000d53576000905062000e16565b816001811462000d6c576002811462000d775762000dad565b600191505062000e16565b60ff84111562000d8c5762000d8b62000c9a565b5b8360020a91508482111562000da65762000da562000c9a565b5b5062000e16565b5060208310610133831016604e8410600b841016171562000de75782820a90508381111562000de15762000de062000c9a565b5b62000e16565b62000df6848484600162000cd6565b9250905081840481111562000e105762000e0f62000c9a565b5b81810290505b9392505050565b600062000e2a826200075e565b915062000e37836200075e565b925062000e667fffffffffffffffffffffffffffffffffffffffffffffffffffffffffffffffff848462000d31565b905092915050565b600062000e7b826200075e565b915062000e88836200075e565b925082820262000e98816200075e565b9150828204841483151762000eb25762000eb162000c9a565b5b5092915050565b600062000ec6826200075e565b915062000ed3836200075e565b925082820190508082111562000eee5762000eed62000c9a565b5b92915050565b62000eff816200075e565b82525050565b600060608201905062000f1c600083018662000c6c565b62000f2b602083018562000ef4565b62000f3a604083018462000ef4565b949350505050565b600060208201905062000f59600083018462000ef4565b92915050565b6118518062000f6f6000396000f3fe608060405234801561001057600080fd5b506004361061012c5760003560e01c806370a08231116100ad578063900621521161007157806390062152146102e757806395d89b4114610307578063a9059cbb14610325578063dd62ed3e14610355578063f2fde38b146103855761012c565b806370a0823114610269578063715018a61461029957806379cc6790146102a35780638456cb59146102bf5780638da5cb5b146102c95761012c565b806332424aa3116100f457806332424aa3146101eb5780633f4ba83a1461020957806340c10f191461021357806342966c681461022f5780635c975abb1461024b5761012c565b806306fdde0314610131578063095ea7b31461014f57806318160ddd1461017f57806323b872dd1461019d578063313ce567146101cd575b600080fd5b6101396103a1565b60405161014691906112fd565b60405180910390f35b610169600480360381019061016491906113b8565b610433565b6040516101769190611413565b60405180910390f35b610187610456565b604051610194919061143d565b60405180910390f35b6101b760048036038101906101b29190611458565b610460565b6040516101c49190611413565b60405180910390f35b6101d561048f565b6040516101e291906114c7565b60405180910390f35b6101f3610499565b604051610200919061143d565b60405180910390f35b61021161049f565b005b61022d600480360381019061022891906113b8565b61050a565b005b610249600480360381019061024491906114e2565b610579565b005b6102536105e6565b6040516102609190611413565b60405180910390f35b610283600480360381019061027e919061150f565b6105fd565b604051610290919061143d565b60405180910390f35b6102a1610645565b005b6102bd60048036038101906102b891906113b8565b610659565b005b6102c7610679565b005b6102d16106e4565b6040516102de919061154b565b60405180910390f35b6102ef61070e565b6040516102fe93929190611566565b60405180910390f35b61030f61074d565b60405161031c91906112fd565b60405180910390f35b61033f600480360381019061033a91906113b8565b6107df565b60405161034c9190611413565b60405180910390f35b61036f600480360381019061036a919061159d565b610802565b60405161037c919061143d565b60405180910390f35b61039f600480360381019061039a919061150f565b610889565b005b6060600380546103b09061160c565b80601f01602080910402602001604051908101604052809291908181526020018280546103dc9061160c565b80156104295780601f106103fe57610100808354040283529160200191610429565b820191906000526020600020905b81548152906001019060200180831161040c57829003601f168201915b5050505050905090565b60008061043e61090f565b905061044b818585610917565b600191505092915050565b6000600254905090565b60008061046b61090f565b9050610478858285610929565b6104838585856109bd565b60019150509392505050565b6000600754905090565b60075481565b6104a7610ab1565b60011515600660000160019054906101000a900460ff16151514610500576040517f08c379a00000000000000000000000000000000000000000000000000000000081526004016104f790611689565b60405180910390fd5b610508610b38565b565b610512610ab1565b60011515600660000160009054906101000a900460ff1615151461056b576040517f08c379a0000000000000000000000000000000000000000000000000000000008152600401610562906116f5565b60405180910390fd5b6105758282610b9b565b5050565b60011515600660000160029054906101000a900460ff161515146105d2576040517f08c379a00000000000000000000000000000000000000000000000000000000081526004016105c990611761565b60405180910390fd5b6105e36105dd61090f565b82610c1d565b50565b6000600560009054906101000a900460ff16905090565b60008060008373ffffffffffffffffffffffffffffffffffffffff1673ffffffffffffffffffffffffffffffffffffffff168152602001908152602001600020549050919050565b61064d610ab1565b6106576000610c9f565b565b61066b8261066561090f565b83610929565b6106758282610c1d565b5050565b610681610ab1565b60011515600660000160019054906101000a900460ff161515146106da576040517f08c379a00000000000000000000000000000000000000000000000000000000081526004016106d190611689565b60405180910390fd5b6106e2610d65565b565b6000600560019054906101000a900473ffffffffffffffffffffffffffffffffffffffff16905090565b60068060000160009054906101000a900460ff16908060000160019054906101000a900460ff16908060000160029054906101000a900460ff16905083565b60606004805461075c9061160c565b80601f01602080910402602001604051908101604052809291908181526020018280546107889061160c565b80156107d55780601f106107aa576101008083540402835291602001916107d5565b820191906000526020600020905b8154815290600101906020018083116107b857829003601f168201915b5050505050905090565b6000806107ea61090f565b90506107f78185856109bd565b600191505092915050565b6000600160008473ffffffffffffffffffffffffffffffffffffffff1673ffffffffffffffffffffffffffffffffffffffff16815260200190815260200160002060008373ffffffffffffffffffffffffffffffffffffffff1673ffffffffffffffffffffffffffffffffffffffff16815260200190815260200160002054905092915050565b610891610ab1565b600073ffffffffffffffffffffffffffffffffffffffff168173ffffffffffffffffffffffffffffffffffffffff16036109035760006040517f1e4fbdf70000000000000000000000000000000000000000000000000000000081526004016108fa919061154b565b60405180910390fd5b61090c81610c9f565b50565b600033905090565b6109248383836001610dc8565b505050565b60006109358484610802565b90507fffffffffffffffffffffffffffffffffffffffffffffffffffffffffffffffff81146109b757818110156109a7578281836040517ffb8f41b200000000000000000000000000000000000000000000000000000000815260040161099e93929190611781565b60405180910390fd5b6109b684848484036000610dc8565b5b50505050565b600073ffffffffffffffffffffffffffffffffffffffff168373ffffffffffffffffffffffffffffffffffffffff1603610a2f5760006040517f96c6fd1e000000000000000000000000000000000000000000000000000000008152600401610a26919061154b565b60405180910390fd5b600073ffffffffffffffffffffffffffffffffffffffff168273ffffffffffffffffffffffffffffffffffffffff1603610aa15760006040517fec442f05000000000000000000000000000000000000000000000000000000008152600401610a98919061154b565b60405180910390fd5b610aac838383610f9f565b505050565b610ab961090f565b73ffffffffffffffffffffffffffffffffffffffff16610ad76106e4565b73ffffffffffffffffffffffffffffffffffffffff1614610b3657610afa61090f565b6040517f118cdaa7000000000000000000000000000000000000000000000000000000008152600401610b2d919061154b565b60405180910390fd5b565b610b40610faf565b6000600560006101000a81548160ff0219169083151502179055507f5db9ee0a495bf2e6ff9c91a7834c1ba4fdd244a5e8aa4e537bd38aeae4b073aa610b8461090f565b604051610b91919061154b565b60405180910390a1565b600073ffffffffffffffffffffffffffffffffffffffff168273ffffffffffffffffffffffffffffffffffffffff1603610c0d5760006040517fec442f05000000000000000000000000000000000000000000000000000000008152600401610c04919061154b565b60405180910390fd5b610c1960008383610f9f565b5050565b600073ffffffffffffffffffffffffffffffffffffffff168273ffffffffffffffffffffffffffffffffffffffff1603610c8f5760006040517f96c6fd1e000000000000000000000000000000000000000000000000000000008152600401610c86919061154b565b60405180910390fd5b610c9b82600083610f9f565b5050565b6000600560019054906101000a900473ffffffffffffffffffffffffffffffffffffffff16905081600560016101000a81548173ffffffffffffffffffffffffffffffffffffffff021916908373ffffffffffffffffffffffffffffffffffffffff1602179055508173ffffffffffffffffffffffffffffffffffffffff168173ffffffffffffffffffffffffffffffffffffffff167f8be0079c531659141344cd1fd0a4f28419497f9722a3daafe3b4186f6b6457e060405160405180910390a35050565b610d6d610fef565b6001600560006101000a81548160ff0219169083151502179055507f62e78cea01bee320cd4e420270b5ea74000d11b0c9f74754ebdbfc544b05a258610db161090f565b604051610dbe919061154b565b60405180910390a1565b600073ffffffffffffffffffffffffffffffffffffffff168473ffffffffffffffffffffffffffffffffffffffff1603610e3a5760006040517fe602df05000000000000000000000000000000000000000000000000000000008152600401610e31919061154b565b60405180910390fd5b600073ffffffffffffffffffffffffffffffffffffffff168373ffffffffffffffffffffffffffffffffffffffff1603610eac5760006040517f94280d62000000000000000000000000000000000000000000000000000000008152600401610ea3919061154b565b60405180910390fd5b81600160008673ffffffffffffffffffffffffffffffffffffffff1673ffffffffffffffffffffffffffffffffffffffff16815260200190815260200160002060008573ffffffffffffffffffffffffffffffffffffffff1673ffffffffffffffffffffffffffffffffffffffff168152602001908152602001600020819055508015610f99578273ffffffffffffffffffffffffffffffffffffffff168473ffffffffffffffffffffffffffffffffffffffff167f8c5be1e5ebec7d5bd14f71427d1e84f3dd0314c0f7b2291e5b200ac8c7c3b92584604051610f90919061143d565b60405180910390a35b50505050565b610faa838383611030565b505050565b610fb76105e6565b610fed576040517f8dfc202b00000000000000000000000000000000000000000000000000000000815260040160405180910390fd5b565b610ff76105e6565b1561102e576040517fd93c066500000000000000000000000000000000000000000000000000000000815260040160405180910390fd5b565b611038610fef565b611043838383611048565b505050565b600073ffffffffffffffffffffffffffffffffffffffff168373ffffffffffffffffffffffffffffffffffffffff160361109a57806002600082825461108e91906117e7565b9250508190555061116d565b60008060008573ffffffffffffffffffffffffffffffffffffffff1673ffffffffffffffffffffffffffffffffffffffff16815260200190815260200160002054905081811015611126578381836040517fe450d38c00000000000000000000000000000000000000000000000000000000815260040161111d93929190611781565b60405180910390fd5b8181036000808673ffffffffffffffffffffffffffffffffffffffff1673ffffffffffffffffffffffffffffffffffffffff16815260200190815260200160002081905550505b600073ffffffffffffffffffffffffffffffffffffffff168273ffffffffffffffffffffffffffffffffffffffff16036111b65780600260008282540392505081905550611203565b806000808473ffffffffffffffffffffffffffffffffffffffff1673ffffffffffffffffffffffffffffffffffffffff168152602001908152602001600020600082825401925050819055505b8173ffffffffffffffffffffffffffffffffffffffff168373ffffffffffffffffffffffffffffffffffffffff167fddf252ad1be2c89b69c2b068fc378daa952ba7f163c4a11628f55a4df523b3ef83604051611260919061143d565b60405180910390a3505050565b600081519050919050565b600082825260208201905092915050565b60005b838110156112a757808201518184015260208101905061128c565b60008484015250505050565b6000601f19601f8301169050919050565b60006112cf8261126d565b6112d98185611278565b93506112e9818560208601611289565b6112f2816112b3565b840191505092915050565b6000602082019050818103600083015261131781846112c4565b905092915050565b600080fd5b600073ffffffffffffffffffffffffffffffffffffffff82169050919050565b600061134f82611324565b9050919050565b61135f81611344565b811461136a57600080fd5b50565b60008135905061137c81611356565b92915050565b6000819050919050565b61139581611382565b81146113a057600080fd5b50565b6000813590506113b28161138c565b92915050565b600080604083850312156113cf576113ce61131f565b5b60006113dd8582860161136d565b92505060206113ee858286016113a3565b9150509250929050565b60008115159050919050565b61140d816113f8565b82525050565b60006020820190506114286000830184611404565b92915050565b61143781611382565b82525050565b6000602082019050611452600083018461142e565b92915050565b6000806000606084860312156114715761147061131f565b5b600061147f8682870161136d565b93505060206114908682870161136d565b92505060406114a1868287016113a3565b9150509250925092565b600060ff82169050919050565b6114c1816114ab565b82525050565b60006020820190506114dc60008301846114b8565b92915050565b6000602082840312156114f8576114f761131f565b5b6000611506848285016113a3565b91505092915050565b6000602082840312156115255761152461131f565b5b60006115338482850161136d565b91505092915050565b61154581611344565b82525050565b6000602082019050611560600083018461153c565b92915050565b600060608201905061157b6000830186611404565b6115886020830185611404565b6115956040830184611404565b949350505050565b600080604083850312156115b4576115b361131f565b5b60006115c28582860161136d565b92505060206115d38582860161136d565b9150509250929050565b7f4e487b7100000000000000000000000000000000000000000000000000000000600052602260045260246000fd5b6000600282049050600182168061162457607f821691505b602082108103611637576116366115dd565b5b50919050565b7f70617573696e672069732064697361626c656400000000000000000000000000600082015250565b6000611673601383611278565b915061167e8261163d565b602082019050919050565b600060208201905081810360008301526116a281611666565b9050919050565b7f6d696e74696e672069732064697361626c656400000000000000000000000000600082015250565b60006116df601383611278565b91506116ea826116a9565b602082019050919050565b6000602082019050818103600083015261170e816116d2565b9050919050565b7f6275726e696e672069732064697361626c656400000000000000000000000000600082015250565b600061174b601383611278565b915061175682611715565b602082019050919050565b6000602082019050818103600083015261177a8161173e565b9050919050565b6000606082019050611796600083018661153c565b6117a3602083018561142e565b6117b0604083018461142e565b949350505050565b7f4e487b7100000000000000000000000000000000000000000000000000000000600052601160045260246000fd5b60006117f282611382565b91506117fd83611382565b9250828201905080821115611815576118146117b8565b5b9291505056fea26469706673582212203f5a7004b046de3504d7aaa8712f7105ac58f3d1c71c5d6095cc2a6ffcf2538464736f6c63430008180033a26469706673582212202ae8e7cd8b784f18fc3a21009809f93c728bbc536551f584f6dbf181f2a73b6564736f6c63430008180033",
  "linkReferences": {},
  "deployedLinkReferences": {}
}