{
  "_format": "hh-sol-artifact-1",
  "contractName": "ThrustpadTokenFactory",
  "sourceName": "contracts/token/ThrustpadTokenFactory.sol",
  "abi": [
    {
      "inputs": [],
      "stateMutability": "nonpayable",
      "type": "constructor"
    },
    {
      "inputs": [
        {
          "internalType": "address",
          "name": "owner",
          "type": "address"
        }
      ],
      "name": "OwnableInvalidOwner",
      "type": "error"
    },
    {
      "inputs": [
        {
          "internalType": "address",
          "name": "account",
          "type": "address"
        }
      ],
      "name": "OwnableUnauthorizedAccount",
      "type": "error"
    },
    {
      "anonymous": false,
      "inputs": [
        {
          "indexed": true,
          "internalType": "address",
          "name": "creator",
          "type": "address"
        },
        {
          "indexed": true,
          "internalType": "address",
          "name": "token",
          "type": "address"
        }
      ],
      "name": "NewToken",
      "type": "event"
    },
    {
      "anonymous": false,
      "inputs": [
        {
          "indexed": true,
          "internalType": "address",
          "name": "previousOwner",
          "type": "address"
        },
        {
          "indexed": true,
          "internalType": "address",
          "name": "newOwner",
          "type": "address"
        }
      ],
      "name": "OwnershipTransferred",
      "type": "event"
    },
    {
      "inputs": [],
      "name": "creationFee",
      "outputs": [
        {
          "internalType": "uint256",
          "name": "",
          "type": "uint256"
        }
      ],
      "stateMutability": "view",
      "type": "function"
    },
    {
      "inputs": [
        {
          "internalType": "address",
          "name": "",
          "type": "address"
        },
        {
          "internalType": "uint256",
          "name": "",
          "type": "uint256"
        }
      ],
      "name": "deployedTokens",
      "outputs": [
        {
          "internalType": "address",
          "name": "",
          "type": "address"
        }
      ],
      "stateMutability": "view",
      "type": "function"
    },
    {
      "inputs": [],
      "name": "feeEarned",
      "outputs": [
        {
          "internalType": "uint256",
          "name": "",
          "type": "uint256"
        }
      ],
      "stateMutability": "view",
      "type": "function"
    },
    {
      "inputs": [
        {
          "internalType": "bytes",
          "name": "bytecode",
          "type": "bytes"
        },
        {
          "internalType": "uint256",
          "name": "salt",
          "type": "uint256"
        }
      ],
      "name": "getAddressCreate2",
      "outputs": [
        {
          "internalType": "address",
          "name": "",
          "type": "address"
        }
      ],
      "stateMutability": "view",
      "type": "function"
    },
    {
      "inputs": [
        {
          "internalType": "string",
          "name": "name",
          "type": "string"
        },
        {
          "internalType": "string",
          "name": "symbol",
          "type": "string"
        },
        {
          "internalType": "uint256",
          "name": "decimals",
          "type": "uint256"
        },
        {
          "internalType": "uint256",
          "name": "supply",
          "type": "uint256"
        },
        {
          "components": [
            {
              "internalType": "bool",
              "name": "mintable",
              "type": "bool"
            },
            {
              "internalType": "bool",
              "name": "pausable",
              "type": "bool"
            },
            {
              "internalType": "bool",
              "name": "burnable",
              "type": "bool"
            }
          ],
          "internalType": "struct LaunchType",
          "name": "launchType",
          "type": "tuple"
        },
        {
          "internalType": "address",
          "name": "_owner",
          "type": "address"
        }
      ],
      "name": "getBytecode",
      "outputs": [
        {
          "internalType": "bytes",
          "name": "",
          "type": "bytes"
        }
      ],
      "stateMutability": "pure",
      "type": "function"
    },
    {
      "inputs": [
        {
          "internalType": "address",
          "name": "creator",
          "type": "address"
        }
      ],
      "name": "getdeployedTokens",
      "outputs": [
        {
          "internalType": "address[]",
          "name": "",
          "type": "address[]"
        }
      ],
      "stateMutability": "view",
      "type": "function"
    },
    {
      "inputs": [
        {
          "internalType": "address",
          "name": "creator",
          "type": "address"
        }
      ],
      "name": "getdeployedTokensLen",
      "outputs": [
        {
          "internalType": "uint256",
          "name": "",
          "type": "uint256"
        }
      ],
      "stateMutability": "view",
      "type": "function"
    },
    {
      "inputs": [
        {
          "internalType": "string",
          "name": "name",
          "type": "string"
        },
        {
          "internalType": "string",
          "name": "symbol",
          "type": "string"
        },
        {
          "internalType": "uint256",
          "name": "decimals",
          "type": "uint256"
        },
        {
          "internalType": "uint256",
          "name": "supply",
          "type": "uint256"
        },
        {
          "components": [
            {
              "internalType": "bool",
              "name": "mintable",
              "type": "bool"
            },
            {
              "internalType": "bool",
              "name": "pausable",
              "type": "bool"
            },
            {
              "internalType": "bool",
              "name": "burnable",
              "type": "bool"
            }
          ],
          "internalType": "struct LaunchType",
          "name": "launchType",
          "type": "tuple"
        }
      ],
      "name": "newToken",
      "outputs": [
        {
          "internalType": "address",
          "name": "",
          "type": "address"
        }
      ],
      "stateMutability": "payable",
      "type": "function"
    },
    {
      "inputs": [],
      "name": "owner",
      "outputs": [
        {
          "internalType": "address",
          "name": "",
          "type": "address"
        }
      ],
      "stateMutability": "view",
      "type": "function"
    },
    {
      "inputs": [],
      "name": "renounceOwnership",
      "outputs": [],
      "stateMutability": "nonpayable",
      "type": "function"
    },
    {
      "inputs": [
        {
          "internalType": "address",
          "name": "newOwner",
          "type": "address"
        }
      ],
      "name": "transferOwnership",
      "outputs": [],
      "stateMutability": "nonpayable",
      "type": "function"
    },
    {
      "inputs": [
        {
          "internalType": "uint256",
          "name": "_fee",
          "type": "uint256"
        }
      ],
      "name": "updateCreationFee",
      "outputs": [],
      "stateMutability": "nonpayable",
      "type": "function"
    },
    {
      "inputs": [],
      "name": "withdraw",
      "outputs": [],
      "stateMutability": "nonpayable",
      "type": "function"
    },
    {
      "inputs": [
        {
          "internalType": "address",
          "name": "token",
          "type": "address"
        }
      ],
      "name": "withdrawToken",
      "outputs": [],
      "stateMutability": "nonpayable",
      "type": "function"
    },
    {
      "stateMutability": "payable",
      "type": "receive"
    }
  ],
  "bytecode": "0x608080604052346100865733156100705760008054336001600160a01b03198216811783556040519290916001600160a01b0316907f8be0079c531659141344cd1fd0a4f28419497f9722a3daafe3b4186f6b6457e09080a3674563918244f40000600255611f7c908161008c8239f35b631e4fbdf760e01b815260006004820152602490fd5b600080fdfe6040608081526004908136101562000022575b505036156200002057600080fd5b005b600091823560e01c80633ccfd60b14620009415780633d9dcbcc146200073157806352e4b28814620006105780636fa2379514620005ea578063715018a614620005805780637785cec614620005205780638947606914620003c55780638da5cb5b146200039d5780638fd4ec5d14620003625780639f886f261462000290578063aa642def14620001d4578063d5f63a0614620001b3578063dce0b4e4146200018e5763f2fde38b14620000d8575062000012565b346200018a5760203660031901126200018a57620000f562000aa4565b906200010062000b9d565b6001600160a01b038092169283156200015b57505082548273ffffffffffffffffffffffffffffffffffffffff198216178455167f8be0079c531659141344cd1fd0a4f28419497f9722a3daafe3b4186f6b6457e08380a380f35b908460249251917f1e4fbdf7000000000000000000000000000000000000000000000000000000008352820152fd5b8280fd5b505034620001af5781600319360112620001af576020906002549051908152f35b5080fd5b505034620001af5781600319360112620001af576020906003549051908152f35b505034620001af57602091826003193601126200028d576001600160a01b039081620001ff62000aa4565b1681526001916001855283822094845191828288549182815201908198865283862090865b8181106200027757505050836200023d91038462000998565b855195828701938388525180945286019693905b8382106200025f5786880387f35b84518116885296820196938201939085019062000251565b8254851684529285019291880191880162000224565b80fd5b50919034620001af5780600319360112620001af5767ffffffffffffffff918335838111620001af5736602382011215620001af57620002da9036906024818801359101620009d1565b602081519101209180519160208301937fff0000000000000000000000000000000000000000000000000000000000000085523060601b602185015260243560358501526055840152605583526080830194838610908611176200034f57848252825184206001600160a01b03168552602085f35b80604187634e487b7160e01b6024945252fd5b505034620001af576020366003190112620001af57806020926001600160a01b036200038d62000aa4565b1681526001845220549051908152f35b505034620001af5781600319360112620001af576001600160a01b0360209254169051908152f35b5090346200018a57602090816003193601126200050a57620003e662000aa4565b92620003f162000b9d565b6001600160a01b038094169385541690858351957f70a0823100000000000000000000000000000000000000000000000000000000875230838801528587602481845afa96871562000516578297620004d4575b5091604491869493865198899586947fa9059cbb00000000000000000000000000000000000000000000000000000000865285015260248401525af1908115620004cb575062000493578280f35b81813d8311620004c3575b620004aa818362000998565b81010312620001af5751801515036200028d5738808280f35b503d6200049e565b513d85823e3d90fd5b9193929096508582813d83116200050e575b620004f2818362000998565b810103126200050a5790519591929091604462000445565b8380fd5b503d620004e6565b85513d84823e3d90fd5b505034620001af5780600319360112620001af576200053e62000aa4565b602435926001600160a01b03809216815260016020528281209081548510156200028d5750602093620005719162000b07565b92905490519260031b1c168152f35b83346200028d57806003193601126200028d576200059d62000b9d565b806001600160a01b03815473ffffffffffffffffffffffffffffffffffffffff1981168355167f8be0079c531659141344cd1fd0a4f28419497f9722a3daafe3b4186f6b6457e08280a380f35b838234620001af576020366003190112620001af576200060962000b9d565b3560025580f35b5082346200028d576101003660031901126200028d5767ffffffffffffffff9180358381116200018a5762000649903690830162000a21565b926024359081116200018a57620006639136910162000a21565b916200066f3662000a42565b60e435926001600160a01b03841684036200028d5762000700620006ee6200072d886200071d89898989620007106113646020998a96620006df8a5197620006ba8a86018a62000998565b8489528989019462000be386398b519687938b85019960643591604435918c62000b36565b03601f19810185528462000998565b87519a8b955180928888019062000abb565b8401915180938684019062000abb565b0103808752018562000998565b5192828493845283019062000ae0565b0390f35b50919060e0366003190112620001af5767ffffffffffffffff83358181116200050a5762000763903690860162000a21565b906024358181116200093d576200077e903690870162000a21565b620007893662000a42565b6002543410620008ba57338652600160205284862054938551936113648086019186831090831117620008a75791620007d6939186959362000be387393393606435926044359262000b36565b039084f59081156200089c576001600160a01b0380921691338452600160205281842080549068010000000000000000821015620008895790620008209160018201815562000b07565b819291549060031b9185831b921b1916179055519181337f46960970e01c8cbebf9e58299b0acf8137b299ef06eb6c4f5be2c0443d5e5f228380a360035490348201809211620008765750602093506003558152f35b80601186634e487b7160e01b6024945252fd5b602486604189634e487b7160e01b835252fd5b51913d9150823e3d90fd5b60248960418c634e487b7160e01b835252fd5b60848760208751917f08c379a0000000000000000000000000000000000000000000000000000000008352820152602760248201527f546872757374706164546f6b656e466163746f72793a20496e7375666669636960448201527f656e7420666565000000000000000000000000000000000000000000000000006064820152fd5b8480fd5b505034620001af5781600319360112620001af576200095f62000b9d565b818080806001600160a01b0381541647908282156200098e575bf11562000984575080f35b51903d90823e3d90fd5b506108fc62000979565b90601f8019910116810190811067ffffffffffffffff821117620009bb57604052565b634e487b7160e01b600052604160045260246000fd5b92919267ffffffffffffffff8211620009bb5760405191620009fe601f8201601f19166020018462000998565b82948184528183011162000a1c578281602093846000960137010152565b600080fd5b9080601f8301121562000a1c5781602062000a3f93359101620009d1565b90565b606090608319011262000a1c57604051906060820182811067ffffffffffffffff821117620009bb5760405281608435801515810362000a1c57815260a435801515810362000a1c57602082015260c43590811515820362000a1c5760400152565b600435906001600160a01b038216820362000a1c57565b60005b83811062000acf5750506000910152565b818101518382015260200162000abe565b9060209162000afb8151809281855285808601910162000abb565b601f01601f1916010190565b805482101562000b205760005260206000200190600090565b634e487b7160e01b600052603260045260246000fd5b9460e09462000b6f6001600160a01b039599989462000b60604095610100808c528b019062000ae0565b9089820360208b015262000ae0565b988388015260608701528051151560808701526020810151151560a08701520151151560c085015216910152565b6001600160a01b0360005416330362000bb257565b60246040517f118cdaa7000000000000000000000000000000000000000000000000000000008152336004820152fdfe604060808152346200051d5762001364803803806200001e8162000522565b9283398101908082039161010083126200051d5781516001600160401b0393908481116200051d57826200005491850162000548565b9160209081850151908682116200051d576200007291860162000548565b868501519360608087015194607f1901126200051d5787519460608601868110898211176200040e578952620000ab60808801620005ba565b8652620000bb60a08801620005ba565b9784870198895260e0620000d260c08a01620005ba565b888c01908152980151926001600160a01b03808516929091908386036200051d5781518181116200040e576003908154906001948583811c9316801562000512575b8c841014620004fc5781908c601f94858111620004a3575b50508c90848311600114620004305760009262000424575b505060001982851b1c191690851b1782555b88519283116200040e5760049889548581811c9116801562000403575b8c821014620003ee5780838d9211620003a1575b50508a918411600114620003345793839491849260009562000328575b50501b92600019911b1c19161785555b60055493821562000311576001600160a81b03198516600891821b610100600160a81b0316176005558b5194901c167f8be0079c531659141344cd1fd0a4f28419497f9722a3daafe3b4186f6b6457e0600080a380600755604d8111620002fc57600a0a93848102948186041490151715620002e7573215620002d3575060025490838201809211620002be57506000917fddf252ad1be2c89b69c2b068fc378daa952ba7f163c4a11628f55a4df523b3ef9160025532835282815287832084815401905587519384523293a35115159160ff62ff000061ff006006549351151560081b169351151560101b1693169062ffffff191617171760065551610d9b9081620005c98239f35b601190634e487b7160e01b6000525260246000fd5b600060249263ec442f0560e01b8352820152fd5b601182634e487b7160e01b6000525260246000fd5b601183634e487b7160e01b6000525260246000fd5b8b51631e4fbdf760e01b8152600081880152602490fd5b015193503880620001a4565b9190601f198416928a600052848c600020948d6000905b898383106200038857505050106200036d575b50505050811b018555620001b4565b01519060f884600019921b161c19169055388080806200035e565b8686015189559097019694850194889350018e6200034b565b8b60005283826000209181880160051c8301938810620003e4575b0160051c019086905b828110620003d757508c915062000187565b60008155018690620003c5565b92508192620003bc565b60228b634e487b7160e01b6000525260246000fd5b90607f169062000173565b634e487b7160e01b600052604160045260246000fd5b01519050388062000144565b879350908d91601f1984168760005283600020936000905b82821062000481575050841162000468575b505050811b01825562000156565b015160001983871b60f8161c191690553880806200045a565b91929395968291958786015181550195019301908f918a969594939262000448565b909192508560005284826000209181860160051c8301938610620004f2575b918991869594930160051c01915b828110620004e257508e91506200012c565b60008155859450899101620004d0565b92508192620004c2565b634e487b7160e01b600052602260045260246000fd5b92607f169262000114565b600080fd5b6040519190601f01601f191682016001600160401b038111838210176200040e57604052565b919080601f840112156200051d5782516001600160401b0381116200040e576020906200057e601f8201601f1916830162000522565b928184528282870101116200051d5760005b818110620005a657508260009394955001015290565b858101830151848201840152820162000590565b519081151582036200051d5756fe6080604081815260048036101561001557600080fd5b600092833560e01c90816306fdde031461089d57508063095ea7b3146107f657806318160ddd146107d757806323b872dd1461079a578063313ce5671461077857806332424aa3146107595780633f4ba83a146106c157806340c10f19146105b857806342966c68146105445780635c975abb1461052057806370a08231146104ea578063715018a61461047e57806379cc6790146104485780638456cb59146103d75780638da5cb5b146103ac578063900621521461036e57806395d89b411461024c578063a9059cbb1461021b578063dd62ed3e146101ce5763f2fde38b146100ff57600080fd5b346101ca5760203660031901126101ca576101186109dd565b610120610c41565b6001600160a01b039182821693841561019b57505074ffffffffffffffffffffffffffffffffffffffff006005549160081b1674ffffffffffffffffffffffffffffffffffffffff001982161760055560081c167f8be0079c531659141344cd1fd0a4f28419497f9722a3daafe3b4186f6b6457e08380a380f35b908560249251917f1e4fbdf7000000000000000000000000000000000000000000000000000000008352820152fd5b8280fd5b505034610217578060031936011261021757806020926101ec6109dd565b6101f46109f8565b6001600160a01b0391821683526001865283832091168252845220549051908152f35b5080fd5b50503461021757806003193601126102175760209061024561023b6109dd565b6024359033610b44565b5160018152f35b5091903461021757816003193601126102175780519082845460018160011c9060018316928315610364575b60209384841081146103515783885290811561033557506001146102e0575b505050829003601f01601f191682019267ffffffffffffffff8411838510176102cd57508291826102c9925282610994565b0390f35b80604186634e487b7160e01b6024945252fd5b8787529192508591837f8a35acfbc15ff81a39ae7d344fd709f28e8600b4aa8c65c6b64bfe7fe36bd19b5b8385106103215750505050830101388080610297565b80548886018301529301928490820161030b565b60ff1916878501525050151560051b8401019050388080610297565b60248960228c634e487b7160e01b835252fd5b91607f1691610278565b5050346102175781600319360112610217576060906006549060ff81519281811615158452818160081c161515602085015260101c16151590820152f35b5050346102175781600319360112610217576020906001600160a01b0360055460081c169051908152f35b50503461021757816003193601126102175760207f62e78cea01bee320cd4e420270b5ea74000d11b0c9f74754ebdbfc544b05a25891610415610c41565b61042b600160ff60065460081c16151514610a0e565b610433610d2f565b600160ff19600554161760055551338152a180f35b5050346102175736600319011261047b576104786104646109dd565b60243590610473823383610a59565b610c88565b80f35b80fd5b833461047b578060031936011261047b57610497610c41565b806001600160a01b0360055474ffffffffffffffffffffffffffffffffffffffff0019811660055560081c167f8be0079c531659141344cd1fd0a4f28419497f9722a3daafe3b4186f6b6457e08280a380f35b50503461021757602036600319011261021757806020926001600160a01b036105116109dd565b16815280845220549051908152f35b50503461021757816003193601126102175760209060ff6005541690519015158152f35b5090346101ca5760203660031901126101ca57600160ff60065460101c161515036105755750610478903533610c88565b906020606492519162461bcd60e51b8352820152601360248201527f6275726e696e672069732064697361626c6564000000000000000000000000006044820152fd5b5090346101ca57806003193601126101ca576105d26109dd565b90602435916105df610c41565b600160ff6006541615150361067e576001600160a01b031692831561066957610606610d2f565b60025490838201809211610656575084927fddf252ad1be2c89b69c2b068fc378daa952ba7f163c4a11628f55a4df523b3ef9260209260025585855284835280852082815401905551908152a380f35b856011602492634e487b7160e01b835252fd5b84602492519163ec442f0560e01b8352820152fd5b606484602084519162461bcd60e51b8352820152601360248201527f6d696e74696e672069732064697361626c6564000000000000000000000000006044820152fd5b50346101ca57826003193601126101ca576106da610c41565b6106f0600160ff60065460081c16151514610a0e565b6005549060ff821615610732575060ff1916600555513381527f5db9ee0a495bf2e6ff9c91a7834c1ba4fdd244a5e8aa4e537bd38aeae4b073aa90602090a180f35b82517f8dfc202b000000000000000000000000000000000000000000000000000000008152fd5b5050346102175781600319360112610217576020906007549051908152f35b50503461021757816003193601126102175760209060ff600754169051908152f35b505034610217576060366003190112610217576020906102456107bb6109dd565b6107c36109f8565b604435916107d2833383610a59565b610b44565b5050346102175781600319360112610217576020906002549051908152f35b50346101ca57816003193601126101ca5761080f6109dd565b602435903315610887576001600160a01b031691821561087157508083602095338152600187528181208582528752205582519081527f8c5be1e5ebec7d5bd14f71427d1e84f3dd0314c0f7b2291e5b200ac8c7c3b925843392a35160018152f35b60249085855191634a1406b160e11b8352820152fd5b6024838686519163e602df0560e01b8352820152fd5b84915083346101ca57826003193601126101ca578260035460018160011c906001831692831561098a575b60209384841081146103515783885290811561096e575060011461091857505050829003601f01601f191682019267ffffffffffffffff8411838510176102cd57508291826102c9925282610994565b600387529192508591837fc2575a0e9e593c00f959f8c92f12db2869c3395a3b0502d05e2516446f71f85b5b83851061095a5750505050830101858080610297565b805488860183015293019284908201610944565b60ff1916878501525050151560051b8401019050858080610297565b91607f16916108c8565b6020808252825181830181905290939260005b8281106109c957505060409293506000838284010152601f8019910116010190565b8181018601518482016040015285016109a7565b600435906001600160a01b03821682036109f357565b600080fd5b602435906001600160a01b03821682036109f357565b15610a1557565b606460405162461bcd60e51b815260206004820152601360248201527f70617573696e672069732064697361626c6564000000000000000000000000006044820152fd5b916001600160a01b038093169160009383855260016020526040938486209183169182875260205284862054926000198403610a99575b50505050505050565b848410610afb57508015610ae4578115610acd57855260016020528385209085526020520391205538808080808080610a90565b602486865190634a1406b160e11b82526004820152fd5b60248686519063e602df0560e01b82526004820152fd5b85517ffb8f41b20000000000000000000000000000000000000000000000000000000081526001600160a01b039190911660048201526024810184905260448101859052606490fd5b916001600160a01b03808416928315610c105716928315610bf857610b67610d2f565b60009083825281602052604082205490838210610bc6575091604082827fddf252ad1be2c89b69c2b068fc378daa952ba7f163c4a11628f55a4df523b3ef958760209652828652038282205586815220818154019055604051908152a3565b60405163391434e360e21b81526001600160a01b03919091166004820152602481019190915260448101839052606490fd5b602460405163ec442f0560e01b815260006004820152fd5b60246040517f96c6fd1e00000000000000000000000000000000000000000000000000000000815260006004820152fd5b6001600160a01b0360055460081c163303610c5857565b60246040517f118cdaa7000000000000000000000000000000000000000000000000000000008152336004820152fd5b906001600160a01b038216908115610c1057610ca2610d2f565b60009282845283602052604084205490828210610cfd5750817fddf252ad1be2c89b69c2b068fc378daa952ba7f163c4a11628f55a4df523b3ef926020928587528684520360408620558060025403600255604051908152a3565b60405163391434e360e21b81526001600160a01b03919091166004820152602481019190915260448101829052606490fd5b60ff60055416610d3b57565b60046040517fd93c0665000000000000000000000000000000000000000000000000000000008152fdfea2646970667358221220774bb7ec3adb78aed8772b6cd248d6aeced819b01e27a88fbbe3fd075ddf93c764736f6c63430008180033a2646970667358221220cde3e3c9719b10a2d5c4e02a1b23081cb37b3c82dc28273f3e0356a96d0008d064736f6c63430008180033",
  "linkReferences": {},
  "deployedLinkReferences": {}
}