{
  "_format": "hh-sol-artifact-1",
  "contractName": "ThrustpadInstantAirdropFactory",
  "sourceName": "contracts/airdrop/ThrustpadInstantAirdropFactory.sol",
  "abi": [
    {
      "inputs": [],
      "stateMutability": "nonpayable",
      "type": "constructor"
    },
    {
      "inputs": [
        {
          "internalType": "address",
          "name": "owner",
          "type": "address"
        }
      ],
      "name": "OwnableInvalidOwner",
      "type": "error"
    },
    {
      "inputs": [
        {
          "internalType": "address",
          "name": "account",
          "type": "address"
        }
      ],
      "name": "OwnableUnauthorizedAccount",
      "type": "error"
    },
    {
      "anonymous": false,
      "inputs": [
        {
          "indexed": true,
          "internalType": "address",
          "name": "airdrop",
          "type": "address"
        },
        {
          "indexed": true,
          "internalType": "address",
          "name": "token",
          "type": "address"
        }
      ],
      "name": "AirdropCreated",
      "type": "event"
    },
    {
      "anonymous": false,
      "inputs": [
        {
          "indexed": true,
          "internalType": "address",
          "name": "previousOwner",
          "type": "address"
        },
        {
          "indexed": true,
          "internalType": "address",
          "name": "newOwner",
          "type": "address"
        }
      ],
      "name": "OwnershipTransferred",
      "type": "event"
    },
    {
      "inputs": [],
      "name": "creationFee",
      "outputs": [
        {
          "internalType": "uint256",
          "name": "",
          "type": "uint256"
        }
      ],
      "stateMutability": "view",
      "type": "function"
    },
    {
      "inputs": [
        {
          "internalType": "address",
          "name": "",
          "type": "address"
        },
        {
          "internalType": "uint256",
          "name": "",
          "type": "uint256"
        }
      ],
      "name": "deployedAirdrops",
      "outputs": [
        {
          "internalType": "address",
          "name": "",
          "type": "address"
        }
      ],
      "stateMutability": "view",
      "type": "function"
    },
    {
      "inputs": [],
      "name": "feeEarned",
      "outputs": [
        {
          "internalType": "uint256",
          "name": "",
          "type": "uint256"
        }
      ],
      "stateMutability": "view",
      "type": "function"
    },
    {
      "inputs": [
        {
          "internalType": "bytes",
          "name": "bytecode",
          "type": "bytes"
        },
        {
          "internalType": "uint256",
          "name": "salt",
          "type": "uint256"
        }
      ],
      "name": "getAddressCreate2",
      "outputs": [
        {
          "internalType": "address",
          "name": "",
          "type": "address"
        }
      ],
      "stateMutability": "view",
      "type": "function"
    },
    {
      "inputs": [
        {
          "internalType": "address",
          "name": "_token",
          "type": "address"
        },
        {
          "internalType": "bytes32",
          "name": "_merkleRoot",
          "type": "bytes32"
        },
        {
          "internalType": "address",
          "name": "_owner",
          "type": "address"
        }
      ],
      "name": "getBytecode",
      "outputs": [
        {
          "internalType": "bytes",
          "name": "",
          "type": "bytes"
        }
      ],
      "stateMutability": "pure",
      "type": "function"
    },
    {
      "inputs": [
        {
          "internalType": "address",
          "name": "creator",
          "type": "address"
        }
      ],
      "name": "getdeployedAirdrops",
      "outputs": [
        {
          "internalType": "address[]",
          "name": "",
          "type": "address[]"
        }
      ],
      "stateMutability": "view",
      "type": "function"
    },
    {
      "inputs": [
        {
          "internalType": "address",
          "name": "creator",
          "type": "address"
        }
      ],
      "name": "getdeployedAirdropsLen",
      "outputs": [
        {
          "internalType": "uint256",
          "name": "",
          "type": "uint256"
        }
      ],
      "stateMutability": "view",
      "type": "function"
    },
    {
      "inputs": [
        {
          "internalType": "address",
          "name": "_token",
          "type": "address"
        },
        {
          "internalType": "bytes32",
          "name": "_merkleRoot",
          "type": "bytes32"
        },
        {
          "internalType": "uint256",
          "name": "totalAmount",
          "type": "uint256"
        }
      ],
      "name": "newInstantAirdrop",
      "outputs": [
        {
          "internalType": "address",
          "name": "",
          "type": "address"
        }
      ],
      "stateMutability": "payable",
      "type": "function"
    },
    {
      "inputs": [],
      "name": "owner",
      "outputs": [
        {
          "internalType": "address",
          "name": "",
          "type": "address"
        }
      ],
      "stateMutability": "view",
      "type": "function"
    },
    {
      "inputs": [],
      "name": "renounceOwnership",
      "outputs": [],
      "stateMutability": "nonpayable",
      "type": "function"
    },
    {
      "inputs": [
        {
          "internalType": "uint256",
          "name": "_fee",
          "type": "uint256"
        }
      ],
      "name": "setCreationFee",
      "outputs": [],
      "stateMutability": "nonpayable",
      "type": "function"
    },
    {
      "inputs": [
        {
          "internalType": "address",
          "name": "newOwner",
          "type": "address"
        }
      ],
      "name": "transferOwnership",
      "outputs": [],
      "stateMutability": "nonpayable",
      "type": "function"
    },
    {
      "inputs": [
        {
          "internalType": "uint256",
          "name": "_fee",
          "type": "uint256"
        }
      ],
      "name": "updateCreationFee",
      "outputs": [],
      "stateMutability": "nonpayable",
      "type": "function"
    },
    {
      "inputs": [],
      "name": "withdraw",
      "outputs": [],
      "stateMutability": "nonpayable",
      "type": "function"
    },
    {
      "inputs": [
        {
          "internalType": "address",
          "name": "token",
          "type": "address"
        }
      ],
      "name": "withdrawToken",
      "outputs": [],
      "stateMutability": "nonpayable",
      "type": "function"
    },
    {
      "stateMutability": "payable",
      "type": "receive"
    }
  ],
  "bytecode": "0x608060405268015af1d78b58c4000060025534801561001d57600080fd5b50338061004457604051631e4fbdf760e01b81526000600482015260240160405180910390fd5b61004d81610053565b506100a3565b600080546001600160a01b038381166001600160a01b0319831681178455604051919092169283917f8be0079c531659141344cd1fd0a4f28419497f9722a3daafe3b4186f6b6457e09190a35050565b611542806100b26000396000f3fe6080604052600436106100ec5760003560e01c80639f886f261161008a578063d5f63a0611610059578063d5f63a0614610263578063dce0b4e414610279578063f2fde38b1461028f578063fe4aecf4146102af57600080fd5b80639f886f26146101d2578063b7d862251461013f578063bfe12c00146101f2578063c3b6fe391461021f57600080fd5b8063715018a6116100c6578063715018a61461015f57806389476069146101745780638d6c028c146101945780638da5cb5b146101b457600080fd5b80633ccfd60b146100f857806360e7f0921461010f5780636fa237951461013f57600080fd5b366100f357005b600080fd5b34801561010457600080fd5b5061010d6102dc565b005b61012261011d3660046109d5565b610321565b6040516001600160a01b0390911681526020015b60405180910390f35b34801561014b57600080fd5b5061010d61015a366004610a08565b6105b5565b34801561016b57600080fd5b5061010d6105c2565b34801561018057600080fd5b5061010d61018f366004610a21565b6105d6565b3480156101a057600080fd5b506101226101af366004610a43565b61070b565b3480156101c057600080fd5b506000546001600160a01b0316610122565b3480156101de57600080fd5b506101226101ed366004610a83565b610743565b3480156101fe57600080fd5b5061021261020d366004610b38565b6107ba565b6040516101369190610b98565b34801561022b57600080fd5b5061025561023a366004610a21565b6001600160a01b031660009081526001602052604090205490565b604051908152602001610136565b34801561026f57600080fd5b5061025560035481565b34801561028557600080fd5b5061025560025481565b34801561029b57600080fd5b5061010d6102aa366004610a21565b61083f565b3480156102bb57600080fd5b506102cf6102ca366004610a21565b610893565b6040516101369190610bcb565b6102e4610909565b600080546040516001600160a01b03909116914780156108fc02929091818181858888f1935050505015801561031e573d6000803e3d6000fd5b50565b60006002543410156103a05760405162461bcd60e51b815260206004820152603060248201527f546872757374706164496e7374616e7441697264726f70466163746f72793a2060448201527f496e73756666696369656e74206665650000000000000000000000000000000060648201526084015b60405180910390fd5b600082116104165760405162461bcd60e51b815260206004820152602e60248201527f546872757374706164496e7374616e7441697264726f70466163746f72793a2060448201527f496e76616c696420616d6f756e740000000000000000000000000000000000006064820152608401610397565b33600081815260016020526040808220549051919290918791879161043a906109ac565b6001600160a01b039384168152602081019290925290911660408201526060018190604051809103906000f590508015801561047a573d6000803e3d6000fd5b506040517f23b872dd0000000000000000000000000000000000000000000000000000000081523360048201526001600160a01b03808316602483015260448201869052919250908616906323b872dd906064016020604051808303816000875af11580156104ed573d6000803e3d6000fd5b505050506040513d601f19601f820116820180604052508101906105119190610c18565b50846001600160a01b0316816001600160a01b03167fe9d3c17fe1abc34320923960d6d4ad8f1cdfef18200f519b215f7e163b0dc85a60405160405180910390a33360009081526001602081815260408320805492830181558352822001805473ffffffffffffffffffffffffffffffffffffffff19166001600160a01b038416179055600380543492906105a7908490610c3a565b909155509095945050505050565b6105bd610909565b600255565b6105ca610909565b6105d4600061094f565b565b6105de610909565b806001600160a01b031663a9059cbb6105ff6000546001600160a01b031690565b6040517f70a082310000000000000000000000000000000000000000000000000000000081523060048201526001600160a01b038516906370a0823190602401602060405180830381865afa15801561065c573d6000803e3d6000fd5b505050506040513d601f19601f820116820180604052508101906106809190610c5b565b6040517fffffffff0000000000000000000000000000000000000000000000000000000060e085901b1681526001600160a01b03909216600483015260248201526044016020604051808303816000875af11580156106e3573d6000803e3d6000fd5b505050506040513d601f19601f820116820180604052508101906107079190610c18565b5050565b6001602052816000526040600020818154811061072757600080fd5b6000918252602090912001546001600160a01b03169150829050565b8151602080840191909120604080517fff00000000000000000000000000000000000000000000000000000000000000818501523060601b6bffffffffffffffffffffffff191660218201526035810185905260558082019390935281518082039093018352607501905280519101205b92915050565b60606000604051806020016107ce906109ac565b601f1982820381018352601f9091011660408181526001600160a01b03808916602084015290820187905285166060820152909150819060800160408051601f19818403018152908290526108269291602001610c74565b6040516020818303038152906040529150509392505050565b610847610909565b6001600160a01b03811661088a576040517f1e4fbdf700000000000000000000000000000000000000000000000000000000815260006004820152602401610397565b61031e8161094f565b6001600160a01b0381166000908152600160209081526040918290208054835181840281018401909452808452606093928301828280156108fd57602002820191906000526020600020905b81546001600160a01b031681526001909101906020018083116108df575b50505050509050919050565b6000546001600160a01b031633146105d4576040517f118cdaa7000000000000000000000000000000000000000000000000000000008152336004820152602401610397565b600080546001600160a01b0383811673ffffffffffffffffffffffffffffffffffffffff19831681178455604051919092169283917f8be0079c531659141344cd1fd0a4f28419497f9722a3daafe3b4186f6b6457e09190a35050565b61086980610ca483390190565b80356001600160a01b03811681146109d057600080fd5b919050565b6000806000606084860312156109ea57600080fd5b6109f3846109b9565b95602085013595506040909401359392505050565b600060208284031215610a1a57600080fd5b5035919050565b600060208284031215610a3357600080fd5b610a3c826109b9565b9392505050565b60008060408385031215610a5657600080fd5b610a5f836109b9565b946020939093013593505050565b634e487b7160e01b600052604160045260246000fd5b60008060408385031215610a9657600080fd5b823567ffffffffffffffff80821115610aae57600080fd5b818501915085601f830112610ac257600080fd5b813581811115610ad457610ad4610a6d565b604051601f8201601f19908116603f01168101908382118183101715610afc57610afc610a6d565b81604052828152886020848701011115610b1557600080fd5b826020860160208301376000602093820184015298969091013596505050505050565b600080600060608486031215610b4d57600080fd5b610b56846109b9565b925060208401359150610b6b604085016109b9565b90509250925092565b60005b83811015610b8f578181015183820152602001610b77565b50506000910152565b6020815260008251806020840152610bb7816040850160208701610b74565b601f01601f19169190910160400192915050565b6020808252825182820181905260009190848201906040850190845b81811015610c0c5783516001600160a01b031683529284019291840191600101610be7565b50909695505050505050565b600060208284031215610c2a57600080fd5b81518015158114610a3c57600080fd5b808201808211156107b457634e487b7160e01b600052601160045260246000fd5b600060208284031215610c6d57600080fd5b5051919050565b60008351610c86818460208801610b74565b835190830190610c9a818360208801610b74565b0194935050505056fe608060405234801561001057600080fd5b5060405161086938038061086983398101604081905261002f91610102565b806001600160a01b03811661005e57604051631e4fbdf760e01b81526000600482015260240160405180910390fd5b61006781610096565b505060018055600280546001600160a01b0319166001600160a01b03939093169290921790915560035561013e565b600080546001600160a01b038381166001600160a01b0319831681178455604051919092169283917f8be0079c531659141344cd1fd0a4f28419497f9722a3daafe3b4186f6b6457e09190a35050565b80516001600160a01b03811681146100fd57600080fd5b919050565b60008060006060848603121561011757600080fd5b610120846100e6565b925060208401519150610135604085016100e6565b90509250925092565b61071c8061014d6000396000f3fe608060405234801561001057600080fd5b50600436106100885760003560e01c8063c884ef831161005b578063c884ef83146100eb578063d54ad2a11461011e578063f2fde38b14610127578063fc0c546a1461013a57600080fd5b80632eb4a7ab1461008d5780632f52ebb7146100a9578063715018a6146100be5780638da5cb5b146100c6575b600080fd5b61009660035481565b6040519081526020015b60405180910390f35b6100bc6100b73660046105e5565b61014d565b005b6100bc610323565b6000546001600160a01b03165b6040516001600160a01b0390911681526020016100a0565b61010e6100f9366004610664565b60046020526000908152604090205460ff1681565b60405190151581526020016100a0565b61009660055481565b6100bc610135366004610664565b610337565b6002546100d3906001600160a01b031681565b61015561038e565b3360009081526004602052604090205460ff16156101e05760405162461bcd60e51b815260206004820152603060248201527f546872757374706164496e7374616e7441697264726f703a204163636f756e7460448201527f20616c726561647920636c61696d65640000000000000000000000000000000060648201526084015b60405180910390fd5b6102208282808060200260200160405190810160405280939291908181526020018383602002808284376000920191909152508792503391506103d19050565b336000908152600460205260408120805460ff191660011790556005805485929061024c90849061068d565b90915550506002546040517fa9059cbb000000000000000000000000000000000000000000000000000000008152336004820152602481018590526001600160a01b039091169063a9059cbb906044016020604051808303816000875af11580156102bb573d6000803e3d6000fd5b505050506040513d601f19601f820116820180604052508101906102df91906106ae565b5060405183815233907fd8138f8a3f377c5259ca548e70e4c2de94f129f5a11036a15b69513cba2b426a9060200160405180910390a261031e60018055565b505050565b61032b6104aa565b61033560006104f0565b565b61033f6104aa565b6001600160a01b038116610382576040517f1e4fbdf7000000000000000000000000000000000000000000000000000000008152600060048201526024016101d7565b61038b816104f0565b50565b6002600154036103ca576040517f3ee5aeb500000000000000000000000000000000000000000000000000000000815260040160405180910390fd5b6002600155565b604080516001600160a01b038316602082015290810183905260009060600160408051601f19818403018152828252805160209182012090830152016040516020818303038152906040528051906020012090506104328460035483610558565b6104a45760405162461bcd60e51b815260206004820152602660248201527f546872757374706164496e7374616e7441697264726f703a20496e76616c696460448201527f2070726f6f66000000000000000000000000000000000000000000000000000060648201526084016101d7565b50505050565b6000546001600160a01b03163314610335576040517f118cdaa70000000000000000000000000000000000000000000000000000000081523360048201526024016101d7565b600080546001600160a01b038381167fffffffffffffffffffffffff0000000000000000000000000000000000000000831681178455604051919092169283917f8be0079c531659141344cd1fd0a4f28419497f9722a3daafe3b4186f6b6457e09190a35050565b600082610565858461056e565b14949350505050565b600081815b84518110156105a95761059f82868381518110610592576105926106d0565b60200260200101516105b3565b9150600101610573565b5090505b92915050565b60008183106105cf5760008281526020849052604090206105de565b60008381526020839052604090205b9392505050565b6000806000604084860312156105fa57600080fd5b83359250602084013567ffffffffffffffff8082111561061957600080fd5b818601915086601f83011261062d57600080fd5b81358181111561063c57600080fd5b8760208260051b850101111561065157600080fd5b6020830194508093505050509250925092565b60006020828403121561067657600080fd5b81356001600160a01b03811681146105de57600080fd5b808201808211156105ad57634e487b7160e01b600052601160045260246000fd5b6000602082840312156106c057600080fd5b815180151581146105de57600080fd5b634e487b7160e01b600052603260045260246000fdfea2646970667358221220f8bb484ed51f244f8df6b3409b6d10432bb491f3484d9fa9320d5cd1d1a3138164736f6c63430008180033a2646970667358221220216af85f2eedcbb75fa92ea0515c4456ce814c1eef11cbd5aa5dd310759d0b1764736f6c63430008180033",
  "linkReferences": {},
  "deployedLinkReferences": {}
}