{
  "_format": "hh-sol-artifact-1",
  "contractName": "ThrustpadInstantAirdropFactory",
  "sourceName": "contracts/airdrop/ThrustpadInstantAirdropFactory.sol",
  "abi": [
    {
      "inputs": [],
      "stateMutability": "nonpayable",
      "type": "constructor"
    },
    {
      "inputs": [
        {
          "internalType": "address",
          "name": "owner",
          "type": "address"
        }
      ],
      "name": "OwnableInvalidOwner",
      "type": "error"
    },
    {
      "inputs": [
        {
          "internalType": "address",
          "name": "account",
          "type": "address"
        }
      ],
      "name": "OwnableUnauthorizedAccount",
      "type": "error"
    },
    {
      "anonymous": false,
      "inputs": [
        {
          "indexed": true,
          "internalType": "address",
          "name": "airdrop",
          "type": "address"
        },
        {
          "indexed": true,
          "internalType": "address",
          "name": "token",
          "type": "address"
        }
      ],
      "name": "AirdropCreated",
      "type": "event"
    },
    {
      "anonymous": false,
      "inputs": [
        {
          "indexed": true,
          "internalType": "address",
          "name": "previousOwner",
          "type": "address"
        },
        {
          "indexed": true,
          "internalType": "address",
          "name": "newOwner",
          "type": "address"
        }
      ],
      "name": "OwnershipTransferred",
      "type": "event"
    },
    {
      "inputs": [],
      "name": "creationFee",
      "outputs": [
        {
          "internalType": "uint256",
          "name": "",
          "type": "uint256"
        }
      ],
      "stateMutability": "view",
      "type": "function"
    },
    {
      "inputs": [
        {
          "internalType": "address",
          "name": "",
          "type": "address"
        },
        {
          "internalType": "uint256",
          "name": "",
          "type": "uint256"
        }
      ],
      "name": "deployedAirdrops",
      "outputs": [
        {
          "internalType": "address",
          "name": "",
          "type": "address"
        }
      ],
      "stateMutability": "view",
      "type": "function"
    },
    {
      "inputs": [],
      "name": "feeEarned",
      "outputs": [
        {
          "internalType": "uint256",
          "name": "",
          "type": "uint256"
        }
      ],
      "stateMutability": "view",
      "type": "function"
    },
    {
      "inputs": [
        {
          "internalType": "bytes",
          "name": "bytecode",
          "type": "bytes"
        },
        {
          "internalType": "uint256",
          "name": "salt",
          "type": "uint256"
        }
      ],
      "name": "getAddressCreate2",
      "outputs": [
        {
          "internalType": "address",
          "name": "",
          "type": "address"
        }
      ],
      "stateMutability": "view",
      "type": "function"
    },
    {
      "inputs": [
        {
          "internalType": "address",
          "name": "_token",
          "type": "address"
        },
        {
          "internalType": "bytes32",
          "name": "_merkleRoot",
          "type": "bytes32"
        },
        {
          "internalType": "address",
          "name": "_owner",
          "type": "address"
        }
      ],
      "name": "getBytecode",
      "outputs": [
        {
          "internalType": "bytes",
          "name": "",
          "type": "bytes"
        }
      ],
      "stateMutability": "pure",
      "type": "function"
    },
    {
      "inputs": [
        {
          "internalType": "address",
          "name": "creator",
          "type": "address"
        }
      ],
      "name": "getdeployedAirdrops",
      "outputs": [
        {
          "internalType": "address[]",
          "name": "",
          "type": "address[]"
        }
      ],
      "stateMutability": "view",
      "type": "function"
    },
    {
      "inputs": [
        {
          "internalType": "address",
          "name": "creator",
          "type": "address"
        }
      ],
      "name": "getdeployedAirdropsLen",
      "outputs": [
        {
          "internalType": "uint256",
          "name": "",
          "type": "uint256"
        }
      ],
      "stateMutability": "view",
      "type": "function"
    },
    {
      "inputs": [
        {
          "internalType": "address",
          "name": "_token",
          "type": "address"
        },
        {
          "internalType": "bytes32",
          "name": "_merkleRoot",
          "type": "bytes32"
        },
        {
          "internalType": "uint256",
          "name": "totalAmount",
          "type": "uint256"
        }
      ],
      "name": "newInstantAirdrop",
      "outputs": [
        {
          "internalType": "address",
          "name": "",
          "type": "address"
        }
      ],
      "stateMutability": "payable",
      "type": "function"
    },
    {
      "inputs": [],
      "name": "owner",
      "outputs": [
        {
          "internalType": "address",
          "name": "",
          "type": "address"
        }
      ],
      "stateMutability": "view",
      "type": "function"
    },
    {
      "inputs": [],
      "name": "renounceOwnership",
      "outputs": [],
      "stateMutability": "nonpayable",
      "type": "function"
    },
    {
      "inputs": [
        {
          "internalType": "uint256",
          "name": "_fee",
          "type": "uint256"
        }
      ],
      "name": "setCreationFee",
      "outputs": [],
      "stateMutability": "nonpayable",
      "type": "function"
    },
    {
      "inputs": [
        {
          "internalType": "address",
          "name": "newOwner",
          "type": "address"
        }
      ],
      "name": "transferOwnership",
      "outputs": [],
      "stateMutability": "nonpayable",
      "type": "function"
    },
    {
      "inputs": [
        {
          "internalType": "uint256",
          "name": "_fee",
          "type": "uint256"
        }
      ],
      "name": "updateCreationFee",
      "outputs": [],
      "stateMutability": "nonpayable",
      "type": "function"
    },
    {
      "inputs": [],
      "name": "withdraw",
      "outputs": [],
      "stateMutability": "nonpayable",
      "type": "function"
    },
    {
      "inputs": [
        {
          "internalType": "address",
          "name": "token",
          "type": "address"
        }
      ],
      "name": "withdrawToken",
      "outputs": [],
      "stateMutability": "nonpayable",
      "type": "function"
    },
    {
      "stateMutability": "payable",
      "type": "receive"
    }
  ],
  "bytecode": "0x608080604052346100875733156100715760008054336001600160a01b03198216811783556040519290916001600160a01b0316907f8be0079c531659141344cd1fd0a4f28419497f9722a3daafe3b4186f6b6457e09080a368015af1d78b58c400006002556112ae908161008d8239f35b631e4fbdf760e01b815260006004820152602490fd5b600080fdfe60406080815260049081361015610020575b5050361561001e57600080fd5b005b600091823560e01c9081633ccfd60b1461098957816360e7f092146106f85781636fa23795146103a0578163715018a61461069257816389476069146105505781638d6c028c146104f75781638da5cb5b146104d15781639f886f26146103c2578163b7d86225146103a0578163bfe12c00146102a8578163c3b6fe3914610271578163d5f63a0614610252578163dce0b4e414610233578163f2fde38b14610182575063fe4aecf403610011573461017e576020918260031936011261017b576001600160a01b0390816100f36109d9565b1681526001916001855283822094845191828288549182815201908198865283862090865b818110610166575050508361012e910384610a22565b855195828701938388525180945286019693905b83821061014f5786880387f35b845181168852968201969382019390850190610142565b82548516845292850192918801918801610118565b80fd5b5080fd5b90503461022f57602036600319011261022f5761019d6109d9565b906101a6610a95565b6001600160a01b0380921692831561020057505082548273ffffffffffffffffffffffffffffffffffffffff198216178455167f8be0079c531659141344cd1fd0a4f28419497f9722a3daafe3b4186f6b6457e08380a380f35b908460249251917f1e4fbdf7000000000000000000000000000000000000000000000000000000008352820152fd5b8280fd5b50503461017e578160031936011261017e576020906002549051908152f35b50503461017e578160031936011261017e576020906003549051908152f35b50503461017e57602036600319011261017e57806020926001600160a01b036102986109d9565b1681526001845220549051908152f35b50503461017e57606036600319011261017e576102c36109d9565b604435926001600160a01b038416840361017b5750610336601f61036f9261037b61079f9160209788918851916102fc84870184610a22565b85835283830195610ada873989516001600160a01b0392831685820190815260243560208201529290911660408301529687906060830190565b0396610349871998898101835282610a22565b895198899361036086860198899251928391610a5a565b84019151809386840190610a5a565b01038087520185610a22565b6103978551968795818752519283809288015287870190610a5a565b01168101030190f35b83903461017e57602036600319011261017e576103bb610a95565b3560025580f35b83833461017e578060031936011261017e5767ffffffffffffffff91833583811161017e573660238201121561017e57808501358481116104be57835190610414601f8201601f191660200183610a22565b808252602082019236602483830101116104ba578185926024602093018637830101525190209180519160208301937fff0000000000000000000000000000000000000000000000000000000000000085523060601b602185015260243560358501526055840152605583526080830194838610908611176104a757848252825184206001600160a01b03168552602085f35b80604187634e487b7160e01b6024945252fd5b8480fd5b602483604188634e487b7160e01b835252fd5b50503461017e578160031936011261017e576001600160a01b0360209254169051908152f35b50503461017e578060031936011261017e576105116109d9565b602435926001600160a01b038092168152600160205282812090815485101561017b5750602093610541916109f4565b92905490519260031b1c168152f35b90503461022f576020918260031936011261067d5761056d6109d9565b91610576610a95565b6001600160a01b038093169285541690858351947f70a0823100000000000000000000000000000000000000000000000000000000865230838701528686602481845afa95861561068857908291889594939761064e575b509060449291865197889586947fa9059cbb00000000000000000000000000000000000000000000000000000000865285015260248401525af19081156106455750610618578280f35b8161063792903d1061063e575b61062f8183610a22565b810190610a7d565b5038808280f35b503d610625565b513d85823e3d90fd5b85819493969298503d8311610681575b6106688183610a22565b8101031261067d5790519486939060446105ce565b8380fd5b503d61065e565b85513d84823e3d90fd5b833461017b578060031936011261017b576106ab610a95565b806001600160a01b03815473ffffffffffffffffffffffffffffffffffffffff1981168355167f8be0079c531659141344cd1fd0a4f28419497f9722a3daafe3b4186f6b6457e08280a380f35b919050606036600319011261022f5761070f6109d9565b9160246044359460025434106109215785156108b9573381526020956001875284822054855161079f8082019082821067ffffffffffffffff8311176108a757829161077991610ada84396001600160a01b038b1681528735602082015233604082015260600190565b039084f5908115610688576001600160a01b03808093169716908651907f23b872dd000000000000000000000000000000000000000000000000000000008252338783015288868301526044820152888160648187865af1801561089d57610880575b50867fe9d3c17fe1abc34320923960d6d4ad8f1cdfef18200f519b215f7e163b0dc85a8480a3338252600187528482208054906801000000000000000082101561086d5790610830916001820181556109f4565b819291549060031b9188831b921b19161790556003549234840180941161085d5750505060035551908152f35b601190634e487b7160e01b835252fd5b505050604183634e487b7160e01b835252fd5b61089690893d8b1161063e5761062f8183610a22565b50386107dc565b87513d86823e3d90fd5b868660418a634e487b7160e01b835252fd5b50602e906020608494519362461bcd60e51b85528401528201527f546872757374706164496e7374616e7441697264726f70466163746f72793a2060448201527f496e76616c696420616d6f756e740000000000000000000000000000000000006064820152fd5b506030906020608494519362461bcd60e51b85528401528201527f546872757374706164496e7374616e7441697264726f70466163746f72793a2060448201527f496e73756666696369656e7420666565000000000000000000000000000000006064820152fd5b50503461017e578160031936011261017e576109a3610a95565b818080806001600160a01b0381541647908282156109d0575bf1156109c6575080f35b51903d90823e3d90fd5b506108fc6109bc565b600435906001600160a01b03821682036109ef57565b600080fd5b8054821015610a0c5760005260206000200190600090565b634e487b7160e01b600052603260045260246000fd5b90601f8019910116810190811067ffffffffffffffff821117610a4457604052565b634e487b7160e01b600052604160045260246000fd5b60005b838110610a6d5750506000910152565b8181015183820152602001610a5d565b908160209103126109ef575180151581036109ef5790565b6001600160a01b03600054163303610aa957565b60246040517f118cdaa7000000000000000000000000000000000000000000000000000000008152336004820152fdfe6080346100e357601f61079f38819003918201601f19168301916001600160401b038311848410176100e8578084926060946040528339810103126100e357610047816100fe565b602082015190916001600160a01b03908190610065906040016100fe565b169081156100ca576000549360018060a01b03199280848716176000558260405196167f8be0079c531659141344cd1fd0a4f28419497f9722a3daafe3b4186f6b6457e0600080a3600180551690600254161760025560035561068c90816101138239f35b604051631e4fbdf760e01b815260006004820152602490fd5b600080fd5b634e487b7160e01b600052604160045260246000fd5b51906001600160a01b03821682036100e35756fe608060408181526004918236101561001657600080fd5b600092833560e01c9182632eb4a7ab146105be575081632f52ebb71461024e578163715018a6146101e55781638da5cb5b146101bf578163c884ef831461017d578163d54ad2a11461015e578163f2fde38b146100a7575063fc0c546a1461007d57600080fd5b346100a357816003193601126100a3576020906001600160a01b03600254169051908152f35b5080fd5b9190503461015a57602036600319011261015a578135916001600160a01b0391828416809403610156576100d9610612565b831561012757505082548273ffffffffffffffffffffffffffffffffffffffff198216178455167f8be0079c531659141344cd1fd0a4f28419497f9722a3daafe3b4186f6b6457e08380a380f35b908460249251917f1e4fbdf7000000000000000000000000000000000000000000000000000000008352820152fd5b8480fd5b8280fd5b5050346100a357816003193601126100a3576020906005549051908152f35b90503461015a57602036600319011261015a5780356001600160a01b0381168091036101bb578360ff92849260209652855220541690519015158152f35b8380fd5b5050346100a357816003193601126100a3576001600160a01b0360209254169051908152f35b833461024b578060031936011261024b576101fe610612565b806001600160a01b03815473ffffffffffffffffffffffffffffffffffffffff1981168355167f8be0079c531659141344cd1fd0a4f28419497f9722a3daafe3b4186f6b6457e08280a380f35b80fd5b839150346100a357826003193601126100a357803560249384359267ffffffffffffffff9586851161043057366023860112156104305784820135968088116105ba5760058860051b9183838901013681116105b65760019860028a541461058e578a9b60028b9c999a9b5533895260ff8a60209a8a8c52205416610527576102db898b519701876105da565b85528501878086015b838310610517575050885133898201908152602081018c905292509050610317816040840103601f1981018352826105da565b51902087518781019182528781529091818901908111828210176105055788525190206003549290918a918a91825b6104bc575b5050505003610456573387528183528387208660ff1982541617905560055490858201809211610445575060055560025483517fa9059cbb000000000000000000000000000000000000000000000000000000008152339281019283526020830186905291839183918290036040019082908a906001600160a01b03165af1801561043b57610404575b507fd8138f8a3f377c5259ca548e70e4c2de94f129f5a11036a15b69513cba2b426a91519283523392a2805580f35b8181813d8311610434575b61041981836105da565b8101031261043057518015150361015657856103d5565b8580fd5b503d61040f565b83513d88823e3d90fd5b87601184634e487b7160e01b835252fd5b60269192608494519362461bcd60e51b85528401528201527f546872757374706164496e7374616e7441697264726f703a20496e76616c696460448201527f2070726f6f6600000000000000000000000000000000000000000000000000006064820152fd5b9091929382518510156104fc5784821b830189015190818110156104ee578d52885282898d205b940192919082610346565b908d52885282898d206104e3565b9383925061034b565b858c604189634e487b7160e01b835252fd5b82358152918101918991016102e4565b6084886030898c8e519362461bcd60e51b85528401528201527f546872757374706164496e7374616e7441697264726f703a204163636f756e7460448201527f20616c726561647920636c61696d6564000000000000000000000000000000006064820152fd5b8688517f3ee5aeb5000000000000000000000000000000000000000000000000000000008152fd5b8980fd5b8680fd5b8490346100a357816003193601126100a3576020906003548152f35b90601f8019910116810190811067ffffffffffffffff8211176105fc57604052565b634e487b7160e01b600052604160045260246000fd5b6001600160a01b0360005416330361062657565b60246040517f118cdaa7000000000000000000000000000000000000000000000000000000008152336004820152fdfea26469706673582212204826ce35e52c99e789fb4c7a9f7a8e68c89199f8fe48e5efb251999e44e4891564736f6c63430008180033a26469706673582212202d0df7d8a894fd032646731d064a8e0c10cb08a539e90b3e4fd7a0614ae4e91b64736f6c63430008180033",
  "linkReferences": {},
  "deployedLinkReferences": {}
}