{
  "_format": "hh-sol-artifact-1",
  "contractName": "ThrustpadInstantAirdropFactory",
  "sourceName": "contracts/airdrop/ThrustpadInstantAirdropFactory.sol",
  "abi": [
    {
      "anonymous": false,
      "inputs": [
        {
          "indexed": true,
          "internalType": "address",
          "name": "airdrop",
          "type": "address"
        },
        {
          "indexed": true,
          "internalType": "address",
          "name": "token",
          "type": "address"
        }
      ],
      "name": "AirdropCreated",
      "type": "event"
    },
    {
      "inputs": [
        {
          "internalType": "address",
          "name": "",
          "type": "address"
        },
        {
          "internalType": "uint256",
          "name": "",
          "type": "uint256"
        }
      ],
      "name": "deployedAirdrops",
      "outputs": [
        {
          "internalType": "address",
          "name": "",
          "type": "address"
        }
      ],
      "stateMutability": "view",
      "type": "function"
    },
    {
      "inputs": [
        {
          "internalType": "bytes",
          "name": "bytecode",
          "type": "bytes"
        },
        {
          "internalType": "uint256",
          "name": "salt",
          "type": "uint256"
        }
      ],
      "name": "getAddressCreate2",
      "outputs": [
        {
          "internalType": "address",
          "name": "",
          "type": "address"
        }
      ],
      "stateMutability": "view",
      "type": "function"
    },
    {
      "inputs": [
        {
          "internalType": "address",
          "name": "_token",
          "type": "address"
        },
        {
          "internalType": "bytes32",
          "name": "_merkleRoot",
          "type": "bytes32"
        }
      ],
      "name": "getBytecode",
      "outputs": [
        {
          "internalType": "bytes",
          "name": "",
          "type": "bytes"
        }
      ],
      "stateMutability": "pure",
      "type": "function"
    },
    {
      "inputs": [
        {
          "internalType": "address",
          "name": "creator",
          "type": "address"
        }
      ],
      "name": "getdeployedAirdrops",
      "outputs": [
        {
          "internalType": "address[]",
          "name": "",
          "type": "address[]"
        }
      ],
      "stateMutability": "view",
      "type": "function"
    },
    {
      "inputs": [
        {
          "internalType": "address",
          "name": "creator",
          "type": "address"
        }
      ],
      "name": "getdeployedAirdropsLen",
      "outputs": [
        {
          "internalType": "uint256",
          "name": "",
          "type": "uint256"
        }
      ],
      "stateMutability": "view",
      "type": "function"
    },
    {
      "inputs": [
        {
          "internalType": "address",
          "name": "_token",
          "type": "address"
        },
        {
          "internalType": "bytes32",
          "name": "_merkleRoot",
          "type": "bytes32"
        },
        {
          "internalType": "uint256",
          "name": "totalAmount",
          "type": "uint256"
        }
      ],
      "name": "newInstantAirdrop",
      "outputs": [
        {
          "internalType": "address",
          "name": "",
          "type": "address"
        }
      ],
      "stateMutability": "nonpayable",
      "type": "function"
    }
  ],
  "bytecode": "0x608060405234801561001057600080fd5b50611fdd806100206000396000f3fe60806040523480156200001157600080fd5b50600436106200006a5760003560e01c806360e7f092146200006f5780638d6c028c14620000a55780639f886f2614620000db578063c3b6fe391462000111578063de40d82a1462000147578063fe4aecf4146200017d575b600080fd5b6200008d600480360381019062000087919062000739565b620001b3565b6040516200009c9190620007a6565b60405180910390f35b620000c36004803603810190620000bd9190620007c3565b6200040c565b604051620000d29190620007a6565b60405180910390f35b620000f96004803603810190620000f391906200096c565b6200045b565b604051620001089190620007a6565b60405180910390f35b6200012f6004803603810190620001299190620009d2565b620004a7565b6040516200013e919062000a15565b60405180910390f35b6200016560048036038101906200015f919062000a32565b620004f2565b60405162000174919062000b02565b60405180910390f35b6200019b6004803603810190620001959190620009d2565b6200056e565b604051620001aa919062000bf4565b60405180910390f35b6000808211620001fa576040517f08c379a0000000000000000000000000000000000000000000000000000000008152600401620001f19062000c9f565b60405180910390fd5b60008060003373ffffffffffffffffffffffffffffffffffffffff1673ffffffffffffffffffffffffffffffffffffffff1681526020019081526020016000208054905060001b858560405162000251906200063c565b6200025e92919062000cd2565b8190604051809103906000f59050801580156200027f573d6000803e3d6000fd5b5090508473ffffffffffffffffffffffffffffffffffffffff166323b872dd3383866040518463ffffffff1660e01b8152600401620002c19392919062000cff565b6020604051808303816000875af1158015620002e1573d6000803e3d6000fd5b505050506040513d601f19601f8201168201806040525081019062000307919062000d79565b508473ffffffffffffffffffffffffffffffffffffffff168173ffffffffffffffffffffffffffffffffffffffff167fe9d3c17fe1abc34320923960d6d4ad8f1cdfef18200f519b215f7e163b0dc85a60405160405180910390a36000803373ffffffffffffffffffffffffffffffffffffffff1673ffffffffffffffffffffffffffffffffffffffff168152602001908152602001600020819080600181540180825580915050600190039060005260206000200160009091909190916101000a81548173ffffffffffffffffffffffffffffffffffffffff021916908373ffffffffffffffffffffffffffffffffffffffff160217905550809150509392505050565b600060205281600052604060002081815481106200042957600080fd5b906000526020600020016000915091509054906101000a900473ffffffffffffffffffffffffffffffffffffffff1681565b60008060ff60f81b3084868051906020012060405160200162000482949392919062000e96565b6040516020818303038152906040528051906020012090508060001c91505092915050565b60008060008373ffffffffffffffffffffffffffffffffffffffff1673ffffffffffffffffffffffffffffffffffffffff168152602001908152602001600020805490509050919050565b606060006040518060200162000508906200063c565b6020820181038252601f19601f8201166040525090508084846040516020016200053492919062000cd2565b6040516020818303038152906040526040516020016200055692919062000f2e565b60405160208183030381529060405291505092915050565b60606000808373ffffffffffffffffffffffffffffffffffffffff1673ffffffffffffffffffffffffffffffffffffffff1681526020019081526020016000208054806020026020016040519081016040528092919081815260200182805480156200063057602002820191906000526020600020905b8160009054906101000a900473ffffffffffffffffffffffffffffffffffffffff1673ffffffffffffffffffffffffffffffffffffffff1681526020019060010190808311620005e5575b50505050509050919050565b6110518062000f5783390190565b6000604051905090565b600080fd5b600080fd5b600073ffffffffffffffffffffffffffffffffffffffff82169050919050565b60006200068b826200065e565b9050919050565b6200069d816200067e565b8114620006a957600080fd5b50565b600081359050620006bd8162000692565b92915050565b6000819050919050565b620006d881620006c3565b8114620006e457600080fd5b50565b600081359050620006f881620006cd565b92915050565b6000819050919050565b6200071381620006fe565b81146200071f57600080fd5b50565b600081359050620007338162000708565b92915050565b60008060006060848603121562000755576200075462000654565b5b60006200076586828701620006ac565b93505060206200077886828701620006e7565b92505060406200078b8682870162000722565b9150509250925092565b620007a0816200067e565b82525050565b6000602082019050620007bd600083018462000795565b92915050565b60008060408385031215620007dd57620007dc62000654565b5b6000620007ed85828601620006ac565b9250506020620008008582860162000722565b9150509250929050565b600080fd5b600080fd5b6000601f19601f8301169050919050565b7f4e487b7100000000000000000000000000000000000000000000000000000000600052604160045260246000fd5b6200085f8262000814565b810181811067ffffffffffffffff8211171562000881576200088062000825565b5b80604052505050565b6000620008966200064a565b9050620008a4828262000854565b919050565b600067ffffffffffffffff821115620008c757620008c662000825565b5b620008d28262000814565b9050602081019050919050565b82818337600083830152505050565b600062000905620008ff84620008a9565b6200088a565b9050828152602081018484840111156200092457620009236200080f565b5b62000931848285620008df565b509392505050565b600082601f8301126200095157620009506200080a565b5b813562000963848260208601620008ee565b91505092915050565b6000806040838503121562000986576200098562000654565b5b600083013567ffffffffffffffff811115620009a757620009a662000659565b5b620009b58582860162000939565b9250506020620009c88582860162000722565b9150509250929050565b600060208284031215620009eb57620009ea62000654565b5b6000620009fb84828501620006ac565b91505092915050565b62000a0f81620006fe565b82525050565b600060208201905062000a2c600083018462000a04565b92915050565b6000806040838503121562000a4c5762000a4b62000654565b5b600062000a5c85828601620006ac565b925050602062000a6f85828601620006e7565b9150509250929050565b600081519050919050565b600082825260208201905092915050565b60005b8381101562000ab557808201518184015260208101905062000a98565b60008484015250505050565b600062000ace8262000a79565b62000ada818562000a84565b935062000aec81856020860162000a95565b62000af78162000814565b840191505092915050565b6000602082019050818103600083015262000b1e818462000ac1565b905092915050565b600081519050919050565b600082825260208201905092915050565b6000819050602082019050919050565b62000b5d816200067e565b82525050565b600062000b71838362000b52565b60208301905092915050565b6000602082019050919050565b600062000b978262000b26565b62000ba3818562000b31565b935062000bb08362000b42565b8060005b8381101562000be757815162000bcb888262000b63565b975062000bd88362000b7d565b92505060018101905062000bb4565b5085935050505092915050565b6000602082019050818103600083015262000c10818462000b8a565b905092915050565b600082825260208201905092915050565b7f546872757374706164496e7374616e7441697264726f70466163746f72793a2060008201527f496e76616c696420616d6f756e74000000000000000000000000000000000000602082015250565b600062000c87602e8362000c18565b915062000c948262000c29565b604082019050919050565b6000602082019050818103600083015262000cba8162000c78565b9050919050565b62000ccc81620006c3565b82525050565b600060408201905062000ce9600083018562000795565b62000cf8602083018462000cc1565b9392505050565b600060608201905062000d16600083018662000795565b62000d25602083018562000795565b62000d34604083018462000a04565b949350505050565b60008115159050919050565b62000d538162000d3c565b811462000d5f57600080fd5b50565b60008151905062000d738162000d48565b92915050565b60006020828403121562000d925762000d9162000654565b5b600062000da28482850162000d62565b91505092915050565b60007fff0000000000000000000000000000000000000000000000000000000000000082169050919050565b6000819050919050565b62000df662000df08262000dab565b62000dd7565b82525050565b60008160601b9050919050565b600062000e168262000dfc565b9050919050565b600062000e2a8262000e09565b9050919050565b62000e4662000e40826200067e565b62000e1d565b82525050565b6000819050919050565b62000e6b62000e6582620006fe565b62000e4c565b82525050565b6000819050919050565b62000e9062000e8a82620006c3565b62000e71565b82525050565b600062000ea4828762000de1565b60018201915062000eb6828662000e31565b60148201915062000ec8828562000e56565b60208201915062000eda828462000e7b565b60208201915081905095945050505050565b600081905092915050565b600062000f048262000a79565b62000f10818562000eec565b935062000f2281856020860162000a95565b80840191505092915050565b600062000f3c828562000ef7565b915062000f4a828462000ef7565b9150819050939250505056fe60806040523480156200001157600080fd5b50604051620010513803806200105183398181016040528101906200003791906200027f565b32600073ffffffffffffffffffffffffffffffffffffffff168173ffffffffffffffffffffffffffffffffffffffff1603620000ad5760006040517f1e4fbdf7000000000000000000000000000000000000000000000000000000008152600401620000a49190620002d7565b60405180910390fd5b620000be816200011660201b60201c565b506001808190555081600260006101000a81548173ffffffffffffffffffffffffffffffffffffffff021916908373ffffffffffffffffffffffffffffffffffffffff160217905550806003819055505050620002f4565b60008060009054906101000a900473ffffffffffffffffffffffffffffffffffffffff169050816000806101000a81548173ffffffffffffffffffffffffffffffffffffffff021916908373ffffffffffffffffffffffffffffffffffffffff1602179055508173ffffffffffffffffffffffffffffffffffffffff168173ffffffffffffffffffffffffffffffffffffffff167f8be0079c531659141344cd1fd0a4f28419497f9722a3daafe3b4186f6b6457e060405160405180910390a35050565b600080fd5b600073ffffffffffffffffffffffffffffffffffffffff82169050919050565b60006200020c82620001df565b9050919050565b6200021e81620001ff565b81146200022a57600080fd5b50565b6000815190506200023e8162000213565b92915050565b6000819050919050565b620002598162000244565b81146200026557600080fd5b50565b60008151905062000279816200024e565b92915050565b60008060408385031215620002995762000298620001da565b5b6000620002a9858286016200022d565b9250506020620002bc8582860162000268565b9150509250929050565b620002d181620001ff565b82525050565b6000602082019050620002ee6000830184620002c6565b92915050565b610d4d80620003046000396000f3fe608060405234801561001057600080fd5b50600436106100885760003560e01c8063c884ef831161005b578063c884ef83146100ef578063d54ad2a11461011f578063f2fde38b1461013d578063fc0c546a1461015957610088565b80632eb4a7ab1461008d5780632f52ebb7146100ab578063715018a6146100c75780638da5cb5b146100d1575b600080fd5b610095610177565b6040516100a291906107e3565b60405180910390f35b6100c560048036038101906100c091906108a3565b61017d565b005b6100cf6103cb565b005b6100d96103df565b6040516100e69190610944565b60405180910390f35b6101096004803603810190610104919061098b565b610408565b60405161011691906109d3565b60405180910390f35b610127610428565b60405161013491906109fd565b60405180910390f35b6101576004803603810190610152919061098b565b61042e565b005b6101616104b4565b60405161016e9190610a77565b60405180910390f35b60035481565b6101856104da565b600460003373ffffffffffffffffffffffffffffffffffffffff1673ffffffffffffffffffffffffffffffffffffffff16815260200190815260200160002060009054906101000a900460ff1615610212576040517f08c379a000000000000000000000000000000000000000000000000000000000815260040161020990610b15565b60405180910390fd5b61025e828280806020026020016040519081016040528093929190818152602001838360200280828437600081840152601f19601f820116905080830192505050505050508433610520565b6001600460003373ffffffffffffffffffffffffffffffffffffffff1673ffffffffffffffffffffffffffffffffffffffff16815260200190815260200160002060006101000a81548160ff02191690831515021790555082600560008282546102c89190610b64565b92505081905550600260009054906101000a900473ffffffffffffffffffffffffffffffffffffffff1673ffffffffffffffffffffffffffffffffffffffff1663a9059cbb33856040518363ffffffff1660e01b815260040161032c929190610b98565b6020604051808303816000875af115801561034b573d6000803e3d6000fd5b505050506040513d601f19601f8201168201806040525081019061036f9190610bed565b503373ffffffffffffffffffffffffffffffffffffffff167fd8138f8a3f377c5259ca548e70e4c2de94f129f5a11036a15b69513cba2b426a846040516103b691906109fd565b60405180910390a26103c66105c5565b505050565b6103d36105ce565b6103dd6000610655565b565b60008060009054906101000a900473ffffffffffffffffffffffffffffffffffffffff16905090565b60046020528060005260406000206000915054906101000a900460ff1681565b60055481565b6104366105ce565b600073ffffffffffffffffffffffffffffffffffffffff168173ffffffffffffffffffffffffffffffffffffffff16036104a85760006040517f1e4fbdf700000000000000000000000000000000000000000000000000000000815260040161049f9190610944565b60405180910390fd5b6104b181610655565b50565b600260009054906101000a900473ffffffffffffffffffffffffffffffffffffffff1681565b600260015403610516576040517f3ee5aeb500000000000000000000000000000000000000000000000000000000815260040160405180910390fd5b6002600181905550565b60008183604051602001610535929190610b98565b6040516020818303038152906040528051906020012060405160200161055b9190610c3b565b6040516020818303038152906040528051906020012090506105808460035483610719565b6105bf576040517f08c379a00000000000000000000000000000000000000000000000000000000081526004016105b690610cc8565b60405180910390fd5b50505050565b60018081905550565b6105d6610730565b73ffffffffffffffffffffffffffffffffffffffff166105f46103df565b73ffffffffffffffffffffffffffffffffffffffff161461065357610617610730565b6040517f118cdaa700000000000000000000000000000000000000000000000000000000815260040161064a9190610944565b60405180910390fd5b565b60008060009054906101000a900473ffffffffffffffffffffffffffffffffffffffff169050816000806101000a81548173ffffffffffffffffffffffffffffffffffffffff021916908373ffffffffffffffffffffffffffffffffffffffff1602179055508173ffffffffffffffffffffffffffffffffffffffff168173ffffffffffffffffffffffffffffffffffffffff167f8be0079c531659141344cd1fd0a4f28419497f9722a3daafe3b4186f6b6457e060405160405180910390a35050565b6000826107268584610738565b1490509392505050565b600033905090565b60008082905060005b845181101561077d5761076e8286838151811061076157610760610ce8565b5b6020026020010151610788565b91508080600101915050610741565b508091505092915050565b60008183106107a05761079b82846107b3565b6107ab565b6107aa83836107b3565b5b905092915050565b600082600052816020526040600020905092915050565b6000819050919050565b6107dd816107ca565b82525050565b60006020820190506107f860008301846107d4565b92915050565b600080fd5b600080fd5b6000819050919050565b61081b81610808565b811461082657600080fd5b50565b60008135905061083881610812565b92915050565b600080fd5b600080fd5b600080fd5b60008083601f8401126108635761086261083e565b5b8235905067ffffffffffffffff8111156108805761087f610843565b5b60208301915083602082028301111561089c5761089b610848565b5b9250929050565b6000806000604084860312156108bc576108bb6107fe565b5b60006108ca86828701610829565b935050602084013567ffffffffffffffff8111156108eb576108ea610803565b5b6108f78682870161084d565b92509250509250925092565b600073ffffffffffffffffffffffffffffffffffffffff82169050919050565b600061092e82610903565b9050919050565b61093e81610923565b82525050565b60006020820190506109596000830184610935565b92915050565b61096881610923565b811461097357600080fd5b50565b6000813590506109858161095f565b92915050565b6000602082840312156109a1576109a06107fe565b5b60006109af84828501610976565b91505092915050565b60008115159050919050565b6109cd816109b8565b82525050565b60006020820190506109e860008301846109c4565b92915050565b6109f781610808565b82525050565b6000602082019050610a1260008301846109ee565b92915050565b6000819050919050565b6000610a3d610a38610a3384610903565b610a18565b610903565b9050919050565b6000610a4f82610a22565b9050919050565b6000610a6182610a44565b9050919050565b610a7181610a56565b82525050565b6000602082019050610a8c6000830184610a68565b92915050565b600082825260208201905092915050565b7f546872757374706164496e7374616e7441697264726f703a204163636f756e7460008201527f20616c726561647920636c61696d656400000000000000000000000000000000602082015250565b6000610aff603083610a92565b9150610b0a82610aa3565b604082019050919050565b60006020820190508181036000830152610b2e81610af2565b9050919050565b7f4e487b7100000000000000000000000000000000000000000000000000000000600052601160045260246000fd5b6000610b6f82610808565b9150610b7a83610808565b9250828201905080821115610b9257610b91610b35565b5b92915050565b6000604082019050610bad6000830185610935565b610bba60208301846109ee565b9392505050565b610bca816109b8565b8114610bd557600080fd5b50565b600081519050610be781610bc1565b92915050565b600060208284031215610c0357610c026107fe565b5b6000610c1184828501610bd8565b91505092915050565b6000819050919050565b610c35610c30826107ca565b610c1a565b82525050565b6000610c478284610c24565b60208201915081905092915050565b7f546872757374706164496e7374616e7441697264726f703a20496e76616c696460008201527f2070726f6f660000000000000000000000000000000000000000000000000000602082015250565b6000610cb2602683610a92565b9150610cbd82610c56565b604082019050919050565b60006020820190508181036000830152610ce181610ca5565b9050919050565b7f4e487b7100000000000000000000000000000000000000000000000000000000600052603260045260246000fdfea2646970667358221220f75ab1ca019f4007185e8c7eb66992cc81b6856e5e326f881ad592e8ad365aee64736f6c63430008180033a2646970667358221220bfffe2f7046b8add82c1f02a957b79a7e33efd7db1d4b4d465f49f32aab08d3864736f6c63430008180033",
  "linkReferences": {},
  "deployedLinkReferences": {}
}