{
  "_format": "hh-sol-artifact-1",
  "contractName": "ThrustpadInstantAirdropFactory",
  "sourceName": "contracts/airdrop/ThrustpadInstantAirdropFactory.sol",
  "abi": [
    {
      "inputs": [],
      "stateMutability": "nonpayable",
      "type": "constructor"
    },
    {
      "inputs": [
        {
          "internalType": "address",
          "name": "owner",
          "type": "address"
        }
      ],
      "name": "OwnableInvalidOwner",
      "type": "error"
    },
    {
      "inputs": [
        {
          "internalType": "address",
          "name": "account",
          "type": "address"
        }
      ],
      "name": "OwnableUnauthorizedAccount",
      "type": "error"
    },
    {
      "anonymous": false,
      "inputs": [
        {
          "indexed": true,
          "internalType": "address",
          "name": "airdrop",
          "type": "address"
        },
        {
          "indexed": true,
          "internalType": "address",
          "name": "token",
          "type": "address"
        }
      ],
      "name": "AirdropCreated",
      "type": "event"
    },
    {
      "anonymous": false,
      "inputs": [
        {
          "indexed": true,
          "internalType": "address",
          "name": "previousOwner",
          "type": "address"
        },
        {
          "indexed": true,
          "internalType": "address",
          "name": "newOwner",
          "type": "address"
        }
      ],
      "name": "OwnershipTransferred",
      "type": "event"
    },
    {
      "inputs": [],
      "name": "creationFee",
      "outputs": [
        {
          "internalType": "uint256",
          "name": "",
          "type": "uint256"
        }
      ],
      "stateMutability": "view",
      "type": "function"
    },
    {
      "inputs": [
        {
          "internalType": "address",
          "name": "",
          "type": "address"
        },
        {
          "internalType": "uint256",
          "name": "",
          "type": "uint256"
        }
      ],
      "name": "deployedAirdrops",
      "outputs": [
        {
          "internalType": "address",
          "name": "",
          "type": "address"
        }
      ],
      "stateMutability": "view",
      "type": "function"
    },
    {
      "inputs": [],
      "name": "feeEarned",
      "outputs": [
        {
          "internalType": "uint256",
          "name": "",
          "type": "uint256"
        }
      ],
      "stateMutability": "view",
      "type": "function"
    },
    {
      "inputs": [
        {
          "internalType": "bytes",
          "name": "bytecode",
          "type": "bytes"
        },
        {
          "internalType": "uint256",
          "name": "salt",
          "type": "uint256"
        }
      ],
      "name": "getAddressCreate2",
      "outputs": [
        {
          "internalType": "address",
          "name": "",
          "type": "address"
        }
      ],
      "stateMutability": "view",
      "type": "function"
    },
    {
      "inputs": [
        {
          "internalType": "address",
          "name": "_token",
          "type": "address"
        },
        {
          "internalType": "bytes32",
          "name": "_merkleRoot",
          "type": "bytes32"
        }
      ],
      "name": "getBytecode",
      "outputs": [
        {
          "internalType": "bytes",
          "name": "",
          "type": "bytes"
        }
      ],
      "stateMutability": "pure",
      "type": "function"
    },
    {
      "inputs": [
        {
          "internalType": "address",
          "name": "creator",
          "type": "address"
        }
      ],
      "name": "getdeployedAirdrops",
      "outputs": [
        {
          "internalType": "address[]",
          "name": "",
          "type": "address[]"
        }
      ],
      "stateMutability": "view",
      "type": "function"
    },
    {
      "inputs": [
        {
          "internalType": "address",
          "name": "creator",
          "type": "address"
        }
      ],
      "name": "getdeployedAirdropsLen",
      "outputs": [
        {
          "internalType": "uint256",
          "name": "",
          "type": "uint256"
        }
      ],
      "stateMutability": "view",
      "type": "function"
    },
    {
      "inputs": [
        {
          "internalType": "address",
          "name": "_token",
          "type": "address"
        },
        {
          "internalType": "bytes32",
          "name": "_merkleRoot",
          "type": "bytes32"
        },
        {
          "internalType": "uint256",
          "name": "totalAmount",
          "type": "uint256"
        }
      ],
      "name": "newInstantAirdrop",
      "outputs": [
        {
          "internalType": "address",
          "name": "",
          "type": "address"
        }
      ],
      "stateMutability": "payable",
      "type": "function"
    },
    {
      "inputs": [],
      "name": "owner",
      "outputs": [
        {
          "internalType": "address",
          "name": "",
          "type": "address"
        }
      ],
      "stateMutability": "view",
      "type": "function"
    },
    {
      "inputs": [],
      "name": "renounceOwnership",
      "outputs": [],
      "stateMutability": "nonpayable",
      "type": "function"
    },
    {
      "inputs": [
        {
          "internalType": "uint256",
          "name": "_fee",
          "type": "uint256"
        }
      ],
      "name": "setCreationFee",
      "outputs": [],
      "stateMutability": "nonpayable",
      "type": "function"
    },
    {
      "inputs": [
        {
          "internalType": "address",
          "name": "newOwner",
          "type": "address"
        }
      ],
      "name": "transferOwnership",
      "outputs": [],
      "stateMutability": "nonpayable",
      "type": "function"
    },
    {
      "inputs": [],
      "name": "withdraw",
      "outputs": [],
      "stateMutability": "nonpayable",
      "type": "function"
    },
    {
      "inputs": [
        {
          "internalType": "address",
          "name": "token",
          "type": "address"
        }
      ],
      "name": "withdrawToken",
      "outputs": [],
      "stateMutability": "nonpayable",
      "type": "function"
    },
    {
      "stateMutability": "payable",
      "type": "receive"
    }
  ],
  "bytecode": "0x6080604052670de0b6b3a76400006002553480156200001d57600080fd5b5033600073ffffffffffffffffffffffffffffffffffffffff168173ffffffffffffffffffffffffffffffffffffffff1603620000945760006040517f1e4fbdf70000000000000000000000000000000000000000000000000000000081526004016200008b9190620001b5565b60405180910390fd5b620000a581620000ac60201b60201c565b50620001d2565b60008060009054906101000a900473ffffffffffffffffffffffffffffffffffffffff169050816000806101000a81548173ffffffffffffffffffffffffffffffffffffffff021916908373ffffffffffffffffffffffffffffffffffffffff1602179055508173ffffffffffffffffffffffffffffffffffffffff168173ffffffffffffffffffffffffffffffffffffffff167f8be0079c531659141344cd1fd0a4f28419497f9722a3daafe3b4186f6b6457e060405160405180910390a35050565b600073ffffffffffffffffffffffffffffffffffffffff82169050919050565b60006200019d8262000170565b9050919050565b620001af8162000190565b82525050565b6000602082019050620001cc6000830184620001a4565b92915050565b6127d780620001e26000396000f3fe608060405260043610620000f75760003560e01c8063b7d86225116200008b578063dce0b4e41162000061578063dce0b4e414620002f6578063de40d82a1462000326578063f2fde38b146200036a578063fe4aecf4146200039857620000ff565b8063b7d862251462000254578063c3b6fe391462000282578063d5f63a0614620002c657620000ff565b80638947606911620000cd57806389476069146200016e5780638d6c028c146200019c5780638da5cb5b14620001e05780639f886f26146200021057620000ff565b80633ccfd60b146200010457806360e7f092146200011e578063715018a6146200015457620000ff565b36620000ff57005b600080fd5b3480156200011157600080fd5b506200011c620003dc565b005b6200013c600480360381019062000136919062000d89565b62000439565b6040516200014b919062000df6565b60405180910390f35b3480156200016157600080fd5b506200016c620006f8565b005b3480156200017b57600080fd5b506200019a600480360381019062000194919062000e13565b62000710565b005b348015620001a957600080fd5b50620001c86004803603810190620001c2919062000e45565b62000828565b604051620001d7919062000df6565b60405180910390f35b348015620001ed57600080fd5b50620001f862000877565b60405162000207919062000df6565b60405180910390f35b3480156200021d57600080fd5b506200023c600480360381019062000236919062000fee565b620008a0565b6040516200024b919062000df6565b60405180910390f35b3480156200026157600080fd5b506200028060048036038101906200027a919062001054565b620008ec565b005b3480156200028f57600080fd5b50620002ae6004803603810190620002a8919062000e13565b62000900565b604051620002bd919062001097565b60405180910390f35b348015620002d357600080fd5b50620002de6200094c565b604051620002ed919062001097565b60405180910390f35b3480156200030357600080fd5b506200030e62000952565b6040516200031d919062001097565b60405180910390f35b3480156200033357600080fd5b506200035260048036038101906200034c9190620010b4565b62000958565b60405162000361919062001184565b60405180910390f35b3480156200037757600080fd5b5062000396600480360381019062000390919062000e13565b620009d4565b005b348015620003a557600080fd5b50620003c46004803603810190620003be919062000e13565b62000a61565b604051620003d3919062001276565b60405180910390f35b620003e662000b30565b620003f062000877565b73ffffffffffffffffffffffffffffffffffffffff166108fc479081150290604051600060405180830381858888f1935050505015801562000436573d6000803e3d6000fd5b50565b600060025434101562000483576040517f08c379a00000000000000000000000000000000000000000000000000000000081526004016200047a9062001321565b60405180910390fd5b60008211620004c9576040517f08c379a0000000000000000000000000000000000000000000000000000000008152600401620004c090620013b9565b60405180910390fd5b6000600160003373ffffffffffffffffffffffffffffffffffffffff1673ffffffffffffffffffffffffffffffffffffffff1681526020019081526020016000208054905060001b8585604051620005219062000c8c565b6200052e929190620013ec565b8190604051809103906000f59050801580156200054f573d6000803e3d6000fd5b5090508473ffffffffffffffffffffffffffffffffffffffff166323b872dd3383866040518463ffffffff1660e01b8152600401620005919392919062001419565b6020604051808303816000875af1158015620005b1573d6000803e3d6000fd5b505050506040513d601f19601f82011682018060405250810190620005d7919062001493565b508473ffffffffffffffffffffffffffffffffffffffff168173ffffffffffffffffffffffffffffffffffffffff167fe9d3c17fe1abc34320923960d6d4ad8f1cdfef18200f519b215f7e163b0dc85a60405160405180910390a3600160003373ffffffffffffffffffffffffffffffffffffffff1673ffffffffffffffffffffffffffffffffffffffff168152602001908152602001600020819080600181540180825580915050600190039060005260206000200160009091909190916101000a81548173ffffffffffffffffffffffffffffffffffffffff021916908373ffffffffffffffffffffffffffffffffffffffff1602179055503460036000828254620006e69190620014f4565b92505081905550809150509392505050565b6200070262000b30565b6200070e600062000bc0565b565b6200071a62000b30565b8073ffffffffffffffffffffffffffffffffffffffff1663a9059cbb6200074062000877565b8373ffffffffffffffffffffffffffffffffffffffff166370a08231306040518263ffffffff1660e01b81526004016200077b919062000df6565b602060405180830381865afa15801562000799573d6000803e3d6000fd5b505050506040513d601f19601f82011682018060405250810190620007bf919062001546565b6040518363ffffffff1660e01b8152600401620007de92919062001578565b6020604051808303816000875af1158015620007fe573d6000803e3d6000fd5b505050506040513d601f19601f8201168201806040525081019062000824919062001493565b5050565b600160205281600052604060002081815481106200084557600080fd5b906000526020600020016000915091509054906101000a900473ffffffffffffffffffffffffffffffffffffffff1681565b60008060009054906101000a900473ffffffffffffffffffffffffffffffffffffffff16905090565b60008060ff60f81b30848680519060200120604051602001620008c7949392919062001690565b6040516020818303038152906040528051906020012090508060001c91505092915050565b620008f662000b30565b8060028190555050565b6000600160008373ffffffffffffffffffffffffffffffffffffffff1673ffffffffffffffffffffffffffffffffffffffff168152602001908152602001600020805490509050919050565b60035481565b60025481565b60606000604051806020016200096e9062000c8c565b6020820181038252601f19601f8201166040525090508084846040516020016200099a929190620013ec565b604051602081830303815290604052604051602001620009bc92919062001728565b60405160208183030381529060405291505092915050565b620009de62000b30565b600073ffffffffffffffffffffffffffffffffffffffff168173ffffffffffffffffffffffffffffffffffffffff160362000a535760006040517f1e4fbdf700000000000000000000000000000000000000000000000000000000815260040162000a4a919062000df6565b60405180910390fd5b62000a5e8162000bc0565b50565b6060600160008373ffffffffffffffffffffffffffffffffffffffff1673ffffffffffffffffffffffffffffffffffffffff16815260200190815260200160002080548060200260200160405190810160405280929190818152602001828054801562000b2457602002820191906000526020600020905b8160009054906101000a900473ffffffffffffffffffffffffffffffffffffffff1673ffffffffffffffffffffffffffffffffffffffff168152602001906001019080831162000ad9575b50505050509050919050565b62000b3a62000c84565b73ffffffffffffffffffffffffffffffffffffffff1662000b5a62000877565b73ffffffffffffffffffffffffffffffffffffffff161462000bbe5762000b8062000c84565b6040517f118cdaa700000000000000000000000000000000000000000000000000000000815260040162000bb5919062000df6565b60405180910390fd5b565b60008060009054906101000a900473ffffffffffffffffffffffffffffffffffffffff169050816000806101000a81548173ffffffffffffffffffffffffffffffffffffffff021916908373ffffffffffffffffffffffffffffffffffffffff1602179055508173ffffffffffffffffffffffffffffffffffffffff168173ffffffffffffffffffffffffffffffffffffffff167f8be0079c531659141344cd1fd0a4f28419497f9722a3daafe3b4186f6b6457e060405160405180910390a35050565b600033905090565b611051806200175183390190565b6000604051905090565b600080fd5b600080fd5b600073ffffffffffffffffffffffffffffffffffffffff82169050919050565b600062000cdb8262000cae565b9050919050565b62000ced8162000cce565b811462000cf957600080fd5b50565b60008135905062000d0d8162000ce2565b92915050565b6000819050919050565b62000d288162000d13565b811462000d3457600080fd5b50565b60008135905062000d488162000d1d565b92915050565b6000819050919050565b62000d638162000d4e565b811462000d6f57600080fd5b50565b60008135905062000d838162000d58565b92915050565b60008060006060848603121562000da55762000da462000ca4565b5b600062000db58682870162000cfc565b935050602062000dc88682870162000d37565b925050604062000ddb8682870162000d72565b9150509250925092565b62000df08162000cce565b82525050565b600060208201905062000e0d600083018462000de5565b92915050565b60006020828403121562000e2c5762000e2b62000ca4565b5b600062000e3c8482850162000cfc565b91505092915050565b6000806040838503121562000e5f5762000e5e62000ca4565b5b600062000e6f8582860162000cfc565b925050602062000e828582860162000d72565b9150509250929050565b600080fd5b600080fd5b6000601f19601f8301169050919050565b7f4e487b7100000000000000000000000000000000000000000000000000000000600052604160045260246000fd5b62000ee18262000e96565b810181811067ffffffffffffffff8211171562000f035762000f0262000ea7565b5b80604052505050565b600062000f1862000c9a565b905062000f26828262000ed6565b919050565b600067ffffffffffffffff82111562000f495762000f4862000ea7565b5b62000f548262000e96565b9050602081019050919050565b82818337600083830152505050565b600062000f8762000f818462000f2b565b62000f0c565b90508281526020810184848401111562000fa65762000fa562000e91565b5b62000fb384828562000f61565b509392505050565b600082601f83011262000fd35762000fd262000e8c565b5b813562000fe584826020860162000f70565b91505092915050565b6000806040838503121562001008576200100762000ca4565b5b600083013567ffffffffffffffff81111562001029576200102862000ca9565b5b620010378582860162000fbb565b92505060206200104a8582860162000d72565b9150509250929050565b6000602082840312156200106d576200106c62000ca4565b5b60006200107d8482850162000d72565b91505092915050565b620010918162000d4e565b82525050565b6000602082019050620010ae600083018462001086565b92915050565b60008060408385031215620010ce57620010cd62000ca4565b5b6000620010de8582860162000cfc565b9250506020620010f18582860162000d37565b9150509250929050565b600081519050919050565b600082825260208201905092915050565b60005b83811015620011375780820151818401526020810190506200111a565b60008484015250505050565b60006200115082620010fb565b6200115c818562001106565b93506200116e81856020860162001117565b620011798162000e96565b840191505092915050565b60006020820190508181036000830152620011a0818462001143565b905092915050565b600081519050919050565b600082825260208201905092915050565b6000819050602082019050919050565b620011df8162000cce565b82525050565b6000620011f38383620011d4565b60208301905092915050565b6000602082019050919050565b60006200121982620011a8565b620012258185620011b3565b93506200123283620011c4565b8060005b83811015620012695781516200124d8882620011e5565b97506200125a83620011ff565b92505060018101905062001236565b5085935050505092915050565b600060208201905081810360008301526200129281846200120c565b905092915050565b600082825260208201905092915050565b7f546872757374706164496e7374616e7441697264726f70466163746f72793a2060008201527f496e73756666696369656e742066656500000000000000000000000000000000602082015250565b6000620013096030836200129a565b91506200131682620012ab565b604082019050919050565b600060208201905081810360008301526200133c81620012fa565b9050919050565b7f546872757374706164496e7374616e7441697264726f70466163746f72793a2060008201527f496e76616c696420616d6f756e74000000000000000000000000000000000000602082015250565b6000620013a1602e836200129a565b9150620013ae8262001343565b604082019050919050565b60006020820190508181036000830152620013d48162001392565b9050919050565b620013e68162000d13565b82525050565b600060408201905062001403600083018562000de5565b620014126020830184620013db565b9392505050565b600060608201905062001430600083018662000de5565b6200143f602083018562000de5565b6200144e604083018462001086565b949350505050565b60008115159050919050565b6200146d8162001456565b81146200147957600080fd5b50565b6000815190506200148d8162001462565b92915050565b600060208284031215620014ac57620014ab62000ca4565b5b6000620014bc848285016200147c565b91505092915050565b7f4e487b7100000000000000000000000000000000000000000000000000000000600052601160045260246000fd5b6000620015018262000d4e565b91506200150e8362000d4e565b9250828201905080821115620015295762001528620014c5565b5b92915050565b600081519050620015408162000d58565b92915050565b6000602082840312156200155f576200155e62000ca4565b5b60006200156f848285016200152f565b91505092915050565b60006040820190506200158f600083018562000de5565b6200159e602083018462001086565b9392505050565b60007fff0000000000000000000000000000000000000000000000000000000000000082169050919050565b6000819050919050565b620015f0620015ea82620015a5565b620015d1565b82525050565b60008160601b9050919050565b60006200161082620015f6565b9050919050565b6000620016248262001603565b9050919050565b620016406200163a8262000cce565b62001617565b82525050565b6000819050919050565b620016656200165f8262000d4e565b62001646565b82525050565b6000819050919050565b6200168a620016848262000d13565b6200166b565b82525050565b60006200169e8287620015db565b600182019150620016b082866200162b565b601482019150620016c2828562001650565b602082019150620016d4828462001675565b60208201915081905095945050505050565b600081905092915050565b6000620016fe82620010fb565b6200170a8185620016e6565b93506200171c81856020860162001117565b80840191505092915050565b6000620017368285620016f1565b9150620017448284620016f1565b9150819050939250505056fe60806040523480156200001157600080fd5b50604051620010513803806200105183398181016040528101906200003791906200027f565b32600073ffffffffffffffffffffffffffffffffffffffff168173ffffffffffffffffffffffffffffffffffffffff1603620000ad5760006040517f1e4fbdf7000000000000000000000000000000000000000000000000000000008152600401620000a49190620002d7565b60405180910390fd5b620000be816200011660201b60201c565b506001808190555081600260006101000a81548173ffffffffffffffffffffffffffffffffffffffff021916908373ffffffffffffffffffffffffffffffffffffffff160217905550806003819055505050620002f4565b60008060009054906101000a900473ffffffffffffffffffffffffffffffffffffffff169050816000806101000a81548173ffffffffffffffffffffffffffffffffffffffff021916908373ffffffffffffffffffffffffffffffffffffffff1602179055508173ffffffffffffffffffffffffffffffffffffffff168173ffffffffffffffffffffffffffffffffffffffff167f8be0079c531659141344cd1fd0a4f28419497f9722a3daafe3b4186f6b6457e060405160405180910390a35050565b600080fd5b600073ffffffffffffffffffffffffffffffffffffffff82169050919050565b60006200020c82620001df565b9050919050565b6200021e81620001ff565b81146200022a57600080fd5b50565b6000815190506200023e8162000213565b92915050565b6000819050919050565b620002598162000244565b81146200026557600080fd5b50565b60008151905062000279816200024e565b92915050565b60008060408385031215620002995762000298620001da565b5b6000620002a9858286016200022d565b9250506020620002bc8582860162000268565b9150509250929050565b620002d181620001ff565b82525050565b6000602082019050620002ee6000830184620002c6565b92915050565b610d4d80620003046000396000f3fe608060405234801561001057600080fd5b50600436106100885760003560e01c8063c884ef831161005b578063c884ef83146100ef578063d54ad2a11461011f578063f2fde38b1461013d578063fc0c546a1461015957610088565b80632eb4a7ab1461008d5780632f52ebb7146100ab578063715018a6146100c75780638da5cb5b146100d1575b600080fd5b610095610177565b6040516100a291906107e3565b60405180910390f35b6100c560048036038101906100c091906108a3565b61017d565b005b6100cf6103cb565b005b6100d96103df565b6040516100e69190610944565b60405180910390f35b6101096004803603810190610104919061098b565b610408565b60405161011691906109d3565b60405180910390f35b610127610428565b60405161013491906109fd565b60405180910390f35b6101576004803603810190610152919061098b565b61042e565b005b6101616104b4565b60405161016e9190610a77565b60405180910390f35b60035481565b6101856104da565b600460003373ffffffffffffffffffffffffffffffffffffffff1673ffffffffffffffffffffffffffffffffffffffff16815260200190815260200160002060009054906101000a900460ff1615610212576040517f08c379a000000000000000000000000000000000000000000000000000000000815260040161020990610b15565b60405180910390fd5b61025e828280806020026020016040519081016040528093929190818152602001838360200280828437600081840152601f19601f820116905080830192505050505050508433610520565b6001600460003373ffffffffffffffffffffffffffffffffffffffff1673ffffffffffffffffffffffffffffffffffffffff16815260200190815260200160002060006101000a81548160ff02191690831515021790555082600560008282546102c89190610b64565b92505081905550600260009054906101000a900473ffffffffffffffffffffffffffffffffffffffff1673ffffffffffffffffffffffffffffffffffffffff1663a9059cbb33856040518363ffffffff1660e01b815260040161032c929190610b98565b6020604051808303816000875af115801561034b573d6000803e3d6000fd5b505050506040513d601f19601f8201168201806040525081019061036f9190610bed565b503373ffffffffffffffffffffffffffffffffffffffff167fd8138f8a3f377c5259ca548e70e4c2de94f129f5a11036a15b69513cba2b426a846040516103b691906109fd565b60405180910390a26103c66105c5565b505050565b6103d36105ce565b6103dd6000610655565b565b60008060009054906101000a900473ffffffffffffffffffffffffffffffffffffffff16905090565b60046020528060005260406000206000915054906101000a900460ff1681565b60055481565b6104366105ce565b600073ffffffffffffffffffffffffffffffffffffffff168173ffffffffffffffffffffffffffffffffffffffff16036104a85760006040517f1e4fbdf700000000000000000000000000000000000000000000000000000000815260040161049f9190610944565b60405180910390fd5b6104b181610655565b50565b600260009054906101000a900473ffffffffffffffffffffffffffffffffffffffff1681565b600260015403610516576040517f3ee5aeb500000000000000000000000000000000000000000000000000000000815260040160405180910390fd5b6002600181905550565b60008183604051602001610535929190610b98565b6040516020818303038152906040528051906020012060405160200161055b9190610c3b565b6040516020818303038152906040528051906020012090506105808460035483610719565b6105bf576040517f08c379a00000000000000000000000000000000000000000000000000000000081526004016105b690610cc8565b60405180910390fd5b50505050565b60018081905550565b6105d6610730565b73ffffffffffffffffffffffffffffffffffffffff166105f46103df565b73ffffffffffffffffffffffffffffffffffffffff161461065357610617610730565b6040517f118cdaa700000000000000000000000000000000000000000000000000000000815260040161064a9190610944565b60405180910390fd5b565b60008060009054906101000a900473ffffffffffffffffffffffffffffffffffffffff169050816000806101000a81548173ffffffffffffffffffffffffffffffffffffffff021916908373ffffffffffffffffffffffffffffffffffffffff1602179055508173ffffffffffffffffffffffffffffffffffffffff168173ffffffffffffffffffffffffffffffffffffffff167f8be0079c531659141344cd1fd0a4f28419497f9722a3daafe3b4186f6b6457e060405160405180910390a35050565b6000826107268584610738565b1490509392505050565b600033905090565b60008082905060005b845181101561077d5761076e8286838151811061076157610760610ce8565b5b6020026020010151610788565b91508080600101915050610741565b508091505092915050565b60008183106107a05761079b82846107b3565b6107ab565b6107aa83836107b3565b5b905092915050565b600082600052816020526040600020905092915050565b6000819050919050565b6107dd816107ca565b82525050565b60006020820190506107f860008301846107d4565b92915050565b600080fd5b600080fd5b6000819050919050565b61081b81610808565b811461082657600080fd5b50565b60008135905061083881610812565b92915050565b600080fd5b600080fd5b600080fd5b60008083601f8401126108635761086261083e565b5b8235905067ffffffffffffffff8111156108805761087f610843565b5b60208301915083602082028301111561089c5761089b610848565b5b9250929050565b6000806000604084860312156108bc576108bb6107fe565b5b60006108ca86828701610829565b935050602084013567ffffffffffffffff8111156108eb576108ea610803565b5b6108f78682870161084d565b92509250509250925092565b600073ffffffffffffffffffffffffffffffffffffffff82169050919050565b600061092e82610903565b9050919050565b61093e81610923565b82525050565b60006020820190506109596000830184610935565b92915050565b61096881610923565b811461097357600080fd5b50565b6000813590506109858161095f565b92915050565b6000602082840312156109a1576109a06107fe565b5b60006109af84828501610976565b91505092915050565b60008115159050919050565b6109cd816109b8565b82525050565b60006020820190506109e860008301846109c4565b92915050565b6109f781610808565b82525050565b6000602082019050610a1260008301846109ee565b92915050565b6000819050919050565b6000610a3d610a38610a3384610903565b610a18565b610903565b9050919050565b6000610a4f82610a22565b9050919050565b6000610a6182610a44565b9050919050565b610a7181610a56565b82525050565b6000602082019050610a8c6000830184610a68565b92915050565b600082825260208201905092915050565b7f546872757374706164496e7374616e7441697264726f703a204163636f756e7460008201527f20616c726561647920636c61696d656400000000000000000000000000000000602082015250565b6000610aff603083610a92565b9150610b0a82610aa3565b604082019050919050565b60006020820190508181036000830152610b2e81610af2565b9050919050565b7f4e487b7100000000000000000000000000000000000000000000000000000000600052601160045260246000fd5b6000610b6f82610808565b9150610b7a83610808565b9250828201905080821115610b9257610b91610b35565b5b92915050565b6000604082019050610bad6000830185610935565b610bba60208301846109ee565b9392505050565b610bca816109b8565b8114610bd557600080fd5b50565b600081519050610be781610bc1565b92915050565b600060208284031215610c0357610c026107fe565b5b6000610c1184828501610bd8565b91505092915050565b6000819050919050565b610c35610c30826107ca565b610c1a565b82525050565b6000610c478284610c24565b60208201915081905092915050565b7f546872757374706164496e7374616e7441697264726f703a20496e76616c696460008201527f2070726f6f660000000000000000000000000000000000000000000000000000602082015250565b6000610cb2602683610a92565b9150610cbd82610c56565b604082019050919050565b60006020820190508181036000830152610ce181610ca5565b9050919050565b7f4e487b7100000000000000000000000000000000000000000000000000000000600052603260045260246000fdfea2646970667358221220f75ab1ca019f4007185e8c7eb66992cc81b6856e5e326f881ad592e8ad365aee64736f6c63430008180033a2646970667358221220502a6b7cb5a528367c6ec63295edb901755a656f3dd538463e66d9871ddf129964736f6c63430008180033",
  "linkReferences": {},
  "deployedLinkReferences": {}
}