{
  "_format": "hh-sol-artifact-1",
  "contractName": "ThrustpadInstantAirdropFactory",
  "sourceName": "contracts/airdrop/ThrustpadInstantAirdropFactory.sol",
  "abi": [
    {
      "inputs": [],
      "stateMutability": "nonpayable",
      "type": "constructor"
    },
    {
      "inputs": [
        {
          "internalType": "address",
          "name": "owner",
          "type": "address"
        }
      ],
      "name": "OwnableInvalidOwner",
      "type": "error"
    },
    {
      "inputs": [
        {
          "internalType": "address",
          "name": "account",
          "type": "address"
        }
      ],
      "name": "OwnableUnauthorizedAccount",
      "type": "error"
    },
    {
      "anonymous": false,
      "inputs": [
        {
          "indexed": true,
          "internalType": "address",
          "name": "airdrop",
          "type": "address"
        },
        {
          "indexed": true,
          "internalType": "address",
          "name": "token",
          "type": "address"
        }
      ],
      "name": "AirdropCreated",
      "type": "event"
    },
    {
      "anonymous": false,
      "inputs": [
        {
          "indexed": true,
          "internalType": "address",
          "name": "previousOwner",
          "type": "address"
        },
        {
          "indexed": true,
          "internalType": "address",
          "name": "newOwner",
          "type": "address"
        }
      ],
      "name": "OwnershipTransferred",
      "type": "event"
    },
    {
      "inputs": [],
      "name": "creationFee",
      "outputs": [
        {
          "internalType": "uint256",
          "name": "",
          "type": "uint256"
        }
      ],
      "stateMutability": "view",
      "type": "function"
    },
    {
      "inputs": [
        {
          "internalType": "address",
          "name": "",
          "type": "address"
        },
        {
          "internalType": "uint256",
          "name": "",
          "type": "uint256"
        }
      ],
      "name": "deployedAirdrops",
      "outputs": [
        {
          "internalType": "address",
          "name": "",
          "type": "address"
        }
      ],
      "stateMutability": "view",
      "type": "function"
    },
    {
      "inputs": [],
      "name": "feeEarned",
      "outputs": [
        {
          "internalType": "uint256",
          "name": "",
          "type": "uint256"
        }
      ],
      "stateMutability": "view",
      "type": "function"
    },
    {
      "inputs": [
        {
          "internalType": "bytes",
          "name": "bytecode",
          "type": "bytes"
        },
        {
          "internalType": "uint256",
          "name": "salt",
          "type": "uint256"
        }
      ],
      "name": "getAddressCreate2",
      "outputs": [
        {
          "internalType": "address",
          "name": "",
          "type": "address"
        }
      ],
      "stateMutability": "view",
      "type": "function"
    },
    {
      "inputs": [
        {
          "internalType": "address",
          "name": "_token",
          "type": "address"
        },
        {
          "internalType": "bytes32",
          "name": "_merkleRoot",
          "type": "bytes32"
        },
        {
          "internalType": "address",
          "name": "_owner",
          "type": "address"
        }
      ],
      "name": "getBytecode",
      "outputs": [
        {
          "internalType": "bytes",
          "name": "",
          "type": "bytes"
        }
      ],
      "stateMutability": "pure",
      "type": "function"
    },
    {
      "inputs": [
        {
          "internalType": "address",
          "name": "creator",
          "type": "address"
        }
      ],
      "name": "getdeployedAirdrops",
      "outputs": [
        {
          "internalType": "address[]",
          "name": "",
          "type": "address[]"
        }
      ],
      "stateMutability": "view",
      "type": "function"
    },
    {
      "inputs": [
        {
          "internalType": "address",
          "name": "creator",
          "type": "address"
        }
      ],
      "name": "getdeployedAirdropsLen",
      "outputs": [
        {
          "internalType": "uint256",
          "name": "",
          "type": "uint256"
        }
      ],
      "stateMutability": "view",
      "type": "function"
    },
    {
      "inputs": [
        {
          "internalType": "address",
          "name": "_token",
          "type": "address"
        },
        {
          "internalType": "bytes32",
          "name": "_merkleRoot",
          "type": "bytes32"
        },
        {
          "internalType": "uint256",
          "name": "totalAmount",
          "type": "uint256"
        }
      ],
      "name": "newInstantAirdrop",
      "outputs": [
        {
          "internalType": "address",
          "name": "",
          "type": "address"
        }
      ],
      "stateMutability": "payable",
      "type": "function"
    },
    {
      "inputs": [],
      "name": "owner",
      "outputs": [
        {
          "internalType": "address",
          "name": "",
          "type": "address"
        }
      ],
      "stateMutability": "view",
      "type": "function"
    },
    {
      "inputs": [],
      "name": "renounceOwnership",
      "outputs": [],
      "stateMutability": "nonpayable",
      "type": "function"
    },
    {
      "inputs": [
        {
          "internalType": "uint256",
          "name": "_fee",
          "type": "uint256"
        }
      ],
      "name": "setCreationFee",
      "outputs": [],
      "stateMutability": "nonpayable",
      "type": "function"
    },
    {
      "inputs": [
        {
          "internalType": "address",
          "name": "newOwner",
          "type": "address"
        }
      ],
      "name": "transferOwnership",
      "outputs": [],
      "stateMutability": "nonpayable",
      "type": "function"
    },
    {
      "inputs": [],
      "name": "withdraw",
      "outputs": [],
      "stateMutability": "nonpayable",
      "type": "function"
    },
    {
      "inputs": [
        {
          "internalType": "address",
          "name": "token",
          "type": "address"
        }
      ],
      "name": "withdrawToken",
      "outputs": [],
      "stateMutability": "nonpayable",
      "type": "function"
    },
    {
      "stateMutability": "payable",
      "type": "receive"
    }
  ],
  "bytecode": "0x6080604052670de0b6b3a76400006002553480156200001d57600080fd5b5033600073ffffffffffffffffffffffffffffffffffffffff168173ffffffffffffffffffffffffffffffffffffffff1603620000945760006040517f1e4fbdf70000000000000000000000000000000000000000000000000000000081526004016200008b9190620001b5565b60405180910390fd5b620000a581620000ac60201b60201c565b50620001d2565b60008060009054906101000a900473ffffffffffffffffffffffffffffffffffffffff169050816000806101000a81548173ffffffffffffffffffffffffffffffffffffffff021916908373ffffffffffffffffffffffffffffffffffffffff1602179055508173ffffffffffffffffffffffffffffffffffffffff168173ffffffffffffffffffffffffffffffffffffffff167f8be0079c531659141344cd1fd0a4f28419497f9722a3daafe3b4186f6b6457e060405160405180910390a35050565b600073ffffffffffffffffffffffffffffffffffffffff82169050919050565b60006200019d8262000170565b9050919050565b620001af8162000190565b82525050565b6000602082019050620001cc6000830184620001a4565b92915050565b61281780620001e26000396000f3fe608060405260043610620000f75760003560e01c8063b7d86225116200008b578063d5f63a061162000061578063d5f63a06146200030a578063dce0b4e4146200033a578063f2fde38b146200036a578063fe4aecf4146200039857620000ff565b8063b7d862251462000254578063bfe12c001462000282578063c3b6fe3914620002c657620000ff565b80638947606911620000cd57806389476069146200016e5780638d6c028c146200019c5780638da5cb5b14620001e05780639f886f26146200021057620000ff565b80633ccfd60b146200010457806360e7f092146200011e578063715018a6146200015457620000ff565b36620000ff57005b600080fd5b3480156200011157600080fd5b506200011c620003dc565b005b6200013c600480360381019062000136919062000d8e565b62000439565b6040516200014b919062000dfb565b60405180910390f35b3480156200016157600080fd5b506200016c620006fa565b005b3480156200017b57600080fd5b506200019a600480360381019062000194919062000e18565b62000712565b005b348015620001a957600080fd5b50620001c86004803603810190620001c2919062000e4a565b6200082a565b604051620001d7919062000dfb565b60405180910390f35b348015620001ed57600080fd5b50620001f862000879565b60405162000207919062000dfb565b60405180910390f35b3480156200021d57600080fd5b506200023c600480360381019062000236919062000ff3565b620008a2565b6040516200024b919062000dfb565b60405180910390f35b3480156200026157600080fd5b506200028060048036038101906200027a919062001059565b620008ee565b005b3480156200028f57600080fd5b50620002ae6004803603810190620002a891906200108b565b62000902565b604051620002bd919062001170565b60405180910390f35b348015620002d357600080fd5b50620002f26004803603810190620002ec919062000e18565b62000981565b604051620003019190620011a5565b60405180910390f35b3480156200031757600080fd5b5062000322620009cd565b604051620003319190620011a5565b60405180910390f35b3480156200034757600080fd5b5062000352620009d3565b604051620003619190620011a5565b60405180910390f35b3480156200037757600080fd5b5062000396600480360381019062000390919062000e18565b620009d9565b005b348015620003a557600080fd5b50620003c46004803603810190620003be919062000e18565b62000a66565b604051620003d3919062001290565b60405180910390f35b620003e662000b35565b620003f062000879565b73ffffffffffffffffffffffffffffffffffffffff166108fc479081150290604051600060405180830381858888f1935050505015801562000436573d6000803e3d6000fd5b50565b600060025434101562000483576040517f08c379a00000000000000000000000000000000000000000000000000000000081526004016200047a906200133b565b60405180910390fd5b60008211620004c9576040517f08c379a0000000000000000000000000000000000000000000000000000000008152600401620004c090620013d3565b60405180910390fd5b6000600160003373ffffffffffffffffffffffffffffffffffffffff1673ffffffffffffffffffffffffffffffffffffffff1681526020019081526020016000208054905060001b858533604051620005229062000c91565b620005309392919062001406565b8190604051809103906000f590508015801562000551573d6000803e3d6000fd5b5090508473ffffffffffffffffffffffffffffffffffffffff166323b872dd3383866040518463ffffffff1660e01b8152600401620005939392919062001443565b6020604051808303816000875af1158015620005b3573d6000803e3d6000fd5b505050506040513d601f19601f82011682018060405250810190620005d99190620014bd565b508473ffffffffffffffffffffffffffffffffffffffff168173ffffffffffffffffffffffffffffffffffffffff167fe9d3c17fe1abc34320923960d6d4ad8f1cdfef18200f519b215f7e163b0dc85a60405160405180910390a3600160003373ffffffffffffffffffffffffffffffffffffffff1673ffffffffffffffffffffffffffffffffffffffff168152602001908152602001600020819080600181540180825580915050600190039060005260206000200160009091909190916101000a81548173ffffffffffffffffffffffffffffffffffffffff021916908373ffffffffffffffffffffffffffffffffffffffff1602179055503460036000828254620006e891906200151e565b92505081905550809150509392505050565b6200070462000b35565b62000710600062000bc5565b565b6200071c62000b35565b8073ffffffffffffffffffffffffffffffffffffffff1663a9059cbb6200074262000879565b8373ffffffffffffffffffffffffffffffffffffffff166370a08231306040518263ffffffff1660e01b81526004016200077d919062000dfb565b602060405180830381865afa1580156200079b573d6000803e3d6000fd5b505050506040513d601f19601f82011682018060405250810190620007c1919062001570565b6040518363ffffffff1660e01b8152600401620007e0929190620015a2565b6020604051808303816000875af115801562000800573d6000803e3d6000fd5b505050506040513d601f19601f82011682018060405250810190620008269190620014bd565b5050565b600160205281600052604060002081815481106200084757600080fd5b906000526020600020016000915091509054906101000a900473ffffffffffffffffffffffffffffffffffffffff1681565b60008060009054906101000a900473ffffffffffffffffffffffffffffffffffffffff16905090565b60008060ff60f81b30848680519060200120604051602001620008c99493929190620016ba565b6040516020818303038152906040528051906020012090508060001c91505092915050565b620008f862000b35565b8060028190555050565b6060600060405180602001620009189062000c91565b6020820181038252601f19601f82011660405250905080858585604051602001620009469392919062001406565b6040516020818303038152906040526040516020016200096892919062001752565b6040516020818303038152906040529150509392505050565b6000600160008373ffffffffffffffffffffffffffffffffffffffff1673ffffffffffffffffffffffffffffffffffffffff168152602001908152602001600020805490509050919050565b60035481565b60025481565b620009e362000b35565b600073ffffffffffffffffffffffffffffffffffffffff168173ffffffffffffffffffffffffffffffffffffffff160362000a585760006040517f1e4fbdf700000000000000000000000000000000000000000000000000000000815260040162000a4f919062000dfb565b60405180910390fd5b62000a638162000bc5565b50565b6060600160008373ffffffffffffffffffffffffffffffffffffffff1673ffffffffffffffffffffffffffffffffffffffff16815260200190815260200160002080548060200260200160405190810160405280929190818152602001828054801562000b2957602002820191906000526020600020905b8160009054906101000a900473ffffffffffffffffffffffffffffffffffffffff1673ffffffffffffffffffffffffffffffffffffffff168152602001906001019080831162000ade575b50505050509050919050565b62000b3f62000c89565b73ffffffffffffffffffffffffffffffffffffffff1662000b5f62000879565b73ffffffffffffffffffffffffffffffffffffffff161462000bc35762000b8562000c89565b6040517f118cdaa700000000000000000000000000000000000000000000000000000000815260040162000bba919062000dfb565b60405180910390fd5b565b60008060009054906101000a900473ffffffffffffffffffffffffffffffffffffffff169050816000806101000a81548173ffffffffffffffffffffffffffffffffffffffff021916908373ffffffffffffffffffffffffffffffffffffffff1602179055508173ffffffffffffffffffffffffffffffffffffffff168173ffffffffffffffffffffffffffffffffffffffff167f8be0079c531659141344cd1fd0a4f28419497f9722a3daafe3b4186f6b6457e060405160405180910390a35050565b600033905090565b611067806200177b83390190565b6000604051905090565b600080fd5b600080fd5b600073ffffffffffffffffffffffffffffffffffffffff82169050919050565b600062000ce08262000cb3565b9050919050565b62000cf28162000cd3565b811462000cfe57600080fd5b50565b60008135905062000d128162000ce7565b92915050565b6000819050919050565b62000d2d8162000d18565b811462000d3957600080fd5b50565b60008135905062000d4d8162000d22565b92915050565b6000819050919050565b62000d688162000d53565b811462000d7457600080fd5b50565b60008135905062000d888162000d5d565b92915050565b60008060006060848603121562000daa5762000da962000ca9565b5b600062000dba8682870162000d01565b935050602062000dcd8682870162000d3c565b925050604062000de08682870162000d77565b9150509250925092565b62000df58162000cd3565b82525050565b600060208201905062000e12600083018462000dea565b92915050565b60006020828403121562000e315762000e3062000ca9565b5b600062000e418482850162000d01565b91505092915050565b6000806040838503121562000e645762000e6362000ca9565b5b600062000e748582860162000d01565b925050602062000e878582860162000d77565b9150509250929050565b600080fd5b600080fd5b6000601f19601f8301169050919050565b7f4e487b7100000000000000000000000000000000000000000000000000000000600052604160045260246000fd5b62000ee68262000e9b565b810181811067ffffffffffffffff8211171562000f085762000f0762000eac565b5b80604052505050565b600062000f1d62000c9f565b905062000f2b828262000edb565b919050565b600067ffffffffffffffff82111562000f4e5762000f4d62000eac565b5b62000f598262000e9b565b9050602081019050919050565b82818337600083830152505050565b600062000f8c62000f868462000f30565b62000f11565b90508281526020810184848401111562000fab5762000faa62000e96565b5b62000fb884828562000f66565b509392505050565b600082601f83011262000fd85762000fd762000e91565b5b813562000fea84826020860162000f75565b91505092915050565b600080604083850312156200100d576200100c62000ca9565b5b600083013567ffffffffffffffff8111156200102e576200102d62000cae565b5b6200103c8582860162000fc0565b92505060206200104f8582860162000d77565b9150509250929050565b60006020828403121562001072576200107162000ca9565b5b6000620010828482850162000d77565b91505092915050565b600080600060608486031215620010a757620010a662000ca9565b5b6000620010b78682870162000d01565b9350506020620010ca8682870162000d3c565b9250506040620010dd8682870162000d01565b9150509250925092565b600081519050919050565b600082825260208201905092915050565b60005b838110156200112357808201518184015260208101905062001106565b60008484015250505050565b60006200113c82620010e7565b620011488185620010f2565b93506200115a81856020860162001103565b620011658162000e9b565b840191505092915050565b600060208201905081810360008301526200118c81846200112f565b905092915050565b6200119f8162000d53565b82525050565b6000602082019050620011bc600083018462001194565b92915050565b600081519050919050565b600082825260208201905092915050565b6000819050602082019050919050565b620011f98162000cd3565b82525050565b60006200120d8383620011ee565b60208301905092915050565b6000602082019050919050565b60006200123382620011c2565b6200123f8185620011cd565b93506200124c83620011de565b8060005b8381101562001283578151620012678882620011ff565b9750620012748362001219565b92505060018101905062001250565b5085935050505092915050565b60006020820190508181036000830152620012ac818462001226565b905092915050565b600082825260208201905092915050565b7f546872757374706164496e7374616e7441697264726f70466163746f72793a2060008201527f496e73756666696369656e742066656500000000000000000000000000000000602082015250565b600062001323603083620012b4565b91506200133082620012c5565b604082019050919050565b60006020820190508181036000830152620013568162001314565b9050919050565b7f546872757374706164496e7374616e7441697264726f70466163746f72793a2060008201527f496e76616c696420616d6f756e74000000000000000000000000000000000000602082015250565b6000620013bb602e83620012b4565b9150620013c8826200135d565b604082019050919050565b60006020820190508181036000830152620013ee81620013ac565b9050919050565b620014008162000d18565b82525050565b60006060820190506200141d600083018662000dea565b6200142c6020830185620013f5565b6200143b604083018462000dea565b949350505050565b60006060820190506200145a600083018662000dea565b62001469602083018562000dea565b62001478604083018462001194565b949350505050565b60008115159050919050565b620014978162001480565b8114620014a357600080fd5b50565b600081519050620014b7816200148c565b92915050565b600060208284031215620014d657620014d562000ca9565b5b6000620014e684828501620014a6565b91505092915050565b7f4e487b7100000000000000000000000000000000000000000000000000000000600052601160045260246000fd5b60006200152b8262000d53565b9150620015388362000d53565b9250828201905080821115620015535762001552620014ef565b5b92915050565b6000815190506200156a8162000d5d565b92915050565b60006020828403121562001589576200158862000ca9565b5b6000620015998482850162001559565b91505092915050565b6000604082019050620015b9600083018562000dea565b620015c8602083018462001194565b9392505050565b60007fff0000000000000000000000000000000000000000000000000000000000000082169050919050565b6000819050919050565b6200161a6200161482620015cf565b620015fb565b82525050565b60008160601b9050919050565b60006200163a8262001620565b9050919050565b60006200164e826200162d565b9050919050565b6200166a620016648262000cd3565b62001641565b82525050565b6000819050919050565b6200168f620016898262000d53565b62001670565b82525050565b6000819050919050565b620016b4620016ae8262000d18565b62001695565b82525050565b6000620016c8828762001605565b600182019150620016da828662001655565b601482019150620016ec82856200167a565b602082019150620016fe82846200169f565b60208201915081905095945050505050565b600081905092915050565b60006200172882620010e7565b62001734818562001710565b93506200174681856020860162001103565b80840191505092915050565b60006200176082856200171b565b91506200176e82846200171b565b9150819050939250505056fe60806040523480156200001157600080fd5b506040516200106738038062001067833981810160405281019062000037919062000280565b80600073ffffffffffffffffffffffffffffffffffffffff168173ffffffffffffffffffffffffffffffffffffffff1603620000ad5760006040517f1e4fbdf7000000000000000000000000000000000000000000000000000000008152600401620000a49190620002ed565b60405180910390fd5b620000be816200011760201b60201c565b506001808190555082600260006101000a81548173ffffffffffffffffffffffffffffffffffffffff021916908373ffffffffffffffffffffffffffffffffffffffff160217905550816003819055505050506200030a565b60008060009054906101000a900473ffffffffffffffffffffffffffffffffffffffff169050816000806101000a81548173ffffffffffffffffffffffffffffffffffffffff021916908373ffffffffffffffffffffffffffffffffffffffff1602179055508173ffffffffffffffffffffffffffffffffffffffff168173ffffffffffffffffffffffffffffffffffffffff167f8be0079c531659141344cd1fd0a4f28419497f9722a3daafe3b4186f6b6457e060405160405180910390a35050565b600080fd5b600073ffffffffffffffffffffffffffffffffffffffff82169050919050565b60006200020d82620001e0565b9050919050565b6200021f8162000200565b81146200022b57600080fd5b50565b6000815190506200023f8162000214565b92915050565b6000819050919050565b6200025a8162000245565b81146200026657600080fd5b50565b6000815190506200027a816200024f565b92915050565b6000806000606084860312156200029c576200029b620001db565b5b6000620002ac868287016200022e565b9350506020620002bf8682870162000269565b9250506040620002d2868287016200022e565b9150509250925092565b620002e78162000200565b82525050565b6000602082019050620003046000830184620002dc565b92915050565b610d4d806200031a6000396000f3fe608060405234801561001057600080fd5b50600436106100885760003560e01c8063c884ef831161005b578063c884ef83146100ef578063d54ad2a11461011f578063f2fde38b1461013d578063fc0c546a1461015957610088565b80632eb4a7ab1461008d5780632f52ebb7146100ab578063715018a6146100c75780638da5cb5b146100d1575b600080fd5b610095610177565b6040516100a291906107e3565b60405180910390f35b6100c560048036038101906100c091906108a3565b61017d565b005b6100cf6103cb565b005b6100d96103df565b6040516100e69190610944565b60405180910390f35b6101096004803603810190610104919061098b565b610408565b60405161011691906109d3565b60405180910390f35b610127610428565b60405161013491906109fd565b60405180910390f35b6101576004803603810190610152919061098b565b61042e565b005b6101616104b4565b60405161016e9190610a77565b60405180910390f35b60035481565b6101856104da565b600460003373ffffffffffffffffffffffffffffffffffffffff1673ffffffffffffffffffffffffffffffffffffffff16815260200190815260200160002060009054906101000a900460ff1615610212576040517f08c379a000000000000000000000000000000000000000000000000000000000815260040161020990610b15565b60405180910390fd5b61025e828280806020026020016040519081016040528093929190818152602001838360200280828437600081840152601f19601f820116905080830192505050505050508433610520565b6001600460003373ffffffffffffffffffffffffffffffffffffffff1673ffffffffffffffffffffffffffffffffffffffff16815260200190815260200160002060006101000a81548160ff02191690831515021790555082600560008282546102c89190610b64565b92505081905550600260009054906101000a900473ffffffffffffffffffffffffffffffffffffffff1673ffffffffffffffffffffffffffffffffffffffff1663a9059cbb33856040518363ffffffff1660e01b815260040161032c929190610b98565b6020604051808303816000875af115801561034b573d6000803e3d6000fd5b505050506040513d601f19601f8201168201806040525081019061036f9190610bed565b503373ffffffffffffffffffffffffffffffffffffffff167fd8138f8a3f377c5259ca548e70e4c2de94f129f5a11036a15b69513cba2b426a846040516103b691906109fd565b60405180910390a26103c66105c5565b505050565b6103d36105ce565b6103dd6000610655565b565b60008060009054906101000a900473ffffffffffffffffffffffffffffffffffffffff16905090565b60046020528060005260406000206000915054906101000a900460ff1681565b60055481565b6104366105ce565b600073ffffffffffffffffffffffffffffffffffffffff168173ffffffffffffffffffffffffffffffffffffffff16036104a85760006040517f1e4fbdf700000000000000000000000000000000000000000000000000000000815260040161049f9190610944565b60405180910390fd5b6104b181610655565b50565b600260009054906101000a900473ffffffffffffffffffffffffffffffffffffffff1681565b600260015403610516576040517f3ee5aeb500000000000000000000000000000000000000000000000000000000815260040160405180910390fd5b6002600181905550565b60008183604051602001610535929190610b98565b6040516020818303038152906040528051906020012060405160200161055b9190610c3b565b6040516020818303038152906040528051906020012090506105808460035483610719565b6105bf576040517f08c379a00000000000000000000000000000000000000000000000000000000081526004016105b690610cc8565b60405180910390fd5b50505050565b60018081905550565b6105d6610730565b73ffffffffffffffffffffffffffffffffffffffff166105f46103df565b73ffffffffffffffffffffffffffffffffffffffff161461065357610617610730565b6040517f118cdaa700000000000000000000000000000000000000000000000000000000815260040161064a9190610944565b60405180910390fd5b565b60008060009054906101000a900473ffffffffffffffffffffffffffffffffffffffff169050816000806101000a81548173ffffffffffffffffffffffffffffffffffffffff021916908373ffffffffffffffffffffffffffffffffffffffff1602179055508173ffffffffffffffffffffffffffffffffffffffff168173ffffffffffffffffffffffffffffffffffffffff167f8be0079c531659141344cd1fd0a4f28419497f9722a3daafe3b4186f6b6457e060405160405180910390a35050565b6000826107268584610738565b1490509392505050565b600033905090565b60008082905060005b845181101561077d5761076e8286838151811061076157610760610ce8565b5b6020026020010151610788565b91508080600101915050610741565b508091505092915050565b60008183106107a05761079b82846107b3565b6107ab565b6107aa83836107b3565b5b905092915050565b600082600052816020526040600020905092915050565b6000819050919050565b6107dd816107ca565b82525050565b60006020820190506107f860008301846107d4565b92915050565b600080fd5b600080fd5b6000819050919050565b61081b81610808565b811461082657600080fd5b50565b60008135905061083881610812565b92915050565b600080fd5b600080fd5b600080fd5b60008083601f8401126108635761086261083e565b5b8235905067ffffffffffffffff8111156108805761087f610843565b5b60208301915083602082028301111561089c5761089b610848565b5b9250929050565b6000806000604084860312156108bc576108bb6107fe565b5b60006108ca86828701610829565b935050602084013567ffffffffffffffff8111156108eb576108ea610803565b5b6108f78682870161084d565b92509250509250925092565b600073ffffffffffffffffffffffffffffffffffffffff82169050919050565b600061092e82610903565b9050919050565b61093e81610923565b82525050565b60006020820190506109596000830184610935565b92915050565b61096881610923565b811461097357600080fd5b50565b6000813590506109858161095f565b92915050565b6000602082840312156109a1576109a06107fe565b5b60006109af84828501610976565b91505092915050565b60008115159050919050565b6109cd816109b8565b82525050565b60006020820190506109e860008301846109c4565b92915050565b6109f781610808565b82525050565b6000602082019050610a1260008301846109ee565b92915050565b6000819050919050565b6000610a3d610a38610a3384610903565b610a18565b610903565b9050919050565b6000610a4f82610a22565b9050919050565b6000610a6182610a44565b9050919050565b610a7181610a56565b82525050565b6000602082019050610a8c6000830184610a68565b92915050565b600082825260208201905092915050565b7f546872757374706164496e7374616e7441697264726f703a204163636f756e7460008201527f20616c726561647920636c61696d656400000000000000000000000000000000602082015250565b6000610aff603083610a92565b9150610b0a82610aa3565b604082019050919050565b60006020820190508181036000830152610b2e81610af2565b9050919050565b7f4e487b7100000000000000000000000000000000000000000000000000000000600052601160045260246000fd5b6000610b6f82610808565b9150610b7a83610808565b9250828201905080821115610b9257610b91610b35565b5b92915050565b6000604082019050610bad6000830185610935565b610bba60208301846109ee565b9392505050565b610bca816109b8565b8114610bd557600080fd5b50565b600081519050610be781610bc1565b92915050565b600060208284031215610c0357610c026107fe565b5b6000610c1184828501610bd8565b91505092915050565b6000819050919050565b610c35610c30826107ca565b610c1a565b82525050565b6000610c478284610c24565b60208201915081905092915050565b7f546872757374706164496e7374616e7441697264726f703a20496e76616c696460008201527f2070726f6f660000000000000000000000000000000000000000000000000000602082015250565b6000610cb2602683610a92565b9150610cbd82610c56565b604082019050919050565b60006020820190508181036000830152610ce181610ca5565b9050919050565b7f4e487b7100000000000000000000000000000000000000000000000000000000600052603260045260246000fdfea2646970667358221220f3e45aa4aa8610bc56a95152a0305f939cc41d7ea85d312b78beb13d2218ca4b64736f6c63430008180033a26469706673582212209c3f40f252b1cfe4d7a2eb88a8b7a5b4376bbec340342448a4800951ea54879c64736f6c63430008180033",
  "linkReferences": {},
  "deployedLinkReferences": {}
}