{"contracts/fair-launch/ThrustpadFairLaunchFactory.sol":{"ThrustpadFairLaunchFactory":{"abi":[{"inputs":[],"stateMutability":"nonpayable","type":"constructor"},{"inputs":[{"internalType":"address","name":"owner","type":"address"}],"name":"OwnableInvalidOwner","type":"error"},{"inputs":[{"internalType":"address","name":"account","type":"address"}],"name":"OwnableUnauthorizedAccount","type":"error"},{"anonymous":false,"inputs":[{"indexed":true,"internalType":"address","name":"creator","type":"address"},{"indexed":true,"internalType":"address","name":"launch","type":"address"}],"name":"NewFairLaunch","type":"event"},{"anonymous":false,"inputs":[{"indexed":true,"internalType":"address","name":"previousOwner","type":"address"},{"indexed":true,"internalType":"address","name":"newOwner","type":"address"}],"name":"OwnershipTransferred","type":"event"},{"inputs":[{"internalType":"uint256","name":"_amountForSale","type":"uint256"},{"internalType":"uint256","name":"_hardCap","type":"uint256"},{"internalType":"uint8","name":"_decimals","type":"uint8"}],"name":"calculateTokenSaleRate","outputs":[{"internalType":"uint256","name":"","type":"uint256"}],"stateMutability":"pure","type":"function"},{"inputs":[{"internalType":"uint256","name":"hardCap","type":"uint256"},{"internalType":"uint256","name":"saleAmount","type":"uint256"},{"internalType":"uint256","name":"percentageForLiquidity","type":"uint256"},{"internalType":"uint256","name":"listingRate","type":"uint256"},{"internalType":"uint256","name":"tokenDecimals","type":"uint256"}],"name":"calculateTotalTokensNeeded","outputs":[{"internalType":"uint256","name":"","type":"uint256"}],"stateMutability":"pure","type":"function"},{"inputs":[{"internalType":"uint256","name":"","type":"uint256"}],"name":"creationFees","outputs":[{"internalType":"uint256","name":"","type":"uint256"}],"stateMutability":"view","type":"function"},{"inputs":[{"internalType":"address","name":"","type":"address"},{"internalType":"uint256","name":"","type":"uint256"}],"name":"deployedLaunches","outputs":[{"internalType":"address","name":"","type":"address"}],"stateMutability":"view","type":"function"},{"inputs":[],"name":"feeEarned","outputs":[{"internalType":"uint256","name":"","type":"uint256"}],"stateMutability":"view","type":"function"},{"inputs":[{"internalType":"bytes","name":"bytecode","type":"bytes"},{"internalType":"uint256","name":"salt","type":"uint256"}],"name":"getAddressCreate2","outputs":[{"internalType":"address","name":"","type":"address"}],"stateMutability":"view","type":"function"},{"inputs":[{"components":[{"internalType":"address","name":"token","type":"address"},{"internalType":"uint256","name":"softCap","type":"uint256"},{"internalType":"uint256","name":"hardCap","type":"uint256"},{"internalType":"uint256","name":"amountForSale","type":"uint256"},{"internalType":"uint256","name":"listingRate","type":"uint256"},{"internalType":"uint256","name":"minimumBuy","type":"uint256"},{"internalType":"uint256","name":"maximumBuy","type":"uint256"},{"internalType":"uint256","name":"percentageForLiquidity","type":"uint256"},{"internalType":"uint256","name":"percentageForTeam","type":"uint256"},{"internalType":"uint256","name":"startDate","type":"uint256"},{"internalType":"uint256","name":"endDate","type":"uint256"}],"internalType":"struct FairLaunchConfig","name":"config","type":"tuple"},{"internalType":"address","name":"_owner","type":"address"}],"name":"getBytecode","outputs":[{"internalType":"bytes","name":"","type":"bytes"}],"stateMutability":"pure","type":"function"},{"inputs":[],"name":"getCreationFees","outputs":[{"internalType":"uint256[]","name":"","type":"uint256[]"}],"stateMutability":"view","type":"function"},{"inputs":[{"components":[{"internalType":"address","name":"token","type":"address"},{"internalType":"uint256","name":"softCap","type":"uint256"},{"internalType":"uint256","name":"hardCap","type":"uint256"},{"internalType":"uint256","name":"amountForSale","type":"uint256"},{"internalType":"uint256","name":"listingRate","type":"uint256"},{"internalType":"uint256","name":"minimumBuy","type":"uint256"},{"internalType":"uint256","name":"maximumBuy","type":"uint256"},{"internalType":"uint256","name":"percentageForLiquidity","type":"uint256"},{"internalType":"uint256","name":"percentageForTeam","type":"uint256"},{"internalType":"uint256","name":"startDate","type":"uint256"},{"internalType":"uint256","name":"endDate","type":"uint256"}],"internalType":"struct FairLaunchConfig","name":"config","type":"tuple"}],"name":"getTotalAmount","outputs":[{"internalType":"uint256","name":"","type":"uint256"}],"stateMutability":"pure","type":"function"},{"inputs":[{"internalType":"address","name":"creator","type":"address"}],"name":"getdeployedLaunches","outputs":[{"internalType":"address[]","name":"","type":"address[]"}],"stateMutability":"view","type":"function"},{"inputs":[{"internalType":"address","name":"creator","type":"address"}],"name":"getdeployedLaunchesLen","outputs":[{"internalType":"uint256","name":"","type":"uint256"}],"stateMutability":"view","type":"function"},{"inputs":[{"components":[{"internalType":"address","name":"token","type":"address"},{"internalType":"uint256","name":"softCap","type":"uint256"},{"internalType":"uint256","name":"hardCap","type":"uint256"},{"internalType":"uint256","name":"amountForSale","type":"uint256"},{"internalType":"uint256","name":"listingRate","type":"uint256"},{"internalType":"uint256","name":"minimumBuy","type":"uint256"},{"internalType":"uint256","name":"maximumBuy","type":"uint256"},{"internalType":"uint256","name":"percentageForLiquidity","type":"uint256"},{"internalType":"uint256","name":"percentageForTeam","type":"uint256"},{"internalType":"uint256","name":"startDate","type":"uint256"},{"internalType":"uint256","name":"endDate","type":"uint256"}],"internalType":"struct FairLaunchConfig","name":"config","type":"tuple"}],"name":"newFairLaunch","outputs":[{"internalType":"address","name":"","type":"address"}],"stateMutability":"payable","type":"function"},{"inputs":[],"name":"owner","outputs":[{"internalType":"address","name":"","type":"address"}],"stateMutability":"view","type":"function"},{"inputs":[],"name":"renounceOwnership","outputs":[],"stateMutability":"nonpayable","type":"function"},{"inputs":[{"internalType":"address","name":"newOwner","type":"address"}],"name":"transferOwnership","outputs":[],"stateMutability":"nonpayable","type":"function"},{"inputs":[{"internalType":"uint256[]","name":"_fees","type":"uint256[]"}],"name":"upadateCreationFees","outputs":[],"stateMutability":"nonpayable","type":"function"},{"inputs":[],"name":"withdraw","outputs":[],"stateMutability":"nonpayable","type":"function"},{"inputs":[{"internalType":"address","name":"token","type":"address"}],"name":"withdrawToken","outputs":[],"stateMutability":"nonpayable","type":"function"},{"stateMutability":"payable","type":"receive"}],"evm":{"bytecode":{"linkReferences":{},"object":"6080806040523461018157331561016b5760008054336001600160a01b0319821681178355604051916001600160a01b03167f8be0079c531659141344cd1fd0a4f28419497f9722a3daafe3b4186f6b6457e08480a3608081016001600160401b038111828210176101575760405266038d7ea4c6800081526020674563918244f400006020830152678ac7230489e80000604083015268015af1d78b58c400006060830152600254916004926004600255806004106100f7575b50906002845260208420935b8381106100dc57604051612eba90816101878239f35b82516001600160481b031685820155918101916001016100c6565b600285527f405787fa12a823e0f2b7631cc41b3ba8828b3321ca811111fa75cd3aa3bb5ace017f405787fa12a823e0f2b7631cc41b3ba8828b3321ca811111fa75cd3aa3bb5ad25b81811061014c57506100ba565b85815560010161013f565b634e487b7160e01b83526041600452602483fd5b631e4fbdf760e01b815260006004820152602490fd5b600080fdfe6040608081526004908136101562000022575b505036156200002057600080fd5b005b600091823560e01c80633683bdcf146200107057806339354c601462000b195780633ccfd60b1462000ac257806342bca1201462000a875780634455a34314620009ce578063555a1a7b146200098157806357ad39221462000921578063715018a614620008b75780638947606914620007645780638da5cb5b146200073c5780639f886f261462000623578063b6e1527414620005d3578063bd9788331462000518578063c8527f4714620003a1578063ca3df80e146200021e578063d5f63a0614620001fd578063e5e868ab14620001be5763f2fde38b1462000108575062000012565b34620001ba576020366003190112620001ba57620001256200110c565b90620001306200130b565b6001600160a01b038092169283156200018b57505082548273ffffffffffffffffffffffffffffffffffffffff198216178455167f8be0079c531659141344cd1fd0a4f28419497f9722a3daafe3b4186f6b6457e08380a380f35b908460249251917f1e4fbdf7000000000000000000000000000000000000000000000000000000008352820152fd5b8280fd5b505034620001f9576020366003190112620001f957806020926001600160a01b03620001e96200110c565b1681526001845220549051908152f35b5080fd5b505034620001f95781600319360112620001f9576020906003549051908152f35b509034620001ba57602090816003193601126200039d5767ffffffffffffffff9280358481116200039957366023820112156200039957808201359085821162000386578160051b9351916200027786860184620010d3565b8252848201602481958301019136831162000382576024879101915b838310620003715750505050620002a96200130b565b519384116200035e576801000000000000000084116200035e5750600254836002558084106200031b575b509060028452835b838110620002e8578480f35b82517f405787fa12a823e0f2b7631cc41b3ba8828b3321ca811111fa75cd3aa3bb5ace82015591810191600101620002dc565b837f405787fa12a823e0f2b7631cc41b3ba8828b3321ca811111fa75cd3aa3bb5ace91820191015b818110620003525750620002d4565b85815560010162000343565b846041602492634e487b7160e01b835252fd5b823581529181019187910162000293565b8880fd5b602487604185634e487b7160e01b835252fd5b8580fd5b8380fd5b505034620001f957610180366003190112620001f957620003c23662001128565b61016435926001600160a01b0384168403620005155750620004a3601f620004e192620004ee611b349160209788918851916200040284870184620010d3565b858352838301956200135187398951978891858301938490610160909392936101808301946001600160a01b03918281511685526020810151602086015260408101516040860152606081015160608601526080810151608086015260a081015160a086015260c081015160c086015260e081015160e086015261010080820151908601526101208082015190860152610140809101519085015216910152565b0396620004b8871998898101835282620010d3565b8951988993620004d186860198899251928391620011f3565b84019151809386840190620011f3565b01038087520185620010d3565b6200050c8551968795818752519283809288015287870190620011f3565b01168101030190f35b80fd5b82843462000515578060031936011262000515579080519182906002549182855260208095018093600284527f405787fa12a823e0f2b7631cc41b3ba8828b3321ca811111fa75cd3aa3bb5ace90845b818110620005be575050508162000581910382620010d3565b83519485948186019282875251809352850193925b828110620005a657505050500390f35b83518552869550938101939281019260010162000596565b82548452928801926001928301920162000568565b5034620001ba576020366003190112620001ba5735600254811015620001ba576002602093527f405787fa12a823e0f2b7631cc41b3ba8828b3321ca811111fa75cd3aa3bb5ace01549051908152f35b50919034620001f95780600319360112620001f95767ffffffffffffffff918335838111620001f95736602382011215620001f9578085013584811162000729578351906200067d601f8201601f191660200183620010d3565b8082526020820192366024838301011162000725578185926024602093018637830101525190209180519160208301937fff0000000000000000000000000000000000000000000000000000000000000085523060601b602185015260243560358501526055840152605583526080830194838610908611176200071257848252825184206001600160a01b03168552602085f35b80604187634e487b7160e01b6024945252fd5b8480fd5b602483604188634e487b7160e01b835252fd5b505034620001f95781600319360112620001f9576001600160a01b0360209254169051908152f35b5034620001ba57602091826003193601126200039d57620007846200110c565b916200078f6200130b565b6001600160a01b038093169285541690858351947f70a0823100000000000000000000000000000000000000000000000000000000865230838701528686602481845afa958615620008ad57908291889594939762000871575b509060449291865197889586947fa9059cbb00000000000000000000000000000000000000000000000000000000865285015260248401525af190811562000868575062000835578280f35b816200085992903d1062000860575b620008508183620010d3565b81019062001271565b5038808280f35b503d62000844565b513d85823e3d90fd5b85819493969298503d8311620008a5575b6200088e8183620010d3565b810103126200039d579051948693906044620007e9565b503d62000882565b85513d84823e3d90fd5b83346200051557806003193601126200051557620008d46200130b565b806001600160a01b03815473ffffffffffffffffffffffffffffffffffffffff1981168355167f8be0079c531659141344cd1fd0a4f28419497f9722a3daafe3b4186f6b6457e08280a380f35b505034620001f95780600319360112620001f9576200093f6200110c565b602435926001600160a01b03809216815260016020528281209081548510156200051557506020936200097291620011c4565b92905490519260031b1c168152f35b505034620001f957610160366003190112620001f957602090620009a53662001128565b68056bc75e2d63100000606082015191608060e082015185830151029101510204019051908152f35b505034620001f9576020918260031936011262000515576001600160a01b039081620009f96200110c565b1681526001916001855283822094845191828288549182815201908198865283862090865b81811062000a71575050508362000a37910384620010d3565b855195828701938388525180945286019693905b83821062000a595786880387f35b84518116885296820196938201939085019062000a4b565b8254851684529285019291880191880162000a1e565b509134620005155760a036600319011262000515575062000abb60209260843590606435906044359060243590356200129a565b9051908152f35b505034620001f95781600319360112620001f95762000ae06200130b565b818080806001600160a01b03815416479082821562000b0f575bf11562000b05575080f35b51903d90823e3d90fd5b506108fc62000afa565b509190610160366003190112620001f95762000b353662001128565b90600254156200105d57600283527f405787fa12a823e0f2b7631cc41b3ba8828b3321ca811111fa75cd3aa3bb5ace54341062000ff55760e0820193603c85511062000f67576101008301602881511162000ed85762000b9c606491875190519062001263565b0362000e4a5781830151606084015195519060808501516001600160a01b039283875116988651809a7f313ce567000000000000000000000000000000000000000000000000000000008252818860209d8e935afa90811562000e40578a9162000dfd575b509060ff62000c159594939216936200129a565b9033865260018752838620548451611b348082019082821067ffffffffffffffff83111762000dea57829162000ccd9162001351843989516001600160a01b031681526020808b0151908201526040808b0151908201526060808b0151908201526080808b01519082015260a0808b01519082015260c0808b01519082015260e0808b015190820152610100808b015190820152610120808b015190820152610140808b015190820152336101608201526101800190565b039088f5801562000de057811694338752600188528487208054906801000000000000000082101562000dcd579162000d128260649460018d989795018155620011c4565b81549060031b90848b831b921b191617905551169387865195869485937f23b872dd000000000000000000000000000000000000000000000000000000008552339085015289602485015260448401525af1801562000dc3579083929162000da1575b5051927f3e898072f60c1097ffd1556ec02786c3af00b0f9a3c971db360f7539abeb6d21339180a38152f35b62000dbb90863d88116200086057620008508183620010d3565b503862000d75565b82513d86823e3d90fd5b602489604188634e487b7160e01b835252fd5b84513d88823e3d90fd5b60248a604189634e487b7160e01b835252fd5b90508a81813d831162000e38575b62000e178183620010d3565b8101031262000e34575160ff8116810362000e345760ff62000c01565b8980fd5b503d62000e0b565b88513d8c823e3d90fd5b602060a492519162461bcd60e51b8352820152605f60248201527f546872757374706164466169724c61756e6368466163746f72793a207065726360448201527f656e7461676520666f72204c6971756964697479202b2070657263656e74616760648201527f6520666f72205465616d206d75737420626520657175616c20746f20313030006084820152fd5b50602060a492519162461bcd60e51b8352820152604660248201527f546872757374706164466169724c61756e6368466163746f72793a207065726360448201527f656e7461676520666f72205465616d2063616e6e6f74206265206c657373207460648201527f68616e20343000000000000000000000000000000000000000000000000000006084820152fd5b602060a492519162461bcd60e51b8352820152604b60248201527f546872757374706164466169724c61756e6368466163746f72793a207065726360448201527f656e7461676520666f72204c69717569646974792063616e6e6f74206265206c60648201527f657373207468616e2036300000000000000000000000000000000000000000006084820152fd5b5162461bcd60e51b8152602081850152602c60248201527f546872757374706164466169724c61756e6368466163746f72793a20496e737560448201527f6666696369656e742066656500000000000000000000000000000000000000006064820152608490fd5b602483603286634e487b7160e01b835252fd5b50913462000515576060366003190112620005155760443560ff8116809103620001f957620010a3602435853562001218565b91604d8211620010c05760208462000abb8585600a0a9062001239565b80601186634e487b7160e01b6024945252fd5b90601f8019910116810190811067ffffffffffffffff821117620010f657604052565b634e487b7160e01b600052604160045260246000fd5b600435906001600160a01b03821682036200112357565b600080fd5b9061016080926003190112620011235760405191820182811067ffffffffffffffff821117620010f657604052816004356001600160a01b038116810362001123578152602435602082015260443560408201526064356060820152608435608082015260a43560a082015260c43560c082015260e43560e0820152610104356101008201526101243561012082015261014061014435910152565b8054821015620011dd5760005260206000200190600090565b634e487b7160e01b600052603260045260246000fd5b60005b838110620012075750506000910152565b8181015183820152602001620011f6565b811562001223570490565b634e487b7160e01b600052601260045260246000fd5b818102929181159184041417156200124d57565b634e487b7160e01b600052601160045260246000fd5b919082018092116200124d57565b908160209103126200112357518015158103620011235790565b604d81116200124d57600a0a90565b620012ad90620012b39394929462001239565b62001239565b82601201806012116200124d57620012cb906200128b565b92836064029360648504036200124d57620012fa620012f36200130895620013019462001218565b916200128b565b9062001239565b9062001263565b90565b6001600160a01b036000541633036200132057565b60246040517f118cdaa7000000000000000000000000000000000000000000000000000000008152336004820152fdfe6080346200022057601f62001b3438819003918201601f1916830192916001600160401b039190828511848610176200020a578084926040968752833981010392610180841262000220576101608094126200022057805191848301908111838210176200020a578152620000748362000225565b82526020830151602083019081528184015182840190815260608501516060850190815260808601516080860190815260a08701519160a0870192835260c08801519360c0880194855260e08901519560e0890196875261010097888b0151988a01988952610120998a8c01519a81019a8b526101409b8c8101519c82019c8d526200010a60018060a01b039e8f920162000225565b168015620001f257600080546001600160a01b03198082168417835594519f939291908416907f8be0079c531659141344cd1fd0a4f28419497f9722a3daafe3b4186f6b6457e09080a36001805573a9cbef0c9274f985340816ed2074abf5aac2546383601254161760125573135e304139c5113895c97dce8b9eda56d4b53cf983601354161760135573b5cab4e42cb5f16d00c644cb7163f8b427d7a8bf83601454161760145551169060025416176002555160035551600455516005555160065551600755516008555160095551600a5551600b5551600c556118f990816200023b8239f35b8251631e4fbdf760e01b815260006004820152602490fd5b634e487b7160e01b600052604160045260246000fd5b600080fd5b51906001600160a01b0382168203620002205756fe608080604052600436101561001d575b50361561001b57600080fd5b005b60003560e01c9081632f334652146114cd5750806338af6632146113375780634086bf8914610c6d57806348c54b9d14610b3f57806362eba8b014610b18578063677342ce14610af2578063715018a614610a8c57806379502c5514610a0c5780637d7cf6c5146109e55780638da5cb5b146109be5780639106d7ba146109a0578063953b7ef81461087357806397d569971461084c5780639c5913cc14610829578063a4821719146104d7578063b5545a3c146103be578063c3828bf014610394578063c884ef831461035a578063cd309ec914610328578063d812195c146102de578063dbf0f3e21461023b578063e45f2b8a14610201578063f251fc8c146101e35763f2fde38b14610132573861000f565b346101de5760203660031901126101de5761014b6114f0565b610153611844565b6001600160a01b038091169081156101ad576000548273ffffffffffffffffffffffffffffffffffffffff19821617600055167f8be0079c531659141344cd1fd0a4f28419497f9722a3daafe3b4186f6b6457e0600080a3005b60246040517f1e4fbdf700000000000000000000000000000000000000000000000000000000815260006004820152fd5b600080fd5b346101de5760003660031901126101de576020600e54604051908152f35b346101de5760203660031901126101de576001600160a01b036102226114f0565b1660005260106020526020604060002054604051908152f35b346101de5760403660031901126101de576102546114f0565b61025c611844565b61026a600c544210156117f9565b60405163a9059cbb60e01b8152336004820152602480359082015290602090829060449082906000906001600160a01b03165af180156102d2576102aa57005b61001b9060203d6020116102cb575b6102c38183611513565b810190611535565b503d6102b9565b6040513d6000823e3d90fd5b346101de5760203660031901126101de5760008080806004356102ff611844565b61030d600c544210156117f9565b81811561031f575b3390f1156102d257005b506108fc610315565b346101de5760403660031901126101de576020610349602435600435611731565b6001600160a01b0360405191168152f35b346101de5760203660031901126101de576001600160a01b0361037b6114f0565b1660005260116020526020604060002054604051908152f35b346101de5760003660031901126101de5760206001600160a01b03600f5460101c16604051908152f35b346101de5760003660031901126101de576103d7611888565b6103e5600c5442101561154d565b600d5460035411156104855733600052601160205261040960406000205415611681565b336000526010602052604060002054601160205280604060002055806000811561047c575b600080809381933390f1156102d2576001600160a01b0360025416906040519081527ff40cc8c1a1d17359049ba500cfc894596a692cffc9d03943cd92ec2e159cf6ae60203392a360018055005b506108fc61042e565b608460405162461bcd60e51b815260206004820152602560248201527f546872757374706164466169724c61756e63683a20736f6674206361702072656044820152641858da195960da1b6064820152fd5b60003660031901126101de57600b5442106107bf57600c5442116107555760075434106106eb5760085480341161068157600d54906105163483611506565b6004541061062f5733600052601060205261053634604060002054611506565b116105c557610546903490611506565b600d55600e54600181018091116105af57600e553360005260106020526040600020610573348254611506565b90556001600160a01b03600254166040513481527f9b24bd0884170cbce51f9f00df6b3f9aed2231e4086241d1d04687b42afdf7b960203392a3005b634e487b7160e01b600052601160045260246000fd5b608460405162461bcd60e51b815260206004820152603360248201527f546872757374706164466169724c61756e63683a2077616c6c6574206861732060448201527f72656163686564206d6178696d756d20627579000000000000000000000000006064820152fd5b608460405162461bcd60e51b815260206004820152602560248201527f546872757374706164466169724c61756e63683a2068617264206361702072656044820152641858da195960da1b6064820152fd5b608460405162461bcd60e51b815260206004820152603460248201527f546872757374706164466169724c61756e63683a20616d6f756e74206973206d60448201527f6f7265207468616e206d6178696d756d206275790000000000000000000000006064820152fd5b608460405162461bcd60e51b815260206004820152603460248201527f546872757374706164466169724c61756e63683a20616d6f756e74206973206c60448201527f657373207468616e206d696e696d756d206275790000000000000000000000006064820152fd5b608460405162461bcd60e51b815260206004820152602360248201527f546872757374706164466169724c61756e63683a2073616c652068617320656e60448201527f64656400000000000000000000000000000000000000000000000000000000006064820152fd5b608460405162461bcd60e51b815260206004820152602d60248201527f546872757374706164466169724c61756e63683a2073616c6520686173206e6f60448201527f74207374617274656420796574000000000000000000000000000000000000006064820152fd5b346101de5760003660031901126101de57602060ff600f54166040519015158152f35b346101de5760003660031901126101de5760206001600160a01b0360145416604051908152f35b346101de5760003660031901126101de5761088c611844565b61089a600c5442101561154d565b600d546108ab6003548210156115be565b600f549060ff8260081c166109365760646108cb61010092600a5461164e565b049161ff00191617600f556001600160a01b036000808080858582541682821561092d575bf1156102d2577fa95e69983c44f17474cba286953deb119463b9f5cb8cfde4fd709df3660266f760208260005416926002541693604051908152a3005b506108fc6108f0565b608460405162461bcd60e51b815260206004820152603060248201527f546872757374706164466169724c61756e63683a207465616d20746f6b656e7360448201527f20616c726561647920636c61696d6564000000000000000000000000000000006064820152fd5b346101de5760003660031901126101de576020600d54604051908152f35b346101de5760003660031901126101de5760206001600160a01b0360005416604051908152f35b346101de5760003660031901126101de5760206001600160a01b0360135416604051908152f35b346101de5760003660031901126101de576101606001600160a01b03600254166003546004546005546006546007546008549060095492600a5494600b5496600c54986040519a8b5260208b015260408a01526060890152608088015260a087015260c086015260e0850152610100840152610120830152610140820152f35b346101de5760003660031901126101de57610aa5611844565b60006001600160a01b03815473ffffffffffffffffffffffffffffffffffffffff1981168355167f8be0079c531659141344cd1fd0a4f28419497f9722a3daafe3b4186f6b6457e08280a3005b346101de5760203660031901126101de576020610b106004356116f2565b604051908152f35b346101de5760003660031901126101de5760206001600160a01b0360125416604051908152f35b346101de5760003660031901126101de57610b58611888565b610b66600c5442101561154d565b610b76600d5460035411156115be565b33600052602060118152610b8f60406000205415611681565b610bb4610ba160055460045490611661565b336000526010835260406000205461164e565b3360005260118252806040600020556001600160a01b0380600254169083604051809363a9059cbb60e01b825281600081610c09893360048401602090939291936001600160a01b0360408201951681520152565b03925af19182156102d2577f4831bdd9dcf3048a28319ce81d3cab7a15366bcf449bc7803a539107440809cc92610c50575b5060025416926040519283523392a360018055005b610c6690853d87116102cb576102c38183611513565b5084610c3b565b346101de5760003660031901126101de57610c86611844565b610c94600c5442101561154d565b610ca4600d5460035411156115be565b6001600160a01b03601454166001600160a01b03601254166001600160a01b036002541690606460206001600160a01b036013541694604051928380927f1698ee82000000000000000000000000000000000000000000000000000000008252876004830152886024830152610bb860448301525afa80156102d2576001600160a01b0391600091611318575b50166112ae5782821461126a5782821015611264578192915b6001600160a01b0384161561122057600080916001600160a01b038516811461120b575b6001600160a01b038616146111f8575b6084610d946020936001600160a01b0393611731565b600060405195869485937f13ead562000000000000000000000000000000000000000000000000000000008552818b166004860152818a166024860152610bb860448601521660648401525af180156102d2576111c9575b50600060206001600160a01b036002541660446001600160a01b036012541660405194859384927f095ea7b30000000000000000000000000000000000000000000000000000000084526004840152811960248401525af180156102d2576111aa575b506064610e61600954600d549061164e565b0491610e6f6006548461164e565b916001600160a01b0360125416936001600160a01b036002541693846001600160a01b038516146000146111a35780945b6001600160a01b0384160361119c57905b61012c420142116105af57604051918261016081011067ffffffffffffffff61016085011117611186576080956001600160a01b036101649581610140986101608801604052168652166020850152610bb86040850152620d89b3196060850152620d89b48785015260a084015260c0830152600060e083015260006101008301523361012083015261012c42018483015260405195869485937f883164560000000000000000000000000000000000000000000000000000000085526001600160a01b0381511660048601526001600160a01b03602082015116602486015262ffffff6040820151166044860152606081015160020b60648601528781015160020b608486015260a081015160a486015260c081015160c486015260e081015160e48601526101008101516101048601526001600160a01b036101208201511661012486015201516101448401525af180156102d25760009160008091600093611121575b506001600160a01b0360025416926040516370a0823160e01b8152306004820152602081602481885afa9081156102d2576000916110ee575b506000946044602092604051978893849263a9059cbb60e01b845282600485015260248401525af19283156102d2577f93c8c206bc4e0e31ab69b39355c974c1584de6caae2b529dc41fe11fcf218ed3946060946110cf575b506fffffffffffffffffffffffffffffffff6040519316835260208301526040820152a2005b6110e79060203d6020116102cb576102c38183611513565b50866110a9565b90506020813d602011611119575b8161110960209383611513565b810103126101de57516000611050565b3d91506110fc565b93505050506080813d60801161117e575b8161113f60809383611513565b810103126101de578051906020810151916fffffffffffffffffffffffffffffffff831683036101de5760606040830151920151909291909184611017565b3d9150611132565b634e487b7160e01b600052604160045260246000fd5b5080610eb1565b8194610ea0565b6111c29060203d6020116102cb576102c38183611513565b5082610e4f565b6111ea9060203d6020116111f1575b6111e28183611513565b81019061162f565b5082610dec565b503d6111d8565b5050600654670de0b6b3a7640000610d7e565b915050600654670de0b6b3a764000091610d6e565b606460405162461bcd60e51b815260206004820152600c60248201527f5a45524f5f4144445245535300000000000000000000000000000000000000006044820152fd5b81610d4a565b606460405162461bcd60e51b815260206004820152601360248201527f4944454e544943414c5f414444524553534553000000000000000000000000006044820152fd5b608460405162461bcd60e51b815260206004820152602860248201527f546872757374706164466169724c61756e63683a205061697220616c7265616460448201527f79206578697374730000000000000000000000000000000000000000000000006064820152fd5b611331915060203d6020116111f1576111e28183611513565b85610d31565b346101de5760003660031901126101de57611350611844565b600c5462278d0081018091116105af574210611463576001600160a01b0380600f5460101c16604051906370a0823160e01b82523060048301526020928383602481855afa9283156102d257600093611434575b50826113ac57005b60405163a9059cbb60e01b815233600482015260248101849052918490839060449082906000905af19182156102d2577f4f2e1c4d34092405172a61f387073a9b61bfcbb54eceb1e96383d36e19b394a992611417575b50600f5460101c16926040519283523392a3005b61142d90853d87116102cb576102c38183611513565b5084611403565b9092508381813d831161145c575b61144c8183611513565b810103126101de575191846113a4565b503d611442565b608460405162461bcd60e51b815260206004820152602d60248201527f546872757374706164466169724c61756e63683a204c6f636b20706572696f6460448201527f206e6f74206f76657220796574000000000000000000000000000000000000006064820152fd5b346101de5760003660031901126101de5760209060ff600f5460081c1615158152f35b600435906001600160a01b03821682036101de57565b919082018092116105af57565b90601f8019910116810190811067ffffffffffffffff82111761118657604052565b908160209103126101de575180151581036101de5790565b1561155457565b608460405162461bcd60e51b815260206004820152602b60248201527f546872757374706164466169724c61756e63683a2073616c6520686173206e6f60448201527f7420656e646564207965740000000000000000000000000000000000000000006064820152fd5b156115c557565b608460405162461bcd60e51b815260206004820152602960248201527f546872757374706164466169724c61756e63683a20736f667420636170206e6f60448201527f74207265616368656400000000000000000000000000000000000000000000006064820152fd5b908160209103126101de57516001600160a01b03811681036101de5790565b818102929181159184041417156105af57565b811561166b570490565b634e487b7160e01b600052601260045260246000fd5b1561168857565b608460405162461bcd60e51b815260206004820152602b60248201527f546872757374706164466169724c61756e63683a20746f6b656e7320616c726560448201527f61647920636c61696d65640000000000000000000000000000000000000000006064820152fd5b9060018083018084116105af5760011c90835b84831061171157505050565b90919350611728846117238184611661565b611506565b821c9190611705565b811515806117f0575b156117ac576117549161174f9160c01b611661565b6116f2565b6001600160a01b0390818111611768571690565b606460405162461bcd60e51b815260206004820152601360248201527f535152545f50524943455f544f4f5f48494748000000000000000000000000006044820152fd5b606460405162461bcd60e51b815260206004820152601060248201527f494e56414c49445f5245534552564553000000000000000000000000000000006044820152fd5b5080151561173a565b1561180057565b606460405162461bcd60e51b815260206004820152600e60248201527f4e6f7420617574686f72697a65640000000000000000000000000000000000006044820152fd5b6001600160a01b0360005416330361185857565b60246040517f118cdaa7000000000000000000000000000000000000000000000000000000008152336004820152fd5b600260015414611899576002600155565b60046040517f3ee5aeb5000000000000000000000000000000000000000000000000000000008152fdfea264697066735822122092e66c8af1cba26e0552a737528d26376b38d1c3bd9cba2035e1873701ce8e5264736f6c63430008180033a26469706673582212208d7f91ada90b2194182e5b4e5ea73447d4a6d1092b2a20a32b6542ba1ec130ff64736f6c63430008180033","opcodes":"PUSH1 0x80 DUP1 PUSH1 0x40 MSTORE CALLVALUE PUSH2 0x181 JUMPI CALLER ISZERO PUSH2 0x16B JUMPI PUSH1 0x0 DUP1 SLOAD CALLER PUSH1 0x1 PUSH1 0x1 PUSH1 0xA0 SHL SUB NOT DUP3 AND DUP2 OR DUP4 SSTORE PUSH1 0x40 MLOAD SWAP2 PUSH1 0x1 PUSH1 0x1 PUSH1 0xA0 SHL SUB AND PUSH32 0x8BE0079C531659141344CD1FD0A4F28419497F9722A3DAAFE3B4186F6B6457E0 DUP5 DUP1 LOG3 PUSH1 0x80 DUP2 ADD PUSH1 0x1 PUSH1 0x1 PUSH1 0x40 SHL SUB DUP2 GT DUP3 DUP3 LT OR PUSH2 0x157 JUMPI PUSH1 0x40 MSTORE PUSH7 0x38D7EA4C68000 DUP2 MSTORE PUSH1 0x20 PUSH8 0x4563918244F40000 PUSH1 0x20 DUP4 ADD MSTORE PUSH8 0x8AC7230489E80000 PUSH1 0x40 DUP4 ADD MSTORE PUSH9 0x15AF1D78B58C40000 PUSH1 0x60 DUP4 ADD MSTORE PUSH1 0x2 SLOAD SWAP2 PUSH1 0x4 SWAP3 PUSH1 0x4 PUSH1 0x2 SSTORE DUP1 PUSH1 0x4 LT PUSH2 0xF7 JUMPI JUMPDEST POP SWAP1 PUSH1 0x2 DUP5 MSTORE PUSH1 0x20 DUP5 KECCAK256 SWAP4 JUMPDEST DUP4 DUP2 LT PUSH2 0xDC JUMPI PUSH1 0x40 MLOAD PUSH2 0x2EBA SWAP1 DUP2 PUSH2 0x187 DUP3 CODECOPY RETURN JUMPDEST DUP3 MLOAD PUSH1 0x1 PUSH1 0x1 PUSH1 0x48 SHL SUB AND DUP6 DUP3 ADD SSTORE SWAP2 DUP2 ADD SWAP2 PUSH1 0x1 ADD PUSH2 0xC6 JUMP JUMPDEST PUSH1 0x2 DUP6 MSTORE PUSH32 0x405787FA12A823E0F2B7631CC41B3BA8828B3321CA811111FA75CD3AA3BB5ACE ADD PUSH32 0x405787FA12A823E0F2B7631CC41B3BA8828B3321CA811111FA75CD3AA3BB5AD2 JUMPDEST DUP2 DUP2 LT PUSH2 0x14C JUMPI POP PUSH2 0xBA JUMP JUMPDEST DUP6 DUP2 SSTORE PUSH1 0x1 ADD PUSH2 0x13F JUMP JUMPDEST PUSH4 0x4E487B71 PUSH1 0xE0 SHL DUP4 MSTORE PUSH1 0x41 PUSH1 0x4 MSTORE PUSH1 0x24 DUP4 REVERT JUMPDEST PUSH4 0x1E4FBDF7 PUSH1 0xE0 SHL DUP2 MSTORE PUSH1 0x0 PUSH1 0x4 DUP3 ADD MSTORE PUSH1 0x24 SWAP1 REVERT JUMPDEST PUSH1 0x0 DUP1 REVERT INVALID PUSH1 0x40 PUSH1 0x80 DUP2 MSTORE PUSH1 0x4 SWAP1 DUP2 CALLDATASIZE LT ISZERO PUSH3 0x22 JUMPI JUMPDEST POP POP CALLDATASIZE ISZERO PUSH3 0x20 JUMPI PUSH1 0x0 DUP1 REVERT JUMPDEST STOP JUMPDEST PUSH1 0x0 SWAP2 DUP3 CALLDATALOAD PUSH1 0xE0 SHR DUP1 PUSH4 0x3683BDCF EQ PUSH3 0x1070 JUMPI DUP1 PUSH4 0x39354C60 EQ PUSH3 0xB19 JUMPI DUP1 PUSH4 0x3CCFD60B EQ PUSH3 0xAC2 JUMPI DUP1 PUSH4 0x42BCA120 EQ PUSH3 0xA87 JUMPI DUP1 PUSH4 0x4455A343 EQ PUSH3 0x9CE JUMPI DUP1 PUSH4 0x555A1A7B EQ PUSH3 0x981 JUMPI DUP1 PUSH4 0x57AD3922 EQ PUSH3 0x921 JUMPI DUP1 PUSH4 0x715018A6 EQ PUSH3 0x8B7 JUMPI DUP1 PUSH4 0x89476069 EQ PUSH3 0x764 JUMPI DUP1 PUSH4 0x8DA5CB5B EQ PUSH3 0x73C JUMPI DUP1 PUSH4 0x9F886F26 EQ PUSH3 0x623 JUMPI DUP1 PUSH4 0xB6E15274 EQ PUSH3 0x5D3 JUMPI DUP1 PUSH4 0xBD978833 EQ PUSH3 0x518 JUMPI DUP1 PUSH4 0xC8527F47 EQ PUSH3 0x3A1 JUMPI DUP1 PUSH4 0xCA3DF80E EQ PUSH3 0x21E JUMPI DUP1 PUSH4 0xD5F63A06 EQ PUSH3 0x1FD JUMPI DUP1 PUSH4 0xE5E868AB EQ PUSH3 0x1BE JUMPI PUSH4 0xF2FDE38B EQ PUSH3 0x108 JUMPI POP PUSH3 0x12 JUMP JUMPDEST CALLVALUE PUSH3 0x1BA JUMPI PUSH1 0x20 CALLDATASIZE PUSH1 0x3 NOT ADD SLT PUSH3 0x1BA JUMPI PUSH3 0x125 PUSH3 0x110C JUMP JUMPDEST SWAP1 PUSH3 0x130 PUSH3 0x130B JUMP JUMPDEST PUSH1 0x1 PUSH1 0x1 PUSH1 0xA0 SHL SUB DUP1 SWAP3 AND SWAP3 DUP4 ISZERO PUSH3 0x18B JUMPI POP POP DUP3 SLOAD DUP3 PUSH20 0xFFFFFFFFFFFFFFFFFFFFFFFFFFFFFFFFFFFFFFFF NOT DUP3 AND OR DUP5 SSTORE AND PUSH32 0x8BE0079C531659141344CD1FD0A4F28419497F9722A3DAAFE3B4186F6B6457E0 DUP4 DUP1 LOG3 DUP1 RETURN JUMPDEST SWAP1 DUP5 PUSH1 0x24 SWAP3 MLOAD SWAP2 PUSH32 0x1E4FBDF700000000000000000000000000000000000000000000000000000000 DUP4 MSTORE DUP3 ADD MSTORE REVERT JUMPDEST DUP3 DUP1 REVERT JUMPDEST POP POP CALLVALUE PUSH3 0x1F9 JUMPI PUSH1 0x20 CALLDATASIZE PUSH1 0x3 NOT ADD SLT PUSH3 0x1F9 JUMPI DUP1 PUSH1 0x20 SWAP3 PUSH1 0x1 PUSH1 0x1 PUSH1 0xA0 SHL SUB PUSH3 0x1E9 PUSH3 0x110C JUMP JUMPDEST AND DUP2 MSTORE PUSH1 0x1 DUP5 MSTORE KECCAK256 SLOAD SWAP1 MLOAD SWAP1 DUP2 MSTORE RETURN JUMPDEST POP DUP1 REVERT JUMPDEST POP POP CALLVALUE PUSH3 0x1F9 JUMPI DUP2 PUSH1 0x3 NOT CALLDATASIZE ADD SLT PUSH3 0x1F9 JUMPI PUSH1 0x20 SWAP1 PUSH1 0x3 SLOAD SWAP1 MLOAD SWAP1 DUP2 MSTORE RETURN JUMPDEST POP SWAP1 CALLVALUE PUSH3 0x1BA JUMPI PUSH1 0x20 SWAP1 DUP2 PUSH1 0x3 NOT CALLDATASIZE ADD SLT PUSH3 0x39D JUMPI PUSH8 0xFFFFFFFFFFFFFFFF SWAP3 DUP1 CALLDATALOAD DUP5 DUP2 GT PUSH3 0x399 JUMPI CALLDATASIZE PUSH1 0x23 DUP3 ADD SLT ISZERO PUSH3 0x399 JUMPI DUP1 DUP3 ADD CALLDATALOAD SWAP1 DUP6 DUP3 GT PUSH3 0x386 JUMPI DUP2 PUSH1 0x5 SHL SWAP4 MLOAD SWAP2 PUSH3 0x277 DUP7 DUP7 ADD DUP5 PUSH3 0x10D3 JUMP JUMPDEST DUP3 MSTORE DUP5 DUP3 ADD PUSH1 0x24 DUP2 SWAP6 DUP4 ADD ADD SWAP2 CALLDATASIZE DUP4 GT PUSH3 0x382 JUMPI PUSH1 0x24 DUP8 SWAP2 ADD SWAP2 JUMPDEST DUP4 DUP4 LT PUSH3 0x371 JUMPI POP POP POP POP PUSH3 0x2A9 PUSH3 0x130B JUMP JUMPDEST MLOAD SWAP4 DUP5 GT PUSH3 0x35E JUMPI PUSH9 0x10000000000000000 DUP5 GT PUSH3 0x35E JUMPI POP PUSH1 0x2 SLOAD DUP4 PUSH1 0x2 SSTORE DUP1 DUP5 LT PUSH3 0x31B JUMPI JUMPDEST POP SWAP1 PUSH1 0x2 DUP5 MSTORE DUP4 JUMPDEST DUP4 DUP2 LT PUSH3 0x2E8 JUMPI DUP5 DUP1 RETURN JUMPDEST DUP3 MLOAD PUSH32 0x405787FA12A823E0F2B7631CC41B3BA8828B3321CA811111FA75CD3AA3BB5ACE DUP3 ADD SSTORE SWAP2 DUP2 ADD SWAP2 PUSH1 0x1 ADD PUSH3 0x2DC JUMP JUMPDEST DUP4 PUSH32 0x405787FA12A823E0F2B7631CC41B3BA8828B3321CA811111FA75CD3AA3BB5ACE SWAP2 DUP3 ADD SWAP2 ADD JUMPDEST DUP2 DUP2 LT PUSH3 0x352 JUMPI POP PUSH3 0x2D4 JUMP JUMPDEST DUP6 DUP2 SSTORE PUSH1 0x1 ADD PUSH3 0x343 JUMP JUMPDEST DUP5 PUSH1 0x41 PUSH1 0x24 SWAP3 PUSH4 0x4E487B71 PUSH1 0xE0 SHL DUP4 MSTORE MSTORE REVERT JUMPDEST DUP3 CALLDATALOAD DUP2 MSTORE SWAP2 DUP2 ADD SWAP2 DUP8 SWAP2 ADD PUSH3 0x293 JUMP JUMPDEST DUP9 DUP1 REVERT JUMPDEST PUSH1 0x24 DUP8 PUSH1 0x41 DUP6 PUSH4 0x4E487B71 PUSH1 0xE0 SHL DUP4 MSTORE MSTORE REVERT JUMPDEST DUP6 DUP1 REVERT JUMPDEST DUP4 DUP1 REVERT JUMPDEST POP POP CALLVALUE PUSH3 0x1F9 JUMPI PUSH2 0x180 CALLDATASIZE PUSH1 0x3 NOT ADD SLT PUSH3 0x1F9 JUMPI PUSH3 0x3C2 CALLDATASIZE PUSH3 0x1128 JUMP JUMPDEST PUSH2 0x164 CALLDATALOAD SWAP3 PUSH1 0x1 PUSH1 0x1 PUSH1 0xA0 SHL SUB DUP5 AND DUP5 SUB PUSH3 0x515 JUMPI POP PUSH3 0x4A3 PUSH1 0x1F PUSH3 0x4E1 SWAP3 PUSH3 0x4EE PUSH2 0x1B34 SWAP2 PUSH1 0x20 SWAP8 DUP9 SWAP2 DUP9 MLOAD SWAP2 PUSH3 0x402 DUP5 DUP8 ADD DUP5 PUSH3 0x10D3 JUMP JUMPDEST DUP6 DUP4 MSTORE DUP4 DUP4 ADD SWAP6 PUSH3 0x1351 DUP8 CODECOPY DUP10 MLOAD SWAP8 DUP9 SWAP2 DUP6 DUP4 ADD SWAP4 DUP5 SWAP1 PUSH2 0x160 SWAP1 SWAP4 SWAP3 SWAP4 PUSH2 0x180 DUP4 ADD SWAP5 PUSH1 0x1 PUSH1 0x1 PUSH1 0xA0 SHL SUB SWAP2 DUP3 DUP2 MLOAD AND DUP6 MSTORE PUSH1 0x20 DUP2 ADD MLOAD PUSH1 0x20 DUP7 ADD MSTORE PUSH1 0x40 DUP2 ADD MLOAD PUSH1 0x40 DUP7 ADD MSTORE PUSH1 0x60 DUP2 ADD MLOAD PUSH1 0x60 DUP7 ADD MSTORE PUSH1 0x80 DUP2 ADD MLOAD PUSH1 0x80 DUP7 ADD MSTORE PUSH1 0xA0 DUP2 ADD MLOAD PUSH1 0xA0 DUP7 ADD MSTORE PUSH1 0xC0 DUP2 ADD MLOAD PUSH1 0xC0 DUP7 ADD MSTORE PUSH1 0xE0 DUP2 ADD MLOAD PUSH1 0xE0 DUP7 ADD MSTORE PUSH2 0x100 DUP1 DUP3 ADD MLOAD SWAP1 DUP7 ADD MSTORE PUSH2 0x120 DUP1 DUP3 ADD MLOAD SWAP1 DUP7 ADD MSTORE PUSH2 0x140 DUP1 SWAP2 ADD MLOAD SWAP1 DUP6 ADD MSTORE AND SWAP2 ADD MSTORE JUMP JUMPDEST SUB SWAP7 PUSH3 0x4B8 DUP8 NOT SWAP9 DUP10 DUP2 ADD DUP4 MSTORE DUP3 PUSH3 0x10D3 JUMP JUMPDEST DUP10 MLOAD SWAP9 DUP10 SWAP4 PUSH3 0x4D1 DUP7 DUP7 ADD SWAP9 DUP10 SWAP3 MLOAD SWAP3 DUP4 SWAP2 PUSH3 0x11F3 JUMP JUMPDEST DUP5 ADD SWAP2 MLOAD DUP1 SWAP4 DUP7 DUP5 ADD SWAP1 PUSH3 0x11F3 JUMP JUMPDEST ADD SUB DUP1 DUP8 MSTORE ADD DUP6 PUSH3 0x10D3 JUMP JUMPDEST PUSH3 0x50C DUP6 MLOAD SWAP7 DUP8 SWAP6 DUP2 DUP8 MSTORE MLOAD SWAP3 DUP4 DUP1 SWAP3 DUP9 ADD MSTORE DUP8 DUP8 ADD SWAP1 PUSH3 0x11F3 JUMP JUMPDEST ADD AND DUP2 ADD SUB ADD SWAP1 RETURN JUMPDEST DUP1 REVERT JUMPDEST DUP3 DUP5 CALLVALUE PUSH3 0x515 JUMPI DUP1 PUSH1 0x3 NOT CALLDATASIZE ADD SLT PUSH3 0x515 JUMPI SWAP1 DUP1 MLOAD SWAP2 DUP3 SWAP1 PUSH1 0x2 SLOAD SWAP2 DUP3 DUP6 MSTORE PUSH1 0x20 DUP1 SWAP6 ADD DUP1 SWAP4 PUSH1 0x2 DUP5 MSTORE PUSH32 0x405787FA12A823E0F2B7631CC41B3BA8828B3321CA811111FA75CD3AA3BB5ACE SWAP1 DUP5 JUMPDEST DUP2 DUP2 LT PUSH3 0x5BE JUMPI POP POP POP DUP2 PUSH3 0x581 SWAP2 SUB DUP3 PUSH3 0x10D3 JUMP JUMPDEST DUP4 MLOAD SWAP5 DUP6 SWAP5 DUP2 DUP7 ADD SWAP3 DUP3 DUP8 MSTORE MLOAD DUP1 SWAP4 MSTORE DUP6 ADD SWAP4 SWAP3 JUMPDEST DUP3 DUP2 LT PUSH3 0x5A6 JUMPI POP POP POP POP SUB SWAP1 RETURN JUMPDEST DUP4 MLOAD DUP6 MSTORE DUP7 SWAP6 POP SWAP4 DUP2 ADD SWAP4 SWAP3 DUP2 ADD SWAP3 PUSH1 0x1 ADD PUSH3 0x596 JUMP JUMPDEST DUP3 SLOAD DUP5 MSTORE SWAP3 DUP9 ADD SWAP3 PUSH1 0x1 SWAP3 DUP4 ADD SWAP3 ADD PUSH3 0x568 JUMP JUMPDEST POP CALLVALUE PUSH3 0x1BA JUMPI PUSH1 0x20 CALLDATASIZE PUSH1 0x3 NOT ADD SLT PUSH3 0x1BA JUMPI CALLDATALOAD PUSH1 0x2 SLOAD DUP2 LT ISZERO PUSH3 0x1BA JUMPI PUSH1 0x2 PUSH1 0x20 SWAP4 MSTORE PUSH32 0x405787FA12A823E0F2B7631CC41B3BA8828B3321CA811111FA75CD3AA3BB5ACE ADD SLOAD SWAP1 MLOAD SWAP1 DUP2 MSTORE RETURN JUMPDEST POP SWAP2 SWAP1 CALLVALUE PUSH3 0x1F9 JUMPI DUP1 PUSH1 0x3 NOT CALLDATASIZE ADD SLT PUSH3 0x1F9 JUMPI PUSH8 0xFFFFFFFFFFFFFFFF SWAP2 DUP4 CALLDATALOAD DUP4 DUP2 GT PUSH3 0x1F9 JUMPI CALLDATASIZE PUSH1 0x23 DUP3 ADD SLT ISZERO PUSH3 0x1F9 JUMPI DUP1 DUP6 ADD CALLDATALOAD DUP5 DUP2 GT PUSH3 0x729 JUMPI DUP4 MLOAD SWAP1 PUSH3 0x67D PUSH1 0x1F DUP3 ADD PUSH1 0x1F NOT AND PUSH1 0x20 ADD DUP4 PUSH3 0x10D3 JUMP JUMPDEST DUP1 DUP3 MSTORE PUSH1 0x20 DUP3 ADD SWAP3 CALLDATASIZE PUSH1 0x24 DUP4 DUP4 ADD ADD GT PUSH3 0x725 JUMPI DUP2 DUP6 SWAP3 PUSH1 0x24 PUSH1 0x20 SWAP4 ADD DUP7 CALLDATACOPY DUP4 ADD ADD MSTORE MLOAD SWAP1 KECCAK256 SWAP2 DUP1 MLOAD SWAP2 PUSH1 0x20 DUP4 ADD SWAP4 PUSH32 0xFF00000000000000000000000000000000000000000000000000000000000000 DUP6 MSTORE ADDRESS PUSH1 0x60 SHL PUSH1 0x21 DUP6 ADD MSTORE PUSH1 0x24 CALLDATALOAD PUSH1 0x35 DUP6 ADD MSTORE PUSH1 0x55 DUP5 ADD MSTORE PUSH1 0x55 DUP4 MSTORE PUSH1 0x80 DUP4 ADD SWAP5 DUP4 DUP7 LT SWAP1 DUP7 GT OR PUSH3 0x712 JUMPI DUP5 DUP3 MSTORE DUP3 MLOAD DUP5 KECCAK256 PUSH1 0x1 PUSH1 0x1 PUSH1 0xA0 SHL SUB AND DUP6 MSTORE PUSH1 0x20 DUP6 RETURN JUMPDEST DUP1 PUSH1 0x41 DUP8 PUSH4 0x4E487B71 PUSH1 0xE0 SHL PUSH1 0x24 SWAP5 MSTORE MSTORE REVERT JUMPDEST DUP5 DUP1 REVERT JUMPDEST PUSH1 0x24 DUP4 PUSH1 0x41 DUP9 PUSH4 0x4E487B71 PUSH1 0xE0 SHL DUP4 MSTORE MSTORE REVERT JUMPDEST POP POP CALLVALUE PUSH3 0x1F9 JUMPI DUP2 PUSH1 0x3 NOT CALLDATASIZE ADD SLT PUSH3 0x1F9 JUMPI PUSH1 0x1 PUSH1 0x1 PUSH1 0xA0 SHL SUB PUSH1 0x20 SWAP3 SLOAD AND SWAP1 MLOAD SWAP1 DUP2 MSTORE RETURN JUMPDEST POP CALLVALUE PUSH3 0x1BA JUMPI PUSH1 0x20 SWAP2 DUP3 PUSH1 0x3 NOT CALLDATASIZE ADD SLT PUSH3 0x39D JUMPI PUSH3 0x784 PUSH3 0x110C JUMP JUMPDEST SWAP2 PUSH3 0x78F PUSH3 0x130B JUMP JUMPDEST PUSH1 0x1 PUSH1 0x1 PUSH1 0xA0 SHL SUB DUP1 SWAP4 AND SWAP3 DUP6 SLOAD AND SWAP1 DUP6 DUP4 MLOAD SWAP5 PUSH32 0x70A0823100000000000000000000000000000000000000000000000000000000 DUP7 MSTORE ADDRESS DUP4 DUP8 ADD MSTORE DUP7 DUP7 PUSH1 0x24 DUP2 DUP5 GAS STATICCALL SWAP6 DUP7 ISZERO PUSH3 0x8AD JUMPI SWAP1 DUP3 SWAP2 DUP9 SWAP6 SWAP5 SWAP4 SWAP8 PUSH3 0x871 JUMPI JUMPDEST POP SWAP1 PUSH1 0x44 SWAP3 SWAP2 DUP7 MLOAD SWAP8 DUP9 SWAP6 DUP7 SWAP5 PUSH32 0xA9059CBB00000000000000000000000000000000000000000000000000000000 DUP7 MSTORE DUP6 ADD MSTORE PUSH1 0x24 DUP5 ADD MSTORE GAS CALL SWAP1 DUP2 ISZERO PUSH3 0x868 JUMPI POP PUSH3 0x835 JUMPI DUP3 DUP1 RETURN JUMPDEST DUP2 PUSH3 0x859 SWAP3 SWAP1 RETURNDATASIZE LT PUSH3 0x860 JUMPI JUMPDEST PUSH3 0x850 DUP2 DUP4 PUSH3 0x10D3 JUMP JUMPDEST DUP2 ADD SWAP1 PUSH3 0x1271 JUMP JUMPDEST POP CODESIZE DUP1 DUP3 DUP1 RETURN JUMPDEST POP RETURNDATASIZE PUSH3 0x844 JUMP JUMPDEST MLOAD RETURNDATASIZE DUP6 DUP3 RETURNDATACOPY RETURNDATASIZE SWAP1 REVERT JUMPDEST DUP6 DUP2 SWAP5 SWAP4 SWAP7 SWAP3 SWAP9 POP RETURNDATASIZE DUP4 GT PUSH3 0x8A5 JUMPI JUMPDEST PUSH3 0x88E DUP2 DUP4 PUSH3 0x10D3 JUMP JUMPDEST DUP2 ADD SUB SLT PUSH3 0x39D JUMPI SWAP1 MLOAD SWAP5 DUP7 SWAP4 SWAP1 PUSH1 0x44 PUSH3 0x7E9 JUMP JUMPDEST POP RETURNDATASIZE PUSH3 0x882 JUMP JUMPDEST DUP6 MLOAD RETURNDATASIZE DUP5 DUP3 RETURNDATACOPY RETURNDATASIZE SWAP1 REVERT JUMPDEST DUP4 CALLVALUE PUSH3 0x515 JUMPI DUP1 PUSH1 0x3 NOT CALLDATASIZE ADD SLT PUSH3 0x515 JUMPI PUSH3 0x8D4 PUSH3 0x130B JUMP JUMPDEST DUP1 PUSH1 0x1 PUSH1 0x1 PUSH1 0xA0 SHL SUB DUP2 SLOAD PUSH20 0xFFFFFFFFFFFFFFFFFFFFFFFFFFFFFFFFFFFFFFFF NOT DUP2 AND DUP4 SSTORE AND PUSH32 0x8BE0079C531659141344CD1FD0A4F28419497F9722A3DAAFE3B4186F6B6457E0 DUP3 DUP1 LOG3 DUP1 RETURN JUMPDEST POP POP CALLVALUE PUSH3 0x1F9 JUMPI DUP1 PUSH1 0x3 NOT CALLDATASIZE ADD SLT PUSH3 0x1F9 JUMPI PUSH3 0x93F PUSH3 0x110C JUMP JUMPDEST PUSH1 0x24 CALLDATALOAD SWAP3 PUSH1 0x1 PUSH1 0x1 PUSH1 0xA0 SHL SUB DUP1 SWAP3 AND DUP2 MSTORE PUSH1 0x1 PUSH1 0x20 MSTORE DUP3 DUP2 KECCAK256 SWAP1 DUP2 SLOAD DUP6 LT ISZERO PUSH3 0x515 JUMPI POP PUSH1 0x20 SWAP4 PUSH3 0x972 SWAP2 PUSH3 0x11C4 JUMP JUMPDEST SWAP3 SWAP1 SLOAD SWAP1 MLOAD SWAP3 PUSH1 0x3 SHL SHR AND DUP2 MSTORE RETURN JUMPDEST POP POP CALLVALUE PUSH3 0x1F9 JUMPI PUSH2 0x160 CALLDATASIZE PUSH1 0x3 NOT ADD SLT PUSH3 0x1F9 JUMPI PUSH1 0x20 SWAP1 PUSH3 0x9A5 CALLDATASIZE PUSH3 0x1128 JUMP JUMPDEST PUSH9 0x56BC75E2D63100000 PUSH1 0x60 DUP3 ADD MLOAD SWAP2 PUSH1 0x80 PUSH1 0xE0 DUP3 ADD MLOAD DUP6 DUP4 ADD MLOAD MUL SWAP2 ADD MLOAD MUL DIV ADD SWAP1 MLOAD SWAP1 DUP2 MSTORE RETURN JUMPDEST POP POP CALLVALUE PUSH3 0x1F9 JUMPI PUSH1 0x20 SWAP2 DUP3 PUSH1 0x3 NOT CALLDATASIZE ADD SLT PUSH3 0x515 JUMPI PUSH1 0x1 PUSH1 0x1 PUSH1 0xA0 SHL SUB SWAP1 DUP2 PUSH3 0x9F9 PUSH3 0x110C JUMP JUMPDEST AND DUP2 MSTORE PUSH1 0x1 SWAP2 PUSH1 0x1 DUP6 MSTORE DUP4 DUP3 KECCAK256 SWAP5 DUP5 MLOAD SWAP2 DUP3 DUP3 DUP9 SLOAD SWAP2 DUP3 DUP2 MSTORE ADD SWAP1 DUP2 SWAP9 DUP7 MSTORE DUP4 DUP7 KECCAK256 SWAP1 DUP7 JUMPDEST DUP2 DUP2 LT PUSH3 0xA71 JUMPI POP POP POP DUP4 PUSH3 0xA37 SWAP2 SUB DUP5 PUSH3 0x10D3 JUMP JUMPDEST DUP6 MLOAD SWAP6 DUP3 DUP8 ADD SWAP4 DUP4 DUP9 MSTORE MLOAD DUP1 SWAP5 MSTORE DUP7 ADD SWAP7 SWAP4 SWAP1 JUMPDEST DUP4 DUP3 LT PUSH3 0xA59 JUMPI DUP7 DUP9 SUB DUP8 RETURN JUMPDEST DUP5 MLOAD DUP2 AND DUP9 MSTORE SWAP7 DUP3 ADD SWAP7 SWAP4 DUP3 ADD SWAP4 SWAP1 DUP6 ADD SWAP1 PUSH3 0xA4B JUMP JUMPDEST DUP3 SLOAD DUP6 AND DUP5 MSTORE SWAP3 DUP6 ADD SWAP3 SWAP2 DUP9 ADD SWAP2 DUP9 ADD PUSH3 0xA1E JUMP JUMPDEST POP SWAP2 CALLVALUE PUSH3 0x515 JUMPI PUSH1 0xA0 CALLDATASIZE PUSH1 0x3 NOT ADD SLT PUSH3 0x515 JUMPI POP PUSH3 0xABB PUSH1 0x20 SWAP3 PUSH1 0x84 CALLDATALOAD SWAP1 PUSH1 0x64 CALLDATALOAD SWAP1 PUSH1 0x44 CALLDATALOAD SWAP1 PUSH1 0x24 CALLDATALOAD SWAP1 CALLDATALOAD PUSH3 0x129A JUMP JUMPDEST SWAP1 MLOAD SWAP1 DUP2 MSTORE RETURN JUMPDEST POP POP CALLVALUE PUSH3 0x1F9 JUMPI DUP2 PUSH1 0x3 NOT CALLDATASIZE ADD SLT PUSH3 0x1F9 JUMPI PUSH3 0xAE0 PUSH3 0x130B JUMP JUMPDEST DUP2 DUP1 DUP1 DUP1 PUSH1 0x1 PUSH1 0x1 PUSH1 0xA0 SHL SUB DUP2 SLOAD AND SELFBALANCE SWAP1 DUP3 DUP3 ISZERO PUSH3 0xB0F JUMPI JUMPDEST CALL ISZERO PUSH3 0xB05 JUMPI POP DUP1 RETURN JUMPDEST MLOAD SWAP1 RETURNDATASIZE SWAP1 DUP3 RETURNDATACOPY RETURNDATASIZE SWAP1 REVERT JUMPDEST POP PUSH2 0x8FC PUSH3 0xAFA JUMP JUMPDEST POP SWAP2 SWAP1 PUSH2 0x160 CALLDATASIZE PUSH1 0x3 NOT ADD SLT PUSH3 0x1F9 JUMPI PUSH3 0xB35 CALLDATASIZE PUSH3 0x1128 JUMP JUMPDEST SWAP1 PUSH1 0x2 SLOAD ISZERO PUSH3 0x105D JUMPI PUSH1 0x2 DUP4 MSTORE PUSH32 0x405787FA12A823E0F2B7631CC41B3BA8828B3321CA811111FA75CD3AA3BB5ACE SLOAD CALLVALUE LT PUSH3 0xFF5 JUMPI PUSH1 0xE0 DUP3 ADD SWAP4 PUSH1 0x3C DUP6 MLOAD LT PUSH3 0xF67 JUMPI PUSH2 0x100 DUP4 ADD PUSH1 0x28 DUP2 MLOAD GT PUSH3 0xED8 JUMPI PUSH3 0xB9C PUSH1 0x64 SWAP2 DUP8 MLOAD SWAP1 MLOAD SWAP1 PUSH3 0x1263 JUMP JUMPDEST SUB PUSH3 0xE4A JUMPI DUP2 DUP4 ADD MLOAD PUSH1 0x60 DUP5 ADD MLOAD SWAP6 MLOAD SWAP1 PUSH1 0x80 DUP6 ADD MLOAD PUSH1 0x1 PUSH1 0x1 PUSH1 0xA0 SHL SUB SWAP3 DUP4 DUP8 MLOAD AND SWAP9 DUP7 MLOAD DUP1 SWAP11 PUSH32 0x313CE56700000000000000000000000000000000000000000000000000000000 DUP3 MSTORE DUP2 DUP9 PUSH1 0x20 SWAP14 DUP15 SWAP4 GAS STATICCALL SWAP1 DUP2 ISZERO PUSH3 0xE40 JUMPI DUP11 SWAP2 PUSH3 0xDFD JUMPI JUMPDEST POP SWAP1 PUSH1 0xFF PUSH3 0xC15 SWAP6 SWAP5 SWAP4 SWAP3 AND SWAP4 PUSH3 0x129A JUMP JUMPDEST SWAP1 CALLER DUP7 MSTORE PUSH1 0x1 DUP8 MSTORE DUP4 DUP7 KECCAK256 SLOAD DUP5 MLOAD PUSH2 0x1B34 DUP1 DUP3 ADD SWAP1 DUP3 DUP3 LT PUSH8 0xFFFFFFFFFFFFFFFF DUP4 GT OR PUSH3 0xDEA JUMPI DUP3 SWAP2 PUSH3 0xCCD SWAP2 PUSH3 0x1351 DUP5 CODECOPY DUP10 MLOAD PUSH1 0x1 PUSH1 0x1 PUSH1 0xA0 SHL SUB AND DUP2 MSTORE PUSH1 0x20 DUP1 DUP12 ADD MLOAD SWAP1 DUP3 ADD MSTORE PUSH1 0x40 DUP1 DUP12 ADD MLOAD SWAP1 DUP3 ADD MSTORE PUSH1 0x60 DUP1 DUP12 ADD MLOAD SWAP1 DUP3 ADD MSTORE PUSH1 0x80 DUP1 DUP12 ADD MLOAD SWAP1 DUP3 ADD MSTORE PUSH1 0xA0 DUP1 DUP12 ADD MLOAD SWAP1 DUP3 ADD MSTORE PUSH1 0xC0 DUP1 DUP12 ADD MLOAD SWAP1 DUP3 ADD MSTORE PUSH1 0xE0 DUP1 DUP12 ADD MLOAD SWAP1 DUP3 ADD MSTORE PUSH2 0x100 DUP1 DUP12 ADD MLOAD SWAP1 DUP3 ADD MSTORE PUSH2 0x120 DUP1 DUP12 ADD MLOAD SWAP1 DUP3 ADD MSTORE PUSH2 0x140 DUP1 DUP12 ADD MLOAD SWAP1 DUP3 ADD MSTORE CALLER PUSH2 0x160 DUP3 ADD MSTORE PUSH2 0x180 ADD SWAP1 JUMP JUMPDEST SUB SWAP1 DUP9 CREATE2 DUP1 ISZERO PUSH3 0xDE0 JUMPI DUP2 AND SWAP5 CALLER DUP8 MSTORE PUSH1 0x1 DUP9 MSTORE DUP5 DUP8 KECCAK256 DUP1 SLOAD SWAP1 PUSH9 0x10000000000000000 DUP3 LT ISZERO PUSH3 0xDCD JUMPI SWAP2 PUSH3 0xD12 DUP3 PUSH1 0x64 SWAP5 PUSH1 0x1 DUP14 SWAP9 SWAP8 SWAP6 ADD DUP2 SSTORE PUSH3 0x11C4 JUMP JUMPDEST DUP2 SLOAD SWAP1 PUSH1 0x3 SHL SWAP1 DUP5 DUP12 DUP4 SHL SWAP3 SHL NOT AND OR SWAP1 SSTORE MLOAD AND SWAP4 DUP8 DUP7 MLOAD SWAP6 DUP7 SWAP5 DUP6 SWAP4 PUSH32 0x23B872DD00000000000000000000000000000000000000000000000000000000 DUP6 MSTORE CALLER SWAP1 DUP6 ADD MSTORE DUP10 PUSH1 0x24 DUP6 ADD MSTORE PUSH1 0x44 DUP5 ADD MSTORE GAS CALL DUP1 ISZERO PUSH3 0xDC3 JUMPI SWAP1 DUP4 SWAP3 SWAP2 PUSH3 0xDA1 JUMPI JUMPDEST POP MLOAD SWAP3 PUSH32 0x3E898072F60C1097FFD1556EC02786C3AF00B0F9A3C971DB360F7539ABEB6D21 CALLER SWAP2 DUP1 LOG3 DUP2 MSTORE RETURN JUMPDEST PUSH3 0xDBB SWAP1 DUP7 RETURNDATASIZE DUP9 GT PUSH3 0x860 JUMPI PUSH3 0x850 DUP2 DUP4 PUSH3 0x10D3 JUMP JUMPDEST POP CODESIZE PUSH3 0xD75 JUMP JUMPDEST DUP3 MLOAD RETURNDATASIZE DUP7 DUP3 RETURNDATACOPY RETURNDATASIZE SWAP1 REVERT JUMPDEST PUSH1 0x24 DUP10 PUSH1 0x41 DUP9 PUSH4 0x4E487B71 PUSH1 0xE0 SHL DUP4 MSTORE MSTORE REVERT JUMPDEST DUP5 MLOAD RETURNDATASIZE DUP9 DUP3 RETURNDATACOPY RETURNDATASIZE SWAP1 REVERT JUMPDEST PUSH1 0x24 DUP11 PUSH1 0x41 DUP10 PUSH4 0x4E487B71 PUSH1 0xE0 SHL DUP4 MSTORE MSTORE REVERT JUMPDEST SWAP1 POP DUP11 DUP2 DUP2 RETURNDATASIZE DUP4 GT PUSH3 0xE38 JUMPI JUMPDEST PUSH3 0xE17 DUP2 DUP4 PUSH3 0x10D3 JUMP JUMPDEST DUP2 ADD SUB SLT PUSH3 0xE34 JUMPI MLOAD PUSH1 0xFF DUP2 AND DUP2 SUB PUSH3 0xE34 JUMPI PUSH1 0xFF PUSH3 0xC01 JUMP JUMPDEST DUP10 DUP1 REVERT JUMPDEST POP RETURNDATASIZE PUSH3 0xE0B JUMP JUMPDEST DUP9 MLOAD RETURNDATASIZE DUP13 DUP3 RETURNDATACOPY RETURNDATASIZE SWAP1 REVERT JUMPDEST PUSH1 0x20 PUSH1 0xA4 SWAP3 MLOAD SWAP2 PUSH3 0x461BCD PUSH1 0xE5 SHL DUP4 MSTORE DUP3 ADD MSTORE PUSH1 0x5F PUSH1 0x24 DUP3 ADD MSTORE PUSH32 0x546872757374706164466169724C61756E6368466163746F72793A2070657263 PUSH1 0x44 DUP3 ADD MSTORE PUSH32 0x656E7461676520666F72204C6971756964697479202B2070657263656E746167 PUSH1 0x64 DUP3 ADD MSTORE PUSH32 0x6520666F72205465616D206D75737420626520657175616C20746F2031303000 PUSH1 0x84 DUP3 ADD MSTORE REVERT JUMPDEST POP PUSH1 0x20 PUSH1 0xA4 SWAP3 MLOAD SWAP2 PUSH3 0x461BCD PUSH1 0xE5 SHL DUP4 MSTORE DUP3 ADD MSTORE PUSH1 0x46 PUSH1 0x24 DUP3 ADD MSTORE PUSH32 0x546872757374706164466169724C61756E6368466163746F72793A2070657263 PUSH1 0x44 DUP3 ADD MSTORE PUSH32 0x656E7461676520666F72205465616D2063616E6E6F74206265206C6573732074 PUSH1 0x64 DUP3 ADD MSTORE PUSH32 0x68616E2034300000000000000000000000000000000000000000000000000000 PUSH1 0x84 DUP3 ADD MSTORE REVERT JUMPDEST PUSH1 0x20 PUSH1 0xA4 SWAP3 MLOAD SWAP2 PUSH3 0x461BCD PUSH1 0xE5 SHL DUP4 MSTORE DUP3 ADD MSTORE PUSH1 0x4B PUSH1 0x24 DUP3 ADD MSTORE PUSH32 0x546872757374706164466169724C61756E6368466163746F72793A2070657263 PUSH1 0x44 DUP3 ADD MSTORE PUSH32 0x656E7461676520666F72204C69717569646974792063616E6E6F74206265206C PUSH1 0x64 DUP3 ADD MSTORE PUSH32 0x657373207468616E203630000000000000000000000000000000000000000000 PUSH1 0x84 DUP3 ADD MSTORE REVERT JUMPDEST MLOAD PUSH3 0x461BCD PUSH1 0xE5 SHL DUP2 MSTORE PUSH1 0x20 DUP2 DUP6 ADD MSTORE PUSH1 0x2C PUSH1 0x24 DUP3 ADD MSTORE PUSH32 0x546872757374706164466169724C61756E6368466163746F72793A20496E7375 PUSH1 0x44 DUP3 ADD MSTORE PUSH32 0x6666696369656E74206665650000000000000000000000000000000000000000 PUSH1 0x64 DUP3 ADD MSTORE PUSH1 0x84 SWAP1 REVERT JUMPDEST PUSH1 0x24 DUP4 PUSH1 0x32 DUP7 PUSH4 0x4E487B71 PUSH1 0xE0 SHL DUP4 MSTORE MSTORE REVERT JUMPDEST POP SWAP2 CALLVALUE PUSH3 0x515 JUMPI PUSH1 0x60 CALLDATASIZE PUSH1 0x3 NOT ADD SLT PUSH3 0x515 JUMPI PUSH1 0x44 CALLDATALOAD PUSH1 0xFF DUP2 AND DUP1 SWAP2 SUB PUSH3 0x1F9 JUMPI PUSH3 0x10A3 PUSH1 0x24 CALLDATALOAD DUP6 CALLDATALOAD PUSH3 0x1218 JUMP JUMPDEST SWAP2 PUSH1 0x4D DUP3 GT PUSH3 0x10C0 JUMPI PUSH1 0x20 DUP5 PUSH3 0xABB DUP6 DUP6 PUSH1 0xA EXP SWAP1 PUSH3 0x1239 JUMP JUMPDEST DUP1 PUSH1 0x11 DUP7 PUSH4 0x4E487B71 PUSH1 0xE0 SHL PUSH1 0x24 SWAP5 MSTORE MSTORE REVERT JUMPDEST SWAP1 PUSH1 0x1F DUP1 NOT SWAP2 ADD AND DUP2 ADD SWAP1 DUP2 LT PUSH8 0xFFFFFFFFFFFFFFFF DUP3 GT OR PUSH3 0x10F6 JUMPI PUSH1 0x40 MSTORE JUMP JUMPDEST PUSH4 0x4E487B71 PUSH1 0xE0 SHL PUSH1 0x0 MSTORE PUSH1 0x41 PUSH1 0x4 MSTORE PUSH1 0x24 PUSH1 0x0 REVERT JUMPDEST PUSH1 0x4 CALLDATALOAD SWAP1 PUSH1 0x1 PUSH1 0x1 PUSH1 0xA0 SHL SUB DUP3 AND DUP3 SUB PUSH3 0x1123 JUMPI JUMP JUMPDEST PUSH1 0x0 DUP1 REVERT JUMPDEST SWAP1 PUSH2 0x160 DUP1 SWAP3 PUSH1 0x3 NOT ADD SLT PUSH3 0x1123 JUMPI PUSH1 0x40 MLOAD SWAP2 DUP3 ADD DUP3 DUP2 LT PUSH8 0xFFFFFFFFFFFFFFFF DUP3 GT OR PUSH3 0x10F6 JUMPI PUSH1 0x40 MSTORE DUP2 PUSH1 0x4 CALLDATALOAD PUSH1 0x1 PUSH1 0x1 PUSH1 0xA0 SHL SUB DUP2 AND DUP2 SUB PUSH3 0x1123 JUMPI DUP2 MSTORE PUSH1 0x24 CALLDATALOAD PUSH1 0x20 DUP3 ADD MSTORE PUSH1 0x44 CALLDATALOAD PUSH1 0x40 DUP3 ADD MSTORE PUSH1 0x64 CALLDATALOAD PUSH1 0x60 DUP3 ADD MSTORE PUSH1 0x84 CALLDATALOAD PUSH1 0x80 DUP3 ADD MSTORE PUSH1 0xA4 CALLDATALOAD PUSH1 0xA0 DUP3 ADD MSTORE PUSH1 0xC4 CALLDATALOAD PUSH1 0xC0 DUP3 ADD MSTORE PUSH1 0xE4 CALLDATALOAD PUSH1 0xE0 DUP3 ADD MSTORE PUSH2 0x104 CALLDATALOAD PUSH2 0x100 DUP3 ADD MSTORE PUSH2 0x124 CALLDATALOAD PUSH2 0x120 DUP3 ADD MSTORE PUSH2 0x140 PUSH2 0x144 CALLDATALOAD SWAP2 ADD MSTORE JUMP JUMPDEST DUP1 SLOAD DUP3 LT ISZERO PUSH3 0x11DD JUMPI PUSH1 0x0 MSTORE PUSH1 0x20 PUSH1 0x0 KECCAK256 ADD SWAP1 PUSH1 0x0 SWAP1 JUMP JUMPDEST PUSH4 0x4E487B71 PUSH1 0xE0 SHL PUSH1 0x0 MSTORE PUSH1 0x32 PUSH1 0x4 MSTORE PUSH1 0x24 PUSH1 0x0 REVERT JUMPDEST PUSH1 0x0 JUMPDEST DUP4 DUP2 LT PUSH3 0x1207 JUMPI POP POP PUSH1 0x0 SWAP2 ADD MSTORE JUMP JUMPDEST DUP2 DUP2 ADD MLOAD DUP4 DUP3 ADD MSTORE PUSH1 0x20 ADD PUSH3 0x11F6 JUMP JUMPDEST DUP2 ISZERO PUSH3 0x1223 JUMPI DIV SWAP1 JUMP JUMPDEST PUSH4 0x4E487B71 PUSH1 0xE0 SHL PUSH1 0x0 MSTORE PUSH1 0x12 PUSH1 0x4 MSTORE PUSH1 0x24 PUSH1 0x0 REVERT JUMPDEST DUP2 DUP2 MUL SWAP3 SWAP2 DUP2 ISZERO SWAP2 DUP5 DIV EQ OR ISZERO PUSH3 0x124D JUMPI JUMP JUMPDEST PUSH4 0x4E487B71 PUSH1 0xE0 SHL PUSH1 0x0 MSTORE PUSH1 0x11 PUSH1 0x4 MSTORE PUSH1 0x24 PUSH1 0x0 REVERT JUMPDEST SWAP2 SWAP1 DUP3 ADD DUP1 SWAP3 GT PUSH3 0x124D JUMPI JUMP JUMPDEST SWAP1 DUP2 PUSH1 0x20 SWAP2 SUB SLT PUSH3 0x1123 JUMPI MLOAD DUP1 ISZERO ISZERO DUP2 SUB PUSH3 0x1123 JUMPI SWAP1 JUMP JUMPDEST PUSH1 0x4D DUP2 GT PUSH3 0x124D JUMPI PUSH1 0xA EXP SWAP1 JUMP JUMPDEST PUSH3 0x12AD SWAP1 PUSH3 0x12B3 SWAP4 SWAP5 SWAP3 SWAP5 PUSH3 0x1239 JUMP JUMPDEST PUSH3 0x1239 JUMP JUMPDEST DUP3 PUSH1 0x12 ADD DUP1 PUSH1 0x12 GT PUSH3 0x124D JUMPI PUSH3 0x12CB SWAP1 PUSH3 0x128B JUMP JUMPDEST SWAP3 DUP4 PUSH1 0x64 MUL SWAP4 PUSH1 0x64 DUP6 DIV SUB PUSH3 0x124D JUMPI PUSH3 0x12FA PUSH3 0x12F3 PUSH3 0x1308 SWAP6 PUSH3 0x1301 SWAP5 PUSH3 0x1218 JUMP JUMPDEST SWAP2 PUSH3 0x128B JUMP JUMPDEST SWAP1 PUSH3 0x1239 JUMP JUMPDEST SWAP1 PUSH3 0x1263 JUMP JUMPDEST SWAP1 JUMP JUMPDEST PUSH1 0x1 PUSH1 0x1 PUSH1 0xA0 SHL SUB PUSH1 0x0 SLOAD AND CALLER SUB PUSH3 0x1320 JUMPI JUMP JUMPDEST PUSH1 0x24 PUSH1 0x40 MLOAD PUSH32 0x118CDAA700000000000000000000000000000000000000000000000000000000 DUP2 MSTORE CALLER PUSH1 0x4 DUP3 ADD MSTORE REVERT INVALID PUSH1 0x80 CALLVALUE PUSH3 0x220 JUMPI PUSH1 0x1F PUSH3 0x1B34 CODESIZE DUP2 SWAP1 SUB SWAP2 DUP3 ADD PUSH1 0x1F NOT AND DUP4 ADD SWAP3 SWAP2 PUSH1 0x1 PUSH1 0x1 PUSH1 0x40 SHL SUB SWAP2 SWAP1 DUP3 DUP6 GT DUP5 DUP7 LT OR PUSH3 0x20A JUMPI DUP1 DUP5 SWAP3 PUSH1 0x40 SWAP7 DUP8 MSTORE DUP4 CODECOPY DUP2 ADD SUB SWAP3 PUSH2 0x180 DUP5 SLT PUSH3 0x220 JUMPI PUSH2 0x160 DUP1 SWAP5 SLT PUSH3 0x220 JUMPI DUP1 MLOAD SWAP2 DUP5 DUP4 ADD SWAP1 DUP2 GT DUP4 DUP3 LT OR PUSH3 0x20A JUMPI DUP2 MSTORE PUSH3 0x74 DUP4 PUSH3 0x225 JUMP JUMPDEST DUP3 MSTORE PUSH1 0x20 DUP4 ADD MLOAD PUSH1 0x20 DUP4 ADD SWAP1 DUP2 MSTORE DUP2 DUP5 ADD MLOAD DUP3 DUP5 ADD SWAP1 DUP2 MSTORE PUSH1 0x60 DUP6 ADD MLOAD PUSH1 0x60 DUP6 ADD SWAP1 DUP2 MSTORE PUSH1 0x80 DUP7 ADD MLOAD PUSH1 0x80 DUP7 ADD SWAP1 DUP2 MSTORE PUSH1 0xA0 DUP8 ADD MLOAD SWAP2 PUSH1 0xA0 DUP8 ADD SWAP3 DUP4 MSTORE PUSH1 0xC0 DUP9 ADD MLOAD SWAP4 PUSH1 0xC0 DUP9 ADD SWAP5 DUP6 MSTORE PUSH1 0xE0 DUP10 ADD MLOAD SWAP6 PUSH1 0xE0 DUP10 ADD SWAP7 DUP8 MSTORE PUSH2 0x100 SWAP8 DUP9 DUP12 ADD MLOAD SWAP9 DUP11 ADD SWAP9 DUP10 MSTORE PUSH2 0x120 SWAP10 DUP11 DUP13 ADD MLOAD SWAP11 DUP2 ADD SWAP11 DUP12 MSTORE PUSH2 0x140 SWAP12 DUP13 DUP2 ADD MLOAD SWAP13 DUP3 ADD SWAP13 DUP14 MSTORE PUSH3 0x10A PUSH1 0x1 DUP1 PUSH1 0xA0 SHL SUB SWAP15 DUP16 SWAP3 ADD PUSH3 0x225 JUMP JUMPDEST AND DUP1 ISZERO PUSH3 0x1F2 JUMPI PUSH1 0x0 DUP1 SLOAD PUSH1 0x1 PUSH1 0x1 PUSH1 0xA0 SHL SUB NOT DUP1 DUP3 AND DUP5 OR DUP4 SSTORE SWAP5 MLOAD SWAP16 SWAP4 SWAP3 SWAP2 SWAP1 DUP5 AND SWAP1 PUSH32 0x8BE0079C531659141344CD1FD0A4F28419497F9722A3DAAFE3B4186F6B6457E0 SWAP1 DUP1 LOG3 PUSH1 0x1 DUP1 SSTORE PUSH20 0xA9CBEF0C9274F985340816ED2074ABF5AAC25463 DUP4 PUSH1 0x12 SLOAD AND OR PUSH1 0x12 SSTORE PUSH20 0x135E304139C5113895C97DCE8B9EDA56D4B53CF9 DUP4 PUSH1 0x13 SLOAD AND OR PUSH1 0x13 SSTORE PUSH20 0xB5CAB4E42CB5F16D00C644CB7163F8B427D7A8BF DUP4 PUSH1 0x14 SLOAD AND OR PUSH1 0x14 SSTORE MLOAD AND SWAP1 PUSH1 0x2 SLOAD AND OR PUSH1 0x2 SSTORE MLOAD PUSH1 0x3 SSTORE MLOAD PUSH1 0x4 SSTORE MLOAD PUSH1 0x5 SSTORE MLOAD PUSH1 0x6 SSTORE MLOAD PUSH1 0x7 SSTORE MLOAD PUSH1 0x8 SSTORE MLOAD PUSH1 0x9 SSTORE MLOAD PUSH1 0xA SSTORE MLOAD PUSH1 0xB SSTORE MLOAD PUSH1 0xC SSTORE PUSH2 0x18F9 SWAP1 DUP2 PUSH3 0x23B DUP3 CODECOPY RETURN JUMPDEST DUP3 MLOAD PUSH4 0x1E4FBDF7 PUSH1 0xE0 SHL DUP2 MSTORE PUSH1 0x0 PUSH1 0x4 DUP3 ADD MSTORE PUSH1 0x24 SWAP1 REVERT JUMPDEST PUSH4 0x4E487B71 PUSH1 0xE0 SHL PUSH1 0x0 MSTORE PUSH1 0x41 PUSH1 0x4 MSTORE PUSH1 0x24 PUSH1 0x0 REVERT JUMPDEST PUSH1 0x0 DUP1 REVERT JUMPDEST MLOAD SWAP1 PUSH1 0x1 PUSH1 0x1 PUSH1 0xA0 SHL SUB DUP3 AND DUP3 SUB PUSH3 0x220 JUMPI JUMP INVALID PUSH1 0x80 DUP1 PUSH1 0x40 MSTORE PUSH1 0x4 CALLDATASIZE LT ISZERO PUSH2 0x1D JUMPI JUMPDEST POP CALLDATASIZE ISZERO PUSH2 0x1B JUMPI PUSH1 0x0 DUP1 REVERT JUMPDEST STOP JUMPDEST PUSH1 0x0 CALLDATALOAD PUSH1 0xE0 SHR SWAP1 DUP2 PUSH4 0x2F334652 EQ PUSH2 0x14CD JUMPI POP DUP1 PUSH4 0x38AF6632 EQ PUSH2 0x1337 JUMPI DUP1 PUSH4 0x4086BF89 EQ PUSH2 0xC6D JUMPI DUP1 PUSH4 0x48C54B9D EQ PUSH2 0xB3F JUMPI DUP1 PUSH4 0x62EBA8B0 EQ PUSH2 0xB18 JUMPI DUP1 PUSH4 0x677342CE EQ PUSH2 0xAF2 JUMPI DUP1 PUSH4 0x715018A6 EQ PUSH2 0xA8C JUMPI DUP1 PUSH4 0x79502C55 EQ PUSH2 0xA0C JUMPI DUP1 PUSH4 0x7D7CF6C5 EQ PUSH2 0x9E5 JUMPI DUP1 PUSH4 0x8DA5CB5B EQ PUSH2 0x9BE JUMPI DUP1 PUSH4 0x9106D7BA EQ PUSH2 0x9A0 JUMPI DUP1 PUSH4 0x953B7EF8 EQ PUSH2 0x873 JUMPI DUP1 PUSH4 0x97D56997 EQ PUSH2 0x84C JUMPI DUP1 PUSH4 0x9C5913CC EQ PUSH2 0x829 JUMPI DUP1 PUSH4 0xA4821719 EQ PUSH2 0x4D7 JUMPI DUP1 PUSH4 0xB5545A3C EQ PUSH2 0x3BE JUMPI DUP1 PUSH4 0xC3828BF0 EQ PUSH2 0x394 JUMPI DUP1 PUSH4 0xC884EF83 EQ PUSH2 0x35A JUMPI DUP1 PUSH4 0xCD309EC9 EQ PUSH2 0x328 JUMPI DUP1 PUSH4 0xD812195C EQ PUSH2 0x2DE JUMPI DUP1 PUSH4 0xDBF0F3E2 EQ PUSH2 0x23B JUMPI DUP1 PUSH4 0xE45F2B8A EQ PUSH2 0x201 JUMPI DUP1 PUSH4 0xF251FC8C EQ PUSH2 0x1E3 JUMPI PUSH4 0xF2FDE38B EQ PUSH2 0x132 JUMPI CODESIZE PUSH2 0xF JUMP JUMPDEST CALLVALUE PUSH2 0x1DE JUMPI PUSH1 0x20 CALLDATASIZE PUSH1 0x3 NOT ADD SLT PUSH2 0x1DE JUMPI PUSH2 0x14B PUSH2 0x14F0 JUMP JUMPDEST PUSH2 0x153 PUSH2 0x1844 JUMP JUMPDEST PUSH1 0x1 PUSH1 0x1 PUSH1 0xA0 SHL SUB DUP1 SWAP2 AND SWAP1 DUP2 ISZERO PUSH2 0x1AD JUMPI PUSH1 0x0 SLOAD DUP3 PUSH20 0xFFFFFFFFFFFFFFFFFFFFFFFFFFFFFFFFFFFFFFFF NOT DUP3 AND OR PUSH1 0x0 SSTORE AND PUSH32 0x8BE0079C531659141344CD1FD0A4F28419497F9722A3DAAFE3B4186F6B6457E0 PUSH1 0x0 DUP1 LOG3 STOP JUMPDEST PUSH1 0x24 PUSH1 0x40 MLOAD PUSH32 0x1E4FBDF700000000000000000000000000000000000000000000000000000000 DUP2 MSTORE PUSH1 0x0 PUSH1 0x4 DUP3 ADD MSTORE REVERT JUMPDEST PUSH1 0x0 DUP1 REVERT JUMPDEST CALLVALUE PUSH2 0x1DE JUMPI PUSH1 0x0 CALLDATASIZE PUSH1 0x3 NOT ADD SLT PUSH2 0x1DE JUMPI PUSH1 0x20 PUSH1 0xE SLOAD PUSH1 0x40 MLOAD SWAP1 DUP2 MSTORE RETURN JUMPDEST CALLVALUE PUSH2 0x1DE JUMPI PUSH1 0x20 CALLDATASIZE PUSH1 0x3 NOT ADD SLT PUSH2 0x1DE JUMPI PUSH1 0x1 PUSH1 0x1 PUSH1 0xA0 SHL SUB PUSH2 0x222 PUSH2 0x14F0 JUMP JUMPDEST AND PUSH1 0x0 MSTORE PUSH1 0x10 PUSH1 0x20 MSTORE PUSH1 0x20 PUSH1 0x40 PUSH1 0x0 KECCAK256 SLOAD PUSH1 0x40 MLOAD SWAP1 DUP2 MSTORE RETURN JUMPDEST CALLVALUE PUSH2 0x1DE JUMPI PUSH1 0x40 CALLDATASIZE PUSH1 0x3 NOT ADD SLT PUSH2 0x1DE JUMPI PUSH2 0x254 PUSH2 0x14F0 JUMP JUMPDEST PUSH2 0x25C PUSH2 0x1844 JUMP JUMPDEST PUSH2 0x26A PUSH1 0xC SLOAD TIMESTAMP LT ISZERO PUSH2 0x17F9 JUMP JUMPDEST PUSH1 0x40 MLOAD PUSH4 0xA9059CBB PUSH1 0xE0 SHL DUP2 MSTORE CALLER PUSH1 0x4 DUP3 ADD MSTORE PUSH1 0x24 DUP1 CALLDATALOAD SWAP1 DUP3 ADD MSTORE SWAP1 PUSH1 0x20 SWAP1 DUP3 SWAP1 PUSH1 0x44 SWAP1 DUP3 SWAP1 PUSH1 0x0 SWAP1 PUSH1 0x1 PUSH1 0x1 PUSH1 0xA0 SHL SUB AND GAS CALL DUP1 ISZERO PUSH2 0x2D2 JUMPI PUSH2 0x2AA JUMPI STOP JUMPDEST PUSH2 0x1B SWAP1 PUSH1 0x20 RETURNDATASIZE PUSH1 0x20 GT PUSH2 0x2CB JUMPI JUMPDEST PUSH2 0x2C3 DUP2 DUP4 PUSH2 0x1513 JUMP JUMPDEST DUP2 ADD SWAP1 PUSH2 0x1535 JUMP JUMPDEST POP RETURNDATASIZE PUSH2 0x2B9 JUMP JUMPDEST PUSH1 0x40 MLOAD RETURNDATASIZE PUSH1 0x0 DUP3 RETURNDATACOPY RETURNDATASIZE SWAP1 REVERT JUMPDEST CALLVALUE PUSH2 0x1DE JUMPI PUSH1 0x20 CALLDATASIZE PUSH1 0x3 NOT ADD SLT PUSH2 0x1DE JUMPI PUSH1 0x0 DUP1 DUP1 DUP1 PUSH1 0x4 CALLDATALOAD PUSH2 0x2FF PUSH2 0x1844 JUMP JUMPDEST PUSH2 0x30D PUSH1 0xC SLOAD TIMESTAMP LT ISZERO PUSH2 0x17F9 JUMP JUMPDEST DUP2 DUP2 ISZERO PUSH2 0x31F JUMPI JUMPDEST CALLER SWAP1 CALL ISZERO PUSH2 0x2D2 JUMPI STOP JUMPDEST POP PUSH2 0x8FC PUSH2 0x315 JUMP JUMPDEST CALLVALUE PUSH2 0x1DE JUMPI PUSH1 0x40 CALLDATASIZE PUSH1 0x3 NOT ADD SLT PUSH2 0x1DE JUMPI PUSH1 0x20 PUSH2 0x349 PUSH1 0x24 CALLDATALOAD PUSH1 0x4 CALLDATALOAD PUSH2 0x1731 JUMP JUMPDEST PUSH1 0x1 PUSH1 0x1 PUSH1 0xA0 SHL SUB PUSH1 0x40 MLOAD SWAP2 AND DUP2 MSTORE RETURN JUMPDEST CALLVALUE PUSH2 0x1DE JUMPI PUSH1 0x20 CALLDATASIZE PUSH1 0x3 NOT ADD SLT PUSH2 0x1DE JUMPI PUSH1 0x1 PUSH1 0x1 PUSH1 0xA0 SHL SUB PUSH2 0x37B PUSH2 0x14F0 JUMP JUMPDEST AND PUSH1 0x0 MSTORE PUSH1 0x11 PUSH1 0x20 MSTORE PUSH1 0x20 PUSH1 0x40 PUSH1 0x0 KECCAK256 SLOAD PUSH1 0x40 MLOAD SWAP1 DUP2 MSTORE RETURN JUMPDEST CALLVALUE PUSH2 0x1DE JUMPI PUSH1 0x0 CALLDATASIZE PUSH1 0x3 NOT ADD SLT PUSH2 0x1DE JUMPI PUSH1 0x20 PUSH1 0x1 PUSH1 0x1 PUSH1 0xA0 SHL SUB PUSH1 0xF SLOAD PUSH1 0x10 SHR AND PUSH1 0x40 MLOAD SWAP1 DUP2 MSTORE RETURN JUMPDEST CALLVALUE PUSH2 0x1DE JUMPI PUSH1 0x0 CALLDATASIZE PUSH1 0x3 NOT ADD SLT PUSH2 0x1DE JUMPI PUSH2 0x3D7 PUSH2 0x1888 JUMP JUMPDEST PUSH2 0x3E5 PUSH1 0xC SLOAD TIMESTAMP LT ISZERO PUSH2 0x154D JUMP JUMPDEST PUSH1 0xD SLOAD PUSH1 0x3 SLOAD GT ISZERO PUSH2 0x485 JUMPI CALLER PUSH1 0x0 MSTORE PUSH1 0x11 PUSH1 0x20 MSTORE PUSH2 0x409 PUSH1 0x40 PUSH1 0x0 KECCAK256 SLOAD ISZERO PUSH2 0x1681 JUMP JUMPDEST CALLER PUSH1 0x0 MSTORE PUSH1 0x10 PUSH1 0x20 MSTORE PUSH1 0x40 PUSH1 0x0 KECCAK256 SLOAD PUSH1 0x11 PUSH1 0x20 MSTORE DUP1 PUSH1 0x40 PUSH1 0x0 KECCAK256 SSTORE DUP1 PUSH1 0x0 DUP2 ISZERO PUSH2 0x47C JUMPI JUMPDEST PUSH1 0x0 DUP1 DUP1 SWAP4 DUP2 SWAP4 CALLER SWAP1 CALL ISZERO PUSH2 0x2D2 JUMPI PUSH1 0x1 PUSH1 0x1 PUSH1 0xA0 SHL SUB PUSH1 0x2 SLOAD AND SWAP1 PUSH1 0x40 MLOAD SWAP1 DUP2 MSTORE PUSH32 0xF40CC8C1A1D17359049BA500CFC894596A692CFFC9D03943CD92EC2E159CF6AE PUSH1 0x20 CALLER SWAP3 LOG3 PUSH1 0x1 DUP1 SSTORE STOP JUMPDEST POP PUSH2 0x8FC PUSH2 0x42E JUMP JUMPDEST PUSH1 0x84 PUSH1 0x40 MLOAD PUSH3 0x461BCD PUSH1 0xE5 SHL DUP2 MSTORE PUSH1 0x20 PUSH1 0x4 DUP3 ADD MSTORE PUSH1 0x25 PUSH1 0x24 DUP3 ADD MSTORE PUSH32 0x546872757374706164466169724C61756E63683A20736F667420636170207265 PUSH1 0x44 DUP3 ADD MSTORE PUSH5 0x1858DA1959 PUSH1 0xDA SHL PUSH1 0x64 DUP3 ADD MSTORE REVERT JUMPDEST PUSH1 0x0 CALLDATASIZE PUSH1 0x3 NOT ADD SLT PUSH2 0x1DE JUMPI PUSH1 0xB SLOAD TIMESTAMP LT PUSH2 0x7BF JUMPI PUSH1 0xC SLOAD TIMESTAMP GT PUSH2 0x755 JUMPI PUSH1 0x7 SLOAD CALLVALUE LT PUSH2 0x6EB JUMPI PUSH1 0x8 SLOAD DUP1 CALLVALUE GT PUSH2 0x681 JUMPI PUSH1 0xD SLOAD SWAP1 PUSH2 0x516 CALLVALUE DUP4 PUSH2 0x1506 JUMP JUMPDEST PUSH1 0x4 SLOAD LT PUSH2 0x62F JUMPI CALLER PUSH1 0x0 MSTORE PUSH1 0x10 PUSH1 0x20 MSTORE PUSH2 0x536 CALLVALUE PUSH1 0x40 PUSH1 0x0 KECCAK256 SLOAD PUSH2 0x1506 JUMP JUMPDEST GT PUSH2 0x5C5 JUMPI PUSH2 0x546 SWAP1 CALLVALUE SWAP1 PUSH2 0x1506 JUMP JUMPDEST PUSH1 0xD SSTORE PUSH1 0xE SLOAD PUSH1 0x1 DUP2 ADD DUP1 SWAP2 GT PUSH2 0x5AF JUMPI PUSH1 0xE SSTORE CALLER PUSH1 0x0 MSTORE PUSH1 0x10 PUSH1 0x20 MSTORE PUSH1 0x40 PUSH1 0x0 KECCAK256 PUSH2 0x573 CALLVALUE DUP3 SLOAD PUSH2 0x1506 JUMP JUMPDEST SWAP1 SSTORE PUSH1 0x1 PUSH1 0x1 PUSH1 0xA0 SHL SUB PUSH1 0x2 SLOAD AND PUSH1 0x40 MLOAD CALLVALUE DUP2 MSTORE PUSH32 0x9B24BD0884170CBCE51F9F00DF6B3F9AED2231E4086241D1D04687B42AFDF7B9 PUSH1 0x20 CALLER SWAP3 LOG3 STOP JUMPDEST PUSH4 0x4E487B71 PUSH1 0xE0 SHL PUSH1 0x0 MSTORE PUSH1 0x11 PUSH1 0x4 MSTORE PUSH1 0x24 PUSH1 0x0 REVERT JUMPDEST PUSH1 0x84 PUSH1 0x40 MLOAD PUSH3 0x461BCD PUSH1 0xE5 SHL DUP2 MSTORE PUSH1 0x20 PUSH1 0x4 DUP3 ADD MSTORE PUSH1 0x33 PUSH1 0x24 DUP3 ADD MSTORE PUSH32 0x546872757374706164466169724C61756E63683A2077616C6C65742068617320 PUSH1 0x44 DUP3 ADD MSTORE PUSH32 0x72656163686564206D6178696D756D2062757900000000000000000000000000 PUSH1 0x64 DUP3 ADD MSTORE REVERT JUMPDEST PUSH1 0x84 PUSH1 0x40 MLOAD PUSH3 0x461BCD PUSH1 0xE5 SHL DUP2 MSTORE PUSH1 0x20 PUSH1 0x4 DUP3 ADD MSTORE PUSH1 0x25 PUSH1 0x24 DUP3 ADD MSTORE PUSH32 0x546872757374706164466169724C61756E63683A206861726420636170207265 PUSH1 0x44 DUP3 ADD MSTORE PUSH5 0x1858DA1959 PUSH1 0xDA SHL PUSH1 0x64 DUP3 ADD MSTORE REVERT JUMPDEST PUSH1 0x84 PUSH1 0x40 MLOAD PUSH3 0x461BCD PUSH1 0xE5 SHL DUP2 MSTORE PUSH1 0x20 PUSH1 0x4 DUP3 ADD MSTORE PUSH1 0x34 PUSH1 0x24 DUP3 ADD MSTORE PUSH32 0x546872757374706164466169724C61756E63683A20616D6F756E74206973206D PUSH1 0x44 DUP3 ADD MSTORE PUSH32 0x6F7265207468616E206D6178696D756D20627579000000000000000000000000 PUSH1 0x64 DUP3 ADD MSTORE REVERT JUMPDEST PUSH1 0x84 PUSH1 0x40 MLOAD PUSH3 0x461BCD PUSH1 0xE5 SHL DUP2 MSTORE PUSH1 0x20 PUSH1 0x4 DUP3 ADD MSTORE PUSH1 0x34 PUSH1 0x24 DUP3 ADD MSTORE PUSH32 0x546872757374706164466169724C61756E63683A20616D6F756E74206973206C PUSH1 0x44 DUP3 ADD MSTORE PUSH32 0x657373207468616E206D696E696D756D20627579000000000000000000000000 PUSH1 0x64 DUP3 ADD MSTORE REVERT JUMPDEST PUSH1 0x84 PUSH1 0x40 MLOAD PUSH3 0x461BCD PUSH1 0xE5 SHL DUP2 MSTORE PUSH1 0x20 PUSH1 0x4 DUP3 ADD MSTORE PUSH1 0x23 PUSH1 0x24 DUP3 ADD MSTORE PUSH32 0x546872757374706164466169724C61756E63683A2073616C652068617320656E PUSH1 0x44 DUP3 ADD MSTORE PUSH32 0x6465640000000000000000000000000000000000000000000000000000000000 PUSH1 0x64 DUP3 ADD MSTORE REVERT JUMPDEST PUSH1 0x84 PUSH1 0x40 MLOAD PUSH3 0x461BCD PUSH1 0xE5 SHL DUP2 MSTORE PUSH1 0x20 PUSH1 0x4 DUP3 ADD MSTORE PUSH1 0x2D PUSH1 0x24 DUP3 ADD MSTORE PUSH32 0x546872757374706164466169724C61756E63683A2073616C6520686173206E6F PUSH1 0x44 DUP3 ADD MSTORE PUSH32 0x7420737461727465642079657400000000000000000000000000000000000000 PUSH1 0x64 DUP3 ADD MSTORE REVERT JUMPDEST CALLVALUE PUSH2 0x1DE JUMPI PUSH1 0x0 CALLDATASIZE PUSH1 0x3 NOT ADD SLT PUSH2 0x1DE JUMPI PUSH1 0x20 PUSH1 0xFF PUSH1 0xF SLOAD AND PUSH1 0x40 MLOAD SWAP1 ISZERO ISZERO DUP2 MSTORE RETURN JUMPDEST CALLVALUE PUSH2 0x1DE JUMPI PUSH1 0x0 CALLDATASIZE PUSH1 0x3 NOT ADD SLT PUSH2 0x1DE JUMPI PUSH1 0x20 PUSH1 0x1 PUSH1 0x1 PUSH1 0xA0 SHL SUB PUSH1 0x14 SLOAD AND PUSH1 0x40 MLOAD SWAP1 DUP2 MSTORE RETURN JUMPDEST CALLVALUE PUSH2 0x1DE JUMPI PUSH1 0x0 CALLDATASIZE PUSH1 0x3 NOT ADD SLT PUSH2 0x1DE JUMPI PUSH2 0x88C PUSH2 0x1844 JUMP JUMPDEST PUSH2 0x89A PUSH1 0xC SLOAD TIMESTAMP LT ISZERO PUSH2 0x154D JUMP JUMPDEST PUSH1 0xD SLOAD PUSH2 0x8AB PUSH1 0x3 SLOAD DUP3 LT ISZERO PUSH2 0x15BE JUMP JUMPDEST PUSH1 0xF SLOAD SWAP1 PUSH1 0xFF DUP3 PUSH1 0x8 SHR AND PUSH2 0x936 JUMPI PUSH1 0x64 PUSH2 0x8CB PUSH2 0x100 SWAP3 PUSH1 0xA SLOAD PUSH2 0x164E JUMP JUMPDEST DIV SWAP2 PUSH2 0xFF00 NOT AND OR PUSH1 0xF SSTORE PUSH1 0x1 PUSH1 0x1 PUSH1 0xA0 SHL SUB PUSH1 0x0 DUP1 DUP1 DUP1 DUP6 DUP6 DUP3 SLOAD AND DUP3 DUP3 ISZERO PUSH2 0x92D JUMPI JUMPDEST CALL ISZERO PUSH2 0x2D2 JUMPI PUSH32 0xA95E69983C44F17474CBA286953DEB119463B9F5CB8CFDE4FD709DF3660266F7 PUSH1 0x20 DUP3 PUSH1 0x0 SLOAD AND SWAP3 PUSH1 0x2 SLOAD AND SWAP4 PUSH1 0x40 MLOAD SWAP1 DUP2 MSTORE LOG3 STOP JUMPDEST POP PUSH2 0x8FC PUSH2 0x8F0 JUMP JUMPDEST PUSH1 0x84 PUSH1 0x40 MLOAD PUSH3 0x461BCD PUSH1 0xE5 SHL DUP2 MSTORE PUSH1 0x20 PUSH1 0x4 DUP3 ADD MSTORE PUSH1 0x30 PUSH1 0x24 DUP3 ADD MSTORE PUSH32 0x546872757374706164466169724C61756E63683A207465616D20746F6B656E73 PUSH1 0x44 DUP3 ADD MSTORE PUSH32 0x20616C726561647920636C61696D656400000000000000000000000000000000 PUSH1 0x64 DUP3 ADD MSTORE REVERT JUMPDEST CALLVALUE PUSH2 0x1DE JUMPI PUSH1 0x0 CALLDATASIZE PUSH1 0x3 NOT ADD SLT PUSH2 0x1DE JUMPI PUSH1 0x20 PUSH1 0xD SLOAD PUSH1 0x40 MLOAD SWAP1 DUP2 MSTORE RETURN JUMPDEST CALLVALUE PUSH2 0x1DE JUMPI PUSH1 0x0 CALLDATASIZE PUSH1 0x3 NOT ADD SLT PUSH2 0x1DE JUMPI PUSH1 0x20 PUSH1 0x1 PUSH1 0x1 PUSH1 0xA0 SHL SUB PUSH1 0x0 SLOAD AND PUSH1 0x40 MLOAD SWAP1 DUP2 MSTORE RETURN JUMPDEST CALLVALUE PUSH2 0x1DE JUMPI PUSH1 0x0 CALLDATASIZE PUSH1 0x3 NOT ADD SLT PUSH2 0x1DE JUMPI PUSH1 0x20 PUSH1 0x1 PUSH1 0x1 PUSH1 0xA0 SHL SUB PUSH1 0x13 SLOAD AND PUSH1 0x40 MLOAD SWAP1 DUP2 MSTORE RETURN JUMPDEST CALLVALUE PUSH2 0x1DE JUMPI PUSH1 0x0 CALLDATASIZE PUSH1 0x3 NOT ADD SLT PUSH2 0x1DE JUMPI PUSH2 0x160 PUSH1 0x1 PUSH1 0x1 PUSH1 0xA0 SHL SUB PUSH1 0x2 SLOAD AND PUSH1 0x3 SLOAD PUSH1 0x4 SLOAD PUSH1 0x5 SLOAD PUSH1 0x6 SLOAD PUSH1 0x7 SLOAD PUSH1 0x8 SLOAD SWAP1 PUSH1 0x9 SLOAD SWAP3 PUSH1 0xA SLOAD SWAP5 PUSH1 0xB SLOAD SWAP7 PUSH1 0xC SLOAD SWAP9 PUSH1 0x40 MLOAD SWAP11 DUP12 MSTORE PUSH1 0x20 DUP12 ADD MSTORE PUSH1 0x40 DUP11 ADD MSTORE PUSH1 0x60 DUP10 ADD MSTORE PUSH1 0x80 DUP9 ADD MSTORE PUSH1 0xA0 DUP8 ADD MSTORE PUSH1 0xC0 DUP7 ADD MSTORE PUSH1 0xE0 DUP6 ADD MSTORE PUSH2 0x100 DUP5 ADD MSTORE PUSH2 0x120 DUP4 ADD MSTORE PUSH2 0x140 DUP3 ADD MSTORE RETURN JUMPDEST CALLVALUE PUSH2 0x1DE JUMPI PUSH1 0x0 CALLDATASIZE PUSH1 0x3 NOT ADD SLT PUSH2 0x1DE JUMPI PUSH2 0xAA5 PUSH2 0x1844 JUMP JUMPDEST PUSH1 0x0 PUSH1 0x1 PUSH1 0x1 PUSH1 0xA0 SHL SUB DUP2 SLOAD PUSH20 0xFFFFFFFFFFFFFFFFFFFFFFFFFFFFFFFFFFFFFFFF NOT DUP2 AND DUP4 SSTORE AND PUSH32 0x8BE0079C531659141344CD1FD0A4F28419497F9722A3DAAFE3B4186F6B6457E0 DUP3 DUP1 LOG3 STOP JUMPDEST CALLVALUE PUSH2 0x1DE JUMPI PUSH1 0x20 CALLDATASIZE PUSH1 0x3 NOT ADD SLT PUSH2 0x1DE JUMPI PUSH1 0x20 PUSH2 0xB10 PUSH1 0x4 CALLDATALOAD PUSH2 0x16F2 JUMP JUMPDEST PUSH1 0x40 MLOAD SWAP1 DUP2 MSTORE RETURN JUMPDEST CALLVALUE PUSH2 0x1DE JUMPI PUSH1 0x0 CALLDATASIZE PUSH1 0x3 NOT ADD SLT PUSH2 0x1DE JUMPI PUSH1 0x20 PUSH1 0x1 PUSH1 0x1 PUSH1 0xA0 SHL SUB PUSH1 0x12 SLOAD AND PUSH1 0x40 MLOAD SWAP1 DUP2 MSTORE RETURN JUMPDEST CALLVALUE PUSH2 0x1DE JUMPI PUSH1 0x0 CALLDATASIZE PUSH1 0x3 NOT ADD SLT PUSH2 0x1DE JUMPI PUSH2 0xB58 PUSH2 0x1888 JUMP JUMPDEST PUSH2 0xB66 PUSH1 0xC SLOAD TIMESTAMP LT ISZERO PUSH2 0x154D JUMP JUMPDEST PUSH2 0xB76 PUSH1 0xD SLOAD PUSH1 0x3 SLOAD GT ISZERO PUSH2 0x15BE JUMP JUMPDEST CALLER PUSH1 0x0 MSTORE PUSH1 0x20 PUSH1 0x11 DUP2 MSTORE PUSH2 0xB8F PUSH1 0x40 PUSH1 0x0 KECCAK256 SLOAD ISZERO PUSH2 0x1681 JUMP JUMPDEST PUSH2 0xBB4 PUSH2 0xBA1 PUSH1 0x5 SLOAD PUSH1 0x4 SLOAD SWAP1 PUSH2 0x1661 JUMP JUMPDEST CALLER PUSH1 0x0 MSTORE PUSH1 0x10 DUP4 MSTORE PUSH1 0x40 PUSH1 0x0 KECCAK256 SLOAD PUSH2 0x164E JUMP JUMPDEST CALLER PUSH1 0x0 MSTORE PUSH1 0x11 DUP3 MSTORE DUP1 PUSH1 0x40 PUSH1 0x0 KECCAK256 SSTORE PUSH1 0x1 PUSH1 0x1 PUSH1 0xA0 SHL SUB DUP1 PUSH1 0x2 SLOAD AND SWAP1 DUP4 PUSH1 0x40 MLOAD DUP1 SWAP4 PUSH4 0xA9059CBB PUSH1 0xE0 SHL DUP3 MSTORE DUP2 PUSH1 0x0 DUP2 PUSH2 0xC09 DUP10 CALLER PUSH1 0x4 DUP5 ADD PUSH1 0x20 SWAP1 SWAP4 SWAP3 SWAP2 SWAP4 PUSH1 0x1 PUSH1 0x1 PUSH1 0xA0 SHL SUB PUSH1 0x40 DUP3 ADD SWAP6 AND DUP2 MSTORE ADD MSTORE JUMP JUMPDEST SUB SWAP3 GAS CALL SWAP2 DUP3 ISZERO PUSH2 0x2D2 JUMPI PUSH32 0x4831BDD9DCF3048A28319CE81D3CAB7A15366BCF449BC7803A539107440809CC SWAP3 PUSH2 0xC50 JUMPI JUMPDEST POP PUSH1 0x2 SLOAD AND SWAP3 PUSH1 0x40 MLOAD SWAP3 DUP4 MSTORE CALLER SWAP3 LOG3 PUSH1 0x1 DUP1 SSTORE STOP JUMPDEST PUSH2 0xC66 SWAP1 DUP6 RETURNDATASIZE DUP8 GT PUSH2 0x2CB JUMPI PUSH2 0x2C3 DUP2 DUP4 PUSH2 0x1513 JUMP JUMPDEST POP DUP5 PUSH2 0xC3B JUMP JUMPDEST CALLVALUE PUSH2 0x1DE JUMPI PUSH1 0x0 CALLDATASIZE PUSH1 0x3 NOT ADD SLT PUSH2 0x1DE JUMPI PUSH2 0xC86 PUSH2 0x1844 JUMP JUMPDEST PUSH2 0xC94 PUSH1 0xC SLOAD TIMESTAMP LT ISZERO PUSH2 0x154D JUMP JUMPDEST PUSH2 0xCA4 PUSH1 0xD SLOAD PUSH1 0x3 SLOAD GT ISZERO PUSH2 0x15BE JUMP JUMPDEST PUSH1 0x1 PUSH1 0x1 PUSH1 0xA0 SHL SUB PUSH1 0x14 SLOAD AND PUSH1 0x1 PUSH1 0x1 PUSH1 0xA0 SHL SUB PUSH1 0x12 SLOAD AND PUSH1 0x1 PUSH1 0x1 PUSH1 0xA0 SHL SUB PUSH1 0x2 SLOAD AND SWAP1 PUSH1 0x64 PUSH1 0x20 PUSH1 0x1 PUSH1 0x1 PUSH1 0xA0 SHL SUB PUSH1 0x13 SLOAD AND SWAP5 PUSH1 0x40 MLOAD SWAP3 DUP4 DUP1 SWAP3 PUSH32 0x1698EE8200000000000000000000000000000000000000000000000000000000 DUP3 MSTORE DUP8 PUSH1 0x4 DUP4 ADD MSTORE DUP9 PUSH1 0x24 DUP4 ADD MSTORE PUSH2 0xBB8 PUSH1 0x44 DUP4 ADD MSTORE GAS STATICCALL DUP1 ISZERO PUSH2 0x2D2 JUMPI PUSH1 0x1 PUSH1 0x1 PUSH1 0xA0 SHL SUB SWAP2 PUSH1 0x0 SWAP2 PUSH2 0x1318 JUMPI JUMPDEST POP AND PUSH2 0x12AE JUMPI DUP3 DUP3 EQ PUSH2 0x126A JUMPI DUP3 DUP3 LT ISZERO PUSH2 0x1264 JUMPI DUP2 SWAP3 SWAP2 JUMPDEST PUSH1 0x1 PUSH1 0x1 PUSH1 0xA0 SHL SUB DUP5 AND ISZERO PUSH2 0x1220 JUMPI PUSH1 0x0 DUP1 SWAP2 PUSH1 0x1 PUSH1 0x1 PUSH1 0xA0 SHL SUB DUP6 AND DUP2 EQ PUSH2 0x120B JUMPI JUMPDEST PUSH1 0x1 PUSH1 0x1 PUSH1 0xA0 SHL SUB DUP7 AND EQ PUSH2 0x11F8 JUMPI JUMPDEST PUSH1 0x84 PUSH2 0xD94 PUSH1 0x20 SWAP4 PUSH1 0x1 PUSH1 0x1 PUSH1 0xA0 SHL SUB SWAP4 PUSH2 0x1731 JUMP JUMPDEST PUSH1 0x0 PUSH1 0x40 MLOAD SWAP6 DUP7 SWAP5 DUP6 SWAP4 PUSH32 0x13EAD56200000000000000000000000000000000000000000000000000000000 DUP6 MSTORE DUP2 DUP12 AND PUSH1 0x4 DUP7 ADD MSTORE DUP2 DUP11 AND PUSH1 0x24 DUP7 ADD MSTORE PUSH2 0xBB8 PUSH1 0x44 DUP7 ADD MSTORE AND PUSH1 0x64 DUP5 ADD MSTORE GAS CALL DUP1 ISZERO PUSH2 0x2D2 JUMPI PUSH2 0x11C9 JUMPI JUMPDEST POP PUSH1 0x0 PUSH1 0x20 PUSH1 0x1 PUSH1 0x1 PUSH1 0xA0 SHL SUB PUSH1 0x2 SLOAD AND PUSH1 0x44 PUSH1 0x1 PUSH1 0x1 PUSH1 0xA0 SHL SUB PUSH1 0x12 SLOAD AND PUSH1 0x40 MLOAD SWAP5 DUP6 SWAP4 DUP5 SWAP3 PUSH32 0x95EA7B300000000000000000000000000000000000000000000000000000000 DUP5 MSTORE PUSH1 0x4 DUP5 ADD MSTORE DUP2 NOT PUSH1 0x24 DUP5 ADD MSTORE GAS CALL DUP1 ISZERO PUSH2 0x2D2 JUMPI PUSH2 0x11AA JUMPI JUMPDEST POP PUSH1 0x64 PUSH2 0xE61 PUSH1 0x9 SLOAD PUSH1 0xD SLOAD SWAP1 PUSH2 0x164E JUMP JUMPDEST DIV SWAP2 PUSH2 0xE6F PUSH1 0x6 SLOAD DUP5 PUSH2 0x164E JUMP JUMPDEST SWAP2 PUSH1 0x1 PUSH1 0x1 PUSH1 0xA0 SHL SUB PUSH1 0x12 SLOAD AND SWAP4 PUSH1 0x1 PUSH1 0x1 PUSH1 0xA0 SHL SUB PUSH1 0x2 SLOAD AND SWAP4 DUP5 PUSH1 0x1 PUSH1 0x1 PUSH1 0xA0 SHL SUB DUP6 AND EQ PUSH1 0x0 EQ PUSH2 0x11A3 JUMPI DUP1 SWAP5 JUMPDEST PUSH1 0x1 PUSH1 0x1 PUSH1 0xA0 SHL SUB DUP5 AND SUB PUSH2 0x119C JUMPI SWAP1 JUMPDEST PUSH2 0x12C TIMESTAMP ADD TIMESTAMP GT PUSH2 0x5AF JUMPI PUSH1 0x40 MLOAD SWAP2 DUP3 PUSH2 0x160 DUP2 ADD LT PUSH8 0xFFFFFFFFFFFFFFFF PUSH2 0x160 DUP6 ADD GT OR PUSH2 0x1186 JUMPI PUSH1 0x80 SWAP6 PUSH1 0x1 PUSH1 0x1 PUSH1 0xA0 SHL SUB PUSH2 0x164 SWAP6 DUP2 PUSH2 0x140 SWAP9 PUSH2 0x160 DUP9 ADD PUSH1 0x40 MSTORE AND DUP7 MSTORE AND PUSH1 0x20 DUP6 ADD MSTORE PUSH2 0xBB8 PUSH1 0x40 DUP6 ADD MSTORE PUSH3 0xD89B3 NOT PUSH1 0x60 DUP6 ADD MSTORE PUSH3 0xD89B4 DUP8 DUP6 ADD MSTORE PUSH1 0xA0 DUP5 ADD MSTORE PUSH1 0xC0 DUP4 ADD MSTORE PUSH1 0x0 PUSH1 0xE0 DUP4 ADD MSTORE PUSH1 0x0 PUSH2 0x100 DUP4 ADD MSTORE CALLER PUSH2 0x120 DUP4 ADD MSTORE PUSH2 0x12C TIMESTAMP ADD DUP5 DUP4 ADD MSTORE PUSH1 0x40 MLOAD SWAP6 DUP7 SWAP5 DUP6 SWAP4 PUSH32 0x8831645600000000000000000000000000000000000000000000000000000000 DUP6 MSTORE PUSH1 0x1 PUSH1 0x1 PUSH1 0xA0 SHL SUB DUP2 MLOAD AND PUSH1 0x4 DUP7 ADD MSTORE PUSH1 0x1 PUSH1 0x1 PUSH1 0xA0 SHL SUB PUSH1 0x20 DUP3 ADD MLOAD AND PUSH1 0x24 DUP7 ADD MSTORE PUSH3 0xFFFFFF PUSH1 0x40 DUP3 ADD MLOAD AND PUSH1 0x44 DUP7 ADD MSTORE PUSH1 0x60 DUP2 ADD MLOAD PUSH1 0x2 SIGNEXTEND PUSH1 0x64 DUP7 ADD MSTORE DUP8 DUP2 ADD MLOAD PUSH1 0x2 SIGNEXTEND PUSH1 0x84 DUP7 ADD MSTORE PUSH1 0xA0 DUP2 ADD MLOAD PUSH1 0xA4 DUP7 ADD MSTORE PUSH1 0xC0 DUP2 ADD MLOAD PUSH1 0xC4 DUP7 ADD MSTORE PUSH1 0xE0 DUP2 ADD MLOAD PUSH1 0xE4 DUP7 ADD MSTORE PUSH2 0x100 DUP2 ADD MLOAD PUSH2 0x104 DUP7 ADD MSTORE PUSH1 0x1 PUSH1 0x1 PUSH1 0xA0 SHL SUB PUSH2 0x120 DUP3 ADD MLOAD AND PUSH2 0x124 DUP7 ADD MSTORE ADD MLOAD PUSH2 0x144 DUP5 ADD MSTORE GAS CALL DUP1 ISZERO PUSH2 0x2D2 JUMPI PUSH1 0x0 SWAP2 PUSH1 0x0 DUP1 SWAP2 PUSH1 0x0 SWAP4 PUSH2 0x1121 JUMPI JUMPDEST POP PUSH1 0x1 PUSH1 0x1 PUSH1 0xA0 SHL SUB PUSH1 0x2 SLOAD AND SWAP3 PUSH1 0x40 MLOAD PUSH4 0x70A08231 PUSH1 0xE0 SHL DUP2 MSTORE ADDRESS PUSH1 0x4 DUP3 ADD MSTORE PUSH1 0x20 DUP2 PUSH1 0x24 DUP2 DUP9 GAS STATICCALL SWAP1 DUP2 ISZERO PUSH2 0x2D2 JUMPI PUSH1 0x0 SWAP2 PUSH2 0x10EE JUMPI JUMPDEST POP PUSH1 0x0 SWAP5 PUSH1 0x44 PUSH1 0x20 SWAP3 PUSH1 0x40 MLOAD SWAP8 DUP9 SWAP4 DUP5 SWAP3 PUSH4 0xA9059CBB PUSH1 0xE0 SHL DUP5 MSTORE DUP3 PUSH1 0x4 DUP6 ADD MSTORE PUSH1 0x24 DUP5 ADD MSTORE GAS CALL SWAP3 DUP4 ISZERO PUSH2 0x2D2 JUMPI PUSH32 0x93C8C206BC4E0E31AB69B39355C974C1584DE6CAAE2B529DC41FE11FCF218ED3 SWAP5 PUSH1 0x60 SWAP5 PUSH2 0x10CF JUMPI JUMPDEST POP PUSH16 0xFFFFFFFFFFFFFFFFFFFFFFFFFFFFFFFF PUSH1 0x40 MLOAD SWAP4 AND DUP4 MSTORE PUSH1 0x20 DUP4 ADD MSTORE PUSH1 0x40 DUP3 ADD MSTORE LOG2 STOP JUMPDEST PUSH2 0x10E7 SWAP1 PUSH1 0x20 RETURNDATASIZE PUSH1 0x20 GT PUSH2 0x2CB JUMPI PUSH2 0x2C3 DUP2 DUP4 PUSH2 0x1513 JUMP JUMPDEST POP DUP7 PUSH2 0x10A9 JUMP JUMPDEST SWAP1 POP PUSH1 0x20 DUP2 RETURNDATASIZE PUSH1 0x20 GT PUSH2 0x1119 JUMPI JUMPDEST DUP2 PUSH2 0x1109 PUSH1 0x20 SWAP4 DUP4 PUSH2 0x1513 JUMP JUMPDEST DUP2 ADD SUB SLT PUSH2 0x1DE JUMPI MLOAD PUSH1 0x0 PUSH2 0x1050 JUMP JUMPDEST RETURNDATASIZE SWAP2 POP PUSH2 0x10FC JUMP JUMPDEST SWAP4 POP POP POP POP PUSH1 0x80 DUP2 RETURNDATASIZE PUSH1 0x80 GT PUSH2 0x117E JUMPI JUMPDEST DUP2 PUSH2 0x113F PUSH1 0x80 SWAP4 DUP4 PUSH2 0x1513 JUMP JUMPDEST DUP2 ADD SUB SLT PUSH2 0x1DE JUMPI DUP1 MLOAD SWAP1 PUSH1 0x20 DUP2 ADD MLOAD SWAP2 PUSH16 0xFFFFFFFFFFFFFFFFFFFFFFFFFFFFFFFF DUP4 AND DUP4 SUB PUSH2 0x1DE JUMPI PUSH1 0x60 PUSH1 0x40 DUP4 ADD MLOAD SWAP3 ADD MLOAD SWAP1 SWAP3 SWAP2 SWAP1 SWAP2 DUP5 PUSH2 0x1017 JUMP JUMPDEST RETURNDATASIZE SWAP2 POP PUSH2 0x1132 JUMP JUMPDEST PUSH4 0x4E487B71 PUSH1 0xE0 SHL PUSH1 0x0 MSTORE PUSH1 0x41 PUSH1 0x4 MSTORE PUSH1 0x24 PUSH1 0x0 REVERT JUMPDEST POP DUP1 PUSH2 0xEB1 JUMP JUMPDEST DUP2 SWAP5 PUSH2 0xEA0 JUMP JUMPDEST PUSH2 0x11C2 SWAP1 PUSH1 0x20 RETURNDATASIZE PUSH1 0x20 GT PUSH2 0x2CB JUMPI PUSH2 0x2C3 DUP2 DUP4 PUSH2 0x1513 JUMP JUMPDEST POP DUP3 PUSH2 0xE4F JUMP JUMPDEST PUSH2 0x11EA SWAP1 PUSH1 0x20 RETURNDATASIZE PUSH1 0x20 GT PUSH2 0x11F1 JUMPI JUMPDEST PUSH2 0x11E2 DUP2 DUP4 PUSH2 0x1513 JUMP JUMPDEST DUP2 ADD SWAP1 PUSH2 0x162F JUMP JUMPDEST POP DUP3 PUSH2 0xDEC JUMP JUMPDEST POP RETURNDATASIZE PUSH2 0x11D8 JUMP JUMPDEST POP POP PUSH1 0x6 SLOAD PUSH8 0xDE0B6B3A7640000 PUSH2 0xD7E JUMP JUMPDEST SWAP2 POP POP PUSH1 0x6 SLOAD PUSH8 0xDE0B6B3A7640000 SWAP2 PUSH2 0xD6E JUMP JUMPDEST PUSH1 0x64 PUSH1 0x40 MLOAD PUSH3 0x461BCD PUSH1 0xE5 SHL DUP2 MSTORE PUSH1 0x20 PUSH1 0x4 DUP3 ADD MSTORE PUSH1 0xC PUSH1 0x24 DUP3 ADD MSTORE PUSH32 0x5A45524F5F414444524553530000000000000000000000000000000000000000 PUSH1 0x44 DUP3 ADD MSTORE REVERT JUMPDEST DUP2 PUSH2 0xD4A JUMP JUMPDEST PUSH1 0x64 PUSH1 0x40 MLOAD PUSH3 0x461BCD PUSH1 0xE5 SHL DUP2 MSTORE PUSH1 0x20 PUSH1 0x4 DUP3 ADD MSTORE PUSH1 0x13 PUSH1 0x24 DUP3 ADD MSTORE PUSH32 0x4944454E544943414C5F41444452455353455300000000000000000000000000 PUSH1 0x44 DUP3 ADD MSTORE REVERT JUMPDEST PUSH1 0x84 PUSH1 0x40 MLOAD PUSH3 0x461BCD PUSH1 0xE5 SHL DUP2 MSTORE PUSH1 0x20 PUSH1 0x4 DUP3 ADD MSTORE PUSH1 0x28 PUSH1 0x24 DUP3 ADD MSTORE PUSH32 0x546872757374706164466169724C61756E63683A205061697220616C72656164 PUSH1 0x44 DUP3 ADD MSTORE PUSH32 0x7920657869737473000000000000000000000000000000000000000000000000 PUSH1 0x64 DUP3 ADD MSTORE REVERT JUMPDEST PUSH2 0x1331 SWAP2 POP PUSH1 0x20 RETURNDATASIZE PUSH1 0x20 GT PUSH2 0x11F1 JUMPI PUSH2 0x11E2 DUP2 DUP4 PUSH2 0x1513 JUMP JUMPDEST DUP6 PUSH2 0xD31 JUMP JUMPDEST CALLVALUE PUSH2 0x1DE JUMPI PUSH1 0x0 CALLDATASIZE PUSH1 0x3 NOT ADD SLT PUSH2 0x1DE JUMPI PUSH2 0x1350 PUSH2 0x1844 JUMP JUMPDEST PUSH1 0xC SLOAD PUSH3 0x278D00 DUP2 ADD DUP1 SWAP2 GT PUSH2 0x5AF JUMPI TIMESTAMP LT PUSH2 0x1463 JUMPI PUSH1 0x1 PUSH1 0x1 PUSH1 0xA0 SHL SUB DUP1 PUSH1 0xF SLOAD PUSH1 0x10 SHR AND PUSH1 0x40 MLOAD SWAP1 PUSH4 0x70A08231 PUSH1 0xE0 SHL DUP3 MSTORE ADDRESS PUSH1 0x4 DUP4 ADD MSTORE PUSH1 0x20 SWAP3 DUP4 DUP4 PUSH1 0x24 DUP2 DUP6 GAS STATICCALL SWAP3 DUP4 ISZERO PUSH2 0x2D2 JUMPI PUSH1 0x0 SWAP4 PUSH2 0x1434 JUMPI JUMPDEST POP DUP3 PUSH2 0x13AC JUMPI STOP JUMPDEST PUSH1 0x40 MLOAD PUSH4 0xA9059CBB PUSH1 0xE0 SHL DUP2 MSTORE CALLER PUSH1 0x4 DUP3 ADD MSTORE PUSH1 0x24 DUP2 ADD DUP5 SWAP1 MSTORE SWAP2 DUP5 SWAP1 DUP4 SWAP1 PUSH1 0x44 SWAP1 DUP3 SWAP1 PUSH1 0x0 SWAP1 GAS CALL SWAP2 DUP3 ISZERO PUSH2 0x2D2 JUMPI PUSH32 0x4F2E1C4D34092405172A61F387073A9B61BFCBB54ECEB1E96383D36E19B394A9 SWAP3 PUSH2 0x1417 JUMPI JUMPDEST POP PUSH1 0xF SLOAD PUSH1 0x10 SHR AND SWAP3 PUSH1 0x40 MLOAD SWAP3 DUP4 MSTORE CALLER SWAP3 LOG3 STOP JUMPDEST PUSH2 0x142D SWAP1 DUP6 RETURNDATASIZE DUP8 GT PUSH2 0x2CB JUMPI PUSH2 0x2C3 DUP2 DUP4 PUSH2 0x1513 JUMP JUMPDEST POP DUP5 PUSH2 0x1403 JUMP JUMPDEST SWAP1 SWAP3 POP DUP4 DUP2 DUP2 RETURNDATASIZE DUP4 GT PUSH2 0x145C JUMPI JUMPDEST PUSH2 0x144C DUP2 DUP4 PUSH2 0x1513 JUMP JUMPDEST DUP2 ADD SUB SLT PUSH2 0x1DE JUMPI MLOAD SWAP2 DUP5 PUSH2 0x13A4 JUMP JUMPDEST POP RETURNDATASIZE PUSH2 0x1442 JUMP JUMPDEST PUSH1 0x84 PUSH1 0x40 MLOAD PUSH3 0x461BCD PUSH1 0xE5 SHL DUP2 MSTORE PUSH1 0x20 PUSH1 0x4 DUP3 ADD MSTORE PUSH1 0x2D PUSH1 0x24 DUP3 ADD MSTORE PUSH32 0x546872757374706164466169724C61756E63683A204C6F636B20706572696F64 PUSH1 0x44 DUP3 ADD MSTORE PUSH32 0x206E6F74206F7665722079657400000000000000000000000000000000000000 PUSH1 0x64 DUP3 ADD MSTORE REVERT JUMPDEST CALLVALUE PUSH2 0x1DE JUMPI PUSH1 0x0 CALLDATASIZE PUSH1 0x3 NOT ADD SLT PUSH2 0x1DE JUMPI PUSH1 0x20 SWAP1 PUSH1 0xFF PUSH1 0xF SLOAD PUSH1 0x8 SHR AND ISZERO ISZERO DUP2 MSTORE RETURN JUMPDEST PUSH1 0x4 CALLDATALOAD SWAP1 PUSH1 0x1 PUSH1 0x1 PUSH1 0xA0 SHL SUB DUP3 AND DUP3 SUB PUSH2 0x1DE JUMPI JUMP JUMPDEST SWAP2 SWAP1 DUP3 ADD DUP1 SWAP3 GT PUSH2 0x5AF JUMPI JUMP JUMPDEST SWAP1 PUSH1 0x1F DUP1 NOT SWAP2 ADD AND DUP2 ADD SWAP1 DUP2 LT PUSH8 0xFFFFFFFFFFFFFFFF DUP3 GT OR PUSH2 0x1186 JUMPI PUSH1 0x40 MSTORE JUMP JUMPDEST SWAP1 DUP2 PUSH1 0x20 SWAP2 SUB SLT PUSH2 0x1DE JUMPI MLOAD DUP1 ISZERO ISZERO DUP2 SUB PUSH2 0x1DE JUMPI SWAP1 JUMP JUMPDEST ISZERO PUSH2 0x1554 JUMPI JUMP JUMPDEST PUSH1 0x84 PUSH1 0x40 MLOAD PUSH3 0x461BCD PUSH1 0xE5 SHL DUP2 MSTORE PUSH1 0x20 PUSH1 0x4 DUP3 ADD MSTORE PUSH1 0x2B PUSH1 0x24 DUP3 ADD MSTORE PUSH32 0x546872757374706164466169724C61756E63683A2073616C6520686173206E6F PUSH1 0x44 DUP3 ADD MSTORE PUSH32 0x7420656E64656420796574000000000000000000000000000000000000000000 PUSH1 0x64 DUP3 ADD MSTORE REVERT JUMPDEST ISZERO PUSH2 0x15C5 JUMPI JUMP JUMPDEST PUSH1 0x84 PUSH1 0x40 MLOAD PUSH3 0x461BCD PUSH1 0xE5 SHL DUP2 MSTORE PUSH1 0x20 PUSH1 0x4 DUP3 ADD MSTORE PUSH1 0x29 PUSH1 0x24 DUP3 ADD MSTORE PUSH32 0x546872757374706164466169724C61756E63683A20736F667420636170206E6F PUSH1 0x44 DUP3 ADD MSTORE PUSH32 0x7420726561636865640000000000000000000000000000000000000000000000 PUSH1 0x64 DUP3 ADD MSTORE REVERT JUMPDEST SWAP1 DUP2 PUSH1 0x20 SWAP2 SUB SLT PUSH2 0x1DE JUMPI MLOAD PUSH1 0x1 PUSH1 0x1 PUSH1 0xA0 SHL SUB DUP2 AND DUP2 SUB PUSH2 0x1DE JUMPI SWAP1 JUMP JUMPDEST DUP2 DUP2 MUL SWAP3 SWAP2 DUP2 ISZERO SWAP2 DUP5 DIV EQ OR ISZERO PUSH2 0x5AF JUMPI JUMP JUMPDEST DUP2 ISZERO PUSH2 0x166B JUMPI DIV SWAP1 JUMP JUMPDEST PUSH4 0x4E487B71 PUSH1 0xE0 SHL PUSH1 0x0 MSTORE PUSH1 0x12 PUSH1 0x4 MSTORE PUSH1 0x24 PUSH1 0x0 REVERT JUMPDEST ISZERO PUSH2 0x1688 JUMPI JUMP JUMPDEST PUSH1 0x84 PUSH1 0x40 MLOAD PUSH3 0x461BCD PUSH1 0xE5 SHL DUP2 MSTORE PUSH1 0x20 PUSH1 0x4 DUP3 ADD MSTORE PUSH1 0x2B PUSH1 0x24 DUP3 ADD MSTORE PUSH32 0x546872757374706164466169724C61756E63683A20746F6B656E7320616C7265 PUSH1 0x44 DUP3 ADD MSTORE PUSH32 0x61647920636C61696D6564000000000000000000000000000000000000000000 PUSH1 0x64 DUP3 ADD MSTORE REVERT JUMPDEST SWAP1 PUSH1 0x1 DUP1 DUP4 ADD DUP1 DUP5 GT PUSH2 0x5AF JUMPI PUSH1 0x1 SHR SWAP1 DUP4 JUMPDEST DUP5 DUP4 LT PUSH2 0x1711 JUMPI POP POP POP JUMP JUMPDEST SWAP1 SWAP2 SWAP4 POP PUSH2 0x1728 DUP5 PUSH2 0x1723 DUP2 DUP5 PUSH2 0x1661 JUMP JUMPDEST PUSH2 0x1506 JUMP JUMPDEST DUP3 SHR SWAP2 SWAP1 PUSH2 0x1705 JUMP JUMPDEST DUP2 ISZERO ISZERO DUP1 PUSH2 0x17F0 JUMPI JUMPDEST ISZERO PUSH2 0x17AC JUMPI PUSH2 0x1754 SWAP2 PUSH2 0x174F SWAP2 PUSH1 0xC0 SHL PUSH2 0x1661 JUMP JUMPDEST PUSH2 0x16F2 JUMP JUMPDEST PUSH1 0x1 PUSH1 0x1 PUSH1 0xA0 SHL SUB SWAP1 DUP2 DUP2 GT PUSH2 0x1768 JUMPI AND SWAP1 JUMP JUMPDEST PUSH1 0x64 PUSH1 0x40 MLOAD PUSH3 0x461BCD PUSH1 0xE5 SHL DUP2 MSTORE PUSH1 0x20 PUSH1 0x4 DUP3 ADD MSTORE PUSH1 0x13 PUSH1 0x24 DUP3 ADD MSTORE PUSH32 0x535152545F50524943455F544F4F5F4849474800000000000000000000000000 PUSH1 0x44 DUP3 ADD MSTORE REVERT JUMPDEST PUSH1 0x64 PUSH1 0x40 MLOAD PUSH3 0x461BCD PUSH1 0xE5 SHL DUP2 MSTORE PUSH1 0x20 PUSH1 0x4 DUP3 ADD MSTORE PUSH1 0x10 PUSH1 0x24 DUP3 ADD MSTORE PUSH32 0x494E56414C49445F524553455256455300000000000000000000000000000000 PUSH1 0x44 DUP3 ADD MSTORE REVERT JUMPDEST POP DUP1 ISZERO ISZERO PUSH2 0x173A JUMP JUMPDEST ISZERO PUSH2 0x1800 JUMPI JUMP JUMPDEST PUSH1 0x64 PUSH1 0x40 MLOAD PUSH3 0x461BCD PUSH1 0xE5 SHL DUP2 MSTORE PUSH1 0x20 PUSH1 0x4 DUP3 ADD MSTORE PUSH1 0xE PUSH1 0x24 DUP3 ADD MSTORE PUSH32 0x4E6F7420617574686F72697A6564000000000000000000000000000000000000 PUSH1 0x44 DUP3 ADD MSTORE REVERT JUMPDEST PUSH1 0x1 PUSH1 0x1 PUSH1 0xA0 SHL SUB PUSH1 0x0 SLOAD AND CALLER SUB PUSH2 0x1858 JUMPI JUMP JUMPDEST PUSH1 0x24 PUSH1 0x40 MLOAD PUSH32 0x118CDAA700000000000000000000000000000000000000000000000000000000 DUP2 MSTORE CALLER PUSH1 0x4 DUP3 ADD MSTORE REVERT JUMPDEST PUSH1 0x2 PUSH1 0x1 SLOAD EQ PUSH2 0x1899 JUMPI PUSH1 0x2 PUSH1 0x1 SSTORE JUMP JUMPDEST PUSH1 0x4 PUSH1 0x40 MLOAD PUSH32 0x3EE5AEB500000000000000000000000000000000000000000000000000000000 DUP2 MSTORE REVERT INVALID LOG2 PUSH5 0x6970667358 0x22 SLT KECCAK256 SWAP3 0xE6 PUSH13 0x8AF1CBA26E0552A737528D2637 PUSH12 0x38D1C3BD9CBA2035E1873701 0xCE DUP15 MSTORE PUSH5 0x736F6C6343 STOP ADDMOD XOR STOP CALLER LOG2 PUSH5 0x6970667358 0x22 SLT KECCAK256 DUP14 PUSH32 0x91ADA90B2194182E5B4E5EA73447D4A6D1092B2A20A32B6542BA1EC130FF6473 PUSH16 0x6C634300081800330000000000000000 "},"methodIdentifiers":{"calculateTokenSaleRate(uint256,uint256,uint8)":"3683bdcf","calculateTotalTokensNeeded(uint256,uint256,uint256,uint256,uint256)":"42bca120","creationFees(uint256)":"b6e15274","deployedLaunches(address,uint256)":"57ad3922","feeEarned()":"d5f63a06","getAddressCreate2(bytes,uint256)":"9f886f26","getBytecode((address,uint256,uint256,uint256,uint256,uint256,uint256,uint256,uint256,uint256,uint256),address)":"c8527f47","getCreationFees()":"bd978833","getTotalAmount((address,uint256,uint256,uint256,uint256,uint256,uint256,uint256,uint256,uint256,uint256))":"555a1a7b","getdeployedLaunches(address)":"4455a343","getdeployedLaunchesLen(address)":"e5e868ab","newFairLaunch((address,uint256,uint256,uint256,uint256,uint256,uint256,uint256,uint256,uint256,uint256))":"39354c60","owner()":"8da5cb5b","renounceOwnership()":"715018a6","transferOwnership(address)":"f2fde38b","upadateCreationFees(uint256[])":"ca3df80e","withdraw()":"3ccfd60b","withdrawToken(address)":"89476069"}}}}}