{"contracts/fair-launch/ThrustpadFairLaunch.sol":{"ThrustpadFairLaunch":{"abi":[{"inputs":[{"components":[{"internalType":"address","name":"token","type":"address"},{"internalType":"uint256","name":"softCap","type":"uint256"},{"internalType":"uint256","name":"hardCap","type":"uint256"},{"internalType":"uint256","name":"amountForSale","type":"uint256"},{"internalType":"uint256","name":"listingRate","type":"uint256"},{"internalType":"uint256","name":"minimumBuy","type":"uint256"},{"internalType":"uint256","name":"maximumBuy","type":"uint256"},{"internalType":"uint256","name":"percentageForLiquidity","type":"uint256"},{"internalType":"uint256","name":"percentageForTeam","type":"uint256"},{"internalType":"uint256","name":"startDate","type":"uint256"},{"internalType":"uint256","name":"endDate","type":"uint256"}],"internalType":"struct FairLaunchConfig","name":"_config","type":"tuple"},{"internalType":"address","name":"_owner","type":"address"}],"stateMutability":"nonpayable","type":"constructor"},{"inputs":[{"internalType":"address","name":"owner","type":"address"}],"name":"OwnableInvalidOwner","type":"error"},{"inputs":[{"internalType":"address","name":"account","type":"address"}],"name":"OwnableUnauthorizedAccount","type":"error"},{"inputs":[],"name":"ReentrancyGuardReentrantCall","type":"error"},{"anonymous":false,"inputs":[{"indexed":true,"internalType":"address","name":"owner","type":"address"},{"indexed":true,"internalType":"address","name":"pair","type":"address"},{"indexed":false,"internalType":"uint256","name":"amountLPTokens","type":"uint256"}],"name":"LPTokensClaimed","type":"event"},{"anonymous":false,"inputs":[{"indexed":true,"internalType":"uint256","name":"tokenId","type":"uint256"},{"indexed":false,"internalType":"uint256","name":"liquidity","type":"uint256"},{"indexed":false,"internalType":"uint256","name":"amount0","type":"uint256"},{"indexed":false,"internalType":"uint256","name":"amount1","type":"uint256"}],"name":"LiquidityDeployed","type":"event"},{"anonymous":false,"inputs":[{"indexed":true,"internalType":"address","name":"previousOwner","type":"address"},{"indexed":true,"internalType":"address","name":"newOwner","type":"address"}],"name":"OwnershipTransferred","type":"event"},{"anonymous":false,"inputs":[{"indexed":true,"internalType":"address","name":"buyer","type":"address"},{"indexed":true,"internalType":"address","name":"token","type":"address"},{"indexed":false,"internalType":"uint256","name":"amountInEdu","type":"uint256"}],"name":"Refund","type":"event"},{"anonymous":false,"inputs":[{"indexed":true,"internalType":"address","name":"team","type":"address"},{"indexed":true,"internalType":"address","name":"token","type":"address"},{"indexed":false,"internalType":"uint256","name":"amountInToken","type":"uint256"}],"name":"TeamClaimed","type":"event"},{"anonymous":false,"inputs":[{"indexed":true,"internalType":"address","name":"buyer","type":"address"},{"indexed":true,"internalType":"address","name":"token","type":"address"},{"indexed":false,"internalType":"uint256","name":"amountInEdu","type":"uint256"}],"name":"TokenBought","type":"event"},{"anonymous":false,"inputs":[{"indexed":true,"internalType":"address","name":"buyer","type":"address"},{"indexed":true,"internalType":"address","name":"token","type":"address"},{"indexed":false,"internalType":"uint256","name":"amountInToken","type":"uint256"}],"name":"TokenClaimed","type":"event"},{"inputs":[],"name":"LPTokenAddress","outputs":[{"internalType":"address","name":"","type":"address"}],"stateMutability":"view","type":"function"},{"inputs":[],"name":"NFTManager","outputs":[{"internalType":"address","name":"","type":"address"}],"stateMutability":"view","type":"function"},{"inputs":[],"name":"V3Factory","outputs":[{"internalType":"address","name":"","type":"address"}],"stateMutability":"view","type":"function"},{"inputs":[],"name":"WEDU","outputs":[{"internalType":"address","name":"","type":"address"}],"stateMutability":"view","type":"function"},{"inputs":[],"name":"buyToken","outputs":[],"stateMutability":"payable","type":"function"},{"inputs":[],"name":"claimLPTokens","outputs":[],"stateMutability":"nonpayable","type":"function"},{"inputs":[],"name":"claimRefund","outputs":[],"stateMutability":"nonpayable","type":"function"},{"inputs":[],"name":"claimTokens","outputs":[],"stateMutability":"nonpayable","type":"function"},{"inputs":[{"internalType":"address","name":"","type":"address"}],"name":"claimed","outputs":[{"internalType":"uint256","name":"","type":"uint256"}],"stateMutability":"view","type":"function"},{"inputs":[],"name":"config","outputs":[{"internalType":"address","name":"token","type":"address"},{"internalType":"uint256","name":"softCap","type":"uint256"},{"internalType":"uint256","name":"hardCap","type":"uint256"},{"internalType":"uint256","name":"amountForSale","type":"uint256"},{"internalType":"uint256","name":"listingRate","type":"uint256"},{"internalType":"uint256","name":"minimumBuy","type":"uint256"},{"internalType":"uint256","name":"maximumBuy","type":"uint256"},{"internalType":"uint256","name":"percentageForLiquidity","type":"uint256"},{"internalType":"uint256","name":"percentageForTeam","type":"uint256"},{"internalType":"uint256","name":"startDate","type":"uint256"},{"internalType":"uint256","name":"endDate","type":"uint256"}],"stateMutability":"view","type":"function"},{"inputs":[],"name":"deployLiquidity","outputs":[],"stateMutability":"nonpayable","type":"function"},{"inputs":[{"internalType":"address","name":"_token","type":"address"},{"internalType":"uint256","name":"_amount","type":"uint256"}],"name":"emergencyTransfer","outputs":[],"stateMutability":"nonpayable","type":"function"},{"inputs":[{"internalType":"uint256","name":"_amount","type":"uint256"}],"name":"emergencyTransferEDU","outputs":[],"stateMutability":"nonpayable","type":"function"},{"inputs":[{"internalType":"uint256","name":"reserve1","type":"uint256"},{"internalType":"uint256","name":"reserve0","type":"uint256"}],"name":"encodePriceSqrt","outputs":[{"internalType":"uint160","name":"","type":"uint160"}],"stateMutability":"pure","type":"function"},{"inputs":[],"name":"liquidityDeployed","outputs":[{"internalType":"bool","name":"","type":"bool"}],"stateMutability":"view","type":"function"},{"inputs":[],"name":"owner","outputs":[{"internalType":"address","name":"","type":"address"}],"stateMutability":"view","type":"function"},{"inputs":[{"internalType":"address","name":"","type":"address"}],"name":"purchaseHistory","outputs":[{"internalType":"uint256","name":"","type":"uint256"}],"stateMutability":"view","type":"function"},{"inputs":[],"name":"renounceOwnership","outputs":[],"stateMutability":"nonpayable","type":"function"},{"inputs":[{"internalType":"uint256","name":"x","type":"uint256"}],"name":"sqrt","outputs":[{"internalType":"uint256","name":"y","type":"uint256"}],"stateMutability":"pure","type":"function"},{"inputs":[],"name":"teamClaimed","outputs":[{"internalType":"bool","name":"","type":"bool"}],"stateMutability":"view","type":"function"},{"inputs":[],"name":"totalContributors","outputs":[{"internalType":"uint256","name":"","type":"uint256"}],"stateMutability":"view","type":"function"},{"inputs":[],"name":"totalSold","outputs":[{"internalType":"uint256","name":"","type":"uint256"}],"stateMutability":"view","type":"function"},{"inputs":[{"internalType":"address","name":"newOwner","type":"address"}],"name":"transferOwnership","outputs":[],"stateMutability":"nonpayable","type":"function"},{"inputs":[],"name":"withdrawTeamTokens","outputs":[],"stateMutability":"nonpayable","type":"function"},{"stateMutability":"payable","type":"receive"}],"evm":{"bytecode":{"linkReferences":{},"object":"6080346200022057601f62001b3438819003918201601f1916830192916001600160401b039190828511848610176200020a578084926040968752833981010392610180841262000220576101608094126200022057805191848301908111838210176200020a578152620000748362000225565b82526020830151602083019081528184015182840190815260608501516060850190815260808601516080860190815260a08701519160a0870192835260c08801519360c0880194855260e08901519560e0890196875261010097888b0151988a01988952610120998a8c01519a81019a8b526101409b8c8101519c82019c8d526200010a60018060a01b039e8f920162000225565b168015620001f257600080546001600160a01b03198082168417835594519f939291908416907f8be0079c531659141344cd1fd0a4f28419497f9722a3daafe3b4186f6b6457e09080a36001805573a9cbef0c9274f985340816ed2074abf5aac2546383601254161760125573135e304139c5113895c97dce8b9eda56d4b53cf983601354161760135573b5cab4e42cb5f16d00c644cb7163f8b427d7a8bf83601454161760145551169060025416176002555160035551600455516005555160065551600755516008555160095551600a5551600b5551600c556118f990816200023b8239f35b8251631e4fbdf760e01b815260006004820152602490fd5b634e487b7160e01b600052604160045260246000fd5b600080fd5b51906001600160a01b0382168203620002205756fe608080604052600436101561001d575b50361561001b57600080fd5b005b60003560e01c9081632f334652146114cd5750806338af6632146113375780634086bf8914610c6d57806348c54b9d14610b3f57806362eba8b014610b18578063677342ce14610af2578063715018a614610a8c57806379502c5514610a0c5780637d7cf6c5146109e55780638da5cb5b146109be5780639106d7ba146109a0578063953b7ef81461087357806397d569971461084c5780639c5913cc14610829578063a4821719146104d7578063b5545a3c146103be578063c3828bf014610394578063c884ef831461035a578063cd309ec914610328578063d812195c146102de578063dbf0f3e21461023b578063e45f2b8a14610201578063f251fc8c146101e35763f2fde38b14610132573861000f565b346101de5760203660031901126101de5761014b6114f0565b610153611844565b6001600160a01b038091169081156101ad576000548273ffffffffffffffffffffffffffffffffffffffff19821617600055167f8be0079c531659141344cd1fd0a4f28419497f9722a3daafe3b4186f6b6457e0600080a3005b60246040517f1e4fbdf700000000000000000000000000000000000000000000000000000000815260006004820152fd5b600080fd5b346101de5760003660031901126101de576020600e54604051908152f35b346101de5760203660031901126101de576001600160a01b036102226114f0565b1660005260106020526020604060002054604051908152f35b346101de5760403660031901126101de576102546114f0565b61025c611844565b61026a600c544210156117f9565b60405163a9059cbb60e01b8152336004820152602480359082015290602090829060449082906000906001600160a01b03165af180156102d2576102aa57005b61001b9060203d6020116102cb575b6102c38183611513565b810190611535565b503d6102b9565b6040513d6000823e3d90fd5b346101de5760203660031901126101de5760008080806004356102ff611844565b61030d600c544210156117f9565b81811561031f575b3390f1156102d257005b506108fc610315565b346101de5760403660031901126101de576020610349602435600435611731565b6001600160a01b0360405191168152f35b346101de5760203660031901126101de576001600160a01b0361037b6114f0565b1660005260116020526020604060002054604051908152f35b346101de5760003660031901126101de5760206001600160a01b03600f5460101c16604051908152f35b346101de5760003660031901126101de576103d7611888565b6103e5600c5442101561154d565b600d5460035411156104855733600052601160205261040960406000205415611681565b336000526010602052604060002054601160205280604060002055806000811561047c575b600080809381933390f1156102d2576001600160a01b0360025416906040519081527ff40cc8c1a1d17359049ba500cfc894596a692cffc9d03943cd92ec2e159cf6ae60203392a360018055005b506108fc61042e565b608460405162461bcd60e51b815260206004820152602560248201527f546872757374706164466169724c61756e63683a20736f6674206361702072656044820152641858da195960da1b6064820152fd5b60003660031901126101de57600b5442106107bf57600c5442116107555760075434106106eb5760085480341161068157600d54906105163483611506565b6004541061062f5733600052601060205261053634604060002054611506565b116105c557610546903490611506565b600d55600e54600181018091116105af57600e553360005260106020526040600020610573348254611506565b90556001600160a01b03600254166040513481527f9b24bd0884170cbce51f9f00df6b3f9aed2231e4086241d1d04687b42afdf7b960203392a3005b634e487b7160e01b600052601160045260246000fd5b608460405162461bcd60e51b815260206004820152603360248201527f546872757374706164466169724c61756e63683a2077616c6c6574206861732060448201527f72656163686564206d6178696d756d20627579000000000000000000000000006064820152fd5b608460405162461bcd60e51b815260206004820152602560248201527f546872757374706164466169724c61756e63683a2068617264206361702072656044820152641858da195960da1b6064820152fd5b608460405162461bcd60e51b815260206004820152603460248201527f546872757374706164466169724c61756e63683a20616d6f756e74206973206d60448201527f6f7265207468616e206d6178696d756d206275790000000000000000000000006064820152fd5b608460405162461bcd60e51b815260206004820152603460248201527f546872757374706164466169724c61756e63683a20616d6f756e74206973206c60448201527f657373207468616e206d696e696d756d206275790000000000000000000000006064820152fd5b608460405162461bcd60e51b815260206004820152602360248201527f546872757374706164466169724c61756e63683a2073616c652068617320656e60448201527f64656400000000000000000000000000000000000000000000000000000000006064820152fd5b608460405162461bcd60e51b815260206004820152602d60248201527f546872757374706164466169724c61756e63683a2073616c6520686173206e6f60448201527f74207374617274656420796574000000000000000000000000000000000000006064820152fd5b346101de5760003660031901126101de57602060ff600f54166040519015158152f35b346101de5760003660031901126101de5760206001600160a01b0360145416604051908152f35b346101de5760003660031901126101de5761088c611844565b61089a600c5442101561154d565b600d546108ab6003548210156115be565b600f549060ff8260081c166109365760646108cb61010092600a5461164e565b049161ff00191617600f556001600160a01b036000808080858582541682821561092d575bf1156102d2577fa95e69983c44f17474cba286953deb119463b9f5cb8cfde4fd709df3660266f760208260005416926002541693604051908152a3005b506108fc6108f0565b608460405162461bcd60e51b815260206004820152603060248201527f546872757374706164466169724c61756e63683a207465616d20746f6b656e7360448201527f20616c726561647920636c61696d6564000000000000000000000000000000006064820152fd5b346101de5760003660031901126101de576020600d54604051908152f35b346101de5760003660031901126101de5760206001600160a01b0360005416604051908152f35b346101de5760003660031901126101de5760206001600160a01b0360135416604051908152f35b346101de5760003660031901126101de576101606001600160a01b03600254166003546004546005546006546007546008549060095492600a5494600b5496600c54986040519a8b5260208b015260408a01526060890152608088015260a087015260c086015260e0850152610100840152610120830152610140820152f35b346101de5760003660031901126101de57610aa5611844565b60006001600160a01b03815473ffffffffffffffffffffffffffffffffffffffff1981168355167f8be0079c531659141344cd1fd0a4f28419497f9722a3daafe3b4186f6b6457e08280a3005b346101de5760203660031901126101de576020610b106004356116f2565b604051908152f35b346101de5760003660031901126101de5760206001600160a01b0360125416604051908152f35b346101de5760003660031901126101de57610b58611888565b610b66600c5442101561154d565b610b76600d5460035411156115be565b33600052602060118152610b8f60406000205415611681565b610bb4610ba160055460045490611661565b336000526010835260406000205461164e565b3360005260118252806040600020556001600160a01b0380600254169083604051809363a9059cbb60e01b825281600081610c09893360048401602090939291936001600160a01b0360408201951681520152565b03925af19182156102d2577f4831bdd9dcf3048a28319ce81d3cab7a15366bcf449bc7803a539107440809cc92610c50575b5060025416926040519283523392a360018055005b610c6690853d87116102cb576102c38183611513565b5084610c3b565b346101de5760003660031901126101de57610c86611844565b610c94600c5442101561154d565b610ca4600d5460035411156115be565b6001600160a01b03601454166001600160a01b03601254166001600160a01b036002541690606460206001600160a01b036013541694604051928380927f1698ee82000000000000000000000000000000000000000000000000000000008252876004830152886024830152610bb860448301525afa80156102d2576001600160a01b0391600091611318575b50166112ae5782821461126a5782821015611264578192915b6001600160a01b0384161561122057600080916001600160a01b038516811461120b575b6001600160a01b038616146111f8575b6084610d946020936001600160a01b0393611731565b600060405195869485937f13ead562000000000000000000000000000000000000000000000000000000008552818b166004860152818a166024860152610bb860448601521660648401525af180156102d2576111c9575b50600060206001600160a01b036002541660446001600160a01b036012541660405194859384927f095ea7b30000000000000000000000000000000000000000000000000000000084526004840152811960248401525af180156102d2576111aa575b506064610e61600954600d549061164e565b0491610e6f6006548461164e565b916001600160a01b0360125416936001600160a01b036002541693846001600160a01b038516146000146111a35780945b6001600160a01b0384160361119c57905b61012c420142116105af57604051918261016081011067ffffffffffffffff61016085011117611186576080956001600160a01b036101649581610140986101608801604052168652166020850152610bb86040850152620d89b3196060850152620d89b48785015260a084015260c0830152600060e083015260006101008301523361012083015261012c42018483015260405195869485937f883164560000000000000000000000000000000000000000000000000000000085526001600160a01b0381511660048601526001600160a01b03602082015116602486015262ffffff6040820151166044860152606081015160020b60648601528781015160020b608486015260a081015160a486015260c081015160c486015260e081015160e48601526101008101516101048601526001600160a01b036101208201511661012486015201516101448401525af180156102d25760009160008091600093611121575b506001600160a01b0360025416926040516370a0823160e01b8152306004820152602081602481885afa9081156102d2576000916110ee575b506000946044602092604051978893849263a9059cbb60e01b845282600485015260248401525af19283156102d2577f93c8c206bc4e0e31ab69b39355c974c1584de6caae2b529dc41fe11fcf218ed3946060946110cf575b506fffffffffffffffffffffffffffffffff6040519316835260208301526040820152a2005b6110e79060203d6020116102cb576102c38183611513565b50866110a9565b90506020813d602011611119575b8161110960209383611513565b810103126101de57516000611050565b3d91506110fc565b93505050506080813d60801161117e575b8161113f60809383611513565b810103126101de578051906020810151916fffffffffffffffffffffffffffffffff831683036101de5760606040830151920151909291909184611017565b3d9150611132565b634e487b7160e01b600052604160045260246000fd5b5080610eb1565b8194610ea0565b6111c29060203d6020116102cb576102c38183611513565b5082610e4f565b6111ea9060203d6020116111f1575b6111e28183611513565b81019061162f565b5082610dec565b503d6111d8565b5050600654670de0b6b3a7640000610d7e565b915050600654670de0b6b3a764000091610d6e565b606460405162461bcd60e51b815260206004820152600c60248201527f5a45524f5f4144445245535300000000000000000000000000000000000000006044820152fd5b81610d4a565b606460405162461bcd60e51b815260206004820152601360248201527f4944454e544943414c5f414444524553534553000000000000000000000000006044820152fd5b608460405162461bcd60e51b815260206004820152602860248201527f546872757374706164466169724c61756e63683a205061697220616c7265616460448201527f79206578697374730000000000000000000000000000000000000000000000006064820152fd5b611331915060203d6020116111f1576111e28183611513565b85610d31565b346101de5760003660031901126101de57611350611844565b600c5462278d0081018091116105af574210611463576001600160a01b0380600f5460101c16604051906370a0823160e01b82523060048301526020928383602481855afa9283156102d257600093611434575b50826113ac57005b60405163a9059cbb60e01b815233600482015260248101849052918490839060449082906000905af19182156102d2577f4f2e1c4d34092405172a61f387073a9b61bfcbb54eceb1e96383d36e19b394a992611417575b50600f5460101c16926040519283523392a3005b61142d90853d87116102cb576102c38183611513565b5084611403565b9092508381813d831161145c575b61144c8183611513565b810103126101de575191846113a4565b503d611442565b608460405162461bcd60e51b815260206004820152602d60248201527f546872757374706164466169724c61756e63683a204c6f636b20706572696f6460448201527f206e6f74206f76657220796574000000000000000000000000000000000000006064820152fd5b346101de5760003660031901126101de5760209060ff600f5460081c1615158152f35b600435906001600160a01b03821682036101de57565b919082018092116105af57565b90601f8019910116810190811067ffffffffffffffff82111761118657604052565b908160209103126101de575180151581036101de5790565b1561155457565b608460405162461bcd60e51b815260206004820152602b60248201527f546872757374706164466169724c61756e63683a2073616c6520686173206e6f60448201527f7420656e646564207965740000000000000000000000000000000000000000006064820152fd5b156115c557565b608460405162461bcd60e51b815260206004820152602960248201527f546872757374706164466169724c61756e63683a20736f667420636170206e6f60448201527f74207265616368656400000000000000000000000000000000000000000000006064820152fd5b908160209103126101de57516001600160a01b03811681036101de5790565b818102929181159184041417156105af57565b811561166b570490565b634e487b7160e01b600052601260045260246000fd5b1561168857565b608460405162461bcd60e51b815260206004820152602b60248201527f546872757374706164466169724c61756e63683a20746f6b656e7320616c726560448201527f61647920636c61696d65640000000000000000000000000000000000000000006064820152fd5b9060018083018084116105af5760011c90835b84831061171157505050565b90919350611728846117238184611661565b611506565b821c9190611705565b811515806117f0575b156117ac576117549161174f9160c01b611661565b6116f2565b6001600160a01b0390818111611768571690565b606460405162461bcd60e51b815260206004820152601360248201527f535152545f50524943455f544f4f5f48494748000000000000000000000000006044820152fd5b606460405162461bcd60e51b815260206004820152601060248201527f494e56414c49445f5245534552564553000000000000000000000000000000006044820152fd5b5080151561173a565b1561180057565b606460405162461bcd60e51b815260206004820152600e60248201527f4e6f7420617574686f72697a65640000000000000000000000000000000000006044820152fd5b6001600160a01b0360005416330361185857565b60246040517f118cdaa7000000000000000000000000000000000000000000000000000000008152336004820152fd5b600260015414611899576002600155565b60046040517f3ee5aeb5000000000000000000000000000000000000000000000000000000008152fdfea264697066735822122092e66c8af1cba26e0552a737528d26376b38d1c3bd9cba2035e1873701ce8e5264736f6c63430008180033","opcodes":"PUSH1 0x80 CALLVALUE PUSH3 0x220 JUMPI PUSH1 0x1F PUSH3 0x1B34 CODESIZE DUP2 SWAP1 SUB SWAP2 DUP3 ADD PUSH1 0x1F NOT AND DUP4 ADD SWAP3 SWAP2 PUSH1 0x1 PUSH1 0x1 PUSH1 0x40 SHL SUB SWAP2 SWAP1 DUP3 DUP6 GT DUP5 DUP7 LT OR PUSH3 0x20A JUMPI DUP1 DUP5 SWAP3 PUSH1 0x40 SWAP7 DUP8 MSTORE DUP4 CODECOPY DUP2 ADD SUB SWAP3 PUSH2 0x180 DUP5 SLT PUSH3 0x220 JUMPI PUSH2 0x160 DUP1 SWAP5 SLT PUSH3 0x220 JUMPI DUP1 MLOAD SWAP2 DUP5 DUP4 ADD SWAP1 DUP2 GT DUP4 DUP3 LT OR PUSH3 0x20A JUMPI DUP2 MSTORE PUSH3 0x74 DUP4 PUSH3 0x225 JUMP JUMPDEST DUP3 MSTORE PUSH1 0x20 DUP4 ADD MLOAD PUSH1 0x20 DUP4 ADD SWAP1 DUP2 MSTORE DUP2 DUP5 ADD MLOAD DUP3 DUP5 ADD SWAP1 DUP2 MSTORE PUSH1 0x60 DUP6 ADD MLOAD PUSH1 0x60 DUP6 ADD SWAP1 DUP2 MSTORE PUSH1 0x80 DUP7 ADD MLOAD PUSH1 0x80 DUP7 ADD SWAP1 DUP2 MSTORE PUSH1 0xA0 DUP8 ADD MLOAD SWAP2 PUSH1 0xA0 DUP8 ADD SWAP3 DUP4 MSTORE PUSH1 0xC0 DUP9 ADD MLOAD SWAP4 PUSH1 0xC0 DUP9 ADD SWAP5 DUP6 MSTORE PUSH1 0xE0 DUP10 ADD MLOAD SWAP6 PUSH1 0xE0 DUP10 ADD SWAP7 DUP8 MSTORE PUSH2 0x100 SWAP8 DUP9 DUP12 ADD MLOAD SWAP9 DUP11 ADD SWAP9 DUP10 MSTORE PUSH2 0x120 SWAP10 DUP11 DUP13 ADD MLOAD SWAP11 DUP2 ADD SWAP11 DUP12 MSTORE PUSH2 0x140 SWAP12 DUP13 DUP2 ADD MLOAD SWAP13 DUP3 ADD SWAP13 DUP14 MSTORE PUSH3 0x10A PUSH1 0x1 DUP1 PUSH1 0xA0 SHL SUB SWAP15 DUP16 SWAP3 ADD PUSH3 0x225 JUMP JUMPDEST AND DUP1 ISZERO PUSH3 0x1F2 JUMPI PUSH1 0x0 DUP1 SLOAD PUSH1 0x1 PUSH1 0x1 PUSH1 0xA0 SHL SUB NOT DUP1 DUP3 AND DUP5 OR DUP4 SSTORE SWAP5 MLOAD SWAP16 SWAP4 SWAP3 SWAP2 SWAP1 DUP5 AND SWAP1 PUSH32 0x8BE0079C531659141344CD1FD0A4F28419497F9722A3DAAFE3B4186F6B6457E0 SWAP1 DUP1 LOG3 PUSH1 0x1 DUP1 SSTORE PUSH20 0xA9CBEF0C9274F985340816ED2074ABF5AAC25463 DUP4 PUSH1 0x12 SLOAD AND OR PUSH1 0x12 SSTORE PUSH20 0x135E304139C5113895C97DCE8B9EDA56D4B53CF9 DUP4 PUSH1 0x13 SLOAD AND OR PUSH1 0x13 SSTORE PUSH20 0xB5CAB4E42CB5F16D00C644CB7163F8B427D7A8BF DUP4 PUSH1 0x14 SLOAD AND OR PUSH1 0x14 SSTORE MLOAD AND SWAP1 PUSH1 0x2 SLOAD AND OR PUSH1 0x2 SSTORE MLOAD PUSH1 0x3 SSTORE MLOAD PUSH1 0x4 SSTORE MLOAD PUSH1 0x5 SSTORE MLOAD PUSH1 0x6 SSTORE MLOAD PUSH1 0x7 SSTORE MLOAD PUSH1 0x8 SSTORE MLOAD PUSH1 0x9 SSTORE MLOAD PUSH1 0xA SSTORE MLOAD PUSH1 0xB SSTORE MLOAD PUSH1 0xC SSTORE PUSH2 0x18F9 SWAP1 DUP2 PUSH3 0x23B DUP3 CODECOPY RETURN JUMPDEST DUP3 MLOAD PUSH4 0x1E4FBDF7 PUSH1 0xE0 SHL DUP2 MSTORE PUSH1 0x0 PUSH1 0x4 DUP3 ADD MSTORE PUSH1 0x24 SWAP1 REVERT JUMPDEST PUSH4 0x4E487B71 PUSH1 0xE0 SHL PUSH1 0x0 MSTORE PUSH1 0x41 PUSH1 0x4 MSTORE PUSH1 0x24 PUSH1 0x0 REVERT JUMPDEST PUSH1 0x0 DUP1 REVERT JUMPDEST MLOAD SWAP1 PUSH1 0x1 PUSH1 0x1 PUSH1 0xA0 SHL SUB DUP3 AND DUP3 SUB PUSH3 0x220 JUMPI JUMP INVALID PUSH1 0x80 DUP1 PUSH1 0x40 MSTORE PUSH1 0x4 CALLDATASIZE LT ISZERO PUSH2 0x1D JUMPI JUMPDEST POP CALLDATASIZE ISZERO PUSH2 0x1B JUMPI PUSH1 0x0 DUP1 REVERT JUMPDEST STOP JUMPDEST PUSH1 0x0 CALLDATALOAD PUSH1 0xE0 SHR SWAP1 DUP2 PUSH4 0x2F334652 EQ PUSH2 0x14CD JUMPI POP DUP1 PUSH4 0x38AF6632 EQ PUSH2 0x1337 JUMPI DUP1 PUSH4 0x4086BF89 EQ PUSH2 0xC6D JUMPI DUP1 PUSH4 0x48C54B9D EQ PUSH2 0xB3F JUMPI DUP1 PUSH4 0x62EBA8B0 EQ PUSH2 0xB18 JUMPI DUP1 PUSH4 0x677342CE EQ PUSH2 0xAF2 JUMPI DUP1 PUSH4 0x715018A6 EQ PUSH2 0xA8C JUMPI DUP1 PUSH4 0x79502C55 EQ PUSH2 0xA0C JUMPI DUP1 PUSH4 0x7D7CF6C5 EQ PUSH2 0x9E5 JUMPI DUP1 PUSH4 0x8DA5CB5B EQ PUSH2 0x9BE JUMPI DUP1 PUSH4 0x9106D7BA EQ PUSH2 0x9A0 JUMPI DUP1 PUSH4 0x953B7EF8 EQ PUSH2 0x873 JUMPI DUP1 PUSH4 0x97D56997 EQ PUSH2 0x84C JUMPI DUP1 PUSH4 0x9C5913CC EQ PUSH2 0x829 JUMPI DUP1 PUSH4 0xA4821719 EQ PUSH2 0x4D7 JUMPI DUP1 PUSH4 0xB5545A3C EQ PUSH2 0x3BE JUMPI DUP1 PUSH4 0xC3828BF0 EQ PUSH2 0x394 JUMPI DUP1 PUSH4 0xC884EF83 EQ PUSH2 0x35A JUMPI DUP1 PUSH4 0xCD309EC9 EQ PUSH2 0x328 JUMPI DUP1 PUSH4 0xD812195C EQ PUSH2 0x2DE JUMPI DUP1 PUSH4 0xDBF0F3E2 EQ PUSH2 0x23B JUMPI DUP1 PUSH4 0xE45F2B8A EQ PUSH2 0x201 JUMPI DUP1 PUSH4 0xF251FC8C EQ PUSH2 0x1E3 JUMPI PUSH4 0xF2FDE38B EQ PUSH2 0x132 JUMPI CODESIZE PUSH2 0xF JUMP JUMPDEST CALLVALUE PUSH2 0x1DE JUMPI PUSH1 0x20 CALLDATASIZE PUSH1 0x3 NOT ADD SLT PUSH2 0x1DE JUMPI PUSH2 0x14B PUSH2 0x14F0 JUMP JUMPDEST PUSH2 0x153 PUSH2 0x1844 JUMP JUMPDEST PUSH1 0x1 PUSH1 0x1 PUSH1 0xA0 SHL SUB DUP1 SWAP2 AND SWAP1 DUP2 ISZERO PUSH2 0x1AD JUMPI PUSH1 0x0 SLOAD DUP3 PUSH20 0xFFFFFFFFFFFFFFFFFFFFFFFFFFFFFFFFFFFFFFFF NOT DUP3 AND OR PUSH1 0x0 SSTORE AND PUSH32 0x8BE0079C531659141344CD1FD0A4F28419497F9722A3DAAFE3B4186F6B6457E0 PUSH1 0x0 DUP1 LOG3 STOP JUMPDEST PUSH1 0x24 PUSH1 0x40 MLOAD PUSH32 0x1E4FBDF700000000000000000000000000000000000000000000000000000000 DUP2 MSTORE PUSH1 0x0 PUSH1 0x4 DUP3 ADD MSTORE REVERT JUMPDEST PUSH1 0x0 DUP1 REVERT JUMPDEST CALLVALUE PUSH2 0x1DE JUMPI PUSH1 0x0 CALLDATASIZE PUSH1 0x3 NOT ADD SLT PUSH2 0x1DE JUMPI PUSH1 0x20 PUSH1 0xE SLOAD PUSH1 0x40 MLOAD SWAP1 DUP2 MSTORE RETURN JUMPDEST CALLVALUE PUSH2 0x1DE JUMPI PUSH1 0x20 CALLDATASIZE PUSH1 0x3 NOT ADD SLT PUSH2 0x1DE JUMPI PUSH1 0x1 PUSH1 0x1 PUSH1 0xA0 SHL SUB PUSH2 0x222 PUSH2 0x14F0 JUMP JUMPDEST AND PUSH1 0x0 MSTORE PUSH1 0x10 PUSH1 0x20 MSTORE PUSH1 0x20 PUSH1 0x40 PUSH1 0x0 KECCAK256 SLOAD PUSH1 0x40 MLOAD SWAP1 DUP2 MSTORE RETURN JUMPDEST CALLVALUE PUSH2 0x1DE JUMPI PUSH1 0x40 CALLDATASIZE PUSH1 0x3 NOT ADD SLT PUSH2 0x1DE JUMPI PUSH2 0x254 PUSH2 0x14F0 JUMP JUMPDEST PUSH2 0x25C PUSH2 0x1844 JUMP JUMPDEST PUSH2 0x26A PUSH1 0xC SLOAD TIMESTAMP LT ISZERO PUSH2 0x17F9 JUMP JUMPDEST PUSH1 0x40 MLOAD PUSH4 0xA9059CBB PUSH1 0xE0 SHL DUP2 MSTORE CALLER PUSH1 0x4 DUP3 ADD MSTORE PUSH1 0x24 DUP1 CALLDATALOAD SWAP1 DUP3 ADD MSTORE SWAP1 PUSH1 0x20 SWAP1 DUP3 SWAP1 PUSH1 0x44 SWAP1 DUP3 SWAP1 PUSH1 0x0 SWAP1 PUSH1 0x1 PUSH1 0x1 PUSH1 0xA0 SHL SUB AND GAS CALL DUP1 ISZERO PUSH2 0x2D2 JUMPI PUSH2 0x2AA JUMPI STOP JUMPDEST PUSH2 0x1B SWAP1 PUSH1 0x20 RETURNDATASIZE PUSH1 0x20 GT PUSH2 0x2CB JUMPI JUMPDEST PUSH2 0x2C3 DUP2 DUP4 PUSH2 0x1513 JUMP JUMPDEST DUP2 ADD SWAP1 PUSH2 0x1535 JUMP JUMPDEST POP RETURNDATASIZE PUSH2 0x2B9 JUMP JUMPDEST PUSH1 0x40 MLOAD RETURNDATASIZE PUSH1 0x0 DUP3 RETURNDATACOPY RETURNDATASIZE SWAP1 REVERT JUMPDEST CALLVALUE PUSH2 0x1DE JUMPI PUSH1 0x20 CALLDATASIZE PUSH1 0x3 NOT ADD SLT PUSH2 0x1DE JUMPI PUSH1 0x0 DUP1 DUP1 DUP1 PUSH1 0x4 CALLDATALOAD PUSH2 0x2FF PUSH2 0x1844 JUMP JUMPDEST PUSH2 0x30D PUSH1 0xC SLOAD TIMESTAMP LT ISZERO PUSH2 0x17F9 JUMP JUMPDEST DUP2 DUP2 ISZERO PUSH2 0x31F JUMPI JUMPDEST CALLER SWAP1 CALL ISZERO PUSH2 0x2D2 JUMPI STOP JUMPDEST POP PUSH2 0x8FC PUSH2 0x315 JUMP JUMPDEST CALLVALUE PUSH2 0x1DE JUMPI PUSH1 0x40 CALLDATASIZE PUSH1 0x3 NOT ADD SLT PUSH2 0x1DE JUMPI PUSH1 0x20 PUSH2 0x349 PUSH1 0x24 CALLDATALOAD PUSH1 0x4 CALLDATALOAD PUSH2 0x1731 JUMP JUMPDEST PUSH1 0x1 PUSH1 0x1 PUSH1 0xA0 SHL SUB PUSH1 0x40 MLOAD SWAP2 AND DUP2 MSTORE RETURN JUMPDEST CALLVALUE PUSH2 0x1DE JUMPI PUSH1 0x20 CALLDATASIZE PUSH1 0x3 NOT ADD SLT PUSH2 0x1DE JUMPI PUSH1 0x1 PUSH1 0x1 PUSH1 0xA0 SHL SUB PUSH2 0x37B PUSH2 0x14F0 JUMP JUMPDEST AND PUSH1 0x0 MSTORE PUSH1 0x11 PUSH1 0x20 MSTORE PUSH1 0x20 PUSH1 0x40 PUSH1 0x0 KECCAK256 SLOAD PUSH1 0x40 MLOAD SWAP1 DUP2 MSTORE RETURN JUMPDEST CALLVALUE PUSH2 0x1DE JUMPI PUSH1 0x0 CALLDATASIZE PUSH1 0x3 NOT ADD SLT PUSH2 0x1DE JUMPI PUSH1 0x20 PUSH1 0x1 PUSH1 0x1 PUSH1 0xA0 SHL SUB PUSH1 0xF SLOAD PUSH1 0x10 SHR AND PUSH1 0x40 MLOAD SWAP1 DUP2 MSTORE RETURN JUMPDEST CALLVALUE PUSH2 0x1DE JUMPI PUSH1 0x0 CALLDATASIZE PUSH1 0x3 NOT ADD SLT PUSH2 0x1DE JUMPI PUSH2 0x3D7 PUSH2 0x1888 JUMP JUMPDEST PUSH2 0x3E5 PUSH1 0xC SLOAD TIMESTAMP LT ISZERO PUSH2 0x154D JUMP JUMPDEST PUSH1 0xD SLOAD PUSH1 0x3 SLOAD GT ISZERO PUSH2 0x485 JUMPI CALLER PUSH1 0x0 MSTORE PUSH1 0x11 PUSH1 0x20 MSTORE PUSH2 0x409 PUSH1 0x40 PUSH1 0x0 KECCAK256 SLOAD ISZERO PUSH2 0x1681 JUMP JUMPDEST CALLER PUSH1 0x0 MSTORE PUSH1 0x10 PUSH1 0x20 MSTORE PUSH1 0x40 PUSH1 0x0 KECCAK256 SLOAD PUSH1 0x11 PUSH1 0x20 MSTORE DUP1 PUSH1 0x40 PUSH1 0x0 KECCAK256 SSTORE DUP1 PUSH1 0x0 DUP2 ISZERO PUSH2 0x47C JUMPI JUMPDEST PUSH1 0x0 DUP1 DUP1 SWAP4 DUP2 SWAP4 CALLER SWAP1 CALL ISZERO PUSH2 0x2D2 JUMPI PUSH1 0x1 PUSH1 0x1 PUSH1 0xA0 SHL SUB PUSH1 0x2 SLOAD AND SWAP1 PUSH1 0x40 MLOAD SWAP1 DUP2 MSTORE PUSH32 0xF40CC8C1A1D17359049BA500CFC894596A692CFFC9D03943CD92EC2E159CF6AE PUSH1 0x20 CALLER SWAP3 LOG3 PUSH1 0x1 DUP1 SSTORE STOP JUMPDEST POP PUSH2 0x8FC PUSH2 0x42E JUMP JUMPDEST PUSH1 0x84 PUSH1 0x40 MLOAD PUSH3 0x461BCD PUSH1 0xE5 SHL DUP2 MSTORE PUSH1 0x20 PUSH1 0x4 DUP3 ADD MSTORE PUSH1 0x25 PUSH1 0x24 DUP3 ADD MSTORE PUSH32 0x546872757374706164466169724C61756E63683A20736F667420636170207265 PUSH1 0x44 DUP3 ADD MSTORE PUSH5 0x1858DA1959 PUSH1 0xDA SHL PUSH1 0x64 DUP3 ADD MSTORE REVERT JUMPDEST PUSH1 0x0 CALLDATASIZE PUSH1 0x3 NOT ADD SLT PUSH2 0x1DE JUMPI PUSH1 0xB SLOAD TIMESTAMP LT PUSH2 0x7BF JUMPI PUSH1 0xC SLOAD TIMESTAMP GT PUSH2 0x755 JUMPI PUSH1 0x7 SLOAD CALLVALUE LT PUSH2 0x6EB JUMPI PUSH1 0x8 SLOAD DUP1 CALLVALUE GT PUSH2 0x681 JUMPI PUSH1 0xD SLOAD SWAP1 PUSH2 0x516 CALLVALUE DUP4 PUSH2 0x1506 JUMP JUMPDEST PUSH1 0x4 SLOAD LT PUSH2 0x62F JUMPI CALLER PUSH1 0x0 MSTORE PUSH1 0x10 PUSH1 0x20 MSTORE PUSH2 0x536 CALLVALUE PUSH1 0x40 PUSH1 0x0 KECCAK256 SLOAD PUSH2 0x1506 JUMP JUMPDEST GT PUSH2 0x5C5 JUMPI PUSH2 0x546 SWAP1 CALLVALUE SWAP1 PUSH2 0x1506 JUMP JUMPDEST PUSH1 0xD SSTORE PUSH1 0xE SLOAD PUSH1 0x1 DUP2 ADD DUP1 SWAP2 GT PUSH2 0x5AF JUMPI PUSH1 0xE SSTORE CALLER PUSH1 0x0 MSTORE PUSH1 0x10 PUSH1 0x20 MSTORE PUSH1 0x40 PUSH1 0x0 KECCAK256 PUSH2 0x573 CALLVALUE DUP3 SLOAD PUSH2 0x1506 JUMP JUMPDEST SWAP1 SSTORE PUSH1 0x1 PUSH1 0x1 PUSH1 0xA0 SHL SUB PUSH1 0x2 SLOAD AND PUSH1 0x40 MLOAD CALLVALUE DUP2 MSTORE PUSH32 0x9B24BD0884170CBCE51F9F00DF6B3F9AED2231E4086241D1D04687B42AFDF7B9 PUSH1 0x20 CALLER SWAP3 LOG3 STOP JUMPDEST PUSH4 0x4E487B71 PUSH1 0xE0 SHL PUSH1 0x0 MSTORE PUSH1 0x11 PUSH1 0x4 MSTORE PUSH1 0x24 PUSH1 0x0 REVERT JUMPDEST PUSH1 0x84 PUSH1 0x40 MLOAD PUSH3 0x461BCD PUSH1 0xE5 SHL DUP2 MSTORE PUSH1 0x20 PUSH1 0x4 DUP3 ADD MSTORE PUSH1 0x33 PUSH1 0x24 DUP3 ADD MSTORE PUSH32 0x546872757374706164466169724C61756E63683A2077616C6C65742068617320 PUSH1 0x44 DUP3 ADD MSTORE PUSH32 0x72656163686564206D6178696D756D2062757900000000000000000000000000 PUSH1 0x64 DUP3 ADD MSTORE REVERT JUMPDEST PUSH1 0x84 PUSH1 0x40 MLOAD PUSH3 0x461BCD PUSH1 0xE5 SHL DUP2 MSTORE PUSH1 0x20 PUSH1 0x4 DUP3 ADD MSTORE PUSH1 0x25 PUSH1 0x24 DUP3 ADD MSTORE PUSH32 0x546872757374706164466169724C61756E63683A206861726420636170207265 PUSH1 0x44 DUP3 ADD MSTORE PUSH5 0x1858DA1959 PUSH1 0xDA SHL PUSH1 0x64 DUP3 ADD MSTORE REVERT JUMPDEST PUSH1 0x84 PUSH1 0x40 MLOAD PUSH3 0x461BCD PUSH1 0xE5 SHL DUP2 MSTORE PUSH1 0x20 PUSH1 0x4 DUP3 ADD MSTORE PUSH1 0x34 PUSH1 0x24 DUP3 ADD MSTORE PUSH32 0x546872757374706164466169724C61756E63683A20616D6F756E74206973206D PUSH1 0x44 DUP3 ADD MSTORE PUSH32 0x6F7265207468616E206D6178696D756D20627579000000000000000000000000 PUSH1 0x64 DUP3 ADD MSTORE REVERT JUMPDEST PUSH1 0x84 PUSH1 0x40 MLOAD PUSH3 0x461BCD PUSH1 0xE5 SHL DUP2 MSTORE PUSH1 0x20 PUSH1 0x4 DUP3 ADD MSTORE PUSH1 0x34 PUSH1 0x24 DUP3 ADD MSTORE PUSH32 0x546872757374706164466169724C61756E63683A20616D6F756E74206973206C PUSH1 0x44 DUP3 ADD MSTORE PUSH32 0x657373207468616E206D696E696D756D20627579000000000000000000000000 PUSH1 0x64 DUP3 ADD MSTORE REVERT JUMPDEST PUSH1 0x84 PUSH1 0x40 MLOAD PUSH3 0x461BCD PUSH1 0xE5 SHL DUP2 MSTORE PUSH1 0x20 PUSH1 0x4 DUP3 ADD MSTORE PUSH1 0x23 PUSH1 0x24 DUP3 ADD MSTORE PUSH32 0x546872757374706164466169724C61756E63683A2073616C652068617320656E PUSH1 0x44 DUP3 ADD MSTORE PUSH32 0x6465640000000000000000000000000000000000000000000000000000000000 PUSH1 0x64 DUP3 ADD MSTORE REVERT JUMPDEST PUSH1 0x84 PUSH1 0x40 MLOAD PUSH3 0x461BCD PUSH1 0xE5 SHL DUP2 MSTORE PUSH1 0x20 PUSH1 0x4 DUP3 ADD MSTORE PUSH1 0x2D PUSH1 0x24 DUP3 ADD MSTORE PUSH32 0x546872757374706164466169724C61756E63683A2073616C6520686173206E6F PUSH1 0x44 DUP3 ADD MSTORE PUSH32 0x7420737461727465642079657400000000000000000000000000000000000000 PUSH1 0x64 DUP3 ADD MSTORE REVERT JUMPDEST CALLVALUE PUSH2 0x1DE JUMPI PUSH1 0x0 CALLDATASIZE PUSH1 0x3 NOT ADD SLT PUSH2 0x1DE JUMPI PUSH1 0x20 PUSH1 0xFF PUSH1 0xF SLOAD AND PUSH1 0x40 MLOAD SWAP1 ISZERO ISZERO DUP2 MSTORE RETURN JUMPDEST CALLVALUE PUSH2 0x1DE JUMPI PUSH1 0x0 CALLDATASIZE PUSH1 0x3 NOT ADD SLT PUSH2 0x1DE JUMPI PUSH1 0x20 PUSH1 0x1 PUSH1 0x1 PUSH1 0xA0 SHL SUB PUSH1 0x14 SLOAD AND PUSH1 0x40 MLOAD SWAP1 DUP2 MSTORE RETURN JUMPDEST CALLVALUE PUSH2 0x1DE JUMPI PUSH1 0x0 CALLDATASIZE PUSH1 0x3 NOT ADD SLT PUSH2 0x1DE JUMPI PUSH2 0x88C PUSH2 0x1844 JUMP JUMPDEST PUSH2 0x89A PUSH1 0xC SLOAD TIMESTAMP LT ISZERO PUSH2 0x154D JUMP JUMPDEST PUSH1 0xD SLOAD PUSH2 0x8AB PUSH1 0x3 SLOAD DUP3 LT ISZERO PUSH2 0x15BE JUMP JUMPDEST PUSH1 0xF SLOAD SWAP1 PUSH1 0xFF DUP3 PUSH1 0x8 SHR AND PUSH2 0x936 JUMPI PUSH1 0x64 PUSH2 0x8CB PUSH2 0x100 SWAP3 PUSH1 0xA SLOAD PUSH2 0x164E JUMP JUMPDEST DIV SWAP2 PUSH2 0xFF00 NOT AND OR PUSH1 0xF SSTORE PUSH1 0x1 PUSH1 0x1 PUSH1 0xA0 SHL SUB PUSH1 0x0 DUP1 DUP1 DUP1 DUP6 DUP6 DUP3 SLOAD AND DUP3 DUP3 ISZERO PUSH2 0x92D JUMPI JUMPDEST CALL ISZERO PUSH2 0x2D2 JUMPI PUSH32 0xA95E69983C44F17474CBA286953DEB119463B9F5CB8CFDE4FD709DF3660266F7 PUSH1 0x20 DUP3 PUSH1 0x0 SLOAD AND SWAP3 PUSH1 0x2 SLOAD AND SWAP4 PUSH1 0x40 MLOAD SWAP1 DUP2 MSTORE LOG3 STOP JUMPDEST POP PUSH2 0x8FC PUSH2 0x8F0 JUMP JUMPDEST PUSH1 0x84 PUSH1 0x40 MLOAD PUSH3 0x461BCD PUSH1 0xE5 SHL DUP2 MSTORE PUSH1 0x20 PUSH1 0x4 DUP3 ADD MSTORE PUSH1 0x30 PUSH1 0x24 DUP3 ADD MSTORE PUSH32 0x546872757374706164466169724C61756E63683A207465616D20746F6B656E73 PUSH1 0x44 DUP3 ADD MSTORE PUSH32 0x20616C726561647920636C61696D656400000000000000000000000000000000 PUSH1 0x64 DUP3 ADD MSTORE REVERT JUMPDEST CALLVALUE PUSH2 0x1DE JUMPI PUSH1 0x0 CALLDATASIZE PUSH1 0x3 NOT ADD SLT PUSH2 0x1DE JUMPI PUSH1 0x20 PUSH1 0xD SLOAD PUSH1 0x40 MLOAD SWAP1 DUP2 MSTORE RETURN JUMPDEST CALLVALUE PUSH2 0x1DE JUMPI PUSH1 0x0 CALLDATASIZE PUSH1 0x3 NOT ADD SLT PUSH2 0x1DE JUMPI PUSH1 0x20 PUSH1 0x1 PUSH1 0x1 PUSH1 0xA0 SHL SUB PUSH1 0x0 SLOAD AND PUSH1 0x40 MLOAD SWAP1 DUP2 MSTORE RETURN JUMPDEST CALLVALUE PUSH2 0x1DE JUMPI PUSH1 0x0 CALLDATASIZE PUSH1 0x3 NOT ADD SLT PUSH2 0x1DE JUMPI PUSH1 0x20 PUSH1 0x1 PUSH1 0x1 PUSH1 0xA0 SHL SUB PUSH1 0x13 SLOAD AND PUSH1 0x40 MLOAD SWAP1 DUP2 MSTORE RETURN JUMPDEST CALLVALUE PUSH2 0x1DE JUMPI PUSH1 0x0 CALLDATASIZE PUSH1 0x3 NOT ADD SLT PUSH2 0x1DE JUMPI PUSH2 0x160 PUSH1 0x1 PUSH1 0x1 PUSH1 0xA0 SHL SUB PUSH1 0x2 SLOAD AND PUSH1 0x3 SLOAD PUSH1 0x4 SLOAD PUSH1 0x5 SLOAD PUSH1 0x6 SLOAD PUSH1 0x7 SLOAD PUSH1 0x8 SLOAD SWAP1 PUSH1 0x9 SLOAD SWAP3 PUSH1 0xA SLOAD SWAP5 PUSH1 0xB SLOAD SWAP7 PUSH1 0xC SLOAD SWAP9 PUSH1 0x40 MLOAD SWAP11 DUP12 MSTORE PUSH1 0x20 DUP12 ADD MSTORE PUSH1 0x40 DUP11 ADD MSTORE PUSH1 0x60 DUP10 ADD MSTORE PUSH1 0x80 DUP9 ADD MSTORE PUSH1 0xA0 DUP8 ADD MSTORE PUSH1 0xC0 DUP7 ADD MSTORE PUSH1 0xE0 DUP6 ADD MSTORE PUSH2 0x100 DUP5 ADD MSTORE PUSH2 0x120 DUP4 ADD MSTORE PUSH2 0x140 DUP3 ADD MSTORE RETURN JUMPDEST CALLVALUE PUSH2 0x1DE JUMPI PUSH1 0x0 CALLDATASIZE PUSH1 0x3 NOT ADD SLT PUSH2 0x1DE JUMPI PUSH2 0xAA5 PUSH2 0x1844 JUMP JUMPDEST PUSH1 0x0 PUSH1 0x1 PUSH1 0x1 PUSH1 0xA0 SHL SUB DUP2 SLOAD PUSH20 0xFFFFFFFFFFFFFFFFFFFFFFFFFFFFFFFFFFFFFFFF NOT DUP2 AND DUP4 SSTORE AND PUSH32 0x8BE0079C531659141344CD1FD0A4F28419497F9722A3DAAFE3B4186F6B6457E0 DUP3 DUP1 LOG3 STOP JUMPDEST CALLVALUE PUSH2 0x1DE JUMPI PUSH1 0x20 CALLDATASIZE PUSH1 0x3 NOT ADD SLT PUSH2 0x1DE JUMPI PUSH1 0x20 PUSH2 0xB10 PUSH1 0x4 CALLDATALOAD PUSH2 0x16F2 JUMP JUMPDEST PUSH1 0x40 MLOAD SWAP1 DUP2 MSTORE RETURN JUMPDEST CALLVALUE PUSH2 0x1DE JUMPI PUSH1 0x0 CALLDATASIZE PUSH1 0x3 NOT ADD SLT PUSH2 0x1DE JUMPI PUSH1 0x20 PUSH1 0x1 PUSH1 0x1 PUSH1 0xA0 SHL SUB PUSH1 0x12 SLOAD AND PUSH1 0x40 MLOAD SWAP1 DUP2 MSTORE RETURN JUMPDEST CALLVALUE PUSH2 0x1DE JUMPI PUSH1 0x0 CALLDATASIZE PUSH1 0x3 NOT ADD SLT PUSH2 0x1DE JUMPI PUSH2 0xB58 PUSH2 0x1888 JUMP JUMPDEST PUSH2 0xB66 PUSH1 0xC SLOAD TIMESTAMP LT ISZERO PUSH2 0x154D JUMP JUMPDEST PUSH2 0xB76 PUSH1 0xD SLOAD PUSH1 0x3 SLOAD GT ISZERO PUSH2 0x15BE JUMP JUMPDEST CALLER PUSH1 0x0 MSTORE PUSH1 0x20 PUSH1 0x11 DUP2 MSTORE PUSH2 0xB8F PUSH1 0x40 PUSH1 0x0 KECCAK256 SLOAD ISZERO PUSH2 0x1681 JUMP JUMPDEST PUSH2 0xBB4 PUSH2 0xBA1 PUSH1 0x5 SLOAD PUSH1 0x4 SLOAD SWAP1 PUSH2 0x1661 JUMP JUMPDEST CALLER PUSH1 0x0 MSTORE PUSH1 0x10 DUP4 MSTORE PUSH1 0x40 PUSH1 0x0 KECCAK256 SLOAD PUSH2 0x164E JUMP JUMPDEST CALLER PUSH1 0x0 MSTORE PUSH1 0x11 DUP3 MSTORE DUP1 PUSH1 0x40 PUSH1 0x0 KECCAK256 SSTORE PUSH1 0x1 PUSH1 0x1 PUSH1 0xA0 SHL SUB DUP1 PUSH1 0x2 SLOAD AND SWAP1 DUP4 PUSH1 0x40 MLOAD DUP1 SWAP4 PUSH4 0xA9059CBB PUSH1 0xE0 SHL DUP3 MSTORE DUP2 PUSH1 0x0 DUP2 PUSH2 0xC09 DUP10 CALLER PUSH1 0x4 DUP5 ADD PUSH1 0x20 SWAP1 SWAP4 SWAP3 SWAP2 SWAP4 PUSH1 0x1 PUSH1 0x1 PUSH1 0xA0 SHL SUB PUSH1 0x40 DUP3 ADD SWAP6 AND DUP2 MSTORE ADD MSTORE JUMP JUMPDEST SUB SWAP3 GAS CALL SWAP2 DUP3 ISZERO PUSH2 0x2D2 JUMPI PUSH32 0x4831BDD9DCF3048A28319CE81D3CAB7A15366BCF449BC7803A539107440809CC SWAP3 PUSH2 0xC50 JUMPI JUMPDEST POP PUSH1 0x2 SLOAD AND SWAP3 PUSH1 0x40 MLOAD SWAP3 DUP4 MSTORE CALLER SWAP3 LOG3 PUSH1 0x1 DUP1 SSTORE STOP JUMPDEST PUSH2 0xC66 SWAP1 DUP6 RETURNDATASIZE DUP8 GT PUSH2 0x2CB JUMPI PUSH2 0x2C3 DUP2 DUP4 PUSH2 0x1513 JUMP JUMPDEST POP DUP5 PUSH2 0xC3B JUMP JUMPDEST CALLVALUE PUSH2 0x1DE JUMPI PUSH1 0x0 CALLDATASIZE PUSH1 0x3 NOT ADD SLT PUSH2 0x1DE JUMPI PUSH2 0xC86 PUSH2 0x1844 JUMP JUMPDEST PUSH2 0xC94 PUSH1 0xC SLOAD TIMESTAMP LT ISZERO PUSH2 0x154D JUMP JUMPDEST PUSH2 0xCA4 PUSH1 0xD SLOAD PUSH1 0x3 SLOAD GT ISZERO PUSH2 0x15BE JUMP JUMPDEST PUSH1 0x1 PUSH1 0x1 PUSH1 0xA0 SHL SUB PUSH1 0x14 SLOAD AND PUSH1 0x1 PUSH1 0x1 PUSH1 0xA0 SHL SUB PUSH1 0x12 SLOAD AND PUSH1 0x1 PUSH1 0x1 PUSH1 0xA0 SHL SUB PUSH1 0x2 SLOAD AND SWAP1 PUSH1 0x64 PUSH1 0x20 PUSH1 0x1 PUSH1 0x1 PUSH1 0xA0 SHL SUB PUSH1 0x13 SLOAD AND SWAP5 PUSH1 0x40 MLOAD SWAP3 DUP4 DUP1 SWAP3 PUSH32 0x1698EE8200000000000000000000000000000000000000000000000000000000 DUP3 MSTORE DUP8 PUSH1 0x4 DUP4 ADD MSTORE DUP9 PUSH1 0x24 DUP4 ADD MSTORE PUSH2 0xBB8 PUSH1 0x44 DUP4 ADD MSTORE GAS STATICCALL DUP1 ISZERO PUSH2 0x2D2 JUMPI PUSH1 0x1 PUSH1 0x1 PUSH1 0xA0 SHL SUB SWAP2 PUSH1 0x0 SWAP2 PUSH2 0x1318 JUMPI JUMPDEST POP AND PUSH2 0x12AE JUMPI DUP3 DUP3 EQ PUSH2 0x126A JUMPI DUP3 DUP3 LT ISZERO PUSH2 0x1264 JUMPI DUP2 SWAP3 SWAP2 JUMPDEST PUSH1 0x1 PUSH1 0x1 PUSH1 0xA0 SHL SUB DUP5 AND ISZERO PUSH2 0x1220 JUMPI PUSH1 0x0 DUP1 SWAP2 PUSH1 0x1 PUSH1 0x1 PUSH1 0xA0 SHL SUB DUP6 AND DUP2 EQ PUSH2 0x120B JUMPI JUMPDEST PUSH1 0x1 PUSH1 0x1 PUSH1 0xA0 SHL SUB DUP7 AND EQ PUSH2 0x11F8 JUMPI JUMPDEST PUSH1 0x84 PUSH2 0xD94 PUSH1 0x20 SWAP4 PUSH1 0x1 PUSH1 0x1 PUSH1 0xA0 SHL SUB SWAP4 PUSH2 0x1731 JUMP JUMPDEST PUSH1 0x0 PUSH1 0x40 MLOAD SWAP6 DUP7 SWAP5 DUP6 SWAP4 PUSH32 0x13EAD56200000000000000000000000000000000000000000000000000000000 DUP6 MSTORE DUP2 DUP12 AND PUSH1 0x4 DUP7 ADD MSTORE DUP2 DUP11 AND PUSH1 0x24 DUP7 ADD MSTORE PUSH2 0xBB8 PUSH1 0x44 DUP7 ADD MSTORE AND PUSH1 0x64 DUP5 ADD MSTORE GAS CALL DUP1 ISZERO PUSH2 0x2D2 JUMPI PUSH2 0x11C9 JUMPI JUMPDEST POP PUSH1 0x0 PUSH1 0x20 PUSH1 0x1 PUSH1 0x1 PUSH1 0xA0 SHL SUB PUSH1 0x2 SLOAD AND PUSH1 0x44 PUSH1 0x1 PUSH1 0x1 PUSH1 0xA0 SHL SUB PUSH1 0x12 SLOAD AND PUSH1 0x40 MLOAD SWAP5 DUP6 SWAP4 DUP5 SWAP3 PUSH32 0x95EA7B300000000000000000000000000000000000000000000000000000000 DUP5 MSTORE PUSH1 0x4 DUP5 ADD MSTORE DUP2 NOT PUSH1 0x24 DUP5 ADD MSTORE GAS CALL DUP1 ISZERO PUSH2 0x2D2 JUMPI PUSH2 0x11AA JUMPI JUMPDEST POP PUSH1 0x64 PUSH2 0xE61 PUSH1 0x9 SLOAD PUSH1 0xD SLOAD SWAP1 PUSH2 0x164E JUMP JUMPDEST DIV SWAP2 PUSH2 0xE6F PUSH1 0x6 SLOAD DUP5 PUSH2 0x164E JUMP JUMPDEST SWAP2 PUSH1 0x1 PUSH1 0x1 PUSH1 0xA0 SHL SUB PUSH1 0x12 SLOAD AND SWAP4 PUSH1 0x1 PUSH1 0x1 PUSH1 0xA0 SHL SUB PUSH1 0x2 SLOAD AND SWAP4 DUP5 PUSH1 0x1 PUSH1 0x1 PUSH1 0xA0 SHL SUB DUP6 AND EQ PUSH1 0x0 EQ PUSH2 0x11A3 JUMPI DUP1 SWAP5 JUMPDEST PUSH1 0x1 PUSH1 0x1 PUSH1 0xA0 SHL SUB DUP5 AND SUB PUSH2 0x119C JUMPI SWAP1 JUMPDEST PUSH2 0x12C TIMESTAMP ADD TIMESTAMP GT PUSH2 0x5AF JUMPI PUSH1 0x40 MLOAD SWAP2 DUP3 PUSH2 0x160 DUP2 ADD LT PUSH8 0xFFFFFFFFFFFFFFFF PUSH2 0x160 DUP6 ADD GT OR PUSH2 0x1186 JUMPI PUSH1 0x80 SWAP6 PUSH1 0x1 PUSH1 0x1 PUSH1 0xA0 SHL SUB PUSH2 0x164 SWAP6 DUP2 PUSH2 0x140 SWAP9 PUSH2 0x160 DUP9 ADD PUSH1 0x40 MSTORE AND DUP7 MSTORE AND PUSH1 0x20 DUP6 ADD MSTORE PUSH2 0xBB8 PUSH1 0x40 DUP6 ADD MSTORE PUSH3 0xD89B3 NOT PUSH1 0x60 DUP6 ADD MSTORE PUSH3 0xD89B4 DUP8 DUP6 ADD MSTORE PUSH1 0xA0 DUP5 ADD MSTORE PUSH1 0xC0 DUP4 ADD MSTORE PUSH1 0x0 PUSH1 0xE0 DUP4 ADD MSTORE PUSH1 0x0 PUSH2 0x100 DUP4 ADD MSTORE CALLER PUSH2 0x120 DUP4 ADD MSTORE PUSH2 0x12C TIMESTAMP ADD DUP5 DUP4 ADD MSTORE PUSH1 0x40 MLOAD SWAP6 DUP7 SWAP5 DUP6 SWAP4 PUSH32 0x8831645600000000000000000000000000000000000000000000000000000000 DUP6 MSTORE PUSH1 0x1 PUSH1 0x1 PUSH1 0xA0 SHL SUB DUP2 MLOAD AND PUSH1 0x4 DUP7 ADD MSTORE PUSH1 0x1 PUSH1 0x1 PUSH1 0xA0 SHL SUB PUSH1 0x20 DUP3 ADD MLOAD AND PUSH1 0x24 DUP7 ADD MSTORE PUSH3 0xFFFFFF PUSH1 0x40 DUP3 ADD MLOAD AND PUSH1 0x44 DUP7 ADD MSTORE PUSH1 0x60 DUP2 ADD MLOAD PUSH1 0x2 SIGNEXTEND PUSH1 0x64 DUP7 ADD MSTORE DUP8 DUP2 ADD MLOAD PUSH1 0x2 SIGNEXTEND PUSH1 0x84 DUP7 ADD MSTORE PUSH1 0xA0 DUP2 ADD MLOAD PUSH1 0xA4 DUP7 ADD MSTORE PUSH1 0xC0 DUP2 ADD MLOAD PUSH1 0xC4 DUP7 ADD MSTORE PUSH1 0xE0 DUP2 ADD MLOAD PUSH1 0xE4 DUP7 ADD MSTORE PUSH2 0x100 DUP2 ADD MLOAD PUSH2 0x104 DUP7 ADD MSTORE PUSH1 0x1 PUSH1 0x1 PUSH1 0xA0 SHL SUB PUSH2 0x120 DUP3 ADD MLOAD AND PUSH2 0x124 DUP7 ADD MSTORE ADD MLOAD PUSH2 0x144 DUP5 ADD MSTORE GAS CALL DUP1 ISZERO PUSH2 0x2D2 JUMPI PUSH1 0x0 SWAP2 PUSH1 0x0 DUP1 SWAP2 PUSH1 0x0 SWAP4 PUSH2 0x1121 JUMPI JUMPDEST POP PUSH1 0x1 PUSH1 0x1 PUSH1 0xA0 SHL SUB PUSH1 0x2 SLOAD AND SWAP3 PUSH1 0x40 MLOAD PUSH4 0x70A08231 PUSH1 0xE0 SHL DUP2 MSTORE ADDRESS PUSH1 0x4 DUP3 ADD MSTORE PUSH1 0x20 DUP2 PUSH1 0x24 DUP2 DUP9 GAS STATICCALL SWAP1 DUP2 ISZERO PUSH2 0x2D2 JUMPI PUSH1 0x0 SWAP2 PUSH2 0x10EE JUMPI JUMPDEST POP PUSH1 0x0 SWAP5 PUSH1 0x44 PUSH1 0x20 SWAP3 PUSH1 0x40 MLOAD SWAP8 DUP9 SWAP4 DUP5 SWAP3 PUSH4 0xA9059CBB PUSH1 0xE0 SHL DUP5 MSTORE DUP3 PUSH1 0x4 DUP6 ADD MSTORE PUSH1 0x24 DUP5 ADD MSTORE GAS CALL SWAP3 DUP4 ISZERO PUSH2 0x2D2 JUMPI PUSH32 0x93C8C206BC4E0E31AB69B39355C974C1584DE6CAAE2B529DC41FE11FCF218ED3 SWAP5 PUSH1 0x60 SWAP5 PUSH2 0x10CF JUMPI JUMPDEST POP PUSH16 0xFFFFFFFFFFFFFFFFFFFFFFFFFFFFFFFF PUSH1 0x40 MLOAD SWAP4 AND DUP4 MSTORE PUSH1 0x20 DUP4 ADD MSTORE PUSH1 0x40 DUP3 ADD MSTORE LOG2 STOP JUMPDEST PUSH2 0x10E7 SWAP1 PUSH1 0x20 RETURNDATASIZE PUSH1 0x20 GT PUSH2 0x2CB JUMPI PUSH2 0x2C3 DUP2 DUP4 PUSH2 0x1513 JUMP JUMPDEST POP DUP7 PUSH2 0x10A9 JUMP JUMPDEST SWAP1 POP PUSH1 0x20 DUP2 RETURNDATASIZE PUSH1 0x20 GT PUSH2 0x1119 JUMPI JUMPDEST DUP2 PUSH2 0x1109 PUSH1 0x20 SWAP4 DUP4 PUSH2 0x1513 JUMP JUMPDEST DUP2 ADD SUB SLT PUSH2 0x1DE JUMPI MLOAD PUSH1 0x0 PUSH2 0x1050 JUMP JUMPDEST RETURNDATASIZE SWAP2 POP PUSH2 0x10FC JUMP JUMPDEST SWAP4 POP POP POP POP PUSH1 0x80 DUP2 RETURNDATASIZE PUSH1 0x80 GT PUSH2 0x117E JUMPI JUMPDEST DUP2 PUSH2 0x113F PUSH1 0x80 SWAP4 DUP4 PUSH2 0x1513 JUMP JUMPDEST DUP2 ADD SUB SLT PUSH2 0x1DE JUMPI DUP1 MLOAD SWAP1 PUSH1 0x20 DUP2 ADD MLOAD SWAP2 PUSH16 0xFFFFFFFFFFFFFFFFFFFFFFFFFFFFFFFF DUP4 AND DUP4 SUB PUSH2 0x1DE JUMPI PUSH1 0x60 PUSH1 0x40 DUP4 ADD MLOAD SWAP3 ADD MLOAD SWAP1 SWAP3 SWAP2 SWAP1 SWAP2 DUP5 PUSH2 0x1017 JUMP JUMPDEST RETURNDATASIZE SWAP2 POP PUSH2 0x1132 JUMP JUMPDEST PUSH4 0x4E487B71 PUSH1 0xE0 SHL PUSH1 0x0 MSTORE PUSH1 0x41 PUSH1 0x4 MSTORE PUSH1 0x24 PUSH1 0x0 REVERT JUMPDEST POP DUP1 PUSH2 0xEB1 JUMP JUMPDEST DUP2 SWAP5 PUSH2 0xEA0 JUMP JUMPDEST PUSH2 0x11C2 SWAP1 PUSH1 0x20 RETURNDATASIZE PUSH1 0x20 GT PUSH2 0x2CB JUMPI PUSH2 0x2C3 DUP2 DUP4 PUSH2 0x1513 JUMP JUMPDEST POP DUP3 PUSH2 0xE4F JUMP JUMPDEST PUSH2 0x11EA SWAP1 PUSH1 0x20 RETURNDATASIZE PUSH1 0x20 GT PUSH2 0x11F1 JUMPI JUMPDEST PUSH2 0x11E2 DUP2 DUP4 PUSH2 0x1513 JUMP JUMPDEST DUP2 ADD SWAP1 PUSH2 0x162F JUMP JUMPDEST POP DUP3 PUSH2 0xDEC JUMP JUMPDEST POP RETURNDATASIZE PUSH2 0x11D8 JUMP JUMPDEST POP POP PUSH1 0x6 SLOAD PUSH8 0xDE0B6B3A7640000 PUSH2 0xD7E JUMP JUMPDEST SWAP2 POP POP PUSH1 0x6 SLOAD PUSH8 0xDE0B6B3A7640000 SWAP2 PUSH2 0xD6E JUMP JUMPDEST PUSH1 0x64 PUSH1 0x40 MLOAD PUSH3 0x461BCD PUSH1 0xE5 SHL DUP2 MSTORE PUSH1 0x20 PUSH1 0x4 DUP3 ADD MSTORE PUSH1 0xC PUSH1 0x24 DUP3 ADD MSTORE PUSH32 0x5A45524F5F414444524553530000000000000000000000000000000000000000 PUSH1 0x44 DUP3 ADD MSTORE REVERT JUMPDEST DUP2 PUSH2 0xD4A JUMP JUMPDEST PUSH1 0x64 PUSH1 0x40 MLOAD PUSH3 0x461BCD PUSH1 0xE5 SHL DUP2 MSTORE PUSH1 0x20 PUSH1 0x4 DUP3 ADD MSTORE PUSH1 0x13 PUSH1 0x24 DUP3 ADD MSTORE PUSH32 0x4944454E544943414C5F41444452455353455300000000000000000000000000 PUSH1 0x44 DUP3 ADD MSTORE REVERT JUMPDEST PUSH1 0x84 PUSH1 0x40 MLOAD PUSH3 0x461BCD PUSH1 0xE5 SHL DUP2 MSTORE PUSH1 0x20 PUSH1 0x4 DUP3 ADD MSTORE PUSH1 0x28 PUSH1 0x24 DUP3 ADD MSTORE PUSH32 0x546872757374706164466169724C61756E63683A205061697220616C72656164 PUSH1 0x44 DUP3 ADD MSTORE PUSH32 0x7920657869737473000000000000000000000000000000000000000000000000 PUSH1 0x64 DUP3 ADD MSTORE REVERT JUMPDEST PUSH2 0x1331 SWAP2 POP PUSH1 0x20 RETURNDATASIZE PUSH1 0x20 GT PUSH2 0x11F1 JUMPI PUSH2 0x11E2 DUP2 DUP4 PUSH2 0x1513 JUMP JUMPDEST DUP6 PUSH2 0xD31 JUMP JUMPDEST CALLVALUE PUSH2 0x1DE JUMPI PUSH1 0x0 CALLDATASIZE PUSH1 0x3 NOT ADD SLT PUSH2 0x1DE JUMPI PUSH2 0x1350 PUSH2 0x1844 JUMP JUMPDEST PUSH1 0xC SLOAD PUSH3 0x278D00 DUP2 ADD DUP1 SWAP2 GT PUSH2 0x5AF JUMPI TIMESTAMP LT PUSH2 0x1463 JUMPI PUSH1 0x1 PUSH1 0x1 PUSH1 0xA0 SHL SUB DUP1 PUSH1 0xF SLOAD PUSH1 0x10 SHR AND PUSH1 0x40 MLOAD SWAP1 PUSH4 0x70A08231 PUSH1 0xE0 SHL DUP3 MSTORE ADDRESS PUSH1 0x4 DUP4 ADD MSTORE PUSH1 0x20 SWAP3 DUP4 DUP4 PUSH1 0x24 DUP2 DUP6 GAS STATICCALL SWAP3 DUP4 ISZERO PUSH2 0x2D2 JUMPI PUSH1 0x0 SWAP4 PUSH2 0x1434 JUMPI JUMPDEST POP DUP3 PUSH2 0x13AC JUMPI STOP JUMPDEST PUSH1 0x40 MLOAD PUSH4 0xA9059CBB PUSH1 0xE0 SHL DUP2 MSTORE CALLER PUSH1 0x4 DUP3 ADD MSTORE PUSH1 0x24 DUP2 ADD DUP5 SWAP1 MSTORE SWAP2 DUP5 SWAP1 DUP4 SWAP1 PUSH1 0x44 SWAP1 DUP3 SWAP1 PUSH1 0x0 SWAP1 GAS CALL SWAP2 DUP3 ISZERO PUSH2 0x2D2 JUMPI PUSH32 0x4F2E1C4D34092405172A61F387073A9B61BFCBB54ECEB1E96383D36E19B394A9 SWAP3 PUSH2 0x1417 JUMPI JUMPDEST POP PUSH1 0xF SLOAD PUSH1 0x10 SHR AND SWAP3 PUSH1 0x40 MLOAD SWAP3 DUP4 MSTORE CALLER SWAP3 LOG3 STOP JUMPDEST PUSH2 0x142D SWAP1 DUP6 RETURNDATASIZE DUP8 GT PUSH2 0x2CB JUMPI PUSH2 0x2C3 DUP2 DUP4 PUSH2 0x1513 JUMP JUMPDEST POP DUP5 PUSH2 0x1403 JUMP JUMPDEST SWAP1 SWAP3 POP DUP4 DUP2 DUP2 RETURNDATASIZE DUP4 GT PUSH2 0x145C JUMPI JUMPDEST PUSH2 0x144C DUP2 DUP4 PUSH2 0x1513 JUMP JUMPDEST DUP2 ADD SUB SLT PUSH2 0x1DE JUMPI MLOAD SWAP2 DUP5 PUSH2 0x13A4 JUMP JUMPDEST POP RETURNDATASIZE PUSH2 0x1442 JUMP JUMPDEST PUSH1 0x84 PUSH1 0x40 MLOAD PUSH3 0x461BCD PUSH1 0xE5 SHL DUP2 MSTORE PUSH1 0x20 PUSH1 0x4 DUP3 ADD MSTORE PUSH1 0x2D PUSH1 0x24 DUP3 ADD MSTORE PUSH32 0x546872757374706164466169724C61756E63683A204C6F636B20706572696F64 PUSH1 0x44 DUP3 ADD MSTORE PUSH32 0x206E6F74206F7665722079657400000000000000000000000000000000000000 PUSH1 0x64 DUP3 ADD MSTORE REVERT JUMPDEST CALLVALUE PUSH2 0x1DE JUMPI PUSH1 0x0 CALLDATASIZE PUSH1 0x3 NOT ADD SLT PUSH2 0x1DE JUMPI PUSH1 0x20 SWAP1 PUSH1 0xFF PUSH1 0xF SLOAD PUSH1 0x8 SHR AND ISZERO ISZERO DUP2 MSTORE RETURN JUMPDEST PUSH1 0x4 CALLDATALOAD SWAP1 PUSH1 0x1 PUSH1 0x1 PUSH1 0xA0 SHL SUB DUP3 AND DUP3 SUB PUSH2 0x1DE JUMPI JUMP JUMPDEST SWAP2 SWAP1 DUP3 ADD DUP1 SWAP3 GT PUSH2 0x5AF JUMPI JUMP JUMPDEST SWAP1 PUSH1 0x1F DUP1 NOT SWAP2 ADD AND DUP2 ADD SWAP1 DUP2 LT PUSH8 0xFFFFFFFFFFFFFFFF DUP3 GT OR PUSH2 0x1186 JUMPI PUSH1 0x40 MSTORE JUMP JUMPDEST SWAP1 DUP2 PUSH1 0x20 SWAP2 SUB SLT PUSH2 0x1DE JUMPI MLOAD DUP1 ISZERO ISZERO DUP2 SUB PUSH2 0x1DE JUMPI SWAP1 JUMP JUMPDEST ISZERO PUSH2 0x1554 JUMPI JUMP JUMPDEST PUSH1 0x84 PUSH1 0x40 MLOAD PUSH3 0x461BCD PUSH1 0xE5 SHL DUP2 MSTORE PUSH1 0x20 PUSH1 0x4 DUP3 ADD MSTORE PUSH1 0x2B PUSH1 0x24 DUP3 ADD MSTORE PUSH32 0x546872757374706164466169724C61756E63683A2073616C6520686173206E6F PUSH1 0x44 DUP3 ADD MSTORE PUSH32 0x7420656E64656420796574000000000000000000000000000000000000000000 PUSH1 0x64 DUP3 ADD MSTORE REVERT JUMPDEST ISZERO PUSH2 0x15C5 JUMPI JUMP JUMPDEST PUSH1 0x84 PUSH1 0x40 MLOAD PUSH3 0x461BCD PUSH1 0xE5 SHL DUP2 MSTORE PUSH1 0x20 PUSH1 0x4 DUP3 ADD MSTORE PUSH1 0x29 PUSH1 0x24 DUP3 ADD MSTORE PUSH32 0x546872757374706164466169724C61756E63683A20736F667420636170206E6F PUSH1 0x44 DUP3 ADD MSTORE PUSH32 0x7420726561636865640000000000000000000000000000000000000000000000 PUSH1 0x64 DUP3 ADD MSTORE REVERT JUMPDEST SWAP1 DUP2 PUSH1 0x20 SWAP2 SUB SLT PUSH2 0x1DE JUMPI MLOAD PUSH1 0x1 PUSH1 0x1 PUSH1 0xA0 SHL SUB DUP2 AND DUP2 SUB PUSH2 0x1DE JUMPI SWAP1 JUMP JUMPDEST DUP2 DUP2 MUL SWAP3 SWAP2 DUP2 ISZERO SWAP2 DUP5 DIV EQ OR ISZERO PUSH2 0x5AF JUMPI JUMP JUMPDEST DUP2 ISZERO PUSH2 0x166B JUMPI DIV SWAP1 JUMP JUMPDEST PUSH4 0x4E487B71 PUSH1 0xE0 SHL PUSH1 0x0 MSTORE PUSH1 0x12 PUSH1 0x4 MSTORE PUSH1 0x24 PUSH1 0x0 REVERT JUMPDEST ISZERO PUSH2 0x1688 JUMPI JUMP JUMPDEST PUSH1 0x84 PUSH1 0x40 MLOAD PUSH3 0x461BCD PUSH1 0xE5 SHL DUP2 MSTORE PUSH1 0x20 PUSH1 0x4 DUP3 ADD MSTORE PUSH1 0x2B PUSH1 0x24 DUP3 ADD MSTORE PUSH32 0x546872757374706164466169724C61756E63683A20746F6B656E7320616C7265 PUSH1 0x44 DUP3 ADD MSTORE PUSH32 0x61647920636C61696D6564000000000000000000000000000000000000000000 PUSH1 0x64 DUP3 ADD MSTORE REVERT JUMPDEST SWAP1 PUSH1 0x1 DUP1 DUP4 ADD DUP1 DUP5 GT PUSH2 0x5AF JUMPI PUSH1 0x1 SHR SWAP1 DUP4 JUMPDEST DUP5 DUP4 LT PUSH2 0x1711 JUMPI POP POP POP JUMP JUMPDEST SWAP1 SWAP2 SWAP4 POP PUSH2 0x1728 DUP5 PUSH2 0x1723 DUP2 DUP5 PUSH2 0x1661 JUMP JUMPDEST PUSH2 0x1506 JUMP JUMPDEST DUP3 SHR SWAP2 SWAP1 PUSH2 0x1705 JUMP JUMPDEST DUP2 ISZERO ISZERO DUP1 PUSH2 0x17F0 JUMPI JUMPDEST ISZERO PUSH2 0x17AC JUMPI PUSH2 0x1754 SWAP2 PUSH2 0x174F SWAP2 PUSH1 0xC0 SHL PUSH2 0x1661 JUMP JUMPDEST PUSH2 0x16F2 JUMP JUMPDEST PUSH1 0x1 PUSH1 0x1 PUSH1 0xA0 SHL SUB SWAP1 DUP2 DUP2 GT PUSH2 0x1768 JUMPI AND SWAP1 JUMP JUMPDEST PUSH1 0x64 PUSH1 0x40 MLOAD PUSH3 0x461BCD PUSH1 0xE5 SHL DUP2 MSTORE PUSH1 0x20 PUSH1 0x4 DUP3 ADD MSTORE PUSH1 0x13 PUSH1 0x24 DUP3 ADD MSTORE PUSH32 0x535152545F50524943455F544F4F5F4849474800000000000000000000000000 PUSH1 0x44 DUP3 ADD MSTORE REVERT JUMPDEST PUSH1 0x64 PUSH1 0x40 MLOAD PUSH3 0x461BCD PUSH1 0xE5 SHL DUP2 MSTORE PUSH1 0x20 PUSH1 0x4 DUP3 ADD MSTORE PUSH1 0x10 PUSH1 0x24 DUP3 ADD MSTORE PUSH32 0x494E56414C49445F524553455256455300000000000000000000000000000000 PUSH1 0x44 DUP3 ADD MSTORE REVERT JUMPDEST POP DUP1 ISZERO ISZERO PUSH2 0x173A JUMP JUMPDEST ISZERO PUSH2 0x1800 JUMPI JUMP JUMPDEST PUSH1 0x64 PUSH1 0x40 MLOAD PUSH3 0x461BCD PUSH1 0xE5 SHL DUP2 MSTORE PUSH1 0x20 PUSH1 0x4 DUP3 ADD MSTORE PUSH1 0xE PUSH1 0x24 DUP3 ADD MSTORE PUSH32 0x4E6F7420617574686F72697A6564000000000000000000000000000000000000 PUSH1 0x44 DUP3 ADD MSTORE REVERT JUMPDEST PUSH1 0x1 PUSH1 0x1 PUSH1 0xA0 SHL SUB PUSH1 0x0 SLOAD AND CALLER SUB PUSH2 0x1858 JUMPI JUMP JUMPDEST PUSH1 0x24 PUSH1 0x40 MLOAD PUSH32 0x118CDAA700000000000000000000000000000000000000000000000000000000 DUP2 MSTORE CALLER PUSH1 0x4 DUP3 ADD MSTORE REVERT JUMPDEST PUSH1 0x2 PUSH1 0x1 SLOAD EQ PUSH2 0x1899 JUMPI PUSH1 0x2 PUSH1 0x1 SSTORE JUMP JUMPDEST PUSH1 0x4 PUSH1 0x40 MLOAD PUSH32 0x3EE5AEB500000000000000000000000000000000000000000000000000000000 DUP2 MSTORE REVERT INVALID LOG2 PUSH5 0x6970667358 0x22 SLT KECCAK256 SWAP3 0xE6 PUSH13 0x8AF1CBA26E0552A737528D2637 PUSH12 0x38D1C3BD9CBA2035E1873701 0xCE DUP15 MSTORE PUSH5 0x736F6C6343 STOP ADDMOD XOR STOP CALLER "},"methodIdentifiers":{"LPTokenAddress()":"c3828bf0","NFTManager()":"62eba8b0","V3Factory()":"97d56997","WEDU()":"7d7cf6c5","buyToken()":"a4821719","claimLPTokens()":"38af6632","claimRefund()":"b5545a3c","claimTokens()":"48c54b9d","claimed(address)":"c884ef83","config()":"79502c55","deployLiquidity()":"4086bf89","emergencyTransfer(address,uint256)":"dbf0f3e2","emergencyTransferEDU(uint256)":"d812195c","encodePriceSqrt(uint256,uint256)":"cd309ec9","liquidityDeployed()":"9c5913cc","owner()":"8da5cb5b","purchaseHistory(address)":"e45f2b8a","renounceOwnership()":"715018a6","sqrt(uint256)":"677342ce","teamClaimed()":"2f334652","totalContributors()":"f251fc8c","totalSold()":"9106d7ba","transferOwnership(address)":"f2fde38b","withdrawTeamTokens()":"953b7ef8"}}}}}