{"contracts/multisender/ThrustpadMultiSenderFactory.sol":{"ThrustpadMultiSenderFactory":{"abi":[{"inputs":[],"stateMutability":"nonpayable","type":"constructor"},{"inputs":[{"internalType":"address","name":"owner","type":"address"}],"name":"OwnableInvalidOwner","type":"error"},{"inputs":[{"internalType":"address","name":"account","type":"address"}],"name":"OwnableUnauthorizedAccount","type":"error"},{"anonymous":false,"inputs":[{"indexed":true,"internalType":"address","name":"creator","type":"address"},{"indexed":true,"internalType":"address","name":"multisender","type":"address"}],"name":"NewMultiSender","type":"event"},{"anonymous":false,"inputs":[{"indexed":true,"internalType":"address","name":"previousOwner","type":"address"},{"indexed":true,"internalType":"address","name":"newOwner","type":"address"}],"name":"OwnershipTransferred","type":"event"},{"inputs":[],"name":"creationFee","outputs":[{"internalType":"uint256","name":"","type":"uint256"}],"stateMutability":"view","type":"function"},{"inputs":[{"internalType":"address","name":"","type":"address"},{"internalType":"uint256","name":"","type":"uint256"}],"name":"deployedMultisenders","outputs":[{"internalType":"address","name":"","type":"address"}],"stateMutability":"view","type":"function"},{"inputs":[],"name":"feeEarned","outputs":[{"internalType":"uint256","name":"","type":"uint256"}],"stateMutability":"view","type":"function"},{"inputs":[{"internalType":"bytes","name":"bytecode","type":"bytes"},{"internalType":"uint256","name":"salt","type":"uint256"}],"name":"getAddressCreate2","outputs":[{"internalType":"address","name":"","type":"address"}],"stateMutability":"view","type":"function"},{"inputs":[{"internalType":"address","name":"token","type":"address"},{"internalType":"address[]","name":"receivers","type":"address[]"},{"internalType":"uint256[]","name":"amounts","type":"uint256[]"}],"name":"getBytecode","outputs":[{"internalType":"bytes","name":"","type":"bytes"}],"stateMutability":"pure","type":"function"},{"inputs":[{"internalType":"address","name":"creator","type":"address"}],"name":"getdeployedMultisenders","outputs":[{"internalType":"address[]","name":"","type":"address[]"}],"stateMutability":"view","type":"function"},{"inputs":[{"internalType":"address","name":"creator","type":"address"}],"name":"getdeployedMultisendersLen","outputs":[{"internalType":"uint256","name":"","type":"uint256"}],"stateMutability":"view","type":"function"},{"inputs":[{"internalType":"address","name":"token","type":"address"},{"internalType":"address[]","name":"receivers","type":"address[]"},{"internalType":"uint256[]","name":"amounts","type":"uint256[]"}],"name":"newMultisender","outputs":[{"internalType":"address","name":"","type":"address"}],"stateMutability":"payable","type":"function"},{"inputs":[],"name":"owner","outputs":[{"internalType":"address","name":"","type":"address"}],"stateMutability":"view","type":"function"},{"inputs":[],"name":"renounceOwnership","outputs":[],"stateMutability":"nonpayable","type":"function"},{"inputs":[{"internalType":"address","name":"newOwner","type":"address"}],"name":"transferOwnership","outputs":[],"stateMutability":"nonpayable","type":"function"},{"inputs":[],"name":"withdraw","outputs":[],"stateMutability":"nonpayable","type":"function"},{"inputs":[{"internalType":"address","name":"token","type":"address"}],"name":"withdrawToken","outputs":[],"stateMutability":"nonpayable","type":"function"},{"stateMutability":"payable","type":"receive"}],"evm":{"bytecode":{"linkReferences":{},"object":"6080604052670de0b6b3a76400006002556064600460006101000a81548160ff021916908360ff1602179055503480156200003957600080fd5b5033600073ffffffffffffffffffffffffffffffffffffffff168173ffffffffffffffffffffffffffffffffffffffff1603620000b05760006040517f1e4fbdf7000000000000000000000000000000000000000000000000000000008152600401620000a79190620001d1565b60405180910390fd5b620000c181620000c860201b60201c565b50620001ee565b60008060009054906101000a900473ffffffffffffffffffffffffffffffffffffffff169050816000806101000a81548173ffffffffffffffffffffffffffffffffffffffff021916908373ffffffffffffffffffffffffffffffffffffffff1602179055508173ffffffffffffffffffffffffffffffffffffffff168173ffffffffffffffffffffffffffffffffffffffff167f8be0079c531659141344cd1fd0a4f28419497f9722a3daafe3b4186f6b6457e060405160405180910390a35050565b600073ffffffffffffffffffffffffffffffffffffffff82169050919050565b6000620001b9826200018c565b9050919050565b620001cb81620001ac565b82525050565b6000602082019050620001e86000830184620001c0565b92915050565b612ddb80620001fe6000396000f3fe608060405260043610620000d95760003560e01c80638da5cb5b116200008b578063d5f63a061162000061578063d5f63a0614620002be578063dce0b4e414620002ee578063f2fde38b146200031e578063fcc31af0146200034c57620000e1565b80638da5cb5b1462000206578063949938e914620002365780639f886f26146200027a57620000e1565b80633ccfd60b14620000e657806353fa27a31462000100578063715018a614620001365780637f7825c51462000150578063877a403914620001945780638947606914620001d857620000e1565b36620000e157005b600080fd5b348015620000f357600080fd5b50620000fe62000390565b005b6200011e6004803603810190620001189190620011d0565b620003ed565b6040516200012d91906200127b565b60405180910390f35b3480156200014357600080fd5b506200014e62000940565b005b3480156200015d57600080fd5b506200017c6004803603810190620001769190620011d0565b62000958565b6040516200018b919062001321565b60405180910390f35b348015620001a157600080fd5b50620001c06004803603810190620001ba919062001345565b620009d7565b604051620001cf919062001388565b60405180910390f35b348015620001e557600080fd5b50620002046004803603810190620001fe919062001345565b62000a23565b005b3480156200021357600080fd5b506200021e62000b3b565b6040516200022d91906200127b565b60405180910390f35b3480156200024357600080fd5b506200026260048036038101906200025c919062001345565b62000b64565b60405162000271919062001473565b60405180910390f35b3480156200028757600080fd5b50620002a66004803603810190620002a091906200155f565b62000c33565b604051620002b591906200127b565b60405180910390f35b348015620002cb57600080fd5b50620002d662000c7f565b604051620002e5919062001388565b60405180910390f35b348015620002fb57600080fd5b506200030662000c85565b60405162000315919062001388565b60405180910390f35b3480156200032b57600080fd5b506200034a600480360381019062000344919062001345565b62000c8b565b005b3480156200035957600080fd5b50620003786004803603810190620003729190620015c5565b62000d18565b6040516200038791906200127b565b60405180910390f35b6200039a62000d67565b620003a462000b3b565b73ffffffffffffffffffffffffffffffffffffffff166108fc479081150290604051600060405180830381858888f19350505050158015620003ea573d6000803e3d6000fd5b50565b6000825182511462000436576040517f08c379a00000000000000000000000000000000000000000000000000000000081526004016200042d9062001693565b60405180910390fd5b600460009054906101000a900460ff1660ff16825111156200048f576040517f08c379a000000000000000000000000000000000000000000000000000000000815260040162000486906200172b565b60405180910390fd5b6000805b8351811015620004d857838181518110620004b357620004b26200174d565b5b602002602001015182620004c89190620017ab565b9150808060010191505062000493565b50600073ffffffffffffffffffffffffffffffffffffffff168573ffffffffffffffffffffffffffffffffffffffff16036200056957806002546200051e9190620017ab565b34101562000563576040517f08c379a00000000000000000000000000000000000000000000000000000000081526004016200055a906200185c565b60405180910390fd5b62000636565b60008573ffffffffffffffffffffffffffffffffffffffff1663dd62ed3e33306040518363ffffffff1660e01b8152600401620005a89291906200187e565b602060405180830381865afa158015620005c6573d6000803e3d6000fd5b505050506040513d601f19601f82011682018060405250810190620005ec9190620018c2565b90508181101562000634576040517f08c379a00000000000000000000000000000000000000000000000000000000081526004016200062b906200196a565b60405180910390fd5b505b60008073ffffffffffffffffffffffffffffffffffffffff168673ffffffffffffffffffffffffffffffffffffffff16146200067457600062000676565b815b600160003373ffffffffffffffffffffffffffffffffffffffff1673ffffffffffffffffffffffffffffffffffffffff1681526020019081526020016000208054905060001b90878787604051620006ce9062000ec3565b620006dc9392919062001a5a565b82906040518091039083f59050905080158015620006fe573d6000803e3d6000fd5b509050600160003373ffffffffffffffffffffffffffffffffffffffff1673ffffffffffffffffffffffffffffffffffffffff168152602001908152602001600020819080600181540180825580915050600190039060005260206000200160009091909190916101000a81548173ffffffffffffffffffffffffffffffffffffffff021916908373ffffffffffffffffffffffffffffffffffffffff160217905550600073ffffffffffffffffffffffffffffffffffffffff168673ffffffffffffffffffffffffffffffffffffffff16146200085d578573ffffffffffffffffffffffffffffffffffffffff166323b872dd3383856040518463ffffffff1660e01b8152600401620008159392919062001aa5565b6020604051808303816000875af115801562000835573d6000803e3d6000fd5b505050506040513d601f19601f820116820180604052508101906200085b919062001b1f565b505b8073ffffffffffffffffffffffffffffffffffffffff1663294402cc6040518163ffffffff1660e01b8152600401600060405180830381600087803b158015620008a657600080fd5b505af1158015620008bb573d6000803e3d6000fd5b505050508073ffffffffffffffffffffffffffffffffffffffff163373ffffffffffffffffffffffffffffffffffffffff167f6d1f96e538195eebc344e4fd73efd605a9cfdf73d3267009398ed160d33f193860405160405180910390a334600360008282546200092d9190620017ab565b9250508190555080925050509392505050565b6200094a62000d67565b62000956600062000df7565b565b60606000604051806020016200096e9062000ec3565b6020820181038252601f19601f820116604052509050808585856040516020016200099c9392919062001a5a565b604051602081830303815290604052604051602001620009be92919062001b93565b6040516020818303038152906040529150509392505050565b6000600160008373ffffffffffffffffffffffffffffffffffffffff1673ffffffffffffffffffffffffffffffffffffffff168152602001908152602001600020805490509050919050565b62000a2d62000d67565b8073ffffffffffffffffffffffffffffffffffffffff1663a9059cbb62000a5362000b3b565b8373ffffffffffffffffffffffffffffffffffffffff166370a08231306040518263ffffffff1660e01b815260040162000a8e91906200127b565b602060405180830381865afa15801562000aac573d6000803e3d6000fd5b505050506040513d601f19601f8201168201806040525081019062000ad29190620018c2565b6040518363ffffffff1660e01b815260040162000af192919062001bbb565b6020604051808303816000875af115801562000b11573d6000803e3d6000fd5b505050506040513d601f19601f8201168201806040525081019062000b37919062001b1f565b5050565b60008060009054906101000a900473ffffffffffffffffffffffffffffffffffffffff16905090565b6060600160008373ffffffffffffffffffffffffffffffffffffffff1673ffffffffffffffffffffffffffffffffffffffff16815260200190815260200160002080548060200260200160405190810160405280929190818152602001828054801562000c2757602002820191906000526020600020905b8160009054906101000a900473ffffffffffffffffffffffffffffffffffffffff1673ffffffffffffffffffffffffffffffffffffffff168152602001906001019080831162000bdc575b50505050509050919050565b60008060ff60f81b3084868051906020012060405160200162000c5a949392919062001cdd565b6040516020818303038152906040528051906020012090508060001c91505092915050565b60035481565b60025481565b62000c9562000d67565b600073ffffffffffffffffffffffffffffffffffffffff168173ffffffffffffffffffffffffffffffffffffffff160362000d0a5760006040517f1e4fbdf700000000000000000000000000000000000000000000000000000000815260040162000d0191906200127b565b60405180910390fd5b62000d158162000df7565b50565b6001602052816000526040600020818154811062000d3557600080fd5b906000526020600020016000915091509054906101000a900473ffffffffffffffffffffffffffffffffffffffff1681565b62000d7162000ebb565b73ffffffffffffffffffffffffffffffffffffffff1662000d9162000b3b565b73ffffffffffffffffffffffffffffffffffffffff161462000df55762000db762000ebb565b6040517f118cdaa700000000000000000000000000000000000000000000000000000000815260040162000dec91906200127b565b60405180910390fd5b565b60008060009054906101000a900473ffffffffffffffffffffffffffffffffffffffff169050816000806101000a81548173ffffffffffffffffffffffffffffffffffffffff021916908373ffffffffffffffffffffffffffffffffffffffff1602179055508173ffffffffffffffffffffffffffffffffffffffff168173ffffffffffffffffffffffffffffffffffffffff167f8be0079c531659141344cd1fd0a4f28419497f9722a3daafe3b4186f6b6457e060405160405180910390a35050565b600033905090565b6110728062001d3483390190565b6000604051905090565b600080fd5b600080fd5b600073ffffffffffffffffffffffffffffffffffffffff82169050919050565b600062000f128262000ee5565b9050919050565b62000f248162000f05565b811462000f3057600080fd5b50565b60008135905062000f448162000f19565b92915050565b600080fd5b6000601f19601f8301169050919050565b7f4e487b7100000000000000000000000000000000000000000000000000000000600052604160045260246000fd5b62000f9a8262000f4f565b810181811067ffffffffffffffff8211171562000fbc5762000fbb62000f60565b5b80604052505050565b600062000fd162000ed1565b905062000fdf828262000f8f565b919050565b600067ffffffffffffffff82111562001002576200100162000f60565b5b602082029050602081019050919050565b600080fd5b60006200102f620010298462000fe4565b62000fc5565b9050808382526020820190506020840283018581111562001055576200105462001013565b5b835b818110156200108257806200106d888262000f33565b84526020840193505060208101905062001057565b5050509392505050565b600082601f830112620010a457620010a362000f4a565b5b8135620010b684826020860162001018565b91505092915050565b600067ffffffffffffffff821115620010dd57620010dc62000f60565b5b602082029050602081019050919050565b6000819050919050565b6200110381620010ee565b81146200110f57600080fd5b50565b6000813590506200112381620010f8565b92915050565b6000620011406200113a84620010bf565b62000fc5565b9050808382526020820190506020840283018581111562001166576200116562001013565b5b835b818110156200119357806200117e888262001112565b84526020840193505060208101905062001168565b5050509392505050565b600082601f830112620011b557620011b462000f4a565b5b8135620011c784826020860162001129565b91505092915050565b600080600060608486031215620011ec57620011eb62000edb565b5b6000620011fc8682870162000f33565b935050602084013567ffffffffffffffff81111562001220576200121f62000ee0565b5b6200122e868287016200108c565b925050604084013567ffffffffffffffff81111562001252576200125162000ee0565b5b62001260868287016200119d565b9150509250925092565b620012758162000f05565b82525050565b60006020820190506200129260008301846200126a565b92915050565b600081519050919050565b600082825260208201905092915050565b60005b83811015620012d4578082015181840152602081019050620012b7565b60008484015250505050565b6000620012ed8262001298565b620012f98185620012a3565b93506200130b818560208601620012b4565b620013168162000f4f565b840191505092915050565b600060208201905081810360008301526200133d8184620012e0565b905092915050565b6000602082840312156200135e576200135d62000edb565b5b60006200136e8482850162000f33565b91505092915050565b6200138281620010ee565b82525050565b60006020820190506200139f600083018462001377565b92915050565b600081519050919050565b600082825260208201905092915050565b6000819050602082019050919050565b620013dc8162000f05565b82525050565b6000620013f08383620013d1565b60208301905092915050565b6000602082019050919050565b60006200141682620013a5565b620014228185620013b0565b93506200142f83620013c1565b8060005b83811015620014665781516200144a8882620013e2565b97506200145783620013fc565b92505060018101905062001433565b5085935050505092915050565b600060208201905081810360008301526200148f818462001409565b905092915050565b600080fd5b600067ffffffffffffffff821115620014ba57620014b962000f60565b5b620014c58262000f4f565b9050602081019050919050565b82818337600083830152505050565b6000620014f8620014f2846200149c565b62000fc5565b90508281526020810184848401111562001517576200151662001497565b5b62001524848285620014d2565b509392505050565b600082601f83011262001544576200154362000f4a565b5b813562001556848260208601620014e1565b91505092915050565b6000806040838503121562001579576200157862000edb565b5b600083013567ffffffffffffffff8111156200159a576200159962000ee0565b5b620015a8858286016200152c565b9250506020620015bb8582860162001112565b9150509250929050565b60008060408385031215620015df57620015de62000edb565b5b6000620015ef8582860162000f33565b9250506020620016028582860162001112565b9150509250929050565b600082825260208201905092915050565b7f546872757374706164546f6b656e466163746f72793a20496e76616c6964206960008201527f6e70757400000000000000000000000000000000000000000000000000000000602082015250565b60006200167b6024836200160c565b915062001688826200161d565b604082019050919050565b60006020820190508181036000830152620016ae816200166c565b9050919050565b7f546872757374706164546f6b656e466163746f72793a20546f6f206d616e792060008201527f7265636569766572732070657220636f6e747261637400000000000000000000602082015250565b6000620017136036836200160c565b91506200172082620016b5565b604082019050919050565b60006020820190508181036000830152620017468162001704565b9050919050565b7f4e487b7100000000000000000000000000000000000000000000000000000000600052603260045260246000fd5b7f4e487b7100000000000000000000000000000000000000000000000000000000600052601160045260246000fd5b6000620017b882620010ee565b9150620017c583620010ee565b9250828201905080821115620017e057620017df6200177c565b5b92915050565b7f546872757374706164546f6b656e466163746f72793a20496e7375666669636960008201527f656e742076616c75653a20666565202b20746f74616c20616d6f756e74000000602082015250565b600062001844603d836200160c565b91506200185182620017e6565b604082019050919050565b60006020820190508181036000830152620018778162001835565b9050919050565b60006040820190506200189560008301856200126a565b620018a460208301846200126a565b9392505050565b600081519050620018bc81620010f8565b92915050565b600060208284031215620018db57620018da62000edb565b5b6000620018eb84828501620018ab565b91505092915050565b7f546872757374706164546f6b656e466163746f72793a20496e7375666669636960008201527f656e7420616c6c6f77616e636500000000000000000000000000000000000000602082015250565b600062001952602d836200160c565b91506200195f82620018f4565b604082019050919050565b60006020820190508181036000830152620019858162001943565b9050919050565b600081519050919050565b600082825260208201905092915050565b6000819050602082019050919050565b620019c381620010ee565b82525050565b6000620019d78383620019b8565b60208301905092915050565b6000602082019050919050565b6000620019fd826200198c565b62001a09818562001997565b935062001a1683620019a8565b8060005b8381101562001a4d57815162001a318882620019c9565b975062001a3e83620019e3565b92505060018101905062001a1a565b5085935050505092915050565b600060608201905062001a7160008301866200126a565b818103602083015262001a85818562001409565b9050818103604083015262001a9b8184620019f0565b9050949350505050565b600060608201905062001abc60008301866200126a565b62001acb60208301856200126a565b62001ada604083018462001377565b949350505050565b60008115159050919050565b62001af98162001ae2565b811462001b0557600080fd5b50565b60008151905062001b198162001aee565b92915050565b60006020828403121562001b385762001b3762000edb565b5b600062001b488482850162001b08565b91505092915050565b600081905092915050565b600062001b698262001298565b62001b75818562001b51565b935062001b87818560208601620012b4565b80840191505092915050565b600062001ba1828562001b5c565b915062001baf828462001b5c565b91508190509392505050565b600060408201905062001bd260008301856200126a565b62001be1602083018462001377565b9392505050565b60007fff0000000000000000000000000000000000000000000000000000000000000082169050919050565b6000819050919050565b62001c3362001c2d8262001be8565b62001c14565b82525050565b60008160601b9050919050565b600062001c538262001c39565b9050919050565b600062001c678262001c46565b9050919050565b62001c8362001c7d8262000f05565b62001c5a565b82525050565b6000819050919050565b62001ca862001ca282620010ee565b62001c89565b82525050565b6000819050919050565b6000819050919050565b62001cd762001cd18262001cae565b62001cb8565b82525050565b600062001ceb828762001c1e565b60018201915062001cfd828662001c6e565b60148201915062001d0f828562001c93565b60208201915062001d21828462001cc2565b6020820191508190509594505050505056fe608060405260405162001072380380620010728339818101604052810190620000299190620005f0565b33600073ffffffffffffffffffffffffffffffffffffffff168173ffffffffffffffffffffffffffffffffffffffff16036200009f5760006040517f1e4fbdf70000000000000000000000000000000000000000000000000000000081526004016200009691906200069b565b60405180910390fd5b620000b0816200012d60201b60201c565b5082600160006101000a81548173ffffffffffffffffffffffffffffffffffffffff021916908373ffffffffffffffffffffffffffffffffffffffff16021790555081600290805190602001906200010a929190620001f1565b5080600390805190602001906200012392919062000280565b50505050620006b8565b60008060009054906101000a900473ffffffffffffffffffffffffffffffffffffffff169050816000806101000a81548173ffffffffffffffffffffffffffffffffffffffff021916908373ffffffffffffffffffffffffffffffffffffffff1602179055508173ffffffffffffffffffffffffffffffffffffffff168173ffffffffffffffffffffffffffffffffffffffff167f8be0079c531659141344cd1fd0a4f28419497f9722a3daafe3b4186f6b6457e060405160405180910390a35050565b8280548282559060005260206000209081019282156200026d579160200282015b828111156200026c5782518260006101000a81548173ffffffffffffffffffffffffffffffffffffffff021916908373ffffffffffffffffffffffffffffffffffffffff1602179055509160200191906001019062000212565b5b5090506200027c9190620002d2565b5090565b828054828255906000526020600020908101928215620002bf579160200282015b82811115620002be578251825591602001919060010190620002a1565b5b509050620002ce9190620002d2565b5090565b5b80821115620002ed576000816000905550600101620002d3565b5090565b6000604051905090565b600080fd5b600080fd5b600073ffffffffffffffffffffffffffffffffffffffff82169050919050565b6000620003328262000305565b9050919050565b620003448162000325565b81146200035057600080fd5b50565b600081519050620003648162000339565b92915050565b600080fd5b6000601f19601f8301169050919050565b7f4e487b7100000000000000000000000000000000000000000000000000000000600052604160045260246000fd5b620003ba826200036f565b810181811067ffffffffffffffff82111715620003dc57620003db62000380565b5b80604052505050565b6000620003f1620002f1565b9050620003ff8282620003af565b919050565b600067ffffffffffffffff82111562000422576200042162000380565b5b602082029050602081019050919050565b600080fd5b60006200044f620004498462000404565b620003e5565b9050808382526020820190506020840283018581111562000475576200047462000433565b5b835b81811015620004a257806200048d888262000353565b84526020840193505060208101905062000477565b5050509392505050565b600082601f830112620004c457620004c36200036a565b5b8151620004d684826020860162000438565b91505092915050565b600067ffffffffffffffff821115620004fd57620004fc62000380565b5b602082029050602081019050919050565b6000819050919050565b62000523816200050e565b81146200052f57600080fd5b50565b600081519050620005438162000518565b92915050565b6000620005606200055a84620004df565b620003e5565b9050808382526020820190506020840283018581111562000586576200058562000433565b5b835b81811015620005b357806200059e888262000532565b84526020840193505060208101905062000588565b5050509392505050565b600082601f830112620005d557620005d46200036a565b5b8151620005e784826020860162000549565b91505092915050565b6000806000606084860312156200060c576200060b620002fb565b5b60006200061c8682870162000353565b935050602084015167ffffffffffffffff81111562000640576200063f62000300565b5b6200064e86828701620004ac565b925050604084015167ffffffffffffffff81111562000672576200067162000300565b5b6200068086828701620005bd565b9150509250925092565b620006958162000325565b82525050565b6000602082019050620006b260008301846200068a565b92915050565b6109aa80620006c86000396000f3fe6080604052600436106100745760003560e01c80638da5cb5b1161004e5780638da5cb5b146100eb578063bfd772fc14610116578063f2fde38b14610153578063fc0c546a1461017c5761007b565b8063294402cc1461008057806345f0a44f14610097578063715018a6146100d45761007b565b3661007b57005b600080fd5b34801561008c57600080fd5b506100956101a7565b005b3480156100a357600080fd5b506100be60048036038101906100b991906107ab565b6104d1565b6040516100cb91906107e7565b60405180910390f35b3480156100e057600080fd5b506100e96104f5565b005b3480156100f757600080fd5b50610100610509565b60405161010d9190610843565b60405180910390f35b34801561012257600080fd5b5061013d600480360381019061013891906107ab565b610532565b60405161014a9190610843565b60405180910390f35b34801561015f57600080fd5b5061017a6004803603810190610175919061088a565b610571565b005b34801561018857600080fd5b506101916105f7565b60405161019e9190610843565b60405180910390f35b6101af61061d565b600073ffffffffffffffffffffffffffffffffffffffff16600160009054906101000a900473ffffffffffffffffffffffffffffffffffffffff1673ffffffffffffffffffffffffffffffffffffffff160361033f5760005b60028054905081101561033957600073ffffffffffffffffffffffffffffffffffffffff1660028281548110610241576102406108b7565b5b9060005260206000200160009054906101000a900473ffffffffffffffffffffffffffffffffffffffff1673ffffffffffffffffffffffffffffffffffffffff16031561032c576002818154811061029c5761029b6108b7565b5b9060005260206000200160009054906101000a900473ffffffffffffffffffffffffffffffffffffffff1673ffffffffffffffffffffffffffffffffffffffff166108fc600383815481106102f4576102f36108b7565b5b90600052602060002001549081150290604051600060405180830381858888f1935050505015801561032a573d6000803e3d6000fd5b505b8080600101915050610208565b506104cf565b60005b6002805490508110156104cd57600073ffffffffffffffffffffffffffffffffffffffff166002828154811061037b5761037a6108b7565b5b9060005260206000200160009054906101000a900473ffffffffffffffffffffffffffffffffffffffff1673ffffffffffffffffffffffffffffffffffffffff1603156104c057600160009054906101000a900473ffffffffffffffffffffffffffffffffffffffff1673ffffffffffffffffffffffffffffffffffffffff1663a9059cbb60028381548110610414576104136108b7565b5b9060005260206000200160009054906101000a900473ffffffffffffffffffffffffffffffffffffffff1660038481548110610453576104526108b7565b5b90600052602060002001546040518363ffffffff1660e01b815260040161047b9291906108e6565b6020604051808303816000875af115801561049a573d6000803e3d6000fd5b505050506040513d601f19601f820116820180604052508101906104be9190610947565b505b8080600101915050610342565b505b565b600381815481106104e157600080fd5b906000526020600020016000915090505481565b6104fd61061d565b61050760006106a4565b565b60008060009054906101000a900473ffffffffffffffffffffffffffffffffffffffff16905090565b6002818154811061054257600080fd5b906000526020600020016000915054906101000a900473ffffffffffffffffffffffffffffffffffffffff1681565b61057961061d565b600073ffffffffffffffffffffffffffffffffffffffff168173ffffffffffffffffffffffffffffffffffffffff16036105eb5760006040517f1e4fbdf70000000000000000000000000000000000000000000000000000000081526004016105e29190610843565b60405180910390fd5b6105f4816106a4565b50565b600160009054906101000a900473ffffffffffffffffffffffffffffffffffffffff1681565b610625610768565b73ffffffffffffffffffffffffffffffffffffffff16610643610509565b73ffffffffffffffffffffffffffffffffffffffff16146106a257610666610768565b6040517f118cdaa70000000000000000000000000000000000000000000000000000000081526004016106999190610843565b60405180910390fd5b565b60008060009054906101000a900473ffffffffffffffffffffffffffffffffffffffff169050816000806101000a81548173ffffffffffffffffffffffffffffffffffffffff021916908373ffffffffffffffffffffffffffffffffffffffff1602179055508173ffffffffffffffffffffffffffffffffffffffff168173ffffffffffffffffffffffffffffffffffffffff167f8be0079c531659141344cd1fd0a4f28419497f9722a3daafe3b4186f6b6457e060405160405180910390a35050565b600033905090565b600080fd5b6000819050919050565b61078881610775565b811461079357600080fd5b50565b6000813590506107a58161077f565b92915050565b6000602082840312156107c1576107c0610770565b5b60006107cf84828501610796565b91505092915050565b6107e181610775565b82525050565b60006020820190506107fc60008301846107d8565b92915050565b600073ffffffffffffffffffffffffffffffffffffffff82169050919050565b600061082d82610802565b9050919050565b61083d81610822565b82525050565b60006020820190506108586000830184610834565b92915050565b61086781610822565b811461087257600080fd5b50565b6000813590506108848161085e565b92915050565b6000602082840312156108a05761089f610770565b5b60006108ae84828501610875565b91505092915050565b7f4e487b7100000000000000000000000000000000000000000000000000000000600052603260045260246000fd5b60006040820190506108fb6000830185610834565b61090860208301846107d8565b9392505050565b60008115159050919050565b6109248161090f565b811461092f57600080fd5b50565b6000815190506109418161091b565b92915050565b60006020828403121561095d5761095c610770565b5b600061096b84828501610932565b9150509291505056fea26469706673582212203680893646fbb6b8aa3ca3c779db18e0352cab4f5c3e2590ce3ae011b9f1d1b764736f6c63430008180033a26469706673582212209f077a45c9ad8277da5ea006e57d3475714ec4964e2d6c98ced56577e3582dce64736f6c63430008180033","opcodes":"PUSH1 0x80 PUSH1 0x40 MSTORE PUSH8 0xDE0B6B3A7640000 PUSH1 0x2 SSTORE PUSH1 0x64 PUSH1 0x4 PUSH1 0x0 PUSH2 0x100 EXP DUP2 SLOAD DUP2 PUSH1 0xFF MUL NOT AND SWAP1 DUP4 PUSH1 0xFF AND MUL OR SWAP1 SSTORE POP CALLVALUE DUP1 ISZERO PUSH3 0x39 JUMPI PUSH1 0x0 DUP1 REVERT JUMPDEST POP CALLER PUSH1 0x0 PUSH20 0xFFFFFFFFFFFFFFFFFFFFFFFFFFFFFFFFFFFFFFFF AND DUP2 PUSH20 0xFFFFFFFFFFFFFFFFFFFFFFFFFFFFFFFFFFFFFFFF AND SUB PUSH3 0xB0 JUMPI PUSH1 0x0 PUSH1 0x40 MLOAD PUSH32 0x1E4FBDF700000000000000000000000000000000000000000000000000000000 DUP2 MSTORE PUSH1 0x4 ADD PUSH3 0xA7 SWAP2 SWAP1 PUSH3 0x1D1 JUMP JUMPDEST PUSH1 0x40 MLOAD DUP1 SWAP2 SUB SWAP1 REVERT JUMPDEST PUSH3 0xC1 DUP2 PUSH3 0xC8 PUSH1 0x20 SHL PUSH1 0x20 SHR JUMP JUMPDEST POP PUSH3 0x1EE JUMP JUMPDEST PUSH1 0x0 DUP1 PUSH1 0x0 SWAP1 SLOAD SWAP1 PUSH2 0x100 EXP SWAP1 DIV PUSH20 0xFFFFFFFFFFFFFFFFFFFFFFFFFFFFFFFFFFFFFFFF AND SWAP1 POP DUP2 PUSH1 0x0 DUP1 PUSH2 0x100 EXP DUP2 SLOAD DUP2 PUSH20 0xFFFFFFFFFFFFFFFFFFFFFFFFFFFFFFFFFFFFFFFF MUL NOT AND SWAP1 DUP4 PUSH20 0xFFFFFFFFFFFFFFFFFFFFFFFFFFFFFFFFFFFFFFFF AND MUL OR SWAP1 SSTORE POP DUP2 PUSH20 0xFFFFFFFFFFFFFFFFFFFFFFFFFFFFFFFFFFFFFFFF AND DUP2 PUSH20 0xFFFFFFFFFFFFFFFFFFFFFFFFFFFFFFFFFFFFFFFF AND PUSH32 0x8BE0079C531659141344CD1FD0A4F28419497F9722A3DAAFE3B4186F6B6457E0 PUSH1 0x40 MLOAD PUSH1 0x40 MLOAD DUP1 SWAP2 SUB SWAP1 LOG3 POP POP JUMP JUMPDEST PUSH1 0x0 PUSH20 0xFFFFFFFFFFFFFFFFFFFFFFFFFFFFFFFFFFFFFFFF DUP3 AND SWAP1 POP SWAP2 SWAP1 POP JUMP JUMPDEST PUSH1 0x0 PUSH3 0x1B9 DUP3 PUSH3 0x18C JUMP JUMPDEST SWAP1 POP SWAP2 SWAP1 POP JUMP JUMPDEST PUSH3 0x1CB DUP2 PUSH3 0x1AC JUMP JUMPDEST DUP3 MSTORE POP POP JUMP JUMPDEST PUSH1 0x0 PUSH1 0x20 DUP3 ADD SWAP1 POP PUSH3 0x1E8 PUSH1 0x0 DUP4 ADD DUP5 PUSH3 0x1C0 JUMP JUMPDEST SWAP3 SWAP2 POP POP JUMP JUMPDEST PUSH2 0x2DDB DUP1 PUSH3 0x1FE PUSH1 0x0 CODECOPY PUSH1 0x0 RETURN INVALID PUSH1 0x80 PUSH1 0x40 MSTORE PUSH1 0x4 CALLDATASIZE LT PUSH3 0xD9 JUMPI PUSH1 0x0 CALLDATALOAD PUSH1 0xE0 SHR DUP1 PUSH4 0x8DA5CB5B GT PUSH3 0x8B JUMPI DUP1 PUSH4 0xD5F63A06 GT PUSH3 0x61 JUMPI DUP1 PUSH4 0xD5F63A06 EQ PUSH3 0x2BE JUMPI DUP1 PUSH4 0xDCE0B4E4 EQ PUSH3 0x2EE JUMPI DUP1 PUSH4 0xF2FDE38B EQ PUSH3 0x31E JUMPI DUP1 PUSH4 0xFCC31AF0 EQ PUSH3 0x34C JUMPI PUSH3 0xE1 JUMP JUMPDEST DUP1 PUSH4 0x8DA5CB5B EQ PUSH3 0x206 JUMPI DUP1 PUSH4 0x949938E9 EQ PUSH3 0x236 JUMPI DUP1 PUSH4 0x9F886F26 EQ PUSH3 0x27A JUMPI PUSH3 0xE1 JUMP JUMPDEST DUP1 PUSH4 0x3CCFD60B EQ PUSH3 0xE6 JUMPI DUP1 PUSH4 0x53FA27A3 EQ PUSH3 0x100 JUMPI DUP1 PUSH4 0x715018A6 EQ PUSH3 0x136 JUMPI DUP1 PUSH4 0x7F7825C5 EQ PUSH3 0x150 JUMPI DUP1 PUSH4 0x877A4039 EQ PUSH3 0x194 JUMPI DUP1 PUSH4 0x89476069 EQ PUSH3 0x1D8 JUMPI PUSH3 0xE1 JUMP JUMPDEST CALLDATASIZE PUSH3 0xE1 JUMPI STOP JUMPDEST PUSH1 0x0 DUP1 REVERT JUMPDEST CALLVALUE DUP1 ISZERO PUSH3 0xF3 JUMPI PUSH1 0x0 DUP1 REVERT JUMPDEST POP PUSH3 0xFE PUSH3 0x390 JUMP JUMPDEST STOP JUMPDEST PUSH3 0x11E PUSH1 0x4 DUP1 CALLDATASIZE SUB DUP2 ADD SWAP1 PUSH3 0x118 SWAP2 SWAP1 PUSH3 0x11D0 JUMP JUMPDEST PUSH3 0x3ED JUMP JUMPDEST PUSH1 0x40 MLOAD PUSH3 0x12D SWAP2 SWAP1 PUSH3 0x127B JUMP JUMPDEST PUSH1 0x40 MLOAD DUP1 SWAP2 SUB SWAP1 RETURN JUMPDEST CALLVALUE DUP1 ISZERO PUSH3 0x143 JUMPI PUSH1 0x0 DUP1 REVERT JUMPDEST POP PUSH3 0x14E PUSH3 0x940 JUMP JUMPDEST STOP JUMPDEST CALLVALUE DUP1 ISZERO PUSH3 0x15D JUMPI PUSH1 0x0 DUP1 REVERT JUMPDEST POP PUSH3 0x17C PUSH1 0x4 DUP1 CALLDATASIZE SUB DUP2 ADD SWAP1 PUSH3 0x176 SWAP2 SWAP1 PUSH3 0x11D0 JUMP JUMPDEST PUSH3 0x958 JUMP JUMPDEST PUSH1 0x40 MLOAD PUSH3 0x18B SWAP2 SWAP1 PUSH3 0x1321 JUMP JUMPDEST PUSH1 0x40 MLOAD DUP1 SWAP2 SUB SWAP1 RETURN JUMPDEST CALLVALUE DUP1 ISZERO PUSH3 0x1A1 JUMPI PUSH1 0x0 DUP1 REVERT JUMPDEST POP PUSH3 0x1C0 PUSH1 0x4 DUP1 CALLDATASIZE SUB DUP2 ADD SWAP1 PUSH3 0x1BA SWAP2 SWAP1 PUSH3 0x1345 JUMP JUMPDEST PUSH3 0x9D7 JUMP JUMPDEST PUSH1 0x40 MLOAD PUSH3 0x1CF SWAP2 SWAP1 PUSH3 0x1388 JUMP JUMPDEST PUSH1 0x40 MLOAD DUP1 SWAP2 SUB SWAP1 RETURN JUMPDEST CALLVALUE DUP1 ISZERO PUSH3 0x1E5 JUMPI PUSH1 0x0 DUP1 REVERT JUMPDEST POP PUSH3 0x204 PUSH1 0x4 DUP1 CALLDATASIZE SUB DUP2 ADD SWAP1 PUSH3 0x1FE SWAP2 SWAP1 PUSH3 0x1345 JUMP JUMPDEST PUSH3 0xA23 JUMP JUMPDEST STOP JUMPDEST CALLVALUE DUP1 ISZERO PUSH3 0x213 JUMPI PUSH1 0x0 DUP1 REVERT JUMPDEST POP PUSH3 0x21E PUSH3 0xB3B JUMP JUMPDEST PUSH1 0x40 MLOAD PUSH3 0x22D SWAP2 SWAP1 PUSH3 0x127B JUMP JUMPDEST PUSH1 0x40 MLOAD DUP1 SWAP2 SUB SWAP1 RETURN JUMPDEST CALLVALUE DUP1 ISZERO PUSH3 0x243 JUMPI PUSH1 0x0 DUP1 REVERT JUMPDEST POP PUSH3 0x262 PUSH1 0x4 DUP1 CALLDATASIZE SUB DUP2 ADD SWAP1 PUSH3 0x25C SWAP2 SWAP1 PUSH3 0x1345 JUMP JUMPDEST PUSH3 0xB64 JUMP JUMPDEST PUSH1 0x40 MLOAD PUSH3 0x271 SWAP2 SWAP1 PUSH3 0x1473 JUMP JUMPDEST PUSH1 0x40 MLOAD DUP1 SWAP2 SUB SWAP1 RETURN JUMPDEST CALLVALUE DUP1 ISZERO PUSH3 0x287 JUMPI PUSH1 0x0 DUP1 REVERT JUMPDEST POP PUSH3 0x2A6 PUSH1 0x4 DUP1 CALLDATASIZE SUB DUP2 ADD SWAP1 PUSH3 0x2A0 SWAP2 SWAP1 PUSH3 0x155F JUMP JUMPDEST PUSH3 0xC33 JUMP JUMPDEST PUSH1 0x40 MLOAD PUSH3 0x2B5 SWAP2 SWAP1 PUSH3 0x127B JUMP JUMPDEST PUSH1 0x40 MLOAD DUP1 SWAP2 SUB SWAP1 RETURN JUMPDEST CALLVALUE DUP1 ISZERO PUSH3 0x2CB JUMPI PUSH1 0x0 DUP1 REVERT JUMPDEST POP PUSH3 0x2D6 PUSH3 0xC7F JUMP JUMPDEST PUSH1 0x40 MLOAD PUSH3 0x2E5 SWAP2 SWAP1 PUSH3 0x1388 JUMP JUMPDEST PUSH1 0x40 MLOAD DUP1 SWAP2 SUB SWAP1 RETURN JUMPDEST CALLVALUE DUP1 ISZERO PUSH3 0x2FB JUMPI PUSH1 0x0 DUP1 REVERT JUMPDEST POP PUSH3 0x306 PUSH3 0xC85 JUMP JUMPDEST PUSH1 0x40 MLOAD PUSH3 0x315 SWAP2 SWAP1 PUSH3 0x1388 JUMP JUMPDEST PUSH1 0x40 MLOAD DUP1 SWAP2 SUB SWAP1 RETURN JUMPDEST CALLVALUE DUP1 ISZERO PUSH3 0x32B JUMPI PUSH1 0x0 DUP1 REVERT JUMPDEST POP PUSH3 0x34A PUSH1 0x4 DUP1 CALLDATASIZE SUB DUP2 ADD SWAP1 PUSH3 0x344 SWAP2 SWAP1 PUSH3 0x1345 JUMP JUMPDEST PUSH3 0xC8B JUMP JUMPDEST STOP JUMPDEST CALLVALUE DUP1 ISZERO PUSH3 0x359 JUMPI PUSH1 0x0 DUP1 REVERT JUMPDEST POP PUSH3 0x378 PUSH1 0x4 DUP1 CALLDATASIZE SUB DUP2 ADD SWAP1 PUSH3 0x372 SWAP2 SWAP1 PUSH3 0x15C5 JUMP JUMPDEST PUSH3 0xD18 JUMP JUMPDEST PUSH1 0x40 MLOAD PUSH3 0x387 SWAP2 SWAP1 PUSH3 0x127B JUMP JUMPDEST PUSH1 0x40 MLOAD DUP1 SWAP2 SUB SWAP1 RETURN JUMPDEST PUSH3 0x39A PUSH3 0xD67 JUMP JUMPDEST PUSH3 0x3A4 PUSH3 0xB3B JUMP JUMPDEST PUSH20 0xFFFFFFFFFFFFFFFFFFFFFFFFFFFFFFFFFFFFFFFF AND PUSH2 0x8FC SELFBALANCE SWAP1 DUP2 ISZERO MUL SWAP1 PUSH1 0x40 MLOAD PUSH1 0x0 PUSH1 0x40 MLOAD DUP1 DUP4 SUB DUP2 DUP6 DUP9 DUP9 CALL SWAP4 POP POP POP POP ISZERO DUP1 ISZERO PUSH3 0x3EA JUMPI RETURNDATASIZE PUSH1 0x0 DUP1 RETURNDATACOPY RETURNDATASIZE PUSH1 0x0 REVERT JUMPDEST POP JUMP JUMPDEST PUSH1 0x0 DUP3 MLOAD DUP3 MLOAD EQ PUSH3 0x436 JUMPI PUSH1 0x40 MLOAD PUSH32 0x8C379A000000000000000000000000000000000000000000000000000000000 DUP2 MSTORE PUSH1 0x4 ADD PUSH3 0x42D SWAP1 PUSH3 0x1693 JUMP JUMPDEST PUSH1 0x40 MLOAD DUP1 SWAP2 SUB SWAP1 REVERT JUMPDEST PUSH1 0x4 PUSH1 0x0 SWAP1 SLOAD SWAP1 PUSH2 0x100 EXP SWAP1 DIV PUSH1 0xFF AND PUSH1 0xFF AND DUP3 MLOAD GT ISZERO PUSH3 0x48F JUMPI PUSH1 0x40 MLOAD PUSH32 0x8C379A000000000000000000000000000000000000000000000000000000000 DUP2 MSTORE PUSH1 0x4 ADD PUSH3 0x486 SWAP1 PUSH3 0x172B JUMP JUMPDEST PUSH1 0x40 MLOAD DUP1 SWAP2 SUB SWAP1 REVERT JUMPDEST PUSH1 0x0 DUP1 JUMPDEST DUP4 MLOAD DUP2 LT ISZERO PUSH3 0x4D8 JUMPI DUP4 DUP2 DUP2 MLOAD DUP2 LT PUSH3 0x4B3 JUMPI PUSH3 0x4B2 PUSH3 0x174D JUMP JUMPDEST JUMPDEST PUSH1 0x20 MUL PUSH1 0x20 ADD ADD MLOAD DUP3 PUSH3 0x4C8 SWAP2 SWAP1 PUSH3 0x17AB JUMP JUMPDEST SWAP2 POP DUP1 DUP1 PUSH1 0x1 ADD SWAP2 POP POP PUSH3 0x493 JUMP JUMPDEST POP PUSH1 0x0 PUSH20 0xFFFFFFFFFFFFFFFFFFFFFFFFFFFFFFFFFFFFFFFF AND DUP6 PUSH20 0xFFFFFFFFFFFFFFFFFFFFFFFFFFFFFFFFFFFFFFFF AND SUB PUSH3 0x569 JUMPI DUP1 PUSH1 0x2 SLOAD PUSH3 0x51E SWAP2 SWAP1 PUSH3 0x17AB JUMP JUMPDEST CALLVALUE LT ISZERO PUSH3 0x563 JUMPI PUSH1 0x40 MLOAD PUSH32 0x8C379A000000000000000000000000000000000000000000000000000000000 DUP2 MSTORE PUSH1 0x4 ADD PUSH3 0x55A SWAP1 PUSH3 0x185C JUMP JUMPDEST PUSH1 0x40 MLOAD DUP1 SWAP2 SUB SWAP1 REVERT JUMPDEST PUSH3 0x636 JUMP JUMPDEST PUSH1 0x0 DUP6 PUSH20 0xFFFFFFFFFFFFFFFFFFFFFFFFFFFFFFFFFFFFFFFF AND PUSH4 0xDD62ED3E CALLER ADDRESS PUSH1 0x40 MLOAD DUP4 PUSH4 0xFFFFFFFF AND PUSH1 0xE0 SHL DUP2 MSTORE PUSH1 0x4 ADD PUSH3 0x5A8 SWAP3 SWAP2 SWAP1 PUSH3 0x187E JUMP JUMPDEST PUSH1 0x20 PUSH1 0x40 MLOAD DUP1 DUP4 SUB DUP2 DUP7 GAS STATICCALL ISZERO DUP1 ISZERO PUSH3 0x5C6 JUMPI RETURNDATASIZE PUSH1 0x0 DUP1 RETURNDATACOPY RETURNDATASIZE PUSH1 0x0 REVERT JUMPDEST POP POP POP POP PUSH1 0x40 MLOAD RETURNDATASIZE PUSH1 0x1F NOT PUSH1 0x1F DUP3 ADD AND DUP3 ADD DUP1 PUSH1 0x40 MSTORE POP DUP2 ADD SWAP1 PUSH3 0x5EC SWAP2 SWAP1 PUSH3 0x18C2 JUMP JUMPDEST SWAP1 POP DUP2 DUP2 LT ISZERO PUSH3 0x634 JUMPI PUSH1 0x40 MLOAD PUSH32 0x8C379A000000000000000000000000000000000000000000000000000000000 DUP2 MSTORE PUSH1 0x4 ADD PUSH3 0x62B SWAP1 PUSH3 0x196A JUMP JUMPDEST PUSH1 0x40 MLOAD DUP1 SWAP2 SUB SWAP1 REVERT JUMPDEST POP JUMPDEST PUSH1 0x0 DUP1 PUSH20 0xFFFFFFFFFFFFFFFFFFFFFFFFFFFFFFFFFFFFFFFF AND DUP7 PUSH20 0xFFFFFFFFFFFFFFFFFFFFFFFFFFFFFFFFFFFFFFFF AND EQ PUSH3 0x674 JUMPI PUSH1 0x0 PUSH3 0x676 JUMP JUMPDEST DUP2 JUMPDEST PUSH1 0x1 PUSH1 0x0 CALLER PUSH20 0xFFFFFFFFFFFFFFFFFFFFFFFFFFFFFFFFFFFFFFFF AND PUSH20 0xFFFFFFFFFFFFFFFFFFFFFFFFFFFFFFFFFFFFFFFF AND DUP2 MSTORE PUSH1 0x20 ADD SWAP1 DUP2 MSTORE PUSH1 0x20 ADD PUSH1 0x0 KECCAK256 DUP1 SLOAD SWAP1 POP PUSH1 0x0 SHL SWAP1 DUP8 DUP8 DUP8 PUSH1 0x40 MLOAD PUSH3 0x6CE SWAP1 PUSH3 0xEC3 JUMP JUMPDEST PUSH3 0x6DC SWAP4 SWAP3 SWAP2 SWAP1 PUSH3 0x1A5A JUMP JUMPDEST DUP3 SWAP1 PUSH1 0x40 MLOAD DUP1 SWAP2 SUB SWAP1 DUP4 CREATE2 SWAP1 POP SWAP1 POP DUP1 ISZERO DUP1 ISZERO PUSH3 0x6FE JUMPI RETURNDATASIZE PUSH1 0x0 DUP1 RETURNDATACOPY RETURNDATASIZE PUSH1 0x0 REVERT JUMPDEST POP SWAP1 POP PUSH1 0x1 PUSH1 0x0 CALLER PUSH20 0xFFFFFFFFFFFFFFFFFFFFFFFFFFFFFFFFFFFFFFFF AND PUSH20 0xFFFFFFFFFFFFFFFFFFFFFFFFFFFFFFFFFFFFFFFF AND DUP2 MSTORE PUSH1 0x20 ADD SWAP1 DUP2 MSTORE PUSH1 0x20 ADD PUSH1 0x0 KECCAK256 DUP2 SWAP1 DUP1 PUSH1 0x1 DUP2 SLOAD ADD DUP1 DUP3 SSTORE DUP1 SWAP2 POP POP PUSH1 0x1 SWAP1 SUB SWAP1 PUSH1 0x0 MSTORE PUSH1 0x20 PUSH1 0x0 KECCAK256 ADD PUSH1 0x0 SWAP1 SWAP2 SWAP1 SWAP2 SWAP1 SWAP2 PUSH2 0x100 EXP DUP2 SLOAD DUP2 PUSH20 0xFFFFFFFFFFFFFFFFFFFFFFFFFFFFFFFFFFFFFFFF MUL NOT AND SWAP1 DUP4 PUSH20 0xFFFFFFFFFFFFFFFFFFFFFFFFFFFFFFFFFFFFFFFF AND MUL OR SWAP1 SSTORE POP PUSH1 0x0 PUSH20 0xFFFFFFFFFFFFFFFFFFFFFFFFFFFFFFFFFFFFFFFF AND DUP7 PUSH20 0xFFFFFFFFFFFFFFFFFFFFFFFFFFFFFFFFFFFFFFFF AND EQ PUSH3 0x85D JUMPI DUP6 PUSH20 0xFFFFFFFFFFFFFFFFFFFFFFFFFFFFFFFFFFFFFFFF AND PUSH4 0x23B872DD CALLER DUP4 DUP6 PUSH1 0x40 MLOAD DUP5 PUSH4 0xFFFFFFFF AND PUSH1 0xE0 SHL DUP2 MSTORE PUSH1 0x4 ADD PUSH3 0x815 SWAP4 SWAP3 SWAP2 SWAP1 PUSH3 0x1AA5 JUMP JUMPDEST PUSH1 0x20 PUSH1 0x40 MLOAD DUP1 DUP4 SUB DUP2 PUSH1 0x0 DUP8 GAS CALL ISZERO DUP1 ISZERO PUSH3 0x835 JUMPI RETURNDATASIZE PUSH1 0x0 DUP1 RETURNDATACOPY RETURNDATASIZE PUSH1 0x0 REVERT JUMPDEST POP POP POP POP PUSH1 0x40 MLOAD RETURNDATASIZE PUSH1 0x1F NOT PUSH1 0x1F DUP3 ADD AND DUP3 ADD DUP1 PUSH1 0x40 MSTORE POP DUP2 ADD SWAP1 PUSH3 0x85B SWAP2 SWAP1 PUSH3 0x1B1F JUMP JUMPDEST POP JUMPDEST DUP1 PUSH20 0xFFFFFFFFFFFFFFFFFFFFFFFFFFFFFFFFFFFFFFFF AND PUSH4 0x294402CC PUSH1 0x40 MLOAD DUP2 PUSH4 0xFFFFFFFF AND PUSH1 0xE0 SHL DUP2 MSTORE PUSH1 0x4 ADD PUSH1 0x0 PUSH1 0x40 MLOAD DUP1 DUP4 SUB DUP2 PUSH1 0x0 DUP8 DUP1 EXTCODESIZE ISZERO DUP1 ISZERO PUSH3 0x8A6 JUMPI PUSH1 0x0 DUP1 REVERT JUMPDEST POP GAS CALL ISZERO DUP1 ISZERO PUSH3 0x8BB JUMPI RETURNDATASIZE PUSH1 0x0 DUP1 RETURNDATACOPY RETURNDATASIZE PUSH1 0x0 REVERT JUMPDEST POP POP POP POP DUP1 PUSH20 0xFFFFFFFFFFFFFFFFFFFFFFFFFFFFFFFFFFFFFFFF AND CALLER PUSH20 0xFFFFFFFFFFFFFFFFFFFFFFFFFFFFFFFFFFFFFFFF AND PUSH32 0x6D1F96E538195EEBC344E4FD73EFD605A9CFDF73D3267009398ED160D33F1938 PUSH1 0x40 MLOAD PUSH1 0x40 MLOAD DUP1 SWAP2 SUB SWAP1 LOG3 CALLVALUE PUSH1 0x3 PUSH1 0x0 DUP3 DUP3 SLOAD PUSH3 0x92D SWAP2 SWAP1 PUSH3 0x17AB JUMP JUMPDEST SWAP3 POP POP DUP2 SWAP1 SSTORE POP DUP1 SWAP3 POP POP POP SWAP4 SWAP3 POP POP POP JUMP JUMPDEST PUSH3 0x94A PUSH3 0xD67 JUMP JUMPDEST PUSH3 0x956 PUSH1 0x0 PUSH3 0xDF7 JUMP JUMPDEST JUMP JUMPDEST PUSH1 0x60 PUSH1 0x0 PUSH1 0x40 MLOAD DUP1 PUSH1 0x20 ADD PUSH3 0x96E SWAP1 PUSH3 0xEC3 JUMP JUMPDEST PUSH1 0x20 DUP3 ADD DUP2 SUB DUP3 MSTORE PUSH1 0x1F NOT PUSH1 0x1F DUP3 ADD AND PUSH1 0x40 MSTORE POP SWAP1 POP DUP1 DUP6 DUP6 DUP6 PUSH1 0x40 MLOAD PUSH1 0x20 ADD PUSH3 0x99C SWAP4 SWAP3 SWAP2 SWAP1 PUSH3 0x1A5A JUMP JUMPDEST PUSH1 0x40 MLOAD PUSH1 0x20 DUP2 DUP4 SUB SUB DUP2 MSTORE SWAP1 PUSH1 0x40 MSTORE PUSH1 0x40 MLOAD PUSH1 0x20 ADD PUSH3 0x9BE SWAP3 SWAP2 SWAP1 PUSH3 0x1B93 JUMP JUMPDEST PUSH1 0x40 MLOAD PUSH1 0x20 DUP2 DUP4 SUB SUB DUP2 MSTORE SWAP1 PUSH1 0x40 MSTORE SWAP2 POP POP SWAP4 SWAP3 POP POP POP JUMP JUMPDEST PUSH1 0x0 PUSH1 0x1 PUSH1 0x0 DUP4 PUSH20 0xFFFFFFFFFFFFFFFFFFFFFFFFFFFFFFFFFFFFFFFF AND PUSH20 0xFFFFFFFFFFFFFFFFFFFFFFFFFFFFFFFFFFFFFFFF AND DUP2 MSTORE PUSH1 0x20 ADD SWAP1 DUP2 MSTORE PUSH1 0x20 ADD PUSH1 0x0 KECCAK256 DUP1 SLOAD SWAP1 POP SWAP1 POP SWAP2 SWAP1 POP JUMP JUMPDEST PUSH3 0xA2D PUSH3 0xD67 JUMP JUMPDEST DUP1 PUSH20 0xFFFFFFFFFFFFFFFFFFFFFFFFFFFFFFFFFFFFFFFF AND PUSH4 0xA9059CBB PUSH3 0xA53 PUSH3 0xB3B JUMP JUMPDEST DUP4 PUSH20 0xFFFFFFFFFFFFFFFFFFFFFFFFFFFFFFFFFFFFFFFF AND PUSH4 0x70A08231 ADDRESS PUSH1 0x40 MLOAD DUP3 PUSH4 0xFFFFFFFF AND PUSH1 0xE0 SHL DUP2 MSTORE PUSH1 0x4 ADD PUSH3 0xA8E SWAP2 SWAP1 PUSH3 0x127B JUMP JUMPDEST PUSH1 0x20 PUSH1 0x40 MLOAD DUP1 DUP4 SUB DUP2 DUP7 GAS STATICCALL ISZERO DUP1 ISZERO PUSH3 0xAAC JUMPI RETURNDATASIZE PUSH1 0x0 DUP1 RETURNDATACOPY RETURNDATASIZE PUSH1 0x0 REVERT JUMPDEST POP POP POP POP PUSH1 0x40 MLOAD RETURNDATASIZE PUSH1 0x1F NOT PUSH1 0x1F DUP3 ADD AND DUP3 ADD DUP1 PUSH1 0x40 MSTORE POP DUP2 ADD SWAP1 PUSH3 0xAD2 SWAP2 SWAP1 PUSH3 0x18C2 JUMP JUMPDEST PUSH1 0x40 MLOAD DUP4 PUSH4 0xFFFFFFFF AND PUSH1 0xE0 SHL DUP2 MSTORE PUSH1 0x4 ADD PUSH3 0xAF1 SWAP3 SWAP2 SWAP1 PUSH3 0x1BBB JUMP JUMPDEST PUSH1 0x20 PUSH1 0x40 MLOAD DUP1 DUP4 SUB DUP2 PUSH1 0x0 DUP8 GAS CALL ISZERO DUP1 ISZERO PUSH3 0xB11 JUMPI RETURNDATASIZE PUSH1 0x0 DUP1 RETURNDATACOPY RETURNDATASIZE PUSH1 0x0 REVERT JUMPDEST POP POP POP POP PUSH1 0x40 MLOAD RETURNDATASIZE PUSH1 0x1F NOT PUSH1 0x1F DUP3 ADD AND DUP3 ADD DUP1 PUSH1 0x40 MSTORE POP DUP2 ADD SWAP1 PUSH3 0xB37 SWAP2 SWAP1 PUSH3 0x1B1F JUMP JUMPDEST POP POP JUMP JUMPDEST PUSH1 0x0 DUP1 PUSH1 0x0 SWAP1 SLOAD SWAP1 PUSH2 0x100 EXP SWAP1 DIV PUSH20 0xFFFFFFFFFFFFFFFFFFFFFFFFFFFFFFFFFFFFFFFF AND SWAP1 POP SWAP1 JUMP JUMPDEST PUSH1 0x60 PUSH1 0x1 PUSH1 0x0 DUP4 PUSH20 0xFFFFFFFFFFFFFFFFFFFFFFFFFFFFFFFFFFFFFFFF AND PUSH20 0xFFFFFFFFFFFFFFFFFFFFFFFFFFFFFFFFFFFFFFFF AND DUP2 MSTORE PUSH1 0x20 ADD SWAP1 DUP2 MSTORE PUSH1 0x20 ADD PUSH1 0x0 KECCAK256 DUP1 SLOAD DUP1 PUSH1 0x20 MUL PUSH1 0x20 ADD PUSH1 0x40 MLOAD SWAP1 DUP2 ADD PUSH1 0x40 MSTORE DUP1 SWAP3 SWAP2 SWAP1 DUP2 DUP2 MSTORE PUSH1 0x20 ADD DUP3 DUP1 SLOAD DUP1 ISZERO PUSH3 0xC27 JUMPI PUSH1 0x20 MUL DUP3 ADD SWAP2 SWAP1 PUSH1 0x0 MSTORE PUSH1 0x20 PUSH1 0x0 KECCAK256 SWAP1 JUMPDEST DUP2 PUSH1 0x0 SWAP1 SLOAD SWAP1 PUSH2 0x100 EXP SWAP1 DIV PUSH20 0xFFFFFFFFFFFFFFFFFFFFFFFFFFFFFFFFFFFFFFFF AND PUSH20 0xFFFFFFFFFFFFFFFFFFFFFFFFFFFFFFFFFFFFFFFF AND DUP2 MSTORE PUSH1 0x20 ADD SWAP1 PUSH1 0x1 ADD SWAP1 DUP1 DUP4 GT PUSH3 0xBDC JUMPI JUMPDEST POP POP POP POP POP SWAP1 POP SWAP2 SWAP1 POP JUMP JUMPDEST PUSH1 0x0 DUP1 PUSH1 0xFF PUSH1 0xF8 SHL ADDRESS DUP5 DUP7 DUP1 MLOAD SWAP1 PUSH1 0x20 ADD KECCAK256 PUSH1 0x40 MLOAD PUSH1 0x20 ADD PUSH3 0xC5A SWAP5 SWAP4 SWAP3 SWAP2 SWAP1 PUSH3 0x1CDD JUMP JUMPDEST PUSH1 0x40 MLOAD PUSH1 0x20 DUP2 DUP4 SUB SUB DUP2 MSTORE SWAP1 PUSH1 0x40 MSTORE DUP1 MLOAD SWAP1 PUSH1 0x20 ADD KECCAK256 SWAP1 POP DUP1 PUSH1 0x0 SHR SWAP2 POP POP SWAP3 SWAP2 POP POP JUMP JUMPDEST PUSH1 0x3 SLOAD DUP2 JUMP JUMPDEST PUSH1 0x2 SLOAD DUP2 JUMP JUMPDEST PUSH3 0xC95 PUSH3 0xD67 JUMP JUMPDEST PUSH1 0x0 PUSH20 0xFFFFFFFFFFFFFFFFFFFFFFFFFFFFFFFFFFFFFFFF AND DUP2 PUSH20 0xFFFFFFFFFFFFFFFFFFFFFFFFFFFFFFFFFFFFFFFF AND SUB PUSH3 0xD0A JUMPI PUSH1 0x0 PUSH1 0x40 MLOAD PUSH32 0x1E4FBDF700000000000000000000000000000000000000000000000000000000 DUP2 MSTORE PUSH1 0x4 ADD PUSH3 0xD01 SWAP2 SWAP1 PUSH3 0x127B JUMP JUMPDEST PUSH1 0x40 MLOAD DUP1 SWAP2 SUB SWAP1 REVERT JUMPDEST PUSH3 0xD15 DUP2 PUSH3 0xDF7 JUMP JUMPDEST POP JUMP JUMPDEST PUSH1 0x1 PUSH1 0x20 MSTORE DUP2 PUSH1 0x0 MSTORE PUSH1 0x40 PUSH1 0x0 KECCAK256 DUP2 DUP2 SLOAD DUP2 LT PUSH3 0xD35 JUMPI PUSH1 0x0 DUP1 REVERT JUMPDEST SWAP1 PUSH1 0x0 MSTORE PUSH1 0x20 PUSH1 0x0 KECCAK256 ADD PUSH1 0x0 SWAP2 POP SWAP2 POP SWAP1 SLOAD SWAP1 PUSH2 0x100 EXP SWAP1 DIV PUSH20 0xFFFFFFFFFFFFFFFFFFFFFFFFFFFFFFFFFFFFFFFF AND DUP2 JUMP JUMPDEST PUSH3 0xD71 PUSH3 0xEBB JUMP JUMPDEST PUSH20 0xFFFFFFFFFFFFFFFFFFFFFFFFFFFFFFFFFFFFFFFF AND PUSH3 0xD91 PUSH3 0xB3B JUMP JUMPDEST PUSH20 0xFFFFFFFFFFFFFFFFFFFFFFFFFFFFFFFFFFFFFFFF AND EQ PUSH3 0xDF5 JUMPI PUSH3 0xDB7 PUSH3 0xEBB JUMP JUMPDEST PUSH1 0x40 MLOAD PUSH32 0x118CDAA700000000000000000000000000000000000000000000000000000000 DUP2 MSTORE PUSH1 0x4 ADD PUSH3 0xDEC SWAP2 SWAP1 PUSH3 0x127B JUMP JUMPDEST PUSH1 0x40 MLOAD DUP1 SWAP2 SUB SWAP1 REVERT JUMPDEST JUMP JUMPDEST PUSH1 0x0 DUP1 PUSH1 0x0 SWAP1 SLOAD SWAP1 PUSH2 0x100 EXP SWAP1 DIV PUSH20 0xFFFFFFFFFFFFFFFFFFFFFFFFFFFFFFFFFFFFFFFF AND SWAP1 POP DUP2 PUSH1 0x0 DUP1 PUSH2 0x100 EXP DUP2 SLOAD DUP2 PUSH20 0xFFFFFFFFFFFFFFFFFFFFFFFFFFFFFFFFFFFFFFFF MUL NOT AND SWAP1 DUP4 PUSH20 0xFFFFFFFFFFFFFFFFFFFFFFFFFFFFFFFFFFFFFFFF AND MUL OR SWAP1 SSTORE POP DUP2 PUSH20 0xFFFFFFFFFFFFFFFFFFFFFFFFFFFFFFFFFFFFFFFF AND DUP2 PUSH20 0xFFFFFFFFFFFFFFFFFFFFFFFFFFFFFFFFFFFFFFFF AND PUSH32 0x8BE0079C531659141344CD1FD0A4F28419497F9722A3DAAFE3B4186F6B6457E0 PUSH1 0x40 MLOAD PUSH1 0x40 MLOAD DUP1 SWAP2 SUB SWAP1 LOG3 POP POP JUMP JUMPDEST PUSH1 0x0 CALLER SWAP1 POP SWAP1 JUMP JUMPDEST PUSH2 0x1072 DUP1 PUSH3 0x1D34 DUP4 CODECOPY ADD SWAP1 JUMP JUMPDEST PUSH1 0x0 PUSH1 0x40 MLOAD SWAP1 POP SWAP1 JUMP JUMPDEST PUSH1 0x0 DUP1 REVERT JUMPDEST PUSH1 0x0 DUP1 REVERT JUMPDEST PUSH1 0x0 PUSH20 0xFFFFFFFFFFFFFFFFFFFFFFFFFFFFFFFFFFFFFFFF DUP3 AND SWAP1 POP SWAP2 SWAP1 POP JUMP JUMPDEST PUSH1 0x0 PUSH3 0xF12 DUP3 PUSH3 0xEE5 JUMP JUMPDEST SWAP1 POP SWAP2 SWAP1 POP JUMP JUMPDEST PUSH3 0xF24 DUP2 PUSH3 0xF05 JUMP JUMPDEST DUP2 EQ PUSH3 0xF30 JUMPI PUSH1 0x0 DUP1 REVERT JUMPDEST POP JUMP JUMPDEST PUSH1 0x0 DUP2 CALLDATALOAD SWAP1 POP PUSH3 0xF44 DUP2 PUSH3 0xF19 JUMP JUMPDEST SWAP3 SWAP2 POP POP JUMP JUMPDEST PUSH1 0x0 DUP1 REVERT JUMPDEST PUSH1 0x0 PUSH1 0x1F NOT PUSH1 0x1F DUP4 ADD AND SWAP1 POP SWAP2 SWAP1 POP JUMP JUMPDEST PUSH32 0x4E487B7100000000000000000000000000000000000000000000000000000000 PUSH1 0x0 MSTORE PUSH1 0x41 PUSH1 0x4 MSTORE PUSH1 0x24 PUSH1 0x0 REVERT JUMPDEST PUSH3 0xF9A DUP3 PUSH3 0xF4F JUMP JUMPDEST DUP2 ADD DUP2 DUP2 LT PUSH8 0xFFFFFFFFFFFFFFFF DUP3 GT OR ISZERO PUSH3 0xFBC JUMPI PUSH3 0xFBB PUSH3 0xF60 JUMP JUMPDEST JUMPDEST DUP1 PUSH1 0x40 MSTORE POP POP POP JUMP JUMPDEST PUSH1 0x0 PUSH3 0xFD1 PUSH3 0xED1 JUMP JUMPDEST SWAP1 POP PUSH3 0xFDF DUP3 DUP3 PUSH3 0xF8F JUMP JUMPDEST SWAP2 SWAP1 POP JUMP JUMPDEST PUSH1 0x0 PUSH8 0xFFFFFFFFFFFFFFFF DUP3 GT ISZERO PUSH3 0x1002 JUMPI PUSH3 0x1001 PUSH3 0xF60 JUMP JUMPDEST JUMPDEST PUSH1 0x20 DUP3 MUL SWAP1 POP PUSH1 0x20 DUP2 ADD SWAP1 POP SWAP2 SWAP1 POP JUMP JUMPDEST PUSH1 0x0 DUP1 REVERT JUMPDEST PUSH1 0x0 PUSH3 0x102F PUSH3 0x1029 DUP5 PUSH3 0xFE4 JUMP JUMPDEST PUSH3 0xFC5 JUMP JUMPDEST SWAP1 POP DUP1 DUP4 DUP3 MSTORE PUSH1 0x20 DUP3 ADD SWAP1 POP PUSH1 0x20 DUP5 MUL DUP4 ADD DUP6 DUP2 GT ISZERO PUSH3 0x1055 JUMPI PUSH3 0x1054 PUSH3 0x1013 JUMP JUMPDEST JUMPDEST DUP4 JUMPDEST DUP2 DUP2 LT ISZERO PUSH3 0x1082 JUMPI DUP1 PUSH3 0x106D DUP9 DUP3 PUSH3 0xF33 JUMP JUMPDEST DUP5 MSTORE PUSH1 0x20 DUP5 ADD SWAP4 POP POP PUSH1 0x20 DUP2 ADD SWAP1 POP PUSH3 0x1057 JUMP JUMPDEST POP POP POP SWAP4 SWAP3 POP POP POP JUMP JUMPDEST PUSH1 0x0 DUP3 PUSH1 0x1F DUP4 ADD SLT PUSH3 0x10A4 JUMPI PUSH3 0x10A3 PUSH3 0xF4A JUMP JUMPDEST JUMPDEST DUP2 CALLDATALOAD PUSH3 0x10B6 DUP5 DUP3 PUSH1 0x20 DUP7 ADD PUSH3 0x1018 JUMP JUMPDEST SWAP2 POP POP SWAP3 SWAP2 POP POP JUMP JUMPDEST PUSH1 0x0 PUSH8 0xFFFFFFFFFFFFFFFF DUP3 GT ISZERO PUSH3 0x10DD JUMPI PUSH3 0x10DC PUSH3 0xF60 JUMP JUMPDEST JUMPDEST PUSH1 0x20 DUP3 MUL SWAP1 POP PUSH1 0x20 DUP2 ADD SWAP1 POP SWAP2 SWAP1 POP JUMP JUMPDEST PUSH1 0x0 DUP2 SWAP1 POP SWAP2 SWAP1 POP JUMP JUMPDEST PUSH3 0x1103 DUP2 PUSH3 0x10EE JUMP JUMPDEST DUP2 EQ PUSH3 0x110F JUMPI PUSH1 0x0 DUP1 REVERT JUMPDEST POP JUMP JUMPDEST PUSH1 0x0 DUP2 CALLDATALOAD SWAP1 POP PUSH3 0x1123 DUP2 PUSH3 0x10F8 JUMP JUMPDEST SWAP3 SWAP2 POP POP JUMP JUMPDEST PUSH1 0x0 PUSH3 0x1140 PUSH3 0x113A DUP5 PUSH3 0x10BF JUMP JUMPDEST PUSH3 0xFC5 JUMP JUMPDEST SWAP1 POP DUP1 DUP4 DUP3 MSTORE PUSH1 0x20 DUP3 ADD SWAP1 POP PUSH1 0x20 DUP5 MUL DUP4 ADD DUP6 DUP2 GT ISZERO PUSH3 0x1166 JUMPI PUSH3 0x1165 PUSH3 0x1013 JUMP JUMPDEST JUMPDEST DUP4 JUMPDEST DUP2 DUP2 LT ISZERO PUSH3 0x1193 JUMPI DUP1 PUSH3 0x117E DUP9 DUP3 PUSH3 0x1112 JUMP JUMPDEST DUP5 MSTORE PUSH1 0x20 DUP5 ADD SWAP4 POP POP PUSH1 0x20 DUP2 ADD SWAP1 POP PUSH3 0x1168 JUMP JUMPDEST POP POP POP SWAP4 SWAP3 POP POP POP JUMP JUMPDEST PUSH1 0x0 DUP3 PUSH1 0x1F DUP4 ADD SLT PUSH3 0x11B5 JUMPI PUSH3 0x11B4 PUSH3 0xF4A JUMP JUMPDEST JUMPDEST DUP2 CALLDATALOAD PUSH3 0x11C7 DUP5 DUP3 PUSH1 0x20 DUP7 ADD PUSH3 0x1129 JUMP JUMPDEST SWAP2 POP POP SWAP3 SWAP2 POP POP JUMP JUMPDEST PUSH1 0x0 DUP1 PUSH1 0x0 PUSH1 0x60 DUP5 DUP7 SUB SLT ISZERO PUSH3 0x11EC JUMPI PUSH3 0x11EB PUSH3 0xEDB JUMP JUMPDEST JUMPDEST PUSH1 0x0 PUSH3 0x11FC DUP7 DUP3 DUP8 ADD PUSH3 0xF33 JUMP JUMPDEST SWAP4 POP POP PUSH1 0x20 DUP5 ADD CALLDATALOAD PUSH8 0xFFFFFFFFFFFFFFFF DUP2 GT ISZERO PUSH3 0x1220 JUMPI PUSH3 0x121F PUSH3 0xEE0 JUMP JUMPDEST JUMPDEST PUSH3 0x122E DUP7 DUP3 DUP8 ADD PUSH3 0x108C JUMP JUMPDEST SWAP3 POP POP PUSH1 0x40 DUP5 ADD CALLDATALOAD PUSH8 0xFFFFFFFFFFFFFFFF DUP2 GT ISZERO PUSH3 0x1252 JUMPI PUSH3 0x1251 PUSH3 0xEE0 JUMP JUMPDEST JUMPDEST PUSH3 0x1260 DUP7 DUP3 DUP8 ADD PUSH3 0x119D JUMP JUMPDEST SWAP2 POP POP SWAP3 POP SWAP3 POP SWAP3 JUMP JUMPDEST PUSH3 0x1275 DUP2 PUSH3 0xF05 JUMP JUMPDEST DUP3 MSTORE POP POP JUMP JUMPDEST PUSH1 0x0 PUSH1 0x20 DUP3 ADD SWAP1 POP PUSH3 0x1292 PUSH1 0x0 DUP4 ADD DUP5 PUSH3 0x126A JUMP JUMPDEST SWAP3 SWAP2 POP POP JUMP JUMPDEST PUSH1 0x0 DUP2 MLOAD SWAP1 POP SWAP2 SWAP1 POP JUMP JUMPDEST PUSH1 0x0 DUP3 DUP3 MSTORE PUSH1 0x20 DUP3 ADD SWAP1 POP SWAP3 SWAP2 POP POP JUMP JUMPDEST PUSH1 0x0 JUMPDEST DUP4 DUP2 LT ISZERO PUSH3 0x12D4 JUMPI DUP1 DUP3 ADD MLOAD DUP2 DUP5 ADD MSTORE PUSH1 0x20 DUP2 ADD SWAP1 POP PUSH3 0x12B7 JUMP JUMPDEST PUSH1 0x0 DUP5 DUP5 ADD MSTORE POP POP POP POP JUMP JUMPDEST PUSH1 0x0 PUSH3 0x12ED DUP3 PUSH3 0x1298 JUMP JUMPDEST PUSH3 0x12F9 DUP2 DUP6 PUSH3 0x12A3 JUMP JUMPDEST SWAP4 POP PUSH3 0x130B DUP2 DUP6 PUSH1 0x20 DUP7 ADD PUSH3 0x12B4 JUMP JUMPDEST PUSH3 0x1316 DUP2 PUSH3 0xF4F JUMP JUMPDEST DUP5 ADD SWAP2 POP POP SWAP3 SWAP2 POP POP JUMP JUMPDEST PUSH1 0x0 PUSH1 0x20 DUP3 ADD SWAP1 POP DUP2 DUP2 SUB PUSH1 0x0 DUP4 ADD MSTORE PUSH3 0x133D DUP2 DUP5 PUSH3 0x12E0 JUMP JUMPDEST SWAP1 POP SWAP3 SWAP2 POP POP JUMP JUMPDEST PUSH1 0x0 PUSH1 0x20 DUP3 DUP5 SUB SLT ISZERO PUSH3 0x135E JUMPI PUSH3 0x135D PUSH3 0xEDB JUMP JUMPDEST JUMPDEST PUSH1 0x0 PUSH3 0x136E DUP5 DUP3 DUP6 ADD PUSH3 0xF33 JUMP JUMPDEST SWAP2 POP POP SWAP3 SWAP2 POP POP JUMP JUMPDEST PUSH3 0x1382 DUP2 PUSH3 0x10EE JUMP JUMPDEST DUP3 MSTORE POP POP JUMP JUMPDEST PUSH1 0x0 PUSH1 0x20 DUP3 ADD SWAP1 POP PUSH3 0x139F PUSH1 0x0 DUP4 ADD DUP5 PUSH3 0x1377 JUMP JUMPDEST SWAP3 SWAP2 POP POP JUMP JUMPDEST PUSH1 0x0 DUP2 MLOAD SWAP1 POP SWAP2 SWAP1 POP JUMP JUMPDEST PUSH1 0x0 DUP3 DUP3 MSTORE PUSH1 0x20 DUP3 ADD SWAP1 POP SWAP3 SWAP2 POP POP JUMP JUMPDEST PUSH1 0x0 DUP2 SWAP1 POP PUSH1 0x20 DUP3 ADD SWAP1 POP SWAP2 SWAP1 POP JUMP JUMPDEST PUSH3 0x13DC DUP2 PUSH3 0xF05 JUMP JUMPDEST DUP3 MSTORE POP POP JUMP JUMPDEST PUSH1 0x0 PUSH3 0x13F0 DUP4 DUP4 PUSH3 0x13D1 JUMP JUMPDEST PUSH1 0x20 DUP4 ADD SWAP1 POP SWAP3 SWAP2 POP POP JUMP JUMPDEST PUSH1 0x0 PUSH1 0x20 DUP3 ADD SWAP1 POP SWAP2 SWAP1 POP JUMP JUMPDEST PUSH1 0x0 PUSH3 0x1416 DUP3 PUSH3 0x13A5 JUMP JUMPDEST PUSH3 0x1422 DUP2 DUP6 PUSH3 0x13B0 JUMP JUMPDEST SWAP4 POP PUSH3 0x142F DUP4 PUSH3 0x13C1 JUMP JUMPDEST DUP1 PUSH1 0x0 JUMPDEST DUP4 DUP2 LT ISZERO PUSH3 0x1466 JUMPI DUP2 MLOAD PUSH3 0x144A DUP9 DUP3 PUSH3 0x13E2 JUMP JUMPDEST SWAP8 POP PUSH3 0x1457 DUP4 PUSH3 0x13FC JUMP JUMPDEST SWAP3 POP POP PUSH1 0x1 DUP2 ADD SWAP1 POP PUSH3 0x1433 JUMP JUMPDEST POP DUP6 SWAP4 POP POP POP POP SWAP3 SWAP2 POP POP JUMP JUMPDEST PUSH1 0x0 PUSH1 0x20 DUP3 ADD SWAP1 POP DUP2 DUP2 SUB PUSH1 0x0 DUP4 ADD MSTORE PUSH3 0x148F DUP2 DUP5 PUSH3 0x1409 JUMP JUMPDEST SWAP1 POP SWAP3 SWAP2 POP POP JUMP JUMPDEST PUSH1 0x0 DUP1 REVERT JUMPDEST PUSH1 0x0 PUSH8 0xFFFFFFFFFFFFFFFF DUP3 GT ISZERO PUSH3 0x14BA JUMPI PUSH3 0x14B9 PUSH3 0xF60 JUMP JUMPDEST JUMPDEST PUSH3 0x14C5 DUP3 PUSH3 0xF4F JUMP JUMPDEST SWAP1 POP PUSH1 0x20 DUP2 ADD SWAP1 POP SWAP2 SWAP1 POP JUMP JUMPDEST DUP3 DUP2 DUP4 CALLDATACOPY PUSH1 0x0 DUP4 DUP4 ADD MSTORE POP POP POP JUMP JUMPDEST PUSH1 0x0 PUSH3 0x14F8 PUSH3 0x14F2 DUP5 PUSH3 0x149C JUMP JUMPDEST PUSH3 0xFC5 JUMP JUMPDEST SWAP1 POP DUP3 DUP2 MSTORE PUSH1 0x20 DUP2 ADD DUP5 DUP5 DUP5 ADD GT ISZERO PUSH3 0x1517 JUMPI PUSH3 0x1516 PUSH3 0x1497 JUMP JUMPDEST JUMPDEST PUSH3 0x1524 DUP5 DUP3 DUP6 PUSH3 0x14D2 JUMP JUMPDEST POP SWAP4 SWAP3 POP POP POP JUMP JUMPDEST PUSH1 0x0 DUP3 PUSH1 0x1F DUP4 ADD SLT PUSH3 0x1544 JUMPI PUSH3 0x1543 PUSH3 0xF4A JUMP JUMPDEST JUMPDEST DUP2 CALLDATALOAD PUSH3 0x1556 DUP5 DUP3 PUSH1 0x20 DUP7 ADD PUSH3 0x14E1 JUMP JUMPDEST SWAP2 POP POP SWAP3 SWAP2 POP POP JUMP JUMPDEST PUSH1 0x0 DUP1 PUSH1 0x40 DUP4 DUP6 SUB SLT ISZERO PUSH3 0x1579 JUMPI PUSH3 0x1578 PUSH3 0xEDB JUMP JUMPDEST JUMPDEST PUSH1 0x0 DUP4 ADD CALLDATALOAD PUSH8 0xFFFFFFFFFFFFFFFF DUP2 GT ISZERO PUSH3 0x159A JUMPI PUSH3 0x1599 PUSH3 0xEE0 JUMP JUMPDEST JUMPDEST PUSH3 0x15A8 DUP6 DUP3 DUP7 ADD PUSH3 0x152C JUMP JUMPDEST SWAP3 POP POP PUSH1 0x20 PUSH3 0x15BB DUP6 DUP3 DUP7 ADD PUSH3 0x1112 JUMP JUMPDEST SWAP2 POP POP SWAP3 POP SWAP3 SWAP1 POP JUMP JUMPDEST PUSH1 0x0 DUP1 PUSH1 0x40 DUP4 DUP6 SUB SLT ISZERO PUSH3 0x15DF JUMPI PUSH3 0x15DE PUSH3 0xEDB JUMP JUMPDEST JUMPDEST PUSH1 0x0 PUSH3 0x15EF DUP6 DUP3 DUP7 ADD PUSH3 0xF33 JUMP JUMPDEST SWAP3 POP POP PUSH1 0x20 PUSH3 0x1602 DUP6 DUP3 DUP7 ADD PUSH3 0x1112 JUMP JUMPDEST SWAP2 POP POP SWAP3 POP SWAP3 SWAP1 POP JUMP JUMPDEST PUSH1 0x0 DUP3 DUP3 MSTORE PUSH1 0x20 DUP3 ADD SWAP1 POP SWAP3 SWAP2 POP POP JUMP JUMPDEST PUSH32 0x546872757374706164546F6B656E466163746F72793A20496E76616C69642069 PUSH1 0x0 DUP3 ADD MSTORE PUSH32 0x6E70757400000000000000000000000000000000000000000000000000000000 PUSH1 0x20 DUP3 ADD MSTORE POP JUMP JUMPDEST PUSH1 0x0 PUSH3 0x167B PUSH1 0x24 DUP4 PUSH3 0x160C JUMP JUMPDEST SWAP2 POP PUSH3 0x1688 DUP3 PUSH3 0x161D JUMP JUMPDEST PUSH1 0x40 DUP3 ADD SWAP1 POP SWAP2 SWAP1 POP JUMP JUMPDEST PUSH1 0x0 PUSH1 0x20 DUP3 ADD SWAP1 POP DUP2 DUP2 SUB PUSH1 0x0 DUP4 ADD MSTORE PUSH3 0x16AE DUP2 PUSH3 0x166C JUMP JUMPDEST SWAP1 POP SWAP2 SWAP1 POP JUMP JUMPDEST PUSH32 0x546872757374706164546F6B656E466163746F72793A20546F6F206D616E7920 PUSH1 0x0 DUP3 ADD MSTORE PUSH32 0x7265636569766572732070657220636F6E747261637400000000000000000000 PUSH1 0x20 DUP3 ADD MSTORE POP JUMP JUMPDEST PUSH1 0x0 PUSH3 0x1713 PUSH1 0x36 DUP4 PUSH3 0x160C JUMP JUMPDEST SWAP2 POP PUSH3 0x1720 DUP3 PUSH3 0x16B5 JUMP JUMPDEST PUSH1 0x40 DUP3 ADD SWAP1 POP SWAP2 SWAP1 POP JUMP JUMPDEST PUSH1 0x0 PUSH1 0x20 DUP3 ADD SWAP1 POP DUP2 DUP2 SUB PUSH1 0x0 DUP4 ADD MSTORE PUSH3 0x1746 DUP2 PUSH3 0x1704 JUMP JUMPDEST SWAP1 POP SWAP2 SWAP1 POP JUMP JUMPDEST PUSH32 0x4E487B7100000000000000000000000000000000000000000000000000000000 PUSH1 0x0 MSTORE PUSH1 0x32 PUSH1 0x4 MSTORE PUSH1 0x24 PUSH1 0x0 REVERT JUMPDEST PUSH32 0x4E487B7100000000000000000000000000000000000000000000000000000000 PUSH1 0x0 MSTORE PUSH1 0x11 PUSH1 0x4 MSTORE PUSH1 0x24 PUSH1 0x0 REVERT JUMPDEST PUSH1 0x0 PUSH3 0x17B8 DUP3 PUSH3 0x10EE JUMP JUMPDEST SWAP2 POP PUSH3 0x17C5 DUP4 PUSH3 0x10EE JUMP JUMPDEST SWAP3 POP DUP3 DUP3 ADD SWAP1 POP DUP1 DUP3 GT ISZERO PUSH3 0x17E0 JUMPI PUSH3 0x17DF PUSH3 0x177C JUMP JUMPDEST JUMPDEST SWAP3 SWAP2 POP POP JUMP JUMPDEST PUSH32 0x546872757374706164546F6B656E466163746F72793A20496E73756666696369 PUSH1 0x0 DUP3 ADD MSTORE PUSH32 0x656E742076616C75653A20666565202B20746F74616C20616D6F756E74000000 PUSH1 0x20 DUP3 ADD MSTORE POP JUMP JUMPDEST PUSH1 0x0 PUSH3 0x1844 PUSH1 0x3D DUP4 PUSH3 0x160C JUMP JUMPDEST SWAP2 POP PUSH3 0x1851 DUP3 PUSH3 0x17E6 JUMP JUMPDEST PUSH1 0x40 DUP3 ADD SWAP1 POP SWAP2 SWAP1 POP JUMP JUMPDEST PUSH1 0x0 PUSH1 0x20 DUP3 ADD SWAP1 POP DUP2 DUP2 SUB PUSH1 0x0 DUP4 ADD MSTORE PUSH3 0x1877 DUP2 PUSH3 0x1835 JUMP JUMPDEST SWAP1 POP SWAP2 SWAP1 POP JUMP JUMPDEST PUSH1 0x0 PUSH1 0x40 DUP3 ADD SWAP1 POP PUSH3 0x1895 PUSH1 0x0 DUP4 ADD DUP6 PUSH3 0x126A JUMP JUMPDEST PUSH3 0x18A4 PUSH1 0x20 DUP4 ADD DUP5 PUSH3 0x126A JUMP JUMPDEST SWAP4 SWAP3 POP POP POP JUMP JUMPDEST PUSH1 0x0 DUP2 MLOAD SWAP1 POP PUSH3 0x18BC DUP2 PUSH3 0x10F8 JUMP JUMPDEST SWAP3 SWAP2 POP POP JUMP JUMPDEST PUSH1 0x0 PUSH1 0x20 DUP3 DUP5 SUB SLT ISZERO PUSH3 0x18DB JUMPI PUSH3 0x18DA PUSH3 0xEDB JUMP JUMPDEST JUMPDEST PUSH1 0x0 PUSH3 0x18EB DUP5 DUP3 DUP6 ADD PUSH3 0x18AB JUMP JUMPDEST SWAP2 POP POP SWAP3 SWAP2 POP POP JUMP JUMPDEST PUSH32 0x546872757374706164546F6B656E466163746F72793A20496E73756666696369 PUSH1 0x0 DUP3 ADD MSTORE PUSH32 0x656E7420616C6C6F77616E636500000000000000000000000000000000000000 PUSH1 0x20 DUP3 ADD MSTORE POP JUMP JUMPDEST PUSH1 0x0 PUSH3 0x1952 PUSH1 0x2D DUP4 PUSH3 0x160C JUMP JUMPDEST SWAP2 POP PUSH3 0x195F DUP3 PUSH3 0x18F4 JUMP JUMPDEST PUSH1 0x40 DUP3 ADD SWAP1 POP SWAP2 SWAP1 POP JUMP JUMPDEST PUSH1 0x0 PUSH1 0x20 DUP3 ADD SWAP1 POP DUP2 DUP2 SUB PUSH1 0x0 DUP4 ADD MSTORE PUSH3 0x1985 DUP2 PUSH3 0x1943 JUMP JUMPDEST SWAP1 POP SWAP2 SWAP1 POP JUMP JUMPDEST PUSH1 0x0 DUP2 MLOAD SWAP1 POP SWAP2 SWAP1 POP JUMP JUMPDEST PUSH1 0x0 DUP3 DUP3 MSTORE PUSH1 0x20 DUP3 ADD SWAP1 POP SWAP3 SWAP2 POP POP JUMP JUMPDEST PUSH1 0x0 DUP2 SWAP1 POP PUSH1 0x20 DUP3 ADD SWAP1 POP SWAP2 SWAP1 POP JUMP JUMPDEST PUSH3 0x19C3 DUP2 PUSH3 0x10EE JUMP JUMPDEST DUP3 MSTORE POP POP JUMP JUMPDEST PUSH1 0x0 PUSH3 0x19D7 DUP4 DUP4 PUSH3 0x19B8 JUMP JUMPDEST PUSH1 0x20 DUP4 ADD SWAP1 POP SWAP3 SWAP2 POP POP JUMP JUMPDEST PUSH1 0x0 PUSH1 0x20 DUP3 ADD SWAP1 POP SWAP2 SWAP1 POP JUMP JUMPDEST PUSH1 0x0 PUSH3 0x19FD DUP3 PUSH3 0x198C JUMP JUMPDEST PUSH3 0x1A09 DUP2 DUP6 PUSH3 0x1997 JUMP JUMPDEST SWAP4 POP PUSH3 0x1A16 DUP4 PUSH3 0x19A8 JUMP JUMPDEST DUP1 PUSH1 0x0 JUMPDEST DUP4 DUP2 LT ISZERO PUSH3 0x1A4D JUMPI DUP2 MLOAD PUSH3 0x1A31 DUP9 DUP3 PUSH3 0x19C9 JUMP JUMPDEST SWAP8 POP PUSH3 0x1A3E DUP4 PUSH3 0x19E3 JUMP JUMPDEST SWAP3 POP POP PUSH1 0x1 DUP2 ADD SWAP1 POP PUSH3 0x1A1A JUMP JUMPDEST POP DUP6 SWAP4 POP POP POP POP SWAP3 SWAP2 POP POP JUMP JUMPDEST PUSH1 0x0 PUSH1 0x60 DUP3 ADD SWAP1 POP PUSH3 0x1A71 PUSH1 0x0 DUP4 ADD DUP7 PUSH3 0x126A JUMP JUMPDEST DUP2 DUP2 SUB PUSH1 0x20 DUP4 ADD MSTORE PUSH3 0x1A85 DUP2 DUP6 PUSH3 0x1409 JUMP JUMPDEST SWAP1 POP DUP2 DUP2 SUB PUSH1 0x40 DUP4 ADD MSTORE PUSH3 0x1A9B DUP2 DUP5 PUSH3 0x19F0 JUMP JUMPDEST SWAP1 POP SWAP5 SWAP4 POP POP POP POP JUMP JUMPDEST PUSH1 0x0 PUSH1 0x60 DUP3 ADD SWAP1 POP PUSH3 0x1ABC PUSH1 0x0 DUP4 ADD DUP7 PUSH3 0x126A JUMP JUMPDEST PUSH3 0x1ACB PUSH1 0x20 DUP4 ADD DUP6 PUSH3 0x126A JUMP JUMPDEST PUSH3 0x1ADA PUSH1 0x40 DUP4 ADD DUP5 PUSH3 0x1377 JUMP JUMPDEST SWAP5 SWAP4 POP POP POP POP JUMP JUMPDEST PUSH1 0x0 DUP2 ISZERO ISZERO SWAP1 POP SWAP2 SWAP1 POP JUMP JUMPDEST PUSH3 0x1AF9 DUP2 PUSH3 0x1AE2 JUMP JUMPDEST DUP2 EQ PUSH3 0x1B05 JUMPI PUSH1 0x0 DUP1 REVERT JUMPDEST POP JUMP JUMPDEST PUSH1 0x0 DUP2 MLOAD SWAP1 POP PUSH3 0x1B19 DUP2 PUSH3 0x1AEE JUMP JUMPDEST SWAP3 SWAP2 POP POP JUMP JUMPDEST PUSH1 0x0 PUSH1 0x20 DUP3 DUP5 SUB SLT ISZERO PUSH3 0x1B38 JUMPI PUSH3 0x1B37 PUSH3 0xEDB JUMP JUMPDEST JUMPDEST PUSH1 0x0 PUSH3 0x1B48 DUP5 DUP3 DUP6 ADD PUSH3 0x1B08 JUMP JUMPDEST SWAP2 POP POP SWAP3 SWAP2 POP POP JUMP JUMPDEST PUSH1 0x0 DUP2 SWAP1 POP SWAP3 SWAP2 POP POP JUMP JUMPDEST PUSH1 0x0 PUSH3 0x1B69 DUP3 PUSH3 0x1298 JUMP JUMPDEST PUSH3 0x1B75 DUP2 DUP6 PUSH3 0x1B51 JUMP JUMPDEST SWAP4 POP PUSH3 0x1B87 DUP2 DUP6 PUSH1 0x20 DUP7 ADD PUSH3 0x12B4 JUMP JUMPDEST DUP1 DUP5 ADD SWAP2 POP POP SWAP3 SWAP2 POP POP JUMP JUMPDEST PUSH1 0x0 PUSH3 0x1BA1 DUP3 DUP6 PUSH3 0x1B5C JUMP JUMPDEST SWAP2 POP PUSH3 0x1BAF DUP3 DUP5 PUSH3 0x1B5C JUMP JUMPDEST SWAP2 POP DUP2 SWAP1 POP SWAP4 SWAP3 POP POP POP JUMP JUMPDEST PUSH1 0x0 PUSH1 0x40 DUP3 ADD SWAP1 POP PUSH3 0x1BD2 PUSH1 0x0 DUP4 ADD DUP6 PUSH3 0x126A JUMP JUMPDEST PUSH3 0x1BE1 PUSH1 0x20 DUP4 ADD DUP5 PUSH3 0x1377 JUMP JUMPDEST SWAP4 SWAP3 POP POP POP JUMP JUMPDEST PUSH1 0x0 PUSH32 0xFF00000000000000000000000000000000000000000000000000000000000000 DUP3 AND SWAP1 POP SWAP2 SWAP1 POP JUMP JUMPDEST PUSH1 0x0 DUP2 SWAP1 POP SWAP2 SWAP1 POP JUMP JUMPDEST PUSH3 0x1C33 PUSH3 0x1C2D DUP3 PUSH3 0x1BE8 JUMP JUMPDEST PUSH3 0x1C14 JUMP JUMPDEST DUP3 MSTORE POP POP JUMP JUMPDEST PUSH1 0x0 DUP2 PUSH1 0x60 SHL SWAP1 POP SWAP2 SWAP1 POP JUMP JUMPDEST PUSH1 0x0 PUSH3 0x1C53 DUP3 PUSH3 0x1C39 JUMP JUMPDEST SWAP1 POP SWAP2 SWAP1 POP JUMP JUMPDEST PUSH1 0x0 PUSH3 0x1C67 DUP3 PUSH3 0x1C46 JUMP JUMPDEST SWAP1 POP SWAP2 SWAP1 POP JUMP JUMPDEST PUSH3 0x1C83 PUSH3 0x1C7D DUP3 PUSH3 0xF05 JUMP JUMPDEST PUSH3 0x1C5A JUMP JUMPDEST DUP3 MSTORE POP POP JUMP JUMPDEST PUSH1 0x0 DUP2 SWAP1 POP SWAP2 SWAP1 POP JUMP JUMPDEST PUSH3 0x1CA8 PUSH3 0x1CA2 DUP3 PUSH3 0x10EE JUMP JUMPDEST PUSH3 0x1C89 JUMP JUMPDEST DUP3 MSTORE POP POP JUMP JUMPDEST PUSH1 0x0 DUP2 SWAP1 POP SWAP2 SWAP1 POP JUMP JUMPDEST PUSH1 0x0 DUP2 SWAP1 POP SWAP2 SWAP1 POP JUMP JUMPDEST PUSH3 0x1CD7 PUSH3 0x1CD1 DUP3 PUSH3 0x1CAE JUMP JUMPDEST PUSH3 0x1CB8 JUMP JUMPDEST DUP3 MSTORE POP POP JUMP JUMPDEST PUSH1 0x0 PUSH3 0x1CEB DUP3 DUP8 PUSH3 0x1C1E JUMP JUMPDEST PUSH1 0x1 DUP3 ADD SWAP2 POP PUSH3 0x1CFD DUP3 DUP7 PUSH3 0x1C6E JUMP JUMPDEST PUSH1 0x14 DUP3 ADD SWAP2 POP PUSH3 0x1D0F DUP3 DUP6 PUSH3 0x1C93 JUMP JUMPDEST PUSH1 0x20 DUP3 ADD SWAP2 POP PUSH3 0x1D21 DUP3 DUP5 PUSH3 0x1CC2 JUMP JUMPDEST PUSH1 0x20 DUP3 ADD SWAP2 POP DUP2 SWAP1 POP SWAP6 SWAP5 POP POP POP POP POP JUMP INVALID PUSH1 0x80 PUSH1 0x40 MSTORE PUSH1 0x40 MLOAD PUSH3 0x1072 CODESIZE SUB DUP1 PUSH3 0x1072 DUP4 CODECOPY DUP2 DUP2 ADD PUSH1 0x40 MSTORE DUP2 ADD SWAP1 PUSH3 0x29 SWAP2 SWAP1 PUSH3 0x5F0 JUMP JUMPDEST CALLER PUSH1 0x0 PUSH20 0xFFFFFFFFFFFFFFFFFFFFFFFFFFFFFFFFFFFFFFFF AND DUP2 PUSH20 0xFFFFFFFFFFFFFFFFFFFFFFFFFFFFFFFFFFFFFFFF AND SUB PUSH3 0x9F JUMPI PUSH1 0x0 PUSH1 0x40 MLOAD PUSH32 0x1E4FBDF700000000000000000000000000000000000000000000000000000000 DUP2 MSTORE PUSH1 0x4 ADD PUSH3 0x96 SWAP2 SWAP1 PUSH3 0x69B JUMP JUMPDEST PUSH1 0x40 MLOAD DUP1 SWAP2 SUB SWAP1 REVERT JUMPDEST PUSH3 0xB0 DUP2 PUSH3 0x12D PUSH1 0x20 SHL PUSH1 0x20 SHR JUMP JUMPDEST POP DUP3 PUSH1 0x1 PUSH1 0x0 PUSH2 0x100 EXP DUP2 SLOAD DUP2 PUSH20 0xFFFFFFFFFFFFFFFFFFFFFFFFFFFFFFFFFFFFFFFF MUL NOT AND SWAP1 DUP4 PUSH20 0xFFFFFFFFFFFFFFFFFFFFFFFFFFFFFFFFFFFFFFFF AND MUL OR SWAP1 SSTORE POP DUP2 PUSH1 0x2 SWAP1 DUP1 MLOAD SWAP1 PUSH1 0x20 ADD SWAP1 PUSH3 0x10A SWAP3 SWAP2 SWAP1 PUSH3 0x1F1 JUMP JUMPDEST POP DUP1 PUSH1 0x3 SWAP1 DUP1 MLOAD SWAP1 PUSH1 0x20 ADD SWAP1 PUSH3 0x123 SWAP3 SWAP2 SWAP1 PUSH3 0x280 JUMP JUMPDEST POP POP POP POP PUSH3 0x6B8 JUMP JUMPDEST PUSH1 0x0 DUP1 PUSH1 0x0 SWAP1 SLOAD SWAP1 PUSH2 0x100 EXP SWAP1 DIV PUSH20 0xFFFFFFFFFFFFFFFFFFFFFFFFFFFFFFFFFFFFFFFF AND SWAP1 POP DUP2 PUSH1 0x0 DUP1 PUSH2 0x100 EXP DUP2 SLOAD DUP2 PUSH20 0xFFFFFFFFFFFFFFFFFFFFFFFFFFFFFFFFFFFFFFFF MUL NOT AND SWAP1 DUP4 PUSH20 0xFFFFFFFFFFFFFFFFFFFFFFFFFFFFFFFFFFFFFFFF AND MUL OR SWAP1 SSTORE POP DUP2 PUSH20 0xFFFFFFFFFFFFFFFFFFFFFFFFFFFFFFFFFFFFFFFF AND DUP2 PUSH20 0xFFFFFFFFFFFFFFFFFFFFFFFFFFFFFFFFFFFFFFFF AND PUSH32 0x8BE0079C531659141344CD1FD0A4F28419497F9722A3DAAFE3B4186F6B6457E0 PUSH1 0x40 MLOAD PUSH1 0x40 MLOAD DUP1 SWAP2 SUB SWAP1 LOG3 POP POP JUMP JUMPDEST DUP3 DUP1 SLOAD DUP3 DUP3 SSTORE SWAP1 PUSH1 0x0 MSTORE PUSH1 0x20 PUSH1 0x0 KECCAK256 SWAP1 DUP2 ADD SWAP3 DUP3 ISZERO PUSH3 0x26D JUMPI SWAP2 PUSH1 0x20 MUL DUP3 ADD JUMPDEST DUP3 DUP2 GT ISZERO PUSH3 0x26C JUMPI DUP3 MLOAD DUP3 PUSH1 0x0 PUSH2 0x100 EXP DUP2 SLOAD DUP2 PUSH20 0xFFFFFFFFFFFFFFFFFFFFFFFFFFFFFFFFFFFFFFFF MUL NOT AND SWAP1 DUP4 PUSH20 0xFFFFFFFFFFFFFFFFFFFFFFFFFFFFFFFFFFFFFFFF AND MUL OR SWAP1 SSTORE POP SWAP2 PUSH1 0x20 ADD SWAP2 SWAP1 PUSH1 0x1 ADD SWAP1 PUSH3 0x212 JUMP JUMPDEST JUMPDEST POP SWAP1 POP PUSH3 0x27C SWAP2 SWAP1 PUSH3 0x2D2 JUMP JUMPDEST POP SWAP1 JUMP JUMPDEST DUP3 DUP1 SLOAD DUP3 DUP3 SSTORE SWAP1 PUSH1 0x0 MSTORE PUSH1 0x20 PUSH1 0x0 KECCAK256 SWAP1 DUP2 ADD SWAP3 DUP3 ISZERO PUSH3 0x2BF JUMPI SWAP2 PUSH1 0x20 MUL DUP3 ADD JUMPDEST DUP3 DUP2 GT ISZERO PUSH3 0x2BE JUMPI DUP3 MLOAD DUP3 SSTORE SWAP2 PUSH1 0x20 ADD SWAP2 SWAP1 PUSH1 0x1 ADD SWAP1 PUSH3 0x2A1 JUMP JUMPDEST JUMPDEST POP SWAP1 POP PUSH3 0x2CE SWAP2 SWAP1 PUSH3 0x2D2 JUMP JUMPDEST POP SWAP1 JUMP JUMPDEST JUMPDEST DUP1 DUP3 GT ISZERO PUSH3 0x2ED JUMPI PUSH1 0x0 DUP2 PUSH1 0x0 SWAP1 SSTORE POP PUSH1 0x1 ADD PUSH3 0x2D3 JUMP JUMPDEST POP SWAP1 JUMP JUMPDEST PUSH1 0x0 PUSH1 0x40 MLOAD SWAP1 POP SWAP1 JUMP JUMPDEST PUSH1 0x0 DUP1 REVERT JUMPDEST PUSH1 0x0 DUP1 REVERT JUMPDEST PUSH1 0x0 PUSH20 0xFFFFFFFFFFFFFFFFFFFFFFFFFFFFFFFFFFFFFFFF DUP3 AND SWAP1 POP SWAP2 SWAP1 POP JUMP JUMPDEST PUSH1 0x0 PUSH3 0x332 DUP3 PUSH3 0x305 JUMP JUMPDEST SWAP1 POP SWAP2 SWAP1 POP JUMP JUMPDEST PUSH3 0x344 DUP2 PUSH3 0x325 JUMP JUMPDEST DUP2 EQ PUSH3 0x350 JUMPI PUSH1 0x0 DUP1 REVERT JUMPDEST POP JUMP JUMPDEST PUSH1 0x0 DUP2 MLOAD SWAP1 POP PUSH3 0x364 DUP2 PUSH3 0x339 JUMP JUMPDEST SWAP3 SWAP2 POP POP JUMP JUMPDEST PUSH1 0x0 DUP1 REVERT JUMPDEST PUSH1 0x0 PUSH1 0x1F NOT PUSH1 0x1F DUP4 ADD AND SWAP1 POP SWAP2 SWAP1 POP JUMP JUMPDEST PUSH32 0x4E487B7100000000000000000000000000000000000000000000000000000000 PUSH1 0x0 MSTORE PUSH1 0x41 PUSH1 0x4 MSTORE PUSH1 0x24 PUSH1 0x0 REVERT JUMPDEST PUSH3 0x3BA DUP3 PUSH3 0x36F JUMP JUMPDEST DUP2 ADD DUP2 DUP2 LT PUSH8 0xFFFFFFFFFFFFFFFF DUP3 GT OR ISZERO PUSH3 0x3DC JUMPI PUSH3 0x3DB PUSH3 0x380 JUMP JUMPDEST JUMPDEST DUP1 PUSH1 0x40 MSTORE POP POP POP JUMP JUMPDEST PUSH1 0x0 PUSH3 0x3F1 PUSH3 0x2F1 JUMP JUMPDEST SWAP1 POP PUSH3 0x3FF DUP3 DUP3 PUSH3 0x3AF JUMP JUMPDEST SWAP2 SWAP1 POP JUMP JUMPDEST PUSH1 0x0 PUSH8 0xFFFFFFFFFFFFFFFF DUP3 GT ISZERO PUSH3 0x422 JUMPI PUSH3 0x421 PUSH3 0x380 JUMP JUMPDEST JUMPDEST PUSH1 0x20 DUP3 MUL SWAP1 POP PUSH1 0x20 DUP2 ADD SWAP1 POP SWAP2 SWAP1 POP JUMP JUMPDEST PUSH1 0x0 DUP1 REVERT JUMPDEST PUSH1 0x0 PUSH3 0x44F PUSH3 0x449 DUP5 PUSH3 0x404 JUMP JUMPDEST PUSH3 0x3E5 JUMP JUMPDEST SWAP1 POP DUP1 DUP4 DUP3 MSTORE PUSH1 0x20 DUP3 ADD SWAP1 POP PUSH1 0x20 DUP5 MUL DUP4 ADD DUP6 DUP2 GT ISZERO PUSH3 0x475 JUMPI PUSH3 0x474 PUSH3 0x433 JUMP JUMPDEST JUMPDEST DUP4 JUMPDEST DUP2 DUP2 LT ISZERO PUSH3 0x4A2 JUMPI DUP1 PUSH3 0x48D DUP9 DUP3 PUSH3 0x353 JUMP JUMPDEST DUP5 MSTORE PUSH1 0x20 DUP5 ADD SWAP4 POP POP PUSH1 0x20 DUP2 ADD SWAP1 POP PUSH3 0x477 JUMP JUMPDEST POP POP POP SWAP4 SWAP3 POP POP POP JUMP JUMPDEST PUSH1 0x0 DUP3 PUSH1 0x1F DUP4 ADD SLT PUSH3 0x4C4 JUMPI PUSH3 0x4C3 PUSH3 0x36A JUMP JUMPDEST JUMPDEST DUP2 MLOAD PUSH3 0x4D6 DUP5 DUP3 PUSH1 0x20 DUP7 ADD PUSH3 0x438 JUMP JUMPDEST SWAP2 POP POP SWAP3 SWAP2 POP POP JUMP JUMPDEST PUSH1 0x0 PUSH8 0xFFFFFFFFFFFFFFFF DUP3 GT ISZERO PUSH3 0x4FD JUMPI PUSH3 0x4FC PUSH3 0x380 JUMP JUMPDEST JUMPDEST PUSH1 0x20 DUP3 MUL SWAP1 POP PUSH1 0x20 DUP2 ADD SWAP1 POP SWAP2 SWAP1 POP JUMP JUMPDEST PUSH1 0x0 DUP2 SWAP1 POP SWAP2 SWAP1 POP JUMP JUMPDEST PUSH3 0x523 DUP2 PUSH3 0x50E JUMP JUMPDEST DUP2 EQ PUSH3 0x52F JUMPI PUSH1 0x0 DUP1 REVERT JUMPDEST POP JUMP JUMPDEST PUSH1 0x0 DUP2 MLOAD SWAP1 POP PUSH3 0x543 DUP2 PUSH3 0x518 JUMP JUMPDEST SWAP3 SWAP2 POP POP JUMP JUMPDEST PUSH1 0x0 PUSH3 0x560 PUSH3 0x55A DUP5 PUSH3 0x4DF JUMP JUMPDEST PUSH3 0x3E5 JUMP JUMPDEST SWAP1 POP DUP1 DUP4 DUP3 MSTORE PUSH1 0x20 DUP3 ADD SWAP1 POP PUSH1 0x20 DUP5 MUL DUP4 ADD DUP6 DUP2 GT ISZERO PUSH3 0x586 JUMPI PUSH3 0x585 PUSH3 0x433 JUMP JUMPDEST JUMPDEST DUP4 JUMPDEST DUP2 DUP2 LT ISZERO PUSH3 0x5B3 JUMPI DUP1 PUSH3 0x59E DUP9 DUP3 PUSH3 0x532 JUMP JUMPDEST DUP5 MSTORE PUSH1 0x20 DUP5 ADD SWAP4 POP POP PUSH1 0x20 DUP2 ADD SWAP1 POP PUSH3 0x588 JUMP JUMPDEST POP POP POP SWAP4 SWAP3 POP POP POP JUMP JUMPDEST PUSH1 0x0 DUP3 PUSH1 0x1F DUP4 ADD SLT PUSH3 0x5D5 JUMPI PUSH3 0x5D4 PUSH3 0x36A JUMP JUMPDEST JUMPDEST DUP2 MLOAD PUSH3 0x5E7 DUP5 DUP3 PUSH1 0x20 DUP7 ADD PUSH3 0x549 JUMP JUMPDEST SWAP2 POP POP SWAP3 SWAP2 POP POP JUMP JUMPDEST PUSH1 0x0 DUP1 PUSH1 0x0 PUSH1 0x60 DUP5 DUP7 SUB SLT ISZERO PUSH3 0x60C JUMPI PUSH3 0x60B PUSH3 0x2FB JUMP JUMPDEST JUMPDEST PUSH1 0x0 PUSH3 0x61C DUP7 DUP3 DUP8 ADD PUSH3 0x353 JUMP JUMPDEST SWAP4 POP POP PUSH1 0x20 DUP5 ADD MLOAD PUSH8 0xFFFFFFFFFFFFFFFF DUP2 GT ISZERO PUSH3 0x640 JUMPI PUSH3 0x63F PUSH3 0x300 JUMP JUMPDEST JUMPDEST PUSH3 0x64E DUP7 DUP3 DUP8 ADD PUSH3 0x4AC JUMP JUMPDEST SWAP3 POP POP PUSH1 0x40 DUP5 ADD MLOAD PUSH8 0xFFFFFFFFFFFFFFFF DUP2 GT ISZERO PUSH3 0x672 JUMPI PUSH3 0x671 PUSH3 0x300 JUMP JUMPDEST JUMPDEST PUSH3 0x680 DUP7 DUP3 DUP8 ADD PUSH3 0x5BD JUMP JUMPDEST SWAP2 POP POP SWAP3 POP SWAP3 POP SWAP3 JUMP JUMPDEST PUSH3 0x695 DUP2 PUSH3 0x325 JUMP JUMPDEST DUP3 MSTORE POP POP JUMP JUMPDEST PUSH1 0x0 PUSH1 0x20 DUP3 ADD SWAP1 POP PUSH3 0x6B2 PUSH1 0x0 DUP4 ADD DUP5 PUSH3 0x68A JUMP JUMPDEST SWAP3 SWAP2 POP POP JUMP JUMPDEST PUSH2 0x9AA DUP1 PUSH3 0x6C8 PUSH1 0x0 CODECOPY PUSH1 0x0 RETURN INVALID PUSH1 0x80 PUSH1 0x40 MSTORE PUSH1 0x4 CALLDATASIZE LT PUSH2 0x74 JUMPI PUSH1 0x0 CALLDATALOAD PUSH1 0xE0 SHR DUP1 PUSH4 0x8DA5CB5B GT PUSH2 0x4E JUMPI DUP1 PUSH4 0x8DA5CB5B EQ PUSH2 0xEB JUMPI DUP1 PUSH4 0xBFD772FC EQ PUSH2 0x116 JUMPI DUP1 PUSH4 0xF2FDE38B EQ PUSH2 0x153 JUMPI DUP1 PUSH4 0xFC0C546A EQ PUSH2 0x17C JUMPI PUSH2 0x7B JUMP JUMPDEST DUP1 PUSH4 0x294402CC EQ PUSH2 0x80 JUMPI DUP1 PUSH4 0x45F0A44F EQ PUSH2 0x97 JUMPI DUP1 PUSH4 0x715018A6 EQ PUSH2 0xD4 JUMPI PUSH2 0x7B JUMP JUMPDEST CALLDATASIZE PUSH2 0x7B JUMPI STOP JUMPDEST PUSH1 0x0 DUP1 REVERT JUMPDEST CALLVALUE DUP1 ISZERO PUSH2 0x8C JUMPI PUSH1 0x0 DUP1 REVERT JUMPDEST POP PUSH2 0x95 PUSH2 0x1A7 JUMP JUMPDEST STOP JUMPDEST CALLVALUE DUP1 ISZERO PUSH2 0xA3 JUMPI PUSH1 0x0 DUP1 REVERT JUMPDEST POP PUSH2 0xBE PUSH1 0x4 DUP1 CALLDATASIZE SUB DUP2 ADD SWAP1 PUSH2 0xB9 SWAP2 SWAP1 PUSH2 0x7AB JUMP JUMPDEST PUSH2 0x4D1 JUMP JUMPDEST PUSH1 0x40 MLOAD PUSH2 0xCB SWAP2 SWAP1 PUSH2 0x7E7 JUMP JUMPDEST PUSH1 0x40 MLOAD DUP1 SWAP2 SUB SWAP1 RETURN JUMPDEST CALLVALUE DUP1 ISZERO PUSH2 0xE0 JUMPI PUSH1 0x0 DUP1 REVERT JUMPDEST POP PUSH2 0xE9 PUSH2 0x4F5 JUMP JUMPDEST STOP JUMPDEST CALLVALUE DUP1 ISZERO PUSH2 0xF7 JUMPI PUSH1 0x0 DUP1 REVERT JUMPDEST POP PUSH2 0x100 PUSH2 0x509 JUMP JUMPDEST PUSH1 0x40 MLOAD PUSH2 0x10D SWAP2 SWAP1 PUSH2 0x843 JUMP JUMPDEST PUSH1 0x40 MLOAD DUP1 SWAP2 SUB SWAP1 RETURN JUMPDEST CALLVALUE DUP1 ISZERO PUSH2 0x122 JUMPI PUSH1 0x0 DUP1 REVERT JUMPDEST POP PUSH2 0x13D PUSH1 0x4 DUP1 CALLDATASIZE SUB DUP2 ADD SWAP1 PUSH2 0x138 SWAP2 SWAP1 PUSH2 0x7AB JUMP JUMPDEST PUSH2 0x532 JUMP JUMPDEST PUSH1 0x40 MLOAD PUSH2 0x14A SWAP2 SWAP1 PUSH2 0x843 JUMP JUMPDEST PUSH1 0x40 MLOAD DUP1 SWAP2 SUB SWAP1 RETURN JUMPDEST CALLVALUE DUP1 ISZERO PUSH2 0x15F JUMPI PUSH1 0x0 DUP1 REVERT JUMPDEST POP PUSH2 0x17A PUSH1 0x4 DUP1 CALLDATASIZE SUB DUP2 ADD SWAP1 PUSH2 0x175 SWAP2 SWAP1 PUSH2 0x88A JUMP JUMPDEST PUSH2 0x571 JUMP JUMPDEST STOP JUMPDEST CALLVALUE DUP1 ISZERO PUSH2 0x188 JUMPI PUSH1 0x0 DUP1 REVERT JUMPDEST POP PUSH2 0x191 PUSH2 0x5F7 JUMP JUMPDEST PUSH1 0x40 MLOAD PUSH2 0x19E SWAP2 SWAP1 PUSH2 0x843 JUMP JUMPDEST PUSH1 0x40 MLOAD DUP1 SWAP2 SUB SWAP1 RETURN JUMPDEST PUSH2 0x1AF PUSH2 0x61D JUMP JUMPDEST PUSH1 0x0 PUSH20 0xFFFFFFFFFFFFFFFFFFFFFFFFFFFFFFFFFFFFFFFF AND PUSH1 0x1 PUSH1 0x0 SWAP1 SLOAD SWAP1 PUSH2 0x100 EXP SWAP1 DIV PUSH20 0xFFFFFFFFFFFFFFFFFFFFFFFFFFFFFFFFFFFFFFFF AND PUSH20 0xFFFFFFFFFFFFFFFFFFFFFFFFFFFFFFFFFFFFFFFF AND SUB PUSH2 0x33F JUMPI PUSH1 0x0 JUMPDEST PUSH1 0x2 DUP1 SLOAD SWAP1 POP DUP2 LT ISZERO PUSH2 0x339 JUMPI PUSH1 0x0 PUSH20 0xFFFFFFFFFFFFFFFFFFFFFFFFFFFFFFFFFFFFFFFF AND PUSH1 0x2 DUP3 DUP2 SLOAD DUP2 LT PUSH2 0x241 JUMPI PUSH2 0x240 PUSH2 0x8B7 JUMP JUMPDEST JUMPDEST SWAP1 PUSH1 0x0 MSTORE PUSH1 0x20 PUSH1 0x0 KECCAK256 ADD PUSH1 0x0 SWAP1 SLOAD SWAP1 PUSH2 0x100 EXP SWAP1 DIV PUSH20 0xFFFFFFFFFFFFFFFFFFFFFFFFFFFFFFFFFFFFFFFF AND PUSH20 0xFFFFFFFFFFFFFFFFFFFFFFFFFFFFFFFFFFFFFFFF AND SUB ISZERO PUSH2 0x32C JUMPI PUSH1 0x2 DUP2 DUP2 SLOAD DUP2 LT PUSH2 0x29C JUMPI PUSH2 0x29B PUSH2 0x8B7 JUMP JUMPDEST JUMPDEST SWAP1 PUSH1 0x0 MSTORE PUSH1 0x20 PUSH1 0x0 KECCAK256 ADD PUSH1 0x0 SWAP1 SLOAD SWAP1 PUSH2 0x100 EXP SWAP1 DIV PUSH20 0xFFFFFFFFFFFFFFFFFFFFFFFFFFFFFFFFFFFFFFFF AND PUSH20 0xFFFFFFFFFFFFFFFFFFFFFFFFFFFFFFFFFFFFFFFF AND PUSH2 0x8FC PUSH1 0x3 DUP4 DUP2 SLOAD DUP2 LT PUSH2 0x2F4 JUMPI PUSH2 0x2F3 PUSH2 0x8B7 JUMP JUMPDEST JUMPDEST SWAP1 PUSH1 0x0 MSTORE PUSH1 0x20 PUSH1 0x0 KECCAK256 ADD SLOAD SWAP1 DUP2 ISZERO MUL SWAP1 PUSH1 0x40 MLOAD PUSH1 0x0 PUSH1 0x40 MLOAD DUP1 DUP4 SUB DUP2 DUP6 DUP9 DUP9 CALL SWAP4 POP POP POP POP ISZERO DUP1 ISZERO PUSH2 0x32A JUMPI RETURNDATASIZE PUSH1 0x0 DUP1 RETURNDATACOPY RETURNDATASIZE PUSH1 0x0 REVERT JUMPDEST POP JUMPDEST DUP1 DUP1 PUSH1 0x1 ADD SWAP2 POP POP PUSH2 0x208 JUMP JUMPDEST POP PUSH2 0x4CF JUMP JUMPDEST PUSH1 0x0 JUMPDEST PUSH1 0x2 DUP1 SLOAD SWAP1 POP DUP2 LT ISZERO PUSH2 0x4CD JUMPI PUSH1 0x0 PUSH20 0xFFFFFFFFFFFFFFFFFFFFFFFFFFFFFFFFFFFFFFFF AND PUSH1 0x2 DUP3 DUP2 SLOAD DUP2 LT PUSH2 0x37B JUMPI PUSH2 0x37A PUSH2 0x8B7 JUMP JUMPDEST JUMPDEST SWAP1 PUSH1 0x0 MSTORE PUSH1 0x20 PUSH1 0x0 KECCAK256 ADD PUSH1 0x0 SWAP1 SLOAD SWAP1 PUSH2 0x100 EXP SWAP1 DIV PUSH20 0xFFFFFFFFFFFFFFFFFFFFFFFFFFFFFFFFFFFFFFFF AND PUSH20 0xFFFFFFFFFFFFFFFFFFFFFFFFFFFFFFFFFFFFFFFF AND SUB ISZERO PUSH2 0x4C0 JUMPI PUSH1 0x1 PUSH1 0x0 SWAP1 SLOAD SWAP1 PUSH2 0x100 EXP SWAP1 DIV PUSH20 0xFFFFFFFFFFFFFFFFFFFFFFFFFFFFFFFFFFFFFFFF AND PUSH20 0xFFFFFFFFFFFFFFFFFFFFFFFFFFFFFFFFFFFFFFFF AND PUSH4 0xA9059CBB PUSH1 0x2 DUP4 DUP2 SLOAD DUP2 LT PUSH2 0x414 JUMPI PUSH2 0x413 PUSH2 0x8B7 JUMP JUMPDEST JUMPDEST SWAP1 PUSH1 0x0 MSTORE PUSH1 0x20 PUSH1 0x0 KECCAK256 ADD PUSH1 0x0 SWAP1 SLOAD SWAP1 PUSH2 0x100 EXP SWAP1 DIV PUSH20 0xFFFFFFFFFFFFFFFFFFFFFFFFFFFFFFFFFFFFFFFF AND PUSH1 0x3 DUP5 DUP2 SLOAD DUP2 LT PUSH2 0x453 JUMPI PUSH2 0x452 PUSH2 0x8B7 JUMP JUMPDEST JUMPDEST SWAP1 PUSH1 0x0 MSTORE PUSH1 0x20 PUSH1 0x0 KECCAK256 ADD SLOAD PUSH1 0x40 MLOAD DUP4 PUSH4 0xFFFFFFFF AND PUSH1 0xE0 SHL DUP2 MSTORE PUSH1 0x4 ADD PUSH2 0x47B SWAP3 SWAP2 SWAP1 PUSH2 0x8E6 JUMP JUMPDEST PUSH1 0x20 PUSH1 0x40 MLOAD DUP1 DUP4 SUB DUP2 PUSH1 0x0 DUP8 GAS CALL ISZERO DUP1 ISZERO PUSH2 0x49A JUMPI RETURNDATASIZE PUSH1 0x0 DUP1 RETURNDATACOPY RETURNDATASIZE PUSH1 0x0 REVERT JUMPDEST POP POP POP POP PUSH1 0x40 MLOAD RETURNDATASIZE PUSH1 0x1F NOT PUSH1 0x1F DUP3 ADD AND DUP3 ADD DUP1 PUSH1 0x40 MSTORE POP DUP2 ADD SWAP1 PUSH2 0x4BE SWAP2 SWAP1 PUSH2 0x947 JUMP JUMPDEST POP JUMPDEST DUP1 DUP1 PUSH1 0x1 ADD SWAP2 POP POP PUSH2 0x342 JUMP JUMPDEST POP JUMPDEST JUMP JUMPDEST PUSH1 0x3 DUP2 DUP2 SLOAD DUP2 LT PUSH2 0x4E1 JUMPI PUSH1 0x0 DUP1 REVERT JUMPDEST SWAP1 PUSH1 0x0 MSTORE PUSH1 0x20 PUSH1 0x0 KECCAK256 ADD PUSH1 0x0 SWAP2 POP SWAP1 POP SLOAD DUP2 JUMP JUMPDEST PUSH2 0x4FD PUSH2 0x61D JUMP JUMPDEST PUSH2 0x507 PUSH1 0x0 PUSH2 0x6A4 JUMP JUMPDEST JUMP JUMPDEST PUSH1 0x0 DUP1 PUSH1 0x0 SWAP1 SLOAD SWAP1 PUSH2 0x100 EXP SWAP1 DIV PUSH20 0xFFFFFFFFFFFFFFFFFFFFFFFFFFFFFFFFFFFFFFFF AND SWAP1 POP SWAP1 JUMP JUMPDEST PUSH1 0x2 DUP2 DUP2 SLOAD DUP2 LT PUSH2 0x542 JUMPI PUSH1 0x0 DUP1 REVERT JUMPDEST SWAP1 PUSH1 0x0 MSTORE PUSH1 0x20 PUSH1 0x0 KECCAK256 ADD PUSH1 0x0 SWAP2 POP SLOAD SWAP1 PUSH2 0x100 EXP SWAP1 DIV PUSH20 0xFFFFFFFFFFFFFFFFFFFFFFFFFFFFFFFFFFFFFFFF AND DUP2 JUMP JUMPDEST PUSH2 0x579 PUSH2 0x61D JUMP JUMPDEST PUSH1 0x0 PUSH20 0xFFFFFFFFFFFFFFFFFFFFFFFFFFFFFFFFFFFFFFFF AND DUP2 PUSH20 0xFFFFFFFFFFFFFFFFFFFFFFFFFFFFFFFFFFFFFFFF AND SUB PUSH2 0x5EB JUMPI PUSH1 0x0 PUSH1 0x40 MLOAD PUSH32 0x1E4FBDF700000000000000000000000000000000000000000000000000000000 DUP2 MSTORE PUSH1 0x4 ADD PUSH2 0x5E2 SWAP2 SWAP1 PUSH2 0x843 JUMP JUMPDEST PUSH1 0x40 MLOAD DUP1 SWAP2 SUB SWAP1 REVERT JUMPDEST PUSH2 0x5F4 DUP2 PUSH2 0x6A4 JUMP JUMPDEST POP JUMP JUMPDEST PUSH1 0x1 PUSH1 0x0 SWAP1 SLOAD SWAP1 PUSH2 0x100 EXP SWAP1 DIV PUSH20 0xFFFFFFFFFFFFFFFFFFFFFFFFFFFFFFFFFFFFFFFF AND DUP2 JUMP JUMPDEST PUSH2 0x625 PUSH2 0x768 JUMP JUMPDEST PUSH20 0xFFFFFFFFFFFFFFFFFFFFFFFFFFFFFFFFFFFFFFFF AND PUSH2 0x643 PUSH2 0x509 JUMP JUMPDEST PUSH20 0xFFFFFFFFFFFFFFFFFFFFFFFFFFFFFFFFFFFFFFFF AND EQ PUSH2 0x6A2 JUMPI PUSH2 0x666 PUSH2 0x768 JUMP JUMPDEST PUSH1 0x40 MLOAD PUSH32 0x118CDAA700000000000000000000000000000000000000000000000000000000 DUP2 MSTORE PUSH1 0x4 ADD PUSH2 0x699 SWAP2 SWAP1 PUSH2 0x843 JUMP JUMPDEST PUSH1 0x40 MLOAD DUP1 SWAP2 SUB SWAP1 REVERT JUMPDEST JUMP JUMPDEST PUSH1 0x0 DUP1 PUSH1 0x0 SWAP1 SLOAD SWAP1 PUSH2 0x100 EXP SWAP1 DIV PUSH20 0xFFFFFFFFFFFFFFFFFFFFFFFFFFFFFFFFFFFFFFFF AND SWAP1 POP DUP2 PUSH1 0x0 DUP1 PUSH2 0x100 EXP DUP2 SLOAD DUP2 PUSH20 0xFFFFFFFFFFFFFFFFFFFFFFFFFFFFFFFFFFFFFFFF MUL NOT AND SWAP1 DUP4 PUSH20 0xFFFFFFFFFFFFFFFFFFFFFFFFFFFFFFFFFFFFFFFF AND MUL OR SWAP1 SSTORE POP DUP2 PUSH20 0xFFFFFFFFFFFFFFFFFFFFFFFFFFFFFFFFFFFFFFFF AND DUP2 PUSH20 0xFFFFFFFFFFFFFFFFFFFFFFFFFFFFFFFFFFFFFFFF AND PUSH32 0x8BE0079C531659141344CD1FD0A4F28419497F9722A3DAAFE3B4186F6B6457E0 PUSH1 0x40 MLOAD PUSH1 0x40 MLOAD DUP1 SWAP2 SUB SWAP1 LOG3 POP POP JUMP JUMPDEST PUSH1 0x0 CALLER SWAP1 POP SWAP1 JUMP JUMPDEST PUSH1 0x0 DUP1 REVERT JUMPDEST PUSH1 0x0 DUP2 SWAP1 POP SWAP2 SWAP1 POP JUMP JUMPDEST PUSH2 0x788 DUP2 PUSH2 0x775 JUMP JUMPDEST DUP2 EQ PUSH2 0x793 JUMPI PUSH1 0x0 DUP1 REVERT JUMPDEST POP JUMP JUMPDEST PUSH1 0x0 DUP2 CALLDATALOAD SWAP1 POP PUSH2 0x7A5 DUP2 PUSH2 0x77F JUMP JUMPDEST SWAP3 SWAP2 POP POP JUMP JUMPDEST PUSH1 0x0 PUSH1 0x20 DUP3 DUP5 SUB SLT ISZERO PUSH2 0x7C1 JUMPI PUSH2 0x7C0 PUSH2 0x770 JUMP JUMPDEST JUMPDEST PUSH1 0x0 PUSH2 0x7CF DUP5 DUP3 DUP6 ADD PUSH2 0x796 JUMP JUMPDEST SWAP2 POP POP SWAP3 SWAP2 POP POP JUMP JUMPDEST PUSH2 0x7E1 DUP2 PUSH2 0x775 JUMP JUMPDEST DUP3 MSTORE POP POP JUMP JUMPDEST PUSH1 0x0 PUSH1 0x20 DUP3 ADD SWAP1 POP PUSH2 0x7FC PUSH1 0x0 DUP4 ADD DUP5 PUSH2 0x7D8 JUMP JUMPDEST SWAP3 SWAP2 POP POP JUMP JUMPDEST PUSH1 0x0 PUSH20 0xFFFFFFFFFFFFFFFFFFFFFFFFFFFFFFFFFFFFFFFF DUP3 AND SWAP1 POP SWAP2 SWAP1 POP JUMP JUMPDEST PUSH1 0x0 PUSH2 0x82D DUP3 PUSH2 0x802 JUMP JUMPDEST SWAP1 POP SWAP2 SWAP1 POP JUMP JUMPDEST PUSH2 0x83D DUP2 PUSH2 0x822 JUMP JUMPDEST DUP3 MSTORE POP POP JUMP JUMPDEST PUSH1 0x0 PUSH1 0x20 DUP3 ADD SWAP1 POP PUSH2 0x858 PUSH1 0x0 DUP4 ADD DUP5 PUSH2 0x834 JUMP JUMPDEST SWAP3 SWAP2 POP POP JUMP JUMPDEST PUSH2 0x867 DUP2 PUSH2 0x822 JUMP JUMPDEST DUP2 EQ PUSH2 0x872 JUMPI PUSH1 0x0 DUP1 REVERT JUMPDEST POP JUMP JUMPDEST PUSH1 0x0 DUP2 CALLDATALOAD SWAP1 POP PUSH2 0x884 DUP2 PUSH2 0x85E JUMP JUMPDEST SWAP3 SWAP2 POP POP JUMP JUMPDEST PUSH1 0x0 PUSH1 0x20 DUP3 DUP5 SUB SLT ISZERO PUSH2 0x8A0 JUMPI PUSH2 0x89F PUSH2 0x770 JUMP JUMPDEST JUMPDEST PUSH1 0x0 PUSH2 0x8AE DUP5 DUP3 DUP6 ADD PUSH2 0x875 JUMP JUMPDEST SWAP2 POP POP SWAP3 SWAP2 POP POP JUMP JUMPDEST PUSH32 0x4E487B7100000000000000000000000000000000000000000000000000000000 PUSH1 0x0 MSTORE PUSH1 0x32 PUSH1 0x4 MSTORE PUSH1 0x24 PUSH1 0x0 REVERT JUMPDEST PUSH1 0x0 PUSH1 0x40 DUP3 ADD SWAP1 POP PUSH2 0x8FB PUSH1 0x0 DUP4 ADD DUP6 PUSH2 0x834 JUMP JUMPDEST PUSH2 0x908 PUSH1 0x20 DUP4 ADD DUP5 PUSH2 0x7D8 JUMP JUMPDEST SWAP4 SWAP3 POP POP POP JUMP JUMPDEST PUSH1 0x0 DUP2 ISZERO ISZERO SWAP1 POP SWAP2 SWAP1 POP JUMP JUMPDEST PUSH2 0x924 DUP2 PUSH2 0x90F JUMP JUMPDEST DUP2 EQ PUSH2 0x92F JUMPI PUSH1 0x0 DUP1 REVERT JUMPDEST POP JUMP JUMPDEST PUSH1 0x0 DUP2 MLOAD SWAP1 POP PUSH2 0x941 DUP2 PUSH2 0x91B JUMP JUMPDEST SWAP3 SWAP2 POP POP JUMP JUMPDEST PUSH1 0x0 PUSH1 0x20 DUP3 DUP5 SUB SLT ISZERO PUSH2 0x95D JUMPI PUSH2 0x95C PUSH2 0x770 JUMP JUMPDEST JUMPDEST PUSH1 0x0 PUSH2 0x96B DUP5 DUP3 DUP6 ADD PUSH2 0x932 JUMP JUMPDEST SWAP2 POP POP SWAP3 SWAP2 POP POP JUMP INVALID LOG2 PUSH5 0x6970667358 0x22 SLT KECCAK256 CALLDATASIZE DUP1 DUP10 CALLDATASIZE CHAINID 0xFB 0xB6 0xB8 0xAA EXTCODECOPY LOG3 0xC7 PUSH26 0xDB18E0352CAB4F5C3E2590CE3AE011B9F1D1B764736F6C634300 ADDMOD XOR STOP CALLER LOG2 PUSH5 0x6970667358 0x22 SLT KECCAK256 SWAP16 SMOD PUSH27 0x45C9AD8277DA5EA006E57D3475714EC4964E2D6C98CED56577E358 0x2D 0xCE PUSH5 0x736F6C6343 STOP ADDMOD XOR STOP CALLER "},"methodIdentifiers":{"creationFee()":"dce0b4e4","deployedMultisenders(address,uint256)":"fcc31af0","feeEarned()":"d5f63a06","getAddressCreate2(bytes,uint256)":"9f886f26","getBytecode(address,address[],uint256[])":"7f7825c5","getdeployedMultisenders(address)":"949938e9","getdeployedMultisendersLen(address)":"877a4039","newMultisender(address,address[],uint256[])":"53fa27a3","owner()":"8da5cb5b","renounceOwnership()":"715018a6","transferOwnership(address)":"f2fde38b","withdraw()":"3ccfd60b","withdrawToken(address)":"89476069"}}}}}