{"contracts/locker/ThrustpadLockerFactory.sol":{"ThrustpadLockerFactory":{"abi":[{"anonymous":false,"inputs":[{"indexed":true,"internalType":"address","name":"creator","type":"address"},{"indexed":true,"internalType":"address","name":"token","type":"address"},{"indexed":false,"internalType":"uint256","name":"amount","type":"uint256"}],"name":"NewLock","type":"event"},{"inputs":[{"internalType":"address","name":"","type":"address"},{"internalType":"uint256","name":"","type":"uint256"}],"name":"deployedLocks","outputs":[{"internalType":"address","name":"","type":"address"}],"stateMutability":"view","type":"function"},{"inputs":[{"internalType":"bytes","name":"bytecode","type":"bytes"},{"internalType":"uint256","name":"salt","type":"uint256"}],"name":"getAddressCreate2","outputs":[{"internalType":"address","name":"","type":"address"}],"stateMutability":"view","type":"function"},{"inputs":[{"internalType":"address","name":"token","type":"address"},{"internalType":"uint256","name":"lockTime","type":"uint256"},{"internalType":"uint256","name":"amount","type":"uint256"}],"name":"getBytecode","outputs":[{"internalType":"bytes","name":"","type":"bytes"}],"stateMutability":"pure","type":"function"},{"inputs":[{"internalType":"address","name":"creator","type":"address"}],"name":"getdeployedLocks","outputs":[{"internalType":"address[]","name":"","type":"address[]"}],"stateMutability":"view","type":"function"},{"inputs":[{"internalType":"address","name":"creator","type":"address"}],"name":"getdeployedLocksLen","outputs":[{"internalType":"uint256","name":"","type":"uint256"}],"stateMutability":"view","type":"function"},{"inputs":[{"internalType":"contract IERC20","name":"token","type":"address"},{"internalType":"uint256","name":"lockTime","type":"uint256"},{"internalType":"uint256","name":"amount","type":"uint256"}],"name":"newLock","outputs":[{"internalType":"address","name":"","type":"address"}],"stateMutability":"nonpayable","type":"function"}],"evm":{"bytecode":{"linkReferences":{},"object":"608060405234801561001057600080fd5b50611f74806100206000396000f3fe60806040523480156200001157600080fd5b50600436106200006a5760003560e01c80630534f358146200006f57806317244e4c14620000a557806325c77b7b14620000db5780639f886f261462000111578063b90060d41462000147578063c9a151a1146200017d575b600080fd5b6200008d6004803603810190620000879190620006ca565b620001b3565b6040516200009c919062000722565b60405180910390f35b620000c36004803603810190620000bd91906200073f565b62000202565b604051620000d2919062000835565b60405180910390f35b620000f96004803603810190620000f3919062000859565b62000281565b60405162000108919062000959565b60405180910390f35b6200012f600480360381019062000129919062000ace565b6200034f565b6040516200013e919062000722565b60405180910390f35b6200016560048036038101906200015f919062000859565b6200039b565b60405162000174919062000b45565b60405180910390f35b6200019b600480360381019062000195919062000ba7565b620003e6565b604051620001aa919062000722565b60405180910390f35b60006020528160005260406000208181548110620001d057600080fd5b906000526020600020016000915091509054906101000a900473ffffffffffffffffffffffffffffffffffffffff1681565b6060600060405180602001620002189062000608565b6020820181038252601f19601f82011660405250905080858585604051602001620002469392919062000c03565b6040516020818303038152906040526040516020016200026892919062000c82565b6040516020818303038152906040529150509392505050565b60606000808373ffffffffffffffffffffffffffffffffffffffff1673ffffffffffffffffffffffffffffffffffffffff1681526020019081526020016000208054806020026020016040519081016040528092919081815260200182805480156200034357602002820191906000526020600020905b8160009054906101000a900473ffffffffffffffffffffffffffffffffffffffff1673ffffffffffffffffffffffffffffffffffffffff1681526020019060010190808311620002f8575b50505050509050919050565b60008060ff60f81b3084868051906020012060405160200162000376949392919062000d9f565b6040516020818303038152906040528051906020012090508060001c91505092915050565b60008060008373ffffffffffffffffffffffffffffffffffffffff1673ffffffffffffffffffffffffffffffffffffffff168152602001908152602001600020805490509050919050565b6000806000803373ffffffffffffffffffffffffffffffffffffffff1673ffffffffffffffffffffffffffffffffffffffff1681526020019081526020016000208054905060001b8585856040516200043f9062000608565b6200044d9392919062000e60565b8190604051809103906000f59050801580156200046e573d6000803e3d6000fd5b5090506000803373ffffffffffffffffffffffffffffffffffffffff1673ffffffffffffffffffffffffffffffffffffffff168152602001908152602001600020819080600181540180825580915050600190039060005260206000200160009091909190916101000a81548173ffffffffffffffffffffffffffffffffffffffff021916908373ffffffffffffffffffffffffffffffffffffffff1602179055508473ffffffffffffffffffffffffffffffffffffffff166323b872dd3383866040518463ffffffff1660e01b81526004016200054f9392919062000e9d565b6020604051808303816000875af11580156200056f573d6000803e3d6000fd5b505050506040513d601f19601f8201168201806040525081019062000595919062000f17565b508073ffffffffffffffffffffffffffffffffffffffff163373ffffffffffffffffffffffffffffffffffffffff167f71f1aa61f9afdaeebcbc2d8139ef2c56dfeadd5bfdfacb004f9a5bb162c3e2b085604051620005f5919062000b45565b60405180910390a3809150509392505050565b610ff58062000f4a83390190565b6000604051905090565b600080fd5b600080fd5b600073ffffffffffffffffffffffffffffffffffffffff82169050919050565b600062000657826200062a565b9050919050565b62000669816200064a565b81146200067557600080fd5b50565b60008135905062000689816200065e565b92915050565b6000819050919050565b620006a4816200068f565b8114620006b057600080fd5b50565b600081359050620006c48162000699565b92915050565b60008060408385031215620006e457620006e362000620565b5b6000620006f48582860162000678565b92505060206200070785828601620006b3565b9150509250929050565b6200071c816200064a565b82525050565b600060208201905062000739600083018462000711565b92915050565b6000806000606084860312156200075b576200075a62000620565b5b60006200076b8682870162000678565b93505060206200077e86828701620006b3565b92505060406200079186828701620006b3565b9150509250925092565b600081519050919050565b600082825260208201905092915050565b60005b83811015620007d7578082015181840152602081019050620007ba565b60008484015250505050565b6000601f19601f8301169050919050565b600062000801826200079b565b6200080d8185620007a6565b93506200081f818560208601620007b7565b6200082a81620007e3565b840191505092915050565b60006020820190508181036000830152620008518184620007f4565b905092915050565b60006020828403121562000872576200087162000620565b5b6000620008828482850162000678565b91505092915050565b600081519050919050565b600082825260208201905092915050565b6000819050602082019050919050565b620008c2816200064a565b82525050565b6000620008d68383620008b7565b60208301905092915050565b6000602082019050919050565b6000620008fc826200088b565b62000908818562000896565b93506200091583620008a7565b8060005b838110156200094c578151620009308882620008c8565b97506200093d83620008e2565b92505060018101905062000919565b5085935050505092915050565b60006020820190508181036000830152620009758184620008ef565b905092915050565b600080fd5b600080fd5b7f4e487b7100000000000000000000000000000000000000000000000000000000600052604160045260246000fd5b620009c182620007e3565b810181811067ffffffffffffffff82111715620009e357620009e262000987565b5b80604052505050565b6000620009f862000616565b905062000a068282620009b6565b919050565b600067ffffffffffffffff82111562000a295762000a2862000987565b5b62000a3482620007e3565b9050602081019050919050565b82818337600083830152505050565b600062000a6762000a618462000a0b565b620009ec565b90508281526020810184848401111562000a865762000a8562000982565b5b62000a9384828562000a41565b509392505050565b600082601f83011262000ab35762000ab26200097d565b5b813562000ac584826020860162000a50565b91505092915050565b6000806040838503121562000ae85762000ae762000620565b5b600083013567ffffffffffffffff81111562000b095762000b0862000625565b5b62000b178582860162000a9b565b925050602062000b2a85828601620006b3565b9150509250929050565b62000b3f816200068f565b82525050565b600060208201905062000b5c600083018462000b34565b92915050565b600062000b6f826200064a565b9050919050565b62000b818162000b62565b811462000b8d57600080fd5b50565b60008135905062000ba18162000b76565b92915050565b60008060006060848603121562000bc35762000bc262000620565b5b600062000bd38682870162000b90565b935050602062000be686828701620006b3565b925050604062000bf986828701620006b3565b9150509250925092565b600060608201905062000c1a600083018662000711565b62000c29602083018562000b34565b62000c38604083018462000b34565b949350505050565b600081905092915050565b600062000c58826200079b565b62000c64818562000c40565b935062000c76818560208601620007b7565b80840191505092915050565b600062000c90828562000c4b565b915062000c9e828462000c4b565b91508190509392505050565b60007fff0000000000000000000000000000000000000000000000000000000000000082169050919050565b6000819050919050565b62000cf562000cef8262000caa565b62000cd6565b82525050565b60008160601b9050919050565b600062000d158262000cfb565b9050919050565b600062000d298262000d08565b9050919050565b62000d4562000d3f826200064a565b62000d1c565b82525050565b6000819050919050565b62000d6a62000d64826200068f565b62000d4b565b82525050565b6000819050919050565b6000819050919050565b62000d9962000d938262000d70565b62000d7a565b82525050565b600062000dad828762000ce0565b60018201915062000dbf828662000d30565b60148201915062000dd1828562000d55565b60208201915062000de3828462000d84565b60208201915081905095945050505050565b6000819050919050565b600062000e2062000e1a62000e14846200062a565b62000df5565b6200062a565b9050919050565b600062000e348262000dff565b9050919050565b600062000e488262000e27565b9050919050565b62000e5a8162000e3b565b82525050565b600060608201905062000e77600083018662000e4f565b62000e86602083018562000b34565b62000e95604083018462000b34565b949350505050565b600060608201905062000eb4600083018662000711565b62000ec3602083018562000711565b62000ed2604083018462000b34565b949350505050565b60008115159050919050565b62000ef18162000eda565b811462000efd57600080fd5b50565b60008151905062000f118162000ee6565b92915050565b60006020828403121562000f305762000f2f62000620565b5b600062000f408482850162000f00565b9150509291505056fe6101006040523480156200001257600080fd5b5060405162000ff538038062000ff583398181016040528101906200003891906200036d565b32600073ffffffffffffffffffffffffffffffffffffffff168173ffffffffffffffffffffffffffffffffffffffff1603620000ae5760006040517f1e4fbdf7000000000000000000000000000000000000000000000000000000008152600401620000a59190620003da565b60405180910390fd5b620000bf81620001f060201b60201c565b506000821162000106576040517f08c379a0000000000000000000000000000000000000000000000000000000008152600401620000fd906200047e565b60405180910390fd5b8273ffffffffffffffffffffffffffffffffffffffff1660808173ffffffffffffffffffffffffffffffffffffffff16815250503273ffffffffffffffffffffffffffffffffffffffff1660a08173ffffffffffffffffffffffffffffffffffffffff16815250508160c081815250504260e081815250508273ffffffffffffffffffffffffffffffffffffffff163273ffffffffffffffffffffffffffffffffffffffff167fe5d7d4b5cb0219916a8be73968f7baf3c806fd018b0cc5598f5129436cf5c3164285604051620001df929190620004b1565b60405180910390a3505050620004de565b60008060009054906101000a900473ffffffffffffffffffffffffffffffffffffffff169050816000806101000a81548173ffffffffffffffffffffffffffffffffffffffff021916908373ffffffffffffffffffffffffffffffffffffffff1602179055508173ffffffffffffffffffffffffffffffffffffffff168173ffffffffffffffffffffffffffffffffffffffff167f8be0079c531659141344cd1fd0a4f28419497f9722a3daafe3b4186f6b6457e060405160405180910390a35050565b600080fd5b600073ffffffffffffffffffffffffffffffffffffffff82169050919050565b6000620002e682620002b9565b9050919050565b6000620002fa82620002d9565b9050919050565b6200030c81620002ed565b81146200031857600080fd5b50565b6000815190506200032c8162000301565b92915050565b6000819050919050565b620003478162000332565b81146200035357600080fd5b50565b60008151905062000367816200033c565b92915050565b600080600060608486031215620003895762000388620002b4565b5b600062000399868287016200031b565b9350506020620003ac8682870162000356565b9250506040620003bf8682870162000356565b9150509250925092565b620003d481620002d9565b82525050565b6000602082019050620003f16000830184620003c9565b92915050565b600082825260208201905092915050565b7f546f6b656e4c6f636b3a206c6f636b2074696d652073686f756c64206772656160008201527f746572207468616e203000000000000000000000000000000000000000000000602082015250565b600062000466602a83620003f7565b9150620004738262000408565b604082019050919050565b60006020820190508181036000830152620004998162000457565b9050919050565b620004ab8162000332565b82525050565b6000604082019050620004c86000830185620004a0565b620004d76020830184620004a0565b9392505050565b60805160a05160c05160e051610ab362000542600039600081816101b101526101fe01526000818161015501526101dd015260008181610179015261038801526000818161026d0152818161034c0152818161040b01526105440152610ab36000f3fe608060405234801561001057600080fd5b50600436106100885760003560e01c806386d1a69f1161005b57806386d1a69f146100f15780638da5cb5b146100fb578063f2fde38b14610119578063fc0c546a1461013557610088565b80630d6680871461008d57806338af3eed146100ab578063715018a6146100c957806378e97925146100d3575b600080fd5b610095610153565b6040516100a291906106d2565b60405180910390f35b6100b3610177565b6040516100c0919061072e565b60405180910390f35b6100d161019b565b005b6100db6101af565b6040516100e891906106d2565b60405180910390f35b6100f96101d3565b005b610103610493565b604051610110919061072e565b60405180910390f35b610133600480360381019061012e919061077a565b6104bc565b005b61013d610542565b60405161014a9190610806565b60405180910390f35b7f000000000000000000000000000000000000000000000000000000000000000081565b7f000000000000000000000000000000000000000000000000000000000000000081565b6101a3610566565b6101ad60006105ed565b565b7f000000000000000000000000000000000000000000000000000000000000000081565b6101db610566565b7f00000000000000000000000000000000000000000000000000000000000000007f00000000000000000000000000000000000000000000000000000000000000006102279190610850565b421015610269576040517f08c379a0000000000000000000000000000000000000000000000000000000008152600401610260906108e1565b60405180910390fd5b60007f000000000000000000000000000000000000000000000000000000000000000073ffffffffffffffffffffffffffffffffffffffff166370a08231306040518263ffffffff1660e01b81526004016102c4919061072e565b602060405180830381865afa1580156102e1573d6000803e3d6000fd5b505050506040513d601f19601f82011682018060405250810190610305919061092d565b90506000811161034a576040517f08c379a0000000000000000000000000000000000000000000000000000000008152600401610341906109a6565b60405180910390fd5b7f000000000000000000000000000000000000000000000000000000000000000073ffffffffffffffffffffffffffffffffffffffff1663a9059cbb7f0000000000000000000000000000000000000000000000000000000000000000836040518363ffffffff1660e01b81526004016103c59291906109c6565b6020604051808303816000875af11580156103e4573d6000803e3d6000fd5b505050506040513d601f19601f820116820180604052508101906104089190610a27565b507f000000000000000000000000000000000000000000000000000000000000000073ffffffffffffffffffffffffffffffffffffffff163373ffffffffffffffffffffffffffffffffffffffff167f10b55f01b1cfe0feeb7d144f66162661602d8e73256499b6d8342aac37ff06794284604051610488929190610a54565b60405180910390a350565b60008060009054906101000a900473ffffffffffffffffffffffffffffffffffffffff16905090565b6104c4610566565b600073ffffffffffffffffffffffffffffffffffffffff168173ffffffffffffffffffffffffffffffffffffffff16036105365760006040517f1e4fbdf700000000000000000000000000000000000000000000000000000000815260040161052d919061072e565b60405180910390fd5b61053f816105ed565b50565b7f000000000000000000000000000000000000000000000000000000000000000081565b61056e6106b1565b73ffffffffffffffffffffffffffffffffffffffff1661058c610493565b73ffffffffffffffffffffffffffffffffffffffff16146105eb576105af6106b1565b6040517f118cdaa70000000000000000000000000000000000000000000000000000000081526004016105e2919061072e565b60405180910390fd5b565b60008060009054906101000a900473ffffffffffffffffffffffffffffffffffffffff169050816000806101000a81548173ffffffffffffffffffffffffffffffffffffffff021916908373ffffffffffffffffffffffffffffffffffffffff1602179055508173ffffffffffffffffffffffffffffffffffffffff168173ffffffffffffffffffffffffffffffffffffffff167f8be0079c531659141344cd1fd0a4f28419497f9722a3daafe3b4186f6b6457e060405160405180910390a35050565b600033905090565b6000819050919050565b6106cc816106b9565b82525050565b60006020820190506106e760008301846106c3565b92915050565b600073ffffffffffffffffffffffffffffffffffffffff82169050919050565b6000610718826106ed565b9050919050565b6107288161070d565b82525050565b6000602082019050610743600083018461071f565b92915050565b600080fd5b6107578161070d565b811461076257600080fd5b50565b6000813590506107748161074e565b92915050565b6000602082840312156107905761078f610749565b5b600061079e84828501610765565b91505092915050565b6000819050919050565b60006107cc6107c76107c2846106ed565b6107a7565b6106ed565b9050919050565b60006107de826107b1565b9050919050565b60006107f0826107d3565b9050919050565b610800816107e5565b82525050565b600060208201905061081b60008301846107f7565b92915050565b7f4e487b7100000000000000000000000000000000000000000000000000000000600052601160045260246000fd5b600061085b826106b9565b9150610866836106b9565b925082820190508082111561087e5761087d610821565b5b92915050565b600082825260208201905092915050565b7f546f6b656e4c6f636b3a206c6f636b2074696d65206e6f742065787069726564600082015250565b60006108cb602083610884565b91506108d682610895565b602082019050919050565b600060208201905081810360008301526108fa816108be565b9050919050565b61090a816106b9565b811461091557600080fd5b50565b60008151905061092781610901565b92915050565b60006020828403121561094357610942610749565b5b600061095184828501610918565b91505092915050565b7f546f6b656e4c6f636b3a206e6f20746f6b656e7320746f2072656c6561736500600082015250565b6000610990601f83610884565b915061099b8261095a565b602082019050919050565b600060208201905081810360008301526109bf81610983565b9050919050565b60006040820190506109db600083018561071f565b6109e860208301846106c3565b9392505050565b60008115159050919050565b610a04816109ef565b8114610a0f57600080fd5b50565b600081519050610a21816109fb565b92915050565b600060208284031215610a3d57610a3c610749565b5b6000610a4b84828501610a12565b91505092915050565b6000604082019050610a6960008301856106c3565b610a7660208301846106c3565b939250505056fea2646970667358221220c8e15c108e37bd5ebb7b9c40b8c1b535264a4fd5dc7bfabcccdc5c3ce201aa8664736f6c63430008180033a2646970667358221220d908c82129a5ff8a1c2b40a693e908b9afcf33eb94d3f7a2b297b484eb11e7ce64736f6c63430008180033","opcodes":"PUSH1 0x80 PUSH1 0x40 MSTORE CALLVALUE DUP1 ISZERO PUSH2 0x10 JUMPI PUSH1 0x0 DUP1 REVERT JUMPDEST POP PUSH2 0x1F74 DUP1 PUSH2 0x20 PUSH1 0x0 CODECOPY PUSH1 0x0 RETURN INVALID PUSH1 0x80 PUSH1 0x40 MSTORE CALLVALUE DUP1 ISZERO PUSH3 0x11 JUMPI PUSH1 0x0 DUP1 REVERT JUMPDEST POP PUSH1 0x4 CALLDATASIZE LT PUSH3 0x6A JUMPI PUSH1 0x0 CALLDATALOAD PUSH1 0xE0 SHR DUP1 PUSH4 0x534F358 EQ PUSH3 0x6F JUMPI DUP1 PUSH4 0x17244E4C EQ PUSH3 0xA5 JUMPI DUP1 PUSH4 0x25C77B7B EQ PUSH3 0xDB JUMPI DUP1 PUSH4 0x9F886F26 EQ PUSH3 0x111 JUMPI DUP1 PUSH4 0xB90060D4 EQ PUSH3 0x147 JUMPI DUP1 PUSH4 0xC9A151A1 EQ PUSH3 0x17D JUMPI JUMPDEST PUSH1 0x0 DUP1 REVERT JUMPDEST PUSH3 0x8D PUSH1 0x4 DUP1 CALLDATASIZE SUB DUP2 ADD SWAP1 PUSH3 0x87 SWAP2 SWAP1 PUSH3 0x6CA JUMP JUMPDEST PUSH3 0x1B3 JUMP JUMPDEST PUSH1 0x40 MLOAD PUSH3 0x9C SWAP2 SWAP1 PUSH3 0x722 JUMP JUMPDEST PUSH1 0x40 MLOAD DUP1 SWAP2 SUB SWAP1 RETURN JUMPDEST PUSH3 0xC3 PUSH1 0x4 DUP1 CALLDATASIZE SUB DUP2 ADD SWAP1 PUSH3 0xBD SWAP2 SWAP1 PUSH3 0x73F JUMP JUMPDEST PUSH3 0x202 JUMP JUMPDEST PUSH1 0x40 MLOAD PUSH3 0xD2 SWAP2 SWAP1 PUSH3 0x835 JUMP JUMPDEST PUSH1 0x40 MLOAD DUP1 SWAP2 SUB SWAP1 RETURN JUMPDEST PUSH3 0xF9 PUSH1 0x4 DUP1 CALLDATASIZE SUB DUP2 ADD SWAP1 PUSH3 0xF3 SWAP2 SWAP1 PUSH3 0x859 JUMP JUMPDEST PUSH3 0x281 JUMP JUMPDEST PUSH1 0x40 MLOAD PUSH3 0x108 SWAP2 SWAP1 PUSH3 0x959 JUMP JUMPDEST PUSH1 0x40 MLOAD DUP1 SWAP2 SUB SWAP1 RETURN JUMPDEST PUSH3 0x12F PUSH1 0x4 DUP1 CALLDATASIZE SUB DUP2 ADD SWAP1 PUSH3 0x129 SWAP2 SWAP1 PUSH3 0xACE JUMP JUMPDEST PUSH3 0x34F JUMP JUMPDEST PUSH1 0x40 MLOAD PUSH3 0x13E SWAP2 SWAP1 PUSH3 0x722 JUMP JUMPDEST PUSH1 0x40 MLOAD DUP1 SWAP2 SUB SWAP1 RETURN JUMPDEST PUSH3 0x165 PUSH1 0x4 DUP1 CALLDATASIZE SUB DUP2 ADD SWAP1 PUSH3 0x15F SWAP2 SWAP1 PUSH3 0x859 JUMP JUMPDEST PUSH3 0x39B JUMP JUMPDEST PUSH1 0x40 MLOAD PUSH3 0x174 SWAP2 SWAP1 PUSH3 0xB45 JUMP JUMPDEST PUSH1 0x40 MLOAD DUP1 SWAP2 SUB SWAP1 RETURN JUMPDEST PUSH3 0x19B PUSH1 0x4 DUP1 CALLDATASIZE SUB DUP2 ADD SWAP1 PUSH3 0x195 SWAP2 SWAP1 PUSH3 0xBA7 JUMP JUMPDEST PUSH3 0x3E6 JUMP JUMPDEST PUSH1 0x40 MLOAD PUSH3 0x1AA SWAP2 SWAP1 PUSH3 0x722 JUMP JUMPDEST PUSH1 0x40 MLOAD DUP1 SWAP2 SUB SWAP1 RETURN JUMPDEST PUSH1 0x0 PUSH1 0x20 MSTORE DUP2 PUSH1 0x0 MSTORE PUSH1 0x40 PUSH1 0x0 KECCAK256 DUP2 DUP2 SLOAD DUP2 LT PUSH3 0x1D0 JUMPI PUSH1 0x0 DUP1 REVERT JUMPDEST SWAP1 PUSH1 0x0 MSTORE PUSH1 0x20 PUSH1 0x0 KECCAK256 ADD PUSH1 0x0 SWAP2 POP SWAP2 POP SWAP1 SLOAD SWAP1 PUSH2 0x100 EXP SWAP1 DIV PUSH20 0xFFFFFFFFFFFFFFFFFFFFFFFFFFFFFFFFFFFFFFFF AND DUP2 JUMP JUMPDEST PUSH1 0x60 PUSH1 0x0 PUSH1 0x40 MLOAD DUP1 PUSH1 0x20 ADD PUSH3 0x218 SWAP1 PUSH3 0x608 JUMP JUMPDEST PUSH1 0x20 DUP3 ADD DUP2 SUB DUP3 MSTORE PUSH1 0x1F NOT PUSH1 0x1F DUP3 ADD AND PUSH1 0x40 MSTORE POP SWAP1 POP DUP1 DUP6 DUP6 DUP6 PUSH1 0x40 MLOAD PUSH1 0x20 ADD PUSH3 0x246 SWAP4 SWAP3 SWAP2 SWAP1 PUSH3 0xC03 JUMP JUMPDEST PUSH1 0x40 MLOAD PUSH1 0x20 DUP2 DUP4 SUB SUB DUP2 MSTORE SWAP1 PUSH1 0x40 MSTORE PUSH1 0x40 MLOAD PUSH1 0x20 ADD PUSH3 0x268 SWAP3 SWAP2 SWAP1 PUSH3 0xC82 JUMP JUMPDEST PUSH1 0x40 MLOAD PUSH1 0x20 DUP2 DUP4 SUB SUB DUP2 MSTORE SWAP1 PUSH1 0x40 MSTORE SWAP2 POP POP SWAP4 SWAP3 POP POP POP JUMP JUMPDEST PUSH1 0x60 PUSH1 0x0 DUP1 DUP4 PUSH20 0xFFFFFFFFFFFFFFFFFFFFFFFFFFFFFFFFFFFFFFFF AND PUSH20 0xFFFFFFFFFFFFFFFFFFFFFFFFFFFFFFFFFFFFFFFF AND DUP2 MSTORE PUSH1 0x20 ADD SWAP1 DUP2 MSTORE PUSH1 0x20 ADD PUSH1 0x0 KECCAK256 DUP1 SLOAD DUP1 PUSH1 0x20 MUL PUSH1 0x20 ADD PUSH1 0x40 MLOAD SWAP1 DUP2 ADD PUSH1 0x40 MSTORE DUP1 SWAP3 SWAP2 SWAP1 DUP2 DUP2 MSTORE PUSH1 0x20 ADD DUP3 DUP1 SLOAD DUP1 ISZERO PUSH3 0x343 JUMPI PUSH1 0x20 MUL DUP3 ADD SWAP2 SWAP1 PUSH1 0x0 MSTORE PUSH1 0x20 PUSH1 0x0 KECCAK256 SWAP1 JUMPDEST DUP2 PUSH1 0x0 SWAP1 SLOAD SWAP1 PUSH2 0x100 EXP SWAP1 DIV PUSH20 0xFFFFFFFFFFFFFFFFFFFFFFFFFFFFFFFFFFFFFFFF AND PUSH20 0xFFFFFFFFFFFFFFFFFFFFFFFFFFFFFFFFFFFFFFFF AND DUP2 MSTORE PUSH1 0x20 ADD SWAP1 PUSH1 0x1 ADD SWAP1 DUP1 DUP4 GT PUSH3 0x2F8 JUMPI JUMPDEST POP POP POP POP POP SWAP1 POP SWAP2 SWAP1 POP JUMP JUMPDEST PUSH1 0x0 DUP1 PUSH1 0xFF PUSH1 0xF8 SHL ADDRESS DUP5 DUP7 DUP1 MLOAD SWAP1 PUSH1 0x20 ADD KECCAK256 PUSH1 0x40 MLOAD PUSH1 0x20 ADD PUSH3 0x376 SWAP5 SWAP4 SWAP3 SWAP2 SWAP1 PUSH3 0xD9F JUMP JUMPDEST PUSH1 0x40 MLOAD PUSH1 0x20 DUP2 DUP4 SUB SUB DUP2 MSTORE SWAP1 PUSH1 0x40 MSTORE DUP1 MLOAD SWAP1 PUSH1 0x20 ADD KECCAK256 SWAP1 POP DUP1 PUSH1 0x0 SHR SWAP2 POP POP SWAP3 SWAP2 POP POP JUMP JUMPDEST PUSH1 0x0 DUP1 PUSH1 0x0 DUP4 PUSH20 0xFFFFFFFFFFFFFFFFFFFFFFFFFFFFFFFFFFFFFFFF AND PUSH20 0xFFFFFFFFFFFFFFFFFFFFFFFFFFFFFFFFFFFFFFFF AND DUP2 MSTORE PUSH1 0x20 ADD SWAP1 DUP2 MSTORE PUSH1 0x20 ADD PUSH1 0x0 KECCAK256 DUP1 SLOAD SWAP1 POP SWAP1 POP SWAP2 SWAP1 POP JUMP JUMPDEST PUSH1 0x0 DUP1 PUSH1 0x0 DUP1 CALLER PUSH20 0xFFFFFFFFFFFFFFFFFFFFFFFFFFFFFFFFFFFFFFFF AND PUSH20 0xFFFFFFFFFFFFFFFFFFFFFFFFFFFFFFFFFFFFFFFF AND DUP2 MSTORE PUSH1 0x20 ADD SWAP1 DUP2 MSTORE PUSH1 0x20 ADD PUSH1 0x0 KECCAK256 DUP1 SLOAD SWAP1 POP PUSH1 0x0 SHL DUP6 DUP6 DUP6 PUSH1 0x40 MLOAD PUSH3 0x43F SWAP1 PUSH3 0x608 JUMP JUMPDEST PUSH3 0x44D SWAP4 SWAP3 SWAP2 SWAP1 PUSH3 0xE60 JUMP JUMPDEST DUP2 SWAP1 PUSH1 0x40 MLOAD DUP1 SWAP2 SUB SWAP1 PUSH1 0x0 CREATE2 SWAP1 POP DUP1 ISZERO DUP1 ISZERO PUSH3 0x46E JUMPI RETURNDATASIZE PUSH1 0x0 DUP1 RETURNDATACOPY RETURNDATASIZE PUSH1 0x0 REVERT JUMPDEST POP SWAP1 POP PUSH1 0x0 DUP1 CALLER PUSH20 0xFFFFFFFFFFFFFFFFFFFFFFFFFFFFFFFFFFFFFFFF AND PUSH20 0xFFFFFFFFFFFFFFFFFFFFFFFFFFFFFFFFFFFFFFFF AND DUP2 MSTORE PUSH1 0x20 ADD SWAP1 DUP2 MSTORE PUSH1 0x20 ADD PUSH1 0x0 KECCAK256 DUP2 SWAP1 DUP1 PUSH1 0x1 DUP2 SLOAD ADD DUP1 DUP3 SSTORE DUP1 SWAP2 POP POP PUSH1 0x1 SWAP1 SUB SWAP1 PUSH1 0x0 MSTORE PUSH1 0x20 PUSH1 0x0 KECCAK256 ADD PUSH1 0x0 SWAP1 SWAP2 SWAP1 SWAP2 SWAP1 SWAP2 PUSH2 0x100 EXP DUP2 SLOAD DUP2 PUSH20 0xFFFFFFFFFFFFFFFFFFFFFFFFFFFFFFFFFFFFFFFF MUL NOT AND SWAP1 DUP4 PUSH20 0xFFFFFFFFFFFFFFFFFFFFFFFFFFFFFFFFFFFFFFFF AND MUL OR SWAP1 SSTORE POP DUP5 PUSH20 0xFFFFFFFFFFFFFFFFFFFFFFFFFFFFFFFFFFFFFFFF AND PUSH4 0x23B872DD CALLER DUP4 DUP7 PUSH1 0x40 MLOAD DUP5 PUSH4 0xFFFFFFFF AND PUSH1 0xE0 SHL DUP2 MSTORE PUSH1 0x4 ADD PUSH3 0x54F SWAP4 SWAP3 SWAP2 SWAP1 PUSH3 0xE9D JUMP JUMPDEST PUSH1 0x20 PUSH1 0x40 MLOAD DUP1 DUP4 SUB DUP2 PUSH1 0x0 DUP8 GAS CALL ISZERO DUP1 ISZERO PUSH3 0x56F JUMPI RETURNDATASIZE PUSH1 0x0 DUP1 RETURNDATACOPY RETURNDATASIZE PUSH1 0x0 REVERT JUMPDEST POP POP POP POP PUSH1 0x40 MLOAD RETURNDATASIZE PUSH1 0x1F NOT PUSH1 0x1F DUP3 ADD AND DUP3 ADD DUP1 PUSH1 0x40 MSTORE POP DUP2 ADD SWAP1 PUSH3 0x595 SWAP2 SWAP1 PUSH3 0xF17 JUMP JUMPDEST POP DUP1 PUSH20 0xFFFFFFFFFFFFFFFFFFFFFFFFFFFFFFFFFFFFFFFF AND CALLER PUSH20 0xFFFFFFFFFFFFFFFFFFFFFFFFFFFFFFFFFFFFFFFF AND PUSH32 0x71F1AA61F9AFDAEEBCBC2D8139EF2C56DFEADD5BFDFACB004F9A5BB162C3E2B0 DUP6 PUSH1 0x40 MLOAD PUSH3 0x5F5 SWAP2 SWAP1 PUSH3 0xB45 JUMP JUMPDEST PUSH1 0x40 MLOAD DUP1 SWAP2 SUB SWAP1 LOG3 DUP1 SWAP2 POP POP SWAP4 SWAP3 POP POP POP JUMP JUMPDEST PUSH2 0xFF5 DUP1 PUSH3 0xF4A DUP4 CODECOPY ADD SWAP1 JUMP JUMPDEST PUSH1 0x0 PUSH1 0x40 MLOAD SWAP1 POP SWAP1 JUMP JUMPDEST PUSH1 0x0 DUP1 REVERT JUMPDEST PUSH1 0x0 DUP1 REVERT JUMPDEST PUSH1 0x0 PUSH20 0xFFFFFFFFFFFFFFFFFFFFFFFFFFFFFFFFFFFFFFFF DUP3 AND SWAP1 POP SWAP2 SWAP1 POP JUMP JUMPDEST PUSH1 0x0 PUSH3 0x657 DUP3 PUSH3 0x62A JUMP JUMPDEST SWAP1 POP SWAP2 SWAP1 POP JUMP JUMPDEST PUSH3 0x669 DUP2 PUSH3 0x64A JUMP JUMPDEST DUP2 EQ PUSH3 0x675 JUMPI PUSH1 0x0 DUP1 REVERT JUMPDEST POP JUMP JUMPDEST PUSH1 0x0 DUP2 CALLDATALOAD SWAP1 POP PUSH3 0x689 DUP2 PUSH3 0x65E JUMP JUMPDEST SWAP3 SWAP2 POP POP JUMP JUMPDEST PUSH1 0x0 DUP2 SWAP1 POP SWAP2 SWAP1 POP JUMP JUMPDEST PUSH3 0x6A4 DUP2 PUSH3 0x68F JUMP JUMPDEST DUP2 EQ PUSH3 0x6B0 JUMPI PUSH1 0x0 DUP1 REVERT JUMPDEST POP JUMP JUMPDEST PUSH1 0x0 DUP2 CALLDATALOAD SWAP1 POP PUSH3 0x6C4 DUP2 PUSH3 0x699 JUMP JUMPDEST SWAP3 SWAP2 POP POP JUMP JUMPDEST PUSH1 0x0 DUP1 PUSH1 0x40 DUP4 DUP6 SUB SLT ISZERO PUSH3 0x6E4 JUMPI PUSH3 0x6E3 PUSH3 0x620 JUMP JUMPDEST JUMPDEST PUSH1 0x0 PUSH3 0x6F4 DUP6 DUP3 DUP7 ADD PUSH3 0x678 JUMP JUMPDEST SWAP3 POP POP PUSH1 0x20 PUSH3 0x707 DUP6 DUP3 DUP7 ADD PUSH3 0x6B3 JUMP JUMPDEST SWAP2 POP POP SWAP3 POP SWAP3 SWAP1 POP JUMP JUMPDEST PUSH3 0x71C DUP2 PUSH3 0x64A JUMP JUMPDEST DUP3 MSTORE POP POP JUMP JUMPDEST PUSH1 0x0 PUSH1 0x20 DUP3 ADD SWAP1 POP PUSH3 0x739 PUSH1 0x0 DUP4 ADD DUP5 PUSH3 0x711 JUMP JUMPDEST SWAP3 SWAP2 POP POP JUMP JUMPDEST PUSH1 0x0 DUP1 PUSH1 0x0 PUSH1 0x60 DUP5 DUP7 SUB SLT ISZERO PUSH3 0x75B JUMPI PUSH3 0x75A PUSH3 0x620 JUMP JUMPDEST JUMPDEST PUSH1 0x0 PUSH3 0x76B DUP7 DUP3 DUP8 ADD PUSH3 0x678 JUMP JUMPDEST SWAP4 POP POP PUSH1 0x20 PUSH3 0x77E DUP7 DUP3 DUP8 ADD PUSH3 0x6B3 JUMP JUMPDEST SWAP3 POP POP PUSH1 0x40 PUSH3 0x791 DUP7 DUP3 DUP8 ADD PUSH3 0x6B3 JUMP JUMPDEST SWAP2 POP POP SWAP3 POP SWAP3 POP SWAP3 JUMP JUMPDEST PUSH1 0x0 DUP2 MLOAD SWAP1 POP SWAP2 SWAP1 POP JUMP JUMPDEST PUSH1 0x0 DUP3 DUP3 MSTORE PUSH1 0x20 DUP3 ADD SWAP1 POP SWAP3 SWAP2 POP POP JUMP JUMPDEST PUSH1 0x0 JUMPDEST DUP4 DUP2 LT ISZERO PUSH3 0x7D7 JUMPI DUP1 DUP3 ADD MLOAD DUP2 DUP5 ADD MSTORE PUSH1 0x20 DUP2 ADD SWAP1 POP PUSH3 0x7BA JUMP JUMPDEST PUSH1 0x0 DUP5 DUP5 ADD MSTORE POP POP POP POP JUMP JUMPDEST PUSH1 0x0 PUSH1 0x1F NOT PUSH1 0x1F DUP4 ADD AND SWAP1 POP SWAP2 SWAP1 POP JUMP JUMPDEST PUSH1 0x0 PUSH3 0x801 DUP3 PUSH3 0x79B JUMP JUMPDEST PUSH3 0x80D DUP2 DUP6 PUSH3 0x7A6 JUMP JUMPDEST SWAP4 POP PUSH3 0x81F DUP2 DUP6 PUSH1 0x20 DUP7 ADD PUSH3 0x7B7 JUMP JUMPDEST PUSH3 0x82A DUP2 PUSH3 0x7E3 JUMP JUMPDEST DUP5 ADD SWAP2 POP POP SWAP3 SWAP2 POP POP JUMP JUMPDEST PUSH1 0x0 PUSH1 0x20 DUP3 ADD SWAP1 POP DUP2 DUP2 SUB PUSH1 0x0 DUP4 ADD MSTORE PUSH3 0x851 DUP2 DUP5 PUSH3 0x7F4 JUMP JUMPDEST SWAP1 POP SWAP3 SWAP2 POP POP JUMP JUMPDEST PUSH1 0x0 PUSH1 0x20 DUP3 DUP5 SUB SLT ISZERO PUSH3 0x872 JUMPI PUSH3 0x871 PUSH3 0x620 JUMP JUMPDEST JUMPDEST PUSH1 0x0 PUSH3 0x882 DUP5 DUP3 DUP6 ADD PUSH3 0x678 JUMP JUMPDEST SWAP2 POP POP SWAP3 SWAP2 POP POP JUMP JUMPDEST PUSH1 0x0 DUP2 MLOAD SWAP1 POP SWAP2 SWAP1 POP JUMP JUMPDEST PUSH1 0x0 DUP3 DUP3 MSTORE PUSH1 0x20 DUP3 ADD SWAP1 POP SWAP3 SWAP2 POP POP JUMP JUMPDEST PUSH1 0x0 DUP2 SWAP1 POP PUSH1 0x20 DUP3 ADD SWAP1 POP SWAP2 SWAP1 POP JUMP JUMPDEST PUSH3 0x8C2 DUP2 PUSH3 0x64A JUMP JUMPDEST DUP3 MSTORE POP POP JUMP JUMPDEST PUSH1 0x0 PUSH3 0x8D6 DUP4 DUP4 PUSH3 0x8B7 JUMP JUMPDEST PUSH1 0x20 DUP4 ADD SWAP1 POP SWAP3 SWAP2 POP POP JUMP JUMPDEST PUSH1 0x0 PUSH1 0x20 DUP3 ADD SWAP1 POP SWAP2 SWAP1 POP JUMP JUMPDEST PUSH1 0x0 PUSH3 0x8FC DUP3 PUSH3 0x88B JUMP JUMPDEST PUSH3 0x908 DUP2 DUP6 PUSH3 0x896 JUMP JUMPDEST SWAP4 POP PUSH3 0x915 DUP4 PUSH3 0x8A7 JUMP JUMPDEST DUP1 PUSH1 0x0 JUMPDEST DUP4 DUP2 LT ISZERO PUSH3 0x94C JUMPI DUP2 MLOAD PUSH3 0x930 DUP9 DUP3 PUSH3 0x8C8 JUMP JUMPDEST SWAP8 POP PUSH3 0x93D DUP4 PUSH3 0x8E2 JUMP JUMPDEST SWAP3 POP POP PUSH1 0x1 DUP2 ADD SWAP1 POP PUSH3 0x919 JUMP JUMPDEST POP DUP6 SWAP4 POP POP POP POP SWAP3 SWAP2 POP POP JUMP JUMPDEST PUSH1 0x0 PUSH1 0x20 DUP3 ADD SWAP1 POP DUP2 DUP2 SUB PUSH1 0x0 DUP4 ADD MSTORE PUSH3 0x975 DUP2 DUP5 PUSH3 0x8EF JUMP JUMPDEST SWAP1 POP SWAP3 SWAP2 POP POP JUMP JUMPDEST PUSH1 0x0 DUP1 REVERT JUMPDEST PUSH1 0x0 DUP1 REVERT JUMPDEST PUSH32 0x4E487B7100000000000000000000000000000000000000000000000000000000 PUSH1 0x0 MSTORE PUSH1 0x41 PUSH1 0x4 MSTORE PUSH1 0x24 PUSH1 0x0 REVERT JUMPDEST PUSH3 0x9C1 DUP3 PUSH3 0x7E3 JUMP JUMPDEST DUP2 ADD DUP2 DUP2 LT PUSH8 0xFFFFFFFFFFFFFFFF DUP3 GT OR ISZERO PUSH3 0x9E3 JUMPI PUSH3 0x9E2 PUSH3 0x987 JUMP JUMPDEST JUMPDEST DUP1 PUSH1 0x40 MSTORE POP POP POP JUMP JUMPDEST PUSH1 0x0 PUSH3 0x9F8 PUSH3 0x616 JUMP JUMPDEST SWAP1 POP PUSH3 0xA06 DUP3 DUP3 PUSH3 0x9B6 JUMP JUMPDEST SWAP2 SWAP1 POP JUMP JUMPDEST PUSH1 0x0 PUSH8 0xFFFFFFFFFFFFFFFF DUP3 GT ISZERO PUSH3 0xA29 JUMPI PUSH3 0xA28 PUSH3 0x987 JUMP JUMPDEST JUMPDEST PUSH3 0xA34 DUP3 PUSH3 0x7E3 JUMP JUMPDEST SWAP1 POP PUSH1 0x20 DUP2 ADD SWAP1 POP SWAP2 SWAP1 POP JUMP JUMPDEST DUP3 DUP2 DUP4 CALLDATACOPY PUSH1 0x0 DUP4 DUP4 ADD MSTORE POP POP POP JUMP JUMPDEST PUSH1 0x0 PUSH3 0xA67 PUSH3 0xA61 DUP5 PUSH3 0xA0B JUMP JUMPDEST PUSH3 0x9EC JUMP JUMPDEST SWAP1 POP DUP3 DUP2 MSTORE PUSH1 0x20 DUP2 ADD DUP5 DUP5 DUP5 ADD GT ISZERO PUSH3 0xA86 JUMPI PUSH3 0xA85 PUSH3 0x982 JUMP JUMPDEST JUMPDEST PUSH3 0xA93 DUP5 DUP3 DUP6 PUSH3 0xA41 JUMP JUMPDEST POP SWAP4 SWAP3 POP POP POP JUMP JUMPDEST PUSH1 0x0 DUP3 PUSH1 0x1F DUP4 ADD SLT PUSH3 0xAB3 JUMPI PUSH3 0xAB2 PUSH3 0x97D JUMP JUMPDEST JUMPDEST DUP2 CALLDATALOAD PUSH3 0xAC5 DUP5 DUP3 PUSH1 0x20 DUP7 ADD PUSH3 0xA50 JUMP JUMPDEST SWAP2 POP POP SWAP3 SWAP2 POP POP JUMP JUMPDEST PUSH1 0x0 DUP1 PUSH1 0x40 DUP4 DUP6 SUB SLT ISZERO PUSH3 0xAE8 JUMPI PUSH3 0xAE7 PUSH3 0x620 JUMP JUMPDEST JUMPDEST PUSH1 0x0 DUP4 ADD CALLDATALOAD PUSH8 0xFFFFFFFFFFFFFFFF DUP2 GT ISZERO PUSH3 0xB09 JUMPI PUSH3 0xB08 PUSH3 0x625 JUMP JUMPDEST JUMPDEST PUSH3 0xB17 DUP6 DUP3 DUP7 ADD PUSH3 0xA9B JUMP JUMPDEST SWAP3 POP POP PUSH1 0x20 PUSH3 0xB2A DUP6 DUP3 DUP7 ADD PUSH3 0x6B3 JUMP JUMPDEST SWAP2 POP POP SWAP3 POP SWAP3 SWAP1 POP JUMP JUMPDEST PUSH3 0xB3F DUP2 PUSH3 0x68F JUMP JUMPDEST DUP3 MSTORE POP POP JUMP JUMPDEST PUSH1 0x0 PUSH1 0x20 DUP3 ADD SWAP1 POP PUSH3 0xB5C PUSH1 0x0 DUP4 ADD DUP5 PUSH3 0xB34 JUMP JUMPDEST SWAP3 SWAP2 POP POP JUMP JUMPDEST PUSH1 0x0 PUSH3 0xB6F DUP3 PUSH3 0x64A JUMP JUMPDEST SWAP1 POP SWAP2 SWAP1 POP JUMP JUMPDEST PUSH3 0xB81 DUP2 PUSH3 0xB62 JUMP JUMPDEST DUP2 EQ PUSH3 0xB8D JUMPI PUSH1 0x0 DUP1 REVERT JUMPDEST POP JUMP JUMPDEST PUSH1 0x0 DUP2 CALLDATALOAD SWAP1 POP PUSH3 0xBA1 DUP2 PUSH3 0xB76 JUMP JUMPDEST SWAP3 SWAP2 POP POP JUMP JUMPDEST PUSH1 0x0 DUP1 PUSH1 0x0 PUSH1 0x60 DUP5 DUP7 SUB SLT ISZERO PUSH3 0xBC3 JUMPI PUSH3 0xBC2 PUSH3 0x620 JUMP JUMPDEST JUMPDEST PUSH1 0x0 PUSH3 0xBD3 DUP7 DUP3 DUP8 ADD PUSH3 0xB90 JUMP JUMPDEST SWAP4 POP POP PUSH1 0x20 PUSH3 0xBE6 DUP7 DUP3 DUP8 ADD PUSH3 0x6B3 JUMP JUMPDEST SWAP3 POP POP PUSH1 0x40 PUSH3 0xBF9 DUP7 DUP3 DUP8 ADD PUSH3 0x6B3 JUMP JUMPDEST SWAP2 POP POP SWAP3 POP SWAP3 POP SWAP3 JUMP JUMPDEST PUSH1 0x0 PUSH1 0x60 DUP3 ADD SWAP1 POP PUSH3 0xC1A PUSH1 0x0 DUP4 ADD DUP7 PUSH3 0x711 JUMP JUMPDEST PUSH3 0xC29 PUSH1 0x20 DUP4 ADD DUP6 PUSH3 0xB34 JUMP JUMPDEST PUSH3 0xC38 PUSH1 0x40 DUP4 ADD DUP5 PUSH3 0xB34 JUMP JUMPDEST SWAP5 SWAP4 POP POP POP POP JUMP JUMPDEST PUSH1 0x0 DUP2 SWAP1 POP SWAP3 SWAP2 POP POP JUMP JUMPDEST PUSH1 0x0 PUSH3 0xC58 DUP3 PUSH3 0x79B JUMP JUMPDEST PUSH3 0xC64 DUP2 DUP6 PUSH3 0xC40 JUMP JUMPDEST SWAP4 POP PUSH3 0xC76 DUP2 DUP6 PUSH1 0x20 DUP7 ADD PUSH3 0x7B7 JUMP JUMPDEST DUP1 DUP5 ADD SWAP2 POP POP SWAP3 SWAP2 POP POP JUMP JUMPDEST PUSH1 0x0 PUSH3 0xC90 DUP3 DUP6 PUSH3 0xC4B JUMP JUMPDEST SWAP2 POP PUSH3 0xC9E DUP3 DUP5 PUSH3 0xC4B JUMP JUMPDEST SWAP2 POP DUP2 SWAP1 POP SWAP4 SWAP3 POP POP POP JUMP JUMPDEST PUSH1 0x0 PUSH32 0xFF00000000000000000000000000000000000000000000000000000000000000 DUP3 AND SWAP1 POP SWAP2 SWAP1 POP JUMP JUMPDEST PUSH1 0x0 DUP2 SWAP1 POP SWAP2 SWAP1 POP JUMP JUMPDEST PUSH3 0xCF5 PUSH3 0xCEF DUP3 PUSH3 0xCAA JUMP JUMPDEST PUSH3 0xCD6 JUMP JUMPDEST DUP3 MSTORE POP POP JUMP JUMPDEST PUSH1 0x0 DUP2 PUSH1 0x60 SHL SWAP1 POP SWAP2 SWAP1 POP JUMP JUMPDEST PUSH1 0x0 PUSH3 0xD15 DUP3 PUSH3 0xCFB JUMP JUMPDEST SWAP1 POP SWAP2 SWAP1 POP JUMP JUMPDEST PUSH1 0x0 PUSH3 0xD29 DUP3 PUSH3 0xD08 JUMP JUMPDEST SWAP1 POP SWAP2 SWAP1 POP JUMP JUMPDEST PUSH3 0xD45 PUSH3 0xD3F DUP3 PUSH3 0x64A JUMP JUMPDEST PUSH3 0xD1C JUMP JUMPDEST DUP3 MSTORE POP POP JUMP JUMPDEST PUSH1 0x0 DUP2 SWAP1 POP SWAP2 SWAP1 POP JUMP JUMPDEST PUSH3 0xD6A PUSH3 0xD64 DUP3 PUSH3 0x68F JUMP JUMPDEST PUSH3 0xD4B JUMP JUMPDEST DUP3 MSTORE POP POP JUMP JUMPDEST PUSH1 0x0 DUP2 SWAP1 POP SWAP2 SWAP1 POP JUMP JUMPDEST PUSH1 0x0 DUP2 SWAP1 POP SWAP2 SWAP1 POP JUMP JUMPDEST PUSH3 0xD99 PUSH3 0xD93 DUP3 PUSH3 0xD70 JUMP JUMPDEST PUSH3 0xD7A JUMP JUMPDEST DUP3 MSTORE POP POP JUMP JUMPDEST PUSH1 0x0 PUSH3 0xDAD DUP3 DUP8 PUSH3 0xCE0 JUMP JUMPDEST PUSH1 0x1 DUP3 ADD SWAP2 POP PUSH3 0xDBF DUP3 DUP7 PUSH3 0xD30 JUMP JUMPDEST PUSH1 0x14 DUP3 ADD SWAP2 POP PUSH3 0xDD1 DUP3 DUP6 PUSH3 0xD55 JUMP JUMPDEST PUSH1 0x20 DUP3 ADD SWAP2 POP PUSH3 0xDE3 DUP3 DUP5 PUSH3 0xD84 JUMP JUMPDEST PUSH1 0x20 DUP3 ADD SWAP2 POP DUP2 SWAP1 POP SWAP6 SWAP5 POP POP POP POP POP JUMP JUMPDEST PUSH1 0x0 DUP2 SWAP1 POP SWAP2 SWAP1 POP JUMP JUMPDEST PUSH1 0x0 PUSH3 0xE20 PUSH3 0xE1A PUSH3 0xE14 DUP5 PUSH3 0x62A JUMP JUMPDEST PUSH3 0xDF5 JUMP JUMPDEST PUSH3 0x62A JUMP JUMPDEST SWAP1 POP SWAP2 SWAP1 POP JUMP JUMPDEST PUSH1 0x0 PUSH3 0xE34 DUP3 PUSH3 0xDFF JUMP JUMPDEST SWAP1 POP SWAP2 SWAP1 POP JUMP JUMPDEST PUSH1 0x0 PUSH3 0xE48 DUP3 PUSH3 0xE27 JUMP JUMPDEST SWAP1 POP SWAP2 SWAP1 POP JUMP JUMPDEST PUSH3 0xE5A DUP2 PUSH3 0xE3B JUMP JUMPDEST DUP3 MSTORE POP POP JUMP JUMPDEST PUSH1 0x0 PUSH1 0x60 DUP3 ADD SWAP1 POP PUSH3 0xE77 PUSH1 0x0 DUP4 ADD DUP7 PUSH3 0xE4F JUMP JUMPDEST PUSH3 0xE86 PUSH1 0x20 DUP4 ADD DUP6 PUSH3 0xB34 JUMP JUMPDEST PUSH3 0xE95 PUSH1 0x40 DUP4 ADD DUP5 PUSH3 0xB34 JUMP JUMPDEST SWAP5 SWAP4 POP POP POP POP JUMP JUMPDEST PUSH1 0x0 PUSH1 0x60 DUP3 ADD SWAP1 POP PUSH3 0xEB4 PUSH1 0x0 DUP4 ADD DUP7 PUSH3 0x711 JUMP JUMPDEST PUSH3 0xEC3 PUSH1 0x20 DUP4 ADD DUP6 PUSH3 0x711 JUMP JUMPDEST PUSH3 0xED2 PUSH1 0x40 DUP4 ADD DUP5 PUSH3 0xB34 JUMP JUMPDEST SWAP5 SWAP4 POP POP POP POP JUMP JUMPDEST PUSH1 0x0 DUP2 ISZERO ISZERO SWAP1 POP SWAP2 SWAP1 POP JUMP JUMPDEST PUSH3 0xEF1 DUP2 PUSH3 0xEDA JUMP JUMPDEST DUP2 EQ PUSH3 0xEFD JUMPI PUSH1 0x0 DUP1 REVERT JUMPDEST POP JUMP JUMPDEST PUSH1 0x0 DUP2 MLOAD SWAP1 POP PUSH3 0xF11 DUP2 PUSH3 0xEE6 JUMP JUMPDEST SWAP3 SWAP2 POP POP JUMP JUMPDEST PUSH1 0x0 PUSH1 0x20 DUP3 DUP5 SUB SLT ISZERO PUSH3 0xF30 JUMPI PUSH3 0xF2F PUSH3 0x620 JUMP JUMPDEST JUMPDEST PUSH1 0x0 PUSH3 0xF40 DUP5 DUP3 DUP6 ADD PUSH3 0xF00 JUMP JUMPDEST SWAP2 POP POP SWAP3 SWAP2 POP POP JUMP INVALID PUSH2 0x100 PUSH1 0x40 MSTORE CALLVALUE DUP1 ISZERO PUSH3 0x12 JUMPI PUSH1 0x0 DUP1 REVERT JUMPDEST POP PUSH1 0x40 MLOAD PUSH3 0xFF5 CODESIZE SUB DUP1 PUSH3 0xFF5 DUP4 CODECOPY DUP2 DUP2 ADD PUSH1 0x40 MSTORE DUP2 ADD SWAP1 PUSH3 0x38 SWAP2 SWAP1 PUSH3 0x36D JUMP JUMPDEST ORIGIN PUSH1 0x0 PUSH20 0xFFFFFFFFFFFFFFFFFFFFFFFFFFFFFFFFFFFFFFFF AND DUP2 PUSH20 0xFFFFFFFFFFFFFFFFFFFFFFFFFFFFFFFFFFFFFFFF AND SUB PUSH3 0xAE JUMPI PUSH1 0x0 PUSH1 0x40 MLOAD PUSH32 0x1E4FBDF700000000000000000000000000000000000000000000000000000000 DUP2 MSTORE PUSH1 0x4 ADD PUSH3 0xA5 SWAP2 SWAP1 PUSH3 0x3DA JUMP JUMPDEST PUSH1 0x40 MLOAD DUP1 SWAP2 SUB SWAP1 REVERT JUMPDEST PUSH3 0xBF DUP2 PUSH3 0x1F0 PUSH1 0x20 SHL PUSH1 0x20 SHR JUMP JUMPDEST POP PUSH1 0x0 DUP3 GT PUSH3 0x106 JUMPI PUSH1 0x40 MLOAD PUSH32 0x8C379A000000000000000000000000000000000000000000000000000000000 DUP2 MSTORE PUSH1 0x4 ADD PUSH3 0xFD SWAP1 PUSH3 0x47E JUMP JUMPDEST PUSH1 0x40 MLOAD DUP1 SWAP2 SUB SWAP1 REVERT JUMPDEST DUP3 PUSH20 0xFFFFFFFFFFFFFFFFFFFFFFFFFFFFFFFFFFFFFFFF AND PUSH1 0x80 DUP2 PUSH20 0xFFFFFFFFFFFFFFFFFFFFFFFFFFFFFFFFFFFFFFFF AND DUP2 MSTORE POP POP ORIGIN PUSH20 0xFFFFFFFFFFFFFFFFFFFFFFFFFFFFFFFFFFFFFFFF AND PUSH1 0xA0 DUP2 PUSH20 0xFFFFFFFFFFFFFFFFFFFFFFFFFFFFFFFFFFFFFFFF AND DUP2 MSTORE POP POP DUP2 PUSH1 0xC0 DUP2 DUP2 MSTORE POP POP TIMESTAMP PUSH1 0xE0 DUP2 DUP2 MSTORE POP POP DUP3 PUSH20 0xFFFFFFFFFFFFFFFFFFFFFFFFFFFFFFFFFFFFFFFF AND ORIGIN PUSH20 0xFFFFFFFFFFFFFFFFFFFFFFFFFFFFFFFFFFFFFFFF AND PUSH32 0xE5D7D4B5CB0219916A8BE73968F7BAF3C806FD018B0CC5598F5129436CF5C316 TIMESTAMP DUP6 PUSH1 0x40 MLOAD PUSH3 0x1DF SWAP3 SWAP2 SWAP1 PUSH3 0x4B1 JUMP JUMPDEST PUSH1 0x40 MLOAD DUP1 SWAP2 SUB SWAP1 LOG3 POP POP POP PUSH3 0x4DE JUMP JUMPDEST PUSH1 0x0 DUP1 PUSH1 0x0 SWAP1 SLOAD SWAP1 PUSH2 0x100 EXP SWAP1 DIV PUSH20 0xFFFFFFFFFFFFFFFFFFFFFFFFFFFFFFFFFFFFFFFF AND SWAP1 POP DUP2 PUSH1 0x0 DUP1 PUSH2 0x100 EXP DUP2 SLOAD DUP2 PUSH20 0xFFFFFFFFFFFFFFFFFFFFFFFFFFFFFFFFFFFFFFFF MUL NOT AND SWAP1 DUP4 PUSH20 0xFFFFFFFFFFFFFFFFFFFFFFFFFFFFFFFFFFFFFFFF AND MUL OR SWAP1 SSTORE POP DUP2 PUSH20 0xFFFFFFFFFFFFFFFFFFFFFFFFFFFFFFFFFFFFFFFF AND DUP2 PUSH20 0xFFFFFFFFFFFFFFFFFFFFFFFFFFFFFFFFFFFFFFFF AND PUSH32 0x8BE0079C531659141344CD1FD0A4F28419497F9722A3DAAFE3B4186F6B6457E0 PUSH1 0x40 MLOAD PUSH1 0x40 MLOAD DUP1 SWAP2 SUB SWAP1 LOG3 POP POP JUMP JUMPDEST PUSH1 0x0 DUP1 REVERT JUMPDEST PUSH1 0x0 PUSH20 0xFFFFFFFFFFFFFFFFFFFFFFFFFFFFFFFFFFFFFFFF DUP3 AND SWAP1 POP SWAP2 SWAP1 POP JUMP JUMPDEST PUSH1 0x0 PUSH3 0x2E6 DUP3 PUSH3 0x2B9 JUMP JUMPDEST SWAP1 POP SWAP2 SWAP1 POP JUMP JUMPDEST PUSH1 0x0 PUSH3 0x2FA DUP3 PUSH3 0x2D9 JUMP JUMPDEST SWAP1 POP SWAP2 SWAP1 POP JUMP JUMPDEST PUSH3 0x30C DUP2 PUSH3 0x2ED JUMP JUMPDEST DUP2 EQ PUSH3 0x318 JUMPI PUSH1 0x0 DUP1 REVERT JUMPDEST POP JUMP JUMPDEST PUSH1 0x0 DUP2 MLOAD SWAP1 POP PUSH3 0x32C DUP2 PUSH3 0x301 JUMP JUMPDEST SWAP3 SWAP2 POP POP JUMP JUMPDEST PUSH1 0x0 DUP2 SWAP1 POP SWAP2 SWAP1 POP JUMP JUMPDEST PUSH3 0x347 DUP2 PUSH3 0x332 JUMP JUMPDEST DUP2 EQ PUSH3 0x353 JUMPI PUSH1 0x0 DUP1 REVERT JUMPDEST POP JUMP JUMPDEST PUSH1 0x0 DUP2 MLOAD SWAP1 POP PUSH3 0x367 DUP2 PUSH3 0x33C JUMP JUMPDEST SWAP3 SWAP2 POP POP JUMP JUMPDEST PUSH1 0x0 DUP1 PUSH1 0x0 PUSH1 0x60 DUP5 DUP7 SUB SLT ISZERO PUSH3 0x389 JUMPI PUSH3 0x388 PUSH3 0x2B4 JUMP JUMPDEST JUMPDEST PUSH1 0x0 PUSH3 0x399 DUP7 DUP3 DUP8 ADD PUSH3 0x31B JUMP JUMPDEST SWAP4 POP POP PUSH1 0x20 PUSH3 0x3AC DUP7 DUP3 DUP8 ADD PUSH3 0x356 JUMP JUMPDEST SWAP3 POP POP PUSH1 0x40 PUSH3 0x3BF DUP7 DUP3 DUP8 ADD PUSH3 0x356 JUMP JUMPDEST SWAP2 POP POP SWAP3 POP SWAP3 POP SWAP3 JUMP JUMPDEST PUSH3 0x3D4 DUP2 PUSH3 0x2D9 JUMP JUMPDEST DUP3 MSTORE POP POP JUMP JUMPDEST PUSH1 0x0 PUSH1 0x20 DUP3 ADD SWAP1 POP PUSH3 0x3F1 PUSH1 0x0 DUP4 ADD DUP5 PUSH3 0x3C9 JUMP JUMPDEST SWAP3 SWAP2 POP POP JUMP JUMPDEST PUSH1 0x0 DUP3 DUP3 MSTORE PUSH1 0x20 DUP3 ADD SWAP1 POP SWAP3 SWAP2 POP POP JUMP JUMPDEST PUSH32 0x546F6B656E4C6F636B3A206C6F636B2074696D652073686F756C642067726561 PUSH1 0x0 DUP3 ADD MSTORE PUSH32 0x746572207468616E203000000000000000000000000000000000000000000000 PUSH1 0x20 DUP3 ADD MSTORE POP JUMP JUMPDEST PUSH1 0x0 PUSH3 0x466 PUSH1 0x2A DUP4 PUSH3 0x3F7 JUMP JUMPDEST SWAP2 POP PUSH3 0x473 DUP3 PUSH3 0x408 JUMP JUMPDEST PUSH1 0x40 DUP3 ADD SWAP1 POP SWAP2 SWAP1 POP JUMP JUMPDEST PUSH1 0x0 PUSH1 0x20 DUP3 ADD SWAP1 POP DUP2 DUP2 SUB PUSH1 0x0 DUP4 ADD MSTORE PUSH3 0x499 DUP2 PUSH3 0x457 JUMP JUMPDEST SWAP1 POP SWAP2 SWAP1 POP JUMP JUMPDEST PUSH3 0x4AB DUP2 PUSH3 0x332 JUMP JUMPDEST DUP3 MSTORE POP POP JUMP JUMPDEST PUSH1 0x0 PUSH1 0x40 DUP3 ADD SWAP1 POP PUSH3 0x4C8 PUSH1 0x0 DUP4 ADD DUP6 PUSH3 0x4A0 JUMP JUMPDEST PUSH3 0x4D7 PUSH1 0x20 DUP4 ADD DUP5 PUSH3 0x4A0 JUMP JUMPDEST SWAP4 SWAP3 POP POP POP JUMP JUMPDEST PUSH1 0x80 MLOAD PUSH1 0xA0 MLOAD PUSH1 0xC0 MLOAD PUSH1 0xE0 MLOAD PUSH2 0xAB3 PUSH3 0x542 PUSH1 0x0 CODECOPY PUSH1 0x0 DUP2 DUP2 PUSH2 0x1B1 ADD MSTORE PUSH2 0x1FE ADD MSTORE PUSH1 0x0 DUP2 DUP2 PUSH2 0x155 ADD MSTORE PUSH2 0x1DD ADD MSTORE PUSH1 0x0 DUP2 DUP2 PUSH2 0x179 ADD MSTORE PUSH2 0x388 ADD MSTORE PUSH1 0x0 DUP2 DUP2 PUSH2 0x26D ADD MSTORE DUP2 DUP2 PUSH2 0x34C ADD MSTORE DUP2 DUP2 PUSH2 0x40B ADD MSTORE PUSH2 0x544 ADD MSTORE PUSH2 0xAB3 PUSH1 0x0 RETURN INVALID PUSH1 0x80 PUSH1 0x40 MSTORE CALLVALUE DUP1 ISZERO PUSH2 0x10 JUMPI PUSH1 0x0 DUP1 REVERT JUMPDEST POP PUSH1 0x4 CALLDATASIZE LT PUSH2 0x88 JUMPI PUSH1 0x0 CALLDATALOAD PUSH1 0xE0 SHR DUP1 PUSH4 0x86D1A69F GT PUSH2 0x5B JUMPI DUP1 PUSH4 0x86D1A69F EQ PUSH2 0xF1 JUMPI DUP1 PUSH4 0x8DA5CB5B EQ PUSH2 0xFB JUMPI DUP1 PUSH4 0xF2FDE38B EQ PUSH2 0x119 JUMPI DUP1 PUSH4 0xFC0C546A EQ PUSH2 0x135 JUMPI PUSH2 0x88 JUMP JUMPDEST DUP1 PUSH4 0xD668087 EQ PUSH2 0x8D JUMPI DUP1 PUSH4 0x38AF3EED EQ PUSH2 0xAB JUMPI DUP1 PUSH4 0x715018A6 EQ PUSH2 0xC9 JUMPI DUP1 PUSH4 0x78E97925 EQ PUSH2 0xD3 JUMPI JUMPDEST PUSH1 0x0 DUP1 REVERT JUMPDEST PUSH2 0x95 PUSH2 0x153 JUMP JUMPDEST PUSH1 0x40 MLOAD PUSH2 0xA2 SWAP2 SWAP1 PUSH2 0x6D2 JUMP JUMPDEST PUSH1 0x40 MLOAD DUP1 SWAP2 SUB SWAP1 RETURN JUMPDEST PUSH2 0xB3 PUSH2 0x177 JUMP JUMPDEST PUSH1 0x40 MLOAD PUSH2 0xC0 SWAP2 SWAP1 PUSH2 0x72E JUMP JUMPDEST PUSH1 0x40 MLOAD DUP1 SWAP2 SUB SWAP1 RETURN JUMPDEST PUSH2 0xD1 PUSH2 0x19B JUMP JUMPDEST STOP JUMPDEST PUSH2 0xDB PUSH2 0x1AF JUMP JUMPDEST PUSH1 0x40 MLOAD PUSH2 0xE8 SWAP2 SWAP1 PUSH2 0x6D2 JUMP JUMPDEST PUSH1 0x40 MLOAD DUP1 SWAP2 SUB SWAP1 RETURN JUMPDEST PUSH2 0xF9 PUSH2 0x1D3 JUMP JUMPDEST STOP JUMPDEST PUSH2 0x103 PUSH2 0x493 JUMP JUMPDEST PUSH1 0x40 MLOAD PUSH2 0x110 SWAP2 SWAP1 PUSH2 0x72E JUMP JUMPDEST PUSH1 0x40 MLOAD DUP1 SWAP2 SUB SWAP1 RETURN JUMPDEST PUSH2 0x133 PUSH1 0x4 DUP1 CALLDATASIZE SUB DUP2 ADD SWAP1 PUSH2 0x12E SWAP2 SWAP1 PUSH2 0x77A JUMP JUMPDEST PUSH2 0x4BC JUMP JUMPDEST STOP JUMPDEST PUSH2 0x13D PUSH2 0x542 JUMP JUMPDEST PUSH1 0x40 MLOAD PUSH2 0x14A SWAP2 SWAP1 PUSH2 0x806 JUMP JUMPDEST PUSH1 0x40 MLOAD DUP1 SWAP2 SUB SWAP1 RETURN JUMPDEST PUSH32 0x0 DUP2 JUMP JUMPDEST PUSH32 0x0 DUP2 JUMP JUMPDEST PUSH2 0x1A3 PUSH2 0x566 JUMP JUMPDEST PUSH2 0x1AD PUSH1 0x0 PUSH2 0x5ED JUMP JUMPDEST JUMP JUMPDEST PUSH32 0x0 DUP2 JUMP JUMPDEST PUSH2 0x1DB PUSH2 0x566 JUMP JUMPDEST PUSH32 0x0 PUSH32 0x0 PUSH2 0x227 SWAP2 SWAP1 PUSH2 0x850 JUMP JUMPDEST TIMESTAMP LT ISZERO PUSH2 0x269 JUMPI PUSH1 0x40 MLOAD PUSH32 0x8C379A000000000000000000000000000000000000000000000000000000000 DUP2 MSTORE PUSH1 0x4 ADD PUSH2 0x260 SWAP1 PUSH2 0x8E1 JUMP JUMPDEST PUSH1 0x40 MLOAD DUP1 SWAP2 SUB SWAP1 REVERT JUMPDEST PUSH1 0x0 PUSH32 0x0 PUSH20 0xFFFFFFFFFFFFFFFFFFFFFFFFFFFFFFFFFFFFFFFF AND PUSH4 0x70A08231 ADDRESS PUSH1 0x40 MLOAD DUP3 PUSH4 0xFFFFFFFF AND PUSH1 0xE0 SHL DUP2 MSTORE PUSH1 0x4 ADD PUSH2 0x2C4 SWAP2 SWAP1 PUSH2 0x72E JUMP JUMPDEST PUSH1 0x20 PUSH1 0x40 MLOAD DUP1 DUP4 SUB DUP2 DUP7 GAS STATICCALL ISZERO DUP1 ISZERO PUSH2 0x2E1 JUMPI RETURNDATASIZE PUSH1 0x0 DUP1 RETURNDATACOPY RETURNDATASIZE PUSH1 0x0 REVERT JUMPDEST POP POP POP POP PUSH1 0x40 MLOAD RETURNDATASIZE PUSH1 0x1F NOT PUSH1 0x1F DUP3 ADD AND DUP3 ADD DUP1 PUSH1 0x40 MSTORE POP DUP2 ADD SWAP1 PUSH2 0x305 SWAP2 SWAP1 PUSH2 0x92D JUMP JUMPDEST SWAP1 POP PUSH1 0x0 DUP2 GT PUSH2 0x34A JUMPI PUSH1 0x40 MLOAD PUSH32 0x8C379A000000000000000000000000000000000000000000000000000000000 DUP2 MSTORE PUSH1 0x4 ADD PUSH2 0x341 SWAP1 PUSH2 0x9A6 JUMP JUMPDEST PUSH1 0x40 MLOAD DUP1 SWAP2 SUB SWAP1 REVERT JUMPDEST PUSH32 0x0 PUSH20 0xFFFFFFFFFFFFFFFFFFFFFFFFFFFFFFFFFFFFFFFF AND PUSH4 0xA9059CBB PUSH32 0x0 DUP4 PUSH1 0x40 MLOAD DUP4 PUSH4 0xFFFFFFFF AND PUSH1 0xE0 SHL DUP2 MSTORE PUSH1 0x4 ADD PUSH2 0x3C5 SWAP3 SWAP2 SWAP1 PUSH2 0x9C6 JUMP JUMPDEST PUSH1 0x20 PUSH1 0x40 MLOAD DUP1 DUP4 SUB DUP2 PUSH1 0x0 DUP8 GAS CALL ISZERO DUP1 ISZERO PUSH2 0x3E4 JUMPI RETURNDATASIZE PUSH1 0x0 DUP1 RETURNDATACOPY RETURNDATASIZE PUSH1 0x0 REVERT JUMPDEST POP POP POP POP PUSH1 0x40 MLOAD RETURNDATASIZE PUSH1 0x1F NOT PUSH1 0x1F DUP3 ADD AND DUP3 ADD DUP1 PUSH1 0x40 MSTORE POP DUP2 ADD SWAP1 PUSH2 0x408 SWAP2 SWAP1 PUSH2 0xA27 JUMP JUMPDEST POP PUSH32 0x0 PUSH20 0xFFFFFFFFFFFFFFFFFFFFFFFFFFFFFFFFFFFFFFFF AND CALLER PUSH20 0xFFFFFFFFFFFFFFFFFFFFFFFFFFFFFFFFFFFFFFFF AND PUSH32 0x10B55F01B1CFE0FEEB7D144F66162661602D8E73256499B6D8342AAC37FF0679 TIMESTAMP DUP5 PUSH1 0x40 MLOAD PUSH2 0x488 SWAP3 SWAP2 SWAP1 PUSH2 0xA54 JUMP JUMPDEST PUSH1 0x40 MLOAD DUP1 SWAP2 SUB SWAP1 LOG3 POP JUMP JUMPDEST PUSH1 0x0 DUP1 PUSH1 0x0 SWAP1 SLOAD SWAP1 PUSH2 0x100 EXP SWAP1 DIV PUSH20 0xFFFFFFFFFFFFFFFFFFFFFFFFFFFFFFFFFFFFFFFF AND SWAP1 POP SWAP1 JUMP JUMPDEST PUSH2 0x4C4 PUSH2 0x566 JUMP JUMPDEST PUSH1 0x0 PUSH20 0xFFFFFFFFFFFFFFFFFFFFFFFFFFFFFFFFFFFFFFFF AND DUP2 PUSH20 0xFFFFFFFFFFFFFFFFFFFFFFFFFFFFFFFFFFFFFFFF AND SUB PUSH2 0x536 JUMPI PUSH1 0x0 PUSH1 0x40 MLOAD PUSH32 0x1E4FBDF700000000000000000000000000000000000000000000000000000000 DUP2 MSTORE PUSH1 0x4 ADD PUSH2 0x52D SWAP2 SWAP1 PUSH2 0x72E JUMP JUMPDEST PUSH1 0x40 MLOAD DUP1 SWAP2 SUB SWAP1 REVERT JUMPDEST PUSH2 0x53F DUP2 PUSH2 0x5ED JUMP JUMPDEST POP JUMP JUMPDEST PUSH32 0x0 DUP2 JUMP JUMPDEST PUSH2 0x56E PUSH2 0x6B1 JUMP JUMPDEST PUSH20 0xFFFFFFFFFFFFFFFFFFFFFFFFFFFFFFFFFFFFFFFF AND PUSH2 0x58C PUSH2 0x493 JUMP JUMPDEST PUSH20 0xFFFFFFFFFFFFFFFFFFFFFFFFFFFFFFFFFFFFFFFF AND EQ PUSH2 0x5EB JUMPI PUSH2 0x5AF PUSH2 0x6B1 JUMP JUMPDEST PUSH1 0x40 MLOAD PUSH32 0x118CDAA700000000000000000000000000000000000000000000000000000000 DUP2 MSTORE PUSH1 0x4 ADD PUSH2 0x5E2 SWAP2 SWAP1 PUSH2 0x72E JUMP JUMPDEST PUSH1 0x40 MLOAD DUP1 SWAP2 SUB SWAP1 REVERT JUMPDEST JUMP JUMPDEST PUSH1 0x0 DUP1 PUSH1 0x0 SWAP1 SLOAD SWAP1 PUSH2 0x100 EXP SWAP1 DIV PUSH20 0xFFFFFFFFFFFFFFFFFFFFFFFFFFFFFFFFFFFFFFFF AND SWAP1 POP DUP2 PUSH1 0x0 DUP1 PUSH2 0x100 EXP DUP2 SLOAD DUP2 PUSH20 0xFFFFFFFFFFFFFFFFFFFFFFFFFFFFFFFFFFFFFFFF MUL NOT AND SWAP1 DUP4 PUSH20 0xFFFFFFFFFFFFFFFFFFFFFFFFFFFFFFFFFFFFFFFF AND MUL OR SWAP1 SSTORE POP DUP2 PUSH20 0xFFFFFFFFFFFFFFFFFFFFFFFFFFFFFFFFFFFFFFFF AND DUP2 PUSH20 0xFFFFFFFFFFFFFFFFFFFFFFFFFFFFFFFFFFFFFFFF AND PUSH32 0x8BE0079C531659141344CD1FD0A4F28419497F9722A3DAAFE3B4186F6B6457E0 PUSH1 0x40 MLOAD PUSH1 0x40 MLOAD DUP1 SWAP2 SUB SWAP1 LOG3 POP POP JUMP JUMPDEST PUSH1 0x0 CALLER SWAP1 POP SWAP1 JUMP JUMPDEST PUSH1 0x0 DUP2 SWAP1 POP SWAP2 SWAP1 POP JUMP JUMPDEST PUSH2 0x6CC DUP2 PUSH2 0x6B9 JUMP JUMPDEST DUP3 MSTORE POP POP JUMP JUMPDEST PUSH1 0x0 PUSH1 0x20 DUP3 ADD SWAP1 POP PUSH2 0x6E7 PUSH1 0x0 DUP4 ADD DUP5 PUSH2 0x6C3 JUMP JUMPDEST SWAP3 SWAP2 POP POP JUMP JUMPDEST PUSH1 0x0 PUSH20 0xFFFFFFFFFFFFFFFFFFFFFFFFFFFFFFFFFFFFFFFF DUP3 AND SWAP1 POP SWAP2 SWAP1 POP JUMP JUMPDEST PUSH1 0x0 PUSH2 0x718 DUP3 PUSH2 0x6ED JUMP JUMPDEST SWAP1 POP SWAP2 SWAP1 POP JUMP JUMPDEST PUSH2 0x728 DUP2 PUSH2 0x70D JUMP JUMPDEST DUP3 MSTORE POP POP JUMP JUMPDEST PUSH1 0x0 PUSH1 0x20 DUP3 ADD SWAP1 POP PUSH2 0x743 PUSH1 0x0 DUP4 ADD DUP5 PUSH2 0x71F JUMP JUMPDEST SWAP3 SWAP2 POP POP JUMP JUMPDEST PUSH1 0x0 DUP1 REVERT JUMPDEST PUSH2 0x757 DUP2 PUSH2 0x70D JUMP JUMPDEST DUP2 EQ PUSH2 0x762 JUMPI PUSH1 0x0 DUP1 REVERT JUMPDEST POP JUMP JUMPDEST PUSH1 0x0 DUP2 CALLDATALOAD SWAP1 POP PUSH2 0x774 DUP2 PUSH2 0x74E JUMP JUMPDEST SWAP3 SWAP2 POP POP JUMP JUMPDEST PUSH1 0x0 PUSH1 0x20 DUP3 DUP5 SUB SLT ISZERO PUSH2 0x790 JUMPI PUSH2 0x78F PUSH2 0x749 JUMP JUMPDEST JUMPDEST PUSH1 0x0 PUSH2 0x79E DUP5 DUP3 DUP6 ADD PUSH2 0x765 JUMP JUMPDEST SWAP2 POP POP SWAP3 SWAP2 POP POP JUMP JUMPDEST PUSH1 0x0 DUP2 SWAP1 POP SWAP2 SWAP1 POP JUMP JUMPDEST PUSH1 0x0 PUSH2 0x7CC PUSH2 0x7C7 PUSH2 0x7C2 DUP5 PUSH2 0x6ED JUMP JUMPDEST PUSH2 0x7A7 JUMP JUMPDEST PUSH2 0x6ED JUMP JUMPDEST SWAP1 POP SWAP2 SWAP1 POP JUMP JUMPDEST PUSH1 0x0 PUSH2 0x7DE DUP3 PUSH2 0x7B1 JUMP JUMPDEST SWAP1 POP SWAP2 SWAP1 POP JUMP JUMPDEST PUSH1 0x0 PUSH2 0x7F0 DUP3 PUSH2 0x7D3 JUMP JUMPDEST SWAP1 POP SWAP2 SWAP1 POP JUMP JUMPDEST PUSH2 0x800 DUP2 PUSH2 0x7E5 JUMP JUMPDEST DUP3 MSTORE POP POP JUMP JUMPDEST PUSH1 0x0 PUSH1 0x20 DUP3 ADD SWAP1 POP PUSH2 0x81B PUSH1 0x0 DUP4 ADD DUP5 PUSH2 0x7F7 JUMP JUMPDEST SWAP3 SWAP2 POP POP JUMP JUMPDEST PUSH32 0x4E487B7100000000000000000000000000000000000000000000000000000000 PUSH1 0x0 MSTORE PUSH1 0x11 PUSH1 0x4 MSTORE PUSH1 0x24 PUSH1 0x0 REVERT JUMPDEST PUSH1 0x0 PUSH2 0x85B DUP3 PUSH2 0x6B9 JUMP JUMPDEST SWAP2 POP PUSH2 0x866 DUP4 PUSH2 0x6B9 JUMP JUMPDEST SWAP3 POP DUP3 DUP3 ADD SWAP1 POP DUP1 DUP3 GT ISZERO PUSH2 0x87E JUMPI PUSH2 0x87D PUSH2 0x821 JUMP JUMPDEST JUMPDEST SWAP3 SWAP2 POP POP JUMP JUMPDEST PUSH1 0x0 DUP3 DUP3 MSTORE PUSH1 0x20 DUP3 ADD SWAP1 POP SWAP3 SWAP2 POP POP JUMP JUMPDEST PUSH32 0x546F6B656E4C6F636B3A206C6F636B2074696D65206E6F742065787069726564 PUSH1 0x0 DUP3 ADD MSTORE POP JUMP JUMPDEST PUSH1 0x0 PUSH2 0x8CB PUSH1 0x20 DUP4 PUSH2 0x884 JUMP JUMPDEST SWAP2 POP PUSH2 0x8D6 DUP3 PUSH2 0x895 JUMP JUMPDEST PUSH1 0x20 DUP3 ADD SWAP1 POP SWAP2 SWAP1 POP JUMP JUMPDEST PUSH1 0x0 PUSH1 0x20 DUP3 ADD SWAP1 POP DUP2 DUP2 SUB PUSH1 0x0 DUP4 ADD MSTORE PUSH2 0x8FA DUP2 PUSH2 0x8BE JUMP JUMPDEST SWAP1 POP SWAP2 SWAP1 POP JUMP JUMPDEST PUSH2 0x90A DUP2 PUSH2 0x6B9 JUMP JUMPDEST DUP2 EQ PUSH2 0x915 JUMPI PUSH1 0x0 DUP1 REVERT JUMPDEST POP JUMP JUMPDEST PUSH1 0x0 DUP2 MLOAD SWAP1 POP PUSH2 0x927 DUP2 PUSH2 0x901 JUMP JUMPDEST SWAP3 SWAP2 POP POP JUMP JUMPDEST PUSH1 0x0 PUSH1 0x20 DUP3 DUP5 SUB SLT ISZERO PUSH2 0x943 JUMPI PUSH2 0x942 PUSH2 0x749 JUMP JUMPDEST JUMPDEST PUSH1 0x0 PUSH2 0x951 DUP5 DUP3 DUP6 ADD PUSH2 0x918 JUMP JUMPDEST SWAP2 POP POP SWAP3 SWAP2 POP POP JUMP JUMPDEST PUSH32 0x546F6B656E4C6F636B3A206E6F20746F6B656E7320746F2072656C6561736500 PUSH1 0x0 DUP3 ADD MSTORE POP JUMP JUMPDEST PUSH1 0x0 PUSH2 0x990 PUSH1 0x1F DUP4 PUSH2 0x884 JUMP JUMPDEST SWAP2 POP PUSH2 0x99B DUP3 PUSH2 0x95A JUMP JUMPDEST PUSH1 0x20 DUP3 ADD SWAP1 POP SWAP2 SWAP1 POP JUMP JUMPDEST PUSH1 0x0 PUSH1 0x20 DUP3 ADD SWAP1 POP DUP2 DUP2 SUB PUSH1 0x0 DUP4 ADD MSTORE PUSH2 0x9BF DUP2 PUSH2 0x983 JUMP JUMPDEST SWAP1 POP SWAP2 SWAP1 POP JUMP JUMPDEST PUSH1 0x0 PUSH1 0x40 DUP3 ADD SWAP1 POP PUSH2 0x9DB PUSH1 0x0 DUP4 ADD DUP6 PUSH2 0x71F JUMP JUMPDEST PUSH2 0x9E8 PUSH1 0x20 DUP4 ADD DUP5 PUSH2 0x6C3 JUMP JUMPDEST SWAP4 SWAP3 POP POP POP JUMP JUMPDEST PUSH1 0x0 DUP2 ISZERO ISZERO SWAP1 POP SWAP2 SWAP1 POP JUMP JUMPDEST PUSH2 0xA04 DUP2 PUSH2 0x9EF JUMP JUMPDEST DUP2 EQ PUSH2 0xA0F JUMPI PUSH1 0x0 DUP1 REVERT JUMPDEST POP JUMP JUMPDEST PUSH1 0x0 DUP2 MLOAD SWAP1 POP PUSH2 0xA21 DUP2 PUSH2 0x9FB JUMP JUMPDEST SWAP3 SWAP2 POP POP JUMP JUMPDEST PUSH1 0x0 PUSH1 0x20 DUP3 DUP5 SUB SLT ISZERO PUSH2 0xA3D JUMPI PUSH2 0xA3C PUSH2 0x749 JUMP JUMPDEST JUMPDEST PUSH1 0x0 PUSH2 0xA4B DUP5 DUP3 DUP6 ADD PUSH2 0xA12 JUMP JUMPDEST SWAP2 POP POP SWAP3 SWAP2 POP POP JUMP JUMPDEST PUSH1 0x0 PUSH1 0x40 DUP3 ADD SWAP1 POP PUSH2 0xA69 PUSH1 0x0 DUP4 ADD DUP6 PUSH2 0x6C3 JUMP JUMPDEST PUSH2 0xA76 PUSH1 0x20 DUP4 ADD DUP5 PUSH2 0x6C3 JUMP JUMPDEST SWAP4 SWAP3 POP POP POP JUMP INVALID LOG2 PUSH5 0x6970667358 0x22 SLT KECCAK256 0xC8 0xE1 TLOAD LT DUP15 CALLDATACOPY 0xBD MCOPY 0xBB PUSH28 0x9C40B8C1B535264A4FD5DC7BFABCCCDC5C3CE201AA8664736F6C6343 STOP ADDMOD XOR STOP CALLER LOG2 PUSH5 0x6970667358 0x22 SLT KECCAK256 0xD9 ADDMOD 0xC8 0x21 0x29 0xA5 SELFDESTRUCT DUP11 SHR 0x2B BLOCKHASH 0xA6 SWAP4 0xE9 ADDMOD 0xB9 0xAF 0xCF CALLER 0xEB SWAP5 0xD3 0xF7 LOG2 0xB2 SWAP8 0xB4 DUP5 0xEB GT 0xE7 0xCE PUSH5 0x736F6C6343 STOP ADDMOD XOR STOP CALLER "},"methodIdentifiers":{"deployedLocks(address,uint256)":"0534f358","getAddressCreate2(bytes,uint256)":"9f886f26","getBytecode(address,uint256,uint256)":"17244e4c","getdeployedLocks(address)":"25c77b7b","getdeployedLocksLen(address)":"b90060d4","newLock(address,uint256,uint256)":"c9a151a1"}}}}}