{"contracts/fair-launch/ThrustpadFairLaunch.sol":{"ThrustpadFairLaunch":{"abi":[{"inputs":[{"components":[{"internalType":"address","name":"token","type":"address"},{"internalType":"uint256","name":"softCap","type":"uint256"},{"internalType":"uint256","name":"hardCap","type":"uint256"},{"internalType":"uint256","name":"amountForSale","type":"uint256"},{"internalType":"uint256","name":"listingRate","type":"uint256"},{"internalType":"uint256","name":"minimumBuy","type":"uint256"},{"internalType":"uint256","name":"maximumBuy","type":"uint256"},{"internalType":"uint256","name":"percentageForLiquidity","type":"uint256"},{"internalType":"uint256","name":"percentageForTeam","type":"uint256"},{"internalType":"uint256","name":"startDate","type":"uint256"},{"internalType":"uint256","name":"endDate","type":"uint256"}],"internalType":"struct FairLaunchConfig","name":"_config","type":"tuple"},{"internalType":"address","name":"_owner","type":"address"}],"stateMutability":"nonpayable","type":"constructor"},{"inputs":[{"internalType":"address","name":"owner","type":"address"}],"name":"OwnableInvalidOwner","type":"error"},{"inputs":[{"internalType":"address","name":"account","type":"address"}],"name":"OwnableUnauthorizedAccount","type":"error"},{"inputs":[],"name":"ReentrancyGuardReentrantCall","type":"error"},{"anonymous":false,"inputs":[{"indexed":true,"internalType":"address","name":"owner","type":"address"},{"indexed":true,"internalType":"address","name":"pair","type":"address"},{"indexed":false,"internalType":"uint256","name":"amountLPTokens","type":"uint256"}],"name":"LPTokensClaimed","type":"event"},{"anonymous":false,"inputs":[{"indexed":true,"internalType":"uint256","name":"tokenId","type":"uint256"},{"indexed":false,"internalType":"uint256","name":"liquidity","type":"uint256"}],"name":"LiquidityDeployed","type":"event"},{"anonymous":false,"inputs":[{"indexed":true,"internalType":"address","name":"previousOwner","type":"address"},{"indexed":true,"internalType":"address","name":"newOwner","type":"address"}],"name":"OwnershipTransferred","type":"event"},{"anonymous":false,"inputs":[{"indexed":true,"internalType":"address","name":"buyer","type":"address"},{"indexed":true,"internalType":"address","name":"token","type":"address"},{"indexed":false,"internalType":"uint256","name":"amountInEdu","type":"uint256"}],"name":"Refund","type":"event"},{"anonymous":false,"inputs":[{"indexed":true,"internalType":"address","name":"team","type":"address"},{"indexed":true,"internalType":"address","name":"token","type":"address"},{"indexed":false,"internalType":"uint256","name":"amountInToken","type":"uint256"}],"name":"TeamClaimed","type":"event"},{"anonymous":false,"inputs":[{"indexed":true,"internalType":"address","name":"buyer","type":"address"},{"indexed":true,"internalType":"address","name":"token","type":"address"},{"indexed":false,"internalType":"uint256","name":"amountInEdu","type":"uint256"}],"name":"TokenBought","type":"event"},{"anonymous":false,"inputs":[{"indexed":true,"internalType":"address","name":"buyer","type":"address"},{"indexed":true,"internalType":"address","name":"token","type":"address"},{"indexed":false,"internalType":"uint256","name":"amountInToken","type":"uint256"}],"name":"TokenClaimed","type":"event"},{"inputs":[],"name":"LPTokenAddress","outputs":[{"internalType":"address","name":"","type":"address"}],"stateMutability":"view","type":"function"},{"inputs":[],"name":"NFTManager","outputs":[{"internalType":"address","name":"","type":"address"}],"stateMutability":"view","type":"function"},{"inputs":[],"name":"V3Factory","outputs":[{"internalType":"address","name":"","type":"address"}],"stateMutability":"view","type":"function"},{"inputs":[],"name":"WEDU","outputs":[{"internalType":"address","name":"","type":"address"}],"stateMutability":"view","type":"function"},{"inputs":[],"name":"buyToken","outputs":[],"stateMutability":"payable","type":"function"},{"inputs":[],"name":"claimRefund","outputs":[],"stateMutability":"nonpayable","type":"function"},{"inputs":[],"name":"claimTokens","outputs":[],"stateMutability":"nonpayable","type":"function"},{"inputs":[{"internalType":"address","name":"","type":"address"}],"name":"claimed","outputs":[{"internalType":"uint256","name":"","type":"uint256"}],"stateMutability":"view","type":"function"},{"inputs":[],"name":"config","outputs":[{"internalType":"address","name":"token","type":"address"},{"internalType":"uint256","name":"softCap","type":"uint256"},{"internalType":"uint256","name":"hardCap","type":"uint256"},{"internalType":"uint256","name":"amountForSale","type":"uint256"},{"internalType":"uint256","name":"listingRate","type":"uint256"},{"internalType":"uint256","name":"minimumBuy","type":"uint256"},{"internalType":"uint256","name":"maximumBuy","type":"uint256"},{"internalType":"uint256","name":"percentageForLiquidity","type":"uint256"},{"internalType":"uint256","name":"percentageForTeam","type":"uint256"},{"internalType":"uint256","name":"startDate","type":"uint256"},{"internalType":"uint256","name":"endDate","type":"uint256"}],"stateMutability":"view","type":"function"},{"inputs":[{"internalType":"address","name":"token0","type":"address"},{"internalType":"address","name":"token1","type":"address"},{"internalType":"uint16","name":"feeTier","type":"uint16"},{"internalType":"uint160","name":"sqrtPriceX96","type":"uint160"}],"name":"deployLiquidity","outputs":[],"stateMutability":"nonpayable","type":"function"},{"inputs":[{"internalType":"uint256","name":"_amount","type":"uint256"}],"name":"emergencyTransferEDU","outputs":[],"stateMutability":"nonpayable","type":"function"},{"inputs":[{"internalType":"address","name":"_token","type":"address"},{"internalType":"uint256","name":"_amount","type":"uint256"}],"name":"emergencyTransferTokens","outputs":[],"stateMutability":"nonpayable","type":"function"},{"inputs":[],"name":"liquidityDeployed","outputs":[{"internalType":"bool","name":"","type":"bool"}],"stateMutability":"view","type":"function"},{"inputs":[],"name":"owner","outputs":[{"internalType":"address","name":"","type":"address"}],"stateMutability":"view","type":"function"},{"inputs":[{"internalType":"address","name":"","type":"address"}],"name":"purchaseHistory","outputs":[{"internalType":"uint256","name":"","type":"uint256"}],"stateMutability":"view","type":"function"},{"inputs":[],"name":"renounceOwnership","outputs":[],"stateMutability":"nonpayable","type":"function"},{"inputs":[],"name":"teamClaimed","outputs":[{"internalType":"bool","name":"","type":"bool"}],"stateMutability":"view","type":"function"},{"inputs":[],"name":"totalContributors","outputs":[{"internalType":"uint256","name":"","type":"uint256"}],"stateMutability":"view","type":"function"},{"inputs":[],"name":"totalSold","outputs":[{"internalType":"uint256","name":"","type":"uint256"}],"stateMutability":"view","type":"function"},{"inputs":[{"internalType":"address","name":"newOwner","type":"address"}],"name":"transferOwnership","outputs":[],"stateMutability":"nonpayable","type":"function"},{"inputs":[],"name":"withdrawTeamTokens","outputs":[],"stateMutability":"nonpayable","type":"function"},{"stateMutability":"payable","type":"receive"}],"evm":{"bytecode":{"linkReferences":{},"object":"6080346200022057601f62001a3538819003918201601f1916830192916001600160401b039190828511848610176200020a578084926040968752833981010392610180841262000220576101608094126200022057805191848301908111838210176200020a578152620000748362000225565b82526020830151602083019081528184015182840190815260608501516060850190815260808601516080860190815260a08701519160a0870192835260c08801519360c0880194855260e08901519560e0890196875261010097888b0151988a01988952610120998a8c01519a81019a8b526101409b8c8101519c82019c8d526200010a60018060a01b039e8f920162000225565b168015620001f257600080546001600160a01b03198082168417835594519f939291908416907f8be0079c531659141344cd1fd0a4f28419497f9722a3daafe3b4186f6b6457e09080a36001805573a9cbef0c9274f985340816ed2074abf5aac2546383601254161760125573135e304139c5113895c97dce8b9eda56d4b53cf983601354161760135573b5cab4e42cb5f16d00c644cb7163f8b427d7a8bf83601454161760145551169060025416176002555160035551600455516005555160065551600755516008555160095551600a5551600b5551600c556117fa90816200023b8239f35b8251631e4fbdf760e01b815260006004820152602490fd5b634e487b7160e01b600052604160045260246000fd5b600080fd5b51906001600160a01b0382168203620002205756fe6080604052600436101561001b575b361561001957600080fd5b005b60003560e01c8063162d216714610c445780632f33465214610c1e57806348c54b9d14610af057806362eba8b014610ac9578063715018a614610a6357806379502c55146109e35780637d7cf6c5146109bc5780638da5cb5b146109955780639106d7ba14610977578063948da010146108e0578063953b7ef8146107b357806397d569971461078c5780639c5913cc14610769578063a4821719146103e3578063b5545a3c146102ca578063c3828bf0146102a0578063c884ef8314610266578063d812195c14610210578063e45f2b8a146101d6578063f251fc8c146101b85763f2fde38b0361000e57346101b35760203660031901126101b3576101206112fd565b6101286115b3565b6001600160a01b03809116908115610182576000548273ffffffffffffffffffffffffffffffffffffffff19821617600055167f8be0079c531659141344cd1fd0a4f28419497f9722a3daafe3b4186f6b6457e0600080a3005b60246040517f1e4fbdf700000000000000000000000000000000000000000000000000000000815260006004820152fd5b600080fd5b346101b35760003660031901126101b3576020600e54604051908152f35b346101b35760203660031901126101b3576001600160a01b036101f76112fd565b1660005260106020526020604060002054604051908152f35b346101b35760203660031901126101b35760008080806004356102316115b3565b61023f600c544210156114ff565b81811561025d575b3390f11561025157005b6040513d6000823e3d90fd5b506108fc610247565b346101b35760203660031901126101b3576001600160a01b036102876112fd565b1660005260116020526020604060002054604051908152f35b346101b35760003660031901126101b35760206001600160a01b03600f5460101c16604051908152f35b346101b35760003660031901126101b3576102e36115f7565b6102f1600c54421015611313565b600d546003541115610391573360005260116020526103156040600020541561148e565b3360005260106020526040600020546011602052806040600020558060008115610388575b600080809381933390f115610251576001600160a01b0360025416906040519081527ff40cc8c1a1d17359049ba500cfc894596a692cffc9d03943cd92ec2e159cf6ae60203392a360018055005b506108fc61033a565b608460405162461bcd60e51b815260206004820152602560248201527f546872757374706164466169724c61756e63683a20736f6674206361702072656044820152641858da195960da1b6064820152fd5b60003660031901126101b357600b544210156104816104014261164e565b916040519061047c604f836020967f546872757374706164466169724c61756e63683a2073616c6520686173206e6f888301527f742073746172746564207965743a200000000000000000000000000000000000604083015261046c815180928a868601910161154a565b810103602f8101855201836113f5565b61156d565b61050b600c544211156104934261164e565b9061047c604560405180947f546872757374706164466169724c61756e63683a2073616c652068617320656e888301527f6465643a2000000000000000000000000000000000000000000000000000000060408301526104fb815180928a868601910161154a565b81010360258101855201836113f5565b60075434106106ff5760085480341161069557600d549061052c3483611481565b6004541061064357336000526010835261054b34604060002054611481565b116105d95761055b903490611481565b600d55600e54600181018091116105c357600e5533600052601081526040600020610587348254611481565b90556001600160a01b0360025416907f9b24bd0884170cbce51f9f00df6b3f9aed2231e4086241d1d04687b42afdf7b9604051913483523392a3005b634e487b7160e01b600052601160045260246000fd5b6084826040519062461bcd60e51b82526004820152603360248201527f546872757374706164466169724c61756e63683a2077616c6c6574206861732060448201527f72656163686564206d6178696d756d20627579000000000000000000000000006064820152fd5b6084836040519062461bcd60e51b82526004820152602560248201527f546872757374706164466169724c61756e63683a2068617264206361702072656044820152641858da195960da1b6064820152fd5b6084826040519062461bcd60e51b82526004820152603460248201527f546872757374706164466169724c61756e63683a20616d6f756e74206973206d60448201527f6f7265207468616e206d6178696d756d206275790000000000000000000000006064820152fd5b6084906040519062461bcd60e51b82526004820152603460248201527f546872757374706164466169724c61756e63683a20616d6f756e74206973206c60448201527f657373207468616e206d696e696d756d206275790000000000000000000000006064820152fd5b346101b35760003660031901126101b357602060ff600f54166040519015158152f35b346101b35760003660031901126101b35760206001600160a01b0360145416604051908152f35b346101b35760003660031901126101b3576107cc6115b3565b6107da600c54421015611313565b600d546107eb600354821015611384565b600f549060ff8260081c1661087657606461080b61010092600a5461144e565b049161ff00191617600f556001600160a01b036000808080858582541682821561086d575bf115610251577fa95e69983c44f17474cba286953deb119463b9f5cb8cfde4fd709df3660266f760208260005416926002541693604051908152a3005b506108fc610830565b608460405162461bcd60e51b815260206004820152603060248201527f546872757374706164466169724c61756e63683a207465616d20746f6b656e7360448201527f20616c726561647920636c61696d6564000000000000000000000000000000006064820152fd5b346101b35760403660031901126101b3576108f96112fd565b6109016115b3565b61090f600c544210156114ff565b60405163a9059cbb60e01b8152336004820152602480359082015290602090829060449082906000906001600160a01b03165af180156102515761094f57005b6100199060203d602011610970575b61096881836113f5565b810190611436565b503d61095e565b346101b35760003660031901126101b3576020600d54604051908152f35b346101b35760003660031901126101b35760206001600160a01b0360005416604051908152f35b346101b35760003660031901126101b35760206001600160a01b0360135416604051908152f35b346101b35760003660031901126101b3576101606001600160a01b03600254166003546004546005546006546007546008549060095492600a5494600b5496600c54986040519a8b5260208b015260408a01526060890152608088015260a087015260c086015260e0850152610100840152610120830152610140820152f35b346101b35760003660031901126101b357610a7c6115b3565b60006001600160a01b03815473ffffffffffffffffffffffffffffffffffffffff1981168355167f8be0079c531659141344cd1fd0a4f28419497f9722a3daafe3b4186f6b6457e08280a3005b346101b35760003660031901126101b35760206001600160a01b0360125416604051908152f35b346101b35760003660031901126101b357610b096115f7565b610b17600c54421015611313565b610b27600d546003541115611384565b33600052602060118152610b406040600020541561148e565b610b65610b5260055460045490611461565b336000526010835260406000205461144e565b3360005260118252806040600020556001600160a01b0380600254169083604051809363a9059cbb60e01b825281600081610bba893360048401602090939291936001600160a01b0360408201951681520152565b03925af1918215610251577f4831bdd9dcf3048a28319ce81d3cab7a15366bcf449bc7803a539107440809cc92610c01575b5060025416926040519283523392a360018055005b610c1790853d87116109705761096881836113f5565b5084610bec565b346101b35760003660031901126101b357602060ff600f5460081c166040519015158152f35b346101b35760803660031901126101b357610c5d6112fd565b6024356001600160a01b03811681036101b35760443561ffff811681036101b3576064356001600160a01b03811681036101b357610c996115b3565b610ca7600c54421015611313565b610cb7600d546003541115611384565b6001600160a01b0360145416906001600160a01b03601254169160206001600160a01b036002541660646001600160a01b03601354169160405194859384927f1698ee820000000000000000000000000000000000000000000000000000000084526004840152602483015261ffff891660448301525afa8015610251576001600160a01b03916000916112de575b5016611274576001600160a01b036084602092600060405195869485937f13ead562000000000000000000000000000000000000000000000000000000008552818c166004860152818b16602486015261ffff8a1660448601521660648401525af1801561025157611245575b50600060206001600160a01b036002541660446001600160a01b036012541660405194859384927f095ea7b30000000000000000000000000000000000000000000000000000000084526004840152811960248401525af1801561025157611226575b506001600160a01b036002541692604051937f313ce567000000000000000000000000000000000000000000000000000000008552602085600481845afa948515610251576000956111e8575b50610e90610e8a6064610e7b600954600d549061144e565b049660ff600654911690611461565b8661144e565b946001600160a01b036012541695826001600160a01b038516146000146111e15780925b6001600160a01b038716036111da575b61012c420142116105c357604051928361016081011067ffffffffffffffff610160860111176111c45761ffff610140966001600160a01b0360809981610164996101608a01604052168852166020870152166040850152620d89b3196060850152620d89b48785015260a084015260c0830152600060e083015260006101008301523361012083015261012c42018483015260405195869485937f883164560000000000000000000000000000000000000000000000000000000085526001600160a01b0381511660048601526001600160a01b03602082015116602486015262ffffff6040820151166044860152606081015160020b60648601528781015160020b608486015260a081015160a486015260c081015160c486015260e081015160e48601526101008101516101048601526001600160a01b036101208201511661012486015201516101448401525af1801561025157600091600091611170575b506001600160a01b03600254166040517f70a08231000000000000000000000000000000000000000000000000000000008152306004820152602081602481855afa9081156102515760009161113e575b50806110bf575b837fcd9786339b2475ad263433c45f6538d0c19eb978a2e5cd7c621a24ee4c4e29c66020856fffffffffffffffffffffffffffffffff60405191168152a2005b600092916044602092604051958693849263a9059cbb60e01b845261dead600485015260248401525af1908115610251577fcd9786339b2475ad263433c45f6538d0c19eb978a2e5cd7c621a24ee4c4e29c692602092611121575b509161107f565b61113790833d85116109705761096881836113f5565b508461111a565b90506020813d602011611168575b81611159602093836113f5565b810103126101b3575184611078565b3d915061114c565b9150506080813d6080116111bc575b8161118c608093836113f5565b810103126101b35760208151910151906fffffffffffffffffffffffffffffffff821682036101b3579082611027565b3d915061117f565b634e487b7160e01b600052604160045260246000fd5b5080610ec4565b8192610eb4565b9094506020813d60201161121e575b81611204602093836113f5565b810103126101b3575160ff811681036101b3579385610e63565b3d91506111f7565b61123e9060203d6020116109705761096881836113f5565b5083610e16565b6112669060203d60201161126d575b61125e81836113f5565b810190611417565b5083610db3565b503d611254565b608460405162461bcd60e51b815260206004820152602860248201527f546872757374706164466169724c61756e63683a205061697220616c7265616460448201527f79206578697374730000000000000000000000000000000000000000000000006064820152fd5b6112f7915060203d60201161126d5761125e81836113f5565b87610d46565b600435906001600160a01b03821682036101b357565b1561131a57565b608460405162461bcd60e51b815260206004820152602b60248201527f546872757374706164466169724c61756e63683a2073616c6520686173206e6f60448201527f7420656e646564207965740000000000000000000000000000000000000000006064820152fd5b1561138b57565b608460405162461bcd60e51b815260206004820152602960248201527f546872757374706164466169724c61756e63683a20736f667420636170206e6f60448201527f74207265616368656400000000000000000000000000000000000000000000006064820152fd5b90601f8019910116810190811067ffffffffffffffff8211176111c457604052565b908160209103126101b357516001600160a01b03811681036101b35790565b908160209103126101b3575180151581036101b35790565b818102929181159184041417156105c357565b811561146b570490565b634e487b7160e01b600052601260045260246000fd5b919082018092116105c357565b1561149557565b608460405162461bcd60e51b815260206004820152602b60248201527f546872757374706164466169724c61756e63683a20746f6b656e7320616c726560448201527f61647920636c61696d65640000000000000000000000000000000000000000006064820152fd5b1561150657565b606460405162461bcd60e51b815260206004820152601660248201527f53616c6520686173206e6f7420656e64656420796574000000000000000000006044820152fd5b60005b83811061155d5750506000910152565b818101518382015260200161154d565b156115755750565b6044604051809262461bcd60e51b8252602060048301526115a5815180928160248601526020868601910161154a565b601f01601f19168101030190fd5b6001600160a01b036000541633036115c757565b60246040517f118cdaa7000000000000000000000000000000000000000000000000000000008152336004820152fd5b600260015414611608576002600155565b60046040517f3ee5aeb5000000000000000000000000000000000000000000000000000000008152fd5b67ffffffffffffffff81116111c457601f01601f191660200190565b806000917a184f03e93ff9f4daa797ed6e38ed64bf6a1f010000000000000000808210156117b6575b506d04ee2d6d415b85acef8100000000808310156117a7575b50662386f26fc1000080831015611798575b506305f5e10080831015611789575b506127108083101561177a575b50606482101561176a575b600a80921015611760575b60019081602160018601956116e887611632565b966116f660405198896113f5565b808852611705601f1991611632565b01366020890137860101905b61171d575b5050505090565b600019019083907f30313233343536373839616263646566000000000000000000000000000000008282061a83530491821561175b57919082611711565b611716565b91600101916116d4565b91906064600291049101916116c9565b600491939204910191386116be565b600891939204910191386116b1565b601091939204910191386116a2565b60209193920491019138611690565b60409350810491503861167756fea2646970667358221220de406f27365bade0b0bc6e8f2fb1757a119e92379d858c2b9cab999a4421766964736f6c63430008180033","opcodes":"PUSH1 0x80 CALLVALUE PUSH3 0x220 JUMPI PUSH1 0x1F PUSH3 0x1A35 CODESIZE DUP2 SWAP1 SUB SWAP2 DUP3 ADD PUSH1 0x1F NOT AND DUP4 ADD SWAP3 SWAP2 PUSH1 0x1 PUSH1 0x1 PUSH1 0x40 SHL SUB SWAP2 SWAP1 DUP3 DUP6 GT DUP5 DUP7 LT OR PUSH3 0x20A JUMPI DUP1 DUP5 SWAP3 PUSH1 0x40 SWAP7 DUP8 MSTORE DUP4 CODECOPY DUP2 ADD SUB SWAP3 PUSH2 0x180 DUP5 SLT PUSH3 0x220 JUMPI PUSH2 0x160 DUP1 SWAP5 SLT PUSH3 0x220 JUMPI DUP1 MLOAD SWAP2 DUP5 DUP4 ADD SWAP1 DUP2 GT DUP4 DUP3 LT OR PUSH3 0x20A JUMPI DUP2 MSTORE PUSH3 0x74 DUP4 PUSH3 0x225 JUMP JUMPDEST DUP3 MSTORE PUSH1 0x20 DUP4 ADD MLOAD PUSH1 0x20 DUP4 ADD SWAP1 DUP2 MSTORE DUP2 DUP5 ADD MLOAD DUP3 DUP5 ADD SWAP1 DUP2 MSTORE PUSH1 0x60 DUP6 ADD MLOAD PUSH1 0x60 DUP6 ADD SWAP1 DUP2 MSTORE PUSH1 0x80 DUP7 ADD MLOAD PUSH1 0x80 DUP7 ADD SWAP1 DUP2 MSTORE PUSH1 0xA0 DUP8 ADD MLOAD SWAP2 PUSH1 0xA0 DUP8 ADD SWAP3 DUP4 MSTORE PUSH1 0xC0 DUP9 ADD MLOAD SWAP4 PUSH1 0xC0 DUP9 ADD SWAP5 DUP6 MSTORE PUSH1 0xE0 DUP10 ADD MLOAD SWAP6 PUSH1 0xE0 DUP10 ADD SWAP7 DUP8 MSTORE PUSH2 0x100 SWAP8 DUP9 DUP12 ADD MLOAD SWAP9 DUP11 ADD SWAP9 DUP10 MSTORE PUSH2 0x120 SWAP10 DUP11 DUP13 ADD MLOAD SWAP11 DUP2 ADD SWAP11 DUP12 MSTORE PUSH2 0x140 SWAP12 DUP13 DUP2 ADD MLOAD SWAP13 DUP3 ADD SWAP13 DUP14 MSTORE PUSH3 0x10A PUSH1 0x1 DUP1 PUSH1 0xA0 SHL SUB SWAP15 DUP16 SWAP3 ADD PUSH3 0x225 JUMP JUMPDEST AND DUP1 ISZERO PUSH3 0x1F2 JUMPI PUSH1 0x0 DUP1 SLOAD PUSH1 0x1 PUSH1 0x1 PUSH1 0xA0 SHL SUB NOT DUP1 DUP3 AND DUP5 OR DUP4 SSTORE SWAP5 MLOAD SWAP16 SWAP4 SWAP3 SWAP2 SWAP1 DUP5 AND SWAP1 PUSH32 0x8BE0079C531659141344CD1FD0A4F28419497F9722A3DAAFE3B4186F6B6457E0 SWAP1 DUP1 LOG3 PUSH1 0x1 DUP1 SSTORE PUSH20 0xA9CBEF0C9274F985340816ED2074ABF5AAC25463 DUP4 PUSH1 0x12 SLOAD AND OR PUSH1 0x12 SSTORE PUSH20 0x135E304139C5113895C97DCE8B9EDA56D4B53CF9 DUP4 PUSH1 0x13 SLOAD AND OR PUSH1 0x13 SSTORE PUSH20 0xB5CAB4E42CB5F16D00C644CB7163F8B427D7A8BF DUP4 PUSH1 0x14 SLOAD AND OR PUSH1 0x14 SSTORE MLOAD AND SWAP1 PUSH1 0x2 SLOAD AND OR PUSH1 0x2 SSTORE MLOAD PUSH1 0x3 SSTORE MLOAD PUSH1 0x4 SSTORE MLOAD PUSH1 0x5 SSTORE MLOAD PUSH1 0x6 SSTORE MLOAD PUSH1 0x7 SSTORE MLOAD PUSH1 0x8 SSTORE MLOAD PUSH1 0x9 SSTORE MLOAD PUSH1 0xA SSTORE MLOAD PUSH1 0xB SSTORE MLOAD PUSH1 0xC SSTORE PUSH2 0x17FA SWAP1 DUP2 PUSH3 0x23B DUP3 CODECOPY RETURN JUMPDEST DUP3 MLOAD PUSH4 0x1E4FBDF7 PUSH1 0xE0 SHL DUP2 MSTORE PUSH1 0x0 PUSH1 0x4 DUP3 ADD MSTORE PUSH1 0x24 SWAP1 REVERT JUMPDEST PUSH4 0x4E487B71 PUSH1 0xE0 SHL PUSH1 0x0 MSTORE PUSH1 0x41 PUSH1 0x4 MSTORE PUSH1 0x24 PUSH1 0x0 REVERT JUMPDEST PUSH1 0x0 DUP1 REVERT JUMPDEST MLOAD SWAP1 PUSH1 0x1 PUSH1 0x1 PUSH1 0xA0 SHL SUB DUP3 AND DUP3 SUB PUSH3 0x220 JUMPI JUMP INVALID PUSH1 0x80 PUSH1 0x40 MSTORE PUSH1 0x4 CALLDATASIZE LT ISZERO PUSH2 0x1B JUMPI JUMPDEST CALLDATASIZE ISZERO PUSH2 0x19 JUMPI PUSH1 0x0 DUP1 REVERT JUMPDEST STOP JUMPDEST PUSH1 0x0 CALLDATALOAD PUSH1 0xE0 SHR DUP1 PUSH4 0x162D2167 EQ PUSH2 0xC44 JUMPI DUP1 PUSH4 0x2F334652 EQ PUSH2 0xC1E JUMPI DUP1 PUSH4 0x48C54B9D EQ PUSH2 0xAF0 JUMPI DUP1 PUSH4 0x62EBA8B0 EQ PUSH2 0xAC9 JUMPI DUP1 PUSH4 0x715018A6 EQ PUSH2 0xA63 JUMPI DUP1 PUSH4 0x79502C55 EQ PUSH2 0x9E3 JUMPI DUP1 PUSH4 0x7D7CF6C5 EQ PUSH2 0x9BC JUMPI DUP1 PUSH4 0x8DA5CB5B EQ PUSH2 0x995 JUMPI DUP1 PUSH4 0x9106D7BA EQ PUSH2 0x977 JUMPI DUP1 PUSH4 0x948DA010 EQ PUSH2 0x8E0 JUMPI DUP1 PUSH4 0x953B7EF8 EQ PUSH2 0x7B3 JUMPI DUP1 PUSH4 0x97D56997 EQ PUSH2 0x78C JUMPI DUP1 PUSH4 0x9C5913CC EQ PUSH2 0x769 JUMPI DUP1 PUSH4 0xA4821719 EQ PUSH2 0x3E3 JUMPI DUP1 PUSH4 0xB5545A3C EQ PUSH2 0x2CA JUMPI DUP1 PUSH4 0xC3828BF0 EQ PUSH2 0x2A0 JUMPI DUP1 PUSH4 0xC884EF83 EQ PUSH2 0x266 JUMPI DUP1 PUSH4 0xD812195C EQ PUSH2 0x210 JUMPI DUP1 PUSH4 0xE45F2B8A EQ PUSH2 0x1D6 JUMPI DUP1 PUSH4 0xF251FC8C EQ PUSH2 0x1B8 JUMPI PUSH4 0xF2FDE38B SUB PUSH2 0xE JUMPI CALLVALUE PUSH2 0x1B3 JUMPI PUSH1 0x20 CALLDATASIZE PUSH1 0x3 NOT ADD SLT PUSH2 0x1B3 JUMPI PUSH2 0x120 PUSH2 0x12FD JUMP JUMPDEST PUSH2 0x128 PUSH2 0x15B3 JUMP JUMPDEST PUSH1 0x1 PUSH1 0x1 PUSH1 0xA0 SHL SUB DUP1 SWAP2 AND SWAP1 DUP2 ISZERO PUSH2 0x182 JUMPI PUSH1 0x0 SLOAD DUP3 PUSH20 0xFFFFFFFFFFFFFFFFFFFFFFFFFFFFFFFFFFFFFFFF NOT DUP3 AND OR PUSH1 0x0 SSTORE AND PUSH32 0x8BE0079C531659141344CD1FD0A4F28419497F9722A3DAAFE3B4186F6B6457E0 PUSH1 0x0 DUP1 LOG3 STOP JUMPDEST PUSH1 0x24 PUSH1 0x40 MLOAD PUSH32 0x1E4FBDF700000000000000000000000000000000000000000000000000000000 DUP2 MSTORE PUSH1 0x0 PUSH1 0x4 DUP3 ADD MSTORE REVERT JUMPDEST PUSH1 0x0 DUP1 REVERT JUMPDEST CALLVALUE PUSH2 0x1B3 JUMPI PUSH1 0x0 CALLDATASIZE PUSH1 0x3 NOT ADD SLT PUSH2 0x1B3 JUMPI PUSH1 0x20 PUSH1 0xE SLOAD PUSH1 0x40 MLOAD SWAP1 DUP2 MSTORE RETURN JUMPDEST CALLVALUE PUSH2 0x1B3 JUMPI PUSH1 0x20 CALLDATASIZE PUSH1 0x3 NOT ADD SLT PUSH2 0x1B3 JUMPI PUSH1 0x1 PUSH1 0x1 PUSH1 0xA0 SHL SUB PUSH2 0x1F7 PUSH2 0x12FD JUMP JUMPDEST AND PUSH1 0x0 MSTORE PUSH1 0x10 PUSH1 0x20 MSTORE PUSH1 0x20 PUSH1 0x40 PUSH1 0x0 KECCAK256 SLOAD PUSH1 0x40 MLOAD SWAP1 DUP2 MSTORE RETURN JUMPDEST CALLVALUE PUSH2 0x1B3 JUMPI PUSH1 0x20 CALLDATASIZE PUSH1 0x3 NOT ADD SLT PUSH2 0x1B3 JUMPI PUSH1 0x0 DUP1 DUP1 DUP1 PUSH1 0x4 CALLDATALOAD PUSH2 0x231 PUSH2 0x15B3 JUMP JUMPDEST PUSH2 0x23F PUSH1 0xC SLOAD TIMESTAMP LT ISZERO PUSH2 0x14FF JUMP JUMPDEST DUP2 DUP2 ISZERO PUSH2 0x25D JUMPI JUMPDEST CALLER SWAP1 CALL ISZERO PUSH2 0x251 JUMPI STOP JUMPDEST PUSH1 0x40 MLOAD RETURNDATASIZE PUSH1 0x0 DUP3 RETURNDATACOPY RETURNDATASIZE SWAP1 REVERT JUMPDEST POP PUSH2 0x8FC PUSH2 0x247 JUMP JUMPDEST CALLVALUE PUSH2 0x1B3 JUMPI PUSH1 0x20 CALLDATASIZE PUSH1 0x3 NOT ADD SLT PUSH2 0x1B3 JUMPI PUSH1 0x1 PUSH1 0x1 PUSH1 0xA0 SHL SUB PUSH2 0x287 PUSH2 0x12FD JUMP JUMPDEST AND PUSH1 0x0 MSTORE PUSH1 0x11 PUSH1 0x20 MSTORE PUSH1 0x20 PUSH1 0x40 PUSH1 0x0 KECCAK256 SLOAD PUSH1 0x40 MLOAD SWAP1 DUP2 MSTORE RETURN JUMPDEST CALLVALUE PUSH2 0x1B3 JUMPI PUSH1 0x0 CALLDATASIZE PUSH1 0x3 NOT ADD SLT PUSH2 0x1B3 JUMPI PUSH1 0x20 PUSH1 0x1 PUSH1 0x1 PUSH1 0xA0 SHL SUB PUSH1 0xF SLOAD PUSH1 0x10 SHR AND PUSH1 0x40 MLOAD SWAP1 DUP2 MSTORE RETURN JUMPDEST CALLVALUE PUSH2 0x1B3 JUMPI PUSH1 0x0 CALLDATASIZE PUSH1 0x3 NOT ADD SLT PUSH2 0x1B3 JUMPI PUSH2 0x2E3 PUSH2 0x15F7 JUMP JUMPDEST PUSH2 0x2F1 PUSH1 0xC SLOAD TIMESTAMP LT ISZERO PUSH2 0x1313 JUMP JUMPDEST PUSH1 0xD SLOAD PUSH1 0x3 SLOAD GT ISZERO PUSH2 0x391 JUMPI CALLER PUSH1 0x0 MSTORE PUSH1 0x11 PUSH1 0x20 MSTORE PUSH2 0x315 PUSH1 0x40 PUSH1 0x0 KECCAK256 SLOAD ISZERO PUSH2 0x148E JUMP JUMPDEST CALLER PUSH1 0x0 MSTORE PUSH1 0x10 PUSH1 0x20 MSTORE PUSH1 0x40 PUSH1 0x0 KECCAK256 SLOAD PUSH1 0x11 PUSH1 0x20 MSTORE DUP1 PUSH1 0x40 PUSH1 0x0 KECCAK256 SSTORE DUP1 PUSH1 0x0 DUP2 ISZERO PUSH2 0x388 JUMPI JUMPDEST PUSH1 0x0 DUP1 DUP1 SWAP4 DUP2 SWAP4 CALLER SWAP1 CALL ISZERO PUSH2 0x251 JUMPI PUSH1 0x1 PUSH1 0x1 PUSH1 0xA0 SHL SUB PUSH1 0x2 SLOAD AND SWAP1 PUSH1 0x40 MLOAD SWAP1 DUP2 MSTORE PUSH32 0xF40CC8C1A1D17359049BA500CFC894596A692CFFC9D03943CD92EC2E159CF6AE PUSH1 0x20 CALLER SWAP3 LOG3 PUSH1 0x1 DUP1 SSTORE STOP JUMPDEST POP PUSH2 0x8FC PUSH2 0x33A JUMP JUMPDEST PUSH1 0x84 PUSH1 0x40 MLOAD PUSH3 0x461BCD PUSH1 0xE5 SHL DUP2 MSTORE PUSH1 0x20 PUSH1 0x4 DUP3 ADD MSTORE PUSH1 0x25 PUSH1 0x24 DUP3 ADD MSTORE PUSH32 0x546872757374706164466169724C61756E63683A20736F667420636170207265 PUSH1 0x44 DUP3 ADD MSTORE PUSH5 0x1858DA1959 PUSH1 0xDA SHL PUSH1 0x64 DUP3 ADD MSTORE REVERT JUMPDEST PUSH1 0x0 CALLDATASIZE PUSH1 0x3 NOT ADD SLT PUSH2 0x1B3 JUMPI PUSH1 0xB SLOAD TIMESTAMP LT ISZERO PUSH2 0x481 PUSH2 0x401 TIMESTAMP PUSH2 0x164E JUMP JUMPDEST SWAP2 PUSH1 0x40 MLOAD SWAP1 PUSH2 0x47C PUSH1 0x4F DUP4 PUSH1 0x20 SWAP7 PUSH32 0x546872757374706164466169724C61756E63683A2073616C6520686173206E6F DUP9 DUP4 ADD MSTORE PUSH32 0x742073746172746564207965743A200000000000000000000000000000000000 PUSH1 0x40 DUP4 ADD MSTORE PUSH2 0x46C DUP2 MLOAD DUP1 SWAP3 DUP11 DUP7 DUP7 ADD SWAP2 ADD PUSH2 0x154A JUMP JUMPDEST DUP2 ADD SUB PUSH1 0x2F DUP2 ADD DUP6 MSTORE ADD DUP4 PUSH2 0x13F5 JUMP JUMPDEST PUSH2 0x156D JUMP JUMPDEST PUSH2 0x50B PUSH1 0xC SLOAD TIMESTAMP GT ISZERO PUSH2 0x493 TIMESTAMP PUSH2 0x164E JUMP JUMPDEST SWAP1 PUSH2 0x47C PUSH1 0x45 PUSH1 0x40 MLOAD DUP1 SWAP5 PUSH32 0x546872757374706164466169724C61756E63683A2073616C652068617320656E DUP9 DUP4 ADD MSTORE PUSH32 0x6465643A20000000000000000000000000000000000000000000000000000000 PUSH1 0x40 DUP4 ADD MSTORE PUSH2 0x4FB DUP2 MLOAD DUP1 SWAP3 DUP11 DUP7 DUP7 ADD SWAP2 ADD PUSH2 0x154A JUMP JUMPDEST DUP2 ADD SUB PUSH1 0x25 DUP2 ADD DUP6 MSTORE ADD DUP4 PUSH2 0x13F5 JUMP JUMPDEST PUSH1 0x7 SLOAD CALLVALUE LT PUSH2 0x6FF JUMPI PUSH1 0x8 SLOAD DUP1 CALLVALUE GT PUSH2 0x695 JUMPI PUSH1 0xD SLOAD SWAP1 PUSH2 0x52C CALLVALUE DUP4 PUSH2 0x1481 JUMP JUMPDEST PUSH1 0x4 SLOAD LT PUSH2 0x643 JUMPI CALLER PUSH1 0x0 MSTORE PUSH1 0x10 DUP4 MSTORE PUSH2 0x54B CALLVALUE PUSH1 0x40 PUSH1 0x0 KECCAK256 SLOAD PUSH2 0x1481 JUMP JUMPDEST GT PUSH2 0x5D9 JUMPI PUSH2 0x55B SWAP1 CALLVALUE SWAP1 PUSH2 0x1481 JUMP JUMPDEST PUSH1 0xD SSTORE PUSH1 0xE SLOAD PUSH1 0x1 DUP2 ADD DUP1 SWAP2 GT PUSH2 0x5C3 JUMPI PUSH1 0xE SSTORE CALLER PUSH1 0x0 MSTORE PUSH1 0x10 DUP2 MSTORE PUSH1 0x40 PUSH1 0x0 KECCAK256 PUSH2 0x587 CALLVALUE DUP3 SLOAD PUSH2 0x1481 JUMP JUMPDEST SWAP1 SSTORE PUSH1 0x1 PUSH1 0x1 PUSH1 0xA0 SHL SUB PUSH1 0x2 SLOAD AND SWAP1 PUSH32 0x9B24BD0884170CBCE51F9F00DF6B3F9AED2231E4086241D1D04687B42AFDF7B9 PUSH1 0x40 MLOAD SWAP2 CALLVALUE DUP4 MSTORE CALLER SWAP3 LOG3 STOP JUMPDEST PUSH4 0x4E487B71 PUSH1 0xE0 SHL PUSH1 0x0 MSTORE PUSH1 0x11 PUSH1 0x4 MSTORE PUSH1 0x24 PUSH1 0x0 REVERT JUMPDEST PUSH1 0x84 DUP3 PUSH1 0x40 MLOAD SWAP1 PUSH3 0x461BCD PUSH1 0xE5 SHL DUP3 MSTORE PUSH1 0x4 DUP3 ADD MSTORE PUSH1 0x33 PUSH1 0x24 DUP3 ADD MSTORE PUSH32 0x546872757374706164466169724C61756E63683A2077616C6C65742068617320 PUSH1 0x44 DUP3 ADD MSTORE PUSH32 0x72656163686564206D6178696D756D2062757900000000000000000000000000 PUSH1 0x64 DUP3 ADD MSTORE REVERT JUMPDEST PUSH1 0x84 DUP4 PUSH1 0x40 MLOAD SWAP1 PUSH3 0x461BCD PUSH1 0xE5 SHL DUP3 MSTORE PUSH1 0x4 DUP3 ADD MSTORE PUSH1 0x25 PUSH1 0x24 DUP3 ADD MSTORE PUSH32 0x546872757374706164466169724C61756E63683A206861726420636170207265 PUSH1 0x44 DUP3 ADD MSTORE PUSH5 0x1858DA1959 PUSH1 0xDA SHL PUSH1 0x64 DUP3 ADD MSTORE REVERT JUMPDEST PUSH1 0x84 DUP3 PUSH1 0x40 MLOAD SWAP1 PUSH3 0x461BCD PUSH1 0xE5 SHL DUP3 MSTORE PUSH1 0x4 DUP3 ADD MSTORE PUSH1 0x34 PUSH1 0x24 DUP3 ADD MSTORE PUSH32 0x546872757374706164466169724C61756E63683A20616D6F756E74206973206D PUSH1 0x44 DUP3 ADD MSTORE PUSH32 0x6F7265207468616E206D6178696D756D20627579000000000000000000000000 PUSH1 0x64 DUP3 ADD MSTORE REVERT JUMPDEST PUSH1 0x84 SWAP1 PUSH1 0x40 MLOAD SWAP1 PUSH3 0x461BCD PUSH1 0xE5 SHL DUP3 MSTORE PUSH1 0x4 DUP3 ADD MSTORE PUSH1 0x34 PUSH1 0x24 DUP3 ADD MSTORE PUSH32 0x546872757374706164466169724C61756E63683A20616D6F756E74206973206C PUSH1 0x44 DUP3 ADD MSTORE PUSH32 0x657373207468616E206D696E696D756D20627579000000000000000000000000 PUSH1 0x64 DUP3 ADD MSTORE REVERT JUMPDEST CALLVALUE PUSH2 0x1B3 JUMPI PUSH1 0x0 CALLDATASIZE PUSH1 0x3 NOT ADD SLT PUSH2 0x1B3 JUMPI PUSH1 0x20 PUSH1 0xFF PUSH1 0xF SLOAD AND PUSH1 0x40 MLOAD SWAP1 ISZERO ISZERO DUP2 MSTORE RETURN JUMPDEST CALLVALUE PUSH2 0x1B3 JUMPI PUSH1 0x0 CALLDATASIZE PUSH1 0x3 NOT ADD SLT PUSH2 0x1B3 JUMPI PUSH1 0x20 PUSH1 0x1 PUSH1 0x1 PUSH1 0xA0 SHL SUB PUSH1 0x14 SLOAD AND PUSH1 0x40 MLOAD SWAP1 DUP2 MSTORE RETURN JUMPDEST CALLVALUE PUSH2 0x1B3 JUMPI PUSH1 0x0 CALLDATASIZE PUSH1 0x3 NOT ADD SLT PUSH2 0x1B3 JUMPI PUSH2 0x7CC PUSH2 0x15B3 JUMP JUMPDEST PUSH2 0x7DA PUSH1 0xC SLOAD TIMESTAMP LT ISZERO PUSH2 0x1313 JUMP JUMPDEST PUSH1 0xD SLOAD PUSH2 0x7EB PUSH1 0x3 SLOAD DUP3 LT ISZERO PUSH2 0x1384 JUMP JUMPDEST PUSH1 0xF SLOAD SWAP1 PUSH1 0xFF DUP3 PUSH1 0x8 SHR AND PUSH2 0x876 JUMPI PUSH1 0x64 PUSH2 0x80B PUSH2 0x100 SWAP3 PUSH1 0xA SLOAD PUSH2 0x144E JUMP JUMPDEST DIV SWAP2 PUSH2 0xFF00 NOT AND OR PUSH1 0xF SSTORE PUSH1 0x1 PUSH1 0x1 PUSH1 0xA0 SHL SUB PUSH1 0x0 DUP1 DUP1 DUP1 DUP6 DUP6 DUP3 SLOAD AND DUP3 DUP3 ISZERO PUSH2 0x86D JUMPI JUMPDEST CALL ISZERO PUSH2 0x251 JUMPI PUSH32 0xA95E69983C44F17474CBA286953DEB119463B9F5CB8CFDE4FD709DF3660266F7 PUSH1 0x20 DUP3 PUSH1 0x0 SLOAD AND SWAP3 PUSH1 0x2 SLOAD AND SWAP4 PUSH1 0x40 MLOAD SWAP1 DUP2 MSTORE LOG3 STOP JUMPDEST POP PUSH2 0x8FC PUSH2 0x830 JUMP JUMPDEST PUSH1 0x84 PUSH1 0x40 MLOAD PUSH3 0x461BCD PUSH1 0xE5 SHL DUP2 MSTORE PUSH1 0x20 PUSH1 0x4 DUP3 ADD MSTORE PUSH1 0x30 PUSH1 0x24 DUP3 ADD MSTORE PUSH32 0x546872757374706164466169724C61756E63683A207465616D20746F6B656E73 PUSH1 0x44 DUP3 ADD MSTORE PUSH32 0x20616C726561647920636C61696D656400000000000000000000000000000000 PUSH1 0x64 DUP3 ADD MSTORE REVERT JUMPDEST CALLVALUE PUSH2 0x1B3 JUMPI PUSH1 0x40 CALLDATASIZE PUSH1 0x3 NOT ADD SLT PUSH2 0x1B3 JUMPI PUSH2 0x8F9 PUSH2 0x12FD JUMP JUMPDEST PUSH2 0x901 PUSH2 0x15B3 JUMP JUMPDEST PUSH2 0x90F PUSH1 0xC SLOAD TIMESTAMP LT ISZERO PUSH2 0x14FF JUMP JUMPDEST PUSH1 0x40 MLOAD PUSH4 0xA9059CBB PUSH1 0xE0 SHL DUP2 MSTORE CALLER PUSH1 0x4 DUP3 ADD MSTORE PUSH1 0x24 DUP1 CALLDATALOAD SWAP1 DUP3 ADD MSTORE SWAP1 PUSH1 0x20 SWAP1 DUP3 SWAP1 PUSH1 0x44 SWAP1 DUP3 SWAP1 PUSH1 0x0 SWAP1 PUSH1 0x1 PUSH1 0x1 PUSH1 0xA0 SHL SUB AND GAS CALL DUP1 ISZERO PUSH2 0x251 JUMPI PUSH2 0x94F JUMPI STOP JUMPDEST PUSH2 0x19 SWAP1 PUSH1 0x20 RETURNDATASIZE PUSH1 0x20 GT PUSH2 0x970 JUMPI JUMPDEST PUSH2 0x968 DUP2 DUP4 PUSH2 0x13F5 JUMP JUMPDEST DUP2 ADD SWAP1 PUSH2 0x1436 JUMP JUMPDEST POP RETURNDATASIZE PUSH2 0x95E JUMP JUMPDEST CALLVALUE PUSH2 0x1B3 JUMPI PUSH1 0x0 CALLDATASIZE PUSH1 0x3 NOT ADD SLT PUSH2 0x1B3 JUMPI PUSH1 0x20 PUSH1 0xD SLOAD PUSH1 0x40 MLOAD SWAP1 DUP2 MSTORE RETURN JUMPDEST CALLVALUE PUSH2 0x1B3 JUMPI PUSH1 0x0 CALLDATASIZE PUSH1 0x3 NOT ADD SLT PUSH2 0x1B3 JUMPI PUSH1 0x20 PUSH1 0x1 PUSH1 0x1 PUSH1 0xA0 SHL SUB PUSH1 0x0 SLOAD AND PUSH1 0x40 MLOAD SWAP1 DUP2 MSTORE RETURN JUMPDEST CALLVALUE PUSH2 0x1B3 JUMPI PUSH1 0x0 CALLDATASIZE PUSH1 0x3 NOT ADD SLT PUSH2 0x1B3 JUMPI PUSH1 0x20 PUSH1 0x1 PUSH1 0x1 PUSH1 0xA0 SHL SUB PUSH1 0x13 SLOAD AND PUSH1 0x40 MLOAD SWAP1 DUP2 MSTORE RETURN JUMPDEST CALLVALUE PUSH2 0x1B3 JUMPI PUSH1 0x0 CALLDATASIZE PUSH1 0x3 NOT ADD SLT PUSH2 0x1B3 JUMPI PUSH2 0x160 PUSH1 0x1 PUSH1 0x1 PUSH1 0xA0 SHL SUB PUSH1 0x2 SLOAD AND PUSH1 0x3 SLOAD PUSH1 0x4 SLOAD PUSH1 0x5 SLOAD PUSH1 0x6 SLOAD PUSH1 0x7 SLOAD PUSH1 0x8 SLOAD SWAP1 PUSH1 0x9 SLOAD SWAP3 PUSH1 0xA SLOAD SWAP5 PUSH1 0xB SLOAD SWAP7 PUSH1 0xC SLOAD SWAP9 PUSH1 0x40 MLOAD SWAP11 DUP12 MSTORE PUSH1 0x20 DUP12 ADD MSTORE PUSH1 0x40 DUP11 ADD MSTORE PUSH1 0x60 DUP10 ADD MSTORE PUSH1 0x80 DUP9 ADD MSTORE PUSH1 0xA0 DUP8 ADD MSTORE PUSH1 0xC0 DUP7 ADD MSTORE PUSH1 0xE0 DUP6 ADD MSTORE PUSH2 0x100 DUP5 ADD MSTORE PUSH2 0x120 DUP4 ADD MSTORE PUSH2 0x140 DUP3 ADD MSTORE RETURN JUMPDEST CALLVALUE PUSH2 0x1B3 JUMPI PUSH1 0x0 CALLDATASIZE PUSH1 0x3 NOT ADD SLT PUSH2 0x1B3 JUMPI PUSH2 0xA7C PUSH2 0x15B3 JUMP JUMPDEST PUSH1 0x0 PUSH1 0x1 PUSH1 0x1 PUSH1 0xA0 SHL SUB DUP2 SLOAD PUSH20 0xFFFFFFFFFFFFFFFFFFFFFFFFFFFFFFFFFFFFFFFF NOT DUP2 AND DUP4 SSTORE AND PUSH32 0x8BE0079C531659141344CD1FD0A4F28419497F9722A3DAAFE3B4186F6B6457E0 DUP3 DUP1 LOG3 STOP JUMPDEST CALLVALUE PUSH2 0x1B3 JUMPI PUSH1 0x0 CALLDATASIZE PUSH1 0x3 NOT ADD SLT PUSH2 0x1B3 JUMPI PUSH1 0x20 PUSH1 0x1 PUSH1 0x1 PUSH1 0xA0 SHL SUB PUSH1 0x12 SLOAD AND PUSH1 0x40 MLOAD SWAP1 DUP2 MSTORE RETURN JUMPDEST CALLVALUE PUSH2 0x1B3 JUMPI PUSH1 0x0 CALLDATASIZE PUSH1 0x3 NOT ADD SLT PUSH2 0x1B3 JUMPI PUSH2 0xB09 PUSH2 0x15F7 JUMP JUMPDEST PUSH2 0xB17 PUSH1 0xC SLOAD TIMESTAMP LT ISZERO PUSH2 0x1313 JUMP JUMPDEST PUSH2 0xB27 PUSH1 0xD SLOAD PUSH1 0x3 SLOAD GT ISZERO PUSH2 0x1384 JUMP JUMPDEST CALLER PUSH1 0x0 MSTORE PUSH1 0x20 PUSH1 0x11 DUP2 MSTORE PUSH2 0xB40 PUSH1 0x40 PUSH1 0x0 KECCAK256 SLOAD ISZERO PUSH2 0x148E JUMP JUMPDEST PUSH2 0xB65 PUSH2 0xB52 PUSH1 0x5 SLOAD PUSH1 0x4 SLOAD SWAP1 PUSH2 0x1461 JUMP JUMPDEST CALLER PUSH1 0x0 MSTORE PUSH1 0x10 DUP4 MSTORE PUSH1 0x40 PUSH1 0x0 KECCAK256 SLOAD PUSH2 0x144E JUMP JUMPDEST CALLER PUSH1 0x0 MSTORE PUSH1 0x11 DUP3 MSTORE DUP1 PUSH1 0x40 PUSH1 0x0 KECCAK256 SSTORE PUSH1 0x1 PUSH1 0x1 PUSH1 0xA0 SHL SUB DUP1 PUSH1 0x2 SLOAD AND SWAP1 DUP4 PUSH1 0x40 MLOAD DUP1 SWAP4 PUSH4 0xA9059CBB PUSH1 0xE0 SHL DUP3 MSTORE DUP2 PUSH1 0x0 DUP2 PUSH2 0xBBA DUP10 CALLER PUSH1 0x4 DUP5 ADD PUSH1 0x20 SWAP1 SWAP4 SWAP3 SWAP2 SWAP4 PUSH1 0x1 PUSH1 0x1 PUSH1 0xA0 SHL SUB PUSH1 0x40 DUP3 ADD SWAP6 AND DUP2 MSTORE ADD MSTORE JUMP JUMPDEST SUB SWAP3 GAS CALL SWAP2 DUP3 ISZERO PUSH2 0x251 JUMPI PUSH32 0x4831BDD9DCF3048A28319CE81D3CAB7A15366BCF449BC7803A539107440809CC SWAP3 PUSH2 0xC01 JUMPI JUMPDEST POP PUSH1 0x2 SLOAD AND SWAP3 PUSH1 0x40 MLOAD SWAP3 DUP4 MSTORE CALLER SWAP3 LOG3 PUSH1 0x1 DUP1 SSTORE STOP JUMPDEST PUSH2 0xC17 SWAP1 DUP6 RETURNDATASIZE DUP8 GT PUSH2 0x970 JUMPI PUSH2 0x968 DUP2 DUP4 PUSH2 0x13F5 JUMP JUMPDEST POP DUP5 PUSH2 0xBEC JUMP JUMPDEST CALLVALUE PUSH2 0x1B3 JUMPI PUSH1 0x0 CALLDATASIZE PUSH1 0x3 NOT ADD SLT PUSH2 0x1B3 JUMPI PUSH1 0x20 PUSH1 0xFF PUSH1 0xF SLOAD PUSH1 0x8 SHR AND PUSH1 0x40 MLOAD SWAP1 ISZERO ISZERO DUP2 MSTORE RETURN JUMPDEST CALLVALUE PUSH2 0x1B3 JUMPI PUSH1 0x80 CALLDATASIZE PUSH1 0x3 NOT ADD SLT PUSH2 0x1B3 JUMPI PUSH2 0xC5D PUSH2 0x12FD JUMP JUMPDEST PUSH1 0x24 CALLDATALOAD PUSH1 0x1 PUSH1 0x1 PUSH1 0xA0 SHL SUB DUP2 AND DUP2 SUB PUSH2 0x1B3 JUMPI PUSH1 0x44 CALLDATALOAD PUSH2 0xFFFF DUP2 AND DUP2 SUB PUSH2 0x1B3 JUMPI PUSH1 0x64 CALLDATALOAD PUSH1 0x1 PUSH1 0x1 PUSH1 0xA0 SHL SUB DUP2 AND DUP2 SUB PUSH2 0x1B3 JUMPI PUSH2 0xC99 PUSH2 0x15B3 JUMP JUMPDEST PUSH2 0xCA7 PUSH1 0xC SLOAD TIMESTAMP LT ISZERO PUSH2 0x1313 JUMP JUMPDEST PUSH2 0xCB7 PUSH1 0xD SLOAD PUSH1 0x3 SLOAD GT ISZERO PUSH2 0x1384 JUMP JUMPDEST PUSH1 0x1 PUSH1 0x1 PUSH1 0xA0 SHL SUB PUSH1 0x14 SLOAD AND SWAP1 PUSH1 0x1 PUSH1 0x1 PUSH1 0xA0 SHL SUB PUSH1 0x12 SLOAD AND SWAP2 PUSH1 0x20 PUSH1 0x1 PUSH1 0x1 PUSH1 0xA0 SHL SUB PUSH1 0x2 SLOAD AND PUSH1 0x64 PUSH1 0x1 PUSH1 0x1 PUSH1 0xA0 SHL SUB PUSH1 0x13 SLOAD AND SWAP2 PUSH1 0x40 MLOAD SWAP5 DUP6 SWAP4 DUP5 SWAP3 PUSH32 0x1698EE8200000000000000000000000000000000000000000000000000000000 DUP5 MSTORE PUSH1 0x4 DUP5 ADD MSTORE PUSH1 0x24 DUP4 ADD MSTORE PUSH2 0xFFFF DUP10 AND PUSH1 0x44 DUP4 ADD MSTORE GAS STATICCALL DUP1 ISZERO PUSH2 0x251 JUMPI PUSH1 0x1 PUSH1 0x1 PUSH1 0xA0 SHL SUB SWAP2 PUSH1 0x0 SWAP2 PUSH2 0x12DE JUMPI JUMPDEST POP AND PUSH2 0x1274 JUMPI PUSH1 0x1 PUSH1 0x1 PUSH1 0xA0 SHL SUB PUSH1 0x84 PUSH1 0x20 SWAP3 PUSH1 0x0 PUSH1 0x40 MLOAD SWAP6 DUP7 SWAP5 DUP6 SWAP4 PUSH32 0x13EAD56200000000000000000000000000000000000000000000000000000000 DUP6 MSTORE DUP2 DUP13 AND PUSH1 0x4 DUP7 ADD MSTORE DUP2 DUP12 AND PUSH1 0x24 DUP7 ADD MSTORE PUSH2 0xFFFF DUP11 AND PUSH1 0x44 DUP7 ADD MSTORE AND PUSH1 0x64 DUP5 ADD MSTORE GAS CALL DUP1 ISZERO PUSH2 0x251 JUMPI PUSH2 0x1245 JUMPI JUMPDEST POP PUSH1 0x0 PUSH1 0x20 PUSH1 0x1 PUSH1 0x1 PUSH1 0xA0 SHL SUB PUSH1 0x2 SLOAD AND PUSH1 0x44 PUSH1 0x1 PUSH1 0x1 PUSH1 0xA0 SHL SUB PUSH1 0x12 SLOAD AND PUSH1 0x40 MLOAD SWAP5 DUP6 SWAP4 DUP5 SWAP3 PUSH32 0x95EA7B300000000000000000000000000000000000000000000000000000000 DUP5 MSTORE PUSH1 0x4 DUP5 ADD MSTORE DUP2 NOT PUSH1 0x24 DUP5 ADD MSTORE GAS CALL DUP1 ISZERO PUSH2 0x251 JUMPI PUSH2 0x1226 JUMPI JUMPDEST POP PUSH1 0x1 PUSH1 0x1 PUSH1 0xA0 SHL SUB PUSH1 0x2 SLOAD AND SWAP3 PUSH1 0x40 MLOAD SWAP4 PUSH32 0x313CE56700000000000000000000000000000000000000000000000000000000 DUP6 MSTORE PUSH1 0x20 DUP6 PUSH1 0x4 DUP2 DUP5 GAS STATICCALL SWAP5 DUP6 ISZERO PUSH2 0x251 JUMPI PUSH1 0x0 SWAP6 PUSH2 0x11E8 JUMPI JUMPDEST POP PUSH2 0xE90 PUSH2 0xE8A PUSH1 0x64 PUSH2 0xE7B PUSH1 0x9 SLOAD PUSH1 0xD SLOAD SWAP1 PUSH2 0x144E JUMP JUMPDEST DIV SWAP7 PUSH1 0xFF PUSH1 0x6 SLOAD SWAP2 AND SWAP1 PUSH2 0x1461 JUMP JUMPDEST DUP7 PUSH2 0x144E JUMP JUMPDEST SWAP5 PUSH1 0x1 PUSH1 0x1 PUSH1 0xA0 SHL SUB PUSH1 0x12 SLOAD AND SWAP6 DUP3 PUSH1 0x1 PUSH1 0x1 PUSH1 0xA0 SHL SUB DUP6 AND EQ PUSH1 0x0 EQ PUSH2 0x11E1 JUMPI DUP1 SWAP3 JUMPDEST PUSH1 0x1 PUSH1 0x1 PUSH1 0xA0 SHL SUB DUP8 AND SUB PUSH2 0x11DA JUMPI JUMPDEST PUSH2 0x12C TIMESTAMP ADD TIMESTAMP GT PUSH2 0x5C3 JUMPI PUSH1 0x40 MLOAD SWAP3 DUP4 PUSH2 0x160 DUP2 ADD LT PUSH8 0xFFFFFFFFFFFFFFFF PUSH2 0x160 DUP7 ADD GT OR PUSH2 0x11C4 JUMPI PUSH2 0xFFFF PUSH2 0x140 SWAP7 PUSH1 0x1 PUSH1 0x1 PUSH1 0xA0 SHL SUB PUSH1 0x80 SWAP10 DUP2 PUSH2 0x164 SWAP10 PUSH2 0x160 DUP11 ADD PUSH1 0x40 MSTORE AND DUP9 MSTORE AND PUSH1 0x20 DUP8 ADD MSTORE AND PUSH1 0x40 DUP6 ADD MSTORE PUSH3 0xD89B3 NOT PUSH1 0x60 DUP6 ADD MSTORE PUSH3 0xD89B4 DUP8 DUP6 ADD MSTORE PUSH1 0xA0 DUP5 ADD MSTORE PUSH1 0xC0 DUP4 ADD MSTORE PUSH1 0x0 PUSH1 0xE0 DUP4 ADD MSTORE PUSH1 0x0 PUSH2 0x100 DUP4 ADD MSTORE CALLER PUSH2 0x120 DUP4 ADD MSTORE PUSH2 0x12C TIMESTAMP ADD DUP5 DUP4 ADD MSTORE PUSH1 0x40 MLOAD SWAP6 DUP7 SWAP5 DUP6 SWAP4 PUSH32 0x8831645600000000000000000000000000000000000000000000000000000000 DUP6 MSTORE PUSH1 0x1 PUSH1 0x1 PUSH1 0xA0 SHL SUB DUP2 MLOAD AND PUSH1 0x4 DUP7 ADD MSTORE PUSH1 0x1 PUSH1 0x1 PUSH1 0xA0 SHL SUB PUSH1 0x20 DUP3 ADD MLOAD AND PUSH1 0x24 DUP7 ADD MSTORE PUSH3 0xFFFFFF PUSH1 0x40 DUP3 ADD MLOAD AND PUSH1 0x44 DUP7 ADD MSTORE PUSH1 0x60 DUP2 ADD MLOAD PUSH1 0x2 SIGNEXTEND PUSH1 0x64 DUP7 ADD MSTORE DUP8 DUP2 ADD MLOAD PUSH1 0x2 SIGNEXTEND PUSH1 0x84 DUP7 ADD MSTORE PUSH1 0xA0 DUP2 ADD MLOAD PUSH1 0xA4 DUP7 ADD MSTORE PUSH1 0xC0 DUP2 ADD MLOAD PUSH1 0xC4 DUP7 ADD MSTORE PUSH1 0xE0 DUP2 ADD MLOAD PUSH1 0xE4 DUP7 ADD MSTORE PUSH2 0x100 DUP2 ADD MLOAD PUSH2 0x104 DUP7 ADD MSTORE PUSH1 0x1 PUSH1 0x1 PUSH1 0xA0 SHL SUB PUSH2 0x120 DUP3 ADD MLOAD AND PUSH2 0x124 DUP7 ADD MSTORE ADD MLOAD PUSH2 0x144 DUP5 ADD MSTORE GAS CALL DUP1 ISZERO PUSH2 0x251 JUMPI PUSH1 0x0 SWAP2 PUSH1 0x0 SWAP2 PUSH2 0x1170 JUMPI JUMPDEST POP PUSH1 0x1 PUSH1 0x1 PUSH1 0xA0 SHL SUB PUSH1 0x2 SLOAD AND PUSH1 0x40 MLOAD PUSH32 0x70A0823100000000000000000000000000000000000000000000000000000000 DUP2 MSTORE ADDRESS PUSH1 0x4 DUP3 ADD MSTORE PUSH1 0x20 DUP2 PUSH1 0x24 DUP2 DUP6 GAS STATICCALL SWAP1 DUP2 ISZERO PUSH2 0x251 JUMPI PUSH1 0x0 SWAP2 PUSH2 0x113E JUMPI JUMPDEST POP DUP1 PUSH2 0x10BF JUMPI JUMPDEST DUP4 PUSH32 0xCD9786339B2475AD263433C45F6538D0C19EB978A2E5CD7C621A24EE4C4E29C6 PUSH1 0x20 DUP6 PUSH16 0xFFFFFFFFFFFFFFFFFFFFFFFFFFFFFFFF PUSH1 0x40 MLOAD SWAP2 AND DUP2 MSTORE LOG2 STOP JUMPDEST PUSH1 0x0 SWAP3 SWAP2 PUSH1 0x44 PUSH1 0x20 SWAP3 PUSH1 0x40 MLOAD SWAP6 DUP7 SWAP4 DUP5 SWAP3 PUSH4 0xA9059CBB PUSH1 0xE0 SHL DUP5 MSTORE PUSH2 0xDEAD PUSH1 0x4 DUP6 ADD MSTORE PUSH1 0x24 DUP5 ADD MSTORE GAS CALL SWAP1 DUP2 ISZERO PUSH2 0x251 JUMPI PUSH32 0xCD9786339B2475AD263433C45F6538D0C19EB978A2E5CD7C621A24EE4C4E29C6 SWAP3 PUSH1 0x20 SWAP3 PUSH2 0x1121 JUMPI JUMPDEST POP SWAP2 PUSH2 0x107F JUMP JUMPDEST PUSH2 0x1137 SWAP1 DUP4 RETURNDATASIZE DUP6 GT PUSH2 0x970 JUMPI PUSH2 0x968 DUP2 DUP4 PUSH2 0x13F5 JUMP JUMPDEST POP DUP5 PUSH2 0x111A JUMP JUMPDEST SWAP1 POP PUSH1 0x20 DUP2 RETURNDATASIZE PUSH1 0x20 GT PUSH2 0x1168 JUMPI JUMPDEST DUP2 PUSH2 0x1159 PUSH1 0x20 SWAP4 DUP4 PUSH2 0x13F5 JUMP JUMPDEST DUP2 ADD SUB SLT PUSH2 0x1B3 JUMPI MLOAD DUP5 PUSH2 0x1078 JUMP JUMPDEST RETURNDATASIZE SWAP2 POP PUSH2 0x114C JUMP JUMPDEST SWAP2 POP POP PUSH1 0x80 DUP2 RETURNDATASIZE PUSH1 0x80 GT PUSH2 0x11BC JUMPI JUMPDEST DUP2 PUSH2 0x118C PUSH1 0x80 SWAP4 DUP4 PUSH2 0x13F5 JUMP JUMPDEST DUP2 ADD SUB SLT PUSH2 0x1B3 JUMPI PUSH1 0x20 DUP2 MLOAD SWAP2 ADD MLOAD SWAP1 PUSH16 0xFFFFFFFFFFFFFFFFFFFFFFFFFFFFFFFF DUP3 AND DUP3 SUB PUSH2 0x1B3 JUMPI SWAP1 DUP3 PUSH2 0x1027 JUMP JUMPDEST RETURNDATASIZE SWAP2 POP PUSH2 0x117F JUMP JUMPDEST PUSH4 0x4E487B71 PUSH1 0xE0 SHL PUSH1 0x0 MSTORE PUSH1 0x41 PUSH1 0x4 MSTORE PUSH1 0x24 PUSH1 0x0 REVERT JUMPDEST POP DUP1 PUSH2 0xEC4 JUMP JUMPDEST DUP2 SWAP3 PUSH2 0xEB4 JUMP JUMPDEST SWAP1 SWAP5 POP PUSH1 0x20 DUP2 RETURNDATASIZE PUSH1 0x20 GT PUSH2 0x121E JUMPI JUMPDEST DUP2 PUSH2 0x1204 PUSH1 0x20 SWAP4 DUP4 PUSH2 0x13F5 JUMP JUMPDEST DUP2 ADD SUB SLT PUSH2 0x1B3 JUMPI MLOAD PUSH1 0xFF DUP2 AND DUP2 SUB PUSH2 0x1B3 JUMPI SWAP4 DUP6 PUSH2 0xE63 JUMP JUMPDEST RETURNDATASIZE SWAP2 POP PUSH2 0x11F7 JUMP JUMPDEST PUSH2 0x123E SWAP1 PUSH1 0x20 RETURNDATASIZE PUSH1 0x20 GT PUSH2 0x970 JUMPI PUSH2 0x968 DUP2 DUP4 PUSH2 0x13F5 JUMP JUMPDEST POP DUP4 PUSH2 0xE16 JUMP JUMPDEST PUSH2 0x1266 SWAP1 PUSH1 0x20 RETURNDATASIZE PUSH1 0x20 GT PUSH2 0x126D JUMPI JUMPDEST PUSH2 0x125E DUP2 DUP4 PUSH2 0x13F5 JUMP JUMPDEST DUP2 ADD SWAP1 PUSH2 0x1417 JUMP JUMPDEST POP DUP4 PUSH2 0xDB3 JUMP JUMPDEST POP RETURNDATASIZE PUSH2 0x1254 JUMP JUMPDEST PUSH1 0x84 PUSH1 0x40 MLOAD PUSH3 0x461BCD PUSH1 0xE5 SHL DUP2 MSTORE PUSH1 0x20 PUSH1 0x4 DUP3 ADD MSTORE PUSH1 0x28 PUSH1 0x24 DUP3 ADD MSTORE PUSH32 0x546872757374706164466169724C61756E63683A205061697220616C72656164 PUSH1 0x44 DUP3 ADD MSTORE PUSH32 0x7920657869737473000000000000000000000000000000000000000000000000 PUSH1 0x64 DUP3 ADD MSTORE REVERT JUMPDEST PUSH2 0x12F7 SWAP2 POP PUSH1 0x20 RETURNDATASIZE PUSH1 0x20 GT PUSH2 0x126D JUMPI PUSH2 0x125E DUP2 DUP4 PUSH2 0x13F5 JUMP JUMPDEST DUP8 PUSH2 0xD46 JUMP JUMPDEST PUSH1 0x4 CALLDATALOAD SWAP1 PUSH1 0x1 PUSH1 0x1 PUSH1 0xA0 SHL SUB DUP3 AND DUP3 SUB PUSH2 0x1B3 JUMPI JUMP JUMPDEST ISZERO PUSH2 0x131A JUMPI JUMP JUMPDEST PUSH1 0x84 PUSH1 0x40 MLOAD PUSH3 0x461BCD PUSH1 0xE5 SHL DUP2 MSTORE PUSH1 0x20 PUSH1 0x4 DUP3 ADD MSTORE PUSH1 0x2B PUSH1 0x24 DUP3 ADD MSTORE PUSH32 0x546872757374706164466169724C61756E63683A2073616C6520686173206E6F PUSH1 0x44 DUP3 ADD MSTORE PUSH32 0x7420656E64656420796574000000000000000000000000000000000000000000 PUSH1 0x64 DUP3 ADD MSTORE REVERT JUMPDEST ISZERO PUSH2 0x138B JUMPI JUMP JUMPDEST PUSH1 0x84 PUSH1 0x40 MLOAD PUSH3 0x461BCD PUSH1 0xE5 SHL DUP2 MSTORE PUSH1 0x20 PUSH1 0x4 DUP3 ADD MSTORE PUSH1 0x29 PUSH1 0x24 DUP3 ADD MSTORE PUSH32 0x546872757374706164466169724C61756E63683A20736F667420636170206E6F PUSH1 0x44 DUP3 ADD MSTORE PUSH32 0x7420726561636865640000000000000000000000000000000000000000000000 PUSH1 0x64 DUP3 ADD MSTORE REVERT JUMPDEST SWAP1 PUSH1 0x1F DUP1 NOT SWAP2 ADD AND DUP2 ADD SWAP1 DUP2 LT PUSH8 0xFFFFFFFFFFFFFFFF DUP3 GT OR PUSH2 0x11C4 JUMPI PUSH1 0x40 MSTORE JUMP JUMPDEST SWAP1 DUP2 PUSH1 0x20 SWAP2 SUB SLT PUSH2 0x1B3 JUMPI MLOAD PUSH1 0x1 PUSH1 0x1 PUSH1 0xA0 SHL SUB DUP2 AND DUP2 SUB PUSH2 0x1B3 JUMPI SWAP1 JUMP JUMPDEST SWAP1 DUP2 PUSH1 0x20 SWAP2 SUB SLT PUSH2 0x1B3 JUMPI MLOAD DUP1 ISZERO ISZERO DUP2 SUB PUSH2 0x1B3 JUMPI SWAP1 JUMP JUMPDEST DUP2 DUP2 MUL SWAP3 SWAP2 DUP2 ISZERO SWAP2 DUP5 DIV EQ OR ISZERO PUSH2 0x5C3 JUMPI JUMP JUMPDEST DUP2 ISZERO PUSH2 0x146B JUMPI DIV SWAP1 JUMP JUMPDEST PUSH4 0x4E487B71 PUSH1 0xE0 SHL PUSH1 0x0 MSTORE PUSH1 0x12 PUSH1 0x4 MSTORE PUSH1 0x24 PUSH1 0x0 REVERT JUMPDEST SWAP2 SWAP1 DUP3 ADD DUP1 SWAP3 GT PUSH2 0x5C3 JUMPI JUMP JUMPDEST ISZERO PUSH2 0x1495 JUMPI JUMP JUMPDEST PUSH1 0x84 PUSH1 0x40 MLOAD PUSH3 0x461BCD PUSH1 0xE5 SHL DUP2 MSTORE PUSH1 0x20 PUSH1 0x4 DUP3 ADD MSTORE PUSH1 0x2B PUSH1 0x24 DUP3 ADD MSTORE PUSH32 0x546872757374706164466169724C61756E63683A20746F6B656E7320616C7265 PUSH1 0x44 DUP3 ADD MSTORE PUSH32 0x61647920636C61696D6564000000000000000000000000000000000000000000 PUSH1 0x64 DUP3 ADD MSTORE REVERT JUMPDEST ISZERO PUSH2 0x1506 JUMPI JUMP JUMPDEST PUSH1 0x64 PUSH1 0x40 MLOAD PUSH3 0x461BCD PUSH1 0xE5 SHL DUP2 MSTORE PUSH1 0x20 PUSH1 0x4 DUP3 ADD MSTORE PUSH1 0x16 PUSH1 0x24 DUP3 ADD MSTORE PUSH32 0x53616C6520686173206E6F7420656E6465642079657400000000000000000000 PUSH1 0x44 DUP3 ADD MSTORE REVERT JUMPDEST PUSH1 0x0 JUMPDEST DUP4 DUP2 LT PUSH2 0x155D JUMPI POP POP PUSH1 0x0 SWAP2 ADD MSTORE JUMP JUMPDEST DUP2 DUP2 ADD MLOAD DUP4 DUP3 ADD MSTORE PUSH1 0x20 ADD PUSH2 0x154D JUMP JUMPDEST ISZERO PUSH2 0x1575 JUMPI POP JUMP JUMPDEST PUSH1 0x44 PUSH1 0x40 MLOAD DUP1 SWAP3 PUSH3 0x461BCD PUSH1 0xE5 SHL DUP3 MSTORE PUSH1 0x20 PUSH1 0x4 DUP4 ADD MSTORE PUSH2 0x15A5 DUP2 MLOAD DUP1 SWAP3 DUP2 PUSH1 0x24 DUP7 ADD MSTORE PUSH1 0x20 DUP7 DUP7 ADD SWAP2 ADD PUSH2 0x154A JUMP JUMPDEST PUSH1 0x1F ADD PUSH1 0x1F NOT AND DUP2 ADD SUB ADD SWAP1 REVERT JUMPDEST PUSH1 0x1 PUSH1 0x1 PUSH1 0xA0 SHL SUB PUSH1 0x0 SLOAD AND CALLER SUB PUSH2 0x15C7 JUMPI JUMP JUMPDEST PUSH1 0x24 PUSH1 0x40 MLOAD PUSH32 0x118CDAA700000000000000000000000000000000000000000000000000000000 DUP2 MSTORE CALLER PUSH1 0x4 DUP3 ADD MSTORE REVERT JUMPDEST PUSH1 0x2 PUSH1 0x1 SLOAD EQ PUSH2 0x1608 JUMPI PUSH1 0x2 PUSH1 0x1 SSTORE JUMP JUMPDEST PUSH1 0x4 PUSH1 0x40 MLOAD PUSH32 0x3EE5AEB500000000000000000000000000000000000000000000000000000000 DUP2 MSTORE REVERT JUMPDEST PUSH8 0xFFFFFFFFFFFFFFFF DUP2 GT PUSH2 0x11C4 JUMPI PUSH1 0x1F ADD PUSH1 0x1F NOT AND PUSH1 0x20 ADD SWAP1 JUMP JUMPDEST DUP1 PUSH1 0x0 SWAP2 PUSH27 0x184F03E93FF9F4DAA797ED6E38ED64BF6A1F010000000000000000 DUP1 DUP3 LT ISZERO PUSH2 0x17B6 JUMPI JUMPDEST POP PUSH14 0x4EE2D6D415B85ACEF8100000000 DUP1 DUP4 LT ISZERO PUSH2 0x17A7 JUMPI JUMPDEST POP PUSH7 0x2386F26FC10000 DUP1 DUP4 LT ISZERO PUSH2 0x1798 JUMPI JUMPDEST POP PUSH4 0x5F5E100 DUP1 DUP4 LT ISZERO PUSH2 0x1789 JUMPI JUMPDEST POP PUSH2 0x2710 DUP1 DUP4 LT ISZERO PUSH2 0x177A JUMPI JUMPDEST POP PUSH1 0x64 DUP3 LT ISZERO PUSH2 0x176A JUMPI JUMPDEST PUSH1 0xA DUP1 SWAP3 LT ISZERO PUSH2 0x1760 JUMPI JUMPDEST PUSH1 0x1 SWAP1 DUP2 PUSH1 0x21 PUSH1 0x1 DUP7 ADD SWAP6 PUSH2 0x16E8 DUP8 PUSH2 0x1632 JUMP JUMPDEST SWAP7 PUSH2 0x16F6 PUSH1 0x40 MLOAD SWAP9 DUP10 PUSH2 0x13F5 JUMP JUMPDEST DUP1 DUP9 MSTORE PUSH2 0x1705 PUSH1 0x1F NOT SWAP2 PUSH2 0x1632 JUMP JUMPDEST ADD CALLDATASIZE PUSH1 0x20 DUP10 ADD CALLDATACOPY DUP7 ADD ADD SWAP1 JUMPDEST PUSH2 0x171D JUMPI JUMPDEST POP POP POP POP SWAP1 JUMP JUMPDEST PUSH1 0x0 NOT ADD SWAP1 DUP4 SWAP1 PUSH32 0x3031323334353637383961626364656600000000000000000000000000000000 DUP3 DUP3 MOD BYTE DUP4 MSTORE8 DIV SWAP2 DUP3 ISZERO PUSH2 0x175B JUMPI SWAP2 SWAP1 DUP3 PUSH2 0x1711 JUMP JUMPDEST PUSH2 0x1716 JUMP JUMPDEST SWAP2 PUSH1 0x1 ADD SWAP2 PUSH2 0x16D4 JUMP JUMPDEST SWAP2 SWAP1 PUSH1 0x64 PUSH1 0x2 SWAP2 DIV SWAP2 ADD SWAP2 PUSH2 0x16C9 JUMP JUMPDEST PUSH1 0x4 SWAP2 SWAP4 SWAP3 DIV SWAP2 ADD SWAP2 CODESIZE PUSH2 0x16BE JUMP JUMPDEST PUSH1 0x8 SWAP2 SWAP4 SWAP3 DIV SWAP2 ADD SWAP2 CODESIZE PUSH2 0x16B1 JUMP JUMPDEST PUSH1 0x10 SWAP2 SWAP4 SWAP3 DIV SWAP2 ADD SWAP2 CODESIZE PUSH2 0x16A2 JUMP JUMPDEST PUSH1 0x20 SWAP2 SWAP4 SWAP3 DIV SWAP2 ADD SWAP2 CODESIZE PUSH2 0x1690 JUMP JUMPDEST PUSH1 0x40 SWAP4 POP DUP2 DIV SWAP2 POP CODESIZE PUSH2 0x1677 JUMP INVALID LOG2 PUSH5 0x6970667358 0x22 SLT KECCAK256 0xDE BLOCKHASH PUSH16 0x27365BADE0B0BC6E8F2FB1757A119E92 CALLDATACOPY SWAP14 DUP6 DUP13 0x2B SWAP13 0xAB SWAP10 SWAP11 PREVRANDAO 0x21 PUSH23 0x6964736F6C634300081800330000000000000000000000 "},"methodIdentifiers":{"LPTokenAddress()":"c3828bf0","NFTManager()":"62eba8b0","V3Factory()":"97d56997","WEDU()":"7d7cf6c5","buyToken()":"a4821719","claimRefund()":"b5545a3c","claimTokens()":"48c54b9d","claimed(address)":"c884ef83","config()":"79502c55","deployLiquidity(address,address,uint16,uint160)":"162d2167","emergencyTransferEDU(uint256)":"d812195c","emergencyTransferTokens(address,uint256)":"948da010","liquidityDeployed()":"9c5913cc","owner()":"8da5cb5b","purchaseHistory(address)":"e45f2b8a","renounceOwnership()":"715018a6","teamClaimed()":"2f334652","totalContributors()":"f251fc8c","totalSold()":"9106d7ba","transferOwnership(address)":"f2fde38b","withdrawTeamTokens()":"953b7ef8"}}}}}