{"contracts/multisender/ThrustpadMultiSenderFactory.sol":{"ThrustpadMultiSenderFactory":{"abi":[{"inputs":[],"stateMutability":"nonpayable","type":"constructor"},{"inputs":[{"internalType":"address","name":"owner","type":"address"}],"name":"OwnableInvalidOwner","type":"error"},{"inputs":[{"internalType":"address","name":"account","type":"address"}],"name":"OwnableUnauthorizedAccount","type":"error"},{"anonymous":false,"inputs":[{"indexed":true,"internalType":"address","name":"creator","type":"address"},{"indexed":true,"internalType":"address","name":"multisender","type":"address"}],"name":"NewMultiSender","type":"event"},{"anonymous":false,"inputs":[{"indexed":true,"internalType":"address","name":"previousOwner","type":"address"},{"indexed":true,"internalType":"address","name":"newOwner","type":"address"}],"name":"OwnershipTransferred","type":"event"},{"inputs":[],"name":"creationFee","outputs":[{"internalType":"uint256","name":"","type":"uint256"}],"stateMutability":"view","type":"function"},{"inputs":[{"internalType":"address","name":"","type":"address"},{"internalType":"uint256","name":"","type":"uint256"}],"name":"deployedMultisenders","outputs":[{"internalType":"address","name":"","type":"address"}],"stateMutability":"view","type":"function"},{"inputs":[],"name":"feeEarned","outputs":[{"internalType":"uint256","name":"","type":"uint256"}],"stateMutability":"view","type":"function"},{"inputs":[{"internalType":"bytes","name":"bytecode","type":"bytes"},{"internalType":"uint256","name":"salt","type":"uint256"}],"name":"getAddressCreate2","outputs":[{"internalType":"address","name":"","type":"address"}],"stateMutability":"view","type":"function"},{"inputs":[{"internalType":"string","name":"name","type":"string"},{"internalType":"string","name":"symbol","type":"string"},{"internalType":"uint256","name":"decimals","type":"uint256"},{"internalType":"uint256","name":"supply","type":"uint256"},{"components":[{"internalType":"bool","name":"mintable","type":"bool"},{"internalType":"bool","name":"pausable","type":"bool"},{"internalType":"bool","name":"burnable","type":"bool"}],"internalType":"struct LaunchType","name":"launchType","type":"tuple"}],"name":"getBytecode","outputs":[{"internalType":"bytes","name":"","type":"bytes"}],"stateMutability":"pure","type":"function"},{"inputs":[{"internalType":"address","name":"creator","type":"address"}],"name":"getdeployedMultisenders","outputs":[{"internalType":"address[]","name":"","type":"address[]"}],"stateMutability":"view","type":"function"},{"inputs":[{"internalType":"address","name":"creator","type":"address"}],"name":"getdeployedMultisendersLen","outputs":[{"internalType":"uint256","name":"","type":"uint256"}],"stateMutability":"view","type":"function"},{"inputs":[{"internalType":"address","name":"token","type":"address"},{"internalType":"address[]","name":"receivers","type":"address[]"},{"internalType":"uint256[]","name":"amounts","type":"uint256[]"}],"name":"newMultisender","outputs":[{"internalType":"address","name":"","type":"address"}],"stateMutability":"payable","type":"function"},{"inputs":[],"name":"owner","outputs":[{"internalType":"address","name":"","type":"address"}],"stateMutability":"view","type":"function"},{"inputs":[],"name":"renounceOwnership","outputs":[],"stateMutability":"nonpayable","type":"function"},{"inputs":[{"internalType":"address","name":"newOwner","type":"address"}],"name":"transferOwnership","outputs":[],"stateMutability":"nonpayable","type":"function"},{"inputs":[],"name":"withdraw","outputs":[],"stateMutability":"nonpayable","type":"function"},{"inputs":[{"internalType":"address","name":"token","type":"address"}],"name":"withdrawToken","outputs":[],"stateMutability":"nonpayable","type":"function"},{"stateMutability":"payable","type":"receive"}],"evm":{"bytecode":{"linkReferences":{},"object":"6080604052670de0b6b3a76400006002556064600460006101000a81548160ff021916908360ff1602179055503480156200003957600080fd5b5033600073ffffffffffffffffffffffffffffffffffffffff168173ffffffffffffffffffffffffffffffffffffffff1603620000b05760006040517f1e4fbdf7000000000000000000000000000000000000000000000000000000008152600401620000a79190620001d1565b60405180910390fd5b620000c181620000c860201b60201c565b50620001ee565b60008060009054906101000a900473ffffffffffffffffffffffffffffffffffffffff169050816000806101000a81548173ffffffffffffffffffffffffffffffffffffffff021916908373ffffffffffffffffffffffffffffffffffffffff1602179055508173ffffffffffffffffffffffffffffffffffffffff168173ffffffffffffffffffffffffffffffffffffffff167f8be0079c531659141344cd1fd0a4f28419497f9722a3daafe3b4186f6b6457e060405160405180910390a35050565b600073ffffffffffffffffffffffffffffffffffffffff82169050919050565b6000620001b9826200018c565b9050919050565b620001cb81620001ac565b82525050565b6000602082019050620001e86000830184620001c0565b92915050565b61301e80620001fe6000396000f3fe608060405260043610620000d95760003560e01c80638da5cb5b116200008b578063d5f63a061162000061578063d5f63a0614620002be578063dce0b4e414620002ee578063f2fde38b146200031e578063fcc31af0146200034c57620000e1565b80638da5cb5b1462000206578063949938e914620002365780639f886f26146200027a57620000e1565b80633ccfd60b14620000e657806348d40953146200010057806353fa27a31462000144578063715018a6146200017a578063877a403914620001945780638947606914620001d857620000e1565b36620000e157005b600080fd5b348015620000f357600080fd5b50620000fe62000390565b005b3480156200010d57600080fd5b506200012c600480360381019062000126919062001139565b620003ed565b6040516200013b919062001288565b60405180910390f35b6200016260048036038101906200015c9190620014c2565b62000472565b6040516200017191906200156d565b60405180910390f35b3480156200018757600080fd5b5062000192620009c5565b005b348015620001a157600080fd5b50620001c06004803603810190620001ba91906200158a565b620009dd565b604051620001cf9190620015cd565b60405180910390f35b348015620001e557600080fd5b50620002046004803603810190620001fe91906200158a565b62000a29565b005b3480156200021357600080fd5b506200021e62000b41565b6040516200022d91906200156d565b60405180910390f35b3480156200024357600080fd5b506200026260048036038101906200025c91906200158a565b62000b6a565b604051620002719190620016b8565b60405180910390f35b3480156200028757600080fd5b50620002a66004803603810190620002a0919062001790565b62000c39565b604051620002b591906200156d565b60405180910390f35b348015620002cb57600080fd5b50620002d662000c85565b604051620002e59190620015cd565b60405180910390f35b348015620002fb57600080fd5b506200030662000c8b565b604051620003159190620015cd565b60405180910390f35b3480156200032b57600080fd5b506200034a60048036038101906200034491906200158a565b62000c91565b005b3480156200035957600080fd5b50620003786004803603810190620003729190620017f6565b62000d1e565b6040516200038791906200156d565b60405180910390f35b6200039a62000d6d565b620003a462000b41565b73ffffffffffffffffffffffffffffffffffffffff166108fc479081150290604051600060405180830381858888f19350505050158015620003ea573d6000803e3d6000fd5b50565b6060600060405180602001620004039062000ec9565b6020820181038252601f19601f82011660405250905080878787878760405160200162000435959493929190620018f3565b60405160208183030381529060405260405160200162000457929190620019a0565b60405160208183030381529060405291505095945050505050565b60008251825114620004bb576040517f08c379a0000000000000000000000000000000000000000000000000000000008152600401620004b29062001a3e565b60405180910390fd5b600460009054906101000a900460ff1660ff168251111562000514576040517f08c379a00000000000000000000000000000000000000000000000000000000081526004016200050b9062001ad6565b60405180910390fd5b6000805b83518110156200055d5783818151811062000538576200053762001af8565b5b6020026020010151826200054d919062001b56565b9150808060010191505062000518565b50600073ffffffffffffffffffffffffffffffffffffffff168573ffffffffffffffffffffffffffffffffffffffff1603620005ee5780600254620005a3919062001b56565b341015620005e8576040517f08c379a0000000000000000000000000000000000000000000000000000000008152600401620005df9062001c07565b60405180910390fd5b620006bb565b60008573ffffffffffffffffffffffffffffffffffffffff1663dd62ed3e33306040518363ffffffff1660e01b81526004016200062d92919062001c29565b602060405180830381865afa1580156200064b573d6000803e3d6000fd5b505050506040513d601f19601f8201168201806040525081019062000671919062001c6d565b905081811015620006b9576040517f08c379a0000000000000000000000000000000000000000000000000000000008152600401620006b09062001d15565b60405180910390fd5b505b60008073ffffffffffffffffffffffffffffffffffffffff168673ffffffffffffffffffffffffffffffffffffffff1614620006f9576000620006fb565b815b600160003373ffffffffffffffffffffffffffffffffffffffff1673ffffffffffffffffffffffffffffffffffffffff1681526020019081526020016000208054905060001b90878787604051620007539062000ec9565b620007619392919062001e05565b82906040518091039083f5905090508015801562000783573d6000803e3d6000fd5b509050600160003373ffffffffffffffffffffffffffffffffffffffff1673ffffffffffffffffffffffffffffffffffffffff168152602001908152602001600020819080600181540180825580915050600190039060005260206000200160009091909190916101000a81548173ffffffffffffffffffffffffffffffffffffffff021916908373ffffffffffffffffffffffffffffffffffffffff160217905550600073ffffffffffffffffffffffffffffffffffffffff168673ffffffffffffffffffffffffffffffffffffffff1614620008e2578573ffffffffffffffffffffffffffffffffffffffff166323b872dd3383856040518463ffffffff1660e01b81526004016200089a9392919062001e50565b6020604051808303816000875af1158015620008ba573d6000803e3d6000fd5b505050506040513d601f19601f82011682018060405250810190620008e0919062001ea4565b505b8073ffffffffffffffffffffffffffffffffffffffff1663294402cc6040518163ffffffff1660e01b8152600401600060405180830381600087803b1580156200092b57600080fd5b505af115801562000940573d6000803e3d6000fd5b505050508073ffffffffffffffffffffffffffffffffffffffff163373ffffffffffffffffffffffffffffffffffffffff167f6d1f96e538195eebc344e4fd73efd605a9cfdf73d3267009398ed160d33f193860405160405180910390a33460036000828254620009b2919062001b56565b9250508190555080925050509392505050565b620009cf62000d6d565b620009db600062000dfd565b565b6000600160008373ffffffffffffffffffffffffffffffffffffffff1673ffffffffffffffffffffffffffffffffffffffff168152602001908152602001600020805490509050919050565b62000a3362000d6d565b8073ffffffffffffffffffffffffffffffffffffffff1663a9059cbb62000a5962000b41565b8373ffffffffffffffffffffffffffffffffffffffff166370a08231306040518263ffffffff1660e01b815260040162000a9491906200156d565b602060405180830381865afa15801562000ab2573d6000803e3d6000fd5b505050506040513d601f19601f8201168201806040525081019062000ad8919062001c6d565b6040518363ffffffff1660e01b815260040162000af792919062001ed6565b6020604051808303816000875af115801562000b17573d6000803e3d6000fd5b505050506040513d601f19601f8201168201806040525081019062000b3d919062001ea4565b5050565b60008060009054906101000a900473ffffffffffffffffffffffffffffffffffffffff16905090565b6060600160008373ffffffffffffffffffffffffffffffffffffffff1673ffffffffffffffffffffffffffffffffffffffff16815260200190815260200160002080548060200260200160405190810160405280929190818152602001828054801562000c2d57602002820191906000526020600020905b8160009054906101000a900473ffffffffffffffffffffffffffffffffffffffff1673ffffffffffffffffffffffffffffffffffffffff168152602001906001019080831162000be2575b50505050509050919050565b60008060ff60f81b3084868051906020012060405160200162000c60949392919062001ff8565b6040516020818303038152906040528051906020012090508060001c91505092915050565b60035481565b60025481565b62000c9b62000d6d565b600073ffffffffffffffffffffffffffffffffffffffff168173ffffffffffffffffffffffffffffffffffffffff160362000d105760006040517f1e4fbdf700000000000000000000000000000000000000000000000000000000815260040162000d0791906200156d565b60405180910390fd5b62000d1b8162000dfd565b50565b6001602052816000526040600020818154811062000d3b57600080fd5b906000526020600020016000915091509054906101000a900473ffffffffffffffffffffffffffffffffffffffff1681565b62000d7762000ec1565b73ffffffffffffffffffffffffffffffffffffffff1662000d9762000b41565b73ffffffffffffffffffffffffffffffffffffffff161462000dfb5762000dbd62000ec1565b6040517f118cdaa700000000000000000000000000000000000000000000000000000000815260040162000df291906200156d565b60405180910390fd5b565b60008060009054906101000a900473ffffffffffffffffffffffffffffffffffffffff169050816000806101000a81548173ffffffffffffffffffffffffffffffffffffffff021916908373ffffffffffffffffffffffffffffffffffffffff1602179055508173ffffffffffffffffffffffffffffffffffffffff168173ffffffffffffffffffffffffffffffffffffffff167f8be0079c531659141344cd1fd0a4f28419497f9722a3daafe3b4186f6b6457e060405160405180910390a35050565b600033905090565b610f9a806200204f83390190565b6000604051905090565b600080fd5b600080fd5b600080fd5b600080fd5b6000601f19601f8301169050919050565b7f4e487b7100000000000000000000000000000000000000000000000000000000600052604160045260246000fd5b62000f408262000ef5565b810181811067ffffffffffffffff8211171562000f625762000f6162000f06565b5b80604052505050565b600062000f7762000ed7565b905062000f85828262000f35565b919050565b600067ffffffffffffffff82111562000fa85762000fa762000f06565b5b62000fb38262000ef5565b9050602081019050919050565b82818337600083830152505050565b600062000fe662000fe08462000f8a565b62000f6b565b90508281526020810184848401111562001005576200100462000ef0565b5b6200101284828562000fc0565b509392505050565b600082601f83011262001032576200103162000eeb565b5b81356200104484826020860162000fcf565b91505092915050565b6000819050919050565b62001062816200104d565b81146200106e57600080fd5b50565b600081359050620010828162001057565b92915050565b600080fd5b60008115159050919050565b620010a4816200108d565b8114620010b057600080fd5b50565b600081359050620010c48162001099565b92915050565b600060608284031215620010e357620010e262001088565b5b620010ef606062000f6b565b905060006200110184828501620010b3565b60008301525060206200111784828501620010b3565b60208301525060406200112d84828501620010b3565b60408301525092915050565b600080600080600060e0868803121562001158576200115762000ee1565b5b600086013567ffffffffffffffff81111562001179576200117862000ee6565b5b62001187888289016200101a565b955050602086013567ffffffffffffffff811115620011ab57620011aa62000ee6565b5b620011b9888289016200101a565b9450506040620011cc8882890162001071565b9350506060620011df8882890162001071565b9250506080620011f288828901620010ca565b9150509295509295909350565b600081519050919050565b600082825260208201905092915050565b60005b838110156200123b5780820151818401526020810190506200121e565b60008484015250505050565b60006200125482620011ff565b6200126081856200120a565b9350620012728185602086016200121b565b6200127d8162000ef5565b840191505092915050565b60006020820190508181036000830152620012a4818462001247565b905092915050565b600073ffffffffffffffffffffffffffffffffffffffff82169050919050565b6000620012d982620012ac565b9050919050565b620012eb81620012cc565b8114620012f757600080fd5b50565b6000813590506200130b81620012e0565b92915050565b600067ffffffffffffffff8211156200132f576200132e62000f06565b5b602082029050602081019050919050565b600080fd5b60006200135c620013568462001311565b62000f6b565b9050808382526020820190506020840283018581111562001382576200138162001340565b5b835b81811015620013af57806200139a8882620012fa565b84526020840193505060208101905062001384565b5050509392505050565b600082601f830112620013d157620013d062000eeb565b5b8135620013e384826020860162001345565b91505092915050565b600067ffffffffffffffff8211156200140a576200140962000f06565b5b602082029050602081019050919050565b6000620014326200142c84620013ec565b62000f6b565b9050808382526020820190506020840283018581111562001458576200145762001340565b5b835b8181101562001485578062001470888262001071565b8452602084019350506020810190506200145a565b5050509392505050565b600082601f830112620014a757620014a662000eeb565b5b8135620014b98482602086016200141b565b91505092915050565b600080600060608486031215620014de57620014dd62000ee1565b5b6000620014ee86828701620012fa565b935050602084013567ffffffffffffffff81111562001512576200151162000ee6565b5b6200152086828701620013b9565b925050604084013567ffffffffffffffff81111562001544576200154362000ee6565b5b62001552868287016200148f565b9150509250925092565b6200156781620012cc565b82525050565b60006020820190506200158460008301846200155c565b92915050565b600060208284031215620015a357620015a262000ee1565b5b6000620015b384828501620012fa565b91505092915050565b620015c7816200104d565b82525050565b6000602082019050620015e46000830184620015bc565b92915050565b600081519050919050565b600082825260208201905092915050565b6000819050602082019050919050565b6200162181620012cc565b82525050565b600062001635838362001616565b60208301905092915050565b6000602082019050919050565b60006200165b82620015ea565b620016678185620015f5565b9350620016748362001606565b8060005b83811015620016ab5781516200168f888262001627565b97506200169c8362001641565b92505060018101905062001678565b5085935050505092915050565b60006020820190508181036000830152620016d481846200164e565b905092915050565b600067ffffffffffffffff821115620016fa57620016f962000f06565b5b620017058262000ef5565b9050602081019050919050565b6000620017296200172384620016dc565b62000f6b565b90508281526020810184848401111562001748576200174762000ef0565b5b6200175584828562000fc0565b509392505050565b600082601f83011262001775576200177462000eeb565b5b81356200178784826020860162001712565b91505092915050565b60008060408385031215620017aa57620017a962000ee1565b5b600083013567ffffffffffffffff811115620017cb57620017ca62000ee6565b5b620017d9858286016200175d565b9250506020620017ec8582860162001071565b9150509250929050565b6000806040838503121562001810576200180f62000ee1565b5b60006200182085828601620012fa565b9250506020620018338582860162001071565b9150509250929050565b600081519050919050565b600082825260208201905092915050565b600062001866826200183d565b62001872818562001848565b9350620018848185602086016200121b565b6200188f8162000ef5565b840191505092915050565b620018a5816200108d565b82525050565b606082016000820151620018c360008501826200189a565b506020820151620018d860208501826200189a565b506040820151620018ed60408501826200189a565b50505050565b600060e08201905081810360008301526200190f818862001859565b9050818103602083015262001925818762001859565b9050620019366040830186620015bc565b620019456060830185620015bc565b620019546080830184620018ab565b9695505050505050565b600081905092915050565b60006200197682620011ff565b6200198281856200195e565b9350620019948185602086016200121b565b80840191505092915050565b6000620019ae828562001969565b9150620019bc828462001969565b91508190509392505050565b7f546872757374706164546f6b656e466163746f72793a20496e76616c6964206960008201527f6e70757400000000000000000000000000000000000000000000000000000000602082015250565b600062001a2660248362001848565b915062001a3382620019c8565b604082019050919050565b6000602082019050818103600083015262001a598162001a17565b9050919050565b7f546872757374706164546f6b656e466163746f72793a20546f6f206d616e792060008201527f7265636569766572732070657220636f6e747261637400000000000000000000602082015250565b600062001abe60368362001848565b915062001acb8262001a60565b604082019050919050565b6000602082019050818103600083015262001af18162001aaf565b9050919050565b7f4e487b7100000000000000000000000000000000000000000000000000000000600052603260045260246000fd5b7f4e487b7100000000000000000000000000000000000000000000000000000000600052601160045260246000fd5b600062001b63826200104d565b915062001b70836200104d565b925082820190508082111562001b8b5762001b8a62001b27565b5b92915050565b7f546872757374706164546f6b656e466163746f72793a20496e7375666669636960008201527f656e742076616c75653a20666565202b20746f74616c20616d6f756e74000000602082015250565b600062001bef603d8362001848565b915062001bfc8262001b91565b604082019050919050565b6000602082019050818103600083015262001c228162001be0565b9050919050565b600060408201905062001c4060008301856200155c565b62001c4f60208301846200155c565b9392505050565b60008151905062001c678162001057565b92915050565b60006020828403121562001c865762001c8562000ee1565b5b600062001c968482850162001c56565b91505092915050565b7f546872757374706164546f6b656e466163746f72793a20496e7375666669636960008201527f656e7420616c6c6f77616e636500000000000000000000000000000000000000602082015250565b600062001cfd602d8362001848565b915062001d0a8262001c9f565b604082019050919050565b6000602082019050818103600083015262001d308162001cee565b9050919050565b600081519050919050565b600082825260208201905092915050565b6000819050602082019050919050565b62001d6e816200104d565b82525050565b600062001d82838362001d63565b60208301905092915050565b6000602082019050919050565b600062001da88262001d37565b62001db4818562001d42565b935062001dc18362001d53565b8060005b8381101562001df857815162001ddc888262001d74565b975062001de98362001d8e565b92505060018101905062001dc5565b5085935050505092915050565b600060608201905062001e1c60008301866200155c565b818103602083015262001e3081856200164e565b9050818103604083015262001e46818462001d9b565b9050949350505050565b600060608201905062001e6760008301866200155c565b62001e7660208301856200155c565b62001e856040830184620015bc565b949350505050565b60008151905062001e9e8162001099565b92915050565b60006020828403121562001ebd5762001ebc62000ee1565b5b600062001ecd8482850162001e8d565b91505092915050565b600060408201905062001eed60008301856200155c565b62001efc6020830184620015bc565b9392505050565b60007fff0000000000000000000000000000000000000000000000000000000000000082169050919050565b6000819050919050565b62001f4e62001f488262001f03565b62001f2f565b82525050565b60008160601b9050919050565b600062001f6e8262001f54565b9050919050565b600062001f828262001f61565b9050919050565b62001f9e62001f9882620012cc565b62001f75565b82525050565b6000819050919050565b62001fc362001fbd826200104d565b62001fa4565b82525050565b6000819050919050565b6000819050919050565b62001ff262001fec8262001fc9565b62001fd3565b82525050565b600062002006828762001f39565b60018201915062002018828662001f89565b6014820191506200202a828562001fae565b6020820191506200203c828462001fdd565b6020820191508190509594505050505056fe608060405260405162000f9a38038062000f9a8339818101604052810190620000299190620005f0565b33600073ffffffffffffffffffffffffffffffffffffffff168173ffffffffffffffffffffffffffffffffffffffff16036200009f5760006040517f1e4fbdf70000000000000000000000000000000000000000000000000000000081526004016200009691906200069b565b60405180910390fd5b620000b0816200012d60201b60201c565b5082600160006101000a81548173ffffffffffffffffffffffffffffffffffffffff021916908373ffffffffffffffffffffffffffffffffffffffff16021790555081600290805190602001906200010a929190620001f1565b5080600390805190602001906200012392919062000280565b50505050620006b8565b60008060009054906101000a900473ffffffffffffffffffffffffffffffffffffffff169050816000806101000a81548173ffffffffffffffffffffffffffffffffffffffff021916908373ffffffffffffffffffffffffffffffffffffffff1602179055508173ffffffffffffffffffffffffffffffffffffffff168173ffffffffffffffffffffffffffffffffffffffff167f8be0079c531659141344cd1fd0a4f28419497f9722a3daafe3b4186f6b6457e060405160405180910390a35050565b8280548282559060005260206000209081019282156200026d579160200282015b828111156200026c5782518260006101000a81548173ffffffffffffffffffffffffffffffffffffffff021916908373ffffffffffffffffffffffffffffffffffffffff1602179055509160200191906001019062000212565b5b5090506200027c9190620002d2565b5090565b828054828255906000526020600020908101928215620002bf579160200282015b82811115620002be578251825591602001919060010190620002a1565b5b509050620002ce9190620002d2565b5090565b5b80821115620002ed576000816000905550600101620002d3565b5090565b6000604051905090565b600080fd5b600080fd5b600073ffffffffffffffffffffffffffffffffffffffff82169050919050565b6000620003328262000305565b9050919050565b620003448162000325565b81146200035057600080fd5b50565b600081519050620003648162000339565b92915050565b600080fd5b6000601f19601f8301169050919050565b7f4e487b7100000000000000000000000000000000000000000000000000000000600052604160045260246000fd5b620003ba826200036f565b810181811067ffffffffffffffff82111715620003dc57620003db62000380565b5b80604052505050565b6000620003f1620002f1565b9050620003ff8282620003af565b919050565b600067ffffffffffffffff82111562000422576200042162000380565b5b602082029050602081019050919050565b600080fd5b60006200044f620004498462000404565b620003e5565b9050808382526020820190506020840283018581111562000475576200047462000433565b5b835b81811015620004a257806200048d888262000353565b84526020840193505060208101905062000477565b5050509392505050565b600082601f830112620004c457620004c36200036a565b5b8151620004d684826020860162000438565b91505092915050565b600067ffffffffffffffff821115620004fd57620004fc62000380565b5b602082029050602081019050919050565b6000819050919050565b62000523816200050e565b81146200052f57600080fd5b50565b600081519050620005438162000518565b92915050565b6000620005606200055a84620004df565b620003e5565b9050808382526020820190506020840283018581111562000586576200058562000433565b5b835b81811015620005b357806200059e888262000532565b84526020840193505060208101905062000588565b5050509392505050565b600082601f830112620005d557620005d46200036a565b5b8151620005e784826020860162000549565b91505092915050565b6000806000606084860312156200060c576200060b620002fb565b5b60006200061c8682870162000353565b935050602084015167ffffffffffffffff81111562000640576200063f62000300565b5b6200064e86828701620004ac565b925050604084015167ffffffffffffffff81111562000672576200067162000300565b5b6200068086828701620005bd565b9150509250925092565b620006958162000325565b82525050565b6000602082019050620006b260008301846200068a565b92915050565b6108d280620006c86000396000f3fe6080604052600436106100745760003560e01c80638da5cb5b1161004e5780638da5cb5b146100eb578063bfd772fc14610116578063f2fde38b14610153578063fc0c546a1461017c5761007b565b8063294402cc1461008057806345f0a44f14610097578063715018a6146100d45761007b565b3661007b57005b600080fd5b34801561008c57600080fd5b506100956101a7565b005b3480156100a357600080fd5b506100be60048036038101906100b991906106c5565b6103eb565b6040516100cb9190610701565b60405180910390f35b3480156100e057600080fd5b506100e961040f565b005b3480156100f757600080fd5b50610100610423565b60405161010d919061075d565b60405180910390f35b34801561012257600080fd5b5061013d600480360381019061013891906106c5565b61044c565b60405161014a919061075d565b60405180910390f35b34801561015f57600080fd5b5061017a600480360381019061017591906107a4565b61048b565b005b34801561018857600080fd5b50610191610511565b60405161019e919061075d565b60405180910390f35b6101af610537565b600073ffffffffffffffffffffffffffffffffffffffff16600160009054906101000a900473ffffffffffffffffffffffffffffffffffffffff1673ffffffffffffffffffffffffffffffffffffffff16036102cb5760005b6002805490508110156102c55760028181548110610229576102286107d1565b5b9060005260206000200160009054906101000a900473ffffffffffffffffffffffffffffffffffffffff1673ffffffffffffffffffffffffffffffffffffffff166108fc60038381548110610281576102806107d1565b5b90600052602060002001549081150290604051600060405180830381858888f193505050501580156102b7573d6000803e3d6000fd5b508080600101915050610208565b506103e9565b60005b6002805490508110156103e757600160009054906101000a900473ffffffffffffffffffffffffffffffffffffffff1673ffffffffffffffffffffffffffffffffffffffff166323b872dd306002848154811061032e5761032d6107d1565b5b9060005260206000200160009054906101000a900473ffffffffffffffffffffffffffffffffffffffff166003858154811061036d5761036c6107d1565b5b90600052602060002001546040518463ffffffff1660e01b815260040161039693929190610800565b6020604051808303816000875af11580156103b5573d6000803e3d6000fd5b505050506040513d601f19601f820116820180604052508101906103d9919061086f565b5080806001019150506102ce565b505b565b600381815481106103fb57600080fd5b906000526020600020016000915090505481565b610417610537565b61042160006105be565b565b60008060009054906101000a900473ffffffffffffffffffffffffffffffffffffffff16905090565b6002818154811061045c57600080fd5b906000526020600020016000915054906101000a900473ffffffffffffffffffffffffffffffffffffffff1681565b610493610537565b600073ffffffffffffffffffffffffffffffffffffffff168173ffffffffffffffffffffffffffffffffffffffff16036105055760006040517f1e4fbdf70000000000000000000000000000000000000000000000000000000081526004016104fc919061075d565b60405180910390fd5b61050e816105be565b50565b600160009054906101000a900473ffffffffffffffffffffffffffffffffffffffff1681565b61053f610682565b73ffffffffffffffffffffffffffffffffffffffff1661055d610423565b73ffffffffffffffffffffffffffffffffffffffff16146105bc57610580610682565b6040517f118cdaa70000000000000000000000000000000000000000000000000000000081526004016105b3919061075d565b60405180910390fd5b565b60008060009054906101000a900473ffffffffffffffffffffffffffffffffffffffff169050816000806101000a81548173ffffffffffffffffffffffffffffffffffffffff021916908373ffffffffffffffffffffffffffffffffffffffff1602179055508173ffffffffffffffffffffffffffffffffffffffff168173ffffffffffffffffffffffffffffffffffffffff167f8be0079c531659141344cd1fd0a4f28419497f9722a3daafe3b4186f6b6457e060405160405180910390a35050565b600033905090565b600080fd5b6000819050919050565b6106a28161068f565b81146106ad57600080fd5b50565b6000813590506106bf81610699565b92915050565b6000602082840312156106db576106da61068a565b5b60006106e9848285016106b0565b91505092915050565b6106fb8161068f565b82525050565b600060208201905061071660008301846106f2565b92915050565b600073ffffffffffffffffffffffffffffffffffffffff82169050919050565b60006107478261071c565b9050919050565b6107578161073c565b82525050565b6000602082019050610772600083018461074e565b92915050565b6107818161073c565b811461078c57600080fd5b50565b60008135905061079e81610778565b92915050565b6000602082840312156107ba576107b961068a565b5b60006107c88482850161078f565b91505092915050565b7f4e487b7100000000000000000000000000000000000000000000000000000000600052603260045260246000fd5b6000606082019050610815600083018661074e565b610822602083018561074e565b61082f60408301846106f2565b949350505050565b60008115159050919050565b61084c81610837565b811461085757600080fd5b50565b60008151905061086981610843565b92915050565b6000602082840312156108855761088461068a565b5b60006108938482850161085a565b9150509291505056fea26469706673582212205aaae9485e0d0954bc37366a3c2a67477c383b8701c86f79f4394ea25551e0ae64736f6c63430008180033a264697066735822122064852616a3ab8003a16ee5f8f512482be3d2cfdce2e4336594cbb268831978c664736f6c63430008180033","opcodes":"PUSH1 0x80 PUSH1 0x40 MSTORE PUSH8 0xDE0B6B3A7640000 PUSH1 0x2 SSTORE PUSH1 0x64 PUSH1 0x4 PUSH1 0x0 PUSH2 0x100 EXP DUP2 SLOAD DUP2 PUSH1 0xFF MUL NOT AND SWAP1 DUP4 PUSH1 0xFF AND MUL OR SWAP1 SSTORE POP CALLVALUE DUP1 ISZERO PUSH3 0x39 JUMPI PUSH1 0x0 DUP1 REVERT JUMPDEST POP CALLER PUSH1 0x0 PUSH20 0xFFFFFFFFFFFFFFFFFFFFFFFFFFFFFFFFFFFFFFFF AND DUP2 PUSH20 0xFFFFFFFFFFFFFFFFFFFFFFFFFFFFFFFFFFFFFFFF AND SUB PUSH3 0xB0 JUMPI PUSH1 0x0 PUSH1 0x40 MLOAD PUSH32 0x1E4FBDF700000000000000000000000000000000000000000000000000000000 DUP2 MSTORE PUSH1 0x4 ADD PUSH3 0xA7 SWAP2 SWAP1 PUSH3 0x1D1 JUMP JUMPDEST PUSH1 0x40 MLOAD DUP1 SWAP2 SUB SWAP1 REVERT JUMPDEST PUSH3 0xC1 DUP2 PUSH3 0xC8 PUSH1 0x20 SHL PUSH1 0x20 SHR JUMP JUMPDEST POP PUSH3 0x1EE JUMP JUMPDEST PUSH1 0x0 DUP1 PUSH1 0x0 SWAP1 SLOAD SWAP1 PUSH2 0x100 EXP SWAP1 DIV PUSH20 0xFFFFFFFFFFFFFFFFFFFFFFFFFFFFFFFFFFFFFFFF AND SWAP1 POP DUP2 PUSH1 0x0 DUP1 PUSH2 0x100 EXP DUP2 SLOAD DUP2 PUSH20 0xFFFFFFFFFFFFFFFFFFFFFFFFFFFFFFFFFFFFFFFF MUL NOT AND SWAP1 DUP4 PUSH20 0xFFFFFFFFFFFFFFFFFFFFFFFFFFFFFFFFFFFFFFFF AND MUL OR SWAP1 SSTORE POP DUP2 PUSH20 0xFFFFFFFFFFFFFFFFFFFFFFFFFFFFFFFFFFFFFFFF AND DUP2 PUSH20 0xFFFFFFFFFFFFFFFFFFFFFFFFFFFFFFFFFFFFFFFF AND PUSH32 0x8BE0079C531659141344CD1FD0A4F28419497F9722A3DAAFE3B4186F6B6457E0 PUSH1 0x40 MLOAD PUSH1 0x40 MLOAD DUP1 SWAP2 SUB SWAP1 LOG3 POP POP JUMP JUMPDEST PUSH1 0x0 PUSH20 0xFFFFFFFFFFFFFFFFFFFFFFFFFFFFFFFFFFFFFFFF DUP3 AND SWAP1 POP SWAP2 SWAP1 POP JUMP JUMPDEST PUSH1 0x0 PUSH3 0x1B9 DUP3 PUSH3 0x18C JUMP JUMPDEST SWAP1 POP SWAP2 SWAP1 POP JUMP JUMPDEST PUSH3 0x1CB DUP2 PUSH3 0x1AC JUMP JUMPDEST DUP3 MSTORE POP POP JUMP JUMPDEST PUSH1 0x0 PUSH1 0x20 DUP3 ADD SWAP1 POP PUSH3 0x1E8 PUSH1 0x0 DUP4 ADD DUP5 PUSH3 0x1C0 JUMP JUMPDEST SWAP3 SWAP2 POP POP JUMP JUMPDEST PUSH2 0x301E DUP1 PUSH3 0x1FE PUSH1 0x0 CODECOPY PUSH1 0x0 RETURN INVALID PUSH1 0x80 PUSH1 0x40 MSTORE PUSH1 0x4 CALLDATASIZE LT PUSH3 0xD9 JUMPI PUSH1 0x0 CALLDATALOAD PUSH1 0xE0 SHR DUP1 PUSH4 0x8DA5CB5B GT PUSH3 0x8B JUMPI DUP1 PUSH4 0xD5F63A06 GT PUSH3 0x61 JUMPI DUP1 PUSH4 0xD5F63A06 EQ PUSH3 0x2BE JUMPI DUP1 PUSH4 0xDCE0B4E4 EQ PUSH3 0x2EE JUMPI DUP1 PUSH4 0xF2FDE38B EQ PUSH3 0x31E JUMPI DUP1 PUSH4 0xFCC31AF0 EQ PUSH3 0x34C JUMPI PUSH3 0xE1 JUMP JUMPDEST DUP1 PUSH4 0x8DA5CB5B EQ PUSH3 0x206 JUMPI DUP1 PUSH4 0x949938E9 EQ PUSH3 0x236 JUMPI DUP1 PUSH4 0x9F886F26 EQ PUSH3 0x27A JUMPI PUSH3 0xE1 JUMP JUMPDEST DUP1 PUSH4 0x3CCFD60B EQ PUSH3 0xE6 JUMPI DUP1 PUSH4 0x48D40953 EQ PUSH3 0x100 JUMPI DUP1 PUSH4 0x53FA27A3 EQ PUSH3 0x144 JUMPI DUP1 PUSH4 0x715018A6 EQ PUSH3 0x17A JUMPI DUP1 PUSH4 0x877A4039 EQ PUSH3 0x194 JUMPI DUP1 PUSH4 0x89476069 EQ PUSH3 0x1D8 JUMPI PUSH3 0xE1 JUMP JUMPDEST CALLDATASIZE PUSH3 0xE1 JUMPI STOP JUMPDEST PUSH1 0x0 DUP1 REVERT JUMPDEST CALLVALUE DUP1 ISZERO PUSH3 0xF3 JUMPI PUSH1 0x0 DUP1 REVERT JUMPDEST POP PUSH3 0xFE PUSH3 0x390 JUMP JUMPDEST STOP JUMPDEST CALLVALUE DUP1 ISZERO PUSH3 0x10D JUMPI PUSH1 0x0 DUP1 REVERT JUMPDEST POP PUSH3 0x12C PUSH1 0x4 DUP1 CALLDATASIZE SUB DUP2 ADD SWAP1 PUSH3 0x126 SWAP2 SWAP1 PUSH3 0x1139 JUMP JUMPDEST PUSH3 0x3ED JUMP JUMPDEST PUSH1 0x40 MLOAD PUSH3 0x13B SWAP2 SWAP1 PUSH3 0x1288 JUMP JUMPDEST PUSH1 0x40 MLOAD DUP1 SWAP2 SUB SWAP1 RETURN JUMPDEST PUSH3 0x162 PUSH1 0x4 DUP1 CALLDATASIZE SUB DUP2 ADD SWAP1 PUSH3 0x15C SWAP2 SWAP1 PUSH3 0x14C2 JUMP JUMPDEST PUSH3 0x472 JUMP JUMPDEST PUSH1 0x40 MLOAD PUSH3 0x171 SWAP2 SWAP1 PUSH3 0x156D JUMP JUMPDEST PUSH1 0x40 MLOAD DUP1 SWAP2 SUB SWAP1 RETURN JUMPDEST CALLVALUE DUP1 ISZERO PUSH3 0x187 JUMPI PUSH1 0x0 DUP1 REVERT JUMPDEST POP PUSH3 0x192 PUSH3 0x9C5 JUMP JUMPDEST STOP JUMPDEST CALLVALUE DUP1 ISZERO PUSH3 0x1A1 JUMPI PUSH1 0x0 DUP1 REVERT JUMPDEST POP PUSH3 0x1C0 PUSH1 0x4 DUP1 CALLDATASIZE SUB DUP2 ADD SWAP1 PUSH3 0x1BA SWAP2 SWAP1 PUSH3 0x158A JUMP JUMPDEST PUSH3 0x9DD JUMP JUMPDEST PUSH1 0x40 MLOAD PUSH3 0x1CF SWAP2 SWAP1 PUSH3 0x15CD JUMP JUMPDEST PUSH1 0x40 MLOAD DUP1 SWAP2 SUB SWAP1 RETURN JUMPDEST CALLVALUE DUP1 ISZERO PUSH3 0x1E5 JUMPI PUSH1 0x0 DUP1 REVERT JUMPDEST POP PUSH3 0x204 PUSH1 0x4 DUP1 CALLDATASIZE SUB DUP2 ADD SWAP1 PUSH3 0x1FE SWAP2 SWAP1 PUSH3 0x158A JUMP JUMPDEST PUSH3 0xA29 JUMP JUMPDEST STOP JUMPDEST CALLVALUE DUP1 ISZERO PUSH3 0x213 JUMPI PUSH1 0x0 DUP1 REVERT JUMPDEST POP PUSH3 0x21E PUSH3 0xB41 JUMP JUMPDEST PUSH1 0x40 MLOAD PUSH3 0x22D SWAP2 SWAP1 PUSH3 0x156D JUMP JUMPDEST PUSH1 0x40 MLOAD DUP1 SWAP2 SUB SWAP1 RETURN JUMPDEST CALLVALUE DUP1 ISZERO PUSH3 0x243 JUMPI PUSH1 0x0 DUP1 REVERT JUMPDEST POP PUSH3 0x262 PUSH1 0x4 DUP1 CALLDATASIZE SUB DUP2 ADD SWAP1 PUSH3 0x25C SWAP2 SWAP1 PUSH3 0x158A JUMP JUMPDEST PUSH3 0xB6A JUMP JUMPDEST PUSH1 0x40 MLOAD PUSH3 0x271 SWAP2 SWAP1 PUSH3 0x16B8 JUMP JUMPDEST PUSH1 0x40 MLOAD DUP1 SWAP2 SUB SWAP1 RETURN JUMPDEST CALLVALUE DUP1 ISZERO PUSH3 0x287 JUMPI PUSH1 0x0 DUP1 REVERT JUMPDEST POP PUSH3 0x2A6 PUSH1 0x4 DUP1 CALLDATASIZE SUB DUP2 ADD SWAP1 PUSH3 0x2A0 SWAP2 SWAP1 PUSH3 0x1790 JUMP JUMPDEST PUSH3 0xC39 JUMP JUMPDEST PUSH1 0x40 MLOAD PUSH3 0x2B5 SWAP2 SWAP1 PUSH3 0x156D JUMP JUMPDEST PUSH1 0x40 MLOAD DUP1 SWAP2 SUB SWAP1 RETURN JUMPDEST CALLVALUE DUP1 ISZERO PUSH3 0x2CB JUMPI PUSH1 0x0 DUP1 REVERT JUMPDEST POP PUSH3 0x2D6 PUSH3 0xC85 JUMP JUMPDEST PUSH1 0x40 MLOAD PUSH3 0x2E5 SWAP2 SWAP1 PUSH3 0x15CD JUMP JUMPDEST PUSH1 0x40 MLOAD DUP1 SWAP2 SUB SWAP1 RETURN JUMPDEST CALLVALUE DUP1 ISZERO PUSH3 0x2FB JUMPI PUSH1 0x0 DUP1 REVERT JUMPDEST POP PUSH3 0x306 PUSH3 0xC8B JUMP JUMPDEST PUSH1 0x40 MLOAD PUSH3 0x315 SWAP2 SWAP1 PUSH3 0x15CD JUMP JUMPDEST PUSH1 0x40 MLOAD DUP1 SWAP2 SUB SWAP1 RETURN JUMPDEST CALLVALUE DUP1 ISZERO PUSH3 0x32B JUMPI PUSH1 0x0 DUP1 REVERT JUMPDEST POP PUSH3 0x34A PUSH1 0x4 DUP1 CALLDATASIZE SUB DUP2 ADD SWAP1 PUSH3 0x344 SWAP2 SWAP1 PUSH3 0x158A JUMP JUMPDEST PUSH3 0xC91 JUMP JUMPDEST STOP JUMPDEST CALLVALUE DUP1 ISZERO PUSH3 0x359 JUMPI PUSH1 0x0 DUP1 REVERT JUMPDEST POP PUSH3 0x378 PUSH1 0x4 DUP1 CALLDATASIZE SUB DUP2 ADD SWAP1 PUSH3 0x372 SWAP2 SWAP1 PUSH3 0x17F6 JUMP JUMPDEST PUSH3 0xD1E JUMP JUMPDEST PUSH1 0x40 MLOAD PUSH3 0x387 SWAP2 SWAP1 PUSH3 0x156D JUMP JUMPDEST PUSH1 0x40 MLOAD DUP1 SWAP2 SUB SWAP1 RETURN JUMPDEST PUSH3 0x39A PUSH3 0xD6D JUMP JUMPDEST PUSH3 0x3A4 PUSH3 0xB41 JUMP JUMPDEST PUSH20 0xFFFFFFFFFFFFFFFFFFFFFFFFFFFFFFFFFFFFFFFF AND PUSH2 0x8FC SELFBALANCE SWAP1 DUP2 ISZERO MUL SWAP1 PUSH1 0x40 MLOAD PUSH1 0x0 PUSH1 0x40 MLOAD DUP1 DUP4 SUB DUP2 DUP6 DUP9 DUP9 CALL SWAP4 POP POP POP POP ISZERO DUP1 ISZERO PUSH3 0x3EA JUMPI RETURNDATASIZE PUSH1 0x0 DUP1 RETURNDATACOPY RETURNDATASIZE PUSH1 0x0 REVERT JUMPDEST POP JUMP JUMPDEST PUSH1 0x60 PUSH1 0x0 PUSH1 0x40 MLOAD DUP1 PUSH1 0x20 ADD PUSH3 0x403 SWAP1 PUSH3 0xEC9 JUMP JUMPDEST PUSH1 0x20 DUP3 ADD DUP2 SUB DUP3 MSTORE PUSH1 0x1F NOT PUSH1 0x1F DUP3 ADD AND PUSH1 0x40 MSTORE POP SWAP1 POP DUP1 DUP8 DUP8 DUP8 DUP8 DUP8 PUSH1 0x40 MLOAD PUSH1 0x20 ADD PUSH3 0x435 SWAP6 SWAP5 SWAP4 SWAP3 SWAP2 SWAP1 PUSH3 0x18F3 JUMP JUMPDEST PUSH1 0x40 MLOAD PUSH1 0x20 DUP2 DUP4 SUB SUB DUP2 MSTORE SWAP1 PUSH1 0x40 MSTORE PUSH1 0x40 MLOAD PUSH1 0x20 ADD PUSH3 0x457 SWAP3 SWAP2 SWAP1 PUSH3 0x19A0 JUMP JUMPDEST PUSH1 0x40 MLOAD PUSH1 0x20 DUP2 DUP4 SUB SUB DUP2 MSTORE SWAP1 PUSH1 0x40 MSTORE SWAP2 POP POP SWAP6 SWAP5 POP POP POP POP POP JUMP JUMPDEST PUSH1 0x0 DUP3 MLOAD DUP3 MLOAD EQ PUSH3 0x4BB JUMPI PUSH1 0x40 MLOAD PUSH32 0x8C379A000000000000000000000000000000000000000000000000000000000 DUP2 MSTORE PUSH1 0x4 ADD PUSH3 0x4B2 SWAP1 PUSH3 0x1A3E JUMP JUMPDEST PUSH1 0x40 MLOAD DUP1 SWAP2 SUB SWAP1 REVERT JUMPDEST PUSH1 0x4 PUSH1 0x0 SWAP1 SLOAD SWAP1 PUSH2 0x100 EXP SWAP1 DIV PUSH1 0xFF AND PUSH1 0xFF AND DUP3 MLOAD GT ISZERO PUSH3 0x514 JUMPI PUSH1 0x40 MLOAD PUSH32 0x8C379A000000000000000000000000000000000000000000000000000000000 DUP2 MSTORE PUSH1 0x4 ADD PUSH3 0x50B SWAP1 PUSH3 0x1AD6 JUMP JUMPDEST PUSH1 0x40 MLOAD DUP1 SWAP2 SUB SWAP1 REVERT JUMPDEST PUSH1 0x0 DUP1 JUMPDEST DUP4 MLOAD DUP2 LT ISZERO PUSH3 0x55D JUMPI DUP4 DUP2 DUP2 MLOAD DUP2 LT PUSH3 0x538 JUMPI PUSH3 0x537 PUSH3 0x1AF8 JUMP JUMPDEST JUMPDEST PUSH1 0x20 MUL PUSH1 0x20 ADD ADD MLOAD DUP3 PUSH3 0x54D SWAP2 SWAP1 PUSH3 0x1B56 JUMP JUMPDEST SWAP2 POP DUP1 DUP1 PUSH1 0x1 ADD SWAP2 POP POP PUSH3 0x518 JUMP JUMPDEST POP PUSH1 0x0 PUSH20 0xFFFFFFFFFFFFFFFFFFFFFFFFFFFFFFFFFFFFFFFF AND DUP6 PUSH20 0xFFFFFFFFFFFFFFFFFFFFFFFFFFFFFFFFFFFFFFFF AND SUB PUSH3 0x5EE JUMPI DUP1 PUSH1 0x2 SLOAD PUSH3 0x5A3 SWAP2 SWAP1 PUSH3 0x1B56 JUMP JUMPDEST CALLVALUE LT ISZERO PUSH3 0x5E8 JUMPI PUSH1 0x40 MLOAD PUSH32 0x8C379A000000000000000000000000000000000000000000000000000000000 DUP2 MSTORE PUSH1 0x4 ADD PUSH3 0x5DF SWAP1 PUSH3 0x1C07 JUMP JUMPDEST PUSH1 0x40 MLOAD DUP1 SWAP2 SUB SWAP1 REVERT JUMPDEST PUSH3 0x6BB JUMP JUMPDEST PUSH1 0x0 DUP6 PUSH20 0xFFFFFFFFFFFFFFFFFFFFFFFFFFFFFFFFFFFFFFFF AND PUSH4 0xDD62ED3E CALLER ADDRESS PUSH1 0x40 MLOAD DUP4 PUSH4 0xFFFFFFFF AND PUSH1 0xE0 SHL DUP2 MSTORE PUSH1 0x4 ADD PUSH3 0x62D SWAP3 SWAP2 SWAP1 PUSH3 0x1C29 JUMP JUMPDEST PUSH1 0x20 PUSH1 0x40 MLOAD DUP1 DUP4 SUB DUP2 DUP7 GAS STATICCALL ISZERO DUP1 ISZERO PUSH3 0x64B JUMPI RETURNDATASIZE PUSH1 0x0 DUP1 RETURNDATACOPY RETURNDATASIZE PUSH1 0x0 REVERT JUMPDEST POP POP POP POP PUSH1 0x40 MLOAD RETURNDATASIZE PUSH1 0x1F NOT PUSH1 0x1F DUP3 ADD AND DUP3 ADD DUP1 PUSH1 0x40 MSTORE POP DUP2 ADD SWAP1 PUSH3 0x671 SWAP2 SWAP1 PUSH3 0x1C6D JUMP JUMPDEST SWAP1 POP DUP2 DUP2 LT ISZERO PUSH3 0x6B9 JUMPI PUSH1 0x40 MLOAD PUSH32 0x8C379A000000000000000000000000000000000000000000000000000000000 DUP2 MSTORE PUSH1 0x4 ADD PUSH3 0x6B0 SWAP1 PUSH3 0x1D15 JUMP JUMPDEST PUSH1 0x40 MLOAD DUP1 SWAP2 SUB SWAP1 REVERT JUMPDEST POP JUMPDEST PUSH1 0x0 DUP1 PUSH20 0xFFFFFFFFFFFFFFFFFFFFFFFFFFFFFFFFFFFFFFFF AND DUP7 PUSH20 0xFFFFFFFFFFFFFFFFFFFFFFFFFFFFFFFFFFFFFFFF AND EQ PUSH3 0x6F9 JUMPI PUSH1 0x0 PUSH3 0x6FB JUMP JUMPDEST DUP2 JUMPDEST PUSH1 0x1 PUSH1 0x0 CALLER PUSH20 0xFFFFFFFFFFFFFFFFFFFFFFFFFFFFFFFFFFFFFFFF AND PUSH20 0xFFFFFFFFFFFFFFFFFFFFFFFFFFFFFFFFFFFFFFFF AND DUP2 MSTORE PUSH1 0x20 ADD SWAP1 DUP2 MSTORE PUSH1 0x20 ADD PUSH1 0x0 KECCAK256 DUP1 SLOAD SWAP1 POP PUSH1 0x0 SHL SWAP1 DUP8 DUP8 DUP8 PUSH1 0x40 MLOAD PUSH3 0x753 SWAP1 PUSH3 0xEC9 JUMP JUMPDEST PUSH3 0x761 SWAP4 SWAP3 SWAP2 SWAP1 PUSH3 0x1E05 JUMP JUMPDEST DUP3 SWAP1 PUSH1 0x40 MLOAD DUP1 SWAP2 SUB SWAP1 DUP4 CREATE2 SWAP1 POP SWAP1 POP DUP1 ISZERO DUP1 ISZERO PUSH3 0x783 JUMPI RETURNDATASIZE PUSH1 0x0 DUP1 RETURNDATACOPY RETURNDATASIZE PUSH1 0x0 REVERT JUMPDEST POP SWAP1 POP PUSH1 0x1 PUSH1 0x0 CALLER PUSH20 0xFFFFFFFFFFFFFFFFFFFFFFFFFFFFFFFFFFFFFFFF AND PUSH20 0xFFFFFFFFFFFFFFFFFFFFFFFFFFFFFFFFFFFFFFFF AND DUP2 MSTORE PUSH1 0x20 ADD SWAP1 DUP2 MSTORE PUSH1 0x20 ADD PUSH1 0x0 KECCAK256 DUP2 SWAP1 DUP1 PUSH1 0x1 DUP2 SLOAD ADD DUP1 DUP3 SSTORE DUP1 SWAP2 POP POP PUSH1 0x1 SWAP1 SUB SWAP1 PUSH1 0x0 MSTORE PUSH1 0x20 PUSH1 0x0 KECCAK256 ADD PUSH1 0x0 SWAP1 SWAP2 SWAP1 SWAP2 SWAP1 SWAP2 PUSH2 0x100 EXP DUP2 SLOAD DUP2 PUSH20 0xFFFFFFFFFFFFFFFFFFFFFFFFFFFFFFFFFFFFFFFF MUL NOT AND SWAP1 DUP4 PUSH20 0xFFFFFFFFFFFFFFFFFFFFFFFFFFFFFFFFFFFFFFFF AND MUL OR SWAP1 SSTORE POP PUSH1 0x0 PUSH20 0xFFFFFFFFFFFFFFFFFFFFFFFFFFFFFFFFFFFFFFFF AND DUP7 PUSH20 0xFFFFFFFFFFFFFFFFFFFFFFFFFFFFFFFFFFFFFFFF AND EQ PUSH3 0x8E2 JUMPI DUP6 PUSH20 0xFFFFFFFFFFFFFFFFFFFFFFFFFFFFFFFFFFFFFFFF AND PUSH4 0x23B872DD CALLER DUP4 DUP6 PUSH1 0x40 MLOAD DUP5 PUSH4 0xFFFFFFFF AND PUSH1 0xE0 SHL DUP2 MSTORE PUSH1 0x4 ADD PUSH3 0x89A SWAP4 SWAP3 SWAP2 SWAP1 PUSH3 0x1E50 JUMP JUMPDEST PUSH1 0x20 PUSH1 0x40 MLOAD DUP1 DUP4 SUB DUP2 PUSH1 0x0 DUP8 GAS CALL ISZERO DUP1 ISZERO PUSH3 0x8BA JUMPI RETURNDATASIZE PUSH1 0x0 DUP1 RETURNDATACOPY RETURNDATASIZE PUSH1 0x0 REVERT JUMPDEST POP POP POP POP PUSH1 0x40 MLOAD RETURNDATASIZE PUSH1 0x1F NOT PUSH1 0x1F DUP3 ADD AND DUP3 ADD DUP1 PUSH1 0x40 MSTORE POP DUP2 ADD SWAP1 PUSH3 0x8E0 SWAP2 SWAP1 PUSH3 0x1EA4 JUMP JUMPDEST POP JUMPDEST DUP1 PUSH20 0xFFFFFFFFFFFFFFFFFFFFFFFFFFFFFFFFFFFFFFFF AND PUSH4 0x294402CC PUSH1 0x40 MLOAD DUP2 PUSH4 0xFFFFFFFF AND PUSH1 0xE0 SHL DUP2 MSTORE PUSH1 0x4 ADD PUSH1 0x0 PUSH1 0x40 MLOAD DUP1 DUP4 SUB DUP2 PUSH1 0x0 DUP8 DUP1 EXTCODESIZE ISZERO DUP1 ISZERO PUSH3 0x92B JUMPI PUSH1 0x0 DUP1 REVERT JUMPDEST POP GAS CALL ISZERO DUP1 ISZERO PUSH3 0x940 JUMPI RETURNDATASIZE PUSH1 0x0 DUP1 RETURNDATACOPY RETURNDATASIZE PUSH1 0x0 REVERT JUMPDEST POP POP POP POP DUP1 PUSH20 0xFFFFFFFFFFFFFFFFFFFFFFFFFFFFFFFFFFFFFFFF AND CALLER PUSH20 0xFFFFFFFFFFFFFFFFFFFFFFFFFFFFFFFFFFFFFFFF AND PUSH32 0x6D1F96E538195EEBC344E4FD73EFD605A9CFDF73D3267009398ED160D33F1938 PUSH1 0x40 MLOAD PUSH1 0x40 MLOAD DUP1 SWAP2 SUB SWAP1 LOG3 CALLVALUE PUSH1 0x3 PUSH1 0x0 DUP3 DUP3 SLOAD PUSH3 0x9B2 SWAP2 SWAP1 PUSH3 0x1B56 JUMP JUMPDEST SWAP3 POP POP DUP2 SWAP1 SSTORE POP DUP1 SWAP3 POP POP POP SWAP4 SWAP3 POP POP POP JUMP JUMPDEST PUSH3 0x9CF PUSH3 0xD6D JUMP JUMPDEST PUSH3 0x9DB PUSH1 0x0 PUSH3 0xDFD JUMP JUMPDEST JUMP JUMPDEST PUSH1 0x0 PUSH1 0x1 PUSH1 0x0 DUP4 PUSH20 0xFFFFFFFFFFFFFFFFFFFFFFFFFFFFFFFFFFFFFFFF AND PUSH20 0xFFFFFFFFFFFFFFFFFFFFFFFFFFFFFFFFFFFFFFFF AND DUP2 MSTORE PUSH1 0x20 ADD SWAP1 DUP2 MSTORE PUSH1 0x20 ADD PUSH1 0x0 KECCAK256 DUP1 SLOAD SWAP1 POP SWAP1 POP SWAP2 SWAP1 POP JUMP JUMPDEST PUSH3 0xA33 PUSH3 0xD6D JUMP JUMPDEST DUP1 PUSH20 0xFFFFFFFFFFFFFFFFFFFFFFFFFFFFFFFFFFFFFFFF AND PUSH4 0xA9059CBB PUSH3 0xA59 PUSH3 0xB41 JUMP JUMPDEST DUP4 PUSH20 0xFFFFFFFFFFFFFFFFFFFFFFFFFFFFFFFFFFFFFFFF AND PUSH4 0x70A08231 ADDRESS PUSH1 0x40 MLOAD DUP3 PUSH4 0xFFFFFFFF AND PUSH1 0xE0 SHL DUP2 MSTORE PUSH1 0x4 ADD PUSH3 0xA94 SWAP2 SWAP1 PUSH3 0x156D JUMP JUMPDEST PUSH1 0x20 PUSH1 0x40 MLOAD DUP1 DUP4 SUB DUP2 DUP7 GAS STATICCALL ISZERO DUP1 ISZERO PUSH3 0xAB2 JUMPI RETURNDATASIZE PUSH1 0x0 DUP1 RETURNDATACOPY RETURNDATASIZE PUSH1 0x0 REVERT JUMPDEST POP POP POP POP PUSH1 0x40 MLOAD RETURNDATASIZE PUSH1 0x1F NOT PUSH1 0x1F DUP3 ADD AND DUP3 ADD DUP1 PUSH1 0x40 MSTORE POP DUP2 ADD SWAP1 PUSH3 0xAD8 SWAP2 SWAP1 PUSH3 0x1C6D JUMP JUMPDEST PUSH1 0x40 MLOAD DUP4 PUSH4 0xFFFFFFFF AND PUSH1 0xE0 SHL DUP2 MSTORE PUSH1 0x4 ADD PUSH3 0xAF7 SWAP3 SWAP2 SWAP1 PUSH3 0x1ED6 JUMP JUMPDEST PUSH1 0x20 PUSH1 0x40 MLOAD DUP1 DUP4 SUB DUP2 PUSH1 0x0 DUP8 GAS CALL ISZERO DUP1 ISZERO PUSH3 0xB17 JUMPI RETURNDATASIZE PUSH1 0x0 DUP1 RETURNDATACOPY RETURNDATASIZE PUSH1 0x0 REVERT JUMPDEST POP POP POP POP PUSH1 0x40 MLOAD RETURNDATASIZE PUSH1 0x1F NOT PUSH1 0x1F DUP3 ADD AND DUP3 ADD DUP1 PUSH1 0x40 MSTORE POP DUP2 ADD SWAP1 PUSH3 0xB3D SWAP2 SWAP1 PUSH3 0x1EA4 JUMP JUMPDEST POP POP JUMP JUMPDEST PUSH1 0x0 DUP1 PUSH1 0x0 SWAP1 SLOAD SWAP1 PUSH2 0x100 EXP SWAP1 DIV PUSH20 0xFFFFFFFFFFFFFFFFFFFFFFFFFFFFFFFFFFFFFFFF AND SWAP1 POP SWAP1 JUMP JUMPDEST PUSH1 0x60 PUSH1 0x1 PUSH1 0x0 DUP4 PUSH20 0xFFFFFFFFFFFFFFFFFFFFFFFFFFFFFFFFFFFFFFFF AND PUSH20 0xFFFFFFFFFFFFFFFFFFFFFFFFFFFFFFFFFFFFFFFF AND DUP2 MSTORE PUSH1 0x20 ADD SWAP1 DUP2 MSTORE PUSH1 0x20 ADD PUSH1 0x0 KECCAK256 DUP1 SLOAD DUP1 PUSH1 0x20 MUL PUSH1 0x20 ADD PUSH1 0x40 MLOAD SWAP1 DUP2 ADD PUSH1 0x40 MSTORE DUP1 SWAP3 SWAP2 SWAP1 DUP2 DUP2 MSTORE PUSH1 0x20 ADD DUP3 DUP1 SLOAD DUP1 ISZERO PUSH3 0xC2D JUMPI PUSH1 0x20 MUL DUP3 ADD SWAP2 SWAP1 PUSH1 0x0 MSTORE PUSH1 0x20 PUSH1 0x0 KECCAK256 SWAP1 JUMPDEST DUP2 PUSH1 0x0 SWAP1 SLOAD SWAP1 PUSH2 0x100 EXP SWAP1 DIV PUSH20 0xFFFFFFFFFFFFFFFFFFFFFFFFFFFFFFFFFFFFFFFF AND PUSH20 0xFFFFFFFFFFFFFFFFFFFFFFFFFFFFFFFFFFFFFFFF AND DUP2 MSTORE PUSH1 0x20 ADD SWAP1 PUSH1 0x1 ADD SWAP1 DUP1 DUP4 GT PUSH3 0xBE2 JUMPI JUMPDEST POP POP POP POP POP SWAP1 POP SWAP2 SWAP1 POP JUMP JUMPDEST PUSH1 0x0 DUP1 PUSH1 0xFF PUSH1 0xF8 SHL ADDRESS DUP5 DUP7 DUP1 MLOAD SWAP1 PUSH1 0x20 ADD KECCAK256 PUSH1 0x40 MLOAD PUSH1 0x20 ADD PUSH3 0xC60 SWAP5 SWAP4 SWAP3 SWAP2 SWAP1 PUSH3 0x1FF8 JUMP JUMPDEST PUSH1 0x40 MLOAD PUSH1 0x20 DUP2 DUP4 SUB SUB DUP2 MSTORE SWAP1 PUSH1 0x40 MSTORE DUP1 MLOAD SWAP1 PUSH1 0x20 ADD KECCAK256 SWAP1 POP DUP1 PUSH1 0x0 SHR SWAP2 POP POP SWAP3 SWAP2 POP POP JUMP JUMPDEST PUSH1 0x3 SLOAD DUP2 JUMP JUMPDEST PUSH1 0x2 SLOAD DUP2 JUMP JUMPDEST PUSH3 0xC9B PUSH3 0xD6D JUMP JUMPDEST PUSH1 0x0 PUSH20 0xFFFFFFFFFFFFFFFFFFFFFFFFFFFFFFFFFFFFFFFF AND DUP2 PUSH20 0xFFFFFFFFFFFFFFFFFFFFFFFFFFFFFFFFFFFFFFFF AND SUB PUSH3 0xD10 JUMPI PUSH1 0x0 PUSH1 0x40 MLOAD PUSH32 0x1E4FBDF700000000000000000000000000000000000000000000000000000000 DUP2 MSTORE PUSH1 0x4 ADD PUSH3 0xD07 SWAP2 SWAP1 PUSH3 0x156D JUMP JUMPDEST PUSH1 0x40 MLOAD DUP1 SWAP2 SUB SWAP1 REVERT JUMPDEST PUSH3 0xD1B DUP2 PUSH3 0xDFD JUMP JUMPDEST POP JUMP JUMPDEST PUSH1 0x1 PUSH1 0x20 MSTORE DUP2 PUSH1 0x0 MSTORE PUSH1 0x40 PUSH1 0x0 KECCAK256 DUP2 DUP2 SLOAD DUP2 LT PUSH3 0xD3B JUMPI PUSH1 0x0 DUP1 REVERT JUMPDEST SWAP1 PUSH1 0x0 MSTORE PUSH1 0x20 PUSH1 0x0 KECCAK256 ADD PUSH1 0x0 SWAP2 POP SWAP2 POP SWAP1 SLOAD SWAP1 PUSH2 0x100 EXP SWAP1 DIV PUSH20 0xFFFFFFFFFFFFFFFFFFFFFFFFFFFFFFFFFFFFFFFF AND DUP2 JUMP JUMPDEST PUSH3 0xD77 PUSH3 0xEC1 JUMP JUMPDEST PUSH20 0xFFFFFFFFFFFFFFFFFFFFFFFFFFFFFFFFFFFFFFFF AND PUSH3 0xD97 PUSH3 0xB41 JUMP JUMPDEST PUSH20 0xFFFFFFFFFFFFFFFFFFFFFFFFFFFFFFFFFFFFFFFF AND EQ PUSH3 0xDFB JUMPI PUSH3 0xDBD PUSH3 0xEC1 JUMP JUMPDEST PUSH1 0x40 MLOAD PUSH32 0x118CDAA700000000000000000000000000000000000000000000000000000000 DUP2 MSTORE PUSH1 0x4 ADD PUSH3 0xDF2 SWAP2 SWAP1 PUSH3 0x156D JUMP JUMPDEST PUSH1 0x40 MLOAD DUP1 SWAP2 SUB SWAP1 REVERT JUMPDEST JUMP JUMPDEST PUSH1 0x0 DUP1 PUSH1 0x0 SWAP1 SLOAD SWAP1 PUSH2 0x100 EXP SWAP1 DIV PUSH20 0xFFFFFFFFFFFFFFFFFFFFFFFFFFFFFFFFFFFFFFFF AND SWAP1 POP DUP2 PUSH1 0x0 DUP1 PUSH2 0x100 EXP DUP2 SLOAD DUP2 PUSH20 0xFFFFFFFFFFFFFFFFFFFFFFFFFFFFFFFFFFFFFFFF MUL NOT AND SWAP1 DUP4 PUSH20 0xFFFFFFFFFFFFFFFFFFFFFFFFFFFFFFFFFFFFFFFF AND MUL OR SWAP1 SSTORE POP DUP2 PUSH20 0xFFFFFFFFFFFFFFFFFFFFFFFFFFFFFFFFFFFFFFFF AND DUP2 PUSH20 0xFFFFFFFFFFFFFFFFFFFFFFFFFFFFFFFFFFFFFFFF AND PUSH32 0x8BE0079C531659141344CD1FD0A4F28419497F9722A3DAAFE3B4186F6B6457E0 PUSH1 0x40 MLOAD PUSH1 0x40 MLOAD DUP1 SWAP2 SUB SWAP1 LOG3 POP POP JUMP JUMPDEST PUSH1 0x0 CALLER SWAP1 POP SWAP1 JUMP JUMPDEST PUSH2 0xF9A DUP1 PUSH3 0x204F DUP4 CODECOPY ADD SWAP1 JUMP JUMPDEST PUSH1 0x0 PUSH1 0x40 MLOAD SWAP1 POP SWAP1 JUMP JUMPDEST PUSH1 0x0 DUP1 REVERT JUMPDEST PUSH1 0x0 DUP1 REVERT JUMPDEST PUSH1 0x0 DUP1 REVERT JUMPDEST PUSH1 0x0 DUP1 REVERT JUMPDEST PUSH1 0x0 PUSH1 0x1F NOT PUSH1 0x1F DUP4 ADD AND SWAP1 POP SWAP2 SWAP1 POP JUMP JUMPDEST PUSH32 0x4E487B7100000000000000000000000000000000000000000000000000000000 PUSH1 0x0 MSTORE PUSH1 0x41 PUSH1 0x4 MSTORE PUSH1 0x24 PUSH1 0x0 REVERT JUMPDEST PUSH3 0xF40 DUP3 PUSH3 0xEF5 JUMP JUMPDEST DUP2 ADD DUP2 DUP2 LT PUSH8 0xFFFFFFFFFFFFFFFF DUP3 GT OR ISZERO PUSH3 0xF62 JUMPI PUSH3 0xF61 PUSH3 0xF06 JUMP JUMPDEST JUMPDEST DUP1 PUSH1 0x40 MSTORE POP POP POP JUMP JUMPDEST PUSH1 0x0 PUSH3 0xF77 PUSH3 0xED7 JUMP JUMPDEST SWAP1 POP PUSH3 0xF85 DUP3 DUP3 PUSH3 0xF35 JUMP JUMPDEST SWAP2 SWAP1 POP JUMP JUMPDEST PUSH1 0x0 PUSH8 0xFFFFFFFFFFFFFFFF DUP3 GT ISZERO PUSH3 0xFA8 JUMPI PUSH3 0xFA7 PUSH3 0xF06 JUMP JUMPDEST JUMPDEST PUSH3 0xFB3 DUP3 PUSH3 0xEF5 JUMP JUMPDEST SWAP1 POP PUSH1 0x20 DUP2 ADD SWAP1 POP SWAP2 SWAP1 POP JUMP JUMPDEST DUP3 DUP2 DUP4 CALLDATACOPY PUSH1 0x0 DUP4 DUP4 ADD MSTORE POP POP POP JUMP JUMPDEST PUSH1 0x0 PUSH3 0xFE6 PUSH3 0xFE0 DUP5 PUSH3 0xF8A JUMP JUMPDEST PUSH3 0xF6B JUMP JUMPDEST SWAP1 POP DUP3 DUP2 MSTORE PUSH1 0x20 DUP2 ADD DUP5 DUP5 DUP5 ADD GT ISZERO PUSH3 0x1005 JUMPI PUSH3 0x1004 PUSH3 0xEF0 JUMP JUMPDEST JUMPDEST PUSH3 0x1012 DUP5 DUP3 DUP6 PUSH3 0xFC0 JUMP JUMPDEST POP SWAP4 SWAP3 POP POP POP JUMP JUMPDEST PUSH1 0x0 DUP3 PUSH1 0x1F DUP4 ADD SLT PUSH3 0x1032 JUMPI PUSH3 0x1031 PUSH3 0xEEB JUMP JUMPDEST JUMPDEST DUP2 CALLDATALOAD PUSH3 0x1044 DUP5 DUP3 PUSH1 0x20 DUP7 ADD PUSH3 0xFCF JUMP JUMPDEST SWAP2 POP POP SWAP3 SWAP2 POP POP JUMP JUMPDEST PUSH1 0x0 DUP2 SWAP1 POP SWAP2 SWAP1 POP JUMP JUMPDEST PUSH3 0x1062 DUP2 PUSH3 0x104D JUMP JUMPDEST DUP2 EQ PUSH3 0x106E JUMPI PUSH1 0x0 DUP1 REVERT JUMPDEST POP JUMP JUMPDEST PUSH1 0x0 DUP2 CALLDATALOAD SWAP1 POP PUSH3 0x1082 DUP2 PUSH3 0x1057 JUMP JUMPDEST SWAP3 SWAP2 POP POP JUMP JUMPDEST PUSH1 0x0 DUP1 REVERT JUMPDEST PUSH1 0x0 DUP2 ISZERO ISZERO SWAP1 POP SWAP2 SWAP1 POP JUMP JUMPDEST PUSH3 0x10A4 DUP2 PUSH3 0x108D JUMP JUMPDEST DUP2 EQ PUSH3 0x10B0 JUMPI PUSH1 0x0 DUP1 REVERT JUMPDEST POP JUMP JUMPDEST PUSH1 0x0 DUP2 CALLDATALOAD SWAP1 POP PUSH3 0x10C4 DUP2 PUSH3 0x1099 JUMP JUMPDEST SWAP3 SWAP2 POP POP JUMP JUMPDEST PUSH1 0x0 PUSH1 0x60 DUP3 DUP5 SUB SLT ISZERO PUSH3 0x10E3 JUMPI PUSH3 0x10E2 PUSH3 0x1088 JUMP JUMPDEST JUMPDEST PUSH3 0x10EF PUSH1 0x60 PUSH3 0xF6B JUMP JUMPDEST SWAP1 POP PUSH1 0x0 PUSH3 0x1101 DUP5 DUP3 DUP6 ADD PUSH3 0x10B3 JUMP JUMPDEST PUSH1 0x0 DUP4 ADD MSTORE POP PUSH1 0x20 PUSH3 0x1117 DUP5 DUP3 DUP6 ADD PUSH3 0x10B3 JUMP JUMPDEST PUSH1 0x20 DUP4 ADD MSTORE POP PUSH1 0x40 PUSH3 0x112D DUP5 DUP3 DUP6 ADD PUSH3 0x10B3 JUMP JUMPDEST PUSH1 0x40 DUP4 ADD MSTORE POP SWAP3 SWAP2 POP POP JUMP JUMPDEST PUSH1 0x0 DUP1 PUSH1 0x0 DUP1 PUSH1 0x0 PUSH1 0xE0 DUP7 DUP9 SUB SLT ISZERO PUSH3 0x1158 JUMPI PUSH3 0x1157 PUSH3 0xEE1 JUMP JUMPDEST JUMPDEST PUSH1 0x0 DUP7 ADD CALLDATALOAD PUSH8 0xFFFFFFFFFFFFFFFF DUP2 GT ISZERO PUSH3 0x1179 JUMPI PUSH3 0x1178 PUSH3 0xEE6 JUMP JUMPDEST JUMPDEST PUSH3 0x1187 DUP9 DUP3 DUP10 ADD PUSH3 0x101A JUMP JUMPDEST SWAP6 POP POP PUSH1 0x20 DUP7 ADD CALLDATALOAD PUSH8 0xFFFFFFFFFFFFFFFF DUP2 GT ISZERO PUSH3 0x11AB JUMPI PUSH3 0x11AA PUSH3 0xEE6 JUMP JUMPDEST JUMPDEST PUSH3 0x11B9 DUP9 DUP3 DUP10 ADD PUSH3 0x101A JUMP JUMPDEST SWAP5 POP POP PUSH1 0x40 PUSH3 0x11CC DUP9 DUP3 DUP10 ADD PUSH3 0x1071 JUMP JUMPDEST SWAP4 POP POP PUSH1 0x60 PUSH3 0x11DF DUP9 DUP3 DUP10 ADD PUSH3 0x1071 JUMP JUMPDEST SWAP3 POP POP PUSH1 0x80 PUSH3 0x11F2 DUP9 DUP3 DUP10 ADD PUSH3 0x10CA JUMP JUMPDEST SWAP2 POP POP SWAP3 SWAP6 POP SWAP3 SWAP6 SWAP1 SWAP4 POP JUMP JUMPDEST PUSH1 0x0 DUP2 MLOAD SWAP1 POP SWAP2 SWAP1 POP JUMP JUMPDEST PUSH1 0x0 DUP3 DUP3 MSTORE PUSH1 0x20 DUP3 ADD SWAP1 POP SWAP3 SWAP2 POP POP JUMP JUMPDEST PUSH1 0x0 JUMPDEST DUP4 DUP2 LT ISZERO PUSH3 0x123B JUMPI DUP1 DUP3 ADD MLOAD DUP2 DUP5 ADD MSTORE PUSH1 0x20 DUP2 ADD SWAP1 POP PUSH3 0x121E JUMP JUMPDEST PUSH1 0x0 DUP5 DUP5 ADD MSTORE POP POP POP POP JUMP JUMPDEST PUSH1 0x0 PUSH3 0x1254 DUP3 PUSH3 0x11FF JUMP JUMPDEST PUSH3 0x1260 DUP2 DUP6 PUSH3 0x120A JUMP JUMPDEST SWAP4 POP PUSH3 0x1272 DUP2 DUP6 PUSH1 0x20 DUP7 ADD PUSH3 0x121B JUMP JUMPDEST PUSH3 0x127D DUP2 PUSH3 0xEF5 JUMP JUMPDEST DUP5 ADD SWAP2 POP POP SWAP3 SWAP2 POP POP JUMP JUMPDEST PUSH1 0x0 PUSH1 0x20 DUP3 ADD SWAP1 POP DUP2 DUP2 SUB PUSH1 0x0 DUP4 ADD MSTORE PUSH3 0x12A4 DUP2 DUP5 PUSH3 0x1247 JUMP JUMPDEST SWAP1 POP SWAP3 SWAP2 POP POP JUMP JUMPDEST PUSH1 0x0 PUSH20 0xFFFFFFFFFFFFFFFFFFFFFFFFFFFFFFFFFFFFFFFF DUP3 AND SWAP1 POP SWAP2 SWAP1 POP JUMP JUMPDEST PUSH1 0x0 PUSH3 0x12D9 DUP3 PUSH3 0x12AC JUMP JUMPDEST SWAP1 POP SWAP2 SWAP1 POP JUMP JUMPDEST PUSH3 0x12EB DUP2 PUSH3 0x12CC JUMP JUMPDEST DUP2 EQ PUSH3 0x12F7 JUMPI PUSH1 0x0 DUP1 REVERT JUMPDEST POP JUMP JUMPDEST PUSH1 0x0 DUP2 CALLDATALOAD SWAP1 POP PUSH3 0x130B DUP2 PUSH3 0x12E0 JUMP JUMPDEST SWAP3 SWAP2 POP POP JUMP JUMPDEST PUSH1 0x0 PUSH8 0xFFFFFFFFFFFFFFFF DUP3 GT ISZERO PUSH3 0x132F JUMPI PUSH3 0x132E PUSH3 0xF06 JUMP JUMPDEST JUMPDEST PUSH1 0x20 DUP3 MUL SWAP1 POP PUSH1 0x20 DUP2 ADD SWAP1 POP SWAP2 SWAP1 POP JUMP JUMPDEST PUSH1 0x0 DUP1 REVERT JUMPDEST PUSH1 0x0 PUSH3 0x135C PUSH3 0x1356 DUP5 PUSH3 0x1311 JUMP JUMPDEST PUSH3 0xF6B JUMP JUMPDEST SWAP1 POP DUP1 DUP4 DUP3 MSTORE PUSH1 0x20 DUP3 ADD SWAP1 POP PUSH1 0x20 DUP5 MUL DUP4 ADD DUP6 DUP2 GT ISZERO PUSH3 0x1382 JUMPI PUSH3 0x1381 PUSH3 0x1340 JUMP JUMPDEST JUMPDEST DUP4 JUMPDEST DUP2 DUP2 LT ISZERO PUSH3 0x13AF JUMPI DUP1 PUSH3 0x139A DUP9 DUP3 PUSH3 0x12FA JUMP JUMPDEST DUP5 MSTORE PUSH1 0x20 DUP5 ADD SWAP4 POP POP PUSH1 0x20 DUP2 ADD SWAP1 POP PUSH3 0x1384 JUMP JUMPDEST POP POP POP SWAP4 SWAP3 POP POP POP JUMP JUMPDEST PUSH1 0x0 DUP3 PUSH1 0x1F DUP4 ADD SLT PUSH3 0x13D1 JUMPI PUSH3 0x13D0 PUSH3 0xEEB JUMP JUMPDEST JUMPDEST DUP2 CALLDATALOAD PUSH3 0x13E3 DUP5 DUP3 PUSH1 0x20 DUP7 ADD PUSH3 0x1345 JUMP JUMPDEST SWAP2 POP POP SWAP3 SWAP2 POP POP JUMP JUMPDEST PUSH1 0x0 PUSH8 0xFFFFFFFFFFFFFFFF DUP3 GT ISZERO PUSH3 0x140A JUMPI PUSH3 0x1409 PUSH3 0xF06 JUMP JUMPDEST JUMPDEST PUSH1 0x20 DUP3 MUL SWAP1 POP PUSH1 0x20 DUP2 ADD SWAP1 POP SWAP2 SWAP1 POP JUMP JUMPDEST PUSH1 0x0 PUSH3 0x1432 PUSH3 0x142C DUP5 PUSH3 0x13EC JUMP JUMPDEST PUSH3 0xF6B JUMP JUMPDEST SWAP1 POP DUP1 DUP4 DUP3 MSTORE PUSH1 0x20 DUP3 ADD SWAP1 POP PUSH1 0x20 DUP5 MUL DUP4 ADD DUP6 DUP2 GT ISZERO PUSH3 0x1458 JUMPI PUSH3 0x1457 PUSH3 0x1340 JUMP JUMPDEST JUMPDEST DUP4 JUMPDEST DUP2 DUP2 LT ISZERO PUSH3 0x1485 JUMPI DUP1 PUSH3 0x1470 DUP9 DUP3 PUSH3 0x1071 JUMP JUMPDEST DUP5 MSTORE PUSH1 0x20 DUP5 ADD SWAP4 POP POP PUSH1 0x20 DUP2 ADD SWAP1 POP PUSH3 0x145A JUMP JUMPDEST POP POP POP SWAP4 SWAP3 POP POP POP JUMP JUMPDEST PUSH1 0x0 DUP3 PUSH1 0x1F DUP4 ADD SLT PUSH3 0x14A7 JUMPI PUSH3 0x14A6 PUSH3 0xEEB JUMP JUMPDEST JUMPDEST DUP2 CALLDATALOAD PUSH3 0x14B9 DUP5 DUP3 PUSH1 0x20 DUP7 ADD PUSH3 0x141B JUMP JUMPDEST SWAP2 POP POP SWAP3 SWAP2 POP POP JUMP JUMPDEST PUSH1 0x0 DUP1 PUSH1 0x0 PUSH1 0x60 DUP5 DUP7 SUB SLT ISZERO PUSH3 0x14DE JUMPI PUSH3 0x14DD PUSH3 0xEE1 JUMP JUMPDEST JUMPDEST PUSH1 0x0 PUSH3 0x14EE DUP7 DUP3 DUP8 ADD PUSH3 0x12FA JUMP JUMPDEST SWAP4 POP POP PUSH1 0x20 DUP5 ADD CALLDATALOAD PUSH8 0xFFFFFFFFFFFFFFFF DUP2 GT ISZERO PUSH3 0x1512 JUMPI PUSH3 0x1511 PUSH3 0xEE6 JUMP JUMPDEST JUMPDEST PUSH3 0x1520 DUP7 DUP3 DUP8 ADD PUSH3 0x13B9 JUMP JUMPDEST SWAP3 POP POP PUSH1 0x40 DUP5 ADD CALLDATALOAD PUSH8 0xFFFFFFFFFFFFFFFF DUP2 GT ISZERO PUSH3 0x1544 JUMPI PUSH3 0x1543 PUSH3 0xEE6 JUMP JUMPDEST JUMPDEST PUSH3 0x1552 DUP7 DUP3 DUP8 ADD PUSH3 0x148F JUMP JUMPDEST SWAP2 POP POP SWAP3 POP SWAP3 POP SWAP3 JUMP JUMPDEST PUSH3 0x1567 DUP2 PUSH3 0x12CC JUMP JUMPDEST DUP3 MSTORE POP POP JUMP JUMPDEST PUSH1 0x0 PUSH1 0x20 DUP3 ADD SWAP1 POP PUSH3 0x1584 PUSH1 0x0 DUP4 ADD DUP5 PUSH3 0x155C JUMP JUMPDEST SWAP3 SWAP2 POP POP JUMP JUMPDEST PUSH1 0x0 PUSH1 0x20 DUP3 DUP5 SUB SLT ISZERO PUSH3 0x15A3 JUMPI PUSH3 0x15A2 PUSH3 0xEE1 JUMP JUMPDEST JUMPDEST PUSH1 0x0 PUSH3 0x15B3 DUP5 DUP3 DUP6 ADD PUSH3 0x12FA JUMP JUMPDEST SWAP2 POP POP SWAP3 SWAP2 POP POP JUMP JUMPDEST PUSH3 0x15C7 DUP2 PUSH3 0x104D JUMP JUMPDEST DUP3 MSTORE POP POP JUMP JUMPDEST PUSH1 0x0 PUSH1 0x20 DUP3 ADD SWAP1 POP PUSH3 0x15E4 PUSH1 0x0 DUP4 ADD DUP5 PUSH3 0x15BC JUMP JUMPDEST SWAP3 SWAP2 POP POP JUMP JUMPDEST PUSH1 0x0 DUP2 MLOAD SWAP1 POP SWAP2 SWAP1 POP JUMP JUMPDEST PUSH1 0x0 DUP3 DUP3 MSTORE PUSH1 0x20 DUP3 ADD SWAP1 POP SWAP3 SWAP2 POP POP JUMP JUMPDEST PUSH1 0x0 DUP2 SWAP1 POP PUSH1 0x20 DUP3 ADD SWAP1 POP SWAP2 SWAP1 POP JUMP JUMPDEST PUSH3 0x1621 DUP2 PUSH3 0x12CC JUMP JUMPDEST DUP3 MSTORE POP POP JUMP JUMPDEST PUSH1 0x0 PUSH3 0x1635 DUP4 DUP4 PUSH3 0x1616 JUMP JUMPDEST PUSH1 0x20 DUP4 ADD SWAP1 POP SWAP3 SWAP2 POP POP JUMP JUMPDEST PUSH1 0x0 PUSH1 0x20 DUP3 ADD SWAP1 POP SWAP2 SWAP1 POP JUMP JUMPDEST PUSH1 0x0 PUSH3 0x165B DUP3 PUSH3 0x15EA JUMP JUMPDEST PUSH3 0x1667 DUP2 DUP6 PUSH3 0x15F5 JUMP JUMPDEST SWAP4 POP PUSH3 0x1674 DUP4 PUSH3 0x1606 JUMP JUMPDEST DUP1 PUSH1 0x0 JUMPDEST DUP4 DUP2 LT ISZERO PUSH3 0x16AB JUMPI DUP2 MLOAD PUSH3 0x168F DUP9 DUP3 PUSH3 0x1627 JUMP JUMPDEST SWAP8 POP PUSH3 0x169C DUP4 PUSH3 0x1641 JUMP JUMPDEST SWAP3 POP POP PUSH1 0x1 DUP2 ADD SWAP1 POP PUSH3 0x1678 JUMP JUMPDEST POP DUP6 SWAP4 POP POP POP POP SWAP3 SWAP2 POP POP JUMP JUMPDEST PUSH1 0x0 PUSH1 0x20 DUP3 ADD SWAP1 POP DUP2 DUP2 SUB PUSH1 0x0 DUP4 ADD MSTORE PUSH3 0x16D4 DUP2 DUP5 PUSH3 0x164E JUMP JUMPDEST SWAP1 POP SWAP3 SWAP2 POP POP JUMP JUMPDEST PUSH1 0x0 PUSH8 0xFFFFFFFFFFFFFFFF DUP3 GT ISZERO PUSH3 0x16FA JUMPI PUSH3 0x16F9 PUSH3 0xF06 JUMP JUMPDEST JUMPDEST PUSH3 0x1705 DUP3 PUSH3 0xEF5 JUMP JUMPDEST SWAP1 POP PUSH1 0x20 DUP2 ADD SWAP1 POP SWAP2 SWAP1 POP JUMP JUMPDEST PUSH1 0x0 PUSH3 0x1729 PUSH3 0x1723 DUP5 PUSH3 0x16DC JUMP JUMPDEST PUSH3 0xF6B JUMP JUMPDEST SWAP1 POP DUP3 DUP2 MSTORE PUSH1 0x20 DUP2 ADD DUP5 DUP5 DUP5 ADD GT ISZERO PUSH3 0x1748 JUMPI PUSH3 0x1747 PUSH3 0xEF0 JUMP JUMPDEST JUMPDEST PUSH3 0x1755 DUP5 DUP3 DUP6 PUSH3 0xFC0 JUMP JUMPDEST POP SWAP4 SWAP3 POP POP POP JUMP JUMPDEST PUSH1 0x0 DUP3 PUSH1 0x1F DUP4 ADD SLT PUSH3 0x1775 JUMPI PUSH3 0x1774 PUSH3 0xEEB JUMP JUMPDEST JUMPDEST DUP2 CALLDATALOAD PUSH3 0x1787 DUP5 DUP3 PUSH1 0x20 DUP7 ADD PUSH3 0x1712 JUMP JUMPDEST SWAP2 POP POP SWAP3 SWAP2 POP POP JUMP JUMPDEST PUSH1 0x0 DUP1 PUSH1 0x40 DUP4 DUP6 SUB SLT ISZERO PUSH3 0x17AA JUMPI PUSH3 0x17A9 PUSH3 0xEE1 JUMP JUMPDEST JUMPDEST PUSH1 0x0 DUP4 ADD CALLDATALOAD PUSH8 0xFFFFFFFFFFFFFFFF DUP2 GT ISZERO PUSH3 0x17CB JUMPI PUSH3 0x17CA PUSH3 0xEE6 JUMP JUMPDEST JUMPDEST PUSH3 0x17D9 DUP6 DUP3 DUP7 ADD PUSH3 0x175D JUMP JUMPDEST SWAP3 POP POP PUSH1 0x20 PUSH3 0x17EC DUP6 DUP3 DUP7 ADD PUSH3 0x1071 JUMP JUMPDEST SWAP2 POP POP SWAP3 POP SWAP3 SWAP1 POP JUMP JUMPDEST PUSH1 0x0 DUP1 PUSH1 0x40 DUP4 DUP6 SUB SLT ISZERO PUSH3 0x1810 JUMPI PUSH3 0x180F PUSH3 0xEE1 JUMP JUMPDEST JUMPDEST PUSH1 0x0 PUSH3 0x1820 DUP6 DUP3 DUP7 ADD PUSH3 0x12FA JUMP JUMPDEST SWAP3 POP POP PUSH1 0x20 PUSH3 0x1833 DUP6 DUP3 DUP7 ADD PUSH3 0x1071 JUMP JUMPDEST SWAP2 POP POP SWAP3 POP SWAP3 SWAP1 POP JUMP JUMPDEST PUSH1 0x0 DUP2 MLOAD SWAP1 POP SWAP2 SWAP1 POP JUMP JUMPDEST PUSH1 0x0 DUP3 DUP3 MSTORE PUSH1 0x20 DUP3 ADD SWAP1 POP SWAP3 SWAP2 POP POP JUMP JUMPDEST PUSH1 0x0 PUSH3 0x1866 DUP3 PUSH3 0x183D JUMP JUMPDEST PUSH3 0x1872 DUP2 DUP6 PUSH3 0x1848 JUMP JUMPDEST SWAP4 POP PUSH3 0x1884 DUP2 DUP6 PUSH1 0x20 DUP7 ADD PUSH3 0x121B JUMP JUMPDEST PUSH3 0x188F DUP2 PUSH3 0xEF5 JUMP JUMPDEST DUP5 ADD SWAP2 POP POP SWAP3 SWAP2 POP POP JUMP JUMPDEST PUSH3 0x18A5 DUP2 PUSH3 0x108D JUMP JUMPDEST DUP3 MSTORE POP POP JUMP JUMPDEST PUSH1 0x60 DUP3 ADD PUSH1 0x0 DUP3 ADD MLOAD PUSH3 0x18C3 PUSH1 0x0 DUP6 ADD DUP3 PUSH3 0x189A JUMP JUMPDEST POP PUSH1 0x20 DUP3 ADD MLOAD PUSH3 0x18D8 PUSH1 0x20 DUP6 ADD DUP3 PUSH3 0x189A JUMP JUMPDEST POP PUSH1 0x40 DUP3 ADD MLOAD PUSH3 0x18ED PUSH1 0x40 DUP6 ADD DUP3 PUSH3 0x189A JUMP JUMPDEST POP POP POP POP JUMP JUMPDEST PUSH1 0x0 PUSH1 0xE0 DUP3 ADD SWAP1 POP DUP2 DUP2 SUB PUSH1 0x0 DUP4 ADD MSTORE PUSH3 0x190F DUP2 DUP9 PUSH3 0x1859 JUMP JUMPDEST SWAP1 POP DUP2 DUP2 SUB PUSH1 0x20 DUP4 ADD MSTORE PUSH3 0x1925 DUP2 DUP8 PUSH3 0x1859 JUMP JUMPDEST SWAP1 POP PUSH3 0x1936 PUSH1 0x40 DUP4 ADD DUP7 PUSH3 0x15BC JUMP JUMPDEST PUSH3 0x1945 PUSH1 0x60 DUP4 ADD DUP6 PUSH3 0x15BC JUMP JUMPDEST PUSH3 0x1954 PUSH1 0x80 DUP4 ADD DUP5 PUSH3 0x18AB JUMP JUMPDEST SWAP7 SWAP6 POP POP POP POP POP POP JUMP JUMPDEST PUSH1 0x0 DUP2 SWAP1 POP SWAP3 SWAP2 POP POP JUMP JUMPDEST PUSH1 0x0 PUSH3 0x1976 DUP3 PUSH3 0x11FF JUMP JUMPDEST PUSH3 0x1982 DUP2 DUP6 PUSH3 0x195E JUMP JUMPDEST SWAP4 POP PUSH3 0x1994 DUP2 DUP6 PUSH1 0x20 DUP7 ADD PUSH3 0x121B JUMP JUMPDEST DUP1 DUP5 ADD SWAP2 POP POP SWAP3 SWAP2 POP POP JUMP JUMPDEST PUSH1 0x0 PUSH3 0x19AE DUP3 DUP6 PUSH3 0x1969 JUMP JUMPDEST SWAP2 POP PUSH3 0x19BC DUP3 DUP5 PUSH3 0x1969 JUMP JUMPDEST SWAP2 POP DUP2 SWAP1 POP SWAP4 SWAP3 POP POP POP JUMP JUMPDEST PUSH32 0x546872757374706164546F6B656E466163746F72793A20496E76616C69642069 PUSH1 0x0 DUP3 ADD MSTORE PUSH32 0x6E70757400000000000000000000000000000000000000000000000000000000 PUSH1 0x20 DUP3 ADD MSTORE POP JUMP JUMPDEST PUSH1 0x0 PUSH3 0x1A26 PUSH1 0x24 DUP4 PUSH3 0x1848 JUMP JUMPDEST SWAP2 POP PUSH3 0x1A33 DUP3 PUSH3 0x19C8 JUMP JUMPDEST PUSH1 0x40 DUP3 ADD SWAP1 POP SWAP2 SWAP1 POP JUMP JUMPDEST PUSH1 0x0 PUSH1 0x20 DUP3 ADD SWAP1 POP DUP2 DUP2 SUB PUSH1 0x0 DUP4 ADD MSTORE PUSH3 0x1A59 DUP2 PUSH3 0x1A17 JUMP JUMPDEST SWAP1 POP SWAP2 SWAP1 POP JUMP JUMPDEST PUSH32 0x546872757374706164546F6B656E466163746F72793A20546F6F206D616E7920 PUSH1 0x0 DUP3 ADD MSTORE PUSH32 0x7265636569766572732070657220636F6E747261637400000000000000000000 PUSH1 0x20 DUP3 ADD MSTORE POP JUMP JUMPDEST PUSH1 0x0 PUSH3 0x1ABE PUSH1 0x36 DUP4 PUSH3 0x1848 JUMP JUMPDEST SWAP2 POP PUSH3 0x1ACB DUP3 PUSH3 0x1A60 JUMP JUMPDEST PUSH1 0x40 DUP3 ADD SWAP1 POP SWAP2 SWAP1 POP JUMP JUMPDEST PUSH1 0x0 PUSH1 0x20 DUP3 ADD SWAP1 POP DUP2 DUP2 SUB PUSH1 0x0 DUP4 ADD MSTORE PUSH3 0x1AF1 DUP2 PUSH3 0x1AAF JUMP JUMPDEST SWAP1 POP SWAP2 SWAP1 POP JUMP JUMPDEST PUSH32 0x4E487B7100000000000000000000000000000000000000000000000000000000 PUSH1 0x0 MSTORE PUSH1 0x32 PUSH1 0x4 MSTORE PUSH1 0x24 PUSH1 0x0 REVERT JUMPDEST PUSH32 0x4E487B7100000000000000000000000000000000000000000000000000000000 PUSH1 0x0 MSTORE PUSH1 0x11 PUSH1 0x4 MSTORE PUSH1 0x24 PUSH1 0x0 REVERT JUMPDEST PUSH1 0x0 PUSH3 0x1B63 DUP3 PUSH3 0x104D JUMP JUMPDEST SWAP2 POP PUSH3 0x1B70 DUP4 PUSH3 0x104D JUMP JUMPDEST SWAP3 POP DUP3 DUP3 ADD SWAP1 POP DUP1 DUP3 GT ISZERO PUSH3 0x1B8B JUMPI PUSH3 0x1B8A PUSH3 0x1B27 JUMP JUMPDEST JUMPDEST SWAP3 SWAP2 POP POP JUMP JUMPDEST PUSH32 0x546872757374706164546F6B656E466163746F72793A20496E73756666696369 PUSH1 0x0 DUP3 ADD MSTORE PUSH32 0x656E742076616C75653A20666565202B20746F74616C20616D6F756E74000000 PUSH1 0x20 DUP3 ADD MSTORE POP JUMP JUMPDEST PUSH1 0x0 PUSH3 0x1BEF PUSH1 0x3D DUP4 PUSH3 0x1848 JUMP JUMPDEST SWAP2 POP PUSH3 0x1BFC DUP3 PUSH3 0x1B91 JUMP JUMPDEST PUSH1 0x40 DUP3 ADD SWAP1 POP SWAP2 SWAP1 POP JUMP JUMPDEST PUSH1 0x0 PUSH1 0x20 DUP3 ADD SWAP1 POP DUP2 DUP2 SUB PUSH1 0x0 DUP4 ADD MSTORE PUSH3 0x1C22 DUP2 PUSH3 0x1BE0 JUMP JUMPDEST SWAP1 POP SWAP2 SWAP1 POP JUMP JUMPDEST PUSH1 0x0 PUSH1 0x40 DUP3 ADD SWAP1 POP PUSH3 0x1C40 PUSH1 0x0 DUP4 ADD DUP6 PUSH3 0x155C JUMP JUMPDEST PUSH3 0x1C4F PUSH1 0x20 DUP4 ADD DUP5 PUSH3 0x155C JUMP JUMPDEST SWAP4 SWAP3 POP POP POP JUMP JUMPDEST PUSH1 0x0 DUP2 MLOAD SWAP1 POP PUSH3 0x1C67 DUP2 PUSH3 0x1057 JUMP JUMPDEST SWAP3 SWAP2 POP POP JUMP JUMPDEST PUSH1 0x0 PUSH1 0x20 DUP3 DUP5 SUB SLT ISZERO PUSH3 0x1C86 JUMPI PUSH3 0x1C85 PUSH3 0xEE1 JUMP JUMPDEST JUMPDEST PUSH1 0x0 PUSH3 0x1C96 DUP5 DUP3 DUP6 ADD PUSH3 0x1C56 JUMP JUMPDEST SWAP2 POP POP SWAP3 SWAP2 POP POP JUMP JUMPDEST PUSH32 0x546872757374706164546F6B656E466163746F72793A20496E73756666696369 PUSH1 0x0 DUP3 ADD MSTORE PUSH32 0x656E7420616C6C6F77616E636500000000000000000000000000000000000000 PUSH1 0x20 DUP3 ADD MSTORE POP JUMP JUMPDEST PUSH1 0x0 PUSH3 0x1CFD PUSH1 0x2D DUP4 PUSH3 0x1848 JUMP JUMPDEST SWAP2 POP PUSH3 0x1D0A DUP3 PUSH3 0x1C9F JUMP JUMPDEST PUSH1 0x40 DUP3 ADD SWAP1 POP SWAP2 SWAP1 POP JUMP JUMPDEST PUSH1 0x0 PUSH1 0x20 DUP3 ADD SWAP1 POP DUP2 DUP2 SUB PUSH1 0x0 DUP4 ADD MSTORE PUSH3 0x1D30 DUP2 PUSH3 0x1CEE JUMP JUMPDEST SWAP1 POP SWAP2 SWAP1 POP JUMP JUMPDEST PUSH1 0x0 DUP2 MLOAD SWAP1 POP SWAP2 SWAP1 POP JUMP JUMPDEST PUSH1 0x0 DUP3 DUP3 MSTORE PUSH1 0x20 DUP3 ADD SWAP1 POP SWAP3 SWAP2 POP POP JUMP JUMPDEST PUSH1 0x0 DUP2 SWAP1 POP PUSH1 0x20 DUP3 ADD SWAP1 POP SWAP2 SWAP1 POP JUMP JUMPDEST PUSH3 0x1D6E DUP2 PUSH3 0x104D JUMP JUMPDEST DUP3 MSTORE POP POP JUMP JUMPDEST PUSH1 0x0 PUSH3 0x1D82 DUP4 DUP4 PUSH3 0x1D63 JUMP JUMPDEST PUSH1 0x20 DUP4 ADD SWAP1 POP SWAP3 SWAP2 POP POP JUMP JUMPDEST PUSH1 0x0 PUSH1 0x20 DUP3 ADD SWAP1 POP SWAP2 SWAP1 POP JUMP JUMPDEST PUSH1 0x0 PUSH3 0x1DA8 DUP3 PUSH3 0x1D37 JUMP JUMPDEST PUSH3 0x1DB4 DUP2 DUP6 PUSH3 0x1D42 JUMP JUMPDEST SWAP4 POP PUSH3 0x1DC1 DUP4 PUSH3 0x1D53 JUMP JUMPDEST DUP1 PUSH1 0x0 JUMPDEST DUP4 DUP2 LT ISZERO PUSH3 0x1DF8 JUMPI DUP2 MLOAD PUSH3 0x1DDC DUP9 DUP3 PUSH3 0x1D74 JUMP JUMPDEST SWAP8 POP PUSH3 0x1DE9 DUP4 PUSH3 0x1D8E JUMP JUMPDEST SWAP3 POP POP PUSH1 0x1 DUP2 ADD SWAP1 POP PUSH3 0x1DC5 JUMP JUMPDEST POP DUP6 SWAP4 POP POP POP POP SWAP3 SWAP2 POP POP JUMP JUMPDEST PUSH1 0x0 PUSH1 0x60 DUP3 ADD SWAP1 POP PUSH3 0x1E1C PUSH1 0x0 DUP4 ADD DUP7 PUSH3 0x155C JUMP JUMPDEST DUP2 DUP2 SUB PUSH1 0x20 DUP4 ADD MSTORE PUSH3 0x1E30 DUP2 DUP6 PUSH3 0x164E JUMP JUMPDEST SWAP1 POP DUP2 DUP2 SUB PUSH1 0x40 DUP4 ADD MSTORE PUSH3 0x1E46 DUP2 DUP5 PUSH3 0x1D9B JUMP JUMPDEST SWAP1 POP SWAP5 SWAP4 POP POP POP POP JUMP JUMPDEST PUSH1 0x0 PUSH1 0x60 DUP3 ADD SWAP1 POP PUSH3 0x1E67 PUSH1 0x0 DUP4 ADD DUP7 PUSH3 0x155C JUMP JUMPDEST PUSH3 0x1E76 PUSH1 0x20 DUP4 ADD DUP6 PUSH3 0x155C JUMP JUMPDEST PUSH3 0x1E85 PUSH1 0x40 DUP4 ADD DUP5 PUSH3 0x15BC JUMP JUMPDEST SWAP5 SWAP4 POP POP POP POP JUMP JUMPDEST PUSH1 0x0 DUP2 MLOAD SWAP1 POP PUSH3 0x1E9E DUP2 PUSH3 0x1099 JUMP JUMPDEST SWAP3 SWAP2 POP POP JUMP JUMPDEST PUSH1 0x0 PUSH1 0x20 DUP3 DUP5 SUB SLT ISZERO PUSH3 0x1EBD JUMPI PUSH3 0x1EBC PUSH3 0xEE1 JUMP JUMPDEST JUMPDEST PUSH1 0x0 PUSH3 0x1ECD DUP5 DUP3 DUP6 ADD PUSH3 0x1E8D JUMP JUMPDEST SWAP2 POP POP SWAP3 SWAP2 POP POP JUMP JUMPDEST PUSH1 0x0 PUSH1 0x40 DUP3 ADD SWAP1 POP PUSH3 0x1EED PUSH1 0x0 DUP4 ADD DUP6 PUSH3 0x155C JUMP JUMPDEST PUSH3 0x1EFC PUSH1 0x20 DUP4 ADD DUP5 PUSH3 0x15BC JUMP JUMPDEST SWAP4 SWAP3 POP POP POP JUMP JUMPDEST PUSH1 0x0 PUSH32 0xFF00000000000000000000000000000000000000000000000000000000000000 DUP3 AND SWAP1 POP SWAP2 SWAP1 POP JUMP JUMPDEST PUSH1 0x0 DUP2 SWAP1 POP SWAP2 SWAP1 POP JUMP JUMPDEST PUSH3 0x1F4E PUSH3 0x1F48 DUP3 PUSH3 0x1F03 JUMP JUMPDEST PUSH3 0x1F2F JUMP JUMPDEST DUP3 MSTORE POP POP JUMP JUMPDEST PUSH1 0x0 DUP2 PUSH1 0x60 SHL SWAP1 POP SWAP2 SWAP1 POP JUMP JUMPDEST PUSH1 0x0 PUSH3 0x1F6E DUP3 PUSH3 0x1F54 JUMP JUMPDEST SWAP1 POP SWAP2 SWAP1 POP JUMP JUMPDEST PUSH1 0x0 PUSH3 0x1F82 DUP3 PUSH3 0x1F61 JUMP JUMPDEST SWAP1 POP SWAP2 SWAP1 POP JUMP JUMPDEST PUSH3 0x1F9E PUSH3 0x1F98 DUP3 PUSH3 0x12CC JUMP JUMPDEST PUSH3 0x1F75 JUMP JUMPDEST DUP3 MSTORE POP POP JUMP JUMPDEST PUSH1 0x0 DUP2 SWAP1 POP SWAP2 SWAP1 POP JUMP JUMPDEST PUSH3 0x1FC3 PUSH3 0x1FBD DUP3 PUSH3 0x104D JUMP JUMPDEST PUSH3 0x1FA4 JUMP JUMPDEST DUP3 MSTORE POP POP JUMP JUMPDEST PUSH1 0x0 DUP2 SWAP1 POP SWAP2 SWAP1 POP JUMP JUMPDEST PUSH1 0x0 DUP2 SWAP1 POP SWAP2 SWAP1 POP JUMP JUMPDEST PUSH3 0x1FF2 PUSH3 0x1FEC DUP3 PUSH3 0x1FC9 JUMP JUMPDEST PUSH3 0x1FD3 JUMP JUMPDEST DUP3 MSTORE POP POP JUMP JUMPDEST PUSH1 0x0 PUSH3 0x2006 DUP3 DUP8 PUSH3 0x1F39 JUMP JUMPDEST PUSH1 0x1 DUP3 ADD SWAP2 POP PUSH3 0x2018 DUP3 DUP7 PUSH3 0x1F89 JUMP JUMPDEST PUSH1 0x14 DUP3 ADD SWAP2 POP PUSH3 0x202A DUP3 DUP6 PUSH3 0x1FAE JUMP JUMPDEST PUSH1 0x20 DUP3 ADD SWAP2 POP PUSH3 0x203C DUP3 DUP5 PUSH3 0x1FDD JUMP JUMPDEST PUSH1 0x20 DUP3 ADD SWAP2 POP DUP2 SWAP1 POP SWAP6 SWAP5 POP POP POP POP POP JUMP INVALID PUSH1 0x80 PUSH1 0x40 MSTORE PUSH1 0x40 MLOAD PUSH3 0xF9A CODESIZE SUB DUP1 PUSH3 0xF9A DUP4 CODECOPY DUP2 DUP2 ADD PUSH1 0x40 MSTORE DUP2 ADD SWAP1 PUSH3 0x29 SWAP2 SWAP1 PUSH3 0x5F0 JUMP JUMPDEST CALLER PUSH1 0x0 PUSH20 0xFFFFFFFFFFFFFFFFFFFFFFFFFFFFFFFFFFFFFFFF AND DUP2 PUSH20 0xFFFFFFFFFFFFFFFFFFFFFFFFFFFFFFFFFFFFFFFF AND SUB PUSH3 0x9F JUMPI PUSH1 0x0 PUSH1 0x40 MLOAD PUSH32 0x1E4FBDF700000000000000000000000000000000000000000000000000000000 DUP2 MSTORE PUSH1 0x4 ADD PUSH3 0x96 SWAP2 SWAP1 PUSH3 0x69B JUMP JUMPDEST PUSH1 0x40 MLOAD DUP1 SWAP2 SUB SWAP1 REVERT JUMPDEST PUSH3 0xB0 DUP2 PUSH3 0x12D PUSH1 0x20 SHL PUSH1 0x20 SHR JUMP JUMPDEST POP DUP3 PUSH1 0x1 PUSH1 0x0 PUSH2 0x100 EXP DUP2 SLOAD DUP2 PUSH20 0xFFFFFFFFFFFFFFFFFFFFFFFFFFFFFFFFFFFFFFFF MUL NOT AND SWAP1 DUP4 PUSH20 0xFFFFFFFFFFFFFFFFFFFFFFFFFFFFFFFFFFFFFFFF AND MUL OR SWAP1 SSTORE POP DUP2 PUSH1 0x2 SWAP1 DUP1 MLOAD SWAP1 PUSH1 0x20 ADD SWAP1 PUSH3 0x10A SWAP3 SWAP2 SWAP1 PUSH3 0x1F1 JUMP JUMPDEST POP DUP1 PUSH1 0x3 SWAP1 DUP1 MLOAD SWAP1 PUSH1 0x20 ADD SWAP1 PUSH3 0x123 SWAP3 SWAP2 SWAP1 PUSH3 0x280 JUMP JUMPDEST POP POP POP POP PUSH3 0x6B8 JUMP JUMPDEST PUSH1 0x0 DUP1 PUSH1 0x0 SWAP1 SLOAD SWAP1 PUSH2 0x100 EXP SWAP1 DIV PUSH20 0xFFFFFFFFFFFFFFFFFFFFFFFFFFFFFFFFFFFFFFFF AND SWAP1 POP DUP2 PUSH1 0x0 DUP1 PUSH2 0x100 EXP DUP2 SLOAD DUP2 PUSH20 0xFFFFFFFFFFFFFFFFFFFFFFFFFFFFFFFFFFFFFFFF MUL NOT AND SWAP1 DUP4 PUSH20 0xFFFFFFFFFFFFFFFFFFFFFFFFFFFFFFFFFFFFFFFF AND MUL OR SWAP1 SSTORE POP DUP2 PUSH20 0xFFFFFFFFFFFFFFFFFFFFFFFFFFFFFFFFFFFFFFFF AND DUP2 PUSH20 0xFFFFFFFFFFFFFFFFFFFFFFFFFFFFFFFFFFFFFFFF AND PUSH32 0x8BE0079C531659141344CD1FD0A4F28419497F9722A3DAAFE3B4186F6B6457E0 PUSH1 0x40 MLOAD PUSH1 0x40 MLOAD DUP1 SWAP2 SUB SWAP1 LOG3 POP POP JUMP JUMPDEST DUP3 DUP1 SLOAD DUP3 DUP3 SSTORE SWAP1 PUSH1 0x0 MSTORE PUSH1 0x20 PUSH1 0x0 KECCAK256 SWAP1 DUP2 ADD SWAP3 DUP3 ISZERO PUSH3 0x26D JUMPI SWAP2 PUSH1 0x20 MUL DUP3 ADD JUMPDEST DUP3 DUP2 GT ISZERO PUSH3 0x26C JUMPI DUP3 MLOAD DUP3 PUSH1 0x0 PUSH2 0x100 EXP DUP2 SLOAD DUP2 PUSH20 0xFFFFFFFFFFFFFFFFFFFFFFFFFFFFFFFFFFFFFFFF MUL NOT AND SWAP1 DUP4 PUSH20 0xFFFFFFFFFFFFFFFFFFFFFFFFFFFFFFFFFFFFFFFF AND MUL OR SWAP1 SSTORE POP SWAP2 PUSH1 0x20 ADD SWAP2 SWAP1 PUSH1 0x1 ADD SWAP1 PUSH3 0x212 JUMP JUMPDEST JUMPDEST POP SWAP1 POP PUSH3 0x27C SWAP2 SWAP1 PUSH3 0x2D2 JUMP JUMPDEST POP SWAP1 JUMP JUMPDEST DUP3 DUP1 SLOAD DUP3 DUP3 SSTORE SWAP1 PUSH1 0x0 MSTORE PUSH1 0x20 PUSH1 0x0 KECCAK256 SWAP1 DUP2 ADD SWAP3 DUP3 ISZERO PUSH3 0x2BF JUMPI SWAP2 PUSH1 0x20 MUL DUP3 ADD JUMPDEST DUP3 DUP2 GT ISZERO PUSH3 0x2BE JUMPI DUP3 MLOAD DUP3 SSTORE SWAP2 PUSH1 0x20 ADD SWAP2 SWAP1 PUSH1 0x1 ADD SWAP1 PUSH3 0x2A1 JUMP JUMPDEST JUMPDEST POP SWAP1 POP PUSH3 0x2CE SWAP2 SWAP1 PUSH3 0x2D2 JUMP JUMPDEST POP SWAP1 JUMP JUMPDEST JUMPDEST DUP1 DUP3 GT ISZERO PUSH3 0x2ED JUMPI PUSH1 0x0 DUP2 PUSH1 0x0 SWAP1 SSTORE POP PUSH1 0x1 ADD PUSH3 0x2D3 JUMP JUMPDEST POP SWAP1 JUMP JUMPDEST PUSH1 0x0 PUSH1 0x40 MLOAD SWAP1 POP SWAP1 JUMP JUMPDEST PUSH1 0x0 DUP1 REVERT JUMPDEST PUSH1 0x0 DUP1 REVERT JUMPDEST PUSH1 0x0 PUSH20 0xFFFFFFFFFFFFFFFFFFFFFFFFFFFFFFFFFFFFFFFF DUP3 AND SWAP1 POP SWAP2 SWAP1 POP JUMP JUMPDEST PUSH1 0x0 PUSH3 0x332 DUP3 PUSH3 0x305 JUMP JUMPDEST SWAP1 POP SWAP2 SWAP1 POP JUMP JUMPDEST PUSH3 0x344 DUP2 PUSH3 0x325 JUMP JUMPDEST DUP2 EQ PUSH3 0x350 JUMPI PUSH1 0x0 DUP1 REVERT JUMPDEST POP JUMP JUMPDEST PUSH1 0x0 DUP2 MLOAD SWAP1 POP PUSH3 0x364 DUP2 PUSH3 0x339 JUMP JUMPDEST SWAP3 SWAP2 POP POP JUMP JUMPDEST PUSH1 0x0 DUP1 REVERT JUMPDEST PUSH1 0x0 PUSH1 0x1F NOT PUSH1 0x1F DUP4 ADD AND SWAP1 POP SWAP2 SWAP1 POP JUMP JUMPDEST PUSH32 0x4E487B7100000000000000000000000000000000000000000000000000000000 PUSH1 0x0 MSTORE PUSH1 0x41 PUSH1 0x4 MSTORE PUSH1 0x24 PUSH1 0x0 REVERT JUMPDEST PUSH3 0x3BA DUP3 PUSH3 0x36F JUMP JUMPDEST DUP2 ADD DUP2 DUP2 LT PUSH8 0xFFFFFFFFFFFFFFFF DUP3 GT OR ISZERO PUSH3 0x3DC JUMPI PUSH3 0x3DB PUSH3 0x380 JUMP JUMPDEST JUMPDEST DUP1 PUSH1 0x40 MSTORE POP POP POP JUMP JUMPDEST PUSH1 0x0 PUSH3 0x3F1 PUSH3 0x2F1 JUMP JUMPDEST SWAP1 POP PUSH3 0x3FF DUP3 DUP3 PUSH3 0x3AF JUMP JUMPDEST SWAP2 SWAP1 POP JUMP JUMPDEST PUSH1 0x0 PUSH8 0xFFFFFFFFFFFFFFFF DUP3 GT ISZERO PUSH3 0x422 JUMPI PUSH3 0x421 PUSH3 0x380 JUMP JUMPDEST JUMPDEST PUSH1 0x20 DUP3 MUL SWAP1 POP PUSH1 0x20 DUP2 ADD SWAP1 POP SWAP2 SWAP1 POP JUMP JUMPDEST PUSH1 0x0 DUP1 REVERT JUMPDEST PUSH1 0x0 PUSH3 0x44F PUSH3 0x449 DUP5 PUSH3 0x404 JUMP JUMPDEST PUSH3 0x3E5 JUMP JUMPDEST SWAP1 POP DUP1 DUP4 DUP3 MSTORE PUSH1 0x20 DUP3 ADD SWAP1 POP PUSH1 0x20 DUP5 MUL DUP4 ADD DUP6 DUP2 GT ISZERO PUSH3 0x475 JUMPI PUSH3 0x474 PUSH3 0x433 JUMP JUMPDEST JUMPDEST DUP4 JUMPDEST DUP2 DUP2 LT ISZERO PUSH3 0x4A2 JUMPI DUP1 PUSH3 0x48D DUP9 DUP3 PUSH3 0x353 JUMP JUMPDEST DUP5 MSTORE PUSH1 0x20 DUP5 ADD SWAP4 POP POP PUSH1 0x20 DUP2 ADD SWAP1 POP PUSH3 0x477 JUMP JUMPDEST POP POP POP SWAP4 SWAP3 POP POP POP JUMP JUMPDEST PUSH1 0x0 DUP3 PUSH1 0x1F DUP4 ADD SLT PUSH3 0x4C4 JUMPI PUSH3 0x4C3 PUSH3 0x36A JUMP JUMPDEST JUMPDEST DUP2 MLOAD PUSH3 0x4D6 DUP5 DUP3 PUSH1 0x20 DUP7 ADD PUSH3 0x438 JUMP JUMPDEST SWAP2 POP POP SWAP3 SWAP2 POP POP JUMP JUMPDEST PUSH1 0x0 PUSH8 0xFFFFFFFFFFFFFFFF DUP3 GT ISZERO PUSH3 0x4FD JUMPI PUSH3 0x4FC PUSH3 0x380 JUMP JUMPDEST JUMPDEST PUSH1 0x20 DUP3 MUL SWAP1 POP PUSH1 0x20 DUP2 ADD SWAP1 POP SWAP2 SWAP1 POP JUMP JUMPDEST PUSH1 0x0 DUP2 SWAP1 POP SWAP2 SWAP1 POP JUMP JUMPDEST PUSH3 0x523 DUP2 PUSH3 0x50E JUMP JUMPDEST DUP2 EQ PUSH3 0x52F JUMPI PUSH1 0x0 DUP1 REVERT JUMPDEST POP JUMP JUMPDEST PUSH1 0x0 DUP2 MLOAD SWAP1 POP PUSH3 0x543 DUP2 PUSH3 0x518 JUMP JUMPDEST SWAP3 SWAP2 POP POP JUMP JUMPDEST PUSH1 0x0 PUSH3 0x560 PUSH3 0x55A DUP5 PUSH3 0x4DF JUMP JUMPDEST PUSH3 0x3E5 JUMP JUMPDEST SWAP1 POP DUP1 DUP4 DUP3 MSTORE PUSH1 0x20 DUP3 ADD SWAP1 POP PUSH1 0x20 DUP5 MUL DUP4 ADD DUP6 DUP2 GT ISZERO PUSH3 0x586 JUMPI PUSH3 0x585 PUSH3 0x433 JUMP JUMPDEST JUMPDEST DUP4 JUMPDEST DUP2 DUP2 LT ISZERO PUSH3 0x5B3 JUMPI DUP1 PUSH3 0x59E DUP9 DUP3 PUSH3 0x532 JUMP JUMPDEST DUP5 MSTORE PUSH1 0x20 DUP5 ADD SWAP4 POP POP PUSH1 0x20 DUP2 ADD SWAP1 POP PUSH3 0x588 JUMP JUMPDEST POP POP POP SWAP4 SWAP3 POP POP POP JUMP JUMPDEST PUSH1 0x0 DUP3 PUSH1 0x1F DUP4 ADD SLT PUSH3 0x5D5 JUMPI PUSH3 0x5D4 PUSH3 0x36A JUMP JUMPDEST JUMPDEST DUP2 MLOAD PUSH3 0x5E7 DUP5 DUP3 PUSH1 0x20 DUP7 ADD PUSH3 0x549 JUMP JUMPDEST SWAP2 POP POP SWAP3 SWAP2 POP POP JUMP JUMPDEST PUSH1 0x0 DUP1 PUSH1 0x0 PUSH1 0x60 DUP5 DUP7 SUB SLT ISZERO PUSH3 0x60C JUMPI PUSH3 0x60B PUSH3 0x2FB JUMP JUMPDEST JUMPDEST PUSH1 0x0 PUSH3 0x61C DUP7 DUP3 DUP8 ADD PUSH3 0x353 JUMP JUMPDEST SWAP4 POP POP PUSH1 0x20 DUP5 ADD MLOAD PUSH8 0xFFFFFFFFFFFFFFFF DUP2 GT ISZERO PUSH3 0x640 JUMPI PUSH3 0x63F PUSH3 0x300 JUMP JUMPDEST JUMPDEST PUSH3 0x64E DUP7 DUP3 DUP8 ADD PUSH3 0x4AC JUMP JUMPDEST SWAP3 POP POP PUSH1 0x40 DUP5 ADD MLOAD PUSH8 0xFFFFFFFFFFFFFFFF DUP2 GT ISZERO PUSH3 0x672 JUMPI PUSH3 0x671 PUSH3 0x300 JUMP JUMPDEST JUMPDEST PUSH3 0x680 DUP7 DUP3 DUP8 ADD PUSH3 0x5BD JUMP JUMPDEST SWAP2 POP POP SWAP3 POP SWAP3 POP SWAP3 JUMP JUMPDEST PUSH3 0x695 DUP2 PUSH3 0x325 JUMP JUMPDEST DUP3 MSTORE POP POP JUMP JUMPDEST PUSH1 0x0 PUSH1 0x20 DUP3 ADD SWAP1 POP PUSH3 0x6B2 PUSH1 0x0 DUP4 ADD DUP5 PUSH3 0x68A JUMP JUMPDEST SWAP3 SWAP2 POP POP JUMP JUMPDEST PUSH2 0x8D2 DUP1 PUSH3 0x6C8 PUSH1 0x0 CODECOPY PUSH1 0x0 RETURN INVALID PUSH1 0x80 PUSH1 0x40 MSTORE PUSH1 0x4 CALLDATASIZE LT PUSH2 0x74 JUMPI PUSH1 0x0 CALLDATALOAD PUSH1 0xE0 SHR DUP1 PUSH4 0x8DA5CB5B GT PUSH2 0x4E JUMPI DUP1 PUSH4 0x8DA5CB5B EQ PUSH2 0xEB JUMPI DUP1 PUSH4 0xBFD772FC EQ PUSH2 0x116 JUMPI DUP1 PUSH4 0xF2FDE38B EQ PUSH2 0x153 JUMPI DUP1 PUSH4 0xFC0C546A EQ PUSH2 0x17C JUMPI PUSH2 0x7B JUMP JUMPDEST DUP1 PUSH4 0x294402CC EQ PUSH2 0x80 JUMPI DUP1 PUSH4 0x45F0A44F EQ PUSH2 0x97 JUMPI DUP1 PUSH4 0x715018A6 EQ PUSH2 0xD4 JUMPI PUSH2 0x7B JUMP JUMPDEST CALLDATASIZE PUSH2 0x7B JUMPI STOP JUMPDEST PUSH1 0x0 DUP1 REVERT JUMPDEST CALLVALUE DUP1 ISZERO PUSH2 0x8C JUMPI PUSH1 0x0 DUP1 REVERT JUMPDEST POP PUSH2 0x95 PUSH2 0x1A7 JUMP JUMPDEST STOP JUMPDEST CALLVALUE DUP1 ISZERO PUSH2 0xA3 JUMPI PUSH1 0x0 DUP1 REVERT JUMPDEST POP PUSH2 0xBE PUSH1 0x4 DUP1 CALLDATASIZE SUB DUP2 ADD SWAP1 PUSH2 0xB9 SWAP2 SWAP1 PUSH2 0x6C5 JUMP JUMPDEST PUSH2 0x3EB JUMP JUMPDEST PUSH1 0x40 MLOAD PUSH2 0xCB SWAP2 SWAP1 PUSH2 0x701 JUMP JUMPDEST PUSH1 0x40 MLOAD DUP1 SWAP2 SUB SWAP1 RETURN JUMPDEST CALLVALUE DUP1 ISZERO PUSH2 0xE0 JUMPI PUSH1 0x0 DUP1 REVERT JUMPDEST POP PUSH2 0xE9 PUSH2 0x40F JUMP JUMPDEST STOP JUMPDEST CALLVALUE DUP1 ISZERO PUSH2 0xF7 JUMPI PUSH1 0x0 DUP1 REVERT JUMPDEST POP PUSH2 0x100 PUSH2 0x423 JUMP JUMPDEST PUSH1 0x40 MLOAD PUSH2 0x10D SWAP2 SWAP1 PUSH2 0x75D JUMP JUMPDEST PUSH1 0x40 MLOAD DUP1 SWAP2 SUB SWAP1 RETURN JUMPDEST CALLVALUE DUP1 ISZERO PUSH2 0x122 JUMPI PUSH1 0x0 DUP1 REVERT JUMPDEST POP PUSH2 0x13D PUSH1 0x4 DUP1 CALLDATASIZE SUB DUP2 ADD SWAP1 PUSH2 0x138 SWAP2 SWAP1 PUSH2 0x6C5 JUMP JUMPDEST PUSH2 0x44C JUMP JUMPDEST PUSH1 0x40 MLOAD PUSH2 0x14A SWAP2 SWAP1 PUSH2 0x75D JUMP JUMPDEST PUSH1 0x40 MLOAD DUP1 SWAP2 SUB SWAP1 RETURN JUMPDEST CALLVALUE DUP1 ISZERO PUSH2 0x15F JUMPI PUSH1 0x0 DUP1 REVERT JUMPDEST POP PUSH2 0x17A PUSH1 0x4 DUP1 CALLDATASIZE SUB DUP2 ADD SWAP1 PUSH2 0x175 SWAP2 SWAP1 PUSH2 0x7A4 JUMP JUMPDEST PUSH2 0x48B JUMP JUMPDEST STOP JUMPDEST CALLVALUE DUP1 ISZERO PUSH2 0x188 JUMPI PUSH1 0x0 DUP1 REVERT JUMPDEST POP PUSH2 0x191 PUSH2 0x511 JUMP JUMPDEST PUSH1 0x40 MLOAD PUSH2 0x19E SWAP2 SWAP1 PUSH2 0x75D JUMP JUMPDEST PUSH1 0x40 MLOAD DUP1 SWAP2 SUB SWAP1 RETURN JUMPDEST PUSH2 0x1AF PUSH2 0x537 JUMP JUMPDEST PUSH1 0x0 PUSH20 0xFFFFFFFFFFFFFFFFFFFFFFFFFFFFFFFFFFFFFFFF AND PUSH1 0x1 PUSH1 0x0 SWAP1 SLOAD SWAP1 PUSH2 0x100 EXP SWAP1 DIV PUSH20 0xFFFFFFFFFFFFFFFFFFFFFFFFFFFFFFFFFFFFFFFF AND PUSH20 0xFFFFFFFFFFFFFFFFFFFFFFFFFFFFFFFFFFFFFFFF AND SUB PUSH2 0x2CB JUMPI PUSH1 0x0 JUMPDEST PUSH1 0x2 DUP1 SLOAD SWAP1 POP DUP2 LT ISZERO PUSH2 0x2C5 JUMPI PUSH1 0x2 DUP2 DUP2 SLOAD DUP2 LT PUSH2 0x229 JUMPI PUSH2 0x228 PUSH2 0x7D1 JUMP JUMPDEST JUMPDEST SWAP1 PUSH1 0x0 MSTORE PUSH1 0x20 PUSH1 0x0 KECCAK256 ADD PUSH1 0x0 SWAP1 SLOAD SWAP1 PUSH2 0x100 EXP SWAP1 DIV PUSH20 0xFFFFFFFFFFFFFFFFFFFFFFFFFFFFFFFFFFFFFFFF AND PUSH20 0xFFFFFFFFFFFFFFFFFFFFFFFFFFFFFFFFFFFFFFFF AND PUSH2 0x8FC PUSH1 0x3 DUP4 DUP2 SLOAD DUP2 LT PUSH2 0x281 JUMPI PUSH2 0x280 PUSH2 0x7D1 JUMP JUMPDEST JUMPDEST SWAP1 PUSH1 0x0 MSTORE PUSH1 0x20 PUSH1 0x0 KECCAK256 ADD SLOAD SWAP1 DUP2 ISZERO MUL SWAP1 PUSH1 0x40 MLOAD PUSH1 0x0 PUSH1 0x40 MLOAD DUP1 DUP4 SUB DUP2 DUP6 DUP9 DUP9 CALL SWAP4 POP POP POP POP ISZERO DUP1 ISZERO PUSH2 0x2B7 JUMPI RETURNDATASIZE PUSH1 0x0 DUP1 RETURNDATACOPY RETURNDATASIZE PUSH1 0x0 REVERT JUMPDEST POP DUP1 DUP1 PUSH1 0x1 ADD SWAP2 POP POP PUSH2 0x208 JUMP JUMPDEST POP PUSH2 0x3E9 JUMP JUMPDEST PUSH1 0x0 JUMPDEST PUSH1 0x2 DUP1 SLOAD SWAP1 POP DUP2 LT ISZERO PUSH2 0x3E7 JUMPI PUSH1 0x1 PUSH1 0x0 SWAP1 SLOAD SWAP1 PUSH2 0x100 EXP SWAP1 DIV PUSH20 0xFFFFFFFFFFFFFFFFFFFFFFFFFFFFFFFFFFFFFFFF AND PUSH20 0xFFFFFFFFFFFFFFFFFFFFFFFFFFFFFFFFFFFFFFFF AND PUSH4 0x23B872DD ADDRESS PUSH1 0x2 DUP5 DUP2 SLOAD DUP2 LT PUSH2 0x32E JUMPI PUSH2 0x32D PUSH2 0x7D1 JUMP JUMPDEST JUMPDEST SWAP1 PUSH1 0x0 MSTORE PUSH1 0x20 PUSH1 0x0 KECCAK256 ADD PUSH1 0x0 SWAP1 SLOAD SWAP1 PUSH2 0x100 EXP SWAP1 DIV PUSH20 0xFFFFFFFFFFFFFFFFFFFFFFFFFFFFFFFFFFFFFFFF AND PUSH1 0x3 DUP6 DUP2 SLOAD DUP2 LT PUSH2 0x36D JUMPI PUSH2 0x36C PUSH2 0x7D1 JUMP JUMPDEST JUMPDEST SWAP1 PUSH1 0x0 MSTORE PUSH1 0x20 PUSH1 0x0 KECCAK256 ADD SLOAD PUSH1 0x40 MLOAD DUP5 PUSH4 0xFFFFFFFF AND PUSH1 0xE0 SHL DUP2 MSTORE PUSH1 0x4 ADD PUSH2 0x396 SWAP4 SWAP3 SWAP2 SWAP1 PUSH2 0x800 JUMP JUMPDEST PUSH1 0x20 PUSH1 0x40 MLOAD DUP1 DUP4 SUB DUP2 PUSH1 0x0 DUP8 GAS CALL ISZERO DUP1 ISZERO PUSH2 0x3B5 JUMPI RETURNDATASIZE PUSH1 0x0 DUP1 RETURNDATACOPY RETURNDATASIZE PUSH1 0x0 REVERT JUMPDEST POP POP POP POP PUSH1 0x40 MLOAD RETURNDATASIZE PUSH1 0x1F NOT PUSH1 0x1F DUP3 ADD AND DUP3 ADD DUP1 PUSH1 0x40 MSTORE POP DUP2 ADD SWAP1 PUSH2 0x3D9 SWAP2 SWAP1 PUSH2 0x86F JUMP JUMPDEST POP DUP1 DUP1 PUSH1 0x1 ADD SWAP2 POP POP PUSH2 0x2CE JUMP JUMPDEST POP JUMPDEST JUMP JUMPDEST PUSH1 0x3 DUP2 DUP2 SLOAD DUP2 LT PUSH2 0x3FB JUMPI PUSH1 0x0 DUP1 REVERT JUMPDEST SWAP1 PUSH1 0x0 MSTORE PUSH1 0x20 PUSH1 0x0 KECCAK256 ADD PUSH1 0x0 SWAP2 POP SWAP1 POP SLOAD DUP2 JUMP JUMPDEST PUSH2 0x417 PUSH2 0x537 JUMP JUMPDEST PUSH2 0x421 PUSH1 0x0 PUSH2 0x5BE JUMP JUMPDEST JUMP JUMPDEST PUSH1 0x0 DUP1 PUSH1 0x0 SWAP1 SLOAD SWAP1 PUSH2 0x100 EXP SWAP1 DIV PUSH20 0xFFFFFFFFFFFFFFFFFFFFFFFFFFFFFFFFFFFFFFFF AND SWAP1 POP SWAP1 JUMP JUMPDEST PUSH1 0x2 DUP2 DUP2 SLOAD DUP2 LT PUSH2 0x45C JUMPI PUSH1 0x0 DUP1 REVERT JUMPDEST SWAP1 PUSH1 0x0 MSTORE PUSH1 0x20 PUSH1 0x0 KECCAK256 ADD PUSH1 0x0 SWAP2 POP SLOAD SWAP1 PUSH2 0x100 EXP SWAP1 DIV PUSH20 0xFFFFFFFFFFFFFFFFFFFFFFFFFFFFFFFFFFFFFFFF AND DUP2 JUMP JUMPDEST PUSH2 0x493 PUSH2 0x537 JUMP JUMPDEST PUSH1 0x0 PUSH20 0xFFFFFFFFFFFFFFFFFFFFFFFFFFFFFFFFFFFFFFFF AND DUP2 PUSH20 0xFFFFFFFFFFFFFFFFFFFFFFFFFFFFFFFFFFFFFFFF AND SUB PUSH2 0x505 JUMPI PUSH1 0x0 PUSH1 0x40 MLOAD PUSH32 0x1E4FBDF700000000000000000000000000000000000000000000000000000000 DUP2 MSTORE PUSH1 0x4 ADD PUSH2 0x4FC SWAP2 SWAP1 PUSH2 0x75D JUMP JUMPDEST PUSH1 0x40 MLOAD DUP1 SWAP2 SUB SWAP1 REVERT JUMPDEST PUSH2 0x50E DUP2 PUSH2 0x5BE JUMP JUMPDEST POP JUMP JUMPDEST PUSH1 0x1 PUSH1 0x0 SWAP1 SLOAD SWAP1 PUSH2 0x100 EXP SWAP1 DIV PUSH20 0xFFFFFFFFFFFFFFFFFFFFFFFFFFFFFFFFFFFFFFFF AND DUP2 JUMP JUMPDEST PUSH2 0x53F PUSH2 0x682 JUMP JUMPDEST PUSH20 0xFFFFFFFFFFFFFFFFFFFFFFFFFFFFFFFFFFFFFFFF AND PUSH2 0x55D PUSH2 0x423 JUMP JUMPDEST PUSH20 0xFFFFFFFFFFFFFFFFFFFFFFFFFFFFFFFFFFFFFFFF AND EQ PUSH2 0x5BC JUMPI PUSH2 0x580 PUSH2 0x682 JUMP JUMPDEST PUSH1 0x40 MLOAD PUSH32 0x118CDAA700000000000000000000000000000000000000000000000000000000 DUP2 MSTORE PUSH1 0x4 ADD PUSH2 0x5B3 SWAP2 SWAP1 PUSH2 0x75D JUMP JUMPDEST PUSH1 0x40 MLOAD DUP1 SWAP2 SUB SWAP1 REVERT JUMPDEST JUMP JUMPDEST PUSH1 0x0 DUP1 PUSH1 0x0 SWAP1 SLOAD SWAP1 PUSH2 0x100 EXP SWAP1 DIV PUSH20 0xFFFFFFFFFFFFFFFFFFFFFFFFFFFFFFFFFFFFFFFF AND SWAP1 POP DUP2 PUSH1 0x0 DUP1 PUSH2 0x100 EXP DUP2 SLOAD DUP2 PUSH20 0xFFFFFFFFFFFFFFFFFFFFFFFFFFFFFFFFFFFFFFFF MUL NOT AND SWAP1 DUP4 PUSH20 0xFFFFFFFFFFFFFFFFFFFFFFFFFFFFFFFFFFFFFFFF AND MUL OR SWAP1 SSTORE POP DUP2 PUSH20 0xFFFFFFFFFFFFFFFFFFFFFFFFFFFFFFFFFFFFFFFF AND DUP2 PUSH20 0xFFFFFFFFFFFFFFFFFFFFFFFFFFFFFFFFFFFFFFFF AND PUSH32 0x8BE0079C531659141344CD1FD0A4F28419497F9722A3DAAFE3B4186F6B6457E0 PUSH1 0x40 MLOAD PUSH1 0x40 MLOAD DUP1 SWAP2 SUB SWAP1 LOG3 POP POP JUMP JUMPDEST PUSH1 0x0 CALLER SWAP1 POP SWAP1 JUMP JUMPDEST PUSH1 0x0 DUP1 REVERT JUMPDEST PUSH1 0x0 DUP2 SWAP1 POP SWAP2 SWAP1 POP JUMP JUMPDEST PUSH2 0x6A2 DUP2 PUSH2 0x68F JUMP JUMPDEST DUP2 EQ PUSH2 0x6AD JUMPI PUSH1 0x0 DUP1 REVERT JUMPDEST POP JUMP JUMPDEST PUSH1 0x0 DUP2 CALLDATALOAD SWAP1 POP PUSH2 0x6BF DUP2 PUSH2 0x699 JUMP JUMPDEST SWAP3 SWAP2 POP POP JUMP JUMPDEST PUSH1 0x0 PUSH1 0x20 DUP3 DUP5 SUB SLT ISZERO PUSH2 0x6DB JUMPI PUSH2 0x6DA PUSH2 0x68A JUMP JUMPDEST JUMPDEST PUSH1 0x0 PUSH2 0x6E9 DUP5 DUP3 DUP6 ADD PUSH2 0x6B0 JUMP JUMPDEST SWAP2 POP POP SWAP3 SWAP2 POP POP JUMP JUMPDEST PUSH2 0x6FB DUP2 PUSH2 0x68F JUMP JUMPDEST DUP3 MSTORE POP POP JUMP JUMPDEST PUSH1 0x0 PUSH1 0x20 DUP3 ADD SWAP1 POP PUSH2 0x716 PUSH1 0x0 DUP4 ADD DUP5 PUSH2 0x6F2 JUMP JUMPDEST SWAP3 SWAP2 POP POP JUMP JUMPDEST PUSH1 0x0 PUSH20 0xFFFFFFFFFFFFFFFFFFFFFFFFFFFFFFFFFFFFFFFF DUP3 AND SWAP1 POP SWAP2 SWAP1 POP JUMP JUMPDEST PUSH1 0x0 PUSH2 0x747 DUP3 PUSH2 0x71C JUMP JUMPDEST SWAP1 POP SWAP2 SWAP1 POP JUMP JUMPDEST PUSH2 0x757 DUP2 PUSH2 0x73C JUMP JUMPDEST DUP3 MSTORE POP POP JUMP JUMPDEST PUSH1 0x0 PUSH1 0x20 DUP3 ADD SWAP1 POP PUSH2 0x772 PUSH1 0x0 DUP4 ADD DUP5 PUSH2 0x74E JUMP JUMPDEST SWAP3 SWAP2 POP POP JUMP JUMPDEST PUSH2 0x781 DUP2 PUSH2 0x73C JUMP JUMPDEST DUP2 EQ PUSH2 0x78C JUMPI PUSH1 0x0 DUP1 REVERT JUMPDEST POP JUMP JUMPDEST PUSH1 0x0 DUP2 CALLDATALOAD SWAP1 POP PUSH2 0x79E DUP2 PUSH2 0x778 JUMP JUMPDEST SWAP3 SWAP2 POP POP JUMP JUMPDEST PUSH1 0x0 PUSH1 0x20 DUP3 DUP5 SUB SLT ISZERO PUSH2 0x7BA JUMPI PUSH2 0x7B9 PUSH2 0x68A JUMP JUMPDEST JUMPDEST PUSH1 0x0 PUSH2 0x7C8 DUP5 DUP3 DUP6 ADD PUSH2 0x78F JUMP JUMPDEST SWAP2 POP POP SWAP3 SWAP2 POP POP JUMP JUMPDEST PUSH32 0x4E487B7100000000000000000000000000000000000000000000000000000000 PUSH1 0x0 MSTORE PUSH1 0x32 PUSH1 0x4 MSTORE PUSH1 0x24 PUSH1 0x0 REVERT JUMPDEST PUSH1 0x0 PUSH1 0x60 DUP3 ADD SWAP1 POP PUSH2 0x815 PUSH1 0x0 DUP4 ADD DUP7 PUSH2 0x74E JUMP JUMPDEST PUSH2 0x822 PUSH1 0x20 DUP4 ADD DUP6 PUSH2 0x74E JUMP JUMPDEST PUSH2 0x82F PUSH1 0x40 DUP4 ADD DUP5 PUSH2 0x6F2 JUMP JUMPDEST SWAP5 SWAP4 POP POP POP POP JUMP JUMPDEST PUSH1 0x0 DUP2 ISZERO ISZERO SWAP1 POP SWAP2 SWAP1 POP JUMP JUMPDEST PUSH2 0x84C DUP2 PUSH2 0x837 JUMP JUMPDEST DUP2 EQ PUSH2 0x857 JUMPI PUSH1 0x0 DUP1 REVERT JUMPDEST POP JUMP JUMPDEST PUSH1 0x0 DUP2 MLOAD SWAP1 POP PUSH2 0x869 DUP2 PUSH2 0x843 JUMP JUMPDEST SWAP3 SWAP2 POP POP JUMP JUMPDEST PUSH1 0x0 PUSH1 0x20 DUP3 DUP5 SUB SLT ISZERO PUSH2 0x885 JUMPI PUSH2 0x884 PUSH2 0x68A JUMP JUMPDEST JUMPDEST PUSH1 0x0 PUSH2 0x893 DUP5 DUP3 DUP6 ADD PUSH2 0x85A JUMP JUMPDEST SWAP2 POP POP SWAP3 SWAP2 POP POP JUMP INVALID LOG2 PUSH5 0x6970667358 0x22 SLT KECCAK256 GAS 0xAA 0xE9 BASEFEE MCOPY 0xD MULMOD SLOAD 0xBC CALLDATACOPY CALLDATASIZE PUSH11 0x3C2A67477C383B8701C86F PUSH26 0xF4394EA25551E0AE64736F6C63430008180033A2646970667358 0x22 SLT KECCAK256 PUSH5 0x852616A3AB DUP1 SUB LOG1 PUSH15 0xE5F8F512482BE3D2CFDCE2E4336594 0xCB 0xB2 PUSH9 0x831978C664736F6C63 NUMBER STOP ADDMOD XOR STOP CALLER "},"methodIdentifiers":{"creationFee()":"dce0b4e4","deployedMultisenders(address,uint256)":"fcc31af0","feeEarned()":"d5f63a06","getAddressCreate2(bytes,uint256)":"9f886f26","getBytecode(string,string,uint256,uint256,(bool,bool,bool))":"48d40953","getdeployedMultisenders(address)":"949938e9","getdeployedMultisendersLen(address)":"877a4039","newMultisender(address,address[],uint256[])":"53fa27a3","owner()":"8da5cb5b","renounceOwnership()":"715018a6","transferOwnership(address)":"f2fde38b","withdraw()":"3ccfd60b","withdrawToken(address)":"89476069"}}}}}