{"contracts/fair-launch/ThrustpadFairLaunch.sol":{"ThrustpadFairLaunch":{"abi":[{"inputs":[{"components":[{"internalType":"address","name":"token","type":"address"},{"internalType":"uint256","name":"softCap","type":"uint256"},{"internalType":"uint256","name":"hardCap","type":"uint256"},{"internalType":"uint256","name":"amountForSale","type":"uint256"},{"internalType":"uint256","name":"listingRate","type":"uint256"},{"internalType":"uint256","name":"minimumBuy","type":"uint256"},{"internalType":"uint256","name":"maximumBuy","type":"uint256"},{"internalType":"uint256","name":"percentageForLiquidity","type":"uint256"},{"internalType":"uint256","name":"percentageForTeam","type":"uint256"},{"internalType":"uint256","name":"startDate","type":"uint256"},{"internalType":"uint256","name":"endDate","type":"uint256"}],"internalType":"struct FairLaunchConfig","name":"_config","type":"tuple"},{"internalType":"address","name":"_owner","type":"address"}],"stateMutability":"nonpayable","type":"constructor"},{"inputs":[{"internalType":"address","name":"owner","type":"address"}],"name":"OwnableInvalidOwner","type":"error"},{"inputs":[{"internalType":"address","name":"account","type":"address"}],"name":"OwnableUnauthorizedAccount","type":"error"},{"inputs":[],"name":"ReentrancyGuardReentrantCall","type":"error"},{"anonymous":false,"inputs":[{"indexed":true,"internalType":"address","name":"owner","type":"address"},{"indexed":true,"internalType":"address","name":"pair","type":"address"},{"indexed":false,"internalType":"uint256","name":"amountLPTokens","type":"uint256"}],"name":"LPTokensClaimed","type":"event"},{"anonymous":false,"inputs":[{"indexed":true,"internalType":"uint256","name":"tokenId","type":"uint256"},{"indexed":false,"internalType":"uint256","name":"liquidity","type":"uint256"}],"name":"LiquidityDeployed","type":"event"},{"anonymous":false,"inputs":[{"indexed":true,"internalType":"address","name":"previousOwner","type":"address"},{"indexed":true,"internalType":"address","name":"newOwner","type":"address"}],"name":"OwnershipTransferred","type":"event"},{"anonymous":false,"inputs":[{"indexed":true,"internalType":"address","name":"buyer","type":"address"},{"indexed":true,"internalType":"address","name":"token","type":"address"},{"indexed":false,"internalType":"uint256","name":"amountInEdu","type":"uint256"}],"name":"Refund","type":"event"},{"anonymous":false,"inputs":[{"indexed":true,"internalType":"address","name":"team","type":"address"},{"indexed":true,"internalType":"address","name":"token","type":"address"},{"indexed":false,"internalType":"uint256","name":"amountInToken","type":"uint256"}],"name":"TeamClaimed","type":"event"},{"anonymous":false,"inputs":[{"indexed":true,"internalType":"address","name":"buyer","type":"address"},{"indexed":true,"internalType":"address","name":"token","type":"address"},{"indexed":false,"internalType":"uint256","name":"amountInEdu","type":"uint256"}],"name":"TokenBought","type":"event"},{"anonymous":false,"inputs":[{"indexed":true,"internalType":"address","name":"buyer","type":"address"},{"indexed":true,"internalType":"address","name":"token","type":"address"},{"indexed":false,"internalType":"uint256","name":"amountInToken","type":"uint256"}],"name":"TokenClaimed","type":"event"},{"inputs":[],"name":"LPTokenAddress","outputs":[{"internalType":"address","name":"","type":"address"}],"stateMutability":"view","type":"function"},{"inputs":[],"name":"NFTManager","outputs":[{"internalType":"address","name":"","type":"address"}],"stateMutability":"view","type":"function"},{"inputs":[],"name":"V3Factory","outputs":[{"internalType":"address","name":"","type":"address"}],"stateMutability":"view","type":"function"},{"inputs":[],"name":"WEDU","outputs":[{"internalType":"address","name":"","type":"address"}],"stateMutability":"view","type":"function"},{"inputs":[],"name":"buyToken","outputs":[],"stateMutability":"payable","type":"function"},{"inputs":[],"name":"claimRefund","outputs":[],"stateMutability":"nonpayable","type":"function"},{"inputs":[],"name":"claimTokens","outputs":[],"stateMutability":"nonpayable","type":"function"},{"inputs":[{"internalType":"address","name":"","type":"address"}],"name":"claimed","outputs":[{"internalType":"uint256","name":"","type":"uint256"}],"stateMutability":"view","type":"function"},{"inputs":[],"name":"config","outputs":[{"internalType":"address","name":"token","type":"address"},{"internalType":"uint256","name":"softCap","type":"uint256"},{"internalType":"uint256","name":"hardCap","type":"uint256"},{"internalType":"uint256","name":"amountForSale","type":"uint256"},{"internalType":"uint256","name":"listingRate","type":"uint256"},{"internalType":"uint256","name":"minimumBuy","type":"uint256"},{"internalType":"uint256","name":"maximumBuy","type":"uint256"},{"internalType":"uint256","name":"percentageForLiquidity","type":"uint256"},{"internalType":"uint256","name":"percentageForTeam","type":"uint256"},{"internalType":"uint256","name":"startDate","type":"uint256"},{"internalType":"uint256","name":"endDate","type":"uint256"}],"stateMutability":"view","type":"function"},{"inputs":[{"internalType":"address","name":"token0","type":"address"},{"internalType":"address","name":"token1","type":"address"},{"internalType":"uint16","name":"feeTier","type":"uint16"},{"internalType":"uint160","name":"sqrtPriceX96","type":"uint160"}],"name":"deployLiquidity","outputs":[],"stateMutability":"nonpayable","type":"function"},{"inputs":[{"internalType":"uint256","name":"_amount","type":"uint256"}],"name":"emergencyTransferEDU","outputs":[],"stateMutability":"nonpayable","type":"function"},{"inputs":[{"internalType":"address","name":"_token","type":"address"},{"internalType":"uint256","name":"_amount","type":"uint256"}],"name":"emergencyTransferTokens","outputs":[],"stateMutability":"nonpayable","type":"function"},{"inputs":[],"name":"liquidityDeployed","outputs":[{"internalType":"bool","name":"","type":"bool"}],"stateMutability":"view","type":"function"},{"inputs":[],"name":"owner","outputs":[{"internalType":"address","name":"","type":"address"}],"stateMutability":"view","type":"function"},{"inputs":[{"internalType":"address","name":"","type":"address"}],"name":"purchaseHistory","outputs":[{"internalType":"uint256","name":"","type":"uint256"}],"stateMutability":"view","type":"function"},{"inputs":[],"name":"renounceOwnership","outputs":[],"stateMutability":"nonpayable","type":"function"},{"inputs":[],"name":"teamClaimed","outputs":[{"internalType":"bool","name":"","type":"bool"}],"stateMutability":"view","type":"function"},{"inputs":[],"name":"totalContributors","outputs":[{"internalType":"uint256","name":"","type":"uint256"}],"stateMutability":"view","type":"function"},{"inputs":[],"name":"totalSold","outputs":[{"internalType":"uint256","name":"","type":"uint256"}],"stateMutability":"view","type":"function"},{"inputs":[{"internalType":"address","name":"newOwner","type":"address"}],"name":"transferOwnership","outputs":[],"stateMutability":"nonpayable","type":"function"},{"inputs":[],"name":"withdrawTeamTokens","outputs":[],"stateMutability":"nonpayable","type":"function"},{"stateMutability":"payable","type":"receive"}],"evm":{"bytecode":{"linkReferences":{},"object":"6080604052601280546001600160a01b031990811673a9cbef0c9274f985340816ed2074abf5aac254631790915560138054821673135e304139c5113895c97dce8b9eda56d4b53cf91790556014805490911673b5cab4e42cb5f16d00c644cb7163f8b427d7a8bf1790553480156200007757600080fd5b5060405162002003380380620020038339810160408190526200009a91620001f9565b806001600160a01b038116620000ca57604051631e4fbdf760e01b81526000600482015260240160405180910390fd5b620000d58162000154565b5050600180558051600280546001600160a01b0319166001600160a01b03909216919091179055602081015160035560408101516004556060810151600555608081015160065560a081015160075560c081015160085560e0810151600955610100810151600a55610120810151600b556101400151600c55620002be565b600080546001600160a01b038381166001600160a01b0319831681178455604051919092169283917f8be0079c531659141344cd1fd0a4f28419497f9722a3daafe3b4186f6b6457e09190a35050565b60405161016081016001600160401b0381118282101715620001d657634e487b7160e01b600052604160045260246000fd5b60405290565b80516001600160a01b0381168114620001f457600080fd5b919050565b6000808284036101808112156200020f57600080fd5b610160808212156200022057600080fd5b6200022a620001a4565b91506200023785620001dc565b82526020850151602083015260408501516040830152606085015160608301526080850151608083015260a085015160a083015260c085015160c083015260e085015160e0830152610100808601518184015250610120808601518184015250610140808601518184015250819350620002b3818601620001dc565b925050509250929050565b611d3580620002ce6000396000f3fe60806040526004361061016e5760003560e01c8063953b7ef8116100cb578063c3828bf01161007f578063e45f2b8a11610059578063e45f2b8a14610438578063f251fc8c14610465578063f2fde38b1461047b57600080fd5b8063c3828bf0146103c5578063c884ef83146103eb578063d812195c1461041857600080fd5b80639c5913cc116100b05780639c5913cc1461038e578063a4821719146103a8578063b5545a3c146103b057600080fd5b8063953b7ef81461035957806397d569971461036e57600080fd5b806379502c55116101225780638da5cb5b116101075780638da5cb5b146102f75780639106d7ba14610315578063948da0101461033957600080fd5b806379502c55146102325780637d7cf6c5146102d757600080fd5b806348c54b9d1161015357806348c54b9d146101d057806362eba8b0146101e5578063715018a61461021d57600080fd5b8063162d21671461017a5780632f3346521461019c57600080fd5b3661017557005b600080fd5b34801561018657600080fd5b5061019a610195366004611822565b61049b565b005b3480156101a857600080fd5b50600f546101bb90610100900460ff1681565b60405190151581526020015b60405180910390f35b3480156101dc57600080fd5b5061019a610a4d565b3480156101f157600080fd5b50601254610205906001600160a01b031681565b6040516001600160a01b0390911681526020016101c7565b34801561022957600080fd5b5061019a610ca2565b34801561023e57600080fd5b50600254600354600454600554600654600754600854600954600a54600b54600c5461027a9a6001600160a01b0316999897969594939291908b565b604080516001600160a01b03909c168c5260208c019a909a52988a01979097526060890195909552608088019390935260a087019190915260c086015260e0850152610100840152610120830152610140820152610160016101c7565b3480156102e357600080fd5b50601354610205906001600160a01b031681565b34801561030357600080fd5b506000546001600160a01b0316610205565b34801561032157600080fd5b5061032b600d5481565b6040519081526020016101c7565b34801561034557600080fd5b5061019a610354366004611885565b610cb4565b34801561036557600080fd5b5061019a610d84565b34801561037a57600080fd5b50601454610205906001600160a01b031681565b34801561039a57600080fd5b50600f546101bb9060ff1681565b61019a610fb6565b3480156103bc57600080fd5b5061019a6112e0565b3480156103d157600080fd5b50600f54610205906201000090046001600160a01b031681565b3480156103f757600080fd5b5061032b6104063660046118b1565b60116020526000908152604090205481565b34801561042457600080fd5b5061019a6104333660046118d5565b6114b7565b34801561044457600080fd5b5061032b6104533660046118b1565b60106020526000908152604090205481565b34801561047157600080fd5b5061032b600e5481565b34801561048757600080fd5b5061019a6104963660046118b1565b611542565b6104a3611599565b600c5442101561050e5760405162461bcd60e51b815260206004820152602b60248201527f546872757374706164466169724c61756e63683a2073616c6520686173206e6f60448201526a1d08195b991959081e595d60aa1b60648201526084015b60405180910390fd5b600354600d5410156105745760405162461bcd60e51b815260206004820152602960248201527f546872757374706164466169724c61756e63683a20736f667420636170206e6f6044820152681d081c995858da195960ba1b6064820152608401610505565b600f5460ff16156105ed5760405162461bcd60e51b815260206004820152602f60248201527f546872757374706164466169724c61756e63683a206c6971756964697479206160448201527f6c7265616479206465706c6f79656400000000000000000000000000000000006064820152608401610505565b6014546012546002546013546040517f1698ee820000000000000000000000000000000000000000000000000000000081526001600160a01b039283166004820152908216602482015261ffff86166044820152928116929116906000908390631698ee8290606401602060405180830381865afa158015610673573d6000803e3d6000fd5b505050506040513d601f19601f8201168201806040525081019061069791906118ee565b90506001600160a01b038116156107165760405162461bcd60e51b815260206004820152602860248201527f546872757374706164466169724c61756e63683a205061697220616c7265616460448201527f79206578697374730000000000000000000000000000000000000000000000006064820152608401610505565b6040517f13ead5620000000000000000000000000000000000000000000000000000000081526001600160a01b038881166004830152878116602483015261ffff8716604483015285811660648301528316906313ead562906084016020604051808303816000875af1158015610791573d6000803e3d6000fd5b505050506040513d601f19601f820116820180604052508101906107b591906118ee565b506002546012546040517f095ea7b30000000000000000000000000000000000000000000000000000000081526001600160a01b039182166004820152600019602482015291169063095ea7b3906044016020604051808303816000875af1158015610825573d6000803e3d6000fd5b505050506040513d601f19601f82011682018060405250810190610849919061190b565b50600254604080517f313ce56700000000000000000000000000000000000000000000000000000000815290516000926001600160a01b03169163313ce5679160048083019260209291908290030181865afa1580156108ad573d6000803e3d6000fd5b505050506040513d601f19601f820116820180604052508101906108d1919061192d565b905060006064600d546002600701546108ea9190611966565b6108f4919061197d565b9050600061090383600a611a83565b6006546109109084611966565b61091a919061197d565b60125460408051610160810182526001600160a01b038e81168083528e8216602084015261ffff8e1693830193909352620d89b3196060830152620d89b4608083015260025494955092831693638831645693879360a0840192909116146109825786610984565b855b81526002546020909101906001600160a01b038f81169116146109a757866109a9565b855b815260006020820181905260408201523360608201526080016109ce4261012c611a92565b8152506040518363ffffffff1660e01b81526004016109ed9190611aa5565b60806040518083038185885af1158015610a0b573d6000803e3d6000fd5b50505050506040513d601f19601f82011682018060405250810190610a309190611b69565b5050600f805460ff19166001179055505050505050505050505050565b610a556115df565b600c54421015610abb5760405162461bcd60e51b815260206004820152602b60248201527f546872757374706164466169724c61756e63683a2073616c6520686173206e6f60448201526a1d08195b991959081e595d60aa1b6064820152608401610505565b600354600d541015610b215760405162461bcd60e51b815260206004820152602960248201527f546872757374706164466169724c61756e63683a20736f667420636170206e6f6044820152681d081c995858da195960ba1b6064820152608401610505565b3360009081526011602052604090205415610b925760405162461bcd60e51b815260206004820152602b60248201527f546872757374706164466169724c61756e63683a20746f6b656e7320616c726560448201526a18591e4818db185a5b595960aa1b6064820152608401610505565b600454600554600091610ba49161197d565b3360009081526010602052604081205491925090610bc3908390611966565b3360008181526011602052604090819020839055600254905163a9059cbb60e01b81526004810192909252602482018390529192506001600160a01b039091169063a9059cbb906044016020604051808303816000875af1158015610c2c573d6000803e3d6000fd5b505050506040513d601f19601f82011682018060405250810190610c50919061190b565b506002546040518281526001600160a01b039091169033907f4831bdd9dcf3048a28319ce81d3cab7a15366bcf449bc7803a539107440809cc9060200160405180910390a35050610ca060018055565b565b610caa611599565b610ca06000611622565b610cbc611599565b600c54421015610d0e5760405162461bcd60e51b815260206004820152601660248201527f53616c6520686173206e6f7420656e64656420796574000000000000000000006044820152606401610505565b60405163a9059cbb60e01b8152336004820152602481018290526001600160a01b0383169063a9059cbb906044016020604051808303816000875af1158015610d5b573d6000803e3d6000fd5b505050506040513d601f19601f82011682018060405250810190610d7f919061190b565b505050565b610d8c611599565b600c54421015610df25760405162461bcd60e51b815260206004820152602b60248201527f546872757374706164466169724c61756e63683a2073616c6520686173206e6f60448201526a1d08195b991959081e595d60aa1b6064820152608401610505565b600354600d541015610e585760405162461bcd60e51b815260206004820152602960248201527f546872757374706164466169724c61756e63683a20736f667420636170206e6f6044820152681d081c995858da195960ba1b6064820152608401610505565b600f54610100900460ff1615610ed65760405162461bcd60e51b815260206004820152603060248201527f546872757374706164466169724c61756e63683a207465616d20746f6b656e7360448201527f20616c726561647920636c61696d6564000000000000000000000000000000006064820152608401610505565b60006064600d54600260080154610eed9190611966565b610ef7919061197d565b600f805461ff0019166101001790559050610f1a6000546001600160a01b031690565b6001600160a01b03166108fc829081150290604051600060405180830381858888f19350505050158015610f52573d6000803e3d6000fd5b506002546001600160a01b0316610f716000546001600160a01b031690565b6001600160a01b03167fa95e69983c44f17474cba286953deb119463b9f5cb8cfde4fd709df3660266f783604051610fab91815260200190565b60405180910390a350565b600260090154421015610fc84261168a565b604051602001610fd89190611be0565b604051602081830303815290604052906110055760405162461bcd60e51b81526004016105059190611c4b565b506002600a01544211156110184261168a565b6040516020016110289190611c7e565b604051602081830303815290604052906110555760405162461bcd60e51b81526004016105059190611c4b565b506007543410156110ce5760405162461bcd60e51b815260206004820152603460248201527f546872757374706164466169724c61756e63683a20616d6f756e74206973206c60448201527f657373207468616e206d696e696d756d206275790000000000000000000000006064820152608401610505565b6008543411156111465760405162461bcd60e51b815260206004820152603460248201527f546872757374706164466169724c61756e63683a20616d6f756e74206973206d60448201527f6f7265207468616e206d6178696d756d206275790000000000000000000000006064820152608401610505565b600454600d54611157903490611a92565b11156111b35760405162461bcd60e51b815260206004820152602560248201527f546872757374706164466169724c61756e63683a2068617264206361702072656044820152641858da195960da1b6064820152608401610505565b600854336000908152601060205260409020546111d1903490611a92565b11156112455760405162461bcd60e51b815260206004820152603360248201527f546872757374706164466169724c61756e63683a2077616c6c6574206861732060448201527f72656163686564206d6178696d756d20627579000000000000000000000000006064820152608401610505565b34600d60008282546112579190611a92565b925050819055506001600e60008282546112719190611a92565b90915550503360009081526010602052604081208054349290611295908490611a92565b90915550506002546040513481526001600160a01b039091169033907f9b24bd0884170cbce51f9f00df6b3f9aed2231e4086241d1d04687b42afdf7b99060200160405180910390a3565b6112e86115df565b600c5442101561134e5760405162461bcd60e51b815260206004820152602b60248201527f546872757374706164466169724c61756e63683a2073616c6520686173206e6f60448201526a1d08195b991959081e595d60aa1b6064820152608401610505565b600354600d54106113af5760405162461bcd60e51b815260206004820152602560248201527f546872757374706164466169724c61756e63683a20736f6674206361702072656044820152641858da195960da1b6064820152608401610505565b33600090815260116020526040902054156114205760405162461bcd60e51b815260206004820152602b60248201527f546872757374706164466169724c61756e63683a20746f6b656e7320616c726560448201526a18591e4818db185a5b595960aa1b6064820152608401610505565b3360008181526010602090815260408083205460119092528083208290555190929183156108fc02918491818181858888f19350505050158015611468573d6000803e3d6000fd5b506002546040518281526001600160a01b039091169033907ff40cc8c1a1d17359049ba500cfc894596a692cffc9d03943cd92ec2e159cf6ae9060200160405180910390a350610ca060018055565b6114bf611599565b600c544210156115115760405162461bcd60e51b815260206004820152601660248201527f53616c6520686173206e6f7420656e64656420796574000000000000000000006044820152606401610505565b604051339082156108fc029083906000818181858888f1935050505015801561153e573d6000803e3d6000fd5b5050565b61154a611599565b6001600160a01b03811661158d576040517f1e4fbdf700000000000000000000000000000000000000000000000000000000815260006004820152602401610505565b61159681611622565b50565b6000546001600160a01b03163314610ca0576040517f118cdaa7000000000000000000000000000000000000000000000000000000008152336004820152602401610505565b60026001540361161b576040517f3ee5aeb500000000000000000000000000000000000000000000000000000000815260040160405180910390fd5b6002600155565b600080546001600160a01b038381167fffffffffffffffffffffffff0000000000000000000000000000000000000000831681178455604051919092169283917f8be0079c531659141344cd1fd0a4f28419497f9722a3daafe3b4186f6b6457e09190a35050565b606060006116978361172a565b600101905060008167ffffffffffffffff8111156116b7576116b7611ce9565b6040519080825280601f01601f1916602001820160405280156116e1576020820181803683370190505b5090508181016020015b600019017f3031323334353637383961626364656600000000000000000000000000000000600a86061a8153600a85049450846116eb57509392505050565b6000807a184f03e93ff9f4daa797ed6e38ed64bf6a1f0100000000000000008310611773577a184f03e93ff9f4daa797ed6e38ed64bf6a1f010000000000000000830492506040015b6d04ee2d6d415b85acef8100000000831061179f576d04ee2d6d415b85acef8100000000830492506020015b662386f26fc1000083106117bd57662386f26fc10000830492506010015b6305f5e10083106117d5576305f5e100830492506008015b61271083106117e957612710830492506004015b606483106117fb576064830492506002015b600a8310611807576001015b92915050565b6001600160a01b038116811461159657600080fd5b6000806000806080858703121561183857600080fd5b84356118438161180d565b935060208501356118538161180d565b9250604085013561ffff8116811461186a57600080fd5b9150606085013561187a8161180d565b939692955090935050565b6000806040838503121561189857600080fd5b82356118a38161180d565b946020939093013593505050565b6000602082840312156118c357600080fd5b81356118ce8161180d565b9392505050565b6000602082840312156118e757600080fd5b5035919050565b60006020828403121561190057600080fd5b81516118ce8161180d565b60006020828403121561191d57600080fd5b815180151581146118ce57600080fd5b60006020828403121561193f57600080fd5b815160ff811681146118ce57600080fd5b634e487b7160e01b600052601160045260246000fd5b808202811582820484141761180757611807611950565b60008261199a57634e487b7160e01b600052601260045260246000fd5b500490565b600181815b808511156119da5781600019048211156119c0576119c0611950565b808516156119cd57918102915b93841c93908002906119a4565b509250929050565b6000826119f157506001611807565b816119fe57506000611807565b8160018114611a145760028114611a1e57611a3a565b6001915050611807565b60ff841115611a2f57611a2f611950565b50506001821b611807565b5060208310610133831016604e8410600b8410161715611a5d575081810a611807565b611a67838361199f565b8060001904821115611a7b57611a7b611950565b029392505050565b60006118ce60ff8416836119e2565b8082018082111561180757611807611950565b81516001600160a01b0316815261016081016020830151611ad160208401826001600160a01b03169052565b506040830151611ae8604084018262ffffff169052565b506060830151611afd606084018260020b9052565b506080830151611b12608084018260020b9052565b5060a083015160a083015260c083015160c083015260e083015160e083015261010080840151818401525061012080840151611b58828501826001600160a01b03169052565b505061014092830151919092015290565b60008060008060808587031215611b7f57600080fd5b8451935060208501516fffffffffffffffffffffffffffffffff81168114611ba657600080fd5b6040860151606090960151949790965092505050565b60005b83811015611bd7578181015183820152602001611bbf565b50506000910152565b7f546872757374706164466169724c61756e63683a2073616c6520686173206e6f81527f742073746172746564207965743a200000000000000000000000000000000000602082015260008251611c3e81602f850160208701611bbc565b91909101602f0192915050565b6020815260008251806020840152611c6a816040850160208701611bbc565b601f01601f19169190910160400192915050565b7f546872757374706164466169724c61756e63683a2073616c652068617320656e81527f6465643a20000000000000000000000000000000000000000000000000000000602082015260008251611cdc816025850160208701611bbc565b9190910160250192915050565b634e487b7160e01b600052604160045260246000fdfea26469706673582212208da53e912297255931661d1d77ebbcd03463985e6bfaf4024d78a717e1001e3164736f6c63430008180033","opcodes":"PUSH1 0x80 PUSH1 0x40 MSTORE PUSH1 0x12 DUP1 SLOAD PUSH1 0x1 PUSH1 0x1 PUSH1 0xA0 SHL SUB NOT SWAP1 DUP2 AND PUSH20 0xA9CBEF0C9274F985340816ED2074ABF5AAC25463 OR SWAP1 SWAP2 SSTORE PUSH1 0x13 DUP1 SLOAD DUP3 AND PUSH20 0x135E304139C5113895C97DCE8B9EDA56D4B53CF9 OR SWAP1 SSTORE PUSH1 0x14 DUP1 SLOAD SWAP1 SWAP2 AND PUSH20 0xB5CAB4E42CB5F16D00C644CB7163F8B427D7A8BF OR SWAP1 SSTORE CALLVALUE DUP1 ISZERO PUSH3 0x77 JUMPI PUSH1 0x0 DUP1 REVERT JUMPDEST POP PUSH1 0x40 MLOAD PUSH3 0x2003 CODESIZE SUB DUP1 PUSH3 0x2003 DUP4 CODECOPY DUP2 ADD PUSH1 0x40 DUP2 SWAP1 MSTORE PUSH3 0x9A SWAP2 PUSH3 0x1F9 JUMP JUMPDEST DUP1 PUSH1 0x1 PUSH1 0x1 PUSH1 0xA0 SHL SUB DUP2 AND PUSH3 0xCA JUMPI PUSH1 0x40 MLOAD PUSH4 0x1E4FBDF7 PUSH1 0xE0 SHL DUP2 MSTORE PUSH1 0x0 PUSH1 0x4 DUP3 ADD MSTORE PUSH1 0x24 ADD PUSH1 0x40 MLOAD DUP1 SWAP2 SUB SWAP1 REVERT JUMPDEST PUSH3 0xD5 DUP2 PUSH3 0x154 JUMP JUMPDEST POP POP PUSH1 0x1 DUP1 SSTORE DUP1 MLOAD PUSH1 0x2 DUP1 SLOAD PUSH1 0x1 PUSH1 0x1 PUSH1 0xA0 SHL SUB NOT AND PUSH1 0x1 PUSH1 0x1 PUSH1 0xA0 SHL SUB SWAP1 SWAP3 AND SWAP2 SWAP1 SWAP2 OR SWAP1 SSTORE PUSH1 0x20 DUP2 ADD MLOAD PUSH1 0x3 SSTORE PUSH1 0x40 DUP2 ADD MLOAD PUSH1 0x4 SSTORE PUSH1 0x60 DUP2 ADD MLOAD PUSH1 0x5 SSTORE PUSH1 0x80 DUP2 ADD MLOAD PUSH1 0x6 SSTORE PUSH1 0xA0 DUP2 ADD MLOAD PUSH1 0x7 SSTORE PUSH1 0xC0 DUP2 ADD MLOAD PUSH1 0x8 SSTORE PUSH1 0xE0 DUP2 ADD MLOAD PUSH1 0x9 SSTORE PUSH2 0x100 DUP2 ADD MLOAD PUSH1 0xA SSTORE PUSH2 0x120 DUP2 ADD MLOAD PUSH1 0xB SSTORE PUSH2 0x140 ADD MLOAD PUSH1 0xC SSTORE PUSH3 0x2BE JUMP JUMPDEST PUSH1 0x0 DUP1 SLOAD PUSH1 0x1 PUSH1 0x1 PUSH1 0xA0 SHL SUB DUP4 DUP2 AND PUSH1 0x1 PUSH1 0x1 PUSH1 0xA0 SHL SUB NOT DUP4 AND DUP2 OR DUP5 SSTORE PUSH1 0x40 MLOAD SWAP2 SWAP1 SWAP3 AND SWAP3 DUP4 SWAP2 PUSH32 0x8BE0079C531659141344CD1FD0A4F28419497F9722A3DAAFE3B4186F6B6457E0 SWAP2 SWAP1 LOG3 POP POP JUMP JUMPDEST PUSH1 0x40 MLOAD PUSH2 0x160 DUP2 ADD PUSH1 0x1 PUSH1 0x1 PUSH1 0x40 SHL SUB DUP2 GT DUP3 DUP3 LT OR ISZERO PUSH3 0x1D6 JUMPI PUSH4 0x4E487B71 PUSH1 0xE0 SHL PUSH1 0x0 MSTORE PUSH1 0x41 PUSH1 0x4 MSTORE PUSH1 0x24 PUSH1 0x0 REVERT JUMPDEST PUSH1 0x40 MSTORE SWAP1 JUMP JUMPDEST DUP1 MLOAD PUSH1 0x1 PUSH1 0x1 PUSH1 0xA0 SHL SUB DUP2 AND DUP2 EQ PUSH3 0x1F4 JUMPI PUSH1 0x0 DUP1 REVERT JUMPDEST SWAP2 SWAP1 POP JUMP JUMPDEST PUSH1 0x0 DUP1 DUP3 DUP5 SUB PUSH2 0x180 DUP2 SLT ISZERO PUSH3 0x20F JUMPI PUSH1 0x0 DUP1 REVERT JUMPDEST PUSH2 0x160 DUP1 DUP3 SLT ISZERO PUSH3 0x220 JUMPI PUSH1 0x0 DUP1 REVERT JUMPDEST PUSH3 0x22A PUSH3 0x1A4 JUMP JUMPDEST SWAP2 POP PUSH3 0x237 DUP6 PUSH3 0x1DC JUMP JUMPDEST DUP3 MSTORE PUSH1 0x20 DUP6 ADD MLOAD PUSH1 0x20 DUP4 ADD MSTORE PUSH1 0x40 DUP6 ADD MLOAD PUSH1 0x40 DUP4 ADD MSTORE PUSH1 0x60 DUP6 ADD MLOAD PUSH1 0x60 DUP4 ADD MSTORE PUSH1 0x80 DUP6 ADD MLOAD PUSH1 0x80 DUP4 ADD MSTORE PUSH1 0xA0 DUP6 ADD MLOAD PUSH1 0xA0 DUP4 ADD MSTORE PUSH1 0xC0 DUP6 ADD MLOAD PUSH1 0xC0 DUP4 ADD MSTORE PUSH1 0xE0 DUP6 ADD MLOAD PUSH1 0xE0 DUP4 ADD MSTORE PUSH2 0x100 DUP1 DUP7 ADD MLOAD DUP2 DUP5 ADD MSTORE POP PUSH2 0x120 DUP1 DUP7 ADD MLOAD DUP2 DUP5 ADD MSTORE POP PUSH2 0x140 DUP1 DUP7 ADD MLOAD DUP2 DUP5 ADD MSTORE POP DUP2 SWAP4 POP PUSH3 0x2B3 DUP2 DUP7 ADD PUSH3 0x1DC JUMP JUMPDEST SWAP3 POP POP POP SWAP3 POP SWAP3 SWAP1 POP JUMP JUMPDEST PUSH2 0x1D35 DUP1 PUSH3 0x2CE PUSH1 0x0 CODECOPY PUSH1 0x0 RETURN INVALID PUSH1 0x80 PUSH1 0x40 MSTORE PUSH1 0x4 CALLDATASIZE LT PUSH2 0x16E JUMPI PUSH1 0x0 CALLDATALOAD PUSH1 0xE0 SHR DUP1 PUSH4 0x953B7EF8 GT PUSH2 0xCB JUMPI DUP1 PUSH4 0xC3828BF0 GT PUSH2 0x7F JUMPI DUP1 PUSH4 0xE45F2B8A GT PUSH2 0x59 JUMPI DUP1 PUSH4 0xE45F2B8A EQ PUSH2 0x438 JUMPI DUP1 PUSH4 0xF251FC8C EQ PUSH2 0x465 JUMPI DUP1 PUSH4 0xF2FDE38B EQ PUSH2 0x47B JUMPI PUSH1 0x0 DUP1 REVERT JUMPDEST DUP1 PUSH4 0xC3828BF0 EQ PUSH2 0x3C5 JUMPI DUP1 PUSH4 0xC884EF83 EQ PUSH2 0x3EB JUMPI DUP1 PUSH4 0xD812195C EQ PUSH2 0x418 JUMPI PUSH1 0x0 DUP1 REVERT JUMPDEST DUP1 PUSH4 0x9C5913CC GT PUSH2 0xB0 JUMPI DUP1 PUSH4 0x9C5913CC EQ PUSH2 0x38E JUMPI DUP1 PUSH4 0xA4821719 EQ PUSH2 0x3A8 JUMPI DUP1 PUSH4 0xB5545A3C EQ PUSH2 0x3B0 JUMPI PUSH1 0x0 DUP1 REVERT JUMPDEST DUP1 PUSH4 0x953B7EF8 EQ PUSH2 0x359 JUMPI DUP1 PUSH4 0x97D56997 EQ PUSH2 0x36E JUMPI PUSH1 0x0 DUP1 REVERT JUMPDEST DUP1 PUSH4 0x79502C55 GT PUSH2 0x122 JUMPI DUP1 PUSH4 0x8DA5CB5B GT PUSH2 0x107 JUMPI DUP1 PUSH4 0x8DA5CB5B EQ PUSH2 0x2F7 JUMPI DUP1 PUSH4 0x9106D7BA EQ PUSH2 0x315 JUMPI DUP1 PUSH4 0x948DA010 EQ PUSH2 0x339 JUMPI PUSH1 0x0 DUP1 REVERT JUMPDEST DUP1 PUSH4 0x79502C55 EQ PUSH2 0x232 JUMPI DUP1 PUSH4 0x7D7CF6C5 EQ PUSH2 0x2D7 JUMPI PUSH1 0x0 DUP1 REVERT JUMPDEST DUP1 PUSH4 0x48C54B9D GT PUSH2 0x153 JUMPI DUP1 PUSH4 0x48C54B9D EQ PUSH2 0x1D0 JUMPI DUP1 PUSH4 0x62EBA8B0 EQ PUSH2 0x1E5 JUMPI DUP1 PUSH4 0x715018A6 EQ PUSH2 0x21D JUMPI PUSH1 0x0 DUP1 REVERT JUMPDEST DUP1 PUSH4 0x162D2167 EQ PUSH2 0x17A JUMPI DUP1 PUSH4 0x2F334652 EQ PUSH2 0x19C JUMPI PUSH1 0x0 DUP1 REVERT JUMPDEST CALLDATASIZE PUSH2 0x175 JUMPI STOP JUMPDEST PUSH1 0x0 DUP1 REVERT JUMPDEST CALLVALUE DUP1 ISZERO PUSH2 0x186 JUMPI PUSH1 0x0 DUP1 REVERT JUMPDEST POP PUSH2 0x19A PUSH2 0x195 CALLDATASIZE PUSH1 0x4 PUSH2 0x1822 JUMP JUMPDEST PUSH2 0x49B JUMP JUMPDEST STOP JUMPDEST CALLVALUE DUP1 ISZERO PUSH2 0x1A8 JUMPI PUSH1 0x0 DUP1 REVERT JUMPDEST POP PUSH1 0xF SLOAD PUSH2 0x1BB SWAP1 PUSH2 0x100 SWAP1 DIV PUSH1 0xFF AND DUP2 JUMP JUMPDEST PUSH1 0x40 MLOAD SWAP1 ISZERO ISZERO DUP2 MSTORE PUSH1 0x20 ADD JUMPDEST PUSH1 0x40 MLOAD DUP1 SWAP2 SUB SWAP1 RETURN JUMPDEST CALLVALUE DUP1 ISZERO PUSH2 0x1DC JUMPI PUSH1 0x0 DUP1 REVERT JUMPDEST POP PUSH2 0x19A PUSH2 0xA4D JUMP JUMPDEST CALLVALUE DUP1 ISZERO PUSH2 0x1F1 JUMPI PUSH1 0x0 DUP1 REVERT JUMPDEST POP PUSH1 0x12 SLOAD PUSH2 0x205 SWAP1 PUSH1 0x1 PUSH1 0x1 PUSH1 0xA0 SHL SUB AND DUP2 JUMP JUMPDEST PUSH1 0x40 MLOAD PUSH1 0x1 PUSH1 0x1 PUSH1 0xA0 SHL SUB SWAP1 SWAP2 AND DUP2 MSTORE PUSH1 0x20 ADD PUSH2 0x1C7 JUMP JUMPDEST CALLVALUE DUP1 ISZERO PUSH2 0x229 JUMPI PUSH1 0x0 DUP1 REVERT JUMPDEST POP PUSH2 0x19A PUSH2 0xCA2 JUMP JUMPDEST CALLVALUE DUP1 ISZERO PUSH2 0x23E JUMPI PUSH1 0x0 DUP1 REVERT JUMPDEST POP PUSH1 0x2 SLOAD PUSH1 0x3 SLOAD PUSH1 0x4 SLOAD PUSH1 0x5 SLOAD PUSH1 0x6 SLOAD PUSH1 0x7 SLOAD PUSH1 0x8 SLOAD PUSH1 0x9 SLOAD PUSH1 0xA SLOAD PUSH1 0xB SLOAD PUSH1 0xC SLOAD PUSH2 0x27A SWAP11 PUSH1 0x1 PUSH1 0x1 PUSH1 0xA0 SHL SUB AND SWAP10 SWAP9 SWAP8 SWAP7 SWAP6 SWAP5 SWAP4 SWAP3 SWAP2 SWAP1 DUP12 JUMP JUMPDEST PUSH1 0x40 DUP1 MLOAD PUSH1 0x1 PUSH1 0x1 PUSH1 0xA0 SHL SUB SWAP1 SWAP13 AND DUP13 MSTORE PUSH1 0x20 DUP13 ADD SWAP11 SWAP1 SWAP11 MSTORE SWAP9 DUP11 ADD SWAP8 SWAP1 SWAP8 MSTORE PUSH1 0x60 DUP10 ADD SWAP6 SWAP1 SWAP6 MSTORE PUSH1 0x80 DUP9 ADD SWAP4 SWAP1 SWAP4 MSTORE PUSH1 0xA0 DUP8 ADD SWAP2 SWAP1 SWAP2 MSTORE PUSH1 0xC0 DUP7 ADD MSTORE PUSH1 0xE0 DUP6 ADD MSTORE PUSH2 0x100 DUP5 ADD MSTORE PUSH2 0x120 DUP4 ADD MSTORE PUSH2 0x140 DUP3 ADD MSTORE PUSH2 0x160 ADD PUSH2 0x1C7 JUMP JUMPDEST CALLVALUE DUP1 ISZERO PUSH2 0x2E3 JUMPI PUSH1 0x0 DUP1 REVERT JUMPDEST POP PUSH1 0x13 SLOAD PUSH2 0x205 SWAP1 PUSH1 0x1 PUSH1 0x1 PUSH1 0xA0 SHL SUB AND DUP2 JUMP JUMPDEST CALLVALUE DUP1 ISZERO PUSH2 0x303 JUMPI PUSH1 0x0 DUP1 REVERT JUMPDEST POP PUSH1 0x0 SLOAD PUSH1 0x1 PUSH1 0x1 PUSH1 0xA0 SHL SUB AND PUSH2 0x205 JUMP JUMPDEST CALLVALUE DUP1 ISZERO PUSH2 0x321 JUMPI PUSH1 0x0 DUP1 REVERT JUMPDEST POP PUSH2 0x32B PUSH1 0xD SLOAD DUP2 JUMP JUMPDEST PUSH1 0x40 MLOAD SWAP1 DUP2 MSTORE PUSH1 0x20 ADD PUSH2 0x1C7 JUMP JUMPDEST CALLVALUE DUP1 ISZERO PUSH2 0x345 JUMPI PUSH1 0x0 DUP1 REVERT JUMPDEST POP PUSH2 0x19A PUSH2 0x354 CALLDATASIZE PUSH1 0x4 PUSH2 0x1885 JUMP JUMPDEST PUSH2 0xCB4 JUMP JUMPDEST CALLVALUE DUP1 ISZERO PUSH2 0x365 JUMPI PUSH1 0x0 DUP1 REVERT JUMPDEST POP PUSH2 0x19A PUSH2 0xD84 JUMP JUMPDEST CALLVALUE DUP1 ISZERO PUSH2 0x37A JUMPI PUSH1 0x0 DUP1 REVERT JUMPDEST POP PUSH1 0x14 SLOAD PUSH2 0x205 SWAP1 PUSH1 0x1 PUSH1 0x1 PUSH1 0xA0 SHL SUB AND DUP2 JUMP JUMPDEST CALLVALUE DUP1 ISZERO PUSH2 0x39A JUMPI PUSH1 0x0 DUP1 REVERT JUMPDEST POP PUSH1 0xF SLOAD PUSH2 0x1BB SWAP1 PUSH1 0xFF AND DUP2 JUMP JUMPDEST PUSH2 0x19A PUSH2 0xFB6 JUMP JUMPDEST CALLVALUE DUP1 ISZERO PUSH2 0x3BC JUMPI PUSH1 0x0 DUP1 REVERT JUMPDEST POP PUSH2 0x19A PUSH2 0x12E0 JUMP JUMPDEST CALLVALUE DUP1 ISZERO PUSH2 0x3D1 JUMPI PUSH1 0x0 DUP1 REVERT JUMPDEST POP PUSH1 0xF SLOAD PUSH2 0x205 SWAP1 PUSH3 0x10000 SWAP1 DIV PUSH1 0x1 PUSH1 0x1 PUSH1 0xA0 SHL SUB AND DUP2 JUMP JUMPDEST CALLVALUE DUP1 ISZERO PUSH2 0x3F7 JUMPI PUSH1 0x0 DUP1 REVERT JUMPDEST POP PUSH2 0x32B PUSH2 0x406 CALLDATASIZE PUSH1 0x4 PUSH2 0x18B1 JUMP JUMPDEST PUSH1 0x11 PUSH1 0x20 MSTORE PUSH1 0x0 SWAP1 DUP2 MSTORE PUSH1 0x40 SWAP1 KECCAK256 SLOAD DUP2 JUMP JUMPDEST CALLVALUE DUP1 ISZERO PUSH2 0x424 JUMPI PUSH1 0x0 DUP1 REVERT JUMPDEST POP PUSH2 0x19A PUSH2 0x433 CALLDATASIZE PUSH1 0x4 PUSH2 0x18D5 JUMP JUMPDEST PUSH2 0x14B7 JUMP JUMPDEST CALLVALUE DUP1 ISZERO PUSH2 0x444 JUMPI PUSH1 0x0 DUP1 REVERT JUMPDEST POP PUSH2 0x32B PUSH2 0x453 CALLDATASIZE PUSH1 0x4 PUSH2 0x18B1 JUMP JUMPDEST PUSH1 0x10 PUSH1 0x20 MSTORE PUSH1 0x0 SWAP1 DUP2 MSTORE PUSH1 0x40 SWAP1 KECCAK256 SLOAD DUP2 JUMP JUMPDEST CALLVALUE DUP1 ISZERO PUSH2 0x471 JUMPI PUSH1 0x0 DUP1 REVERT JUMPDEST POP PUSH2 0x32B PUSH1 0xE SLOAD DUP2 JUMP JUMPDEST CALLVALUE DUP1 ISZERO PUSH2 0x487 JUMPI PUSH1 0x0 DUP1 REVERT JUMPDEST POP PUSH2 0x19A PUSH2 0x496 CALLDATASIZE PUSH1 0x4 PUSH2 0x18B1 JUMP JUMPDEST PUSH2 0x1542 JUMP JUMPDEST PUSH2 0x4A3 PUSH2 0x1599 JUMP JUMPDEST PUSH1 0xC SLOAD TIMESTAMP LT ISZERO PUSH2 0x50E JUMPI PUSH1 0x40 MLOAD PUSH3 0x461BCD PUSH1 0xE5 SHL DUP2 MSTORE PUSH1 0x20 PUSH1 0x4 DUP3 ADD MSTORE PUSH1 0x2B PUSH1 0x24 DUP3 ADD MSTORE PUSH32 0x546872757374706164466169724C61756E63683A2073616C6520686173206E6F PUSH1 0x44 DUP3 ADD MSTORE PUSH11 0x1D08195B991959081E595D PUSH1 0xAA SHL PUSH1 0x64 DUP3 ADD MSTORE PUSH1 0x84 ADD JUMPDEST PUSH1 0x40 MLOAD DUP1 SWAP2 SUB SWAP1 REVERT JUMPDEST PUSH1 0x3 SLOAD PUSH1 0xD SLOAD LT ISZERO PUSH2 0x574 JUMPI PUSH1 0x40 MLOAD PUSH3 0x461BCD PUSH1 0xE5 SHL DUP2 MSTORE PUSH1 0x20 PUSH1 0x4 DUP3 ADD MSTORE PUSH1 0x29 PUSH1 0x24 DUP3 ADD MSTORE PUSH32 0x546872757374706164466169724C61756E63683A20736F667420636170206E6F PUSH1 0x44 DUP3 ADD MSTORE PUSH9 0x1D081C995858DA1959 PUSH1 0xBA SHL PUSH1 0x64 DUP3 ADD MSTORE PUSH1 0x84 ADD PUSH2 0x505 JUMP JUMPDEST PUSH1 0xF SLOAD PUSH1 0xFF AND ISZERO PUSH2 0x5ED JUMPI PUSH1 0x40 MLOAD PUSH3 0x461BCD PUSH1 0xE5 SHL DUP2 MSTORE PUSH1 0x20 PUSH1 0x4 DUP3 ADD MSTORE PUSH1 0x2F PUSH1 0x24 DUP3 ADD MSTORE PUSH32 0x546872757374706164466169724C61756E63683A206C69717569646974792061 PUSH1 0x44 DUP3 ADD MSTORE PUSH32 0x6C7265616479206465706C6F7965640000000000000000000000000000000000 PUSH1 0x64 DUP3 ADD MSTORE PUSH1 0x84 ADD PUSH2 0x505 JUMP JUMPDEST PUSH1 0x14 SLOAD PUSH1 0x12 SLOAD PUSH1 0x2 SLOAD PUSH1 0x13 SLOAD PUSH1 0x40 MLOAD PUSH32 0x1698EE8200000000000000000000000000000000000000000000000000000000 DUP2 MSTORE PUSH1 0x1 PUSH1 0x1 PUSH1 0xA0 SHL SUB SWAP3 DUP4 AND PUSH1 0x4 DUP3 ADD MSTORE SWAP1 DUP3 AND PUSH1 0x24 DUP3 ADD MSTORE PUSH2 0xFFFF DUP7 AND PUSH1 0x44 DUP3 ADD MSTORE SWAP3 DUP2 AND SWAP3 SWAP2 AND SWAP1 PUSH1 0x0 SWAP1 DUP4 SWAP1 PUSH4 0x1698EE82 SWAP1 PUSH1 0x64 ADD PUSH1 0x20 PUSH1 0x40 MLOAD DUP1 DUP4 SUB DUP2 DUP7 GAS STATICCALL ISZERO DUP1 ISZERO PUSH2 0x673 JUMPI RETURNDATASIZE PUSH1 0x0 DUP1 RETURNDATACOPY RETURNDATASIZE PUSH1 0x0 REVERT JUMPDEST POP POP POP POP PUSH1 0x40 MLOAD RETURNDATASIZE PUSH1 0x1F NOT PUSH1 0x1F DUP3 ADD AND DUP3 ADD DUP1 PUSH1 0x40 MSTORE POP DUP2 ADD SWAP1 PUSH2 0x697 SWAP2 SWAP1 PUSH2 0x18EE JUMP JUMPDEST SWAP1 POP PUSH1 0x1 PUSH1 0x1 PUSH1 0xA0 SHL SUB DUP2 AND ISZERO PUSH2 0x716 JUMPI PUSH1 0x40 MLOAD PUSH3 0x461BCD PUSH1 0xE5 SHL DUP2 MSTORE PUSH1 0x20 PUSH1 0x4 DUP3 ADD MSTORE PUSH1 0x28 PUSH1 0x24 DUP3 ADD MSTORE PUSH32 0x546872757374706164466169724C61756E63683A205061697220616C72656164 PUSH1 0x44 DUP3 ADD MSTORE PUSH32 0x7920657869737473000000000000000000000000000000000000000000000000 PUSH1 0x64 DUP3 ADD MSTORE PUSH1 0x84 ADD PUSH2 0x505 JUMP JUMPDEST PUSH1 0x40 MLOAD PUSH32 0x13EAD56200000000000000000000000000000000000000000000000000000000 DUP2 MSTORE PUSH1 0x1 PUSH1 0x1 PUSH1 0xA0 SHL SUB DUP9 DUP2 AND PUSH1 0x4 DUP4 ADD MSTORE DUP8 DUP2 AND PUSH1 0x24 DUP4 ADD MSTORE PUSH2 0xFFFF DUP8 AND PUSH1 0x44 DUP4 ADD MSTORE DUP6 DUP2 AND PUSH1 0x64 DUP4 ADD MSTORE DUP4 AND SWAP1 PUSH4 0x13EAD562 SWAP1 PUSH1 0x84 ADD PUSH1 0x20 PUSH1 0x40 MLOAD DUP1 DUP4 SUB DUP2 PUSH1 0x0 DUP8 GAS CALL ISZERO DUP1 ISZERO PUSH2 0x791 JUMPI RETURNDATASIZE PUSH1 0x0 DUP1 RETURNDATACOPY RETURNDATASIZE PUSH1 0x0 REVERT JUMPDEST POP POP POP POP PUSH1 0x40 MLOAD RETURNDATASIZE PUSH1 0x1F NOT PUSH1 0x1F DUP3 ADD AND DUP3 ADD DUP1 PUSH1 0x40 MSTORE POP DUP2 ADD SWAP1 PUSH2 0x7B5 SWAP2 SWAP1 PUSH2 0x18EE JUMP JUMPDEST POP PUSH1 0x2 SLOAD PUSH1 0x12 SLOAD PUSH1 0x40 MLOAD PUSH32 0x95EA7B300000000000000000000000000000000000000000000000000000000 DUP2 MSTORE PUSH1 0x1 PUSH1 0x1 PUSH1 0xA0 SHL SUB SWAP2 DUP3 AND PUSH1 0x4 DUP3 ADD MSTORE PUSH1 0x0 NOT PUSH1 0x24 DUP3 ADD MSTORE SWAP2 AND SWAP1 PUSH4 0x95EA7B3 SWAP1 PUSH1 0x44 ADD PUSH1 0x20 PUSH1 0x40 MLOAD DUP1 DUP4 SUB DUP2 PUSH1 0x0 DUP8 GAS CALL ISZERO DUP1 ISZERO PUSH2 0x825 JUMPI RETURNDATASIZE PUSH1 0x0 DUP1 RETURNDATACOPY RETURNDATASIZE PUSH1 0x0 REVERT JUMPDEST POP POP POP POP PUSH1 0x40 MLOAD RETURNDATASIZE PUSH1 0x1F NOT PUSH1 0x1F DUP3 ADD AND DUP3 ADD DUP1 PUSH1 0x40 MSTORE POP DUP2 ADD SWAP1 PUSH2 0x849 SWAP2 SWAP1 PUSH2 0x190B JUMP JUMPDEST POP PUSH1 0x2 SLOAD PUSH1 0x40 DUP1 MLOAD PUSH32 0x313CE56700000000000000000000000000000000000000000000000000000000 DUP2 MSTORE SWAP1 MLOAD PUSH1 0x0 SWAP3 PUSH1 0x1 PUSH1 0x1 PUSH1 0xA0 SHL SUB AND SWAP2 PUSH4 0x313CE567 SWAP2 PUSH1 0x4 DUP1 DUP4 ADD SWAP3 PUSH1 0x20 SWAP3 SWAP2 SWAP1 DUP3 SWAP1 SUB ADD DUP2 DUP7 GAS STATICCALL ISZERO DUP1 ISZERO PUSH2 0x8AD JUMPI RETURNDATASIZE PUSH1 0x0 DUP1 RETURNDATACOPY RETURNDATASIZE PUSH1 0x0 REVERT JUMPDEST POP POP POP POP PUSH1 0x40 MLOAD RETURNDATASIZE PUSH1 0x1F NOT PUSH1 0x1F DUP3 ADD AND DUP3 ADD DUP1 PUSH1 0x40 MSTORE POP DUP2 ADD SWAP1 PUSH2 0x8D1 SWAP2 SWAP1 PUSH2 0x192D JUMP JUMPDEST SWAP1 POP PUSH1 0x0 PUSH1 0x64 PUSH1 0xD SLOAD PUSH1 0x2 PUSH1 0x7 ADD SLOAD PUSH2 0x8EA SWAP2 SWAP1 PUSH2 0x1966 JUMP JUMPDEST PUSH2 0x8F4 SWAP2 SWAP1 PUSH2 0x197D JUMP JUMPDEST SWAP1 POP PUSH1 0x0 PUSH2 0x903 DUP4 PUSH1 0xA PUSH2 0x1A83 JUMP JUMPDEST PUSH1 0x6 SLOAD PUSH2 0x910 SWAP1 DUP5 PUSH2 0x1966 JUMP JUMPDEST PUSH2 0x91A SWAP2 SWAP1 PUSH2 0x197D JUMP JUMPDEST PUSH1 0x12 SLOAD PUSH1 0x40 DUP1 MLOAD PUSH2 0x160 DUP2 ADD DUP3 MSTORE PUSH1 0x1 PUSH1 0x1 PUSH1 0xA0 SHL SUB DUP15 DUP2 AND DUP1 DUP4 MSTORE DUP15 DUP3 AND PUSH1 0x20 DUP5 ADD MSTORE PUSH2 0xFFFF DUP15 AND SWAP4 DUP4 ADD SWAP4 SWAP1 SWAP4 MSTORE PUSH3 0xD89B3 NOT PUSH1 0x60 DUP4 ADD MSTORE PUSH3 0xD89B4 PUSH1 0x80 DUP4 ADD MSTORE PUSH1 0x2 SLOAD SWAP5 SWAP6 POP SWAP3 DUP4 AND SWAP4 PUSH4 0x88316456 SWAP4 DUP8 SWAP4 PUSH1 0xA0 DUP5 ADD SWAP3 SWAP1 SWAP2 AND EQ PUSH2 0x982 JUMPI DUP7 PUSH2 0x984 JUMP JUMPDEST DUP6 JUMPDEST DUP2 MSTORE PUSH1 0x2 SLOAD PUSH1 0x20 SWAP1 SWAP2 ADD SWAP1 PUSH1 0x1 PUSH1 0x1 PUSH1 0xA0 SHL SUB DUP16 DUP2 AND SWAP2 AND EQ PUSH2 0x9A7 JUMPI DUP7 PUSH2 0x9A9 JUMP JUMPDEST DUP6 JUMPDEST DUP2 MSTORE PUSH1 0x0 PUSH1 0x20 DUP3 ADD DUP2 SWAP1 MSTORE PUSH1 0x40 DUP3 ADD MSTORE CALLER PUSH1 0x60 DUP3 ADD MSTORE PUSH1 0x80 ADD PUSH2 0x9CE TIMESTAMP PUSH2 0x12C PUSH2 0x1A92 JUMP JUMPDEST DUP2 MSTORE POP PUSH1 0x40 MLOAD DUP4 PUSH4 0xFFFFFFFF AND PUSH1 0xE0 SHL DUP2 MSTORE PUSH1 0x4 ADD PUSH2 0x9ED SWAP2 SWAP1 PUSH2 0x1AA5 JUMP JUMPDEST PUSH1 0x80 PUSH1 0x40 MLOAD DUP1 DUP4 SUB DUP2 DUP6 DUP9 GAS CALL ISZERO DUP1 ISZERO PUSH2 0xA0B JUMPI RETURNDATASIZE PUSH1 0x0 DUP1 RETURNDATACOPY RETURNDATASIZE PUSH1 0x0 REVERT JUMPDEST POP POP POP POP POP PUSH1 0x40 MLOAD RETURNDATASIZE PUSH1 0x1F NOT PUSH1 0x1F DUP3 ADD AND DUP3 ADD DUP1 PUSH1 0x40 MSTORE POP DUP2 ADD SWAP1 PUSH2 0xA30 SWAP2 SWAP1 PUSH2 0x1B69 JUMP JUMPDEST POP POP PUSH1 0xF DUP1 SLOAD PUSH1 0xFF NOT AND PUSH1 0x1 OR SWAP1 SSTORE POP POP POP POP POP POP POP POP POP POP POP POP JUMP JUMPDEST PUSH2 0xA55 PUSH2 0x15DF JUMP JUMPDEST PUSH1 0xC SLOAD TIMESTAMP LT ISZERO PUSH2 0xABB JUMPI PUSH1 0x40 MLOAD PUSH3 0x461BCD PUSH1 0xE5 SHL DUP2 MSTORE PUSH1 0x20 PUSH1 0x4 DUP3 ADD MSTORE PUSH1 0x2B PUSH1 0x24 DUP3 ADD MSTORE PUSH32 0x546872757374706164466169724C61756E63683A2073616C6520686173206E6F PUSH1 0x44 DUP3 ADD MSTORE PUSH11 0x1D08195B991959081E595D PUSH1 0xAA SHL PUSH1 0x64 DUP3 ADD MSTORE PUSH1 0x84 ADD PUSH2 0x505 JUMP JUMPDEST PUSH1 0x3 SLOAD PUSH1 0xD SLOAD LT ISZERO PUSH2 0xB21 JUMPI PUSH1 0x40 MLOAD PUSH3 0x461BCD PUSH1 0xE5 SHL DUP2 MSTORE PUSH1 0x20 PUSH1 0x4 DUP3 ADD MSTORE PUSH1 0x29 PUSH1 0x24 DUP3 ADD MSTORE PUSH32 0x546872757374706164466169724C61756E63683A20736F667420636170206E6F PUSH1 0x44 DUP3 ADD MSTORE PUSH9 0x1D081C995858DA1959 PUSH1 0xBA SHL PUSH1 0x64 DUP3 ADD MSTORE PUSH1 0x84 ADD PUSH2 0x505 JUMP JUMPDEST CALLER PUSH1 0x0 SWAP1 DUP2 MSTORE PUSH1 0x11 PUSH1 0x20 MSTORE PUSH1 0x40 SWAP1 KECCAK256 SLOAD ISZERO PUSH2 0xB92 JUMPI PUSH1 0x40 MLOAD PUSH3 0x461BCD PUSH1 0xE5 SHL DUP2 MSTORE PUSH1 0x20 PUSH1 0x4 DUP3 ADD MSTORE PUSH1 0x2B PUSH1 0x24 DUP3 ADD MSTORE PUSH32 0x546872757374706164466169724C61756E63683A20746F6B656E7320616C7265 PUSH1 0x44 DUP3 ADD MSTORE PUSH11 0x18591E4818DB185A5B5959 PUSH1 0xAA SHL PUSH1 0x64 DUP3 ADD MSTORE PUSH1 0x84 ADD PUSH2 0x505 JUMP JUMPDEST PUSH1 0x4 SLOAD PUSH1 0x5 SLOAD PUSH1 0x0 SWAP2 PUSH2 0xBA4 SWAP2 PUSH2 0x197D JUMP JUMPDEST CALLER PUSH1 0x0 SWAP1 DUP2 MSTORE PUSH1 0x10 PUSH1 0x20 MSTORE PUSH1 0x40 DUP2 KECCAK256 SLOAD SWAP2 SWAP3 POP SWAP1 PUSH2 0xBC3 SWAP1 DUP4 SWAP1 PUSH2 0x1966 JUMP JUMPDEST CALLER PUSH1 0x0 DUP2 DUP2 MSTORE PUSH1 0x11 PUSH1 0x20 MSTORE PUSH1 0x40 SWAP1 DUP2 SWAP1 KECCAK256 DUP4 SWAP1 SSTORE PUSH1 0x2 SLOAD SWAP1 MLOAD PUSH4 0xA9059CBB PUSH1 0xE0 SHL DUP2 MSTORE PUSH1 0x4 DUP2 ADD SWAP3 SWAP1 SWAP3 MSTORE PUSH1 0x24 DUP3 ADD DUP4 SWAP1 MSTORE SWAP2 SWAP3 POP PUSH1 0x1 PUSH1 0x1 PUSH1 0xA0 SHL SUB SWAP1 SWAP2 AND SWAP1 PUSH4 0xA9059CBB SWAP1 PUSH1 0x44 ADD PUSH1 0x20 PUSH1 0x40 MLOAD DUP1 DUP4 SUB DUP2 PUSH1 0x0 DUP8 GAS CALL ISZERO DUP1 ISZERO PUSH2 0xC2C JUMPI RETURNDATASIZE PUSH1 0x0 DUP1 RETURNDATACOPY RETURNDATASIZE PUSH1 0x0 REVERT JUMPDEST POP POP POP POP PUSH1 0x40 MLOAD RETURNDATASIZE PUSH1 0x1F NOT PUSH1 0x1F DUP3 ADD AND DUP3 ADD DUP1 PUSH1 0x40 MSTORE POP DUP2 ADD SWAP1 PUSH2 0xC50 SWAP2 SWAP1 PUSH2 0x190B JUMP JUMPDEST POP PUSH1 0x2 SLOAD PUSH1 0x40 MLOAD DUP3 DUP2 MSTORE PUSH1 0x1 PUSH1 0x1 PUSH1 0xA0 SHL SUB SWAP1 SWAP2 AND SWAP1 CALLER SWAP1 PUSH32 0x4831BDD9DCF3048A28319CE81D3CAB7A15366BCF449BC7803A539107440809CC SWAP1 PUSH1 0x20 ADD PUSH1 0x40 MLOAD DUP1 SWAP2 SUB SWAP1 LOG3 POP POP PUSH2 0xCA0 PUSH1 0x1 DUP1 SSTORE JUMP JUMPDEST JUMP JUMPDEST PUSH2 0xCAA PUSH2 0x1599 JUMP JUMPDEST PUSH2 0xCA0 PUSH1 0x0 PUSH2 0x1622 JUMP JUMPDEST PUSH2 0xCBC PUSH2 0x1599 JUMP JUMPDEST PUSH1 0xC SLOAD TIMESTAMP LT ISZERO PUSH2 0xD0E JUMPI PUSH1 0x40 MLOAD PUSH3 0x461BCD PUSH1 0xE5 SHL DUP2 MSTORE PUSH1 0x20 PUSH1 0x4 DUP3 ADD MSTORE PUSH1 0x16 PUSH1 0x24 DUP3 ADD MSTORE PUSH32 0x53616C6520686173206E6F7420656E6465642079657400000000000000000000 PUSH1 0x44 DUP3 ADD MSTORE PUSH1 0x64 ADD PUSH2 0x505 JUMP JUMPDEST PUSH1 0x40 MLOAD PUSH4 0xA9059CBB PUSH1 0xE0 SHL DUP2 MSTORE CALLER PUSH1 0x4 DUP3 ADD MSTORE PUSH1 0x24 DUP2 ADD DUP3 SWAP1 MSTORE PUSH1 0x1 PUSH1 0x1 PUSH1 0xA0 SHL SUB DUP4 AND SWAP1 PUSH4 0xA9059CBB SWAP1 PUSH1 0x44 ADD PUSH1 0x20 PUSH1 0x40 MLOAD DUP1 DUP4 SUB DUP2 PUSH1 0x0 DUP8 GAS CALL ISZERO DUP1 ISZERO PUSH2 0xD5B JUMPI RETURNDATASIZE PUSH1 0x0 DUP1 RETURNDATACOPY RETURNDATASIZE PUSH1 0x0 REVERT JUMPDEST POP POP POP POP PUSH1 0x40 MLOAD RETURNDATASIZE PUSH1 0x1F NOT PUSH1 0x1F DUP3 ADD AND DUP3 ADD DUP1 PUSH1 0x40 MSTORE POP DUP2 ADD SWAP1 PUSH2 0xD7F SWAP2 SWAP1 PUSH2 0x190B JUMP JUMPDEST POP POP POP JUMP JUMPDEST PUSH2 0xD8C PUSH2 0x1599 JUMP JUMPDEST PUSH1 0xC SLOAD TIMESTAMP LT ISZERO PUSH2 0xDF2 JUMPI PUSH1 0x40 MLOAD PUSH3 0x461BCD PUSH1 0xE5 SHL DUP2 MSTORE PUSH1 0x20 PUSH1 0x4 DUP3 ADD MSTORE PUSH1 0x2B PUSH1 0x24 DUP3 ADD MSTORE PUSH32 0x546872757374706164466169724C61756E63683A2073616C6520686173206E6F PUSH1 0x44 DUP3 ADD MSTORE PUSH11 0x1D08195B991959081E595D PUSH1 0xAA SHL PUSH1 0x64 DUP3 ADD MSTORE PUSH1 0x84 ADD PUSH2 0x505 JUMP JUMPDEST PUSH1 0x3 SLOAD PUSH1 0xD SLOAD LT ISZERO PUSH2 0xE58 JUMPI PUSH1 0x40 MLOAD PUSH3 0x461BCD PUSH1 0xE5 SHL DUP2 MSTORE PUSH1 0x20 PUSH1 0x4 DUP3 ADD MSTORE PUSH1 0x29 PUSH1 0x24 DUP3 ADD MSTORE PUSH32 0x546872757374706164466169724C61756E63683A20736F667420636170206E6F PUSH1 0x44 DUP3 ADD MSTORE PUSH9 0x1D081C995858DA1959 PUSH1 0xBA SHL PUSH1 0x64 DUP3 ADD MSTORE PUSH1 0x84 ADD PUSH2 0x505 JUMP JUMPDEST PUSH1 0xF SLOAD PUSH2 0x100 SWAP1 DIV PUSH1 0xFF AND ISZERO PUSH2 0xED6 JUMPI PUSH1 0x40 MLOAD PUSH3 0x461BCD PUSH1 0xE5 SHL DUP2 MSTORE PUSH1 0x20 PUSH1 0x4 DUP3 ADD MSTORE PUSH1 0x30 PUSH1 0x24 DUP3 ADD MSTORE PUSH32 0x546872757374706164466169724C61756E63683A207465616D20746F6B656E73 PUSH1 0x44 DUP3 ADD MSTORE PUSH32 0x20616C726561647920636C61696D656400000000000000000000000000000000 PUSH1 0x64 DUP3 ADD MSTORE PUSH1 0x84 ADD PUSH2 0x505 JUMP JUMPDEST PUSH1 0x0 PUSH1 0x64 PUSH1 0xD SLOAD PUSH1 0x2 PUSH1 0x8 ADD SLOAD PUSH2 0xEED SWAP2 SWAP1 PUSH2 0x1966 JUMP JUMPDEST PUSH2 0xEF7 SWAP2 SWAP1 PUSH2 0x197D JUMP JUMPDEST PUSH1 0xF DUP1 SLOAD PUSH2 0xFF00 NOT AND PUSH2 0x100 OR SWAP1 SSTORE SWAP1 POP PUSH2 0xF1A PUSH1 0x0 SLOAD PUSH1 0x1 PUSH1 0x1 PUSH1 0xA0 SHL SUB AND SWAP1 JUMP JUMPDEST PUSH1 0x1 PUSH1 0x1 PUSH1 0xA0 SHL SUB AND PUSH2 0x8FC DUP3 SWAP1 DUP2 ISZERO MUL SWAP1 PUSH1 0x40 MLOAD PUSH1 0x0 PUSH1 0x40 MLOAD DUP1 DUP4 SUB DUP2 DUP6 DUP9 DUP9 CALL SWAP4 POP POP POP POP ISZERO DUP1 ISZERO PUSH2 0xF52 JUMPI RETURNDATASIZE PUSH1 0x0 DUP1 RETURNDATACOPY RETURNDATASIZE PUSH1 0x0 REVERT JUMPDEST POP PUSH1 0x2 SLOAD PUSH1 0x1 PUSH1 0x1 PUSH1 0xA0 SHL SUB AND PUSH2 0xF71 PUSH1 0x0 SLOAD PUSH1 0x1 PUSH1 0x1 PUSH1 0xA0 SHL SUB AND SWAP1 JUMP JUMPDEST PUSH1 0x1 PUSH1 0x1 PUSH1 0xA0 SHL SUB AND PUSH32 0xA95E69983C44F17474CBA286953DEB119463B9F5CB8CFDE4FD709DF3660266F7 DUP4 PUSH1 0x40 MLOAD PUSH2 0xFAB SWAP2 DUP2 MSTORE PUSH1 0x20 ADD SWAP1 JUMP JUMPDEST PUSH1 0x40 MLOAD DUP1 SWAP2 SUB SWAP1 LOG3 POP JUMP JUMPDEST PUSH1 0x2 PUSH1 0x9 ADD SLOAD TIMESTAMP LT ISZERO PUSH2 0xFC8 TIMESTAMP PUSH2 0x168A JUMP JUMPDEST PUSH1 0x40 MLOAD PUSH1 0x20 ADD PUSH2 0xFD8 SWAP2 SWAP1 PUSH2 0x1BE0 JUMP JUMPDEST PUSH1 0x40 MLOAD PUSH1 0x20 DUP2 DUP4 SUB SUB DUP2 MSTORE SWAP1 PUSH1 0x40 MSTORE SWAP1 PUSH2 0x1005 JUMPI PUSH1 0x40 MLOAD PUSH3 0x461BCD PUSH1 0xE5 SHL DUP2 MSTORE PUSH1 0x4 ADD PUSH2 0x505 SWAP2 SWAP1 PUSH2 0x1C4B JUMP JUMPDEST POP PUSH1 0x2 PUSH1 0xA ADD SLOAD TIMESTAMP GT ISZERO PUSH2 0x1018 TIMESTAMP PUSH2 0x168A JUMP JUMPDEST PUSH1 0x40 MLOAD PUSH1 0x20 ADD PUSH2 0x1028 SWAP2 SWAP1 PUSH2 0x1C7E JUMP JUMPDEST PUSH1 0x40 MLOAD PUSH1 0x20 DUP2 DUP4 SUB SUB DUP2 MSTORE SWAP1 PUSH1 0x40 MSTORE SWAP1 PUSH2 0x1055 JUMPI PUSH1 0x40 MLOAD PUSH3 0x461BCD PUSH1 0xE5 SHL DUP2 MSTORE PUSH1 0x4 ADD PUSH2 0x505 SWAP2 SWAP1 PUSH2 0x1C4B JUMP JUMPDEST POP PUSH1 0x7 SLOAD CALLVALUE LT ISZERO PUSH2 0x10CE JUMPI PUSH1 0x40 MLOAD PUSH3 0x461BCD PUSH1 0xE5 SHL DUP2 MSTORE PUSH1 0x20 PUSH1 0x4 DUP3 ADD MSTORE PUSH1 0x34 PUSH1 0x24 DUP3 ADD MSTORE PUSH32 0x546872757374706164466169724C61756E63683A20616D6F756E74206973206C PUSH1 0x44 DUP3 ADD MSTORE PUSH32 0x657373207468616E206D696E696D756D20627579000000000000000000000000 PUSH1 0x64 DUP3 ADD MSTORE PUSH1 0x84 ADD PUSH2 0x505 JUMP JUMPDEST PUSH1 0x8 SLOAD CALLVALUE GT ISZERO PUSH2 0x1146 JUMPI PUSH1 0x40 MLOAD PUSH3 0x461BCD PUSH1 0xE5 SHL DUP2 MSTORE PUSH1 0x20 PUSH1 0x4 DUP3 ADD MSTORE PUSH1 0x34 PUSH1 0x24 DUP3 ADD MSTORE PUSH32 0x546872757374706164466169724C61756E63683A20616D6F756E74206973206D PUSH1 0x44 DUP3 ADD MSTORE PUSH32 0x6F7265207468616E206D6178696D756D20627579000000000000000000000000 PUSH1 0x64 DUP3 ADD MSTORE PUSH1 0x84 ADD PUSH2 0x505 JUMP JUMPDEST PUSH1 0x4 SLOAD PUSH1 0xD SLOAD PUSH2 0x1157 SWAP1 CALLVALUE SWAP1 PUSH2 0x1A92 JUMP JUMPDEST GT ISZERO PUSH2 0x11B3 JUMPI PUSH1 0x40 MLOAD PUSH3 0x461BCD PUSH1 0xE5 SHL DUP2 MSTORE PUSH1 0x20 PUSH1 0x4 DUP3 ADD MSTORE PUSH1 0x25 PUSH1 0x24 DUP3 ADD MSTORE PUSH32 0x546872757374706164466169724C61756E63683A206861726420636170207265 PUSH1 0x44 DUP3 ADD MSTORE PUSH5 0x1858DA1959 PUSH1 0xDA SHL PUSH1 0x64 DUP3 ADD MSTORE PUSH1 0x84 ADD PUSH2 0x505 JUMP JUMPDEST PUSH1 0x8 SLOAD CALLER PUSH1 0x0 SWAP1 DUP2 MSTORE PUSH1 0x10 PUSH1 0x20 MSTORE PUSH1 0x40 SWAP1 KECCAK256 SLOAD PUSH2 0x11D1 SWAP1 CALLVALUE SWAP1 PUSH2 0x1A92 JUMP JUMPDEST GT ISZERO PUSH2 0x1245 JUMPI PUSH1 0x40 MLOAD PUSH3 0x461BCD PUSH1 0xE5 SHL DUP2 MSTORE PUSH1 0x20 PUSH1 0x4 DUP3 ADD MSTORE PUSH1 0x33 PUSH1 0x24 DUP3 ADD MSTORE PUSH32 0x546872757374706164466169724C61756E63683A2077616C6C65742068617320 PUSH1 0x44 DUP3 ADD MSTORE PUSH32 0x72656163686564206D6178696D756D2062757900000000000000000000000000 PUSH1 0x64 DUP3 ADD MSTORE PUSH1 0x84 ADD PUSH2 0x505 JUMP JUMPDEST CALLVALUE PUSH1 0xD PUSH1 0x0 DUP3 DUP3 SLOAD PUSH2 0x1257 SWAP2 SWAP1 PUSH2 0x1A92 JUMP JUMPDEST SWAP3 POP POP DUP2 SWAP1 SSTORE POP PUSH1 0x1 PUSH1 0xE PUSH1 0x0 DUP3 DUP3 SLOAD PUSH2 0x1271 SWAP2 SWAP1 PUSH2 0x1A92 JUMP JUMPDEST SWAP1 SWAP2 SSTORE POP POP CALLER PUSH1 0x0 SWAP1 DUP2 MSTORE PUSH1 0x10 PUSH1 0x20 MSTORE PUSH1 0x40 DUP2 KECCAK256 DUP1 SLOAD CALLVALUE SWAP3 SWAP1 PUSH2 0x1295 SWAP1 DUP5 SWAP1 PUSH2 0x1A92 JUMP JUMPDEST SWAP1 SWAP2 SSTORE POP POP PUSH1 0x2 SLOAD PUSH1 0x40 MLOAD CALLVALUE DUP2 MSTORE PUSH1 0x1 PUSH1 0x1 PUSH1 0xA0 SHL SUB SWAP1 SWAP2 AND SWAP1 CALLER SWAP1 PUSH32 0x9B24BD0884170CBCE51F9F00DF6B3F9AED2231E4086241D1D04687B42AFDF7B9 SWAP1 PUSH1 0x20 ADD PUSH1 0x40 MLOAD DUP1 SWAP2 SUB SWAP1 LOG3 JUMP JUMPDEST PUSH2 0x12E8 PUSH2 0x15DF JUMP JUMPDEST PUSH1 0xC SLOAD TIMESTAMP LT ISZERO PUSH2 0x134E JUMPI PUSH1 0x40 MLOAD PUSH3 0x461BCD PUSH1 0xE5 SHL DUP2 MSTORE PUSH1 0x20 PUSH1 0x4 DUP3 ADD MSTORE PUSH1 0x2B PUSH1 0x24 DUP3 ADD MSTORE PUSH32 0x546872757374706164466169724C61756E63683A2073616C6520686173206E6F PUSH1 0x44 DUP3 ADD MSTORE PUSH11 0x1D08195B991959081E595D PUSH1 0xAA SHL PUSH1 0x64 DUP3 ADD MSTORE PUSH1 0x84 ADD PUSH2 0x505 JUMP JUMPDEST PUSH1 0x3 SLOAD PUSH1 0xD SLOAD LT PUSH2 0x13AF JUMPI PUSH1 0x40 MLOAD PUSH3 0x461BCD PUSH1 0xE5 SHL DUP2 MSTORE PUSH1 0x20 PUSH1 0x4 DUP3 ADD MSTORE PUSH1 0x25 PUSH1 0x24 DUP3 ADD MSTORE PUSH32 0x546872757374706164466169724C61756E63683A20736F667420636170207265 PUSH1 0x44 DUP3 ADD MSTORE PUSH5 0x1858DA1959 PUSH1 0xDA SHL PUSH1 0x64 DUP3 ADD MSTORE PUSH1 0x84 ADD PUSH2 0x505 JUMP JUMPDEST CALLER PUSH1 0x0 SWAP1 DUP2 MSTORE PUSH1 0x11 PUSH1 0x20 MSTORE PUSH1 0x40 SWAP1 KECCAK256 SLOAD ISZERO PUSH2 0x1420 JUMPI PUSH1 0x40 MLOAD PUSH3 0x461BCD PUSH1 0xE5 SHL DUP2 MSTORE PUSH1 0x20 PUSH1 0x4 DUP3 ADD MSTORE PUSH1 0x2B PUSH1 0x24 DUP3 ADD MSTORE PUSH32 0x546872757374706164466169724C61756E63683A20746F6B656E7320616C7265 PUSH1 0x44 DUP3 ADD MSTORE PUSH11 0x18591E4818DB185A5B5959 PUSH1 0xAA SHL PUSH1 0x64 DUP3 ADD MSTORE PUSH1 0x84 ADD PUSH2 0x505 JUMP JUMPDEST CALLER PUSH1 0x0 DUP2 DUP2 MSTORE PUSH1 0x10 PUSH1 0x20 SWAP1 DUP2 MSTORE PUSH1 0x40 DUP1 DUP4 KECCAK256 SLOAD PUSH1 0x11 SWAP1 SWAP3 MSTORE DUP1 DUP4 KECCAK256 DUP3 SWAP1 SSTORE MLOAD SWAP1 SWAP3 SWAP2 DUP4 ISZERO PUSH2 0x8FC MUL SWAP2 DUP5 SWAP2 DUP2 DUP2 DUP2 DUP6 DUP9 DUP9 CALL SWAP4 POP POP POP POP ISZERO DUP1 ISZERO PUSH2 0x1468 JUMPI RETURNDATASIZE PUSH1 0x0 DUP1 RETURNDATACOPY RETURNDATASIZE PUSH1 0x0 REVERT JUMPDEST POP PUSH1 0x2 SLOAD PUSH1 0x40 MLOAD DUP3 DUP2 MSTORE PUSH1 0x1 PUSH1 0x1 PUSH1 0xA0 SHL SUB SWAP1 SWAP2 AND SWAP1 CALLER SWAP1 PUSH32 0xF40CC8C1A1D17359049BA500CFC894596A692CFFC9D03943CD92EC2E159CF6AE SWAP1 PUSH1 0x20 ADD PUSH1 0x40 MLOAD DUP1 SWAP2 SUB SWAP1 LOG3 POP PUSH2 0xCA0 PUSH1 0x1 DUP1 SSTORE JUMP JUMPDEST PUSH2 0x14BF PUSH2 0x1599 JUMP JUMPDEST PUSH1 0xC SLOAD TIMESTAMP LT ISZERO PUSH2 0x1511 JUMPI PUSH1 0x40 MLOAD PUSH3 0x461BCD PUSH1 0xE5 SHL DUP2 MSTORE PUSH1 0x20 PUSH1 0x4 DUP3 ADD MSTORE PUSH1 0x16 PUSH1 0x24 DUP3 ADD MSTORE PUSH32 0x53616C6520686173206E6F7420656E6465642079657400000000000000000000 PUSH1 0x44 DUP3 ADD MSTORE PUSH1 0x64 ADD PUSH2 0x505 JUMP JUMPDEST PUSH1 0x40 MLOAD CALLER SWAP1 DUP3 ISZERO PUSH2 0x8FC MUL SWAP1 DUP4 SWAP1 PUSH1 0x0 DUP2 DUP2 DUP2 DUP6 DUP9 DUP9 CALL SWAP4 POP POP POP POP ISZERO DUP1 ISZERO PUSH2 0x153E JUMPI RETURNDATASIZE PUSH1 0x0 DUP1 RETURNDATACOPY RETURNDATASIZE PUSH1 0x0 REVERT JUMPDEST POP POP JUMP JUMPDEST PUSH2 0x154A PUSH2 0x1599 JUMP JUMPDEST PUSH1 0x1 PUSH1 0x1 PUSH1 0xA0 SHL SUB DUP2 AND PUSH2 0x158D JUMPI PUSH1 0x40 MLOAD PUSH32 0x1E4FBDF700000000000000000000000000000000000000000000000000000000 DUP2 MSTORE PUSH1 0x0 PUSH1 0x4 DUP3 ADD MSTORE PUSH1 0x24 ADD PUSH2 0x505 JUMP JUMPDEST PUSH2 0x1596 DUP2 PUSH2 0x1622 JUMP JUMPDEST POP JUMP JUMPDEST PUSH1 0x0 SLOAD PUSH1 0x1 PUSH1 0x1 PUSH1 0xA0 SHL SUB AND CALLER EQ PUSH2 0xCA0 JUMPI PUSH1 0x40 MLOAD PUSH32 0x118CDAA700000000000000000000000000000000000000000000000000000000 DUP2 MSTORE CALLER PUSH1 0x4 DUP3 ADD MSTORE PUSH1 0x24 ADD PUSH2 0x505 JUMP JUMPDEST PUSH1 0x2 PUSH1 0x1 SLOAD SUB PUSH2 0x161B JUMPI PUSH1 0x40 MLOAD PUSH32 0x3EE5AEB500000000000000000000000000000000000000000000000000000000 DUP2 MSTORE PUSH1 0x4 ADD PUSH1 0x40 MLOAD DUP1 SWAP2 SUB SWAP1 REVERT JUMPDEST PUSH1 0x2 PUSH1 0x1 SSTORE JUMP JUMPDEST PUSH1 0x0 DUP1 SLOAD PUSH1 0x1 PUSH1 0x1 PUSH1 0xA0 SHL SUB DUP4 DUP2 AND PUSH32 0xFFFFFFFFFFFFFFFFFFFFFFFF0000000000000000000000000000000000000000 DUP4 AND DUP2 OR DUP5 SSTORE PUSH1 0x40 MLOAD SWAP2 SWAP1 SWAP3 AND SWAP3 DUP4 SWAP2 PUSH32 0x8BE0079C531659141344CD1FD0A4F28419497F9722A3DAAFE3B4186F6B6457E0 SWAP2 SWAP1 LOG3 POP POP JUMP JUMPDEST PUSH1 0x60 PUSH1 0x0 PUSH2 0x1697 DUP4 PUSH2 0x172A JUMP JUMPDEST PUSH1 0x1 ADD SWAP1 POP PUSH1 0x0 DUP2 PUSH8 0xFFFFFFFFFFFFFFFF DUP2 GT ISZERO PUSH2 0x16B7 JUMPI PUSH2 0x16B7 PUSH2 0x1CE9 JUMP JUMPDEST PUSH1 0x40 MLOAD SWAP1 DUP1 DUP3 MSTORE DUP1 PUSH1 0x1F ADD PUSH1 0x1F NOT AND PUSH1 0x20 ADD DUP3 ADD PUSH1 0x40 MSTORE DUP1 ISZERO PUSH2 0x16E1 JUMPI PUSH1 0x20 DUP3 ADD DUP2 DUP1 CALLDATASIZE DUP4 CALLDATACOPY ADD SWAP1 POP JUMPDEST POP SWAP1 POP DUP2 DUP2 ADD PUSH1 0x20 ADD JUMPDEST PUSH1 0x0 NOT ADD PUSH32 0x3031323334353637383961626364656600000000000000000000000000000000 PUSH1 0xA DUP7 MOD BYTE DUP2 MSTORE8 PUSH1 0xA DUP6 DIV SWAP5 POP DUP5 PUSH2 0x16EB JUMPI POP SWAP4 SWAP3 POP POP POP JUMP JUMPDEST PUSH1 0x0 DUP1 PUSH27 0x184F03E93FF9F4DAA797ED6E38ED64BF6A1F010000000000000000 DUP4 LT PUSH2 0x1773 JUMPI PUSH27 0x184F03E93FF9F4DAA797ED6E38ED64BF6A1F010000000000000000 DUP4 DIV SWAP3 POP PUSH1 0x40 ADD JUMPDEST PUSH14 0x4EE2D6D415B85ACEF8100000000 DUP4 LT PUSH2 0x179F JUMPI PUSH14 0x4EE2D6D415B85ACEF8100000000 DUP4 DIV SWAP3 POP PUSH1 0x20 ADD JUMPDEST PUSH7 0x2386F26FC10000 DUP4 LT PUSH2 0x17BD JUMPI PUSH7 0x2386F26FC10000 DUP4 DIV SWAP3 POP PUSH1 0x10 ADD JUMPDEST PUSH4 0x5F5E100 DUP4 LT PUSH2 0x17D5 JUMPI PUSH4 0x5F5E100 DUP4 DIV SWAP3 POP PUSH1 0x8 ADD JUMPDEST PUSH2 0x2710 DUP4 LT PUSH2 0x17E9 JUMPI PUSH2 0x2710 DUP4 DIV SWAP3 POP PUSH1 0x4 ADD JUMPDEST PUSH1 0x64 DUP4 LT PUSH2 0x17FB JUMPI PUSH1 0x64 DUP4 DIV SWAP3 POP PUSH1 0x2 ADD JUMPDEST PUSH1 0xA DUP4 LT PUSH2 0x1807 JUMPI PUSH1 0x1 ADD JUMPDEST SWAP3 SWAP2 POP POP JUMP JUMPDEST PUSH1 0x1 PUSH1 0x1 PUSH1 0xA0 SHL SUB DUP2 AND DUP2 EQ PUSH2 0x1596 JUMPI PUSH1 0x0 DUP1 REVERT JUMPDEST PUSH1 0x0 DUP1 PUSH1 0x0 DUP1 PUSH1 0x80 DUP6 DUP8 SUB SLT ISZERO PUSH2 0x1838 JUMPI PUSH1 0x0 DUP1 REVERT JUMPDEST DUP5 CALLDATALOAD PUSH2 0x1843 DUP2 PUSH2 0x180D JUMP JUMPDEST SWAP4 POP PUSH1 0x20 DUP6 ADD CALLDATALOAD PUSH2 0x1853 DUP2 PUSH2 0x180D JUMP JUMPDEST SWAP3 POP PUSH1 0x40 DUP6 ADD CALLDATALOAD PUSH2 0xFFFF DUP2 AND DUP2 EQ PUSH2 0x186A JUMPI PUSH1 0x0 DUP1 REVERT JUMPDEST SWAP2 POP PUSH1 0x60 DUP6 ADD CALLDATALOAD PUSH2 0x187A DUP2 PUSH2 0x180D JUMP JUMPDEST SWAP4 SWAP7 SWAP3 SWAP6 POP SWAP1 SWAP4 POP POP JUMP JUMPDEST PUSH1 0x0 DUP1 PUSH1 0x40 DUP4 DUP6 SUB SLT ISZERO PUSH2 0x1898 JUMPI PUSH1 0x0 DUP1 REVERT JUMPDEST DUP3 CALLDATALOAD PUSH2 0x18A3 DUP2 PUSH2 0x180D JUMP JUMPDEST SWAP5 PUSH1 0x20 SWAP4 SWAP1 SWAP4 ADD CALLDATALOAD SWAP4 POP POP POP JUMP JUMPDEST PUSH1 0x0 PUSH1 0x20 DUP3 DUP5 SUB SLT ISZERO PUSH2 0x18C3 JUMPI PUSH1 0x0 DUP1 REVERT JUMPDEST DUP2 CALLDATALOAD PUSH2 0x18CE DUP2 PUSH2 0x180D JUMP JUMPDEST SWAP4 SWAP3 POP POP POP JUMP JUMPDEST PUSH1 0x0 PUSH1 0x20 DUP3 DUP5 SUB SLT ISZERO PUSH2 0x18E7 JUMPI PUSH1 0x0 DUP1 REVERT JUMPDEST POP CALLDATALOAD SWAP2 SWAP1 POP JUMP JUMPDEST PUSH1 0x0 PUSH1 0x20 DUP3 DUP5 SUB SLT ISZERO PUSH2 0x1900 JUMPI PUSH1 0x0 DUP1 REVERT JUMPDEST DUP2 MLOAD PUSH2 0x18CE DUP2 PUSH2 0x180D JUMP JUMPDEST PUSH1 0x0 PUSH1 0x20 DUP3 DUP5 SUB SLT ISZERO PUSH2 0x191D JUMPI PUSH1 0x0 DUP1 REVERT JUMPDEST DUP2 MLOAD DUP1 ISZERO ISZERO DUP2 EQ PUSH2 0x18CE JUMPI PUSH1 0x0 DUP1 REVERT JUMPDEST PUSH1 0x0 PUSH1 0x20 DUP3 DUP5 SUB SLT ISZERO PUSH2 0x193F JUMPI PUSH1 0x0 DUP1 REVERT JUMPDEST DUP2 MLOAD PUSH1 0xFF DUP2 AND DUP2 EQ PUSH2 0x18CE JUMPI PUSH1 0x0 DUP1 REVERT JUMPDEST PUSH4 0x4E487B71 PUSH1 0xE0 SHL PUSH1 0x0 MSTORE PUSH1 0x11 PUSH1 0x4 MSTORE PUSH1 0x24 PUSH1 0x0 REVERT JUMPDEST DUP1 DUP3 MUL DUP2 ISZERO DUP3 DUP3 DIV DUP5 EQ OR PUSH2 0x1807 JUMPI PUSH2 0x1807 PUSH2 0x1950 JUMP JUMPDEST PUSH1 0x0 DUP3 PUSH2 0x199A JUMPI PUSH4 0x4E487B71 PUSH1 0xE0 SHL PUSH1 0x0 MSTORE PUSH1 0x12 PUSH1 0x4 MSTORE PUSH1 0x24 PUSH1 0x0 REVERT JUMPDEST POP DIV SWAP1 JUMP JUMPDEST PUSH1 0x1 DUP2 DUP2 JUMPDEST DUP1 DUP6 GT ISZERO PUSH2 0x19DA JUMPI DUP2 PUSH1 0x0 NOT DIV DUP3 GT ISZERO PUSH2 0x19C0 JUMPI PUSH2 0x19C0 PUSH2 0x1950 JUMP JUMPDEST DUP1 DUP6 AND ISZERO PUSH2 0x19CD JUMPI SWAP2 DUP2 MUL SWAP2 JUMPDEST SWAP4 DUP5 SHR SWAP4 SWAP1 DUP1 MUL SWAP1 PUSH2 0x19A4 JUMP JUMPDEST POP SWAP3 POP SWAP3 SWAP1 POP JUMP JUMPDEST PUSH1 0x0 DUP3 PUSH2 0x19F1 JUMPI POP PUSH1 0x1 PUSH2 0x1807 JUMP JUMPDEST DUP2 PUSH2 0x19FE JUMPI POP PUSH1 0x0 PUSH2 0x1807 JUMP JUMPDEST DUP2 PUSH1 0x1 DUP2 EQ PUSH2 0x1A14 JUMPI PUSH1 0x2 DUP2 EQ PUSH2 0x1A1E JUMPI PUSH2 0x1A3A JUMP JUMPDEST PUSH1 0x1 SWAP2 POP POP PUSH2 0x1807 JUMP JUMPDEST PUSH1 0xFF DUP5 GT ISZERO PUSH2 0x1A2F JUMPI PUSH2 0x1A2F PUSH2 0x1950 JUMP JUMPDEST POP POP PUSH1 0x1 DUP3 SHL PUSH2 0x1807 JUMP JUMPDEST POP PUSH1 0x20 DUP4 LT PUSH2 0x133 DUP4 LT AND PUSH1 0x4E DUP5 LT PUSH1 0xB DUP5 LT AND OR ISZERO PUSH2 0x1A5D JUMPI POP DUP2 DUP2 EXP PUSH2 0x1807 JUMP JUMPDEST PUSH2 0x1A67 DUP4 DUP4 PUSH2 0x199F JUMP JUMPDEST DUP1 PUSH1 0x0 NOT DIV DUP3 GT ISZERO PUSH2 0x1A7B JUMPI PUSH2 0x1A7B PUSH2 0x1950 JUMP JUMPDEST MUL SWAP4 SWAP3 POP POP POP JUMP JUMPDEST PUSH1 0x0 PUSH2 0x18CE PUSH1 0xFF DUP5 AND DUP4 PUSH2 0x19E2 JUMP JUMPDEST DUP1 DUP3 ADD DUP1 DUP3 GT ISZERO PUSH2 0x1807 JUMPI PUSH2 0x1807 PUSH2 0x1950 JUMP JUMPDEST DUP2 MLOAD PUSH1 0x1 PUSH1 0x1 PUSH1 0xA0 SHL SUB AND DUP2 MSTORE PUSH2 0x160 DUP2 ADD PUSH1 0x20 DUP4 ADD MLOAD PUSH2 0x1AD1 PUSH1 0x20 DUP5 ADD DUP3 PUSH1 0x1 PUSH1 0x1 PUSH1 0xA0 SHL SUB AND SWAP1 MSTORE JUMP JUMPDEST POP PUSH1 0x40 DUP4 ADD MLOAD PUSH2 0x1AE8 PUSH1 0x40 DUP5 ADD DUP3 PUSH3 0xFFFFFF AND SWAP1 MSTORE JUMP JUMPDEST POP PUSH1 0x60 DUP4 ADD MLOAD PUSH2 0x1AFD PUSH1 0x60 DUP5 ADD DUP3 PUSH1 0x2 SIGNEXTEND SWAP1 MSTORE JUMP JUMPDEST POP PUSH1 0x80 DUP4 ADD MLOAD PUSH2 0x1B12 PUSH1 0x80 DUP5 ADD DUP3 PUSH1 0x2 SIGNEXTEND SWAP1 MSTORE JUMP JUMPDEST POP PUSH1 0xA0 DUP4 ADD MLOAD PUSH1 0xA0 DUP4 ADD MSTORE PUSH1 0xC0 DUP4 ADD MLOAD PUSH1 0xC0 DUP4 ADD MSTORE PUSH1 0xE0 DUP4 ADD MLOAD PUSH1 0xE0 DUP4 ADD MSTORE PUSH2 0x100 DUP1 DUP5 ADD MLOAD DUP2 DUP5 ADD MSTORE POP PUSH2 0x120 DUP1 DUP5 ADD MLOAD PUSH2 0x1B58 DUP3 DUP6 ADD DUP3 PUSH1 0x1 PUSH1 0x1 PUSH1 0xA0 SHL SUB AND SWAP1 MSTORE JUMP JUMPDEST POP POP PUSH2 0x140 SWAP3 DUP4 ADD MLOAD SWAP2 SWAP1 SWAP3 ADD MSTORE SWAP1 JUMP JUMPDEST PUSH1 0x0 DUP1 PUSH1 0x0 DUP1 PUSH1 0x80 DUP6 DUP8 SUB SLT ISZERO PUSH2 0x1B7F JUMPI PUSH1 0x0 DUP1 REVERT JUMPDEST DUP5 MLOAD SWAP4 POP PUSH1 0x20 DUP6 ADD MLOAD PUSH16 0xFFFFFFFFFFFFFFFFFFFFFFFFFFFFFFFF DUP2 AND DUP2 EQ PUSH2 0x1BA6 JUMPI PUSH1 0x0 DUP1 REVERT JUMPDEST PUSH1 0x40 DUP7 ADD MLOAD PUSH1 0x60 SWAP1 SWAP7 ADD MLOAD SWAP5 SWAP8 SWAP1 SWAP7 POP SWAP3 POP POP POP JUMP JUMPDEST PUSH1 0x0 JUMPDEST DUP4 DUP2 LT ISZERO PUSH2 0x1BD7 JUMPI DUP2 DUP2 ADD MLOAD DUP4 DUP3 ADD MSTORE PUSH1 0x20 ADD PUSH2 0x1BBF JUMP JUMPDEST POP POP PUSH1 0x0 SWAP2 ADD MSTORE JUMP JUMPDEST PUSH32 0x546872757374706164466169724C61756E63683A2073616C6520686173206E6F DUP2 MSTORE PUSH32 0x742073746172746564207965743A200000000000000000000000000000000000 PUSH1 0x20 DUP3 ADD MSTORE PUSH1 0x0 DUP3 MLOAD PUSH2 0x1C3E DUP2 PUSH1 0x2F DUP6 ADD PUSH1 0x20 DUP8 ADD PUSH2 0x1BBC JUMP JUMPDEST SWAP2 SWAP1 SWAP2 ADD PUSH1 0x2F ADD SWAP3 SWAP2 POP POP JUMP JUMPDEST PUSH1 0x20 DUP2 MSTORE PUSH1 0x0 DUP3 MLOAD DUP1 PUSH1 0x20 DUP5 ADD MSTORE PUSH2 0x1C6A DUP2 PUSH1 0x40 DUP6 ADD PUSH1 0x20 DUP8 ADD PUSH2 0x1BBC JUMP JUMPDEST PUSH1 0x1F ADD PUSH1 0x1F NOT AND SWAP2 SWAP1 SWAP2 ADD PUSH1 0x40 ADD SWAP3 SWAP2 POP POP JUMP JUMPDEST PUSH32 0x546872757374706164466169724C61756E63683A2073616C652068617320656E DUP2 MSTORE PUSH32 0x6465643A20000000000000000000000000000000000000000000000000000000 PUSH1 0x20 DUP3 ADD MSTORE PUSH1 0x0 DUP3 MLOAD PUSH2 0x1CDC DUP2 PUSH1 0x25 DUP6 ADD PUSH1 0x20 DUP8 ADD PUSH2 0x1BBC JUMP JUMPDEST SWAP2 SWAP1 SWAP2 ADD PUSH1 0x25 ADD SWAP3 SWAP2 POP POP JUMP JUMPDEST PUSH4 0x4E487B71 PUSH1 0xE0 SHL PUSH1 0x0 MSTORE PUSH1 0x41 PUSH1 0x4 MSTORE PUSH1 0x24 PUSH1 0x0 REVERT INVALID LOG2 PUSH5 0x6970667358 0x22 SLT KECCAK256 DUP14 0xA5 RETURNDATACOPY SWAP2 0x22 SWAP8 0x25 MSIZE BALANCE PUSH7 0x1D1D77EBBCD034 PUSH4 0x985E6BFA DELEGATECALL MUL 0x4D PUSH25 0xA717E1001E3164736F6C634300081800330000000000000000 "},"methodIdentifiers":{"LPTokenAddress()":"c3828bf0","NFTManager()":"62eba8b0","V3Factory()":"97d56997","WEDU()":"7d7cf6c5","buyToken()":"a4821719","claimRefund()":"b5545a3c","claimTokens()":"48c54b9d","claimed(address)":"c884ef83","config()":"79502c55","deployLiquidity(address,address,uint16,uint160)":"162d2167","emergencyTransferEDU(uint256)":"d812195c","emergencyTransferTokens(address,uint256)":"948da010","liquidityDeployed()":"9c5913cc","owner()":"8da5cb5b","purchaseHistory(address)":"e45f2b8a","renounceOwnership()":"715018a6","teamClaimed()":"2f334652","totalContributors()":"f251fc8c","totalSold()":"9106d7ba","transferOwnership(address)":"f2fde38b","withdrawTeamTokens()":"953b7ef8"}}}}}