{
  "_format": "hh-sol-artifact-1",
  "contractName": "LiquidityLockerV3",
  "sourceName": "contracts/v3-liquidty-locker/LiquidityLockerV3.sol",
  "abi": [
    {
      "inputs": [
        {
          "internalType": "contract ICountryList",
          "name": "_countryList",
          "type": "address"
        },
        {
          "internalType": "address payable",
          "name": "_autoCollectAddress",
          "type": "address"
        },
        {
          "internalType": "address payable",
          "name": "_lpFeeReceiver",
          "type": "address"
        },
        {
          "internalType": "address payable",
          "name": "_collectFeeReceiver",
          "type": "address"
        }
      ],
      "stateMutability": "nonpayable",
      "type": "constructor"
    },
    {
      "inputs": [
        {
          "internalType": "address",
          "name": "owner",
          "type": "address"
        }
      ],
      "name": "OwnableInvalidOwner",
      "type": "error"
    },
    {
      "inputs": [
        {
          "internalType": "address",
          "name": "account",
          "type": "address"
        }
      ],
      "name": "OwnableUnauthorizedAccount",
      "type": "error"
    },
    {
      "inputs": [],
      "name": "ReentrancyGuardReentrantCall",
      "type": "error"
    },
    {
      "anonymous": false,
      "inputs": [
        {
          "indexed": false,
          "internalType": "address",
          "name": "nftPositionManager",
          "type": "address"
        }
      ],
      "name": "OnAllowNftPositionManager",
      "type": "event"
    },
    {
      "anonymous": false,
      "inputs": [
        {
          "indexed": true,
          "internalType": "address",
          "name": "previousOwner",
          "type": "address"
        },
        {
          "indexed": true,
          "internalType": "address",
          "name": "newOwner",
          "type": "address"
        }
      ],
      "name": "OwnershipTransferred",
      "type": "event"
    },
    {
      "anonymous": false,
      "inputs": [
        {
          "indexed": false,
          "internalType": "bytes32",
          "name": "nameHash",
          "type": "bytes32"
        },
        {
          "indexed": false,
          "internalType": "string",
          "name": "name",
          "type": "string"
        },
        {
          "indexed": false,
          "internalType": "uint256",
          "name": "lpFee",
          "type": "uint256"
        },
        {
          "indexed": false,
          "internalType": "uint256",
          "name": "collectFee",
          "type": "uint256"
        },
        {
          "indexed": false,
          "internalType": "uint256",
          "name": "flatFee",
          "type": "uint256"
        },
        {
          "indexed": false,
          "internalType": "address",
          "name": "flatFeeToken",
          "type": "address"
        }
      ],
      "name": "onAddFee",
      "type": "event"
    },
    {
      "anonymous": false,
      "inputs": [
        {
          "indexed": false,
          "internalType": "uint256",
          "name": "lockId",
          "type": "uint256"
        }
      ],
      "name": "onDecreaseLiquidity",
      "type": "event"
    },
    {
      "anonymous": false,
      "inputs": [
        {
          "indexed": false,
          "internalType": "bytes32",
          "name": "nameHash",
          "type": "bytes32"
        },
        {
          "indexed": false,
          "internalType": "string",
          "name": "name",
          "type": "string"
        },
        {
          "indexed": false,
          "internalType": "uint256",
          "name": "lpFee",
          "type": "uint256"
        },
        {
          "indexed": false,
          "internalType": "uint256",
          "name": "collectFee",
          "type": "uint256"
        },
        {
          "indexed": false,
          "internalType": "uint256",
          "name": "flatFee",
          "type": "uint256"
        },
        {
          "indexed": false,
          "internalType": "address",
          "name": "flatFeeToken",
          "type": "address"
        }
      ],
      "name": "onEditFee",
      "type": "event"
    },
    {
      "anonymous": false,
      "inputs": [
        {
          "indexed": false,
          "internalType": "uint256",
          "name": "lockId",
          "type": "uint256"
        }
      ],
      "name": "onIncreaseLiquidity",
      "type": "event"
    },
    {
      "anonymous": false,
      "inputs": [
        {
          "indexed": false,
          "internalType": "uint256",
          "name": "lock_id",
          "type": "uint256"
        },
        {
          "indexed": false,
          "internalType": "address",
          "name": "nftPositionManager",
          "type": "address"
        },
        {
          "indexed": false,
          "internalType": "uint256",
          "name": "nft_id",
          "type": "uint256"
        },
        {
          "indexed": false,
          "internalType": "address",
          "name": "owner",
          "type": "address"
        },
        {
          "indexed": false,
          "internalType": "address",
          "name": "additionalCollector",
          "type": "address"
        },
        {
          "indexed": false,
          "internalType": "address",
          "name": "collectAddress",
          "type": "address"
        },
        {
          "indexed": false,
          "internalType": "uint256",
          "name": "unlockDate",
          "type": "uint256"
        },
        {
          "indexed": false,
          "internalType": "uint16",
          "name": "countryCode",
          "type": "uint16"
        },
        {
          "indexed": false,
          "internalType": "uint256",
          "name": "collectFee",
          "type": "uint256"
        },
        {
          "indexed": false,
          "internalType": "address",
          "name": "poolAddress",
          "type": "address"
        },
        {
          "components": [
            {
              "internalType": "uint96",
              "name": "nonce",
              "type": "uint96"
            },
            {
              "internalType": "address",
              "name": "operator",
              "type": "address"
            },
            {
              "internalType": "address",
              "name": "token0",
              "type": "address"
            },
            {
              "internalType": "address",
              "name": "token1",
              "type": "address"
            },
            {
              "internalType": "uint24",
              "name": "fee",
              "type": "uint24"
            },
            {
              "internalType": "int24",
              "name": "tickLower",
              "type": "int24"
            },
            {
              "internalType": "int24",
              "name": "tickUpper",
              "type": "int24"
            },
            {
              "internalType": "uint128",
              "name": "liquidity",
              "type": "uint128"
            },
            {
              "internalType": "uint256",
              "name": "feeGrowthInside0LastX128",
              "type": "uint256"
            },
            {
              "internalType": "uint256",
              "name": "feeGrowthInside1LastX128",
              "type": "uint256"
            },
            {
              "internalType": "uint128",
              "name": "tokensOwed0",
              "type": "uint128"
            },
            {
              "internalType": "uint128",
              "name": "tokensOwed1",
              "type": "uint128"
            }
          ],
          "indexed": false,
          "internalType": "struct INonfungiblePositionManager.Position",
          "name": "position",
          "type": "tuple"
        }
      ],
      "name": "onLock",
      "type": "event"
    },
    {
      "anonymous": false,
      "inputs": [
        {
          "indexed": false,
          "internalType": "uint256",
          "name": "lockId",
          "type": "uint256"
        },
        {
          "indexed": false,
          "internalType": "address",
          "name": "currentOwner",
          "type": "address"
        },
        {
          "indexed": false,
          "internalType": "address",
          "name": "pendingOwner",
          "type": "address"
        }
      ],
      "name": "onLockOwnershipTransferStarted",
      "type": "event"
    },
    {
      "anonymous": false,
      "inputs": [
        {
          "indexed": false,
          "internalType": "uint256",
          "name": "lockId",
          "type": "uint256"
        }
      ],
      "name": "onMigrate",
      "type": "event"
    },
    {
      "anonymous": false,
      "inputs": [
        {
          "indexed": false,
          "internalType": "uint256",
          "name": "lockId",
          "type": "uint256"
        },
        {
          "indexed": false,
          "internalType": "uint256",
          "name": "unlockDate",
          "type": "uint256"
        }
      ],
      "name": "onRelock",
      "type": "event"
    },
    {
      "anonymous": false,
      "inputs": [
        {
          "indexed": false,
          "internalType": "bytes32",
          "name": "nameHash",
          "type": "bytes32"
        }
      ],
      "name": "onRemoveFee",
      "type": "event"
    },
    {
      "anonymous": false,
      "inputs": [
        {
          "indexed": false,
          "internalType": "uint256",
          "name": "lockId",
          "type": "uint256"
        },
        {
          "indexed": false,
          "internalType": "address",
          "name": "additionalCollector",
          "type": "address"
        }
      ],
      "name": "onSetAdditionalCollector",
      "type": "event"
    },
    {
      "anonymous": false,
      "inputs": [
        {
          "indexed": false,
          "internalType": "uint256",
          "name": "lockId",
          "type": "uint256"
        },
        {
          "indexed": false,
          "internalType": "address",
          "name": "collectAddress",
          "type": "address"
        }
      ],
      "name": "onSetCollectAddress",
      "type": "event"
    },
    {
      "anonymous": false,
      "inputs": [
        {
          "indexed": false,
          "internalType": "address",
          "name": "migrator",
          "type": "address"
        }
      ],
      "name": "onSetMigrator",
      "type": "event"
    },
    {
      "anonymous": false,
      "inputs": [
        {
          "indexed": false,
          "internalType": "uint256",
          "name": "lockId",
          "type": "uint256"
        },
        {
          "indexed": false,
          "internalType": "uint256",
          "name": "ucf",
          "type": "uint256"
        }
      ],
      "name": "onSetUCF",
      "type": "event"
    },
    {
      "anonymous": false,
      "inputs": [
        {
          "indexed": false,
          "internalType": "uint256",
          "name": "lockId",
          "type": "uint256"
        },
        {
          "indexed": false,
          "internalType": "address",
          "name": "oldOwner",
          "type": "address"
        },
        {
          "indexed": false,
          "internalType": "address",
          "name": "newOwner",
          "type": "address"
        },
        {
          "indexed": false,
          "internalType": "address",
          "name": "newCollectAddress",
          "type": "address"
        }
      ],
      "name": "onTransferLockOwnership",
      "type": "event"
    },
    {
      "anonymous": false,
      "inputs": [
        {
          "indexed": false,
          "internalType": "uint256",
          "name": "lock_id",
          "type": "uint256"
        },
        {
          "indexed": false,
          "internalType": "address",
          "name": "owner",
          "type": "address"
        },
        {
          "indexed": false,
          "internalType": "address",
          "name": "receiver",
          "type": "address"
        }
      ],
      "name": "onWithdraw",
      "type": "event"
    },
    {
      "inputs": [],
      "name": "AUTO_COLLECT_ACCOUNT",
      "outputs": [
        {
          "internalType": "address",
          "name": "",
          "type": "address"
        }
      ],
      "stateMutability": "view",
      "type": "function"
    },
    {
      "inputs": [],
      "name": "COUNTRY_LIST",
      "outputs": [
        {
          "internalType": "contract ICountryList",
          "name": "",
          "type": "address"
        }
      ],
      "stateMutability": "view",
      "type": "function"
    },
    {
      "inputs": [],
      "name": "ETERNAL_LOCK",
      "outputs": [
        {
          "internalType": "uint256",
          "name": "",
          "type": "uint256"
        }
      ],
      "stateMutability": "view",
      "type": "function"
    },
    {
      "inputs": [],
      "name": "FEE_ADDR_COLLECT",
      "outputs": [
        {
          "internalType": "address payable",
          "name": "",
          "type": "address"
        }
      ],
      "stateMutability": "view",
      "type": "function"
    },
    {
      "inputs": [],
      "name": "FEE_ADDR_LP",
      "outputs": [
        {
          "internalType": "address payable",
          "name": "",
          "type": "address"
        }
      ],
      "stateMutability": "view",
      "type": "function"
    },
    {
      "inputs": [],
      "name": "FEE_DENOMINATOR",
      "outputs": [
        {
          "internalType": "uint256",
          "name": "",
          "type": "uint256"
        }
      ],
      "stateMutability": "view",
      "type": "function"
    },
    {
      "inputs": [],
      "name": "FEE_RESOLVER",
      "outputs": [
        {
          "internalType": "contract IFeeResolver",
          "name": "",
          "type": "address"
        }
      ],
      "stateMutability": "view",
      "type": "function"
    },
    {
      "inputs": [
        {
          "internalType": "uint256",
          "name": "lockId",
          "type": "uint256"
        }
      ],
      "name": "LOCKS",
      "outputs": [
        {
          "internalType": "uint256",
          "name": "lock_id",
          "type": "uint256"
        },
        {
          "internalType": "contract INonfungiblePositionManager",
          "name": "nftPositionManager",
          "type": "address"
        },
        {
          "internalType": "address",
          "name": "pool",
          "type": "address"
        },
        {
          "internalType": "uint256",
          "name": "nft_id",
          "type": "uint256"
        },
        {
          "internalType": "address",
          "name": "owner",
          "type": "address"
        },
        {
          "internalType": "address",
          "name": "pendingOwner",
          "type": "address"
        },
        {
          "internalType": "address",
          "name": "additionalCollector",
          "type": "address"
        },
        {
          "internalType": "address",
          "name": "collectAddress",
          "type": "address"
        },
        {
          "internalType": "uint256",
          "name": "unlockDate",
          "type": "uint256"
        },
        {
          "internalType": "uint16",
          "name": "countryCode",
          "type": "uint16"
        },
        {
          "internalType": "uint256",
          "name": "ucf",
          "type": "uint256"
        }
      ],
      "stateMutability": "view",
      "type": "function"
    },
    {
      "inputs": [],
      "name": "MIGRATE_IN",
      "outputs": [
        {
          "internalType": "address",
          "name": "",
          "type": "address"
        }
      ],
      "stateMutability": "view",
      "type": "function"
    },
    {
      "inputs": [],
      "name": "MIGRATOR",
      "outputs": [
        {
          "internalType": "contract IMigrateV3NFT",
          "name": "",
          "type": "address"
        }
      ],
      "stateMutability": "view",
      "type": "function"
    },
    {
      "inputs": [],
      "name": "NONCE",
      "outputs": [
        {
          "internalType": "uint256",
          "name": "",
          "type": "uint256"
        }
      ],
      "stateMutability": "view",
      "type": "function"
    },
    {
      "inputs": [
        {
          "internalType": "uint256",
          "name": "_lockId",
          "type": "uint256"
        },
        {
          "internalType": "address",
          "name": "_collectAddress",
          "type": "address"
        }
      ],
      "name": "acceptLockOwnership",
      "outputs": [],
      "stateMutability": "nonpayable",
      "type": "function"
    },
    {
      "inputs": [
        {
          "internalType": "string",
          "name": "_name",
          "type": "string"
        },
        {
          "internalType": "uint256",
          "name": "_lpFee",
          "type": "uint256"
        },
        {
          "internalType": "uint256",
          "name": "_collectFee",
          "type": "uint256"
        },
        {
          "internalType": "uint256",
          "name": "_flatFee",
          "type": "uint256"
        },
        {
          "internalType": "address",
          "name": "_flatFeeToken",
          "type": "address"
        }
      ],
      "name": "addOrEditFee",
      "outputs": [],
      "stateMutability": "nonpayable",
      "type": "function"
    },
    {
      "inputs": [
        {
          "internalType": "address",
          "name": "_token",
          "type": "address"
        },
        {
          "internalType": "address",
          "name": "_receiver",
          "type": "address"
        },
        {
          "internalType": "uint256",
          "name": "_amount",
          "type": "uint256"
        }
      ],
      "name": "adminRefundERC20",
      "outputs": [],
      "stateMutability": "nonpayable",
      "type": "function"
    },
    {
      "inputs": [
        {
          "internalType": "uint256",
          "name": "_amount",
          "type": "uint256"
        },
        {
          "internalType": "address payable",
          "name": "_receiver",
          "type": "address"
        }
      ],
      "name": "adminRefundEth",
      "outputs": [],
      "stateMutability": "nonpayable",
      "type": "function"
    },
    {
      "inputs": [
        {
          "internalType": "address",
          "name": "_nftPositionManager",
          "type": "address"
        }
      ],
      "name": "allowNftPositionManager",
      "outputs": [],
      "stateMutability": "nonpayable",
      "type": "function"
    },
    {
      "inputs": [
        {
          "internalType": "uint256",
          "name": "_lockId",
          "type": "uint256"
        },
        {
          "internalType": "address",
          "name": "_recipient",
          "type": "address"
        },
        {
          "internalType": "uint128",
          "name": "_amount0Max",
          "type": "uint128"
        },
        {
          "internalType": "uint128",
          "name": "_amount1Max",
          "type": "uint128"
        }
      ],
      "name": "collect",
      "outputs": [
        {
          "internalType": "uint256",
          "name": "amount0",
          "type": "uint256"
        },
        {
          "internalType": "uint256",
          "name": "amount1",
          "type": "uint256"
        },
        {
          "internalType": "uint256",
          "name": "fee0",
          "type": "uint256"
        },
        {
          "internalType": "uint256",
          "name": "fee1",
          "type": "uint256"
        }
      ],
      "stateMutability": "nonpayable",
      "type": "function"
    },
    {
      "inputs": [
        {
          "internalType": "uint256",
          "name": "_lockId",
          "type": "uint256"
        },
        {
          "components": [
            {
              "internalType": "uint256",
              "name": "tokenId",
              "type": "uint256"
            },
            {
              "internalType": "uint128",
              "name": "liquidity",
              "type": "uint128"
            },
            {
              "internalType": "uint256",
              "name": "amount0Min",
              "type": "uint256"
            },
            {
              "internalType": "uint256",
              "name": "amount1Min",
              "type": "uint256"
            },
            {
              "internalType": "uint256",
              "name": "deadline",
              "type": "uint256"
            }
          ],
          "internalType": "struct INonfungiblePositionManager.DecreaseLiquidityParams",
          "name": "params",
          "type": "tuple"
        }
      ],
      "name": "decreaseLiquidity",
      "outputs": [
        {
          "internalType": "uint256",
          "name": "amount0",
          "type": "uint256"
        },
        {
          "internalType": "uint256",
          "name": "amount1",
          "type": "uint256"
        }
      ],
      "stateMutability": "payable",
      "type": "function"
    },
    {
      "inputs": [
        {
          "internalType": "int24",
          "name": "currentTick",
          "type": "int24"
        },
        {
          "internalType": "int24",
          "name": "tickLower",
          "type": "int24"
        },
        {
          "internalType": "int24",
          "name": "tickHigher",
          "type": "int24"
        },
        {
          "internalType": "uint128",
          "name": "liquidity",
          "type": "uint128"
        }
      ],
      "name": "getAmountsForLiquidity",
      "outputs": [
        {
          "internalType": "uint256",
          "name": "",
          "type": "uint256"
        },
        {
          "internalType": "uint256",
          "name": "",
          "type": "uint256"
        }
      ],
      "stateMutability": "pure",
      "type": "function"
    },
    {
      "inputs": [
        {
          "internalType": "string",
          "name": "_name",
          "type": "string"
        }
      ],
      "name": "getFee",
      "outputs": [
        {
          "components": [
            {
              "internalType": "string",
              "name": "name",
              "type": "string"
            },
            {
              "internalType": "uint256",
              "name": "lpFee",
              "type": "uint256"
            },
            {
              "internalType": "uint256",
              "name": "collectFee",
              "type": "uint256"
            },
            {
              "internalType": "uint256",
              "name": "flatFee",
              "type": "uint256"
            },
            {
              "internalType": "address",
              "name": "flatFeeToken",
              "type": "address"
            }
          ],
          "internalType": "struct ILiquidityLockerV3.FeeStruct",
          "name": "",
          "type": "tuple"
        }
      ],
      "stateMutability": "view",
      "type": "function"
    },
    {
      "inputs": [
        {
          "internalType": "uint256",
          "name": "_index",
          "type": "uint256"
        }
      ],
      "name": "getFeeOptionAtIndex",
      "outputs": [
        {
          "components": [
            {
              "internalType": "string",
              "name": "name",
              "type": "string"
            },
            {
              "internalType": "uint256",
              "name": "lpFee",
              "type": "uint256"
            },
            {
              "internalType": "uint256",
              "name": "collectFee",
              "type": "uint256"
            },
            {
              "internalType": "uint256",
              "name": "flatFee",
              "type": "uint256"
            },
            {
              "internalType": "address",
              "name": "flatFeeToken",
              "type": "address"
            }
          ],
          "internalType": "struct ILiquidityLockerV3.FeeStruct",
          "name": "",
          "type": "tuple"
        }
      ],
      "stateMutability": "view",
      "type": "function"
    },
    {
      "inputs": [],
      "name": "getFeeOptionLength",
      "outputs": [
        {
          "internalType": "uint256",
          "name": "",
          "type": "uint256"
        }
      ],
      "stateMutability": "view",
      "type": "function"
    },
    {
      "inputs": [
        {
          "internalType": "uint256",
          "name": "_lockId",
          "type": "uint256"
        }
      ],
      "name": "getLock",
      "outputs": [
        {
          "components": [
            {
              "internalType": "uint256",
              "name": "lock_id",
              "type": "uint256"
            },
            {
              "internalType": "contract INonfungiblePositionManager",
              "name": "nftPositionManager",
              "type": "address"
            },
            {
              "internalType": "address",
              "name": "pool",
              "type": "address"
            },
            {
              "internalType": "uint256",
              "name": "nft_id",
              "type": "uint256"
            },
            {
              "internalType": "address",
              "name": "owner",
              "type": "address"
            },
            {
              "internalType": "address",
              "name": "pendingOwner",
              "type": "address"
            },
            {
              "internalType": "address",
              "name": "additionalCollector",
              "type": "address"
            },
            {
              "internalType": "address",
              "name": "collectAddress",
              "type": "address"
            },
            {
              "internalType": "uint256",
              "name": "unlockDate",
              "type": "uint256"
            },
            {
              "internalType": "uint16",
              "name": "countryCode",
              "type": "uint16"
            },
            {
              "internalType": "uint256",
              "name": "ucf",
              "type": "uint256"
            }
          ],
          "internalType": "struct ILiquidityLockerV3.Lock",
          "name": "_lock",
          "type": "tuple"
        }
      ],
      "stateMutability": "view",
      "type": "function"
    },
    {
      "inputs": [],
      "name": "getLocksLength",
      "outputs": [
        {
          "internalType": "uint256",
          "name": "",
          "type": "uint256"
        }
      ],
      "stateMutability": "view",
      "type": "function"
    },
    {
      "inputs": [
        {
          "internalType": "address",
          "name": "_user",
          "type": "address"
        }
      ],
      "name": "getNumUserLocks",
      "outputs": [
        {
          "internalType": "uint256",
          "name": "",
          "type": "uint256"
        }
      ],
      "stateMutability": "view",
      "type": "function"
    },
    {
      "inputs": [
        {
          "internalType": "address",
          "name": "_user",
          "type": "address"
        },
        {
          "internalType": "uint256",
          "name": "_index",
          "type": "uint256"
        }
      ],
      "name": "getUserLockAtIndex",
      "outputs": [
        {
          "components": [
            {
              "internalType": "uint256",
              "name": "lock_id",
              "type": "uint256"
            },
            {
              "internalType": "contract INonfungiblePositionManager",
              "name": "nftPositionManager",
              "type": "address"
            },
            {
              "internalType": "address",
              "name": "pool",
              "type": "address"
            },
            {
              "internalType": "uint256",
              "name": "nft_id",
              "type": "uint256"
            },
            {
              "internalType": "address",
              "name": "owner",
              "type": "address"
            },
            {
              "internalType": "address",
              "name": "pendingOwner",
              "type": "address"
            },
            {
              "internalType": "address",
              "name": "additionalCollector",
              "type": "address"
            },
            {
              "internalType": "address",
              "name": "collectAddress",
              "type": "address"
            },
            {
              "internalType": "uint256",
              "name": "unlockDate",
              "type": "uint256"
            },
            {
              "internalType": "uint16",
              "name": "countryCode",
              "type": "uint16"
            },
            {
              "internalType": "uint256",
              "name": "ucf",
              "type": "uint256"
            }
          ],
          "internalType": "struct ILiquidityLockerV3.Lock",
          "name": "",
          "type": "tuple"
        }
      ],
      "stateMutability": "view",
      "type": "function"
    },
    {
      "inputs": [
        {
          "internalType": "uint256",
          "name": "_lockId",
          "type": "uint256"
        },
        {
          "components": [
            {
              "internalType": "uint256",
              "name": "tokenId",
              "type": "uint256"
            },
            {
              "internalType": "uint256",
              "name": "amount0Desired",
              "type": "uint256"
            },
            {
              "internalType": "uint256",
              "name": "amount1Desired",
              "type": "uint256"
            },
            {
              "internalType": "uint256",
              "name": "amount0Min",
              "type": "uint256"
            },
            {
              "internalType": "uint256",
              "name": "amount1Min",
              "type": "uint256"
            },
            {
              "internalType": "uint256",
              "name": "deadline",
              "type": "uint256"
            }
          ],
          "internalType": "struct INonfungiblePositionManager.IncreaseLiquidityParams",
          "name": "params",
          "type": "tuple"
        }
      ],
      "name": "increaseLiquidity",
      "outputs": [
        {
          "internalType": "uint128",
          "name": "liquidity",
          "type": "uint128"
        },
        {
          "internalType": "uint256",
          "name": "amount0",
          "type": "uint256"
        },
        {
          "internalType": "uint256",
          "name": "amount1",
          "type": "uint256"
        }
      ],
      "stateMutability": "payable",
      "type": "function"
    },
    {
      "inputs": [
        {
          "components": [
            {
              "internalType": "contract INonfungiblePositionManager",
              "name": "nftPositionManager",
              "type": "address"
            },
            {
              "internalType": "uint256",
              "name": "nft_id",
              "type": "uint256"
            },
            {
              "internalType": "address",
              "name": "dustRecipient",
              "type": "address"
            },
            {
              "internalType": "address",
              "name": "owner",
              "type": "address"
            },
            {
              "internalType": "address",
              "name": "additionalCollector",
              "type": "address"
            },
            {
              "internalType": "address",
              "name": "collectAddress",
              "type": "address"
            },
            {
              "internalType": "uint256",
              "name": "unlockDate",
              "type": "uint256"
            },
            {
              "internalType": "uint16",
              "name": "countryCode",
              "type": "uint16"
            },
            {
              "internalType": "string",
              "name": "feeName",
              "type": "string"
            },
            {
              "internalType": "bytes[]",
              "name": "r",
              "type": "bytes[]"
            }
          ],
          "internalType": "struct ILiquidityLockerV3.LockParams",
          "name": "params",
          "type": "tuple"
        }
      ],
      "name": "lock",
      "outputs": [
        {
          "internalType": "uint256",
          "name": "",
          "type": "uint256"
        }
      ],
      "stateMutability": "payable",
      "type": "function"
    },
    {
      "inputs": [
        {
          "internalType": "uint256",
          "name": "_lockId",
          "type": "uint256"
        }
      ],
      "name": "migrate",
      "outputs": [],
      "stateMutability": "nonpayable",
      "type": "function"
    },
    {
      "inputs": [
        {
          "internalType": "address",
          "name": "_nftPositionManager",
          "type": "address"
        }
      ],
      "name": "nftPositionManagerIsAllowed",
      "outputs": [
        {
          "internalType": "bool",
          "name": "",
          "type": "bool"
        }
      ],
      "stateMutability": "view",
      "type": "function"
    },
    {
      "inputs": [
        {
          "internalType": "address",
          "name": "operator",
          "type": "address"
        },
        {
          "internalType": "address",
          "name": "from",
          "type": "address"
        },
        {
          "internalType": "uint256",
          "name": "tokenId",
          "type": "uint256"
        },
        {
          "internalType": "bytes",
          "name": "data",
          "type": "bytes"
        }
      ],
      "name": "onERC721Received",
      "outputs": [
        {
          "internalType": "bytes4",
          "name": "",
          "type": "bytes4"
        }
      ],
      "stateMutability": "nonpayable",
      "type": "function"
    },
    {
      "inputs": [],
      "name": "owner",
      "outputs": [
        {
          "internalType": "address",
          "name": "",
          "type": "address"
        }
      ],
      "stateMutability": "view",
      "type": "function"
    },
    {
      "inputs": [
        {
          "internalType": "uint256",
          "name": "_lockId",
          "type": "uint256"
        },
        {
          "internalType": "uint256",
          "name": "_unlockDate",
          "type": "uint256"
        }
      ],
      "name": "relock",
      "outputs": [],
      "stateMutability": "nonpayable",
      "type": "function"
    },
    {
      "inputs": [
        {
          "internalType": "string",
          "name": "_name",
          "type": "string"
        }
      ],
      "name": "removeFee",
      "outputs": [],
      "stateMutability": "nonpayable",
      "type": "function"
    },
    {
      "inputs": [],
      "name": "renounceOwnership",
      "outputs": [],
      "stateMutability": "nonpayable",
      "type": "function"
    },
    {
      "inputs": [
        {
          "internalType": "uint256",
          "name": "_lockId",
          "type": "uint256"
        },
        {
          "internalType": "address",
          "name": "_additionalCollector",
          "type": "address"
        }
      ],
      "name": "setAdditionalCollector",
      "outputs": [],
      "stateMutability": "nonpayable",
      "type": "function"
    },
    {
      "inputs": [
        {
          "internalType": "uint256",
          "name": "_lockId",
          "type": "uint256"
        },
        {
          "internalType": "address",
          "name": "_collectAddress",
          "type": "address"
        }
      ],
      "name": "setCollectAddress",
      "outputs": [],
      "stateMutability": "nonpayable",
      "type": "function"
    },
    {
      "inputs": [
        {
          "internalType": "address",
          "name": "_autoCollectAccount",
          "type": "address"
        },
        {
          "internalType": "address payable",
          "name": "_lpFeeReceiver",
          "type": "address"
        },
        {
          "internalType": "address payable",
          "name": "_collectFeeReceiver",
          "type": "address"
        }
      ],
      "name": "setFeeParams",
      "outputs": [],
      "stateMutability": "nonpayable",
      "type": "function"
    },
    {
      "inputs": [
        {
          "internalType": "contract IFeeResolver",
          "name": "_resolver",
          "type": "address"
        }
      ],
      "name": "setFeeResolver",
      "outputs": [],
      "stateMutability": "nonpayable",
      "type": "function"
    },
    {
      "inputs": [
        {
          "internalType": "address",
          "name": "_migrateIn",
          "type": "address"
        }
      ],
      "name": "setMigrateInContract",
      "outputs": [],
      "stateMutability": "nonpayable",
      "type": "function"
    },
    {
      "inputs": [
        {
          "internalType": "address",
          "name": "_migrator",
          "type": "address"
        }
      ],
      "name": "setMigrator",
      "outputs": [],
      "stateMutability": "nonpayable",
      "type": "function"
    },
    {
      "inputs": [
        {
          "internalType": "uint256",
          "name": "_lockId",
          "type": "uint256"
        },
        {
          "internalType": "uint256",
          "name": "_ucf",
          "type": "uint256"
        }
      ],
      "name": "setUCF",
      "outputs": [],
      "stateMutability": "nonpayable",
      "type": "function"
    },
    {
      "inputs": [
        {
          "internalType": "uint256",
          "name": "_lockId",
          "type": "uint256"
        },
        {
          "internalType": "address",
          "name": "_newOwner",
          "type": "address"
        }
      ],
      "name": "transferLockOwnership",
      "outputs": [],
      "stateMutability": "nonpayable",
      "type": "function"
    },
    {
      "inputs": [
        {
          "internalType": "address",
          "name": "newOwner",
          "type": "address"
        }
      ],
      "name": "transferOwnership",
      "outputs": [],
      "stateMutability": "nonpayable",
      "type": "function"
    },
    {
      "inputs": [
        {
          "internalType": "uint256",
          "name": "_lockId",
          "type": "uint256"
        },
        {
          "internalType": "address",
          "name": "_receiver",
          "type": "address"
        }
      ],
      "name": "withdraw",
      "outputs": [],
      "stateMutability": "nonpayable",
      "type": "function"
    }
  ],
  "bytecode": "0x60a06040526000600d553480156200001657600080fd5b50604051620062cd380380620062cd833981016040819052620000399162000402565b33806200006157604051631e4fbdf760e01b8152600060048201526024015b60405180910390fd5b6200006c8162000145565b50600180556001600160a01b03848116608052600880546001600160a01b031990811686841617909155600980548216858416179055600a80549091169183169190911790556040805180820190915260078152661111519055531560ca1b6020820152620000e290603260c860008062000195565b60408051808201909152600381526204c56560ec1b60208201526200010e906050606460008062000195565b60408051808201909152600381526204c4c560ec1b60208201526200013b90601e61015e60008062000195565b5050505062000682565b600080546001600160a01b038381166001600160a01b0319831681178455604051919092169283917f8be0079c531659141344cd1fd0a4f28419497f9722a3daafe3b4186f6b6457e09190a35050565b6200019f62000341565b600085604051602001620001b4919062000490565b60408051601f19818403018152828252805160209182012060a084018352898452838201899052838301889052606084018790526001600160a01b03861660808501526000818152600290925291902082519193508291819062000219908262000555565b5060208201516001820155604082015160028201556060820151600380830191909155608090920151600490910180546001600160a01b0319166001600160a01b0390921691909117905562000270908362000372565b620002e057620002826003836200038f565b507f335d96fad821252e8298f51336937e44332b3731a3c3f249b2cdb77652b33e4f8282600001518360200151846040015185606001518660800151604051620002d29695949392919062000621565b60405180910390a162000338565b7fdd151e7029525c623e7c09af0f71271bd7642edd1bf2f64d97bc552faba7c86d82826000015183602001518460400151856060015186608001516040516200032f9695949392919062000621565b60405180910390a15b50505050505050565b6000546001600160a01b03163314620003705760405163118cdaa760e01b815233600482015260240162000058565b565b600081815260018301602052604081205415155b90505b92915050565b60006200038683836000818152600183016020526040812054620003e05750815460018181018455600084815260208082209093018490558454848252828601909352604090209190915562000389565b50600062000389565b6001600160a01b0381168114620003ff57600080fd5b50565b600080600080608085870312156200041957600080fd5b84516200042681620003e9565b60208601519094506200043981620003e9565b60408601519093506200044c81620003e9565b60608601519092506200045f81620003e9565b939692955090935050565b60005b83811015620004875781810151838201526020016200046d565b50506000910152565b60008251620004a48184602087016200046a565b9190910192915050565b634e487b7160e01b600052604160045260246000fd5b600181811c90821680620004d957607f821691505b602082108103620004fa57634e487b7160e01b600052602260045260246000fd5b50919050565b601f82111562000550576000816000526020600020601f850160051c810160208610156200052b5750805b601f850160051c820191505b818110156200054c5782815560010162000537565b5050505b505050565b81516001600160401b03811115620005715762000571620004ae565b6200058981620005828454620004c4565b8462000500565b602080601f831160018114620005c15760008415620005a85750858301515b600019600386901b1c1916600185901b1785556200054c565b600085815260208120601f198616915b82811015620005f257888601518255948401946001909101908401620005d1565b5085821015620006115787850151600019600388901b60f8161c191681555b5050505050600190811b01905550565b86815260c06020820152600086518060c0840152620006488160e0850160208b016200046a565b604083019690965250606081019390935260808301919091526001600160a01b031660a082015260e0601f909201601f1916010192915050565b608051615c28620006a560003960008181610afa0152611c490152615c286000f3fe6080604052600436106102f15760003560e01c80639ecd74721161018f578063d1f55d45116100e1578063ed1eee681161008a578063f2fde38b11610064578063f2fde38b14610aa8578063fae2e64814610ac8578063fe0ab56114610ae857600080fd5b8063ed1eee6814610a55578063ef24894414610a75578063f11478f814610a9557600080fd5b8063d73792a9116100bb578063d73792a914610a09578063e091dd1a14610a1f578063e7a7bdfe14610a3557600080fd5b8063d1f55d45146108ae578063d5fdb732146108ce578063d68f4dd1146108ee57600080fd5b8063ac4521c611610143578063b707a2881161011d578063b707a28814610776578063c7a85b4014610796578063cf0d5af3146107b657600080fd5b8063ac4521c614610716578063b25128db14610736578063b2fb30cb1461075657600080fd5b8063a339df1211610174578063a339df12146106ae578063a35a96b8146106e3578063ab9ae180146106f657600080fd5b80639ecd7472146106615780639f185a0b1461068157600080fd5b8063454b060811610248578063715018a6116101fc5780638b52a6ee116101d65780638b52a6ee146105f35780638da5cb5b146106135780639b7748401461063157600080fd5b8063715018a61461059b57806375eb8e69146105b057806383fb69ad146105c657600080fd5b8063544534e71161022d578063544534e71461053b5780635a04fb691461055b578063611f6fe61461057b57600080fd5b8063454b060814610506578063489c18b01461052657600080fd5b8063150b7a02116102aa57806323cf31181161028457806323cf311814610486578063260e12b0146104a6578063280f3867146104e657600080fd5b8063150b7a02146103b8578063186941551461042e5780631f113fc31461046657600080fd5b8063066b58c7116102db578063066b58c71461034057806309564ab0146103785780630ae300bf1461039857600080fd5b8062f714ce146102f6578063038975a114610318575b600080fd5b34801561030257600080fd5b50610316610311366004614d03565b610b1c565b005b34801561032457600080fd5b5061032d610de7565b6040519081526020015b60405180910390f35b34801561034c57600080fd5b50600854610360906001600160a01b031681565b6040516001600160a01b039091168152602001610337565b34801561038457600080fd5b50610316610393366004614d33565b610df8565b3480156103a457600080fd5b50600954610360906001600160a01b031681565b3480156103c457600080fd5b506103fd6103d3366004614d7e565b7f150b7a020000000000000000000000000000000000000000000000000000000095945050505050565b6040517fffffffff000000000000000000000000000000000000000000000000000000009091168152602001610337565b61044161043c366004614e1d565b610e3f565b604080516001600160801b039094168452602084019290925290820152606001610337565b34801561047257600080fd5b50600a54610360906001600160a01b031681565b34801561049257600080fd5b506103166104a1366004614e55565b6112fc565b3480156104b257600080fd5b506104c66104c1366004614e87565b611359565b604080519485526020850193909352918301526060820152608001610337565b3480156104f257600080fd5b50610316610501366004614eda565b611391565b34801561051257600080fd5b50610316610521366004614f1b565b6113ba565b34801561053257600080fd5b50600d5461032d565b34801561054757600080fd5b50610316610556366004614e55565b6116ae565b34801561056757600080fd5b50610316610576366004614d03565b6116fb565b34801561058757600080fd5b5061032d610596366004614e55565b6117e2565b3480156105a757600080fd5b50610316611809565b3480156105bc57600080fd5b5061032d60001981565b3480156105d257600080fd5b506105e66105e1366004614f1b565b61181d565b6040516103379190614f84565b3480156105ff57600080fd5b5061031661060e366004614e55565b61194a565b34801561061f57600080fd5b506000546001600160a01b0316610360565b34801561063d57600080fd5b5061065161064c366004614e55565b611974565b6040519015158152602001610337565b34801561066d57600080fd5b50600b54610360906001600160a01b031681565b34801561068d57600080fd5b506106a161069c366004614fdd565b611981565b6040516103379190615009565b3480156106ba57600080fd5b506106ce6106c93660046150fa565b611aa9565b60408051928352602083019190915201610337565b61032d6106f136600461513b565b611ade565b34801561070257600080fd5b50610316610711366004614d03565b612787565b34801561072257600080fd5b50610316610731366004614d03565b612844565b34801561074257600080fd5b50610316610751366004614d03565b6128b9565b34801561076257600080fd5b50610316610771366004615177565b6129ef565b34801561078257600080fd5b50610316610791366004614d03565b612b2c565b3480156107a257600080fd5b50600c54610360906001600160a01b031681565b3480156107c257600080fd5b506108426107d1366004614f1b565b600e60205260009081526040902080546001820154600283015460038401546004850154600586015460068701546007880154600889015460098a0154600a909a015498996001600160a01b039889169997891698969795871696948516959385169490921692909161ffff16908b565b604080519b8c526001600160a01b039a8b1660208d0152988a16988b019890985260608a0196909652938716608089015291861660a0880152851660c087015290931660e085015261010084019290925261ffff90911661012083015261014082015261016001610337565b3480156108ba57600080fd5b50600754610360906001600160a01b031681565b3480156108da57600080fd5b506103166108e9366004615287565b612be6565b3480156108fa57600080fd5b506106a1610909366004614f1b565b6040805161016081018252600080825260208201819052918101829052606081018290526080810182905260a0810182905260c0810182905260e0810182905261010081018290526101208101829052610140810191909152506000908152600e60209081526040918290208251610160810184528154815260018201546001600160a01b03908116938201939093526002820154831693810193909352600381015460608401526004810154821660808401526005810154821660a08401526006810154821660c0840152600781015490911660e08301526008810154610100830152600981015461ffff16610120830152600a015461014082015290565b348015610a1557600080fd5b5061032d61271081565b348015610a2b57600080fd5b5061032d600d5481565b348015610a4157600080fd5b50610316610a503660046152bc565b612d5e565b348015610a6157600080fd5b506105e6610a70366004615287565b612efa565b348015610a8157600080fd5b50610316610a90366004615177565b61309c565b6106ce610aa336600461532b565b61314b565b348015610ab457600080fd5b50610316610ac3366004614e55565b61344d565b348015610ad457600080fd5b50610316610ae3366004614e55565b6134a1565b348015610af457600080fd5b506103607f000000000000000000000000000000000000000000000000000000000000000081565b610b246134cb565b610b2d8261350e565b6000828152600e6020908152604091829020825161016081018452815481526001808301546001600160a01b03908116948301949094526002830154841694820194909452600382015460608201526004820154831660808201526005820154831660a08201526006820154831660c0820152600782015490921660e083015260088101546101008301819052600982015461ffff16610120840152600a90910154610140830152909101610c185760405162461bcd60e51b815260206004820152600c60248201526b455445524e414c5f4c4f434b60a01b60448201526064015b60405180910390fd5b4281610100015110610c565760405162461bcd60e51b81526020600482015260076024820152661393d50816515560ca1b6044820152606401610c0f565b61014081015115610c7957610c7483836001600160801b03806135e9565b505050505b60208101516060820151604051632142170760e11b81523060048201526001600160a01b03858116602483015260448201929092529116906342842e0e90606401600060405180830381600087803b158015610cd457600080fd5b505af1158015610ce8573d6000803e3d6000fd5b50505060808201516001600160a01b03166000908152600f60205260409020610d12915084613be8565b506080810151604080518581526001600160a01b03928316602082015291841682820152517fcf3f38c6e10e7fa2c0a2d09ff592596efa8ea3865dd7aabb9bff9c5189c607a89181900360600190a1506000828152600e602052604081208181556001810180546001600160a01b0319908116909155600282018054821690556003820183905560048201805482169055600582018054821690556006820180548216905560078201805490911690556008810182905560098101805461ffff19169055600a0155610de360018055565b5050565b6000610df36003613bfb565b905090565b610e00613c05565b600880546001600160a01b039485166001600160a01b0319918216179091556009805493851693821693909317909255600a8054919093169116179055565b6000806000610e4c6134cb565b6000858152600e60209081526040918290208251610160810184528154815260018201546001600160a01b039081169382019390935260028201548316938101939093526003810154606084018190526004820154831660808501526005820154831660a08501526006820154831660c0850152600782015490921660e08401526008810154610100840152600981015461ffff16610120840152600a0154610140830152853514610f295760405162461bcd60e51b815260206004820152600660248201526513919508125160d21b6044820152606401610c0f565b60008082602001516001600160a01b03166399fbab8884606001516040518263ffffffff1660e01b8152600401610f6291815260200190565b61018060405180830381865afa158015610f80573d6000803e3d6000fd5b505050506040513d601f19601f82011682018060405250810190610fa49190615389565b50506040516370a0823160e01b8152306004820152979b5095995060009850506001600160a01b038a1696506370a08231956024019450610fe59350505050565b602060405180830381865afa158015611002573d6000803e3d6000fd5b505050506040513d601f19601f82011682018060405250810190611026919061546a565b6040516370a0823160e01b81523060048201529091506000906001600160a01b038416906370a0823190602401602060405180830381865afa158015611070573d6000803e3d6000fd5b505050506040513d601f19601f82011682018060405250810190611094919061546a565b90506110a68433308c60200135613c4b565b6110b68333308c60400135613c4b565b6110c98486602001518b60200135613d88565b6110dc8386602001518b60400135613d88565b602080860151604080517f219f5d170000000000000000000000000000000000000000000000000000000081528c356004820152928c013560248401528b0135604483015260608b0135606483015260808b0135608483015260a08b013560a48301526001600160a01b03169063219f5d179060c4016060604051808303816000875af1158015611171573d6000803e3d6000fd5b505050506040513d601f19601f820116820180604052508101906111959190615483565b6040516370a0823160e01b8152306004820152929a50909850965060009083906001600160a01b038716906370a0823190602401602060405180830381865afa1580156111e6573d6000803e3d6000fd5b505050506040513d601f19601f8201168201806040525081019061120a919061546a565b61121491906154d0565b6040516370a0823160e01b815230600482015290915060009083906001600160a01b038716906370a0823190602401602060405180830381865afa158015611260573d6000803e3d6000fd5b505050506040513d601f19601f82011682018060405250810190611284919061546a565b61128e91906154d0565b905081156112a1576112a1863384613ea3565b80156112b2576112b2853383613ea3565b6040518c81527f38f5d789b3e0e71e68d20081e98d4b02ae7ecab7482b6634306b2261e90f806f9060200160405180910390a1505050505050506112f560018055565b9250925092565b611304613c05565b600b80546001600160a01b0319166001600160a01b0383169081179091556040519081527f48af0f3916eee80364290b1aca1b04532ba7394a23ceeb066b5df1aa9c5b51c4906020015b60405180910390a150565b6000806000806113676134cb565b611373888888886135e9565b9296509094509250905061138660018055565b945094509450949050565b611399613c05565b6113a16134cb565b6113ac838383613ea3565b6113b560018055565b505050565b6113c26134cb565b600b546001600160a01b031661141a5760405162461bcd60e51b815260206004820152600760248201527f4e4f5420534554000000000000000000000000000000000000000000000000006044820152606401610c0f565b6114238161350e565b6000818152600e60209081526040918290208251610160810184528154815260018201546001600160a01b039081169382018490526002830154811682860152600383015460608301819052600480850154831660808501526005850154831660a08501526006850154831660c08501526007850154831660e08501526008850154610100850152600985015461ffff16610120850152600a90940154610140840152600b54955163095ea7b360e01b8152959091169285019290925260248401919091529163095ea7b390604401600060405180830381600087803b15801561150c57600080fd5b505af1158015611520573d6000803e3d6000fd5b5050600b54602084015160608501516040517f4ef88bea000000000000000000000000000000000000000000000000000000008152600481018890526001600160a01b039283166024820152604481019190915291169250634ef88bea91506064016020604051808303816000875af11580156115a1573d6000803e3d6000fd5b505050506040513d601f19601f820116820180604052508101906115c591906154e3565b5060808101516001600160a01b03166000908152600f602052604090206115ec9083613be8565b506000828152600e60205260408082208281556001810180546001600160a01b0319908116909155600282018054821690556003820184905560048201805482169055600582018054821690556006820180548216905560078201805490911690556008810183905560098101805461ffff19169055600a0191909155517f97923ecdf32419caa09669588eaa60fcc1c41069814b4f4f52ec31e9fdec1aea906116999084815260200190565b60405180910390a1506116ab60018055565b50565b6116b6613c05565b6116c1600582613fd0565b506040516001600160a01b03821681527f80669cb83f5f4061c84fc5d3662ece37df30172baec31097d527ede111e413c29060200161134e565b6117036134cb565b61170c8261350e565b6001600160a01b03811633036117645760405162461bcd60e51b815260206004820152600a60248201527f53414d45204f574e4552000000000000000000000000000000000000000000006044820152606401610c0f565b6000828152600e60209081526040918290206005810180546001600160a01b0319166001600160a01b03861690811790915583518681523393810193909352928201929092527f7336363d3c1722824dac3c93d1256b57d394f59da51548af7e779e47c13fff10906060015b60405180910390a150610de360018055565b6001600160a01b0381166000908152600f6020526040812061180390613bfb565b92915050565b611811613c05565b61181b6000613fe5565b565b6118586040518060a001604052806060815260200160008152602001600081526020016000815260200160006001600160a01b031681525090565b60026000611867600385614035565b81526020019081526020016000206040518060a001604052908160008201805461189090615505565b80601f01602080910402602001604051908101604052809291908181526020018280546118bc90615505565b80156119095780601f106118de57610100808354040283529160200191611909565b820191906000526020600020905b8154815290600101906020018083116118ec57829003601f168201915b50505091835250506001820154602082015260028201546040820152600382015460608201526004909101546001600160a01b031660809091015292915050565b611952613c05565b600c80546001600160a01b0319166001600160a01b0392909216919091179055565b6000611803600583614041565b604080516101608101825260008082526020808301829052828401829052606083018290526080830182905260a0830182905260c0830182905260e083018290526101008301829052610120830182905261014083018290526001600160a01b0386168252600f90529182209091600e916119fc9085614035565b815260208082019290925260409081016000208151610160810183528154815260018201546001600160a01b03908116948201949094526002820154841692810192909252600381015460608301526004810154831660808301526005810154831660a08301526006810154831660c0830152600781015490921660e08201526008820154610100820152600982015461ffff16610120820152600a909101546101408201529392505050565b600080611ad0611ab887614063565b611ac187614063565b611aca87614063565b866144ac565b915091505b94509492505050565b6000611ae86134cb565b6000611afa6080840160608501614e55565b6001600160a01b031603611b505760405162461bcd60e51b815260206004820152601960248201527f4f574e45522043414e4e4f54203d2061646472657373283029000000000000006044820152606401610c0f565b6000611b6260c0840160a08501614e55565b6001600160a01b031603611ba75760405162461bcd60e51b815260206004820152600c60248201526b21a7a62622a1aa2fa0a2222960a11b6044820152606401610c0f565b6402540be4008260c001351080611bc357506000198260c00135145b611bfe5760405162461bcd60e51b815260206004820152600c60248201526b4d494c4c495345434f4e445360a01b6044820152606401610c0f565b428260c0013511611c3f5760405162461bcd60e51b815260206004820152600b60248201526a1110551148141054d4d15160aa1b6044820152606401610c0f565b6001600160a01b037f000000000000000000000000000000000000000000000000000000000000000016635cb49b55611c7f610100850160e0860161553f565b6040517fffffffff0000000000000000000000000000000000000000000000000000000060e084901b16815261ffff9091166004820152602401602060405180830381865afa158015611cd6573d6000803e3d6000fd5b505050506040513d601f19601f82011682018060405250810190611cfa91906154e3565b611d465760405162461bcd60e51b815260206004820152600760248201527f434f554e545259000000000000000000000000000000000000000000000000006044820152606401610c0f565b611d5e611d566020840184614e55565b600590614041565b611daa5760405162461bcd60e51b815260206004820152601c60248201527f494e56414c4944204e465420504f534954494f4e204d414e41474552000000006044820152606401610c0f565b611de56040518060a001604052806060815260200160008152602001600081526020016000815260200160006001600160a01b031681525090565b600c546001600160a01b03163303611e3f57611e05610120840184615563565b6000818110611e1657611e166155ad565b9050602002810190611e2891906155c3565b810190611e359190614f1b565b6040820152611f44565b6000611e4f610120850185615563565b90501115611ee3576007546001600160a01b03166332c07c9e611e76610120860186615563565b336040518463ffffffff1660e01b8152600401611e9593929190615633565b6000604051808303816000875af1158015611eb4573d6000803e3d6000fd5b505050506040513d6000823e601f3d908101601f19168201604052611edc91908101906156dd565b9050611f31565b611f2e611ef46101008501856155c3565b8080601f016020809104026020016040519081016040528093929190818152602001838380828437600092019190915250612efa92505050565b90505b606081015115611f4457611f4481614547565b611f516020840184614e55565b604051632142170760e11b8152336004820152306024820152602085013560448201526001600160a01b0391909116906342842e0e90606401600060405180830381600087803b158015611fa457600080fd5b505af1158015611fb8573d6000803e3d6000fd5b50506040805161018081018252600080825260208201819052918101829052606081018290526080810182905260a0810182905260c0810182905260e0810182905261010081018290526101208101829052610140810182905261016081019190915291506120249050565b6120316020850185614e55565b60405163133f757160e31b8152602086013560048201526001600160a01b0391909116906399fbab889060240161018060405180830381865afa15801561207c573d6000803e3d6000fd5b505050506040513d601f19601f820116820180604052508101906120a09190615389565b505050506001600160801b031660e0890152600290810b60c08901520b60a087015262ffffff1660808601526001600160a01b03908116606086015216604084015250600090506120f46020860186614e55565b6001600160a01b031663c45a01556040518163ffffffff1660e01b8152600401602060405180830381865afa158015612131573d6000803e3d6000fd5b505050506040513d601f19601f8201168201806040525081019061215591906157b3565b6040808401516060850151608086015192517f1698ee820000000000000000000000000000000000000000000000000000000081526001600160a01b039283166004820152908216602482015262ffffff9092166044830152919250600091831690631698ee8290606401602060405180830381865afa1580156121dd573d6000803e3d6000fd5b505050506040513d601f19601f8201168201806040525081019061220191906157b3565b90506122106020870187614e55565b6001600160a01b031663fc6f78656040518060800160405280896020013581526020018960400160208101906122469190614e55565b6001600160a01b0390811682526001600160801b0360208084018290526040938401829052835160e087901b7fffffffff0000000000000000000000000000000000000000000000000000000016815285516004820152908501519092166024830152918301518216604482015260609092015116606482015260840160408051808303816000875af11580156122e1573d6000803e3d6000fd5b505050506040513d601f19601f8201168201806040525081019061230591906157d0565b505060208401511561250b57600061232d6123236020890189614e55565b8860200135614678565b905061233c6020880188614e55565b6001600160a01b0316630c49ccbe6040518060a001604052808a6020013581526020016127108960200151866001600160801b031661237b91906157f4565b6123859190615821565b6001600160801b031681526020016000815260200160008152602001428152506040518263ffffffff1660e01b81526004016123ff9190600060a082019050825182526001600160801b03602084015116602083015260408301516040830152606083015160608301526080830151608083015292915050565b60408051808303816000875af115801561241d573d6000803e3d6000fd5b505050506040513d601f19601f8201168201806040525081019061244191906157d0565b5061245190506020880188614e55565b6040805160808101825260208a81013582526009546001600160a01b039081169183019182526001600160801b0383850181815260608501828152955163fc6f786560e01b815294516004860152925182166024850152915182166044840152925116606482015291169063fc6f78659060840160408051808303816000875af11580156124e3573d6000803e3d6000fd5b505050506040513d601f19601f8201168201806040525081019061250791906157d0565b5050505b604080516101608101825260006020808301829052928201819052606082018190526080820181905260a0820181905260c0820181905260e0820181905261010082018190526101208201819052610140820152600d5481529061257190880188614e55565b6001600160a01b0390811660208084019190915290831660408301528701356060808301919091526125a99060808901908901614e55565b6001600160a01b03166080808301919091526125cb9060a08901908901614e55565b6001600160a01b031660c0808301919091526125ec90880160a08901614e55565b6001600160a01b031660e08083019190915260c08801356101008084019190915261261c9190890190890161553f565b61ffff90811661012083019081526040878101516101408501908152600d80546000908152600e602090815284822088518155908801516001820180546001600160a01b03199081166001600160a01b03938416179091559589015160028301805488169183169190911790556060808a015160038401556080808b01516004850180548a1691851691909117905560a08b01516005850180548a1691851691909117905560c08b01516006850180548a1691851691909117905560e08b01516007850180549099169316929092179096556101008901516008830155955160098201805461ffff191691909816179096559151600a909501949094559254612751939092600f92612732918d01908d01614e55565b6001600160a01b031681526020810191909152604001600020906146fb565b50600d805490600061276283615835565b9091555050805161277290614707565b5194505050505061278260018055565b919050565b61278f613c05565b6127976134cb565b6000816001600160a01b03168360405160006040518083038185875af1925050503d80600081146127e4576040519150601f19603f3d011682016040523d82523d6000602084013e6127e9565b606091505b505090508061283a5760405162461bcd60e51b815260206004820152601960248201527f47617320746f6b656e207472616e73666572206661696c6564000000000000006044820152606401610c0f565b50610de360018055565b61284c6134cb565b6128558261350e565b6000828152600e60209081526040918290206006810180546001600160a01b0319166001600160a01b038616908117909155835186815292830152917fda22afd9d1e0640f160cada74dec56452db8535daf46772df2c5f7a3af46485f91016117d0565b6128c16134cb565b6000828152600e6020526040902060058101546001600160a01b031633146129135760405162461bcd60e51b815260206004820152600560248201526427aba722a960d91b6044820152606401610c0f565b60048101546001600160a01b03166000818152600f602052604090206129399085613be8565b50600482018054336001600160a01b031991821681179092556005840180548216905560078401805482166001600160a01b03871617905560068401805490911690556000908152600f6020526040902061299490856146fb565b50604080518581526001600160a01b03838116602083015233828401528516606082015290517f4e602365e8ca79d90aa843bdcc20695568e4a35d5ff284b2f9a6e4c1ff9120529181900360800190a15050610de360018055565b6129f76134cb565b612a008261350e565b6000828152600e6020526040902060088101548211612a635760405162461bcd60e51b8152600401610c0f9060208082526004908201527f4441544500000000000000000000000000000000000000000000000000000000604082015260600190565b428211612aa05760405162461bcd60e51b815260206004820152600b60248201526a1110551148141054d4d15160aa1b6044820152606401610c0f565b6402540be400821080612ab4575060001982145b612aef5760405162461bcd60e51b815260206004820152600c60248201526b4d494c4c495345434f4e445360a01b6044820152606401610c0f565b6008810182905560408051848152602081018490527fefaff1b90138281d215452c67f793017f52e456f65c28ac63f5309a89a059b4791016117d0565b612b346134cb565b612b3d8261350e565b6001600160a01b038116612b825760405162461bcd60e51b815260206004820152600c60248201526b21a7a62622a1aa2fa0a2222960a11b6044820152606401610c0f565b6000828152600e60209081526040918290206007810180546001600160a01b0319166001600160a01b038616908117909155835186815292830152917ff47f77d5d198f5b58faaca8c7dc86ebe53925091c07487a01ec62159ff16664e91016117d0565b612bee613c05565b600081604051602001612c01919061584e565b604051602081830303815290604052805190602001209050604051602001612c3690661111519055531560ca1b815260070190565b604051602081830303815290604052805190602001208103612c845760405162461bcd60e51b81526020600482015260076024820152661111519055531560ca1b6044820152606401610c0f565b612c8f600382614958565b612cdb5760405162461bcd60e51b815260206004820152600e60248201527f466565206e6f74206578697374730000000000000000000000000000000000006044820152606401610c0f565b612ce6600382613be8565b50600081815260026020526040812090612d008282614ca0565b5060006001820181905560028201819055600382015560040180546001600160a01b03191690556040518181527faea1931d5fe74928dff1db9836d2d9de778b60cb4afc9ec70c9a1f16b58598a59060200160405180910390a15050565b612d66613c05565b600085604051602001612d79919061584e565b60408051601f19818403018152828252805160209182012060a084018352898452838201899052838301889052606084018790526001600160a01b038616608085015260008181526002909252919020825191935082918190612ddc90826158b2565b5060208201516001820155604082015160028201556060820151600380830191909155608090920151600490910180546001600160a01b0319166001600160a01b03909216919091179055612e319083614958565b612e9b57612e406003836146fb565b507f335d96fad821252e8298f51336937e44332b3731a3c3f249b2cdb77652b33e4f8282600001518360200151846040015185606001518660800151604051612e8e96959493929190615972565b60405180910390a1612ef1565b7fdd151e7029525c623e7c09af0f71271bd7642edd1bf2f64d97bc552faba7c86d8282600001518360200151846040015185606001518660800151604051612ee896959493929190615972565b60405180910390a15b50505050505050565b612f356040518060a001604052806060815260200160008152602001600081526020016000815260200160006001600160a01b031681525090565b600082604051602001612f48919061584e565b60408051601f1981840301815291905280516020909101209050612f6d600382614958565b612fb95760405162461bcd60e51b815260206004820152600960248201527f4e4f5420464f554e4400000000000000000000000000000000000000000000006044820152606401610c0f565b60008181526002602052604090819020815160a08101909252805482908290612fe190615505565b80601f016020809104026020016040519081016040528092919081815260200182805461300d90615505565b801561305a5780601f1061302f5761010080835404028352916020019161305a565b820191906000526020600020905b81548152906001019060200180831161303d57829003601f168201915b50505091835250506001820154602082015260028201546040820152600382015460608201526004909101546001600160a01b03166080909101529392505050565b6130a4613c05565b6000828152600e60205260409020600a81015482106131055760405162461bcd60e51b815260206004820152600160248201527f4c000000000000000000000000000000000000000000000000000000000000006044820152606401610c0f565b600a810182905560408051848152602081018490527fa4b63b21571e7c2b944a681b0a39cda220f85f67aaa7aa4d23fcf7d31e2379a391015b60405180910390a1505050565b6000806131566134cb565b61315f8461350e565b6000848152600e60209081526040918290208251610160810184528154815260018201546001600160a01b039081169382019390935260028201548316938101939093526003810154606084018190526004820154831660808501526005820154831660a08501526006820154831660c0850152600782015490921660e08401526008810154610100840152600981015461ffff16610120840152600a015461014083015284351461323c5760405162461bcd60e51b815260206004820152600660248201526513919508125160d21b6044820152606401610c0f565b600019816101000151036132815760405162461bcd60e51b815260206004820152600c60248201526b455445524e414c5f4c4f434b60a01b6044820152606401610c0f565b42816101000151106132bf5760405162461bcd60e51b81526020600482015260076024820152661393d50816515560ca1b6044820152606401610c0f565b6132d285336001600160801b03806135e9565b5050505080602001516001600160a01b0316630c49ccbe856040518263ffffffff1660e01b815260040161330691906159b9565b60408051808303816000875af1158015613324573d6000803e3d6000fd5b505050506040513d601f19601f8201168201806040525081019061334891906157d0565b602083810151604080516080810182526060808801518252339482019485526001600160801b03828401818152918301818152935163fc6f786560e01b81529251600484015294516001600160a01b0390811660248401529051851660448301529151909316606484015293965091945091169063fc6f78659060840160408051808303816000875af11580156133e3573d6000803e3d6000fd5b505050506040513d601f19601f8201168201806040525081019061340791906157d0565b50506040518581527fffeb250f5933abd95c7c8e2c0317b8041dc9c5a309b73fa772f533ddd085dd3a9060200160405180910390a15061344660018055565b9250929050565b613455613c05565b6001600160a01b038116613498576040517f1e4fbdf700000000000000000000000000000000000000000000000000000000815260006004820152602401610c0f565b6116ab81613fe5565b6134a9613c05565b600780546001600160a01b0319166001600160a01b0392909216919091179055565b600260015403613507576040517f3ee5aeb500000000000000000000000000000000000000000000000000000000815260040160405180910390fd5b6002600155565b6000818152600e60209081526040918290208251610160810184528154815260018201546001600160a01b039081169382019390935260028201548316938101939093526003810154606084015260048101548216608084018190526005820154831660a08501526006820154831660c0850152600782015490921660e08401526008810154610100840152600981015461ffff16610120840152600a01546101408301523314610de35760405162461bcd60e51b815260206004820152600560248201526427aba722a960d91b6044820152606401610c0f565b6000848152600e602090815260408083208151610160810183528154815260018201546001600160a01b039081169482019490945260028201548416928101929092526003810154606083015260048101548316608083018190526005820154841660a08401526006820154841660c08401526007820154841660e0840152600880830154610100850152600983015461ffff16610120850152600a909201546101408401529054849384938493909233921682149114806136b7575060c08201516001600160a01b031633145b806136bf5750805b6136f35760405162461bcd60e51b815260206004820152600560248201526427aba722a960d91b6044820152606401610c0f565b8161014001516000036137c8576020808301516040805160808101825260608087015182526001600160a01b038e81169583019586526001600160801b03808f168486019081528e8216938501938452945163fc6f786560e01b815293516004850152955181166024840152925185166044830152519093166064840152169063fc6f78659060840160408051808303816000875af115801561379a573d6000803e3d6000fd5b505050506040513d601f19601f820116820180604052508101906137be91906157d0565b9096509450613bdb565b60008083602001516001600160a01b03166399fbab8885606001516040518263ffffffff1660e01b815260040161380191815260200190565b61018060405180830381865afa15801561381f573d6000803e3d6000fd5b505050506040513d601f19601f820116820180604052508101906138439190615389565b50506040516370a0823160e01b8152306004820152979b5095995060009850506001600160a01b038a1696506370a082319560240194506138849350505050565b602060405180830381865afa1580156138a1573d6000803e3d6000fd5b505050506040513d601f19601f820116820180604052508101906138c5919061546a565b6040516370a0823160e01b81523060048201529091506000906001600160a01b038416906370a0823190602401602060405180830381865afa15801561390f573d6000803e3d6000fd5b505050506040513d601f19601f82011682018060405250810190613933919061546a565b905085602001516001600160a01b031663fc6f7865604051806080016040528089606001518152602001306001600160a01b031681526020018f6001600160801b031681526020018e6001600160801b03168152506040518263ffffffff1660e01b81526004016139e29190815181526020808301516001600160a01b0316908201526040808301516001600160801b0390811691830191909152606092830151169181019190915260800190565b60408051808303816000875af1158015613a00573d6000803e3d6000fd5b505050506040513d601f19601f82011682018060405250810190613a2491906157d0565b50506040516370a0823160e01b815230600482015282906001600160a01b038616906370a0823190602401602060405180830381865afa158015613a6c573d6000803e3d6000fd5b505050506040513d601f19601f82011682018060405250810190613a90919061546a565b613a9a91906154d0565b6040516370a0823160e01b815230600482015290925081906001600160a01b038516906370a0823190602401602060405180830381865afa158015613ae3573d6000803e3d6000fd5b505050506040513d601f19601f82011682018060405250810190613b07919061546a565b613b1191906154d0565b9050600085613b2b57600a546001600160a01b0316613b2d565b8d5b9050600086613b3c578e613b42565b8760e001515b90508315613b8c5761271088610140015185613b5e91906157f4565b613b689190615821565b9950613b7586838c613ea3565b613b7f8a856154d0565b9b50613b8c86828e613ea3565b8215613bd45761271088610140015184613ba691906157f4565b613bb09190615821565b9850613bbd85838b613ea3565b613bc789846154d0565b9a50613bd485828d613ea3565b5050505050505b5050945094509450949050565b6000613bf48383614970565b9392505050565b6000611803825490565b6000546001600160a01b0316331461181b576040517f118cdaa7000000000000000000000000000000000000000000000000000000008152336004820152602401610c0f565b604080516001600160a01b0385811660248301528481166044830152606480830185905283518084039091018152608490920183526020820180516001600160e01b03167f23b872dd000000000000000000000000000000000000000000000000000000001790529151600092839290881691613cc8919061584e565b6000604051808303816000865af19150503d8060008114613d05576040519150601f19603f3d011682016040523d82523d6000602084013e613d0a565b606091505b5091509150818015613d34575080511580613d34575080806020019051810190613d3491906154e3565b613d805760405162461bcd60e51b815260206004820152600360248201527f53544600000000000000000000000000000000000000000000000000000000006044820152606401610c0f565b505050505050565b604080516001600160a01b038481166024830152604480830185905283518084039091018152606490920183526020820180516001600160e01b031663095ea7b360e01b1790529151600092839290871691613de4919061584e565b6000604051808303816000865af19150503d8060008114613e21576040519150601f19603f3d011682016040523d82523d6000602084013e613e26565b606091505b5091509150818015613e50575080511580613e50575080806020019051810190613e5091906154e3565b613e9c5760405162461bcd60e51b815260206004820152600260248201527f53410000000000000000000000000000000000000000000000000000000000006044820152606401610c0f565b5050505050565b604080516001600160a01b038481166024830152604480830185905283518084039091018152606490920183526020820180516001600160e01b03167fa9059cbb000000000000000000000000000000000000000000000000000000001790529151600092839290871691613f18919061584e565b6000604051808303816000865af19150503d8060008114613f55576040519150601f19603f3d011682016040523d82523d6000602084013e613f5a565b606091505b5091509150818015613f84575080511580613f84575080806020019051810190613f8491906154e3565b613e9c5760405162461bcd60e51b815260206004820152600260248201527f53540000000000000000000000000000000000000000000000000000000000006044820152606401610c0f565b6000613bf4836001600160a01b038416614a6a565b600080546001600160a01b038381166001600160a01b0319831681178455604051919092169283917f8be0079c531659141344cd1fd0a4f28419497f9722a3daafe3b4186f6b6457e09190a35050565b6000613bf48383614ab9565b6001600160a01b03811660009081526001830160205260408120541515613bf4565b60008060008360020b1261407a578260020b614087565b8260020b61408790615a03565b9050614096620d89e719615a3b565b60020b8111156140e85760405162461bcd60e51b815260206004820152600160248201527f54000000000000000000000000000000000000000000000000000000000000006044820152606401610c0f565b60008160011660000361410c5770010000000000000000000000000000000061411e565b6ffffcb933bd6fad37aa2d162d1a5940015b70ffffffffffffffffffffffffffffffffff169050600282161561415d576080614158826ffff97272373d413259a46990580e213a6157f4565b901c90505b6004821615614187576080614182826ffff2e50f5f656932ef12357cf3c7fdcc6157f4565b901c90505b60088216156141b15760806141ac826fffe5caca7e10e4e61c3624eaa0941cd06157f4565b901c90505b60108216156141db5760806141d6826fffcb9843d60f6159c9db58835c9266446157f4565b901c90505b6020821615614205576080614200826fff973b41fa98c081472e6896dfb254c06157f4565b901c90505b604082161561422f57608061422a826fff2ea16466c96a3843ec78b326b528616157f4565b901c90505b6080821615614259576080614254826ffe5dee046a99a2a811c461f1969c30536157f4565b901c90505b61010082161561428457608061427f826ffcbe86c7900a88aedcffc83b479aa3a46157f4565b901c90505b6102008216156142af5760806142aa826ff987a7253ac413176f2b074cf7815e546157f4565b901c90505b6104008216156142da5760806142d5826ff3392b0822b70005940c7a398e4b70f36157f4565b901c90505b610800821615614305576080614300826fe7159475a2c29b7443b29c7fa6e889d96157f4565b901c90505b61100082161561433057608061432b826fd097f3bdfd2022b8845ad8f792aa58256157f4565b901c90505b61200082161561435b576080614356826fa9f746462d870fdf8a65dc1f90e061e56157f4565b901c90505b614000821615614386576080614381826f70d869a156d2a1b890bb3df62baf32f76157f4565b901c90505b6180008216156143b15760806143ac826f31be135f97d08fd981231505542fcfa66157f4565b901c90505b620100008216156143dd5760806143d8826f09aa508b5b7a84e1c677de54f3e99bc96157f4565b901c90505b62020000821615614408576080614403826e5d6af8dedb81196699c329225ee6046157f4565b901c90505b6204000082161561443257608061442d826d2216e584f5fa1ea926041bedfe986157f4565b901c90505b6208000082161561445a576080614455826b048a170391f7dc42444e8fa26157f4565b901c90505b60008460020b13156144755761447281600019615821565b90505b61448464010000000082615a5d565b15614490576001614493565b60005b6144a49060ff16602083901c615a71565b949350505050565b600080836001600160a01b0316856001600160a01b031611156144cd579293925b846001600160a01b0316866001600160a01b0316116144f8576144f1858585614ae3565b9150611ad5565b836001600160a01b0316866001600160a01b031610156145315761451d868585614ae3565b915061452a858785614b5f565b9050611ad5565b61453c858585614b5f565b905094509492505050565b60808101516001600160a01b031661465357806060015134146145ac5760405162461bcd60e51b815260206004820152600860248201527f464c4154204645450000000000000000000000000000000000000000000000006044820152606401610c0f565b60095460608201516040516000926001600160a01b031691908381818185875af1925050503d80600081146145fd576040519150601f19603f3d011682016040523d82523d6000602084013e614602565b606091505b5050905080610de35760405162461bcd60e51b815260206004820152601960248201527f47617320746f6b656e207472616e73666572206661696c6564000000000000006044820152606401610c0f565b608081015160095460608301516116ab929133916001600160a01b0390911690613c4b565b60405163133f757160e31b81526004810182905260009081906001600160a01b038516906399fbab889060240161018060405180830381865afa1580156146c3573d6000803e3d6000fd5b505050506040513d601f19601f820116820180604052508101906146e79190615389565b50929e9d5050505050505050505050505050565b6000613bf48383614a6a565b6000818152600e60209081526040808320815161016080820184528254825260018301546001600160a01b039081168387015260028401548116838601526003840154606080850191909152600485015482166080808601919091526005860154831660a0808701919091526006870154841660c080880191909152600788015490941660e080880191909152600888015461010080890191909152600989015461ffff16610120808a0191909152600a90990154610140808a01919091528a5161018081018c528d81529b8c018d9052998b018c9052938a018b90529189018a9052880189905291870188905290860187905285018690529184018590529183018490528201929092526020820151606083015160405163133f757160e31b81526001600160a01b03909216916399fbab889161484b9160040190815260200190565b61018060405180830381865afa158015614869573d6000803e3d6000fd5b505050506040513d601f19601f8201168201806040525081019061488d9190615389565b5050506001600160801b0390911660e0808b0191909152600292830b60c0808c01919091529390920b60a08a01525062ffffff9092166080808901919091526001600160a01b039384166060808a019190915293909416604080890191909152885160208a0151948a0151958a0151928a0151938a01516101008b01516101208c01516101408d01518d86015195517f3bf9c85fbe37d401523942f10940796acef64062e1a1c45647978e32f4969f5c9c5061313e9b50949997959394929391929091908d90615a84565b60008181526001830160205260408120541515613bf4565b60008181526001830160205260408120548015614a595760006149946001836154d0565b85549091506000906149a8906001906154d0565b9050808214614a0d5760008660000182815481106149c8576149c86155ad565b90600052602060002001549050808760000184815481106149eb576149eb6155ad565b6000918252602080832090910192909255918252600188019052604090208390555b8554869080614a1e57614a1e615bbc565b600190038181906000526020600020016000905590558560010160008681526020019081526020016000206000905560019350505050611803565b6000915050611803565b5092915050565b6000818152600183016020526040812054614ab157508154600181810184556000848152602080822090930184905584548482528286019093526040902091909155611803565b506000611803565b6000826000018281548110614ad057614ad06155ad565b9060005260206000200154905092915050565b6000826001600160a01b0316846001600160a01b03161115614b03579192915b6001600160a01b038416614b557bffffffffffffffffffffffffffffffff000000000000000000000000606085901b16614b3d8787615bd2565b6001600160a01b0316866001600160a01b0316614bae565b6144a49190615821565b6000826001600160a01b0316846001600160a01b03161115614b7f579192915b6144a46001600160801b038316614b968686615bd2565b6001600160a01b03166c010000000000000000000000005b6000808060001985870985870292508281108382030391505080600003614be857838281614bde57614bde61580b565b0492505050613bf4565b808411614c375760405162461bcd60e51b815260206004820152601560248201527f4d6174683a206d756c446976206f766572666c6f7700000000000000000000006044820152606401610c0f565b60008486880960026001871981018816978890046003810283188082028403028082028403028082028403028082028403028082028403029081029092039091026000889003889004909101858311909403939093029303949094049190911702949350505050565b508054614cac90615505565b6000825580601f10614cbc575050565b601f0160209004906000526020600020908101906116ab91905b80821115614cea5760008155600101614cd6565b5090565b6001600160a01b03811681146116ab57600080fd5b60008060408385031215614d1657600080fd5b823591506020830135614d2881614cee565b809150509250929050565b600080600060608486031215614d4857600080fd5b8335614d5381614cee565b92506020840135614d6381614cee565b91506040840135614d7381614cee565b809150509250925092565b600080600080600060808688031215614d9657600080fd5b8535614da181614cee565b94506020860135614db181614cee565b935060408601359250606086013567ffffffffffffffff80821115614dd557600080fd5b818801915088601f830112614de957600080fd5b813581811115614df857600080fd5b896020828501011115614e0a57600080fd5b9699959850939650602001949392505050565b60008082840360e0811215614e3157600080fd5b8335925060c0601f1982011215614e4757600080fd5b506020830190509250929050565b600060208284031215614e6757600080fd5b8135613bf481614cee565b6001600160801b03811681146116ab57600080fd5b60008060008060808587031215614e9d57600080fd5b843593506020850135614eaf81614cee565b92506040850135614ebf81614e72565b91506060850135614ecf81614e72565b939692955090935050565b600080600060608486031215614eef57600080fd5b8335614efa81614cee565b92506020840135614f0a81614cee565b929592945050506040919091013590565b600060208284031215614f2d57600080fd5b5035919050565b60005b83811015614f4f578181015183820152602001614f37565b50506000910152565b60008151808452614f70816020860160208601614f34565b601f01601f19169290920160200192915050565b602081526000825160a06020840152614fa060c0840182614f58565b90506020840151604084015260408401516060840152606084015160808401526001600160a01b0360808501511660a08401528091505092915050565b60008060408385031215614ff057600080fd5b8235614ffb81614cee565b946020939093013593505050565b8151815260208083015161016083019161502d908401826001600160a01b03169052565b50604083015161504860408401826001600160a01b03169052565b5060608301516060830152608083015161506d60808401826001600160a01b03169052565b5060a083015161508860a08401826001600160a01b03169052565b5060c08301516150a360c08401826001600160a01b03169052565b5060e08301516150be60e08401826001600160a01b03169052565b5061010083810151908301526101208084015161ffff811682850152505061014092830151919092015290565b8060020b81146116ab57600080fd5b6000806000806080858703121561511057600080fd5b843561511b816150eb565b9350602085013561512b816150eb565b92506040850135614ebf816150eb565b60006020828403121561514d57600080fd5b813567ffffffffffffffff81111561516457600080fd5b82016101408185031215613bf457600080fd5b6000806040838503121561518a57600080fd5b50508035926020909101359150565b634e487b7160e01b600052604160045260246000fd5b60405160a0810167ffffffffffffffff811182821017156151d2576151d2615199565b60405290565b604051601f8201601f1916810167ffffffffffffffff8111828210171561520157615201615199565b604052919050565b600067ffffffffffffffff82111561522357615223615199565b50601f01601f191660200190565b600082601f83011261524257600080fd5b813561525561525082615209565b6151d8565b81815284602083860101111561526a57600080fd5b816020850160208301376000918101602001919091529392505050565b60006020828403121561529957600080fd5b813567ffffffffffffffff8111156152b057600080fd5b6144a484828501615231565b600080600080600060a086880312156152d457600080fd5b853567ffffffffffffffff8111156152eb57600080fd5b6152f788828901615231565b955050602086013593506040860135925060608601359150608086013561531d81614cee565b809150509295509295909350565b60008082840360c081121561533f57600080fd5b8335925060a0601f1982011215614e4757600080fd5b805161278281614cee565b805162ffffff8116811461278257600080fd5b8051612782816150eb565b805161278281614e72565b6000806000806000806000806000806000806101808d8f0312156153ac57600080fd5b8c516bffffffffffffffffffffffff811681146153c857600080fd5b9b506153d660208e01615355565b9a506153e460408e01615355565b99506153f260608e01615355565b985061540060808e01615360565b975061540e60a08e01615373565b965061541c60c08e01615373565b955061542a60e08e0161537e565b94506101008d015193506101208d015192506154496101408e0161537e565b91506154586101608e0161537e565b90509295989b509295989b509295989b565b60006020828403121561547c57600080fd5b5051919050565b60008060006060848603121561549857600080fd5b83516154a381614e72565b602085015160409095015190969495509392505050565b634e487b7160e01b600052601160045260246000fd5b81810381811115611803576118036154ba565b6000602082840312156154f557600080fd5b81518015158114613bf457600080fd5b600181811c9082168061551957607f821691505b60208210810361553957634e487b7160e01b600052602260045260246000fd5b50919050565b60006020828403121561555157600080fd5b813561ffff81168114613bf457600080fd5b6000808335601e1984360301811261557a57600080fd5b83018035915067ffffffffffffffff82111561559557600080fd5b6020019150600581901b360382131561344657600080fd5b634e487b7160e01b600052603260045260246000fd5b6000808335601e198436030181126155da57600080fd5b83018035915067ffffffffffffffff8211156155f557600080fd5b60200191503681900382131561344657600080fd5b81835281816020850137506000828201602090810191909152601f909101601f19169091010190565b6040808252810183905260006060600585901b8301810190830186835b878110156156c457858403605f190183528135368a9003601e1901811261567657600080fd5b8901602081810191359067ffffffffffffffff82111561569557600080fd5b8136038313156156a457600080fd5b6156af87838561560a565b96509485019493909301925050600101615650565b5050506001600160a01b038416602084015290506144a4565b600060208083850312156156f057600080fd5b825167ffffffffffffffff8082111561570857600080fd5b9084019060a0828703121561571c57600080fd5b6157246151af565b82518281111561573357600080fd5b83019150601f8201871361574657600080fd5b815161575461525082615209565b818152888683860101111561576857600080fd5b61577782878301888701614f34565b8083525050838301518482015260408301516040820152606083015160608201526157a460808401615355565b60808201529695505050505050565b6000602082840312156157c557600080fd5b8151613bf481614cee565b600080604083850312156157e357600080fd5b505080516020909101519092909150565b8082028115828204841417611803576118036154ba565b634e487b7160e01b600052601260045260246000fd5b6000826158305761583061580b565b500490565b600060018201615847576158476154ba565b5060010190565b60008251615860818460208701614f34565b9190910192915050565b601f8211156113b5576000816000526020600020601f850160051c810160208610156158935750805b601f850160051c820191505b81811015613d805782815560010161589f565b815167ffffffffffffffff8111156158cc576158cc615199565b6158e0816158da8454615505565b8461586a565b602080601f83116001811461591557600084156158fd5750858301515b600019600386901b1c1916600185901b178555613d80565b600085815260208120601f198616915b8281101561594457888601518255948401946001909101908401615925565b50858210156159625787850151600019600388901b60f8161c191681555b5050505050600190811b01905550565b86815260c06020820152600061598b60c0830188614f58565b90508560408301528460608301528360808301526001600160a01b03831660a0830152979650505050505050565b8135815260a0810160208301356159cf81614e72565b6001600160801b03811660208401525060408301356040830152606083013560608301526080830135608083015292915050565b60007f80000000000000000000000000000000000000000000000000000000000000008203615a3457615a346154ba565b5060000390565b60008160020b627fffff198103615a5457615a546154ba565b60000392915050565b600082615a6c57615a6c61580b565b500690565b80820180821115611803576118036154ba565b60006102c0820190508c82526001600160a01b03808d1660208401528b6040840152808b166060840152808a16608084015280891660a08401528760c084015261ffff871660e08401526101008681850152610120828716818601526101409250615aff83860187516bffffffffffffffffffffffff169052565b6020860151610160615b1b818801836001600160a01b03169052565b60408801516001600160a01b039081166101808901526060890151166101a0880152608088015162ffffff166101c088015260a0880151600290810b6101e089015260c0890151900b61020088015260e08801516001600160801b039081166102208901529388015161024088015291870151610260870152509185015181166102808501529301519092166102a0909101529a9950505050505050505050565b634e487b7160e01b600052603160045260246000fd5b6001600160a01b03828116828216039080821115614a6357614a636154ba56fea264697066735822122031cb41efcaa805d32896a9f8780b685d901e42154d7f6af4d613f1868c62eb7464736f6c63430008180033",
  "linkReferences": {},
  "deployedLinkReferences": {}
}