{
  "_format": "hh-sol-artifact-1",
  "contractName": "LiquidityLockerV3",
  "sourceName": "contracts/v3-liquidty-locker/LiquidityLockerV3.sol",
  "abi": [
    {
      "inputs": [
        {
          "internalType": "contract ICountryList",
          "name": "_countryList",
          "type": "address"
        },
        {
          "internalType": "address payable",
          "name": "_autoCollectAddress",
          "type": "address"
        },
        {
          "internalType": "address payable",
          "name": "_lpFeeReceiver",
          "type": "address"
        },
        {
          "internalType": "address payable",
          "name": "_collectFeeReceiver",
          "type": "address"
        }
      ],
      "stateMutability": "nonpayable",
      "type": "constructor"
    },
    {
      "inputs": [
        {
          "internalType": "address",
          "name": "owner",
          "type": "address"
        }
      ],
      "name": "OwnableInvalidOwner",
      "type": "error"
    },
    {
      "inputs": [
        {
          "internalType": "address",
          "name": "account",
          "type": "address"
        }
      ],
      "name": "OwnableUnauthorizedAccount",
      "type": "error"
    },
    {
      "inputs": [],
      "name": "ReentrancyGuardReentrantCall",
      "type": "error"
    },
    {
      "anonymous": false,
      "inputs": [
        {
          "indexed": false,
          "internalType": "address",
          "name": "nftPositionManager",
          "type": "address"
        }
      ],
      "name": "OnAllowNftPositionManager",
      "type": "event"
    },
    {
      "anonymous": false,
      "inputs": [
        {
          "indexed": true,
          "internalType": "address",
          "name": "previousOwner",
          "type": "address"
        },
        {
          "indexed": true,
          "internalType": "address",
          "name": "newOwner",
          "type": "address"
        }
      ],
      "name": "OwnershipTransferred",
      "type": "event"
    },
    {
      "anonymous": false,
      "inputs": [
        {
          "indexed": false,
          "internalType": "bytes32",
          "name": "nameHash",
          "type": "bytes32"
        },
        {
          "indexed": false,
          "internalType": "string",
          "name": "name",
          "type": "string"
        },
        {
          "indexed": false,
          "internalType": "uint256",
          "name": "lpFee",
          "type": "uint256"
        },
        {
          "indexed": false,
          "internalType": "uint256",
          "name": "collectFee",
          "type": "uint256"
        },
        {
          "indexed": false,
          "internalType": "uint256",
          "name": "flatFee",
          "type": "uint256"
        },
        {
          "indexed": false,
          "internalType": "address",
          "name": "flatFeeToken",
          "type": "address"
        }
      ],
      "name": "onAddFee",
      "type": "event"
    },
    {
      "anonymous": false,
      "inputs": [
        {
          "indexed": false,
          "internalType": "uint256",
          "name": "lockId",
          "type": "uint256"
        }
      ],
      "name": "onDecreaseLiquidity",
      "type": "event"
    },
    {
      "anonymous": false,
      "inputs": [
        {
          "indexed": false,
          "internalType": "bytes32",
          "name": "nameHash",
          "type": "bytes32"
        },
        {
          "indexed": false,
          "internalType": "string",
          "name": "name",
          "type": "string"
        },
        {
          "indexed": false,
          "internalType": "uint256",
          "name": "lpFee",
          "type": "uint256"
        },
        {
          "indexed": false,
          "internalType": "uint256",
          "name": "collectFee",
          "type": "uint256"
        },
        {
          "indexed": false,
          "internalType": "uint256",
          "name": "flatFee",
          "type": "uint256"
        },
        {
          "indexed": false,
          "internalType": "address",
          "name": "flatFeeToken",
          "type": "address"
        }
      ],
      "name": "onEditFee",
      "type": "event"
    },
    {
      "anonymous": false,
      "inputs": [
        {
          "indexed": false,
          "internalType": "uint256",
          "name": "lockId",
          "type": "uint256"
        }
      ],
      "name": "onIncreaseLiquidity",
      "type": "event"
    },
    {
      "anonymous": false,
      "inputs": [
        {
          "indexed": false,
          "internalType": "uint256",
          "name": "lock_id",
          "type": "uint256"
        },
        {
          "indexed": false,
          "internalType": "address",
          "name": "nftPositionManager",
          "type": "address"
        },
        {
          "indexed": false,
          "internalType": "uint256",
          "name": "nft_id",
          "type": "uint256"
        },
        {
          "indexed": false,
          "internalType": "address",
          "name": "owner",
          "type": "address"
        },
        {
          "indexed": false,
          "internalType": "address",
          "name": "additionalCollector",
          "type": "address"
        },
        {
          "indexed": false,
          "internalType": "address",
          "name": "collectAddress",
          "type": "address"
        },
        {
          "indexed": false,
          "internalType": "uint256",
          "name": "unlockDate",
          "type": "uint256"
        },
        {
          "indexed": false,
          "internalType": "uint16",
          "name": "countryCode",
          "type": "uint16"
        },
        {
          "indexed": false,
          "internalType": "uint256",
          "name": "collectFee",
          "type": "uint256"
        },
        {
          "indexed": false,
          "internalType": "address",
          "name": "poolAddress",
          "type": "address"
        },
        {
          "components": [
            {
              "internalType": "uint96",
              "name": "nonce",
              "type": "uint96"
            },
            {
              "internalType": "address",
              "name": "operator",
              "type": "address"
            },
            {
              "internalType": "address",
              "name": "token0",
              "type": "address"
            },
            {
              "internalType": "address",
              "name": "token1",
              "type": "address"
            },
            {
              "internalType": "uint24",
              "name": "fee",
              "type": "uint24"
            },
            {
              "internalType": "int24",
              "name": "tickLower",
              "type": "int24"
            },
            {
              "internalType": "int24",
              "name": "tickUpper",
              "type": "int24"
            },
            {
              "internalType": "uint128",
              "name": "liquidity",
              "type": "uint128"
            },
            {
              "internalType": "uint256",
              "name": "feeGrowthInside0LastX128",
              "type": "uint256"
            },
            {
              "internalType": "uint256",
              "name": "feeGrowthInside1LastX128",
              "type": "uint256"
            },
            {
              "internalType": "uint128",
              "name": "tokensOwed0",
              "type": "uint128"
            },
            {
              "internalType": "uint128",
              "name": "tokensOwed1",
              "type": "uint128"
            }
          ],
          "indexed": false,
          "internalType": "struct INonfungiblePositionManager.Position",
          "name": "position",
          "type": "tuple"
        }
      ],
      "name": "onLock",
      "type": "event"
    },
    {
      "anonymous": false,
      "inputs": [
        {
          "indexed": false,
          "internalType": "uint256",
          "name": "lockId",
          "type": "uint256"
        },
        {
          "indexed": false,
          "internalType": "address",
          "name": "currentOwner",
          "type": "address"
        },
        {
          "indexed": false,
          "internalType": "address",
          "name": "pendingOwner",
          "type": "address"
        }
      ],
      "name": "onLockOwnershipTransferStarted",
      "type": "event"
    },
    {
      "anonymous": false,
      "inputs": [
        {
          "indexed": false,
          "internalType": "uint256",
          "name": "lockId",
          "type": "uint256"
        }
      ],
      "name": "onMigrate",
      "type": "event"
    },
    {
      "anonymous": false,
      "inputs": [
        {
          "indexed": false,
          "internalType": "uint256",
          "name": "lockId",
          "type": "uint256"
        },
        {
          "indexed": false,
          "internalType": "uint256",
          "name": "unlockDate",
          "type": "uint256"
        }
      ],
      "name": "onRelock",
      "type": "event"
    },
    {
      "anonymous": false,
      "inputs": [
        {
          "indexed": false,
          "internalType": "bytes32",
          "name": "nameHash",
          "type": "bytes32"
        }
      ],
      "name": "onRemoveFee",
      "type": "event"
    },
    {
      "anonymous": false,
      "inputs": [
        {
          "indexed": false,
          "internalType": "uint256",
          "name": "lockId",
          "type": "uint256"
        },
        {
          "indexed": false,
          "internalType": "address",
          "name": "additionalCollector",
          "type": "address"
        }
      ],
      "name": "onSetAdditionalCollector",
      "type": "event"
    },
    {
      "anonymous": false,
      "inputs": [
        {
          "indexed": false,
          "internalType": "uint256",
          "name": "lockId",
          "type": "uint256"
        },
        {
          "indexed": false,
          "internalType": "address",
          "name": "collectAddress",
          "type": "address"
        }
      ],
      "name": "onSetCollectAddress",
      "type": "event"
    },
    {
      "anonymous": false,
      "inputs": [
        {
          "indexed": false,
          "internalType": "address",
          "name": "migrator",
          "type": "address"
        }
      ],
      "name": "onSetMigrator",
      "type": "event"
    },
    {
      "anonymous": false,
      "inputs": [
        {
          "indexed": false,
          "internalType": "uint256",
          "name": "lockId",
          "type": "uint256"
        },
        {
          "indexed": false,
          "internalType": "uint256",
          "name": "ucf",
          "type": "uint256"
        }
      ],
      "name": "onSetUCF",
      "type": "event"
    },
    {
      "anonymous": false,
      "inputs": [
        {
          "indexed": false,
          "internalType": "uint256",
          "name": "lockId",
          "type": "uint256"
        },
        {
          "indexed": false,
          "internalType": "address",
          "name": "oldOwner",
          "type": "address"
        },
        {
          "indexed": false,
          "internalType": "address",
          "name": "newOwner",
          "type": "address"
        },
        {
          "indexed": false,
          "internalType": "address",
          "name": "newCollectAddress",
          "type": "address"
        }
      ],
      "name": "onTransferLockOwnership",
      "type": "event"
    },
    {
      "anonymous": false,
      "inputs": [
        {
          "indexed": false,
          "internalType": "uint256",
          "name": "lock_id",
          "type": "uint256"
        },
        {
          "indexed": false,
          "internalType": "address",
          "name": "owner",
          "type": "address"
        },
        {
          "indexed": false,
          "internalType": "address",
          "name": "receiver",
          "type": "address"
        }
      ],
      "name": "onWithdraw",
      "type": "event"
    },
    {
      "inputs": [],
      "name": "AUTO_COLLECT_ACCOUNT",
      "outputs": [
        {
          "internalType": "address",
          "name": "",
          "type": "address"
        }
      ],
      "stateMutability": "view",
      "type": "function"
    },
    {
      "inputs": [],
      "name": "COUNTRY_LIST",
      "outputs": [
        {
          "internalType": "contract ICountryList",
          "name": "",
          "type": "address"
        }
      ],
      "stateMutability": "view",
      "type": "function"
    },
    {
      "inputs": [],
      "name": "ETERNAL_LOCK",
      "outputs": [
        {
          "internalType": "uint256",
          "name": "",
          "type": "uint256"
        }
      ],
      "stateMutability": "view",
      "type": "function"
    },
    {
      "inputs": [],
      "name": "FEE_ADDR_COLLECT",
      "outputs": [
        {
          "internalType": "address payable",
          "name": "",
          "type": "address"
        }
      ],
      "stateMutability": "view",
      "type": "function"
    },
    {
      "inputs": [],
      "name": "FEE_ADDR_LP",
      "outputs": [
        {
          "internalType": "address payable",
          "name": "",
          "type": "address"
        }
      ],
      "stateMutability": "view",
      "type": "function"
    },
    {
      "inputs": [],
      "name": "FEE_DENOMINATOR",
      "outputs": [
        {
          "internalType": "uint256",
          "name": "",
          "type": "uint256"
        }
      ],
      "stateMutability": "view",
      "type": "function"
    },
    {
      "inputs": [],
      "name": "FEE_RESOLVER",
      "outputs": [
        {
          "internalType": "contract IFeeResolver",
          "name": "",
          "type": "address"
        }
      ],
      "stateMutability": "view",
      "type": "function"
    },
    {
      "inputs": [
        {
          "internalType": "uint256",
          "name": "lockId",
          "type": "uint256"
        }
      ],
      "name": "LOCKS",
      "outputs": [
        {
          "internalType": "uint256",
          "name": "lock_id",
          "type": "uint256"
        },
        {
          "internalType": "contract INonfungiblePositionManager",
          "name": "nftPositionManager",
          "type": "address"
        },
        {
          "internalType": "address",
          "name": "pool",
          "type": "address"
        },
        {
          "internalType": "uint256",
          "name": "nft_id",
          "type": "uint256"
        },
        {
          "internalType": "address",
          "name": "owner",
          "type": "address"
        },
        {
          "internalType": "address",
          "name": "pendingOwner",
          "type": "address"
        },
        {
          "internalType": "address",
          "name": "additionalCollector",
          "type": "address"
        },
        {
          "internalType": "address",
          "name": "collectAddress",
          "type": "address"
        },
        {
          "internalType": "uint256",
          "name": "unlockDate",
          "type": "uint256"
        },
        {
          "internalType": "uint16",
          "name": "countryCode",
          "type": "uint16"
        },
        {
          "internalType": "uint256",
          "name": "ucf",
          "type": "uint256"
        }
      ],
      "stateMutability": "view",
      "type": "function"
    },
    {
      "inputs": [],
      "name": "MIGRATE_IN",
      "outputs": [
        {
          "internalType": "address",
          "name": "",
          "type": "address"
        }
      ],
      "stateMutability": "view",
      "type": "function"
    },
    {
      "inputs": [],
      "name": "MIGRATOR",
      "outputs": [
        {
          "internalType": "contract IMigrateV3NFT",
          "name": "",
          "type": "address"
        }
      ],
      "stateMutability": "view",
      "type": "function"
    },
    {
      "inputs": [],
      "name": "NONCE",
      "outputs": [
        {
          "internalType": "uint256",
          "name": "",
          "type": "uint256"
        }
      ],
      "stateMutability": "view",
      "type": "function"
    },
    {
      "inputs": [
        {
          "internalType": "uint256",
          "name": "_lockId",
          "type": "uint256"
        },
        {
          "internalType": "address",
          "name": "_collectAddress",
          "type": "address"
        }
      ],
      "name": "acceptLockOwnership",
      "outputs": [],
      "stateMutability": "nonpayable",
      "type": "function"
    },
    {
      "inputs": [
        {
          "internalType": "string",
          "name": "_name",
          "type": "string"
        },
        {
          "internalType": "uint256",
          "name": "_lpFee",
          "type": "uint256"
        },
        {
          "internalType": "uint256",
          "name": "_collectFee",
          "type": "uint256"
        },
        {
          "internalType": "uint256",
          "name": "_flatFee",
          "type": "uint256"
        },
        {
          "internalType": "address",
          "name": "_flatFeeToken",
          "type": "address"
        }
      ],
      "name": "addOrEditFee",
      "outputs": [],
      "stateMutability": "nonpayable",
      "type": "function"
    },
    {
      "inputs": [
        {
          "internalType": "address",
          "name": "_token",
          "type": "address"
        },
        {
          "internalType": "address",
          "name": "_receiver",
          "type": "address"
        },
        {
          "internalType": "uint256",
          "name": "_amount",
          "type": "uint256"
        }
      ],
      "name": "adminRefundERC20",
      "outputs": [],
      "stateMutability": "nonpayable",
      "type": "function"
    },
    {
      "inputs": [
        {
          "internalType": "uint256",
          "name": "_amount",
          "type": "uint256"
        },
        {
          "internalType": "address payable",
          "name": "_receiver",
          "type": "address"
        }
      ],
      "name": "adminRefundEth",
      "outputs": [],
      "stateMutability": "nonpayable",
      "type": "function"
    },
    {
      "inputs": [
        {
          "internalType": "address",
          "name": "_nftPositionManager",
          "type": "address"
        }
      ],
      "name": "allowNftPositionManager",
      "outputs": [],
      "stateMutability": "nonpayable",
      "type": "function"
    },
    {
      "inputs": [
        {
          "internalType": "uint256",
          "name": "_lockId",
          "type": "uint256"
        },
        {
          "internalType": "address",
          "name": "_recipient",
          "type": "address"
        },
        {
          "internalType": "uint128",
          "name": "_amount0Max",
          "type": "uint128"
        },
        {
          "internalType": "uint128",
          "name": "_amount1Max",
          "type": "uint128"
        }
      ],
      "name": "collect",
      "outputs": [
        {
          "internalType": "uint256",
          "name": "amount0",
          "type": "uint256"
        },
        {
          "internalType": "uint256",
          "name": "amount1",
          "type": "uint256"
        },
        {
          "internalType": "uint256",
          "name": "fee0",
          "type": "uint256"
        },
        {
          "internalType": "uint256",
          "name": "fee1",
          "type": "uint256"
        }
      ],
      "stateMutability": "nonpayable",
      "type": "function"
    },
    {
      "inputs": [
        {
          "internalType": "uint256",
          "name": "_lockId",
          "type": "uint256"
        },
        {
          "components": [
            {
              "internalType": "uint256",
              "name": "tokenId",
              "type": "uint256"
            },
            {
              "internalType": "uint128",
              "name": "liquidity",
              "type": "uint128"
            },
            {
              "internalType": "uint256",
              "name": "amount0Min",
              "type": "uint256"
            },
            {
              "internalType": "uint256",
              "name": "amount1Min",
              "type": "uint256"
            },
            {
              "internalType": "uint256",
              "name": "deadline",
              "type": "uint256"
            }
          ],
          "internalType": "struct INonfungiblePositionManager.DecreaseLiquidityParams",
          "name": "params",
          "type": "tuple"
        }
      ],
      "name": "decreaseLiquidity",
      "outputs": [
        {
          "internalType": "uint256",
          "name": "amount0",
          "type": "uint256"
        },
        {
          "internalType": "uint256",
          "name": "amount1",
          "type": "uint256"
        }
      ],
      "stateMutability": "payable",
      "type": "function"
    },
    {
      "inputs": [
        {
          "internalType": "int24",
          "name": "currentTick",
          "type": "int24"
        },
        {
          "internalType": "int24",
          "name": "tickLower",
          "type": "int24"
        },
        {
          "internalType": "int24",
          "name": "tickHigher",
          "type": "int24"
        },
        {
          "internalType": "uint128",
          "name": "liquidity",
          "type": "uint128"
        }
      ],
      "name": "getAmountsForLiquidity",
      "outputs": [
        {
          "internalType": "uint256",
          "name": "",
          "type": "uint256"
        },
        {
          "internalType": "uint256",
          "name": "",
          "type": "uint256"
        }
      ],
      "stateMutability": "pure",
      "type": "function"
    },
    {
      "inputs": [
        {
          "internalType": "string",
          "name": "_name",
          "type": "string"
        }
      ],
      "name": "getFee",
      "outputs": [
        {
          "components": [
            {
              "internalType": "string",
              "name": "name",
              "type": "string"
            },
            {
              "internalType": "uint256",
              "name": "lpFee",
              "type": "uint256"
            },
            {
              "internalType": "uint256",
              "name": "collectFee",
              "type": "uint256"
            },
            {
              "internalType": "uint256",
              "name": "flatFee",
              "type": "uint256"
            },
            {
              "internalType": "address",
              "name": "flatFeeToken",
              "type": "address"
            }
          ],
          "internalType": "struct ILiquidityLockerV3.FeeStruct",
          "name": "",
          "type": "tuple"
        }
      ],
      "stateMutability": "view",
      "type": "function"
    },
    {
      "inputs": [
        {
          "internalType": "uint256",
          "name": "_index",
          "type": "uint256"
        }
      ],
      "name": "getFeeOptionAtIndex",
      "outputs": [
        {
          "components": [
            {
              "internalType": "string",
              "name": "name",
              "type": "string"
            },
            {
              "internalType": "uint256",
              "name": "lpFee",
              "type": "uint256"
            },
            {
              "internalType": "uint256",
              "name": "collectFee",
              "type": "uint256"
            },
            {
              "internalType": "uint256",
              "name": "flatFee",
              "type": "uint256"
            },
            {
              "internalType": "address",
              "name": "flatFeeToken",
              "type": "address"
            }
          ],
          "internalType": "struct ILiquidityLockerV3.FeeStruct",
          "name": "",
          "type": "tuple"
        }
      ],
      "stateMutability": "view",
      "type": "function"
    },
    {
      "inputs": [],
      "name": "getFeeOptionLength",
      "outputs": [
        {
          "internalType": "uint256",
          "name": "",
          "type": "uint256"
        }
      ],
      "stateMutability": "view",
      "type": "function"
    },
    {
      "inputs": [
        {
          "internalType": "uint256",
          "name": "_lockId",
          "type": "uint256"
        }
      ],
      "name": "getLock",
      "outputs": [
        {
          "components": [
            {
              "internalType": "uint256",
              "name": "lock_id",
              "type": "uint256"
            },
            {
              "internalType": "contract INonfungiblePositionManager",
              "name": "nftPositionManager",
              "type": "address"
            },
            {
              "internalType": "address",
              "name": "pool",
              "type": "address"
            },
            {
              "internalType": "uint256",
              "name": "nft_id",
              "type": "uint256"
            },
            {
              "internalType": "address",
              "name": "owner",
              "type": "address"
            },
            {
              "internalType": "address",
              "name": "pendingOwner",
              "type": "address"
            },
            {
              "internalType": "address",
              "name": "additionalCollector",
              "type": "address"
            },
            {
              "internalType": "address",
              "name": "collectAddress",
              "type": "address"
            },
            {
              "internalType": "uint256",
              "name": "unlockDate",
              "type": "uint256"
            },
            {
              "internalType": "uint16",
              "name": "countryCode",
              "type": "uint16"
            },
            {
              "internalType": "uint256",
              "name": "ucf",
              "type": "uint256"
            }
          ],
          "internalType": "struct ILiquidityLockerV3.Lock",
          "name": "_lock",
          "type": "tuple"
        }
      ],
      "stateMutability": "view",
      "type": "function"
    },
    {
      "inputs": [],
      "name": "getLocksLength",
      "outputs": [
        {
          "internalType": "uint256",
          "name": "",
          "type": "uint256"
        }
      ],
      "stateMutability": "view",
      "type": "function"
    },
    {
      "inputs": [
        {
          "internalType": "address",
          "name": "_user",
          "type": "address"
        }
      ],
      "name": "getNumUserLocks",
      "outputs": [
        {
          "internalType": "uint256",
          "name": "",
          "type": "uint256"
        }
      ],
      "stateMutability": "view",
      "type": "function"
    },
    {
      "inputs": [
        {
          "internalType": "address",
          "name": "_user",
          "type": "address"
        },
        {
          "internalType": "uint256",
          "name": "_index",
          "type": "uint256"
        }
      ],
      "name": "getUserLockAtIndex",
      "outputs": [
        {
          "components": [
            {
              "internalType": "uint256",
              "name": "lock_id",
              "type": "uint256"
            },
            {
              "internalType": "contract INonfungiblePositionManager",
              "name": "nftPositionManager",
              "type": "address"
            },
            {
              "internalType": "address",
              "name": "pool",
              "type": "address"
            },
            {
              "internalType": "uint256",
              "name": "nft_id",
              "type": "uint256"
            },
            {
              "internalType": "address",
              "name": "owner",
              "type": "address"
            },
            {
              "internalType": "address",
              "name": "pendingOwner",
              "type": "address"
            },
            {
              "internalType": "address",
              "name": "additionalCollector",
              "type": "address"
            },
            {
              "internalType": "address",
              "name": "collectAddress",
              "type": "address"
            },
            {
              "internalType": "uint256",
              "name": "unlockDate",
              "type": "uint256"
            },
            {
              "internalType": "uint16",
              "name": "countryCode",
              "type": "uint16"
            },
            {
              "internalType": "uint256",
              "name": "ucf",
              "type": "uint256"
            }
          ],
          "internalType": "struct ILiquidityLockerV3.Lock",
          "name": "",
          "type": "tuple"
        }
      ],
      "stateMutability": "view",
      "type": "function"
    },
    {
      "inputs": [
        {
          "internalType": "uint256",
          "name": "_lockId",
          "type": "uint256"
        },
        {
          "components": [
            {
              "internalType": "uint256",
              "name": "tokenId",
              "type": "uint256"
            },
            {
              "internalType": "uint256",
              "name": "amount0Desired",
              "type": "uint256"
            },
            {
              "internalType": "uint256",
              "name": "amount1Desired",
              "type": "uint256"
            },
            {
              "internalType": "uint256",
              "name": "amount0Min",
              "type": "uint256"
            },
            {
              "internalType": "uint256",
              "name": "amount1Min",
              "type": "uint256"
            },
            {
              "internalType": "uint256",
              "name": "deadline",
              "type": "uint256"
            }
          ],
          "internalType": "struct INonfungiblePositionManager.IncreaseLiquidityParams",
          "name": "params",
          "type": "tuple"
        }
      ],
      "name": "increaseLiquidity",
      "outputs": [
        {
          "internalType": "uint128",
          "name": "liquidity",
          "type": "uint128"
        },
        {
          "internalType": "uint256",
          "name": "amount0",
          "type": "uint256"
        },
        {
          "internalType": "uint256",
          "name": "amount1",
          "type": "uint256"
        }
      ],
      "stateMutability": "payable",
      "type": "function"
    },
    {
      "inputs": [
        {
          "components": [
            {
              "internalType": "contract INonfungiblePositionManager",
              "name": "nftPositionManager",
              "type": "address"
            },
            {
              "internalType": "uint256",
              "name": "nft_id",
              "type": "uint256"
            },
            {
              "internalType": "address",
              "name": "dustRecipient",
              "type": "address"
            },
            {
              "internalType": "address",
              "name": "owner",
              "type": "address"
            },
            {
              "internalType": "address",
              "name": "additionalCollector",
              "type": "address"
            },
            {
              "internalType": "address",
              "name": "collectAddress",
              "type": "address"
            },
            {
              "internalType": "uint256",
              "name": "unlockDate",
              "type": "uint256"
            },
            {
              "internalType": "uint16",
              "name": "countryCode",
              "type": "uint16"
            },
            {
              "internalType": "string",
              "name": "feeName",
              "type": "string"
            },
            {
              "internalType": "bytes[]",
              "name": "r",
              "type": "bytes[]"
            }
          ],
          "internalType": "struct ILiquidityLockerV3.LockParams",
          "name": "params",
          "type": "tuple"
        }
      ],
      "name": "lock",
      "outputs": [
        {
          "internalType": "uint256",
          "name": "",
          "type": "uint256"
        }
      ],
      "stateMutability": "payable",
      "type": "function"
    },
    {
      "inputs": [
        {
          "internalType": "uint256",
          "name": "_lockId",
          "type": "uint256"
        }
      ],
      "name": "migrate",
      "outputs": [],
      "stateMutability": "nonpayable",
      "type": "function"
    },
    {
      "inputs": [
        {
          "internalType": "address",
          "name": "_nftPositionManager",
          "type": "address"
        }
      ],
      "name": "nftPositionManagerIsAllowed",
      "outputs": [
        {
          "internalType": "bool",
          "name": "",
          "type": "bool"
        }
      ],
      "stateMutability": "view",
      "type": "function"
    },
    {
      "inputs": [
        {
          "internalType": "address",
          "name": "operator",
          "type": "address"
        },
        {
          "internalType": "address",
          "name": "from",
          "type": "address"
        },
        {
          "internalType": "uint256",
          "name": "tokenId",
          "type": "uint256"
        },
        {
          "internalType": "bytes",
          "name": "data",
          "type": "bytes"
        }
      ],
      "name": "onERC721Received",
      "outputs": [
        {
          "internalType": "bytes4",
          "name": "",
          "type": "bytes4"
        }
      ],
      "stateMutability": "nonpayable",
      "type": "function"
    },
    {
      "inputs": [],
      "name": "owner",
      "outputs": [
        {
          "internalType": "address",
          "name": "",
          "type": "address"
        }
      ],
      "stateMutability": "view",
      "type": "function"
    },
    {
      "inputs": [
        {
          "internalType": "uint256",
          "name": "_lockId",
          "type": "uint256"
        },
        {
          "internalType": "uint256",
          "name": "_unlockDate",
          "type": "uint256"
        }
      ],
      "name": "relock",
      "outputs": [],
      "stateMutability": "nonpayable",
      "type": "function"
    },
    {
      "inputs": [
        {
          "internalType": "string",
          "name": "_name",
          "type": "string"
        }
      ],
      "name": "removeFee",
      "outputs": [],
      "stateMutability": "nonpayable",
      "type": "function"
    },
    {
      "inputs": [],
      "name": "renounceOwnership",
      "outputs": [],
      "stateMutability": "nonpayable",
      "type": "function"
    },
    {
      "inputs": [
        {
          "internalType": "uint256",
          "name": "_lockId",
          "type": "uint256"
        },
        {
          "internalType": "address",
          "name": "_additionalCollector",
          "type": "address"
        }
      ],
      "name": "setAdditionalCollector",
      "outputs": [],
      "stateMutability": "nonpayable",
      "type": "function"
    },
    {
      "inputs": [
        {
          "internalType": "uint256",
          "name": "_lockId",
          "type": "uint256"
        },
        {
          "internalType": "address",
          "name": "_collectAddress",
          "type": "address"
        }
      ],
      "name": "setCollectAddress",
      "outputs": [],
      "stateMutability": "nonpayable",
      "type": "function"
    },
    {
      "inputs": [
        {
          "internalType": "address",
          "name": "_autoCollectAccount",
          "type": "address"
        },
        {
          "internalType": "address payable",
          "name": "_lpFeeReceiver",
          "type": "address"
        },
        {
          "internalType": "address payable",
          "name": "_collectFeeReceiver",
          "type": "address"
        }
      ],
      "name": "setFeeParams",
      "outputs": [],
      "stateMutability": "nonpayable",
      "type": "function"
    },
    {
      "inputs": [
        {
          "internalType": "contract IFeeResolver",
          "name": "_resolver",
          "type": "address"
        }
      ],
      "name": "setFeeResolver",
      "outputs": [],
      "stateMutability": "nonpayable",
      "type": "function"
    },
    {
      "inputs": [
        {
          "internalType": "address",
          "name": "_migrateIn",
          "type": "address"
        }
      ],
      "name": "setMigrateInContract",
      "outputs": [],
      "stateMutability": "nonpayable",
      "type": "function"
    },
    {
      "inputs": [
        {
          "internalType": "address",
          "name": "_migrator",
          "type": "address"
        }
      ],
      "name": "setMigrator",
      "outputs": [],
      "stateMutability": "nonpayable",
      "type": "function"
    },
    {
      "inputs": [
        {
          "internalType": "uint256",
          "name": "_lockId",
          "type": "uint256"
        },
        {
          "internalType": "uint256",
          "name": "_ucf",
          "type": "uint256"
        }
      ],
      "name": "setUCF",
      "outputs": [],
      "stateMutability": "nonpayable",
      "type": "function"
    },
    {
      "inputs": [
        {
          "internalType": "uint256",
          "name": "_lockId",
          "type": "uint256"
        },
        {
          "internalType": "address",
          "name": "_newOwner",
          "type": "address"
        }
      ],
      "name": "transferLockOwnership",
      "outputs": [],
      "stateMutability": "nonpayable",
      "type": "function"
    },
    {
      "inputs": [
        {
          "internalType": "address",
          "name": "newOwner",
          "type": "address"
        }
      ],
      "name": "transferOwnership",
      "outputs": [],
      "stateMutability": "nonpayable",
      "type": "function"
    },
    {
      "inputs": [
        {
          "internalType": "uint256",
          "name": "_lockId",
          "type": "uint256"
        },
        {
          "internalType": "address",
          "name": "_receiver",
          "type": "address"
        }
      ],
      "name": "withdraw",
      "outputs": [],
      "stateMutability": "nonpayable",
      "type": "function"
    }
  ],
  "bytecode": "0x60a08060405234620009e8576080816200647e803803809162000023828562000a25565b833981010312620009e8578051906001600160a01b0382168203620009e857620000506020820162000a49565b6200006c6060620000646040850162000a49565b930162000a49565b923315620009cf5760008054336001600160a01b0319821681178355916001600160a01b03909116907f8be0079c531659141344cd1fd0a4f28419497f9722a3daafe3b4186f6b6457e09080a3600180556000600d55608052600880546001600160a01b03199081166001600160a01b039384161790915560098054821693831693909317909255600a80549092169216919091179055604051620001118162000a09565b6007808252661111519055531560ca1b60208301526040519060005b818110620009b957505060006027820152600781526200014d8162000a09565b60208151910120604051916200016383620009ed565b82526032602083015260c860408301526000606083015260006080830152806000526002602052604060002091805192835160018060401b0381116200074d578154600181811c91168015620009ae575b60208210146200072c57601f811162000965575b506020601f8211600114620008f35781906004949596600092620008e7575b50508160011b916000199060031b1c19161781555b6020830151600182015560408301516002820155606083015160038201550160018060a01b0360808301511660018060a01b03198254161790556200024e826000526004602052604060002054151590565b6200089a57816200026f6000805160206200645e8339815191529362000ada565b50620002a38251926020810151906040810151606082015191608060018060a01b0391015116926040519687968762000a83565b0390a15b604051620002b58162000a09565b60038152602081016204c56560ec1b81523360018060a01b0360005416036200076357620002f9906200030760206040518093828201958691885192839162000a5e565b810103808452018262000a25565b519020604051916200031983620009ed565b825260506020830152606460408301526000606083015260006080830152806000526002602052604060002091805192835160018060401b0381116200074d578154600181811c911680156200088f575b60208210146200072c57601f811162000846575b506020601f8211600114620007d45781906004949596600092620007c8575b50508160011b916000199060031b1c19161781555b6020830151600182015560408301516002820155606083015160038201550160018060a01b0360808301511660018060a01b031982541617905562000404826000526004602052604060002054151590565b6200077b5781620004256000805160206200645e8339815191529362000ada565b50620004598251926020810151906040810151606082015191608060018060a01b0391015116926040519687968762000a83565b0390a15b6040516200046b8162000a09565b60038152602081016204c4c560ec1b81523360018060a01b0360005416036200076357620002f990620004af60206040518093828201958691885192839162000a5e565b51902060405191620004c183620009ed565b8252601e602083015261015e604083015260608201906000825260808301600081528160005260026020526040600020845180519060018060401b0382116200074d578254600181811c9116801562000742575b60208210146200072c57601f8111620006df575b50602090601f83116001146200066f5760049392916000918362000663575b50508160011b916000199060031b1c19161781555b6020860151600182015560408601516002820155845160038201550160018060a01b0382511660018060a01b0319825416179055620005a9826000526004602052604060002054151590565b6200061c576000805160206200645e83398151915293620005f891620005cf8462000ada565b508151946040602084015193015190519160018060a01b03905116926040519687968762000a83565b0390a15b6040516158c3908162000b7b823960805181818161022a01526112f50152f35b836200065a916000805160206200643e8339815191529551946040602084015193015190519160018060a01b03905116926040519687968762000a83565b0390a1620005fc565b01519050388062000548565b90601f198316918460005260206000209260005b818110620006c65750916001939185600497969410620006ac575b505050811b0181556200055d565b015160001960f88460031b161c191690553880806200069e565b9293602060018192878601518155019501930162000683565b836000526020600020601f840160051c8101916020851062000721575b601f0160051c01905b81811062000714575062000529565b6000815560010162000705565b9091508190620006fc565b634e487b7160e01b600052602260045260246000fd5b90607f169062000515565b634e487b7160e01b600052604160045260246000fd5b60405163118cdaa760e01b8152336004820152602490fd5b6000805160206200643e83398151915291620007bf8251926020810151906040810151606082015191608060018060a01b0391015116926040519687968762000a83565b0390a16200045d565b0151905038806200039d565b8260005260206000209560005b601f19841681106200082d57509582916004959697600194601f1981161062000813575b505050811b018155620003b2565b015160001960f88460031b161c1916905538808062000805565b82820151885560019097019660209283019201620007e1565b826000526020600020601f830160051c81016020841062000887575b601f830160051c820181106200087a5750506200037e565b6000815560010162000862565b508062000862565b90607f16906200036a565b6000805160206200643e83398151915291620008de8251926020810151906040810151606082015191608060018060a01b0391015116926040519687968762000a83565b0390a1620002a7565b015190503880620001e7565b8260005260206000209560005b601f19841681106200094c57509582916004959697600194601f1981161062000932575b505050811b018155620001fc565b015160001960f88460031b161c1916905538808062000924565b8282015188556001909701966020928301920162000900565b826000526020600020601f830160051c810160208410620009a6575b601f830160051c8201811062000999575050620001c8565b6000815560010162000981565b508062000981565b90607f1690620001b4565b806020809286010151828286010152016200012d565b604051631e4fbdf760e01b815260006004820152602490fd5b600080fd5b60a081019081106001600160401b038211176200074d57604052565b604081019081106001600160401b038211176200074d57604052565b601f909101601f19168101906001600160401b038211908210176200074d57604052565b51906001600160a01b0382168203620009e857565b60005b83811062000a725750506000910152565b818101518382015260200162000a61565b949160e09060a0959298979498875260c0602088015262000ab4815180928160c08b01526020858b01910162000a5e565b601f801991011686010196604086015260608501526080840152600180831b0316910152565b60008181526004602052604081205462000b75576003546801000000000000000081101562000b6157600181018060035581101562000b4d577fc2575a0e9e593c00f959f8c92f12db2869c3395a3b0502d05e2516446f71f85b0182905560035491815260046020526040902055600190565b634e487b7160e01b82526032600452602482fd5b634e487b7160e01b82526041600452602482fd5b90509056fe6080604052600436101561001257600080fd5b6000803560e01c8062f714ce146138ef578063038975a1146138d1578063066b58c7146138aa57806309564ab01461383e5780630ae300bf14613817578063150b7a021461379457806318694155146132ed5780631f113fc3146132c657806323cf31181461325c578063260e12b014612c32578063280f386714612bed578063454b06081461294c578063489c18b0146109c5578063544534e7146128ea5780635a04fb69146127fa578063611f6fe6146127c2578063715018a61461276857806375eb8e691461274b57806383fb69ad146125fe5780638b52a6ee146125bf5780638da5cb5b146125995780639b774840146125685780639ecd7472146125415780639f185a0b146123ce578063a339df12146122ea578063a35a96b814611205578063ab9ae1801461116e578063ac4521c6146110d1578063b25128db14610fdd578063b2fb30cb14610ef8578063b707a28814610e45578063c7a85b4014610e1e578063cf0d5af314610d69578063d1f55d4514610d42578063d5fdb73214610b4e578063d68f4dd114610a00578063d73792a9146109e3578063e091dd1a146109c5578063e7a7bdfe14610714578063ed1eee68146106c7578063ef2489441461061d578063f11478f814610338578063f2fde38b14610297578063fae2e648146102515763fe0ab5611461020b57600080fd5b3461024e578060031936011261024e5760206040516001600160a01b037f0000000000000000000000000000000000000000000000000000000000000000168152f35b80fd5b503461024e57602036600319011261024e576004356001600160a01b0381168091036102935761027f614ab8565b6001600160a01b0319600754161760075580f35b5080fd5b503461024e57602036600319011261024e576102b1613b7e565b6102b9614ab8565b6001600160a01b0380911690811561030757600054826001600160a01b0319821617600055167f8be0079c531659141344cd1fd0a4f28419497f9722a3daafe3b4186f6b6457e0600080a380f35b602483604051907f1e4fbdf70000000000000000000000000000000000000000000000000000000082526004820152fd5b5060c036600319011261024e576004359060a036602319011261024e5761035d614431565b6103668261446c565b818152600e60205260408120906040519061038082613c6a565b825482526001600160a01b039182600185015416926020820193845280600286015416604083015260038501549460608301928684528260048301541660808201528260058301541660a08201528260068301541660c08201528260078301541660e0820152610140600a600884015493610100840194855261ffff600982015416610120850152015491015261041b602435809714613db1565b5160001981036104595760405162461bcd60e51b815260206004820152600c60248201526b455445524e414c5f4c4f434b60a01b6044820152606490fd5b610464904211613d66565b61046e3387614515565b50505050808451169060405195630624e65f60e11b8752600487015260408660a48187610499613b94565b966001600160801b03809816602484015260643560448401526084356064840152833560848401525af194851561061257849685966105df575b509260409261055792869551169151908451916104ef83613cb7565b825233602083015280858301526060820152835195868094819363fc6f786560e01b83526004830191909160606080820193805183526001600160a01b036020820151166020840152816040820151916001600160801b038093166040860152015116910152565b03925af19081156105d357506040947fffeb250f5933abd95c7c8e2c0317b8041dc9c5a309b73fa772f533ddd085dd3a926020926105a7575b508551908152a16001805582519182526020820152f35b6105c690873d89116105cc575b6105be8183613cd3565b8101906141ac565b50610590565b503d6105b4565b604051903d90823e3d90fd5b610557929750859491965092610603604094853d87116105cc576105be8183613cd3565b989098979295509250926104d3565b6040513d86823e3d90fd5b503461024e5761062c36613c54565b90610635614ab8565b808352600e602052600a604084200190815483101561068357827fa4b63b21571e7c2b944a681b0a39cda220f85f67aaa7aa4d23fcf7d31e2379a3936040935582519182526020820152a180f35b606460405162461bcd60e51b815260206004820152600160248201527f4c000000000000000000000000000000000000000000000000000000000000006044820152fd5b503461024e57602036600319011261024e576004359067ffffffffffffffff821161024e576107106107046106ff3660048601613d48565b6142c5565b60405191829182613c08565b0390f35b503461024e5760a036600319011261024e5767ffffffffffffffff6004358181116109c157610747903690600401613d48565b6084356001600160a01b03908181168091036109bc57610765614ab8565b6040519360209485810190610791878288516107848187858d01613bc0565b8101038084520182613cd3565b51902092604051946107a286613c9b565b8552858501946024358652604081019660443588526060820193606435855260808301958652868a526002825260408a2090835180519182116109a8578b6107ea8454613f46565b85601f821161096f575b50505083908c601f841160011461090557600495509190836108fa575b50508160011b916000199060031b1c19161781555b87516001820155885160028201558451600382015501828551166001600160a01b0319825416179055610866856000526004602052604060002054151590565b6108ba57916108b493917f335d96fad821252e8298f51336937e44332b3731a3c3f249b2cdb77652b33e4f979361089c87615601565b50519651935191519251169260405196879687614287565b0390a180f35b916108b493917fdd151e7029525c623e7c09af0f71271bd7642edd1bf2f64d97bc552faba7c86d9793519651935191519251169260405196879687614287565b015190503880610811565b929394601f1985169086855280852094905b82821061095757505091600193918560049796941061093e575b505050811b018155610826565b015160001960f88460031b161c19169055388080610931565b80600186978294978701518155019601940190610917565b8286610996945220601f850160051c81019187861061099e575b601f0160051c0190614270565b8b38856107f4565b9091508190610989565b60248c634e487b7160e01b81526041600452fd5b600080fd5b8280fd5b503461024e578060031936011261024e576020600d54604051908152f35b503461024e578060031936011261024e5760206040516127108152f35b503461024e57602036600319011261024e57604061071091610a20613f80565b506004358152600e60205220600a60405191610a3b83613c6a565b805483526001600160a01b03806001830154166020850152806002830154166040850152600382015460608501528060048301541660808501528060058301541660a08501528060068301541660c085015260078201541660e0840152600881015461010084015261ffff6009820154166101208401520154610140820152604051918291829190916101608101928051825260208101516001600160a01b038091166020840152806040830151166040840152606082015160608401528060808301511660808401528060a08301511660a08401528060c08301511660c084015260e08201511660e0830152610100808201519083015261012061ffff81830151169083015261014080910151910152565b503461024e576020806003193601126102935767ffffffffffffffff600435818111610d3e57610b82903690600401613d48565b610b8a614ab8565b604051610ba68482816107848183019687815193849201613bc0565b51902090604051838101907f44454641554c54000000000000000000000000000000000000000000000000009182815260078252604082019382851090851117610d285783604052815190208414610d0857505050610c12816000526004602052604060002054151590565b15610cc4579081610c437faea1931d5fe74928dff1db9836d2d9de778b60cb4afc9ec70c9a1f16b58598a593615374565b50808452600282528360046040822082610c5d8254613f46565b80610c86575b50506000600182015560006002820155600060038201550155604051908152a180f35b601f8111600114610c9f575050600081555b8238610c63565b828252610cba601f888420920160051c820160018301614270565b6000835555610c98565b6064826040519062461bcd60e51b82526004820152600e60248201527f466565206e6f74206578697374730000000000000000000000000000000000006044820152fd5b606493506084908562461bcd60e51b855260448201526007858201520152fd5b634e487b7160e01b600052604160045260246000fd5b8380fd5b503461024e578060031936011261024e5760206001600160a01b0360075416604051908152f35b503461024e57602036600319011261024e576040610160916004358152600e602052208054906001600160a01b039081600182015416918060028301541690600383015490806004850154168160058601541690826006870154169260078701541693600887015495600a61ffff60098a015416980154986040519a8b5260208b015260408a01526060890152608088015260a087015260c086015260e0850152610100840152610120830152610140820152f35b503461024e578060031936011261024e5760206001600160a01b03600c5416604051908152f35b503461024e57604036600319011261024e577ff47f77d5d198f5b58faaca8c7dc86ebe53925091c07487a01ec62159ff16664e600435610e83613b68565b90610e8c614431565b610e958161446c565b6001600160a01b038216610eaa811515613fe7565b818552600e60205260076040862001906001600160a01b0319825416179055610eee604051928392839092916001600160a01b036020916040840195845216910152565b0390a16001805580f35b503461024e57610f0736613c54565b90610f10614431565b610f198161446c565b808352600e60205260086040842001908154831115610f9957827fefaff1b90138281d215452c67f793017f52e456f65c28ac63f5309a89a059b4793604093610f6342831161407d565b6402540be40082108015610f8e575b610f7b90614032565b5582519182526020820152a16001805580f35b506000198214610f72565b606460405162461bcd60e51b815260206004820152600460248201527f44415445000000000000000000000000000000000000000000000000000000006044820152fd5b503461024e57604036600319011261024e577f4e602365e8ca79d90aa843bdcc20695568e4a35d5ff284b2f9a6e4c1ff912052608060043561101d613b68565b611025614431565b818552600e60205260408520600581019060066001600160a01b039161104f838554163314614225565b60048101928084541694858b52600f60205261106e8860408d20615474565b506001600160a01b031994338682541617905584815416905560078201951694858482541617905501908154169055338652600f6020526110b28360408820615653565b5060405192835260208301523360408301526060820152a16001805580f35b503461024e57604036600319011261024e577fda22afd9d1e0640f160cada74dec56452db8535daf46772df2c5f7a3af46485f60043561110f613b68565b90611118614431565b6111218161446c565b808452600e602052600660408520016001600160a01b0383166001600160a01b0319825416179055610eee604051928392839092916001600160a01b036020916040840195845216910152565b503461024e57604036600319011261024e578080808061118c613b68565b611194614ab8565b61119c614431565b6001600160a01b0360043591165af16111b36141f5565b50156111c0576001805580f35b60405162461bcd60e51b815260206004820152601960248201527f47617320746f6b656e207472616e73666572206661696c6564000000000000006044820152606490fd5b506003196020368201126102935767ffffffffffffffff6004351161029357610140906004353603011261024e5761123b614431565b6001600160a01b03611251606460043501613fd3565b16156122a6576112786001600160a01b0361127060a460043501613fd3565b161515613fe7565b6402540be40060c46004350135108015612295575b61129690614032565b6112a74260c460043501351161407d565b6112b560e4600435016140c8565b61ffff604051917f5cb49b550000000000000000000000000000000000000000000000000000000083521660048201526020816024816001600160a01b037f0000000000000000000000000000000000000000000000000000000000000000165afa908115611eb3578291612266575b5015612222576113586001600160a01b03611344600435600401613fd3565b166000526006602052604060002054151590565b156121de57611365613f1a565b6001600160a01b03600c54163314600014611ed25761138f610124600435016004356004016140d7565b15611ebe576113a08160209261410d565b90809291810103126109bc573560408201525b816001600160a01b036113ca600435600401613fd3565b16803b1561029357604051632142170760e11b815233600480830191909152306024808401919091529035013560448201529082908290606490829084905af18015611eb357611e9f575b50506024611421614140565b6101806001600160a01b0361143a600435600401613fd3565b166040519384809263133f757160e31b825282600435013560048301525afa8015610612576004926001600160a01b039186908790889089908a908b90611e57575b6001600160801b031660e0890152600290810b60c08901520b60a087015262ffffff1660808601528316606085015290911660408301525060206001600160a01b036114ca84358501613fd3565b16604051938480927fc45a01550000000000000000000000000000000000000000000000000000000082525afa918215610612578492611e19575b508060646001600160a01b0360406020940151166001600160a01b0362ffffff608082606087015116950151169560405196879586947f1698ee82000000000000000000000000000000000000000000000000000000008652600486015260248501526044840152165afa908115611e0e578391611dd4575b5082604061163c6001600160a01b0361159b600435600401613fd3565b166115aa604460043501613fd3565b6001600160a01b038451916115be83613cb7565b6024600435013583521660208201526001600160801b03848201526001600160801b036060820152835194858094819363fc6f786560e01b83526004830191909160606080820193805183526001600160a01b036020820151166020840152816040820151916001600160801b038093166040860152015116910152565b03925af1801561061257611db6575b506020820151611b90575b6040611660613f80565b926001600160a01b03600d54938486528161167f600435600401613fd3565b16602087015216828501526024600435013560608501526001600160a01b036116ac606460043501613fd3565b1660808501526001600160a01b036116c8608460043501613fd3565b1660c08501526001600160a01b036116e460a460043501613fd3565b1660e085015260c4600435013561010085015261ffff61170860e4600435016140c8565b1661012085015201516101408301528252600e6020526040822081518155600181016001600160a01b03602084015116906001600160a01b03199182825416179055600282016001600160a01b036040850151168282541617905560608301516003830155600482016001600160a01b0360808501511682825416179055600582016001600160a01b0360a08501511682825416179055600682016001600160a01b0360c0850151168282541617905560078201906001600160a01b0360e0850151169082541617905561010082015160088201556009810161ffff6101208401511661ffff19825416179055600a6101408301519101556001600160a01b03611816606460043501613fd3565b168252600f60205261182e60408320600d5490615653565b50600d546000198114611b7c57600101600d5580518252600e60205260408220600a6040519161185d83613c6a565b805483526001600160a01b0360018201541660208401526001600160a01b036002820154166040840152600381015460608401526001600160a01b0360048201541660808401526001600160a01b0360058201541660a08401526001600160a01b0360068201541660c08401526001600160a01b0360078201541660e0840152600881015461010084015261ffff6009820154166101208401520154610140820152611907614140565b6001600160a01b03602083015116610180606084015160246040518094819363133f757160e31b835260048301525afa8015611b71576101606102c0936001600160a01b037f3bf9c85fbe37d401523942f10940796acef64062e1a1c45647978e32f4969f5c9694896001600160801b039560209b9180918180918190611b20575b87959650908a62ffffff9493921660e08a015260020b60c089015260020b60a08801521660808601521660608401521660408201528351936001600160a01b0389820151169060608101516001600160a01b036080830151166001600160a01b0360c0840151166001600160a01b0360e085015116906101008501519261ffff61012087015116946001600160a01b03604061014089015198015116976040519c8d5260208d015260408c015260608b015260808a015260a089015260c088015260e08701526101008601526101208501526bffffffffffffffffffffffff8151166101408501526001600160a01b038882015116828501526001600160a01b036040820151166101808501526001600160a01b036060820151166101a085015262ffffff6080820151166101c085015260a081015160020b6101e085015260c081015160020b6102008501528260e08201511661022085015261010081015161024085015261012081015161026085015282610140820151166102808501520151166102a0820152a15160018055604051908152f35b5050505050508185611b4f62ffffff936101803d61018011611b6a575b611b478183613cd3565b810190613e32565b50979c508c9b50959950939750919550935091506119899050565b503d611b3d565b6040513d87823e3d90fd5b602483634e487b7160e01b81526011600452fd5b60246101806001600160a01b03611bab600435600401613fd3565b166040519283809263133f757160e31b825282600435013560048301525afa908115610612576001600160801b03916040918691611d89575b5060a483612710611c136001600160a01b03611c04600435600401613fd3565b16948360208b015191166141c2565b04169187845191611c2383613c9b565b602460043501358352602083019485528583018281526060840183815260808501914283528851998a988997630624e65f60e11b8952516004890152511660248701525160448601525160648501525160848401525af1801561061257611d6b575b50826040611d386001600160a01b03611ca2600435600401613fd3565b166001600160a01b0360095416835190611cbb82613cb7565b60246004350135825260208201526001600160801b03848201526001600160801b036060820152835194858094819363fc6f786560e01b83526004830191909160606080820193805183526001600160a01b036020820151166020840152816040820151916001600160801b038093166040860152015116910152565b03925af1801561061257611d4d575b50611656565b611d659060403d6040116105cc576105be8183613cd3565b50611d47565b611d839060403d6040116105cc576105be8183613cd3565b50611c85565b611da491506101803d61018011611b6a57611b478183613cd3565b50505050965050505050505038611be4565b611dce9060403d6040116105cc576105be8183613cd3565b5061164b565b90506020813d602011611e06575b81611def60209383613cd3565b810103126109c157611e0090613dfc565b3861157e565b3d9150611de2565b6040513d85823e3d90fd5b9091506020813d602011611e4f575b81611e3560209383613cd3565b81010312610d3e57611e48602091613dfc565b9190611505565b3d9150611e28565b505050505050816001600160801b03611e8462ffffff936101803d61018011611b6a57611b478183613cd3565b50979c508c9b509599509397509195509350915061147c9050565b611ea890613c87565b610293578138611415565b6040513d84823e3d90fd5b602483634e487b7160e01b81526032600452fd5b5061012460043501611ee9816004356004016140d7565b1590506121b65781611f0c6001600160a01b0360075416926004356004016140d7565b926040519384927f32c07c9e000000000000000000000000000000000000000000000000000000008452816044850160406004870152526064840160648360051b860101928287905b8282106121325750505050508383809233602483015203925af1908115611eb357829161203d575b505b60608101805180611f92575b50506113b3565b60808301516001600160a01b03168061201f57505080513403611fdb5782808080936001600160a01b03600954169051905af1611fcd6141f5565b50156111c0575b3880611f8b565b606460405162461bcd60e51b815260206004820152600860248201527f464c4154204645450000000000000000000000000000000000000000000000006044820152fd5b61203892506001600160a01b0360095416903390614afc565b611fd4565b3d91508183823e61204e8282613cd3565b60208183810103126109c15780519167ffffffffffffffff8311610d3e5760a08383018284010312610d3e576040519261208784613c9b565b808301519267ffffffffffffffff841161212e57828101601f858484010101121561212e57838282010151926120bc84613cf5565b906120ca6040519283613cd3565b8482528201602085878686010101011161212a576120f860809461211f966020808501918787010101613bc0565b85520160208181015190850152604080820151908501526060808201519085015201613dfc565b608082015238611f7d565b8680fd5b8580fd5b9295975092955092606319888203018552601e1982360301863512156121b2578186350167ffffffffffffffff8135116121ae578035360360208201136121ae576020806001938382943582528035838201848401378d83823584010152601f8019913501160101970195019201928795938997959392611f55565b8980fd5b8880fd5b506121d96106ff6121d26101046004350160043560040161410d565b3691613d11565b611f7f565b606460405162461bcd60e51b815260206004820152601c60248201527f494e56414c4944204e465420504f534954494f4e204d414e41474552000000006044820152fd5b606460405162461bcd60e51b815260206004820152600760248201527f434f554e545259000000000000000000000000000000000000000000000000006044820152fd5b612288915060203d60201161228e575b6122808183613cd3565b810190613f02565b38611325565b503d612276565b5060043560c401356000191461128d565b606460405162461bcd60e51b815260206004820152601960248201527f4f574e45522043414e4e4f54203d2061646472657373283029000000000000006044820152fd5b503461024e57608036600319011261024e57600435908160020b82036109bc57602435908160020b82036109bc57604435928360020b84036109bc5760409361234c61234661234061233a613baa565b94614daa565b95614daa565b91614daa565b90836001600160a01b038383828216838216116123c3575b505086811690838116821161238f57505050612381939450615717565b905b82519182526020820152f35b9295509091831611156123b85750926123ad826123b3949583615717565b936156df565b612383565b93506123b3926156df565b945092503880612364565b503461024e57604036600319011261024e5761071090600a60406123f0613b7e565b926123f9613f80565b506001600160a01b038094168152600f60205261241a60243583832061535c565b90549060031b1c8152600e602052206040519261243684613c6a565b81548452806001830154166020850152806002830154166040850152600382015460608501528060048301541660808501528060058301541660a08501528060068301541660c085015260078201541660e0840152600881015461010084015261ffff6009820154166101208401520154610140820152604051918291829190916101608101928051825260208101516001600160a01b038091166020840152806040830151166040840152606082015160608401528060808301511660808401528060a08301511660a08401528060c08301511660c084015260e08201511660e0830152610100808201519083015261012061ffff81830151169083015261014080910151910152565b503461024e578060031936011261024e5760206001600160a01b03600b5416604051908152f35b503461024e57602036600319011261024e57602061258f6001600160a01b03611344613b7e565b6040519015158152f35b503461024e578060031936011261024e576001600160a01b036020915416604051908152f35b503461024e57602036600319011261024e576001600160a01b036125e1613b7e565b6125e9614ab8565b166001600160a01b0319600c541617600c5580f35b503461024e576020908160031936011261024e5760043561261d613f1a565b506003548110156127355760036000527fc2575a0e9e593c00f959f8c92f12db2869c3395a3b0502d05e2516446f71f85b0154815260028252604081206040519161266783613c9b565b6040519080835461267781613f46565b8085529160019180831690811561271557506001146126e1575b610710876001600160a01b036004898c8a6126ae818c0382613cd3565b85526001820154908501526002810154604085015260038101546060850152015416608082015260405191829182613c08565b92508483528683205b828410612702575050508101840184826126ae612691565b80548585018901529287019281016126ea565b60ff191689870152505050151560051b82018501905084826126ae612691565b634e487b7160e01b600052603260045260246000fd5b503461024e578060031936011261024e5760206040516000198152f35b503461024e578060031936011261024e57612781614ab8565b60006001600160a01b0381546001600160a01b031981168355167f8be0079c531659141344cd1fd0a4f28419497f9722a3daafe3b4186f6b6457e08280a380f35b503461024e57602036600319011261024e5760406020916001600160a01b036127e9613b7e565b168152600f83522054604051908152f35b503461024e57604036600319011261024e57600435612817613b68565b61281f614431565b6128288261446c565b6001600160a01b038116918233146128a657808452600e6020908152604080862060050180546001600160a01b031916909517909455835191825233908201526001600160a01b03909116918101919091527f7336363d3c1722824dac3c93d1256b57d394f59da51548af7e779e47c13fff10908060608101610eee565b606460405162461bcd60e51b815260206004820152600a60248201527f53414d45204f574e4552000000000000000000000000000000000000000000006044820152fd5b503461024e57602036600319011261024e577f80669cb83f5f4061c84fc5d3662ece37df30172baec31097d527ede111e413c260206001600160a01b0361292f613b7e565b612937614ab8565b1661294181615564565b50604051908152a180f35b503461024e57602080600319360112610293576004359061296b614431565b6001600160a01b039182600b5416928315612ba9576129898261446c565b818552600e8352604085206040516129a081613c6a565b815481528260018301541690878682019783895285600286015416604084015260038501546060840193818552610140600a8960048a0154169860808401998a528a60058201541660a08501528a60068201541660c08501528a60078201541660e0850152600881015461010085015261ffff6009820154166101208501520154910152843b156109c15760405163095ea7b360e01b81526001600160a01b0392909216600483015260248201529281908490604490829084905af1928315612b9c578793612b83575b505060648480600b541698511691519189604051998a9485937f4ef88bea0000000000000000000000000000000000000000000000000000000085528a6004860152602485015260448401525af1948515612b78577f97923ecdf32419caa09669588eaa60fcc1c41069814b4f4f52ec31e9fdec1aea95612b5b575b5051168452600f8252612afc8160408620615474565b50808452600e8252612b4d60408520600a6000918281558260018201558260028201558260038201558260048201558260058201558260068201558260078201558260088201558260098201550155565b604051908152a16001805580f35b612b7190853d871161228e576122808183613cd3565b5038612ae6565b6040513d88823e3d90fd5b612b8f91929350613c87565b61212a5784908738612a6a565b50604051903d90823e3d90fd5b6064836040519062461bcd60e51b82526004820152600760248201527f4e4f5420534554000000000000000000000000000000000000000000000000006044820152fd5b503461024e57606036600319011261024e57612c2b612c0a613b7e565b612c12613b68565b612c1a614ab8565b612c22614431565b60443591614cc5565b6001805580f35b503461024e57608036600319011261024e57612c4c613b68565b612c54613b94565b612c5c613baa565b90612c65614431565b600090600090819382936004358452600e602052604084209360405194612c8b86613c6a565b805486526001600160a01b0360018201541660208701526001600160a01b036002820154166040870152600381015460608701526001600160a01b03600482015416908160808801526001600160a01b0360058201541660a0880152600a6001600160a01b03600683015416918260c08a01526001600160a01b0360078201541660e08a015260088101546101008a015261ffff6009820154166101208a015201546101408801526001600160a01b0360085416913314908115613252575b508015613249575b612d5b90614225565b610140860151612e66575050509160009495612dff926040946001600160a01b0360608160208701511695015193875194612d9586613cb7565b855216602084019081526001600160801b039283168785015290821660608401908152865163fc6f786560e01b81528451600482015291516001600160a01b0316602483015260409093015182166044820152915116606482015294859283919082906084820190565b03925af1928315612e5a57608093600093600091612e35575b505b60018055604051938452602084015260408301526060820152f35b9050612e5191935060403d6040116105cc576105be8183613cd3565b92909285612e18565b6040513d6000823e3d90fd5b909391969492976001600160a01b0360208501511693610180606082015160246040518098819363133f757160e31b835260048301525afa938415612b785786958795613215575b50604051906370a0823160e01b82523060048301526020826024816001600160a01b038b165afa9182156131415788926131e1575b506040516370a0823160e01b81523060048201529b60208d6024816001600160a01b038b165afa9c8d156131d657899d6131a0575b50612fac89926040926001600160a01b0360208801511691606088015191855192612f4284613cb7565b835230602084019081526001600160801b039283168785015290821660608401908152865163fc6f786560e01b81528451600482015291516001600160a01b0316602483015260409093015182166044820152915116606482015293849283919082906084820190565b03925af1801561314157613182575b50604051906370a0823160e01b82523060048301526020826024816001600160a01b038b165afa801561314157889061314c575b612ff99250613edf565b6040516370a0823160e01b81523060048201526020816024816001600160a01b038a165afa90811561314157889161310a575b5060809b61303991613edf565b923385036130f85780945b33036130f257506001600160a01b0360e083015116955b816130b7575b505081613073575b5050505050612e1a565b6130a097506130ad949550906127106130956101406130a595940151836141c2565b049788809386614cc5565b613edf565b928391614cc5565b8580808080613069565b869a506130eb9198506130e36127106130d56101408601518c6141c2565b04809a6130a0828986614cc5565b9a8b91614cc5565b8a80613061565b9561305b565b6001600160a01b03600a541694613044565b90506020813d602011613139575b8161312560209383613cd3565b810103126131355751608061302c565b8780fd5b3d9150613118565b6040513d8a823e3d90fd5b50906020813d60201161317a575b8161316760209383613cd3565b810103126131355790612ff99151612fef565b3d915061315a565b61319a9060403d6040116105cc576105be8183613cd3565b50612fbb565b909c506020813d6020116131ce575b816131bc60209383613cd3565b810103126121b257519b612fac612f18565b3d91506131af565b6040513d8b823e3d90fd5b9091506020813d60201161320d575b816131fd60209383613cd3565b810103126131355751908c612ee3565b3d91506131f0565b9094506132349195506101803d61018011611b6a57611b478183613cd3565b5050505050505050969250905094938b612eae565b50338114612d52565b905033148a612d4a565b503461024e57602036600319011261024e577f48af0f3916eee80364290b1aca1b04532ba7394a23ceeb066b5df1aa9c5b51c460206001600160a01b036132a1613b7e565b6132a9614ab8565b16806001600160a01b0319600b541617600b55604051908152a180f35b503461024e578060031936011261024e5760206001600160a01b03600a5416604051908152f35b5060e036600319011261024e5760c036602319011261024e5761330e614431565b6004358152600e602052604081206040519161332983613c6a565b815483526001600160a01b0360018301541660208401526001600160a01b0360028301541660408401526133dc6003830154600a60608601948286526001600160a01b0360048201541660808801526001600160a01b0360058201541660a08801526001600160a01b0360068201541660c08801526001600160a01b0360078201541660e0880152600881015461010088015261ffff600982015416610120880152015461014086015260243514613db1565b6001600160a01b0360208401511691519060405192839263133f757160e31b845260048401528260246101809485935afa928315612b9c5781928294613764575b5050604051926370a0823160e01b84523060048501526020846024816001600160a01b0387165afa938415611eb3578294613730575b50604051946370a0823160e01b86523060048701526020866024816001600160a01b0386165afa958615611e0e5783966136fb575b5060606001600160a01b03602085936134a560443530338b614afc565b6134b3606435303389614afc565b6134c56044358484840151168a614bf9565b6134d760643584848401511688614bf9565b01511660c4604051809681937f219f5d17000000000000000000000000000000000000000000000000000000008352602435600484015260443560248401526064356044840152608435606484015260a4356084840152833560a48401525af1938415612b9c578195829483966136ae575b50604051906370a0823160e01b82523060048301526020826024816001600160a01b0387165afa801561061257849061367a575b6135879250613edf565b916040516370a0823160e01b81523060048201526020816024816001600160a01b0389165afa9182156105d35791613647575b506060976135c791613edf565b9180613635575b505080613623575b50507f38f5d789b3e0e71e68d20081e98d4b02ae7ecab7482b6634306b2261e90f806f60206040516004358152a1600180556001600160801b036040519316835260208301526040820152f35b61362e913390614cc5565b38806135d6565b613640913390614cc5565b38806135ce565b90506020813d602011613672575b8161366260209383613cd3565b810103126109bc575160606135ba565b3d9150613655565b506020823d6020116136a6575b8161369460209383613cd3565b810103126109bc57613587915161357d565b3d9150613687565b9650945092506060853d6060116136f3575b816136cd60609383613cd3565b8101031261024e576136de85613e1e565b92604060208701519601519395939438613549565b3d91506136c0565b9095506020813d602011613728575b8161371760209383613cd3565b810103126109bc5751946060613488565b3d915061370a565b9093506020813d60201161375c575b8161374c60209383613cd3565b810103126109bc57519238613453565b3d915061373f565b809192945061377f9350903d10611b6a57611b478183613cd3565b5050505050505050925090509091388061341d565b503461024e57608036600319011261024e576137ae613b7e565b506137b7613b68565b5060643567ffffffffffffffff8082116109c157366023830112156109c15781600401359081116109c1573691016024011161024e5760206040517f150b7a02000000000000000000000000000000000000000000000000000000008152f35b503461024e578060031936011261024e5760206001600160a01b0360095416604051908152f35b503461024e57606036600319011261024e57613858613b7e565b613860613b68565b90604435916001600160a01b03908184168094036109bc57613880614ab8565b816001600160a01b0319931683600854161760085516816009541617600955600a541617600a5580f35b503461024e578060031936011261024e5760206001600160a01b0360085416604051908152f35b503461024e578060031936011261024e576020600354604051908152f35b503461024e57604036600319011261024e576004359061390d613b68565b91613916614431565b61391f8161446c565b808252600e60205260408220926040519361393985613c6a565b805485526001600160a01b0390816001820154169060208701918252826002820154166040880152600381015491606088019283528360048301541697608081019889528460058401541660a08201528460068401541660c08201528460078401541660e0820152610140600a6008850154948561010085015261ffff600982015416610120850152015491019081526000198314600014613a095760405162461bcd60e51b815260206004820152600c60248201526b455445524e414c5f4c4f434b60a01b6044820152606490fd5b613a1585934211613d66565b51613b55575b51169051813b1561212e57604051632142170760e11b81523060048201526001600160a01b038516602482015260448101919091529085908290606490829084905af18015611b7157613b22575b5084817fcf3f38c6e10e7fa2c0a2d09ff592596efa8ea3865dd7aabb9bff9c5189c607a894959651168652600f602052613aa68560408820615474565b5051604080518681526001600160a01b039390921683166020830152919092169082015280606081010390a18152600e602052612c2b60408220600a6000918281558260018201558260028201558260038201558260048201558260058201558260068201558260078201558260088201558260098201550155565b93613b4e7fcf3f38c6e10e7fa2c0a2d09ff592596efa8ea3865dd7aabb9bff9c5189c607a89495613c87565b9392613a69565b613b5f8587614515565b50505050613a1b565b602435906001600160a01b03821682036109bc57565b600435906001600160a01b03821682036109bc57565b604435906001600160801b03821682036109bc57565b606435906001600160801b03821682036109bc57565b60005b838110613bd35750506000910152565b8181015183820152602001613bc3565b90602091613bfc81518092818552858086019101613bc0565b601f01601f1916010190565b6020815260a06001600160a01b036080613c2d855184602087015260c0860190613be3565b94602081015160408601526040810151606086015260608101518286015201511691015290565b60409060031901126109bc576004359060243590565b610160810190811067ffffffffffffffff821117610d2857604052565b67ffffffffffffffff8111610d2857604052565b60a0810190811067ffffffffffffffff821117610d2857604052565b6080810190811067ffffffffffffffff821117610d2857604052565b90601f8019910116810190811067ffffffffffffffff821117610d2857604052565b67ffffffffffffffff8111610d2857601f01601f191660200190565b929192613d1d82613cf5565b91613d2b6040519384613cd3565b8294818452818301116109bc578281602093846000960137010152565b9080601f830112156109bc57816020613d6393359101613d11565b90565b15613d6d57565b606460405162461bcd60e51b815260206004820152600760248201527f4e4f5420594554000000000000000000000000000000000000000000000000006044820152fd5b15613db857565b606460405162461bcd60e51b815260206004820152600660248201527f4e465420494400000000000000000000000000000000000000000000000000006044820152fd5b51906001600160a01b03821682036109bc57565b51908160020b82036109bc57565b51906001600160801b03821682036109bc57565b9190826101809103126109bc5781516bffffffffffffffffffffffff811681036109bc5791613e6360208201613dfc565b91613e7060408301613dfc565b91613e7d60608201613dfc565b91608082015162ffffff811681036109bc5791613e9c60a08201613e10565b91613ea960c08301613e10565b91613eb660e08201613e1e565b916101008201519161012081015191613d63610160613ed86101408501613e1e565b9301613e1e565b91908203918211613eec57565b634e487b7160e01b600052601160045260246000fd5b908160209103126109bc575180151581036109bc5790565b60405190613f2782613c9b565b6000608083606081528260208201528260408201528260608201520152565b90600182811c92168015613f76575b6020831014613f6057565b634e487b7160e01b600052602260045260246000fd5b91607f1691613f55565b60405190613f8d82613c6a565b816101406000918281528260208201528260408201528260608201528260808201528260a08201528260c08201528260e082015282610100820152826101208201520152565b356001600160a01b03811681036109bc5790565b15613fee57565b606460405162461bcd60e51b815260206004820152600c60248201527f434f4c4c4543545f4144445200000000000000000000000000000000000000006044820152fd5b1561403957565b606460405162461bcd60e51b815260206004820152600c60248201527f4d494c4c495345434f4e445300000000000000000000000000000000000000006044820152fd5b1561408457565b606460405162461bcd60e51b815260206004820152600b60248201527f44415445205041535345440000000000000000000000000000000000000000006044820152fd5b3561ffff811681036109bc5790565b903590601e19813603018212156109bc570180359067ffffffffffffffff82116109bc57602001918160051b360383136109bc57565b903590601e19813603018212156109bc570180359067ffffffffffffffff82116109bc576020019181360383136109bc57565b60405190610180820182811067ffffffffffffffff821117610d2857604052816101606000918281528260208201528260408201528260608201528260808201528260a08201528260c08201528260e08201528261010082015282610120820152826101408201520152565b91908260409103126109bc576020825192015190565b81810292918115918404141715613eec57565b81156141df570490565b634e487b7160e01b600052601260045260246000fd5b3d15614220573d9061420682613cf5565b916142146040519384613cd3565b82523d6000602084013e565b606090565b1561422c57565b606460405162461bcd60e51b815260206004820152600560248201527f4f574e45520000000000000000000000000000000000000000000000000000006044820152fd5b81811061427b575050565b60008155600101614270565b9490936142af6001600160a01b039498979360a096885260c0602089015260c0880190613be3565b9760408701526060860152608085015216910152565b6142cd613f1a565b506040908151906020916142f08382816107848183019687815193849201613bc0565b5190209161430b836000526004602052604060002054151590565b156143ee576000928352600282528083209181519361432985613c9b565b82519080855461433881613f46565b808552916001918083169081156143cd5750600114614398575b505050918161436f600495936001600160a01b0397950382613cd3565b865260018301549086015260028201549085015260038101546060850152015416608082015290565b92508683528483205b8284106143ba57505050810182018161436f6004614352565b80548585018701529285019281016143a1565b60ff191686880152505050151560051b8201830190508161436f6004614352565b60649250519062461bcd60e51b82526004820152600960248201527f4e4f5420464f554e4400000000000000000000000000000000000000000000006044820152fd5b600260015414614442576002600155565b60046040517f3ee5aeb5000000000000000000000000000000000000000000000000000000008152fd5b600052600e602052614513604060002060405161448881613c6a565b81548152610140600a6001600160a01b03938460018201541660208501528460028201541660408501526003810154606085015284600482015416948560808601528060058301541660a08601528060068301541660c086015260078201541660e0850152600881015461010085015261ffff60098201541661012085015201549101523314614225565b565b9190600092600091600092600092600052600e60205260406000206040519161453d83613c6a565b815483526001600160a01b0360018301541660208401526001600160a01b036002830154166040840152600382015460608401526004916001600160a01b038382015416908160808601526001600160a01b0360058201541660a0860152600a6001600160a01b03600683015416918260c08801526001600160a01b0360078201541660e0880152600881015461010088015261ffff60098201541661012088015201546101408601526001600160a01b0360085416913314908115614aae575b508015614aa5575b61460f90614225565b6101408401516146f15750506146b795965090604092916001600160a01b036060816020850151169301519385519461464786613cb7565b85521660208401526001600160801b03808585015260608401526000845180988195829463fc6f786560e01b8452830191909160606080820193805183526001600160a01b036020820151166020840152816040820151916001600160801b038093166040860152015116910152565b03925af18015612e5a576000936000916146d057509293565b90506146ec91935060403d6040116105cc576105be8183613cd3565b929093565b9096936001600160a01b036020850151169360608101519360405195869563133f757160e31b8752828701528560246101809889935afa948515612e5a57600096600096614a73575b50506040516370a0823160e01b815230828201526001600160a01b038716602082602481845afa918215612e5a57600092614a3f575b506001600160a01b03871691604051916370a0823160e01b83523085840152602083602481875afa928315612e5a57600093614a0a575b50600090604061483e6001600160a01b0360208a01511660608a01518351906147cf82613cb7565b81523060208201526001600160801b0380858301526060820152835195868094819363fc6f786560e01b83528d830191909160606080820193805183526001600160a01b036020820151166020840152816040820151916001600160801b038093166040860152015116910152565b03925af1908115612e5a576024926020926149ec575b50604051928380926370a0823160e01b8252308a8301525afa908115612e5a576000916149b9575b5060209161488991613edf565b936024604051809581936370a0823160e01b835230908301525afa8015612e5a57600090614985575b6148bc9250613edf565b923385036149735780945b330361496d57506001600160a01b0360e083015116955b81614932575b5050816148f3575b5050505050565b6149289498506130a096509061271061491561014061492095940151836141c2565b049687809386614cc5565b958691614cc5565b38808080806148ec565b869b5061496691995061495e6127106149506101408601518d6141c2565b04809b6130a0828986614cc5565b9b8c91614cc5565b38806148e4565b956148de565b6001600160a01b03600a5416946148c7565b506020823d6020116149b1575b8161499f60209383613cd3565b810103126109bc576148bc91516148b2565b3d9150614992565b90506020813d6020116149e4575b816149d460209383613cd3565b810103126109bc5751602061487c565b3d91506149c7565b614a049060403d6040116105cc576105be8183613cd3565b50614854565b9092506020813d602011614a37575b81614a2660209383613cd3565b810103126109bc57519160006147a7565b3d9150614a19565b9091506020813d602011614a6b575b81614a5b60209383613cd3565b810103126109bc57519038614770565b3d9150614a4e565b614a8f9397508091929650903d10611b6a57611b478183613cd3565b505050505050505096925090509493388061473a565b50338114614606565b90503314386145fe565b6001600160a01b03600054163303614acc57565b60246040517f118cdaa7000000000000000000000000000000000000000000000000000000008152336004820152fd5b9060008094614b6c8295614b5e60405193849260208401977f23b872dd000000000000000000000000000000000000000000000000000000008952602485016040919493929460608201956001600160a01b0380921683521660208201520152565b03601f198101835282613cd3565b51925af1614b786141f5565b81614bca575b5015614b8657565b606460405162461bcd60e51b815260206004820152600360248201527f53544600000000000000000000000000000000000000000000000000000000006044820152fd5b8051801592508215614bdf575b505038614b7e565b614bf29250602080918301019101613f02565b3880614bd7565b60405163095ea7b360e01b602082019081526001600160a01b03909316602482015260448101939093526000928392908390614c388160648101614b5e565b51925af1614c446141f5565b81614c96575b5015614c5257565b606460405162461bcd60e51b815260206004820152600260248201527f53410000000000000000000000000000000000000000000000000000000000006044820152fd5b8051801592508215614cab575b505038614c4a565b614cbe9250602080918301019101613f02565b3880614ca3565b6040517fa9059cbb00000000000000000000000000000000000000000000000000000000602082019081526001600160a01b03909316602482015260448101939093526000928392908390614d1d8160648101614b5e565b51925af1614d296141f5565b81614d7b575b5015614d3757565b606460405162461bcd60e51b815260206004820152600260248201527f53540000000000000000000000000000000000000000000000000000000000006044820152fd5b8051801592508215614d90575b505038614d2f565b614da39250602080918301019101613f02565b3880614d88565b60020b600081121561531f577f80000000000000000000000000000000000000000000000000000000000000008114613eec57806000035b620d89e881116152db5760018116156152b25770ffffffffffffffffffffffffffffffffff6ffffcb933bd6fad37aa2d162d1a5940015b169160028216615286575b60049182811661525a575b6008811661522e575b60108116615202575b602081166151d6575b604081166151aa575b60809081811661517f575b6101008116615154575b6102008116615129575b61040081166150fe575b61080081166150d3575b61100081166150a8575b612000811661507d575b6140008116615052575b6180008116615027575b620100008116614ffc575b620200008116614fd2575b620400008116614f94575b6208000016614f55575b50600012614f2f575b63ffffffff8260201c921615600014614f265760ff60005b168201809211614f1157506001600160a01b031690565b601190634e487b7160e01b6000525260246000fd5b60ff6001614efa565b908015614f40576000190490614ee2565b601282634e487b7160e01b6000525260246000fd5b6b048a170391f7dc42444e8fa293919391828102928184041490151715614f7f571c916000614ed9565b601183634e487b7160e01b6000525260246000fd5b936d2216e584f5fa1ea926041bedfe9890818102918183041490151715614fbd57811c93614ecf565b601184634e487b7160e01b6000525260246000fd5b936e5d6af8dedb81196699c329225ee60490818102918183041490151715614fbd57811c93614ec4565b936f09aa508b5b7a84e1c677de54f3e99bc990818102918183041490151715614fbd57811c93614eb9565b936f31be135f97d08fd981231505542fcfa690818102918183041490151715614fbd57811c93614eae565b936f70d869a156d2a1b890bb3df62baf32f790818102918183041490151715614fbd57811c93614ea4565b936fa9f746462d870fdf8a65dc1f90e061e590818102918183041490151715614fbd57811c93614e9a565b936fd097f3bdfd2022b8845ad8f792aa582590818102918183041490151715614fbd57811c93614e90565b936fe7159475a2c29b7443b29c7fa6e889d990818102918183041490151715614fbd57811c93614e86565b936ff3392b0822b70005940c7a398e4b70f390818102918183041490151715614fbd57811c93614e7c565b936ff987a7253ac413176f2b074cf7815e5490818102918183041490151715614fbd57811c93614e72565b936ffcbe86c7900a88aedcffc83b479aa3a490818102918183041490151715614fbd57811c93614e68565b936ffe5dee046a99a2a811c461f1969c305390818102918183041490151715614fbd57811c93614e5e565b926fff2ea16466c96a3843ec78b326b5286190818102918183041490151715614f7f5760801c92614e53565b926fff973b41fa98c081472e6896dfb254c090818102918183041490151715614f7f5760801c92614e4a565b926fffcb9843d60f6159c9db58835c92664490818102918183041490151715614f7f5760801c92614e41565b926fffe5caca7e10e4e61c3624eaa0941cd090818102918183041490151715614f7f5760801c92614e38565b926ffff2e50f5f656932ef12357cf3c7fdcc90818102918183041490151715614f7f5760801c92614e2f565b916ffff97272373d413259a46990580e213a90818102918183041490151715613eec5760801c91614e24565b70ffffffffffffffffffffffffffffffffff700100000000000000000000000000000000614e19565b606460405162461bcd60e51b815260206004820152600160248201527f54000000000000000000000000000000000000000000000000000000000000006044820152fd5b80614de2565b6003548110156127355760036000527fc2575a0e9e593c00f959f8c92f12db2869c3395a3b0502d05e2516446f71f85b0190600090565b80548210156127355760005260206000200190600090565b60009080825260049081602052604083205480151560001461546e576000199080820181811161545b5760035490838201918211615448578181036153fe575b50505060035480156153eb578101906153cc82615325565b909182549160031b1b1916905560035582526020526040812055600190565b602485603186634e487b7160e01b835252fd5b61543361540d61541c93615325565b90549060031b1c928392615325565b819391549060031b91821b91600019901b19161790565b905585528360205260408520553880806153b4565b602487601188634e487b7160e01b835252fd5b602486601187634e487b7160e01b835252fd5b50505090565b9060018201906000928184528260205260408420549081151560001461555d57600019918083018181116155495782549084820191821161553557818103615500575b505050805480156154ec578201916154cf838361535c565b909182549160031b1b191690555582526020526040812055600190565b602486634e487b7160e01b81526031600452fd5b61552061551061541c938661535c565b90549060031b1c9283928661535c565b905586528460205260408620553880806154b7565b602488634e487b7160e01b81526011600452fd5b602487634e487b7160e01b81526011600452fd5b5050505090565b6000818152600660205260408120546155fc57600554680100000000000000008110156155e85760018101806005558110156155d45790826040927f036b6384b5eca791c62761152d0c79bb0604c104a5fb6f4eb0703f3154bb3db0015560055492815260066020522055600190565b602482634e487b7160e01b81526032600452fd5b602482634e487b7160e01b81526041600452fd5b905090565b6000818152600460205260408120546155fc57600354680100000000000000008110156155e857908261563f61541c84600160409601600355615325565b905560035492815260046020522055600190565b919060018301600090828252806020526040822054156000146156c057845494680100000000000000008610156156ac578361569c61541c886001604098999a0185558461535c565b9055549382526020522055600190565b602483634e487b7160e01b81526041600452fd5b50925050565b6001600160a01b039182169082160391908211613eec57565b613d6392916157096001600160801b03926001600160a01b039283811684831611615711576156c6565b169116615778565b906156c6565b9061576a613d63936001600160a01b039283811684861611615772575b7bffffffffffffffffffffffffffffffff000000000000000000000000848061575d88856156c6565b1692169260601b1661580a565b9116906141d5565b93615734565b6000198282099082810292838084109303928084039314615801576c0100000000000000000000000091838311156157bd570990828211900360a01b910360601c1790565b606460405162461bcd60e51b815260206004820152601560248201527f4d6174683a206d756c446976206f766572666c6f7700000000000000000000006044820152fd5b50505060601c90565b91600019828409928281029283808610950394808603951461588057848311156157bd578291096001821901821680920460028082600302188083028203028083028203028083028203028083028203028083028203028092029003029360018380600003040190848311900302920304170290565b505090613d6392506141d556fea26469706673582212202cb6c3aedb9e15aea6ad8819cbc5b09696c6bc9a1ab98c0f5cd17ed4eae79dde64736f6c63430008180033dd151e7029525c623e7c09af0f71271bd7642edd1bf2f64d97bc552faba7c86d335d96fad821252e8298f51336937e44332b3731a3c3f249b2cdb77652b33e4f",
  "linkReferences": {},
  "deployedLinkReferences": {}
}