{
  "_format": "hh-sol-artifact-1",
  "contractName": "ThrustpadFairLaunchFactory",
  "sourceName": "contracts/fair-launch/ThrustpadFairLaunchFactory.sol",
  "abi": [
    {
      "inputs": [],
      "stateMutability": "nonpayable",
      "type": "constructor"
    },
    {
      "inputs": [
        {
          "internalType": "address",
          "name": "owner",
          "type": "address"
        }
      ],
      "name": "OwnableInvalidOwner",
      "type": "error"
    },
    {
      "inputs": [
        {
          "internalType": "address",
          "name": "account",
          "type": "address"
        }
      ],
      "name": "OwnableUnauthorizedAccount",
      "type": "error"
    },
    {
      "anonymous": false,
      "inputs": [
        {
          "indexed": true,
          "internalType": "address",
          "name": "creator",
          "type": "address"
        },
        {
          "indexed": true,
          "internalType": "address",
          "name": "launch",
          "type": "address"
        }
      ],
      "name": "NewFairLaunch",
      "type": "event"
    },
    {
      "anonymous": false,
      "inputs": [
        {
          "indexed": true,
          "internalType": "address",
          "name": "previousOwner",
          "type": "address"
        },
        {
          "indexed": true,
          "internalType": "address",
          "name": "newOwner",
          "type": "address"
        }
      ],
      "name": "OwnershipTransferred",
      "type": "event"
    },
    {
      "inputs": [
        {
          "internalType": "uint256",
          "name": "_amountForSale",
          "type": "uint256"
        },
        {
          "internalType": "uint256",
          "name": "_hardCap",
          "type": "uint256"
        },
        {
          "internalType": "uint8",
          "name": "_decimals",
          "type": "uint8"
        }
      ],
      "name": "calculateTokenSaleRate",
      "outputs": [
        {
          "internalType": "uint256",
          "name": "",
          "type": "uint256"
        }
      ],
      "stateMutability": "pure",
      "type": "function"
    },
    {
      "inputs": [
        {
          "internalType": "uint256",
          "name": "hardCap",
          "type": "uint256"
        },
        {
          "internalType": "uint256",
          "name": "saleAmount",
          "type": "uint256"
        },
        {
          "internalType": "uint256",
          "name": "percentageForLiquidity",
          "type": "uint256"
        },
        {
          "internalType": "uint256",
          "name": "listingRate",
          "type": "uint256"
        },
        {
          "internalType": "uint256",
          "name": "tokenDecimals",
          "type": "uint256"
        }
      ],
      "name": "calculateTotalTokensNeeded",
      "outputs": [
        {
          "internalType": "uint256",
          "name": "",
          "type": "uint256"
        }
      ],
      "stateMutability": "pure",
      "type": "function"
    },
    {
      "inputs": [
        {
          "internalType": "uint256",
          "name": "",
          "type": "uint256"
        }
      ],
      "name": "creationFees",
      "outputs": [
        {
          "internalType": "uint256",
          "name": "",
          "type": "uint256"
        }
      ],
      "stateMutability": "view",
      "type": "function"
    },
    {
      "inputs": [
        {
          "internalType": "address",
          "name": "",
          "type": "address"
        },
        {
          "internalType": "uint256",
          "name": "",
          "type": "uint256"
        }
      ],
      "name": "deployedLaunches",
      "outputs": [
        {
          "internalType": "address",
          "name": "",
          "type": "address"
        }
      ],
      "stateMutability": "view",
      "type": "function"
    },
    {
      "inputs": [],
      "name": "feeEarned",
      "outputs": [
        {
          "internalType": "uint256",
          "name": "",
          "type": "uint256"
        }
      ],
      "stateMutability": "view",
      "type": "function"
    },
    {
      "inputs": [
        {
          "internalType": "bytes",
          "name": "bytecode",
          "type": "bytes"
        },
        {
          "internalType": "uint256",
          "name": "salt",
          "type": "uint256"
        }
      ],
      "name": "getAddressCreate2",
      "outputs": [
        {
          "internalType": "address",
          "name": "",
          "type": "address"
        }
      ],
      "stateMutability": "view",
      "type": "function"
    },
    {
      "inputs": [
        {
          "components": [
            {
              "internalType": "address",
              "name": "token",
              "type": "address"
            },
            {
              "internalType": "uint256",
              "name": "softCap",
              "type": "uint256"
            },
            {
              "internalType": "uint256",
              "name": "hardCap",
              "type": "uint256"
            },
            {
              "internalType": "uint256",
              "name": "amountForSale",
              "type": "uint256"
            },
            {
              "internalType": "uint256",
              "name": "listingRate",
              "type": "uint256"
            },
            {
              "internalType": "uint256",
              "name": "minimumBuy",
              "type": "uint256"
            },
            {
              "internalType": "uint256",
              "name": "maximumBuy",
              "type": "uint256"
            },
            {
              "internalType": "uint256",
              "name": "percentageForLiquidity",
              "type": "uint256"
            },
            {
              "internalType": "uint256",
              "name": "percentageForTeam",
              "type": "uint256"
            },
            {
              "internalType": "uint256",
              "name": "startDate",
              "type": "uint256"
            },
            {
              "internalType": "uint256",
              "name": "endDate",
              "type": "uint256"
            }
          ],
          "internalType": "struct FairLaunchConfig",
          "name": "config",
          "type": "tuple"
        },
        {
          "internalType": "address",
          "name": "_owner",
          "type": "address"
        }
      ],
      "name": "getBytecode",
      "outputs": [
        {
          "internalType": "bytes",
          "name": "",
          "type": "bytes"
        }
      ],
      "stateMutability": "pure",
      "type": "function"
    },
    {
      "inputs": [],
      "name": "getCreationFees",
      "outputs": [
        {
          "internalType": "uint256[]",
          "name": "",
          "type": "uint256[]"
        }
      ],
      "stateMutability": "view",
      "type": "function"
    },
    {
      "inputs": [
        {
          "components": [
            {
              "internalType": "address",
              "name": "token",
              "type": "address"
            },
            {
              "internalType": "uint256",
              "name": "softCap",
              "type": "uint256"
            },
            {
              "internalType": "uint256",
              "name": "hardCap",
              "type": "uint256"
            },
            {
              "internalType": "uint256",
              "name": "amountForSale",
              "type": "uint256"
            },
            {
              "internalType": "uint256",
              "name": "listingRate",
              "type": "uint256"
            },
            {
              "internalType": "uint256",
              "name": "minimumBuy",
              "type": "uint256"
            },
            {
              "internalType": "uint256",
              "name": "maximumBuy",
              "type": "uint256"
            },
            {
              "internalType": "uint256",
              "name": "percentageForLiquidity",
              "type": "uint256"
            },
            {
              "internalType": "uint256",
              "name": "percentageForTeam",
              "type": "uint256"
            },
            {
              "internalType": "uint256",
              "name": "startDate",
              "type": "uint256"
            },
            {
              "internalType": "uint256",
              "name": "endDate",
              "type": "uint256"
            }
          ],
          "internalType": "struct FairLaunchConfig",
          "name": "config",
          "type": "tuple"
        }
      ],
      "name": "getTotalAmount",
      "outputs": [
        {
          "internalType": "uint256",
          "name": "",
          "type": "uint256"
        }
      ],
      "stateMutability": "pure",
      "type": "function"
    },
    {
      "inputs": [
        {
          "internalType": "address",
          "name": "creator",
          "type": "address"
        }
      ],
      "name": "getdeployedLaunches",
      "outputs": [
        {
          "internalType": "address[]",
          "name": "",
          "type": "address[]"
        }
      ],
      "stateMutability": "view",
      "type": "function"
    },
    {
      "inputs": [
        {
          "internalType": "address",
          "name": "creator",
          "type": "address"
        }
      ],
      "name": "getdeployedLaunchesLen",
      "outputs": [
        {
          "internalType": "uint256",
          "name": "",
          "type": "uint256"
        }
      ],
      "stateMutability": "view",
      "type": "function"
    },
    {
      "inputs": [
        {
          "components": [
            {
              "internalType": "address",
              "name": "token",
              "type": "address"
            },
            {
              "internalType": "uint256",
              "name": "softCap",
              "type": "uint256"
            },
            {
              "internalType": "uint256",
              "name": "hardCap",
              "type": "uint256"
            },
            {
              "internalType": "uint256",
              "name": "amountForSale",
              "type": "uint256"
            },
            {
              "internalType": "uint256",
              "name": "listingRate",
              "type": "uint256"
            },
            {
              "internalType": "uint256",
              "name": "minimumBuy",
              "type": "uint256"
            },
            {
              "internalType": "uint256",
              "name": "maximumBuy",
              "type": "uint256"
            },
            {
              "internalType": "uint256",
              "name": "percentageForLiquidity",
              "type": "uint256"
            },
            {
              "internalType": "uint256",
              "name": "percentageForTeam",
              "type": "uint256"
            },
            {
              "internalType": "uint256",
              "name": "startDate",
              "type": "uint256"
            },
            {
              "internalType": "uint256",
              "name": "endDate",
              "type": "uint256"
            }
          ],
          "internalType": "struct FairLaunchConfig",
          "name": "config",
          "type": "tuple"
        }
      ],
      "name": "newFairLaunch",
      "outputs": [
        {
          "internalType": "address",
          "name": "",
          "type": "address"
        }
      ],
      "stateMutability": "payable",
      "type": "function"
    },
    {
      "inputs": [],
      "name": "owner",
      "outputs": [
        {
          "internalType": "address",
          "name": "",
          "type": "address"
        }
      ],
      "stateMutability": "view",
      "type": "function"
    },
    {
      "inputs": [],
      "name": "renounceOwnership",
      "outputs": [],
      "stateMutability": "nonpayable",
      "type": "function"
    },
    {
      "inputs": [
        {
          "internalType": "address",
          "name": "newOwner",
          "type": "address"
        }
      ],
      "name": "transferOwnership",
      "outputs": [],
      "stateMutability": "nonpayable",
      "type": "function"
    },
    {
      "inputs": [
        {
          "internalType": "uint256[]",
          "name": "_fees",
          "type": "uint256[]"
        }
      ],
      "name": "upadateCreationFees",
      "outputs": [],
      "stateMutability": "nonpayable",
      "type": "function"
    },
    {
      "inputs": [],
      "name": "withdraw",
      "outputs": [],
      "stateMutability": "nonpayable",
      "type": "function"
    },
    {
      "inputs": [
        {
          "internalType": "address",
          "name": "token",
          "type": "address"
        }
      ],
      "name": "withdrawToken",
      "outputs": [],
      "stateMutability": "nonpayable",
      "type": "function"
    },
    {
      "stateMutability": "payable",
      "type": "receive"
    }
  ],
  "bytecode": "0x6080806040523461018157331561016b5760008054336001600160a01b0319821681178355604051916001600160a01b03167f8be0079c531659141344cd1fd0a4f28419497f9722a3daafe3b4186f6b6457e08480a3608081016001600160401b038111828210176101575760405266038d7ea4c6800081526020674563918244f400006020830152678ac7230489e80000604083015268015af1d78b58c400006060830152600254916004926004600255806004106100f7575b50906002845260208420935b8381106100dc57604051612eba90816101878239f35b82516001600160481b031685820155918101916001016100c6565b600285527f405787fa12a823e0f2b7631cc41b3ba8828b3321ca811111fa75cd3aa3bb5ace017f405787fa12a823e0f2b7631cc41b3ba8828b3321ca811111fa75cd3aa3bb5ad25b81811061014c57506100ba565b85815560010161013f565b634e487b7160e01b83526041600452602483fd5b631e4fbdf760e01b815260006004820152602490fd5b600080fdfe6040608081526004908136101562000022575b505036156200002057600080fd5b005b600091823560e01c80633683bdcf146200107057806339354c601462000b195780633ccfd60b1462000ac257806342bca1201462000a875780634455a34314620009ce578063555a1a7b146200098157806357ad39221462000921578063715018a614620008b75780638947606914620007645780638da5cb5b146200073c5780639f886f261462000623578063b6e1527414620005d3578063bd9788331462000518578063c8527f4714620003a1578063ca3df80e146200021e578063d5f63a0614620001fd578063e5e868ab14620001be5763f2fde38b1462000108575062000012565b34620001ba576020366003190112620001ba57620001256200110c565b90620001306200130b565b6001600160a01b038092169283156200018b57505082548273ffffffffffffffffffffffffffffffffffffffff198216178455167f8be0079c531659141344cd1fd0a4f28419497f9722a3daafe3b4186f6b6457e08380a380f35b908460249251917f1e4fbdf7000000000000000000000000000000000000000000000000000000008352820152fd5b8280fd5b505034620001f9576020366003190112620001f957806020926001600160a01b03620001e96200110c565b1681526001845220549051908152f35b5080fd5b505034620001f95781600319360112620001f9576020906003549051908152f35b509034620001ba57602090816003193601126200039d5767ffffffffffffffff9280358481116200039957366023820112156200039957808201359085821162000386578160051b9351916200027786860184620010d3565b8252848201602481958301019136831162000382576024879101915b838310620003715750505050620002a96200130b565b519384116200035e576801000000000000000084116200035e5750600254836002558084106200031b575b509060028452835b838110620002e8578480f35b82517f405787fa12a823e0f2b7631cc41b3ba8828b3321ca811111fa75cd3aa3bb5ace82015591810191600101620002dc565b837f405787fa12a823e0f2b7631cc41b3ba8828b3321ca811111fa75cd3aa3bb5ace91820191015b818110620003525750620002d4565b85815560010162000343565b846041602492634e487b7160e01b835252fd5b823581529181019187910162000293565b8880fd5b602487604185634e487b7160e01b835252fd5b8580fd5b8380fd5b505034620001f957610180366003190112620001f957620003c23662001128565b61016435926001600160a01b0384168403620005155750620004a3601f620004e192620004ee611b349160209788918851916200040284870184620010d3565b858352838301956200135187398951978891858301938490610160909392936101808301946001600160a01b03918281511685526020810151602086015260408101516040860152606081015160608601526080810151608086015260a081015160a086015260c081015160c086015260e081015160e086015261010080820151908601526101208082015190860152610140809101519085015216910152565b0396620004b8871998898101835282620010d3565b8951988993620004d186860198899251928391620011f3565b84019151809386840190620011f3565b01038087520185620010d3565b6200050c8551968795818752519283809288015287870190620011f3565b01168101030190f35b80fd5b82843462000515578060031936011262000515579080519182906002549182855260208095018093600284527f405787fa12a823e0f2b7631cc41b3ba8828b3321ca811111fa75cd3aa3bb5ace90845b818110620005be575050508162000581910382620010d3565b83519485948186019282875251809352850193925b828110620005a657505050500390f35b83518552869550938101939281019260010162000596565b82548452928801926001928301920162000568565b5034620001ba576020366003190112620001ba5735600254811015620001ba576002602093527f405787fa12a823e0f2b7631cc41b3ba8828b3321ca811111fa75cd3aa3bb5ace01549051908152f35b50919034620001f95780600319360112620001f95767ffffffffffffffff918335838111620001f95736602382011215620001f9578085013584811162000729578351906200067d601f8201601f191660200183620010d3565b8082526020820192366024838301011162000725578185926024602093018637830101525190209180519160208301937fff0000000000000000000000000000000000000000000000000000000000000085523060601b602185015260243560358501526055840152605583526080830194838610908611176200071257848252825184206001600160a01b03168552602085f35b80604187634e487b7160e01b6024945252fd5b8480fd5b602483604188634e487b7160e01b835252fd5b505034620001f95781600319360112620001f9576001600160a01b0360209254169051908152f35b5034620001ba57602091826003193601126200039d57620007846200110c565b916200078f6200130b565b6001600160a01b038093169285541690858351947f70a0823100000000000000000000000000000000000000000000000000000000865230838701528686602481845afa958615620008ad57908291889594939762000871575b509060449291865197889586947fa9059cbb00000000000000000000000000000000000000000000000000000000865285015260248401525af190811562000868575062000835578280f35b816200085992903d1062000860575b620008508183620010d3565b81019062001271565b5038808280f35b503d62000844565b513d85823e3d90fd5b85819493969298503d8311620008a5575b6200088e8183620010d3565b810103126200039d579051948693906044620007e9565b503d62000882565b85513d84823e3d90fd5b83346200051557806003193601126200051557620008d46200130b565b806001600160a01b03815473ffffffffffffffffffffffffffffffffffffffff1981168355167f8be0079c531659141344cd1fd0a4f28419497f9722a3daafe3b4186f6b6457e08280a380f35b505034620001f95780600319360112620001f9576200093f6200110c565b602435926001600160a01b03809216815260016020528281209081548510156200051557506020936200097291620011c4565b92905490519260031b1c168152f35b505034620001f957610160366003190112620001f957602090620009a53662001128565b68056bc75e2d63100000606082015191608060e082015185830151029101510204019051908152f35b505034620001f9576020918260031936011262000515576001600160a01b039081620009f96200110c565b1681526001916001855283822094845191828288549182815201908198865283862090865b81811062000a71575050508362000a37910384620010d3565b855195828701938388525180945286019693905b83821062000a595786880387f35b84518116885296820196938201939085019062000a4b565b8254851684529285019291880191880162000a1e565b509134620005155760a036600319011262000515575062000abb60209260843590606435906044359060243590356200129a565b9051908152f35b505034620001f95781600319360112620001f95762000ae06200130b565b818080806001600160a01b03815416479082821562000b0f575bf11562000b05575080f35b51903d90823e3d90fd5b506108fc62000afa565b509190610160366003190112620001f95762000b353662001128565b90600254156200105d57600283527f405787fa12a823e0f2b7631cc41b3ba8828b3321ca811111fa75cd3aa3bb5ace54341062000ff55760e0820193603c85511062000f67576101008301602881511162000ed85762000b9c606491875190519062001263565b0362000e4a5781830151606084015195519060808501516001600160a01b039283875116988651809a7f313ce567000000000000000000000000000000000000000000000000000000008252818860209d8e935afa90811562000e40578a9162000dfd575b509060ff62000c159594939216936200129a565b9033865260018752838620548451611b348082019082821067ffffffffffffffff83111762000dea57829162000ccd9162001351843989516001600160a01b031681526020808b0151908201526040808b0151908201526060808b0151908201526080808b01519082015260a0808b01519082015260c0808b01519082015260e0808b015190820152610100808b015190820152610120808b015190820152610140808b015190820152336101608201526101800190565b039088f5801562000de057811694338752600188528487208054906801000000000000000082101562000dcd579162000d128260649460018d989795018155620011c4565b81549060031b90848b831b921b191617905551169387865195869485937f23b872dd000000000000000000000000000000000000000000000000000000008552339085015289602485015260448401525af1801562000dc3579083929162000da1575b5051927f3e898072f60c1097ffd1556ec02786c3af00b0f9a3c971db360f7539abeb6d21339180a38152f35b62000dbb90863d88116200086057620008508183620010d3565b503862000d75565b82513d86823e3d90fd5b602489604188634e487b7160e01b835252fd5b84513d88823e3d90fd5b60248a604189634e487b7160e01b835252fd5b90508a81813d831162000e38575b62000e178183620010d3565b8101031262000e34575160ff8116810362000e345760ff62000c01565b8980fd5b503d62000e0b565b88513d8c823e3d90fd5b602060a492519162461bcd60e51b8352820152605f60248201527f546872757374706164466169724c61756e6368466163746f72793a207065726360448201527f656e7461676520666f72204c6971756964697479202b2070657263656e74616760648201527f6520666f72205465616d206d75737420626520657175616c20746f20313030006084820152fd5b50602060a492519162461bcd60e51b8352820152604660248201527f546872757374706164466169724c61756e6368466163746f72793a207065726360448201527f656e7461676520666f72205465616d2063616e6e6f74206265206c657373207460648201527f68616e20343000000000000000000000000000000000000000000000000000006084820152fd5b602060a492519162461bcd60e51b8352820152604b60248201527f546872757374706164466169724c61756e6368466163746f72793a207065726360448201527f656e7461676520666f72204c69717569646974792063616e6e6f74206265206c60648201527f657373207468616e2036300000000000000000000000000000000000000000006084820152fd5b5162461bcd60e51b8152602081850152602c60248201527f546872757374706164466169724c61756e6368466163746f72793a20496e737560448201527f6666696369656e742066656500000000000000000000000000000000000000006064820152608490fd5b602483603286634e487b7160e01b835252fd5b50913462000515576060366003190112620005155760443560ff8116809103620001f957620010a3602435853562001218565b91604d8211620010c05760208462000abb8585600a0a9062001239565b80601186634e487b7160e01b6024945252fd5b90601f8019910116810190811067ffffffffffffffff821117620010f657604052565b634e487b7160e01b600052604160045260246000fd5b600435906001600160a01b03821682036200112357565b600080fd5b9061016080926003190112620011235760405191820182811067ffffffffffffffff821117620010f657604052816004356001600160a01b038116810362001123578152602435602082015260443560408201526064356060820152608435608082015260a43560a082015260c43560c082015260e43560e0820152610104356101008201526101243561012082015261014061014435910152565b8054821015620011dd5760005260206000200190600090565b634e487b7160e01b600052603260045260246000fd5b60005b838110620012075750506000910152565b8181015183820152602001620011f6565b811562001223570490565b634e487b7160e01b600052601260045260246000fd5b818102929181159184041417156200124d57565b634e487b7160e01b600052601160045260246000fd5b919082018092116200124d57565b908160209103126200112357518015158103620011235790565b604d81116200124d57600a0a90565b620012ad90620012b39394929462001239565b62001239565b82601201806012116200124d57620012cb906200128b565b92836064029360648504036200124d57620012fa620012f36200130895620013019462001218565b916200128b565b9062001239565b9062001263565b90565b6001600160a01b036000541633036200132057565b60246040517f118cdaa7000000000000000000000000000000000000000000000000000000008152336004820152fdfe6080346200022057601f62001b3438819003918201601f1916830192916001600160401b039190828511848610176200020a578084926040968752833981010392610180841262000220576101608094126200022057805191848301908111838210176200020a578152620000748362000225565b82526020830151602083019081528184015182840190815260608501516060850190815260808601516080860190815260a08701519160a0870192835260c08801519360c0880194855260e08901519560e0890196875261010097888b0151988a01988952610120998a8c01519a81019a8b526101409b8c8101519c82019c8d526200010a60018060a01b039e8f920162000225565b168015620001f257600080546001600160a01b03198082168417835594519f939291908416907f8be0079c531659141344cd1fd0a4f28419497f9722a3daafe3b4186f6b6457e09080a36001805573a9cbef0c9274f985340816ed2074abf5aac2546383601254161760125573135e304139c5113895c97dce8b9eda56d4b53cf983601354161760135573b5cab4e42cb5f16d00c644cb7163f8b427d7a8bf83601454161760145551169060025416176002555160035551600455516005555160065551600755516008555160095551600a5551600b5551600c556118f990816200023b8239f35b8251631e4fbdf760e01b815260006004820152602490fd5b634e487b7160e01b600052604160045260246000fd5b600080fd5b51906001600160a01b0382168203620002205756fe608080604052600436101561001d575b50361561001b57600080fd5b005b60003560e01c9081632f334652146114cd5750806338af6632146113375780634086bf8914610c6d57806348c54b9d14610b3f57806362eba8b014610b18578063677342ce14610af2578063715018a614610a8c57806379502c5514610a0c5780637d7cf6c5146109e55780638da5cb5b146109be5780639106d7ba146109a0578063953b7ef81461087357806397d569971461084c5780639c5913cc14610829578063a4821719146104d7578063b5545a3c146103be578063c3828bf014610394578063c884ef831461035a578063cd309ec914610328578063d812195c146102de578063dbf0f3e21461023b578063e45f2b8a14610201578063f251fc8c146101e35763f2fde38b14610132573861000f565b346101de5760203660031901126101de5761014b6114f0565b610153611844565b6001600160a01b038091169081156101ad576000548273ffffffffffffffffffffffffffffffffffffffff19821617600055167f8be0079c531659141344cd1fd0a4f28419497f9722a3daafe3b4186f6b6457e0600080a3005b60246040517f1e4fbdf700000000000000000000000000000000000000000000000000000000815260006004820152fd5b600080fd5b346101de5760003660031901126101de576020600e54604051908152f35b346101de5760203660031901126101de576001600160a01b036102226114f0565b1660005260106020526020604060002054604051908152f35b346101de5760403660031901126101de576102546114f0565b61025c611844565b61026a600c544210156117f9565b60405163a9059cbb60e01b8152336004820152602480359082015290602090829060449082906000906001600160a01b03165af180156102d2576102aa57005b61001b9060203d6020116102cb575b6102c38183611513565b810190611535565b503d6102b9565b6040513d6000823e3d90fd5b346101de5760203660031901126101de5760008080806004356102ff611844565b61030d600c544210156117f9565b81811561031f575b3390f1156102d257005b506108fc610315565b346101de5760403660031901126101de576020610349602435600435611731565b6001600160a01b0360405191168152f35b346101de5760203660031901126101de576001600160a01b0361037b6114f0565b1660005260116020526020604060002054604051908152f35b346101de5760003660031901126101de5760206001600160a01b03600f5460101c16604051908152f35b346101de5760003660031901126101de576103d7611888565b6103e5600c5442101561154d565b600d5460035411156104855733600052601160205261040960406000205415611681565b336000526010602052604060002054601160205280604060002055806000811561047c575b600080809381933390f1156102d2576001600160a01b0360025416906040519081527ff40cc8c1a1d17359049ba500cfc894596a692cffc9d03943cd92ec2e159cf6ae60203392a360018055005b506108fc61042e565b608460405162461bcd60e51b815260206004820152602560248201527f546872757374706164466169724c61756e63683a20736f6674206361702072656044820152641858da195960da1b6064820152fd5b60003660031901126101de57600b5442106107bf57600c5442116107555760075434106106eb5760085480341161068157600d54906105163483611506565b6004541061062f5733600052601060205261053634604060002054611506565b116105c557610546903490611506565b600d55600e54600181018091116105af57600e553360005260106020526040600020610573348254611506565b90556001600160a01b03600254166040513481527f9b24bd0884170cbce51f9f00df6b3f9aed2231e4086241d1d04687b42afdf7b960203392a3005b634e487b7160e01b600052601160045260246000fd5b608460405162461bcd60e51b815260206004820152603360248201527f546872757374706164466169724c61756e63683a2077616c6c6574206861732060448201527f72656163686564206d6178696d756d20627579000000000000000000000000006064820152fd5b608460405162461bcd60e51b815260206004820152602560248201527f546872757374706164466169724c61756e63683a2068617264206361702072656044820152641858da195960da1b6064820152fd5b608460405162461bcd60e51b815260206004820152603460248201527f546872757374706164466169724c61756e63683a20616d6f756e74206973206d60448201527f6f7265207468616e206d6178696d756d206275790000000000000000000000006064820152fd5b608460405162461bcd60e51b815260206004820152603460248201527f546872757374706164466169724c61756e63683a20616d6f756e74206973206c60448201527f657373207468616e206d696e696d756d206275790000000000000000000000006064820152fd5b608460405162461bcd60e51b815260206004820152602360248201527f546872757374706164466169724c61756e63683a2073616c652068617320656e60448201527f64656400000000000000000000000000000000000000000000000000000000006064820152fd5b608460405162461bcd60e51b815260206004820152602d60248201527f546872757374706164466169724c61756e63683a2073616c6520686173206e6f60448201527f74207374617274656420796574000000000000000000000000000000000000006064820152fd5b346101de5760003660031901126101de57602060ff600f54166040519015158152f35b346101de5760003660031901126101de5760206001600160a01b0360145416604051908152f35b346101de5760003660031901126101de5761088c611844565b61089a600c5442101561154d565b600d546108ab6003548210156115be565b600f549060ff8260081c166109365760646108cb61010092600a5461164e565b049161ff00191617600f556001600160a01b036000808080858582541682821561092d575bf1156102d2577fa95e69983c44f17474cba286953deb119463b9f5cb8cfde4fd709df3660266f760208260005416926002541693604051908152a3005b506108fc6108f0565b608460405162461bcd60e51b815260206004820152603060248201527f546872757374706164466169724c61756e63683a207465616d20746f6b656e7360448201527f20616c726561647920636c61696d6564000000000000000000000000000000006064820152fd5b346101de5760003660031901126101de576020600d54604051908152f35b346101de5760003660031901126101de5760206001600160a01b0360005416604051908152f35b346101de5760003660031901126101de5760206001600160a01b0360135416604051908152f35b346101de5760003660031901126101de576101606001600160a01b03600254166003546004546005546006546007546008549060095492600a5494600b5496600c54986040519a8b5260208b015260408a01526060890152608088015260a087015260c086015260e0850152610100840152610120830152610140820152f35b346101de5760003660031901126101de57610aa5611844565b60006001600160a01b03815473ffffffffffffffffffffffffffffffffffffffff1981168355167f8be0079c531659141344cd1fd0a4f28419497f9722a3daafe3b4186f6b6457e08280a3005b346101de5760203660031901126101de576020610b106004356116f2565b604051908152f35b346101de5760003660031901126101de5760206001600160a01b0360125416604051908152f35b346101de5760003660031901126101de57610b58611888565b610b66600c5442101561154d565b610b76600d5460035411156115be565b33600052602060118152610b8f60406000205415611681565b610bb4610ba160055460045490611661565b336000526010835260406000205461164e565b3360005260118252806040600020556001600160a01b0380600254169083604051809363a9059cbb60e01b825281600081610c09893360048401602090939291936001600160a01b0360408201951681520152565b03925af19182156102d2577f4831bdd9dcf3048a28319ce81d3cab7a15366bcf449bc7803a539107440809cc92610c50575b5060025416926040519283523392a360018055005b610c6690853d87116102cb576102c38183611513565b5084610c3b565b346101de5760003660031901126101de57610c86611844565b610c94600c5442101561154d565b610ca4600d5460035411156115be565b6001600160a01b03601454166001600160a01b03601254166001600160a01b036002541690606460206001600160a01b036013541694604051928380927f1698ee82000000000000000000000000000000000000000000000000000000008252876004830152886024830152610bb860448301525afa80156102d2576001600160a01b0391600091611318575b50166112ae5782821461126a5782821015611264578192915b6001600160a01b0384161561122057600080916001600160a01b038516811461120b575b6001600160a01b038616146111f8575b6084610d946020936001600160a01b0393611731565b600060405195869485937f13ead562000000000000000000000000000000000000000000000000000000008552818b166004860152818a166024860152610bb860448601521660648401525af180156102d2576111c9575b50600060206001600160a01b036002541660446001600160a01b036012541660405194859384927f095ea7b30000000000000000000000000000000000000000000000000000000084526004840152811960248401525af180156102d2576111aa575b506064610e61600954600d549061164e565b0491610e6f6006548461164e565b916001600160a01b0360125416936001600160a01b036002541693846001600160a01b038516146000146111a35780945b6001600160a01b0384160361119c57905b61012c420142116105af57604051918261016081011067ffffffffffffffff61016085011117611186576080956001600160a01b036101649581610140986101608801604052168652166020850152610bb86040850152620d89b3196060850152620d89b48785015260a084015260c0830152600060e083015260006101008301523361012083015261012c42018483015260405195869485937f883164560000000000000000000000000000000000000000000000000000000085526001600160a01b0381511660048601526001600160a01b03602082015116602486015262ffffff6040820151166044860152606081015160020b60648601528781015160020b608486015260a081015160a486015260c081015160c486015260e081015160e48601526101008101516101048601526001600160a01b036101208201511661012486015201516101448401525af180156102d25760009160008091600093611121575b506001600160a01b0360025416926040516370a0823160e01b8152306004820152602081602481885afa9081156102d2576000916110ee575b506000946044602092604051978893849263a9059cbb60e01b845282600485015260248401525af19283156102d2577f93c8c206bc4e0e31ab69b39355c974c1584de6caae2b529dc41fe11fcf218ed3946060946110cf575b506fffffffffffffffffffffffffffffffff6040519316835260208301526040820152a2005b6110e79060203d6020116102cb576102c38183611513565b50866110a9565b90506020813d602011611119575b8161110960209383611513565b810103126101de57516000611050565b3d91506110fc565b93505050506080813d60801161117e575b8161113f60809383611513565b810103126101de578051906020810151916fffffffffffffffffffffffffffffffff831683036101de5760606040830151920151909291909184611017565b3d9150611132565b634e487b7160e01b600052604160045260246000fd5b5080610eb1565b8194610ea0565b6111c29060203d6020116102cb576102c38183611513565b5082610e4f565b6111ea9060203d6020116111f1575b6111e28183611513565b81019061162f565b5082610dec565b503d6111d8565b5050600654670de0b6b3a7640000610d7e565b915050600654670de0b6b3a764000091610d6e565b606460405162461bcd60e51b815260206004820152600c60248201527f5a45524f5f4144445245535300000000000000000000000000000000000000006044820152fd5b81610d4a565b606460405162461bcd60e51b815260206004820152601360248201527f4944454e544943414c5f414444524553534553000000000000000000000000006044820152fd5b608460405162461bcd60e51b815260206004820152602860248201527f546872757374706164466169724c61756e63683a205061697220616c7265616460448201527f79206578697374730000000000000000000000000000000000000000000000006064820152fd5b611331915060203d6020116111f1576111e28183611513565b85610d31565b346101de5760003660031901126101de57611350611844565b600c5462278d0081018091116105af574210611463576001600160a01b0380600f5460101c16604051906370a0823160e01b82523060048301526020928383602481855afa9283156102d257600093611434575b50826113ac57005b60405163a9059cbb60e01b815233600482015260248101849052918490839060449082906000905af19182156102d2577f4f2e1c4d34092405172a61f387073a9b61bfcbb54eceb1e96383d36e19b394a992611417575b50600f5460101c16926040519283523392a3005b61142d90853d87116102cb576102c38183611513565b5084611403565b9092508381813d831161145c575b61144c8183611513565b810103126101de575191846113a4565b503d611442565b608460405162461bcd60e51b815260206004820152602d60248201527f546872757374706164466169724c61756e63683a204c6f636b20706572696f6460448201527f206e6f74206f76657220796574000000000000000000000000000000000000006064820152fd5b346101de5760003660031901126101de5760209060ff600f5460081c1615158152f35b600435906001600160a01b03821682036101de57565b919082018092116105af57565b90601f8019910116810190811067ffffffffffffffff82111761118657604052565b908160209103126101de575180151581036101de5790565b1561155457565b608460405162461bcd60e51b815260206004820152602b60248201527f546872757374706164466169724c61756e63683a2073616c6520686173206e6f60448201527f7420656e646564207965740000000000000000000000000000000000000000006064820152fd5b156115c557565b608460405162461bcd60e51b815260206004820152602960248201527f546872757374706164466169724c61756e63683a20736f667420636170206e6f60448201527f74207265616368656400000000000000000000000000000000000000000000006064820152fd5b908160209103126101de57516001600160a01b03811681036101de5790565b818102929181159184041417156105af57565b811561166b570490565b634e487b7160e01b600052601260045260246000fd5b1561168857565b608460405162461bcd60e51b815260206004820152602b60248201527f546872757374706164466169724c61756e63683a20746f6b656e7320616c726560448201527f61647920636c61696d65640000000000000000000000000000000000000000006064820152fd5b9060018083018084116105af5760011c90835b84831061171157505050565b90919350611728846117238184611661565b611506565b821c9190611705565b811515806117f0575b156117ac576117549161174f9160c01b611661565b6116f2565b6001600160a01b0390818111611768571690565b606460405162461bcd60e51b815260206004820152601360248201527f535152545f50524943455f544f4f5f48494748000000000000000000000000006044820152fd5b606460405162461bcd60e51b815260206004820152601060248201527f494e56414c49445f5245534552564553000000000000000000000000000000006044820152fd5b5080151561173a565b1561180057565b606460405162461bcd60e51b815260206004820152600e60248201527f4e6f7420617574686f72697a65640000000000000000000000000000000000006044820152fd5b6001600160a01b0360005416330361185857565b60246040517f118cdaa7000000000000000000000000000000000000000000000000000000008152336004820152fd5b600260015414611899576002600155565b60046040517f3ee5aeb5000000000000000000000000000000000000000000000000000000008152fdfea264697066735822122092e66c8af1cba26e0552a737528d26376b38d1c3bd9cba2035e1873701ce8e5264736f6c63430008180033a26469706673582212208d7f91ada90b2194182e5b4e5ea73447d4a6d1092b2a20a32b6542ba1ec130ff64736f6c63430008180033",
  "linkReferences": {},
  "deployedLinkReferences": {}
}