{
  "_format": "hh-sol-artifact-1",
  "contractName": "ThrustpadFairLaunchFactory",
  "sourceName": "contracts/fair-launch/ThrustpadFairLaunchFactory.sol",
  "abi": [
    {
      "anonymous": false,
      "inputs": [
        {
          "indexed": true,
          "internalType": "address",
          "name": "creator",
          "type": "address"
        },
        {
          "indexed": true,
          "internalType": "address",
          "name": "launch",
          "type": "address"
        }
      ],
      "name": "NewFairLaunch",
      "type": "event"
    },
    {
      "inputs": [
        {
          "internalType": "address",
          "name": "",
          "type": "address"
        },
        {
          "internalType": "uint256",
          "name": "",
          "type": "uint256"
        }
      ],
      "name": "deployedLaunches",
      "outputs": [
        {
          "internalType": "address",
          "name": "",
          "type": "address"
        }
      ],
      "stateMutability": "view",
      "type": "function"
    },
    {
      "inputs": [
        {
          "internalType": "bytes",
          "name": "bytecode",
          "type": "bytes"
        },
        {
          "internalType": "uint256",
          "name": "salt",
          "type": "uint256"
        }
      ],
      "name": "getAddressCreate2",
      "outputs": [
        {
          "internalType": "address",
          "name": "",
          "type": "address"
        }
      ],
      "stateMutability": "view",
      "type": "function"
    },
    {
      "inputs": [
        {
          "components": [
            {
              "internalType": "address",
              "name": "token",
              "type": "address"
            },
            {
              "internalType": "uint256",
              "name": "softCap",
              "type": "uint256"
            },
            {
              "internalType": "uint256",
              "name": "hardCap",
              "type": "uint256"
            },
            {
              "internalType": "uint256",
              "name": "amountForSale",
              "type": "uint256"
            },
            {
              "internalType": "uint256",
              "name": "listingRate",
              "type": "uint256"
            },
            {
              "internalType": "uint256",
              "name": "minimumBuy",
              "type": "uint256"
            },
            {
              "internalType": "uint256",
              "name": "maximumBuy",
              "type": "uint256"
            },
            {
              "internalType": "uint256",
              "name": "percentageForLiquidity",
              "type": "uint256"
            },
            {
              "internalType": "uint256",
              "name": "percentageForTeam",
              "type": "uint256"
            },
            {
              "internalType": "uint256",
              "name": "startDate",
              "type": "uint256"
            },
            {
              "internalType": "uint256",
              "name": "endDate",
              "type": "uint256"
            }
          ],
          "internalType": "struct FairLaunchConfig",
          "name": "config",
          "type": "tuple"
        }
      ],
      "name": "getBytecode",
      "outputs": [
        {
          "internalType": "bytes",
          "name": "",
          "type": "bytes"
        }
      ],
      "stateMutability": "pure",
      "type": "function"
    },
    {
      "inputs": [
        {
          "internalType": "address",
          "name": "creator",
          "type": "address"
        }
      ],
      "name": "getdeployedLaunches",
      "outputs": [
        {
          "internalType": "address[]",
          "name": "",
          "type": "address[]"
        }
      ],
      "stateMutability": "view",
      "type": "function"
    },
    {
      "inputs": [
        {
          "internalType": "address",
          "name": "creator",
          "type": "address"
        }
      ],
      "name": "getdeployedLaunchesLen",
      "outputs": [
        {
          "internalType": "uint256",
          "name": "",
          "type": "uint256"
        }
      ],
      "stateMutability": "view",
      "type": "function"
    },
    {
      "inputs": [
        {
          "components": [
            {
              "internalType": "address",
              "name": "token",
              "type": "address"
            },
            {
              "internalType": "uint256",
              "name": "softCap",
              "type": "uint256"
            },
            {
              "internalType": "uint256",
              "name": "hardCap",
              "type": "uint256"
            },
            {
              "internalType": "uint256",
              "name": "amountForSale",
              "type": "uint256"
            },
            {
              "internalType": "uint256",
              "name": "listingRate",
              "type": "uint256"
            },
            {
              "internalType": "uint256",
              "name": "minimumBuy",
              "type": "uint256"
            },
            {
              "internalType": "uint256",
              "name": "maximumBuy",
              "type": "uint256"
            },
            {
              "internalType": "uint256",
              "name": "percentageForLiquidity",
              "type": "uint256"
            },
            {
              "internalType": "uint256",
              "name": "percentageForTeam",
              "type": "uint256"
            },
            {
              "internalType": "uint256",
              "name": "startDate",
              "type": "uint256"
            },
            {
              "internalType": "uint256",
              "name": "endDate",
              "type": "uint256"
            }
          ],
          "internalType": "struct FairLaunchConfig",
          "name": "config",
          "type": "tuple"
        }
      ],
      "name": "newFairLaunch",
      "outputs": [
        {
          "internalType": "address",
          "name": "",
          "type": "address"
        }
      ],
      "stateMutability": "nonpayable",
      "type": "function"
    }
  ],
  "bytecode": "0x608060405234801561001057600080fd5b50613db5806100206000396000f3fe60806040523480156200001157600080fd5b50600436106200006a5760003560e01c806306a339ee146200006f57806339354c6014620000a55780634455a34314620000db57806357ad392214620001115780639f886f261462000147578063e5e868ab146200017d575b600080fd5b6200008d600480360381019062000087919062000980565b620001b3565b6040516200009c919062000a3c565b60405180910390f35b620000c36004803603810190620000bd919062000980565b6200022c565b604051620000d2919062000a71565b60405180910390f35b620000f96004803603810190620000f3919062000a8e565b62000549565b60405162000108919062000b8e565b60405180910390f35b6200012f600480360381019062000129919062000bb2565b62000617565b6040516200013e919062000a71565b60405180910390f35b6200016560048036038101906200015f919062000cc6565b62000666565b60405162000174919062000a71565b60405180910390f35b6200019b600480360381019062000195919062000a8e565b620006b2565b604051620001aa919062000d3d565b60405180910390f35b6060600060405180602001620001c990620006fd565b6020820181038252601f19601f8201166040525090508083604051602001620001f3919062000e62565b6040516020818303038152906040526040516020016200021592919062000ec2565b604051602081830303815290604052915050919050565b60006012826000015173ffffffffffffffffffffffffffffffffffffffff1663313ce5676040518163ffffffff1660e01b8152600401602060405180830381865afa15801562000280573d6000803e3d6000fd5b505050506040513d601f19601f82011682018060405250810190620002a6919062000f28565b60ff1614620002ec576040517f08c379a0000000000000000000000000000000000000000000000000000000008152600401620002e39062000fe1565b60405180910390fd5b60008060003373ffffffffffffffffffffffffffffffffffffffff1673ffffffffffffffffffffffffffffffffffffffff1681526020019081526020016000208054905060001b836040516200034290620006fd565b6200034e919062000e62565b8190604051809103906000f59050801580156200036f573d6000803e3d6000fd5b5090506000803373ffffffffffffffffffffffffffffffffffffffff1673ffffffffffffffffffffffffffffffffffffffff168152602001908152602001600020819080600181540180825580915050600190039060005260206000200160009091909190916101000a81548173ffffffffffffffffffffffffffffffffffffffff021916908373ffffffffffffffffffffffffffffffffffffffff16021790555060006064846080015185604001518660e0015162000430919062001032565b6200043c919062001032565b620004489190620010ac565b8460600151620004599190620010e4565b9050836000015173ffffffffffffffffffffffffffffffffffffffff166323b872dd3384846040518463ffffffff1660e01b81526004016200049e939291906200111f565b6020604051808303816000875af1158015620004be573d6000803e3d6000fd5b505050506040513d601f19601f82011682018060405250810190620004e4919062001199565b508173ffffffffffffffffffffffffffffffffffffffff163373ffffffffffffffffffffffffffffffffffffffff167f3e898072f60c1097ffd1556ec02786c3af00b0f9a3c971db360f7539abeb6d2160405160405180910390a38192505050919050565b60606000808373ffffffffffffffffffffffffffffffffffffffff1673ffffffffffffffffffffffffffffffffffffffff1681526020019081526020016000208054806020026020016040519081016040528092919081815260200182805480156200060b57602002820191906000526020600020905b8160009054906101000a900473ffffffffffffffffffffffffffffffffffffffff1673ffffffffffffffffffffffffffffffffffffffff1681526020019060010190808311620005c0575b50505050509050919050565b600060205281600052604060002081815481106200063457600080fd5b906000526020600020016000915091509054906101000a900473ffffffffffffffffffffffffffffffffffffffff1681565b60008060ff60f81b308486805190602001206040516020016200068d9493929190620012c0565b6040516020818303038152906040528051906020012090508060001c91505092915050565b60008060008373ffffffffffffffffffffffffffffffffffffffff1673ffffffffffffffffffffffffffffffffffffffff168152602001908152602001600020805490509050919050565b612a69806200131783390190565b6000604051905090565b600080fd5b600080fd5b600080fd5b6000601f19601f8301169050919050565b7f4e487b7100000000000000000000000000000000000000000000000000000000600052604160045260246000fd5b6200076f8262000724565b810181811067ffffffffffffffff8211171562000791576200079062000735565b5b80604052505050565b6000620007a66200070b565b9050620007b4828262000764565b919050565b600073ffffffffffffffffffffffffffffffffffffffff82169050919050565b6000620007e682620007b9565b9050919050565b620007f881620007d9565b81146200080457600080fd5b50565b6000813590506200081881620007ed565b92915050565b6000819050919050565b62000833816200081e565b81146200083f57600080fd5b50565b600081359050620008538162000828565b92915050565b600061016082840312156200087357620008726200071f565b5b620008806101606200079a565b90506000620008928482850162000807565b6000830152506020620008a88482850162000842565b6020830152506040620008be8482850162000842565b6040830152506060620008d48482850162000842565b6060830152506080620008ea8482850162000842565b60808301525060a0620009008482850162000842565b60a08301525060c0620009168482850162000842565b60c08301525060e06200092c8482850162000842565b60e083015250610100620009438482850162000842565b610100830152506101206200095b8482850162000842565b61012083015250610140620009738482850162000842565b6101408301525092915050565b600061016082840312156200099a576200099962000715565b5b6000620009aa8482850162000859565b91505092915050565b600081519050919050565b600082825260208201905092915050565b60005b83811015620009ef578082015181840152602081019050620009d2565b60008484015250505050565b600062000a0882620009b3565b62000a148185620009be565b935062000a26818560208601620009cf565b62000a318162000724565b840191505092915050565b6000602082019050818103600083015262000a588184620009fb565b905092915050565b62000a6b81620007d9565b82525050565b600060208201905062000a88600083018462000a60565b92915050565b60006020828403121562000aa75762000aa662000715565b5b600062000ab78482850162000807565b91505092915050565b600081519050919050565b600082825260208201905092915050565b6000819050602082019050919050565b62000af781620007d9565b82525050565b600062000b0b838362000aec565b60208301905092915050565b6000602082019050919050565b600062000b318262000ac0565b62000b3d818562000acb565b935062000b4a8362000adc565b8060005b8381101562000b8157815162000b65888262000afd565b975062000b728362000b17565b92505060018101905062000b4e565b5085935050505092915050565b6000602082019050818103600083015262000baa818462000b24565b905092915050565b6000806040838503121562000bcc5762000bcb62000715565b5b600062000bdc8582860162000807565b925050602062000bef8582860162000842565b9150509250929050565b600080fd5b600080fd5b600067ffffffffffffffff82111562000c215762000c2062000735565b5b62000c2c8262000724565b9050602081019050919050565b82818337600083830152505050565b600062000c5f62000c598462000c03565b6200079a565b90508281526020810184848401111562000c7e5762000c7d62000bfe565b5b62000c8b84828562000c39565b509392505050565b600082601f83011262000cab5762000caa62000bf9565b5b813562000cbd84826020860162000c48565b91505092915050565b6000806040838503121562000ce05762000cdf62000715565b5b600083013567ffffffffffffffff81111562000d015762000d006200071a565b5b62000d0f8582860162000c93565b925050602062000d228582860162000842565b9150509250929050565b62000d37816200081e565b82525050565b600060208201905062000d54600083018462000d2c565b92915050565b62000d65816200081e565b82525050565b6101608201600082015162000d84600085018262000aec565b50602082015162000d99602085018262000d5a565b50604082015162000dae604085018262000d5a565b50606082015162000dc3606085018262000d5a565b50608082015162000dd8608085018262000d5a565b5060a082015162000ded60a085018262000d5a565b5060c082015162000e0260c085018262000d5a565b5060e082015162000e1760e085018262000d5a565b5061010082015162000e2e61010085018262000d5a565b5061012082015162000e4561012085018262000d5a565b5061014082015162000e5c61014085018262000d5a565b50505050565b60006101608201905062000e7a600083018462000d6b565b92915050565b600081905092915050565b600062000e9882620009b3565b62000ea4818562000e80565b935062000eb6818560208601620009cf565b80840191505092915050565b600062000ed0828562000e8b565b915062000ede828462000e8b565b91508190509392505050565b600060ff82169050919050565b62000f028162000eea565b811462000f0e57600080fd5b50565b60008151905062000f228162000ef7565b92915050565b60006020828403121562000f415762000f4062000715565b5b600062000f518482850162000f11565b91505092915050565b600082825260208201905092915050565b7f546872757374706164466169724c61756e6368466163746f72793a20746f6b6560008201527f6e206d757374206861766520313820646563696d616c73000000000000000000602082015250565b600062000fc960378362000f5a565b915062000fd68262000f6b565b604082019050919050565b6000602082019050818103600083015262000ffc8162000fba565b9050919050565b7f4e487b7100000000000000000000000000000000000000000000000000000000600052601160045260246000fd5b60006200103f826200081e565b91506200104c836200081e565b92508282026200105c816200081e565b9150828204841483151762001076576200107562001003565b5b5092915050565b7f4e487b7100000000000000000000000000000000000000000000000000000000600052601260045260246000fd5b6000620010b9826200081e565b9150620010c6836200081e565b925082620010d957620010d86200107d565b5b828204905092915050565b6000620010f1826200081e565b9150620010fe836200081e565b925082820190508082111562001119576200111862001003565b5b92915050565b600060608201905062001136600083018662000a60565b62001145602083018562000a60565b62001154604083018462000d2c565b949350505050565b60008115159050919050565b62001173816200115c565b81146200117f57600080fd5b50565b600081519050620011938162001168565b92915050565b600060208284031215620011b257620011b162000715565b5b6000620011c28482850162001182565b91505092915050565b60007fff0000000000000000000000000000000000000000000000000000000000000082169050919050565b6000819050919050565b620012166200121082620011cb565b620011f7565b82525050565b60008160601b9050919050565b600062001236826200121c565b9050919050565b60006200124a8262001229565b9050919050565b620012666200126082620007d9565b6200123d565b82525050565b6000819050919050565b6200128b62001285826200081e565b6200126c565b82525050565b6000819050919050565b6000819050919050565b620012ba620012b48262001291565b6200129b565b82525050565b6000620012ce828762001201565b600182019150620012e0828662001251565b601482019150620012f2828562001276565b602082019150620013048284620012a5565b6020820191508190509594505050505056fe6080604052731ccc7382d46313c24e1d13510b1c9445a792f4d4601160006101000a81548173ffffffffffffffffffffffffffffffffffffffff021916908373ffffffffffffffffffffffffffffffffffffffff16021790555073b97582dcb6f2866098ca210095a04df3e11b76a6601260006101000a81548173ffffffffffffffffffffffffffffffffffffffff021916908373ffffffffffffffffffffffffffffffffffffffff160217905550348015620000bb57600080fd5b5060405162002a6938038062002a698339818101604052810190620000e191906200055f565b32600073ffffffffffffffffffffffffffffffffffffffff168173ffffffffffffffffffffffffffffffffffffffff1603620001575760006040517f1e4fbdf70000000000000000000000000000000000000000000000000000000081526004016200014e9190620005a3565b60405180910390fd5b62000168816200022b60201b60201c565b506001808190555080600260008201518160000160006101000a81548173ffffffffffffffffffffffffffffffffffffffff021916908373ffffffffffffffffffffffffffffffffffffffff1602179055506020820151816001015560408201518160020155606082015181600301556080820151816004015560a0820151816005015560c0820151816006015560e082015181600701556101008201518160080155610120820151816009015561014082015181600a015590505050620005c0565b60008060009054906101000a900473ffffffffffffffffffffffffffffffffffffffff169050816000806101000a81548173ffffffffffffffffffffffffffffffffffffffff021916908373ffffffffffffffffffffffffffffffffffffffff1602179055508173ffffffffffffffffffffffffffffffffffffffff168173ffffffffffffffffffffffffffffffffffffffff167f8be0079c531659141344cd1fd0a4f28419497f9722a3daafe3b4186f6b6457e060405160405180910390a35050565b6000604051905090565b600080fd5b600080fd5b6000601f19601f8301169050919050565b7f4e487b7100000000000000000000000000000000000000000000000000000000600052604160045260246000fd5b6200034e8262000303565b810181811067ffffffffffffffff8211171562000370576200036f62000314565b5b80604052505050565b600062000385620002ef565b905062000393828262000343565b919050565b600073ffffffffffffffffffffffffffffffffffffffff82169050919050565b6000620003c58262000398565b9050919050565b620003d781620003b8565b8114620003e357600080fd5b50565b600081519050620003f781620003cc565b92915050565b6000819050919050565b6200041281620003fd565b81146200041e57600080fd5b50565b600081519050620004328162000407565b92915050565b60006101608284031215620004525762000451620002fe565b5b6200045f61016062000379565b905060006200047184828501620003e6565b6000830152506020620004878482850162000421565b60208301525060406200049d8482850162000421565b6040830152506060620004b38482850162000421565b6060830152506080620004c98482850162000421565b60808301525060a0620004df8482850162000421565b60a08301525060c0620004f58482850162000421565b60c08301525060e06200050b8482850162000421565b60e083015250610100620005228482850162000421565b610100830152506101206200053a8482850162000421565b61012083015250610140620005528482850162000421565b6101408301525092915050565b60006101608284031215620005795762000578620002f9565b5b6000620005898482850162000438565b91505092915050565b6200059d81620003b8565b82525050565b6000602082019050620005ba600083018462000592565b92915050565b61249980620005d06000396000f3fe6080604052600436106100e15760003560e01c8063953b7ef81161007f578063c3828bf011610059578063c3828bf01461020c578063c884ef8314610237578063e45f2b8a14610274578063f2fde38b146102b1576100e8565b8063953b7ef8146101d4578063a4821719146101eb578063b5545a3c146101f5576100e8565b8063715018a6116100bb578063715018a61461013257806379502c55146101495780638da5cb5b1461017e5780639106d7ba146101a9576100e8565b806338af6632146100ed5780634086bf891461010457806348c54b9d1461011b576100e8565b366100e857005b600080fd5b3480156100f957600080fd5b506101026102da565b005b34801561011057600080fd5b50610119610594565b005b34801561012757600080fd5b50610130610be2565b005b34801561013e57600080fd5b50610147610ee4565b005b34801561015557600080fd5b5061015e610ef8565b6040516101759b9a99989796959493929190611917565b60405180910390f35b34801561018a57600080fd5b50610193610f60565b6040516101a091906119c2565b60405180910390f35b3480156101b557600080fd5b506101be610f89565b6040516101cb91906119dd565b60405180910390f35b3480156101e057600080fd5b506101e9610f8f565b005b6101f361112e565b005b34801561020157600080fd5b5061020a61139d565b005b34801561021857600080fd5b5061022161161c565b60405161022e91906119c2565b60405180910390f35b34801561024357600080fd5b5061025e60048036038101906102599190611a29565b611642565b60405161026b91906119dd565b60405180910390f35b34801561028057600080fd5b5061029b60048036038101906102969190611a29565b61165a565b6040516102a891906119dd565b60405180910390f35b3480156102bd57600080fd5b506102d860048036038101906102d39190611a29565b611672565b005b6102e26116f8565b62278d006002600a01546102f69190611a85565b421015610338576040517f08c379a000000000000000000000000000000000000000000000000000000000815260040161032f90611b3c565b60405180910390fd5b600073ffffffffffffffffffffffffffffffffffffffff16600e60009054906101000a900473ffffffffffffffffffffffffffffffffffffffff1673ffffffffffffffffffffffffffffffffffffffff16036103c9576040517f08c379a00000000000000000000000000000000000000000000000000000000081526004016103c090611bce565b60405180910390fd5b6000600e60009054906101000a900473ffffffffffffffffffffffffffffffffffffffff1673ffffffffffffffffffffffffffffffffffffffff166370a08231306040518263ffffffff1660e01b815260040161042691906119c2565b602060405180830381865afa158015610443573d6000803e3d6000fd5b505050506040513d601f19601f820116820180604052508101906104679190611c1a565b9050600e60009054906101000a900473ffffffffffffffffffffffffffffffffffffffff1673ffffffffffffffffffffffffffffffffffffffff1663a9059cbb33836040518363ffffffff1660e01b81526004016104c6929190611c47565b6020604051808303816000875af11580156104e5573d6000803e3d6000fd5b505050506040513d601f19601f820116820180604052508101906105099190611ca8565b50600e60009054906101000a900473ffffffffffffffffffffffffffffffffffffffff1673ffffffffffffffffffffffffffffffffffffffff163373ffffffffffffffffffffffffffffffffffffffff167f4f2e1c4d34092405172a61f387073a9b61bfcbb54eceb1e96383d36e19b394a98360405161058991906119dd565b60405180910390a350565b6002600a01544210156105dc576040517f08c379a00000000000000000000000000000000000000000000000000000000081526004016105d390611d47565b60405180910390fd5b600260010154600d541015610626576040517f08c379a000000000000000000000000000000000000000000000000000000000815260040161061d90611dd9565b60405180910390fd5b6000601160009054906101000a900473ffffffffffffffffffffffffffffffffffffffff1673ffffffffffffffffffffffffffffffffffffffff1663171223dd73ffffffffffffffffffffffffffffffffffffffff60001b7feeeeeeeeeeeeeeeeeeeeeeeeeeeeeeeeeeeeeeeeeeeeeeeeeeeeeeeeeeeeeeee60001b166106d1600260000160009054906101000a900473ffffffffffffffffffffffffffffffffffffffff1661177f565b6040518363ffffffff1660e01b81526004016106ee929190611e24565b6020604051808303816000875af115801561070d573d6000803e3d6000fd5b505050506040513d601f19601f820116820180604052508101906107319190611e62565b905080600e60006101000a81548173ffffffffffffffffffffffffffffffffffffffff021916908373ffffffffffffffffffffffffffffffffffffffff160217905550600260000160009054906101000a900473ffffffffffffffffffffffffffffffffffffffff1673ffffffffffffffffffffffffffffffffffffffff1663095ea7b3601260009054906101000a900473ffffffffffffffffffffffffffffffffffffffff167fffffffffffffffffffffffffffffffffffffffffffffffffffffffffffffffff6040518363ffffffff1660e01b8152600401610816929190611c47565b6020604051808303816000875af1158015610835573d6000803e3d6000fd5b505050506040513d601f19601f820116820180604052508101906108599190611ca8565b5060006064600d546002600701546108719190611e8f565b61087b9190611f00565b90506000600260040154826108909190611e8f565b9050601260009054906101000a900473ffffffffffffffffffffffffffffffffffffffff1673ffffffffffffffffffffffffffffffffffffffff16635a47ddc383600260000160009054906101000a900473ffffffffffffffffffffffffffffffffffffffff166000808688600080307fffffffffffffffffffffffffffffffffffffffffffffffffffffffffffffffff6040518b63ffffffff1660e01b815260040161094599989796959493929190611f85565b60606040518083038185885af1158015610963573d6000803e3d6000fd5b50505050506040513d601f19601f820116820180604052508101906109889190612012565b5050506000600260000160009054906101000a900473ffffffffffffffffffffffffffffffffffffffff1673ffffffffffffffffffffffffffffffffffffffff166370a08231306040518263ffffffff1660e01b81526004016109eb91906119c2565b602060405180830381865afa158015610a08573d6000803e3d6000fd5b505050506040513d601f19601f82011682018060405250810190610a2c9190611c1a565b9050600260000160009054906101000a900473ffffffffffffffffffffffffffffffffffffffff1673ffffffffffffffffffffffffffffffffffffffff1663a9059cbb6000836040518363ffffffff1660e01b8152600401610a8f929190611c47565b6020604051808303816000875af1158015610aae573d6000803e3d6000fd5b505050506040513d601f19601f82011682018060405250810190610ad29190611ca8565b5060008473ffffffffffffffffffffffffffffffffffffffff166370a08231306040518263ffffffff1660e01b8152600401610b0e91906119c2565b602060405180830381865afa158015610b2b573d6000803e3d6000fd5b505050506040513d601f19601f82011682018060405250810190610b4f9190611c1a565b9050600260000160009054906101000a900473ffffffffffffffffffffffffffffffffffffffff1673ffffffffffffffffffffffffffffffffffffffff168573ffffffffffffffffffffffffffffffffffffffff167f2be745126d540f8314c97b28a1687816ebc31358eb0259f21907ff16cd11eeb983604051610bd391906119dd565b60405180910390a35050505050565b610bea6117a2565b6002600a0154421015610c32576040517f08c379a0000000000000000000000000000000000000000000000000000000008152600401610c2990611d47565b60405180910390fd5b600260010154600d541015610c7c576040517f08c379a0000000000000000000000000000000000000000000000000000000008152600401610c7390611dd9565b60405180910390fd5b6000601060003373ffffffffffffffffffffffffffffffffffffffff1673ffffffffffffffffffffffffffffffffffffffff1681526020019081526020016000205414610cfe576040517f08c379a0000000000000000000000000000000000000000000000000000000008152600401610cf5906120d7565b60405180910390fd5b60006002800154600260030154610d159190611f00565b9050600081600f60003373ffffffffffffffffffffffffffffffffffffffff1673ffffffffffffffffffffffffffffffffffffffff16815260200190815260200160002054610d649190611f00565b905080601060003373ffffffffffffffffffffffffffffffffffffffff1673ffffffffffffffffffffffffffffffffffffffff16815260200190815260200160002081905550600260000160009054906101000a900473ffffffffffffffffffffffffffffffffffffffff1673ffffffffffffffffffffffffffffffffffffffff1663a9059cbb33836040518363ffffffff1660e01b8152600401610e0a929190611c47565b6020604051808303816000875af1158015610e29573d6000803e3d6000fd5b505050506040513d601f19601f82011682018060405250810190610e4d9190611ca8565b50600260000160009054906101000a900473ffffffffffffffffffffffffffffffffffffffff1673ffffffffffffffffffffffffffffffffffffffff163373ffffffffffffffffffffffffffffffffffffffff167f4831bdd9dcf3048a28319ce81d3cab7a15366bcf449bc7803a539107440809cc83604051610ed091906119dd565b60405180910390a35050610ee26117e8565b565b610eec6116f8565b610ef660006117f1565b565b60028060000160009054906101000a900473ffffffffffffffffffffffffffffffffffffffff169080600101549080600201549080600301549080600401549080600501549080600601549080600701549080600801549080600901549080600a015490508b565b60008060009054906101000a900473ffffffffffffffffffffffffffffffffffffffff16905090565b600d5481565b610f976116f8565b6002600a0154421015610fdf576040517f08c379a0000000000000000000000000000000000000000000000000000000008152600401610fd690611d47565b60405180910390fd5b600260010154600d541015611029576040517f08c379a000000000000000000000000000000000000000000000000000000000815260040161102090611dd9565b60405180910390fd5b60006064600d546002600801546110409190611e8f565b61104a9190611f00565b9050611054610f60565b73ffffffffffffffffffffffffffffffffffffffff166108fc829081150290604051600060405180830381858888f19350505050158015611099573d6000803e3d6000fd5b50600260000160009054906101000a900473ffffffffffffffffffffffffffffffffffffffff1673ffffffffffffffffffffffffffffffffffffffff166110de610f60565b73ffffffffffffffffffffffffffffffffffffffff167fa95e69983c44f17474cba286953deb119463b9f5cb8cfde4fd709df3660266f78360405161112391906119dd565b60405180910390a350565b600260090154421015611176576040517f08c379a000000000000000000000000000000000000000000000000000000000815260040161116d90612169565b60405180910390fd5b6002600a01544211156111be576040517f08c379a00000000000000000000000000000000000000000000000000000000081526004016111b5906121fb565b60405180910390fd5b600260050154341015611206576040517f08c379a00000000000000000000000000000000000000000000000000000000081526004016111fd9061228d565b60405180910390fd5b60026006015434111561124e576040517f08c379a00000000000000000000000000000000000000000000000000000000081526004016112459061231f565b60405180910390fd5b600280015434600d546112619190611a85565b11156112a2576040517f08c379a0000000000000000000000000000000000000000000000000000000008152600401611299906123b1565b60405180910390fd5b34600d60008282546112b49190611a85565b9250508190555034600f60003373ffffffffffffffffffffffffffffffffffffffff1673ffffffffffffffffffffffffffffffffffffffff168152602001908152602001600020600082825461130a9190611a85565b92505081905550600260000160009054906101000a900473ffffffffffffffffffffffffffffffffffffffff1673ffffffffffffffffffffffffffffffffffffffff163373ffffffffffffffffffffffffffffffffffffffff167f9b24bd0884170cbce51f9f00df6b3f9aed2231e4086241d1d04687b42afdf7b93460405161139391906119dd565b60405180910390a3565b6113a56117a2565b6002600a01544210156113ed576040517f08c379a00000000000000000000000000000000000000000000000000000000081526004016113e490611d47565b60405180910390fd5b600260010154600d5410611436576040517f08c379a000000000000000000000000000000000000000000000000000000000815260040161142d90612443565b60405180910390fd5b6000601060003373ffffffffffffffffffffffffffffffffffffffff1673ffffffffffffffffffffffffffffffffffffffff16815260200190815260200160002054146114b8576040517f08c379a00000000000000000000000000000000000000000000000000000000081526004016114af906120d7565b60405180910390fd5b6000600f60003373ffffffffffffffffffffffffffffffffffffffff1673ffffffffffffffffffffffffffffffffffffffff16815260200190815260200160002054905080601060003373ffffffffffffffffffffffffffffffffffffffff1673ffffffffffffffffffffffffffffffffffffffff168152602001908152602001600020819055503373ffffffffffffffffffffffffffffffffffffffff166108fc829081150290604051600060405180830381858888f19350505050158015611586573d6000803e3d6000fd5b50600260000160009054906101000a900473ffffffffffffffffffffffffffffffffffffffff1673ffffffffffffffffffffffffffffffffffffffff163373ffffffffffffffffffffffffffffffffffffffff167ff40cc8c1a1d17359049ba500cfc894596a692cffc9d03943cd92ec2e159cf6ae8360405161160991906119dd565b60405180910390a35061161a6117e8565b565b600e60009054906101000a900473ffffffffffffffffffffffffffffffffffffffff1681565b60106020528060005260406000206000915090505481565b600f6020528060005260406000206000915090505481565b61167a6116f8565b600073ffffffffffffffffffffffffffffffffffffffff168173ffffffffffffffffffffffffffffffffffffffff16036116ec5760006040517f1e4fbdf70000000000000000000000000000000000000000000000000000000081526004016116e391906119c2565b60405180910390fd5b6116f5816117f1565b50565b6117006118b5565b73ffffffffffffffffffffffffffffffffffffffff1661171e610f60565b73ffffffffffffffffffffffffffffffffffffffff161461177d576117416118b5565b6040517f118cdaa700000000000000000000000000000000000000000000000000000000815260040161177491906119c2565b60405180910390fd5b565b60008173ffffffffffffffffffffffffffffffffffffffff1660001b9050919050565b6002600154036117de576040517f3ee5aeb500000000000000000000000000000000000000000000000000000000815260040160405180910390fd5b6002600181905550565b60018081905550565b60008060009054906101000a900473ffffffffffffffffffffffffffffffffffffffff169050816000806101000a81548173ffffffffffffffffffffffffffffffffffffffff021916908373ffffffffffffffffffffffffffffffffffffffff1602179055508173ffffffffffffffffffffffffffffffffffffffff168173ffffffffffffffffffffffffffffffffffffffff167f8be0079c531659141344cd1fd0a4f28419497f9722a3daafe3b4186f6b6457e060405160405180910390a35050565b600033905090565b600073ffffffffffffffffffffffffffffffffffffffff82169050919050565b60006118e8826118bd565b9050919050565b6118f8816118dd565b82525050565b6000819050919050565b611911816118fe565b82525050565b60006101608201905061192d600083018e6118ef565b61193a602083018d611908565b611947604083018c611908565b611954606083018b611908565b611961608083018a611908565b61196e60a0830189611908565b61197b60c0830188611908565b61198860e0830187611908565b611996610100830186611908565b6119a4610120830185611908565b6119b2610140830184611908565b9c9b505050505050505050505050565b60006020820190506119d760008301846118ef565b92915050565b60006020820190506119f26000830184611908565b92915050565b600080fd5b611a06816118dd565b8114611a1157600080fd5b50565b600081359050611a23816119fd565b92915050565b600060208284031215611a3f57611a3e6119f8565b5b6000611a4d84828501611a14565b91505092915050565b7f4e487b7100000000000000000000000000000000000000000000000000000000600052601160045260246000fd5b6000611a90826118fe565b9150611a9b836118fe565b9250828201905080821115611ab357611ab2611a56565b5b92915050565b600082825260208201905092915050565b7f546872757374706164466169724c61756e63683a204c6f636b20706572696f6460008201527f206e6f74206f7665722079657400000000000000000000000000000000000000602082015250565b6000611b26602d83611ab9565b9150611b3182611aca565b604082019050919050565b60006020820190508181036000830152611b5581611b19565b9050919050565b7f546872757374706164466169724c61756e63683a204c5020746f6b656e73206e60008201527f6f74206465706c6f796564207965740000000000000000000000000000000000602082015250565b6000611bb8602f83611ab9565b9150611bc382611b5c565b604082019050919050565b60006020820190508181036000830152611be781611bab565b9050919050565b611bf7816118fe565b8114611c0257600080fd5b50565b600081519050611c1481611bee565b92915050565b600060208284031215611c3057611c2f6119f8565b5b6000611c3e84828501611c05565b91505092915050565b6000604082019050611c5c60008301856118ef565b611c696020830184611908565b9392505050565b60008115159050919050565b611c8581611c70565b8114611c9057600080fd5b50565b600081519050611ca281611c7c565b92915050565b600060208284031215611cbe57611cbd6119f8565b5b6000611ccc84828501611c93565b91505092915050565b7f546872757374706164466169724c61756e63683a2073616c6520686173206e6f60008201527f7420656e64656420796574000000000000000000000000000000000000000000602082015250565b6000611d31602b83611ab9565b9150611d3c82611cd5565b604082019050919050565b60006020820190508181036000830152611d6081611d24565b9050919050565b7f546872757374706164466169724c61756e63683a20736f667420636170206e6f60008201527f7420726561636865640000000000000000000000000000000000000000000000602082015250565b6000611dc3602983611ab9565b9150611dce82611d67565b604082019050919050565b60006020820190508181036000830152611df281611db6565b9050919050565b6000819050919050565b6000611e0e82611df9565b9050919050565b611e1e81611e03565b82525050565b6000604082019050611e396000830185611e15565b611e466020830184611e15565b9392505050565b600081519050611e5c816119fd565b92915050565b600060208284031215611e7857611e776119f8565b5b6000611e8684828501611e4d565b91505092915050565b6000611e9a826118fe565b9150611ea5836118fe565b9250828202611eb3816118fe565b91508282048414831517611eca57611ec9611a56565b5b5092915050565b7f4e487b7100000000000000000000000000000000000000000000000000000000600052601260045260246000fd5b6000611f0b826118fe565b9150611f16836118fe565b925082611f2657611f25611ed1565b5b828204905092915050565b611f3a81611c70565b82525050565b6000819050919050565b6000819050919050565b6000611f6f611f6a611f6584611f40565b611f4a565b6118fe565b9050919050565b611f7f81611f54565b82525050565b600061012082019050611f9b600083018c6118ef565b611fa8602083018b6118ef565b611fb5604083018a611f31565b611fc26060830189611908565b611fcf6080830188611908565b611fdc60a0830187611f76565b611fe960c0830186611f76565b611ff660e08301856118ef565b612004610100830184611908565b9a9950505050505050505050565b60008060006060848603121561202b5761202a6119f8565b5b600061203986828701611c05565b935050602061204a86828701611c05565b925050604061205b86828701611c05565b9150509250925092565b7f546872757374706164466169724c61756e63683a20746f6b656e7320616c726560008201527f61647920636c61696d6564000000000000000000000000000000000000000000602082015250565b60006120c1602b83611ab9565b91506120cc82612065565b604082019050919050565b600060208201905081810360008301526120f0816120b4565b9050919050565b7f546872757374706164466169724c61756e63683a2073616c6520686173206e6f60008201527f7420737461727465642079657400000000000000000000000000000000000000602082015250565b6000612153602d83611ab9565b915061215e826120f7565b604082019050919050565b6000602082019050818103600083015261218281612146565b9050919050565b7f546872757374706164466169724c61756e63683a2073616c652068617320656e60008201527f6465640000000000000000000000000000000000000000000000000000000000602082015250565b60006121e5602383611ab9565b91506121f082612189565b604082019050919050565b60006020820190508181036000830152612214816121d8565b9050919050565b7f546872757374706164466169724c61756e63683a20616d6f756e74206973206c60008201527f657373207468616e206d696e696d756d20627579000000000000000000000000602082015250565b6000612277603483611ab9565b91506122828261221b565b604082019050919050565b600060208201905081810360008301526122a68161226a565b9050919050565b7f546872757374706164466169724c61756e63683a20616d6f756e74206973206d60008201527f6f7265207468616e206d6178696d756d20627579000000000000000000000000602082015250565b6000612309603483611ab9565b9150612314826122ad565b604082019050919050565b60006020820190508181036000830152612338816122fc565b9050919050565b7f546872757374706164466169724c61756e63683a20686172642063617020726560008201527f6163686564000000000000000000000000000000000000000000000000000000602082015250565b600061239b602583611ab9565b91506123a68261233f565b604082019050919050565b600060208201905081810360008301526123ca8161238e565b9050919050565b7f546872757374706164466169724c61756e63683a20736f66742063617020726560008201527f6163686564000000000000000000000000000000000000000000000000000000602082015250565b600061242d602583611ab9565b9150612438826123d1565b604082019050919050565b6000602082019050818103600083015261245c81612420565b905091905056fea26469706673582212207076c80f893d81c2cf3626857a0bb012628ccd2f093d91ef379eb31729a8caae64736f6c63430008180033a2646970667358221220e2f25bc47544736690f69f6e32751b7cb2d54979f32be871d0e0c1634d8ade1464736f6c63430008180033",
  "linkReferences": {},
  "deployedLinkReferences": {}
}