{
  "_format": "hh-sol-artifact-1",
  "contractName": "ThrustpadFairLaunchFactory",
  "sourceName": "contracts/fair-launch/ThrustpadFairLaunchFactory.sol",
  "abi": [
    {
      "inputs": [],
      "stateMutability": "nonpayable",
      "type": "constructor"
    },
    {
      "inputs": [
        {
          "internalType": "address",
          "name": "owner",
          "type": "address"
        }
      ],
      "name": "OwnableInvalidOwner",
      "type": "error"
    },
    {
      "inputs": [
        {
          "internalType": "address",
          "name": "account",
          "type": "address"
        }
      ],
      "name": "OwnableUnauthorizedAccount",
      "type": "error"
    },
    {
      "anonymous": false,
      "inputs": [
        {
          "indexed": true,
          "internalType": "address",
          "name": "creator",
          "type": "address"
        },
        {
          "indexed": true,
          "internalType": "address",
          "name": "launch",
          "type": "address"
        }
      ],
      "name": "NewFairLaunch",
      "type": "event"
    },
    {
      "anonymous": false,
      "inputs": [
        {
          "indexed": true,
          "internalType": "address",
          "name": "previousOwner",
          "type": "address"
        },
        {
          "indexed": true,
          "internalType": "address",
          "name": "newOwner",
          "type": "address"
        }
      ],
      "name": "OwnershipTransferred",
      "type": "event"
    },
    {
      "inputs": [
        {
          "internalType": "uint256",
          "name": "",
          "type": "uint256"
        }
      ],
      "name": "creationFees",
      "outputs": [
        {
          "internalType": "uint256",
          "name": "",
          "type": "uint256"
        }
      ],
      "stateMutability": "view",
      "type": "function"
    },
    {
      "inputs": [
        {
          "internalType": "address",
          "name": "",
          "type": "address"
        },
        {
          "internalType": "uint256",
          "name": "",
          "type": "uint256"
        }
      ],
      "name": "deployedLaunches",
      "outputs": [
        {
          "internalType": "address",
          "name": "",
          "type": "address"
        }
      ],
      "stateMutability": "view",
      "type": "function"
    },
    {
      "inputs": [],
      "name": "feeEarned",
      "outputs": [
        {
          "internalType": "uint256",
          "name": "",
          "type": "uint256"
        }
      ],
      "stateMutability": "view",
      "type": "function"
    },
    {
      "inputs": [
        {
          "internalType": "bytes",
          "name": "bytecode",
          "type": "bytes"
        },
        {
          "internalType": "uint256",
          "name": "salt",
          "type": "uint256"
        }
      ],
      "name": "getAddressCreate2",
      "outputs": [
        {
          "internalType": "address",
          "name": "",
          "type": "address"
        }
      ],
      "stateMutability": "view",
      "type": "function"
    },
    {
      "inputs": [
        {
          "components": [
            {
              "internalType": "address",
              "name": "token",
              "type": "address"
            },
            {
              "internalType": "uint256",
              "name": "softCap",
              "type": "uint256"
            },
            {
              "internalType": "uint256",
              "name": "hardCap",
              "type": "uint256"
            },
            {
              "internalType": "uint256",
              "name": "amountForSale",
              "type": "uint256"
            },
            {
              "internalType": "uint256",
              "name": "listingRate",
              "type": "uint256"
            },
            {
              "internalType": "uint256",
              "name": "minimumBuy",
              "type": "uint256"
            },
            {
              "internalType": "uint256",
              "name": "maximumBuy",
              "type": "uint256"
            },
            {
              "internalType": "uint256",
              "name": "percentageForLiquidity",
              "type": "uint256"
            },
            {
              "internalType": "uint256",
              "name": "percentageForTeam",
              "type": "uint256"
            },
            {
              "internalType": "uint256",
              "name": "startDate",
              "type": "uint256"
            },
            {
              "internalType": "uint256",
              "name": "endDate",
              "type": "uint256"
            }
          ],
          "internalType": "struct FairLaunchConfig",
          "name": "config",
          "type": "tuple"
        },
        {
          "internalType": "address",
          "name": "_owner",
          "type": "address"
        }
      ],
      "name": "getBytecode",
      "outputs": [
        {
          "internalType": "bytes",
          "name": "",
          "type": "bytes"
        }
      ],
      "stateMutability": "pure",
      "type": "function"
    },
    {
      "inputs": [
        {
          "internalType": "address",
          "name": "creator",
          "type": "address"
        }
      ],
      "name": "getdeployedLaunches",
      "outputs": [
        {
          "internalType": "address[]",
          "name": "",
          "type": "address[]"
        }
      ],
      "stateMutability": "view",
      "type": "function"
    },
    {
      "inputs": [
        {
          "internalType": "address",
          "name": "creator",
          "type": "address"
        }
      ],
      "name": "getdeployedLaunchesLen",
      "outputs": [
        {
          "internalType": "uint256",
          "name": "",
          "type": "uint256"
        }
      ],
      "stateMutability": "view",
      "type": "function"
    },
    {
      "inputs": [
        {
          "components": [
            {
              "internalType": "address",
              "name": "token",
              "type": "address"
            },
            {
              "internalType": "uint256",
              "name": "softCap",
              "type": "uint256"
            },
            {
              "internalType": "uint256",
              "name": "hardCap",
              "type": "uint256"
            },
            {
              "internalType": "uint256",
              "name": "amountForSale",
              "type": "uint256"
            },
            {
              "internalType": "uint256",
              "name": "listingRate",
              "type": "uint256"
            },
            {
              "internalType": "uint256",
              "name": "minimumBuy",
              "type": "uint256"
            },
            {
              "internalType": "uint256",
              "name": "maximumBuy",
              "type": "uint256"
            },
            {
              "internalType": "uint256",
              "name": "percentageForLiquidity",
              "type": "uint256"
            },
            {
              "internalType": "uint256",
              "name": "percentageForTeam",
              "type": "uint256"
            },
            {
              "internalType": "uint256",
              "name": "startDate",
              "type": "uint256"
            },
            {
              "internalType": "uint256",
              "name": "endDate",
              "type": "uint256"
            }
          ],
          "internalType": "struct FairLaunchConfig",
          "name": "config",
          "type": "tuple"
        }
      ],
      "name": "newFairLaunch",
      "outputs": [
        {
          "internalType": "address",
          "name": "",
          "type": "address"
        }
      ],
      "stateMutability": "payable",
      "type": "function"
    },
    {
      "inputs": [],
      "name": "owner",
      "outputs": [
        {
          "internalType": "address",
          "name": "",
          "type": "address"
        }
      ],
      "stateMutability": "view",
      "type": "function"
    },
    {
      "inputs": [],
      "name": "renounceOwnership",
      "outputs": [],
      "stateMutability": "nonpayable",
      "type": "function"
    },
    {
      "inputs": [
        {
          "internalType": "uint256[]",
          "name": "_fees",
          "type": "uint256[]"
        }
      ],
      "name": "setCreationFees",
      "outputs": [],
      "stateMutability": "nonpayable",
      "type": "function"
    },
    {
      "inputs": [
        {
          "internalType": "address",
          "name": "newOwner",
          "type": "address"
        }
      ],
      "name": "transferOwnership",
      "outputs": [],
      "stateMutability": "nonpayable",
      "type": "function"
    },
    {
      "inputs": [],
      "name": "withdraw",
      "outputs": [],
      "stateMutability": "nonpayable",
      "type": "function"
    },
    {
      "inputs": [
        {
          "internalType": "address",
          "name": "token",
          "type": "address"
        }
      ],
      "name": "withdrawToken",
      "outputs": [],
      "stateMutability": "nonpayable",
      "type": "function"
    },
    {
      "stateMutability": "payable",
      "type": "receive"
    }
  ],
  "bytecode": "0x60806040526040518060200160405280670de0b6b3a764000067ffffffffffffffff1681525060029060016200003792919062000198565b503480156200004557600080fd5b5033600073ffffffffffffffffffffffffffffffffffffffff168173ffffffffffffffffffffffffffffffffffffffff1603620000bc5760006040517f1e4fbdf7000000000000000000000000000000000000000000000000000000008152600401620000b391906200025a565b60405180910390fd5b620000cd81620000d460201b60201c565b5062000277565b60008060009054906101000a900473ffffffffffffffffffffffffffffffffffffffff169050816000806101000a81548173ffffffffffffffffffffffffffffffffffffffff021916908373ffffffffffffffffffffffffffffffffffffffff1602179055508173ffffffffffffffffffffffffffffffffffffffff168173ffffffffffffffffffffffffffffffffffffffff167f8be0079c531659141344cd1fd0a4f28419497f9722a3daafe3b4186f6b6457e060405160405180910390a35050565b828054828255906000526020600020908101928215620001e3579160200282015b82811115620001e2578251829067ffffffffffffffff16905591602001919060010190620001b9565b5b509050620001f29190620001f6565b5090565b5b8082111562000211576000816000905550600101620001f7565b5090565b600073ffffffffffffffffffffffffffffffffffffffff82169050919050565b6000620002428262000215565b9050919050565b620002548162000235565b82525050565b600060208201905062000271600083018462000249565b92915050565b61548580620002876000396000f3fe608060405260043610620000f75760003560e01c80639f886f26116200008b578063d5f63a061162000061578063d5f63a061462000320578063e5e868ab1462000350578063f2fde38b1462000394578063fc16e1dd14620003c257620000ff565b80639f886f261462000254578063b6e152741462000298578063c8527f4714620002dc57620000ff565b806357ad392211620000cd57806357ad39221462000198578063715018a614620001dc5780638947606914620001f65780638da5cb5b146200022457620000ff565b806339354c6014620001045780633ccfd60b146200013a5780634455a343146200015457620000ff565b36620000ff57005b600080fd5b6200012260048036038101906200011c9190620011d1565b620003f0565b60405162000131919062001215565b60405180910390f35b3480156200014757600080fd5b5062000152620008bb565b005b3480156200016157600080fd5b506200018060048036038101906200017a919062001232565b62000918565b6040516200018f919062001332565b60405180910390f35b348015620001a557600080fd5b50620001c46004803603810190620001be919062001356565b620009e7565b604051620001d3919062001215565b60405180910390f35b348015620001e957600080fd5b50620001f462000a36565b005b3480156200020357600080fd5b506200022260048036038101906200021c919062001232565b62000a4e565b005b3480156200023157600080fd5b506200023c62000b66565b6040516200024b919062001215565b60405180910390f35b3480156200026157600080fd5b506200028060048036038101906200027a91906200146a565b62000b8f565b6040516200028f919062001215565b60405180910390f35b348015620002a557600080fd5b50620002c46004803603810190620002be9190620014d0565b62000bdb565b604051620002d3919062001513565b60405180910390f35b348015620002e957600080fd5b5062000308600480360381019062000302919062001530565b62000c00565b60405162000317919062001602565b60405180910390f35b3480156200032d57600080fd5b506200033862000c7c565b60405162000347919062001513565b60405180910390f35b3480156200035d57600080fd5b506200037c600480360381019062000376919062001232565b62000c82565b6040516200038b919062001513565b60405180910390f35b348015620003a157600080fd5b50620003c06004803603810190620003ba919062001232565b62000cce565b005b348015620003cf57600080fd5b50620003ee6004803603810190620003e8919062001701565b62000d5b565b005b600060026000815481106200040a576200040962001752565b5b90600052602060002001543410156200045a576040517f08c379a0000000000000000000000000000000000000000000000000000000008152600401620004519062001808565b60405180910390fd5b6012826000015173ffffffffffffffffffffffffffffffffffffffff1663313ce5676040518163ffffffff1660e01b8152600401602060405180830381865afa158015620004ac573d6000803e3d6000fd5b505050506040513d601f19601f82011682018060405250810190620004d2919062001868565b60ff161462000518576040517f08c379a00000000000000000000000000000000000000000000000000000000081526004016200050f9062001910565b60405180910390fd5b603c8260e00151101562000563576040517f08c379a00000000000000000000000000000000000000000000000000000000081526004016200055a90620019ce565b60405180910390fd5b60288261010001511115620005af576040517f08c379a0000000000000000000000000000000000000000000000000000000008152600401620005a69062001a8c565b60405180910390fd5b60648261010001518360e00151620005c8919062001add565b146200060b576040517f08c379a0000000000000000000000000000000000000000000000000000000008152600401620006029062001bb4565b60405180910390fd5b6000600483604001518162000625576200062462001bd6565b5b04836020015110156200066f576040517f08c379a0000000000000000000000000000000000000000000000000000000008152600401620006669062001ca1565b60405180910390fd5b68056bc75e2d63100000836080015184604001518560e001510202816200069b576200069a62001bd6565b5b0483606001510190506000600160003373ffffffffffffffffffffffffffffffffffffffff1673ffffffffffffffffffffffffffffffffffffffff1681526020019081526020016000208054905060001b8433604051620006fc9062000edd565b6200070992919062001dcb565b8190604051809103906000f59050801580156200072a573d6000803e3d6000fd5b509050600160003373ffffffffffffffffffffffffffffffffffffffff1673ffffffffffffffffffffffffffffffffffffffff168152602001908152602001600020819080600181540180825580915050600190039060005260206000200160009091909190916101000a81548173ffffffffffffffffffffffffffffffffffffffff021916908373ffffffffffffffffffffffffffffffffffffffff160217905550836000015173ffffffffffffffffffffffffffffffffffffffff166323b872dd3383856040518463ffffffff1660e01b8152600401620008109392919062001dfa565b6020604051808303816000875af115801562000830573d6000803e3d6000fd5b505050506040513d601f19601f8201168201806040525081019062000856919062001e74565b508073ffffffffffffffffffffffffffffffffffffffff163373ffffffffffffffffffffffffffffffffffffffff167f3e898072f60c1097ffd1556ec02786c3af00b0f9a3c971db360f7539abeb6d2160405160405180910390a38092505050919050565b620008c562000d81565b620008cf62000b66565b73ffffffffffffffffffffffffffffffffffffffff166108fc479081150290604051600060405180830381858888f1935050505015801562000915573d6000803e3d6000fd5b50565b6060600160008373ffffffffffffffffffffffffffffffffffffffff1673ffffffffffffffffffffffffffffffffffffffff168152602001908152602001600020805480602002602001604051908101604052809291908181526020018280548015620009db57602002820191906000526020600020905b8160009054906101000a900473ffffffffffffffffffffffffffffffffffffffff1673ffffffffffffffffffffffffffffffffffffffff168152602001906001019080831162000990575b50505050509050919050565b6001602052816000526040600020818154811062000a0457600080fd5b906000526020600020016000915091509054906101000a900473ffffffffffffffffffffffffffffffffffffffff1681565b62000a4062000d81565b62000a4c600062000e11565b565b62000a5862000d81565b8073ffffffffffffffffffffffffffffffffffffffff1663a9059cbb62000a7e62000b66565b8373ffffffffffffffffffffffffffffffffffffffff166370a08231306040518263ffffffff1660e01b815260040162000ab9919062001215565b602060405180830381865afa15801562000ad7573d6000803e3d6000fd5b505050506040513d601f19601f8201168201806040525081019062000afd919062001ebd565b6040518363ffffffff1660e01b815260040162000b1c92919062001eef565b6020604051808303816000875af115801562000b3c573d6000803e3d6000fd5b505050506040513d601f19601f8201168201806040525081019062000b62919062001e74565b5050565b60008060009054906101000a900473ffffffffffffffffffffffffffffffffffffffff16905090565b60008060ff60f81b3084868051906020012060405160200162000bb6949392919062002011565b6040516020818303038152906040528051906020012090508060001c91505092915050565b6002818154811062000bec57600080fd5b906000526020600020016000915090505481565b606060006040518060200162000c169062000edd565b6020820181038252601f19601f82011660405250905080848460405160200162000c4292919062001dcb565b60405160208183030381529060405260405160200162000c64929190620020a9565b60405160208183030381529060405291505092915050565b60035481565b6000600160008373ffffffffffffffffffffffffffffffffffffffff1673ffffffffffffffffffffffffffffffffffffffff168152602001908152602001600020805490509050919050565b62000cd862000d81565b600073ffffffffffffffffffffffffffffffffffffffff168173ffffffffffffffffffffffffffffffffffffffff160362000d4d5760006040517f1e4fbdf700000000000000000000000000000000000000000000000000000000815260040162000d44919062001215565b60405180910390fd5b62000d588162000e11565b50565b62000d6562000d81565b806002908051906020019062000d7d92919062000eeb565b5050565b62000d8b62000ed5565b73ffffffffffffffffffffffffffffffffffffffff1662000dab62000b66565b73ffffffffffffffffffffffffffffffffffffffff161462000e0f5762000dd162000ed5565b6040517f118cdaa700000000000000000000000000000000000000000000000000000000815260040162000e06919062001215565b60405180910390fd5b565b60008060009054906101000a900473ffffffffffffffffffffffffffffffffffffffff169050816000806101000a81548173ffffffffffffffffffffffffffffffffffffffff021916908373ffffffffffffffffffffffffffffffffffffffff1602179055508173ffffffffffffffffffffffffffffffffffffffff168173ffffffffffffffffffffffffffffffffffffffff167f8be0079c531659141344cd1fd0a4f28419497f9722a3daafe3b4186f6b6457e060405160405180910390a35050565b600033905090565b61337e80620020d283390190565b82805482825590600052602060002090810192821562000f2a579160200282015b8281111562000f2957825182559160200191906001019062000f0c565b5b50905062000f39919062000f3d565b5090565b5b8082111562000f5857600081600090555060010162000f3e565b5090565b6000604051905090565b600080fd5b600080fd5b600080fd5b6000601f19601f8301169050919050565b7f4e487b7100000000000000000000000000000000000000000000000000000000600052604160045260246000fd5b62000fc08262000f75565b810181811067ffffffffffffffff8211171562000fe25762000fe162000f86565b5b80604052505050565b600062000ff762000f5c565b905062001005828262000fb5565b919050565b600073ffffffffffffffffffffffffffffffffffffffff82169050919050565b600062001037826200100a565b9050919050565b62001049816200102a565b81146200105557600080fd5b50565b60008135905062001069816200103e565b92915050565b6000819050919050565b62001084816200106f565b81146200109057600080fd5b50565b600081359050620010a48162001079565b92915050565b60006101608284031215620010c457620010c362000f70565b5b620010d161016062000feb565b90506000620010e38482850162001058565b6000830152506020620010f98482850162001093565b60208301525060406200110f8482850162001093565b6040830152506060620011258482850162001093565b60608301525060806200113b8482850162001093565b60808301525060a0620011518482850162001093565b60a08301525060c0620011678482850162001093565b60c08301525060e06200117d8482850162001093565b60e083015250610100620011948482850162001093565b61010083015250610120620011ac8482850162001093565b61012083015250610140620011c48482850162001093565b6101408301525092915050565b60006101608284031215620011eb57620011ea62000f66565b5b6000620011fb84828501620010aa565b91505092915050565b6200120f816200102a565b82525050565b60006020820190506200122c600083018462001204565b92915050565b6000602082840312156200124b576200124a62000f66565b5b60006200125b8482850162001058565b91505092915050565b600081519050919050565b600082825260208201905092915050565b6000819050602082019050919050565b6200129b816200102a565b82525050565b6000620012af838362001290565b60208301905092915050565b6000602082019050919050565b6000620012d58262001264565b620012e181856200126f565b9350620012ee8362001280565b8060005b8381101562001325578151620013098882620012a1565b97506200131683620012bb565b925050600181019050620012f2565b5085935050505092915050565b600060208201905081810360008301526200134e8184620012c8565b905092915050565b6000806040838503121562001370576200136f62000f66565b5b6000620013808582860162001058565b9250506020620013938582860162001093565b9150509250929050565b600080fd5b600080fd5b600067ffffffffffffffff821115620013c557620013c462000f86565b5b620013d08262000f75565b9050602081019050919050565b82818337600083830152505050565b600062001403620013fd84620013a7565b62000feb565b905082815260208101848484011115620014225762001421620013a2565b5b6200142f848285620013dd565b509392505050565b600082601f8301126200144f576200144e6200139d565b5b813562001461848260208601620013ec565b91505092915050565b6000806040838503121562001484576200148362000f66565b5b600083013567ffffffffffffffff811115620014a557620014a462000f6b565b5b620014b38582860162001437565b9250506020620014c68582860162001093565b9150509250929050565b600060208284031215620014e957620014e862000f66565b5b6000620014f98482850162001093565b91505092915050565b6200150d816200106f565b82525050565b60006020820190506200152a600083018462001502565b92915050565b60008061018083850312156200154b576200154a62000f66565b5b60006200155b85828601620010aa565b9250506101606200156f8582860162001058565b9150509250929050565b600081519050919050565b600082825260208201905092915050565b60005b83811015620015b557808201518184015260208101905062001598565b60008484015250505050565b6000620015ce8262001579565b620015da818562001584565b9350620015ec81856020860162001595565b620015f78162000f75565b840191505092915050565b600060208201905081810360008301526200161e8184620015c1565b905092915050565b600067ffffffffffffffff82111562001644576200164362000f86565b5b602082029050602081019050919050565b600080fd5b6000620016716200166b8462001626565b62000feb565b9050808382526020820190506020840283018581111562001697576200169662001655565b5b835b81811015620016c45780620016af888262001093565b84526020840193505060208101905062001699565b5050509392505050565b600082601f830112620016e657620016e56200139d565b5b8135620016f88482602086016200165a565b91505092915050565b6000602082840312156200171a576200171962000f66565b5b600082013567ffffffffffffffff8111156200173b576200173a62000f6b565b5b6200174984828501620016ce565b91505092915050565b7f4e487b7100000000000000000000000000000000000000000000000000000000600052603260045260246000fd5b600082825260208201905092915050565b7f546872757374706164466169724c61756e6368466163746f72793a20496e737560008201527f6666696369656e74206665650000000000000000000000000000000000000000602082015250565b6000620017f0602c8362001781565b9150620017fd8262001792565b604082019050919050565b600060208201905081810360008301526200182381620017e1565b9050919050565b600060ff82169050919050565b62001842816200182a565b81146200184e57600080fd5b50565b600081519050620018628162001837565b92915050565b60006020828403121562001881576200188062000f66565b5b6000620018918482850162001851565b91505092915050565b7f546872757374706164466169724c61756e6368466163746f72793a20746f6b6560008201527f6e206d757374206861766520313820646563696d616c73000000000000000000602082015250565b6000620018f860378362001781565b915062001905826200189a565b604082019050919050565b600060208201905081810360008301526200192b81620018e9565b9050919050565b7f546872757374706164466169724c61756e6368466163746f72793a207065726360008201527f656e7461676520666f72204c69717569646974792063616e6e6f74206265206c60208201527f657373207468616e203630000000000000000000000000000000000000000000604082015250565b6000620019b6604b8362001781565b9150620019c38262001932565b606082019050919050565b60006020820190508181036000830152620019e981620019a7565b9050919050565b7f546872757374706164466169724c61756e6368466163746f72793a207065726360008201527f656e7461676520666f72205465616d2063616e6e6f74206265206c657373207460208201527f68616e2034300000000000000000000000000000000000000000000000000000604082015250565b600062001a7460468362001781565b915062001a8182620019f0565b606082019050919050565b6000602082019050818103600083015262001aa78162001a65565b9050919050565b7f4e487b7100000000000000000000000000000000000000000000000000000000600052601160045260246000fd5b600062001aea826200106f565b915062001af7836200106f565b925082820190508082111562001b125762001b1162001aae565b5b92915050565b7f546872757374706164466169724c61756e6368466163746f72793a207065726360008201527f656e7461676520666f72204c6971756964697479202b2070657263656e74616760208201527f6520666f72205465616d206d75737420626520657175616c20746f2031303000604082015250565b600062001b9c605f8362001781565b915062001ba98262001b18565b606082019050919050565b6000602082019050818103600083015262001bcf8162001b8d565b9050919050565b7f4e487b7100000000000000000000000000000000000000000000000000000000600052601260045260246000fd5b7f546872757374706164466169724c61756e6368466163746f72793a20736f667460008201527f436170206d7573742062652067726561746572207468616e206f72206571756160208201527f6c20746f20323525206f66206861726443617000000000000000000000000000604082015250565b600062001c8960538362001781565b915062001c968262001c05565b606082019050919050565b6000602082019050818103600083015262001cbc8162001c7a565b9050919050565b62001cce816200106f565b82525050565b6101608201600082015162001ced600085018262001290565b50602082015162001d02602085018262001cc3565b50604082015162001d17604085018262001cc3565b50606082015162001d2c606085018262001cc3565b50608082015162001d41608085018262001cc3565b5060a082015162001d5660a085018262001cc3565b5060c082015162001d6b60c085018262001cc3565b5060e082015162001d8060e085018262001cc3565b5061010082015162001d9761010085018262001cc3565b5061012082015162001dae61012085018262001cc3565b5061014082015162001dc561014085018262001cc3565b50505050565b60006101808201905062001de3600083018562001cd4565b62001df361016083018462001204565b9392505050565b600060608201905062001e11600083018662001204565b62001e20602083018562001204565b62001e2f604083018462001502565b949350505050565b60008115159050919050565b62001e4e8162001e37565b811462001e5a57600080fd5b50565b60008151905062001e6e8162001e43565b92915050565b60006020828403121562001e8d5762001e8c62000f66565b5b600062001e9d8482850162001e5d565b91505092915050565b60008151905062001eb78162001079565b92915050565b60006020828403121562001ed65762001ed562000f66565b5b600062001ee68482850162001ea6565b91505092915050565b600060408201905062001f06600083018562001204565b62001f15602083018462001502565b9392505050565b60007fff0000000000000000000000000000000000000000000000000000000000000082169050919050565b6000819050919050565b62001f6762001f618262001f1c565b62001f48565b82525050565b60008160601b9050919050565b600062001f878262001f6d565b9050919050565b600062001f9b8262001f7a565b9050919050565b62001fb762001fb1826200102a565b62001f8e565b82525050565b6000819050919050565b62001fdc62001fd6826200106f565b62001fbd565b82525050565b6000819050919050565b6000819050919050565b6200200b620020058262001fe2565b62001fec565b82525050565b60006200201f828762001f52565b60018201915062002031828662001fa2565b60148201915062002043828562001fc7565b60208201915062002055828462001ff6565b60208201915081905095945050505050565b600081905092915050565b60006200207f8262001579565b6200208b818562002067565b93506200209d81856020860162001595565b80840191505092915050565b6000620020b7828562002072565b9150620020c5828462002072565b9150819050939250505056fe6080604052731ccc7382d46313c24e1d13510b1c9445a792f4d4601260006101000a81548173ffffffffffffffffffffffffffffffffffffffff021916908373ffffffffffffffffffffffffffffffffffffffff16021790555073b97582dcb6f2866098ca210095a04df3e11b76a6601360006101000a81548173ffffffffffffffffffffffffffffffffffffffff021916908373ffffffffffffffffffffffffffffffffffffffff1602179055507383e46e6e193b284d26f7a4b7d865b65952a50bf2601460006101000a81548173ffffffffffffffffffffffffffffffffffffffff021916908373ffffffffffffffffffffffffffffffffffffffff1602179055503480156200011057600080fd5b506040516200337e3803806200337e8339818101604052810190620001369190620005b5565b80600073ffffffffffffffffffffffffffffffffffffffff168173ffffffffffffffffffffffffffffffffffffffff1603620001ac5760006040517f1e4fbdf7000000000000000000000000000000000000000000000000000000008152600401620001a391906200060f565b60405180910390fd5b620001bd816200028160201b60201c565b506001808190555081600260008201518160000160006101000a81548173ffffffffffffffffffffffffffffffffffffffff021916908373ffffffffffffffffffffffffffffffffffffffff1602179055506020820151816001015560408201518160020155606082015181600301556080820151816004015560a0820151816005015560c0820151816006015560e082015181600701556101008201518160080155610120820151816009015561014082015181600a015590505050506200062c565b60008060009054906101000a900473ffffffffffffffffffffffffffffffffffffffff169050816000806101000a81548173ffffffffffffffffffffffffffffffffffffffff021916908373ffffffffffffffffffffffffffffffffffffffff1602179055508173ffffffffffffffffffffffffffffffffffffffff168173ffffffffffffffffffffffffffffffffffffffff167f8be0079c531659141344cd1fd0a4f28419497f9722a3daafe3b4186f6b6457e060405160405180910390a35050565b6000604051905090565b600080fd5b600080fd5b6000601f19601f8301169050919050565b7f4e487b7100000000000000000000000000000000000000000000000000000000600052604160045260246000fd5b620003a48262000359565b810181811067ffffffffffffffff82111715620003c657620003c56200036a565b5b80604052505050565b6000620003db62000345565b9050620003e9828262000399565b919050565b600073ffffffffffffffffffffffffffffffffffffffff82169050919050565b60006200041b82620003ee565b9050919050565b6200042d816200040e565b81146200043957600080fd5b50565b6000815190506200044d8162000422565b92915050565b6000819050919050565b620004688162000453565b81146200047457600080fd5b50565b60008151905062000488816200045d565b92915050565b60006101608284031215620004a857620004a762000354565b5b620004b5610160620003cf565b90506000620004c7848285016200043c565b6000830152506020620004dd8482850162000477565b6020830152506040620004f38482850162000477565b6040830152506060620005098482850162000477565b60608301525060806200051f8482850162000477565b60808301525060a0620005358482850162000477565b60a08301525060c06200054b8482850162000477565b60c08301525060e0620005618482850162000477565b60e083015250610100620005788482850162000477565b61010083015250610120620005908482850162000477565b61012083015250610140620005a88482850162000477565b6101408301525092915050565b6000806101808385031215620005d057620005cf6200034f565b5b6000620005e0858286016200048e565b925050610160620005f4858286016200043c565b9150509250929050565b62000609816200040e565b82525050565b6000602082019050620006266000830184620005fe565b92915050565b612d42806200063c6000396000f3fe60806040526004361061012e5760003560e01c80639c5913cc116100ab578063c884ef831161006f578063c884ef831461032c578063d812195c14610369578063dbf0f3e214610392578063e45f2b8a146103bb578063f251fc8c146103f8578063f2fde38b1461042357610135565b80639c5913cc1461028c578063a4821719146102b7578063a86d60b8146102c1578063b5545a3c146102ea578063c3828bf01461030157610135565b8063715018a6116100f2578063715018a6146101d357806379502c55146101ea5780638da5cb5b1461021f5780639106d7ba1461024a578063953b7ef81461027557610135565b80632f3346521461013a57806338af6632146101655780634086bf891461017c57806348c54b9d146101935780636d4ed434146101aa57610135565b3661013557005b600080fd5b34801561014657600080fd5b5061014f61044c565b60405161015c9190611f7b565b60405180910390f35b34801561017157600080fd5b5061017a61045f565b005b34801561018857600080fd5b50610191610692565b005b34801561019f57600080fd5b506101a8610dfe565b005b3480156101b657600080fd5b506101d160048036038101906101cc9190611fc7565b611100565b005b3480156101df57600080fd5b506101e861116d565b005b3480156101f657600080fd5b506101ff611181565b6040516102169b9a9998979695949392919061204e565b60405180910390f35b34801561022b57600080fd5b506102346111e9565b60405161024191906120f9565b60405180910390f35b34801561025657600080fd5b5061025f611212565b60405161026c9190612114565b60405180910390f35b34801561028157600080fd5b5061028a611218565b005b34801561029857600080fd5b506102a1611422565b6040516102ae9190611f7b565b60405180910390f35b6102bf611435565b005b3480156102cd57600080fd5b506102e860048036038101906102e39190611fc7565b611750565b005b3480156102f657600080fd5b506102ff6117bd565b005b34801561030d57600080fd5b50610316611a3c565b60405161032391906120f9565b60405180910390f35b34801561033857600080fd5b50610353600480360381019061034e919061215b565b611a62565b6040516103609190612114565b60405180910390f35b34801561037557600080fd5b50610390600480360381019061038b91906121b4565b611a7a565b005b34801561039e57600080fd5b506103b960048036038101906103b491906121e1565b611b9c565b005b3480156103c757600080fd5b506103e260048036038101906103dd919061215b565b611cf7565b6040516103ef9190612114565b60405180910390f35b34801561040457600080fd5b5061040d611d0f565b60405161041a9190612114565b60405180910390f35b34801561042f57600080fd5b5061044a6004803603810190610445919061215b565b611d15565b005b600f60019054906101000a900460ff1681565b610467611d9b565b62278d006002600a015461047b9190612250565b4210156104bd576040517f08c379a00000000000000000000000000000000000000000000000000000000081526004016104b490612307565b60405180910390fd5b6000600f60029054906101000a900473ffffffffffffffffffffffffffffffffffffffff1673ffffffffffffffffffffffffffffffffffffffff166370a08231306040518263ffffffff1660e01b815260040161051a91906120f9565b602060405180830381865afa158015610537573d6000803e3d6000fd5b505050506040513d601f19601f8201168201806040525081019061055b919061233c565b9050600081111561068f57600f60029054906101000a900473ffffffffffffffffffffffffffffffffffffffff1673ffffffffffffffffffffffffffffffffffffffff1663a9059cbb33836040518363ffffffff1660e01b81526004016105c3929190612369565b6020604051808303816000875af11580156105e2573d6000803e3d6000fd5b505050506040513d601f19601f8201168201806040525081019061060691906123a7565b50600f60029054906101000a900473ffffffffffffffffffffffffffffffffffffffff1673ffffffffffffffffffffffffffffffffffffffff163373ffffffffffffffffffffffffffffffffffffffff167f4f2e1c4d34092405172a61f387073a9b61bfcbb54eceb1e96383d36e19b394a9836040516106869190612114565b60405180910390a35b50565b61069a611d9b565b6002600a01544210156106e2576040517f08c379a00000000000000000000000000000000000000000000000000000000081526004016106d990612446565b60405180910390fd5b600260010154600d54101561072c576040517f08c379a0000000000000000000000000000000000000000000000000000000008152600401610723906124d8565b60405180910390fd5b6000601360009054906101000a900473ffffffffffffffffffffffffffffffffffffffff1673ffffffffffffffffffffffffffffffffffffffff1663e6a43905600260000160009054906101000a900473ffffffffffffffffffffffffffffffffffffffff1660006040518363ffffffff1660e01b81526004016107b19291906124f8565b602060405180830381865afa1580156107ce573d6000803e3d6000fd5b505050506040513d601f19601f820116820180604052508101906107f29190612536565b9050600073ffffffffffffffffffffffffffffffffffffffff168173ffffffffffffffffffffffffffffffffffffffff160361093457601260009054906101000a900473ffffffffffffffffffffffffffffffffffffffff1673ffffffffffffffffffffffffffffffffffffffff1663171223dd73ffffffffffffffffffffffffffffffffffffffff60001b7feeeeeeeeeeeeeeeeeeeeeeeeeeeeeeeeeeeeeeeeeeeeeeeeeeeeeeeeeeeeeeee60001b166108d1600260000160009054906101000a900473ffffffffffffffffffffffffffffffffffffffff16611e22565b6040518363ffffffff1660e01b81526004016108ee92919061258e565b6020604051808303816000875af115801561090d573d6000803e3d6000fd5b505050506040513d601f19601f820116820180604052508101906109319190612536565b90505b80600f60026101000a81548173ffffffffffffffffffffffffffffffffffffffff021916908373ffffffffffffffffffffffffffffffffffffffff160217905550600260000160009054906101000a900473ffffffffffffffffffffffffffffffffffffffff1673ffffffffffffffffffffffffffffffffffffffff1663095ea7b3601360009054906101000a900473ffffffffffffffffffffffffffffffffffffffff167fffffffffffffffffffffffffffffffffffffffffffffffffffffffffffffffff6040518363ffffffff1660e01b8152600401610a17929190612369565b6020604051808303816000875af1158015610a36573d6000803e3d6000fd5b505050506040513d601f19601f82011682018060405250810190610a5a91906123a7565b5060006064600d54600260070154610a7291906125b7565b610a7c9190612628565b9050600060026004015482610a9191906125b7565b9050601360009054906101000a900473ffffffffffffffffffffffffffffffffffffffff1673ffffffffffffffffffffffffffffffffffffffff16635a47ddc383600260000160009054906101000a900473ffffffffffffffffffffffffffffffffffffffff166000808688600080307fffffffffffffffffffffffffffffffffffffffffffffffffffffffffffffffff6040518b63ffffffff1660e01b8152600401610b469998979695949392919061269e565b60606040518083038185885af1158015610b64573d6000803e3d6000fd5b50505050506040513d601f19601f82011682018060405250810190610b89919061272b565b5050506000600260000160009054906101000a900473ffffffffffffffffffffffffffffffffffffffff1673ffffffffffffffffffffffffffffffffffffffff166370a08231306040518263ffffffff1660e01b8152600401610bec91906120f9565b602060405180830381865afa158015610c09573d6000803e3d6000fd5b505050506040513d601f19601f82011682018060405250810190610c2d919061233c565b9050600260000160009054906101000a900473ffffffffffffffffffffffffffffffffffffffff1673ffffffffffffffffffffffffffffffffffffffff1663a9059cbb6000836040518363ffffffff1660e01b8152600401610c90929190612369565b6020604051808303816000875af1158015610caf573d6000803e3d6000fd5b505050506040513d601f19601f82011682018060405250810190610cd391906123a7565b5060008473ffffffffffffffffffffffffffffffffffffffff166370a08231306040518263ffffffff1660e01b8152600401610d0f91906120f9565b602060405180830381865afa158015610d2c573d6000803e3d6000fd5b505050506040513d601f19601f82011682018060405250810190610d50919061233c565b90506001600f60006101000a81548160ff021916908315150217905550600260000160009054906101000a900473ffffffffffffffffffffffffffffffffffffffff1673ffffffffffffffffffffffffffffffffffffffff168573ffffffffffffffffffffffffffffffffffffffff167f2be745126d540f8314c97b28a1687816ebc31358eb0259f21907ff16cd11eeb983604051610def9190612114565b60405180910390a35050505050565b610e06611e45565b6002600a0154421015610e4e576040517f08c379a0000000000000000000000000000000000000000000000000000000008152600401610e4590612446565b60405180910390fd5b600260010154600d541015610e98576040517f08c379a0000000000000000000000000000000000000000000000000000000008152600401610e8f906124d8565b60405180910390fd5b6000601160003373ffffffffffffffffffffffffffffffffffffffff1673ffffffffffffffffffffffffffffffffffffffff1681526020019081526020016000205414610f1a576040517f08c379a0000000000000000000000000000000000000000000000000000000008152600401610f11906127f0565b60405180910390fd5b60006002800154600260030154610f319190612628565b9050600081601060003373ffffffffffffffffffffffffffffffffffffffff1673ffffffffffffffffffffffffffffffffffffffff16815260200190815260200160002054610f8091906125b7565b905080601160003373ffffffffffffffffffffffffffffffffffffffff1673ffffffffffffffffffffffffffffffffffffffff16815260200190815260200160002081905550600260000160009054906101000a900473ffffffffffffffffffffffffffffffffffffffff1673ffffffffffffffffffffffffffffffffffffffff1663a9059cbb33836040518363ffffffff1660e01b8152600401611026929190612369565b6020604051808303816000875af1158015611045573d6000803e3d6000fd5b505050506040513d601f19601f8201168201806040525081019061106991906123a7565b50600260000160009054906101000a900473ffffffffffffffffffffffffffffffffffffffff1673ffffffffffffffffffffffffffffffffffffffff163373ffffffffffffffffffffffffffffffffffffffff167f4831bdd9dcf3048a28319ce81d3cab7a15366bcf449bc7803a539107440809cc836040516110ec9190612114565b60405180910390a350506110fe611e8b565b565b611108611d9b565b6002600a0154421015611150576040517f08c379a00000000000000000000000000000000000000000000000000000000081526004016111479061285c565b60405180910390fd5b80600f60166101000a81548160ff02191690831515021790555050565b611175611d9b565b61117f6000611e94565b565b60028060000160009054906101000a900473ffffffffffffffffffffffffffffffffffffffff169080600101549080600201549080600301549080600401549080600501549080600601549080600701549080600801549080600901549080600a015490508b565b60008060009054906101000a900473ffffffffffffffffffffffffffffffffffffffff16905090565b600d5481565b611220611d9b565b6002600a0154421015611268576040517f08c379a000000000000000000000000000000000000000000000000000000000815260040161125f90612446565b60405180910390fd5b600260010154600d5410156112b2576040517f08c379a00000000000000000000000000000000000000000000000000000000081526004016112a9906124d8565b60405180910390fd5b600f60019054906101000a900460ff1615611302576040517f08c379a00000000000000000000000000000000000000000000000000000000081526004016112f9906128ee565b60405180910390fd5b60006064600d5460026008015461131991906125b7565b6113239190612628565b90506001600f60016101000a81548160ff0219169083151502179055506113486111e9565b73ffffffffffffffffffffffffffffffffffffffff166108fc829081150290604051600060405180830381858888f1935050505015801561138d573d6000803e3d6000fd5b50600260000160009054906101000a900473ffffffffffffffffffffffffffffffffffffffff1673ffffffffffffffffffffffffffffffffffffffff166113d26111e9565b73ffffffffffffffffffffffffffffffffffffffff167fa95e69983c44f17474cba286953deb119463b9f5cb8cfde4fd709df3660266f7836040516114179190612114565b60405180910390a350565b600f60009054906101000a900460ff1681565b60026009015442101561147d576040517f08c379a000000000000000000000000000000000000000000000000000000000815260040161147490612980565b60405180910390fd5b6002600a01544211156114c5576040517f08c379a00000000000000000000000000000000000000000000000000000000081526004016114bc90612a12565b60405180910390fd5b60026005015434101561150d576040517f08c379a000000000000000000000000000000000000000000000000000000000815260040161150490612aa4565b60405180910390fd5b600260060154341115611555576040517f08c379a000000000000000000000000000000000000000000000000000000000815260040161154c90612b36565b60405180910390fd5b600280015434600d546115689190612250565b11156115a9576040517f08c379a00000000000000000000000000000000000000000000000000000000081526004016115a090612bc8565b60405180910390fd5b60026006015434601060003373ffffffffffffffffffffffffffffffffffffffff1673ffffffffffffffffffffffffffffffffffffffff168152602001908152602001600020546115fa9190612250565b111561163b576040517f08c379a000000000000000000000000000000000000000000000000000000000815260040161163290612c5a565b60405180910390fd5b34600d600082825461164d9190612250565b925050819055506001600e60008282546116679190612250565b9250508190555034601060003373ffffffffffffffffffffffffffffffffffffffff1673ffffffffffffffffffffffffffffffffffffffff16815260200190815260200160002060008282546116bd9190612250565b92505081905550600260000160009054906101000a900473ffffffffffffffffffffffffffffffffffffffff1673ffffffffffffffffffffffffffffffffffffffff163373ffffffffffffffffffffffffffffffffffffffff167f9b24bd0884170cbce51f9f00df6b3f9aed2231e4086241d1d04687b42afdf7b9346040516117469190612114565b60405180910390a3565b611758611d9b565b6002600a01544210156117a0576040517f08c379a00000000000000000000000000000000000000000000000000000000081526004016117979061285c565b60405180910390fd5b80600f60176101000a81548160ff02191690831515021790555050565b6117c5611e45565b6002600a015442101561180d576040517f08c379a000000000000000000000000000000000000000000000000000000000815260040161180490612446565b60405180910390fd5b600260010154600d5410611856576040517f08c379a000000000000000000000000000000000000000000000000000000000815260040161184d90612cec565b60405180910390fd5b6000601160003373ffffffffffffffffffffffffffffffffffffffff1673ffffffffffffffffffffffffffffffffffffffff16815260200190815260200160002054146118d8576040517f08c379a00000000000000000000000000000000000000000000000000000000081526004016118cf906127f0565b60405180910390fd5b6000601060003373ffffffffffffffffffffffffffffffffffffffff1673ffffffffffffffffffffffffffffffffffffffff16815260200190815260200160002054905080601160003373ffffffffffffffffffffffffffffffffffffffff1673ffffffffffffffffffffffffffffffffffffffff168152602001908152602001600020819055503373ffffffffffffffffffffffffffffffffffffffff166108fc829081150290604051600060405180830381858888f193505050501580156119a6573d6000803e3d6000fd5b50600260000160009054906101000a900473ffffffffffffffffffffffffffffffffffffffff1673ffffffffffffffffffffffffffffffffffffffff163373ffffffffffffffffffffffffffffffffffffffff167ff40cc8c1a1d17359049ba500cfc894596a692cffc9d03943cd92ec2e159cf6ae83604051611a299190612114565b60405180910390a350611a3a611e8b565b565b600f60029054906101000a900473ffffffffffffffffffffffffffffffffffffffff1681565b60116020528060005260406000206000915090505481565b6002600a0154421015611ac2576040517f08c379a0000000000000000000000000000000000000000000000000000000008152600401611ab99061285c565b60405180910390fd5b601460009054906101000a900473ffffffffffffffffffffffffffffffffffffffff1673ffffffffffffffffffffffffffffffffffffffff163373ffffffffffffffffffffffffffffffffffffffff1614611b52576040517f08c379a0000000000000000000000000000000000000000000000000000000008152600401611b499061285c565b60405180910390fd5b3373ffffffffffffffffffffffffffffffffffffffff166108fc829081150290604051600060405180830381858888f19350505050158015611b98573d6000803e3d6000fd5b5050565b6002600a0154421015611be4576040517f08c379a0000000000000000000000000000000000000000000000000000000008152600401611bdb9061285c565b60405180910390fd5b601460009054906101000a900473ffffffffffffffffffffffffffffffffffffffff1673ffffffffffffffffffffffffffffffffffffffff163373ffffffffffffffffffffffffffffffffffffffff1614611c74576040517f08c379a0000000000000000000000000000000000000000000000000000000008152600401611c6b9061285c565b60405180910390fd5b8173ffffffffffffffffffffffffffffffffffffffff1663a9059cbb33836040518363ffffffff1660e01b8152600401611caf929190612369565b6020604051808303816000875af1158015611cce573d6000803e3d6000fd5b505050506040513d601f19601f82011682018060405250810190611cf291906123a7565b505050565b60106020528060005260406000206000915090505481565b600e5481565b611d1d611d9b565b600073ffffffffffffffffffffffffffffffffffffffff168173ffffffffffffffffffffffffffffffffffffffff1603611d8f5760006040517f1e4fbdf7000000000000000000000000000000000000000000000000000000008152600401611d8691906120f9565b60405180910390fd5b611d9881611e94565b50565b611da3611f58565b73ffffffffffffffffffffffffffffffffffffffff16611dc16111e9565b73ffffffffffffffffffffffffffffffffffffffff1614611e2057611de4611f58565b6040517f118cdaa7000000000000000000000000000000000000000000000000000000008152600401611e1791906120f9565b60405180910390fd5b565b60008173ffffffffffffffffffffffffffffffffffffffff1660001b9050919050565b600260015403611e81576040517f3ee5aeb500000000000000000000000000000000000000000000000000000000815260040160405180910390fd5b6002600181905550565b60018081905550565b60008060009054906101000a900473ffffffffffffffffffffffffffffffffffffffff169050816000806101000a81548173ffffffffffffffffffffffffffffffffffffffff021916908373ffffffffffffffffffffffffffffffffffffffff1602179055508173ffffffffffffffffffffffffffffffffffffffff168173ffffffffffffffffffffffffffffffffffffffff167f8be0079c531659141344cd1fd0a4f28419497f9722a3daafe3b4186f6b6457e060405160405180910390a35050565b600033905090565b60008115159050919050565b611f7581611f60565b82525050565b6000602082019050611f906000830184611f6c565b92915050565b600080fd5b611fa481611f60565b8114611faf57600080fd5b50565b600081359050611fc181611f9b565b92915050565b600060208284031215611fdd57611fdc611f96565b5b6000611feb84828501611fb2565b91505092915050565b600073ffffffffffffffffffffffffffffffffffffffff82169050919050565b600061201f82611ff4565b9050919050565b61202f81612014565b82525050565b6000819050919050565b61204881612035565b82525050565b600061016082019050612064600083018e612026565b612071602083018d61203f565b61207e604083018c61203f565b61208b606083018b61203f565b612098608083018a61203f565b6120a560a083018961203f565b6120b260c083018861203f565b6120bf60e083018761203f565b6120cd61010083018661203f565b6120db61012083018561203f565b6120e961014083018461203f565b9c9b505050505050505050505050565b600060208201905061210e6000830184612026565b92915050565b6000602082019050612129600083018461203f565b92915050565b61213881612014565b811461214357600080fd5b50565b6000813590506121558161212f565b92915050565b60006020828403121561217157612170611f96565b5b600061217f84828501612146565b91505092915050565b61219181612035565b811461219c57600080fd5b50565b6000813590506121ae81612188565b92915050565b6000602082840312156121ca576121c9611f96565b5b60006121d88482850161219f565b91505092915050565b600080604083850312156121f8576121f7611f96565b5b600061220685828601612146565b92505060206122178582860161219f565b9150509250929050565b7f4e487b7100000000000000000000000000000000000000000000000000000000600052601160045260246000fd5b600061225b82612035565b915061226683612035565b925082820190508082111561227e5761227d612221565b5b92915050565b600082825260208201905092915050565b7f546872757374706164466169724c61756e63683a204c6f636b20706572696f6460008201527f206e6f74206f7665722079657400000000000000000000000000000000000000602082015250565b60006122f1602d83612284565b91506122fc82612295565b604082019050919050565b60006020820190508181036000830152612320816122e4565b9050919050565b60008151905061233681612188565b92915050565b60006020828403121561235257612351611f96565b5b600061236084828501612327565b91505092915050565b600060408201905061237e6000830185612026565b61238b602083018461203f565b9392505050565b6000815190506123a181611f9b565b92915050565b6000602082840312156123bd576123bc611f96565b5b60006123cb84828501612392565b91505092915050565b7f546872757374706164466169724c61756e63683a2073616c6520686173206e6f60008201527f7420656e64656420796574000000000000000000000000000000000000000000602082015250565b6000612430602b83612284565b915061243b826123d4565b604082019050919050565b6000602082019050818103600083015261245f81612423565b9050919050565b7f546872757374706164466169724c61756e63683a20736f667420636170206e6f60008201527f7420726561636865640000000000000000000000000000000000000000000000602082015250565b60006124c2602983612284565b91506124cd82612466565b604082019050919050565b600060208201905081810360008301526124f1816124b5565b9050919050565b600060408201905061250d6000830185612026565b61251a6020830184612026565b9392505050565b6000815190506125308161212f565b92915050565b60006020828403121561254c5761254b611f96565b5b600061255a84828501612521565b91505092915050565b6000819050919050565b600061257882612563565b9050919050565b6125888161256d565b82525050565b60006040820190506125a3600083018561257f565b6125b0602083018461257f565b9392505050565b60006125c282612035565b91506125cd83612035565b92508282026125db81612035565b915082820484148315176125f2576125f1612221565b5b5092915050565b7f4e487b7100000000000000000000000000000000000000000000000000000000600052601260045260246000fd5b600061263382612035565b915061263e83612035565b92508261264e5761264d6125f9565b5b828204905092915050565b6000819050919050565b6000819050919050565b600061268861268361267e84612659565b612663565b612035565b9050919050565b6126988161266d565b82525050565b6000610120820190506126b4600083018c612026565b6126c1602083018b612026565b6126ce604083018a611f6c565b6126db606083018961203f565b6126e8608083018861203f565b6126f560a083018761268f565b61270260c083018661268f565b61270f60e0830185612026565b61271d61010083018461203f565b9a9950505050505050505050565b60008060006060848603121561274457612743611f96565b5b600061275286828701612327565b935050602061276386828701612327565b925050604061277486828701612327565b9150509250925092565b7f546872757374706164466169724c61756e63683a20746f6b656e7320616c726560008201527f61647920636c61696d6564000000000000000000000000000000000000000000602082015250565b60006127da602b83612284565b91506127e58261277e565b604082019050919050565b60006020820190508181036000830152612809816127cd565b9050919050565b7f4e6f7420617574686f72697a6564000000000000000000000000000000000000600082015250565b6000612846600e83612284565b915061285182612810565b602082019050919050565b6000602082019050818103600083015261287581612839565b9050919050565b7f546872757374706164466169724c61756e63683a207465616d20746f6b656e7360008201527f20616c726561647920636c61696d656400000000000000000000000000000000602082015250565b60006128d8603083612284565b91506128e38261287c565b604082019050919050565b60006020820190508181036000830152612907816128cb565b9050919050565b7f546872757374706164466169724c61756e63683a2073616c6520686173206e6f60008201527f7420737461727465642079657400000000000000000000000000000000000000602082015250565b600061296a602d83612284565b91506129758261290e565b604082019050919050565b600060208201905081810360008301526129998161295d565b9050919050565b7f546872757374706164466169724c61756e63683a2073616c652068617320656e60008201527f6465640000000000000000000000000000000000000000000000000000000000602082015250565b60006129fc602383612284565b9150612a07826129a0565b604082019050919050565b60006020820190508181036000830152612a2b816129ef565b9050919050565b7f546872757374706164466169724c61756e63683a20616d6f756e74206973206c60008201527f657373207468616e206d696e696d756d20627579000000000000000000000000602082015250565b6000612a8e603483612284565b9150612a9982612a32565b604082019050919050565b60006020820190508181036000830152612abd81612a81565b9050919050565b7f546872757374706164466169724c61756e63683a20616d6f756e74206973206d60008201527f6f7265207468616e206d6178696d756d20627579000000000000000000000000602082015250565b6000612b20603483612284565b9150612b2b82612ac4565b604082019050919050565b60006020820190508181036000830152612b4f81612b13565b9050919050565b7f546872757374706164466169724c61756e63683a20686172642063617020726560008201527f6163686564000000000000000000000000000000000000000000000000000000602082015250565b6000612bb2602583612284565b9150612bbd82612b56565b604082019050919050565b60006020820190508181036000830152612be181612ba5565b9050919050565b7f546872757374706164466169724c61756e63683a2077616c6c6574206861732060008201527f72656163686564206d6178696d756d2062757900000000000000000000000000602082015250565b6000612c44603383612284565b9150612c4f82612be8565b604082019050919050565b60006020820190508181036000830152612c7381612c37565b9050919050565b7f546872757374706164466169724c61756e63683a20736f66742063617020726560008201527f6163686564000000000000000000000000000000000000000000000000000000602082015250565b6000612cd6602583612284565b9150612ce182612c7a565b604082019050919050565b60006020820190508181036000830152612d0581612cc9565b905091905056fea2646970667358221220329d8ace2e0812feed60c0375ff58c7ed5cc4f7773c08adfc202d98d7572024a64736f6c63430008180033a2646970667358221220d6ba7e4b9e119ecf82fc97576ec4e3e12f7778d9fed05cfbb296d3848336954864736f6c63430008180033",
  "linkReferences": {},
  "deployedLinkReferences": {}
}