{
  "_format": "hh-sol-artifact-1",
  "contractName": "ThrustpadFairLaunchFactory",
  "sourceName": "contracts/fair-launch/ThrustpadFairLaunchFactory.sol",
  "abi": [
    {
      "inputs": [],
      "stateMutability": "nonpayable",
      "type": "constructor"
    },
    {
      "inputs": [
        {
          "internalType": "address",
          "name": "owner",
          "type": "address"
        }
      ],
      "name": "OwnableInvalidOwner",
      "type": "error"
    },
    {
      "inputs": [
        {
          "internalType": "address",
          "name": "account",
          "type": "address"
        }
      ],
      "name": "OwnableUnauthorizedAccount",
      "type": "error"
    },
    {
      "anonymous": false,
      "inputs": [
        {
          "indexed": true,
          "internalType": "address",
          "name": "creator",
          "type": "address"
        },
        {
          "indexed": true,
          "internalType": "address",
          "name": "launch",
          "type": "address"
        }
      ],
      "name": "NewFairLaunch",
      "type": "event"
    },
    {
      "anonymous": false,
      "inputs": [
        {
          "indexed": true,
          "internalType": "address",
          "name": "previousOwner",
          "type": "address"
        },
        {
          "indexed": true,
          "internalType": "address",
          "name": "newOwner",
          "type": "address"
        }
      ],
      "name": "OwnershipTransferred",
      "type": "event"
    },
    {
      "inputs": [
        {
          "internalType": "uint256",
          "name": "",
          "type": "uint256"
        }
      ],
      "name": "creationFees",
      "outputs": [
        {
          "internalType": "uint256",
          "name": "",
          "type": "uint256"
        }
      ],
      "stateMutability": "view",
      "type": "function"
    },
    {
      "inputs": [
        {
          "internalType": "address",
          "name": "",
          "type": "address"
        },
        {
          "internalType": "uint256",
          "name": "",
          "type": "uint256"
        }
      ],
      "name": "deployedLaunches",
      "outputs": [
        {
          "internalType": "address",
          "name": "",
          "type": "address"
        }
      ],
      "stateMutability": "view",
      "type": "function"
    },
    {
      "inputs": [],
      "name": "feeEarned",
      "outputs": [
        {
          "internalType": "uint256",
          "name": "",
          "type": "uint256"
        }
      ],
      "stateMutability": "view",
      "type": "function"
    },
    {
      "inputs": [
        {
          "internalType": "bytes",
          "name": "bytecode",
          "type": "bytes"
        },
        {
          "internalType": "uint256",
          "name": "salt",
          "type": "uint256"
        }
      ],
      "name": "getAddressCreate2",
      "outputs": [
        {
          "internalType": "address",
          "name": "",
          "type": "address"
        }
      ],
      "stateMutability": "view",
      "type": "function"
    },
    {
      "inputs": [
        {
          "components": [
            {
              "internalType": "address",
              "name": "token",
              "type": "address"
            },
            {
              "internalType": "uint256",
              "name": "softCap",
              "type": "uint256"
            },
            {
              "internalType": "uint256",
              "name": "hardCap",
              "type": "uint256"
            },
            {
              "internalType": "uint256",
              "name": "amountForSale",
              "type": "uint256"
            },
            {
              "internalType": "uint256",
              "name": "listingRate",
              "type": "uint256"
            },
            {
              "internalType": "uint256",
              "name": "minimumBuy",
              "type": "uint256"
            },
            {
              "internalType": "uint256",
              "name": "maximumBuy",
              "type": "uint256"
            },
            {
              "internalType": "uint256",
              "name": "percentageForLiquidity",
              "type": "uint256"
            },
            {
              "internalType": "uint256",
              "name": "percentageForTeam",
              "type": "uint256"
            },
            {
              "internalType": "uint256",
              "name": "startDate",
              "type": "uint256"
            },
            {
              "internalType": "uint256",
              "name": "endDate",
              "type": "uint256"
            }
          ],
          "internalType": "struct FairLaunchConfig",
          "name": "config",
          "type": "tuple"
        }
      ],
      "name": "getBytecode",
      "outputs": [
        {
          "internalType": "bytes",
          "name": "",
          "type": "bytes"
        }
      ],
      "stateMutability": "pure",
      "type": "function"
    },
    {
      "inputs": [
        {
          "internalType": "address",
          "name": "creator",
          "type": "address"
        }
      ],
      "name": "getdeployedLaunches",
      "outputs": [
        {
          "internalType": "address[]",
          "name": "",
          "type": "address[]"
        }
      ],
      "stateMutability": "view",
      "type": "function"
    },
    {
      "inputs": [
        {
          "internalType": "address",
          "name": "creator",
          "type": "address"
        }
      ],
      "name": "getdeployedLaunchesLen",
      "outputs": [
        {
          "internalType": "uint256",
          "name": "",
          "type": "uint256"
        }
      ],
      "stateMutability": "view",
      "type": "function"
    },
    {
      "inputs": [
        {
          "components": [
            {
              "internalType": "address",
              "name": "token",
              "type": "address"
            },
            {
              "internalType": "uint256",
              "name": "softCap",
              "type": "uint256"
            },
            {
              "internalType": "uint256",
              "name": "hardCap",
              "type": "uint256"
            },
            {
              "internalType": "uint256",
              "name": "amountForSale",
              "type": "uint256"
            },
            {
              "internalType": "uint256",
              "name": "listingRate",
              "type": "uint256"
            },
            {
              "internalType": "uint256",
              "name": "minimumBuy",
              "type": "uint256"
            },
            {
              "internalType": "uint256",
              "name": "maximumBuy",
              "type": "uint256"
            },
            {
              "internalType": "uint256",
              "name": "percentageForLiquidity",
              "type": "uint256"
            },
            {
              "internalType": "uint256",
              "name": "percentageForTeam",
              "type": "uint256"
            },
            {
              "internalType": "uint256",
              "name": "startDate",
              "type": "uint256"
            },
            {
              "internalType": "uint256",
              "name": "endDate",
              "type": "uint256"
            }
          ],
          "internalType": "struct FairLaunchConfig",
          "name": "config",
          "type": "tuple"
        }
      ],
      "name": "newFairLaunch",
      "outputs": [
        {
          "internalType": "address",
          "name": "",
          "type": "address"
        }
      ],
      "stateMutability": "payable",
      "type": "function"
    },
    {
      "inputs": [],
      "name": "owner",
      "outputs": [
        {
          "internalType": "address",
          "name": "",
          "type": "address"
        }
      ],
      "stateMutability": "view",
      "type": "function"
    },
    {
      "inputs": [],
      "name": "renounceOwnership",
      "outputs": [],
      "stateMutability": "nonpayable",
      "type": "function"
    },
    {
      "inputs": [
        {
          "internalType": "uint256[]",
          "name": "_fees",
          "type": "uint256[]"
        }
      ],
      "name": "setCreationFees",
      "outputs": [],
      "stateMutability": "nonpayable",
      "type": "function"
    },
    {
      "inputs": [
        {
          "internalType": "address",
          "name": "newOwner",
          "type": "address"
        }
      ],
      "name": "transferOwnership",
      "outputs": [],
      "stateMutability": "nonpayable",
      "type": "function"
    },
    {
      "inputs": [],
      "name": "withdraw",
      "outputs": [],
      "stateMutability": "nonpayable",
      "type": "function"
    },
    {
      "inputs": [
        {
          "internalType": "address",
          "name": "token",
          "type": "address"
        }
      ],
      "name": "withdrawToken",
      "outputs": [],
      "stateMutability": "nonpayable",
      "type": "function"
    },
    {
      "stateMutability": "payable",
      "type": "receive"
    }
  ],
  "bytecode": "0x60806040526040518060200160405280670de0b6b3a764000067ffffffffffffffff1681525060029060016200003792919062000198565b503480156200004557600080fd5b5033600073ffffffffffffffffffffffffffffffffffffffff168173ffffffffffffffffffffffffffffffffffffffff1603620000bc5760006040517f1e4fbdf7000000000000000000000000000000000000000000000000000000008152600401620000b391906200025a565b60405180910390fd5b620000cd81620000d460201b60201c565b5062000277565b60008060009054906101000a900473ffffffffffffffffffffffffffffffffffffffff169050816000806101000a81548173ffffffffffffffffffffffffffffffffffffffff021916908373ffffffffffffffffffffffffffffffffffffffff1602179055508173ffffffffffffffffffffffffffffffffffffffff168173ffffffffffffffffffffffffffffffffffffffff167f8be0079c531659141344cd1fd0a4f28419497f9722a3daafe3b4186f6b6457e060405160405180910390a35050565b828054828255906000526020600020908101928215620001e3579160200282015b82811115620001e2578251829067ffffffffffffffff16905591602001919060010190620001b9565b5b509050620001f29190620001f6565b5090565b5b8082111562000211576000816000905550600101620001f7565b5090565b600073ffffffffffffffffffffffffffffffffffffffff82169050919050565b6000620002428262000215565b9050919050565b620002548162000235565b82525050565b600060208201905062000271600083018462000249565b92915050565b61540f80620002876000396000f3fe608060405260043610620000f75760003560e01c80638da5cb5b116200008b578063d5f63a061162000061578063d5f63a061462000320578063e5e868ab1462000350578063f2fde38b1462000394578063fc16e1dd14620003c257620000ff565b80638da5cb5b14620002685780639f886f261462000298578063b6e1527414620002dc57620000ff565b80634455a34311620000cd5780634455a343146200019857806357ad392214620001dc578063715018a6146200022057806389476069146200023a57620000ff565b806306a339ee146200010457806339354c6014620001485780633ccfd60b146200017e57620000ff565b36620000ff57005b600080fd5b3480156200011157600080fd5b506200013060048036038101906200012a9190620011cc565b620003f0565b6040516200013f919062001288565b60405180910390f35b620001666004803603810190620001609190620011cc565b62000469565b604051620001759190620012bd565b60405180910390f35b3480156200018b57600080fd5b506200019662000932565b005b348015620001a557600080fd5b50620001c46004803603810190620001be9190620012da565b6200098f565b604051620001d39190620013da565b60405180910390f35b348015620001e957600080fd5b50620002086004803603810190620002029190620013fe565b62000a5e565b604051620002179190620012bd565b60405180910390f35b3480156200022d57600080fd5b506200023862000aad565b005b3480156200024757600080fd5b50620002666004803603810190620002609190620012da565b62000ac5565b005b3480156200027557600080fd5b506200028062000bdd565b6040516200028f9190620012bd565b60405180910390f35b348015620002a557600080fd5b50620002c46004803603810190620002be919062001512565b62000c06565b604051620002d39190620012bd565b60405180910390f35b348015620002e957600080fd5b5062000308600480360381019062000302919062001578565b62000c52565b604051620003179190620015bb565b60405180910390f35b3480156200032d57600080fd5b506200033862000c77565b604051620003479190620015bb565b60405180910390f35b3480156200035d57600080fd5b506200037c6004803603810190620003769190620012da565b62000c7d565b6040516200038b9190620015bb565b60405180910390f35b348015620003a157600080fd5b50620003c06004803603810190620003ba9190620012da565b62000cc9565b005b348015620003cf57600080fd5b50620003ee6004803603810190620003e89190620016b3565b62000d56565b005b6060600060405180602001620004069062000ed8565b6020820181038252601f19601f82011660405250905080836040516020016200043091906200180c565b604051602081830303815290604052604051602001620004529291906200186c565b604051602081830303815290604052915050919050565b6000600260008154811062000483576200048262001894565b5b9060005260206000200154341015620004d3576040517f08c379a0000000000000000000000000000000000000000000000000000000008152600401620004ca906200194a565b60405180910390fd5b6012826000015173ffffffffffffffffffffffffffffffffffffffff1663313ce5676040518163ffffffff1660e01b8152600401602060405180830381865afa15801562000525573d6000803e3d6000fd5b505050506040513d601f19601f820116820180604052508101906200054b9190620019aa565b60ff161462000591576040517f08c379a0000000000000000000000000000000000000000000000000000000008152600401620005889062001a52565b60405180910390fd5b603c8260e001511015620005dc576040517f08c379a0000000000000000000000000000000000000000000000000000000008152600401620005d39062001b10565b60405180910390fd5b6028826101000151111562000628576040517f08c379a00000000000000000000000000000000000000000000000000000000081526004016200061f9062001bce565b60405180910390fd5b60648261010001518360e0015162000641919062001c1f565b1462000684576040517f08c379a00000000000000000000000000000000000000000000000000000000081526004016200067b9062001cf6565b60405180910390fd5b600060048360400151816200069e576200069d62001d18565b5b0483602001511015620006e8576040517f08c379a0000000000000000000000000000000000000000000000000000000008152600401620006df9062001de3565b60405180910390fd5b68056bc75e2d63100000836080015184604001518560e0015102028162000714576200071362001d18565b5b0483606001510190506000600160003373ffffffffffffffffffffffffffffffffffffffff1673ffffffffffffffffffffffffffffffffffffffff1681526020019081526020016000208054905060001b84604051620007749062000ed8565b6200078091906200180c565b8190604051809103906000f5905080158015620007a1573d6000803e3d6000fd5b509050600160003373ffffffffffffffffffffffffffffffffffffffff1673ffffffffffffffffffffffffffffffffffffffff168152602001908152602001600020819080600181540180825580915050600190039060005260206000200160009091909190916101000a81548173ffffffffffffffffffffffffffffffffffffffff021916908373ffffffffffffffffffffffffffffffffffffffff160217905550836000015173ffffffffffffffffffffffffffffffffffffffff166323b872dd3383856040518463ffffffff1660e01b8152600401620008879392919062001e05565b6020604051808303816000875af1158015620008a7573d6000803e3d6000fd5b505050506040513d601f19601f82011682018060405250810190620008cd919062001e7f565b508073ffffffffffffffffffffffffffffffffffffffff163373ffffffffffffffffffffffffffffffffffffffff167f3e898072f60c1097ffd1556ec02786c3af00b0f9a3c971db360f7539abeb6d2160405160405180910390a38092505050919050565b6200093c62000d7c565b6200094662000bdd565b73ffffffffffffffffffffffffffffffffffffffff166108fc479081150290604051600060405180830381858888f193505050501580156200098c573d6000803e3d6000fd5b50565b6060600160008373ffffffffffffffffffffffffffffffffffffffff1673ffffffffffffffffffffffffffffffffffffffff16815260200190815260200160002080548060200260200160405190810160405280929190818152602001828054801562000a5257602002820191906000526020600020905b8160009054906101000a900473ffffffffffffffffffffffffffffffffffffffff1673ffffffffffffffffffffffffffffffffffffffff168152602001906001019080831162000a07575b50505050509050919050565b6001602052816000526040600020818154811062000a7b57600080fd5b906000526020600020016000915091509054906101000a900473ffffffffffffffffffffffffffffffffffffffff1681565b62000ab762000d7c565b62000ac3600062000e0c565b565b62000acf62000d7c565b8073ffffffffffffffffffffffffffffffffffffffff1663a9059cbb62000af562000bdd565b8373ffffffffffffffffffffffffffffffffffffffff166370a08231306040518263ffffffff1660e01b815260040162000b309190620012bd565b602060405180830381865afa15801562000b4e573d6000803e3d6000fd5b505050506040513d601f19601f8201168201806040525081019062000b74919062001ec8565b6040518363ffffffff1660e01b815260040162000b9392919062001efa565b6020604051808303816000875af115801562000bb3573d6000803e3d6000fd5b505050506040513d601f19601f8201168201806040525081019062000bd9919062001e7f565b5050565b60008060009054906101000a900473ffffffffffffffffffffffffffffffffffffffff16905090565b60008060ff60f81b3084868051906020012060405160200162000c2d94939291906200201c565b6040516020818303038152906040528051906020012090508060001c91505092915050565b6002818154811062000c6357600080fd5b906000526020600020016000915090505481565b60035481565b6000600160008373ffffffffffffffffffffffffffffffffffffffff1673ffffffffffffffffffffffffffffffffffffffff168152602001908152602001600020805490509050919050565b62000cd362000d7c565b600073ffffffffffffffffffffffffffffffffffffffff168173ffffffffffffffffffffffffffffffffffffffff160362000d485760006040517f1e4fbdf700000000000000000000000000000000000000000000000000000000815260040162000d3f9190620012bd565b60405180910390fd5b62000d538162000e0c565b50565b62000d6062000d7c565b806002908051906020019062000d7892919062000ee6565b5050565b62000d8662000ed0565b73ffffffffffffffffffffffffffffffffffffffff1662000da662000bdd565b73ffffffffffffffffffffffffffffffffffffffff161462000e0a5762000dcc62000ed0565b6040517f118cdaa700000000000000000000000000000000000000000000000000000000815260040162000e019190620012bd565b60405180910390fd5b565b60008060009054906101000a900473ffffffffffffffffffffffffffffffffffffffff169050816000806101000a81548173ffffffffffffffffffffffffffffffffffffffff021916908373ffffffffffffffffffffffffffffffffffffffff1602179055508173ffffffffffffffffffffffffffffffffffffffff168173ffffffffffffffffffffffffffffffffffffffff167f8be0079c531659141344cd1fd0a4f28419497f9722a3daafe3b4186f6b6457e060405160405180910390a35050565b600033905090565b613367806200207383390190565b82805482825590600052602060002090810192821562000f25579160200282015b8281111562000f2457825182559160200191906001019062000f07565b5b50905062000f34919062000f38565b5090565b5b8082111562000f5357600081600090555060010162000f39565b5090565b6000604051905090565b600080fd5b600080fd5b600080fd5b6000601f19601f8301169050919050565b7f4e487b7100000000000000000000000000000000000000000000000000000000600052604160045260246000fd5b62000fbb8262000f70565b810181811067ffffffffffffffff8211171562000fdd5762000fdc62000f81565b5b80604052505050565b600062000ff262000f57565b905062001000828262000fb0565b919050565b600073ffffffffffffffffffffffffffffffffffffffff82169050919050565b6000620010328262001005565b9050919050565b620010448162001025565b81146200105057600080fd5b50565b600081359050620010648162001039565b92915050565b6000819050919050565b6200107f816200106a565b81146200108b57600080fd5b50565b6000813590506200109f8162001074565b92915050565b60006101608284031215620010bf57620010be62000f6b565b5b620010cc61016062000fe6565b90506000620010de8482850162001053565b6000830152506020620010f4848285016200108e565b60208301525060406200110a848285016200108e565b604083015250606062001120848285016200108e565b606083015250608062001136848285016200108e565b60808301525060a06200114c848285016200108e565b60a08301525060c062001162848285016200108e565b60c08301525060e062001178848285016200108e565b60e0830152506101006200118f848285016200108e565b61010083015250610120620011a7848285016200108e565b61012083015250610140620011bf848285016200108e565b6101408301525092915050565b60006101608284031215620011e657620011e562000f61565b5b6000620011f684828501620010a5565b91505092915050565b600081519050919050565b600082825260208201905092915050565b60005b838110156200123b5780820151818401526020810190506200121e565b60008484015250505050565b60006200125482620011ff565b6200126081856200120a565b9350620012728185602086016200121b565b6200127d8162000f70565b840191505092915050565b60006020820190508181036000830152620012a4818462001247565b905092915050565b620012b78162001025565b82525050565b6000602082019050620012d46000830184620012ac565b92915050565b600060208284031215620012f357620012f262000f61565b5b6000620013038482850162001053565b91505092915050565b600081519050919050565b600082825260208201905092915050565b6000819050602082019050919050565b620013438162001025565b82525050565b600062001357838362001338565b60208301905092915050565b6000602082019050919050565b60006200137d826200130c565b62001389818562001317565b9350620013968362001328565b8060005b83811015620013cd578151620013b1888262001349565b9750620013be8362001363565b9250506001810190506200139a565b5085935050505092915050565b60006020820190508181036000830152620013f6818462001370565b905092915050565b6000806040838503121562001418576200141762000f61565b5b6000620014288582860162001053565b92505060206200143b858286016200108e565b9150509250929050565b600080fd5b600080fd5b600067ffffffffffffffff8211156200146d576200146c62000f81565b5b620014788262000f70565b9050602081019050919050565b82818337600083830152505050565b6000620014ab620014a5846200144f565b62000fe6565b905082815260208101848484011115620014ca57620014c96200144a565b5b620014d784828562001485565b509392505050565b600082601f830112620014f757620014f662001445565b5b81356200150984826020860162001494565b91505092915050565b600080604083850312156200152c576200152b62000f61565b5b600083013567ffffffffffffffff8111156200154d576200154c62000f66565b5b6200155b85828601620014df565b92505060206200156e858286016200108e565b9150509250929050565b60006020828403121562001591576200159062000f61565b5b6000620015a1848285016200108e565b91505092915050565b620015b5816200106a565b82525050565b6000602082019050620015d26000830184620015aa565b92915050565b600067ffffffffffffffff821115620015f657620015f562000f81565b5b602082029050602081019050919050565b600080fd5b6000620016236200161d84620015d8565b62000fe6565b9050808382526020820190506020840283018581111562001649576200164862001607565b5b835b818110156200167657806200166188826200108e565b8452602084019350506020810190506200164b565b5050509392505050565b600082601f83011262001698576200169762001445565b5b8135620016aa8482602086016200160c565b91505092915050565b600060208284031215620016cc57620016cb62000f61565b5b600082013567ffffffffffffffff811115620016ed57620016ec62000f66565b5b620016fb8482850162001680565b91505092915050565b6200170f816200106a565b82525050565b610160820160008201516200172e600085018262001338565b50602082015162001743602085018262001704565b50604082015162001758604085018262001704565b5060608201516200176d606085018262001704565b50608082015162001782608085018262001704565b5060a08201516200179760a085018262001704565b5060c0820151620017ac60c085018262001704565b5060e0820151620017c160e085018262001704565b50610100820151620017d861010085018262001704565b50610120820151620017ef61012085018262001704565b506101408201516200180661014085018262001704565b50505050565b60006101608201905062001824600083018462001715565b92915050565b600081905092915050565b60006200184282620011ff565b6200184e81856200182a565b9350620018608185602086016200121b565b80840191505092915050565b60006200187a828562001835565b915062001888828462001835565b91508190509392505050565b7f4e487b7100000000000000000000000000000000000000000000000000000000600052603260045260246000fd5b600082825260208201905092915050565b7f546872757374706164466169724c61756e6368466163746f72793a20496e737560008201527f6666696369656e74206665650000000000000000000000000000000000000000602082015250565b600062001932602c83620018c3565b91506200193f82620018d4565b604082019050919050565b60006020820190508181036000830152620019658162001923565b9050919050565b600060ff82169050919050565b62001984816200196c565b81146200199057600080fd5b50565b600081519050620019a48162001979565b92915050565b600060208284031215620019c357620019c262000f61565b5b6000620019d38482850162001993565b91505092915050565b7f546872757374706164466169724c61756e6368466163746f72793a20746f6b6560008201527f6e206d757374206861766520313820646563696d616c73000000000000000000602082015250565b600062001a3a603783620018c3565b915062001a4782620019dc565b604082019050919050565b6000602082019050818103600083015262001a6d8162001a2b565b9050919050565b7f546872757374706164466169724c61756e6368466163746f72793a207065726360008201527f656e7461676520666f72204c69717569646974792063616e6e6f74206265206c60208201527f657373207468616e203630000000000000000000000000000000000000000000604082015250565b600062001af8604b83620018c3565b915062001b058262001a74565b606082019050919050565b6000602082019050818103600083015262001b2b8162001ae9565b9050919050565b7f546872757374706164466169724c61756e6368466163746f72793a207065726360008201527f656e7461676520666f72205465616d2063616e6e6f74206265206c657373207460208201527f68616e2034300000000000000000000000000000000000000000000000000000604082015250565b600062001bb6604683620018c3565b915062001bc38262001b32565b606082019050919050565b6000602082019050818103600083015262001be98162001ba7565b9050919050565b7f4e487b7100000000000000000000000000000000000000000000000000000000600052601160045260246000fd5b600062001c2c826200106a565b915062001c39836200106a565b925082820190508082111562001c545762001c5362001bf0565b5b92915050565b7f546872757374706164466169724c61756e6368466163746f72793a207065726360008201527f656e7461676520666f72204c6971756964697479202b2070657263656e74616760208201527f6520666f72205465616d206d75737420626520657175616c20746f2031303000604082015250565b600062001cde605f83620018c3565b915062001ceb8262001c5a565b606082019050919050565b6000602082019050818103600083015262001d118162001ccf565b9050919050565b7f4e487b7100000000000000000000000000000000000000000000000000000000600052601260045260246000fd5b7f546872757374706164466169724c61756e6368466163746f72793a20736f667460008201527f436170206d7573742062652067726561746572207468616e206f72206571756160208201527f6c20746f20323525206f66206861726443617000000000000000000000000000604082015250565b600062001dcb605383620018c3565b915062001dd88262001d47565b606082019050919050565b6000602082019050818103600083015262001dfe8162001dbc565b9050919050565b600060608201905062001e1c6000830186620012ac565b62001e2b6020830185620012ac565b62001e3a6040830184620015aa565b949350505050565b60008115159050919050565b62001e598162001e42565b811462001e6557600080fd5b50565b60008151905062001e798162001e4e565b92915050565b60006020828403121562001e985762001e9762000f61565b5b600062001ea88482850162001e68565b91505092915050565b60008151905062001ec28162001074565b92915050565b60006020828403121562001ee15762001ee062000f61565b5b600062001ef18482850162001eb1565b91505092915050565b600060408201905062001f116000830185620012ac565b62001f206020830184620015aa565b9392505050565b60007fff0000000000000000000000000000000000000000000000000000000000000082169050919050565b6000819050919050565b62001f7262001f6c8262001f27565b62001f53565b82525050565b60008160601b9050919050565b600062001f928262001f78565b9050919050565b600062001fa68262001f85565b9050919050565b62001fc262001fbc8262001025565b62001f99565b82525050565b6000819050919050565b62001fe762001fe1826200106a565b62001fc8565b82525050565b6000819050919050565b6000819050919050565b62002016620020108262001fed565b62001ff7565b82525050565b60006200202a828762001f5d565b6001820191506200203c828662001fad565b6014820191506200204e828562001fd2565b60208201915062002060828462002001565b6020820191508190509594505050505056fe6080604052731ccc7382d46313c24e1d13510b1c9445a792f4d4601260006101000a81548173ffffffffffffffffffffffffffffffffffffffff021916908373ffffffffffffffffffffffffffffffffffffffff16021790555073b97582dcb6f2866098ca210095a04df3e11b76a6601360006101000a81548173ffffffffffffffffffffffffffffffffffffffff021916908373ffffffffffffffffffffffffffffffffffffffff1602179055507383e46e6e193b284d26f7a4b7d865b65952a50bf2601460006101000a81548173ffffffffffffffffffffffffffffffffffffffff021916908373ffffffffffffffffffffffffffffffffffffffff1602179055503480156200011057600080fd5b5060405162003367380380620033678339818101604052810190620001369190620005b4565b32600073ffffffffffffffffffffffffffffffffffffffff168173ffffffffffffffffffffffffffffffffffffffff1603620001ac5760006040517f1e4fbdf7000000000000000000000000000000000000000000000000000000008152600401620001a39190620005f8565b60405180910390fd5b620001bd816200028060201b60201c565b506001808190555080600260008201518160000160006101000a81548173ffffffffffffffffffffffffffffffffffffffff021916908373ffffffffffffffffffffffffffffffffffffffff1602179055506020820151816001015560408201518160020155606082015181600301556080820151816004015560a0820151816005015560c0820151816006015560e082015181600701556101008201518160080155610120820151816009015561014082015181600a01559050505062000615565b60008060009054906101000a900473ffffffffffffffffffffffffffffffffffffffff169050816000806101000a81548173ffffffffffffffffffffffffffffffffffffffff021916908373ffffffffffffffffffffffffffffffffffffffff1602179055508173ffffffffffffffffffffffffffffffffffffffff168173ffffffffffffffffffffffffffffffffffffffff167f8be0079c531659141344cd1fd0a4f28419497f9722a3daafe3b4186f6b6457e060405160405180910390a35050565b6000604051905090565b600080fd5b600080fd5b6000601f19601f8301169050919050565b7f4e487b7100000000000000000000000000000000000000000000000000000000600052604160045260246000fd5b620003a38262000358565b810181811067ffffffffffffffff82111715620003c557620003c462000369565b5b80604052505050565b6000620003da62000344565b9050620003e8828262000398565b919050565b600073ffffffffffffffffffffffffffffffffffffffff82169050919050565b60006200041a82620003ed565b9050919050565b6200042c816200040d565b81146200043857600080fd5b50565b6000815190506200044c8162000421565b92915050565b6000819050919050565b620004678162000452565b81146200047357600080fd5b50565b60008151905062000487816200045c565b92915050565b60006101608284031215620004a757620004a662000353565b5b620004b4610160620003ce565b90506000620004c6848285016200043b565b6000830152506020620004dc8482850162000476565b6020830152506040620004f28482850162000476565b6040830152506060620005088482850162000476565b60608301525060806200051e8482850162000476565b60808301525060a0620005348482850162000476565b60a08301525060c06200054a8482850162000476565b60c08301525060e0620005608482850162000476565b60e083015250610100620005778482850162000476565b610100830152506101206200058f8482850162000476565b61012083015250610140620005a78482850162000476565b6101408301525092915050565b60006101608284031215620005ce57620005cd6200034e565b5b6000620005de848285016200048d565b91505092915050565b620005f2816200040d565b82525050565b60006020820190506200060f6000830184620005e7565b92915050565b612d4280620006256000396000f3fe60806040526004361061012e5760003560e01c80639c5913cc116100ab578063c884ef831161006f578063c884ef831461032c578063d812195c14610369578063dbf0f3e214610392578063e45f2b8a146103bb578063f251fc8c146103f8578063f2fde38b1461042357610135565b80639c5913cc1461028c578063a4821719146102b7578063a86d60b8146102c1578063b5545a3c146102ea578063c3828bf01461030157610135565b8063715018a6116100f2578063715018a6146101d357806379502c55146101ea5780638da5cb5b1461021f5780639106d7ba1461024a578063953b7ef81461027557610135565b80632f3346521461013a57806338af6632146101655780634086bf891461017c57806348c54b9d146101935780636d4ed434146101aa57610135565b3661013557005b600080fd5b34801561014657600080fd5b5061014f61044c565b60405161015c9190611f7b565b60405180910390f35b34801561017157600080fd5b5061017a61045f565b005b34801561018857600080fd5b50610191610692565b005b34801561019f57600080fd5b506101a8610dfe565b005b3480156101b657600080fd5b506101d160048036038101906101cc9190611fc7565b611100565b005b3480156101df57600080fd5b506101e861116d565b005b3480156101f657600080fd5b506101ff611181565b6040516102169b9a9998979695949392919061204e565b60405180910390f35b34801561022b57600080fd5b506102346111e9565b60405161024191906120f9565b60405180910390f35b34801561025657600080fd5b5061025f611212565b60405161026c9190612114565b60405180910390f35b34801561028157600080fd5b5061028a611218565b005b34801561029857600080fd5b506102a1611422565b6040516102ae9190611f7b565b60405180910390f35b6102bf611435565b005b3480156102cd57600080fd5b506102e860048036038101906102e39190611fc7565b611750565b005b3480156102f657600080fd5b506102ff6117bd565b005b34801561030d57600080fd5b50610316611a3c565b60405161032391906120f9565b60405180910390f35b34801561033857600080fd5b50610353600480360381019061034e919061215b565b611a62565b6040516103609190612114565b60405180910390f35b34801561037557600080fd5b50610390600480360381019061038b91906121b4565b611a7a565b005b34801561039e57600080fd5b506103b960048036038101906103b491906121e1565b611b9c565b005b3480156103c757600080fd5b506103e260048036038101906103dd919061215b565b611cf7565b6040516103ef9190612114565b60405180910390f35b34801561040457600080fd5b5061040d611d0f565b60405161041a9190612114565b60405180910390f35b34801561042f57600080fd5b5061044a6004803603810190610445919061215b565b611d15565b005b600f60019054906101000a900460ff1681565b610467611d9b565b62278d006002600a015461047b9190612250565b4210156104bd576040517f08c379a00000000000000000000000000000000000000000000000000000000081526004016104b490612307565b60405180910390fd5b6000600f60029054906101000a900473ffffffffffffffffffffffffffffffffffffffff1673ffffffffffffffffffffffffffffffffffffffff166370a08231306040518263ffffffff1660e01b815260040161051a91906120f9565b602060405180830381865afa158015610537573d6000803e3d6000fd5b505050506040513d601f19601f8201168201806040525081019061055b919061233c565b9050600081111561068f57600f60029054906101000a900473ffffffffffffffffffffffffffffffffffffffff1673ffffffffffffffffffffffffffffffffffffffff1663a9059cbb33836040518363ffffffff1660e01b81526004016105c3929190612369565b6020604051808303816000875af11580156105e2573d6000803e3d6000fd5b505050506040513d601f19601f8201168201806040525081019061060691906123a7565b50600f60029054906101000a900473ffffffffffffffffffffffffffffffffffffffff1673ffffffffffffffffffffffffffffffffffffffff163373ffffffffffffffffffffffffffffffffffffffff167f4f2e1c4d34092405172a61f387073a9b61bfcbb54eceb1e96383d36e19b394a9836040516106869190612114565b60405180910390a35b50565b61069a611d9b565b6002600a01544210156106e2576040517f08c379a00000000000000000000000000000000000000000000000000000000081526004016106d990612446565b60405180910390fd5b600260010154600d54101561072c576040517f08c379a0000000000000000000000000000000000000000000000000000000008152600401610723906124d8565b60405180910390fd5b6000601360009054906101000a900473ffffffffffffffffffffffffffffffffffffffff1673ffffffffffffffffffffffffffffffffffffffff1663e6a43905600260000160009054906101000a900473ffffffffffffffffffffffffffffffffffffffff1660006040518363ffffffff1660e01b81526004016107b19291906124f8565b602060405180830381865afa1580156107ce573d6000803e3d6000fd5b505050506040513d601f19601f820116820180604052508101906107f29190612536565b9050600073ffffffffffffffffffffffffffffffffffffffff168173ffffffffffffffffffffffffffffffffffffffff160361093457601260009054906101000a900473ffffffffffffffffffffffffffffffffffffffff1673ffffffffffffffffffffffffffffffffffffffff1663171223dd73ffffffffffffffffffffffffffffffffffffffff60001b7feeeeeeeeeeeeeeeeeeeeeeeeeeeeeeeeeeeeeeeeeeeeeeeeeeeeeeeeeeeeeeee60001b166108d1600260000160009054906101000a900473ffffffffffffffffffffffffffffffffffffffff16611e22565b6040518363ffffffff1660e01b81526004016108ee92919061258e565b6020604051808303816000875af115801561090d573d6000803e3d6000fd5b505050506040513d601f19601f820116820180604052508101906109319190612536565b90505b80600f60026101000a81548173ffffffffffffffffffffffffffffffffffffffff021916908373ffffffffffffffffffffffffffffffffffffffff160217905550600260000160009054906101000a900473ffffffffffffffffffffffffffffffffffffffff1673ffffffffffffffffffffffffffffffffffffffff1663095ea7b3601360009054906101000a900473ffffffffffffffffffffffffffffffffffffffff167fffffffffffffffffffffffffffffffffffffffffffffffffffffffffffffffff6040518363ffffffff1660e01b8152600401610a17929190612369565b6020604051808303816000875af1158015610a36573d6000803e3d6000fd5b505050506040513d601f19601f82011682018060405250810190610a5a91906123a7565b5060006064600d54600260070154610a7291906125b7565b610a7c9190612628565b9050600060026004015482610a9191906125b7565b9050601360009054906101000a900473ffffffffffffffffffffffffffffffffffffffff1673ffffffffffffffffffffffffffffffffffffffff16635a47ddc383600260000160009054906101000a900473ffffffffffffffffffffffffffffffffffffffff166000808688600080307fffffffffffffffffffffffffffffffffffffffffffffffffffffffffffffffff6040518b63ffffffff1660e01b8152600401610b469998979695949392919061269e565b60606040518083038185885af1158015610b64573d6000803e3d6000fd5b50505050506040513d601f19601f82011682018060405250810190610b89919061272b565b5050506000600260000160009054906101000a900473ffffffffffffffffffffffffffffffffffffffff1673ffffffffffffffffffffffffffffffffffffffff166370a08231306040518263ffffffff1660e01b8152600401610bec91906120f9565b602060405180830381865afa158015610c09573d6000803e3d6000fd5b505050506040513d601f19601f82011682018060405250810190610c2d919061233c565b9050600260000160009054906101000a900473ffffffffffffffffffffffffffffffffffffffff1673ffffffffffffffffffffffffffffffffffffffff1663a9059cbb6000836040518363ffffffff1660e01b8152600401610c90929190612369565b6020604051808303816000875af1158015610caf573d6000803e3d6000fd5b505050506040513d601f19601f82011682018060405250810190610cd391906123a7565b5060008473ffffffffffffffffffffffffffffffffffffffff166370a08231306040518263ffffffff1660e01b8152600401610d0f91906120f9565b602060405180830381865afa158015610d2c573d6000803e3d6000fd5b505050506040513d601f19601f82011682018060405250810190610d50919061233c565b90506001600f60006101000a81548160ff021916908315150217905550600260000160009054906101000a900473ffffffffffffffffffffffffffffffffffffffff1673ffffffffffffffffffffffffffffffffffffffff168573ffffffffffffffffffffffffffffffffffffffff167f2be745126d540f8314c97b28a1687816ebc31358eb0259f21907ff16cd11eeb983604051610def9190612114565b60405180910390a35050505050565b610e06611e45565b6002600a0154421015610e4e576040517f08c379a0000000000000000000000000000000000000000000000000000000008152600401610e4590612446565b60405180910390fd5b600260010154600d541015610e98576040517f08c379a0000000000000000000000000000000000000000000000000000000008152600401610e8f906124d8565b60405180910390fd5b6000601160003373ffffffffffffffffffffffffffffffffffffffff1673ffffffffffffffffffffffffffffffffffffffff1681526020019081526020016000205414610f1a576040517f08c379a0000000000000000000000000000000000000000000000000000000008152600401610f11906127f0565b60405180910390fd5b60006002800154600260030154610f319190612628565b9050600081601060003373ffffffffffffffffffffffffffffffffffffffff1673ffffffffffffffffffffffffffffffffffffffff16815260200190815260200160002054610f8091906125b7565b905080601160003373ffffffffffffffffffffffffffffffffffffffff1673ffffffffffffffffffffffffffffffffffffffff16815260200190815260200160002081905550600260000160009054906101000a900473ffffffffffffffffffffffffffffffffffffffff1673ffffffffffffffffffffffffffffffffffffffff1663a9059cbb33836040518363ffffffff1660e01b8152600401611026929190612369565b6020604051808303816000875af1158015611045573d6000803e3d6000fd5b505050506040513d601f19601f8201168201806040525081019061106991906123a7565b50600260000160009054906101000a900473ffffffffffffffffffffffffffffffffffffffff1673ffffffffffffffffffffffffffffffffffffffff163373ffffffffffffffffffffffffffffffffffffffff167f4831bdd9dcf3048a28319ce81d3cab7a15366bcf449bc7803a539107440809cc836040516110ec9190612114565b60405180910390a350506110fe611e8b565b565b611108611d9b565b6002600a0154421015611150576040517f08c379a00000000000000000000000000000000000000000000000000000000081526004016111479061285c565b60405180910390fd5b80600f60166101000a81548160ff02191690831515021790555050565b611175611d9b565b61117f6000611e94565b565b60028060000160009054906101000a900473ffffffffffffffffffffffffffffffffffffffff169080600101549080600201549080600301549080600401549080600501549080600601549080600701549080600801549080600901549080600a015490508b565b60008060009054906101000a900473ffffffffffffffffffffffffffffffffffffffff16905090565b600d5481565b611220611d9b565b6002600a0154421015611268576040517f08c379a000000000000000000000000000000000000000000000000000000000815260040161125f90612446565b60405180910390fd5b600260010154600d5410156112b2576040517f08c379a00000000000000000000000000000000000000000000000000000000081526004016112a9906124d8565b60405180910390fd5b600f60019054906101000a900460ff1615611302576040517f08c379a00000000000000000000000000000000000000000000000000000000081526004016112f9906128ee565b60405180910390fd5b60006064600d5460026008015461131991906125b7565b6113239190612628565b90506001600f60016101000a81548160ff0219169083151502179055506113486111e9565b73ffffffffffffffffffffffffffffffffffffffff166108fc829081150290604051600060405180830381858888f1935050505015801561138d573d6000803e3d6000fd5b50600260000160009054906101000a900473ffffffffffffffffffffffffffffffffffffffff1673ffffffffffffffffffffffffffffffffffffffff166113d26111e9565b73ffffffffffffffffffffffffffffffffffffffff167fa95e69983c44f17474cba286953deb119463b9f5cb8cfde4fd709df3660266f7836040516114179190612114565b60405180910390a350565b600f60009054906101000a900460ff1681565b60026009015442101561147d576040517f08c379a000000000000000000000000000000000000000000000000000000000815260040161147490612980565b60405180910390fd5b6002600a01544211156114c5576040517f08c379a00000000000000000000000000000000000000000000000000000000081526004016114bc90612a12565b60405180910390fd5b60026005015434101561150d576040517f08c379a000000000000000000000000000000000000000000000000000000000815260040161150490612aa4565b60405180910390fd5b600260060154341115611555576040517f08c379a000000000000000000000000000000000000000000000000000000000815260040161154c90612b36565b60405180910390fd5b600280015434600d546115689190612250565b11156115a9576040517f08c379a00000000000000000000000000000000000000000000000000000000081526004016115a090612bc8565b60405180910390fd5b60026006015434601060003373ffffffffffffffffffffffffffffffffffffffff1673ffffffffffffffffffffffffffffffffffffffff168152602001908152602001600020546115fa9190612250565b111561163b576040517f08c379a000000000000000000000000000000000000000000000000000000000815260040161163290612c5a565b60405180910390fd5b34600d600082825461164d9190612250565b925050819055506001600e60008282546116679190612250565b9250508190555034601060003373ffffffffffffffffffffffffffffffffffffffff1673ffffffffffffffffffffffffffffffffffffffff16815260200190815260200160002060008282546116bd9190612250565b92505081905550600260000160009054906101000a900473ffffffffffffffffffffffffffffffffffffffff1673ffffffffffffffffffffffffffffffffffffffff163373ffffffffffffffffffffffffffffffffffffffff167f9b24bd0884170cbce51f9f00df6b3f9aed2231e4086241d1d04687b42afdf7b9346040516117469190612114565b60405180910390a3565b611758611d9b565b6002600a01544210156117a0576040517f08c379a00000000000000000000000000000000000000000000000000000000081526004016117979061285c565b60405180910390fd5b80600f60176101000a81548160ff02191690831515021790555050565b6117c5611e45565b6002600a015442101561180d576040517f08c379a000000000000000000000000000000000000000000000000000000000815260040161180490612446565b60405180910390fd5b600260010154600d5410611856576040517f08c379a000000000000000000000000000000000000000000000000000000000815260040161184d90612cec565b60405180910390fd5b6000601160003373ffffffffffffffffffffffffffffffffffffffff1673ffffffffffffffffffffffffffffffffffffffff16815260200190815260200160002054146118d8576040517f08c379a00000000000000000000000000000000000000000000000000000000081526004016118cf906127f0565b60405180910390fd5b6000601060003373ffffffffffffffffffffffffffffffffffffffff1673ffffffffffffffffffffffffffffffffffffffff16815260200190815260200160002054905080601160003373ffffffffffffffffffffffffffffffffffffffff1673ffffffffffffffffffffffffffffffffffffffff168152602001908152602001600020819055503373ffffffffffffffffffffffffffffffffffffffff166108fc829081150290604051600060405180830381858888f193505050501580156119a6573d6000803e3d6000fd5b50600260000160009054906101000a900473ffffffffffffffffffffffffffffffffffffffff1673ffffffffffffffffffffffffffffffffffffffff163373ffffffffffffffffffffffffffffffffffffffff167ff40cc8c1a1d17359049ba500cfc894596a692cffc9d03943cd92ec2e159cf6ae83604051611a299190612114565b60405180910390a350611a3a611e8b565b565b600f60029054906101000a900473ffffffffffffffffffffffffffffffffffffffff1681565b60116020528060005260406000206000915090505481565b6002600a0154421015611ac2576040517f08c379a0000000000000000000000000000000000000000000000000000000008152600401611ab99061285c565b60405180910390fd5b601460009054906101000a900473ffffffffffffffffffffffffffffffffffffffff1673ffffffffffffffffffffffffffffffffffffffff163373ffffffffffffffffffffffffffffffffffffffff1614611b52576040517f08c379a0000000000000000000000000000000000000000000000000000000008152600401611b499061285c565b60405180910390fd5b3373ffffffffffffffffffffffffffffffffffffffff166108fc829081150290604051600060405180830381858888f19350505050158015611b98573d6000803e3d6000fd5b5050565b6002600a0154421015611be4576040517f08c379a0000000000000000000000000000000000000000000000000000000008152600401611bdb9061285c565b60405180910390fd5b601460009054906101000a900473ffffffffffffffffffffffffffffffffffffffff1673ffffffffffffffffffffffffffffffffffffffff163373ffffffffffffffffffffffffffffffffffffffff1614611c74576040517f08c379a0000000000000000000000000000000000000000000000000000000008152600401611c6b9061285c565b60405180910390fd5b8173ffffffffffffffffffffffffffffffffffffffff1663a9059cbb33836040518363ffffffff1660e01b8152600401611caf929190612369565b6020604051808303816000875af1158015611cce573d6000803e3d6000fd5b505050506040513d601f19601f82011682018060405250810190611cf291906123a7565b505050565b60106020528060005260406000206000915090505481565b600e5481565b611d1d611d9b565b600073ffffffffffffffffffffffffffffffffffffffff168173ffffffffffffffffffffffffffffffffffffffff1603611d8f5760006040517f1e4fbdf7000000000000000000000000000000000000000000000000000000008152600401611d8691906120f9565b60405180910390fd5b611d9881611e94565b50565b611da3611f58565b73ffffffffffffffffffffffffffffffffffffffff16611dc16111e9565b73ffffffffffffffffffffffffffffffffffffffff1614611e2057611de4611f58565b6040517f118cdaa7000000000000000000000000000000000000000000000000000000008152600401611e1791906120f9565b60405180910390fd5b565b60008173ffffffffffffffffffffffffffffffffffffffff1660001b9050919050565b600260015403611e81576040517f3ee5aeb500000000000000000000000000000000000000000000000000000000815260040160405180910390fd5b6002600181905550565b60018081905550565b60008060009054906101000a900473ffffffffffffffffffffffffffffffffffffffff169050816000806101000a81548173ffffffffffffffffffffffffffffffffffffffff021916908373ffffffffffffffffffffffffffffffffffffffff1602179055508173ffffffffffffffffffffffffffffffffffffffff168173ffffffffffffffffffffffffffffffffffffffff167f8be0079c531659141344cd1fd0a4f28419497f9722a3daafe3b4186f6b6457e060405160405180910390a35050565b600033905090565b60008115159050919050565b611f7581611f60565b82525050565b6000602082019050611f906000830184611f6c565b92915050565b600080fd5b611fa481611f60565b8114611faf57600080fd5b50565b600081359050611fc181611f9b565b92915050565b600060208284031215611fdd57611fdc611f96565b5b6000611feb84828501611fb2565b91505092915050565b600073ffffffffffffffffffffffffffffffffffffffff82169050919050565b600061201f82611ff4565b9050919050565b61202f81612014565b82525050565b6000819050919050565b61204881612035565b82525050565b600061016082019050612064600083018e612026565b612071602083018d61203f565b61207e604083018c61203f565b61208b606083018b61203f565b612098608083018a61203f565b6120a560a083018961203f565b6120b260c083018861203f565b6120bf60e083018761203f565b6120cd61010083018661203f565b6120db61012083018561203f565b6120e961014083018461203f565b9c9b505050505050505050505050565b600060208201905061210e6000830184612026565b92915050565b6000602082019050612129600083018461203f565b92915050565b61213881612014565b811461214357600080fd5b50565b6000813590506121558161212f565b92915050565b60006020828403121561217157612170611f96565b5b600061217f84828501612146565b91505092915050565b61219181612035565b811461219c57600080fd5b50565b6000813590506121ae81612188565b92915050565b6000602082840312156121ca576121c9611f96565b5b60006121d88482850161219f565b91505092915050565b600080604083850312156121f8576121f7611f96565b5b600061220685828601612146565b92505060206122178582860161219f565b9150509250929050565b7f4e487b7100000000000000000000000000000000000000000000000000000000600052601160045260246000fd5b600061225b82612035565b915061226683612035565b925082820190508082111561227e5761227d612221565b5b92915050565b600082825260208201905092915050565b7f546872757374706164466169724c61756e63683a204c6f636b20706572696f6460008201527f206e6f74206f7665722079657400000000000000000000000000000000000000602082015250565b60006122f1602d83612284565b91506122fc82612295565b604082019050919050565b60006020820190508181036000830152612320816122e4565b9050919050565b60008151905061233681612188565b92915050565b60006020828403121561235257612351611f96565b5b600061236084828501612327565b91505092915050565b600060408201905061237e6000830185612026565b61238b602083018461203f565b9392505050565b6000815190506123a181611f9b565b92915050565b6000602082840312156123bd576123bc611f96565b5b60006123cb84828501612392565b91505092915050565b7f546872757374706164466169724c61756e63683a2073616c6520686173206e6f60008201527f7420656e64656420796574000000000000000000000000000000000000000000602082015250565b6000612430602b83612284565b915061243b826123d4565b604082019050919050565b6000602082019050818103600083015261245f81612423565b9050919050565b7f546872757374706164466169724c61756e63683a20736f667420636170206e6f60008201527f7420726561636865640000000000000000000000000000000000000000000000602082015250565b60006124c2602983612284565b91506124cd82612466565b604082019050919050565b600060208201905081810360008301526124f1816124b5565b9050919050565b600060408201905061250d6000830185612026565b61251a6020830184612026565b9392505050565b6000815190506125308161212f565b92915050565b60006020828403121561254c5761254b611f96565b5b600061255a84828501612521565b91505092915050565b6000819050919050565b600061257882612563565b9050919050565b6125888161256d565b82525050565b60006040820190506125a3600083018561257f565b6125b0602083018461257f565b9392505050565b60006125c282612035565b91506125cd83612035565b92508282026125db81612035565b915082820484148315176125f2576125f1612221565b5b5092915050565b7f4e487b7100000000000000000000000000000000000000000000000000000000600052601260045260246000fd5b600061263382612035565b915061263e83612035565b92508261264e5761264d6125f9565b5b828204905092915050565b6000819050919050565b6000819050919050565b600061268861268361267e84612659565b612663565b612035565b9050919050565b6126988161266d565b82525050565b6000610120820190506126b4600083018c612026565b6126c1602083018b612026565b6126ce604083018a611f6c565b6126db606083018961203f565b6126e8608083018861203f565b6126f560a083018761268f565b61270260c083018661268f565b61270f60e0830185612026565b61271d61010083018461203f565b9a9950505050505050505050565b60008060006060848603121561274457612743611f96565b5b600061275286828701612327565b935050602061276386828701612327565b925050604061277486828701612327565b9150509250925092565b7f546872757374706164466169724c61756e63683a20746f6b656e7320616c726560008201527f61647920636c61696d6564000000000000000000000000000000000000000000602082015250565b60006127da602b83612284565b91506127e58261277e565b604082019050919050565b60006020820190508181036000830152612809816127cd565b9050919050565b7f4e6f7420617574686f72697a6564000000000000000000000000000000000000600082015250565b6000612846600e83612284565b915061285182612810565b602082019050919050565b6000602082019050818103600083015261287581612839565b9050919050565b7f546872757374706164466169724c61756e63683a207465616d20746f6b656e7360008201527f20616c726561647920636c61696d656400000000000000000000000000000000602082015250565b60006128d8603083612284565b91506128e38261287c565b604082019050919050565b60006020820190508181036000830152612907816128cb565b9050919050565b7f546872757374706164466169724c61756e63683a2073616c6520686173206e6f60008201527f7420737461727465642079657400000000000000000000000000000000000000602082015250565b600061296a602d83612284565b91506129758261290e565b604082019050919050565b600060208201905081810360008301526129998161295d565b9050919050565b7f546872757374706164466169724c61756e63683a2073616c652068617320656e60008201527f6465640000000000000000000000000000000000000000000000000000000000602082015250565b60006129fc602383612284565b9150612a07826129a0565b604082019050919050565b60006020820190508181036000830152612a2b816129ef565b9050919050565b7f546872757374706164466169724c61756e63683a20616d6f756e74206973206c60008201527f657373207468616e206d696e696d756d20627579000000000000000000000000602082015250565b6000612a8e603483612284565b9150612a9982612a32565b604082019050919050565b60006020820190508181036000830152612abd81612a81565b9050919050565b7f546872757374706164466169724c61756e63683a20616d6f756e74206973206d60008201527f6f7265207468616e206d6178696d756d20627579000000000000000000000000602082015250565b6000612b20603483612284565b9150612b2b82612ac4565b604082019050919050565b60006020820190508181036000830152612b4f81612b13565b9050919050565b7f546872757374706164466169724c61756e63683a20686172642063617020726560008201527f6163686564000000000000000000000000000000000000000000000000000000602082015250565b6000612bb2602583612284565b9150612bbd82612b56565b604082019050919050565b60006020820190508181036000830152612be181612ba5565b9050919050565b7f546872757374706164466169724c61756e63683a2077616c6c6574206861732060008201527f72656163686564206d6178696d756d2062757900000000000000000000000000602082015250565b6000612c44603383612284565b9150612c4f82612be8565b604082019050919050565b60006020820190508181036000830152612c7381612c37565b9050919050565b7f546872757374706164466169724c61756e63683a20736f66742063617020726560008201527f6163686564000000000000000000000000000000000000000000000000000000602082015250565b6000612cd6602583612284565b9150612ce182612c7a565b604082019050919050565b60006020820190508181036000830152612d0581612cc9565b905091905056fea26469706673582212205fef2e7abbe282c6d68c0dc1b88d14d72b388e656c2c7c23c787d5931c03b23964736f6c63430008180033a2646970667358221220d38cc8eeb3efab277e04bcb7f2f56ea6088fceb61fac81415ef3fb685d1ab3e964736f6c63430008180033",
  "linkReferences": {},
  "deployedLinkReferences": {}
}