{
  "_format": "hh-sol-artifact-1",
  "contractName": "ThrustpadFairLaunchFactory",
  "sourceName": "contracts/fair-launch/ThrustpadFairLaunchFactory.sol",
  "abi": [
    {
      "inputs": [],
      "stateMutability": "nonpayable",
      "type": "constructor"
    },
    {
      "inputs": [
        {
          "internalType": "address",
          "name": "owner",
          "type": "address"
        }
      ],
      "name": "OwnableInvalidOwner",
      "type": "error"
    },
    {
      "inputs": [
        {
          "internalType": "address",
          "name": "account",
          "type": "address"
        }
      ],
      "name": "OwnableUnauthorizedAccount",
      "type": "error"
    },
    {
      "anonymous": false,
      "inputs": [
        {
          "indexed": true,
          "internalType": "address",
          "name": "creator",
          "type": "address"
        },
        {
          "indexed": true,
          "internalType": "address",
          "name": "launch",
          "type": "address"
        }
      ],
      "name": "NewFairLaunch",
      "type": "event"
    },
    {
      "anonymous": false,
      "inputs": [
        {
          "indexed": true,
          "internalType": "address",
          "name": "previousOwner",
          "type": "address"
        },
        {
          "indexed": true,
          "internalType": "address",
          "name": "newOwner",
          "type": "address"
        }
      ],
      "name": "OwnershipTransferred",
      "type": "event"
    },
    {
      "inputs": [
        {
          "internalType": "uint256",
          "name": "_amountForSale",
          "type": "uint256"
        },
        {
          "internalType": "uint256",
          "name": "_hardCap",
          "type": "uint256"
        },
        {
          "internalType": "uint8",
          "name": "_decimals",
          "type": "uint8"
        }
      ],
      "name": "calculateTokenSaleRate",
      "outputs": [
        {
          "internalType": "uint256",
          "name": "",
          "type": "uint256"
        }
      ],
      "stateMutability": "pure",
      "type": "function"
    },
    {
      "inputs": [
        {
          "internalType": "uint256",
          "name": "hardCap",
          "type": "uint256"
        },
        {
          "internalType": "uint256",
          "name": "saleAmount",
          "type": "uint256"
        },
        {
          "internalType": "uint256",
          "name": "percentageForLiquidity",
          "type": "uint256"
        },
        {
          "internalType": "uint256",
          "name": "listingRate",
          "type": "uint256"
        },
        {
          "internalType": "uint256",
          "name": "tokenDecimals",
          "type": "uint256"
        }
      ],
      "name": "calculateTotalTokensNeeded",
      "outputs": [
        {
          "internalType": "uint256",
          "name": "",
          "type": "uint256"
        }
      ],
      "stateMutability": "pure",
      "type": "function"
    },
    {
      "inputs": [
        {
          "internalType": "uint256",
          "name": "",
          "type": "uint256"
        }
      ],
      "name": "creationFees",
      "outputs": [
        {
          "internalType": "uint256",
          "name": "",
          "type": "uint256"
        }
      ],
      "stateMutability": "view",
      "type": "function"
    },
    {
      "inputs": [
        {
          "internalType": "address",
          "name": "",
          "type": "address"
        },
        {
          "internalType": "uint256",
          "name": "",
          "type": "uint256"
        }
      ],
      "name": "deployedLaunches",
      "outputs": [
        {
          "internalType": "address",
          "name": "",
          "type": "address"
        }
      ],
      "stateMutability": "view",
      "type": "function"
    },
    {
      "inputs": [],
      "name": "feeEarned",
      "outputs": [
        {
          "internalType": "uint256",
          "name": "",
          "type": "uint256"
        }
      ],
      "stateMutability": "view",
      "type": "function"
    },
    {
      "inputs": [
        {
          "internalType": "bytes",
          "name": "bytecode",
          "type": "bytes"
        },
        {
          "internalType": "uint256",
          "name": "salt",
          "type": "uint256"
        }
      ],
      "name": "getAddressCreate2",
      "outputs": [
        {
          "internalType": "address",
          "name": "",
          "type": "address"
        }
      ],
      "stateMutability": "view",
      "type": "function"
    },
    {
      "inputs": [
        {
          "components": [
            {
              "internalType": "address",
              "name": "token",
              "type": "address"
            },
            {
              "internalType": "uint256",
              "name": "softCap",
              "type": "uint256"
            },
            {
              "internalType": "uint256",
              "name": "hardCap",
              "type": "uint256"
            },
            {
              "internalType": "uint256",
              "name": "amountForSale",
              "type": "uint256"
            },
            {
              "internalType": "uint256",
              "name": "listingRate",
              "type": "uint256"
            },
            {
              "internalType": "uint256",
              "name": "minimumBuy",
              "type": "uint256"
            },
            {
              "internalType": "uint256",
              "name": "maximumBuy",
              "type": "uint256"
            },
            {
              "internalType": "uint256",
              "name": "percentageForLiquidity",
              "type": "uint256"
            },
            {
              "internalType": "uint256",
              "name": "percentageForTeam",
              "type": "uint256"
            },
            {
              "internalType": "uint256",
              "name": "startDate",
              "type": "uint256"
            },
            {
              "internalType": "uint256",
              "name": "endDate",
              "type": "uint256"
            }
          ],
          "internalType": "struct FairLaunchConfig",
          "name": "config",
          "type": "tuple"
        },
        {
          "internalType": "address",
          "name": "_owner",
          "type": "address"
        }
      ],
      "name": "getBytecode",
      "outputs": [
        {
          "internalType": "bytes",
          "name": "",
          "type": "bytes"
        }
      ],
      "stateMutability": "pure",
      "type": "function"
    },
    {
      "inputs": [],
      "name": "getCreationFees",
      "outputs": [
        {
          "internalType": "uint256[]",
          "name": "",
          "type": "uint256[]"
        }
      ],
      "stateMutability": "view",
      "type": "function"
    },
    {
      "inputs": [
        {
          "components": [
            {
              "internalType": "address",
              "name": "token",
              "type": "address"
            },
            {
              "internalType": "uint256",
              "name": "softCap",
              "type": "uint256"
            },
            {
              "internalType": "uint256",
              "name": "hardCap",
              "type": "uint256"
            },
            {
              "internalType": "uint256",
              "name": "amountForSale",
              "type": "uint256"
            },
            {
              "internalType": "uint256",
              "name": "listingRate",
              "type": "uint256"
            },
            {
              "internalType": "uint256",
              "name": "minimumBuy",
              "type": "uint256"
            },
            {
              "internalType": "uint256",
              "name": "maximumBuy",
              "type": "uint256"
            },
            {
              "internalType": "uint256",
              "name": "percentageForLiquidity",
              "type": "uint256"
            },
            {
              "internalType": "uint256",
              "name": "percentageForTeam",
              "type": "uint256"
            },
            {
              "internalType": "uint256",
              "name": "startDate",
              "type": "uint256"
            },
            {
              "internalType": "uint256",
              "name": "endDate",
              "type": "uint256"
            }
          ],
          "internalType": "struct FairLaunchConfig",
          "name": "config",
          "type": "tuple"
        }
      ],
      "name": "getTotalAmount",
      "outputs": [
        {
          "internalType": "uint256",
          "name": "",
          "type": "uint256"
        }
      ],
      "stateMutability": "pure",
      "type": "function"
    },
    {
      "inputs": [
        {
          "internalType": "address",
          "name": "creator",
          "type": "address"
        }
      ],
      "name": "getdeployedLaunches",
      "outputs": [
        {
          "internalType": "address[]",
          "name": "",
          "type": "address[]"
        }
      ],
      "stateMutability": "view",
      "type": "function"
    },
    {
      "inputs": [
        {
          "internalType": "address",
          "name": "creator",
          "type": "address"
        }
      ],
      "name": "getdeployedLaunchesLen",
      "outputs": [
        {
          "internalType": "uint256",
          "name": "",
          "type": "uint256"
        }
      ],
      "stateMutability": "view",
      "type": "function"
    },
    {
      "inputs": [
        {
          "components": [
            {
              "internalType": "address",
              "name": "token",
              "type": "address"
            },
            {
              "internalType": "uint256",
              "name": "softCap",
              "type": "uint256"
            },
            {
              "internalType": "uint256",
              "name": "hardCap",
              "type": "uint256"
            },
            {
              "internalType": "uint256",
              "name": "amountForSale",
              "type": "uint256"
            },
            {
              "internalType": "uint256",
              "name": "listingRate",
              "type": "uint256"
            },
            {
              "internalType": "uint256",
              "name": "minimumBuy",
              "type": "uint256"
            },
            {
              "internalType": "uint256",
              "name": "maximumBuy",
              "type": "uint256"
            },
            {
              "internalType": "uint256",
              "name": "percentageForLiquidity",
              "type": "uint256"
            },
            {
              "internalType": "uint256",
              "name": "percentageForTeam",
              "type": "uint256"
            },
            {
              "internalType": "uint256",
              "name": "startDate",
              "type": "uint256"
            },
            {
              "internalType": "uint256",
              "name": "endDate",
              "type": "uint256"
            }
          ],
          "internalType": "struct FairLaunchConfig",
          "name": "config",
          "type": "tuple"
        }
      ],
      "name": "newFairLaunch",
      "outputs": [
        {
          "internalType": "address",
          "name": "",
          "type": "address"
        }
      ],
      "stateMutability": "payable",
      "type": "function"
    },
    {
      "inputs": [],
      "name": "owner",
      "outputs": [
        {
          "internalType": "address",
          "name": "",
          "type": "address"
        }
      ],
      "stateMutability": "view",
      "type": "function"
    },
    {
      "inputs": [],
      "name": "renounceOwnership",
      "outputs": [],
      "stateMutability": "nonpayable",
      "type": "function"
    },
    {
      "inputs": [
        {
          "internalType": "address",
          "name": "newOwner",
          "type": "address"
        }
      ],
      "name": "transferOwnership",
      "outputs": [],
      "stateMutability": "nonpayable",
      "type": "function"
    },
    {
      "inputs": [
        {
          "internalType": "uint256[]",
          "name": "_fees",
          "type": "uint256[]"
        }
      ],
      "name": "upadateCreationFees",
      "outputs": [],
      "stateMutability": "nonpayable",
      "type": "function"
    },
    {
      "inputs": [],
      "name": "withdraw",
      "outputs": [],
      "stateMutability": "nonpayable",
      "type": "function"
    },
    {
      "inputs": [
        {
          "internalType": "address",
          "name": "token",
          "type": "address"
        }
      ],
      "name": "withdrawToken",
      "outputs": [],
      "stateMutability": "nonpayable",
      "type": "function"
    },
    {
      "stateMutability": "payable",
      "type": "receive"
    }
  ],
  "bytecode": "0x6080806040523461018157331561016b5760008054336001600160a01b0319821681178355604051916001600160a01b03167f8be0079c531659141344cd1fd0a4f28419497f9722a3daafe3b4186f6b6457e08480a3608081016001600160401b038111828210176101575760405266038d7ea4c6800081526020674563918244f400006020830152678ac7230489e80000604083015268015af1d78b58c400006060830152600254916004926004600255806004106100f7575b50906002845260208420935b8381106100dc57604051612be190816101878239f35b82516001600160481b031685820155918101916001016100c6565b600285527f405787fa12a823e0f2b7631cc41b3ba8828b3321ca811111fa75cd3aa3bb5ace017f405787fa12a823e0f2b7631cc41b3ba8828b3321ca811111fa75cd3aa3bb5ad25b81811061014c57506100ba565b85815560010161013f565b634e487b7160e01b83526041600452602483fd5b631e4fbdf760e01b815260006004820152602490fd5b600080fdfe6040608081526004908136101562000022575b505036156200002057600080fd5b005b600091823560e01c80633683bdcf146200107057806339354c601462000b195780633ccfd60b1462000ac257806342bca1201462000a875780634455a34314620009ce578063555a1a7b146200098157806357ad39221462000921578063715018a614620008b75780638947606914620007645780638da5cb5b146200073c5780639f886f261462000623578063b6e1527414620005d3578063bd9788331462000518578063c8527f4714620003a1578063ca3df80e146200021e578063d5f63a0614620001fd578063e5e868ab14620001be5763f2fde38b1462000108575062000012565b34620001ba576020366003190112620001ba57620001256200110c565b90620001306200130b565b6001600160a01b038092169283156200018b57505082548273ffffffffffffffffffffffffffffffffffffffff198216178455167f8be0079c531659141344cd1fd0a4f28419497f9722a3daafe3b4186f6b6457e08380a380f35b908460249251917f1e4fbdf7000000000000000000000000000000000000000000000000000000008352820152fd5b8280fd5b505034620001f9576020366003190112620001f957806020926001600160a01b03620001e96200110c565b1681526001845220549051908152f35b5080fd5b505034620001f95781600319360112620001f9576020906003549051908152f35b509034620001ba57602090816003193601126200039d5767ffffffffffffffff9280358481116200039957366023820112156200039957808201359085821162000386578160051b9351916200027786860184620010d3565b8252848201602481958301019136831162000382576024879101915b838310620003715750505050620002a96200130b565b519384116200035e576801000000000000000084116200035e5750600254836002558084106200031b575b509060028452835b838110620002e8578480f35b82517f405787fa12a823e0f2b7631cc41b3ba8828b3321ca811111fa75cd3aa3bb5ace82015591810191600101620002dc565b837f405787fa12a823e0f2b7631cc41b3ba8828b3321ca811111fa75cd3aa3bb5ace91820191015b818110620003525750620002d4565b85815560010162000343565b846041602492634e487b7160e01b835252fd5b823581529181019187910162000293565b8880fd5b602487604185634e487b7160e01b835252fd5b8580fd5b8380fd5b505034620001f957610180366003190112620001f957620003c23662001128565b61016435926001600160a01b0384168403620005155750620004a3601f620004e192620004ee61185b9160209788918851916200040284870184620010d3565b858352838301956200135187398951978891858301938490610160909392936101808301946001600160a01b03918281511685526020810151602086015260408101516040860152606081015160608601526080810151608086015260a081015160a086015260c081015160c086015260e081015160e086015261010080820151908601526101208082015190860152610140809101519085015216910152565b0396620004b8871998898101835282620010d3565b8951988993620004d186860198899251928391620011f3565b84019151809386840190620011f3565b01038087520185620010d3565b6200050c8551968795818752519283809288015287870190620011f3565b01168101030190f35b80fd5b82843462000515578060031936011262000515579080519182906002549182855260208095018093600284527f405787fa12a823e0f2b7631cc41b3ba8828b3321ca811111fa75cd3aa3bb5ace90845b818110620005be575050508162000581910382620010d3565b83519485948186019282875251809352850193925b828110620005a657505050500390f35b83518552869550938101939281019260010162000596565b82548452928801926001928301920162000568565b5034620001ba576020366003190112620001ba5735600254811015620001ba576002602093527f405787fa12a823e0f2b7631cc41b3ba8828b3321ca811111fa75cd3aa3bb5ace01549051908152f35b50919034620001f95780600319360112620001f95767ffffffffffffffff918335838111620001f95736602382011215620001f9578085013584811162000729578351906200067d601f8201601f191660200183620010d3565b8082526020820192366024838301011162000725578185926024602093018637830101525190209180519160208301937fff0000000000000000000000000000000000000000000000000000000000000085523060601b602185015260243560358501526055840152605583526080830194838610908611176200071257848252825184206001600160a01b03168552602085f35b80604187634e487b7160e01b6024945252fd5b8480fd5b602483604188634e487b7160e01b835252fd5b505034620001f95781600319360112620001f9576001600160a01b0360209254169051908152f35b5034620001ba57602091826003193601126200039d57620007846200110c565b916200078f6200130b565b6001600160a01b038093169285541690858351947f70a0823100000000000000000000000000000000000000000000000000000000865230838701528686602481845afa958615620008ad57908291889594939762000871575b509060449291865197889586947fa9059cbb00000000000000000000000000000000000000000000000000000000865285015260248401525af190811562000868575062000835578280f35b816200085992903d1062000860575b620008508183620010d3565b81019062001271565b5038808280f35b503d62000844565b513d85823e3d90fd5b85819493969298503d8311620008a5575b6200088e8183620010d3565b810103126200039d579051948693906044620007e9565b503d62000882565b85513d84823e3d90fd5b83346200051557806003193601126200051557620008d46200130b565b806001600160a01b03815473ffffffffffffffffffffffffffffffffffffffff1981168355167f8be0079c531659141344cd1fd0a4f28419497f9722a3daafe3b4186f6b6457e08280a380f35b505034620001f95780600319360112620001f9576200093f6200110c565b602435926001600160a01b03809216815260016020528281209081548510156200051557506020936200097291620011c4565b92905490519260031b1c168152f35b505034620001f957610160366003190112620001f957602090620009a53662001128565b68056bc75e2d63100000606082015191608060e082015185830151029101510204019051908152f35b505034620001f9576020918260031936011262000515576001600160a01b039081620009f96200110c565b1681526001916001855283822094845191828288549182815201908198865283862090865b81811062000a71575050508362000a37910384620010d3565b855195828701938388525180945286019693905b83821062000a595786880387f35b84518116885296820196938201939085019062000a4b565b8254851684529285019291880191880162000a1e565b509134620005155760a036600319011262000515575062000abb60209260843590606435906044359060243590356200129a565b9051908152f35b505034620001f95781600319360112620001f95762000ae06200130b565b818080806001600160a01b03815416479082821562000b0f575bf11562000b05575080f35b51903d90823e3d90fd5b506108fc62000afa565b509190610160366003190112620001f95762000b353662001128565b90600254156200105d57600283527f405787fa12a823e0f2b7631cc41b3ba8828b3321ca811111fa75cd3aa3bb5ace54341062000ff55760e0820193603c85511062000f67576101008301602881511162000ed85762000b9c606491875190519062001263565b0362000e4a5781830151606084015195519060808501516001600160a01b039283875116988651809a7f313ce567000000000000000000000000000000000000000000000000000000008252818860209d8e935afa90811562000e40578a9162000dfd575b509060ff62000c159594939216936200129a565b903386526001875283862054845161185b8082019082821067ffffffffffffffff83111762000dea57829162000ccd9162001351843989516001600160a01b031681526020808b0151908201526040808b0151908201526060808b0151908201526080808b01519082015260a0808b01519082015260c0808b01519082015260e0808b015190820152610100808b015190820152610120808b015190820152610140808b015190820152336101608201526101800190565b039088f5801562000de057811694338752600188528487208054906801000000000000000082101562000dcd579162000d128260649460018d989795018155620011c4565b81549060031b90848b831b921b191617905551169387865195869485937f23b872dd000000000000000000000000000000000000000000000000000000008552339085015289602485015260448401525af1801562000dc3579083929162000da1575b5051927f3e898072f60c1097ffd1556ec02786c3af00b0f9a3c971db360f7539abeb6d21339180a38152f35b62000dbb90863d88116200086057620008508183620010d3565b503862000d75565b82513d86823e3d90fd5b602489604188634e487b7160e01b835252fd5b84513d88823e3d90fd5b60248a604189634e487b7160e01b835252fd5b90508a81813d831162000e38575b62000e178183620010d3565b8101031262000e34575160ff8116810362000e345760ff62000c01565b8980fd5b503d62000e0b565b88513d8c823e3d90fd5b602060a492519162461bcd60e51b8352820152605f60248201527f546872757374706164466169724c61756e6368466163746f72793a207065726360448201527f656e7461676520666f72204c6971756964697479202b2070657263656e74616760648201527f6520666f72205465616d206d75737420626520657175616c20746f20313030006084820152fd5b50602060a492519162461bcd60e51b8352820152604660248201527f546872757374706164466169724c61756e6368466163746f72793a207065726360448201527f656e7461676520666f72205465616d2063616e6e6f74206265206c657373207460648201527f68616e20343000000000000000000000000000000000000000000000000000006084820152fd5b602060a492519162461bcd60e51b8352820152604b60248201527f546872757374706164466169724c61756e6368466163746f72793a207065726360448201527f656e7461676520666f72204c69717569646974792063616e6e6f74206265206c60648201527f657373207468616e2036300000000000000000000000000000000000000000006084820152fd5b5162461bcd60e51b8152602081850152602c60248201527f546872757374706164466169724c61756e6368466163746f72793a20496e737560448201527f6666696369656e742066656500000000000000000000000000000000000000006064820152608490fd5b602483603286634e487b7160e01b835252fd5b50913462000515576060366003190112620005155760443560ff8116809103620001f957620010a3602435853562001218565b91604d8211620010c05760208462000abb8585600a0a9062001239565b80601186634e487b7160e01b6024945252fd5b90601f8019910116810190811067ffffffffffffffff821117620010f657604052565b634e487b7160e01b600052604160045260246000fd5b600435906001600160a01b03821682036200112357565b600080fd5b9061016080926003190112620011235760405191820182811067ffffffffffffffff821117620010f657604052816004356001600160a01b038116810362001123578152602435602082015260443560408201526064356060820152608435608082015260a43560a082015260c43560c082015260e43560e0820152610104356101008201526101243561012082015261014061014435910152565b8054821015620011dd5760005260206000200190600090565b634e487b7160e01b600052603260045260246000fd5b60005b838110620012075750506000910152565b8181015183820152602001620011f6565b811562001223570490565b634e487b7160e01b600052601260045260246000fd5b818102929181159184041417156200124d57565b634e487b7160e01b600052601160045260246000fd5b919082018092116200124d57565b908160209103126200112357518015158103620011235790565b604d81116200124d57600a0a90565b620012ad90620012b39394929462001239565b62001239565b82601201806012116200124d57620012cb906200128b565b92836064029360648504036200124d57620012fa620012f36200130895620013019462001218565b916200128b565b9062001239565b9062001263565b90565b6001600160a01b036000541633036200132057565b60246040517f118cdaa7000000000000000000000000000000000000000000000000000000008152336004820152fdfe6080346200022057601f6200185b38819003918201601f1916830192916001600160401b039190828511848610176200020a578084926040968752833981010392610180841262000220576101608094126200022057805191848301908111838210176200020a578152620000748362000225565b82526020830151602083019081528184015182840190815260608501516060850190815260808601516080860190815260a08701519160a0870192835260c08801519360c0880194855260e08901519560e0890196875261010097888b0151988a01988952610120998a8c01519a81019a8b526101409b8c8101519c82019c8d526200010a60018060a01b039e8f920162000225565b168015620001f257600080546001600160a01b03198082168417835594519f939291908416907f8be0079c531659141344cd1fd0a4f28419497f9722a3daafe3b4186f6b6457e09080a36001805573a12ffa65079f3cf91b93fe059099e447c88cc9e98360125416176012557374713db9d9cc38a7120b9da60f582c1861bc1c8a8360135416176013557383e46e6e193b284d26f7a4b7d865b65952a50bf283601454161760145551169060025416176002555160035551600455516005555160065551600755516008555160095551600a5551600b5551600c5561162090816200023b8239f35b8251631e4fbdf760e01b815260006004820152602490fd5b634e487b7160e01b600052604160045260246000fd5b600080fd5b51906001600160a01b0382168203620002205756fe60806040818152600480361015610021575b505050361561001f57600080fd5b005b600092833560e01c9081632f334652146112e95750806338af66321461112b5780634086bf8914610cc057806348c54b9d14610b7d5780636d4ed43414610aff578063715018a614610a9657806379502c5514610a175780638da5cb5b146109f15780639106d7ba146109d2578063953b7ef81461089a5780639c5913cc14610876578063a482171914610535578063a86d60b8146104b6578063b5545a3c1461039c578063c3828bf014610371578063c884ef831461033a57838163d812195c146102d657508063dbf0f3e21461021c578063e45f2b8a146101e5578063f251fc8c146101c25763f2fde38b0361001157346101be5760203660031901126101be5761012c61130d565b9061013561156b565b6001600160a01b0380921692831561018f57505082548273ffffffffffffffffffffffffffffffffffffffff198216178455167f8be0079c531659141344cd1fd0a4f28419497f9722a3daafe3b4186f6b6457e08380a380f35b908460249251917f1e4fbdf7000000000000000000000000000000000000000000000000000000008352820152fd5b8280fd5b5050346101e157816003193601126101e157602090600e549051908152f35b5080fd5b5050346101e15760203660031901126101e157806020926001600160a01b0361020c61130d565b1681526010845220549051908152f35b5090346101be57806003193601126101be57602061028c61023b61130d565b610249600c54421015611520565b6001600160a01b039461026186601454163314611520565b845163a9059cbb60e01b81523391810191825260243560208301529586938492899291849160400190565b0393165af19081156102cd57506102a1575080f35b6102c29060203d6020116102c6575b6102ba818361134b565b810190611383565b5080f35b503d6102b0565b513d84823e3d90fd5b919050346101e15760203660031901126101e15781808092356102fd600c54421015611520565b6103136001600160a01b03601454163314611520565b818115610331575b3390f115610327575080f35b51903d90823e3d90fd5b506108fc61031b565b5050346101e15760203660031901126101e157806020926001600160a01b0361036161130d565b1681526011845220549051908152f35b5050346101e157816003193601126101e1576020906001600160a01b03600f5460101c169051908152f35b50346101be57826003193601126101be576103b56115af565b6103c3600c5442101561139b565b600d546003541115610466575033825260116020526103e581832054156114af565b33825260106020528082205460116020528082842055828082801561045c575b8280929181923390f115610451576001600160a01b036002541691519081527ff40cc8c1a1d17359049ba500cfc894596a692cffc9d03943cd92ec2e159cf6ae60203392a36001805580f35b5051903d90823e3d90fd5b6108fc9150610405565b6020608492519162461bcd60e51b8352820152602560248201527f546872757374706164466169724c61756e63683a20736f6674206361702072656044820152641858da195960da1b6064820152fd5b8382346101e15760203660031901126101e157358015158091036101e1576104dc61156b565b6104ea600c54421015611520565b7fffffffffffffffff00ffffffffffffffffffffffffffffffffffffffffffffff77ff0000000000000000000000000000000000000000000000600f549260b81b16911617600f5580f35b50826003193601126101be57600b54421061080e57600c5442116107a657600754341061073e576008548034116106d557600d54906105743483611328565b8354106106845733855260106020526105903485872054611328565b1161061b576105a0903490611328565b600d55600e5490600182018092116106085750600e5533825260106020528082206105cc348254611328565b90556001600160a01b036002541690513481527f9b24bd0884170cbce51f9f00df6b3f9aed2231e4086241d1d04687b42afdf7b960203392a380f35b836011602492634e487b7160e01b835252fd5b506020608492519162461bcd60e51b8352820152603360248201527f546872757374706164466169724c61756e63683a2077616c6c6574206861732060448201527f72656163686564206d6178696d756d20627579000000000000000000000000006064820152fd5b608483602086519162461bcd60e51b8352820152602560248201527f546872757374706164466169724c61756e63683a2068617264206361702072656044820152641858da195960da1b6064820152fd5b506020608492519162461bcd60e51b8352820152603460248201527f546872757374706164466169724c61756e63683a20616d6f756e74206973206d60448201527f6f7265207468616e206d6178696d756d206275790000000000000000000000006064820152fd5b6020608492519162461bcd60e51b8352820152603460248201527f546872757374706164466169724c61756e63683a20616d6f756e74206973206c60448201527f657373207468616e206d696e696d756d206275790000000000000000000000006064820152fd5b6020608492519162461bcd60e51b8352820152602360248201527f546872757374706164466169724c61756e63683a2073616c652068617320656e60448201527f64656400000000000000000000000000000000000000000000000000000000006064820152fd5b6020608492519162461bcd60e51b8352820152602d60248201527f546872757374706164466169724c61756e63683a2073616c6520686173206e6f60448201527f74207374617274656420796574000000000000000000000000000000000000006064820152fd5b5050346101e157816003193601126101e15760209060ff600f541690519015158152f35b50346101be57826003193601126101be576108b361156b565b6108c1600c5442101561139b565b600d546108d260035482101561140c565b600f549160ff8360081c16610969575060646108f361010092600a5461149c565b049161ff00191617600f556001600160a01b0390838080808486825416828215610960575bf1156109545760207fa95e69983c44f17474cba286953deb119463b9f5cb8cfde4fd709df3660266f7918386541693600254169451908152a380f35b505051903d90823e3d90fd5b506108fc610918565b608490602085519162461bcd60e51b8352820152603060248201527f546872757374706164466169724c61756e63683a207465616d20746f6b656e7360448201527f20616c726561647920636c61696d6564000000000000000000000000000000006064820152fd5b5050346101e157816003193601126101e157602090600d549051908152f35b5050346101e157816003193601126101e1576001600160a01b0360209254169051908152f35b50346101be57826003193601126101be5761016092506001600160a01b03600254169160035491546005546006546007546008549160095493600a5495600b5497600c549981519b8c5260208c01528a01526060890152608088015260a087015260c086015260e0850152610100840152610120830152610140820152f35b8334610afc5780600319360112610afc57610aaf61156b565b806001600160a01b03815473ffffffffffffffffffffffffffffffffffffffff1981168355167f8be0079c531659141344cd1fd0a4f28419497f9722a3daafe3b4186f6b6457e08280a380f35b80fd5b8382346101e15760203660031901126101e157358015158091036101e157610b2561156b565b610b33600c54421015611520565b7fffffffffffffffffff00ffffffffffffffffffffffffffffffffffffffffffff76ff00000000000000000000000000000000000000000000600f549260b01b16911617600f5580f35b50346101be57826003193601126101be57610b966115af565b610ba4600c5442101561139b565b610bb4600d54600354111561140c565b338352602060118152610bca83852054156114af565b6005548254908115610cad57610c409291610bf09133885260108452048587205461149c565b9233865260118252838587205581846001600160a01b039283600254169089895180988195829463a9059cbb60e01b845233908401602090939291936001600160a01b0360408201951681520152565b03925af1928315610ca3577f4831bdd9dcf3048a28319ce81d3cab7a15366bcf449bc7803a539107440809cc93610c86575b506002541693519283523392a36001805580f35b610c9c90833d85116102c6576102ba818361134b565b5038610c72565b85513d88823e3d90fd5b602486601286634e487b7160e01b835252fd5b50346101be57826003193601126101be57610cd961156b565b610ce7600c5442101561139b565b610cf7600d54600354111561140c565b6001600160a01b03908160135416918060025416908585519485937fe6a439050000000000000000000000000000000000000000000000000000000085528086860152602491838387015285604460209788935afa96871561103757839761110c575b5083871615611068575b50828616957fffffffffffffffffffff0000000000000000000000000000000000000000ffff75ffffffffffffffffffffffffffffffffffffffff0000600f549260101b16911617600f55826002541683601354168851907f095ea7b3000000000000000000000000000000000000000000000000000000008252878201528581604481876000199687898401525af1801561105e57611041575b50606088610124886064610e18600954600d549061149c565b04610e256006548261149c565b958960135416908a60025416955197889687957f5a47ddc30000000000000000000000000000000000000000000000000000000087528601528a8a8601528a604486015260648501528260848501528960a48501528960c48501523060e48501526101048401525af180156110375761100c575b5082600254169087516370a0823160e01b92838252308883015286828481845afa80156110025787928691610fcd575b506044908b51968793849263a9059cbb60e01b8452828d850152878401525af1928315610fc3578593610fa6575b5087519586928352309083015281875afa908115610ca3578691610f53575b7f2be745126d540f8314c97b28a1687816ebc31358eb0259f21907ff16cd11eeb99350600160ff19600f541617600f55600254169451908152a380f35b90508183813d8311610f9f575b610f6a818361134b565b81010312610f9b577f2be745126d540f8314c97b28a1687816ebc31358eb0259f21907ff16cd11eeb9925190610f16565b8580fd5b503d610f60565b610fbc90843d86116102c6576102ba818361134b565b5038610ef7565b88513d8b823e3d90fd5b83819492503d8311610ffb575b610fe4818361134b565b81010312610ff757604487925190610ec9565b8480fd5b503d610fda565b8a513d87823e3d90fd5b606090813d8311611030575b611022818361134b565b810103126101e15738610e99565b503d611018565b88513d85823e3d90fd5b61105790863d88116102c6576102ba818361134b565b5038610dff565b89513d86823e3d90fd5b82919650849060448560125416918a5194859384927f171223dd00000000000000000000000000000000000000000000000000000000845273eeeeeeeeeeeeeeeeeeeeeeeeeeeeeeeeeeeeeeee8c8501528c8401525af19081156111025782916110d5575b509438610d64565b6110f59150843d86116110fb575b6110ed818361134b565b81019061147d565b386110cd565b503d6110e3565b87513d84823e3d90fd5b611124919750853d87116110fb576110ed818361134b565b9538610d5a565b50346101be57826003193601126101be5761114461156b565b600c5462278d0081018091116112d657421061126e576001600160a01b039081600f5460101c168351926370a0823160e01b845230838501526020918285602481845afa948515611264578795611231575b50846111a0578680f35b855163a9059cbb60e01b81523394810194855260208501869052938391859182908a90829060400103925af1928315610ca3577f4f2e1c4d34092405172a61f387073a9b61bfcbb54eceb1e96383d36e19b394a993611214575b50600f5460101c1693519283523392a33880808080808680f35b61122a90833d85116102c6576102ba818361134b565b50386111fa565b9094508281813d831161125d575b611249818361134b565b8101031261125957519338611196565b8680fd5b503d61123f565b86513d89823e3d90fd5b6020608492519162461bcd60e51b8352820152602d60248201527f546872757374706164466169724c61756e63683a204c6f636b20706572696f6460448201527f206e6f74206f76657220796574000000000000000000000000000000000000006064820152fd5b602484601184634e487b7160e01b835252fd5b8490346101e157816003193601126101e15760209060ff600f5460081c1615158152f35b600435906001600160a01b038216820361132357565b600080fd5b9190820180921161133557565b634e487b7160e01b600052601160045260246000fd5b90601f8019910116810190811067ffffffffffffffff82111761136d57604052565b634e487b7160e01b600052604160045260246000fd5b90816020910312611323575180151581036113235790565b156113a257565b608460405162461bcd60e51b815260206004820152602b60248201527f546872757374706164466169724c61756e63683a2073616c6520686173206e6f60448201527f7420656e646564207965740000000000000000000000000000000000000000006064820152fd5b1561141357565b608460405162461bcd60e51b815260206004820152602960248201527f546872757374706164466169724c61756e63683a20736f667420636170206e6f60448201527f74207265616368656400000000000000000000000000000000000000000000006064820152fd5b9081602091031261132357516001600160a01b03811681036113235790565b8181029291811591840414171561133557565b156114b657565b608460405162461bcd60e51b815260206004820152602b60248201527f546872757374706164466169724c61756e63683a20746f6b656e7320616c726560448201527f61647920636c61696d65640000000000000000000000000000000000000000006064820152fd5b1561152757565b606460405162461bcd60e51b815260206004820152600e60248201527f4e6f7420617574686f72697a65640000000000000000000000000000000000006044820152fd5b6001600160a01b0360005416330361157f57565b60246040517f118cdaa7000000000000000000000000000000000000000000000000000000008152336004820152fd5b6002600154146115c0576002600155565b60046040517f3ee5aeb5000000000000000000000000000000000000000000000000000000008152fdfea26469706673582212204c8d52dfabbd8975adcf2608ba18d87ed23552b653f1cf9db6e5d90bee6a081f64736f6c63430008180033a264697066735822122037b8a67b933ac93712ef99b64f31c1f03e902a030ada5ca6addc6445481da6f764736f6c63430008180033",
  "linkReferences": {},
  "deployedLinkReferences": {}
}