{
  "_format": "hh-sol-artifact-1",
  "contractName": "ThrustpadFairLaunchFactory",
  "sourceName": "contracts/fair-launch/ThrustpadFairLaunchFactory.sol",
  "abi": [
    {
      "inputs": [],
      "stateMutability": "nonpayable",
      "type": "constructor"
    },
    {
      "inputs": [
        {
          "internalType": "address",
          "name": "owner",
          "type": "address"
        }
      ],
      "name": "OwnableInvalidOwner",
      "type": "error"
    },
    {
      "inputs": [
        {
          "internalType": "address",
          "name": "account",
          "type": "address"
        }
      ],
      "name": "OwnableUnauthorizedAccount",
      "type": "error"
    },
    {
      "anonymous": false,
      "inputs": [
        {
          "indexed": true,
          "internalType": "address",
          "name": "creator",
          "type": "address"
        },
        {
          "indexed": true,
          "internalType": "address",
          "name": "launch",
          "type": "address"
        }
      ],
      "name": "NewFairLaunch",
      "type": "event"
    },
    {
      "anonymous": false,
      "inputs": [
        {
          "indexed": true,
          "internalType": "address",
          "name": "previousOwner",
          "type": "address"
        },
        {
          "indexed": true,
          "internalType": "address",
          "name": "newOwner",
          "type": "address"
        }
      ],
      "name": "OwnershipTransferred",
      "type": "event"
    },
    {
      "inputs": [
        {
          "internalType": "uint256",
          "name": "",
          "type": "uint256"
        }
      ],
      "name": "creationFees",
      "outputs": [
        {
          "internalType": "uint256",
          "name": "",
          "type": "uint256"
        }
      ],
      "stateMutability": "view",
      "type": "function"
    },
    {
      "inputs": [
        {
          "internalType": "address",
          "name": "",
          "type": "address"
        },
        {
          "internalType": "uint256",
          "name": "",
          "type": "uint256"
        }
      ],
      "name": "deployedLaunches",
      "outputs": [
        {
          "internalType": "address",
          "name": "",
          "type": "address"
        }
      ],
      "stateMutability": "view",
      "type": "function"
    },
    {
      "inputs": [],
      "name": "feeEarned",
      "outputs": [
        {
          "internalType": "uint256",
          "name": "",
          "type": "uint256"
        }
      ],
      "stateMutability": "view",
      "type": "function"
    },
    {
      "inputs": [
        {
          "internalType": "bytes",
          "name": "bytecode",
          "type": "bytes"
        },
        {
          "internalType": "uint256",
          "name": "salt",
          "type": "uint256"
        }
      ],
      "name": "getAddressCreate2",
      "outputs": [
        {
          "internalType": "address",
          "name": "",
          "type": "address"
        }
      ],
      "stateMutability": "view",
      "type": "function"
    },
    {
      "inputs": [
        {
          "components": [
            {
              "internalType": "address",
              "name": "token",
              "type": "address"
            },
            {
              "internalType": "uint256",
              "name": "softCap",
              "type": "uint256"
            },
            {
              "internalType": "uint256",
              "name": "hardCap",
              "type": "uint256"
            },
            {
              "internalType": "uint256",
              "name": "amountForSale",
              "type": "uint256"
            },
            {
              "internalType": "uint256",
              "name": "listingRate",
              "type": "uint256"
            },
            {
              "internalType": "uint256",
              "name": "minimumBuy",
              "type": "uint256"
            },
            {
              "internalType": "uint256",
              "name": "maximumBuy",
              "type": "uint256"
            },
            {
              "internalType": "uint256",
              "name": "percentageForLiquidity",
              "type": "uint256"
            },
            {
              "internalType": "uint256",
              "name": "percentageForTeam",
              "type": "uint256"
            },
            {
              "internalType": "uint256",
              "name": "startDate",
              "type": "uint256"
            },
            {
              "internalType": "uint256",
              "name": "endDate",
              "type": "uint256"
            }
          ],
          "internalType": "struct FairLaunchConfig",
          "name": "config",
          "type": "tuple"
        },
        {
          "internalType": "address",
          "name": "_owner",
          "type": "address"
        }
      ],
      "name": "getBytecode",
      "outputs": [
        {
          "internalType": "bytes",
          "name": "",
          "type": "bytes"
        }
      ],
      "stateMutability": "pure",
      "type": "function"
    },
    {
      "inputs": [],
      "name": "getCreationFees",
      "outputs": [
        {
          "internalType": "uint256[]",
          "name": "",
          "type": "uint256[]"
        }
      ],
      "stateMutability": "view",
      "type": "function"
    },
    {
      "inputs": [
        {
          "internalType": "address",
          "name": "creator",
          "type": "address"
        }
      ],
      "name": "getdeployedLaunches",
      "outputs": [
        {
          "internalType": "address[]",
          "name": "",
          "type": "address[]"
        }
      ],
      "stateMutability": "view",
      "type": "function"
    },
    {
      "inputs": [
        {
          "internalType": "address",
          "name": "creator",
          "type": "address"
        }
      ],
      "name": "getdeployedLaunchesLen",
      "outputs": [
        {
          "internalType": "uint256",
          "name": "",
          "type": "uint256"
        }
      ],
      "stateMutability": "view",
      "type": "function"
    },
    {
      "inputs": [
        {
          "components": [
            {
              "internalType": "address",
              "name": "token",
              "type": "address"
            },
            {
              "internalType": "uint256",
              "name": "softCap",
              "type": "uint256"
            },
            {
              "internalType": "uint256",
              "name": "hardCap",
              "type": "uint256"
            },
            {
              "internalType": "uint256",
              "name": "amountForSale",
              "type": "uint256"
            },
            {
              "internalType": "uint256",
              "name": "listingRate",
              "type": "uint256"
            },
            {
              "internalType": "uint256",
              "name": "minimumBuy",
              "type": "uint256"
            },
            {
              "internalType": "uint256",
              "name": "maximumBuy",
              "type": "uint256"
            },
            {
              "internalType": "uint256",
              "name": "percentageForLiquidity",
              "type": "uint256"
            },
            {
              "internalType": "uint256",
              "name": "percentageForTeam",
              "type": "uint256"
            },
            {
              "internalType": "uint256",
              "name": "startDate",
              "type": "uint256"
            },
            {
              "internalType": "uint256",
              "name": "endDate",
              "type": "uint256"
            }
          ],
          "internalType": "struct FairLaunchConfig",
          "name": "config",
          "type": "tuple"
        }
      ],
      "name": "newFairLaunch",
      "outputs": [
        {
          "internalType": "address",
          "name": "",
          "type": "address"
        }
      ],
      "stateMutability": "payable",
      "type": "function"
    },
    {
      "inputs": [],
      "name": "owner",
      "outputs": [
        {
          "internalType": "address",
          "name": "",
          "type": "address"
        }
      ],
      "stateMutability": "view",
      "type": "function"
    },
    {
      "inputs": [],
      "name": "renounceOwnership",
      "outputs": [],
      "stateMutability": "nonpayable",
      "type": "function"
    },
    {
      "inputs": [
        {
          "internalType": "address",
          "name": "newOwner",
          "type": "address"
        }
      ],
      "name": "transferOwnership",
      "outputs": [],
      "stateMutability": "nonpayable",
      "type": "function"
    },
    {
      "inputs": [
        {
          "internalType": "uint256[]",
          "name": "_fees",
          "type": "uint256[]"
        }
      ],
      "name": "upadateCreationFees",
      "outputs": [],
      "stateMutability": "nonpayable",
      "type": "function"
    },
    {
      "inputs": [],
      "name": "withdraw",
      "outputs": [],
      "stateMutability": "nonpayable",
      "type": "function"
    },
    {
      "inputs": [
        {
          "internalType": "address",
          "name": "token",
          "type": "address"
        }
      ],
      "name": "withdrawToken",
      "outputs": [],
      "stateMutability": "nonpayable",
      "type": "function"
    },
    {
      "stateMutability": "payable",
      "type": "receive"
    }
  ],
  "bytecode": "0x60806040526040518060800160405280670de0b6b3a764000068ffffffffffffffffff168152602001674563918244f4000068ffffffffffffffffff168152602001678ac7230489e8000068ffffffffffffffffff16815260200168015af1d78b58c4000068ffffffffffffffffff16815250600290600462000084929190620001e5565b503480156200009257600080fd5b5033600073ffffffffffffffffffffffffffffffffffffffff168173ffffffffffffffffffffffffffffffffffffffff1603620001095760006040517f1e4fbdf7000000000000000000000000000000000000000000000000000000008152600401620001009190620002a8565b60405180910390fd5b6200011a816200012160201b60201c565b50620002c5565b60008060009054906101000a900473ffffffffffffffffffffffffffffffffffffffff169050816000806101000a81548173ffffffffffffffffffffffffffffffffffffffff021916908373ffffffffffffffffffffffffffffffffffffffff1602179055508173ffffffffffffffffffffffffffffffffffffffff168173ffffffffffffffffffffffffffffffffffffffff167f8be0079c531659141344cd1fd0a4f28419497f9722a3daafe3b4186f6b6457e060405160405180910390a35050565b82805482825590600052602060002090810192821562000231579160200282015b8281111562000230578251829068ffffffffffffffffff1690559160200191906001019062000206565b5b50905062000240919062000244565b5090565b5b808211156200025f57600081600090555060010162000245565b5090565b600073ffffffffffffffffffffffffffffffffffffffff82169050919050565b6000620002908262000263565b9050919050565b620002a28162000283565b82525050565b6000602082019050620002bf600083018462000297565b92915050565b6155fc80620002d56000396000f3fe608060405260043610620001035760003560e01c80639f886f261162000097578063ca3df80e1162000061578063ca3df80e146200035c578063d5f63a06146200038a578063e5e868ab14620003ba578063f2fde38b14620003fe576200010b565b80639f886f261462000260578063b6e1527414620002a4578063bd97883314620002e8578063c8527f471462000318576200010b565b806357ad392211620000d957806357ad392214620001a4578063715018a614620001e85780638947606914620002025780638da5cb5b1462000230576200010b565b806339354c6014620001105780633ccfd60b14620001465780634455a3431462000160576200010b565b366200010b57005b600080fd5b6200012e600480360381019062000128919062001267565b6200042c565b6040516200013d9190620012ab565b60405180910390f35b3480156200015357600080fd5b506200015e620008f7565b005b3480156200016d57600080fd5b506200018c6004803603810190620001869190620012c8565b62000954565b6040516200019b9190620013c8565b60405180910390f35b348015620001b157600080fd5b50620001d06004803603810190620001ca9190620013ec565b62000a23565b604051620001df9190620012ab565b60405180910390f35b348015620001f557600080fd5b506200020062000a72565b005b3480156200020f57600080fd5b506200022e6004803603810190620002289190620012c8565b62000a8a565b005b3480156200023d57600080fd5b506200024862000ba2565b604051620002579190620012ab565b60405180910390f35b3480156200026d57600080fd5b506200028c600480360381019062000286919062001500565b62000bcb565b6040516200029b9190620012ab565b60405180910390f35b348015620002b157600080fd5b50620002d06004803603810190620002ca919062001566565b62000c17565b604051620002df9190620015a9565b60405180910390f35b348015620002f557600080fd5b506200030062000c3c565b6040516200030f919062001694565b60405180910390f35b3480156200032557600080fd5b506200034460048036038101906200033e9190620016b8565b62000c96565b6040516200035391906200178a565b60405180910390f35b3480156200036957600080fd5b5062000388600480360381019062000382919062001889565b62000d12565b005b3480156200039757600080fd5b50620003a262000d38565b604051620003b19190620015a9565b60405180910390f35b348015620003c757600080fd5b50620003e66004803603810190620003e09190620012c8565b62000d3e565b604051620003f59190620015a9565b60405180910390f35b3480156200040b57600080fd5b506200042a6004803603810190620004249190620012c8565b62000d8a565b005b60006002600081548110620004465762000445620018da565b5b906000526020600020015434101562000496576040517f08c379a00000000000000000000000000000000000000000000000000000000081526004016200048d9062001990565b60405180910390fd5b6012826000015173ffffffffffffffffffffffffffffffffffffffff1663313ce5676040518163ffffffff1660e01b8152600401602060405180830381865afa158015620004e8573d6000803e3d6000fd5b505050506040513d601f19601f820116820180604052508101906200050e9190620019f0565b60ff161462000554576040517f08c379a00000000000000000000000000000000000000000000000000000000081526004016200054b9062001a98565b60405180910390fd5b603c8260e0015110156200059f576040517f08c379a0000000000000000000000000000000000000000000000000000000008152600401620005969062001b56565b60405180910390fd5b60288261010001511115620005eb576040517f08c379a0000000000000000000000000000000000000000000000000000000008152600401620005e29062001c14565b60405180910390fd5b60648261010001518360e0015162000604919062001c65565b1462000647576040517f08c379a00000000000000000000000000000000000000000000000000000000081526004016200063e9062001d3c565b60405180910390fd5b6000600483604001518162000661576200066062001d5e565b5b0483602001511015620006ab576040517f08c379a0000000000000000000000000000000000000000000000000000000008152600401620006a29062001e29565b60405180910390fd5b68056bc75e2d63100000836080015184604001518560e00151020281620006d757620006d662001d5e565b5b0483606001510190506000600160003373ffffffffffffffffffffffffffffffffffffffff1673ffffffffffffffffffffffffffffffffffffffff1681526020019081526020016000208054905060001b8433604051620007389062000f73565b6200074592919062001f42565b8190604051809103906000f590508015801562000766573d6000803e3d6000fd5b509050600160003373ffffffffffffffffffffffffffffffffffffffff1673ffffffffffffffffffffffffffffffffffffffff168152602001908152602001600020819080600181540180825580915050600190039060005260206000200160009091909190916101000a81548173ffffffffffffffffffffffffffffffffffffffff021916908373ffffffffffffffffffffffffffffffffffffffff160217905550836000015173ffffffffffffffffffffffffffffffffffffffff166323b872dd3383856040518463ffffffff1660e01b81526004016200084c9392919062001f71565b6020604051808303816000875af11580156200086c573d6000803e3d6000fd5b505050506040513d601f19601f8201168201806040525081019062000892919062001feb565b508073ffffffffffffffffffffffffffffffffffffffff163373ffffffffffffffffffffffffffffffffffffffff167f3e898072f60c1097ffd1556ec02786c3af00b0f9a3c971db360f7539abeb6d2160405160405180910390a38092505050919050565b6200090162000e17565b6200090b62000ba2565b73ffffffffffffffffffffffffffffffffffffffff166108fc479081150290604051600060405180830381858888f1935050505015801562000951573d6000803e3d6000fd5b50565b6060600160008373ffffffffffffffffffffffffffffffffffffffff1673ffffffffffffffffffffffffffffffffffffffff16815260200190815260200160002080548060200260200160405190810160405280929190818152602001828054801562000a1757602002820191906000526020600020905b8160009054906101000a900473ffffffffffffffffffffffffffffffffffffffff1673ffffffffffffffffffffffffffffffffffffffff1681526020019060010190808311620009cc575b50505050509050919050565b6001602052816000526040600020818154811062000a4057600080fd5b906000526020600020016000915091509054906101000a900473ffffffffffffffffffffffffffffffffffffffff1681565b62000a7c62000e17565b62000a88600062000ea7565b565b62000a9462000e17565b8073ffffffffffffffffffffffffffffffffffffffff1663a9059cbb62000aba62000ba2565b8373ffffffffffffffffffffffffffffffffffffffff166370a08231306040518263ffffffff1660e01b815260040162000af59190620012ab565b602060405180830381865afa15801562000b13573d6000803e3d6000fd5b505050506040513d601f19601f8201168201806040525081019062000b39919062002034565b6040518363ffffffff1660e01b815260040162000b5892919062002066565b6020604051808303816000875af115801562000b78573d6000803e3d6000fd5b505050506040513d601f19601f8201168201806040525081019062000b9e919062001feb565b5050565b60008060009054906101000a900473ffffffffffffffffffffffffffffffffffffffff16905090565b60008060ff60f81b3084868051906020012060405160200162000bf2949392919062002188565b6040516020818303038152906040528051906020012090508060001c91505092915050565b6002818154811062000c2857600080fd5b906000526020600020016000915090505481565b6060600280548060200260200160405190810160405280929190818152602001828054801562000c8c57602002820191906000526020600020905b81548152602001906001019080831162000c77575b5050505050905090565b606060006040518060200162000cac9062000f73565b6020820181038252601f19601f82011660405250905080848460405160200162000cd892919062001f42565b60405160208183030381529060405260405160200162000cfa92919062002220565b60405160208183030381529060405291505092915050565b62000d1c62000e17565b806002908051906020019062000d3492919062000f81565b5050565b60035481565b6000600160008373ffffffffffffffffffffffffffffffffffffffff1673ffffffffffffffffffffffffffffffffffffffff168152602001908152602001600020805490509050919050565b62000d9462000e17565b600073ffffffffffffffffffffffffffffffffffffffff168173ffffffffffffffffffffffffffffffffffffffff160362000e095760006040517f1e4fbdf700000000000000000000000000000000000000000000000000000000815260040162000e009190620012ab565b60405180910390fd5b62000e148162000ea7565b50565b62000e2162000f6b565b73ffffffffffffffffffffffffffffffffffffffff1662000e4162000ba2565b73ffffffffffffffffffffffffffffffffffffffff161462000ea55762000e6762000f6b565b6040517f118cdaa700000000000000000000000000000000000000000000000000000000815260040162000e9c9190620012ab565b60405180910390fd5b565b60008060009054906101000a900473ffffffffffffffffffffffffffffffffffffffff169050816000806101000a81548173ffffffffffffffffffffffffffffffffffffffff021916908373ffffffffffffffffffffffffffffffffffffffff1602179055508173ffffffffffffffffffffffffffffffffffffffff168173ffffffffffffffffffffffffffffffffffffffff167f8be0079c531659141344cd1fd0a4f28419497f9722a3daafe3b4186f6b6457e060405160405180910390a35050565b600033905090565b61337e806200224983390190565b82805482825590600052602060002090810192821562000fc0579160200282015b8281111562000fbf57825182559160200191906001019062000fa2565b5b50905062000fcf919062000fd3565b5090565b5b8082111562000fee57600081600090555060010162000fd4565b5090565b6000604051905090565b600080fd5b600080fd5b600080fd5b6000601f19601f8301169050919050565b7f4e487b7100000000000000000000000000000000000000000000000000000000600052604160045260246000fd5b62001056826200100b565b810181811067ffffffffffffffff821117156200107857620010776200101c565b5b80604052505050565b60006200108d62000ff2565b90506200109b82826200104b565b919050565b600073ffffffffffffffffffffffffffffffffffffffff82169050919050565b6000620010cd82620010a0565b9050919050565b620010df81620010c0565b8114620010eb57600080fd5b50565b600081359050620010ff81620010d4565b92915050565b6000819050919050565b6200111a8162001105565b81146200112657600080fd5b50565b6000813590506200113a816200110f565b92915050565b600061016082840312156200115a576200115962001006565b5b6200116761016062001081565b905060006200117984828501620010ee565b60008301525060206200118f8482850162001129565b6020830152506040620011a58482850162001129565b6040830152506060620011bb8482850162001129565b6060830152506080620011d18482850162001129565b60808301525060a0620011e78482850162001129565b60a08301525060c0620011fd8482850162001129565b60c08301525060e0620012138482850162001129565b60e0830152506101006200122a8482850162001129565b61010083015250610120620012428482850162001129565b610120830152506101406200125a8482850162001129565b6101408301525092915050565b6000610160828403121562001281576200128062000ffc565b5b6000620012918482850162001140565b91505092915050565b620012a581620010c0565b82525050565b6000602082019050620012c260008301846200129a565b92915050565b600060208284031215620012e157620012e062000ffc565b5b6000620012f184828501620010ee565b91505092915050565b600081519050919050565b600082825260208201905092915050565b6000819050602082019050919050565b6200133181620010c0565b82525050565b600062001345838362001326565b60208301905092915050565b6000602082019050919050565b60006200136b82620012fa565b62001377818562001305565b9350620013848362001316565b8060005b83811015620013bb5781516200139f888262001337565b9750620013ac8362001351565b92505060018101905062001388565b5085935050505092915050565b60006020820190508181036000830152620013e481846200135e565b905092915050565b6000806040838503121562001406576200140562000ffc565b5b60006200141685828601620010ee565b9250506020620014298582860162001129565b9150509250929050565b600080fd5b600080fd5b600067ffffffffffffffff8211156200145b576200145a6200101c565b5b62001466826200100b565b9050602081019050919050565b82818337600083830152505050565b60006200149962001493846200143d565b62001081565b905082815260208101848484011115620014b857620014b762001438565b5b620014c584828562001473565b509392505050565b600082601f830112620014e557620014e462001433565b5b8135620014f784826020860162001482565b91505092915050565b600080604083850312156200151a576200151962000ffc565b5b600083013567ffffffffffffffff8111156200153b576200153a62001001565b5b6200154985828601620014cd565b92505060206200155c8582860162001129565b9150509250929050565b6000602082840312156200157f576200157e62000ffc565b5b60006200158f8482850162001129565b91505092915050565b620015a38162001105565b82525050565b6000602082019050620015c0600083018462001598565b92915050565b600081519050919050565b600082825260208201905092915050565b6000819050602082019050919050565b620015fd8162001105565b82525050565b6000620016118383620015f2565b60208301905092915050565b6000602082019050919050565b60006200163782620015c6565b620016438185620015d1565b93506200165083620015e2565b8060005b83811015620016875781516200166b888262001603565b975062001678836200161d565b92505060018101905062001654565b5085935050505092915050565b60006020820190508181036000830152620016b081846200162a565b905092915050565b6000806101808385031215620016d357620016d262000ffc565b5b6000620016e38582860162001140565b925050610160620016f785828601620010ee565b9150509250929050565b600081519050919050565b600082825260208201905092915050565b60005b838110156200173d57808201518184015260208101905062001720565b60008484015250505050565b6000620017568262001701565b6200176281856200170c565b9350620017748185602086016200171d565b6200177f816200100b565b840191505092915050565b60006020820190508181036000830152620017a6818462001749565b905092915050565b600067ffffffffffffffff821115620017cc57620017cb6200101c565b5b602082029050602081019050919050565b600080fd5b6000620017f9620017f384620017ae565b62001081565b905080838252602082019050602084028301858111156200181f576200181e620017dd565b5b835b818110156200184c578062001837888262001129565b84526020840193505060208101905062001821565b5050509392505050565b600082601f8301126200186e576200186d62001433565b5b813562001880848260208601620017e2565b91505092915050565b600060208284031215620018a257620018a162000ffc565b5b600082013567ffffffffffffffff811115620018c357620018c262001001565b5b620018d18482850162001856565b91505092915050565b7f4e487b7100000000000000000000000000000000000000000000000000000000600052603260045260246000fd5b600082825260208201905092915050565b7f546872757374706164466169724c61756e6368466163746f72793a20496e737560008201527f6666696369656e74206665650000000000000000000000000000000000000000602082015250565b600062001978602c8362001909565b915062001985826200191a565b604082019050919050565b60006020820190508181036000830152620019ab8162001969565b9050919050565b600060ff82169050919050565b620019ca81620019b2565b8114620019d657600080fd5b50565b600081519050620019ea81620019bf565b92915050565b60006020828403121562001a095762001a0862000ffc565b5b600062001a1984828501620019d9565b91505092915050565b7f546872757374706164466169724c61756e6368466163746f72793a20746f6b6560008201527f6e206d757374206861766520313820646563696d616c73000000000000000000602082015250565b600062001a8060378362001909565b915062001a8d8262001a22565b604082019050919050565b6000602082019050818103600083015262001ab38162001a71565b9050919050565b7f546872757374706164466169724c61756e6368466163746f72793a207065726360008201527f656e7461676520666f72204c69717569646974792063616e6e6f74206265206c60208201527f657373207468616e203630000000000000000000000000000000000000000000604082015250565b600062001b3e604b8362001909565b915062001b4b8262001aba565b606082019050919050565b6000602082019050818103600083015262001b718162001b2f565b9050919050565b7f546872757374706164466169724c61756e6368466163746f72793a207065726360008201527f656e7461676520666f72205465616d2063616e6e6f74206265206c657373207460208201527f68616e2034300000000000000000000000000000000000000000000000000000604082015250565b600062001bfc60468362001909565b915062001c098262001b78565b606082019050919050565b6000602082019050818103600083015262001c2f8162001bed565b9050919050565b7f4e487b7100000000000000000000000000000000000000000000000000000000600052601160045260246000fd5b600062001c728262001105565b915062001c7f8362001105565b925082820190508082111562001c9a5762001c9962001c36565b5b92915050565b7f546872757374706164466169724c61756e6368466163746f72793a207065726360008201527f656e7461676520666f72204c6971756964697479202b2070657263656e74616760208201527f6520666f72205465616d206d75737420626520657175616c20746f2031303000604082015250565b600062001d24605f8362001909565b915062001d318262001ca0565b606082019050919050565b6000602082019050818103600083015262001d578162001d15565b9050919050565b7f4e487b7100000000000000000000000000000000000000000000000000000000600052601260045260246000fd5b7f546872757374706164466169724c61756e6368466163746f72793a20736f667460008201527f436170206d7573742062652067726561746572207468616e206f72206571756160208201527f6c20746f20323525206f66206861726443617000000000000000000000000000604082015250565b600062001e1160538362001909565b915062001e1e8262001d8d565b606082019050919050565b6000602082019050818103600083015262001e448162001e02565b9050919050565b6101608201600082015162001e64600085018262001326565b50602082015162001e796020850182620015f2565b50604082015162001e8e6040850182620015f2565b50606082015162001ea36060850182620015f2565b50608082015162001eb86080850182620015f2565b5060a082015162001ecd60a0850182620015f2565b5060c082015162001ee260c0850182620015f2565b5060e082015162001ef760e0850182620015f2565b5061010082015162001f0e610100850182620015f2565b5061012082015162001f25610120850182620015f2565b5061014082015162001f3c610140850182620015f2565b50505050565b60006101808201905062001f5a600083018562001e4b565b62001f6a6101608301846200129a565b9392505050565b600060608201905062001f8860008301866200129a565b62001f9760208301856200129a565b62001fa6604083018462001598565b949350505050565b60008115159050919050565b62001fc58162001fae565b811462001fd157600080fd5b50565b60008151905062001fe58162001fba565b92915050565b60006020828403121562002004576200200362000ffc565b5b6000620020148482850162001fd4565b91505092915050565b6000815190506200202e816200110f565b92915050565b6000602082840312156200204d576200204c62000ffc565b5b60006200205d848285016200201d565b91505092915050565b60006040820190506200207d60008301856200129a565b6200208c602083018462001598565b9392505050565b60007fff0000000000000000000000000000000000000000000000000000000000000082169050919050565b6000819050919050565b620020de620020d88262002093565b620020bf565b82525050565b60008160601b9050919050565b6000620020fe82620020e4565b9050919050565b60006200211282620020f1565b9050919050565b6200212e6200212882620010c0565b62002105565b82525050565b6000819050919050565b620021536200214d8262001105565b62002134565b82525050565b6000819050919050565b6000819050919050565b620021826200217c8262002159565b62002163565b82525050565b6000620021968287620020c9565b600182019150620021a8828662002119565b601482019150620021ba82856200213e565b602082019150620021cc82846200216d565b60208201915081905095945050505050565b600081905092915050565b6000620021f68262001701565b620022028185620021de565b9350620022148185602086016200171d565b80840191505092915050565b60006200222e8285620021e9565b91506200223c8284620021e9565b9150819050939250505056fe608060405273a12ffa65079f3cf91b93fe059099e447c88cc9e9601260006101000a81548173ffffffffffffffffffffffffffffffffffffffff021916908373ffffffffffffffffffffffffffffffffffffffff1602179055507374713db9d9cc38a7120b9da60f582c1861bc1c8a601360006101000a81548173ffffffffffffffffffffffffffffffffffffffff021916908373ffffffffffffffffffffffffffffffffffffffff1602179055507383e46e6e193b284d26f7a4b7d865b65952a50bf2601460006101000a81548173ffffffffffffffffffffffffffffffffffffffff021916908373ffffffffffffffffffffffffffffffffffffffff1602179055503480156200011057600080fd5b506040516200337e3803806200337e8339818101604052810190620001369190620005b5565b80600073ffffffffffffffffffffffffffffffffffffffff168173ffffffffffffffffffffffffffffffffffffffff1603620001ac5760006040517f1e4fbdf7000000000000000000000000000000000000000000000000000000008152600401620001a391906200060f565b60405180910390fd5b620001bd816200028160201b60201c565b506001808190555081600260008201518160000160006101000a81548173ffffffffffffffffffffffffffffffffffffffff021916908373ffffffffffffffffffffffffffffffffffffffff1602179055506020820151816001015560408201518160020155606082015181600301556080820151816004015560a0820151816005015560c0820151816006015560e082015181600701556101008201518160080155610120820151816009015561014082015181600a015590505050506200062c565b60008060009054906101000a900473ffffffffffffffffffffffffffffffffffffffff169050816000806101000a81548173ffffffffffffffffffffffffffffffffffffffff021916908373ffffffffffffffffffffffffffffffffffffffff1602179055508173ffffffffffffffffffffffffffffffffffffffff168173ffffffffffffffffffffffffffffffffffffffff167f8be0079c531659141344cd1fd0a4f28419497f9722a3daafe3b4186f6b6457e060405160405180910390a35050565b6000604051905090565b600080fd5b600080fd5b6000601f19601f8301169050919050565b7f4e487b7100000000000000000000000000000000000000000000000000000000600052604160045260246000fd5b620003a48262000359565b810181811067ffffffffffffffff82111715620003c657620003c56200036a565b5b80604052505050565b6000620003db62000345565b9050620003e9828262000399565b919050565b600073ffffffffffffffffffffffffffffffffffffffff82169050919050565b60006200041b82620003ee565b9050919050565b6200042d816200040e565b81146200043957600080fd5b50565b6000815190506200044d8162000422565b92915050565b6000819050919050565b620004688162000453565b81146200047457600080fd5b50565b60008151905062000488816200045d565b92915050565b60006101608284031215620004a857620004a762000354565b5b620004b5610160620003cf565b90506000620004c7848285016200043c565b6000830152506020620004dd8482850162000477565b6020830152506040620004f38482850162000477565b6040830152506060620005098482850162000477565b60608301525060806200051f8482850162000477565b60808301525060a0620005358482850162000477565b60a08301525060c06200054b8482850162000477565b60c08301525060e0620005618482850162000477565b60e083015250610100620005788482850162000477565b61010083015250610120620005908482850162000477565b61012083015250610140620005a88482850162000477565b6101408301525092915050565b6000806101808385031215620005d057620005cf6200034f565b5b6000620005e0858286016200048e565b925050610160620005f4858286016200043c565b9150509250929050565b62000609816200040e565b82525050565b6000602082019050620006266000830184620005fe565b92915050565b612d42806200063c6000396000f3fe60806040526004361061012e5760003560e01c80639c5913cc116100ab578063c884ef831161006f578063c884ef831461032c578063d812195c14610369578063dbf0f3e214610392578063e45f2b8a146103bb578063f251fc8c146103f8578063f2fde38b1461042357610135565b80639c5913cc1461028c578063a4821719146102b7578063a86d60b8146102c1578063b5545a3c146102ea578063c3828bf01461030157610135565b8063715018a6116100f2578063715018a6146101d357806379502c55146101ea5780638da5cb5b1461021f5780639106d7ba1461024a578063953b7ef81461027557610135565b80632f3346521461013a57806338af6632146101655780634086bf891461017c57806348c54b9d146101935780636d4ed434146101aa57610135565b3661013557005b600080fd5b34801561014657600080fd5b5061014f61044c565b60405161015c9190611f7b565b60405180910390f35b34801561017157600080fd5b5061017a61045f565b005b34801561018857600080fd5b50610191610692565b005b34801561019f57600080fd5b506101a8610dfe565b005b3480156101b657600080fd5b506101d160048036038101906101cc9190611fc7565b611100565b005b3480156101df57600080fd5b506101e861116d565b005b3480156101f657600080fd5b506101ff611181565b6040516102169b9a9998979695949392919061204e565b60405180910390f35b34801561022b57600080fd5b506102346111e9565b60405161024191906120f9565b60405180910390f35b34801561025657600080fd5b5061025f611212565b60405161026c9190612114565b60405180910390f35b34801561028157600080fd5b5061028a611218565b005b34801561029857600080fd5b506102a1611422565b6040516102ae9190611f7b565b60405180910390f35b6102bf611435565b005b3480156102cd57600080fd5b506102e860048036038101906102e39190611fc7565b611750565b005b3480156102f657600080fd5b506102ff6117bd565b005b34801561030d57600080fd5b50610316611a3c565b60405161032391906120f9565b60405180910390f35b34801561033857600080fd5b50610353600480360381019061034e919061215b565b611a62565b6040516103609190612114565b60405180910390f35b34801561037557600080fd5b50610390600480360381019061038b91906121b4565b611a7a565b005b34801561039e57600080fd5b506103b960048036038101906103b491906121e1565b611b9c565b005b3480156103c757600080fd5b506103e260048036038101906103dd919061215b565b611cf7565b6040516103ef9190612114565b60405180910390f35b34801561040457600080fd5b5061040d611d0f565b60405161041a9190612114565b60405180910390f35b34801561042f57600080fd5b5061044a6004803603810190610445919061215b565b611d15565b005b600f60019054906101000a900460ff1681565b610467611d9b565b62278d006002600a015461047b9190612250565b4210156104bd576040517f08c379a00000000000000000000000000000000000000000000000000000000081526004016104b490612307565b60405180910390fd5b6000600f60029054906101000a900473ffffffffffffffffffffffffffffffffffffffff1673ffffffffffffffffffffffffffffffffffffffff166370a08231306040518263ffffffff1660e01b815260040161051a91906120f9565b602060405180830381865afa158015610537573d6000803e3d6000fd5b505050506040513d601f19601f8201168201806040525081019061055b919061233c565b9050600081111561068f57600f60029054906101000a900473ffffffffffffffffffffffffffffffffffffffff1673ffffffffffffffffffffffffffffffffffffffff1663a9059cbb33836040518363ffffffff1660e01b81526004016105c3929190612369565b6020604051808303816000875af11580156105e2573d6000803e3d6000fd5b505050506040513d601f19601f8201168201806040525081019061060691906123a7565b50600f60029054906101000a900473ffffffffffffffffffffffffffffffffffffffff1673ffffffffffffffffffffffffffffffffffffffff163373ffffffffffffffffffffffffffffffffffffffff167f4f2e1c4d34092405172a61f387073a9b61bfcbb54eceb1e96383d36e19b394a9836040516106869190612114565b60405180910390a35b50565b61069a611d9b565b6002600a01544210156106e2576040517f08c379a00000000000000000000000000000000000000000000000000000000081526004016106d990612446565b60405180910390fd5b600260010154600d54101561072c576040517f08c379a0000000000000000000000000000000000000000000000000000000008152600401610723906124d8565b60405180910390fd5b6000601360009054906101000a900473ffffffffffffffffffffffffffffffffffffffff1673ffffffffffffffffffffffffffffffffffffffff1663e6a43905600260000160009054906101000a900473ffffffffffffffffffffffffffffffffffffffff1660006040518363ffffffff1660e01b81526004016107b19291906124f8565b602060405180830381865afa1580156107ce573d6000803e3d6000fd5b505050506040513d601f19601f820116820180604052508101906107f29190612536565b9050600073ffffffffffffffffffffffffffffffffffffffff168173ffffffffffffffffffffffffffffffffffffffff160361093457601260009054906101000a900473ffffffffffffffffffffffffffffffffffffffff1673ffffffffffffffffffffffffffffffffffffffff1663171223dd73ffffffffffffffffffffffffffffffffffffffff60001b7feeeeeeeeeeeeeeeeeeeeeeeeeeeeeeeeeeeeeeeeeeeeeeeeeeeeeeeeeeeeeeee60001b166108d1600260000160009054906101000a900473ffffffffffffffffffffffffffffffffffffffff16611e22565b6040518363ffffffff1660e01b81526004016108ee92919061258e565b6020604051808303816000875af115801561090d573d6000803e3d6000fd5b505050506040513d601f19601f820116820180604052508101906109319190612536565b90505b80600f60026101000a81548173ffffffffffffffffffffffffffffffffffffffff021916908373ffffffffffffffffffffffffffffffffffffffff160217905550600260000160009054906101000a900473ffffffffffffffffffffffffffffffffffffffff1673ffffffffffffffffffffffffffffffffffffffff1663095ea7b3601360009054906101000a900473ffffffffffffffffffffffffffffffffffffffff167fffffffffffffffffffffffffffffffffffffffffffffffffffffffffffffffff6040518363ffffffff1660e01b8152600401610a17929190612369565b6020604051808303816000875af1158015610a36573d6000803e3d6000fd5b505050506040513d601f19601f82011682018060405250810190610a5a91906123a7565b5060006064600d54600260070154610a7291906125b7565b610a7c9190612628565b9050600060026004015482610a9191906125b7565b9050601360009054906101000a900473ffffffffffffffffffffffffffffffffffffffff1673ffffffffffffffffffffffffffffffffffffffff16635a47ddc383600260000160009054906101000a900473ffffffffffffffffffffffffffffffffffffffff166000808688600080307fffffffffffffffffffffffffffffffffffffffffffffffffffffffffffffffff6040518b63ffffffff1660e01b8152600401610b469998979695949392919061269e565b60606040518083038185885af1158015610b64573d6000803e3d6000fd5b50505050506040513d601f19601f82011682018060405250810190610b89919061272b565b5050506000600260000160009054906101000a900473ffffffffffffffffffffffffffffffffffffffff1673ffffffffffffffffffffffffffffffffffffffff166370a08231306040518263ffffffff1660e01b8152600401610bec91906120f9565b602060405180830381865afa158015610c09573d6000803e3d6000fd5b505050506040513d601f19601f82011682018060405250810190610c2d919061233c565b9050600260000160009054906101000a900473ffffffffffffffffffffffffffffffffffffffff1673ffffffffffffffffffffffffffffffffffffffff1663a9059cbb6000836040518363ffffffff1660e01b8152600401610c90929190612369565b6020604051808303816000875af1158015610caf573d6000803e3d6000fd5b505050506040513d601f19601f82011682018060405250810190610cd391906123a7565b5060008473ffffffffffffffffffffffffffffffffffffffff166370a08231306040518263ffffffff1660e01b8152600401610d0f91906120f9565b602060405180830381865afa158015610d2c573d6000803e3d6000fd5b505050506040513d601f19601f82011682018060405250810190610d50919061233c565b90506001600f60006101000a81548160ff021916908315150217905550600260000160009054906101000a900473ffffffffffffffffffffffffffffffffffffffff1673ffffffffffffffffffffffffffffffffffffffff168573ffffffffffffffffffffffffffffffffffffffff167f2be745126d540f8314c97b28a1687816ebc31358eb0259f21907ff16cd11eeb983604051610def9190612114565b60405180910390a35050505050565b610e06611e45565b6002600a0154421015610e4e576040517f08c379a0000000000000000000000000000000000000000000000000000000008152600401610e4590612446565b60405180910390fd5b600260010154600d541015610e98576040517f08c379a0000000000000000000000000000000000000000000000000000000008152600401610e8f906124d8565b60405180910390fd5b6000601160003373ffffffffffffffffffffffffffffffffffffffff1673ffffffffffffffffffffffffffffffffffffffff1681526020019081526020016000205414610f1a576040517f08c379a0000000000000000000000000000000000000000000000000000000008152600401610f11906127f0565b60405180910390fd5b60006002800154600260030154610f319190612628565b9050600081601060003373ffffffffffffffffffffffffffffffffffffffff1673ffffffffffffffffffffffffffffffffffffffff16815260200190815260200160002054610f8091906125b7565b905080601160003373ffffffffffffffffffffffffffffffffffffffff1673ffffffffffffffffffffffffffffffffffffffff16815260200190815260200160002081905550600260000160009054906101000a900473ffffffffffffffffffffffffffffffffffffffff1673ffffffffffffffffffffffffffffffffffffffff1663a9059cbb33836040518363ffffffff1660e01b8152600401611026929190612369565b6020604051808303816000875af1158015611045573d6000803e3d6000fd5b505050506040513d601f19601f8201168201806040525081019061106991906123a7565b50600260000160009054906101000a900473ffffffffffffffffffffffffffffffffffffffff1673ffffffffffffffffffffffffffffffffffffffff163373ffffffffffffffffffffffffffffffffffffffff167f4831bdd9dcf3048a28319ce81d3cab7a15366bcf449bc7803a539107440809cc836040516110ec9190612114565b60405180910390a350506110fe611e8b565b565b611108611d9b565b6002600a0154421015611150576040517f08c379a00000000000000000000000000000000000000000000000000000000081526004016111479061285c565b60405180910390fd5b80600f60166101000a81548160ff02191690831515021790555050565b611175611d9b565b61117f6000611e94565b565b60028060000160009054906101000a900473ffffffffffffffffffffffffffffffffffffffff169080600101549080600201549080600301549080600401549080600501549080600601549080600701549080600801549080600901549080600a015490508b565b60008060009054906101000a900473ffffffffffffffffffffffffffffffffffffffff16905090565b600d5481565b611220611d9b565b6002600a0154421015611268576040517f08c379a000000000000000000000000000000000000000000000000000000000815260040161125f90612446565b60405180910390fd5b600260010154600d5410156112b2576040517f08c379a00000000000000000000000000000000000000000000000000000000081526004016112a9906124d8565b60405180910390fd5b600f60019054906101000a900460ff1615611302576040517f08c379a00000000000000000000000000000000000000000000000000000000081526004016112f9906128ee565b60405180910390fd5b60006064600d5460026008015461131991906125b7565b6113239190612628565b90506001600f60016101000a81548160ff0219169083151502179055506113486111e9565b73ffffffffffffffffffffffffffffffffffffffff166108fc829081150290604051600060405180830381858888f1935050505015801561138d573d6000803e3d6000fd5b50600260000160009054906101000a900473ffffffffffffffffffffffffffffffffffffffff1673ffffffffffffffffffffffffffffffffffffffff166113d26111e9565b73ffffffffffffffffffffffffffffffffffffffff167fa95e69983c44f17474cba286953deb119463b9f5cb8cfde4fd709df3660266f7836040516114179190612114565b60405180910390a350565b600f60009054906101000a900460ff1681565b60026009015442101561147d576040517f08c379a000000000000000000000000000000000000000000000000000000000815260040161147490612980565b60405180910390fd5b6002600a01544211156114c5576040517f08c379a00000000000000000000000000000000000000000000000000000000081526004016114bc90612a12565b60405180910390fd5b60026005015434101561150d576040517f08c379a000000000000000000000000000000000000000000000000000000000815260040161150490612aa4565b60405180910390fd5b600260060154341115611555576040517f08c379a000000000000000000000000000000000000000000000000000000000815260040161154c90612b36565b60405180910390fd5b600280015434600d546115689190612250565b11156115a9576040517f08c379a00000000000000000000000000000000000000000000000000000000081526004016115a090612bc8565b60405180910390fd5b60026006015434601060003373ffffffffffffffffffffffffffffffffffffffff1673ffffffffffffffffffffffffffffffffffffffff168152602001908152602001600020546115fa9190612250565b111561163b576040517f08c379a000000000000000000000000000000000000000000000000000000000815260040161163290612c5a565b60405180910390fd5b34600d600082825461164d9190612250565b925050819055506001600e60008282546116679190612250565b9250508190555034601060003373ffffffffffffffffffffffffffffffffffffffff1673ffffffffffffffffffffffffffffffffffffffff16815260200190815260200160002060008282546116bd9190612250565b92505081905550600260000160009054906101000a900473ffffffffffffffffffffffffffffffffffffffff1673ffffffffffffffffffffffffffffffffffffffff163373ffffffffffffffffffffffffffffffffffffffff167f9b24bd0884170cbce51f9f00df6b3f9aed2231e4086241d1d04687b42afdf7b9346040516117469190612114565b60405180910390a3565b611758611d9b565b6002600a01544210156117a0576040517f08c379a00000000000000000000000000000000000000000000000000000000081526004016117979061285c565b60405180910390fd5b80600f60176101000a81548160ff02191690831515021790555050565b6117c5611e45565b6002600a015442101561180d576040517f08c379a000000000000000000000000000000000000000000000000000000000815260040161180490612446565b60405180910390fd5b600260010154600d5410611856576040517f08c379a000000000000000000000000000000000000000000000000000000000815260040161184d90612cec565b60405180910390fd5b6000601160003373ffffffffffffffffffffffffffffffffffffffff1673ffffffffffffffffffffffffffffffffffffffff16815260200190815260200160002054146118d8576040517f08c379a00000000000000000000000000000000000000000000000000000000081526004016118cf906127f0565b60405180910390fd5b6000601060003373ffffffffffffffffffffffffffffffffffffffff1673ffffffffffffffffffffffffffffffffffffffff16815260200190815260200160002054905080601160003373ffffffffffffffffffffffffffffffffffffffff1673ffffffffffffffffffffffffffffffffffffffff168152602001908152602001600020819055503373ffffffffffffffffffffffffffffffffffffffff166108fc829081150290604051600060405180830381858888f193505050501580156119a6573d6000803e3d6000fd5b50600260000160009054906101000a900473ffffffffffffffffffffffffffffffffffffffff1673ffffffffffffffffffffffffffffffffffffffff163373ffffffffffffffffffffffffffffffffffffffff167ff40cc8c1a1d17359049ba500cfc894596a692cffc9d03943cd92ec2e159cf6ae83604051611a299190612114565b60405180910390a350611a3a611e8b565b565b600f60029054906101000a900473ffffffffffffffffffffffffffffffffffffffff1681565b60116020528060005260406000206000915090505481565b6002600a0154421015611ac2576040517f08c379a0000000000000000000000000000000000000000000000000000000008152600401611ab99061285c565b60405180910390fd5b601460009054906101000a900473ffffffffffffffffffffffffffffffffffffffff1673ffffffffffffffffffffffffffffffffffffffff163373ffffffffffffffffffffffffffffffffffffffff1614611b52576040517f08c379a0000000000000000000000000000000000000000000000000000000008152600401611b499061285c565b60405180910390fd5b3373ffffffffffffffffffffffffffffffffffffffff166108fc829081150290604051600060405180830381858888f19350505050158015611b98573d6000803e3d6000fd5b5050565b6002600a0154421015611be4576040517f08c379a0000000000000000000000000000000000000000000000000000000008152600401611bdb9061285c565b60405180910390fd5b601460009054906101000a900473ffffffffffffffffffffffffffffffffffffffff1673ffffffffffffffffffffffffffffffffffffffff163373ffffffffffffffffffffffffffffffffffffffff1614611c74576040517f08c379a0000000000000000000000000000000000000000000000000000000008152600401611c6b9061285c565b60405180910390fd5b8173ffffffffffffffffffffffffffffffffffffffff1663a9059cbb33836040518363ffffffff1660e01b8152600401611caf929190612369565b6020604051808303816000875af1158015611cce573d6000803e3d6000fd5b505050506040513d601f19601f82011682018060405250810190611cf291906123a7565b505050565b60106020528060005260406000206000915090505481565b600e5481565b611d1d611d9b565b600073ffffffffffffffffffffffffffffffffffffffff168173ffffffffffffffffffffffffffffffffffffffff1603611d8f5760006040517f1e4fbdf7000000000000000000000000000000000000000000000000000000008152600401611d8691906120f9565b60405180910390fd5b611d9881611e94565b50565b611da3611f58565b73ffffffffffffffffffffffffffffffffffffffff16611dc16111e9565b73ffffffffffffffffffffffffffffffffffffffff1614611e2057611de4611f58565b6040517f118cdaa7000000000000000000000000000000000000000000000000000000008152600401611e1791906120f9565b60405180910390fd5b565b60008173ffffffffffffffffffffffffffffffffffffffff1660001b9050919050565b600260015403611e81576040517f3ee5aeb500000000000000000000000000000000000000000000000000000000815260040160405180910390fd5b6002600181905550565b60018081905550565b60008060009054906101000a900473ffffffffffffffffffffffffffffffffffffffff169050816000806101000a81548173ffffffffffffffffffffffffffffffffffffffff021916908373ffffffffffffffffffffffffffffffffffffffff1602179055508173ffffffffffffffffffffffffffffffffffffffff168173ffffffffffffffffffffffffffffffffffffffff167f8be0079c531659141344cd1fd0a4f28419497f9722a3daafe3b4186f6b6457e060405160405180910390a35050565b600033905090565b60008115159050919050565b611f7581611f60565b82525050565b6000602082019050611f906000830184611f6c565b92915050565b600080fd5b611fa481611f60565b8114611faf57600080fd5b50565b600081359050611fc181611f9b565b92915050565b600060208284031215611fdd57611fdc611f96565b5b6000611feb84828501611fb2565b91505092915050565b600073ffffffffffffffffffffffffffffffffffffffff82169050919050565b600061201f82611ff4565b9050919050565b61202f81612014565b82525050565b6000819050919050565b61204881612035565b82525050565b600061016082019050612064600083018e612026565b612071602083018d61203f565b61207e604083018c61203f565b61208b606083018b61203f565b612098608083018a61203f565b6120a560a083018961203f565b6120b260c083018861203f565b6120bf60e083018761203f565b6120cd61010083018661203f565b6120db61012083018561203f565b6120e961014083018461203f565b9c9b505050505050505050505050565b600060208201905061210e6000830184612026565b92915050565b6000602082019050612129600083018461203f565b92915050565b61213881612014565b811461214357600080fd5b50565b6000813590506121558161212f565b92915050565b60006020828403121561217157612170611f96565b5b600061217f84828501612146565b91505092915050565b61219181612035565b811461219c57600080fd5b50565b6000813590506121ae81612188565b92915050565b6000602082840312156121ca576121c9611f96565b5b60006121d88482850161219f565b91505092915050565b600080604083850312156121f8576121f7611f96565b5b600061220685828601612146565b92505060206122178582860161219f565b9150509250929050565b7f4e487b7100000000000000000000000000000000000000000000000000000000600052601160045260246000fd5b600061225b82612035565b915061226683612035565b925082820190508082111561227e5761227d612221565b5b92915050565b600082825260208201905092915050565b7f546872757374706164466169724c61756e63683a204c6f636b20706572696f6460008201527f206e6f74206f7665722079657400000000000000000000000000000000000000602082015250565b60006122f1602d83612284565b91506122fc82612295565b604082019050919050565b60006020820190508181036000830152612320816122e4565b9050919050565b60008151905061233681612188565b92915050565b60006020828403121561235257612351611f96565b5b600061236084828501612327565b91505092915050565b600060408201905061237e6000830185612026565b61238b602083018461203f565b9392505050565b6000815190506123a181611f9b565b92915050565b6000602082840312156123bd576123bc611f96565b5b60006123cb84828501612392565b91505092915050565b7f546872757374706164466169724c61756e63683a2073616c6520686173206e6f60008201527f7420656e64656420796574000000000000000000000000000000000000000000602082015250565b6000612430602b83612284565b915061243b826123d4565b604082019050919050565b6000602082019050818103600083015261245f81612423565b9050919050565b7f546872757374706164466169724c61756e63683a20736f667420636170206e6f60008201527f7420726561636865640000000000000000000000000000000000000000000000602082015250565b60006124c2602983612284565b91506124cd82612466565b604082019050919050565b600060208201905081810360008301526124f1816124b5565b9050919050565b600060408201905061250d6000830185612026565b61251a6020830184612026565b9392505050565b6000815190506125308161212f565b92915050565b60006020828403121561254c5761254b611f96565b5b600061255a84828501612521565b91505092915050565b6000819050919050565b600061257882612563565b9050919050565b6125888161256d565b82525050565b60006040820190506125a3600083018561257f565b6125b0602083018461257f565b9392505050565b60006125c282612035565b91506125cd83612035565b92508282026125db81612035565b915082820484148315176125f2576125f1612221565b5b5092915050565b7f4e487b7100000000000000000000000000000000000000000000000000000000600052601260045260246000fd5b600061263382612035565b915061263e83612035565b92508261264e5761264d6125f9565b5b828204905092915050565b6000819050919050565b6000819050919050565b600061268861268361267e84612659565b612663565b612035565b9050919050565b6126988161266d565b82525050565b6000610120820190506126b4600083018c612026565b6126c1602083018b612026565b6126ce604083018a611f6c565b6126db606083018961203f565b6126e8608083018861203f565b6126f560a083018761268f565b61270260c083018661268f565b61270f60e0830185612026565b61271d61010083018461203f565b9a9950505050505050505050565b60008060006060848603121561274457612743611f96565b5b600061275286828701612327565b935050602061276386828701612327565b925050604061277486828701612327565b9150509250925092565b7f546872757374706164466169724c61756e63683a20746f6b656e7320616c726560008201527f61647920636c61696d6564000000000000000000000000000000000000000000602082015250565b60006127da602b83612284565b91506127e58261277e565b604082019050919050565b60006020820190508181036000830152612809816127cd565b9050919050565b7f4e6f7420617574686f72697a6564000000000000000000000000000000000000600082015250565b6000612846600e83612284565b915061285182612810565b602082019050919050565b6000602082019050818103600083015261287581612839565b9050919050565b7f546872757374706164466169724c61756e63683a207465616d20746f6b656e7360008201527f20616c726561647920636c61696d656400000000000000000000000000000000602082015250565b60006128d8603083612284565b91506128e38261287c565b604082019050919050565b60006020820190508181036000830152612907816128cb565b9050919050565b7f546872757374706164466169724c61756e63683a2073616c6520686173206e6f60008201527f7420737461727465642079657400000000000000000000000000000000000000602082015250565b600061296a602d83612284565b91506129758261290e565b604082019050919050565b600060208201905081810360008301526129998161295d565b9050919050565b7f546872757374706164466169724c61756e63683a2073616c652068617320656e60008201527f6465640000000000000000000000000000000000000000000000000000000000602082015250565b60006129fc602383612284565b9150612a07826129a0565b604082019050919050565b60006020820190508181036000830152612a2b816129ef565b9050919050565b7f546872757374706164466169724c61756e63683a20616d6f756e74206973206c60008201527f657373207468616e206d696e696d756d20627579000000000000000000000000602082015250565b6000612a8e603483612284565b9150612a9982612a32565b604082019050919050565b60006020820190508181036000830152612abd81612a81565b9050919050565b7f546872757374706164466169724c61756e63683a20616d6f756e74206973206d60008201527f6f7265207468616e206d6178696d756d20627579000000000000000000000000602082015250565b6000612b20603483612284565b9150612b2b82612ac4565b604082019050919050565b60006020820190508181036000830152612b4f81612b13565b9050919050565b7f546872757374706164466169724c61756e63683a20686172642063617020726560008201527f6163686564000000000000000000000000000000000000000000000000000000602082015250565b6000612bb2602583612284565b9150612bbd82612b56565b604082019050919050565b60006020820190508181036000830152612be181612ba5565b9050919050565b7f546872757374706164466169724c61756e63683a2077616c6c6574206861732060008201527f72656163686564206d6178696d756d2062757900000000000000000000000000602082015250565b6000612c44603383612284565b9150612c4f82612be8565b604082019050919050565b60006020820190508181036000830152612c7381612c37565b9050919050565b7f546872757374706164466169724c61756e63683a20736f66742063617020726560008201527f6163686564000000000000000000000000000000000000000000000000000000602082015250565b6000612cd6602583612284565b9150612ce182612c7a565b604082019050919050565b60006020820190508181036000830152612d0581612cc9565b905091905056fea2646970667358221220af1b060c74376641c184b6ba404c2d511c172cf007042ad590f18528ba25e67864736f6c63430008180033a264697066735822122051936a9ea79faef314d9e1fd5f9ce83283c483656baa07dec25df720d6020ea564736f6c63430008180033",
  "linkReferences": {},
  "deployedLinkReferences": {}
}