{
  "_format": "hh-sol-artifact-1",
  "contractName": "ThrustpadFairLaunchFactory",
  "sourceName": "contracts/fair-launch/ThrustpadFairLaunchFactory.sol",
  "abi": [
    {
      "anonymous": false,
      "inputs": [
        {
          "indexed": true,
          "internalType": "address",
          "name": "creator",
          "type": "address"
        },
        {
          "indexed": true,
          "internalType": "address",
          "name": "launch",
          "type": "address"
        }
      ],
      "name": "NewFairLaunch",
      "type": "event"
    },
    {
      "inputs": [
        {
          "internalType": "address",
          "name": "",
          "type": "address"
        },
        {
          "internalType": "uint256",
          "name": "",
          "type": "uint256"
        }
      ],
      "name": "deployedLaunches",
      "outputs": [
        {
          "internalType": "address",
          "name": "",
          "type": "address"
        }
      ],
      "stateMutability": "view",
      "type": "function"
    },
    {
      "inputs": [
        {
          "internalType": "bytes",
          "name": "bytecode",
          "type": "bytes"
        },
        {
          "internalType": "uint256",
          "name": "salt",
          "type": "uint256"
        }
      ],
      "name": "getAddressCreate2",
      "outputs": [
        {
          "internalType": "address",
          "name": "",
          "type": "address"
        }
      ],
      "stateMutability": "view",
      "type": "function"
    },
    {
      "inputs": [
        {
          "components": [
            {
              "internalType": "address",
              "name": "token",
              "type": "address"
            },
            {
              "internalType": "uint256",
              "name": "softCap",
              "type": "uint256"
            },
            {
              "internalType": "uint256",
              "name": "hardCap",
              "type": "uint256"
            },
            {
              "internalType": "uint256",
              "name": "amountForSale",
              "type": "uint256"
            },
            {
              "internalType": "uint256",
              "name": "listingRate",
              "type": "uint256"
            },
            {
              "internalType": "uint256",
              "name": "minimumBuy",
              "type": "uint256"
            },
            {
              "internalType": "uint256",
              "name": "maximumBuy",
              "type": "uint256"
            },
            {
              "internalType": "uint256",
              "name": "percentageForLiquidity",
              "type": "uint256"
            },
            {
              "internalType": "uint256",
              "name": "percentageForTeam",
              "type": "uint256"
            },
            {
              "internalType": "uint256",
              "name": "startDate",
              "type": "uint256"
            },
            {
              "internalType": "uint256",
              "name": "endDate",
              "type": "uint256"
            }
          ],
          "internalType": "struct FairLaunchConfig",
          "name": "config",
          "type": "tuple"
        }
      ],
      "name": "getBytecode",
      "outputs": [
        {
          "internalType": "bytes",
          "name": "",
          "type": "bytes"
        }
      ],
      "stateMutability": "pure",
      "type": "function"
    },
    {
      "inputs": [
        {
          "internalType": "address",
          "name": "creator",
          "type": "address"
        }
      ],
      "name": "getdeployedLaunches",
      "outputs": [
        {
          "internalType": "address[]",
          "name": "",
          "type": "address[]"
        }
      ],
      "stateMutability": "view",
      "type": "function"
    },
    {
      "inputs": [
        {
          "internalType": "address",
          "name": "creator",
          "type": "address"
        }
      ],
      "name": "getdeployedLaunchesLen",
      "outputs": [
        {
          "internalType": "uint256",
          "name": "",
          "type": "uint256"
        }
      ],
      "stateMutability": "view",
      "type": "function"
    },
    {
      "inputs": [
        {
          "components": [
            {
              "internalType": "address",
              "name": "token",
              "type": "address"
            },
            {
              "internalType": "uint256",
              "name": "softCap",
              "type": "uint256"
            },
            {
              "internalType": "uint256",
              "name": "hardCap",
              "type": "uint256"
            },
            {
              "internalType": "uint256",
              "name": "amountForSale",
              "type": "uint256"
            },
            {
              "internalType": "uint256",
              "name": "listingRate",
              "type": "uint256"
            },
            {
              "internalType": "uint256",
              "name": "minimumBuy",
              "type": "uint256"
            },
            {
              "internalType": "uint256",
              "name": "maximumBuy",
              "type": "uint256"
            },
            {
              "internalType": "uint256",
              "name": "percentageForLiquidity",
              "type": "uint256"
            },
            {
              "internalType": "uint256",
              "name": "percentageForTeam",
              "type": "uint256"
            },
            {
              "internalType": "uint256",
              "name": "startDate",
              "type": "uint256"
            },
            {
              "internalType": "uint256",
              "name": "endDate",
              "type": "uint256"
            }
          ],
          "internalType": "struct FairLaunchConfig",
          "name": "config",
          "type": "tuple"
        }
      ],
      "name": "newFairLaunch",
      "outputs": [
        {
          "internalType": "address",
          "name": "",
          "type": "address"
        }
      ],
      "stateMutability": "nonpayable",
      "type": "function"
    }
  ],
  "bytecode": "0x608060405234801561001057600080fd5b50614946806100206000396000f3fe60806040523480156200001157600080fd5b50600436106200006a5760003560e01c806306a339ee146200006f57806339354c6014620000a55780634455a34314620000db57806357ad392214620001115780639f886f261462000147578063e5e868ab146200017d575b600080fd5b6200008d600480360381019062000087919062000ac2565b620001b3565b6040516200009c919062000b7e565b60405180910390f35b620000c36004803603810190620000bd919062000ac2565b6200022c565b604051620000d2919062000bb3565b60405180910390f35b620000f96004803603810190620000f3919062000bd0565b6200068b565b60405162000108919062000cd0565b60405180910390f35b6200012f600480360381019062000129919062000cf4565b62000759565b6040516200013e919062000bb3565b60405180910390f35b6200016560048036038101906200015f919062000e08565b620007a8565b60405162000174919062000bb3565b60405180910390f35b6200019b600480360381019062000195919062000bd0565b620007f4565b604051620001aa919062000e7f565b60405180910390f35b6060600060405180602001620001c9906200083f565b6020820181038252601f19601f8201166040525090508083604051602001620001f3919062000fa4565b6040516020818303038152906040526040516020016200021592919062001004565b604051602081830303815290604052915050919050565b60006012826000015173ffffffffffffffffffffffffffffffffffffffff1663313ce5676040518163ffffffff1660e01b8152600401602060405180830381865afa15801562000280573d6000803e3d6000fd5b505050506040513d601f19601f82011682018060405250810190620002a691906200106a565b60ff1614620002ec576040517f08c379a0000000000000000000000000000000000000000000000000000000008152600401620002e39062001123565b60405180910390fd5b603c8260e00151101562000337576040517f08c379a00000000000000000000000000000000000000000000000000000000081526004016200032e90620011e1565b60405180910390fd5b6028826101000151111562000383576040517f08c379a00000000000000000000000000000000000000000000000000000000081526004016200037a906200129f565b60405180910390fd5b60648261010001518360e001516200039c9190620012f0565b14620003df576040517f08c379a0000000000000000000000000000000000000000000000000000000008152600401620003d690620013c7565b60405180910390fd5b60006004836040015181620003f957620003f8620013e9565b5b048360200151101562000443576040517f08c379a00000000000000000000000000000000000000000000000000000000081526004016200043a90620014b4565b60405180910390fd5b68056bc75e2d63100000836080015184604001518560e001510202816200046f576200046e620013e9565b5b04836060015101905060008060003373ffffffffffffffffffffffffffffffffffffffff1673ffffffffffffffffffffffffffffffffffffffff1681526020019081526020016000208054905060001b84604051620004ce906200083f565b620004da919062000fa4565b8190604051809103906000f5905080158015620004fb573d6000803e3d6000fd5b5090506000803373ffffffffffffffffffffffffffffffffffffffff1673ffffffffffffffffffffffffffffffffffffffff168152602001908152602001600020819080600181540180825580915050600190039060005260206000200160009091909190916101000a81548173ffffffffffffffffffffffffffffffffffffffff021916908373ffffffffffffffffffffffffffffffffffffffff160217905550836000015173ffffffffffffffffffffffffffffffffffffffff166323b872dd3383856040518463ffffffff1660e01b8152600401620005e093929190620014d6565b6020604051808303816000875af115801562000600573d6000803e3d6000fd5b505050506040513d601f19601f8201168201806040525081019062000626919062001550565b508073ffffffffffffffffffffffffffffffffffffffff163373ffffffffffffffffffffffffffffffffffffffff167f3e898072f60c1097ffd1556ec02786c3af00b0f9a3c971db360f7539abeb6d2160405160405180910390a38092505050919050565b60606000808373ffffffffffffffffffffffffffffffffffffffff1673ffffffffffffffffffffffffffffffffffffffff1681526020019081526020016000208054806020026020016040519081016040528092919081815260200182805480156200074d57602002820191906000526020600020905b8160009054906101000a900473ffffffffffffffffffffffffffffffffffffffff1673ffffffffffffffffffffffffffffffffffffffff168152602001906001019080831162000702575b50505050509050919050565b600060205281600052604060002081815481106200077657600080fd5b906000526020600020016000915091509054906101000a900473ffffffffffffffffffffffffffffffffffffffff1681565b60008060ff60f81b30848680519060200120604051602001620007cf949392919062001677565b6040516020818303038152906040528051906020012090508060001c91505092915050565b60008060008373ffffffffffffffffffffffffffffffffffffffff1673ffffffffffffffffffffffffffffffffffffffff168152602001908152602001600020805490509050919050565b61324380620016ce83390190565b6000604051905090565b600080fd5b600080fd5b600080fd5b6000601f19601f8301169050919050565b7f4e487b7100000000000000000000000000000000000000000000000000000000600052604160045260246000fd5b620008b18262000866565b810181811067ffffffffffffffff82111715620008d357620008d262000877565b5b80604052505050565b6000620008e86200084d565b9050620008f68282620008a6565b919050565b600073ffffffffffffffffffffffffffffffffffffffff82169050919050565b60006200092882620008fb565b9050919050565b6200093a816200091b565b81146200094657600080fd5b50565b6000813590506200095a816200092f565b92915050565b6000819050919050565b620009758162000960565b81146200098157600080fd5b50565b60008135905062000995816200096a565b92915050565b60006101608284031215620009b557620009b462000861565b5b620009c2610160620008dc565b90506000620009d48482850162000949565b6000830152506020620009ea8482850162000984565b602083015250604062000a008482850162000984565b604083015250606062000a168482850162000984565b606083015250608062000a2c8482850162000984565b60808301525060a062000a428482850162000984565b60a08301525060c062000a588482850162000984565b60c08301525060e062000a6e8482850162000984565b60e08301525061010062000a858482850162000984565b6101008301525061012062000a9d8482850162000984565b6101208301525061014062000ab58482850162000984565b6101408301525092915050565b6000610160828403121562000adc5762000adb62000857565b5b600062000aec848285016200099b565b91505092915050565b600081519050919050565b600082825260208201905092915050565b60005b8381101562000b3157808201518184015260208101905062000b14565b60008484015250505050565b600062000b4a8262000af5565b62000b56818562000b00565b935062000b6881856020860162000b11565b62000b738162000866565b840191505092915050565b6000602082019050818103600083015262000b9a818462000b3d565b905092915050565b62000bad816200091b565b82525050565b600060208201905062000bca600083018462000ba2565b92915050565b60006020828403121562000be95762000be862000857565b5b600062000bf98482850162000949565b91505092915050565b600081519050919050565b600082825260208201905092915050565b6000819050602082019050919050565b62000c39816200091b565b82525050565b600062000c4d838362000c2e565b60208301905092915050565b6000602082019050919050565b600062000c738262000c02565b62000c7f818562000c0d565b935062000c8c8362000c1e565b8060005b8381101562000cc357815162000ca7888262000c3f565b975062000cb48362000c59565b92505060018101905062000c90565b5085935050505092915050565b6000602082019050818103600083015262000cec818462000c66565b905092915050565b6000806040838503121562000d0e5762000d0d62000857565b5b600062000d1e8582860162000949565b925050602062000d318582860162000984565b9150509250929050565b600080fd5b600080fd5b600067ffffffffffffffff82111562000d635762000d6262000877565b5b62000d6e8262000866565b9050602081019050919050565b82818337600083830152505050565b600062000da162000d9b8462000d45565b620008dc565b90508281526020810184848401111562000dc05762000dbf62000d40565b5b62000dcd84828562000d7b565b509392505050565b600082601f83011262000ded5762000dec62000d3b565b5b813562000dff84826020860162000d8a565b91505092915050565b6000806040838503121562000e225762000e2162000857565b5b600083013567ffffffffffffffff81111562000e435762000e426200085c565b5b62000e518582860162000dd5565b925050602062000e648582860162000984565b9150509250929050565b62000e798162000960565b82525050565b600060208201905062000e96600083018462000e6e565b92915050565b62000ea78162000960565b82525050565b6101608201600082015162000ec6600085018262000c2e565b50602082015162000edb602085018262000e9c565b50604082015162000ef0604085018262000e9c565b50606082015162000f05606085018262000e9c565b50608082015162000f1a608085018262000e9c565b5060a082015162000f2f60a085018262000e9c565b5060c082015162000f4460c085018262000e9c565b5060e082015162000f5960e085018262000e9c565b5061010082015162000f7061010085018262000e9c565b5061012082015162000f8761012085018262000e9c565b5061014082015162000f9e61014085018262000e9c565b50505050565b60006101608201905062000fbc600083018462000ead565b92915050565b600081905092915050565b600062000fda8262000af5565b62000fe6818562000fc2565b935062000ff881856020860162000b11565b80840191505092915050565b600062001012828562000fcd565b915062001020828462000fcd565b91508190509392505050565b600060ff82169050919050565b62001044816200102c565b81146200105057600080fd5b50565b600081519050620010648162001039565b92915050565b60006020828403121562001083576200108262000857565b5b6000620010938482850162001053565b91505092915050565b600082825260208201905092915050565b7f546872757374706164466169724c61756e6368466163746f72793a20746f6b6560008201527f6e206d757374206861766520313820646563696d616c73000000000000000000602082015250565b60006200110b6037836200109c565b91506200111882620010ad565b604082019050919050565b600060208201905081810360008301526200113e81620010fc565b9050919050565b7f546872757374706164466169724c61756e6368466163746f72793a207065726360008201527f656e7461676520666f72204c69717569646974792063616e6e6f74206265206c60208201527f657373207468616e203630000000000000000000000000000000000000000000604082015250565b6000620011c9604b836200109c565b9150620011d68262001145565b606082019050919050565b60006020820190508181036000830152620011fc81620011ba565b9050919050565b7f546872757374706164466169724c61756e6368466163746f72793a207065726360008201527f656e7461676520666f72205465616d2063616e6e6f74206265206c657373207460208201527f68616e2034300000000000000000000000000000000000000000000000000000604082015250565b6000620012876046836200109c565b9150620012948262001203565b606082019050919050565b60006020820190508181036000830152620012ba8162001278565b9050919050565b7f4e487b7100000000000000000000000000000000000000000000000000000000600052601160045260246000fd5b6000620012fd8262000960565b91506200130a8362000960565b9250828201905080821115620013255762001324620012c1565b5b92915050565b7f546872757374706164466169724c61756e6368466163746f72793a207065726360008201527f656e7461676520666f72204c6971756964697479202b2070657263656e74616760208201527f6520666f72205465616d206d75737420626520657175616c20746f2031303000604082015250565b6000620013af605f836200109c565b9150620013bc826200132b565b606082019050919050565b60006020820190508181036000830152620013e281620013a0565b9050919050565b7f4e487b7100000000000000000000000000000000000000000000000000000000600052601260045260246000fd5b7f546872757374706164466169724c61756e6368466163746f72793a20736f667460008201527f436170206d7573742062652067726561746572207468616e206f72206571756160208201527f6c20746f20323525206f66206861726443617000000000000000000000000000604082015250565b60006200149c6053836200109c565b9150620014a98262001418565b606082019050919050565b60006020820190508181036000830152620014cf816200148d565b9050919050565b6000606082019050620014ed600083018662000ba2565b620014fc602083018562000ba2565b6200150b604083018462000e6e565b949350505050565b60008115159050919050565b6200152a8162001513565b81146200153657600080fd5b50565b6000815190506200154a816200151f565b92915050565b60006020828403121562001569576200156862000857565b5b6000620015798482850162001539565b91505092915050565b60007fff0000000000000000000000000000000000000000000000000000000000000082169050919050565b6000819050919050565b620015cd620015c78262001582565b620015ae565b82525050565b60008160601b9050919050565b6000620015ed82620015d3565b9050919050565b60006200160182620015e0565b9050919050565b6200161d62001617826200091b565b620015f4565b82525050565b6000819050919050565b620016426200163c8262000960565b62001623565b82525050565b6000819050919050565b6000819050919050565b620016716200166b8262001648565b62001652565b82525050565b6000620016858287620015b8565b60018201915062001697828662001608565b601482019150620016a982856200162d565b602082019150620016bb82846200165c565b6020820191508190509594505050505056fe6080604052731ccc7382d46313c24e1d13510b1c9445a792f4d4601260006101000a81548173ffffffffffffffffffffffffffffffffffffffff021916908373ffffffffffffffffffffffffffffffffffffffff16021790555073b97582dcb6f2866098ca210095a04df3e11b76a6601360006101000a81548173ffffffffffffffffffffffffffffffffffffffff021916908373ffffffffffffffffffffffffffffffffffffffff1602179055507383e46e6e193b284d26f7a4b7d865b65952a50bf2601460006101000a81548173ffffffffffffffffffffffffffffffffffffffff021916908373ffffffffffffffffffffffffffffffffffffffff1602179055503480156200011057600080fd5b5060405162003243380380620032438339818101604052810190620001369190620005b4565b32600073ffffffffffffffffffffffffffffffffffffffff168173ffffffffffffffffffffffffffffffffffffffff1603620001ac5760006040517f1e4fbdf7000000000000000000000000000000000000000000000000000000008152600401620001a39190620005f8565b60405180910390fd5b620001bd816200028060201b60201c565b506001808190555080600260008201518160000160006101000a81548173ffffffffffffffffffffffffffffffffffffffff021916908373ffffffffffffffffffffffffffffffffffffffff1602179055506020820151816001015560408201518160020155606082015181600301556080820151816004015560a0820151816005015560c0820151816006015560e082015181600701556101008201518160080155610120820151816009015561014082015181600a01559050505062000615565b60008060009054906101000a900473ffffffffffffffffffffffffffffffffffffffff169050816000806101000a81548173ffffffffffffffffffffffffffffffffffffffff021916908373ffffffffffffffffffffffffffffffffffffffff1602179055508173ffffffffffffffffffffffffffffffffffffffff168173ffffffffffffffffffffffffffffffffffffffff167f8be0079c531659141344cd1fd0a4f28419497f9722a3daafe3b4186f6b6457e060405160405180910390a35050565b6000604051905090565b600080fd5b600080fd5b6000601f19601f8301169050919050565b7f4e487b7100000000000000000000000000000000000000000000000000000000600052604160045260246000fd5b620003a38262000358565b810181811067ffffffffffffffff82111715620003c557620003c462000369565b5b80604052505050565b6000620003da62000344565b9050620003e8828262000398565b919050565b600073ffffffffffffffffffffffffffffffffffffffff82169050919050565b60006200041a82620003ed565b9050919050565b6200042c816200040d565b81146200043857600080fd5b50565b6000815190506200044c8162000421565b92915050565b6000819050919050565b620004678162000452565b81146200047357600080fd5b50565b60008151905062000487816200045c565b92915050565b60006101608284031215620004a757620004a662000353565b5b620004b4610160620003ce565b90506000620004c6848285016200043b565b6000830152506020620004dc8482850162000476565b6020830152506040620004f28482850162000476565b6040830152506060620005088482850162000476565b60608301525060806200051e8482850162000476565b60808301525060a0620005348482850162000476565b60a08301525060c06200054a8482850162000476565b60c08301525060e0620005608482850162000476565b60e083015250610100620005778482850162000476565b610100830152506101206200058f8482850162000476565b61012083015250610140620005a78482850162000476565b6101408301525092915050565b60006101608284031215620005ce57620005cd6200034e565b5b6000620005de848285016200048d565b91505092915050565b620005f2816200040d565b82525050565b60006020820190506200060f6000830184620005e7565b92915050565b612c1e80620006256000396000f3fe60806040526004361061012e5760003560e01c80639c5913cc116100ab578063c884ef831161006f578063c884ef831461032c578063d812195c14610369578063dbf0f3e214610392578063e45f2b8a146103bb578063f251fc8c146103f8578063f2fde38b1461042357610135565b80639c5913cc1461028c578063a4821719146102b7578063a86d60b8146102c1578063b5545a3c146102ea578063c3828bf01461030157610135565b8063715018a6116100f2578063715018a6146101d357806379502c55146101ea5780638da5cb5b1461021f5780639106d7ba1461024a578063953b7ef81461027557610135565b80632f3346521461013a57806338af6632146101655780634086bf891461017c57806348c54b9d146101935780636d4ed434146101aa57610135565b3661013557005b600080fd5b34801561014657600080fd5b5061014f61044c565b60405161015c9190611e80565b60405180910390f35b34801561017157600080fd5b5061017a61045f565b005b34801561018857600080fd5b50610191610692565b005b34801561019f57600080fd5b506101a8610d03565b005b3480156101b657600080fd5b506101d160048036038101906101cc9190611ecc565b611005565b005b3480156101df57600080fd5b506101e8611072565b005b3480156101f657600080fd5b506101ff611086565b6040516102169b9a99989796959493929190611f53565b60405180910390f35b34801561022b57600080fd5b506102346110ee565b6040516102419190611ffe565b60405180910390f35b34801561025657600080fd5b5061025f611117565b60405161026c9190612019565b60405180910390f35b34801561028157600080fd5b5061028a61111d565b005b34801561029857600080fd5b506102a1611327565b6040516102ae9190611e80565b60405180910390f35b6102bf61133a565b005b3480156102cd57600080fd5b506102e860048036038101906102e39190611ecc565b611655565b005b3480156102f657600080fd5b506102ff6116c2565b005b34801561030d57600080fd5b50610316611941565b6040516103239190611ffe565b60405180910390f35b34801561033857600080fd5b50610353600480360381019061034e9190612060565b611967565b6040516103609190612019565b60405180910390f35b34801561037557600080fd5b50610390600480360381019061038b91906120b9565b61197f565b005b34801561039e57600080fd5b506103b960048036038101906103b491906120e6565b611aa1565b005b3480156103c757600080fd5b506103e260048036038101906103dd9190612060565b611bfc565b6040516103ef9190612019565b60405180910390f35b34801561040457600080fd5b5061040d611c14565b60405161041a9190612019565b60405180910390f35b34801561042f57600080fd5b5061044a60048036038101906104459190612060565b611c1a565b005b600f60019054906101000a900460ff1681565b610467611ca0565b62278d006002600a015461047b9190612155565b4210156104bd576040517f08c379a00000000000000000000000000000000000000000000000000000000081526004016104b49061220c565b60405180910390fd5b6000600f60029054906101000a900473ffffffffffffffffffffffffffffffffffffffff1673ffffffffffffffffffffffffffffffffffffffff166370a08231306040518263ffffffff1660e01b815260040161051a9190611ffe565b602060405180830381865afa158015610537573d6000803e3d6000fd5b505050506040513d601f19601f8201168201806040525081019061055b9190612241565b9050600081111561068f57600f60029054906101000a900473ffffffffffffffffffffffffffffffffffffffff1673ffffffffffffffffffffffffffffffffffffffff1663a9059cbb33836040518363ffffffff1660e01b81526004016105c392919061226e565b6020604051808303816000875af11580156105e2573d6000803e3d6000fd5b505050506040513d601f19601f8201168201806040525081019061060691906122ac565b50600f60029054906101000a900473ffffffffffffffffffffffffffffffffffffffff1673ffffffffffffffffffffffffffffffffffffffff163373ffffffffffffffffffffffffffffffffffffffff167f4f2e1c4d34092405172a61f387073a9b61bfcbb54eceb1e96383d36e19b394a9836040516106869190612019565b60405180910390a35b50565b61069a611ca0565b6002600a01544210156106e2576040517f08c379a00000000000000000000000000000000000000000000000000000000081526004016106d99061234b565b60405180910390fd5b600260010154600d54101561072c576040517f08c379a0000000000000000000000000000000000000000000000000000000008152600401610723906123dd565b60405180910390fd5b6000601260009054906101000a900473ffffffffffffffffffffffffffffffffffffffff1673ffffffffffffffffffffffffffffffffffffffff1663171223dd73ffffffffffffffffffffffffffffffffffffffff60001b7feeeeeeeeeeeeeeeeeeeeeeeeeeeeeeeeeeeeeeeeeeeeeeeeeeeeeeeeeeeeeeee60001b166107d7600260000160009054906101000a900473ffffffffffffffffffffffffffffffffffffffff16611d27565b6040518363ffffffff1660e01b81526004016107f4929190612428565b6020604051808303816000875af1158015610813573d6000803e3d6000fd5b505050506040513d601f19601f820116820180604052508101906108379190612466565b905080600f60026101000a81548173ffffffffffffffffffffffffffffffffffffffff021916908373ffffffffffffffffffffffffffffffffffffffff160217905550600260000160009054906101000a900473ffffffffffffffffffffffffffffffffffffffff1673ffffffffffffffffffffffffffffffffffffffff1663095ea7b3601360009054906101000a900473ffffffffffffffffffffffffffffffffffffffff167fffffffffffffffffffffffffffffffffffffffffffffffffffffffffffffffff6040518363ffffffff1660e01b815260040161091c92919061226e565b6020604051808303816000875af115801561093b573d6000803e3d6000fd5b505050506040513d601f19601f8201168201806040525081019061095f91906122ac565b5060006064600d546002600701546109779190612493565b6109819190612504565b90506000600260040154826109969190612493565b9050601360009054906101000a900473ffffffffffffffffffffffffffffffffffffffff1673ffffffffffffffffffffffffffffffffffffffff16635a47ddc383600260000160009054906101000a900473ffffffffffffffffffffffffffffffffffffffff166000808688600080307fffffffffffffffffffffffffffffffffffffffffffffffffffffffffffffffff6040518b63ffffffff1660e01b8152600401610a4b9998979695949392919061257a565b60606040518083038185885af1158015610a69573d6000803e3d6000fd5b50505050506040513d601f19601f82011682018060405250810190610a8e9190612607565b5050506000600260000160009054906101000a900473ffffffffffffffffffffffffffffffffffffffff1673ffffffffffffffffffffffffffffffffffffffff166370a08231306040518263ffffffff1660e01b8152600401610af19190611ffe565b602060405180830381865afa158015610b0e573d6000803e3d6000fd5b505050506040513d601f19601f82011682018060405250810190610b329190612241565b9050600260000160009054906101000a900473ffffffffffffffffffffffffffffffffffffffff1673ffffffffffffffffffffffffffffffffffffffff1663a9059cbb6000836040518363ffffffff1660e01b8152600401610b9592919061226e565b6020604051808303816000875af1158015610bb4573d6000803e3d6000fd5b505050506040513d601f19601f82011682018060405250810190610bd891906122ac565b5060008473ffffffffffffffffffffffffffffffffffffffff166370a08231306040518263ffffffff1660e01b8152600401610c149190611ffe565b602060405180830381865afa158015610c31573d6000803e3d6000fd5b505050506040513d601f19601f82011682018060405250810190610c559190612241565b90506001600f60006101000a81548160ff021916908315150217905550600260000160009054906101000a900473ffffffffffffffffffffffffffffffffffffffff1673ffffffffffffffffffffffffffffffffffffffff168573ffffffffffffffffffffffffffffffffffffffff167f2be745126d540f8314c97b28a1687816ebc31358eb0259f21907ff16cd11eeb983604051610cf49190612019565b60405180910390a35050505050565b610d0b611d4a565b6002600a0154421015610d53576040517f08c379a0000000000000000000000000000000000000000000000000000000008152600401610d4a9061234b565b60405180910390fd5b600260010154600d541015610d9d576040517f08c379a0000000000000000000000000000000000000000000000000000000008152600401610d94906123dd565b60405180910390fd5b6000601160003373ffffffffffffffffffffffffffffffffffffffff1673ffffffffffffffffffffffffffffffffffffffff1681526020019081526020016000205414610e1f576040517f08c379a0000000000000000000000000000000000000000000000000000000008152600401610e16906126cc565b60405180910390fd5b60006002800154600260030154610e369190612504565b9050600081601060003373ffffffffffffffffffffffffffffffffffffffff1673ffffffffffffffffffffffffffffffffffffffff16815260200190815260200160002054610e859190612493565b905080601160003373ffffffffffffffffffffffffffffffffffffffff1673ffffffffffffffffffffffffffffffffffffffff16815260200190815260200160002081905550600260000160009054906101000a900473ffffffffffffffffffffffffffffffffffffffff1673ffffffffffffffffffffffffffffffffffffffff1663a9059cbb33836040518363ffffffff1660e01b8152600401610f2b92919061226e565b6020604051808303816000875af1158015610f4a573d6000803e3d6000fd5b505050506040513d601f19601f82011682018060405250810190610f6e91906122ac565b50600260000160009054906101000a900473ffffffffffffffffffffffffffffffffffffffff1673ffffffffffffffffffffffffffffffffffffffff163373ffffffffffffffffffffffffffffffffffffffff167f4831bdd9dcf3048a28319ce81d3cab7a15366bcf449bc7803a539107440809cc83604051610ff19190612019565b60405180910390a35050611003611d90565b565b61100d611ca0565b6002600a0154421015611055576040517f08c379a000000000000000000000000000000000000000000000000000000000815260040161104c90612738565b60405180910390fd5b80600f60166101000a81548160ff02191690831515021790555050565b61107a611ca0565b6110846000611d99565b565b60028060000160009054906101000a900473ffffffffffffffffffffffffffffffffffffffff169080600101549080600201549080600301549080600401549080600501549080600601549080600701549080600801549080600901549080600a015490508b565b60008060009054906101000a900473ffffffffffffffffffffffffffffffffffffffff16905090565b600d5481565b611125611ca0565b6002600a015442101561116d576040517f08c379a00000000000000000000000000000000000000000000000000000000081526004016111649061234b565b60405180910390fd5b600260010154600d5410156111b7576040517f08c379a00000000000000000000000000000000000000000000000000000000081526004016111ae906123dd565b60405180910390fd5b600f60019054906101000a900460ff1615611207576040517f08c379a00000000000000000000000000000000000000000000000000000000081526004016111fe906127ca565b60405180910390fd5b60006064600d5460026008015461121e9190612493565b6112289190612504565b90506001600f60016101000a81548160ff02191690831515021790555061124d6110ee565b73ffffffffffffffffffffffffffffffffffffffff166108fc829081150290604051600060405180830381858888f19350505050158015611292573d6000803e3d6000fd5b50600260000160009054906101000a900473ffffffffffffffffffffffffffffffffffffffff1673ffffffffffffffffffffffffffffffffffffffff166112d76110ee565b73ffffffffffffffffffffffffffffffffffffffff167fa95e69983c44f17474cba286953deb119463b9f5cb8cfde4fd709df3660266f78360405161131c9190612019565b60405180910390a350565b600f60009054906101000a900460ff1681565b600260090154421015611382576040517f08c379a00000000000000000000000000000000000000000000000000000000081526004016113799061285c565b60405180910390fd5b6002600a01544211156113ca576040517f08c379a00000000000000000000000000000000000000000000000000000000081526004016113c1906128ee565b60405180910390fd5b600260050154341015611412576040517f08c379a000000000000000000000000000000000000000000000000000000000815260040161140990612980565b60405180910390fd5b60026006015434111561145a576040517f08c379a000000000000000000000000000000000000000000000000000000000815260040161145190612a12565b60405180910390fd5b600280015434600d5461146d9190612155565b11156114ae576040517f08c379a00000000000000000000000000000000000000000000000000000000081526004016114a590612aa4565b60405180910390fd5b60026006015434601060003373ffffffffffffffffffffffffffffffffffffffff1673ffffffffffffffffffffffffffffffffffffffff168152602001908152602001600020546114ff9190612155565b1115611540576040517f08c379a000000000000000000000000000000000000000000000000000000000815260040161153790612b36565b60405180910390fd5b34600d60008282546115529190612155565b925050819055506001600e600082825461156c9190612155565b9250508190555034601060003373ffffffffffffffffffffffffffffffffffffffff1673ffffffffffffffffffffffffffffffffffffffff16815260200190815260200160002060008282546115c29190612155565b92505081905550600260000160009054906101000a900473ffffffffffffffffffffffffffffffffffffffff1673ffffffffffffffffffffffffffffffffffffffff163373ffffffffffffffffffffffffffffffffffffffff167f9b24bd0884170cbce51f9f00df6b3f9aed2231e4086241d1d04687b42afdf7b93460405161164b9190612019565b60405180910390a3565b61165d611ca0565b6002600a01544210156116a5576040517f08c379a000000000000000000000000000000000000000000000000000000000815260040161169c90612738565b60405180910390fd5b80600f60176101000a81548160ff02191690831515021790555050565b6116ca611d4a565b6002600a0154421015611712576040517f08c379a00000000000000000000000000000000000000000000000000000000081526004016117099061234b565b60405180910390fd5b600260010154600d541061175b576040517f08c379a000000000000000000000000000000000000000000000000000000000815260040161175290612bc8565b60405180910390fd5b6000601160003373ffffffffffffffffffffffffffffffffffffffff1673ffffffffffffffffffffffffffffffffffffffff16815260200190815260200160002054146117dd576040517f08c379a00000000000000000000000000000000000000000000000000000000081526004016117d4906126cc565b60405180910390fd5b6000601060003373ffffffffffffffffffffffffffffffffffffffff1673ffffffffffffffffffffffffffffffffffffffff16815260200190815260200160002054905080601160003373ffffffffffffffffffffffffffffffffffffffff1673ffffffffffffffffffffffffffffffffffffffff168152602001908152602001600020819055503373ffffffffffffffffffffffffffffffffffffffff166108fc829081150290604051600060405180830381858888f193505050501580156118ab573d6000803e3d6000fd5b50600260000160009054906101000a900473ffffffffffffffffffffffffffffffffffffffff1673ffffffffffffffffffffffffffffffffffffffff163373ffffffffffffffffffffffffffffffffffffffff167ff40cc8c1a1d17359049ba500cfc894596a692cffc9d03943cd92ec2e159cf6ae8360405161192e9190612019565b60405180910390a35061193f611d90565b565b600f60029054906101000a900473ffffffffffffffffffffffffffffffffffffffff1681565b60116020528060005260406000206000915090505481565b6002600a01544210156119c7576040517f08c379a00000000000000000000000000000000000000000000000000000000081526004016119be90612738565b60405180910390fd5b601460009054906101000a900473ffffffffffffffffffffffffffffffffffffffff1673ffffffffffffffffffffffffffffffffffffffff163373ffffffffffffffffffffffffffffffffffffffff1614611a57576040517f08c379a0000000000000000000000000000000000000000000000000000000008152600401611a4e90612738565b60405180910390fd5b3373ffffffffffffffffffffffffffffffffffffffff166108fc829081150290604051600060405180830381858888f19350505050158015611a9d573d6000803e3d6000fd5b5050565b6002600a0154421015611ae9576040517f08c379a0000000000000000000000000000000000000000000000000000000008152600401611ae090612738565b60405180910390fd5b601460009054906101000a900473ffffffffffffffffffffffffffffffffffffffff1673ffffffffffffffffffffffffffffffffffffffff163373ffffffffffffffffffffffffffffffffffffffff1614611b79576040517f08c379a0000000000000000000000000000000000000000000000000000000008152600401611b7090612738565b60405180910390fd5b8173ffffffffffffffffffffffffffffffffffffffff1663a9059cbb33836040518363ffffffff1660e01b8152600401611bb492919061226e565b6020604051808303816000875af1158015611bd3573d6000803e3d6000fd5b505050506040513d601f19601f82011682018060405250810190611bf791906122ac565b505050565b60106020528060005260406000206000915090505481565b600e5481565b611c22611ca0565b600073ffffffffffffffffffffffffffffffffffffffff168173ffffffffffffffffffffffffffffffffffffffff1603611c945760006040517f1e4fbdf7000000000000000000000000000000000000000000000000000000008152600401611c8b9190611ffe565b60405180910390fd5b611c9d81611d99565b50565b611ca8611e5d565b73ffffffffffffffffffffffffffffffffffffffff16611cc66110ee565b73ffffffffffffffffffffffffffffffffffffffff1614611d2557611ce9611e5d565b6040517f118cdaa7000000000000000000000000000000000000000000000000000000008152600401611d1c9190611ffe565b60405180910390fd5b565b60008173ffffffffffffffffffffffffffffffffffffffff1660001b9050919050565b600260015403611d86576040517f3ee5aeb500000000000000000000000000000000000000000000000000000000815260040160405180910390fd5b6002600181905550565b60018081905550565b60008060009054906101000a900473ffffffffffffffffffffffffffffffffffffffff169050816000806101000a81548173ffffffffffffffffffffffffffffffffffffffff021916908373ffffffffffffffffffffffffffffffffffffffff1602179055508173ffffffffffffffffffffffffffffffffffffffff168173ffffffffffffffffffffffffffffffffffffffff167f8be0079c531659141344cd1fd0a4f28419497f9722a3daafe3b4186f6b6457e060405160405180910390a35050565b600033905090565b60008115159050919050565b611e7a81611e65565b82525050565b6000602082019050611e956000830184611e71565b92915050565b600080fd5b611ea981611e65565b8114611eb457600080fd5b50565b600081359050611ec681611ea0565b92915050565b600060208284031215611ee257611ee1611e9b565b5b6000611ef084828501611eb7565b91505092915050565b600073ffffffffffffffffffffffffffffffffffffffff82169050919050565b6000611f2482611ef9565b9050919050565b611f3481611f19565b82525050565b6000819050919050565b611f4d81611f3a565b82525050565b600061016082019050611f69600083018e611f2b565b611f76602083018d611f44565b611f83604083018c611f44565b611f90606083018b611f44565b611f9d608083018a611f44565b611faa60a0830189611f44565b611fb760c0830188611f44565b611fc460e0830187611f44565b611fd2610100830186611f44565b611fe0610120830185611f44565b611fee610140830184611f44565b9c9b505050505050505050505050565b60006020820190506120136000830184611f2b565b92915050565b600060208201905061202e6000830184611f44565b92915050565b61203d81611f19565b811461204857600080fd5b50565b60008135905061205a81612034565b92915050565b60006020828403121561207657612075611e9b565b5b60006120848482850161204b565b91505092915050565b61209681611f3a565b81146120a157600080fd5b50565b6000813590506120b38161208d565b92915050565b6000602082840312156120cf576120ce611e9b565b5b60006120dd848285016120a4565b91505092915050565b600080604083850312156120fd576120fc611e9b565b5b600061210b8582860161204b565b925050602061211c858286016120a4565b9150509250929050565b7f4e487b7100000000000000000000000000000000000000000000000000000000600052601160045260246000fd5b600061216082611f3a565b915061216b83611f3a565b925082820190508082111561218357612182612126565b5b92915050565b600082825260208201905092915050565b7f546872757374706164466169724c61756e63683a204c6f636b20706572696f6460008201527f206e6f74206f7665722079657400000000000000000000000000000000000000602082015250565b60006121f6602d83612189565b91506122018261219a565b604082019050919050565b60006020820190508181036000830152612225816121e9565b9050919050565b60008151905061223b8161208d565b92915050565b60006020828403121561225757612256611e9b565b5b60006122658482850161222c565b91505092915050565b60006040820190506122836000830185611f2b565b6122906020830184611f44565b9392505050565b6000815190506122a681611ea0565b92915050565b6000602082840312156122c2576122c1611e9b565b5b60006122d084828501612297565b91505092915050565b7f546872757374706164466169724c61756e63683a2073616c6520686173206e6f60008201527f7420656e64656420796574000000000000000000000000000000000000000000602082015250565b6000612335602b83612189565b9150612340826122d9565b604082019050919050565b6000602082019050818103600083015261236481612328565b9050919050565b7f546872757374706164466169724c61756e63683a20736f667420636170206e6f60008201527f7420726561636865640000000000000000000000000000000000000000000000602082015250565b60006123c7602983612189565b91506123d28261236b565b604082019050919050565b600060208201905081810360008301526123f6816123ba565b9050919050565b6000819050919050565b6000612412826123fd565b9050919050565b61242281612407565b82525050565b600060408201905061243d6000830185612419565b61244a6020830184612419565b9392505050565b60008151905061246081612034565b92915050565b60006020828403121561247c5761247b611e9b565b5b600061248a84828501612451565b91505092915050565b600061249e82611f3a565b91506124a983611f3a565b92508282026124b781611f3a565b915082820484148315176124ce576124cd612126565b5b5092915050565b7f4e487b7100000000000000000000000000000000000000000000000000000000600052601260045260246000fd5b600061250f82611f3a565b915061251a83611f3a565b92508261252a576125296124d5565b5b828204905092915050565b6000819050919050565b6000819050919050565b600061256461255f61255a84612535565b61253f565b611f3a565b9050919050565b61257481612549565b82525050565b600061012082019050612590600083018c611f2b565b61259d602083018b611f2b565b6125aa604083018a611e71565b6125b76060830189611f44565b6125c46080830188611f44565b6125d160a083018761256b565b6125de60c083018661256b565b6125eb60e0830185611f2b565b6125f9610100830184611f44565b9a9950505050505050505050565b6000806000606084860312156126205761261f611e9b565b5b600061262e8682870161222c565b935050602061263f8682870161222c565b92505060406126508682870161222c565b9150509250925092565b7f546872757374706164466169724c61756e63683a20746f6b656e7320616c726560008201527f61647920636c61696d6564000000000000000000000000000000000000000000602082015250565b60006126b6602b83612189565b91506126c18261265a565b604082019050919050565b600060208201905081810360008301526126e5816126a9565b9050919050565b7f4e6f7420617574686f72697a6564000000000000000000000000000000000000600082015250565b6000612722600e83612189565b915061272d826126ec565b602082019050919050565b6000602082019050818103600083015261275181612715565b9050919050565b7f546872757374706164466169724c61756e63683a207465616d20746f6b656e7360008201527f20616c726561647920636c61696d656400000000000000000000000000000000602082015250565b60006127b4603083612189565b91506127bf82612758565b604082019050919050565b600060208201905081810360008301526127e3816127a7565b9050919050565b7f546872757374706164466169724c61756e63683a2073616c6520686173206e6f60008201527f7420737461727465642079657400000000000000000000000000000000000000602082015250565b6000612846602d83612189565b9150612851826127ea565b604082019050919050565b6000602082019050818103600083015261287581612839565b9050919050565b7f546872757374706164466169724c61756e63683a2073616c652068617320656e60008201527f6465640000000000000000000000000000000000000000000000000000000000602082015250565b60006128d8602383612189565b91506128e38261287c565b604082019050919050565b60006020820190508181036000830152612907816128cb565b9050919050565b7f546872757374706164466169724c61756e63683a20616d6f756e74206973206c60008201527f657373207468616e206d696e696d756d20627579000000000000000000000000602082015250565b600061296a603483612189565b91506129758261290e565b604082019050919050565b600060208201905081810360008301526129998161295d565b9050919050565b7f546872757374706164466169724c61756e63683a20616d6f756e74206973206d60008201527f6f7265207468616e206d6178696d756d20627579000000000000000000000000602082015250565b60006129fc603483612189565b9150612a07826129a0565b604082019050919050565b60006020820190508181036000830152612a2b816129ef565b9050919050565b7f546872757374706164466169724c61756e63683a20686172642063617020726560008201527f6163686564000000000000000000000000000000000000000000000000000000602082015250565b6000612a8e602583612189565b9150612a9982612a32565b604082019050919050565b60006020820190508181036000830152612abd81612a81565b9050919050565b7f546872757374706164466169724c61756e63683a2077616c6c6574206861732060008201527f72656163686564206d6178696d756d2062757900000000000000000000000000602082015250565b6000612b20603383612189565b9150612b2b82612ac4565b604082019050919050565b60006020820190508181036000830152612b4f81612b13565b9050919050565b7f546872757374706164466169724c61756e63683a20736f66742063617020726560008201527f6163686564000000000000000000000000000000000000000000000000000000602082015250565b6000612bb2602583612189565b9150612bbd82612b56565b604082019050919050565b60006020820190508181036000830152612be181612ba5565b905091905056fea264697066735822122002d868a0a8e3a59e44e8a4cffc913f6dbf1855334eb37048284fa75f7c8a63d864736f6c63430008180033a2646970667358221220be3d5d34ccf0dfddfc7120dd8cacacdc3550773b027c24673c7b8a783452c48364736f6c63430008180033",
  "linkReferences": {},
  "deployedLinkReferences": {}
}