{
  "_format": "hh-sol-artifact-1",
  "contractName": "ThrustpadStaker",
  "sourceName": "contracts/staking/ThrustpadStaker.sol",
  "abi": [
    {
      "inputs": [
        {
          "components": [
            {
              "internalType": "address",
              "name": "token",
              "type": "address"
            },
            {
              "internalType": "uint256",
              "name": "startDate",
              "type": "uint256"
            },
            {
              "internalType": "uint256",
              "name": "endDate",
              "type": "uint256"
            },
            {
              "internalType": "uint256",
              "name": "hardCap",
              "type": "uint256"
            },
            {
              "internalType": "uint256",
              "name": "minTokenStake",
              "type": "uint256"
            },
            {
              "internalType": "uint256",
              "name": "apyEdu",
              "type": "uint256"
            },
            {
              "internalType": "uint256",
              "name": "apyToken",
              "type": "uint256"
            },
            {
              "internalType": "uint256",
              "name": "rewardPoolToken",
              "type": "uint256"
            },
            {
              "internalType": "uint256",
              "name": "rewardPoolEDU",
              "type": "uint256"
            },
            {
              "internalType": "uint256",
              "name": "tokenToEDURate",
              "type": "uint256"
            }
          ],
          "internalType": "struct stakeOption",
          "name": "_option",
          "type": "tuple"
        }
      ],
      "stateMutability": "payable",
      "type": "constructor"
    },
    {
      "inputs": [],
      "name": "EnforcedPause",
      "type": "error"
    },
    {
      "inputs": [],
      "name": "ExpectedPause",
      "type": "error"
    },
    {
      "inputs": [
        {
          "internalType": "address",
          "name": "owner",
          "type": "address"
        }
      ],
      "name": "OwnableInvalidOwner",
      "type": "error"
    },
    {
      "inputs": [
        {
          "internalType": "address",
          "name": "account",
          "type": "address"
        }
      ],
      "name": "OwnableUnauthorizedAccount",
      "type": "error"
    },
    {
      "inputs": [],
      "name": "ReentrancyGuardReentrantCall",
      "type": "error"
    },
    {
      "anonymous": false,
      "inputs": [
        {
          "indexed": false,
          "internalType": "uint256",
          "name": "eduAPY",
          "type": "uint256"
        },
        {
          "indexed": false,
          "internalType": "uint256",
          "name": "tokenAPY",
          "type": "uint256"
        }
      ],
      "name": "APYUpdated",
      "type": "event"
    },
    {
      "anonymous": false,
      "inputs": [
        {
          "indexed": true,
          "internalType": "address",
          "name": "user",
          "type": "address"
        },
        {
          "indexed": false,
          "internalType": "uint256",
          "name": "edu",
          "type": "uint256"
        },
        {
          "indexed": false,
          "internalType": "uint256",
          "name": "token",
          "type": "uint256"
        }
      ],
      "name": "ClaimedRewards",
      "type": "event"
    },
    {
      "anonymous": false,
      "inputs": [
        {
          "indexed": false,
          "internalType": "uint256",
          "name": "amount",
          "type": "uint256"
        }
      ],
      "name": "MinimumStakeUpdated",
      "type": "event"
    },
    {
      "anonymous": false,
      "inputs": [
        {
          "indexed": true,
          "internalType": "address",
          "name": "previousOwner",
          "type": "address"
        },
        {
          "indexed": true,
          "internalType": "address",
          "name": "newOwner",
          "type": "address"
        }
      ],
      "name": "OwnershipTransferred",
      "type": "event"
    },
    {
      "anonymous": false,
      "inputs": [
        {
          "indexed": false,
          "internalType": "address",
          "name": "account",
          "type": "address"
        }
      ],
      "name": "Paused",
      "type": "event"
    },
    {
      "anonymous": false,
      "inputs": [
        {
          "indexed": false,
          "internalType": "uint256",
          "name": "ethPrice",
          "type": "uint256"
        },
        {
          "indexed": false,
          "internalType": "uint256",
          "name": "TokenPrice",
          "type": "uint256"
        }
      ],
      "name": "PricesUpdated",
      "type": "event"
    },
    {
      "anonymous": false,
      "inputs": [
        {
          "indexed": true,
          "internalType": "address",
          "name": "user",
          "type": "address"
        },
        {
          "indexed": false,
          "internalType": "uint256",
          "name": "amount",
          "type": "uint256"
        },
        {
          "indexed": false,
          "internalType": "uint256",
          "name": "period",
          "type": "uint256"
        },
        {
          "indexed": false,
          "internalType": "uint256",
          "name": "rewardEDU",
          "type": "uint256"
        },
        {
          "indexed": false,
          "internalType": "uint256",
          "name": "rewardToken",
          "type": "uint256"
        }
      ],
      "name": "Staked",
      "type": "event"
    },
    {
      "anonymous": false,
      "inputs": [
        {
          "indexed": false,
          "internalType": "address",
          "name": "account",
          "type": "address"
        }
      ],
      "name": "Unpaused",
      "type": "event"
    },
    {
      "anonymous": false,
      "inputs": [
        {
          "indexed": true,
          "internalType": "address",
          "name": "user",
          "type": "address"
        },
        {
          "indexed": false,
          "internalType": "uint256",
          "name": "amount",
          "type": "uint256"
        },
        {
          "indexed": false,
          "internalType": "uint256",
          "name": "rewardEDU",
          "type": "uint256"
        },
        {
          "indexed": false,
          "internalType": "uint256",
          "name": "rewardToken",
          "type": "uint256"
        }
      ],
      "name": "Unstaked",
      "type": "event"
    },
    {
      "inputs": [
        {
          "internalType": "uint256",
          "name": "stakeAmt",
          "type": "uint256"
        },
        {
          "internalType": "uint256",
          "name": "period",
          "type": "uint256"
        }
      ],
      "name": "calculateRewards",
      "outputs": [
        {
          "internalType": "uint256",
          "name": "eduRewardInUsd",
          "type": "uint256"
        },
        {
          "internalType": "uint256",
          "name": "tokenReward",
          "type": "uint256"
        }
      ],
      "stateMutability": "view",
      "type": "function"
    },
    {
      "inputs": [
        {
          "internalType": "uint256",
          "name": "stakeIndex",
          "type": "uint256"
        }
      ],
      "name": "claimAvailableRewards",
      "outputs": [],
      "stateMutability": "nonpayable",
      "type": "function"
    },
    {
      "inputs": [
        {
          "internalType": "uint256",
          "name": "amount",
          "type": "uint256"
        },
        {
          "internalType": "enum ThrustpadStaker.Period",
          "name": "period",
          "type": "uint8"
        }
      ],
      "name": "directStake",
      "outputs": [
        {
          "internalType": "uint256",
          "name": "stakeIndex",
          "type": "uint256"
        }
      ],
      "stateMutability": "payable",
      "type": "function"
    },
    {
      "inputs": [
        {
          "internalType": "address",
          "name": "addr",
          "type": "address"
        }
      ],
      "name": "getClaimableRewards",
      "outputs": [
        {
          "components": [
            {
              "internalType": "uint256",
              "name": "totalEduReward",
              "type": "uint256"
            },
            {
              "internalType": "uint256",
              "name": "totalTokenReward",
              "type": "uint256"
            },
            {
              "internalType": "uint256",
              "name": "edu",
              "type": "uint256"
            },
            {
              "internalType": "uint256",
              "name": "token",
              "type": "uint256"
            },
            {
              "internalType": "uint256",
              "name": "index",
              "type": "uint256"
            }
          ],
          "internalType": "struct ThrustpadStaker.ClaimableReward[]",
          "name": "claimableRewards",
          "type": "tuple[]"
        }
      ],
      "stateMutability": "view",
      "type": "function"
    },
    {
      "inputs": [
        {
          "internalType": "address",
          "name": "addr",
          "type": "address"
        }
      ],
      "name": "getStakes",
      "outputs": [
        {
          "components": [
            {
              "internalType": "uint256",
              "name": "amount",
              "type": "uint256"
            },
            {
              "internalType": "uint256",
              "name": "start",
              "type": "uint256"
            },
            {
              "internalType": "uint256",
              "name": "end",
              "type": "uint256"
            },
            {
              "internalType": "uint256",
              "name": "rewardEDU",
              "type": "uint256"
            },
            {
              "internalType": "uint256",
              "name": "rewardToken",
              "type": "uint256"
            },
            {
              "internalType": "uint256",
              "name": "period",
              "type": "uint256"
            },
            {
              "internalType": "uint256",
              "name": "claimedEDU",
              "type": "uint256"
            },
            {
              "internalType": "uint256",
              "name": "claimedToken",
              "type": "uint256"
            },
            {
              "internalType": "uint256",
              "name": "priceEDU",
              "type": "uint256"
            },
            {
              "internalType": "uint256",
              "name": "priceToken",
              "type": "uint256"
            },
            {
              "internalType": "address",
              "name": "owner",
              "type": "address"
            },
            {
              "internalType": "bool",
              "name": "unstaked",
              "type": "bool"
            },
            {
              "internalType": "uint256",
              "name": "eduAPY",
              "type": "uint256"
            },
            {
              "internalType": "uint256",
              "name": "tokenAPY",
              "type": "uint256"
            }
          ],
          "internalType": "struct ThrustpadStaker.Stake[]",
          "name": "",
          "type": "tuple[]"
        }
      ],
      "stateMutability": "view",
      "type": "function"
    },
    {
      "inputs": [],
      "name": "option",
      "outputs": [
        {
          "internalType": "address",
          "name": "token",
          "type": "address"
        },
        {
          "internalType": "uint256",
          "name": "startDate",
          "type": "uint256"
        },
        {
          "internalType": "uint256",
          "name": "endDate",
          "type": "uint256"
        },
        {
          "internalType": "uint256",
          "name": "hardCap",
          "type": "uint256"
        },
        {
          "internalType": "uint256",
          "name": "minTokenStake",
          "type": "uint256"
        },
        {
          "internalType": "uint256",
          "name": "apyEdu",
          "type": "uint256"
        },
        {
          "internalType": "uint256",
          "name": "apyToken",
          "type": "uint256"
        },
        {
          "internalType": "uint256",
          "name": "rewardPoolToken",
          "type": "uint256"
        },
        {
          "internalType": "uint256",
          "name": "rewardPoolEDU",
          "type": "uint256"
        },
        {
          "internalType": "uint256",
          "name": "tokenToEDURate",
          "type": "uint256"
        }
      ],
      "stateMutability": "view",
      "type": "function"
    },
    {
      "inputs": [],
      "name": "owner",
      "outputs": [
        {
          "internalType": "address",
          "name": "",
          "type": "address"
        }
      ],
      "stateMutability": "view",
      "type": "function"
    },
    {
      "inputs": [],
      "name": "pause",
      "outputs": [],
      "stateMutability": "nonpayable",
      "type": "function"
    },
    {
      "inputs": [],
      "name": "paused",
      "outputs": [
        {
          "internalType": "bool",
          "name": "",
          "type": "bool"
        }
      ],
      "stateMutability": "view",
      "type": "function"
    },
    {
      "inputs": [],
      "name": "renounceOwnership",
      "outputs": [],
      "stateMutability": "nonpayable",
      "type": "function"
    },
    {
      "inputs": [],
      "name": "token",
      "outputs": [
        {
          "internalType": "contract IERC20",
          "name": "",
          "type": "address"
        }
      ],
      "stateMutability": "view",
      "type": "function"
    },
    {
      "inputs": [],
      "name": "totalRewardsEDU",
      "outputs": [
        {
          "internalType": "uint256",
          "name": "",
          "type": "uint256"
        }
      ],
      "stateMutability": "view",
      "type": "function"
    },
    {
      "inputs": [],
      "name": "totalRewardsToken",
      "outputs": [
        {
          "internalType": "uint256",
          "name": "",
          "type": "uint256"
        }
      ],
      "stateMutability": "view",
      "type": "function"
    },
    {
      "inputs": [],
      "name": "totalStaked",
      "outputs": [
        {
          "internalType": "uint256",
          "name": "",
          "type": "uint256"
        }
      ],
      "stateMutability": "view",
      "type": "function"
    },
    {
      "inputs": [],
      "name": "totalStakes",
      "outputs": [
        {
          "internalType": "uint256",
          "name": "",
          "type": "uint256"
        }
      ],
      "stateMutability": "view",
      "type": "function"
    },
    {
      "inputs": [
        {
          "internalType": "address",
          "name": "newOwner",
          "type": "address"
        }
      ],
      "name": "transferOwnership",
      "outputs": [],
      "stateMutability": "nonpayable",
      "type": "function"
    },
    {
      "inputs": [],
      "name": "unpause",
      "outputs": [],
      "stateMutability": "nonpayable",
      "type": "function"
    },
    {
      "inputs": [
        {
          "internalType": "uint256",
          "name": "stakeIndex",
          "type": "uint256"
        }
      ],
      "name": "unstake",
      "outputs": [],
      "stateMutability": "nonpayable",
      "type": "function"
    },
    {
      "inputs": [
        {
          "internalType": "uint256",
          "name": "amount",
          "type": "uint256"
        }
      ],
      "name": "updateMinTokenStake",
      "outputs": [],
      "stateMutability": "nonpayable",
      "type": "function"
    },
    {
      "inputs": [
        {
          "internalType": "address",
          "name": "",
          "type": "address"
        },
        {
          "internalType": "uint256",
          "name": "",
          "type": "uint256"
        }
      ],
      "name": "userStakes",
      "outputs": [
        {
          "internalType": "uint256",
          "name": "",
          "type": "uint256"
        }
      ],
      "stateMutability": "view",
      "type": "function"
    },
    {
      "inputs": [
        {
          "internalType": "address",
          "name": "recipient",
          "type": "address"
        },
        {
          "internalType": "uint256",
          "name": "amount",
          "type": "uint256"
        }
      ],
      "name": "withdrawEDU",
      "outputs": [],
      "stateMutability": "nonpayable",
      "type": "function"
    },
    {
      "inputs": [
        {
          "internalType": "address",
          "name": "recipient",
          "type": "address"
        },
        {
          "internalType": "uint256",
          "name": "amount",
          "type": "uint256"
        }
      ],
      "name": "withdrawToken",
      "outputs": [],
      "stateMutability": "nonpayable",
      "type": "function"
    },
    {
      "stateMutability": "payable",
      "type": "receive"
    }
  ],
  "bytecode": "0x60806040526040516200337b3803806200337b8339818101604052810190620000299190620004e3565b32600073ffffffffffffffffffffffffffffffffffffffff168173ffffffffffffffffffffffffffffffffffffffff16036200009f5760006040517f1e4fbdf700000000000000000000000000000000000000000000000000000000815260040162000096919062000527565b60405180910390fd5b620000b081620001c760201b60201c565b5060008060146101000a81548160ff0219169083151502179055506001808190555080600960008201518160000160006101000a81548173ffffffffffffffffffffffffffffffffffffffff021916908373ffffffffffffffffffffffffffffffffffffffff1602179055506020820151816001015560408201518160020155606082015181600301556080820151816004015560a0820151816005015560c0820151816006015560e08201518160070155610100820151816008015561012082015181600901559050508060000151600260006101000a81548173ffffffffffffffffffffffffffffffffffffffff021916908373ffffffffffffffffffffffffffffffffffffffff1602179055505062000544565b60008060009054906101000a900473ffffffffffffffffffffffffffffffffffffffff169050816000806101000a81548173ffffffffffffffffffffffffffffffffffffffff021916908373ffffffffffffffffffffffffffffffffffffffff1602179055508173ffffffffffffffffffffffffffffffffffffffff168173ffffffffffffffffffffffffffffffffffffffff167f8be0079c531659141344cd1fd0a4f28419497f9722a3daafe3b4186f6b6457e060405160405180910390a35050565b6000604051905090565b600080fd5b600080fd5b6000601f19601f8301169050919050565b7f4e487b7100000000000000000000000000000000000000000000000000000000600052604160045260246000fd5b620002ea826200029f565b810181811067ffffffffffffffff821117156200030c576200030b620002b0565b5b80604052505050565b6000620003216200028b565b90506200032f8282620002df565b919050565b600073ffffffffffffffffffffffffffffffffffffffff82169050919050565b6000620003618262000334565b9050919050565b620003738162000354565b81146200037f57600080fd5b50565b600081519050620003938162000368565b92915050565b6000819050919050565b620003ae8162000399565b8114620003ba57600080fd5b50565b600081519050620003ce81620003a3565b92915050565b60006101408284031215620003ee57620003ed6200029a565b5b620003fb61014062000315565b905060006200040d8482850162000382565b60008301525060206200042384828501620003bd565b60208301525060406200043984828501620003bd565b60408301525060606200044f84828501620003bd565b60608301525060806200046584828501620003bd565b60808301525060a06200047b84828501620003bd565b60a08301525060c06200049184828501620003bd565b60c08301525060e0620004a784828501620003bd565b60e083015250610100620004be84828501620003bd565b61010083015250610120620004d684828501620003bd565b6101208301525092915050565b60006101408284031215620004fd57620004fc62000295565b5b60006200050d84828501620003d4565b91505092915050565b620005218162000354565b82525050565b60006020820190506200053e600083018462000516565b92915050565b612e2780620005546000396000f3fe6080604052600436106101395760003560e01c806378bc1d3b116100ab5780639e281a981161006f5780639e281a98146103f8578063b5d5b5fa14610421578063bf9befb11461045e578063d216b0af14610489578063f2fde38b146104b2578063fc0c546a146104db57610140565b806378bc1d3b1461031e5780637ba6f4581461034e578063817b1cd21461038b5780638456cb59146103b65780638da5cb5b146103cd57610140565b80633ebbcd80116100fd5780633ebbcd80146102315780633f4ba83a1461025c578063423362021461027357806348a887061461029e5780635c975abb146102dc578063715018a61461030757610140565b8063010035af1461014557806302b9f127146101795780631303d4fb146101a25780632e17de78146101cb578063308e401e146101f457610140565b3661014057005b600080fd5b34801561015157600080fd5b5061015a610506565b6040516101709a999897969594939291906120e6565b60405180910390f35b34801561018557600080fd5b506101a0600480360381019061019b91906121df565b610568565b005b3480156101ae57600080fd5b506101c960048036038101906101c4919061221f565b6105bb565b005b3480156101d757600080fd5b506101f260048036038101906101ed919061221f565b610a71565b005b34801561020057600080fd5b5061021b6004803603810190610216919061224c565b610d59565b604051610228919061239f565b60405180910390f35b34801561023d57600080fd5b5061024661102e565b60405161025391906123c1565b60405180910390f35b34801561026857600080fd5b50610271611034565b005b34801561027f57600080fd5b50610288611046565b60405161029591906123c1565b60405180910390f35b3480156102aa57600080fd5b506102c560048036038101906102c091906123dc565b61104c565b6040516102d392919061241c565b60405180910390f35b3480156102e857600080fd5b506102f1611117565b6040516102fe9190612460565b60405180910390f35b34801561031357600080fd5b5061031c61112d565b005b610338600480360381019061033391906124a0565b611141565b60405161034591906123c1565b60405180910390f35b34801561035a57600080fd5b506103756004803603810190610370919061224c565b6112de565b60405161038291906126ce565b60405180910390f35b34801561039757600080fd5b506103a061153e565b6040516103ad91906123c1565b60405180910390f35b3480156103c257600080fd5b506103cb611544565b005b3480156103d957600080fd5b506103e2611556565b6040516103ef91906126f0565b60405180910390f35b34801561040457600080fd5b5061041f600480360381019061041a91906121df565b61157f565b005b34801561042d57600080fd5b50610448600480360381019061044391906121df565b61166a565b60405161045591906123c1565b60405180910390f35b34801561046a57600080fd5b5061047361169b565b60405161048091906123c1565b60405180910390f35b34801561049557600080fd5b506104b060048036038101906104ab919061221f565b6116a1565b005b3480156104be57600080fd5b506104d960048036038101906104d4919061224c565b6116ed565b005b3480156104e757600080fd5b506104f0611773565b6040516104fd919061276a565b60405180910390f35b60098060000160009054906101000a900473ffffffffffffffffffffffffffffffffffffffff1690806001015490806002015490806003015490806004015490806005015490806006015490806007015490806008015490806009015490508a565b610570611799565b8173ffffffffffffffffffffffffffffffffffffffff166108fc829081150290604051600060405180830381858888f193505050501580156105b6573d6000803e3d6000fd5b505050565b6105c3611820565b6105cb611866565b3373ffffffffffffffffffffffffffffffffffffffff16600482815481106105f6576105f5612785565b5b90600052602060002090600d0201600a0160009054906101000a900473ffffffffffffffffffffffffffffffffffffffff1673ffffffffffffffffffffffffffffffffffffffff161461067e576040517f08c379a000000000000000000000000000000000000000000000000000000000815260040161067590612811565b60405180910390fd5b42600960010154106106c5576040517f08c379a00000000000000000000000000000000000000000000000000000000081526004016106bc9061287d565b60405180910390fd5b6000600482815481106106db576106da612785565b5b90600052602060002090600d0201905080600a0160149054906101000a900460ff161561073d576040517f08c379a0000000000000000000000000000000000000000000000000000000008152600401610734906128e9565b60405180910390fd5b600061083e82604051806101c001604052908160008201548152602001600182015481526020016002820154815260200160038201548152602001600482015481526020016005820154815260200160068201548152602001600782015481526020016008820154815260200160098201548152602001600a820160009054906101000a900473ffffffffffffffffffffffffffffffffffffffff1673ffffffffffffffffffffffffffffffffffffffff1673ffffffffffffffffffffffffffffffffffffffff168152602001600a820160149054906101000a900460ff16151515158152602001600b8201548152602001600c82015481525050846118a7565b905081600601548160400151118061085d575081600701548160600151115b61089c576040517f08c379a000000000000000000000000000000000000000000000000000000000815260040161089390612955565b60405180910390fd5b60008160400151905060008260600151905082604001518460060160008282546108c691906129a4565b9250508190555082606001518460070160008282546108e591906129a4565b925050819055503373ffffffffffffffffffffffffffffffffffffffff166108fc839081150290604051600060405180830381858888f19350505050158015610932573d6000803e3d6000fd5b50600260009054906101000a900473ffffffffffffffffffffffffffffffffffffffff1673ffffffffffffffffffffffffffffffffffffffff1663a9059cbb33836040518363ffffffff1660e01b81526004016109909291906129d8565b6020604051808303816000875af11580156109af573d6000803e3d6000fd5b505050506040513d601f19601f820116820180604052508101906109d39190612a2d565b610a12576040517f08c379a0000000000000000000000000000000000000000000000000000000008152600401610a0990612aa6565b60405180910390fd5b3373ffffffffffffffffffffffffffffffffffffffff167f70de20a533702af05c8faf1637846c4586a021bbc71b6928b089b6d555e4fbc28383604051610a5a92919061241c565b60405180910390a250505050610a6e6119e0565b50565b610a79611820565b610a81611866565b600060048281548110610a9757610a96612785565b5b90600052602060002090600d0201905080600a0160149054906101000a900460ff1615610af9576040517f08c379a0000000000000000000000000000000000000000000000000000000008152600401610af0906128e9565b60405180910390fd5b42816002015410610b3f576040517f08c379a0000000000000000000000000000000000000000000000000000000008152600401610b3690612b12565b60405180910390fd5b3373ffffffffffffffffffffffffffffffffffffffff1681600a0160009054906101000a900473ffffffffffffffffffffffffffffffffffffffff1673ffffffffffffffffffffffffffffffffffffffff1614610bd1576040517f08c379a0000000000000000000000000000000000000000000000000000000008152600401610bc890612811565b60405180910390fd5b600181600a0160146101000a81548160ff021916908315150217905550600260009054906101000a900473ffffffffffffffffffffffffffffffffffffffff1673ffffffffffffffffffffffffffffffffffffffff1663a9059cbb3383600001546040518363ffffffff1660e01b8152600401610c4f9291906129d8565b6020604051808303816000875af1158015610c6e573d6000803e3d6000fd5b505050506040513d601f19601f82011682018060405250810190610c929190612a2d565b610cd1576040517f08c379a0000000000000000000000000000000000000000000000000000000008152600401610cc890612aa6565b60405180910390fd5b3373ffffffffffffffffffffffffffffffffffffffff167f204fccf0d92ed8d48f204adb39b2e81e92bad0dedb93f5716ca9478cfb57de00826000015483600601548460030154610d229190612b32565b84600701548560040154610d369190612b32565b604051610d4593929190612b66565b60405180910390a250610d566119e0565b50565b60606000600360008473ffffffffffffffffffffffffffffffffffffffff1673ffffffffffffffffffffffffffffffffffffffff168152602001908152602001600020805480602002602001604051908101604052809291908181526020018280548015610de657602002820191906000526020600020905b815481526020019060010190808311610dd2575b50505050509050805167ffffffffffffffff811115610e0857610e07612b9d565b5b604051908082528060200260200182016040528015610e4157816020015b610e2e611fd6565b815260200190600190039081610e265790505b50915060005b8151811015611027576004828281518110610e6557610e64612785565b5b602002602001015181548110610e7e57610e7d612785565b5b90600052602060002090600d0201600a0160149054906101000a900460ff1661101a5760006004838381518110610eb857610eb7612785565b5b602002602001015181548110610ed157610ed0612785565b5b90600052602060002090600d0201604051806101c001604052908160008201548152602001600182015481526020016002820154815260200160038201548152602001600482015481526020016005820154815260200160068201548152602001600782015481526020016008820154815260200160098201548152602001600a820160009054906101000a900473ffffffffffffffffffffffffffffffffffffffff1673ffffffffffffffffffffffffffffffffffffffff1673ffffffffffffffffffffffffffffffffffffffff168152602001600a820160149054906101000a900460ff16151515158152602001600b8201548152602001600c820154815250509050610ffa81848481518110610fed57610fec612785565b5b60200260200101516118a7565b84838151811061100d5761100c612785565b5b6020026020010181905250505b8080600101915050610e47565b5050919050565b60065481565b61103c611799565b6110446119e9565b565b60075481565b60008060006103e8905060006301e13380858360096005015461106f9190612bcc565b6110799190612bcc565b6110839190612c3d565b905060006301e13380868460096006015461109e9190612bcc565b6110a89190612bcc565b6110b29190612c3d565b905082606482896110c39190612bcc565b6110cd9190612c3d565b6110d79190612c3d565b93506009800154836064848a6110ed9190612bcc565b6110f79190612c3d565b6111019190612c3d565b61110b9190612c3d565b94505050509250929050565b60008060149054906101000a900460ff16905090565b611135611799565b61113f6000611a4b565b565b600061114b611820565b611153611866565b60096001015442101561119b576040517f08c379a00000000000000000000000000000000000000000000000000000000081526004016111929061287d565b60405180910390fd5b6009600201544211156111e3576040517f08c379a00000000000000000000000000000000000000000000000000000000081526004016111da90612cba565b60405180910390fd5b600260009054906101000a900473ffffffffffffffffffffffffffffffffffffffff1673ffffffffffffffffffffffffffffffffffffffff166323b872dd3330866040518463ffffffff1660e01b815260040161124293929190612cda565b6020604051808303816000875af1158015611261573d6000803e3d6000fd5b505050506040513d601f19601f820116820180604052508101906112859190612a2d565b6112c4576040517f08c379a00000000000000000000000000000000000000000000000000000000081526004016112bb90612aa6565b60405180910390fd5b6112ce8383611b0f565b90506112d86119e0565b92915050565b60606000600360008473ffffffffffffffffffffffffffffffffffffffff1673ffffffffffffffffffffffffffffffffffffffff16815260200190815260200160002080548060200260200160405190810160405280929190818152602001828054801561136b57602002820191906000526020600020905b815481526020019060010190808311611357575b505050505090506000815167ffffffffffffffff81111561138f5761138e612b9d565b5b6040519080825280602002602001820160405280156113c857816020015b6113b5612005565b8152602001906001900390816113ad5790505b50905060005b82518110156115335760048382815181106113ec576113eb612785565b5b60200260200101518154811061140557611404612785565b5b90600052602060002090600d0201604051806101c001604052908160008201548152602001600182015481526020016002820154815260200160038201548152602001600482015481526020016005820154815260200160068201548152602001600782015481526020016008820154815260200160098201548152602001600a820160009054906101000a900473ffffffffffffffffffffffffffffffffffffffff1673ffffffffffffffffffffffffffffffffffffffff1673ffffffffffffffffffffffffffffffffffffffff168152602001600a820160149054906101000a900460ff16151515158152602001600b8201548152602001600c8201548152505082828151811061151b5761151a612785565b5b602002602001018190525080806001019150506113ce565b508092505050919050565b60055481565b61154c611799565b611554611e49565b565b60008060009054906101000a900473ffffffffffffffffffffffffffffffffffffffff16905090565b611587611799565b600260009054906101000a900473ffffffffffffffffffffffffffffffffffffffff1673ffffffffffffffffffffffffffffffffffffffff1663a9059cbb83836040518363ffffffff1660e01b81526004016115e49291906129d8565b6020604051808303816000875af1158015611603573d6000803e3d6000fd5b505050506040513d601f19601f820116820180604052508101906116279190612a2d565b611666576040517f08c379a000000000000000000000000000000000000000000000000000000000815260040161165d90612aa6565b60405180910390fd5b5050565b6003602052816000526040600020818154811061168657600080fd5b90600052602060002001600091509150505481565b60085481565b6116a9611799565b806009600401819055507ff4045d7dd317de89564c3f12c35961242ed2a4dce3ae4e7a75847ffa04bb0834816040516116e291906123c1565b60405180910390a150565b6116f5611799565b600073ffffffffffffffffffffffffffffffffffffffff168173ffffffffffffffffffffffffffffffffffffffff16036117675760006040517f1e4fbdf700000000000000000000000000000000000000000000000000000000815260040161175e91906126f0565b60405180910390fd5b61177081611a4b565b50565b600260009054906101000a900473ffffffffffffffffffffffffffffffffffffffff1681565b6117a1611eac565b73ffffffffffffffffffffffffffffffffffffffff166117bf611556565b73ffffffffffffffffffffffffffffffffffffffff161461181e576117e2611eac565b6040517f118cdaa700000000000000000000000000000000000000000000000000000000815260040161181591906126f0565b60405180910390fd5b565b60026001540361185c576040517f3ee5aeb500000000000000000000000000000000000000000000000000000000815260040160405180910390fd5b6002600181905550565b61186e611117565b156118a5576040517fd93c066500000000000000000000000000000000000000000000000000000000815260040160405180910390fd5b565b6118af611fd6565b60006103e8905060008460200151426118c89190612b32565b905060006301e1338082848861018001516118e39190612bcc565b6118ed9190612bcc565b6118f79190612c3d565b905060006301e133808385896101a001516119129190612bcc565b61191c9190612bcc565b6119269190612c3d565b905060006009800154856064858b600001516119429190612bcc565b61194c9190612c3d565b6119569190612c3d565b6119609190612c3d565b90506000856064848b600001516119779190612bcc565b6119819190612c3d565b61198b9190612c3d565b90506040518060a001604052808381526020018281526020018a60c00151846119b49190612b32565b81526020018a60e00151836119c99190612b32565b815260200189815250965050505050505092915050565b60018081905550565b6119f1611eb4565b60008060146101000a81548160ff0219169083151502179055507f5db9ee0a495bf2e6ff9c91a7834c1ba4fdd244a5e8aa4e537bd38aeae4b073aa611a34611eac565b604051611a4191906126f0565b60405180910390a1565b60008060009054906101000a900473ffffffffffffffffffffffffffffffffffffffff169050816000806101000a81548173ffffffffffffffffffffffffffffffffffffffff021916908373ffffffffffffffffffffffffffffffffffffffff1602179055508173ffffffffffffffffffffffffffffffffffffffff168173ffffffffffffffffffffffffffffffffffffffff167f8be0079c531659141344cd1fd0a4f28419497f9722a3daafe3b4186f6b6457e060405160405180910390a35050565b6000600960040154831015611b59576040517f08c379a0000000000000000000000000000000000000000000000000000000008152600401611b5090612d5d565b60405180910390fd5b6000611b6483611ef4565b9050600080611b73868461104c565b9150915060048054905093506004604051806101c001604052808881526020014281526020018542611ba591906129a4565b8152602001848152602001838152602001858152602001600081526020016000815260200160008152602001600081526020013373ffffffffffffffffffffffffffffffffffffffff168152602001600015158152602001600960050154815260200160096006015481525090806001815401808255809150506001900390600052602060002090600d0201600090919091909150600082015181600001556020820151816001015560408201518160020155606082015181600301556080820151816004015560a0820151816005015560c0820151816006015560e082015181600701556101008201518160080155610120820151816009015561014082015181600a0160006101000a81548173ffffffffffffffffffffffffffffffffffffffff021916908373ffffffffffffffffffffffffffffffffffffffff16021790555061016082015181600a0160146101000a81548160ff02191690831515021790555061018082015181600b01556101a082015181600c01555050600360003373ffffffffffffffffffffffffffffffffffffffff1673ffffffffffffffffffffffffffffffffffffffff1681526020019081526020016000208490806001815401808255809150506001900390600052602060002001600090919091909150558560056000828254611d9991906129a4565b925050819055508160066000828254611db291906129a4565b925050819055508060076000828254611dcb91906129a4565b92505081905550600160086000828254611de591906129a4565b925050819055503373ffffffffffffffffffffffffffffffffffffffff167f9cfd25589d1eb8ad71e342a86a8524e83522e3936c0803048c08f6d9ad974f4087858585604051611e389493929190612d7d565b60405180910390a250505092915050565b611e51611866565b6001600060146101000a81548160ff0219169083151502179055507f62e78cea01bee320cd4e420270b5ea74000d11b0c9f74754ebdbfc544b05a258611e95611eac565b604051611ea291906126f0565b60405180910390a1565b600033905090565b611ebc611117565b611ef2576040517f8dfc202b00000000000000000000000000000000000000000000000000000000815260040160405180910390fd5b565b6000806003811115611f0957611f08612dc2565b5b826003811115611f1c57611f1b612dc2565b5b03611f2c5762278d009050611fd1565b60016003811115611f4057611f3f612dc2565b5b826003811115611f5357611f52612dc2565b5b03611f6357623b53809050611fd1565b60026003811115611f7757611f76612dc2565b5b826003811115611f8a57611f89612dc2565b5b03611f9a57624f1a009050611fd1565b600380811115611fad57611fac612dc2565b5b826003811115611fc057611fbf612dc2565b5b03611fd0576276a7009050611fd1565b5b919050565b6040518060a0016040528060008152602001600081526020016000815260200160008152602001600081525090565b604051806101c0016040528060008152602001600081526020016000815260200160008152602001600081526020016000815260200160008152602001600081526020016000815260200160008152602001600073ffffffffffffffffffffffffffffffffffffffff16815260200160001515815260200160008152602001600081525090565b600073ffffffffffffffffffffffffffffffffffffffff82169050919050565b60006120b78261208c565b9050919050565b6120c7816120ac565b82525050565b6000819050919050565b6120e0816120cd565b82525050565b6000610140820190506120fc600083018d6120be565b612109602083018c6120d7565b612116604083018b6120d7565b612123606083018a6120d7565b61213060808301896120d7565b61213d60a08301886120d7565b61214a60c08301876120d7565b61215760e08301866120d7565b6121656101008301856120d7565b6121736101208301846120d7565b9b9a5050505050505050505050565b600080fd5b612190816120ac565b811461219b57600080fd5b50565b6000813590506121ad81612187565b92915050565b6121bc816120cd565b81146121c757600080fd5b50565b6000813590506121d9816121b3565b92915050565b600080604083850312156121f6576121f5612182565b5b60006122048582860161219e565b9250506020612215858286016121ca565b9150509250929050565b60006020828403121561223557612234612182565b5b6000612243848285016121ca565b91505092915050565b60006020828403121561226257612261612182565b5b60006122708482850161219e565b91505092915050565b600081519050919050565b600082825260208201905092915050565b6000819050602082019050919050565b6122ae816120cd565b82525050565b60a0820160008201516122ca60008501826122a5565b5060208201516122dd60208501826122a5565b5060408201516122f060408501826122a5565b50606082015161230360608501826122a5565b50608082015161231660808501826122a5565b50505050565b600061232883836122b4565b60a08301905092915050565b6000602082019050919050565b600061234c82612279565b6123568185612284565b935061236183612295565b8060005b83811015612392578151612379888261231c565b975061238483612334565b925050600181019050612365565b5085935050505092915050565b600060208201905081810360008301526123b98184612341565b905092915050565b60006020820190506123d660008301846120d7565b92915050565b600080604083850312156123f3576123f2612182565b5b6000612401858286016121ca565b9250506020612412858286016121ca565b9150509250929050565b600060408201905061243160008301856120d7565b61243e60208301846120d7565b9392505050565b60008115159050919050565b61245a81612445565b82525050565b60006020820190506124756000830184612451565b92915050565b6004811061248857600080fd5b50565b60008135905061249a8161247b565b92915050565b600080604083850312156124b7576124b6612182565b5b60006124c5858286016121ca565b92505060206124d68582860161248b565b9150509250929050565b600081519050919050565b600082825260208201905092915050565b6000819050602082019050919050565b612515816120ac565b82525050565b61252481612445565b82525050565b6101c08201600082015161254160008501826122a5565b50602082015161255460208501826122a5565b50604082015161256760408501826122a5565b50606082015161257a60608501826122a5565b50608082015161258d60808501826122a5565b5060a08201516125a060a08501826122a5565b5060c08201516125b360c08501826122a5565b5060e08201516125c660e08501826122a5565b506101008201516125db6101008501826122a5565b506101208201516125f06101208501826122a5565b5061014082015161260561014085018261250c565b5061016082015161261a61016085018261251b565b5061018082015161262f6101808501826122a5565b506101a08201516126446101a08501826122a5565b50505050565b6000612656838361252a565b6101c08301905092915050565b6000602082019050919050565b600061267b826124e0565b61268581856124eb565b9350612690836124fc565b8060005b838110156126c15781516126a8888261264a565b97506126b383612663565b925050600181019050612694565b5085935050505092915050565b600060208201905081810360008301526126e88184612670565b905092915050565b600060208201905061270560008301846120be565b92915050565b6000819050919050565b600061273061272b6127268461208c565b61270b565b61208c565b9050919050565b600061274282612715565b9050919050565b600061275482612737565b9050919050565b61276481612749565b82525050565b600060208201905061277f600083018461275b565b92915050565b7f4e487b7100000000000000000000000000000000000000000000000000000000600052603260045260246000fd5b600082825260208201905092915050565b7f4e6f74206f776e65720000000000000000000000000000000000000000000000600082015250565b60006127fb6009836127b4565b9150612806826127c5565b602082019050919050565b6000602082019050818103600083015261282a816127ee565b9050919050565b7f5374616b696e67206e6f74207374617274656400000000000000000000000000600082015250565b60006128676013836127b4565b915061287282612831565b602082019050919050565b600060208201905081810360008301526128968161285a565b9050919050565b7f416c726561647920756e7374616b656400000000000000000000000000000000600082015250565b60006128d36010836127b4565b91506128de8261289d565b602082019050919050565b60006020820190508181036000830152612902816128c6565b9050919050565b7f4e6f207265776172647320746f20636c61696d00000000000000000000000000600082015250565b600061293f6013836127b4565b915061294a82612909565b602082019050919050565b6000602082019050818103600083015261296e81612932565b9050919050565b7f4e487b7100000000000000000000000000000000000000000000000000000000600052601160045260246000fd5b60006129af826120cd565b91506129ba836120cd565b92508282019050808211156129d2576129d1612975565b5b92915050565b60006040820190506129ed60008301856120be565b6129fa60208301846120d7565b9392505050565b612a0a81612445565b8114612a1557600080fd5b50565b600081519050612a2781612a01565b92915050565b600060208284031215612a4357612a42612182565b5b6000612a5184828501612a18565b91505092915050565b7f5472616e73666572206661696c65640000000000000000000000000000000000600082015250565b6000612a90600f836127b4565b9150612a9b82612a5a565b602082019050919050565b60006020820190508181036000830152612abf81612a83565b9050919050565b7f5374616b65206e6f74206d617475726564000000000000000000000000000000600082015250565b6000612afc6011836127b4565b9150612b0782612ac6565b602082019050919050565b60006020820190508181036000830152612b2b81612aef565b9050919050565b6000612b3d826120cd565b9150612b48836120cd565b9250828203905081811115612b6057612b5f612975565b5b92915050565b6000606082019050612b7b60008301866120d7565b612b8860208301856120d7565b612b9560408301846120d7565b949350505050565b7f4e487b7100000000000000000000000000000000000000000000000000000000600052604160045260246000fd5b6000612bd7826120cd565b9150612be2836120cd565b9250828202612bf0816120cd565b91508282048414831517612c0757612c06612975565b5b5092915050565b7f4e487b7100000000000000000000000000000000000000000000000000000000600052601260045260246000fd5b6000612c48826120cd565b9150612c53836120cd565b925082612c6357612c62612c0e565b5b828204905092915050565b7f5374616b696e6720656e64656400000000000000000000000000000000000000600082015250565b6000612ca4600d836127b4565b9150612caf82612c6e565b602082019050919050565b60006020820190508181036000830152612cd381612c97565b9050919050565b6000606082019050612cef60008301866120be565b612cfc60208301856120be565b612d0960408301846120d7565b949350505050565b7f4d696e696d756d207374616b65206e6f74206d65740000000000000000000000600082015250565b6000612d476015836127b4565b9150612d5282612d11565b602082019050919050565b60006020820190508181036000830152612d7681612d3a565b9050919050565b6000608082019050612d9260008301876120d7565b612d9f60208301866120d7565b612dac60408301856120d7565b612db960608301846120d7565b95945050505050565b7f4e487b7100000000000000000000000000000000000000000000000000000000600052602160045260246000fdfea2646970667358221220138bf20312cfa49be905d2289a491ee9439ae4e400a90ba7c9560399d215f1b064736f6c63430008180033",
  "linkReferences": {},
  "deployedLinkReferences": {}
}