{
  "_format": "hh-sol-artifact-1",
  "contractName": "ThrustpadStaker",
  "sourceName": "contracts/staking/ThrustpadStaker.sol",
  "abi": [
    {
      "inputs": [
        {
          "components": [
            {
              "internalType": "address",
              "name": "token",
              "type": "address"
            },
            {
              "internalType": "uint256",
              "name": "startDate",
              "type": "uint256"
            },
            {
              "internalType": "uint256",
              "name": "endDate",
              "type": "uint256"
            },
            {
              "internalType": "uint256",
              "name": "hardCap",
              "type": "uint256"
            },
            {
              "internalType": "uint256",
              "name": "minTokenStake",
              "type": "uint256"
            },
            {
              "internalType": "uint256",
              "name": "apyEdu",
              "type": "uint256"
            },
            {
              "internalType": "uint256",
              "name": "apyToken",
              "type": "uint256"
            },
            {
              "internalType": "uint256",
              "name": "rewardPoolToken",
              "type": "uint256"
            },
            {
              "internalType": "uint256",
              "name": "rewardPoolEDU",
              "type": "uint256"
            },
            {
              "internalType": "uint256",
              "name": "tokenToEDURate",
              "type": "uint256"
            }
          ],
          "internalType": "struct stakeOption",
          "name": "_option",
          "type": "tuple"
        },
        {
          "internalType": "address",
          "name": "_owner",
          "type": "address"
        }
      ],
      "stateMutability": "payable",
      "type": "constructor"
    },
    {
      "inputs": [],
      "name": "EnforcedPause",
      "type": "error"
    },
    {
      "inputs": [],
      "name": "ExpectedPause",
      "type": "error"
    },
    {
      "inputs": [
        {
          "internalType": "address",
          "name": "owner",
          "type": "address"
        }
      ],
      "name": "OwnableInvalidOwner",
      "type": "error"
    },
    {
      "inputs": [
        {
          "internalType": "address",
          "name": "account",
          "type": "address"
        }
      ],
      "name": "OwnableUnauthorizedAccount",
      "type": "error"
    },
    {
      "inputs": [],
      "name": "ReentrancyGuardReentrantCall",
      "type": "error"
    },
    {
      "anonymous": false,
      "inputs": [
        {
          "indexed": false,
          "internalType": "uint256",
          "name": "eduAPY",
          "type": "uint256"
        },
        {
          "indexed": false,
          "internalType": "uint256",
          "name": "tokenAPY",
          "type": "uint256"
        }
      ],
      "name": "APYUpdated",
      "type": "event"
    },
    {
      "anonymous": false,
      "inputs": [
        {
          "indexed": true,
          "internalType": "address",
          "name": "user",
          "type": "address"
        },
        {
          "indexed": false,
          "internalType": "uint256",
          "name": "edu",
          "type": "uint256"
        },
        {
          "indexed": false,
          "internalType": "uint256",
          "name": "token",
          "type": "uint256"
        }
      ],
      "name": "ClaimedRewards",
      "type": "event"
    },
    {
      "anonymous": false,
      "inputs": [
        {
          "indexed": false,
          "internalType": "uint256",
          "name": "amount",
          "type": "uint256"
        }
      ],
      "name": "MinimumStakeUpdated",
      "type": "event"
    },
    {
      "anonymous": false,
      "inputs": [
        {
          "indexed": true,
          "internalType": "address",
          "name": "previousOwner",
          "type": "address"
        },
        {
          "indexed": true,
          "internalType": "address",
          "name": "newOwner",
          "type": "address"
        }
      ],
      "name": "OwnershipTransferred",
      "type": "event"
    },
    {
      "anonymous": false,
      "inputs": [
        {
          "indexed": false,
          "internalType": "address",
          "name": "account",
          "type": "address"
        }
      ],
      "name": "Paused",
      "type": "event"
    },
    {
      "anonymous": false,
      "inputs": [
        {
          "indexed": false,
          "internalType": "uint256",
          "name": "ethPrice",
          "type": "uint256"
        },
        {
          "indexed": false,
          "internalType": "uint256",
          "name": "TokenPrice",
          "type": "uint256"
        }
      ],
      "name": "PricesUpdated",
      "type": "event"
    },
    {
      "anonymous": false,
      "inputs": [
        {
          "indexed": true,
          "internalType": "address",
          "name": "user",
          "type": "address"
        },
        {
          "indexed": false,
          "internalType": "uint256",
          "name": "amount",
          "type": "uint256"
        },
        {
          "indexed": false,
          "internalType": "uint256",
          "name": "period",
          "type": "uint256"
        },
        {
          "indexed": false,
          "internalType": "uint256",
          "name": "rewardEDU",
          "type": "uint256"
        },
        {
          "indexed": false,
          "internalType": "uint256",
          "name": "rewardToken",
          "type": "uint256"
        }
      ],
      "name": "Staked",
      "type": "event"
    },
    {
      "anonymous": false,
      "inputs": [
        {
          "indexed": false,
          "internalType": "address",
          "name": "account",
          "type": "address"
        }
      ],
      "name": "Unpaused",
      "type": "event"
    },
    {
      "anonymous": false,
      "inputs": [
        {
          "indexed": true,
          "internalType": "address",
          "name": "user",
          "type": "address"
        },
        {
          "indexed": false,
          "internalType": "uint256",
          "name": "amount",
          "type": "uint256"
        },
        {
          "indexed": false,
          "internalType": "uint256",
          "name": "rewardEDU",
          "type": "uint256"
        },
        {
          "indexed": false,
          "internalType": "uint256",
          "name": "rewardToken",
          "type": "uint256"
        }
      ],
      "name": "Unstaked",
      "type": "event"
    },
    {
      "inputs": [
        {
          "internalType": "uint256",
          "name": "stakeAmt",
          "type": "uint256"
        },
        {
          "internalType": "uint256",
          "name": "period",
          "type": "uint256"
        }
      ],
      "name": "calculateRewards",
      "outputs": [
        {
          "internalType": "uint256",
          "name": "eduRewardInUsd",
          "type": "uint256"
        },
        {
          "internalType": "uint256",
          "name": "tokenReward",
          "type": "uint256"
        }
      ],
      "stateMutability": "view",
      "type": "function"
    },
    {
      "inputs": [
        {
          "internalType": "uint256",
          "name": "stakeIndex",
          "type": "uint256"
        }
      ],
      "name": "claimAvailableRewards",
      "outputs": [],
      "stateMutability": "nonpayable",
      "type": "function"
    },
    {
      "inputs": [
        {
          "internalType": "uint256",
          "name": "amount",
          "type": "uint256"
        },
        {
          "internalType": "enum ThrustpadStaker.Period",
          "name": "period",
          "type": "uint8"
        }
      ],
      "name": "directStake",
      "outputs": [
        {
          "internalType": "uint256",
          "name": "stakeIndex",
          "type": "uint256"
        }
      ],
      "stateMutability": "payable",
      "type": "function"
    },
    {
      "inputs": [
        {
          "internalType": "address",
          "name": "addr",
          "type": "address"
        }
      ],
      "name": "getClaimableRewards",
      "outputs": [
        {
          "components": [
            {
              "internalType": "uint256",
              "name": "edu",
              "type": "uint256"
            },
            {
              "internalType": "uint256",
              "name": "token",
              "type": "uint256"
            },
            {
              "internalType": "uint256",
              "name": "index",
              "type": "uint256"
            }
          ],
          "internalType": "struct ThrustpadStaker.ClaimableReward[]",
          "name": "claimableRewards",
          "type": "tuple[]"
        }
      ],
      "stateMutability": "view",
      "type": "function"
    },
    {
      "inputs": [
        {
          "internalType": "address",
          "name": "addr",
          "type": "address"
        }
      ],
      "name": "getStakes",
      "outputs": [
        {
          "components": [
            {
              "internalType": "uint256",
              "name": "amount",
              "type": "uint256"
            },
            {
              "internalType": "uint256",
              "name": "start",
              "type": "uint256"
            },
            {
              "internalType": "uint256",
              "name": "end",
              "type": "uint256"
            },
            {
              "internalType": "uint256",
              "name": "rewardEDU",
              "type": "uint256"
            },
            {
              "internalType": "uint256",
              "name": "rewardToken",
              "type": "uint256"
            },
            {
              "internalType": "uint256",
              "name": "period",
              "type": "uint256"
            },
            {
              "internalType": "uint256",
              "name": "claimedEDU",
              "type": "uint256"
            },
            {
              "internalType": "uint256",
              "name": "claimedToken",
              "type": "uint256"
            },
            {
              "internalType": "uint256",
              "name": "priceEDU",
              "type": "uint256"
            },
            {
              "internalType": "uint256",
              "name": "priceToken",
              "type": "uint256"
            },
            {
              "internalType": "address",
              "name": "owner",
              "type": "address"
            },
            {
              "internalType": "bool",
              "name": "unstaked",
              "type": "bool"
            },
            {
              "internalType": "uint256",
              "name": "eduAPY",
              "type": "uint256"
            },
            {
              "internalType": "uint256",
              "name": "tokenAPY",
              "type": "uint256"
            },
            {
              "internalType": "uint256",
              "name": "lastclaimtime",
              "type": "uint256"
            }
          ],
          "internalType": "struct ThrustpadStaker.Stake[]",
          "name": "",
          "type": "tuple[]"
        }
      ],
      "stateMutability": "view",
      "type": "function"
    },
    {
      "inputs": [],
      "name": "option",
      "outputs": [
        {
          "internalType": "address",
          "name": "token",
          "type": "address"
        },
        {
          "internalType": "uint256",
          "name": "startDate",
          "type": "uint256"
        },
        {
          "internalType": "uint256",
          "name": "endDate",
          "type": "uint256"
        },
        {
          "internalType": "uint256",
          "name": "hardCap",
          "type": "uint256"
        },
        {
          "internalType": "uint256",
          "name": "minTokenStake",
          "type": "uint256"
        },
        {
          "internalType": "uint256",
          "name": "apyEdu",
          "type": "uint256"
        },
        {
          "internalType": "uint256",
          "name": "apyToken",
          "type": "uint256"
        },
        {
          "internalType": "uint256",
          "name": "rewardPoolToken",
          "type": "uint256"
        },
        {
          "internalType": "uint256",
          "name": "rewardPoolEDU",
          "type": "uint256"
        },
        {
          "internalType": "uint256",
          "name": "tokenToEDURate",
          "type": "uint256"
        }
      ],
      "stateMutability": "view",
      "type": "function"
    },
    {
      "inputs": [],
      "name": "owner",
      "outputs": [
        {
          "internalType": "address",
          "name": "",
          "type": "address"
        }
      ],
      "stateMutability": "view",
      "type": "function"
    },
    {
      "inputs": [],
      "name": "pause",
      "outputs": [],
      "stateMutability": "nonpayable",
      "type": "function"
    },
    {
      "inputs": [],
      "name": "paused",
      "outputs": [
        {
          "internalType": "bool",
          "name": "",
          "type": "bool"
        }
      ],
      "stateMutability": "view",
      "type": "function"
    },
    {
      "inputs": [],
      "name": "renounceOwnership",
      "outputs": [],
      "stateMutability": "nonpayable",
      "type": "function"
    },
    {
      "inputs": [],
      "name": "token",
      "outputs": [
        {
          "internalType": "contract IERC20",
          "name": "",
          "type": "address"
        }
      ],
      "stateMutability": "view",
      "type": "function"
    },
    {
      "inputs": [],
      "name": "totalRewardsEDU",
      "outputs": [
        {
          "internalType": "uint256",
          "name": "",
          "type": "uint256"
        }
      ],
      "stateMutability": "view",
      "type": "function"
    },
    {
      "inputs": [],
      "name": "totalRewardsToken",
      "outputs": [
        {
          "internalType": "uint256",
          "name": "",
          "type": "uint256"
        }
      ],
      "stateMutability": "view",
      "type": "function"
    },
    {
      "inputs": [],
      "name": "totalStaked",
      "outputs": [
        {
          "internalType": "uint256",
          "name": "",
          "type": "uint256"
        }
      ],
      "stateMutability": "view",
      "type": "function"
    },
    {
      "inputs": [],
      "name": "totalStakes",
      "outputs": [
        {
          "internalType": "uint256",
          "name": "",
          "type": "uint256"
        }
      ],
      "stateMutability": "view",
      "type": "function"
    },
    {
      "inputs": [
        {
          "internalType": "address",
          "name": "newOwner",
          "type": "address"
        }
      ],
      "name": "transferOwnership",
      "outputs": [],
      "stateMutability": "nonpayable",
      "type": "function"
    },
    {
      "inputs": [],
      "name": "unpause",
      "outputs": [],
      "stateMutability": "nonpayable",
      "type": "function"
    },
    {
      "inputs": [
        {
          "internalType": "uint256",
          "name": "stakeIndex",
          "type": "uint256"
        }
      ],
      "name": "unstake",
      "outputs": [],
      "stateMutability": "nonpayable",
      "type": "function"
    },
    {
      "inputs": [
        {
          "internalType": "uint256",
          "name": "amount",
          "type": "uint256"
        }
      ],
      "name": "updateMinTokenStake",
      "outputs": [],
      "stateMutability": "nonpayable",
      "type": "function"
    },
    {
      "inputs": [
        {
          "internalType": "address",
          "name": "",
          "type": "address"
        },
        {
          "internalType": "uint256",
          "name": "",
          "type": "uint256"
        }
      ],
      "name": "userStakes",
      "outputs": [
        {
          "internalType": "uint256",
          "name": "",
          "type": "uint256"
        }
      ],
      "stateMutability": "view",
      "type": "function"
    },
    {
      "inputs": [
        {
          "internalType": "address",
          "name": "recipient",
          "type": "address"
        }
      ],
      "name": "withdrawBalance",
      "outputs": [],
      "stateMutability": "nonpayable",
      "type": "function"
    },
    {
      "stateMutability": "payable",
      "type": "receive"
    }
  ],
  "bytecode": "0x601f62001a3038819003918201601f191660809081019290916001600160401b039182851184861017620001a85780849260409687528339810103916101608312620001be57610140809312620001be5783519183830190811183821017620001a85784526200006f81620001c3565b825260208101519160208101928352848201519385820194855260608301516060830190815260808401516080840190815260a08501519060a0850191825260c08601519260c0860193845260e08701519460e0870195865261010096878901519781019788526101209889810151998201998a52620000f960018060a01b0393849201620001c3565b16801562000190576000549c519c818482167f8be0079c531659141344cd1fd0a4f28419497f9722a3daafe3b4186f6b6457e0600080a360018060a81b031916176000556001805551169860018060a01b0319988a8a600954161760095551600a5551600b5551600c5551600d5551600e5551600f5551601055516011555160125560025416176002556118579081620001d98239f35b8c51631e4fbdf760e01b815260006004820152602490fd5b634e487b7160e01b600052604160045260246000fd5b600080fd5b51906001600160a01b0382168203620001be5756fe608080604052600436101561001d575b50361561001b57600080fd5b005b60e0600035811c918263010035af14611209575081631303d4fb1461103c5781632e17de7814610e93578163308e401e14610d205781633ebbcd8014610d025781633f4ba83a14610c7a5781634233620214610c5c57816348a8870614610c2f5781635c975abb14610c09578163715018a614610ba3578163756af45f146109cf57816378bc1d3b146105a95781637ba6f4581461035157508063817b1cd2146103335780638456cb59146102d35780638da5cb5b146102ac578063b5d5b5fa14610255578063bf9befb114610237578063d216b0af146101eb578063f2fde38b1461013f5763fc0c546a14610113573861000f565b3461013a57600036600319011261013a5760206001600160a01b0360025416604051908152f35b600080fd5b3461013a57602036600319011261013a5761015861127e565b610160611779565b6001600160a01b038091169081156101ba576000548273ffffffffffffffffffffffffffffffffffffffff19821617600055167f8be0079c531659141344cd1fd0a4f28419497f9722a3daafe3b4186f6b6457e0600080a3005b60246040517f1e4fbdf700000000000000000000000000000000000000000000000000000000815260006004820152fd5b3461013a57602036600319011261013a577ff4045d7dd317de89564c3f12c35961242ed2a4dce3ae4e7a75847ffa04bb0834602060043561022a611779565b80600d55604051908152a1005b3461013a57600036600319011261013a576020600854604051908152f35b3461013a57604036600319011261013a5761026e61127e565b6001600160a01b03602435911660005260036020526040600020805482101561013a5760209161029d91611294565b90549060031b1c604051908152f35b3461013a57600036600319011261013a5760206001600160a01b0360005416604051908152f35b3461013a57600036600319011261013a576102ec611779565b6102f461169a565b600160a01b60ff60a01b1960005416176000557f62e78cea01bee320cd4e420270b5ea74000d11b0c9f74754ebdbfc544b05a2586020604051338152a1005b3461013a57600036600319011261013a576020600554604051908152f35b3461013a576020908160031936011261013a576001600160a01b03918261037661127e565b1660005260038152604060002092604051808584829754938481520190600052846000209260005b86828210610593575050506103b592500385611417565b8351916103da6103c48461156a565b936103d26040519586611417565b80855261156a565b601f19018160005b82811061050e5750505060005b8551811015610433578061041761041161040b6001948a6115a1565b516112c2565b50611439565b61042182876115a1565b5261042c81866115a1565b50016103ef565b5082846040519280840190808552835180925280604086019401926000905b83821061045f5786860387f35b845180518752808401518785015260408082015190880152606080820151908801526080808201519088015260a0808201519088015260c08082015190880152808201518783015261010080820151908801526101208082015190880152610140808201518a16908801526101608082015115159088015261018080820151908801526101a080820151908801526101c090810151908701526101e09095019493820193600190910190610452565b60405161051a816113de565b60008152600083820152600060408201526000606082015260006080820152600060a0820152600060c08201526000888201526000610100820152600061012082015260006101408201526000610160820152600061018082015260006101a082015260006101c08201528282880101520182906103e2565b855484526001958601958a95509301920161039e565b604036600319011261013a5760243590600482101561013a576105ca61165f565b6105d261169a565b6105e0600a54421015611348565b600b54421161098b576000916001600160a01b0360025416604051907f23b872dd00000000000000000000000000000000000000000000000000000000825233600483015230602483015260043560448301528160648160209788945af1801561097f5761065691600091610952575b50611512565b600d546004351061090e5761066a906117bd565b610676816004356115e8565b906004549361068584426114ed565b600e54600f549060405192610699846113de565b6004358452428a85015260408401528460608401528560808401528660a0840152600060c0840152600084840152600061010084015260006101208401523361014084015260006101608401526101808301526101a0820152426101c0820152680100000000000000008610156108e2576001860160045561071a866112c2565b9290926108f857816101c091600d9351855589820151600186015560408201516002860155606082015160038601556080820151600486015560a0820151600586015560c08201516006860155810151600785015561010081015160088501556101208101516009850155600a84016001600160a01b03610140830151168154907fffffffffffffffffffffff00000000000000000000000000000000000000000074ff0000000000000000000000000000000000000000610160860151151560a01b16921617179055610180810151600b8501556101a0810151600c8501550151910155336000526003855260406000208054680100000000000000008110156108e25761082e91600182018155611294565b81549060031b9086821b91600019901b19161790556108516004356005546114ed565b600555610860816006546114ed565b60065561086f826007546114ed565b600755600854600181018091116108cc5760085560405192600435845285840152604083015260608201527f9cfd25589d1eb8ad71e342a86a8524e83522e3936c0803048c08f6d9ad974f4060803392a260018055604051908152f35b634e487b7160e01b600052601160045260246000fd5b634e487b7160e01b600052604160045260246000fd5b634e487b7160e01b600052600060045260246000fd5b6064836040519062461bcd60e51b82526004820152601560248201527f4d696e696d756d207374616b65206e6f74206d657400000000000000000000006044820152fd5b6109729150853d8711610978575b61096a8183611417565b8101906114fa565b85610650565b503d610960565b6040513d6000823e3d90fd5b606460405162461bcd60e51b815260206004820152600d60248201527f5374616b696e6720656e646564000000000000000000000000000000000000006044820152fd5b3461013a5760208060031936011261013a576109e961127e565b6109f1611779565b600b546276a70081018091116108cc574210610b5f57610a166011546006549061155d565b90610a266010546007549061155d565b91804711610b31575b506001600160a01b0360095416916040517f70a082310000000000000000000000000000000000000000000000000000000081523060048201528481602481875afa801561097f578291600091610afe575b50600554610a8e9161155d565b11610a9557005b60405163a9059cbb60e01b81526001600160a01b039290921660048301526024820152908290829060449082906000905af190811561097f5761001b92600092610ae1575b5050611512565b610af79250803d106109785761096a8183611417565b8280610ada565b809250868092503d8311610b2a575b610b178183611417565b8101031261013a57518190610a8e610a81565b503d610b0d565b600080808093818115610b56575b6001600160a01b03871690f11561097f5783610a2f565b506108fc610b3f565b6064826040519062461bcd60e51b82526004820152601060248201527f436f6f6c20646f776e20706572696f64000000000000000000000000000000006044820152fd5b3461013a57600036600319011261013a57610bbc611779565b60006001600160a01b03815473ffffffffffffffffffffffffffffffffffffffff1981168355167f8be0079c531659141344cd1fd0a4f28419497f9722a3daafe3b4186f6b6457e08280a3005b3461013a57600036600319011261013a57602060ff60005460a01c166040519015158152f35b3461013a57604036600319011261013a576040610c506024356004356115e8565b82519182526020820152f35b3461013a57600036600319011261013a576020600754604051908152f35b3461013a57600036600319011261013a57610c93611779565b60005460ff8160a01c1615610cd85760ff60a01b19166000557f5db9ee0a495bf2e6ff9c91a7834c1ba4fdd244a5e8aa4e537bd38aeae4b073aa6020604051338152a1005b60046040517f8dfc202b000000000000000000000000000000000000000000000000000000008152fd5b3461013a57600036600319011261013a576020600654604051908152f35b3461013a5760208060031936011261013a576001600160a01b03610d4261127e565b1660005260038152604060002090604051808383829554938481520190600052836000209260005b85828210610e7d57505050610d8192500383611417565b815191610d906103c48461156a565b601f19018260005b828110610e675750505060005b8151811015610e13578060ff600a610dc261040b600195876115a1565b50015460a01c16610e0e57610df1610de061041161040b84876115a1565b610dea83866115a1565b51906116d3565b610dfb82876115a1565b52610e0681866115a1565b505b01610da5565b610e08565b505090604051908282018383528151809152836040840192019360005b828110610e3d5784840385f35b85518051855280830151858401526040908101519085015294810194606090930192600101610e30565b610e6f611582565b828288010152018390610d98565b8554845260019586019588955093019201610d6a565b3461013a5760208060031936011261013a57610ead61165f565b610eb561169a565b610ec06004356112c2565b5090600a8201805490610ed960ff8360a01c1615611393565b6002840154421115610ff857610f5b6000928492600160a01b60ff60a01b196001600160a01b0393610f0e33868316146112fd565b16179055610f1f865460055461155d565b60055560025416855460405194858094819363a9059cbb60e01b83523360048401602090939291936001600160a01b0360408201951681520152565b03925af1801561097f57610f7691600091610fdb5750611512565b815491610fa0610f8f600383015460068401549061155d565b91600760048201549101549061155d565b9160405193845283015260408201527f204fccf0d92ed8d48f204adb39b2e81e92bad0dedb93f5716ca9478cfb57de0060603392a260018055005b610ff29150833d85116109785761096a8183611417565b84610650565b6064836040519062461bcd60e51b82526004820152601160248201527f5374616b65206e6f74206d6174757265640000000000000000000000000000006044820152fd5b3461013a5760208060031936011261013a57600a906004359061105d61165f565b61106561169a565b611087611071836112c2565b506001600160a01b0394859101541633146112fd565b611094600a544211611348565b6110c46110a0836112c2565b50926110b660ff600a86015460a01c1615611393565b6110bf84611439565b6116d3565b928351158015906111fd575b156111b957818451940192835193600682016110ed8782546114ed565b9055516110ff600783019182546114ed565b9055600d4291015583600081156111b0575b600080809381933390f11561097f5760025460405163a9059cbb60e01b81523360048201526024810185905291839183916044918391600091165af1801561097f57611164916000916111995750611512565b6040519283528201527f70de20a533702af05c8faf1637846c4586a021bbc71b6928b089b6d555e4fbc260403392a260018055005b6109729150833d85116109785761096a8183611417565b506108fc611111565b6064826040519062461bcd60e51b82526004820152601360248201527f4e6f207265776172647320746f20636c61696d000000000000000000000000006044820152fd5b508184015115156110d0565b3461013a57600036600319011261013a57610140916001600160a01b036009541690600a5490600b5490600c54600d54600e5490600f54926010549560115497601254998b5260208b015260408a01526060890152608088015260a087015260c0860152840152610100830152610120820152f35b600435906001600160a01b038216820361013a57565b80548210156112ac5760005260206000200190600090565b634e487b7160e01b600052603260045260246000fd5b6004548110156112ac57600e906004600052027f8a35acfbc15ff81a39ae7d344fd709f28e8600b4aa8c65c6b64bfe7fe36bd19b0190600090565b1561130457565b606460405162461bcd60e51b815260206004820152600960248201527f4e6f74206f776e657200000000000000000000000000000000000000000000006044820152fd5b1561134f57565b606460405162461bcd60e51b815260206004820152601360248201527f5374616b696e67206e6f742073746172746564000000000000000000000000006044820152fd5b1561139a57565b606460405162461bcd60e51b815260206004820152601060248201527f416c726561647920756e7374616b6564000000000000000000000000000000006044820152fd5b6101e0810190811067ffffffffffffffff8211176108e257604052565b6060810190811067ffffffffffffffff8211176108e257604052565b90601f8019910116810190811067ffffffffffffffff8211176108e257604052565b90604051611446816113de565b6101c0600d82948054845260018101546020850152600281015460408501526003810154606085015260048101546080850152600581015460a0850152600681015460c0850152600781015460e08501526008810154610100850152600981015461012085015260ff600a8201546001600160a01b03811661014087015260a01c161515610160850152600b810154610180850152600c8101546101a08501520154910152565b919082018092116108cc57565b9081602091031261013a5751801515810361013a5790565b1561151957565b606460405162461bcd60e51b815260206004820152600f60248201527f5472616e73666572206661696c656400000000000000000000000000000000006044820152fd5b919082039182116108cc57565b67ffffffffffffffff81116108e25760051b60200190565b6040519061158f826113fb565b60006040838281528260208201520152565b80518210156112ac5760209160051b010190565b818102929181159184041417156108cc57565b81156115d2570490565b634e487b7160e01b600052601260045260246000fd5b90600e546103e890818102908082048314901517156108cc5782906116136301e133809485926115b5565b0490600f5491838302928084048514901517156108cc5783606461164961165c976116426116519684986115b5565b04896115b5565b0404956115b5565b0404601254906115c8565b91565b600260015414611670576002600155565b60046040517f3ee5aeb5000000000000000000000000000000000000000000000000000000008152fd5b60ff60005460a01c166116a957565b60046040517fd93c0665000000000000000000000000000000000000000000000000000000008152fd5b906116dc611582565b506116ec6101c08301514261155d565b610180830151906103e891828102908082048414901517156108cc57819061171a6301e133809384926115b5565b046101a086015191848302928084048614901517156108cc57846064611651819661174b6117549561175b986115b5565b04948a516115b5565b95516115b5565b04046040519261176a846113fb565b83526020830152604082015290565b6001600160a01b0360005416330361178d57565b60246040517f118cdaa7000000000000000000000000000000000000000000000000000000008152336004820152fd5b90600091600481101561180b57806117d8575062278d009150565b600181036117e95750623b53809150565b600281036117fa5750624f1a009150565b60031461180357565b6276a7009150565b634e487b7160e01b600052602160045260246000fdfea26469706673582212208f805235c3c57a5e3e3b7f9b0e8bf692fb071388e564b8ae60a78b92854da3a164736f6c63430008180033",
  "linkReferences": {},
  "deployedLinkReferences": {}
}