{
  "_format": "hh-sol-artifact-1",
  "contractName": "ThrustpadStaker",
  "sourceName": "contracts/staking/ThrustpadStaker.sol",
  "abi": [
    {
      "inputs": [
        {
          "components": [
            {
              "internalType": "address",
              "name": "token",
              "type": "address"
            },
            {
              "internalType": "uint256",
              "name": "startDate",
              "type": "uint256"
            },
            {
              "internalType": "uint256",
              "name": "endDate",
              "type": "uint256"
            },
            {
              "internalType": "uint256",
              "name": "hardCap",
              "type": "uint256"
            },
            {
              "internalType": "uint256",
              "name": "minTokenStake",
              "type": "uint256"
            },
            {
              "internalType": "uint256",
              "name": "apyEdu",
              "type": "uint256"
            },
            {
              "internalType": "uint256",
              "name": "apyToken",
              "type": "uint256"
            },
            {
              "internalType": "uint256",
              "name": "rewardPoolToken",
              "type": "uint256"
            },
            {
              "internalType": "uint256",
              "name": "rewardPoolEDU",
              "type": "uint256"
            },
            {
              "internalType": "uint256",
              "name": "tokenToEDURate",
              "type": "uint256"
            }
          ],
          "internalType": "struct stakeOption",
          "name": "_option",
          "type": "tuple"
        },
        {
          "internalType": "address",
          "name": "_owner",
          "type": "address"
        }
      ],
      "stateMutability": "payable",
      "type": "constructor"
    },
    {
      "inputs": [],
      "name": "EnforcedPause",
      "type": "error"
    },
    {
      "inputs": [],
      "name": "ExpectedPause",
      "type": "error"
    },
    {
      "inputs": [
        {
          "internalType": "address",
          "name": "owner",
          "type": "address"
        }
      ],
      "name": "OwnableInvalidOwner",
      "type": "error"
    },
    {
      "inputs": [
        {
          "internalType": "address",
          "name": "account",
          "type": "address"
        }
      ],
      "name": "OwnableUnauthorizedAccount",
      "type": "error"
    },
    {
      "inputs": [],
      "name": "ReentrancyGuardReentrantCall",
      "type": "error"
    },
    {
      "anonymous": false,
      "inputs": [
        {
          "indexed": false,
          "internalType": "uint256",
          "name": "eduAPY",
          "type": "uint256"
        },
        {
          "indexed": false,
          "internalType": "uint256",
          "name": "tokenAPY",
          "type": "uint256"
        }
      ],
      "name": "APYUpdated",
      "type": "event"
    },
    {
      "anonymous": false,
      "inputs": [
        {
          "indexed": true,
          "internalType": "address",
          "name": "user",
          "type": "address"
        },
        {
          "indexed": false,
          "internalType": "uint256",
          "name": "edu",
          "type": "uint256"
        },
        {
          "indexed": false,
          "internalType": "uint256",
          "name": "token",
          "type": "uint256"
        }
      ],
      "name": "ClaimedRewards",
      "type": "event"
    },
    {
      "anonymous": false,
      "inputs": [
        {
          "indexed": false,
          "internalType": "uint256",
          "name": "amount",
          "type": "uint256"
        }
      ],
      "name": "MinimumStakeUpdated",
      "type": "event"
    },
    {
      "anonymous": false,
      "inputs": [
        {
          "indexed": true,
          "internalType": "address",
          "name": "previousOwner",
          "type": "address"
        },
        {
          "indexed": true,
          "internalType": "address",
          "name": "newOwner",
          "type": "address"
        }
      ],
      "name": "OwnershipTransferred",
      "type": "event"
    },
    {
      "anonymous": false,
      "inputs": [
        {
          "indexed": false,
          "internalType": "address",
          "name": "account",
          "type": "address"
        }
      ],
      "name": "Paused",
      "type": "event"
    },
    {
      "anonymous": false,
      "inputs": [
        {
          "indexed": false,
          "internalType": "uint256",
          "name": "ethPrice",
          "type": "uint256"
        },
        {
          "indexed": false,
          "internalType": "uint256",
          "name": "TokenPrice",
          "type": "uint256"
        }
      ],
      "name": "PricesUpdated",
      "type": "event"
    },
    {
      "anonymous": false,
      "inputs": [
        {
          "indexed": true,
          "internalType": "address",
          "name": "user",
          "type": "address"
        },
        {
          "indexed": false,
          "internalType": "uint256",
          "name": "amount",
          "type": "uint256"
        },
        {
          "indexed": false,
          "internalType": "uint256",
          "name": "period",
          "type": "uint256"
        },
        {
          "indexed": false,
          "internalType": "uint256",
          "name": "rewardEDU",
          "type": "uint256"
        },
        {
          "indexed": false,
          "internalType": "uint256",
          "name": "rewardToken",
          "type": "uint256"
        }
      ],
      "name": "Staked",
      "type": "event"
    },
    {
      "anonymous": false,
      "inputs": [
        {
          "indexed": false,
          "internalType": "address",
          "name": "account",
          "type": "address"
        }
      ],
      "name": "Unpaused",
      "type": "event"
    },
    {
      "anonymous": false,
      "inputs": [
        {
          "indexed": true,
          "internalType": "address",
          "name": "user",
          "type": "address"
        },
        {
          "indexed": false,
          "internalType": "uint256",
          "name": "amount",
          "type": "uint256"
        },
        {
          "indexed": false,
          "internalType": "uint256",
          "name": "rewardEDU",
          "type": "uint256"
        },
        {
          "indexed": false,
          "internalType": "uint256",
          "name": "rewardToken",
          "type": "uint256"
        }
      ],
      "name": "Unstaked",
      "type": "event"
    },
    {
      "inputs": [
        {
          "internalType": "uint256",
          "name": "stakeAmt",
          "type": "uint256"
        },
        {
          "internalType": "uint256",
          "name": "period",
          "type": "uint256"
        }
      ],
      "name": "calculateRewards",
      "outputs": [
        {
          "internalType": "uint256",
          "name": "eduRewardInUsd",
          "type": "uint256"
        },
        {
          "internalType": "uint256",
          "name": "tokenReward",
          "type": "uint256"
        }
      ],
      "stateMutability": "view",
      "type": "function"
    },
    {
      "inputs": [
        {
          "internalType": "uint256",
          "name": "stakeIndex",
          "type": "uint256"
        }
      ],
      "name": "claimAvailableRewards",
      "outputs": [],
      "stateMutability": "nonpayable",
      "type": "function"
    },
    {
      "inputs": [
        {
          "internalType": "uint256",
          "name": "amount",
          "type": "uint256"
        },
        {
          "internalType": "enum ThrustpadStaker.Period",
          "name": "period",
          "type": "uint8"
        }
      ],
      "name": "directStake",
      "outputs": [
        {
          "internalType": "uint256",
          "name": "stakeIndex",
          "type": "uint256"
        }
      ],
      "stateMutability": "payable",
      "type": "function"
    },
    {
      "inputs": [
        {
          "internalType": "address",
          "name": "addr",
          "type": "address"
        }
      ],
      "name": "getClaimableRewards",
      "outputs": [
        {
          "components": [
            {
              "internalType": "uint256",
              "name": "edu",
              "type": "uint256"
            },
            {
              "internalType": "uint256",
              "name": "token",
              "type": "uint256"
            },
            {
              "internalType": "uint256",
              "name": "index",
              "type": "uint256"
            }
          ],
          "internalType": "struct ThrustpadStaker.ClaimableReward[]",
          "name": "claimableRewards",
          "type": "tuple[]"
        }
      ],
      "stateMutability": "view",
      "type": "function"
    },
    {
      "inputs": [
        {
          "internalType": "address",
          "name": "addr",
          "type": "address"
        }
      ],
      "name": "getStakes",
      "outputs": [
        {
          "components": [
            {
              "internalType": "uint256",
              "name": "amount",
              "type": "uint256"
            },
            {
              "internalType": "uint256",
              "name": "start",
              "type": "uint256"
            },
            {
              "internalType": "uint256",
              "name": "end",
              "type": "uint256"
            },
            {
              "internalType": "uint256",
              "name": "rewardEDU",
              "type": "uint256"
            },
            {
              "internalType": "uint256",
              "name": "rewardToken",
              "type": "uint256"
            },
            {
              "internalType": "uint256",
              "name": "period",
              "type": "uint256"
            },
            {
              "internalType": "uint256",
              "name": "claimedEDU",
              "type": "uint256"
            },
            {
              "internalType": "uint256",
              "name": "claimedToken",
              "type": "uint256"
            },
            {
              "internalType": "uint256",
              "name": "priceEDU",
              "type": "uint256"
            },
            {
              "internalType": "uint256",
              "name": "priceToken",
              "type": "uint256"
            },
            {
              "internalType": "address",
              "name": "owner",
              "type": "address"
            },
            {
              "internalType": "bool",
              "name": "unstaked",
              "type": "bool"
            },
            {
              "internalType": "uint256",
              "name": "eduAPY",
              "type": "uint256"
            },
            {
              "internalType": "uint256",
              "name": "tokenAPY",
              "type": "uint256"
            },
            {
              "internalType": "uint256",
              "name": "lastclaimtime",
              "type": "uint256"
            }
          ],
          "internalType": "struct ThrustpadStaker.Stake[]",
          "name": "",
          "type": "tuple[]"
        }
      ],
      "stateMutability": "view",
      "type": "function"
    },
    {
      "inputs": [],
      "name": "option",
      "outputs": [
        {
          "internalType": "address",
          "name": "token",
          "type": "address"
        },
        {
          "internalType": "uint256",
          "name": "startDate",
          "type": "uint256"
        },
        {
          "internalType": "uint256",
          "name": "endDate",
          "type": "uint256"
        },
        {
          "internalType": "uint256",
          "name": "hardCap",
          "type": "uint256"
        },
        {
          "internalType": "uint256",
          "name": "minTokenStake",
          "type": "uint256"
        },
        {
          "internalType": "uint256",
          "name": "apyEdu",
          "type": "uint256"
        },
        {
          "internalType": "uint256",
          "name": "apyToken",
          "type": "uint256"
        },
        {
          "internalType": "uint256",
          "name": "rewardPoolToken",
          "type": "uint256"
        },
        {
          "internalType": "uint256",
          "name": "rewardPoolEDU",
          "type": "uint256"
        },
        {
          "internalType": "uint256",
          "name": "tokenToEDURate",
          "type": "uint256"
        }
      ],
      "stateMutability": "view",
      "type": "function"
    },
    {
      "inputs": [],
      "name": "owner",
      "outputs": [
        {
          "internalType": "address",
          "name": "",
          "type": "address"
        }
      ],
      "stateMutability": "view",
      "type": "function"
    },
    {
      "inputs": [],
      "name": "pause",
      "outputs": [],
      "stateMutability": "nonpayable",
      "type": "function"
    },
    {
      "inputs": [],
      "name": "paused",
      "outputs": [
        {
          "internalType": "bool",
          "name": "",
          "type": "bool"
        }
      ],
      "stateMutability": "view",
      "type": "function"
    },
    {
      "inputs": [],
      "name": "renounceOwnership",
      "outputs": [],
      "stateMutability": "nonpayable",
      "type": "function"
    },
    {
      "inputs": [],
      "name": "token",
      "outputs": [
        {
          "internalType": "contract IERC20",
          "name": "",
          "type": "address"
        }
      ],
      "stateMutability": "view",
      "type": "function"
    },
    {
      "inputs": [],
      "name": "totalRewardsEDU",
      "outputs": [
        {
          "internalType": "uint256",
          "name": "",
          "type": "uint256"
        }
      ],
      "stateMutability": "view",
      "type": "function"
    },
    {
      "inputs": [],
      "name": "totalRewardsToken",
      "outputs": [
        {
          "internalType": "uint256",
          "name": "",
          "type": "uint256"
        }
      ],
      "stateMutability": "view",
      "type": "function"
    },
    {
      "inputs": [],
      "name": "totalStaked",
      "outputs": [
        {
          "internalType": "uint256",
          "name": "",
          "type": "uint256"
        }
      ],
      "stateMutability": "view",
      "type": "function"
    },
    {
      "inputs": [],
      "name": "totalStakes",
      "outputs": [
        {
          "internalType": "uint256",
          "name": "",
          "type": "uint256"
        }
      ],
      "stateMutability": "view",
      "type": "function"
    },
    {
      "inputs": [
        {
          "internalType": "address",
          "name": "newOwner",
          "type": "address"
        }
      ],
      "name": "transferOwnership",
      "outputs": [],
      "stateMutability": "nonpayable",
      "type": "function"
    },
    {
      "inputs": [],
      "name": "unpause",
      "outputs": [],
      "stateMutability": "nonpayable",
      "type": "function"
    },
    {
      "inputs": [
        {
          "internalType": "uint256",
          "name": "stakeIndex",
          "type": "uint256"
        }
      ],
      "name": "unstake",
      "outputs": [],
      "stateMutability": "nonpayable",
      "type": "function"
    },
    {
      "inputs": [
        {
          "internalType": "uint256",
          "name": "amount",
          "type": "uint256"
        }
      ],
      "name": "updateMinTokenStake",
      "outputs": [],
      "stateMutability": "nonpayable",
      "type": "function"
    },
    {
      "inputs": [
        {
          "internalType": "address",
          "name": "",
          "type": "address"
        },
        {
          "internalType": "uint256",
          "name": "",
          "type": "uint256"
        }
      ],
      "name": "userStakes",
      "outputs": [
        {
          "internalType": "uint256",
          "name": "",
          "type": "uint256"
        }
      ],
      "stateMutability": "view",
      "type": "function"
    },
    {
      "inputs": [
        {
          "internalType": "address",
          "name": "recipient",
          "type": "address"
        }
      ],
      "name": "withdrawBalance",
      "outputs": [],
      "stateMutability": "nonpayable",
      "type": "function"
    },
    {
      "stateMutability": "payable",
      "type": "receive"
    }
  ],
  "bytecode": "0x608060405260405162003553380380620035538339818101604052810190620000299190620004e4565b80600073ffffffffffffffffffffffffffffffffffffffff168173ffffffffffffffffffffffffffffffffffffffff16036200009f5760006040517f1e4fbdf70000000000000000000000000000000000000000000000000000000081526004016200009691906200053e565b60405180910390fd5b620000b081620001c860201b60201c565b5060008060146101000a81548160ff0219169083151502179055506001808190555081600960008201518160000160006101000a81548173ffffffffffffffffffffffffffffffffffffffff021916908373ffffffffffffffffffffffffffffffffffffffff1602179055506020820151816001015560408201518160020155606082015181600301556080820151816004015560a0820151816005015560c0820151816006015560e08201518160070155610100820151816008015561012082015181600901559050508160000151600260006101000a81548173ffffffffffffffffffffffffffffffffffffffff021916908373ffffffffffffffffffffffffffffffffffffffff16021790555050506200055b565b60008060009054906101000a900473ffffffffffffffffffffffffffffffffffffffff169050816000806101000a81548173ffffffffffffffffffffffffffffffffffffffff021916908373ffffffffffffffffffffffffffffffffffffffff1602179055508173ffffffffffffffffffffffffffffffffffffffff168173ffffffffffffffffffffffffffffffffffffffff167f8be0079c531659141344cd1fd0a4f28419497f9722a3daafe3b4186f6b6457e060405160405180910390a35050565b6000604051905090565b600080fd5b600080fd5b6000601f19601f8301169050919050565b7f4e487b7100000000000000000000000000000000000000000000000000000000600052604160045260246000fd5b620002eb82620002a0565b810181811067ffffffffffffffff821117156200030d576200030c620002b1565b5b80604052505050565b6000620003226200028c565b9050620003308282620002e0565b919050565b600073ffffffffffffffffffffffffffffffffffffffff82169050919050565b6000620003628262000335565b9050919050565b620003748162000355565b81146200038057600080fd5b50565b600081519050620003948162000369565b92915050565b6000819050919050565b620003af816200039a565b8114620003bb57600080fd5b50565b600081519050620003cf81620003a4565b92915050565b60006101408284031215620003ef57620003ee6200029b565b5b620003fc61014062000316565b905060006200040e8482850162000383565b60008301525060206200042484828501620003be565b60208301525060406200043a84828501620003be565b60408301525060606200045084828501620003be565b60608301525060806200046684828501620003be565b60808301525060a06200047c84828501620003be565b60a08301525060c06200049284828501620003be565b60c08301525060e0620004a884828501620003be565b60e083015250610100620004bf84828501620003be565b61010083015250610120620004d784828501620003be565b6101208301525092915050565b6000806101608385031215620004ff57620004fe62000296565b5b60006200050f85828601620003d5565b925050610140620005238582860162000383565b9150509250929050565b620005388162000355565b82525050565b60006020820190506200055560008301846200052d565b92915050565b612fe8806200056b6000396000f3fe60806040526004361061012e5760003560e01c8063756af45f116100ab5780638da5cb5b1161006f5780638da5cb5b146103c2578063b5d5b5fa146103ed578063bf9befb11461042a578063d216b0af14610455578063f2fde38b1461047e578063fc0c546a146104a757610135565b8063756af45f146102ea57806378bc1d3b146103135780637ba6f45814610343578063817b1cd2146103805780638456cb59146103ab57610135565b80633f4ba83a116100f25780633f4ba83a14610228578063423362021461023f57806348a887061461026a5780635c975abb146102a8578063715018a6146102d357610135565b8063010035af1461013a5780631303d4fb1461016e5780632e17de7814610197578063308e401e146101c05780633ebbcd80146101fd57610135565b3661013557005b600080fd5b34801561014657600080fd5b5061014f6104d2565b6040516101659a9998979695949392919061220a565b60405180910390f35b34801561017a57600080fd5b50610195600480360381019061019091906122d7565b610534565b005b3480156101a357600080fd5b506101be60048036038101906101b991906122d7565b6109f7565b005b3480156101cc57600080fd5b506101e760048036038101906101e29190612330565b610cfc565b6040516101f4919061245d565b60405180910390f35b34801561020957600080fd5b50610212610fdb565b60405161021f919061247f565b60405180910390f35b34801561023457600080fd5b5061023d610fe1565b005b34801561024b57600080fd5b50610254610ff3565b604051610261919061247f565b60405180910390f35b34801561027657600080fd5b50610291600480360381019061028c919061249a565b610ff9565b60405161029f9291906124da565b60405180910390f35b3480156102b457600080fd5b506102bd6110c4565b6040516102ca919061251e565b60405180910390f35b3480156102df57600080fd5b506102e86110da565b005b3480156102f657600080fd5b50610311600480360381019061030c9190612330565b6110ee565b005b61032d6004803603810190610328919061255e565b611365565b60405161033a919061247f565b60405180910390f35b34801561034f57600080fd5b5061036a60048036038101906103659190612330565b611502565b60405161037791906127a1565b60405180910390f35b34801561038c57600080fd5b5061039561176c565b6040516103a2919061247f565b60405180910390f35b3480156103b757600080fd5b506103c0611772565b005b3480156103ce57600080fd5b506103d7611784565b6040516103e491906127c3565b60405180910390f35b3480156103f957600080fd5b50610414600480360381019061040f91906127de565b6117ad565b604051610421919061247f565b60405180910390f35b34801561043657600080fd5b5061043f6117de565b60405161044c919061247f565b60405180910390f35b34801561046157600080fd5b5061047c600480360381019061047791906122d7565b6117e4565b005b34801561048a57600080fd5b506104a560048036038101906104a09190612330565b611830565b005b3480156104b357600080fd5b506104bc6118b6565b6040516104c9919061287d565b60405180910390f35b60098060000160009054906101000a900473ffffffffffffffffffffffffffffffffffffffff1690806001015490806002015490806003015490806004015490806005015490806006015490806007015490806008015490806009015490508a565b61053c6118dc565b610544611922565b3373ffffffffffffffffffffffffffffffffffffffff166004828154811061056f5761056e612898565b5b90600052602060002090600e0201600a0160009054906101000a900473ffffffffffffffffffffffffffffffffffffffff1673ffffffffffffffffffffffffffffffffffffffff16146105f7576040517f08c379a00000000000000000000000000000000000000000000000000000000081526004016105ee90612924565b60405180910390fd5b426009600101541061063e576040517f08c379a000000000000000000000000000000000000000000000000000000000815260040161063590612990565b60405180910390fd5b60006004828154811061065457610653612898565b5b90600052602060002090600e0201905080600a0160149054906101000a900460ff16156106b6576040517f08c379a00000000000000000000000000000000000000000000000000000000081526004016106ad906129fc565b60405180910390fd5b60006107c182604051806101e001604052908160008201548152602001600182015481526020016002820154815260200160038201548152602001600482015481526020016005820154815260200160068201548152602001600782015481526020016008820154815260200160098201548152602001600a820160009054906101000a900473ffffffffffffffffffffffffffffffffffffffff1673ffffffffffffffffffffffffffffffffffffffff1673ffffffffffffffffffffffffffffffffffffffff168152602001600a820160149054906101000a900460ff16151515158152602001600b8201548152602001600c8201548152602001600d8201548152505084611963565b90506000816000015111806107da575060008160200151115b610819576040517f08c379a000000000000000000000000000000000000000000000000000000000815260040161081090612a68565b60405180910390fd5b60008160000151905060008260200151905082600001518460060160008282546108439190612ab7565b9250508190555082602001518460070160008282546108629190612ab7565b925050819055504284600d01819055503373ffffffffffffffffffffffffffffffffffffffff166108fc839081150290604051600060405180830381858888f193505050501580156108b8573d6000803e3d6000fd5b50600260009054906101000a900473ffffffffffffffffffffffffffffffffffffffff1673ffffffffffffffffffffffffffffffffffffffff1663a9059cbb33836040518363ffffffff1660e01b8152600401610916929190612aeb565b6020604051808303816000875af1158015610935573d6000803e3d6000fd5b505050506040513d601f19601f820116820180604052508101906109599190612b40565b610998576040517f08c379a000000000000000000000000000000000000000000000000000000000815260040161098f90612bb9565b60405180910390fd5b3373ffffffffffffffffffffffffffffffffffffffff167f70de20a533702af05c8faf1637846c4586a021bbc71b6928b089b6d555e4fbc283836040516109e09291906124da565b60405180910390a2505050506109f4611a73565b50565b6109ff6118dc565b610a07611922565b600060048281548110610a1d57610a1c612898565b5b90600052602060002090600e0201905080600a0160149054906101000a900460ff1615610a7f576040517f08c379a0000000000000000000000000000000000000000000000000000000008152600401610a76906129fc565b60405180910390fd5b42816002015410610ac5576040517f08c379a0000000000000000000000000000000000000000000000000000000008152600401610abc90612c25565b60405180910390fd5b3373ffffffffffffffffffffffffffffffffffffffff1681600a0160009054906101000a900473ffffffffffffffffffffffffffffffffffffffff1673ffffffffffffffffffffffffffffffffffffffff1614610b57576040517f08c379a0000000000000000000000000000000000000000000000000000000008152600401610b4e90612924565b60405180910390fd5b600181600a0160146101000a81548160ff021916908315150217905550806000015460056000828254610b8a9190612c45565b92505081905550600260009054906101000a900473ffffffffffffffffffffffffffffffffffffffff1673ffffffffffffffffffffffffffffffffffffffff1663a9059cbb3383600001546040518363ffffffff1660e01b8152600401610bf2929190612aeb565b6020604051808303816000875af1158015610c11573d6000803e3d6000fd5b505050506040513d601f19601f82011682018060405250810190610c359190612b40565b610c74576040517f08c379a0000000000000000000000000000000000000000000000000000000008152600401610c6b90612bb9565b60405180910390fd5b3373ffffffffffffffffffffffffffffffffffffffff167f204fccf0d92ed8d48f204adb39b2e81e92bad0dedb93f5716ca9478cfb57de00826000015483600601548460030154610cc59190612c45565b84600701548560040154610cd99190612c45565b604051610ce893929190612c79565b60405180910390a250610cf9611a73565b50565b60606000600360008473ffffffffffffffffffffffffffffffffffffffff1673ffffffffffffffffffffffffffffffffffffffff168152602001908152602001600020805480602002602001604051908101604052809291908181526020018280548015610d8957602002820191906000526020600020905b815481526020019060010190808311610d75575b50505050509050805167ffffffffffffffff811115610dab57610daa612cb0565b5b604051908082528060200260200182016040528015610de457816020015b610dd1612101565b815260200190600190039081610dc95790505b50915060005b8151811015610fd4576004828281518110610e0857610e07612898565b5b602002602001015181548110610e2157610e20612898565b5b90600052602060002090600e0201600a0160149054906101000a900460ff16610fc75760006004838381518110610e5b57610e5a612898565b5b602002602001015181548110610e7457610e73612898565b5b90600052602060002090600e0201604051806101e001604052908160008201548152602001600182015481526020016002820154815260200160038201548152602001600482015481526020016005820154815260200160068201548152602001600782015481526020016008820154815260200160098201548152602001600a820160009054906101000a900473ffffffffffffffffffffffffffffffffffffffff1673ffffffffffffffffffffffffffffffffffffffff1673ffffffffffffffffffffffffffffffffffffffff168152602001600a820160149054906101000a900460ff16151515158152602001600b8201548152602001600c8201548152602001600d820154815250509050610fa781848481518110610f9a57610f99612898565b5b6020026020010151611963565b848381518110610fba57610fb9612898565b5b6020026020010181905250505b8080600101915050610dea565b5050919050565b60065481565b610fe9611a7c565b610ff1611b03565b565b60075481565b60008060006103e8905060006301e13380858360096005015461101c9190612cdf565b6110269190612cdf565b6110309190612d50565b905060006301e13380868460096006015461104b9190612cdf565b6110559190612cdf565b61105f9190612d50565b905082606482896110709190612cdf565b61107a9190612d50565b6110849190612d50565b93506009800154836064848a61109a9190612cdf565b6110a49190612d50565b6110ae9190612d50565b6110b89190612d50565b94505050509250929050565b60008060149054906101000a900460ff16905090565b6110e2611a7c565b6110ec6000611b65565b565b6110f6611a7c565b6276a70060096002015461110a9190612ab7565b42101561114c576040517f08c379a000000000000000000000000000000000000000000000000000000000815260040161114390612dcd565b60405180910390fd5b60006006546009600801546111619190612c45565b905060006007546009600701546111789190612c45565b9050814711156111ca578273ffffffffffffffffffffffffffffffffffffffff166108fc839081150290604051600060405180830381858888f193505050501580156111c8573d6000803e3d6000fd5b505b80600554600960000160009054906101000a900473ffffffffffffffffffffffffffffffffffffffff1673ffffffffffffffffffffffffffffffffffffffff166370a08231306040518263ffffffff1660e01b815260040161122c91906127c3565b602060405180830381865afa158015611249573d6000803e3d6000fd5b505050506040513d601f19601f8201168201806040525081019061126d9190612e02565b6112779190612c45565b111561136057600960000160009054906101000a900473ffffffffffffffffffffffffffffffffffffffff1673ffffffffffffffffffffffffffffffffffffffff1663a9059cbb84836040518363ffffffff1660e01b81526004016112dd929190612aeb565b6020604051808303816000875af11580156112fc573d6000803e3d6000fd5b505050506040513d601f19601f820116820180604052508101906113209190612b40565b61135f576040517f08c379a000000000000000000000000000000000000000000000000000000000815260040161135690612bb9565b60405180910390fd5b5b505050565b600061136f6118dc565b611377611922565b6009600101544210156113bf576040517f08c379a00000000000000000000000000000000000000000000000000000000081526004016113b690612990565b60405180910390fd5b600960020154421115611407576040517f08c379a00000000000000000000000000000000000000000000000000000000081526004016113fe90612e7b565b60405180910390fd5b600260009054906101000a900473ffffffffffffffffffffffffffffffffffffffff1673ffffffffffffffffffffffffffffffffffffffff166323b872dd3330866040518463ffffffff1660e01b815260040161146693929190612e9b565b6020604051808303816000875af1158015611485573d6000803e3d6000fd5b505050506040513d601f19601f820116820180604052508101906114a99190612b40565b6114e8576040517f08c379a00000000000000000000000000000000000000000000000000000000081526004016114df90612bb9565b60405180910390fd5b6114f28383611c29565b90506114fc611a73565b92915050565b60606000600360008473ffffffffffffffffffffffffffffffffffffffff1673ffffffffffffffffffffffffffffffffffffffff16815260200190815260200160002080548060200260200160405190810160405280929190818152602001828054801561158f57602002820191906000526020600020905b81548152602001906001019080831161157b575b505050505090506000815167ffffffffffffffff8111156115b3576115b2612cb0565b5b6040519080825280602002602001820160405280156115ec57816020015b6115d9612122565b8152602001906001900390816115d15790505b50905060005b82518110156117615760048382815181106116105761160f612898565b5b60200260200101518154811061162957611628612898565b5b90600052602060002090600e0201604051806101e001604052908160008201548152602001600182015481526020016002820154815260200160038201548152602001600482015481526020016005820154815260200160068201548152602001600782015481526020016008820154815260200160098201548152602001600a820160009054906101000a900473ffffffffffffffffffffffffffffffffffffffff1673ffffffffffffffffffffffffffffffffffffffff1673ffffffffffffffffffffffffffffffffffffffff168152602001600a820160149054906101000a900460ff16151515158152602001600b8201548152602001600c8201548152602001600d8201548152505082828151811061174957611748612898565b5b602002602001018190525080806001019150506115f2565b508092505050919050565b60055481565b61177a611a7c565b611782611f74565b565b60008060009054906101000a900473ffffffffffffffffffffffffffffffffffffffff16905090565b600360205281600052604060002081815481106117c957600080fd5b90600052602060002001600091509150505481565b60085481565b6117ec611a7c565b806009600401819055507ff4045d7dd317de89564c3f12c35961242ed2a4dce3ae4e7a75847ffa04bb083481604051611825919061247f565b60405180910390a150565b611838611a7c565b600073ffffffffffffffffffffffffffffffffffffffff168173ffffffffffffffffffffffffffffffffffffffff16036118aa5760006040517f1e4fbdf70000000000000000000000000000000000000000000000000000000081526004016118a191906127c3565b60405180910390fd5b6118b381611b65565b50565b600260009054906101000a900473ffffffffffffffffffffffffffffffffffffffff1681565b600260015403611918576040517f3ee5aeb500000000000000000000000000000000000000000000000000000000815260040160405180910390fd5b6002600181905550565b61192a6110c4565b15611961576040517fd93c066500000000000000000000000000000000000000000000000000000000815260040160405180910390fd5b565b61196b612101565b60006103e890506000846101c00151426119859190612c45565b905060006301e1338082848861018001516119a09190612cdf565b6119aa9190612cdf565b6119b49190612d50565b905060006301e133808385896101a001516119cf9190612cdf565b6119d99190612cdf565b6119e39190612d50565b905060006009800154856064858b600001516119ff9190612cdf565b611a099190612d50565b611a139190612d50565b611a1d9190612d50565b90506000856064848b60000151611a349190612cdf565b611a3e9190612d50565b611a489190612d50565b9050604051806060016040528083815260200182815260200189815250965050505050505092915050565b60018081905550565b611a84611fd7565b73ffffffffffffffffffffffffffffffffffffffff16611aa2611784565b73ffffffffffffffffffffffffffffffffffffffff1614611b0157611ac5611fd7565b6040517f118cdaa7000000000000000000000000000000000000000000000000000000008152600401611af891906127c3565b60405180910390fd5b565b611b0b611fdf565b60008060146101000a81548160ff0219169083151502179055507f5db9ee0a495bf2e6ff9c91a7834c1ba4fdd244a5e8aa4e537bd38aeae4b073aa611b4e611fd7565b604051611b5b91906127c3565b60405180910390a1565b60008060009054906101000a900473ffffffffffffffffffffffffffffffffffffffff169050816000806101000a81548173ffffffffffffffffffffffffffffffffffffffff021916908373ffffffffffffffffffffffffffffffffffffffff1602179055508173ffffffffffffffffffffffffffffffffffffffff168173ffffffffffffffffffffffffffffffffffffffff167f8be0079c531659141344cd1fd0a4f28419497f9722a3daafe3b4186f6b6457e060405160405180910390a35050565b6000600960040154831015611c73576040517f08c379a0000000000000000000000000000000000000000000000000000000008152600401611c6a90612f1e565b60405180910390fd5b6000611c7e8361201f565b9050600080611c8d8684610ff9565b9150915060048054905093506004604051806101e001604052808881526020014281526020018542611cbf9190612ab7565b8152602001848152602001838152602001858152602001600081526020016000815260200160008152602001600081526020013373ffffffffffffffffffffffffffffffffffffffff168152602001600015158152602001600960050154815260200160096006015481526020014281525090806001815401808255809150506001900390600052602060002090600e0201600090919091909150600082015181600001556020820151816001015560408201518160020155606082015181600301556080820151816004015560a0820151816005015560c0820151816006015560e082015181600701556101008201518160080155610120820151816009015561014082015181600a0160006101000a81548173ffffffffffffffffffffffffffffffffffffffff021916908373ffffffffffffffffffffffffffffffffffffffff16021790555061016082015181600a0160146101000a81548160ff02191690831515021790555061018082015181600b01556101a082015181600c01556101c082015181600d01555050600360003373ffffffffffffffffffffffffffffffffffffffff1673ffffffffffffffffffffffffffffffffffffffff1681526020019081526020016000208490806001815401808255809150506001900390600052602060002001600090919091909150558560056000828254611ec49190612ab7565b925050819055508160066000828254611edd9190612ab7565b925050819055508060076000828254611ef69190612ab7565b92505081905550600160086000828254611f109190612ab7565b925050819055503373ffffffffffffffffffffffffffffffffffffffff167f9cfd25589d1eb8ad71e342a86a8524e83522e3936c0803048c08f6d9ad974f4087858585604051611f639493929190612f3e565b60405180910390a250505092915050565b611f7c611922565b6001600060146101000a81548160ff0219169083151502179055507f62e78cea01bee320cd4e420270b5ea74000d11b0c9f74754ebdbfc544b05a258611fc0611fd7565b604051611fcd91906127c3565b60405180910390a1565b600033905090565b611fe76110c4565b61201d576040517f8dfc202b00000000000000000000000000000000000000000000000000000000815260040160405180910390fd5b565b600080600381111561203457612033612f83565b5b82600381111561204757612046612f83565b5b036120575762278d0090506120fc565b6001600381111561206b5761206a612f83565b5b82600381111561207e5761207d612f83565b5b0361208e57623b538090506120fc565b600260038111156120a2576120a1612f83565b5b8260038111156120b5576120b4612f83565b5b036120c557624f1a0090506120fc565b6003808111156120d8576120d7612f83565b5b8260038111156120eb576120ea612f83565b5b036120fb576276a70090506120fc565b5b919050565b60405180606001604052806000815260200160008152602001600081525090565b604051806101e0016040528060008152602001600081526020016000815260200160008152602001600081526020016000815260200160008152602001600081526020016000815260200160008152602001600073ffffffffffffffffffffffffffffffffffffffff1681526020016000151581526020016000815260200160008152602001600081525090565b600073ffffffffffffffffffffffffffffffffffffffff82169050919050565b60006121db826121b0565b9050919050565b6121eb816121d0565b82525050565b6000819050919050565b612204816121f1565b82525050565b600061014082019050612220600083018d6121e2565b61222d602083018c6121fb565b61223a604083018b6121fb565b612247606083018a6121fb565b61225460808301896121fb565b61226160a08301886121fb565b61226e60c08301876121fb565b61227b60e08301866121fb565b6122896101008301856121fb565b6122976101208301846121fb565b9b9a5050505050505050505050565b600080fd5b6122b4816121f1565b81146122bf57600080fd5b50565b6000813590506122d1816122ab565b92915050565b6000602082840312156122ed576122ec6122a6565b5b60006122fb848285016122c2565b91505092915050565b61230d816121d0565b811461231857600080fd5b50565b60008135905061232a81612304565b92915050565b600060208284031215612346576123456122a6565b5b60006123548482850161231b565b91505092915050565b600081519050919050565b600082825260208201905092915050565b6000819050602082019050919050565b612392816121f1565b82525050565b6060820160008201516123ae6000850182612389565b5060208201516123c16020850182612389565b5060408201516123d46040850182612389565b50505050565b60006123e68383612398565b60608301905092915050565b6000602082019050919050565b600061240a8261235d565b6124148185612368565b935061241f83612379565b8060005b8381101561245057815161243788826123da565b9750612442836123f2565b925050600181019050612423565b5085935050505092915050565b6000602082019050818103600083015261247781846123ff565b905092915050565b600060208201905061249460008301846121fb565b92915050565b600080604083850312156124b1576124b06122a6565b5b60006124bf858286016122c2565b92505060206124d0858286016122c2565b9150509250929050565b60006040820190506124ef60008301856121fb565b6124fc60208301846121fb565b9392505050565b60008115159050919050565b61251881612503565b82525050565b6000602082019050612533600083018461250f565b92915050565b6004811061254657600080fd5b50565b60008135905061255881612539565b92915050565b60008060408385031215612575576125746122a6565b5b6000612583858286016122c2565b925050602061259485828601612549565b9150509250929050565b600081519050919050565b600082825260208201905092915050565b6000819050602082019050919050565b6125d3816121d0565b82525050565b6125e281612503565b82525050565b6101e0820160008201516125ff6000850182612389565b5060208201516126126020850182612389565b5060408201516126256040850182612389565b5060608201516126386060850182612389565b50608082015161264b6080850182612389565b5060a082015161265e60a0850182612389565b5060c082015161267160c0850182612389565b5060e082015161268460e0850182612389565b50610100820151612699610100850182612389565b506101208201516126ae610120850182612389565b506101408201516126c36101408501826125ca565b506101608201516126d86101608501826125d9565b506101808201516126ed610180850182612389565b506101a08201516127026101a0850182612389565b506101c08201516127176101c0850182612389565b50505050565b600061272983836125e8565b6101e08301905092915050565b6000602082019050919050565b600061274e8261259e565b61275881856125a9565b9350612763836125ba565b8060005b8381101561279457815161277b888261271d565b975061278683612736565b925050600181019050612767565b5085935050505092915050565b600060208201905081810360008301526127bb8184612743565b905092915050565b60006020820190506127d860008301846121e2565b92915050565b600080604083850312156127f5576127f46122a6565b5b60006128038582860161231b565b9250506020612814858286016122c2565b9150509250929050565b6000819050919050565b600061284361283e612839846121b0565b61281e565b6121b0565b9050919050565b600061285582612828565b9050919050565b60006128678261284a565b9050919050565b6128778161285c565b82525050565b6000602082019050612892600083018461286e565b92915050565b7f4e487b7100000000000000000000000000000000000000000000000000000000600052603260045260246000fd5b600082825260208201905092915050565b7f4e6f74206f776e65720000000000000000000000000000000000000000000000600082015250565b600061290e6009836128c7565b9150612919826128d8565b602082019050919050565b6000602082019050818103600083015261293d81612901565b9050919050565b7f5374616b696e67206e6f74207374617274656400000000000000000000000000600082015250565b600061297a6013836128c7565b915061298582612944565b602082019050919050565b600060208201905081810360008301526129a98161296d565b9050919050565b7f416c726561647920756e7374616b656400000000000000000000000000000000600082015250565b60006129e66010836128c7565b91506129f1826129b0565b602082019050919050565b60006020820190508181036000830152612a15816129d9565b9050919050565b7f4e6f207265776172647320746f20636c61696d00000000000000000000000000600082015250565b6000612a526013836128c7565b9150612a5d82612a1c565b602082019050919050565b60006020820190508181036000830152612a8181612a45565b9050919050565b7f4e487b7100000000000000000000000000000000000000000000000000000000600052601160045260246000fd5b6000612ac2826121f1565b9150612acd836121f1565b9250828201905080821115612ae557612ae4612a88565b5b92915050565b6000604082019050612b0060008301856121e2565b612b0d60208301846121fb565b9392505050565b612b1d81612503565b8114612b2857600080fd5b50565b600081519050612b3a81612b14565b92915050565b600060208284031215612b5657612b556122a6565b5b6000612b6484828501612b2b565b91505092915050565b7f5472616e73666572206661696c65640000000000000000000000000000000000600082015250565b6000612ba3600f836128c7565b9150612bae82612b6d565b602082019050919050565b60006020820190508181036000830152612bd281612b96565b9050919050565b7f5374616b65206e6f74206d617475726564000000000000000000000000000000600082015250565b6000612c0f6011836128c7565b9150612c1a82612bd9565b602082019050919050565b60006020820190508181036000830152612c3e81612c02565b9050919050565b6000612c50826121f1565b9150612c5b836121f1565b9250828203905081811115612c7357612c72612a88565b5b92915050565b6000606082019050612c8e60008301866121fb565b612c9b60208301856121fb565b612ca860408301846121fb565b949350505050565b7f4e487b7100000000000000000000000000000000000000000000000000000000600052604160045260246000fd5b6000612cea826121f1565b9150612cf5836121f1565b9250828202612d03816121f1565b91508282048414831517612d1a57612d19612a88565b5b5092915050565b7f4e487b7100000000000000000000000000000000000000000000000000000000600052601260045260246000fd5b6000612d5b826121f1565b9150612d66836121f1565b925082612d7657612d75612d21565b5b828204905092915050565b7f436f6f6c20646f776e20706572696f6400000000000000000000000000000000600082015250565b6000612db76010836128c7565b9150612dc282612d81565b602082019050919050565b60006020820190508181036000830152612de681612daa565b9050919050565b600081519050612dfc816122ab565b92915050565b600060208284031215612e1857612e176122a6565b5b6000612e2684828501612ded565b91505092915050565b7f5374616b696e6720656e64656400000000000000000000000000000000000000600082015250565b6000612e65600d836128c7565b9150612e7082612e2f565b602082019050919050565b60006020820190508181036000830152612e9481612e58565b9050919050565b6000606082019050612eb060008301866121e2565b612ebd60208301856121e2565b612eca60408301846121fb565b949350505050565b7f4d696e696d756d207374616b65206e6f74206d65740000000000000000000000600082015250565b6000612f086015836128c7565b9150612f1382612ed2565b602082019050919050565b60006020820190508181036000830152612f3781612efb565b9050919050565b6000608082019050612f5360008301876121fb565b612f6060208301866121fb565b612f6d60408301856121fb565b612f7a60608301846121fb565b95945050505050565b7f4e487b7100000000000000000000000000000000000000000000000000000000600052602160045260246000fdfea26469706673582212203e6dde1bff9979abd258d347ac0a75867b1ee36368a6f4080eb5d9749c69bf8264736f6c63430008180033",
  "linkReferences": {},
  "deployedLinkReferences": {}
}