{
  "_format": "hh-sol-artifact-1",
  "contractName": "ThrustpadMultiSender",
  "sourceName": "contracts/multisender/ThrustpadMultiSender.sol",
  "abi": [
    {
      "inputs": [
        {
          "internalType": "address",
          "name": "_token",
          "type": "address"
        },
        {
          "internalType": "address[]",
          "name": "_receivers",
          "type": "address[]"
        },
        {
          "internalType": "uint256[]",
          "name": "_amounts",
          "type": "uint256[]"
        }
      ],
      "stateMutability": "payable",
      "type": "constructor"
    },
    {
      "inputs": [
        {
          "internalType": "address",
          "name": "owner",
          "type": "address"
        }
      ],
      "name": "OwnableInvalidOwner",
      "type": "error"
    },
    {
      "inputs": [
        {
          "internalType": "address",
          "name": "account",
          "type": "address"
        }
      ],
      "name": "OwnableUnauthorizedAccount",
      "type": "error"
    },
    {
      "anonymous": false,
      "inputs": [
        {
          "indexed": true,
          "internalType": "address",
          "name": "previousOwner",
          "type": "address"
        },
        {
          "indexed": true,
          "internalType": "address",
          "name": "newOwner",
          "type": "address"
        }
      ],
      "name": "OwnershipTransferred",
      "type": "event"
    },
    {
      "inputs": [
        {
          "internalType": "uint256",
          "name": "",
          "type": "uint256"
        }
      ],
      "name": "amounts",
      "outputs": [
        {
          "internalType": "uint256",
          "name": "",
          "type": "uint256"
        }
      ],
      "stateMutability": "view",
      "type": "function"
    },
    {
      "inputs": [],
      "name": "multisend",
      "outputs": [],
      "stateMutability": "nonpayable",
      "type": "function"
    },
    {
      "inputs": [],
      "name": "owner",
      "outputs": [
        {
          "internalType": "address",
          "name": "",
          "type": "address"
        }
      ],
      "stateMutability": "view",
      "type": "function"
    },
    {
      "inputs": [
        {
          "internalType": "uint256",
          "name": "",
          "type": "uint256"
        }
      ],
      "name": "receivers",
      "outputs": [
        {
          "internalType": "address",
          "name": "",
          "type": "address"
        }
      ],
      "stateMutability": "view",
      "type": "function"
    },
    {
      "inputs": [],
      "name": "renounceOwnership",
      "outputs": [],
      "stateMutability": "nonpayable",
      "type": "function"
    },
    {
      "inputs": [],
      "name": "token",
      "outputs": [
        {
          "internalType": "address",
          "name": "",
          "type": "address"
        }
      ],
      "stateMutability": "view",
      "type": "function"
    },
    {
      "inputs": [
        {
          "internalType": "address",
          "name": "newOwner",
          "type": "address"
        }
      ],
      "name": "transferOwnership",
      "outputs": [],
      "stateMutability": "nonpayable",
      "type": "function"
    },
    {
      "stateMutability": "payable",
      "type": "receive"
    }
  ],
  "bytecode": "0x608060405260405162000972380380620009728339810160408190526200002691620002bb565b33806200004d57604051631e4fbdf760e01b81526000600482015260240160405180910390fd5b6200005881620000a9565b50600180546001600160a01b0319166001600160a01b038516179055815162000089906002906020850190620000f9565b5080516200009f90600390602084019062000163565b505050506200039f565b600080546001600160a01b038381166001600160a01b0319831681178455604051919092169283917f8be0079c531659141344cd1fd0a4f28419497f9722a3daafe3b4186f6b6457e09190a35050565b82805482825590600052602060002090810192821562000151579160200282015b828111156200015157825182546001600160a01b0319166001600160a01b039091161782556020909201916001909101906200011a565b506200015f929150620001a1565b5090565b82805482825590600052602060002090810192821562000151579160200282015b828111156200015157825182559160200191906001019062000184565b5b808211156200015f5760008155600101620001a2565b80516001600160a01b0381168114620001d057600080fd5b919050565b634e487b7160e01b600052604160045260246000fd5b604051601f8201601f191681016001600160401b0381118282101715620002165762000216620001d5565b604052919050565b60006001600160401b038211156200023a576200023a620001d5565b5060051b60200190565b600082601f8301126200025657600080fd5b815160206200026f62000269836200021e565b620001eb565b8083825260208201915060208460051b8701019350868411156200029257600080fd5b602086015b84811015620002b0578051835291830191830162000297565b509695505050505050565b600080600060608486031215620002d157600080fd5b620002dc84620001b8565b602085810151919450906001600160401b0380821115620002fc57600080fd5b818701915087601f8301126200031157600080fd5b81516200032262000269826200021e565b81815260059190911b8301840190848101908a8311156200034257600080fd5b938501935b828510156200036b576200035b85620001b8565b8252938501939085019062000347565b60408a015190975094505050808311156200038557600080fd5b5050620003958682870162000244565b9150509250925092565b6105c380620003af6000396000f3fe6080604052600436106100745760003560e01c80638da5cb5b1161004e5780638da5cb5b146100df578063bfd772fc14610111578063f2fde38b14610131578063fc0c546a1461015157600080fd5b8063294402cc1461008057806345f0a44f14610097578063715018a6146100ca57600080fd5b3661007b57005b600080fd5b34801561008c57600080fd5b50610095610171565b005b3480156100a357600080fd5b506100b76100b23660046104f3565b61038f565b6040519081526020015b60405180910390f35b3480156100d657600080fd5b506100956103b0565b3480156100eb57600080fd5b506000546001600160a01b03165b6040516001600160a01b0390911681526020016100c1565b34801561011d57600080fd5b506100f961012c3660046104f3565b6103c2565b34801561013d57600080fd5b5061009561014c36600461050c565b6103ec565b34801561015d57600080fd5b506001546100f9906001600160a01b031681565b610179610445565b6001546001600160a01b03166102555760005b6002548110156102525760006001600160a01b0316600282815481106101b4576101b461053c565b6000918252602090912001546001600160a01b03161461024a57600281815481106101e1576101e161053c565b600091825260209091200154600380546001600160a01b03909216916108fc9190849081106102125761021261053c565b90600052602060002001549081150290604051600060405180830381858888f19350505050158015610248573d6000803e3d6000fd5b505b60010161018c565b50565b60005b6002548110156102525760006001600160a01b0316600282815481106102805761028061053c565b6000918252602090912001546001600160a01b03161461038557600154600280546001600160a01b039092169163a9059cbb9190849081106102c4576102c461053c565b600091825260209091200154600380546001600160a01b0390921691859081106102f0576102f061053c565b6000918252602090912001546040517fffffffff0000000000000000000000000000000000000000000000000000000060e085901b1681526001600160a01b03909216600483015260248201526044016020604051808303816000875af115801561035f573d6000803e3d6000fd5b505050506040513d601f19601f82011682018060405250810190610383919061056b565b505b600101610258565b565b6003818154811061039f57600080fd5b600091825260209091200154905081565b6103b8610445565b61038d600061048b565b600281815481106103d257600080fd5b6000918252602090912001546001600160a01b0316905081565b6103f4610445565b6001600160a01b03811661043c576040517f1e4fbdf7000000000000000000000000000000000000000000000000000000008152600060048201526024015b60405180910390fd5b6102528161048b565b6000546001600160a01b0316331461038d576040517f118cdaa7000000000000000000000000000000000000000000000000000000008152336004820152602401610433565b600080546001600160a01b038381167fffffffffffffffffffffffff0000000000000000000000000000000000000000831681178455604051919092169283917f8be0079c531659141344cd1fd0a4f28419497f9722a3daafe3b4186f6b6457e09190a35050565b60006020828403121561050557600080fd5b5035919050565b60006020828403121561051e57600080fd5b81356001600160a01b038116811461053557600080fd5b9392505050565b7f4e487b7100000000000000000000000000000000000000000000000000000000600052603260045260246000fd5b60006020828403121561057d57600080fd5b8151801515811461053557600080fdfea2646970667358221220dadda30a8970ef9620fcf9324bfdd4478a372ce2eaf63881690d4519e8ac3a7364736f6c63430008180033",
  "linkReferences": {},
  "deployedLinkReferences": {}
}