{
  "_format": "hh-sol-artifact-1",
  "contractName": "ThrustpadLockerFactory",
  "sourceName": "contracts/locker/ThrustpadLockerFactory.sol",
  "abi": [
    {
      "anonymous": false,
      "inputs": [
        {
          "indexed": true,
          "internalType": "address",
          "name": "creator",
          "type": "address"
        },
        {
          "indexed": true,
          "internalType": "address",
          "name": "token",
          "type": "address"
        },
        {
          "indexed": false,
          "internalType": "uint256",
          "name": "amount",
          "type": "uint256"
        }
      ],
      "name": "NewLock",
      "type": "event"
    },
    {
      "inputs": [
        {
          "internalType": "address",
          "name": "",
          "type": "address"
        },
        {
          "internalType": "uint256",
          "name": "",
          "type": "uint256"
        }
      ],
      "name": "deployedLocks",
      "outputs": [
        {
          "internalType": "address",
          "name": "",
          "type": "address"
        }
      ],
      "stateMutability": "view",
      "type": "function"
    },
    {
      "inputs": [
        {
          "internalType": "bytes",
          "name": "bytecode",
          "type": "bytes"
        },
        {
          "internalType": "uint256",
          "name": "salt",
          "type": "uint256"
        }
      ],
      "name": "getAddressCreate2",
      "outputs": [
        {
          "internalType": "address",
          "name": "",
          "type": "address"
        }
      ],
      "stateMutability": "view",
      "type": "function"
    },
    {
      "inputs": [
        {
          "internalType": "address",
          "name": "token",
          "type": "address"
        },
        {
          "internalType": "uint256",
          "name": "lockTime",
          "type": "uint256"
        },
        {
          "internalType": "uint256",
          "name": "amount",
          "type": "uint256"
        }
      ],
      "name": "getBytecode",
      "outputs": [
        {
          "internalType": "bytes",
          "name": "",
          "type": "bytes"
        }
      ],
      "stateMutability": "pure",
      "type": "function"
    },
    {
      "inputs": [
        {
          "internalType": "address",
          "name": "creator",
          "type": "address"
        }
      ],
      "name": "getdeployedLocks",
      "outputs": [
        {
          "internalType": "address[]",
          "name": "",
          "type": "address[]"
        }
      ],
      "stateMutability": "view",
      "type": "function"
    },
    {
      "inputs": [
        {
          "internalType": "address",
          "name": "creator",
          "type": "address"
        }
      ],
      "name": "getdeployedLocksLen",
      "outputs": [
        {
          "internalType": "uint256",
          "name": "",
          "type": "uint256"
        }
      ],
      "stateMutability": "view",
      "type": "function"
    },
    {
      "inputs": [
        {
          "internalType": "contract IERC20",
          "name": "token",
          "type": "address"
        },
        {
          "internalType": "uint256",
          "name": "lockTime",
          "type": "uint256"
        },
        {
          "internalType": "uint256",
          "name": "amount",
          "type": "uint256"
        }
      ],
      "name": "newLock",
      "outputs": [
        {
          "internalType": "address",
          "name": "",
          "type": "address"
        }
      ],
      "stateMutability": "nonpayable",
      "type": "function"
    }
  ],
  "bytecode": "0x608060405234801561001057600080fd5b50611f74806100206000396000f3fe60806040523480156200001157600080fd5b50600436106200006a5760003560e01c80630534f358146200006f57806317244e4c14620000a557806325c77b7b14620000db5780639f886f261462000111578063b90060d41462000147578063c9a151a1146200017d575b600080fd5b6200008d6004803603810190620000879190620006ca565b620001b3565b6040516200009c919062000722565b60405180910390f35b620000c36004803603810190620000bd91906200073f565b62000202565b604051620000d2919062000835565b60405180910390f35b620000f96004803603810190620000f3919062000859565b62000281565b60405162000108919062000959565b60405180910390f35b6200012f600480360381019062000129919062000ace565b6200034f565b6040516200013e919062000722565b60405180910390f35b6200016560048036038101906200015f919062000859565b6200039b565b60405162000174919062000b45565b60405180910390f35b6200019b600480360381019062000195919062000ba7565b620003e6565b604051620001aa919062000722565b60405180910390f35b60006020528160005260406000208181548110620001d057600080fd5b906000526020600020016000915091509054906101000a900473ffffffffffffffffffffffffffffffffffffffff1681565b6060600060405180602001620002189062000608565b6020820181038252601f19601f82011660405250905080858585604051602001620002469392919062000c03565b6040516020818303038152906040526040516020016200026892919062000c82565b6040516020818303038152906040529150509392505050565b60606000808373ffffffffffffffffffffffffffffffffffffffff1673ffffffffffffffffffffffffffffffffffffffff1681526020019081526020016000208054806020026020016040519081016040528092919081815260200182805480156200034357602002820191906000526020600020905b8160009054906101000a900473ffffffffffffffffffffffffffffffffffffffff1673ffffffffffffffffffffffffffffffffffffffff1681526020019060010190808311620002f8575b50505050509050919050565b60008060ff60f81b3084868051906020012060405160200162000376949392919062000d9f565b6040516020818303038152906040528051906020012090508060001c91505092915050565b60008060008373ffffffffffffffffffffffffffffffffffffffff1673ffffffffffffffffffffffffffffffffffffffff168152602001908152602001600020805490509050919050565b6000806000803373ffffffffffffffffffffffffffffffffffffffff1673ffffffffffffffffffffffffffffffffffffffff1681526020019081526020016000208054905060001b8585856040516200043f9062000608565b6200044d9392919062000e60565b8190604051809103906000f59050801580156200046e573d6000803e3d6000fd5b5090506000803373ffffffffffffffffffffffffffffffffffffffff1673ffffffffffffffffffffffffffffffffffffffff168152602001908152602001600020819080600181540180825580915050600190039060005260206000200160009091909190916101000a81548173ffffffffffffffffffffffffffffffffffffffff021916908373ffffffffffffffffffffffffffffffffffffffff1602179055508473ffffffffffffffffffffffffffffffffffffffff166323b872dd3383866040518463ffffffff1660e01b81526004016200054f9392919062000e9d565b6020604051808303816000875af11580156200056f573d6000803e3d6000fd5b505050506040513d601f19601f8201168201806040525081019062000595919062000f17565b508073ffffffffffffffffffffffffffffffffffffffff163373ffffffffffffffffffffffffffffffffffffffff167f71f1aa61f9afdaeebcbc2d8139ef2c56dfeadd5bfdfacb004f9a5bb162c3e2b085604051620005f5919062000b45565b60405180910390a3809150509392505050565b610ff58062000f4a83390190565b6000604051905090565b600080fd5b600080fd5b600073ffffffffffffffffffffffffffffffffffffffff82169050919050565b600062000657826200062a565b9050919050565b62000669816200064a565b81146200067557600080fd5b50565b60008135905062000689816200065e565b92915050565b6000819050919050565b620006a4816200068f565b8114620006b057600080fd5b50565b600081359050620006c48162000699565b92915050565b60008060408385031215620006e457620006e362000620565b5b6000620006f48582860162000678565b92505060206200070785828601620006b3565b9150509250929050565b6200071c816200064a565b82525050565b600060208201905062000739600083018462000711565b92915050565b6000806000606084860312156200075b576200075a62000620565b5b60006200076b8682870162000678565b93505060206200077e86828701620006b3565b92505060406200079186828701620006b3565b9150509250925092565b600081519050919050565b600082825260208201905092915050565b60005b83811015620007d7578082015181840152602081019050620007ba565b60008484015250505050565b6000601f19601f8301169050919050565b600062000801826200079b565b6200080d8185620007a6565b93506200081f818560208601620007b7565b6200082a81620007e3565b840191505092915050565b60006020820190508181036000830152620008518184620007f4565b905092915050565b60006020828403121562000872576200087162000620565b5b6000620008828482850162000678565b91505092915050565b600081519050919050565b600082825260208201905092915050565b6000819050602082019050919050565b620008c2816200064a565b82525050565b6000620008d68383620008b7565b60208301905092915050565b6000602082019050919050565b6000620008fc826200088b565b62000908818562000896565b93506200091583620008a7565b8060005b838110156200094c578151620009308882620008c8565b97506200093d83620008e2565b92505060018101905062000919565b5085935050505092915050565b60006020820190508181036000830152620009758184620008ef565b905092915050565b600080fd5b600080fd5b7f4e487b7100000000000000000000000000000000000000000000000000000000600052604160045260246000fd5b620009c182620007e3565b810181811067ffffffffffffffff82111715620009e357620009e262000987565b5b80604052505050565b6000620009f862000616565b905062000a068282620009b6565b919050565b600067ffffffffffffffff82111562000a295762000a2862000987565b5b62000a3482620007e3565b9050602081019050919050565b82818337600083830152505050565b600062000a6762000a618462000a0b565b620009ec565b90508281526020810184848401111562000a865762000a8562000982565b5b62000a9384828562000a41565b509392505050565b600082601f83011262000ab35762000ab26200097d565b5b813562000ac584826020860162000a50565b91505092915050565b6000806040838503121562000ae85762000ae762000620565b5b600083013567ffffffffffffffff81111562000b095762000b0862000625565b5b62000b178582860162000a9b565b925050602062000b2a85828601620006b3565b9150509250929050565b62000b3f816200068f565b82525050565b600060208201905062000b5c600083018462000b34565b92915050565b600062000b6f826200064a565b9050919050565b62000b818162000b62565b811462000b8d57600080fd5b50565b60008135905062000ba18162000b76565b92915050565b60008060006060848603121562000bc35762000bc262000620565b5b600062000bd38682870162000b90565b935050602062000be686828701620006b3565b925050604062000bf986828701620006b3565b9150509250925092565b600060608201905062000c1a600083018662000711565b62000c29602083018562000b34565b62000c38604083018462000b34565b949350505050565b600081905092915050565b600062000c58826200079b565b62000c64818562000c40565b935062000c76818560208601620007b7565b80840191505092915050565b600062000c90828562000c4b565b915062000c9e828462000c4b565b91508190509392505050565b60007fff0000000000000000000000000000000000000000000000000000000000000082169050919050565b6000819050919050565b62000cf562000cef8262000caa565b62000cd6565b82525050565b60008160601b9050919050565b600062000d158262000cfb565b9050919050565b600062000d298262000d08565b9050919050565b62000d4562000d3f826200064a565b62000d1c565b82525050565b6000819050919050565b62000d6a62000d64826200068f565b62000d4b565b82525050565b6000819050919050565b6000819050919050565b62000d9962000d938262000d70565b62000d7a565b82525050565b600062000dad828762000ce0565b60018201915062000dbf828662000d30565b60148201915062000dd1828562000d55565b60208201915062000de3828462000d84565b60208201915081905095945050505050565b6000819050919050565b600062000e2062000e1a62000e14846200062a565b62000df5565b6200062a565b9050919050565b600062000e348262000dff565b9050919050565b600062000e488262000e27565b9050919050565b62000e5a8162000e3b565b82525050565b600060608201905062000e77600083018662000e4f565b62000e86602083018562000b34565b62000e95604083018462000b34565b949350505050565b600060608201905062000eb4600083018662000711565b62000ec3602083018562000711565b62000ed2604083018462000b34565b949350505050565b60008115159050919050565b62000ef18162000eda565b811462000efd57600080fd5b50565b60008151905062000f118162000ee6565b92915050565b60006020828403121562000f305762000f2f62000620565b5b600062000f408482850162000f00565b9150509291505056fe6101006040523480156200001257600080fd5b5060405162000ff538038062000ff583398181016040528101906200003891906200036d565b32600073ffffffffffffffffffffffffffffffffffffffff168173ffffffffffffffffffffffffffffffffffffffff1603620000ae5760006040517f1e4fbdf7000000000000000000000000000000000000000000000000000000008152600401620000a59190620003da565b60405180910390fd5b620000bf81620001f060201b60201c565b506000821162000106576040517f08c379a0000000000000000000000000000000000000000000000000000000008152600401620000fd906200047e565b60405180910390fd5b8273ffffffffffffffffffffffffffffffffffffffff1660808173ffffffffffffffffffffffffffffffffffffffff16815250503273ffffffffffffffffffffffffffffffffffffffff1660a08173ffffffffffffffffffffffffffffffffffffffff16815250508160c081815250504260e081815250508273ffffffffffffffffffffffffffffffffffffffff163273ffffffffffffffffffffffffffffffffffffffff167fe5d7d4b5cb0219916a8be73968f7baf3c806fd018b0cc5598f5129436cf5c3164285604051620001df929190620004b1565b60405180910390a3505050620004de565b60008060009054906101000a900473ffffffffffffffffffffffffffffffffffffffff169050816000806101000a81548173ffffffffffffffffffffffffffffffffffffffff021916908373ffffffffffffffffffffffffffffffffffffffff1602179055508173ffffffffffffffffffffffffffffffffffffffff168173ffffffffffffffffffffffffffffffffffffffff167f8be0079c531659141344cd1fd0a4f28419497f9722a3daafe3b4186f6b6457e060405160405180910390a35050565b600080fd5b600073ffffffffffffffffffffffffffffffffffffffff82169050919050565b6000620002e682620002b9565b9050919050565b6000620002fa82620002d9565b9050919050565b6200030c81620002ed565b81146200031857600080fd5b50565b6000815190506200032c8162000301565b92915050565b6000819050919050565b620003478162000332565b81146200035357600080fd5b50565b60008151905062000367816200033c565b92915050565b600080600060608486031215620003895762000388620002b4565b5b600062000399868287016200031b565b9350506020620003ac8682870162000356565b9250506040620003bf8682870162000356565b9150509250925092565b620003d481620002d9565b82525050565b6000602082019050620003f16000830184620003c9565b92915050565b600082825260208201905092915050565b7f546f6b656e4c6f636b3a206c6f636b2074696d652073686f756c64206772656160008201527f746572207468616e203000000000000000000000000000000000000000000000602082015250565b600062000466602a83620003f7565b9150620004738262000408565b604082019050919050565b60006020820190508181036000830152620004998162000457565b9050919050565b620004ab8162000332565b82525050565b6000604082019050620004c86000830185620004a0565b620004d76020830184620004a0565b9392505050565b60805160a05160c05160e051610ab362000542600039600081816101b101526101fe01526000818161015501526101dd015260008181610179015261038801526000818161026d0152818161034c0152818161040b01526105440152610ab36000f3fe608060405234801561001057600080fd5b50600436106100885760003560e01c806386d1a69f1161005b57806386d1a69f146100f15780638da5cb5b146100fb578063f2fde38b14610119578063fc0c546a1461013557610088565b80630d6680871461008d57806338af3eed146100ab578063715018a6146100c957806378e97925146100d3575b600080fd5b610095610153565b6040516100a291906106d2565b60405180910390f35b6100b3610177565b6040516100c0919061072e565b60405180910390f35b6100d161019b565b005b6100db6101af565b6040516100e891906106d2565b60405180910390f35b6100f96101d3565b005b610103610493565b604051610110919061072e565b60405180910390f35b610133600480360381019061012e919061077a565b6104bc565b005b61013d610542565b60405161014a9190610806565b60405180910390f35b7f000000000000000000000000000000000000000000000000000000000000000081565b7f000000000000000000000000000000000000000000000000000000000000000081565b6101a3610566565b6101ad60006105ed565b565b7f000000000000000000000000000000000000000000000000000000000000000081565b6101db610566565b7f00000000000000000000000000000000000000000000000000000000000000007f00000000000000000000000000000000000000000000000000000000000000006102279190610850565b421015610269576040517f08c379a0000000000000000000000000000000000000000000000000000000008152600401610260906108e1565b60405180910390fd5b60007f000000000000000000000000000000000000000000000000000000000000000073ffffffffffffffffffffffffffffffffffffffff166370a08231306040518263ffffffff1660e01b81526004016102c4919061072e565b602060405180830381865afa1580156102e1573d6000803e3d6000fd5b505050506040513d601f19601f82011682018060405250810190610305919061092d565b90506000811161034a576040517f08c379a0000000000000000000000000000000000000000000000000000000008152600401610341906109a6565b60405180910390fd5b7f000000000000000000000000000000000000000000000000000000000000000073ffffffffffffffffffffffffffffffffffffffff1663a9059cbb7f0000000000000000000000000000000000000000000000000000000000000000836040518363ffffffff1660e01b81526004016103c59291906109c6565b6020604051808303816000875af11580156103e4573d6000803e3d6000fd5b505050506040513d601f19601f820116820180604052508101906104089190610a27565b507f000000000000000000000000000000000000000000000000000000000000000073ffffffffffffffffffffffffffffffffffffffff163373ffffffffffffffffffffffffffffffffffffffff167f10b55f01b1cfe0feeb7d144f66162661602d8e73256499b6d8342aac37ff06794284604051610488929190610a54565b60405180910390a350565b60008060009054906101000a900473ffffffffffffffffffffffffffffffffffffffff16905090565b6104c4610566565b600073ffffffffffffffffffffffffffffffffffffffff168173ffffffffffffffffffffffffffffffffffffffff16036105365760006040517f1e4fbdf700000000000000000000000000000000000000000000000000000000815260040161052d919061072e565b60405180910390fd5b61053f816105ed565b50565b7f000000000000000000000000000000000000000000000000000000000000000081565b61056e6106b1565b73ffffffffffffffffffffffffffffffffffffffff1661058c610493565b73ffffffffffffffffffffffffffffffffffffffff16146105eb576105af6106b1565b6040517f118cdaa70000000000000000000000000000000000000000000000000000000081526004016105e2919061072e565b60405180910390fd5b565b60008060009054906101000a900473ffffffffffffffffffffffffffffffffffffffff169050816000806101000a81548173ffffffffffffffffffffffffffffffffffffffff021916908373ffffffffffffffffffffffffffffffffffffffff1602179055508173ffffffffffffffffffffffffffffffffffffffff168173ffffffffffffffffffffffffffffffffffffffff167f8be0079c531659141344cd1fd0a4f28419497f9722a3daafe3b4186f6b6457e060405160405180910390a35050565b600033905090565b6000819050919050565b6106cc816106b9565b82525050565b60006020820190506106e760008301846106c3565b92915050565b600073ffffffffffffffffffffffffffffffffffffffff82169050919050565b6000610718826106ed565b9050919050565b6107288161070d565b82525050565b6000602082019050610743600083018461071f565b92915050565b600080fd5b6107578161070d565b811461076257600080fd5b50565b6000813590506107748161074e565b92915050565b6000602082840312156107905761078f610749565b5b600061079e84828501610765565b91505092915050565b6000819050919050565b60006107cc6107c76107c2846106ed565b6107a7565b6106ed565b9050919050565b60006107de826107b1565b9050919050565b60006107f0826107d3565b9050919050565b610800816107e5565b82525050565b600060208201905061081b60008301846107f7565b92915050565b7f4e487b7100000000000000000000000000000000000000000000000000000000600052601160045260246000fd5b600061085b826106b9565b9150610866836106b9565b925082820190508082111561087e5761087d610821565b5b92915050565b600082825260208201905092915050565b7f546f6b656e4c6f636b3a206c6f636b2074696d65206e6f742065787069726564600082015250565b60006108cb602083610884565b91506108d682610895565b602082019050919050565b600060208201905081810360008301526108fa816108be565b9050919050565b61090a816106b9565b811461091557600080fd5b50565b60008151905061092781610901565b92915050565b60006020828403121561094357610942610749565b5b600061095184828501610918565b91505092915050565b7f546f6b656e4c6f636b3a206e6f20746f6b656e7320746f2072656c6561736500600082015250565b6000610990601f83610884565b915061099b8261095a565b602082019050919050565b600060208201905081810360008301526109bf81610983565b9050919050565b60006040820190506109db600083018561071f565b6109e860208301846106c3565b9392505050565b60008115159050919050565b610a04816109ef565b8114610a0f57600080fd5b50565b600081519050610a21816109fb565b92915050565b600060208284031215610a3d57610a3c610749565b5b6000610a4b84828501610a12565b91505092915050565b6000604082019050610a6960008301856106c3565b610a7660208301846106c3565b939250505056fea2646970667358221220c8e15c108e37bd5ebb7b9c40b8c1b535264a4fd5dc7bfabcccdc5c3ce201aa8664736f6c63430008180033a2646970667358221220d908c82129a5ff8a1c2b40a693e908b9afcf33eb94d3f7a2b297b484eb11e7ce64736f6c63430008180033",
  "linkReferences": {},
  "deployedLinkReferences": {}
}