{
  "_format": "hh-sol-artifact-1",
  "contractName": "ThrustpadLockerFactory",
  "sourceName": "contracts/locker/ThrustpadLockerFactory.sol",
  "abi": [
    {
      "inputs": [],
      "stateMutability": "nonpayable",
      "type": "constructor"
    },
    {
      "inputs": [
        {
          "internalType": "address",
          "name": "owner",
          "type": "address"
        }
      ],
      "name": "OwnableInvalidOwner",
      "type": "error"
    },
    {
      "inputs": [
        {
          "internalType": "address",
          "name": "account",
          "type": "address"
        }
      ],
      "name": "OwnableUnauthorizedAccount",
      "type": "error"
    },
    {
      "anonymous": false,
      "inputs": [
        {
          "indexed": true,
          "internalType": "address",
          "name": "creator",
          "type": "address"
        },
        {
          "indexed": true,
          "internalType": "address",
          "name": "token",
          "type": "address"
        },
        {
          "indexed": false,
          "internalType": "uint256",
          "name": "amount",
          "type": "uint256"
        }
      ],
      "name": "NewLock",
      "type": "event"
    },
    {
      "anonymous": false,
      "inputs": [
        {
          "indexed": true,
          "internalType": "address",
          "name": "previousOwner",
          "type": "address"
        },
        {
          "indexed": true,
          "internalType": "address",
          "name": "newOwner",
          "type": "address"
        }
      ],
      "name": "OwnershipTransferred",
      "type": "event"
    },
    {
      "inputs": [],
      "name": "creationFee",
      "outputs": [
        {
          "internalType": "uint256",
          "name": "",
          "type": "uint256"
        }
      ],
      "stateMutability": "view",
      "type": "function"
    },
    {
      "inputs": [
        {
          "internalType": "address",
          "name": "",
          "type": "address"
        },
        {
          "internalType": "uint256",
          "name": "",
          "type": "uint256"
        }
      ],
      "name": "deployedLocks",
      "outputs": [
        {
          "internalType": "address",
          "name": "",
          "type": "address"
        }
      ],
      "stateMutability": "view",
      "type": "function"
    },
    {
      "inputs": [],
      "name": "feeEarned",
      "outputs": [
        {
          "internalType": "uint256",
          "name": "",
          "type": "uint256"
        }
      ],
      "stateMutability": "view",
      "type": "function"
    },
    {
      "inputs": [
        {
          "internalType": "bytes",
          "name": "bytecode",
          "type": "bytes"
        },
        {
          "internalType": "uint256",
          "name": "salt",
          "type": "uint256"
        }
      ],
      "name": "getAddressCreate2",
      "outputs": [
        {
          "internalType": "address",
          "name": "",
          "type": "address"
        }
      ],
      "stateMutability": "view",
      "type": "function"
    },
    {
      "inputs": [
        {
          "internalType": "address",
          "name": "token",
          "type": "address"
        },
        {
          "internalType": "uint256",
          "name": "lockTime",
          "type": "uint256"
        },
        {
          "internalType": "uint256",
          "name": "amount",
          "type": "uint256"
        },
        {
          "internalType": "address",
          "name": "_owner",
          "type": "address"
        }
      ],
      "name": "getBytecode",
      "outputs": [
        {
          "internalType": "bytes",
          "name": "",
          "type": "bytes"
        }
      ],
      "stateMutability": "pure",
      "type": "function"
    },
    {
      "inputs": [
        {
          "internalType": "address",
          "name": "creator",
          "type": "address"
        }
      ],
      "name": "getdeployedLocks",
      "outputs": [
        {
          "internalType": "address[]",
          "name": "",
          "type": "address[]"
        }
      ],
      "stateMutability": "view",
      "type": "function"
    },
    {
      "inputs": [
        {
          "internalType": "address",
          "name": "creator",
          "type": "address"
        }
      ],
      "name": "getdeployedLocksLen",
      "outputs": [
        {
          "internalType": "uint256",
          "name": "",
          "type": "uint256"
        }
      ],
      "stateMutability": "view",
      "type": "function"
    },
    {
      "inputs": [
        {
          "internalType": "contract IERC20",
          "name": "token",
          "type": "address"
        },
        {
          "internalType": "uint256",
          "name": "lockTime",
          "type": "uint256"
        },
        {
          "internalType": "uint256",
          "name": "amount",
          "type": "uint256"
        }
      ],
      "name": "newLock",
      "outputs": [
        {
          "internalType": "address",
          "name": "",
          "type": "address"
        }
      ],
      "stateMutability": "payable",
      "type": "function"
    },
    {
      "inputs": [],
      "name": "owner",
      "outputs": [
        {
          "internalType": "address",
          "name": "",
          "type": "address"
        }
      ],
      "stateMutability": "view",
      "type": "function"
    },
    {
      "inputs": [],
      "name": "renounceOwnership",
      "outputs": [],
      "stateMutability": "nonpayable",
      "type": "function"
    },
    {
      "inputs": [
        {
          "internalType": "address",
          "name": "newOwner",
          "type": "address"
        }
      ],
      "name": "transferOwnership",
      "outputs": [],
      "stateMutability": "nonpayable",
      "type": "function"
    },
    {
      "inputs": [
        {
          "internalType": "uint256",
          "name": "_fee",
          "type": "uint256"
        }
      ],
      "name": "updateCreationFee",
      "outputs": [],
      "stateMutability": "nonpayable",
      "type": "function"
    },
    {
      "inputs": [],
      "name": "withdraw",
      "outputs": [],
      "stateMutability": "nonpayable",
      "type": "function"
    },
    {
      "inputs": [
        {
          "internalType": "address",
          "name": "token",
          "type": "address"
        }
      ],
      "name": "withdrawToken",
      "outputs": [],
      "stateMutability": "nonpayable",
      "type": "function"
    },
    {
      "stateMutability": "payable",
      "type": "receive"
    }
  ],
  "bytecode": "0x608080604052346100865733156100705760008054336001600160a01b03198216811783556040519290916001600160a01b0316907f8be0079c531659141344cd1fd0a4f28419497f9722a3daafe3b4186f6b6457e09080a3674563918244f40000600255611359908161008c8239f35b631e4fbdf760e01b815260006004820152602490fd5b600080fdfe60406080815260049081361015610020575b5050361561001e57600080fd5b005b600091823560e01c80630534f3581461093a57806325c77b7b1461088b5780633ccfd60b1461083b5780636fa2379514610819578063715018a6146107b357806389476069146106825780638da5cb5b1461065c5780639f886f261461054c578063a4d0302f14610440578063b90060d414610409578063c9a151a1146101b8578063d5f63a0614610199578063dce0b4e4146101765763f2fde38b146100c75750610011565b34610172576020366003190112610172576100e0610993565b906100e9610a4f565b6001600160a01b0380921692831561014357505082548273ffffffffffffffffffffffffffffffffffffffff198216178455167f8be0079c531659141344cd1fd0a4f28419497f9722a3daafe3b4186f6b6457e08380a380f35b908460249251917f1e4fbdf7000000000000000000000000000000000000000000000000000000008352820152fd5b8280fd5b5050346101955781600319360112610195576020906002549051908152f35b5080fd5b5050346101955781600319360112610195576020906003549051908152f35b5091906060366003190112610195578235926001600160a01b039283851680950361040657602490604435600254341061038457338252602096600188528583205486516108908082019082821067ffffffffffffffff83111761037257608091839162000a94833985815288358d820152868b82015233606082015203019085f580156103565787169633845260018952868420805490680100000000000000008210156103605791610275828c9460018997950181556109ae565b819291549060031b918c831b921b191617905560648851809481937f23b872dd000000000000000000000000000000000000000000000000000000008352338b8401528c8a8401528760448401525af180156103565790879291610329575b5085519081527f71f1aa61f9afdaeebcbc2d8139ef2c56dfeadd5bfdfacb004f9a5bb162c3e2b0883392a3600354923484018094116103195750505060035551908152f35b601190634e487b7160e01b835252fd5b61034890893d8b1161034f575b61034081836109dc565b810190610a37565b50386102d4565b503d610336565b86513d85823e3d90fd5b868660418a634e487b7160e01b835252fd5b878760418b634e487b7160e01b835252fd5b60848460288560208951937f08c379a00000000000000000000000000000000000000000000000000000000085528401528201527f5468727573747061644c6f636b6572466163746f72793a20496e73756666696360448201527f69656e74206665650000000000000000000000000000000000000000000000006064820152fd5b80fd5b50503461019557602036600319011261019557806020926001600160a01b03610430610993565b1681526001845220549051908152f35b50346101725760803660031901126101725761045a610993565b606435906001600160a01b039081831680930361054857845160209661089094610486898701846109dc565b8583528883019562000a9487398751948986019416845260243588860152604435606086015260808501526080845260a084019584871067ffffffffffffffff88111761053557505091869161050b938688526104ec60c0840196879251928391610a14565b82016104ff8351809360c0840190610a14565b010380855201836109dc565b6105278351948593818552519283809286015285850190610a14565b601f01601f19168101030190f35b906041602492634e487b7160e01b835252fd5b8580fd5b5091903461019557806003193601126101955767ffffffffffffffff918335838111610195573660238201121561019557808501358481116106495783519061059f601f8201601f1916602001836109dc565b80825260208201923660248383010111610645578185926024602093018637830101525190209180519160208301937fff0000000000000000000000000000000000000000000000000000000000000085523060601b6021850152602435603585015260558401526055835260808301948386109086111761063257848252825184206001600160a01b03168552602085f35b80604187634e487b7160e01b6024945252fd5b8480fd5b602483604188634e487b7160e01b835252fd5b5050346101955781600319360112610195576001600160a01b0360209254169051908152f35b5034610172576020918260031936011261079e5761069e610993565b916106a7610a4f565b6001600160a01b038093169285541690858351947f70a0823100000000000000000000000000000000000000000000000000000000865230838701528686602481845afa9586156107a957908291889594939761076f575b509060449291865197889586947fa9059cbb00000000000000000000000000000000000000000000000000000000865285015260248401525af19081156107665750610749578280f35b8161075f92903d1061034f5761034081836109dc565b5038808280f35b513d85823e3d90fd5b85819493969298503d83116107a2575b61078981836109dc565b8101031261079e5790519486939060446106ff565b8380fd5b503d61077f565b85513d84823e3d90fd5b83346104065780600319360112610406576107cc610a4f565b806001600160a01b03815473ffffffffffffffffffffffffffffffffffffffff1981168355167f8be0079c531659141344cd1fd0a4f28419497f9722a3daafe3b4186f6b6457e08280a380f35b83823461019557602036600319011261019557610834610a4f565b3560025580f35b505034610195578160031936011261019557610855610a4f565b818080806001600160a01b038154164790828215610882575bf115610878575080f35b51903d90823e3d90fd5b506108fc61086e565b5050346101955760209182600319360112610406576001600160a01b0390816108b2610993565b1681526001916001855283822094845191828288549182815201908198865283862090865b81811061092557505050836108ed9103846109dc565b855195828701938388525180945286019693905b83821061090e5786880387f35b845181168852968201969382019390850190610901565b825485168452928501929188019188016108d7565b505034610195578060031936011261019557610954610993565b602435926001600160a01b03809216815260016020528281209081548510156104065750602093610984916109ae565b92905490519260031b1c168152f35b600435906001600160a01b03821682036109a957565b600080fd5b80548210156109c65760005260206000200190600090565b634e487b7160e01b600052603260045260246000fd5b90601f8019910116810190811067ffffffffffffffff8211176109fe57604052565b634e487b7160e01b600052604160045260246000fd5b60005b838110610a275750506000910152565b8181015183820152602001610a17565b908160209103126109a9575180151581036109a95790565b6001600160a01b03600054163303610a6357565b60246040517f118cdaa7000000000000000000000000000000000000000000000000000000008152336004820152fdfe610120346101be57601f61089038819003918201601f1916830191906001600160401b038311848410176101c35781608092859260409586528339810103126101be5781516001600160a01b03808216918281036101be576020850151916060858701519601518181168091036101be5780156101a6576000548187519382167f8be0079c531659141344cd1fd0a4f28419497f9722a3daafe3b4186f6b6457e0600080a36001600160a81b03191617600055821561015157506080523260a0528060c0524260e05261010093845282519042825260208201527fe5d7d4b5cb0219916a8be73968f7baf3c806fd018b0cc5598f5129436cf5c316833292a3516106b691826101da833960805182818160b1015261028c015260a05182818161032001526105a6015260c05182818161025301526105e1015260e05182818161023201526104fa015251816101a80152f35b62461bcd60e51b815260206004820152602a60248201527f546f6b656e4c6f636b3a206c6f636b2074696d652073686f756c6420677265616044820152690746572207468616e20360b41b6064820152608490fd5b8551631e4fbdf760e01b815260006004820152602490fd5b600080fd5b634e487b7160e01b600052604160045260246000fdfe608060408181526004918236101561001657600080fd5b600092833560e01c9182630d668087146105ca5750816338af3eed14610586578163715018a61461051d57816378e97925146104e257816386d1a69f146102165781638da5cb5b146101f057816396132521146101cb578163d8df5dc114610190578163f2fde38b146100d9575063fc0c546a1461009357600080fd5b346100d557816003193601126100d557602090516001600160a01b037f0000000000000000000000000000000000000000000000000000000000000000168152f35b5080fd5b9190503461018c57602036600319011261018c578135916001600160a01b03918284168094036101885761010b61063c565b831561015957505082548273ffffffffffffffffffffffffffffffffffffffff198216178455167f8be0079c531659141344cd1fd0a4f28419497f9722a3daafe3b4186f6b6457e08380a380f35b908460249251917f1e4fbdf7000000000000000000000000000000000000000000000000000000008352820152fd5b8480fd5b8280fd5b5050346100d557816003193601126100d557602090517f00000000000000000000000000000000000000000000000000000000000000008152f35b5050346100d557816003193601126100d55760ff6020925460a01c1690519015158152f35b5050346100d557816003193601126100d5576001600160a01b0360209254169051908152f35b90503461018c578260031936011261018c5761023061063c565b7f00000000000000000000000000000000000000000000000000000000000000007f000000000000000000000000000000000000000000000000000000000000000081018091116104cf57421061048d576001600160a01b03807f000000000000000000000000000000000000000000000000000000000000000016928051917f70a0823100000000000000000000000000000000000000000000000000000000835230848401526020938484602481895afa938415610483578794610450575b50831561040e578251917fa9059cbb0000000000000000000000000000000000000000000000000000000083527f00000000000000000000000000000000000000000000000000000000000000001690820152826024820152838160448189895af18015610404576103cd575b507f10b55f01b1cfe0feeb7d144f66162661602d8e73256499b6d8342aac37ff067991740100000000000000000000000000000000000000007fffffffffffffffffffffff00ffffffffffffffffffffffffffffffffffffffff8754161786558151934285528401523392a380f35b8381813d83116103fd575b6103e28183610604565b810103126103f9575180151503610188573861035e565b8580fd5b503d6103d8565b82513d88823e3d90fd5b6064908584519162461bcd60e51b8352820152601f60248201527f546f6b656e4c6f636b3a206e6f20746f6b656e7320746f2072656c65617365006044820152fd5b9093508481813d831161047c575b6104688183610604565b81010312610478575192386102f1565b8680fd5b503d61045e565b83513d89823e3d90fd5b6020606492519162461bcd60e51b8352820152602060248201527f546f6b656e4c6f636b3a206c6f636b2074696d65206e6f7420657870697265646044820152fd5b602484601184634e487b7160e01b835252fd5b5050346100d557816003193601126100d557602090517f00000000000000000000000000000000000000000000000000000000000000008152f35b833461058357806003193601126105835761053661063c565b806001600160a01b03815473ffffffffffffffffffffffffffffffffffffffff1981168355167f8be0079c531659141344cd1fd0a4f28419497f9722a3daafe3b4186f6b6457e08280a380f35b80fd5b5050346100d557816003193601126100d557602090516001600160a01b037f0000000000000000000000000000000000000000000000000000000000000000168152f35b8490346100d557816003193601126100d5576020907f00000000000000000000000000000000000000000000000000000000000000008152f35b90601f8019910116810190811067ffffffffffffffff82111761062657604052565b634e487b7160e01b600052604160045260246000fd5b6001600160a01b0360005416330361065057565b60246040517f118cdaa7000000000000000000000000000000000000000000000000000000008152336004820152fdfea2646970667358221220e39bba9453b36766f3bc4b9b1fa647541359383815ec9e3890d265a9fa5128ad64736f6c63430008180033a26469706673582212207ebd5ec5c37c7a638f23cb7a630a52b88662ab6c9858a02f3f539878a5a8985664736f6c63430008180033",
  "linkReferences": {},
  "deployedLinkReferences": {}
}