{
  "_format": "hh-sol-artifact-1",
  "contractName": "ThrustpadLockerFactory",
  "sourceName": "contracts/locker/ThrustpadLockerFactory.sol",
  "abi": [
    {
      "inputs": [],
      "stateMutability": "nonpayable",
      "type": "constructor"
    },
    {
      "inputs": [
        {
          "internalType": "address",
          "name": "owner",
          "type": "address"
        }
      ],
      "name": "OwnableInvalidOwner",
      "type": "error"
    },
    {
      "inputs": [
        {
          "internalType": "address",
          "name": "account",
          "type": "address"
        }
      ],
      "name": "OwnableUnauthorizedAccount",
      "type": "error"
    },
    {
      "anonymous": false,
      "inputs": [
        {
          "indexed": true,
          "internalType": "address",
          "name": "creator",
          "type": "address"
        },
        {
          "indexed": true,
          "internalType": "address",
          "name": "token",
          "type": "address"
        },
        {
          "indexed": false,
          "internalType": "uint256",
          "name": "amount",
          "type": "uint256"
        }
      ],
      "name": "NewLock",
      "type": "event"
    },
    {
      "anonymous": false,
      "inputs": [
        {
          "indexed": true,
          "internalType": "address",
          "name": "previousOwner",
          "type": "address"
        },
        {
          "indexed": true,
          "internalType": "address",
          "name": "newOwner",
          "type": "address"
        }
      ],
      "name": "OwnershipTransferred",
      "type": "event"
    },
    {
      "inputs": [],
      "name": "creationFee",
      "outputs": [
        {
          "internalType": "uint256",
          "name": "",
          "type": "uint256"
        }
      ],
      "stateMutability": "view",
      "type": "function"
    },
    {
      "inputs": [
        {
          "internalType": "address",
          "name": "",
          "type": "address"
        },
        {
          "internalType": "uint256",
          "name": "",
          "type": "uint256"
        }
      ],
      "name": "deployedLocks",
      "outputs": [
        {
          "internalType": "address",
          "name": "",
          "type": "address"
        }
      ],
      "stateMutability": "view",
      "type": "function"
    },
    {
      "inputs": [],
      "name": "feeEarned",
      "outputs": [
        {
          "internalType": "uint256",
          "name": "",
          "type": "uint256"
        }
      ],
      "stateMutability": "view",
      "type": "function"
    },
    {
      "inputs": [
        {
          "internalType": "bytes",
          "name": "bytecode",
          "type": "bytes"
        },
        {
          "internalType": "uint256",
          "name": "salt",
          "type": "uint256"
        }
      ],
      "name": "getAddressCreate2",
      "outputs": [
        {
          "internalType": "address",
          "name": "",
          "type": "address"
        }
      ],
      "stateMutability": "view",
      "type": "function"
    },
    {
      "inputs": [
        {
          "internalType": "address",
          "name": "token",
          "type": "address"
        },
        {
          "internalType": "uint256",
          "name": "lockTime",
          "type": "uint256"
        },
        {
          "internalType": "uint256",
          "name": "amount",
          "type": "uint256"
        },
        {
          "internalType": "address",
          "name": "_owner",
          "type": "address"
        }
      ],
      "name": "getBytecode",
      "outputs": [
        {
          "internalType": "bytes",
          "name": "",
          "type": "bytes"
        }
      ],
      "stateMutability": "pure",
      "type": "function"
    },
    {
      "inputs": [
        {
          "internalType": "address",
          "name": "creator",
          "type": "address"
        }
      ],
      "name": "getdeployedLocks",
      "outputs": [
        {
          "internalType": "address[]",
          "name": "",
          "type": "address[]"
        }
      ],
      "stateMutability": "view",
      "type": "function"
    },
    {
      "inputs": [
        {
          "internalType": "address",
          "name": "creator",
          "type": "address"
        }
      ],
      "name": "getdeployedLocksLen",
      "outputs": [
        {
          "internalType": "uint256",
          "name": "",
          "type": "uint256"
        }
      ],
      "stateMutability": "view",
      "type": "function"
    },
    {
      "inputs": [
        {
          "internalType": "contract IERC20",
          "name": "token",
          "type": "address"
        },
        {
          "internalType": "uint256",
          "name": "lockTime",
          "type": "uint256"
        },
        {
          "internalType": "uint256",
          "name": "amount",
          "type": "uint256"
        }
      ],
      "name": "newLock",
      "outputs": [
        {
          "internalType": "address",
          "name": "",
          "type": "address"
        }
      ],
      "stateMutability": "payable",
      "type": "function"
    },
    {
      "inputs": [],
      "name": "owner",
      "outputs": [
        {
          "internalType": "address",
          "name": "",
          "type": "address"
        }
      ],
      "stateMutability": "view",
      "type": "function"
    },
    {
      "inputs": [],
      "name": "renounceOwnership",
      "outputs": [],
      "stateMutability": "nonpayable",
      "type": "function"
    },
    {
      "inputs": [
        {
          "internalType": "address",
          "name": "newOwner",
          "type": "address"
        }
      ],
      "name": "transferOwnership",
      "outputs": [],
      "stateMutability": "nonpayable",
      "type": "function"
    },
    {
      "inputs": [
        {
          "internalType": "uint256",
          "name": "_fee",
          "type": "uint256"
        }
      ],
      "name": "updateCreationFee",
      "outputs": [],
      "stateMutability": "nonpayable",
      "type": "function"
    },
    {
      "inputs": [],
      "name": "withdraw",
      "outputs": [],
      "stateMutability": "nonpayable",
      "type": "function"
    },
    {
      "inputs": [
        {
          "internalType": "address",
          "name": "token",
          "type": "address"
        }
      ],
      "name": "withdrawToken",
      "outputs": [],
      "stateMutability": "nonpayable",
      "type": "function"
    },
    {
      "stateMutability": "payable",
      "type": "receive"
    }
  ],
  "bytecode": "0x6080604052674563918244f4000060025534801561001c57600080fd5b50338061004357604051631e4fbdf760e01b81526000600482015260240160405180910390fd5b61004c81610052565b506100a2565b600080546001600160a01b038381166001600160a01b0319831681178455604051919092169283917f8be0079c531659141344cd1fd0a4f28419497f9722a3daafe3b4186f6b6457e09190a35050565b61169a806100b16000396000f3fe608060405260043610620000f35760003560e01c80639f886f261162000089578063c9a151a11162000060578063c9a151a114620002b4578063d5f63a0614620002cb578063dce0b4e414620002e3578063f2fde38b14620002fb57600080fd5b80639f886f261462000212578063a4d0302f1462000237578063b90060d4146200026b57600080fd5b80636fa2379511620000ca5780636fa237951462000190578063715018a614620001b55780638947606914620001cd5780638da5cb5b14620001f257600080fd5b80630534f358146200010057806325c77b7b14620001425780633ccfd60b146200017657600080fd5b36620000fb57005b600080fd5b3480156200010d57600080fd5b50620001256200011f366004620009f3565b62000320565b6040516001600160a01b0390911681526020015b60405180910390f35b3480156200014f57600080fd5b50620001676200016136600462000a22565b62000359565b60405162000139919062000a49565b3480156200018357600080fd5b506200018e620003d1565b005b3480156200019d57600080fd5b506200018e620001af36600462000a98565b62000419565b348015620001c257600080fd5b506200018e62000428565b348015620001da57600080fd5b506200018e620001ec36600462000a22565b62000440565b348015620001ff57600080fd5b506000546001600160a01b031662000125565b3480156200021f57600080fd5b50620001256200023136600462000ac8565b6200057e565b3480156200024457600080fd5b506200025c6200025636600462000b87565b620005f5565b60405162000139919062000bfc565b3480156200027857600080fd5b50620002a56200028a36600462000a22565b6001600160a01b031660009081526001602052604090205490565b60405190815260200162000139565b62000125620002c536600462000c31565b62000686565b348015620002d857600080fd5b50620002a560035481565b348015620002f057600080fd5b50620002a560025481565b3480156200030857600080fd5b506200018e6200031a36600462000a22565b620008d0565b600160205281600052604060002081815481106200033d57600080fd5b6000918252602090912001546001600160a01b03169150829050565b6001600160a01b038116600090815260016020908152604091829020805483518184028101840190945280845260609392830182828015620003c557602002820191906000526020600020905b81546001600160a01b03168152600190910190602001808311620003a6575b50505050509050919050565b620003db6200092a565b600080546040516001600160a01b03909116914780156108fc02929091818181858888f1935050505015801562000416573d6000803e3d6000fd5b50565b620004236200092a565b600255565b620004326200092a565b6200043e600062000972565b565b6200044a6200092a565b806001600160a01b031663a9059cbb6200046c6000546001600160a01b031690565b6040517f70a082310000000000000000000000000000000000000000000000000000000081523060048201526001600160a01b038516906370a0823190602401602060405180830381865afa158015620004ca573d6000803e3d6000fd5b505050506040513d601f19601f82011682018060405250810190620004f0919062000c69565b6040517fffffffff0000000000000000000000000000000000000000000000000000000060e085901b1681526001600160a01b03909216600483015260248201526044016020604051808303816000875af115801562000554573d6000803e3d6000fd5b505050506040513d601f19601f820116820180604052508101906200057a919062000c83565b5050565b8151602080840191909120604080517fff00000000000000000000000000000000000000000000000000000000000000818501523060601b6bffffffffffffffffffffffff191660218201526035810185905260558082019390935281518082039093018352607501905280519101205b92915050565b60606000604051806020016200060b90620009cf565b601f1982820381018352601f9091011660408181526001600160a01b03808a1660208401529082018890526060820187905285166080820152909150819060a00160408051601f19818403018152908290526200066c929160200162000ca7565b604051602081830303815290604052915050949350505050565b600060025434101562000720576040517f08c379a000000000000000000000000000000000000000000000000000000000815260206004820152602860248201527f5468727573747061644c6f636b6572466163746f72793a20496e73756666696360448201527f69656e742066656500000000000000000000000000000000000000000000000060648201526084015b60405180910390fd5b3360008181526001602052604080822054905191929091879187918791906200074990620009cf565b6001600160a01b0394851681526020810193909352604083019190915290911660608201526080018190604051809103906000f590508015801562000792573d6000803e3d6000fd5b50336000818152600160208181526040808420805493840181558452922001805473ffffffffffffffffffffffffffffffffffffffff19166001600160a01b0385811691821790925591517f23b872dd0000000000000000000000000000000000000000000000000000000081526004810193909352602483019190915260448201869052919250908616906323b872dd906064016020604051808303816000875af115801562000847573d6000803e3d6000fd5b505050506040513d601f19601f820116820180604052508101906200086d919062000c83565b506040518381526001600160a01b0382169033907f71f1aa61f9afdaeebcbc2d8139ef2c56dfeadd5bfdfacb004f9a5bb162c3e2b09060200160405180910390a33460036000828254620008c2919062000cda565b909155509095945050505050565b620008da6200092a565b6001600160a01b0381166200091f576040517f1e4fbdf70000000000000000000000000000000000000000000000000000000081526000600482015260240162000717565b620004168162000972565b6000546001600160a01b031633146200043e576040517f118cdaa700000000000000000000000000000000000000000000000000000000815233600482015260240162000717565b600080546001600160a01b0383811673ffffffffffffffffffffffffffffffffffffffff19831681178455604051919092169283917f8be0079c531659141344cd1fd0a4f28419497f9722a3daafe3b4186f6b6457e09190a35050565b6109688062000cfd83390190565b6001600160a01b03811681146200041657600080fd5b6000806040838503121562000a0757600080fd5b823562000a1481620009dd565b946020939093013593505050565b60006020828403121562000a3557600080fd5b813562000a4281620009dd565b9392505050565b6020808252825182820181905260009190848201906040850190845b8181101562000a8c5783516001600160a01b03168352928401929184019160010162000a65565b50909695505050505050565b60006020828403121562000aab57600080fd5b5035919050565b634e487b7160e01b600052604160045260246000fd5b6000806040838503121562000adc57600080fd5b823567ffffffffffffffff8082111562000af557600080fd5b818501915085601f83011262000b0a57600080fd5b81358181111562000b1f5762000b1f62000ab2565b604051601f8201601f19908116603f0116810190838211818310171562000b4a5762000b4a62000ab2565b8160405282815288602084870101111562000b6457600080fd5b826020860160208301376000602093820184015298969091013596505050505050565b6000806000806080858703121562000b9e57600080fd5b843562000bab81620009dd565b93506020850135925060408501359150606085013562000bcb81620009dd565b939692955090935050565b60005b8381101562000bf357818101518382015260200162000bd9565b50506000910152565b602081526000825180602084015262000c1d81604085016020870162000bd6565b601f01601f19169190910160400192915050565b60008060006060848603121562000c4757600080fd5b833562000c5481620009dd565b95602085013595506040909401359392505050565b60006020828403121562000c7c57600080fd5b5051919050565b60006020828403121562000c9657600080fd5b8151801515811462000a4257600080fd5b6000835162000cbb81846020880162000bd6565b83519083019062000cd181836020880162000bd6565b01949350505050565b80820180821115620005ef57634e487b7160e01b600052601160045260246000fdfe6101206040526000805460ff60a01b1916905534801561001e57600080fd5b5060405161096838038061096883398101604081905261003d916101aa565b806001600160a01b03811661006d57604051631e4fbdf760e01b8152600060048201526024015b60405180910390fd5b61007681610142565b50600083116100da5760405162461bcd60e51b815260206004820152602a60248201527f546f6b656e4c6f636b3a206c6f636b2074696d652073686f756c6420677265616044820152690746572207468616e20360b41b6064820152608401610064565b6001600160a01b03841660808190523260a081905260c08590524260e081905261010085905260408051918252602082018790527fe5d7d4b5cb0219916a8be73968f7baf3c806fd018b0cc5598f5129436cf5c316910160405180910390a3505050506101f6565b600080546001600160a01b038381166001600160a01b0319831681178455604051919092169283917f8be0079c531659141344cd1fd0a4f28419497f9722a3daafe3b4186f6b6457e09190a35050565b6001600160a01b03811681146101a757600080fd5b50565b600080600080608085870312156101c057600080fd5b84516101cb81610192565b80945050602085015192506040850151915060608501516101eb81610192565b939692955090935050565b60805160a05160c05160e0516101005161070561026360003960006101af01526000818161014b015261024d01526000818160c8015261022c01526000818161010201526103eb0152600081816101e9015281816102f60152818161041a01526104ce01526107056000f3fe608060405234801561001057600080fd5b50600436106100be5760003560e01c80638da5cb5b11610076578063d8df5dc11161005b578063d8df5dc1146101aa578063f2fde38b146101d1578063fc0c546a146101e457600080fd5b80638da5cb5b14610175578063961325211461018657600080fd5b8063715018a6116100a7578063715018a61461013c57806378e979251461014657806386d1a69f1461016d57600080fd5b80630d668087146100c357806338af3eed146100fd575b600080fd5b6100ea7f000000000000000000000000000000000000000000000000000000000000000081565b6040519081526020015b60405180910390f35b6101247f000000000000000000000000000000000000000000000000000000000000000081565b6040516001600160a01b0390911681526020016100f4565b61014461020b565b005b6100ea7f000000000000000000000000000000000000000000000000000000000000000081565b61014461021f565b6000546001600160a01b0316610124565b60005461019a90600160a01b900460ff1681565b60405190151581526020016100f4565b6100ea7f000000000000000000000000000000000000000000000000000000000000000081565b6101446101df366004610624565b61051f565b6101247f000000000000000000000000000000000000000000000000000000000000000081565b610213610576565b61021d60006105bc565b565b610227610576565b6102717f00000000000000000000000000000000000000000000000000000000000000007f0000000000000000000000000000000000000000000000000000000000000000610654565b4210156102c55760405162461bcd60e51b815260206004820181905260248201527f546f6b656e4c6f636b3a206c6f636b2074696d65206e6f74206578706972656460448201526064015b60405180910390fd5b6040517f70a082310000000000000000000000000000000000000000000000000000000081523060048201526000907f00000000000000000000000000000000000000000000000000000000000000006001600160a01b0316906370a0823190602401602060405180830381865afa158015610345573d6000803e3d6000fd5b505050506040513d601f19601f820116820180604052508101906103699190610694565b9050600081116103bb5760405162461bcd60e51b815260206004820152601f60248201527f546f6b656e4c6f636b3a206e6f20746f6b656e7320746f2072656c656173650060448201526064016102bc565b6040517fa9059cbb0000000000000000000000000000000000000000000000000000000081526001600160a01b037f000000000000000000000000000000000000000000000000000000000000000081166004830152602482018390527f0000000000000000000000000000000000000000000000000000000000000000169063a9059cbb906044016020604051808303816000875af1158015610463573d6000803e3d6000fd5b505050506040513d601f19601f8201168201806040525081019061048791906106ad565b50600080547fffffffffffffffffffffff00ffffffffffffffffffffffffffffffffffffffff16600160a01b17905560408051428152602081018390526001600160a01b037f0000000000000000000000000000000000000000000000000000000000000000169133917f10b55f01b1cfe0feeb7d144f66162661602d8e73256499b6d8342aac37ff0679910160405180910390a350565b610527610576565b6001600160a01b03811661056a576040517f1e4fbdf7000000000000000000000000000000000000000000000000000000008152600060048201526024016102bc565b610573816105bc565b50565b6000546001600160a01b0316331461021d576040517f118cdaa70000000000000000000000000000000000000000000000000000000081523360048201526024016102bc565b600080546001600160a01b038381167fffffffffffffffffffffffff0000000000000000000000000000000000000000831681178455604051919092169283917f8be0079c531659141344cd1fd0a4f28419497f9722a3daafe3b4186f6b6457e09190a35050565b60006020828403121561063657600080fd5b81356001600160a01b038116811461064d57600080fd5b9392505050565b8082018082111561068e577f4e487b7100000000000000000000000000000000000000000000000000000000600052601160045260246000fd5b92915050565b6000602082840312156106a657600080fd5b5051919050565b6000602082840312156106bf57600080fd5b8151801515811461064d57600080fdfea2646970667358221220897d6035c1cec0cb6b5841ebd50ff486a571e869b83dfd2f41be607e1a2f34e464736f6c63430008180033a264697066735822122029287e1418ce94d78519be2ab68811abd59be81598db300c440ca7420afb964a64736f6c63430008180033",
  "linkReferences": {},
  "deployedLinkReferences": {}
}