{
  "_format": "hh-sol-artifact-1",
  "contractName": "ThrustpadLockerFactory",
  "sourceName": "contracts/locker/ThrustpadLockerFactory.sol",
  "abi": [
    {
      "inputs": [],
      "stateMutability": "nonpayable",
      "type": "constructor"
    },
    {
      "inputs": [
        {
          "internalType": "address",
          "name": "owner",
          "type": "address"
        }
      ],
      "name": "OwnableInvalidOwner",
      "type": "error"
    },
    {
      "inputs": [
        {
          "internalType": "address",
          "name": "account",
          "type": "address"
        }
      ],
      "name": "OwnableUnauthorizedAccount",
      "type": "error"
    },
    {
      "anonymous": false,
      "inputs": [
        {
          "indexed": true,
          "internalType": "address",
          "name": "creator",
          "type": "address"
        },
        {
          "indexed": true,
          "internalType": "address",
          "name": "token",
          "type": "address"
        },
        {
          "indexed": false,
          "internalType": "uint256",
          "name": "amount",
          "type": "uint256"
        }
      ],
      "name": "NewLock",
      "type": "event"
    },
    {
      "anonymous": false,
      "inputs": [
        {
          "indexed": true,
          "internalType": "address",
          "name": "previousOwner",
          "type": "address"
        },
        {
          "indexed": true,
          "internalType": "address",
          "name": "newOwner",
          "type": "address"
        }
      ],
      "name": "OwnershipTransferred",
      "type": "event"
    },
    {
      "inputs": [],
      "name": "creationFee",
      "outputs": [
        {
          "internalType": "uint256",
          "name": "",
          "type": "uint256"
        }
      ],
      "stateMutability": "view",
      "type": "function"
    },
    {
      "inputs": [
        {
          "internalType": "address",
          "name": "",
          "type": "address"
        },
        {
          "internalType": "uint256",
          "name": "",
          "type": "uint256"
        }
      ],
      "name": "deployedLocks",
      "outputs": [
        {
          "internalType": "address",
          "name": "",
          "type": "address"
        }
      ],
      "stateMutability": "view",
      "type": "function"
    },
    {
      "inputs": [],
      "name": "feeEarned",
      "outputs": [
        {
          "internalType": "uint256",
          "name": "",
          "type": "uint256"
        }
      ],
      "stateMutability": "view",
      "type": "function"
    },
    {
      "inputs": [
        {
          "internalType": "bytes",
          "name": "bytecode",
          "type": "bytes"
        },
        {
          "internalType": "uint256",
          "name": "salt",
          "type": "uint256"
        }
      ],
      "name": "getAddressCreate2",
      "outputs": [
        {
          "internalType": "address",
          "name": "",
          "type": "address"
        }
      ],
      "stateMutability": "view",
      "type": "function"
    },
    {
      "inputs": [
        {
          "internalType": "address",
          "name": "token",
          "type": "address"
        },
        {
          "internalType": "uint256",
          "name": "lockTime",
          "type": "uint256"
        },
        {
          "internalType": "uint256",
          "name": "amount",
          "type": "uint256"
        },
        {
          "internalType": "address",
          "name": "_owner",
          "type": "address"
        }
      ],
      "name": "getBytecode",
      "outputs": [
        {
          "internalType": "bytes",
          "name": "",
          "type": "bytes"
        }
      ],
      "stateMutability": "pure",
      "type": "function"
    },
    {
      "inputs": [
        {
          "internalType": "address",
          "name": "creator",
          "type": "address"
        }
      ],
      "name": "getdeployedLocks",
      "outputs": [
        {
          "internalType": "address[]",
          "name": "",
          "type": "address[]"
        }
      ],
      "stateMutability": "view",
      "type": "function"
    },
    {
      "inputs": [
        {
          "internalType": "address",
          "name": "creator",
          "type": "address"
        }
      ],
      "name": "getdeployedLocksLen",
      "outputs": [
        {
          "internalType": "uint256",
          "name": "",
          "type": "uint256"
        }
      ],
      "stateMutability": "view",
      "type": "function"
    },
    {
      "inputs": [
        {
          "internalType": "contract IERC20",
          "name": "token",
          "type": "address"
        },
        {
          "internalType": "uint256",
          "name": "lockTime",
          "type": "uint256"
        },
        {
          "internalType": "uint256",
          "name": "amount",
          "type": "uint256"
        }
      ],
      "name": "newLock",
      "outputs": [
        {
          "internalType": "address",
          "name": "",
          "type": "address"
        }
      ],
      "stateMutability": "payable",
      "type": "function"
    },
    {
      "inputs": [],
      "name": "owner",
      "outputs": [
        {
          "internalType": "address",
          "name": "",
          "type": "address"
        }
      ],
      "stateMutability": "view",
      "type": "function"
    },
    {
      "inputs": [],
      "name": "renounceOwnership",
      "outputs": [],
      "stateMutability": "nonpayable",
      "type": "function"
    },
    {
      "inputs": [
        {
          "internalType": "address",
          "name": "newOwner",
          "type": "address"
        }
      ],
      "name": "transferOwnership",
      "outputs": [],
      "stateMutability": "nonpayable",
      "type": "function"
    },
    {
      "inputs": [],
      "name": "withdraw",
      "outputs": [],
      "stateMutability": "nonpayable",
      "type": "function"
    },
    {
      "inputs": [
        {
          "internalType": "address",
          "name": "token",
          "type": "address"
        }
      ],
      "name": "withdrawToken",
      "outputs": [],
      "stateMutability": "nonpayable",
      "type": "function"
    },
    {
      "stateMutability": "payable",
      "type": "receive"
    }
  ],
  "bytecode": "0x6080604052670de0b6b3a76400006002553480156200001d57600080fd5b5033600073ffffffffffffffffffffffffffffffffffffffff168173ffffffffffffffffffffffffffffffffffffffff1603620000945760006040517f1e4fbdf70000000000000000000000000000000000000000000000000000000081526004016200008b9190620001b5565b60405180910390fd5b620000a581620000ac60201b60201c565b50620001d2565b60008060009054906101000a900473ffffffffffffffffffffffffffffffffffffffff169050816000806101000a81548173ffffffffffffffffffffffffffffffffffffffff021916908373ffffffffffffffffffffffffffffffffffffffff1602179055508173ffffffffffffffffffffffffffffffffffffffff168173ffffffffffffffffffffffffffffffffffffffff167f8be0079c531659141344cd1fd0a4f28419497f9722a3daafe3b4186f6b6457e060405160405180910390a35050565b600073ffffffffffffffffffffffffffffffffffffffff82169050919050565b60006200019d8262000170565b9050919050565b620001af8162000190565b82525050565b6000602082019050620001cc6000830184620001a4565b92915050565b61286c80620001e26000396000f3fe608060405260043610620000d95760003560e01c80639f886f26116200008b578063c9a151a11162000061578063c9a151a114620002cc578063d5f63a061462000302578063dce0b4e41462000332578063f2fde38b146200036257620000e1565b80639f886f261462000200578063a4d0302f1462000244578063b90060d4146200028857620000e1565b80630534f35814620000e657806325c77b7b146200012a5780633ccfd60b146200016e578063715018a614620001885780638947606914620001a25780638da5cb5b14620001d057620000e1565b36620000e157005b600080fd5b348015620000f357600080fd5b506200011260048036038101906200010c919062000cbf565b62000390565b60405162000121919062000d17565b60405180910390f35b3480156200013757600080fd5b5062000156600480360381019062000150919062000d34565b620003df565b60405162000165919062000e34565b60405180910390f35b3480156200017b57600080fd5b5062000186620004ae565b005b3480156200019557600080fd5b50620001a06200050b565b005b348015620001af57600080fd5b50620001ce6004803603810190620001c8919062000d34565b62000523565b005b348015620001dd57600080fd5b50620001e86200063b565b604051620001f7919062000d17565b60405180910390f35b3480156200020d57600080fd5b506200022c600480360381019062000226919062000fba565b62000664565b6040516200023b919062000d17565b60405180910390f35b3480156200025157600080fd5b506200027060048036038101906200026a919062001020565b620006b0565b6040516200027f91906200111b565b60405180910390f35b3480156200029557600080fd5b50620002b46004803603810190620002ae919062000d34565b62000732565b604051620002c3919062001150565b60405180910390f35b620002ea6004803603810190620002e49190620011b2565b6200077e565b604051620002f9919062000d17565b60405180910390f35b3480156200030f57600080fd5b506200031a62000a08565b60405162000329919062001150565b60405180910390f35b3480156200033f57600080fd5b506200034a62000a0e565b60405162000359919062001150565b60405180910390f35b3480156200036f57600080fd5b506200038e600480360381019062000388919062000d34565b62000a14565b005b60016020528160005260406000208181548110620003ad57600080fd5b906000526020600020016000915091509054906101000a900473ffffffffffffffffffffffffffffffffffffffff1681565b6060600160008373ffffffffffffffffffffffffffffffffffffffff1673ffffffffffffffffffffffffffffffffffffffff168152602001908152602001600020805480602002602001604051908101604052809291908181526020018280548015620004a257602002820191906000526020600020905b8160009054906101000a900473ffffffffffffffffffffffffffffffffffffffff1673ffffffffffffffffffffffffffffffffffffffff168152602001906001019080831162000457575b50505050509050919050565b620004b862000aa1565b620004c26200063b565b73ffffffffffffffffffffffffffffffffffffffff166108fc479081150290604051600060405180830381858888f1935050505015801562000508573d6000803e3d6000fd5b50565b6200051562000aa1565b62000521600062000b31565b565b6200052d62000aa1565b8073ffffffffffffffffffffffffffffffffffffffff1663a9059cbb620005536200063b565b8373ffffffffffffffffffffffffffffffffffffffff166370a08231306040518263ffffffff1660e01b81526004016200058e919062000d17565b602060405180830381865afa158015620005ac573d6000803e3d6000fd5b505050506040513d601f19601f82011682018060405250810190620005d2919062001225565b6040518363ffffffff1660e01b8152600401620005f192919062001257565b6020604051808303816000875af115801562000611573d6000803e3d6000fd5b505050506040513d601f19601f82011682018060405250810190620006379190620012c1565b5050565b60008060009054906101000a900473ffffffffffffffffffffffffffffffffffffffff16905090565b60008060ff60f81b308486805190602001206040516020016200068b9493929190620013e8565b6040516020818303038152906040528051906020012090508060001c91505092915050565b6060600060405180602001620006c69062000bfd565b6020820181038252601f19601f8201166040525090508086868686604051602001620006f694939291906200143e565b60405160208183030381529060405260405160200162000718929190620014cd565b604051602081830303815290604052915050949350505050565b6000600160008373ffffffffffffffffffffffffffffffffffffffff1673ffffffffffffffffffffffffffffffffffffffff168152602001908152602001600020805490509050919050565b6000600254341015620007c8576040517f08c379a0000000000000000000000000000000000000000000000000000000008152600401620007bf906200157c565b60405180910390fd5b6000600160003373ffffffffffffffffffffffffffffffffffffffff1673ffffffffffffffffffffffffffffffffffffffff1681526020019081526020016000208054905060001b85858533604051620008229062000bfd565b62000831949392919062001609565b8190604051809103906000f590508015801562000852573d6000803e3d6000fd5b509050600160003373ffffffffffffffffffffffffffffffffffffffff1673ffffffffffffffffffffffffffffffffffffffff168152602001908152602001600020819080600181540180825580915050600190039060005260206000200160009091909190916101000a81548173ffffffffffffffffffffffffffffffffffffffff021916908373ffffffffffffffffffffffffffffffffffffffff1602179055508473ffffffffffffffffffffffffffffffffffffffff166323b872dd3383866040518463ffffffff1660e01b8152600401620009349392919062001656565b6020604051808303816000875af115801562000954573d6000803e3d6000fd5b505050506040513d601f19601f820116820180604052508101906200097a9190620012c1565b508073ffffffffffffffffffffffffffffffffffffffff163373ffffffffffffffffffffffffffffffffffffffff167f71f1aa61f9afdaeebcbc2d8139ef2c56dfeadd5bfdfacb004f9a5bb162c3e2b085604051620009da919062001150565b60405180910390a33460036000828254620009f69190620016c2565b92505081905550809150509392505050565b60035481565b60025481565b62000a1e62000aa1565b600073ffffffffffffffffffffffffffffffffffffffff168173ffffffffffffffffffffffffffffffffffffffff160362000a935760006040517f1e4fbdf700000000000000000000000000000000000000000000000000000000815260040162000a8a919062000d17565b60405180910390fd5b62000a9e8162000b31565b50565b62000aab62000bf5565b73ffffffffffffffffffffffffffffffffffffffff1662000acb6200063b565b73ffffffffffffffffffffffffffffffffffffffff161462000b2f5762000af162000bf5565b6040517f118cdaa700000000000000000000000000000000000000000000000000000000815260040162000b26919062000d17565b60405180910390fd5b565b60008060009054906101000a900473ffffffffffffffffffffffffffffffffffffffff169050816000806101000a81548173ffffffffffffffffffffffffffffffffffffffff021916908373ffffffffffffffffffffffffffffffffffffffff1602179055508173ffffffffffffffffffffffffffffffffffffffff168173ffffffffffffffffffffffffffffffffffffffff167f8be0079c531659141344cd1fd0a4f28419497f9722a3daafe3b4186f6b6457e060405160405180910390a35050565b600033905090565b61113980620016fe83390190565b6000604051905090565b600080fd5b600080fd5b600073ffffffffffffffffffffffffffffffffffffffff82169050919050565b600062000c4c8262000c1f565b9050919050565b62000c5e8162000c3f565b811462000c6a57600080fd5b50565b60008135905062000c7e8162000c53565b92915050565b6000819050919050565b62000c998162000c84565b811462000ca557600080fd5b50565b60008135905062000cb98162000c8e565b92915050565b6000806040838503121562000cd95762000cd862000c15565b5b600062000ce98582860162000c6d565b925050602062000cfc8582860162000ca8565b9150509250929050565b62000d118162000c3f565b82525050565b600060208201905062000d2e600083018462000d06565b92915050565b60006020828403121562000d4d5762000d4c62000c15565b5b600062000d5d8482850162000c6d565b91505092915050565b600081519050919050565b600082825260208201905092915050565b6000819050602082019050919050565b62000d9d8162000c3f565b82525050565b600062000db1838362000d92565b60208301905092915050565b6000602082019050919050565b600062000dd78262000d66565b62000de3818562000d71565b935062000df08362000d82565b8060005b8381101562000e2757815162000e0b888262000da3565b975062000e188362000dbd565b92505060018101905062000df4565b5085935050505092915050565b6000602082019050818103600083015262000e50818462000dca565b905092915050565b600080fd5b600080fd5b6000601f19601f8301169050919050565b7f4e487b7100000000000000000000000000000000000000000000000000000000600052604160045260246000fd5b62000ead8262000e62565b810181811067ffffffffffffffff8211171562000ecf5762000ece62000e73565b5b80604052505050565b600062000ee462000c0b565b905062000ef2828262000ea2565b919050565b600067ffffffffffffffff82111562000f155762000f1462000e73565b5b62000f208262000e62565b9050602081019050919050565b82818337600083830152505050565b600062000f5362000f4d8462000ef7565b62000ed8565b90508281526020810184848401111562000f725762000f7162000e5d565b5b62000f7f84828562000f2d565b509392505050565b600082601f83011262000f9f5762000f9e62000e58565b5b813562000fb184826020860162000f3c565b91505092915050565b6000806040838503121562000fd45762000fd362000c15565b5b600083013567ffffffffffffffff81111562000ff55762000ff462000c1a565b5b620010038582860162000f87565b9250506020620010168582860162000ca8565b9150509250929050565b600080600080608085870312156200103d576200103c62000c15565b5b60006200104d8782880162000c6d565b9450506020620010608782880162000ca8565b9350506040620010738782880162000ca8565b9250506060620010868782880162000c6d565b91505092959194509250565b600081519050919050565b600082825260208201905092915050565b60005b83811015620010ce578082015181840152602081019050620010b1565b60008484015250505050565b6000620010e78262001092565b620010f381856200109d565b935062001105818560208601620010ae565b620011108162000e62565b840191505092915050565b60006020820190508181036000830152620011378184620010da565b905092915050565b6200114a8162000c84565b82525050565b60006020820190506200116760008301846200113f565b92915050565b60006200117a8262000c3f565b9050919050565b6200118c816200116d565b81146200119857600080fd5b50565b600081359050620011ac8162001181565b92915050565b600080600060608486031215620011ce57620011cd62000c15565b5b6000620011de868287016200119b565b9350506020620011f18682870162000ca8565b9250506040620012048682870162000ca8565b9150509250925092565b6000815190506200121f8162000c8e565b92915050565b6000602082840312156200123e576200123d62000c15565b5b60006200124e848285016200120e565b91505092915050565b60006040820190506200126e600083018562000d06565b6200127d60208301846200113f565b9392505050565b60008115159050919050565b6200129b8162001284565b8114620012a757600080fd5b50565b600081519050620012bb8162001290565b92915050565b600060208284031215620012da57620012d962000c15565b5b6000620012ea84828501620012aa565b91505092915050565b60007fff0000000000000000000000000000000000000000000000000000000000000082169050919050565b6000819050919050565b6200133e6200133882620012f3565b6200131f565b82525050565b60008160601b9050919050565b60006200135e8262001344565b9050919050565b6000620013728262001351565b9050919050565b6200138e620013888262000c3f565b62001365565b82525050565b6000819050919050565b620013b3620013ad8262000c84565b62001394565b82525050565b6000819050919050565b6000819050919050565b620013e2620013dc82620013b9565b620013c3565b82525050565b6000620013f6828762001329565b60018201915062001408828662001379565b6014820191506200141a82856200139e565b6020820191506200142c8284620013cd565b60208201915081905095945050505050565b600060808201905062001455600083018762000d06565b6200146460208301866200113f565b6200147360408301856200113f565b62001482606083018462000d06565b95945050505050565b600081905092915050565b6000620014a38262001092565b620014af81856200148b565b9350620014c1818560208601620010ae565b80840191505092915050565b6000620014db828562001496565b9150620014e9828462001496565b91508190509392505050565b600082825260208201905092915050565b7f5468727573747061644c6f636b6572466163746f72793a20496e73756666696360008201527f69656e7420666565000000000000000000000000000000000000000000000000602082015250565b600062001564602883620014f5565b9150620015718262001506565b604082019050919050565b60006020820190508181036000830152620015978162001555565b9050919050565b6000819050919050565b6000620015c9620015c3620015bd8462000c1f565b6200159e565b62000c1f565b9050919050565b6000620015dd82620015a8565b9050919050565b6000620015f182620015d0565b9050919050565b6200160381620015e4565b82525050565b6000608082019050620016206000830187620015f8565b6200162f60208301866200113f565b6200163e60408301856200113f565b6200164d606083018462000d06565b95945050505050565b60006060820190506200166d600083018662000d06565b6200167c602083018562000d06565b6200168b60408301846200113f565b949350505050565b7f4e487b7100000000000000000000000000000000000000000000000000000000600052601160045260246000fd5b6000620016cf8262000c84565b9150620016dc8362000c84565b9250828201905080821115620016f757620016f662001693565b5b9291505056fe61012060405260008060146101000a81548160ff0219169083151502179055503480156200002c57600080fd5b5060405162001139380380620011398339818101604052810190620000529190620003c2565b80600073ffffffffffffffffffffffffffffffffffffffff168173ffffffffffffffffffffffffffffffffffffffff1603620000c85760006040517f1e4fbdf7000000000000000000000000000000000000000000000000000000008152600401620000bf919062000445565b60405180910390fd5b620000d9816200021460201b60201c565b506000831162000120576040517f08c379a00000000000000000000000000000000000000000000000000000000081526004016200011790620004e9565b60405180910390fd5b8373ffffffffffffffffffffffffffffffffffffffff1660808173ffffffffffffffffffffffffffffffffffffffff16815250503273ffffffffffffffffffffffffffffffffffffffff1660a08173ffffffffffffffffffffffffffffffffffffffff16815250508260c081815250504260e081815250508161010081815250508373ffffffffffffffffffffffffffffffffffffffff163273ffffffffffffffffffffffffffffffffffffffff167fe5d7d4b5cb0219916a8be73968f7baf3c806fd018b0cc5598f5129436cf5c3164286604051620002029291906200051c565b60405180910390a35050505062000549565b60008060009054906101000a900473ffffffffffffffffffffffffffffffffffffffff169050816000806101000a81548173ffffffffffffffffffffffffffffffffffffffff021916908373ffffffffffffffffffffffffffffffffffffffff1602179055508173ffffffffffffffffffffffffffffffffffffffff168173ffffffffffffffffffffffffffffffffffffffff167f8be0079c531659141344cd1fd0a4f28419497f9722a3daafe3b4186f6b6457e060405160405180910390a35050565b600080fd5b600073ffffffffffffffffffffffffffffffffffffffff82169050919050565b60006200030a82620002dd565b9050919050565b60006200031e82620002fd565b9050919050565b620003308162000311565b81146200033c57600080fd5b50565b600081519050620003508162000325565b92915050565b6000819050919050565b6200036b8162000356565b81146200037757600080fd5b50565b6000815190506200038b8162000360565b92915050565b6200039c81620002fd565b8114620003a857600080fd5b50565b600081519050620003bc8162000391565b92915050565b60008060008060808587031215620003df57620003de620002d8565b5b6000620003ef878288016200033f565b945050602062000402878288016200037a565b935050604062000415878288016200037a565b92505060606200042887828801620003ab565b91505092959194509250565b6200043f81620002fd565b82525050565b60006020820190506200045c600083018462000434565b92915050565b600082825260208201905092915050565b7f546f6b656e4c6f636b3a206c6f636b2074696d652073686f756c64206772656160008201527f746572207468616e203000000000000000000000000000000000000000000000602082015250565b6000620004d1602a8362000462565b9150620004de8262000473565b604082019050919050565b600060208201905081810360008301526200050481620004c2565b9050919050565b620005168162000356565b82525050565b60006040820190506200053360008301856200050b565b6200054260208301846200050b565b9392505050565b60805160a05160c05160e05161010051610b81620005b8600039600061053e01526000818161020301526102500152600081816101a7015261022f0152600081816101cb01526103da0152600081816102bf0152818161039e0152818161047801526105e80152610b816000f3fe608060405234801561001057600080fd5b506004361061009e5760003560e01c80638da5cb5b116100665780638da5cb5b14610111578063961325211461012f578063d8df5dc11461014d578063f2fde38b1461016b578063fc0c546a146101875761009e565b80630d668087146100a357806338af3eed146100c1578063715018a6146100df57806378e97925146100e957806386d1a69f14610107575b600080fd5b6100ab6101a5565b6040516100b89190610776565b60405180910390f35b6100c96101c9565b6040516100d691906107d2565b60405180910390f35b6100e76101ed565b005b6100f1610201565b6040516100fe9190610776565b60405180910390f35b61010f610225565b005b610119610500565b60405161012691906107d2565b60405180910390f35b610137610529565b6040516101449190610808565b60405180910390f35b61015561053c565b6040516101629190610776565b60405180910390f35b61018560048036038101906101809190610854565b610560565b005b61018f6105e6565b60405161019c91906108e0565b60405180910390f35b7f000000000000000000000000000000000000000000000000000000000000000081565b7f000000000000000000000000000000000000000000000000000000000000000081565b6101f561060a565b6101ff6000610691565b565b7f000000000000000000000000000000000000000000000000000000000000000081565b61022d61060a565b7f00000000000000000000000000000000000000000000000000000000000000007f0000000000000000000000000000000000000000000000000000000000000000610279919061092a565b4210156102bb576040517f08c379a00000000000000000000000000000000000000000000000000000000081526004016102b2906109bb565b60405180910390fd5b60007f000000000000000000000000000000000000000000000000000000000000000073ffffffffffffffffffffffffffffffffffffffff166370a08231306040518263ffffffff1660e01b815260040161031691906107d2565b602060405180830381865afa158015610333573d6000803e3d6000fd5b505050506040513d601f19601f820116820180604052508101906103579190610a07565b90506000811161039c576040517f08c379a000000000000000000000000000000000000000000000000000000000815260040161039390610a80565b60405180910390fd5b7f000000000000000000000000000000000000000000000000000000000000000073ffffffffffffffffffffffffffffffffffffffff1663a9059cbb7f0000000000000000000000000000000000000000000000000000000000000000836040518363ffffffff1660e01b8152600401610417929190610aa0565b6020604051808303816000875af1158015610436573d6000803e3d6000fd5b505050506040513d601f19601f8201168201806040525081019061045a9190610af5565b506001600060146101000a81548160ff0219169083151502179055507f000000000000000000000000000000000000000000000000000000000000000073ffffffffffffffffffffffffffffffffffffffff163373ffffffffffffffffffffffffffffffffffffffff167f10b55f01b1cfe0feeb7d144f66162661602d8e73256499b6d8342aac37ff067942846040516104f5929190610b22565b60405180910390a350565b60008060009054906101000a900473ffffffffffffffffffffffffffffffffffffffff16905090565b600060149054906101000a900460ff1681565b7f000000000000000000000000000000000000000000000000000000000000000081565b61056861060a565b600073ffffffffffffffffffffffffffffffffffffffff168173ffffffffffffffffffffffffffffffffffffffff16036105da5760006040517f1e4fbdf70000000000000000000000000000000000000000000000000000000081526004016105d191906107d2565b60405180910390fd5b6105e381610691565b50565b7f000000000000000000000000000000000000000000000000000000000000000081565b610612610755565b73ffffffffffffffffffffffffffffffffffffffff16610630610500565b73ffffffffffffffffffffffffffffffffffffffff161461068f57610653610755565b6040517f118cdaa700000000000000000000000000000000000000000000000000000000815260040161068691906107d2565b60405180910390fd5b565b60008060009054906101000a900473ffffffffffffffffffffffffffffffffffffffff169050816000806101000a81548173ffffffffffffffffffffffffffffffffffffffff021916908373ffffffffffffffffffffffffffffffffffffffff1602179055508173ffffffffffffffffffffffffffffffffffffffff168173ffffffffffffffffffffffffffffffffffffffff167f8be0079c531659141344cd1fd0a4f28419497f9722a3daafe3b4186f6b6457e060405160405180910390a35050565b600033905090565b6000819050919050565b6107708161075d565b82525050565b600060208201905061078b6000830184610767565b92915050565b600073ffffffffffffffffffffffffffffffffffffffff82169050919050565b60006107bc82610791565b9050919050565b6107cc816107b1565b82525050565b60006020820190506107e760008301846107c3565b92915050565b60008115159050919050565b610802816107ed565b82525050565b600060208201905061081d60008301846107f9565b92915050565b600080fd5b610831816107b1565b811461083c57600080fd5b50565b60008135905061084e81610828565b92915050565b60006020828403121561086a57610869610823565b5b60006108788482850161083f565b91505092915050565b6000819050919050565b60006108a66108a161089c84610791565b610881565b610791565b9050919050565b60006108b88261088b565b9050919050565b60006108ca826108ad565b9050919050565b6108da816108bf565b82525050565b60006020820190506108f560008301846108d1565b92915050565b7f4e487b7100000000000000000000000000000000000000000000000000000000600052601160045260246000fd5b60006109358261075d565b91506109408361075d565b9250828201905080821115610958576109576108fb565b5b92915050565b600082825260208201905092915050565b7f546f6b656e4c6f636b3a206c6f636b2074696d65206e6f742065787069726564600082015250565b60006109a560208361095e565b91506109b08261096f565b602082019050919050565b600060208201905081810360008301526109d481610998565b9050919050565b6109e48161075d565b81146109ef57600080fd5b50565b600081519050610a01816109db565b92915050565b600060208284031215610a1d57610a1c610823565b5b6000610a2b848285016109f2565b91505092915050565b7f546f6b656e4c6f636b3a206e6f20746f6b656e7320746f2072656c6561736500600082015250565b6000610a6a601f8361095e565b9150610a7582610a34565b602082019050919050565b60006020820190508181036000830152610a9981610a5d565b9050919050565b6000604082019050610ab560008301856107c3565b610ac26020830184610767565b9392505050565b610ad2816107ed565b8114610add57600080fd5b50565b600081519050610aef81610ac9565b92915050565b600060208284031215610b0b57610b0a610823565b5b6000610b1984828501610ae0565b91505092915050565b6000604082019050610b376000830185610767565b610b446020830184610767565b939250505056fea26469706673582212205c0a8c7b944cb8b62df571d0ce7bd85dcec5b0ef06e89737fb042e55a14ce53d64736f6c63430008180033a26469706673582212206c8dae37a0f69870e4ab55114210121e7b6f854846d0097394c535db148f361f64736f6c63430008180033",
  "linkReferences": {},
  "deployedLinkReferences": {}
}