{
  "_format": "hh-sol-artifact-1",
  "contractName": "ThrustpadTokenFactory",
  "sourceName": "contracts/locker/ThrustpadLockerFactory.sol",
  "abi": [
    {
      "anonymous": false,
      "inputs": [
        {
          "indexed": true,
          "internalType": "address",
          "name": "creator",
          "type": "address"
        },
        {
          "indexed": true,
          "internalType": "address",
          "name": "token",
          "type": "address"
        }
      ],
      "name": "NewLock",
      "type": "event"
    },
    {
      "inputs": [
        {
          "internalType": "address",
          "name": "",
          "type": "address"
        },
        {
          "internalType": "uint256",
          "name": "",
          "type": "uint256"
        }
      ],
      "name": "deployedLocks",
      "outputs": [
        {
          "internalType": "address",
          "name": "",
          "type": "address"
        }
      ],
      "stateMutability": "view",
      "type": "function"
    },
    {
      "inputs": [
        {
          "internalType": "bytes",
          "name": "bytecode",
          "type": "bytes"
        },
        {
          "internalType": "uint256",
          "name": "salt",
          "type": "uint256"
        }
      ],
      "name": "getAddressCreate2",
      "outputs": [
        {
          "internalType": "address",
          "name": "",
          "type": "address"
        }
      ],
      "stateMutability": "view",
      "type": "function"
    },
    {
      "inputs": [
        {
          "internalType": "address",
          "name": "token",
          "type": "address"
        },
        {
          "internalType": "uint256",
          "name": "lockTime",
          "type": "uint256"
        }
      ],
      "name": "getBytecode",
      "outputs": [
        {
          "internalType": "bytes",
          "name": "",
          "type": "bytes"
        }
      ],
      "stateMutability": "pure",
      "type": "function"
    },
    {
      "inputs": [
        {
          "internalType": "address",
          "name": "creator",
          "type": "address"
        }
      ],
      "name": "getdeployedLocks",
      "outputs": [
        {
          "internalType": "address[]",
          "name": "",
          "type": "address[]"
        }
      ],
      "stateMutability": "view",
      "type": "function"
    },
    {
      "inputs": [
        {
          "internalType": "address",
          "name": "creator",
          "type": "address"
        }
      ],
      "name": "getdeployedLocksLen",
      "outputs": [
        {
          "internalType": "uint256",
          "name": "",
          "type": "uint256"
        }
      ],
      "stateMutability": "view",
      "type": "function"
    },
    {
      "inputs": [
        {
          "internalType": "address",
          "name": "token",
          "type": "address"
        },
        {
          "internalType": "uint256",
          "name": "lockTime",
          "type": "uint256"
        }
      ],
      "name": "newToken",
      "outputs": [
        {
          "internalType": "address",
          "name": "",
          "type": "address"
        }
      ],
      "stateMutability": "nonpayable",
      "type": "function"
    }
  ],
  "bytecode": "0x608060405234801561001057600080fd5b50611c76806100206000396000f3fe60806040523480156200001157600080fd5b50600436106200006a5760003560e01c80630534f358146200006f57806325c77b7b14620000a5578063594a2ade14620000db57806381871cbc14620001115780639f886f261462000147578063b90060d4146200017d575b600080fd5b6200008d600480360381019062000087919062000631565b620001b3565b6040516200009c919062000689565b60405180910390f35b620000c36004803603810190620000bd9190620006a6565b62000202565b604051620000d29190620007a6565b60405180910390f35b620000f96004803603810190620000f3919062000631565b620002d0565b60405162000108919062000689565b60405180910390f35b6200012f600480360381019062000129919062000631565b6200045c565b6040516200013e919062000864565b60405180910390f35b6200016560048036038101906200015f9190620009d9565b620004d8565b60405162000174919062000689565b60405180910390f35b6200019b6004803603810190620001959190620006a6565b62000524565b604051620001aa919062000a50565b60405180910390f35b60006020528160005260406000208181548110620001d057600080fd5b906000526020600020016000915091509054906101000a900473ffffffffffffffffffffffffffffffffffffffff1681565b60606000808373ffffffffffffffffffffffffffffffffffffffff1673ffffffffffffffffffffffffffffffffffffffff168152602001908152602001600020805480602002602001604051908101604052809291908181526020018280548015620002c457602002820191906000526020600020905b8160009054906101000a900473ffffffffffffffffffffffffffffffffffffffff1673ffffffffffffffffffffffffffffffffffffffff168152602001906001019080831162000279575b50505050509050919050565b6000806000803373ffffffffffffffffffffffffffffffffffffffff1673ffffffffffffffffffffffffffffffffffffffff1681526020019081526020016000208054905060001b848460405162000328906200056f565b6200033592919062000a6d565b8190604051809103906000f590508015801562000356573d6000803e3d6000fd5b5090506000803373ffffffffffffffffffffffffffffffffffffffff1673ffffffffffffffffffffffffffffffffffffffff168152602001908152602001600020819080600181540180825580915050600190039060005260206000200160009091909190916101000a81548173ffffffffffffffffffffffffffffffffffffffff021916908373ffffffffffffffffffffffffffffffffffffffff1602179055508073ffffffffffffffffffffffffffffffffffffffff163373ffffffffffffffffffffffffffffffffffffffff167f01017ed19df0c7f8acc436147b234b09664a9fb4797b4fa3fb9e599c2eb67be760405160405180910390a38091505092915050565b606060006040518060200162000472906200056f565b6020820181038252601f19601f8201166040525090508084846040516020016200049e92919062000a6d565b604051602081830303815290604052604051602001620004c092919062000adc565b60405160208183030381529060405291505092915050565b60008060ff60f81b30848680519060200120604051602001620004ff949392919062000bf9565b6040516020818303038152906040528051906020012090508060001c91505092915050565b60008060008373ffffffffffffffffffffffffffffffffffffffff1673ffffffffffffffffffffffffffffffffffffffff168152602001908152602001600020805490509050919050565b610ff18062000c5083390190565b6000604051905090565b600080fd5b600080fd5b600073ffffffffffffffffffffffffffffffffffffffff82169050919050565b6000620005be8262000591565b9050919050565b620005d081620005b1565b8114620005dc57600080fd5b50565b600081359050620005f081620005c5565b92915050565b6000819050919050565b6200060b81620005f6565b81146200061757600080fd5b50565b6000813590506200062b8162000600565b92915050565b600080604083850312156200064b576200064a62000587565b5b60006200065b85828601620005df565b92505060206200066e858286016200061a565b9150509250929050565b6200068381620005b1565b82525050565b6000602082019050620006a0600083018462000678565b92915050565b600060208284031215620006bf57620006be62000587565b5b6000620006cf84828501620005df565b91505092915050565b600081519050919050565b600082825260208201905092915050565b6000819050602082019050919050565b6200070f81620005b1565b82525050565b600062000723838362000704565b60208301905092915050565b6000602082019050919050565b60006200074982620006d8565b620007558185620006e3565b93506200076283620006f4565b8060005b83811015620007995781516200077d888262000715565b97506200078a836200072f565b92505060018101905062000766565b5085935050505092915050565b60006020820190508181036000830152620007c281846200073c565b905092915050565b600081519050919050565b600082825260208201905092915050565b60005b8381101562000806578082015181840152602081019050620007e9565b60008484015250505050565b6000601f19601f8301169050919050565b60006200083082620007ca565b6200083c8185620007d5565b93506200084e818560208601620007e6565b620008598162000812565b840191505092915050565b6000602082019050818103600083015262000880818462000823565b905092915050565b600080fd5b600080fd5b7f4e487b7100000000000000000000000000000000000000000000000000000000600052604160045260246000fd5b620008cc8262000812565b810181811067ffffffffffffffff82111715620008ee57620008ed62000892565b5b80604052505050565b6000620009036200057d565b9050620009118282620008c1565b919050565b600067ffffffffffffffff82111562000934576200093362000892565b5b6200093f8262000812565b9050602081019050919050565b82818337600083830152505050565b6000620009726200096c8462000916565b620008f7565b9050828152602081018484840111156200099157620009906200088d565b5b6200099e8482856200094c565b509392505050565b600082601f830112620009be57620009bd62000888565b5b8135620009d08482602086016200095b565b91505092915050565b60008060408385031215620009f357620009f262000587565b5b600083013567ffffffffffffffff81111562000a145762000a136200058c565b5b62000a2285828601620009a6565b925050602062000a35858286016200061a565b9150509250929050565b62000a4a81620005f6565b82525050565b600060208201905062000a67600083018462000a3f565b92915050565b600060408201905062000a84600083018562000678565b62000a93602083018462000a3f565b9392505050565b600081905092915050565b600062000ab282620007ca565b62000abe818562000a9a565b935062000ad0818560208601620007e6565b80840191505092915050565b600062000aea828562000aa5565b915062000af8828462000aa5565b91508190509392505050565b60007fff0000000000000000000000000000000000000000000000000000000000000082169050919050565b6000819050919050565b62000b4f62000b498262000b04565b62000b30565b82525050565b60008160601b9050919050565b600062000b6f8262000b55565b9050919050565b600062000b838262000b62565b9050919050565b62000b9f62000b9982620005b1565b62000b76565b82525050565b6000819050919050565b62000bc462000bbe82620005f6565b62000ba5565b82525050565b6000819050919050565b6000819050919050565b62000bf362000bed8262000bca565b62000bd4565b82525050565b600062000c07828762000b3a565b60018201915062000c19828662000b8a565b60148201915062000c2b828562000baf565b60208201915062000c3d828462000bde565b6020820191508190509594505050505056fe6101006040523480156200001257600080fd5b5060405162000ff138038062000ff1833981810160405281019062000038919062000358565b32600073ffffffffffffffffffffffffffffffffffffffff168173ffffffffffffffffffffffffffffffffffffffff1603620000ae5760006040517f1e4fbdf7000000000000000000000000000000000000000000000000000000008152600401620000a59190620003b0565b60405180910390fd5b620000bf81620001ef60201b60201c565b506000811162000106576040517f08c379a0000000000000000000000000000000000000000000000000000000008152600401620000fd9062000454565b60405180910390fd5b8173ffffffffffffffffffffffffffffffffffffffff1660808173ffffffffffffffffffffffffffffffffffffffff16815250503273ffffffffffffffffffffffffffffffffffffffff1660a08173ffffffffffffffffffffffffffffffffffffffff16815250508060c081815250504260e081815250508173ffffffffffffffffffffffffffffffffffffffff163273ffffffffffffffffffffffffffffffffffffffff167fe5d7d4b5cb0219916a8be73968f7baf3c806fd018b0cc5598f5129436cf5c3164284604051620001df92919062000487565b60405180910390a35050620004b4565b60008060009054906101000a900473ffffffffffffffffffffffffffffffffffffffff169050816000806101000a81548173ffffffffffffffffffffffffffffffffffffffff021916908373ffffffffffffffffffffffffffffffffffffffff1602179055508173ffffffffffffffffffffffffffffffffffffffff168173ffffffffffffffffffffffffffffffffffffffff167f8be0079c531659141344cd1fd0a4f28419497f9722a3daafe3b4186f6b6457e060405160405180910390a35050565b600080fd5b600073ffffffffffffffffffffffffffffffffffffffff82169050919050565b6000620002e582620002b8565b9050919050565b620002f781620002d8565b81146200030357600080fd5b50565b6000815190506200031781620002ec565b92915050565b6000819050919050565b62000332816200031d565b81146200033e57600080fd5b50565b600081519050620003528162000327565b92915050565b60008060408385031215620003725762000371620002b3565b5b6000620003828582860162000306565b9250506020620003958582860162000341565b9150509250929050565b620003aa81620002d8565b82525050565b6000602082019050620003c760008301846200039f565b92915050565b600082825260208201905092915050565b7f546f6b656e4c6f636b3a206c6f636b2074696d652073686f756c64206772656160008201527f746572207468616e203000000000000000000000000000000000000000000000602082015250565b60006200043c602a83620003cd565b91506200044982620003de565b604082019050919050565b600060208201905081810360008301526200046f816200042d565b9050919050565b62000481816200031d565b82525050565b60006040820190506200049e600083018562000476565b620004ad602083018462000476565b9392505050565b60805160a05160c05160e051610ad962000518600039600081816101b101526101fe01526000818161015501526101dd015260008181610179015261038801526000818161026d0152818161034c0152818161040b01526105440152610ad96000f3fe608060405234801561001057600080fd5b50600436106100885760003560e01c806386d1a69f1161005b57806386d1a69f146100f15780638da5cb5b146100fb578063f2fde38b14610119578063fc0c546a1461013557610088565b80630d6680871461008d57806338af3eed146100ab578063715018a6146100c957806378e97925146100d3575b600080fd5b610095610153565b6040516100a291906106d2565b60405180910390f35b6100b3610177565b6040516100c0919061072e565b60405180910390f35b6100d161019b565b005b6100db6101af565b6040516100e891906106d2565b60405180910390f35b6100f96101d3565b005b610103610493565b604051610110919061072e565b60405180910390f35b610133600480360381019061012e919061077a565b6104bc565b005b61013d610542565b60405161014a9190610806565b60405180910390f35b7f000000000000000000000000000000000000000000000000000000000000000081565b7f000000000000000000000000000000000000000000000000000000000000000081565b6101a3610566565b6101ad60006105ed565b565b7f000000000000000000000000000000000000000000000000000000000000000081565b6101db610566565b7f00000000000000000000000000000000000000000000000000000000000000007f00000000000000000000000000000000000000000000000000000000000000006102279190610850565b421015610269576040517f08c379a000000000000000000000000000000000000000000000000000000000815260040161026090610907565b60405180910390fd5b60007f000000000000000000000000000000000000000000000000000000000000000073ffffffffffffffffffffffffffffffffffffffff166370a08231306040518263ffffffff1660e01b81526004016102c4919061072e565b602060405180830381865afa1580156102e1573d6000803e3d6000fd5b505050506040513d601f19601f820116820180604052508101906103059190610953565b90506000811161034a576040517f08c379a0000000000000000000000000000000000000000000000000000000008152600401610341906109cc565b60405180910390fd5b7f000000000000000000000000000000000000000000000000000000000000000073ffffffffffffffffffffffffffffffffffffffff1663a9059cbb7f0000000000000000000000000000000000000000000000000000000000000000836040518363ffffffff1660e01b81526004016103c59291906109ec565b6020604051808303816000875af11580156103e4573d6000803e3d6000fd5b505050506040513d601f19601f820116820180604052508101906104089190610a4d565b507f000000000000000000000000000000000000000000000000000000000000000073ffffffffffffffffffffffffffffffffffffffff163373ffffffffffffffffffffffffffffffffffffffff167f10b55f01b1cfe0feeb7d144f66162661602d8e73256499b6d8342aac37ff06794284604051610488929190610a7a565b60405180910390a350565b60008060009054906101000a900473ffffffffffffffffffffffffffffffffffffffff16905090565b6104c4610566565b600073ffffffffffffffffffffffffffffffffffffffff168173ffffffffffffffffffffffffffffffffffffffff16036105365760006040517f1e4fbdf700000000000000000000000000000000000000000000000000000000815260040161052d919061072e565b60405180910390fd5b61053f816105ed565b50565b7f000000000000000000000000000000000000000000000000000000000000000081565b61056e6106b1565b73ffffffffffffffffffffffffffffffffffffffff1661058c610493565b73ffffffffffffffffffffffffffffffffffffffff16146105eb576105af6106b1565b6040517f118cdaa70000000000000000000000000000000000000000000000000000000081526004016105e2919061072e565b60405180910390fd5b565b60008060009054906101000a900473ffffffffffffffffffffffffffffffffffffffff169050816000806101000a81548173ffffffffffffffffffffffffffffffffffffffff021916908373ffffffffffffffffffffffffffffffffffffffff1602179055508173ffffffffffffffffffffffffffffffffffffffff168173ffffffffffffffffffffffffffffffffffffffff167f8be0079c531659141344cd1fd0a4f28419497f9722a3daafe3b4186f6b6457e060405160405180910390a35050565b600033905090565b6000819050919050565b6106cc816106b9565b82525050565b60006020820190506106e760008301846106c3565b92915050565b600073ffffffffffffffffffffffffffffffffffffffff82169050919050565b6000610718826106ed565b9050919050565b6107288161070d565b82525050565b6000602082019050610743600083018461071f565b92915050565b600080fd5b6107578161070d565b811461076257600080fd5b50565b6000813590506107748161074e565b92915050565b6000602082840312156107905761078f610749565b5b600061079e84828501610765565b91505092915050565b6000819050919050565b60006107cc6107c76107c2846106ed565b6107a7565b6106ed565b9050919050565b60006107de826107b1565b9050919050565b60006107f0826107d3565b9050919050565b610800816107e5565b82525050565b600060208201905061081b60008301846107f7565b92915050565b7f4e487b7100000000000000000000000000000000000000000000000000000000600052601160045260246000fd5b600061085b826106b9565b9150610866836106b9565b925082820190508082111561087e5761087d610821565b5b92915050565b600082825260208201905092915050565b7f546f6b656e4c6f636b3a2063757272656e742074696d65206973206265666f7260008201527f652072656c656173652074696d65000000000000000000000000000000000000602082015250565b60006108f1602e83610884565b91506108fc82610895565b604082019050919050565b60006020820190508181036000830152610920816108e4565b9050919050565b610930816106b9565b811461093b57600080fd5b50565b60008151905061094d81610927565b92915050565b60006020828403121561096957610968610749565b5b60006109778482850161093e565b91505092915050565b7f546f6b656e4c6f636b3a206e6f20746f6b656e7320746f2072656c6561736500600082015250565b60006109b6601f83610884565b91506109c182610980565b602082019050919050565b600060208201905081810360008301526109e5816109a9565b9050919050565b6000604082019050610a01600083018561071f565b610a0e60208301846106c3565b9392505050565b60008115159050919050565b610a2a81610a15565b8114610a3557600080fd5b50565b600081519050610a4781610a21565b92915050565b600060208284031215610a6357610a62610749565b5b6000610a7184828501610a38565b91505092915050565b6000604082019050610a8f60008301856106c3565b610a9c60208301846106c3565b939250505056fea26469706673582212205a969c2a52acf1f57cfd596b78354bb8764425cd31e2c4f542ba8d1d112a1dc664736f6c63430008180033a2646970667358221220d52e88f6d26ea9d7294efcf139a325a2e87a6d8d17625247b83b5b7ba19b51e964736f6c63430008180033",
  "linkReferences": {},
  "deployedLinkReferences": {}
}