{
  "_format": "hh-sol-artifact-1",
  "contractName": "ThrustpadLockerFactory",
  "sourceName": "contracts/locker/ThrustpadLockerFactory.sol",
  "abi": [
    {
      "anonymous": false,
      "inputs": [
        {
          "indexed": true,
          "internalType": "address",
          "name": "creator",
          "type": "address"
        },
        {
          "indexed": true,
          "internalType": "address",
          "name": "token",
          "type": "address"
        },
        {
          "indexed": false,
          "internalType": "uint256",
          "name": "amount",
          "type": "uint256"
        }
      ],
      "name": "NewLock",
      "type": "event"
    },
    {
      "inputs": [
        {
          "internalType": "address",
          "name": "",
          "type": "address"
        },
        {
          "internalType": "uint256",
          "name": "",
          "type": "uint256"
        }
      ],
      "name": "deployedLocks",
      "outputs": [
        {
          "internalType": "address",
          "name": "",
          "type": "address"
        }
      ],
      "stateMutability": "view",
      "type": "function"
    },
    {
      "inputs": [
        {
          "internalType": "bytes",
          "name": "bytecode",
          "type": "bytes"
        },
        {
          "internalType": "uint256",
          "name": "salt",
          "type": "uint256"
        }
      ],
      "name": "getAddressCreate2",
      "outputs": [
        {
          "internalType": "address",
          "name": "",
          "type": "address"
        }
      ],
      "stateMutability": "view",
      "type": "function"
    },
    {
      "inputs": [
        {
          "internalType": "address",
          "name": "token",
          "type": "address"
        },
        {
          "internalType": "uint256",
          "name": "lockTime",
          "type": "uint256"
        },
        {
          "internalType": "uint256",
          "name": "amount",
          "type": "uint256"
        }
      ],
      "name": "getBytecode",
      "outputs": [
        {
          "internalType": "bytes",
          "name": "",
          "type": "bytes"
        }
      ],
      "stateMutability": "pure",
      "type": "function"
    },
    {
      "inputs": [
        {
          "internalType": "address",
          "name": "creator",
          "type": "address"
        }
      ],
      "name": "getdeployedLocks",
      "outputs": [
        {
          "internalType": "address[]",
          "name": "",
          "type": "address[]"
        }
      ],
      "stateMutability": "view",
      "type": "function"
    },
    {
      "inputs": [
        {
          "internalType": "address",
          "name": "creator",
          "type": "address"
        }
      ],
      "name": "getdeployedLocksLen",
      "outputs": [
        {
          "internalType": "uint256",
          "name": "",
          "type": "uint256"
        }
      ],
      "stateMutability": "view",
      "type": "function"
    },
    {
      "inputs": [
        {
          "internalType": "contract IERC20",
          "name": "token",
          "type": "address"
        },
        {
          "internalType": "uint256",
          "name": "lockTime",
          "type": "uint256"
        },
        {
          "internalType": "uint256",
          "name": "amount",
          "type": "uint256"
        }
      ],
      "name": "newLock",
      "outputs": [
        {
          "internalType": "address",
          "name": "",
          "type": "address"
        }
      ],
      "stateMutability": "nonpayable",
      "type": "function"
    }
  ],
  "bytecode": "0x608060405234801561001057600080fd5b50612070806100206000396000f3fe60806040523480156200001157600080fd5b50600436106200006a5760003560e01c80630534f358146200006f57806317244e4c14620000a557806325c77b7b14620000db5780639f886f261462000111578063b90060d41462000147578063c9a151a1146200017d575b600080fd5b6200008d6004803603810190620000879190620006ca565b620001b3565b6040516200009c919062000722565b60405180910390f35b620000c36004803603810190620000bd91906200073f565b62000202565b604051620000d2919062000835565b60405180910390f35b620000f96004803603810190620000f3919062000859565b62000281565b60405162000108919062000959565b60405180910390f35b6200012f600480360381019062000129919062000ace565b6200034f565b6040516200013e919062000722565b60405180910390f35b6200016560048036038101906200015f919062000859565b6200039b565b60405162000174919062000b45565b60405180910390f35b6200019b600480360381019062000195919062000ba7565b620003e6565b604051620001aa919062000722565b60405180910390f35b60006020528160005260406000208181548110620001d057600080fd5b906000526020600020016000915091509054906101000a900473ffffffffffffffffffffffffffffffffffffffff1681565b6060600060405180602001620002189062000608565b6020820181038252601f19601f82011660405250905080858585604051602001620002469392919062000c03565b6040516020818303038152906040526040516020016200026892919062000c82565b6040516020818303038152906040529150509392505050565b60606000808373ffffffffffffffffffffffffffffffffffffffff1673ffffffffffffffffffffffffffffffffffffffff1681526020019081526020016000208054806020026020016040519081016040528092919081815260200182805480156200034357602002820191906000526020600020905b8160009054906101000a900473ffffffffffffffffffffffffffffffffffffffff1673ffffffffffffffffffffffffffffffffffffffff1681526020019060010190808311620002f8575b50505050509050919050565b60008060ff60f81b3084868051906020012060405160200162000376949392919062000d9f565b6040516020818303038152906040528051906020012090508060001c91505092915050565b60008060008373ffffffffffffffffffffffffffffffffffffffff1673ffffffffffffffffffffffffffffffffffffffff168152602001908152602001600020805490509050919050565b6000806000803373ffffffffffffffffffffffffffffffffffffffff1673ffffffffffffffffffffffffffffffffffffffff1681526020019081526020016000208054905060001b8585856040516200043f9062000608565b6200044d9392919062000e60565b8190604051809103906000f59050801580156200046e573d6000803e3d6000fd5b5090506000803373ffffffffffffffffffffffffffffffffffffffff1673ffffffffffffffffffffffffffffffffffffffff168152602001908152602001600020819080600181540180825580915050600190039060005260206000200160009091909190916101000a81548173ffffffffffffffffffffffffffffffffffffffff021916908373ffffffffffffffffffffffffffffffffffffffff1602179055508473ffffffffffffffffffffffffffffffffffffffff166323b872dd3383866040518463ffffffff1660e01b81526004016200054f9392919062000e9d565b6020604051808303816000875af11580156200056f573d6000803e3d6000fd5b505050506040513d601f19601f8201168201806040525081019062000595919062000f17565b508073ffffffffffffffffffffffffffffffffffffffff163373ffffffffffffffffffffffffffffffffffffffff167f71f1aa61f9afdaeebcbc2d8139ef2c56dfeadd5bfdfacb004f9a5bb162c3e2b085604051620005f5919062000b45565b60405180910390a3809150509392505050565b6110f18062000f4a83390190565b6000604051905090565b600080fd5b600080fd5b600073ffffffffffffffffffffffffffffffffffffffff82169050919050565b600062000657826200062a565b9050919050565b62000669816200064a565b81146200067557600080fd5b50565b60008135905062000689816200065e565b92915050565b6000819050919050565b620006a4816200068f565b8114620006b057600080fd5b50565b600081359050620006c48162000699565b92915050565b60008060408385031215620006e457620006e362000620565b5b6000620006f48582860162000678565b92505060206200070785828601620006b3565b9150509250929050565b6200071c816200064a565b82525050565b600060208201905062000739600083018462000711565b92915050565b6000806000606084860312156200075b576200075a62000620565b5b60006200076b8682870162000678565b93505060206200077e86828701620006b3565b92505060406200079186828701620006b3565b9150509250925092565b600081519050919050565b600082825260208201905092915050565b60005b83811015620007d7578082015181840152602081019050620007ba565b60008484015250505050565b6000601f19601f8301169050919050565b600062000801826200079b565b6200080d8185620007a6565b93506200081f818560208601620007b7565b6200082a81620007e3565b840191505092915050565b60006020820190508181036000830152620008518184620007f4565b905092915050565b60006020828403121562000872576200087162000620565b5b6000620008828482850162000678565b91505092915050565b600081519050919050565b600082825260208201905092915050565b6000819050602082019050919050565b620008c2816200064a565b82525050565b6000620008d68383620008b7565b60208301905092915050565b6000602082019050919050565b6000620008fc826200088b565b62000908818562000896565b93506200091583620008a7565b8060005b838110156200094c578151620009308882620008c8565b97506200093d83620008e2565b92505060018101905062000919565b5085935050505092915050565b60006020820190508181036000830152620009758184620008ef565b905092915050565b600080fd5b600080fd5b7f4e487b7100000000000000000000000000000000000000000000000000000000600052604160045260246000fd5b620009c182620007e3565b810181811067ffffffffffffffff82111715620009e357620009e262000987565b5b80604052505050565b6000620009f862000616565b905062000a068282620009b6565b919050565b600067ffffffffffffffff82111562000a295762000a2862000987565b5b62000a3482620007e3565b9050602081019050919050565b82818337600083830152505050565b600062000a6762000a618462000a0b565b620009ec565b90508281526020810184848401111562000a865762000a8562000982565b5b62000a9384828562000a41565b509392505050565b600082601f83011262000ab35762000ab26200097d565b5b813562000ac584826020860162000a50565b91505092915050565b6000806040838503121562000ae85762000ae762000620565b5b600083013567ffffffffffffffff81111562000b095762000b0862000625565b5b62000b178582860162000a9b565b925050602062000b2a85828601620006b3565b9150509250929050565b62000b3f816200068f565b82525050565b600060208201905062000b5c600083018462000b34565b92915050565b600062000b6f826200064a565b9050919050565b62000b818162000b62565b811462000b8d57600080fd5b50565b60008135905062000ba18162000b76565b92915050565b60008060006060848603121562000bc35762000bc262000620565b5b600062000bd38682870162000b90565b935050602062000be686828701620006b3565b925050604062000bf986828701620006b3565b9150509250925092565b600060608201905062000c1a600083018662000711565b62000c29602083018562000b34565b62000c38604083018462000b34565b949350505050565b600081905092915050565b600062000c58826200079b565b62000c64818562000c40565b935062000c76818560208601620007b7565b80840191505092915050565b600062000c90828562000c4b565b915062000c9e828462000c4b565b91508190509392505050565b60007fff0000000000000000000000000000000000000000000000000000000000000082169050919050565b6000819050919050565b62000cf562000cef8262000caa565b62000cd6565b82525050565b60008160601b9050919050565b600062000d158262000cfb565b9050919050565b600062000d298262000d08565b9050919050565b62000d4562000d3f826200064a565b62000d1c565b82525050565b6000819050919050565b62000d6a62000d64826200068f565b62000d4b565b82525050565b6000819050919050565b6000819050919050565b62000d9962000d938262000d70565b62000d7a565b82525050565b600062000dad828762000ce0565b60018201915062000dbf828662000d30565b60148201915062000dd1828562000d55565b60208201915062000de3828462000d84565b60208201915081905095945050505050565b6000819050919050565b600062000e2062000e1a62000e14846200062a565b62000df5565b6200062a565b9050919050565b600062000e348262000dff565b9050919050565b600062000e488262000e27565b9050919050565b62000e5a8162000e3b565b82525050565b600060608201905062000e77600083018662000e4f565b62000e86602083018562000b34565b62000e95604083018462000b34565b949350505050565b600060608201905062000eb4600083018662000711565b62000ec3602083018562000711565b62000ed2604083018462000b34565b949350505050565b60008115159050919050565b62000ef18162000eda565b811462000efd57600080fd5b50565b60008151905062000f118162000ee6565b92915050565b60006020828403121562000f305762000f2f62000620565b5b600062000f408482850162000f00565b9150509291505056fe61012060405260008060146101000a81548160ff0219169083151502179055503480156200002c57600080fd5b50604051620010f1380380620010f1833981810160405281019062000052919062000390565b32600073ffffffffffffffffffffffffffffffffffffffff168173ffffffffffffffffffffffffffffffffffffffff1603620000c85760006040517f1e4fbdf7000000000000000000000000000000000000000000000000000000008152600401620000bf9190620003fd565b60405180910390fd5b620000d9816200021360201b60201c565b506000821162000120576040517f08c379a00000000000000000000000000000000000000000000000000000000081526004016200011790620004a1565b60405180910390fd5b8273ffffffffffffffffffffffffffffffffffffffff1660808173ffffffffffffffffffffffffffffffffffffffff16815250503273ffffffffffffffffffffffffffffffffffffffff1660a08173ffffffffffffffffffffffffffffffffffffffff16815250508160c081815250504260e081815250508061010081815250508273ffffffffffffffffffffffffffffffffffffffff163273ffffffffffffffffffffffffffffffffffffffff167fe5d7d4b5cb0219916a8be73968f7baf3c806fd018b0cc5598f5129436cf5c316428560405162000202929190620004d4565b60405180910390a350505062000501565b60008060009054906101000a900473ffffffffffffffffffffffffffffffffffffffff169050816000806101000a81548173ffffffffffffffffffffffffffffffffffffffff021916908373ffffffffffffffffffffffffffffffffffffffff1602179055508173ffffffffffffffffffffffffffffffffffffffff168173ffffffffffffffffffffffffffffffffffffffff167f8be0079c531659141344cd1fd0a4f28419497f9722a3daafe3b4186f6b6457e060405160405180910390a35050565b600080fd5b600073ffffffffffffffffffffffffffffffffffffffff82169050919050565b60006200030982620002dc565b9050919050565b60006200031d82620002fc565b9050919050565b6200032f8162000310565b81146200033b57600080fd5b50565b6000815190506200034f8162000324565b92915050565b6000819050919050565b6200036a8162000355565b81146200037657600080fd5b50565b6000815190506200038a816200035f565b92915050565b600080600060608486031215620003ac57620003ab620002d7565b5b6000620003bc868287016200033e565b9350506020620003cf8682870162000379565b9250506040620003e28682870162000379565b9150509250925092565b620003f781620002fc565b82525050565b6000602082019050620004146000830184620003ec565b92915050565b600082825260208201905092915050565b7f546f6b656e4c6f636b3a206c6f636b2074696d652073686f756c64206772656160008201527f746572207468616e203000000000000000000000000000000000000000000000602082015250565b600062000489602a836200041a565b915062000496826200042b565b604082019050919050565b60006020820190508181036000830152620004bc816200047a565b9050919050565b620004ce8162000355565b82525050565b6000604082019050620004eb6000830185620004c3565b620004fa6020830184620004c3565b9392505050565b60805160a05160c05160e05161010051610b8162000570600039600061053e01526000818161020301526102500152600081816101a7015261022f0152600081816101cb01526103da0152600081816102bf0152818161039e0152818161047801526105e80152610b816000f3fe608060405234801561001057600080fd5b506004361061009e5760003560e01c80638da5cb5b116100665780638da5cb5b14610111578063961325211461012f578063d8df5dc11461014d578063f2fde38b1461016b578063fc0c546a146101875761009e565b80630d668087146100a357806338af3eed146100c1578063715018a6146100df57806378e97925146100e957806386d1a69f14610107575b600080fd5b6100ab6101a5565b6040516100b89190610776565b60405180910390f35b6100c96101c9565b6040516100d691906107d2565b60405180910390f35b6100e76101ed565b005b6100f1610201565b6040516100fe9190610776565b60405180910390f35b61010f610225565b005b610119610500565b60405161012691906107d2565b60405180910390f35b610137610529565b6040516101449190610808565b60405180910390f35b61015561053c565b6040516101629190610776565b60405180910390f35b61018560048036038101906101809190610854565b610560565b005b61018f6105e6565b60405161019c91906108e0565b60405180910390f35b7f000000000000000000000000000000000000000000000000000000000000000081565b7f000000000000000000000000000000000000000000000000000000000000000081565b6101f561060a565b6101ff6000610691565b565b7f000000000000000000000000000000000000000000000000000000000000000081565b61022d61060a565b7f00000000000000000000000000000000000000000000000000000000000000007f0000000000000000000000000000000000000000000000000000000000000000610279919061092a565b4210156102bb576040517f08c379a00000000000000000000000000000000000000000000000000000000081526004016102b2906109bb565b60405180910390fd5b60007f000000000000000000000000000000000000000000000000000000000000000073ffffffffffffffffffffffffffffffffffffffff166370a08231306040518263ffffffff1660e01b815260040161031691906107d2565b602060405180830381865afa158015610333573d6000803e3d6000fd5b505050506040513d601f19601f820116820180604052508101906103579190610a07565b90506000811161039c576040517f08c379a000000000000000000000000000000000000000000000000000000000815260040161039390610a80565b60405180910390fd5b7f000000000000000000000000000000000000000000000000000000000000000073ffffffffffffffffffffffffffffffffffffffff1663a9059cbb7f0000000000000000000000000000000000000000000000000000000000000000836040518363ffffffff1660e01b8152600401610417929190610aa0565b6020604051808303816000875af1158015610436573d6000803e3d6000fd5b505050506040513d601f19601f8201168201806040525081019061045a9190610af5565b506001600060146101000a81548160ff0219169083151502179055507f000000000000000000000000000000000000000000000000000000000000000073ffffffffffffffffffffffffffffffffffffffff163373ffffffffffffffffffffffffffffffffffffffff167f10b55f01b1cfe0feeb7d144f66162661602d8e73256499b6d8342aac37ff067942846040516104f5929190610b22565b60405180910390a350565b60008060009054906101000a900473ffffffffffffffffffffffffffffffffffffffff16905090565b600060149054906101000a900460ff1681565b7f000000000000000000000000000000000000000000000000000000000000000081565b61056861060a565b600073ffffffffffffffffffffffffffffffffffffffff168173ffffffffffffffffffffffffffffffffffffffff16036105da5760006040517f1e4fbdf70000000000000000000000000000000000000000000000000000000081526004016105d191906107d2565b60405180910390fd5b6105e381610691565b50565b7f000000000000000000000000000000000000000000000000000000000000000081565b610612610755565b73ffffffffffffffffffffffffffffffffffffffff16610630610500565b73ffffffffffffffffffffffffffffffffffffffff161461068f57610653610755565b6040517f118cdaa700000000000000000000000000000000000000000000000000000000815260040161068691906107d2565b60405180910390fd5b565b60008060009054906101000a900473ffffffffffffffffffffffffffffffffffffffff169050816000806101000a81548173ffffffffffffffffffffffffffffffffffffffff021916908373ffffffffffffffffffffffffffffffffffffffff1602179055508173ffffffffffffffffffffffffffffffffffffffff168173ffffffffffffffffffffffffffffffffffffffff167f8be0079c531659141344cd1fd0a4f28419497f9722a3daafe3b4186f6b6457e060405160405180910390a35050565b600033905090565b6000819050919050565b6107708161075d565b82525050565b600060208201905061078b6000830184610767565b92915050565b600073ffffffffffffffffffffffffffffffffffffffff82169050919050565b60006107bc82610791565b9050919050565b6107cc816107b1565b82525050565b60006020820190506107e760008301846107c3565b92915050565b60008115159050919050565b610802816107ed565b82525050565b600060208201905061081d60008301846107f9565b92915050565b600080fd5b610831816107b1565b811461083c57600080fd5b50565b60008135905061084e81610828565b92915050565b60006020828403121561086a57610869610823565b5b60006108788482850161083f565b91505092915050565b6000819050919050565b60006108a66108a161089c84610791565b610881565b610791565b9050919050565b60006108b88261088b565b9050919050565b60006108ca826108ad565b9050919050565b6108da816108bf565b82525050565b60006020820190506108f560008301846108d1565b92915050565b7f4e487b7100000000000000000000000000000000000000000000000000000000600052601160045260246000fd5b60006109358261075d565b91506109408361075d565b9250828201905080821115610958576109576108fb565b5b92915050565b600082825260208201905092915050565b7f546f6b656e4c6f636b3a206c6f636b2074696d65206e6f742065787069726564600082015250565b60006109a560208361095e565b91506109b08261096f565b602082019050919050565b600060208201905081810360008301526109d481610998565b9050919050565b6109e48161075d565b81146109ef57600080fd5b50565b600081519050610a01816109db565b92915050565b600060208284031215610a1d57610a1c610823565b5b6000610a2b848285016109f2565b91505092915050565b7f546f6b656e4c6f636b3a206e6f20746f6b656e7320746f2072656c6561736500600082015250565b6000610a6a601f8361095e565b9150610a7582610a34565b602082019050919050565b60006020820190508181036000830152610a9981610a5d565b9050919050565b6000604082019050610ab560008301856107c3565b610ac26020830184610767565b9392505050565b610ad2816107ed565b8114610add57600080fd5b50565b600081519050610aef81610ac9565b92915050565b600060208284031215610b0b57610b0a610823565b5b6000610b1984828501610ae0565b91505092915050565b6000604082019050610b376000830185610767565b610b446020830184610767565b939250505056fea2646970667358221220fd501f62616d5006d20082abaa40a585c58f74b14d438acdd7cc977df947506564736f6c63430008180033a264697066735822122069f007e4237347b4498a2bc10d1424e9553a78cde8812e64685ff959472d899464736f6c63430008180033",
  "linkReferences": {},
  "deployedLinkReferences": {}
}