{
  "_format": "hh-sol-artifact-1",
  "contractName": "ThrustpadLockerFactory",
  "sourceName": "contracts/locker/ThrustpadLockerFactory.sol",
  "abi": [
    {
      "inputs": [],
      "stateMutability": "nonpayable",
      "type": "constructor"
    },
    {
      "inputs": [
        {
          "internalType": "address",
          "name": "owner",
          "type": "address"
        }
      ],
      "name": "OwnableInvalidOwner",
      "type": "error"
    },
    {
      "inputs": [
        {
          "internalType": "address",
          "name": "account",
          "type": "address"
        }
      ],
      "name": "OwnableUnauthorizedAccount",
      "type": "error"
    },
    {
      "anonymous": false,
      "inputs": [
        {
          "indexed": true,
          "internalType": "address",
          "name": "creator",
          "type": "address"
        },
        {
          "indexed": true,
          "internalType": "address",
          "name": "token",
          "type": "address"
        },
        {
          "indexed": false,
          "internalType": "uint256",
          "name": "amount",
          "type": "uint256"
        }
      ],
      "name": "NewLock",
      "type": "event"
    },
    {
      "anonymous": false,
      "inputs": [
        {
          "indexed": true,
          "internalType": "address",
          "name": "previousOwner",
          "type": "address"
        },
        {
          "indexed": true,
          "internalType": "address",
          "name": "newOwner",
          "type": "address"
        }
      ],
      "name": "OwnershipTransferred",
      "type": "event"
    },
    {
      "inputs": [],
      "name": "creationFee",
      "outputs": [
        {
          "internalType": "uint256",
          "name": "",
          "type": "uint256"
        }
      ],
      "stateMutability": "view",
      "type": "function"
    },
    {
      "inputs": [
        {
          "internalType": "address",
          "name": "",
          "type": "address"
        },
        {
          "internalType": "uint256",
          "name": "",
          "type": "uint256"
        }
      ],
      "name": "deployedLocks",
      "outputs": [
        {
          "internalType": "address",
          "name": "",
          "type": "address"
        }
      ],
      "stateMutability": "view",
      "type": "function"
    },
    {
      "inputs": [],
      "name": "feeEarned",
      "outputs": [
        {
          "internalType": "uint256",
          "name": "",
          "type": "uint256"
        }
      ],
      "stateMutability": "view",
      "type": "function"
    },
    {
      "inputs": [
        {
          "internalType": "bytes",
          "name": "bytecode",
          "type": "bytes"
        },
        {
          "internalType": "uint256",
          "name": "salt",
          "type": "uint256"
        }
      ],
      "name": "getAddressCreate2",
      "outputs": [
        {
          "internalType": "address",
          "name": "",
          "type": "address"
        }
      ],
      "stateMutability": "view",
      "type": "function"
    },
    {
      "inputs": [
        {
          "internalType": "address",
          "name": "token",
          "type": "address"
        },
        {
          "internalType": "uint256",
          "name": "lockTime",
          "type": "uint256"
        },
        {
          "internalType": "uint256",
          "name": "amount",
          "type": "uint256"
        }
      ],
      "name": "getBytecode",
      "outputs": [
        {
          "internalType": "bytes",
          "name": "",
          "type": "bytes"
        }
      ],
      "stateMutability": "pure",
      "type": "function"
    },
    {
      "inputs": [
        {
          "internalType": "address",
          "name": "creator",
          "type": "address"
        }
      ],
      "name": "getdeployedLocks",
      "outputs": [
        {
          "internalType": "address[]",
          "name": "",
          "type": "address[]"
        }
      ],
      "stateMutability": "view",
      "type": "function"
    },
    {
      "inputs": [
        {
          "internalType": "address",
          "name": "creator",
          "type": "address"
        }
      ],
      "name": "getdeployedLocksLen",
      "outputs": [
        {
          "internalType": "uint256",
          "name": "",
          "type": "uint256"
        }
      ],
      "stateMutability": "view",
      "type": "function"
    },
    {
      "inputs": [
        {
          "internalType": "contract IERC20",
          "name": "token",
          "type": "address"
        },
        {
          "internalType": "uint256",
          "name": "lockTime",
          "type": "uint256"
        },
        {
          "internalType": "uint256",
          "name": "amount",
          "type": "uint256"
        }
      ],
      "name": "newLock",
      "outputs": [
        {
          "internalType": "address",
          "name": "",
          "type": "address"
        }
      ],
      "stateMutability": "payable",
      "type": "function"
    },
    {
      "inputs": [],
      "name": "owner",
      "outputs": [
        {
          "internalType": "address",
          "name": "",
          "type": "address"
        }
      ],
      "stateMutability": "view",
      "type": "function"
    },
    {
      "inputs": [],
      "name": "renounceOwnership",
      "outputs": [],
      "stateMutability": "nonpayable",
      "type": "function"
    },
    {
      "inputs": [
        {
          "internalType": "address",
          "name": "newOwner",
          "type": "address"
        }
      ],
      "name": "transferOwnership",
      "outputs": [],
      "stateMutability": "nonpayable",
      "type": "function"
    },
    {
      "inputs": [],
      "name": "withdraw",
      "outputs": [],
      "stateMutability": "nonpayable",
      "type": "function"
    },
    {
      "inputs": [
        {
          "internalType": "address",
          "name": "token",
          "type": "address"
        }
      ],
      "name": "withdrawToken",
      "outputs": [],
      "stateMutability": "nonpayable",
      "type": "function"
    },
    {
      "stateMutability": "payable",
      "type": "receive"
    }
  ],
  "bytecode": "0x6080604052670de0b6b3a76400006002553480156200001d57600080fd5b5033600073ffffffffffffffffffffffffffffffffffffffff168173ffffffffffffffffffffffffffffffffffffffff1603620000945760006040517f1e4fbdf70000000000000000000000000000000000000000000000000000000081526004016200008b9190620001b5565b60405180910390fd5b620000a581620000ac60201b60201c565b50620001d2565b60008060009054906101000a900473ffffffffffffffffffffffffffffffffffffffff169050816000806101000a81548173ffffffffffffffffffffffffffffffffffffffff021916908373ffffffffffffffffffffffffffffffffffffffff1602179055508173ffffffffffffffffffffffffffffffffffffffff168173ffffffffffffffffffffffffffffffffffffffff167f8be0079c531659141344cd1fd0a4f28419497f9722a3daafe3b4186f6b6457e060405160405180910390a35050565b600073ffffffffffffffffffffffffffffffffffffffff82169050919050565b60006200019d8262000170565b9050919050565b620001af8162000190565b82525050565b6000602082019050620001cc6000830184620001a4565b92915050565b6127e980620001e26000396000f3fe608060405260043610620000d95760003560e01c80638da5cb5b116200008b578063c9a151a11162000061578063c9a151a114620002cc578063d5f63a061462000302578063dce0b4e41462000332578063f2fde38b146200036257620000e1565b80638da5cb5b14620002145780639f886f261462000244578063b90060d4146200028857620000e1565b80630534f35814620000e657806317244e4c146200012a57806325c77b7b146200016e5780633ccfd60b14620001b2578063715018a614620001cc5780638947606914620001e657620000e1565b36620000e157005b600080fd5b348015620000f357600080fd5b506200011260048036038101906200010c919062000cba565b62000390565b60405162000121919062000d12565b60405180910390f35b3480156200013757600080fd5b5062000156600480360381019062000150919062000d2f565b620003df565b60405162000165919062000e25565b60405180910390f35b3480156200017b57600080fd5b506200019a600480360381019062000194919062000e49565b6200045e565b604051620001a9919062000f49565b60405180910390f35b348015620001bf57600080fd5b50620001ca6200052d565b005b348015620001d957600080fd5b50620001e46200058a565b005b348015620001f357600080fd5b506200021260048036038101906200020c919062000e49565b620005a2565b005b3480156200022157600080fd5b506200022c620006ba565b6040516200023b919062000d12565b60405180910390f35b3480156200025157600080fd5b506200027060048036038101906200026a9190620010be565b620006e3565b6040516200027f919062000d12565b60405180910390f35b3480156200029557600080fd5b50620002b46004803603810190620002ae919062000e49565b6200072f565b604051620002c3919062001135565b60405180910390f35b620002ea6004803603810190620002e4919062001197565b6200077b565b604051620002f9919062000d12565b60405180910390f35b3480156200030f57600080fd5b506200031a62000a03565b60405162000329919062001135565b60405180910390f35b3480156200033f57600080fd5b506200034a62000a09565b60405162000359919062001135565b60405180910390f35b3480156200036f57600080fd5b506200038e600480360381019062000388919062000e49565b62000a0f565b005b60016020528160005260406000208181548110620003ad57600080fd5b906000526020600020016000915091509054906101000a900473ffffffffffffffffffffffffffffffffffffffff1681565b6060600060405180602001620003f59062000bf8565b6020820181038252601f19601f820116604052509050808585856040516020016200042393929190620011f3565b6040516020818303038152906040526040516020016200044592919062001272565b6040516020818303038152906040529150509392505050565b6060600160008373ffffffffffffffffffffffffffffffffffffffff1673ffffffffffffffffffffffffffffffffffffffff1681526020019081526020016000208054806020026020016040519081016040528092919081815260200182805480156200052157602002820191906000526020600020905b8160009054906101000a900473ffffffffffffffffffffffffffffffffffffffff1673ffffffffffffffffffffffffffffffffffffffff1681526020019060010190808311620004d6575b50505050509050919050565b6200053762000a9c565b62000541620006ba565b73ffffffffffffffffffffffffffffffffffffffff166108fc479081150290604051600060405180830381858888f1935050505015801562000587573d6000803e3d6000fd5b50565b6200059462000a9c565b620005a0600062000b2c565b565b620005ac62000a9c565b8073ffffffffffffffffffffffffffffffffffffffff1663a9059cbb620005d2620006ba565b8373ffffffffffffffffffffffffffffffffffffffff166370a08231306040518263ffffffff1660e01b81526004016200060d919062000d12565b602060405180830381865afa1580156200062b573d6000803e3d6000fd5b505050506040513d601f19601f82011682018060405250810190620006519190620012b1565b6040518363ffffffff1660e01b815260040162000670929190620012e3565b6020604051808303816000875af115801562000690573d6000803e3d6000fd5b505050506040513d601f19601f82011682018060405250810190620006b691906200134d565b5050565b60008060009054906101000a900473ffffffffffffffffffffffffffffffffffffffff16905090565b60008060ff60f81b308486805190602001206040516020016200070a949392919062001474565b6040516020818303038152906040528051906020012090508060001c91505092915050565b6000600160008373ffffffffffffffffffffffffffffffffffffffff1673ffffffffffffffffffffffffffffffffffffffff168152602001908152602001600020805490509050919050565b6000600254341015620007c5576040517f08c379a0000000000000000000000000000000000000000000000000000000008152600401620007bc9062001551565b60405180910390fd5b6000600160003373ffffffffffffffffffffffffffffffffffffffff1673ffffffffffffffffffffffffffffffffffffffff1681526020019081526020016000208054905060001b8585856040516200081e9062000bf8565b6200082c93929190620015de565b8190604051809103906000f59050801580156200084d573d6000803e3d6000fd5b509050600160003373ffffffffffffffffffffffffffffffffffffffff1673ffffffffffffffffffffffffffffffffffffffff168152602001908152602001600020819080600181540180825580915050600190039060005260206000200160009091909190916101000a81548173ffffffffffffffffffffffffffffffffffffffff021916908373ffffffffffffffffffffffffffffffffffffffff1602179055508473ffffffffffffffffffffffffffffffffffffffff166323b872dd3383866040518463ffffffff1660e01b81526004016200092f939291906200161b565b6020604051808303816000875af11580156200094f573d6000803e3d6000fd5b505050506040513d601f19601f820116820180604052508101906200097591906200134d565b508073ffffffffffffffffffffffffffffffffffffffff163373ffffffffffffffffffffffffffffffffffffffff167f71f1aa61f9afdaeebcbc2d8139ef2c56dfeadd5bfdfacb004f9a5bb162c3e2b085604051620009d5919062001135565b60405180910390a33460036000828254620009f1919062001687565b92505081905550809150509392505050565b60035481565b60025481565b62000a1962000a9c565b600073ffffffffffffffffffffffffffffffffffffffff168173ffffffffffffffffffffffffffffffffffffffff160362000a8e5760006040517f1e4fbdf700000000000000000000000000000000000000000000000000000000815260040162000a85919062000d12565b60405180910390fd5b62000a998162000b2c565b50565b62000aa662000bf0565b73ffffffffffffffffffffffffffffffffffffffff1662000ac6620006ba565b73ffffffffffffffffffffffffffffffffffffffff161462000b2a5762000aec62000bf0565b6040517f118cdaa700000000000000000000000000000000000000000000000000000000815260040162000b21919062000d12565b60405180910390fd5b565b60008060009054906101000a900473ffffffffffffffffffffffffffffffffffffffff169050816000806101000a81548173ffffffffffffffffffffffffffffffffffffffff021916908373ffffffffffffffffffffffffffffffffffffffff1602179055508173ffffffffffffffffffffffffffffffffffffffff168173ffffffffffffffffffffffffffffffffffffffff167f8be0079c531659141344cd1fd0a4f28419497f9722a3daafe3b4186f6b6457e060405160405180910390a35050565b600033905090565b6110f180620016c383390190565b6000604051905090565b600080fd5b600080fd5b600073ffffffffffffffffffffffffffffffffffffffff82169050919050565b600062000c478262000c1a565b9050919050565b62000c598162000c3a565b811462000c6557600080fd5b50565b60008135905062000c798162000c4e565b92915050565b6000819050919050565b62000c948162000c7f565b811462000ca057600080fd5b50565b60008135905062000cb48162000c89565b92915050565b6000806040838503121562000cd45762000cd362000c10565b5b600062000ce48582860162000c68565b925050602062000cf78582860162000ca3565b9150509250929050565b62000d0c8162000c3a565b82525050565b600060208201905062000d29600083018462000d01565b92915050565b60008060006060848603121562000d4b5762000d4a62000c10565b5b600062000d5b8682870162000c68565b935050602062000d6e8682870162000ca3565b925050604062000d818682870162000ca3565b9150509250925092565b600081519050919050565b600082825260208201905092915050565b60005b8381101562000dc757808201518184015260208101905062000daa565b60008484015250505050565b6000601f19601f8301169050919050565b600062000df18262000d8b565b62000dfd818562000d96565b935062000e0f81856020860162000da7565b62000e1a8162000dd3565b840191505092915050565b6000602082019050818103600083015262000e41818462000de4565b905092915050565b60006020828403121562000e625762000e6162000c10565b5b600062000e728482850162000c68565b91505092915050565b600081519050919050565b600082825260208201905092915050565b6000819050602082019050919050565b62000eb28162000c3a565b82525050565b600062000ec6838362000ea7565b60208301905092915050565b6000602082019050919050565b600062000eec8262000e7b565b62000ef8818562000e86565b935062000f058362000e97565b8060005b8381101562000f3c57815162000f20888262000eb8565b975062000f2d8362000ed2565b92505060018101905062000f09565b5085935050505092915050565b6000602082019050818103600083015262000f65818462000edf565b905092915050565b600080fd5b600080fd5b7f4e487b7100000000000000000000000000000000000000000000000000000000600052604160045260246000fd5b62000fb18262000dd3565b810181811067ffffffffffffffff8211171562000fd35762000fd262000f77565b5b80604052505050565b600062000fe862000c06565b905062000ff6828262000fa6565b919050565b600067ffffffffffffffff82111562001019576200101862000f77565b5b620010248262000dd3565b9050602081019050919050565b82818337600083830152505050565b600062001057620010518462000ffb565b62000fdc565b90508281526020810184848401111562001076576200107562000f72565b5b6200108384828562001031565b509392505050565b600082601f830112620010a357620010a262000f6d565b5b8135620010b584826020860162001040565b91505092915050565b60008060408385031215620010d857620010d762000c10565b5b600083013567ffffffffffffffff811115620010f957620010f862000c15565b5b62001107858286016200108b565b92505060206200111a8582860162000ca3565b9150509250929050565b6200112f8162000c7f565b82525050565b60006020820190506200114c600083018462001124565b92915050565b60006200115f8262000c3a565b9050919050565b620011718162001152565b81146200117d57600080fd5b50565b600081359050620011918162001166565b92915050565b600080600060608486031215620011b357620011b262000c10565b5b6000620011c38682870162001180565b9350506020620011d68682870162000ca3565b9250506040620011e98682870162000ca3565b9150509250925092565b60006060820190506200120a600083018662000d01565b62001219602083018562001124565b62001228604083018462001124565b949350505050565b600081905092915050565b6000620012488262000d8b565b62001254818562001230565b93506200126681856020860162000da7565b80840191505092915050565b60006200128082856200123b565b91506200128e82846200123b565b91508190509392505050565b600081519050620012ab8162000c89565b92915050565b600060208284031215620012ca57620012c962000c10565b5b6000620012da848285016200129a565b91505092915050565b6000604082019050620012fa600083018562000d01565b62001309602083018462001124565b9392505050565b60008115159050919050565b620013278162001310565b81146200133357600080fd5b50565b60008151905062001347816200131c565b92915050565b60006020828403121562001366576200136562000c10565b5b6000620013768482850162001336565b91505092915050565b60007fff0000000000000000000000000000000000000000000000000000000000000082169050919050565b6000819050919050565b620013ca620013c4826200137f565b620013ab565b82525050565b60008160601b9050919050565b6000620013ea82620013d0565b9050919050565b6000620013fe82620013dd565b9050919050565b6200141a620014148262000c3a565b620013f1565b82525050565b6000819050919050565b6200143f620014398262000c7f565b62001420565b82525050565b6000819050919050565b6000819050919050565b6200146e620014688262001445565b6200144f565b82525050565b6000620014828287620013b5565b60018201915062001494828662001405565b601482019150620014a682856200142a565b602082019150620014b8828462001459565b60208201915081905095945050505050565b600082825260208201905092915050565b7f5468727573747061644c6f636b6572466163746f72793a20496e73756666696360008201527f69656e7420666565000000000000000000000000000000000000000000000000602082015250565b600062001539602883620014ca565b91506200154682620014db565b604082019050919050565b600060208201905081810360008301526200156c816200152a565b9050919050565b6000819050919050565b60006200159e62001598620015928462000c1a565b62001573565b62000c1a565b9050919050565b6000620015b2826200157d565b9050919050565b6000620015c682620015a5565b9050919050565b620015d881620015b9565b82525050565b6000606082019050620015f56000830186620015cd565b62001604602083018562001124565b62001613604083018462001124565b949350505050565b600060608201905062001632600083018662000d01565b62001641602083018562000d01565b62001650604083018462001124565b949350505050565b7f4e487b7100000000000000000000000000000000000000000000000000000000600052601160045260246000fd5b6000620016948262000c7f565b9150620016a18362000c7f565b9250828201905080821115620016bc57620016bb62001658565b5b9291505056fe61012060405260008060146101000a81548160ff0219169083151502179055503480156200002c57600080fd5b50604051620010f1380380620010f1833981810160405281019062000052919062000390565b32600073ffffffffffffffffffffffffffffffffffffffff168173ffffffffffffffffffffffffffffffffffffffff1603620000c85760006040517f1e4fbdf7000000000000000000000000000000000000000000000000000000008152600401620000bf9190620003fd565b60405180910390fd5b620000d9816200021360201b60201c565b506000821162000120576040517f08c379a00000000000000000000000000000000000000000000000000000000081526004016200011790620004a1565b60405180910390fd5b8273ffffffffffffffffffffffffffffffffffffffff1660808173ffffffffffffffffffffffffffffffffffffffff16815250503273ffffffffffffffffffffffffffffffffffffffff1660a08173ffffffffffffffffffffffffffffffffffffffff16815250508160c081815250504260e081815250508061010081815250508273ffffffffffffffffffffffffffffffffffffffff163273ffffffffffffffffffffffffffffffffffffffff167fe5d7d4b5cb0219916a8be73968f7baf3c806fd018b0cc5598f5129436cf5c316428560405162000202929190620004d4565b60405180910390a350505062000501565b60008060009054906101000a900473ffffffffffffffffffffffffffffffffffffffff169050816000806101000a81548173ffffffffffffffffffffffffffffffffffffffff021916908373ffffffffffffffffffffffffffffffffffffffff1602179055508173ffffffffffffffffffffffffffffffffffffffff168173ffffffffffffffffffffffffffffffffffffffff167f8be0079c531659141344cd1fd0a4f28419497f9722a3daafe3b4186f6b6457e060405160405180910390a35050565b600080fd5b600073ffffffffffffffffffffffffffffffffffffffff82169050919050565b60006200030982620002dc565b9050919050565b60006200031d82620002fc565b9050919050565b6200032f8162000310565b81146200033b57600080fd5b50565b6000815190506200034f8162000324565b92915050565b6000819050919050565b6200036a8162000355565b81146200037657600080fd5b50565b6000815190506200038a816200035f565b92915050565b600080600060608486031215620003ac57620003ab620002d7565b5b6000620003bc868287016200033e565b9350506020620003cf8682870162000379565b9250506040620003e28682870162000379565b9150509250925092565b620003f781620002fc565b82525050565b6000602082019050620004146000830184620003ec565b92915050565b600082825260208201905092915050565b7f546f6b656e4c6f636b3a206c6f636b2074696d652073686f756c64206772656160008201527f746572207468616e203000000000000000000000000000000000000000000000602082015250565b600062000489602a836200041a565b915062000496826200042b565b604082019050919050565b60006020820190508181036000830152620004bc816200047a565b9050919050565b620004ce8162000355565b82525050565b6000604082019050620004eb6000830185620004c3565b620004fa6020830184620004c3565b9392505050565b60805160a05160c05160e05161010051610b8162000570600039600061053e01526000818161020301526102500152600081816101a7015261022f0152600081816101cb01526103da0152600081816102bf0152818161039e0152818161047801526105e80152610b816000f3fe608060405234801561001057600080fd5b506004361061009e5760003560e01c80638da5cb5b116100665780638da5cb5b14610111578063961325211461012f578063d8df5dc11461014d578063f2fde38b1461016b578063fc0c546a146101875761009e565b80630d668087146100a357806338af3eed146100c1578063715018a6146100df57806378e97925146100e957806386d1a69f14610107575b600080fd5b6100ab6101a5565b6040516100b89190610776565b60405180910390f35b6100c96101c9565b6040516100d691906107d2565b60405180910390f35b6100e76101ed565b005b6100f1610201565b6040516100fe9190610776565b60405180910390f35b61010f610225565b005b610119610500565b60405161012691906107d2565b60405180910390f35b610137610529565b6040516101449190610808565b60405180910390f35b61015561053c565b6040516101629190610776565b60405180910390f35b61018560048036038101906101809190610854565b610560565b005b61018f6105e6565b60405161019c91906108e0565b60405180910390f35b7f000000000000000000000000000000000000000000000000000000000000000081565b7f000000000000000000000000000000000000000000000000000000000000000081565b6101f561060a565b6101ff6000610691565b565b7f000000000000000000000000000000000000000000000000000000000000000081565b61022d61060a565b7f00000000000000000000000000000000000000000000000000000000000000007f0000000000000000000000000000000000000000000000000000000000000000610279919061092a565b4210156102bb576040517f08c379a00000000000000000000000000000000000000000000000000000000081526004016102b2906109bb565b60405180910390fd5b60007f000000000000000000000000000000000000000000000000000000000000000073ffffffffffffffffffffffffffffffffffffffff166370a08231306040518263ffffffff1660e01b815260040161031691906107d2565b602060405180830381865afa158015610333573d6000803e3d6000fd5b505050506040513d601f19601f820116820180604052508101906103579190610a07565b90506000811161039c576040517f08c379a000000000000000000000000000000000000000000000000000000000815260040161039390610a80565b60405180910390fd5b7f000000000000000000000000000000000000000000000000000000000000000073ffffffffffffffffffffffffffffffffffffffff1663a9059cbb7f0000000000000000000000000000000000000000000000000000000000000000836040518363ffffffff1660e01b8152600401610417929190610aa0565b6020604051808303816000875af1158015610436573d6000803e3d6000fd5b505050506040513d601f19601f8201168201806040525081019061045a9190610af5565b506001600060146101000a81548160ff0219169083151502179055507f000000000000000000000000000000000000000000000000000000000000000073ffffffffffffffffffffffffffffffffffffffff163373ffffffffffffffffffffffffffffffffffffffff167f10b55f01b1cfe0feeb7d144f66162661602d8e73256499b6d8342aac37ff067942846040516104f5929190610b22565b60405180910390a350565b60008060009054906101000a900473ffffffffffffffffffffffffffffffffffffffff16905090565b600060149054906101000a900460ff1681565b7f000000000000000000000000000000000000000000000000000000000000000081565b61056861060a565b600073ffffffffffffffffffffffffffffffffffffffff168173ffffffffffffffffffffffffffffffffffffffff16036105da5760006040517f1e4fbdf70000000000000000000000000000000000000000000000000000000081526004016105d191906107d2565b60405180910390fd5b6105e381610691565b50565b7f000000000000000000000000000000000000000000000000000000000000000081565b610612610755565b73ffffffffffffffffffffffffffffffffffffffff16610630610500565b73ffffffffffffffffffffffffffffffffffffffff161461068f57610653610755565b6040517f118cdaa700000000000000000000000000000000000000000000000000000000815260040161068691906107d2565b60405180910390fd5b565b60008060009054906101000a900473ffffffffffffffffffffffffffffffffffffffff169050816000806101000a81548173ffffffffffffffffffffffffffffffffffffffff021916908373ffffffffffffffffffffffffffffffffffffffff1602179055508173ffffffffffffffffffffffffffffffffffffffff168173ffffffffffffffffffffffffffffffffffffffff167f8be0079c531659141344cd1fd0a4f28419497f9722a3daafe3b4186f6b6457e060405160405180910390a35050565b600033905090565b6000819050919050565b6107708161075d565b82525050565b600060208201905061078b6000830184610767565b92915050565b600073ffffffffffffffffffffffffffffffffffffffff82169050919050565b60006107bc82610791565b9050919050565b6107cc816107b1565b82525050565b60006020820190506107e760008301846107c3565b92915050565b60008115159050919050565b610802816107ed565b82525050565b600060208201905061081d60008301846107f9565b92915050565b600080fd5b610831816107b1565b811461083c57600080fd5b50565b60008135905061084e81610828565b92915050565b60006020828403121561086a57610869610823565b5b60006108788482850161083f565b91505092915050565b6000819050919050565b60006108a66108a161089c84610791565b610881565b610791565b9050919050565b60006108b88261088b565b9050919050565b60006108ca826108ad565b9050919050565b6108da816108bf565b82525050565b60006020820190506108f560008301846108d1565b92915050565b7f4e487b7100000000000000000000000000000000000000000000000000000000600052601160045260246000fd5b60006109358261075d565b91506109408361075d565b9250828201905080821115610958576109576108fb565b5b92915050565b600082825260208201905092915050565b7f546f6b656e4c6f636b3a206c6f636b2074696d65206e6f742065787069726564600082015250565b60006109a560208361095e565b91506109b08261096f565b602082019050919050565b600060208201905081810360008301526109d481610998565b9050919050565b6109e48161075d565b81146109ef57600080fd5b50565b600081519050610a01816109db565b92915050565b600060208284031215610a1d57610a1c610823565b5b6000610a2b848285016109f2565b91505092915050565b7f546f6b656e4c6f636b3a206e6f20746f6b656e7320746f2072656c6561736500600082015250565b6000610a6a601f8361095e565b9150610a7582610a34565b602082019050919050565b60006020820190508181036000830152610a9981610a5d565b9050919050565b6000604082019050610ab560008301856107c3565b610ac26020830184610767565b9392505050565b610ad2816107ed565b8114610add57600080fd5b50565b600081519050610aef81610ac9565b92915050565b600060208284031215610b0b57610b0a610823565b5b6000610b1984828501610ae0565b91505092915050565b6000604082019050610b376000830185610767565b610b446020830184610767565b939250505056fea2646970667358221220fd501f62616d5006d20082abaa40a585c58f74b14d438acdd7cc977df947506564736f6c63430008180033a26469706673582212209e54a38420e4c7655c0d2ddd798430df24e3dc869e5b06a8f0f2e697f28969ab64736f6c63430008180033",
  "linkReferences": {},
  "deployedLinkReferences": {}
}