{
  "_format": "hh-sol-artifact-1",
  "contractName": "ThrustpadStakerFactory",
  "sourceName": "contracts/staking/ThrustpadStakerFactory.sol",
  "abi": [
    {
      "inputs": [],
      "stateMutability": "nonpayable",
      "type": "constructor"
    },
    {
      "inputs": [
        {
          "internalType": "address",
          "name": "owner",
          "type": "address"
        }
      ],
      "name": "OwnableInvalidOwner",
      "type": "error"
    },
    {
      "inputs": [
        {
          "internalType": "address",
          "name": "account",
          "type": "address"
        }
      ],
      "name": "OwnableUnauthorizedAccount",
      "type": "error"
    },
    {
      "anonymous": false,
      "inputs": [
        {
          "indexed": true,
          "internalType": "address",
          "name": "creator",
          "type": "address"
        },
        {
          "indexed": true,
          "internalType": "address",
          "name": "token",
          "type": "address"
        },
        {
          "indexed": true,
          "internalType": "address",
          "name": "staker",
          "type": "address"
        }
      ],
      "name": "NewStaking",
      "type": "event"
    },
    {
      "anonymous": false,
      "inputs": [
        {
          "indexed": true,
          "internalType": "address",
          "name": "previousOwner",
          "type": "address"
        },
        {
          "indexed": true,
          "internalType": "address",
          "name": "newOwner",
          "type": "address"
        }
      ],
      "name": "OwnershipTransferred",
      "type": "event"
    },
    {
      "inputs": [],
      "name": "creationFee",
      "outputs": [
        {
          "internalType": "uint256",
          "name": "",
          "type": "uint256"
        }
      ],
      "stateMutability": "view",
      "type": "function"
    },
    {
      "inputs": [
        {
          "internalType": "address",
          "name": "",
          "type": "address"
        },
        {
          "internalType": "uint256",
          "name": "",
          "type": "uint256"
        }
      ],
      "name": "deployedStakers",
      "outputs": [
        {
          "internalType": "address",
          "name": "",
          "type": "address"
        }
      ],
      "stateMutability": "view",
      "type": "function"
    },
    {
      "inputs": [],
      "name": "feeEarned",
      "outputs": [
        {
          "internalType": "uint256",
          "name": "",
          "type": "uint256"
        }
      ],
      "stateMutability": "view",
      "type": "function"
    },
    {
      "inputs": [
        {
          "internalType": "bytes",
          "name": "bytecode",
          "type": "bytes"
        },
        {
          "internalType": "uint256",
          "name": "salt",
          "type": "uint256"
        }
      ],
      "name": "getAddressCreate2",
      "outputs": [
        {
          "internalType": "address",
          "name": "",
          "type": "address"
        }
      ],
      "stateMutability": "view",
      "type": "function"
    },
    {
      "inputs": [
        {
          "components": [
            {
              "internalType": "address",
              "name": "token",
              "type": "address"
            },
            {
              "internalType": "uint256",
              "name": "startDate",
              "type": "uint256"
            },
            {
              "internalType": "uint256",
              "name": "endDate",
              "type": "uint256"
            },
            {
              "internalType": "uint256",
              "name": "hardCap",
              "type": "uint256"
            },
            {
              "internalType": "uint256",
              "name": "minTokenStake",
              "type": "uint256"
            },
            {
              "internalType": "uint256",
              "name": "apyEdu",
              "type": "uint256"
            },
            {
              "internalType": "uint256",
              "name": "apyToken",
              "type": "uint256"
            },
            {
              "internalType": "uint256",
              "name": "rewardPoolToken",
              "type": "uint256"
            },
            {
              "internalType": "uint256",
              "name": "rewardPoolEDU",
              "type": "uint256"
            },
            {
              "internalType": "uint256",
              "name": "tokenToEDURate",
              "type": "uint256"
            }
          ],
          "internalType": "struct stakeOption",
          "name": "option",
          "type": "tuple"
        },
        {
          "internalType": "address",
          "name": "_owner",
          "type": "address"
        }
      ],
      "name": "getBytecode",
      "outputs": [
        {
          "internalType": "bytes",
          "name": "",
          "type": "bytes"
        }
      ],
      "stateMutability": "pure",
      "type": "function"
    },
    {
      "inputs": [
        {
          "internalType": "address",
          "name": "creator",
          "type": "address"
        }
      ],
      "name": "getdeployedStakers",
      "outputs": [
        {
          "internalType": "address[]",
          "name": "",
          "type": "address[]"
        }
      ],
      "stateMutability": "view",
      "type": "function"
    },
    {
      "inputs": [
        {
          "internalType": "address",
          "name": "creator",
          "type": "address"
        }
      ],
      "name": "getdeployedStakersLen",
      "outputs": [
        {
          "internalType": "uint256",
          "name": "",
          "type": "uint256"
        }
      ],
      "stateMutability": "view",
      "type": "function"
    },
    {
      "inputs": [
        {
          "components": [
            {
              "internalType": "address",
              "name": "token",
              "type": "address"
            },
            {
              "internalType": "uint256",
              "name": "startDate",
              "type": "uint256"
            },
            {
              "internalType": "uint256",
              "name": "endDate",
              "type": "uint256"
            },
            {
              "internalType": "uint256",
              "name": "hardCap",
              "type": "uint256"
            },
            {
              "internalType": "uint256",
              "name": "minTokenStake",
              "type": "uint256"
            },
            {
              "internalType": "uint256",
              "name": "apyEdu",
              "type": "uint256"
            },
            {
              "internalType": "uint256",
              "name": "apyToken",
              "type": "uint256"
            },
            {
              "internalType": "uint256",
              "name": "rewardPoolToken",
              "type": "uint256"
            },
            {
              "internalType": "uint256",
              "name": "rewardPoolEDU",
              "type": "uint256"
            },
            {
              "internalType": "uint256",
              "name": "tokenToEDURate",
              "type": "uint256"
            }
          ],
          "internalType": "struct stakeOption",
          "name": "option",
          "type": "tuple"
        }
      ],
      "name": "newStaker",
      "outputs": [
        {
          "internalType": "address",
          "name": "",
          "type": "address"
        }
      ],
      "stateMutability": "payable",
      "type": "function"
    },
    {
      "inputs": [],
      "name": "owner",
      "outputs": [
        {
          "internalType": "address",
          "name": "",
          "type": "address"
        }
      ],
      "stateMutability": "view",
      "type": "function"
    },
    {
      "inputs": [],
      "name": "renounceOwnership",
      "outputs": [],
      "stateMutability": "nonpayable",
      "type": "function"
    },
    {
      "inputs": [
        {
          "internalType": "address",
          "name": "newOwner",
          "type": "address"
        }
      ],
      "name": "transferOwnership",
      "outputs": [],
      "stateMutability": "nonpayable",
      "type": "function"
    },
    {
      "inputs": [
        {
          "internalType": "uint256",
          "name": "_fee",
          "type": "uint256"
        }
      ],
      "name": "updateCreationFee",
      "outputs": [],
      "stateMutability": "nonpayable",
      "type": "function"
    },
    {
      "inputs": [],
      "name": "withdraw",
      "outputs": [],
      "stateMutability": "nonpayable",
      "type": "function"
    },
    {
      "inputs": [
        {
          "internalType": "address",
          "name": "token",
          "type": "address"
        }
      ],
      "name": "withdrawToken",
      "outputs": [],
      "stateMutability": "nonpayable",
      "type": "function"
    },
    {
      "stateMutability": "payable",
      "type": "receive"
    }
  ],
  "bytecode": "0x6080604052670de0b6b3a76400006002553480156200001d57600080fd5b5033600073ffffffffffffffffffffffffffffffffffffffff168173ffffffffffffffffffffffffffffffffffffffff1603620000945760006040517f1e4fbdf70000000000000000000000000000000000000000000000000000000081526004016200008b9190620001b5565b60405180910390fd5b620000a581620000ac60201b60201c565b50620001d2565b60008060009054906101000a900473ffffffffffffffffffffffffffffffffffffffff169050816000806101000a81548173ffffffffffffffffffffffffffffffffffffffff021916908373ffffffffffffffffffffffffffffffffffffffff1602179055508173ffffffffffffffffffffffffffffffffffffffff168173ffffffffffffffffffffffffffffffffffffffff167f8be0079c531659141344cd1fd0a4f28419497f9722a3daafe3b4186f6b6457e060405160405180910390a35050565b600073ffffffffffffffffffffffffffffffffffffffff82169050919050565b60006200019d8262000170565b9050919050565b620001af8162000190565b82525050565b6000602082019050620001cc6000830184620001a4565b92915050565b6152e380620001e26000396000f3fe608060405260043610620000f75760003560e01c806389476069116200008b578063c763f7a71162000061578063c763f7a7146200030a578063d5f63a06146200034e578063dce0b4e4146200037e578063f2fde38b14620003ae57620000ff565b80638947606914620002685780638da5cb5b14620002965780639f886f2614620002c657620000ff565b806348efb80c11620000cd57806348efb80c14620001a657806357f5994814620001ea5780636fa237951462000220578063715018a6146200024e57620000ff565b80631f07a41e146200010457806337807fd614620001485780633ccfd60b146200018c57620000ff565b36620000ff57005b600080fd5b3480156200011157600080fd5b506200013060048036038101906200012a919062000ee1565b620003dc565b6040516200013f919062000fe1565b60405180910390f35b3480156200015557600080fd5b506200017460048036038101906200016e919062001040565b620004ab565b60405162000183919062001098565b60405180910390f35b3480156200019957600080fd5b50620001a4620004fa565b005b348015620001b357600080fd5b50620001d26004803603810190620001cc91906200125e565b62000557565b604051620001e1919062001330565b60405180910390f35b62000208600480360381019062000202919062001354565b620005d3565b60405162000217919062001098565b60405180910390f35b3480156200022d57600080fd5b506200024c600480360381019062000246919062001387565b62000a60565b005b3480156200025b57600080fd5b506200026662000a74565b005b3480156200027557600080fd5b506200029460048036038101906200028e919062000ee1565b62000a8c565b005b348015620002a357600080fd5b50620002ae62000ba4565b604051620002bd919062001098565b60405180910390f35b348015620002d357600080fd5b50620002f26004803603810190620002ec919062001486565b62000bcd565b60405162000301919062001098565b60405180910390f35b3480156200031757600080fd5b5062000336600480360381019062000330919062000ee1565b62000c19565b604051620003459190620014fd565b60405180910390f35b3480156200035b57600080fd5b506200036662000c65565b604051620003759190620014fd565b60405180910390f35b3480156200038b57600080fd5b506200039662000c6b565b604051620003a59190620014fd565b60405180910390f35b348015620003bb57600080fd5b50620003da6004803603810190620003d4919062000ee1565b62000c71565b005b6060600160008373ffffffffffffffffffffffffffffffffffffffff1673ffffffffffffffffffffffffffffffffffffffff1681526020019081526020016000208054806020026020016040519081016040528092919081815260200182805480156200049f57602002820191906000526020600020905b8160009054906101000a900473ffffffffffffffffffffffffffffffffffffffff1673ffffffffffffffffffffffffffffffffffffffff168152602001906001019080831162000454575b50505050509050919050565b60016020528160005260406000208181548110620004c857600080fd5b906000526020600020016000915091509054906101000a900473ffffffffffffffffffffffffffffffffffffffff1681565b6200050462000cfe565b6200050e62000ba4565b73ffffffffffffffffffffffffffffffffffffffff166108fc479081150290604051600060405180830381858888f1935050505015801562000554573d6000803e3d6000fd5b50565b60606000604051806020016200056d9062000e5a565b6020820181038252601f19601f820116604052509050808484604051602001620005999291906200160b565b604051602081830303815290604052604051602001620005bb9291906200167c565b60405160208183030381529060405291505092915050565b600060028260a00151101562000620576040517f08c379a0000000000000000000000000000000000000000000000000000000008152600401620006179062001705565b60405180910390fd5b60088260c0015110156200066b576040517f08c379a0000000000000000000000000000000000000000000000000000000008152600401620006629062001777565b60405180910390fd5b6012826000015173ffffffffffffffffffffffffffffffffffffffff1663313ce5676040518163ffffffff1660e01b8152600401602060405180830381865afa158015620006bd573d6000803e3d6000fd5b505050506040513d601f19601f82011682018060405250810190620006e39190620017d7565b60ff161462000729576040517f08c379a000000000000000000000000000000000000000000000000000000000815260040162000720906200187f565b60405180910390fd5b600060648360c001518460600151620007439190620018d0565b6200074f91906200194a565b9050600083610120015160648560a001518660600151620007719190620018d0565b6200077d91906200194a565b6200078991906200194a565b9050600254816200079b919062001982565b341015620007e0576040517f08c379a0000000000000000000000000000000000000000000000000000000008152600401620007d79062001a33565b60405180910390fd5b8360e001518210156200082a576040517f08c379a0000000000000000000000000000000000000000000000000000000008152600401620008219062001acb565b60405180910390fd5b600034600160003373ffffffffffffffffffffffffffffffffffffffff1673ffffffffffffffffffffffffffffffffffffffff1681526020019081526020016000208054905060001b908633604051620008849062000e5a565b620008919291906200160b565b82906040518091039083f59050905080158015620008b3573d6000803e3d6000fd5b509050600160003373ffffffffffffffffffffffffffffffffffffffff1673ffffffffffffffffffffffffffffffffffffffff168152602001908152602001600020819080600181540180825580915050600190039060005260206000200160009091909190916101000a81548173ffffffffffffffffffffffffffffffffffffffff021916908373ffffffffffffffffffffffffffffffffffffffff160217905550846000015173ffffffffffffffffffffffffffffffffffffffff166323b872dd33838860e001516040518463ffffffff1660e01b81526004016200099d9392919062001aed565b6020604051808303816000875af1158015620009bd573d6000803e3d6000fd5b505050506040513d601f19601f82011682018060405250810190620009e3919062001b67565b508073ffffffffffffffffffffffffffffffffffffffff168173ffffffffffffffffffffffffffffffffffffffff163373ffffffffffffffffffffffffffffffffffffffff167f99a53d54f4251977744f3244789e0336c21b251d2bc5c8142b38e7b614d6a32260405160405180910390a4809350505050919050565b62000a6a62000cfe565b8060028190555050565b62000a7e62000cfe565b62000a8a600062000d8e565b565b62000a9662000cfe565b8073ffffffffffffffffffffffffffffffffffffffff1663a9059cbb62000abc62000ba4565b8373ffffffffffffffffffffffffffffffffffffffff166370a08231306040518263ffffffff1660e01b815260040162000af7919062001098565b602060405180830381865afa15801562000b15573d6000803e3d6000fd5b505050506040513d601f19601f8201168201806040525081019062000b3b919062001bb0565b6040518363ffffffff1660e01b815260040162000b5a92919062001be2565b6020604051808303816000875af115801562000b7a573d6000803e3d6000fd5b505050506040513d601f19601f8201168201806040525081019062000ba0919062001b67565b5050565b60008060009054906101000a900473ffffffffffffffffffffffffffffffffffffffff16905090565b60008060ff60f81b3084868051906020012060405160200162000bf4949392919062001d04565b6040516020818303038152906040528051906020012090508060001c91505092915050565b6000600160008373ffffffffffffffffffffffffffffffffffffffff1673ffffffffffffffffffffffffffffffffffffffff168152602001908152602001600020805490509050919050565b60035481565b60025481565b62000c7b62000cfe565b600073ffffffffffffffffffffffffffffffffffffffff168173ffffffffffffffffffffffffffffffffffffffff160362000cf05760006040517f1e4fbdf700000000000000000000000000000000000000000000000000000000815260040162000ce7919062001098565b60405180910390fd5b62000cfb8162000d8e565b50565b62000d0862000e52565b73ffffffffffffffffffffffffffffffffffffffff1662000d2862000ba4565b73ffffffffffffffffffffffffffffffffffffffff161462000d8c5762000d4e62000e52565b6040517f118cdaa700000000000000000000000000000000000000000000000000000000815260040162000d83919062001098565b60405180910390fd5b565b60008060009054906101000a900473ffffffffffffffffffffffffffffffffffffffff169050816000806101000a81548173ffffffffffffffffffffffffffffffffffffffff021916908373ffffffffffffffffffffffffffffffffffffffff1602179055508173ffffffffffffffffffffffffffffffffffffffff168173ffffffffffffffffffffffffffffffffffffffff167f8be0079c531659141344cd1fd0a4f28419497f9722a3daafe3b4186f6b6457e060405160405180910390a35050565b600033905090565b6135538062001d5b83390190565b6000604051905090565b600080fd5b600080fd5b600073ffffffffffffffffffffffffffffffffffffffff82169050919050565b600062000ea98262000e7c565b9050919050565b62000ebb8162000e9c565b811462000ec757600080fd5b50565b60008135905062000edb8162000eb0565b92915050565b60006020828403121562000efa5762000ef962000e72565b5b600062000f0a8482850162000eca565b91505092915050565b600081519050919050565b600082825260208201905092915050565b6000819050602082019050919050565b62000f4a8162000e9c565b82525050565b600062000f5e838362000f3f565b60208301905092915050565b6000602082019050919050565b600062000f848262000f13565b62000f90818562000f1e565b935062000f9d8362000f2f565b8060005b8381101562000fd457815162000fb8888262000f50565b975062000fc58362000f6a565b92505060018101905062000fa1565b5085935050505092915050565b6000602082019050818103600083015262000ffd818462000f77565b905092915050565b6000819050919050565b6200101a8162001005565b81146200102657600080fd5b50565b6000813590506200103a816200100f565b92915050565b600080604083850312156200105a576200105962000e72565b5b60006200106a8582860162000eca565b92505060206200107d8582860162001029565b9150509250929050565b620010928162000e9c565b82525050565b6000602082019050620010af600083018462001087565b92915050565b600080fd5b6000601f19601f8301169050919050565b7f4e487b7100000000000000000000000000000000000000000000000000000000600052604160045260246000fd5b6200110582620010ba565b810181811067ffffffffffffffff82111715620011275762001126620010cb565b5b80604052505050565b60006200113c62000e68565b90506200114a8282620010fa565b919050565b60006101408284031215620011695762001168620010b5565b5b6200117661014062001130565b90506000620011888482850162000eca565b60008301525060206200119e8482850162001029565b6020830152506040620011b48482850162001029565b6040830152506060620011ca8482850162001029565b6060830152506080620011e08482850162001029565b60808301525060a0620011f68482850162001029565b60a08301525060c06200120c8482850162001029565b60c08301525060e0620012228482850162001029565b60e083015250610100620012398482850162001029565b61010083015250610120620012518482850162001029565b6101208301525092915050565b600080610160838503121562001279576200127862000e72565b5b600062001289858286016200114f565b9250506101406200129d8582860162000eca565b9150509250929050565b600081519050919050565b600082825260208201905092915050565b60005b83811015620012e3578082015181840152602081019050620012c6565b60008484015250505050565b6000620012fc82620012a7565b620013088185620012b2565b93506200131a818560208601620012c3565b6200132581620010ba565b840191505092915050565b600060208201905081810360008301526200134c8184620012ef565b905092915050565b600061014082840312156200136e576200136d62000e72565b5b60006200137e848285016200114f565b91505092915050565b600060208284031215620013a0576200139f62000e72565b5b6000620013b08482850162001029565b91505092915050565b600080fd5b600080fd5b600067ffffffffffffffff821115620013e157620013e0620010cb565b5b620013ec82620010ba565b9050602081019050919050565b82818337600083830152505050565b60006200141f6200141984620013c3565b62001130565b9050828152602081018484840111156200143e576200143d620013be565b5b6200144b848285620013f9565b509392505050565b600082601f8301126200146b576200146a620013b9565b5b81356200147d84826020860162001408565b91505092915050565b60008060408385031215620014a0576200149f62000e72565b5b600083013567ffffffffffffffff811115620014c157620014c062000e77565b5b620014cf8582860162001453565b9250506020620014e28582860162001029565b9150509250929050565b620014f78162001005565b82525050565b6000602082019050620015146000830184620014ec565b92915050565b620015258162001005565b82525050565b6101408201600082015162001544600085018262000f3f565b5060208201516200155960208501826200151a565b5060408201516200156e60408501826200151a565b5060608201516200158360608501826200151a565b5060808201516200159860808501826200151a565b5060a0820151620015ad60a08501826200151a565b5060c0820151620015c260c08501826200151a565b5060e0820151620015d760e08501826200151a565b50610100820151620015ee6101008501826200151a565b50610120820151620016056101208501826200151a565b50505050565b6000610160820190506200162360008301856200152b565b6200163361014083018462001087565b9392505050565b600081905092915050565b60006200165282620012a7565b6200165e81856200163a565b935062001670818560208601620012c3565b80840191505092915050565b60006200168a828562001645565b915062001698828462001645565b91508190509392505050565b600082825260208201905092915050565b7f41505920454455206d7573742062652067726561746572207468616e20320000600082015250565b6000620016ed601e83620016a4565b9150620016fa82620016b5565b602082019050919050565b600060208201905081810360008301526200172081620016de565b9050919050565b7f41505920546f6b656e206d7573742062652067726561746572207468616e2038600082015250565b60006200175f602083620016a4565b91506200176c8262001727565b602082019050919050565b60006020820190508181036000830152620017928162001750565b9050919050565b600060ff82169050919050565b620017b18162001799565b8114620017bd57600080fd5b50565b600081519050620017d181620017a6565b92915050565b600060208284031215620017f057620017ef62000e72565b5b60006200180084828501620017c0565b91505092915050565b7f5468727573747061645374616b6572466163746f72793a20746f6b656e206d7560008201527f7374206861766520313820646563696d616c7300000000000000000000000000602082015250565b600062001867603383620016a4565b9150620018748262001809565b604082019050919050565b600060208201905081810360008301526200189a8162001858565b9050919050565b7f4e487b7100000000000000000000000000000000000000000000000000000000600052601160045260246000fd5b6000620018dd8262001005565b9150620018ea8362001005565b9250828202620018fa8162001005565b91508282048414831517620019145762001913620018a1565b5b5092915050565b7f4e487b7100000000000000000000000000000000000000000000000000000000600052601260045260246000fd5b6000620019578262001005565b9150620019648362001005565b9250826200197757620019766200191b565b5b828204905092915050565b60006200198f8262001005565b91506200199c8362001005565b9250828201905080821115620019b757620019b6620018a1565b5b92915050565b7f454455206465706f73697420746f20636f766572207969656c6473207061796f60008201527f757420616e642046656573206e6f7420656e6f75676800000000000000000000602082015250565b600062001a1b603683620016a4565b915062001a2882620019bd565b604082019050919050565b6000602082019050818103600083015262001a4e8162001a0c565b9050919050565b7f4465706f73697420746f6b656e7320746f20636f766572207969656c6473207060008201527f61796f7574206e6f7420656e6f75676800000000000000000000000000000000602082015250565b600062001ab3603083620016a4565b915062001ac08262001a55565b604082019050919050565b6000602082019050818103600083015262001ae68162001aa4565b9050919050565b600060608201905062001b04600083018662001087565b62001b13602083018562001087565b62001b226040830184620014ec565b949350505050565b60008115159050919050565b62001b418162001b2a565b811462001b4d57600080fd5b50565b60008151905062001b618162001b36565b92915050565b60006020828403121562001b805762001b7f62000e72565b5b600062001b908482850162001b50565b91505092915050565b60008151905062001baa816200100f565b92915050565b60006020828403121562001bc95762001bc862000e72565b5b600062001bd98482850162001b99565b91505092915050565b600060408201905062001bf9600083018562001087565b62001c086020830184620014ec565b9392505050565b60007fff0000000000000000000000000000000000000000000000000000000000000082169050919050565b6000819050919050565b62001c5a62001c548262001c0f565b62001c3b565b82525050565b60008160601b9050919050565b600062001c7a8262001c60565b9050919050565b600062001c8e8262001c6d565b9050919050565b62001caa62001ca48262000e9c565b62001c81565b82525050565b6000819050919050565b62001ccf62001cc98262001005565b62001cb0565b82525050565b6000819050919050565b6000819050919050565b62001cfe62001cf88262001cd5565b62001cdf565b82525050565b600062001d12828762001c45565b60018201915062001d24828662001c95565b60148201915062001d36828562001cba565b60208201915062001d48828462001ce9565b6020820191508190509594505050505056fe608060405260405162003553380380620035538339818101604052810190620000299190620004e4565b80600073ffffffffffffffffffffffffffffffffffffffff168173ffffffffffffffffffffffffffffffffffffffff16036200009f5760006040517f1e4fbdf70000000000000000000000000000000000000000000000000000000081526004016200009691906200053e565b60405180910390fd5b620000b081620001c860201b60201c565b5060008060146101000a81548160ff0219169083151502179055506001808190555081600960008201518160000160006101000a81548173ffffffffffffffffffffffffffffffffffffffff021916908373ffffffffffffffffffffffffffffffffffffffff1602179055506020820151816001015560408201518160020155606082015181600301556080820151816004015560a0820151816005015560c0820151816006015560e08201518160070155610100820151816008015561012082015181600901559050508160000151600260006101000a81548173ffffffffffffffffffffffffffffffffffffffff021916908373ffffffffffffffffffffffffffffffffffffffff16021790555050506200055b565b60008060009054906101000a900473ffffffffffffffffffffffffffffffffffffffff169050816000806101000a81548173ffffffffffffffffffffffffffffffffffffffff021916908373ffffffffffffffffffffffffffffffffffffffff1602179055508173ffffffffffffffffffffffffffffffffffffffff168173ffffffffffffffffffffffffffffffffffffffff167f8be0079c531659141344cd1fd0a4f28419497f9722a3daafe3b4186f6b6457e060405160405180910390a35050565b6000604051905090565b600080fd5b600080fd5b6000601f19601f8301169050919050565b7f4e487b7100000000000000000000000000000000000000000000000000000000600052604160045260246000fd5b620002eb82620002a0565b810181811067ffffffffffffffff821117156200030d576200030c620002b1565b5b80604052505050565b6000620003226200028c565b9050620003308282620002e0565b919050565b600073ffffffffffffffffffffffffffffffffffffffff82169050919050565b6000620003628262000335565b9050919050565b620003748162000355565b81146200038057600080fd5b50565b600081519050620003948162000369565b92915050565b6000819050919050565b620003af816200039a565b8114620003bb57600080fd5b50565b600081519050620003cf81620003a4565b92915050565b60006101408284031215620003ef57620003ee6200029b565b5b620003fc61014062000316565b905060006200040e8482850162000383565b60008301525060206200042484828501620003be565b60208301525060406200043a84828501620003be565b60408301525060606200045084828501620003be565b60608301525060806200046684828501620003be565b60808301525060a06200047c84828501620003be565b60a08301525060c06200049284828501620003be565b60c08301525060e0620004a884828501620003be565b60e083015250610100620004bf84828501620003be565b61010083015250610120620004d784828501620003be565b6101208301525092915050565b6000806101608385031215620004ff57620004fe62000296565b5b60006200050f85828601620003d5565b925050610140620005238582860162000383565b9150509250929050565b620005388162000355565b82525050565b60006020820190506200055560008301846200052d565b92915050565b612fe8806200056b6000396000f3fe60806040526004361061012e5760003560e01c8063756af45f116100ab5780638da5cb5b1161006f5780638da5cb5b146103c2578063b5d5b5fa146103ed578063bf9befb11461042a578063d216b0af14610455578063f2fde38b1461047e578063fc0c546a146104a757610135565b8063756af45f146102ea57806378bc1d3b146103135780637ba6f45814610343578063817b1cd2146103805780638456cb59146103ab57610135565b80633f4ba83a116100f25780633f4ba83a14610228578063423362021461023f57806348a887061461026a5780635c975abb146102a8578063715018a6146102d357610135565b8063010035af1461013a5780631303d4fb1461016e5780632e17de7814610197578063308e401e146101c05780633ebbcd80146101fd57610135565b3661013557005b600080fd5b34801561014657600080fd5b5061014f6104d2565b6040516101659a9998979695949392919061220a565b60405180910390f35b34801561017a57600080fd5b50610195600480360381019061019091906122d7565b610534565b005b3480156101a357600080fd5b506101be60048036038101906101b991906122d7565b6109f7565b005b3480156101cc57600080fd5b506101e760048036038101906101e29190612330565b610cfc565b6040516101f4919061245d565b60405180910390f35b34801561020957600080fd5b50610212610fdb565b60405161021f919061247f565b60405180910390f35b34801561023457600080fd5b5061023d610fe1565b005b34801561024b57600080fd5b50610254610ff3565b604051610261919061247f565b60405180910390f35b34801561027657600080fd5b50610291600480360381019061028c919061249a565b610ff9565b60405161029f9291906124da565b60405180910390f35b3480156102b457600080fd5b506102bd6110c4565b6040516102ca919061251e565b60405180910390f35b3480156102df57600080fd5b506102e86110da565b005b3480156102f657600080fd5b50610311600480360381019061030c9190612330565b6110ee565b005b61032d6004803603810190610328919061255e565b611365565b60405161033a919061247f565b60405180910390f35b34801561034f57600080fd5b5061036a60048036038101906103659190612330565b611502565b60405161037791906127a1565b60405180910390f35b34801561038c57600080fd5b5061039561176c565b6040516103a2919061247f565b60405180910390f35b3480156103b757600080fd5b506103c0611772565b005b3480156103ce57600080fd5b506103d7611784565b6040516103e491906127c3565b60405180910390f35b3480156103f957600080fd5b50610414600480360381019061040f91906127de565b6117ad565b604051610421919061247f565b60405180910390f35b34801561043657600080fd5b5061043f6117de565b60405161044c919061247f565b60405180910390f35b34801561046157600080fd5b5061047c600480360381019061047791906122d7565b6117e4565b005b34801561048a57600080fd5b506104a560048036038101906104a09190612330565b611830565b005b3480156104b357600080fd5b506104bc6118b6565b6040516104c9919061287d565b60405180910390f35b60098060000160009054906101000a900473ffffffffffffffffffffffffffffffffffffffff1690806001015490806002015490806003015490806004015490806005015490806006015490806007015490806008015490806009015490508a565b61053c6118dc565b610544611922565b3373ffffffffffffffffffffffffffffffffffffffff166004828154811061056f5761056e612898565b5b90600052602060002090600e0201600a0160009054906101000a900473ffffffffffffffffffffffffffffffffffffffff1673ffffffffffffffffffffffffffffffffffffffff16146105f7576040517f08c379a00000000000000000000000000000000000000000000000000000000081526004016105ee90612924565b60405180910390fd5b426009600101541061063e576040517f08c379a000000000000000000000000000000000000000000000000000000000815260040161063590612990565b60405180910390fd5b60006004828154811061065457610653612898565b5b90600052602060002090600e0201905080600a0160149054906101000a900460ff16156106b6576040517f08c379a00000000000000000000000000000000000000000000000000000000081526004016106ad906129fc565b60405180910390fd5b60006107c182604051806101e001604052908160008201548152602001600182015481526020016002820154815260200160038201548152602001600482015481526020016005820154815260200160068201548152602001600782015481526020016008820154815260200160098201548152602001600a820160009054906101000a900473ffffffffffffffffffffffffffffffffffffffff1673ffffffffffffffffffffffffffffffffffffffff1673ffffffffffffffffffffffffffffffffffffffff168152602001600a820160149054906101000a900460ff16151515158152602001600b8201548152602001600c8201548152602001600d8201548152505084611963565b90506000816000015111806107da575060008160200151115b610819576040517f08c379a000000000000000000000000000000000000000000000000000000000815260040161081090612a68565b60405180910390fd5b60008160000151905060008260200151905082600001518460060160008282546108439190612ab7565b9250508190555082602001518460070160008282546108629190612ab7565b925050819055504284600d01819055503373ffffffffffffffffffffffffffffffffffffffff166108fc839081150290604051600060405180830381858888f193505050501580156108b8573d6000803e3d6000fd5b50600260009054906101000a900473ffffffffffffffffffffffffffffffffffffffff1673ffffffffffffffffffffffffffffffffffffffff1663a9059cbb33836040518363ffffffff1660e01b8152600401610916929190612aeb565b6020604051808303816000875af1158015610935573d6000803e3d6000fd5b505050506040513d601f19601f820116820180604052508101906109599190612b40565b610998576040517f08c379a000000000000000000000000000000000000000000000000000000000815260040161098f90612bb9565b60405180910390fd5b3373ffffffffffffffffffffffffffffffffffffffff167f70de20a533702af05c8faf1637846c4586a021bbc71b6928b089b6d555e4fbc283836040516109e09291906124da565b60405180910390a2505050506109f4611a73565b50565b6109ff6118dc565b610a07611922565b600060048281548110610a1d57610a1c612898565b5b90600052602060002090600e0201905080600a0160149054906101000a900460ff1615610a7f576040517f08c379a0000000000000000000000000000000000000000000000000000000008152600401610a76906129fc565b60405180910390fd5b42816002015410610ac5576040517f08c379a0000000000000000000000000000000000000000000000000000000008152600401610abc90612c25565b60405180910390fd5b3373ffffffffffffffffffffffffffffffffffffffff1681600a0160009054906101000a900473ffffffffffffffffffffffffffffffffffffffff1673ffffffffffffffffffffffffffffffffffffffff1614610b57576040517f08c379a0000000000000000000000000000000000000000000000000000000008152600401610b4e90612924565b60405180910390fd5b600181600a0160146101000a81548160ff021916908315150217905550806000015460056000828254610b8a9190612c45565b92505081905550600260009054906101000a900473ffffffffffffffffffffffffffffffffffffffff1673ffffffffffffffffffffffffffffffffffffffff1663a9059cbb3383600001546040518363ffffffff1660e01b8152600401610bf2929190612aeb565b6020604051808303816000875af1158015610c11573d6000803e3d6000fd5b505050506040513d601f19601f82011682018060405250810190610c359190612b40565b610c74576040517f08c379a0000000000000000000000000000000000000000000000000000000008152600401610c6b90612bb9565b60405180910390fd5b3373ffffffffffffffffffffffffffffffffffffffff167f204fccf0d92ed8d48f204adb39b2e81e92bad0dedb93f5716ca9478cfb57de00826000015483600601548460030154610cc59190612c45565b84600701548560040154610cd99190612c45565b604051610ce893929190612c79565b60405180910390a250610cf9611a73565b50565b60606000600360008473ffffffffffffffffffffffffffffffffffffffff1673ffffffffffffffffffffffffffffffffffffffff168152602001908152602001600020805480602002602001604051908101604052809291908181526020018280548015610d8957602002820191906000526020600020905b815481526020019060010190808311610d75575b50505050509050805167ffffffffffffffff811115610dab57610daa612cb0565b5b604051908082528060200260200182016040528015610de457816020015b610dd1612101565b815260200190600190039081610dc95790505b50915060005b8151811015610fd4576004828281518110610e0857610e07612898565b5b602002602001015181548110610e2157610e20612898565b5b90600052602060002090600e0201600a0160149054906101000a900460ff16610fc75760006004838381518110610e5b57610e5a612898565b5b602002602001015181548110610e7457610e73612898565b5b90600052602060002090600e0201604051806101e001604052908160008201548152602001600182015481526020016002820154815260200160038201548152602001600482015481526020016005820154815260200160068201548152602001600782015481526020016008820154815260200160098201548152602001600a820160009054906101000a900473ffffffffffffffffffffffffffffffffffffffff1673ffffffffffffffffffffffffffffffffffffffff1673ffffffffffffffffffffffffffffffffffffffff168152602001600a820160149054906101000a900460ff16151515158152602001600b8201548152602001600c8201548152602001600d820154815250509050610fa781848481518110610f9a57610f99612898565b5b6020026020010151611963565b848381518110610fba57610fb9612898565b5b6020026020010181905250505b8080600101915050610dea565b5050919050565b60065481565b610fe9611a7c565b610ff1611b03565b565b60075481565b60008060006103e8905060006301e13380858360096005015461101c9190612cdf565b6110269190612cdf565b6110309190612d50565b905060006301e13380868460096006015461104b9190612cdf565b6110559190612cdf565b61105f9190612d50565b905082606482896110709190612cdf565b61107a9190612d50565b6110849190612d50565b93506009800154836064848a61109a9190612cdf565b6110a49190612d50565b6110ae9190612d50565b6110b89190612d50565b94505050509250929050565b60008060149054906101000a900460ff16905090565b6110e2611a7c565b6110ec6000611b65565b565b6110f6611a7c565b6276a70060096002015461110a9190612ab7565b42101561114c576040517f08c379a000000000000000000000000000000000000000000000000000000000815260040161114390612dcd565b60405180910390fd5b60006006546009600801546111619190612c45565b905060006007546009600701546111789190612c45565b9050814711156111ca578273ffffffffffffffffffffffffffffffffffffffff166108fc839081150290604051600060405180830381858888f193505050501580156111c8573d6000803e3d6000fd5b505b80600554600960000160009054906101000a900473ffffffffffffffffffffffffffffffffffffffff1673ffffffffffffffffffffffffffffffffffffffff166370a08231306040518263ffffffff1660e01b815260040161122c91906127c3565b602060405180830381865afa158015611249573d6000803e3d6000fd5b505050506040513d601f19601f8201168201806040525081019061126d9190612e02565b6112779190612c45565b111561136057600960000160009054906101000a900473ffffffffffffffffffffffffffffffffffffffff1673ffffffffffffffffffffffffffffffffffffffff1663a9059cbb84836040518363ffffffff1660e01b81526004016112dd929190612aeb565b6020604051808303816000875af11580156112fc573d6000803e3d6000fd5b505050506040513d601f19601f820116820180604052508101906113209190612b40565b61135f576040517f08c379a000000000000000000000000000000000000000000000000000000000815260040161135690612bb9565b60405180910390fd5b5b505050565b600061136f6118dc565b611377611922565b6009600101544210156113bf576040517f08c379a00000000000000000000000000000000000000000000000000000000081526004016113b690612990565b60405180910390fd5b600960020154421115611407576040517f08c379a00000000000000000000000000000000000000000000000000000000081526004016113fe90612e7b565b60405180910390fd5b600260009054906101000a900473ffffffffffffffffffffffffffffffffffffffff1673ffffffffffffffffffffffffffffffffffffffff166323b872dd3330866040518463ffffffff1660e01b815260040161146693929190612e9b565b6020604051808303816000875af1158015611485573d6000803e3d6000fd5b505050506040513d601f19601f820116820180604052508101906114a99190612b40565b6114e8576040517f08c379a00000000000000000000000000000000000000000000000000000000081526004016114df90612bb9565b60405180910390fd5b6114f28383611c29565b90506114fc611a73565b92915050565b60606000600360008473ffffffffffffffffffffffffffffffffffffffff1673ffffffffffffffffffffffffffffffffffffffff16815260200190815260200160002080548060200260200160405190810160405280929190818152602001828054801561158f57602002820191906000526020600020905b81548152602001906001019080831161157b575b505050505090506000815167ffffffffffffffff8111156115b3576115b2612cb0565b5b6040519080825280602002602001820160405280156115ec57816020015b6115d9612122565b8152602001906001900390816115d15790505b50905060005b82518110156117615760048382815181106116105761160f612898565b5b60200260200101518154811061162957611628612898565b5b90600052602060002090600e0201604051806101e001604052908160008201548152602001600182015481526020016002820154815260200160038201548152602001600482015481526020016005820154815260200160068201548152602001600782015481526020016008820154815260200160098201548152602001600a820160009054906101000a900473ffffffffffffffffffffffffffffffffffffffff1673ffffffffffffffffffffffffffffffffffffffff1673ffffffffffffffffffffffffffffffffffffffff168152602001600a820160149054906101000a900460ff16151515158152602001600b8201548152602001600c8201548152602001600d8201548152505082828151811061174957611748612898565b5b602002602001018190525080806001019150506115f2565b508092505050919050565b60055481565b61177a611a7c565b611782611f74565b565b60008060009054906101000a900473ffffffffffffffffffffffffffffffffffffffff16905090565b600360205281600052604060002081815481106117c957600080fd5b90600052602060002001600091509150505481565b60085481565b6117ec611a7c565b806009600401819055507ff4045d7dd317de89564c3f12c35961242ed2a4dce3ae4e7a75847ffa04bb083481604051611825919061247f565b60405180910390a150565b611838611a7c565b600073ffffffffffffffffffffffffffffffffffffffff168173ffffffffffffffffffffffffffffffffffffffff16036118aa5760006040517f1e4fbdf70000000000000000000000000000000000000000000000000000000081526004016118a191906127c3565b60405180910390fd5b6118b381611b65565b50565b600260009054906101000a900473ffffffffffffffffffffffffffffffffffffffff1681565b600260015403611918576040517f3ee5aeb500000000000000000000000000000000000000000000000000000000815260040160405180910390fd5b6002600181905550565b61192a6110c4565b15611961576040517fd93c066500000000000000000000000000000000000000000000000000000000815260040160405180910390fd5b565b61196b612101565b60006103e890506000846101c00151426119859190612c45565b905060006301e1338082848861018001516119a09190612cdf565b6119aa9190612cdf565b6119b49190612d50565b905060006301e133808385896101a001516119cf9190612cdf565b6119d99190612cdf565b6119e39190612d50565b905060006009800154856064858b600001516119ff9190612cdf565b611a099190612d50565b611a139190612d50565b611a1d9190612d50565b90506000856064848b60000151611a349190612cdf565b611a3e9190612d50565b611a489190612d50565b9050604051806060016040528083815260200182815260200189815250965050505050505092915050565b60018081905550565b611a84611fd7565b73ffffffffffffffffffffffffffffffffffffffff16611aa2611784565b73ffffffffffffffffffffffffffffffffffffffff1614611b0157611ac5611fd7565b6040517f118cdaa7000000000000000000000000000000000000000000000000000000008152600401611af891906127c3565b60405180910390fd5b565b611b0b611fdf565b60008060146101000a81548160ff0219169083151502179055507f5db9ee0a495bf2e6ff9c91a7834c1ba4fdd244a5e8aa4e537bd38aeae4b073aa611b4e611fd7565b604051611b5b91906127c3565b60405180910390a1565b60008060009054906101000a900473ffffffffffffffffffffffffffffffffffffffff169050816000806101000a81548173ffffffffffffffffffffffffffffffffffffffff021916908373ffffffffffffffffffffffffffffffffffffffff1602179055508173ffffffffffffffffffffffffffffffffffffffff168173ffffffffffffffffffffffffffffffffffffffff167f8be0079c531659141344cd1fd0a4f28419497f9722a3daafe3b4186f6b6457e060405160405180910390a35050565b6000600960040154831015611c73576040517f08c379a0000000000000000000000000000000000000000000000000000000008152600401611c6a90612f1e565b60405180910390fd5b6000611c7e8361201f565b9050600080611c8d8684610ff9565b9150915060048054905093506004604051806101e001604052808881526020014281526020018542611cbf9190612ab7565b8152602001848152602001838152602001858152602001600081526020016000815260200160008152602001600081526020013373ffffffffffffffffffffffffffffffffffffffff168152602001600015158152602001600960050154815260200160096006015481526020014281525090806001815401808255809150506001900390600052602060002090600e0201600090919091909150600082015181600001556020820151816001015560408201518160020155606082015181600301556080820151816004015560a0820151816005015560c0820151816006015560e082015181600701556101008201518160080155610120820151816009015561014082015181600a0160006101000a81548173ffffffffffffffffffffffffffffffffffffffff021916908373ffffffffffffffffffffffffffffffffffffffff16021790555061016082015181600a0160146101000a81548160ff02191690831515021790555061018082015181600b01556101a082015181600c01556101c082015181600d01555050600360003373ffffffffffffffffffffffffffffffffffffffff1673ffffffffffffffffffffffffffffffffffffffff1681526020019081526020016000208490806001815401808255809150506001900390600052602060002001600090919091909150558560056000828254611ec49190612ab7565b925050819055508160066000828254611edd9190612ab7565b925050819055508060076000828254611ef69190612ab7565b92505081905550600160086000828254611f109190612ab7565b925050819055503373ffffffffffffffffffffffffffffffffffffffff167f9cfd25589d1eb8ad71e342a86a8524e83522e3936c0803048c08f6d9ad974f4087858585604051611f639493929190612f3e565b60405180910390a250505092915050565b611f7c611922565b6001600060146101000a81548160ff0219169083151502179055507f62e78cea01bee320cd4e420270b5ea74000d11b0c9f74754ebdbfc544b05a258611fc0611fd7565b604051611fcd91906127c3565b60405180910390a1565b600033905090565b611fe76110c4565b61201d576040517f8dfc202b00000000000000000000000000000000000000000000000000000000815260040160405180910390fd5b565b600080600381111561203457612033612f83565b5b82600381111561204757612046612f83565b5b036120575762278d0090506120fc565b6001600381111561206b5761206a612f83565b5b82600381111561207e5761207d612f83565b5b0361208e57623b538090506120fc565b600260038111156120a2576120a1612f83565b5b8260038111156120b5576120b4612f83565b5b036120c557624f1a0090506120fc565b6003808111156120d8576120d7612f83565b5b8260038111156120eb576120ea612f83565b5b036120fb576276a70090506120fc565b5b919050565b60405180606001604052806000815260200160008152602001600081525090565b604051806101e0016040528060008152602001600081526020016000815260200160008152602001600081526020016000815260200160008152602001600081526020016000815260200160008152602001600073ffffffffffffffffffffffffffffffffffffffff1681526020016000151581526020016000815260200160008152602001600081525090565b600073ffffffffffffffffffffffffffffffffffffffff82169050919050565b60006121db826121b0565b9050919050565b6121eb816121d0565b82525050565b6000819050919050565b612204816121f1565b82525050565b600061014082019050612220600083018d6121e2565b61222d602083018c6121fb565b61223a604083018b6121fb565b612247606083018a6121fb565b61225460808301896121fb565b61226160a08301886121fb565b61226e60c08301876121fb565b61227b60e08301866121fb565b6122896101008301856121fb565b6122976101208301846121fb565b9b9a5050505050505050505050565b600080fd5b6122b4816121f1565b81146122bf57600080fd5b50565b6000813590506122d1816122ab565b92915050565b6000602082840312156122ed576122ec6122a6565b5b60006122fb848285016122c2565b91505092915050565b61230d816121d0565b811461231857600080fd5b50565b60008135905061232a81612304565b92915050565b600060208284031215612346576123456122a6565b5b60006123548482850161231b565b91505092915050565b600081519050919050565b600082825260208201905092915050565b6000819050602082019050919050565b612392816121f1565b82525050565b6060820160008201516123ae6000850182612389565b5060208201516123c16020850182612389565b5060408201516123d46040850182612389565b50505050565b60006123e68383612398565b60608301905092915050565b6000602082019050919050565b600061240a8261235d565b6124148185612368565b935061241f83612379565b8060005b8381101561245057815161243788826123da565b9750612442836123f2565b925050600181019050612423565b5085935050505092915050565b6000602082019050818103600083015261247781846123ff565b905092915050565b600060208201905061249460008301846121fb565b92915050565b600080604083850312156124b1576124b06122a6565b5b60006124bf858286016122c2565b92505060206124d0858286016122c2565b9150509250929050565b60006040820190506124ef60008301856121fb565b6124fc60208301846121fb565b9392505050565b60008115159050919050565b61251881612503565b82525050565b6000602082019050612533600083018461250f565b92915050565b6004811061254657600080fd5b50565b60008135905061255881612539565b92915050565b60008060408385031215612575576125746122a6565b5b6000612583858286016122c2565b925050602061259485828601612549565b9150509250929050565b600081519050919050565b600082825260208201905092915050565b6000819050602082019050919050565b6125d3816121d0565b82525050565b6125e281612503565b82525050565b6101e0820160008201516125ff6000850182612389565b5060208201516126126020850182612389565b5060408201516126256040850182612389565b5060608201516126386060850182612389565b50608082015161264b6080850182612389565b5060a082015161265e60a0850182612389565b5060c082015161267160c0850182612389565b5060e082015161268460e0850182612389565b50610100820151612699610100850182612389565b506101208201516126ae610120850182612389565b506101408201516126c36101408501826125ca565b506101608201516126d86101608501826125d9565b506101808201516126ed610180850182612389565b506101a08201516127026101a0850182612389565b506101c08201516127176101c0850182612389565b50505050565b600061272983836125e8565b6101e08301905092915050565b6000602082019050919050565b600061274e8261259e565b61275881856125a9565b9350612763836125ba565b8060005b8381101561279457815161277b888261271d565b975061278683612736565b925050600181019050612767565b5085935050505092915050565b600060208201905081810360008301526127bb8184612743565b905092915050565b60006020820190506127d860008301846121e2565b92915050565b600080604083850312156127f5576127f46122a6565b5b60006128038582860161231b565b9250506020612814858286016122c2565b9150509250929050565b6000819050919050565b600061284361283e612839846121b0565b61281e565b6121b0565b9050919050565b600061285582612828565b9050919050565b60006128678261284a565b9050919050565b6128778161285c565b82525050565b6000602082019050612892600083018461286e565b92915050565b7f4e487b7100000000000000000000000000000000000000000000000000000000600052603260045260246000fd5b600082825260208201905092915050565b7f4e6f74206f776e65720000000000000000000000000000000000000000000000600082015250565b600061290e6009836128c7565b9150612919826128d8565b602082019050919050565b6000602082019050818103600083015261293d81612901565b9050919050565b7f5374616b696e67206e6f74207374617274656400000000000000000000000000600082015250565b600061297a6013836128c7565b915061298582612944565b602082019050919050565b600060208201905081810360008301526129a98161296d565b9050919050565b7f416c726561647920756e7374616b656400000000000000000000000000000000600082015250565b60006129e66010836128c7565b91506129f1826129b0565b602082019050919050565b60006020820190508181036000830152612a15816129d9565b9050919050565b7f4e6f207265776172647320746f20636c61696d00000000000000000000000000600082015250565b6000612a526013836128c7565b9150612a5d82612a1c565b602082019050919050565b60006020820190508181036000830152612a8181612a45565b9050919050565b7f4e487b7100000000000000000000000000000000000000000000000000000000600052601160045260246000fd5b6000612ac2826121f1565b9150612acd836121f1565b9250828201905080821115612ae557612ae4612a88565b5b92915050565b6000604082019050612b0060008301856121e2565b612b0d60208301846121fb565b9392505050565b612b1d81612503565b8114612b2857600080fd5b50565b600081519050612b3a81612b14565b92915050565b600060208284031215612b5657612b556122a6565b5b6000612b6484828501612b2b565b91505092915050565b7f5472616e73666572206661696c65640000000000000000000000000000000000600082015250565b6000612ba3600f836128c7565b9150612bae82612b6d565b602082019050919050565b60006020820190508181036000830152612bd281612b96565b9050919050565b7f5374616b65206e6f74206d617475726564000000000000000000000000000000600082015250565b6000612c0f6011836128c7565b9150612c1a82612bd9565b602082019050919050565b60006020820190508181036000830152612c3e81612c02565b9050919050565b6000612c50826121f1565b9150612c5b836121f1565b9250828203905081811115612c7357612c72612a88565b5b92915050565b6000606082019050612c8e60008301866121fb565b612c9b60208301856121fb565b612ca860408301846121fb565b949350505050565b7f4e487b7100000000000000000000000000000000000000000000000000000000600052604160045260246000fd5b6000612cea826121f1565b9150612cf5836121f1565b9250828202612d03816121f1565b91508282048414831517612d1a57612d19612a88565b5b5092915050565b7f4e487b7100000000000000000000000000000000000000000000000000000000600052601260045260246000fd5b6000612d5b826121f1565b9150612d66836121f1565b925082612d7657612d75612d21565b5b828204905092915050565b7f436f6f6c20646f776e20706572696f6400000000000000000000000000000000600082015250565b6000612db76010836128c7565b9150612dc282612d81565b602082019050919050565b60006020820190508181036000830152612de681612daa565b9050919050565b600081519050612dfc816122ab565b92915050565b600060208284031215612e1857612e176122a6565b5b6000612e2684828501612ded565b91505092915050565b7f5374616b696e6720656e64656400000000000000000000000000000000000000600082015250565b6000612e65600d836128c7565b9150612e7082612e2f565b602082019050919050565b60006020820190508181036000830152612e9481612e58565b9050919050565b6000606082019050612eb060008301866121e2565b612ebd60208301856121e2565b612eca60408301846121fb565b949350505050565b7f4d696e696d756d207374616b65206e6f74206d65740000000000000000000000600082015250565b6000612f086015836128c7565b9150612f1382612ed2565b602082019050919050565b60006020820190508181036000830152612f3781612efb565b9050919050565b6000608082019050612f5360008301876121fb565b612f6060208301866121fb565b612f6d60408301856121fb565b612f7a60608301846121fb565b95945050505050565b7f4e487b7100000000000000000000000000000000000000000000000000000000600052602160045260246000fdfea26469706673582212203e6dde1bff9979abd258d347ac0a75867b1ee36368a6f4080eb5d9749c69bf8264736f6c63430008180033a264697066735822122029e57bc9f4a50d3e5470997fa1b1e670f76a77424ba04f9f6bcdefd79ad5b78e64736f6c63430008180033",
  "linkReferences": {},
  "deployedLinkReferences": {}
}