{
  "_format": "hh-sol-artifact-1",
  "contractName": "ThrustpadStakerFactory",
  "sourceName": "contracts/staking/ThrustpadStakerFactory.sol",
  "abi": [
    {
      "inputs": [],
      "stateMutability": "nonpayable",
      "type": "constructor"
    },
    {
      "inputs": [
        {
          "internalType": "address",
          "name": "owner",
          "type": "address"
        }
      ],
      "name": "OwnableInvalidOwner",
      "type": "error"
    },
    {
      "inputs": [
        {
          "internalType": "address",
          "name": "account",
          "type": "address"
        }
      ],
      "name": "OwnableUnauthorizedAccount",
      "type": "error"
    },
    {
      "anonymous": false,
      "inputs": [
        {
          "indexed": true,
          "internalType": "address",
          "name": "creator",
          "type": "address"
        },
        {
          "indexed": true,
          "internalType": "address",
          "name": "token",
          "type": "address"
        },
        {
          "indexed": true,
          "internalType": "address",
          "name": "staker",
          "type": "address"
        }
      ],
      "name": "NewStaking",
      "type": "event"
    },
    {
      "anonymous": false,
      "inputs": [
        {
          "indexed": true,
          "internalType": "address",
          "name": "previousOwner",
          "type": "address"
        },
        {
          "indexed": true,
          "internalType": "address",
          "name": "newOwner",
          "type": "address"
        }
      ],
      "name": "OwnershipTransferred",
      "type": "event"
    },
    {
      "inputs": [],
      "name": "creationFee",
      "outputs": [
        {
          "internalType": "uint256",
          "name": "",
          "type": "uint256"
        }
      ],
      "stateMutability": "view",
      "type": "function"
    },
    {
      "inputs": [
        {
          "internalType": "address",
          "name": "",
          "type": "address"
        },
        {
          "internalType": "uint256",
          "name": "",
          "type": "uint256"
        }
      ],
      "name": "deployedStakers",
      "outputs": [
        {
          "internalType": "address",
          "name": "",
          "type": "address"
        }
      ],
      "stateMutability": "view",
      "type": "function"
    },
    {
      "inputs": [],
      "name": "feeEarned",
      "outputs": [
        {
          "internalType": "uint256",
          "name": "",
          "type": "uint256"
        }
      ],
      "stateMutability": "view",
      "type": "function"
    },
    {
      "inputs": [
        {
          "internalType": "bytes",
          "name": "bytecode",
          "type": "bytes"
        },
        {
          "internalType": "uint256",
          "name": "salt",
          "type": "uint256"
        }
      ],
      "name": "getAddressCreate2",
      "outputs": [
        {
          "internalType": "address",
          "name": "",
          "type": "address"
        }
      ],
      "stateMutability": "view",
      "type": "function"
    },
    {
      "inputs": [
        {
          "components": [
            {
              "internalType": "address",
              "name": "token",
              "type": "address"
            },
            {
              "internalType": "uint256",
              "name": "startDate",
              "type": "uint256"
            },
            {
              "internalType": "uint256",
              "name": "endDate",
              "type": "uint256"
            },
            {
              "internalType": "uint256",
              "name": "hardCap",
              "type": "uint256"
            },
            {
              "internalType": "uint256",
              "name": "minTokenStake",
              "type": "uint256"
            },
            {
              "internalType": "uint256",
              "name": "apyEdu",
              "type": "uint256"
            },
            {
              "internalType": "uint256",
              "name": "apyToken",
              "type": "uint256"
            },
            {
              "internalType": "uint256",
              "name": "rewardPoolToken",
              "type": "uint256"
            },
            {
              "internalType": "uint256",
              "name": "rewardPoolEDU",
              "type": "uint256"
            },
            {
              "internalType": "uint256",
              "name": "tokenToEDURate",
              "type": "uint256"
            }
          ],
          "internalType": "struct stakeOption",
          "name": "option",
          "type": "tuple"
        },
        {
          "internalType": "address",
          "name": "_owner",
          "type": "address"
        }
      ],
      "name": "getBytecode",
      "outputs": [
        {
          "internalType": "bytes",
          "name": "",
          "type": "bytes"
        }
      ],
      "stateMutability": "pure",
      "type": "function"
    },
    {
      "inputs": [
        {
          "internalType": "address",
          "name": "creator",
          "type": "address"
        }
      ],
      "name": "getdeployedStakers",
      "outputs": [
        {
          "internalType": "address[]",
          "name": "",
          "type": "address[]"
        }
      ],
      "stateMutability": "view",
      "type": "function"
    },
    {
      "inputs": [
        {
          "internalType": "address",
          "name": "creator",
          "type": "address"
        }
      ],
      "name": "getdeployedStakersLen",
      "outputs": [
        {
          "internalType": "uint256",
          "name": "",
          "type": "uint256"
        }
      ],
      "stateMutability": "view",
      "type": "function"
    },
    {
      "inputs": [
        {
          "components": [
            {
              "internalType": "address",
              "name": "token",
              "type": "address"
            },
            {
              "internalType": "uint256",
              "name": "startDate",
              "type": "uint256"
            },
            {
              "internalType": "uint256",
              "name": "endDate",
              "type": "uint256"
            },
            {
              "internalType": "uint256",
              "name": "hardCap",
              "type": "uint256"
            },
            {
              "internalType": "uint256",
              "name": "minTokenStake",
              "type": "uint256"
            },
            {
              "internalType": "uint256",
              "name": "apyEdu",
              "type": "uint256"
            },
            {
              "internalType": "uint256",
              "name": "apyToken",
              "type": "uint256"
            },
            {
              "internalType": "uint256",
              "name": "rewardPoolToken",
              "type": "uint256"
            },
            {
              "internalType": "uint256",
              "name": "rewardPoolEDU",
              "type": "uint256"
            },
            {
              "internalType": "uint256",
              "name": "tokenToEDURate",
              "type": "uint256"
            }
          ],
          "internalType": "struct stakeOption",
          "name": "option",
          "type": "tuple"
        }
      ],
      "name": "newStaker",
      "outputs": [
        {
          "internalType": "address",
          "name": "",
          "type": "address"
        }
      ],
      "stateMutability": "payable",
      "type": "function"
    },
    {
      "inputs": [],
      "name": "owner",
      "outputs": [
        {
          "internalType": "address",
          "name": "",
          "type": "address"
        }
      ],
      "stateMutability": "view",
      "type": "function"
    },
    {
      "inputs": [],
      "name": "renounceOwnership",
      "outputs": [],
      "stateMutability": "nonpayable",
      "type": "function"
    },
    {
      "inputs": [
        {
          "internalType": "address",
          "name": "newOwner",
          "type": "address"
        }
      ],
      "name": "transferOwnership",
      "outputs": [],
      "stateMutability": "nonpayable",
      "type": "function"
    },
    {
      "inputs": [
        {
          "internalType": "uint256",
          "name": "_fee",
          "type": "uint256"
        }
      ],
      "name": "updateCreationFee",
      "outputs": [],
      "stateMutability": "nonpayable",
      "type": "function"
    },
    {
      "inputs": [],
      "name": "withdraw",
      "outputs": [],
      "stateMutability": "nonpayable",
      "type": "function"
    },
    {
      "inputs": [
        {
          "internalType": "address",
          "name": "token",
          "type": "address"
        }
      ],
      "name": "withdrawToken",
      "outputs": [],
      "stateMutability": "nonpayable",
      "type": "function"
    },
    {
      "stateMutability": "payable",
      "type": "receive"
    }
  ],
  "bytecode": "0x608060405266038d7ea4c6800060025534801561001b57600080fd5b50338061004257604051631e4fbdf760e01b81526000600482015260240160405180910390fd5b61004b81610051565b506100a1565b600080546001600160a01b038381166001600160a01b0319831681178455604051919092169283917f8be0079c531659141344cd1fd0a4f28419497f9722a3daafe3b4186f6b6457e09190a35050565b6132d5806100b06000396000f3fe608060405260043610620000f35760003560e01c8063894760691162000089578063c763f7a71162000060578063c763f7a714620002f5578063d5f63a06146200033e578063dce0b4e41462000356578063f2fde38b146200036e57600080fd5b806389476069146200021d5780638da5cb5b14620002425780639f886f26146200026257600080fd5b806348efb80c11620000ca57806348efb80c146200019557806357f5994814620001c95780636fa2379514620001e0578063715018a6146200020557600080fd5b80631f07a41e146200010057806337807fd6146200013d5780633ccfd60b146200017b57600080fd5b36620000fb57005b600080fd5b3480156200010d57600080fd5b50620001256200011f36600462000c0a565b62000393565b60405162000134919062000c2f565b60405180910390f35b3480156200014a57600080fd5b50620001626200015c36600462000c7e565b6200040b565b6040516001600160a01b03909116815260200162000134565b3480156200018857600080fd5b506200019362000444565b005b348015620001a257600080fd5b50620001ba620001b436600462000db3565b6200048c565b60405162000134919062000e14565b62000162620001da36600462000e49565b62000507565b348015620001ed57600080fd5b5062000193620001ff36600462000e69565b6200097b565b3480156200021257600080fd5b50620001936200098a565b3480156200022a57600080fd5b50620001936200023c36600462000c0a565b620009a2565b3480156200024f57600080fd5b506000546001600160a01b031662000162565b3480156200026f57600080fd5b50620001626200028136600462000e83565b8151602092830120604080517fff00000000000000000000000000000000000000000000000000000000000000818601523060601b6bffffffffffffffffffffffff191660218201526035810193909352605580840192909252805180840390920182526075909201909152805191012090565b3480156200030257600080fd5b506200032f6200031436600462000c0a565b6001600160a01b031660009081526001602052604090205490565b60405190815260200162000134565b3480156200034b57600080fd5b506200032f60035481565b3480156200036357600080fd5b506200032f60025481565b3480156200037b57600080fd5b50620001936200038d36600462000c0a565b62000ae0565b6001600160a01b038116600090815260016020908152604091829020805483518184028101840190945280845260609392830182828015620003ff57602002820191906000526020600020905b81546001600160a01b03168152600190910190602001808311620003e0575b50505050509050919050565b600160205281600052604060002081815481106200042857600080fd5b6000918252602090912001546001600160a01b03169150829050565b6200044e62000b3a565b600080546040516001600160a01b03909116914780156108fc02929091818181858888f1935050505015801562000489573d6000803e3d6000fd5b50565b6060600060405180602001620004a29062000bdf565b6020820181038252601f19601f820116604052509050808484604051602001620004ce92919062000f26565b60408051601f1981840301815290829052620004ee929160200162000fad565b6040516020818303038152906040529150505b92915050565b600060028260a001511015620005645760405162461bcd60e51b815260206004820152601e60248201527f41505920454455206d7573742062652067726561746572207468616e2032000060448201526064015b60405180910390fd5b60088260c001511015620005bb5760405162461bcd60e51b815260206004820181905260248201527f41505920546f6b656e206d7573742062652067726561746572207468616e203860448201526064016200055b565b81600001516001600160a01b031663313ce5676040518163ffffffff1660e01b8152600401602060405180830381865afa158015620005fe573d6000803e3d6000fd5b505050506040513d601f19601f8201168201806040525081019062000624919062000fe0565b60ff166012146200069e5760405162461bcd60e51b815260206004820152603360248201527f5468727573747061645374616b6572466163746f72793a20746f6b656e206d7560448201527f7374206861766520313820646563696d616c730000000000000000000000000060648201526084016200055b565b600060648360c001518460600151620006b891906200101b565b620006c4919062001035565b9050600083610120015160648560a001518660600151620006e691906200101b565b620006f2919062001035565b620006fe919062001035565b90506002548162000710919062001058565b341015620007875760405162461bcd60e51b815260206004820152603660248201527f454455206465706f73697420746f20636f766572207969656c6473207061796f60448201527f757420616e642046656573206e6f7420656e6f7567680000000000000000000060648201526084016200055b565b8360e00151821015620008035760405162461bcd60e51b815260206004820152603060248201527f4465706f73697420746f6b656e7320746f20636f766572207969656c6473207060448201527f61796f7574206e6f7420656e6f7567680000000000000000000000000000000060648201526084016200055b565b336000818152600160205260408082205490519192909134918891620008299062000bdf565b6200083692919062000f26565b82906040518091039083f59150508015801562000857573d6000803e3d6000fd5b50336000818152600160208181526040808420805493840181558452922001805473ffffffffffffffffffffffffffffffffffffffff19166001600160a01b03858116918217909255895160e08b015193517f23b872dd000000000000000000000000000000000000000000000000000000008152600481019590955260248501919091526044840192909252929350909116906323b872dd906064016020604051808303816000875af115801562000914573d6000803e3d6000fd5b505050506040513d601f19601f820116820180604052508101906200093a91906200106e565b506040516001600160a01b03821690819033907f99a53d54f4251977744f3244789e0336c21b251d2bc5c8142b38e7b614d6a32290600090a4949350505050565b6200098562000b3a565b600255565b6200099462000b3a565b620009a0600062000b82565b565b620009ac62000b3a565b806001600160a01b031663a9059cbb620009ce6000546001600160a01b031690565b6040517f70a082310000000000000000000000000000000000000000000000000000000081523060048201526001600160a01b038516906370a0823190602401602060405180830381865afa15801562000a2c573d6000803e3d6000fd5b505050506040513d601f19601f8201168201806040525081019062000a52919062001092565b6040517fffffffff0000000000000000000000000000000000000000000000000000000060e085901b1681526001600160a01b03909216600483015260248201526044016020604051808303816000875af115801562000ab6573d6000803e3d6000fd5b505050506040513d601f19601f8201168201806040525081019062000adc91906200106e565b5050565b62000aea62000b3a565b6001600160a01b03811662000b2f576040517f1e4fbdf7000000000000000000000000000000000000000000000000000000008152600060048201526024016200055b565b620004898162000b82565b6000546001600160a01b03163314620009a0576040517f118cdaa70000000000000000000000000000000000000000000000000000000081523360048201526024016200055b565b600080546001600160a01b0383811673ffffffffffffffffffffffffffffffffffffffff19831681178455604051919092169283917f8be0079c531659141344cd1fd0a4f28419497f9722a3daafe3b4186f6b6457e09190a35050565b6121f380620010ad83390190565b80356001600160a01b038116811462000c0557600080fd5b919050565b60006020828403121562000c1d57600080fd5b62000c288262000bed565b9392505050565b6020808252825182820181905260009190848201906040850190845b8181101562000c725783516001600160a01b03168352928401929184019160010162000c4b565b50909695505050505050565b6000806040838503121562000c9257600080fd5b62000c9d8362000bed565b946020939093013593505050565b634e487b7160e01b600052604160045260246000fd5b604051610140810167ffffffffffffffff8111828210171562000ce85762000ce862000cab565b60405290565b604051601f8201601f1916810167ffffffffffffffff8111828210171562000d1a5762000d1a62000cab565b604052919050565b6000610140828403121562000d3657600080fd5b62000d4062000cc1565b905062000d4d8262000bed565b81526020820135602082015260408201356040820152606082013560608201526080820135608082015260a082013560a082015260c082013560c082015260e082013560e082015261010080830135818301525061012080830135818301525092915050565b600080610160838503121562000dc857600080fd5b62000dd4848462000d22565b915062000de5610140840162000bed565b90509250929050565b60005b8381101562000e0b57818101518382015260200162000df1565b50506000910152565b602081526000825180602084015262000e3581604085016020870162000dee565b601f01601f19169190910160400192915050565b6000610140828403121562000e5d57600080fd5b62000c28838362000d22565b60006020828403121562000e7c57600080fd5b5035919050565b6000806040838503121562000e9757600080fd5b823567ffffffffffffffff8082111562000eb057600080fd5b818501915085601f83011262000ec557600080fd5b813560208282111562000edc5762000edc62000cab565b62000ef0601f8301601f1916820162000cee565b9250818352878183860101111562000f0757600080fd5b8181850182850137600091830181019190915290969401359450505050565b82516001600160a01b0316815261016081016020840151602083015260408401516040830152606084015160608301526080840151608083015260a084015160a083015260c084015160c083015260e084015160e083015261010080850151818401525061012080850151818401525062000c286101408301846001600160a01b03169052565b6000835162000fc181846020880162000dee565b83519083019062000fd781836020880162000dee565b01949350505050565b60006020828403121562000ff357600080fd5b815160ff8116811462000c2857600080fd5b634e487b7160e01b600052601160045260246000fd5b808202811582820484141762000501576200050162001005565b6000826200105357634e487b7160e01b600052601260045260246000fd5b500490565b8082018082111562000501576200050162001005565b6000602082840312156200108157600080fd5b8151801515811462000c2857600080fd5b600060208284031215620010a557600080fd5b505191905056fe6080604052604051620021f3380380620021f3833981016040819052620000269162000197565b806001600160a01b0381166200005657604051631e4fbdf760e01b81526000600482015260240160405180910390fd5b6200006181620000f2565b50506000805460ff60a01b19169055600180558051600980546001600160a01b03199081166001600160a01b039093169283179091556020830151600a556040830151600b556060830151600c556080830151600d5560a0830151600e5560c0830151600f5560e0830151601055610100830151601155610120909201516012556002805490921617905562000250565b600080546001600160a01b038381166001600160a01b0319831681178455604051919092169283917f8be0079c531659141344cd1fd0a4f28419497f9722a3daafe3b4186f6b6457e09190a35050565b60405161014081016001600160401b03811182821017156200017457634e487b7160e01b600052604160045260246000fd5b60405290565b80516001600160a01b03811681146200019257600080fd5b919050565b600080828403610160811215620001ad57600080fd5b61014080821215620001be57600080fd5b620001c862000142565b9150620001d5856200017a565b82526020850151602083015260408501516040830152606085015160608301526080850151608083015260a085015160a083015260c085015160c083015260e085015160e0830152610100808601518184015250610120808601518184015250819350620002458186016200017a565b925050509250929050565b611f9380620002606000396000f3fe60806040526004361061016e5760003560e01c8063756af45f116100cb5780638da5cb5b1161007f578063d216b0af11610059578063d216b0af1461043c578063f2fde38b1461045c578063fc0c546a1461047c57600080fd5b80638da5cb5b146103d4578063b5d5b5fa14610406578063bf9befb11461042657600080fd5b80637ba6f458116100b05780637ba6f4581461037c578063817b1cd2146103a95780638456cb59146103bf57600080fd5b8063756af45f1461034957806378bc1d3b1461036957600080fd5b80633f4ba83a1161012257806348a887061161010757806348a88706146102d55780635c975abb1461030a578063715018a61461033457600080fd5b80633f4ba83a146102aa57806342336202146102bf57600080fd5b80632e17de78116101535780632e17de7814610239578063308e401e146102595780633ebbcd801461028657600080fd5b8063010035af1461017a5780631303d4fb1461021757600080fd5b3661017557005b600080fd5b34801561018657600080fd5b50600954600a54600b54600c54600d54600e54600f546010546011546012546101be996001600160a01b03169897969594939291908a565b604080516001600160a01b03909b168b5260208b0199909952978901969096526060880194909452608087019290925260a086015260c085015260e0840152610100830152610120820152610140015b60405180910390f35b34801561022357600080fd5b50610237610232366004611c68565b61049c565b005b34801561024557600080fd5b50610237610254366004611c68565b610890565b34801561026557600080fd5b50610279610274366004611c98565b610b23565b60405161020e9190611cba565b34801561029257600080fd5b5061029c60065481565b60405190815260200161020e565b3480156102b657600080fd5b50610237610da5565b3480156102cb57600080fd5b5061029c60075481565b3480156102e157600080fd5b506102f56102f0366004611d13565b610db7565b6040805192835260208301919091520161020e565b34801561031657600080fd5b50600054600160a01b900460ff16604051901515815260200161020e565b34801561034057600080fd5b50610237610e7d565b34801561035557600080fd5b50610237610364366004611c98565b610e8f565b61029c610377366004611d35565b6110b4565b34801561038857600080fd5b5061039c610397366004611c98565b611257565b60405161020e9190611d69565b3480156103b557600080fd5b5061029c60055481565b3480156103cb57600080fd5b506102376114c1565b3480156103e057600080fd5b506000546001600160a01b03165b6040516001600160a01b03909116815260200161020e565b34801561041257600080fd5b5061029c610421366004611e41565b6114d1565b34801561043257600080fd5b5061029c60085481565b34801561044857600080fd5b50610237610457366004611c68565b611502565b34801561046857600080fd5b50610237610477366004611c98565b611545565b34801561048857600080fd5b506002546103ee906001600160a01b031681565b6104a4611599565b6104ac6115dc565b336001600160a01b0316600482815481106104c9576104c9611e6b565b60009182526020909120600a600e9092020101546001600160a01b0316146105245760405162461bcd60e51b81526020600482015260096024820152682737ba1037bbb732b960b91b60448201526064015b60405180910390fd5b600a5442116105755760405162461bcd60e51b815260206004820152601360248201527f5374616b696e67206e6f74207374617274656400000000000000000000000000604482015260640161051b565b60006004828154811061058a5761058a611e6b565b90600052602060002090600e0201905080600a0160149054906101000a900460ff16156105f95760405162461bcd60e51b815260206004820152601060248201527f416c726561647920756e7374616b656400000000000000000000000000000000604482015260640161051b565b604080516101e08101825282548152600183015460208201526002830154918101919091526003820154606082015260048201546080820152600582015460a0820152600682015460c0820152600782015460e082015260088201546101008201526009820154610120820152600a8201546001600160a01b038116610140830152600160a01b900460ff161515610160820152600b820154610180820152600c8201546101a0820152600d8201546101c08201526000906106bb9084611620565b80519091501515806106d1575060008160200151115b61071d5760405162461bcd60e51b815260206004820152601360248201527f4e6f207265776172647320746f20636c61696d00000000000000000000000000604482015260640161051b565b8051602082015160068401805483919060009061073b908490611e97565b90915550506020830151600785018054600090610759908490611e97565b909155505042600d850155604051339083156108fc029084906000818181858888f19350505050158015610791573d6000803e3d6000fd5b5060025460405163a9059cbb60e01b8152336004820152602481018390526001600160a01b039091169063a9059cbb906044016020604051808303816000875af11580156107e3573d6000803e3d6000fd5b505050506040513d601f19601f820116820180604052508101906108079190611eaa565b6108455760405162461bcd60e51b815260206004820152600f60248201526e151c985b9cd9995c8819985a5b1959608a1b604482015260640161051b565b604080518381526020810183905233917f70de20a533702af05c8faf1637846c4586a021bbc71b6928b089b6d555e4fbc2910160405180910390a25050505061088d60018055565b50565b610898611599565b6108a06115dc565b6000600482815481106108b5576108b5611e6b565b90600052602060002090600e0201905080600a0160149054906101000a900460ff16156109245760405162461bcd60e51b815260206004820152601060248201527f416c726561647920756e7374616b656400000000000000000000000000000000604482015260640161051b565b428160020154106109775760405162461bcd60e51b815260206004820152601160248201527f5374616b65206e6f74206d617475726564000000000000000000000000000000604482015260640161051b565b600a8101546001600160a01b031633146109bf5760405162461bcd60e51b81526020600482015260096024820152682737ba1037bbb732b960b91b604482015260640161051b565b600a8101805460ff60a01b1916600160a01b1790558054600580546000906109e8908490611ecc565b9091555050600254815460405163a9059cbb60e01b815233600482015260248101919091526001600160a01b039091169063a9059cbb906044016020604051808303816000875af1158015610a41573d6000803e3d6000fd5b505050506040513d601f19601f82011682018060405250810190610a659190611eaa565b610aa35760405162461bcd60e51b815260206004820152600f60248201526e151c985b9cd9995c8819985a5b1959608a1b604482015260640161051b565b336001600160a01b03167f204fccf0d92ed8d48f204adb39b2e81e92bad0dedb93f5716ca9478cfb57de00826000015483600601548460030154610ae79190611ecc565b84600701548560040154610afb9190611ecc565b6040805193845260208401929092529082015260600160405180910390a25061088d60018055565b6001600160a01b0381166000908152600360209081526040808320805482518185028101850190935280835260609493830182828015610b8257602002820191906000526020600020905b815481526020019060010190808311610b6e575b50505050509050805167ffffffffffffffff811115610ba357610ba3611edf565b604051908082528060200260200182016040528015610bf857816020015b610be560405180606001604052806000815260200160008152602001600081525090565b815260200190600190039081610bc15790505b50915060005b8151811015610d9e576004828281518110610c1b57610c1b611e6b565b602002602001015181548110610c3357610c33611e6b565b90600052602060002090600e0201600a0160149054906101000a900460ff16610d965760006004838381518110610c6c57610c6c611e6b565b602002602001015181548110610c8457610c84611e6b565b6000918252602091829020604080516101e081018252600e909302909101805483526001810154938301939093526002830154908201526003820154606082015260048201546080820152600582015460a0820152600682015460c0820152600782015460e082015260088201546101008201526009820154610120820152600a8201546001600160a01b03811661014083015260ff600160a01b909104161515610160820152600b820154610180820152600c8201546101a0820152600d909101546101c08201528351909150610d77908290859085908110610d6a57610d6a611e6b565b6020026020010151611620565b848381518110610d8957610d89611e6b565b6020026020010181905250505b600101610bfe565b5050919050565b610dad611744565b610db561178a565b565b60008060006103e8905060006301e133808583600960050154610dda9190611ef5565b610de49190611ef5565b610dee9190611f0c565b905060006301e133808684600960060154610e099190611ef5565b610e139190611ef5565b610e1d9190611f0c565b9050826064610e2c838a611ef5565b610e369190611f0c565b610e409190611f0c565b601254909450836064610e53858b611ef5565b610e5d9190611f0c565b610e679190611f0c565b610e719190611f0c565b94505050509250929050565b610e85611744565b610db560006117df565b610e97611744565b600b54610ea7906276a700611e97565b421015610ef65760405162461bcd60e51b815260206004820152601060248201527f436f6f6c20646f776e20706572696f6400000000000000000000000000000000604482015260640161051b565b600654601154600091610f0891611ecc565b90506000600754600960070154610f1f9190611ecc565b905081471115610f61576040516001600160a01b0384169083156108fc029084906000818181858888f19350505050158015610f5f573d6000803e3d6000fd5b505b6005546009546040517f70a082310000000000000000000000000000000000000000000000000000000081523060048201528392916001600160a01b0316906370a0823190602401602060405180830381865afa158015610fc6573d6000803e3d6000fd5b505050506040513d601f19601f82011682018060405250810190610fea9190611f2e565b610ff49190611ecc565b11156110af5760095460405163a9059cbb60e01b81526001600160a01b038581166004830152602482018490529091169063a9059cbb906044016020604051808303816000875af115801561104d573d6000803e3d6000fd5b505050506040513d601f19601f820116820180604052508101906110719190611eaa565b6110af5760405162461bcd60e51b815260206004820152600f60248201526e151c985b9cd9995c8819985a5b1959608a1b604482015260640161051b565b505050565b60006110be611599565b6110c66115dc565b600a544210156111185760405162461bcd60e51b815260206004820152601360248201527f5374616b696e67206e6f74207374617274656400000000000000000000000000604482015260640161051b565b600b5442111561116a5760405162461bcd60e51b815260206004820152600d60248201527f5374616b696e6720656e64656400000000000000000000000000000000000000604482015260640161051b565b6002546040517f23b872dd000000000000000000000000000000000000000000000000000000008152336004820152306024820152604481018590526001600160a01b03909116906323b872dd906064016020604051808303816000875af11580156111da573d6000803e3d6000fd5b505050506040513d601f19601f820116820180604052508101906111fe9190611eaa565b61123c5760405162461bcd60e51b815260206004820152600f60248201526e151c985b9cd9995c8819985a5b1959608a1b604482015260640161051b565b6112468383611847565b905061125160018055565b92915050565b6001600160a01b03811660009081526003602090815260408083208054825181850281018501909352808352606094938301828280156112b657602002820191906000526020600020905b8154815260200190600101908083116112a2575b505050505090506000815167ffffffffffffffff8111156112d9576112d9611edf565b60405190808252806020026020018201604052801561138e57816020015b61137b604051806101e001604052806000815260200160008152602001600081526020016000815260200160008152602001600081526020016000815260200160008152602001600081526020016000815260200160006001600160a01b031681526020016000151581526020016000815260200160008152602001600081525090565b8152602001906001900390816112f75790505b50905060005b82518110156114b95760048382815181106113b1576113b1611e6b565b6020026020010151815481106113c9576113c9611e6b565b6000918252602091829020604080516101e081018252600e909302909101805483526001810154938301939093526002830154908201526003820154606082015260048201546080820152600582015460a0820152600682015460c0820152600782015460e082015260088201546101008201526009820154610120820152600a8201546001600160a01b03811661014083015260ff600160a01b909104161515610160820152600b820154610180820152600c8201546101a0820152600d909101546101c082015282518390839081106114a6576114a6611e6b565b6020908102919091010152600101611394565b509392505050565b6114c9611744565b610db5611b50565b600360205281600052604060002081815481106114ed57600080fd5b90600052602060002001600091509150505481565b61150a611744565b600d8190556040518181527ff4045d7dd317de89564c3f12c35961242ed2a4dce3ae4e7a75847ffa04bb08349060200160405180910390a150565b61154d611744565b6001600160a01b038116611590576040517f1e4fbdf70000000000000000000000000000000000000000000000000000000081526000600482015260240161051b565b61088d816117df565b6002600154036115d5576040517f3ee5aeb500000000000000000000000000000000000000000000000000000000815260040160405180910390fd5b6002600155565b600054600160a01b900460ff1615610db5576040517fd93c066500000000000000000000000000000000000000000000000000000000815260040160405180910390fd5b61164460405180606001604052806000815260200160008152602001600081525090565b6101c08301516103e89060009061165b9042611ecc565b905060006301e1338082848861018001516116769190611ef5565b6116809190611ef5565b61168a9190611f0c565b905060006301e133808385896101a001516116a59190611ef5565b6116af9190611ef5565b6116b99190611f0c565b905060006009800154856064858b600001516116d59190611ef5565b6116df9190611f0c565b6116e99190611f0c565b6116f39190611f0c565b90506000856064848b6000015161170a9190611ef5565b6117149190611f0c565b61171e9190611f0c565b604080516060810182529384526020840191909152820197909752979650505050505050565b6000546001600160a01b03163314610db5576040517f118cdaa700000000000000000000000000000000000000000000000000000000815233600482015260240161051b565b611792611b93565b6000805460ff60a01b191690557f5db9ee0a495bf2e6ff9c91a7834c1ba4fdd244a5e8aa4e537bd38aeae4b073aa335b6040516001600160a01b03909116815260200160405180910390a1565b600080546001600160a01b038381167fffffffffffffffffffffffff0000000000000000000000000000000000000000831681178455604051919092169283917f8be0079c531659141344cd1fd0a4f28419497f9722a3daafe3b4186f6b6457e09190a35050565b600d5460009083101561189c5760405162461bcd60e51b815260206004820152601560248201527f4d696e696d756d207374616b65206e6f74206d65740000000000000000000000604482015260640161051b565b60006118a783611bd6565b90506000806118b68684610db7565b9150915060048054905093506004604051806101e0016040528088815260200142815260200185426118e89190611e97565b815260200184815260200183815260200185815260200160008152602001600081526020016000815260200160008152602001336001600160a01b03168152602001600015158152602001600960050154815260200160096006015481526020014281525090806001815401808255809150506001900390600052602060002090600e0201600090919091909150600082015181600001556020820151816001015560408201518160020155606082015181600301556080820151816004015560a0820151816005015560c0820151816006015560e082015181600701556101008201518160080155610120820151816009015561014082015181600a0160006101000a8154816001600160a01b0302191690836001600160a01b0316021790555061016082015181600a0160146101000a81548160ff02191690831515021790555061018082015181600b01556101a082015181600c01556101c082015181600d0155505060036000336001600160a01b03166001600160a01b031681526020019081526020016000208490806001815401808255809150506001900390600052602060002001600090919091909150558560056000828254611aac9190611e97565b925050819055508160066000828254611ac59190611e97565b925050819055508060076000828254611ade9190611e97565b92505081905550600160086000828254611af89190611e97565b909155505060408051878152602081018590529081018390526060810182905233907f9cfd25589d1eb8ad71e342a86a8524e83522e3936c0803048c08f6d9ad974f409060800160405180910390a250505092915050565b611b586115dc565b6000805460ff60a01b1916600160a01b1790557f62e78cea01bee320cd4e420270b5ea74000d11b0c9f74754ebdbfc544b05a2586117c23390565b600054600160a01b900460ff16610db5576040517f8dfc202b00000000000000000000000000000000000000000000000000000000815260040160405180910390fd5b600080826003811115611beb57611beb611f47565b03611bfa575062278d00919050565b6001826003811115611c0e57611c0e611f47565b03611c1d5750623b5380919050565b6002826003811115611c3157611c31611f47565b03611c405750624f1a00919050565b6003826003811115611c5457611c54611f47565b03611c6357506276a700919050565b919050565b600060208284031215611c7a57600080fd5b5035919050565b80356001600160a01b0381168114611c6357600080fd5b600060208284031215611caa57600080fd5b611cb382611c81565b9392505050565b602080825282518282018190526000919060409081850190868401855b82811015611d065781518051855286810151878601528501518585015260609093019290850190600101611cd7565b5091979650505050505050565b60008060408385031215611d2657600080fd5b50508035926020909101359150565b60008060408385031215611d4857600080fd5b82359150602083013560048110611d5e57600080fd5b809150509250929050565b602080825282518282018190526000919060409081850190868401855b82811015611d065781518051855286810151878601528581015186860152606080820151908601526080808201519086015260a0808201519086015260c0808201519086015260e0808201519086015261010080820151908601526101208082015190860152610140808201516001600160a01b0316908601526101608082015115159086015261018080820151908601526101a080820151908601526101c090810151908501526101e09093019290850190600101611d86565b60008060408385031215611e5457600080fd5b611e5d83611c81565b946020939093013593505050565b634e487b7160e01b600052603260045260246000fd5b634e487b7160e01b600052601160045260246000fd5b8082018082111561125157611251611e81565b600060208284031215611ebc57600080fd5b81518015158114611cb357600080fd5b8181038181111561125157611251611e81565b634e487b7160e01b600052604160045260246000fd5b808202811582820484141761125157611251611e81565b600082611f2957634e487b7160e01b600052601260045260246000fd5b500490565b600060208284031215611f4057600080fd5b5051919050565b634e487b7160e01b600052602160045260246000fdfea2646970667358221220aac5f7952b5b799b7c899e864640a50a8b96a33c7b95ee16c12b3df710c4a8b764736f6c63430008180033a264697066735822122016ddecee7039c94d519f37dccfbec7e9b997d747cce29d200530952af3d8f8ee64736f6c63430008180033",
  "linkReferences": {},
  "deployedLinkReferences": {}
}