{
  "_format": "hh-sol-artifact-1",
  "contractName": "ThrustpadStakerFactory",
  "sourceName": "contracts/staking/ThrustpadStakerFactory.sol",
  "abi": [
    {
      "inputs": [],
      "stateMutability": "nonpayable",
      "type": "constructor"
    },
    {
      "inputs": [
        {
          "internalType": "address",
          "name": "owner",
          "type": "address"
        }
      ],
      "name": "OwnableInvalidOwner",
      "type": "error"
    },
    {
      "inputs": [
        {
          "internalType": "address",
          "name": "account",
          "type": "address"
        }
      ],
      "name": "OwnableUnauthorizedAccount",
      "type": "error"
    },
    {
      "anonymous": false,
      "inputs": [
        {
          "indexed": true,
          "internalType": "address",
          "name": "creator",
          "type": "address"
        },
        {
          "indexed": true,
          "internalType": "address",
          "name": "token",
          "type": "address"
        },
        {
          "indexed": true,
          "internalType": "address",
          "name": "staker",
          "type": "address"
        }
      ],
      "name": "NewStaking",
      "type": "event"
    },
    {
      "anonymous": false,
      "inputs": [
        {
          "indexed": true,
          "internalType": "address",
          "name": "previousOwner",
          "type": "address"
        },
        {
          "indexed": true,
          "internalType": "address",
          "name": "newOwner",
          "type": "address"
        }
      ],
      "name": "OwnershipTransferred",
      "type": "event"
    },
    {
      "inputs": [],
      "name": "creationFee",
      "outputs": [
        {
          "internalType": "uint256",
          "name": "",
          "type": "uint256"
        }
      ],
      "stateMutability": "view",
      "type": "function"
    },
    {
      "inputs": [
        {
          "internalType": "address",
          "name": "",
          "type": "address"
        },
        {
          "internalType": "uint256",
          "name": "",
          "type": "uint256"
        }
      ],
      "name": "deployedStakers",
      "outputs": [
        {
          "internalType": "address",
          "name": "",
          "type": "address"
        }
      ],
      "stateMutability": "view",
      "type": "function"
    },
    {
      "inputs": [],
      "name": "feeEarned",
      "outputs": [
        {
          "internalType": "uint256",
          "name": "",
          "type": "uint256"
        }
      ],
      "stateMutability": "view",
      "type": "function"
    },
    {
      "inputs": [
        {
          "internalType": "bytes",
          "name": "bytecode",
          "type": "bytes"
        },
        {
          "internalType": "uint256",
          "name": "salt",
          "type": "uint256"
        }
      ],
      "name": "getAddressCreate2",
      "outputs": [
        {
          "internalType": "address",
          "name": "",
          "type": "address"
        }
      ],
      "stateMutability": "view",
      "type": "function"
    },
    {
      "inputs": [
        {
          "components": [
            {
              "internalType": "address",
              "name": "token",
              "type": "address"
            },
            {
              "internalType": "uint256",
              "name": "startDate",
              "type": "uint256"
            },
            {
              "internalType": "uint256",
              "name": "endDate",
              "type": "uint256"
            },
            {
              "internalType": "uint256",
              "name": "hardCap",
              "type": "uint256"
            },
            {
              "internalType": "uint256",
              "name": "minTokenStake",
              "type": "uint256"
            },
            {
              "internalType": "uint256",
              "name": "apyEdu",
              "type": "uint256"
            },
            {
              "internalType": "uint256",
              "name": "apyToken",
              "type": "uint256"
            },
            {
              "internalType": "uint256",
              "name": "rewardPoolToken",
              "type": "uint256"
            },
            {
              "internalType": "uint256",
              "name": "rewardPoolEDU",
              "type": "uint256"
            },
            {
              "internalType": "uint256",
              "name": "tokenToEDURate",
              "type": "uint256"
            }
          ],
          "internalType": "struct stakeOption",
          "name": "option",
          "type": "tuple"
        }
      ],
      "name": "getBytecode",
      "outputs": [
        {
          "internalType": "bytes",
          "name": "",
          "type": "bytes"
        }
      ],
      "stateMutability": "pure",
      "type": "function"
    },
    {
      "inputs": [
        {
          "internalType": "address",
          "name": "creator",
          "type": "address"
        }
      ],
      "name": "getdeployedStakers",
      "outputs": [
        {
          "internalType": "address[]",
          "name": "",
          "type": "address[]"
        }
      ],
      "stateMutability": "view",
      "type": "function"
    },
    {
      "inputs": [
        {
          "internalType": "address",
          "name": "creator",
          "type": "address"
        }
      ],
      "name": "getdeployedStakersLen",
      "outputs": [
        {
          "internalType": "uint256",
          "name": "",
          "type": "uint256"
        }
      ],
      "stateMutability": "view",
      "type": "function"
    },
    {
      "inputs": [
        {
          "components": [
            {
              "internalType": "address",
              "name": "token",
              "type": "address"
            },
            {
              "internalType": "uint256",
              "name": "startDate",
              "type": "uint256"
            },
            {
              "internalType": "uint256",
              "name": "endDate",
              "type": "uint256"
            },
            {
              "internalType": "uint256",
              "name": "hardCap",
              "type": "uint256"
            },
            {
              "internalType": "uint256",
              "name": "minTokenStake",
              "type": "uint256"
            },
            {
              "internalType": "uint256",
              "name": "apyEdu",
              "type": "uint256"
            },
            {
              "internalType": "uint256",
              "name": "apyToken",
              "type": "uint256"
            },
            {
              "internalType": "uint256",
              "name": "rewardPoolToken",
              "type": "uint256"
            },
            {
              "internalType": "uint256",
              "name": "rewardPoolEDU",
              "type": "uint256"
            },
            {
              "internalType": "uint256",
              "name": "tokenToEDURate",
              "type": "uint256"
            }
          ],
          "internalType": "struct stakeOption",
          "name": "option",
          "type": "tuple"
        }
      ],
      "name": "newStaker",
      "outputs": [
        {
          "internalType": "address",
          "name": "",
          "type": "address"
        }
      ],
      "stateMutability": "payable",
      "type": "function"
    },
    {
      "inputs": [],
      "name": "owner",
      "outputs": [
        {
          "internalType": "address",
          "name": "",
          "type": "address"
        }
      ],
      "stateMutability": "view",
      "type": "function"
    },
    {
      "inputs": [],
      "name": "renounceOwnership",
      "outputs": [],
      "stateMutability": "nonpayable",
      "type": "function"
    },
    {
      "inputs": [
        {
          "internalType": "address",
          "name": "newOwner",
          "type": "address"
        }
      ],
      "name": "transferOwnership",
      "outputs": [],
      "stateMutability": "nonpayable",
      "type": "function"
    },
    {
      "inputs": [],
      "name": "withdraw",
      "outputs": [],
      "stateMutability": "nonpayable",
      "type": "function"
    },
    {
      "inputs": [
        {
          "internalType": "address",
          "name": "token",
          "type": "address"
        }
      ],
      "name": "withdrawToken",
      "outputs": [],
      "stateMutability": "nonpayable",
      "type": "function"
    },
    {
      "stateMutability": "payable",
      "type": "receive"
    }
  ],
  "bytecode": "0x6080604052670de0b6b3a76400006002553480156200001d57600080fd5b5033600073ffffffffffffffffffffffffffffffffffffffff168173ffffffffffffffffffffffffffffffffffffffff1603620000945760006040517f1e4fbdf70000000000000000000000000000000000000000000000000000000081526004016200008b9190620001b5565b60405180910390fd5b620000a581620000ac60201b60201c565b50620001d2565b60008060009054906101000a900473ffffffffffffffffffffffffffffffffffffffff169050816000806101000a81548173ffffffffffffffffffffffffffffffffffffffff021916908373ffffffffffffffffffffffffffffffffffffffff1602179055508173ffffffffffffffffffffffffffffffffffffffff168173ffffffffffffffffffffffffffffffffffffffff167f8be0079c531659141344cd1fd0a4f28419497f9722a3daafe3b4186f6b6457e060405160405180910390a35050565b600073ffffffffffffffffffffffffffffffffffffffff82169050919050565b60006200019d8262000170565b9050919050565b620001af8162000190565b82525050565b6000602082019050620001cc6000830184620001a4565b92915050565b61500b80620001e26000396000f3fe608060405260043610620000d95760003560e01c806389476069116200008b578063c763f7a71162000061578063c763f7a714620002be578063d5f63a061462000302578063dce0b4e41462000332578063f2fde38b146200036257620000e1565b806389476069146200021c5780638da5cb5b146200024a5780639f886f26146200027a57620000e1565b80631f07a41e14620000e657806332b6cfb2146200012a57806337807fd6146200016e5780633ccfd60b14620001b257806357f5994814620001cc578063715018a6146200020257620000e1565b36620000e157005b600080fd5b348015620000f357600080fd5b506200011260048036038101906200010c919062000e7c565b62000390565b60405162000121919062000f7c565b60405180910390f35b3480156200013757600080fd5b5062000156600480360381019062000150919062001184565b6200045f565b60405162000165919062001240565b60405180910390f35b3480156200017b57600080fd5b506200019a600480360381019062000194919062001264565b620004d8565b604051620001a99190620012bc565b60405180910390f35b348015620001bf57600080fd5b50620001ca62000527565b005b620001ea6004803603810190620001e4919062001184565b62000584565b604051620001f99190620012bc565b60405180910390f35b3480156200020f57600080fd5b506200021a62000a0f565b005b3480156200022957600080fd5b5062000248600480360381019062000242919062000e7c565b62000a27565b005b3480156200025757600080fd5b506200026262000b3f565b604051620002719190620012bc565b60405180910390f35b3480156200028757600080fd5b50620002a66004803603810190620002a09190620013a6565b62000b68565b604051620002b59190620012bc565b60405180910390f35b348015620002cb57600080fd5b50620002ea6004803603810190620002e4919062000e7c565b62000bb4565b604051620002f991906200141d565b60405180910390f35b3480156200030f57600080fd5b506200031a62000c00565b6040516200032991906200141d565b60405180910390f35b3480156200033f57600080fd5b506200034a62000c06565b6040516200035991906200141d565b60405180910390f35b3480156200036f57600080fd5b506200038e600480360381019062000388919062000e7c565b62000c0c565b005b6060600160008373ffffffffffffffffffffffffffffffffffffffff1673ffffffffffffffffffffffffffffffffffffffff1681526020019081526020016000208054806020026020016040519081016040528092919081815260200182805480156200045357602002820191906000526020600020905b8160009054906101000a900473ffffffffffffffffffffffffffffffffffffffff1673ffffffffffffffffffffffffffffffffffffffff168152602001906001019080831162000408575b50505050509050919050565b6060600060405180602001620004759062000df5565b6020820181038252601f19601f82011660405250905080836040516020016200049f91906200152b565b604051602081830303815290604052604051602001620004c19291906200158b565b604051602081830303815290604052915050919050565b60016020528160005260406000208181548110620004f557600080fd5b906000526020600020016000915091509054906101000a900473ffffffffffffffffffffffffffffffffffffffff1681565b6200053162000c99565b6200053b62000b3f565b73ffffffffffffffffffffffffffffffffffffffff166108fc479081150290604051600060405180830381858888f1935050505015801562000581573d6000803e3d6000fd5b50565b600060028260a001511015620005d1576040517f08c379a0000000000000000000000000000000000000000000000000000000008152600401620005c89062001614565b60405180910390fd5b60088260c0015110156200061c576040517f08c379a0000000000000000000000000000000000000000000000000000000008152600401620006139062001686565b60405180910390fd5b6012826000015173ffffffffffffffffffffffffffffffffffffffff1663313ce5676040518163ffffffff1660e01b8152600401602060405180830381865afa1580156200066e573d6000803e3d6000fd5b505050506040513d601f19601f82011682018060405250810190620006949190620016e6565b60ff1614620006da576040517f08c379a0000000000000000000000000000000000000000000000000000000008152600401620006d1906200178e565b60405180910390fd5b600060648360c001518460600151620006f49190620017df565b62000700919062001859565b9050600083610120015160648560a001518660600151620007229190620017df565b6200072e919062001859565b6200073a919062001859565b9050600254816200074c919062001891565b34101562000791576040517f08c379a0000000000000000000000000000000000000000000000000000000008152600401620007889062001942565b60405180910390fd5b8360e00151821015620007db576040517f08c379a0000000000000000000000000000000000000000000000000000000008152600401620007d290620019da565b60405180910390fd5b600034600160003373ffffffffffffffffffffffffffffffffffffffff1673ffffffffffffffffffffffffffffffffffffffff1681526020019081526020016000208054905060001b9086604051620008349062000df5565b6200084091906200152b565b82906040518091039083f5905090508015801562000862573d6000803e3d6000fd5b509050600160003373ffffffffffffffffffffffffffffffffffffffff1673ffffffffffffffffffffffffffffffffffffffff168152602001908152602001600020819080600181540180825580915050600190039060005260206000200160009091909190916101000a81548173ffffffffffffffffffffffffffffffffffffffff021916908373ffffffffffffffffffffffffffffffffffffffff160217905550846000015173ffffffffffffffffffffffffffffffffffffffff166323b872dd33838860e001516040518463ffffffff1660e01b81526004016200094c93929190620019fc565b6020604051808303816000875af11580156200096c573d6000803e3d6000fd5b505050506040513d601f19601f8201168201806040525081019062000992919062001a76565b508073ffffffffffffffffffffffffffffffffffffffff168173ffffffffffffffffffffffffffffffffffffffff163373ffffffffffffffffffffffffffffffffffffffff167f99a53d54f4251977744f3244789e0336c21b251d2bc5c8142b38e7b614d6a32260405160405180910390a4809350505050919050565b62000a1962000c99565b62000a25600062000d29565b565b62000a3162000c99565b8073ffffffffffffffffffffffffffffffffffffffff1663a9059cbb62000a5762000b3f565b8373ffffffffffffffffffffffffffffffffffffffff166370a08231306040518263ffffffff1660e01b815260040162000a929190620012bc565b602060405180830381865afa15801562000ab0573d6000803e3d6000fd5b505050506040513d601f19601f8201168201806040525081019062000ad6919062001abf565b6040518363ffffffff1660e01b815260040162000af592919062001af1565b6020604051808303816000875af115801562000b15573d6000803e3d6000fd5b505050506040513d601f19601f8201168201806040525081019062000b3b919062001a76565b5050565b60008060009054906101000a900473ffffffffffffffffffffffffffffffffffffffff16905090565b60008060ff60f81b3084868051906020012060405160200162000b8f949392919062001c13565b6040516020818303038152906040528051906020012090508060001c91505092915050565b6000600160008373ffffffffffffffffffffffffffffffffffffffff1673ffffffffffffffffffffffffffffffffffffffff168152602001908152602001600020805490509050919050565b60035481565b60025481565b62000c1662000c99565b600073ffffffffffffffffffffffffffffffffffffffff168173ffffffffffffffffffffffffffffffffffffffff160362000c8b5760006040517f1e4fbdf700000000000000000000000000000000000000000000000000000000815260040162000c829190620012bc565b60405180910390fd5b62000c968162000d29565b50565b62000ca362000ded565b73ffffffffffffffffffffffffffffffffffffffff1662000cc362000b3f565b73ffffffffffffffffffffffffffffffffffffffff161462000d275762000ce962000ded565b6040517f118cdaa700000000000000000000000000000000000000000000000000000000815260040162000d1e9190620012bc565b60405180910390fd5b565b60008060009054906101000a900473ffffffffffffffffffffffffffffffffffffffff169050816000806101000a81548173ffffffffffffffffffffffffffffffffffffffff021916908373ffffffffffffffffffffffffffffffffffffffff1602179055508173ffffffffffffffffffffffffffffffffffffffff168173ffffffffffffffffffffffffffffffffffffffff167f8be0079c531659141344cd1fd0a4f28419497f9722a3daafe3b4186f6b6457e060405160405180910390a35050565b600033905090565b61336c8062001c6a83390190565b6000604051905090565b600080fd5b600080fd5b600073ffffffffffffffffffffffffffffffffffffffff82169050919050565b600062000e448262000e17565b9050919050565b62000e568162000e37565b811462000e6257600080fd5b50565b60008135905062000e768162000e4b565b92915050565b60006020828403121562000e955762000e9462000e0d565b5b600062000ea58482850162000e65565b91505092915050565b600081519050919050565b600082825260208201905092915050565b6000819050602082019050919050565b62000ee58162000e37565b82525050565b600062000ef9838362000eda565b60208301905092915050565b6000602082019050919050565b600062000f1f8262000eae565b62000f2b818562000eb9565b935062000f388362000eca565b8060005b8381101562000f6f57815162000f53888262000eeb565b975062000f608362000f05565b92505060018101905062000f3c565b5085935050505092915050565b6000602082019050818103600083015262000f98818462000f12565b905092915050565b600080fd5b6000601f19601f8301169050919050565b7f4e487b7100000000000000000000000000000000000000000000000000000000600052604160045260246000fd5b62000ff08262000fa5565b810181811067ffffffffffffffff8211171562001012576200101162000fb6565b5b80604052505050565b60006200102762000e03565b905062001035828262000fe5565b919050565b6000819050919050565b6200104f816200103a565b81146200105b57600080fd5b50565b6000813590506200106f8162001044565b92915050565b600061014082840312156200108f576200108e62000fa0565b5b6200109c6101406200101b565b90506000620010ae8482850162000e65565b6000830152506020620010c4848285016200105e565b6020830152506040620010da848285016200105e565b6040830152506060620010f0848285016200105e565b606083015250608062001106848285016200105e565b60808301525060a06200111c848285016200105e565b60a08301525060c062001132848285016200105e565b60c08301525060e062001148848285016200105e565b60e0830152506101006200115f848285016200105e565b6101008301525061012062001177848285016200105e565b6101208301525092915050565b600061014082840312156200119e576200119d62000e0d565b5b6000620011ae8482850162001075565b91505092915050565b600081519050919050565b600082825260208201905092915050565b60005b83811015620011f3578082015181840152602081019050620011d6565b60008484015250505050565b60006200120c82620011b7565b620012188185620011c2565b93506200122a818560208601620011d3565b620012358162000fa5565b840191505092915050565b600060208201905081810360008301526200125c8184620011ff565b905092915050565b600080604083850312156200127e576200127d62000e0d565b5b60006200128e8582860162000e65565b9250506020620012a1858286016200105e565b9150509250929050565b620012b68162000e37565b82525050565b6000602082019050620012d36000830184620012ab565b92915050565b600080fd5b600080fd5b600067ffffffffffffffff82111562001301576200130062000fb6565b5b6200130c8262000fa5565b9050602081019050919050565b82818337600083830152505050565b60006200133f6200133984620012e3565b6200101b565b9050828152602081018484840111156200135e576200135d620012de565b5b6200136b84828562001319565b509392505050565b600082601f8301126200138b576200138a620012d9565b5b81356200139d84826020860162001328565b91505092915050565b60008060408385031215620013c057620013bf62000e0d565b5b600083013567ffffffffffffffff811115620013e157620013e062000e12565b5b620013ef8582860162001373565b925050602062001402858286016200105e565b9150509250929050565b62001417816200103a565b82525050565b60006020820190506200143460008301846200140c565b92915050565b62001445816200103a565b82525050565b6101408201600082015162001464600085018262000eda565b5060208201516200147960208501826200143a565b5060408201516200148e60408501826200143a565b506060820151620014a360608501826200143a565b506080820151620014b860808501826200143a565b5060a0820151620014cd60a08501826200143a565b5060c0820151620014e260c08501826200143a565b5060e0820151620014f760e08501826200143a565b506101008201516200150e6101008501826200143a565b50610120820151620015256101208501826200143a565b50505050565b6000610140820190506200154360008301846200144b565b92915050565b600081905092915050565b60006200156182620011b7565b6200156d818562001549565b93506200157f818560208601620011d3565b80840191505092915050565b600062001599828562001554565b9150620015a7828462001554565b91508190509392505050565b600082825260208201905092915050565b7f41505920454455206d7573742062652067726561746572207468616e20320000600082015250565b6000620015fc601e83620015b3565b91506200160982620015c4565b602082019050919050565b600060208201905081810360008301526200162f81620015ed565b9050919050565b7f41505920546f6b656e206d7573742062652067726561746572207468616e2038600082015250565b60006200166e602083620015b3565b91506200167b8262001636565b602082019050919050565b60006020820190508181036000830152620016a1816200165f565b9050919050565b600060ff82169050919050565b620016c081620016a8565b8114620016cc57600080fd5b50565b600081519050620016e081620016b5565b92915050565b600060208284031215620016ff57620016fe62000e0d565b5b60006200170f84828501620016cf565b91505092915050565b7f5468727573747061645374616b6572466163746f72793a20746f6b656e206d7560008201527f7374206861766520313820646563696d616c7300000000000000000000000000602082015250565b600062001776603383620015b3565b9150620017838262001718565b604082019050919050565b60006020820190508181036000830152620017a98162001767565b9050919050565b7f4e487b7100000000000000000000000000000000000000000000000000000000600052601160045260246000fd5b6000620017ec826200103a565b9150620017f9836200103a565b925082820262001809816200103a565b91508282048414831517620018235762001822620017b0565b5b5092915050565b7f4e487b7100000000000000000000000000000000000000000000000000000000600052601260045260246000fd5b600062001866826200103a565b915062001873836200103a565b9250826200188657620018856200182a565b5b828204905092915050565b60006200189e826200103a565b9150620018ab836200103a565b9250828201905080821115620018c657620018c5620017b0565b5b92915050565b7f454455206465706f73697420746f20636f766572207969656c6473207061796f60008201527f757420616e642046656573206e6f7420656e6f75676800000000000000000000602082015250565b60006200192a603683620015b3565b91506200193782620018cc565b604082019050919050565b600060208201905081810360008301526200195d816200191b565b9050919050565b7f4465706f73697420746f6b656e7320746f20636f766572207969656c6473207060008201527f61796f7574206e6f7420656e6f75676800000000000000000000000000000000602082015250565b6000620019c2603083620015b3565b9150620019cf8262001964565b604082019050919050565b60006020820190508181036000830152620019f581620019b3565b9050919050565b600060608201905062001a136000830186620012ab565b62001a226020830185620012ab565b62001a3160408301846200140c565b949350505050565b60008115159050919050565b62001a508162001a39565b811462001a5c57600080fd5b50565b60008151905062001a708162001a45565b92915050565b60006020828403121562001a8f5762001a8e62000e0d565b5b600062001a9f8482850162001a5f565b91505092915050565b60008151905062001ab98162001044565b92915050565b60006020828403121562001ad85762001ad762000e0d565b5b600062001ae88482850162001aa8565b91505092915050565b600060408201905062001b086000830185620012ab565b62001b1760208301846200140c565b9392505050565b60007fff0000000000000000000000000000000000000000000000000000000000000082169050919050565b6000819050919050565b62001b6962001b638262001b1e565b62001b4a565b82525050565b60008160601b9050919050565b600062001b898262001b6f565b9050919050565b600062001b9d8262001b7c565b9050919050565b62001bb962001bb38262000e37565b62001b90565b82525050565b6000819050919050565b62001bde62001bd8826200103a565b62001bbf565b82525050565b6000819050919050565b6000819050919050565b62001c0d62001c078262001be4565b62001bee565b82525050565b600062001c21828762001b54565b60018201915062001c33828662001ba4565b60148201915062001c45828562001bc9565b60208201915062001c57828462001bf8565b6020820191508190509594505050505056fe60806040526040516200336c3803806200336c8339818101604052810190620000299190620004e3565b32600073ffffffffffffffffffffffffffffffffffffffff168173ffffffffffffffffffffffffffffffffffffffff16036200009f5760006040517f1e4fbdf700000000000000000000000000000000000000000000000000000000815260040162000096919062000527565b60405180910390fd5b620000b081620001c760201b60201c565b5060008060146101000a81548160ff0219169083151502179055506001808190555080600960008201518160000160006101000a81548173ffffffffffffffffffffffffffffffffffffffff021916908373ffffffffffffffffffffffffffffffffffffffff1602179055506020820151816001015560408201518160020155606082015181600301556080820151816004015560a0820151816005015560c0820151816006015560e08201518160070155610100820151816008015561012082015181600901559050508060000151600260006101000a81548173ffffffffffffffffffffffffffffffffffffffff021916908373ffffffffffffffffffffffffffffffffffffffff1602179055505062000544565b60008060009054906101000a900473ffffffffffffffffffffffffffffffffffffffff169050816000806101000a81548173ffffffffffffffffffffffffffffffffffffffff021916908373ffffffffffffffffffffffffffffffffffffffff1602179055508173ffffffffffffffffffffffffffffffffffffffff168173ffffffffffffffffffffffffffffffffffffffff167f8be0079c531659141344cd1fd0a4f28419497f9722a3daafe3b4186f6b6457e060405160405180910390a35050565b6000604051905090565b600080fd5b600080fd5b6000601f19601f8301169050919050565b7f4e487b7100000000000000000000000000000000000000000000000000000000600052604160045260246000fd5b620002ea826200029f565b810181811067ffffffffffffffff821117156200030c576200030b620002b0565b5b80604052505050565b6000620003216200028b565b90506200032f8282620002df565b919050565b600073ffffffffffffffffffffffffffffffffffffffff82169050919050565b6000620003618262000334565b9050919050565b620003738162000354565b81146200037f57600080fd5b50565b600081519050620003938162000368565b92915050565b6000819050919050565b620003ae8162000399565b8114620003ba57600080fd5b50565b600081519050620003ce81620003a3565b92915050565b60006101408284031215620003ee57620003ed6200029a565b5b620003fb61014062000315565b905060006200040d8482850162000382565b60008301525060206200042384828501620003bd565b60208301525060406200043984828501620003bd565b60408301525060606200044f84828501620003bd565b60608301525060806200046584828501620003bd565b60808301525060a06200047b84828501620003bd565b60a08301525060c06200049184828501620003bd565b60c08301525060e0620004a784828501620003bd565b60e083015250610100620004be84828501620003bd565b61010083015250610120620004d684828501620003bd565b6101208301525092915050565b60006101408284031215620004fd57620004fc62000295565b5b60006200050d84828501620003d4565b91505092915050565b620005218162000354565b82525050565b60006020820190506200053e600083018462000516565b92915050565b612e1880620005546000396000f3fe6080604052600436106101395760003560e01c80637ba6f458116100ab578063adbcfc2c1161006f578063adbcfc2c146103f8578063b5d5b5fa14610421578063bf9befb11461045e578063d216b0af14610489578063f2fde38b146104b2578063fc0c546a146104db57610140565b80637ba6f45814610325578063817b1cd2146103625780638456cb591461038d5780638da5cb5b146103a457806394905bf1146103cf57610140565b80633f4ba83a116100fd5780633f4ba83a14610233578063423362021461024a57806348a88706146102755780635c975abb146102b3578063715018a6146102de57806378bc1d3b146102f557610140565b8063010035af146101455780631303d4fb146101795780632e17de78146101a2578063308e401e146101cb5780633ebbcd801461020857610140565b3661014057005b600080fd5b34801561015157600080fd5b5061015a610506565b6040516101709a999897969594939291906120e8565b60405180910390f35b34801561018557600080fd5b506101a0600480360381019061019b91906121b5565b610568565b005b3480156101ae57600080fd5b506101c960048036038101906101c491906121b5565b610a2b565b005b3480156101d757600080fd5b506101f260048036038101906101ed919061220e565b610d13565b6040516101ff919061233b565b60405180910390f35b34801561021457600080fd5b5061021d610ff2565b60405161022a919061235d565b60405180910390f35b34801561023f57600080fd5b50610248610ff8565b005b34801561025657600080fd5b5061025f61100a565b60405161026c919061235d565b60405180910390f35b34801561028157600080fd5b5061029c60048036038101906102979190612378565b611010565b6040516102aa9291906123b8565b60405180910390f35b3480156102bf57600080fd5b506102c86110db565b6040516102d591906123fc565b60405180910390f35b3480156102ea57600080fd5b506102f36110f1565b005b61030f600480360381019061030a919061243c565b611105565b60405161031c919061235d565b60405180910390f35b34801561033157600080fd5b5061034c6004803603810190610347919061220e565b6112a2565b604051610359919061267f565b60405180910390f35b34801561036e57600080fd5b5061037761150c565b604051610384919061235d565b60405180910390f35b34801561039957600080fd5b506103a2611512565b005b3480156103b057600080fd5b506103b9611524565b6040516103c691906126a1565b60405180910390f35b3480156103db57600080fd5b506103f660048036038101906103f191906126bc565b61154d565b005b34801561040457600080fd5b5061041f600480360381019061041a91906126bc565b611638565b005b34801561042d57600080fd5b50610448600480360381019061044391906126bc565b61168b565b604051610455919061235d565b60405180910390f35b34801561046a57600080fd5b506104736116bc565b604051610480919061235d565b60405180910390f35b34801561049557600080fd5b506104b060048036038101906104ab91906121b5565b6116c2565b005b3480156104be57600080fd5b506104d960048036038101906104d4919061220e565b61170e565b005b3480156104e757600080fd5b506104f0611794565b6040516104fd919061275b565b60405180910390f35b60098060000160009054906101000a900473ffffffffffffffffffffffffffffffffffffffff1690806001015490806002015490806003015490806004015490806005015490806006015490806007015490806008015490806009015490508a565b6105706117ba565b610578611800565b3373ffffffffffffffffffffffffffffffffffffffff16600482815481106105a3576105a2612776565b5b90600052602060002090600e0201600a0160009054906101000a900473ffffffffffffffffffffffffffffffffffffffff1673ffffffffffffffffffffffffffffffffffffffff161461062b576040517f08c379a000000000000000000000000000000000000000000000000000000000815260040161062290612802565b60405180910390fd5b4260096001015410610672576040517f08c379a00000000000000000000000000000000000000000000000000000000081526004016106699061286e565b60405180910390fd5b60006004828154811061068857610687612776565b5b90600052602060002090600e0201905080600a0160149054906101000a900460ff16156106ea576040517f08c379a00000000000000000000000000000000000000000000000000000000081526004016106e1906128da565b60405180910390fd5b60006107f582604051806101e001604052908160008201548152602001600182015481526020016002820154815260200160038201548152602001600482015481526020016005820154815260200160068201548152602001600782015481526020016008820154815260200160098201548152602001600a820160009054906101000a900473ffffffffffffffffffffffffffffffffffffffff1673ffffffffffffffffffffffffffffffffffffffff1673ffffffffffffffffffffffffffffffffffffffff168152602001600a820160149054906101000a900460ff16151515158152602001600b8201548152602001600c8201548152602001600d8201548152505084611841565b905060008160000151118061080e575060008160200151115b61084d576040517f08c379a000000000000000000000000000000000000000000000000000000000815260040161084490612946565b60405180910390fd5b60008160000151905060008260200151905082600001518460060160008282546108779190612995565b9250508190555082602001518460070160008282546108969190612995565b925050819055504284600d01819055503373ffffffffffffffffffffffffffffffffffffffff166108fc839081150290604051600060405180830381858888f193505050501580156108ec573d6000803e3d6000fd5b50600260009054906101000a900473ffffffffffffffffffffffffffffffffffffffff1673ffffffffffffffffffffffffffffffffffffffff1663a9059cbb33836040518363ffffffff1660e01b815260040161094a9291906129c9565b6020604051808303816000875af1158015610969573d6000803e3d6000fd5b505050506040513d601f19601f8201168201806040525081019061098d9190612a1e565b6109cc576040517f08c379a00000000000000000000000000000000000000000000000000000000081526004016109c390612a97565b60405180910390fd5b3373ffffffffffffffffffffffffffffffffffffffff167f70de20a533702af05c8faf1637846c4586a021bbc71b6928b089b6d555e4fbc28383604051610a149291906123b8565b60405180910390a250505050610a28611951565b50565b610a336117ba565b610a3b611800565b600060048281548110610a5157610a50612776565b5b90600052602060002090600e0201905080600a0160149054906101000a900460ff1615610ab3576040517f08c379a0000000000000000000000000000000000000000000000000000000008152600401610aaa906128da565b60405180910390fd5b42816002015410610af9576040517f08c379a0000000000000000000000000000000000000000000000000000000008152600401610af090612b03565b60405180910390fd5b3373ffffffffffffffffffffffffffffffffffffffff1681600a0160009054906101000a900473ffffffffffffffffffffffffffffffffffffffff1673ffffffffffffffffffffffffffffffffffffffff1614610b8b576040517f08c379a0000000000000000000000000000000000000000000000000000000008152600401610b8290612802565b60405180910390fd5b600181600a0160146101000a81548160ff021916908315150217905550600260009054906101000a900473ffffffffffffffffffffffffffffffffffffffff1673ffffffffffffffffffffffffffffffffffffffff1663a9059cbb3383600001546040518363ffffffff1660e01b8152600401610c099291906129c9565b6020604051808303816000875af1158015610c28573d6000803e3d6000fd5b505050506040513d601f19601f82011682018060405250810190610c4c9190612a1e565b610c8b576040517f08c379a0000000000000000000000000000000000000000000000000000000008152600401610c8290612a97565b60405180910390fd5b3373ffffffffffffffffffffffffffffffffffffffff167f204fccf0d92ed8d48f204adb39b2e81e92bad0dedb93f5716ca9478cfb57de00826000015483600601548460030154610cdc9190612b23565b84600701548560040154610cf09190612b23565b604051610cff93929190612b57565b60405180910390a250610d10611951565b50565b60606000600360008473ffffffffffffffffffffffffffffffffffffffff1673ffffffffffffffffffffffffffffffffffffffff168152602001908152602001600020805480602002602001604051908101604052809291908181526020018280548015610da057602002820191906000526020600020905b815481526020019060010190808311610d8c575b50505050509050805167ffffffffffffffff811115610dc257610dc1612b8e565b5b604051908082528060200260200182016040528015610dfb57816020015b610de8611fdf565b815260200190600190039081610de05790505b50915060005b8151811015610feb576004828281518110610e1f57610e1e612776565b5b602002602001015181548110610e3857610e37612776565b5b90600052602060002090600e0201600a0160149054906101000a900460ff16610fde5760006004838381518110610e7257610e71612776565b5b602002602001015181548110610e8b57610e8a612776565b5b90600052602060002090600e0201604051806101e001604052908160008201548152602001600182015481526020016002820154815260200160038201548152602001600482015481526020016005820154815260200160068201548152602001600782015481526020016008820154815260200160098201548152602001600a820160009054906101000a900473ffffffffffffffffffffffffffffffffffffffff1673ffffffffffffffffffffffffffffffffffffffff1673ffffffffffffffffffffffffffffffffffffffff168152602001600a820160149054906101000a900460ff16151515158152602001600b8201548152602001600c8201548152602001600d820154815250509050610fbe81848481518110610fb157610fb0612776565b5b6020026020010151611841565b848381518110610fd157610fd0612776565b5b6020026020010181905250505b8080600101915050610e01565b5050919050565b60065481565b61100061195a565b6110086119e1565b565b60075481565b60008060006103e8905060006301e1338085836009600501546110339190612bbd565b61103d9190612bbd565b6110479190612c2e565b905060006301e1338086846009600601546110629190612bbd565b61106c9190612bbd565b6110769190612c2e565b905082606482896110879190612bbd565b6110919190612c2e565b61109b9190612c2e565b93506009800154836064848a6110b19190612bbd565b6110bb9190612c2e565b6110c59190612c2e565b6110cf9190612c2e565b94505050509250929050565b60008060149054906101000a900460ff16905090565b6110f961195a565b6111036000611a43565b565b600061110f6117ba565b611117611800565b60096001015442101561115f576040517f08c379a00000000000000000000000000000000000000000000000000000000081526004016111569061286e565b60405180910390fd5b6009600201544211156111a7576040517f08c379a000000000000000000000000000000000000000000000000000000000815260040161119e90612cab565b60405180910390fd5b600260009054906101000a900473ffffffffffffffffffffffffffffffffffffffff1673ffffffffffffffffffffffffffffffffffffffff166323b872dd3330866040518463ffffffff1660e01b815260040161120693929190612ccb565b6020604051808303816000875af1158015611225573d6000803e3d6000fd5b505050506040513d601f19601f820116820180604052508101906112499190612a1e565b611288576040517f08c379a000000000000000000000000000000000000000000000000000000000815260040161127f90612a97565b60405180910390fd5b6112928383611b07565b905061129c611951565b92915050565b60606000600360008473ffffffffffffffffffffffffffffffffffffffff1673ffffffffffffffffffffffffffffffffffffffff16815260200190815260200160002080548060200260200160405190810160405280929190818152602001828054801561132f57602002820191906000526020600020905b81548152602001906001019080831161131b575b505050505090506000815167ffffffffffffffff81111561135357611352612b8e565b5b60405190808252806020026020018201604052801561138c57816020015b611379612000565b8152602001906001900390816113715790505b50905060005b82518110156115015760048382815181106113b0576113af612776565b5b6020026020010151815481106113c9576113c8612776565b5b90600052602060002090600e0201604051806101e001604052908160008201548152602001600182015481526020016002820154815260200160038201548152602001600482015481526020016005820154815260200160068201548152602001600782015481526020016008820154815260200160098201548152602001600a820160009054906101000a900473ffffffffffffffffffffffffffffffffffffffff1673ffffffffffffffffffffffffffffffffffffffff1673ffffffffffffffffffffffffffffffffffffffff168152602001600a820160149054906101000a900460ff16151515158152602001600b8201548152602001600c8201548152602001600d820154815250508282815181106114e9576114e8612776565b5b60200260200101819052508080600101915050611392565b508092505050919050565b60055481565b61151a61195a565b611522611e52565b565b60008060009054906101000a900473ffffffffffffffffffffffffffffffffffffffff16905090565b61155561195a565b600260009054906101000a900473ffffffffffffffffffffffffffffffffffffffff1673ffffffffffffffffffffffffffffffffffffffff1663a9059cbb83836040518363ffffffff1660e01b81526004016115b29291906129c9565b6020604051808303816000875af11580156115d1573d6000803e3d6000fd5b505050506040513d601f19601f820116820180604052508101906115f59190612a1e565b611634576040517f08c379a000000000000000000000000000000000000000000000000000000000815260040161162b90612a97565b60405180910390fd5b5050565b61164061195a565b8173ffffffffffffffffffffffffffffffffffffffff166108fc829081150290604051600060405180830381858888f19350505050158015611686573d6000803e3d6000fd5b505050565b600360205281600052604060002081815481106116a757600080fd5b90600052602060002001600091509150505481565b60085481565b6116ca61195a565b806009600401819055507ff4045d7dd317de89564c3f12c35961242ed2a4dce3ae4e7a75847ffa04bb083481604051611703919061235d565b60405180910390a150565b61171661195a565b600073ffffffffffffffffffffffffffffffffffffffff168173ffffffffffffffffffffffffffffffffffffffff16036117885760006040517f1e4fbdf700000000000000000000000000000000000000000000000000000000815260040161177f91906126a1565b60405180910390fd5b61179181611a43565b50565b600260009054906101000a900473ffffffffffffffffffffffffffffffffffffffff1681565b6002600154036117f6576040517f3ee5aeb500000000000000000000000000000000000000000000000000000000815260040160405180910390fd5b6002600181905550565b6118086110db565b1561183f576040517fd93c066500000000000000000000000000000000000000000000000000000000815260040160405180910390fd5b565b611849611fdf565b60006103e890506000846101c00151426118639190612b23565b905060006301e13380828488610180015161187e9190612bbd565b6118889190612bbd565b6118929190612c2e565b905060006301e133808385896101a001516118ad9190612bbd565b6118b79190612bbd565b6118c19190612c2e565b905060006009800154856064858b600001516118dd9190612bbd565b6118e79190612c2e565b6118f19190612c2e565b6118fb9190612c2e565b90506000856064848b600001516119129190612bbd565b61191c9190612c2e565b6119269190612c2e565b9050604051806060016040528083815260200182815260200189815250965050505050505092915050565b60018081905550565b611962611eb5565b73ffffffffffffffffffffffffffffffffffffffff16611980611524565b73ffffffffffffffffffffffffffffffffffffffff16146119df576119a3611eb5565b6040517f118cdaa70000000000000000000000000000000000000000000000000000000081526004016119d691906126a1565b60405180910390fd5b565b6119e9611ebd565b60008060146101000a81548160ff0219169083151502179055507f5db9ee0a495bf2e6ff9c91a7834c1ba4fdd244a5e8aa4e537bd38aeae4b073aa611a2c611eb5565b604051611a3991906126a1565b60405180910390a1565b60008060009054906101000a900473ffffffffffffffffffffffffffffffffffffffff169050816000806101000a81548173ffffffffffffffffffffffffffffffffffffffff021916908373ffffffffffffffffffffffffffffffffffffffff1602179055508173ffffffffffffffffffffffffffffffffffffffff168173ffffffffffffffffffffffffffffffffffffffff167f8be0079c531659141344cd1fd0a4f28419497f9722a3daafe3b4186f6b6457e060405160405180910390a35050565b6000600960040154831015611b51576040517f08c379a0000000000000000000000000000000000000000000000000000000008152600401611b4890612d4e565b60405180910390fd5b6000611b5c83611efd565b9050600080611b6b8684611010565b9150915060048054905093506004604051806101e001604052808881526020014281526020018542611b9d9190612995565b8152602001848152602001838152602001858152602001600081526020016000815260200160008152602001600081526020013373ffffffffffffffffffffffffffffffffffffffff168152602001600015158152602001600960050154815260200160096006015481526020014281525090806001815401808255809150506001900390600052602060002090600e0201600090919091909150600082015181600001556020820151816001015560408201518160020155606082015181600301556080820151816004015560a0820151816005015560c0820151816006015560e082015181600701556101008201518160080155610120820151816009015561014082015181600a0160006101000a81548173ffffffffffffffffffffffffffffffffffffffff021916908373ffffffffffffffffffffffffffffffffffffffff16021790555061016082015181600a0160146101000a81548160ff02191690831515021790555061018082015181600b01556101a082015181600c01556101c082015181600d01555050600360003373ffffffffffffffffffffffffffffffffffffffff1673ffffffffffffffffffffffffffffffffffffffff1681526020019081526020016000208490806001815401808255809150506001900390600052602060002001600090919091909150558560056000828254611da29190612995565b925050819055508160066000828254611dbb9190612995565b925050819055508060076000828254611dd49190612995565b92505081905550600160086000828254611dee9190612995565b925050819055503373ffffffffffffffffffffffffffffffffffffffff167f9cfd25589d1eb8ad71e342a86a8524e83522e3936c0803048c08f6d9ad974f4087858585604051611e419493929190612d6e565b60405180910390a250505092915050565b611e5a611800565b6001600060146101000a81548160ff0219169083151502179055507f62e78cea01bee320cd4e420270b5ea74000d11b0c9f74754ebdbfc544b05a258611e9e611eb5565b604051611eab91906126a1565b60405180910390a1565b600033905090565b611ec56110db565b611efb576040517f8dfc202b00000000000000000000000000000000000000000000000000000000815260040160405180910390fd5b565b6000806003811115611f1257611f11612db3565b5b826003811115611f2557611f24612db3565b5b03611f355762278d009050611fda565b60016003811115611f4957611f48612db3565b5b826003811115611f5c57611f5b612db3565b5b03611f6c57623b53809050611fda565b60026003811115611f8057611f7f612db3565b5b826003811115611f9357611f92612db3565b5b03611fa357624f1a009050611fda565b600380811115611fb657611fb5612db3565b5b826003811115611fc957611fc8612db3565b5b03611fd9576276a7009050611fda565b5b919050565b60405180606001604052806000815260200160008152602001600081525090565b604051806101e0016040528060008152602001600081526020016000815260200160008152602001600081526020016000815260200160008152602001600081526020016000815260200160008152602001600073ffffffffffffffffffffffffffffffffffffffff1681526020016000151581526020016000815260200160008152602001600081525090565b600073ffffffffffffffffffffffffffffffffffffffff82169050919050565b60006120b98261208e565b9050919050565b6120c9816120ae565b82525050565b6000819050919050565b6120e2816120cf565b82525050565b6000610140820190506120fe600083018d6120c0565b61210b602083018c6120d9565b612118604083018b6120d9565b612125606083018a6120d9565b61213260808301896120d9565b61213f60a08301886120d9565b61214c60c08301876120d9565b61215960e08301866120d9565b6121676101008301856120d9565b6121756101208301846120d9565b9b9a5050505050505050505050565b600080fd5b612192816120cf565b811461219d57600080fd5b50565b6000813590506121af81612189565b92915050565b6000602082840312156121cb576121ca612184565b5b60006121d9848285016121a0565b91505092915050565b6121eb816120ae565b81146121f657600080fd5b50565b600081359050612208816121e2565b92915050565b60006020828403121561222457612223612184565b5b6000612232848285016121f9565b91505092915050565b600081519050919050565b600082825260208201905092915050565b6000819050602082019050919050565b612270816120cf565b82525050565b60608201600082015161228c6000850182612267565b50602082015161229f6020850182612267565b5060408201516122b26040850182612267565b50505050565b60006122c48383612276565b60608301905092915050565b6000602082019050919050565b60006122e88261223b565b6122f28185612246565b93506122fd83612257565b8060005b8381101561232e57815161231588826122b8565b9750612320836122d0565b925050600181019050612301565b5085935050505092915050565b6000602082019050818103600083015261235581846122dd565b905092915050565b600060208201905061237260008301846120d9565b92915050565b6000806040838503121561238f5761238e612184565b5b600061239d858286016121a0565b92505060206123ae858286016121a0565b9150509250929050565b60006040820190506123cd60008301856120d9565b6123da60208301846120d9565b9392505050565b60008115159050919050565b6123f6816123e1565b82525050565b600060208201905061241160008301846123ed565b92915050565b6004811061242457600080fd5b50565b60008135905061243681612417565b92915050565b6000806040838503121561245357612452612184565b5b6000612461858286016121a0565b925050602061247285828601612427565b9150509250929050565b600081519050919050565b600082825260208201905092915050565b6000819050602082019050919050565b6124b1816120ae565b82525050565b6124c0816123e1565b82525050565b6101e0820160008201516124dd6000850182612267565b5060208201516124f06020850182612267565b5060408201516125036040850182612267565b5060608201516125166060850182612267565b5060808201516125296080850182612267565b5060a082015161253c60a0850182612267565b5060c082015161254f60c0850182612267565b5060e082015161256260e0850182612267565b50610100820151612577610100850182612267565b5061012082015161258c610120850182612267565b506101408201516125a16101408501826124a8565b506101608201516125b66101608501826124b7565b506101808201516125cb610180850182612267565b506101a08201516125e06101a0850182612267565b506101c08201516125f56101c0850182612267565b50505050565b600061260783836124c6565b6101e08301905092915050565b6000602082019050919050565b600061262c8261247c565b6126368185612487565b935061264183612498565b8060005b8381101561267257815161265988826125fb565b975061266483612614565b925050600181019050612645565b5085935050505092915050565b600060208201905081810360008301526126998184612621565b905092915050565b60006020820190506126b660008301846120c0565b92915050565b600080604083850312156126d3576126d2612184565b5b60006126e1858286016121f9565b92505060206126f2858286016121a0565b9150509250929050565b6000819050919050565b600061272161271c6127178461208e565b6126fc565b61208e565b9050919050565b600061273382612706565b9050919050565b600061274582612728565b9050919050565b6127558161273a565b82525050565b6000602082019050612770600083018461274c565b92915050565b7f4e487b7100000000000000000000000000000000000000000000000000000000600052603260045260246000fd5b600082825260208201905092915050565b7f4e6f74206f776e65720000000000000000000000000000000000000000000000600082015250565b60006127ec6009836127a5565b91506127f7826127b6565b602082019050919050565b6000602082019050818103600083015261281b816127df565b9050919050565b7f5374616b696e67206e6f74207374617274656400000000000000000000000000600082015250565b60006128586013836127a5565b915061286382612822565b602082019050919050565b600060208201905081810360008301526128878161284b565b9050919050565b7f416c726561647920756e7374616b656400000000000000000000000000000000600082015250565b60006128c46010836127a5565b91506128cf8261288e565b602082019050919050565b600060208201905081810360008301526128f3816128b7565b9050919050565b7f4e6f207265776172647320746f20636c61696d00000000000000000000000000600082015250565b60006129306013836127a5565b915061293b826128fa565b602082019050919050565b6000602082019050818103600083015261295f81612923565b9050919050565b7f4e487b7100000000000000000000000000000000000000000000000000000000600052601160045260246000fd5b60006129a0826120cf565b91506129ab836120cf565b92508282019050808211156129c3576129c2612966565b5b92915050565b60006040820190506129de60008301856120c0565b6129eb60208301846120d9565b9392505050565b6129fb816123e1565b8114612a0657600080fd5b50565b600081519050612a18816129f2565b92915050565b600060208284031215612a3457612a33612184565b5b6000612a4284828501612a09565b91505092915050565b7f5472616e73666572206661696c65640000000000000000000000000000000000600082015250565b6000612a81600f836127a5565b9150612a8c82612a4b565b602082019050919050565b60006020820190508181036000830152612ab081612a74565b9050919050565b7f5374616b65206e6f74206d617475726564000000000000000000000000000000600082015250565b6000612aed6011836127a5565b9150612af882612ab7565b602082019050919050565b60006020820190508181036000830152612b1c81612ae0565b9050919050565b6000612b2e826120cf565b9150612b39836120cf565b9250828203905081811115612b5157612b50612966565b5b92915050565b6000606082019050612b6c60008301866120d9565b612b7960208301856120d9565b612b8660408301846120d9565b949350505050565b7f4e487b7100000000000000000000000000000000000000000000000000000000600052604160045260246000fd5b6000612bc8826120cf565b9150612bd3836120cf565b9250828202612be1816120cf565b91508282048414831517612bf857612bf7612966565b5b5092915050565b7f4e487b7100000000000000000000000000000000000000000000000000000000600052601260045260246000fd5b6000612c39826120cf565b9150612c44836120cf565b925082612c5457612c53612bff565b5b828204905092915050565b7f5374616b696e6720656e64656400000000000000000000000000000000000000600082015250565b6000612c95600d836127a5565b9150612ca082612c5f565b602082019050919050565b60006020820190508181036000830152612cc481612c88565b9050919050565b6000606082019050612ce060008301866120c0565b612ced60208301856120c0565b612cfa60408301846120d9565b949350505050565b7f4d696e696d756d207374616b65206e6f74206d65740000000000000000000000600082015250565b6000612d386015836127a5565b9150612d4382612d02565b602082019050919050565b60006020820190508181036000830152612d6781612d2b565b9050919050565b6000608082019050612d8360008301876120d9565b612d9060208301866120d9565b612d9d60408301856120d9565b612daa60608301846120d9565b95945050505050565b7f4e487b7100000000000000000000000000000000000000000000000000000000600052602160045260246000fdfea2646970667358221220590ff3d4b93c4319c0715dd53916051ae5505fe0d651b7ee4bc9201ddce33d1864736f6c63430008180033a26469706673582212200314491787c8a7e08671e7f76d0dd02b08c5a2788d39944aa72a904cb932885c64736f6c63430008180033",
  "linkReferences": {},
  "deployedLinkReferences": {}
}