{
  "_format": "hh-sol-artifact-1",
  "contractName": "ThrustpadStakerFactory",
  "sourceName": "contracts/staking/ThrustpadStakerFactory.sol",
  "abi": [
    {
      "anonymous": false,
      "inputs": [
        {
          "indexed": true,
          "internalType": "address",
          "name": "creator",
          "type": "address"
        },
        {
          "indexed": true,
          "internalType": "address",
          "name": "token",
          "type": "address"
        },
        {
          "indexed": true,
          "internalType": "address",
          "name": "staker",
          "type": "address"
        }
      ],
      "name": "NewStaking",
      "type": "event"
    },
    {
      "inputs": [
        {
          "internalType": "address",
          "name": "",
          "type": "address"
        },
        {
          "internalType": "uint256",
          "name": "",
          "type": "uint256"
        }
      ],
      "name": "deployedStakers",
      "outputs": [
        {
          "internalType": "address",
          "name": "",
          "type": "address"
        }
      ],
      "stateMutability": "view",
      "type": "function"
    },
    {
      "inputs": [
        {
          "internalType": "bytes",
          "name": "bytecode",
          "type": "bytes"
        },
        {
          "internalType": "uint256",
          "name": "salt",
          "type": "uint256"
        }
      ],
      "name": "getAddressCreate2",
      "outputs": [
        {
          "internalType": "address",
          "name": "",
          "type": "address"
        }
      ],
      "stateMutability": "view",
      "type": "function"
    },
    {
      "inputs": [
        {
          "components": [
            {
              "internalType": "address",
              "name": "token",
              "type": "address"
            },
            {
              "internalType": "uint256",
              "name": "startDate",
              "type": "uint256"
            },
            {
              "internalType": "uint256",
              "name": "endDate",
              "type": "uint256"
            },
            {
              "internalType": "uint256",
              "name": "hardCap",
              "type": "uint256"
            },
            {
              "internalType": "uint256",
              "name": "minTokenStake",
              "type": "uint256"
            },
            {
              "internalType": "uint256",
              "name": "apyEdu",
              "type": "uint256"
            },
            {
              "internalType": "uint256",
              "name": "apyToken",
              "type": "uint256"
            },
            {
              "internalType": "uint256",
              "name": "rewardPoolToken",
              "type": "uint256"
            },
            {
              "internalType": "uint256",
              "name": "rewardPoolEDU",
              "type": "uint256"
            },
            {
              "internalType": "uint256",
              "name": "tokenToEDURate",
              "type": "uint256"
            }
          ],
          "internalType": "struct stakeOption",
          "name": "option",
          "type": "tuple"
        }
      ],
      "name": "getBytecode",
      "outputs": [
        {
          "internalType": "bytes",
          "name": "",
          "type": "bytes"
        }
      ],
      "stateMutability": "pure",
      "type": "function"
    },
    {
      "inputs": [
        {
          "internalType": "address",
          "name": "creator",
          "type": "address"
        }
      ],
      "name": "getdeployedStakers",
      "outputs": [
        {
          "internalType": "address[]",
          "name": "",
          "type": "address[]"
        }
      ],
      "stateMutability": "view",
      "type": "function"
    },
    {
      "inputs": [
        {
          "internalType": "address",
          "name": "creator",
          "type": "address"
        }
      ],
      "name": "getdeployedStakersLen",
      "outputs": [
        {
          "internalType": "uint256",
          "name": "",
          "type": "uint256"
        }
      ],
      "stateMutability": "view",
      "type": "function"
    },
    {
      "inputs": [
        {
          "components": [
            {
              "internalType": "address",
              "name": "token",
              "type": "address"
            },
            {
              "internalType": "uint256",
              "name": "startDate",
              "type": "uint256"
            },
            {
              "internalType": "uint256",
              "name": "endDate",
              "type": "uint256"
            },
            {
              "internalType": "uint256",
              "name": "hardCap",
              "type": "uint256"
            },
            {
              "internalType": "uint256",
              "name": "minTokenStake",
              "type": "uint256"
            },
            {
              "internalType": "uint256",
              "name": "apyEdu",
              "type": "uint256"
            },
            {
              "internalType": "uint256",
              "name": "apyToken",
              "type": "uint256"
            },
            {
              "internalType": "uint256",
              "name": "rewardPoolToken",
              "type": "uint256"
            },
            {
              "internalType": "uint256",
              "name": "rewardPoolEDU",
              "type": "uint256"
            },
            {
              "internalType": "uint256",
              "name": "tokenToEDURate",
              "type": "uint256"
            }
          ],
          "internalType": "struct stakeOption",
          "name": "option",
          "type": "tuple"
        }
      ],
      "name": "newStaker",
      "outputs": [
        {
          "internalType": "address",
          "name": "",
          "type": "address"
        }
      ],
      "stateMutability": "payable",
      "type": "function"
    }
  ],
  "bytecode": "0x608060405234801561001057600080fd5b50614a54806100206000396000f3fe6080604052600436106200005c5760003560e01c80631f07a41e146200006157806332b6cfb214620000a557806337807fd614620000e957806357f59948146200012d5780639f886f261462000163578063c763f7a714620001a7575b600080fd5b3480156200006e57600080fd5b506200008d600480360381019062000087919062000919565b620001eb565b6040516200009c919062000a19565b60405180910390f35b348015620000b257600080fd5b50620000d16004803603810190620000cb919062000c21565b620002b9565b604051620000e0919062000cdd565b60405180910390f35b348015620000f657600080fd5b506200011560048036038101906200010f919062000d01565b62000332565b60405162000124919062000d59565b60405180910390f35b6200014b600480360381019062000145919062000c21565b62000381565b6040516200015a919062000d59565b60405180910390f35b3480156200017057600080fd5b506200018f600480360381019062000189919062000e43565b620007fb565b6040516200019e919062000d59565b60405180910390f35b348015620001b457600080fd5b50620001d36004803603810190620001cd919062000919565b62000847565b604051620001e2919062000eba565b60405180910390f35b60606000808373ffffffffffffffffffffffffffffffffffffffff1673ffffffffffffffffffffffffffffffffffffffff168152602001908152602001600020805480602002602001604051908101604052809291908181526020018280548015620002ad57602002820191906000526020600020905b8160009054906101000a900473ffffffffffffffffffffffffffffffffffffffff1673ffffffffffffffffffffffffffffffffffffffff168152602001906001019080831162000262575b50505050509050919050565b6060600060405180602001620002cf9062000892565b6020820181038252601f19601f8201166040525090508083604051602001620002f9919062000fc8565b6040516020818303038152906040526040516020016200031b92919062001028565b604051602081830303815290604052915050919050565b600060205281600052604060002081815481106200034f57600080fd5b906000526020600020016000915091509054906101000a900473ffffffffffffffffffffffffffffffffffffffff1681565b600060028260a001511015620003ce576040517f08c379a0000000000000000000000000000000000000000000000000000000008152600401620003c590620010b1565b60405180910390fd5b60088260c00151101562000419576040517f08c379a0000000000000000000000000000000000000000000000000000000008152600401620004109062001123565b60405180910390fd5b6012826000015173ffffffffffffffffffffffffffffffffffffffff1663313ce5676040518163ffffffff1660e01b8152600401602060405180830381865afa1580156200046b573d6000803e3d6000fd5b505050506040513d601f19601f8201168201806040525081019062000491919062001183565b60ff1614620004d7576040517f08c379a0000000000000000000000000000000000000000000000000000000008152600401620004ce906200122b565b60405180910390fd5b600060648360c001518460600151620004f191906200127c565b620004fd9190620012f6565b9050600083610120015160648560a0015186606001516200051f91906200127c565b6200052b9190620012f6565b620005379190620012f6565b9050803410156200057f576040517f08c379a00000000000000000000000000000000000000000000000000000000081526004016200057690620013a4565b60405180910390fd5b8360e00151821015620005c9576040517f08c379a0000000000000000000000000000000000000000000000000000000008152600401620005c0906200143c565b60405180910390fd5b6000346000803373ffffffffffffffffffffffffffffffffffffffff1673ffffffffffffffffffffffffffffffffffffffff1681526020019081526020016000208054905060001b9086604051620006219062000892565b6200062d919062000fc8565b82906040518091039083f590509050801580156200064f573d6000803e3d6000fd5b5090506000803373ffffffffffffffffffffffffffffffffffffffff1673ffffffffffffffffffffffffffffffffffffffff168152602001908152602001600020819080600181540180825580915050600190039060005260206000200160009091909190916101000a81548173ffffffffffffffffffffffffffffffffffffffff021916908373ffffffffffffffffffffffffffffffffffffffff160217905550846000015173ffffffffffffffffffffffffffffffffffffffff166323b872dd33838860e001516040518463ffffffff1660e01b815260040162000738939291906200145e565b6020604051808303816000875af115801562000758573d6000803e3d6000fd5b505050506040513d601f19601f820116820180604052508101906200077e9190620014d8565b508073ffffffffffffffffffffffffffffffffffffffff168173ffffffffffffffffffffffffffffffffffffffff163373ffffffffffffffffffffffffffffffffffffffff167f99a53d54f4251977744f3244789e0336c21b251d2bc5c8142b38e7b614d6a32260405160405180910390a4809350505050919050565b60008060ff60f81b30848680519060200120604051602001620008229493929190620015ff565b6040516020818303038152906040528051906020012090508060001c91505092915050565b60008060008373ffffffffffffffffffffffffffffffffffffffff1673ffffffffffffffffffffffffffffffffffffffff168152602001908152602001600020805490509050919050565b6133c9806200165683390190565b6000604051905090565b600080fd5b600080fd5b600073ffffffffffffffffffffffffffffffffffffffff82169050919050565b6000620008e182620008b4565b9050919050565b620008f381620008d4565b8114620008ff57600080fd5b50565b6000813590506200091381620008e8565b92915050565b600060208284031215620009325762000931620008aa565b5b6000620009428482850162000902565b91505092915050565b600081519050919050565b600082825260208201905092915050565b6000819050602082019050919050565b6200098281620008d4565b82525050565b600062000996838362000977565b60208301905092915050565b6000602082019050919050565b6000620009bc826200094b565b620009c8818562000956565b9350620009d58362000967565b8060005b8381101562000a0c578151620009f0888262000988565b9750620009fd83620009a2565b925050600181019050620009d9565b5085935050505092915050565b6000602082019050818103600083015262000a358184620009af565b905092915050565b600080fd5b6000601f19601f8301169050919050565b7f4e487b7100000000000000000000000000000000000000000000000000000000600052604160045260246000fd5b62000a8d8262000a42565b810181811067ffffffffffffffff8211171562000aaf5762000aae62000a53565b5b80604052505050565b600062000ac4620008a0565b905062000ad2828262000a82565b919050565b6000819050919050565b62000aec8162000ad7565b811462000af857600080fd5b50565b60008135905062000b0c8162000ae1565b92915050565b6000610140828403121562000b2c5762000b2b62000a3d565b5b62000b3961014062000ab8565b9050600062000b4b8482850162000902565b600083015250602062000b618482850162000afb565b602083015250604062000b778482850162000afb565b604083015250606062000b8d8482850162000afb565b606083015250608062000ba38482850162000afb565b60808301525060a062000bb98482850162000afb565b60a08301525060c062000bcf8482850162000afb565b60c08301525060e062000be58482850162000afb565b60e08301525061010062000bfc8482850162000afb565b6101008301525061012062000c148482850162000afb565b6101208301525092915050565b6000610140828403121562000c3b5762000c3a620008aa565b5b600062000c4b8482850162000b12565b91505092915050565b600081519050919050565b600082825260208201905092915050565b60005b8381101562000c9057808201518184015260208101905062000c73565b60008484015250505050565b600062000ca98262000c54565b62000cb5818562000c5f565b935062000cc781856020860162000c70565b62000cd28162000a42565b840191505092915050565b6000602082019050818103600083015262000cf9818462000c9c565b905092915050565b6000806040838503121562000d1b5762000d1a620008aa565b5b600062000d2b8582860162000902565b925050602062000d3e8582860162000afb565b9150509250929050565b62000d5381620008d4565b82525050565b600060208201905062000d70600083018462000d48565b92915050565b600080fd5b600080fd5b600067ffffffffffffffff82111562000d9e5762000d9d62000a53565b5b62000da98262000a42565b9050602081019050919050565b82818337600083830152505050565b600062000ddc62000dd68462000d80565b62000ab8565b90508281526020810184848401111562000dfb5762000dfa62000d7b565b5b62000e0884828562000db6565b509392505050565b600082601f83011262000e285762000e2762000d76565b5b813562000e3a84826020860162000dc5565b91505092915050565b6000806040838503121562000e5d5762000e5c620008aa565b5b600083013567ffffffffffffffff81111562000e7e5762000e7d620008af565b5b62000e8c8582860162000e10565b925050602062000e9f8582860162000afb565b9150509250929050565b62000eb48162000ad7565b82525050565b600060208201905062000ed1600083018462000ea9565b92915050565b62000ee28162000ad7565b82525050565b6101408201600082015162000f01600085018262000977565b50602082015162000f16602085018262000ed7565b50604082015162000f2b604085018262000ed7565b50606082015162000f40606085018262000ed7565b50608082015162000f55608085018262000ed7565b5060a082015162000f6a60a085018262000ed7565b5060c082015162000f7f60c085018262000ed7565b5060e082015162000f9460e085018262000ed7565b5061010082015162000fab61010085018262000ed7565b5061012082015162000fc261012085018262000ed7565b50505050565b60006101408201905062000fe0600083018462000ee8565b92915050565b600081905092915050565b600062000ffe8262000c54565b6200100a818562000fe6565b93506200101c81856020860162000c70565b80840191505092915050565b600062001036828562000ff1565b915062001044828462000ff1565b91508190509392505050565b600082825260208201905092915050565b7f41505920454455206d7573742062652067726561746572207468616e20320000600082015250565b600062001099601e8362001050565b9150620010a68262001061565b602082019050919050565b60006020820190508181036000830152620010cc816200108a565b9050919050565b7f41505920546f6b656e206d7573742062652067726561746572207468616e2038600082015250565b60006200110b60208362001050565b91506200111882620010d3565b602082019050919050565b600060208201905081810360008301526200113e81620010fc565b9050919050565b600060ff82169050919050565b6200115d8162001145565b81146200116957600080fd5b50565b6000815190506200117d8162001152565b92915050565b6000602082840312156200119c576200119b620008aa565b5b6000620011ac848285016200116c565b91505092915050565b7f5468727573747061645374616b6572466163746f72793a20746f6b656e206d7560008201527f7374206861766520313820646563696d616c7300000000000000000000000000602082015250565b60006200121360338362001050565b91506200122082620011b5565b604082019050919050565b60006020820190508181036000830152620012468162001204565b9050919050565b7f4e487b7100000000000000000000000000000000000000000000000000000000600052601160045260246000fd5b6000620012898262000ad7565b9150620012968362000ad7565b9250828202620012a68162000ad7565b91508282048414831517620012c057620012bf6200124d565b5b5092915050565b7f4e487b7100000000000000000000000000000000000000000000000000000000600052601260045260246000fd5b6000620013038262000ad7565b9150620013108362000ad7565b925082620013235762001322620012c7565b5b828204905092915050565b7f454455206465706f73697420746f20636f766572207969656c6473207061796f60008201527f7574206e6f7420656e6f75676800000000000000000000000000000000000000602082015250565b60006200138c602d8362001050565b915062001399826200132e565b604082019050919050565b60006020820190508181036000830152620013bf816200137d565b9050919050565b7f4465706f73697420746f6b656e7320746f20636f766572207969656c6473207060008201527f61796f7574206e6f7420656e6f75676800000000000000000000000000000000602082015250565b60006200142460308362001050565b91506200143182620013c6565b604082019050919050565b60006020820190508181036000830152620014578162001415565b9050919050565b600060608201905062001475600083018662000d48565b62001484602083018562000d48565b62001493604083018462000ea9565b949350505050565b60008115159050919050565b620014b2816200149b565b8114620014be57600080fd5b50565b600081519050620014d281620014a7565b92915050565b600060208284031215620014f157620014f0620008aa565b5b60006200150184828501620014c1565b91505092915050565b60007fff0000000000000000000000000000000000000000000000000000000000000082169050919050565b6000819050919050565b620015556200154f826200150a565b62001536565b82525050565b60008160601b9050919050565b600062001575826200155b565b9050919050565b6000620015898262001568565b9050919050565b620015a56200159f82620008d4565b6200157c565b82525050565b6000819050919050565b620015ca620015c48262000ad7565b620015ab565b82525050565b6000819050919050565b6000819050919050565b620015f9620015f382620015d0565b620015da565b82525050565b60006200160d828762001540565b6001820191506200161f828662001590565b601482019150620016318285620015b5565b602082019150620016438284620015e4565b6020820191508190509594505050505056fe6080604052604051620033c9380380620033c98339818101604052810190620000299190620004e3565b32600073ffffffffffffffffffffffffffffffffffffffff168173ffffffffffffffffffffffffffffffffffffffff16036200009f5760006040517f1e4fbdf700000000000000000000000000000000000000000000000000000000815260040162000096919062000527565b60405180910390fd5b620000b081620001c760201b60201c565b5060008060146101000a81548160ff0219169083151502179055506001808190555080600960008201518160000160006101000a81548173ffffffffffffffffffffffffffffffffffffffff021916908373ffffffffffffffffffffffffffffffffffffffff1602179055506020820151816001015560408201518160020155606082015181600301556080820151816004015560a0820151816005015560c0820151816006015560e08201518160070155610100820151816008015561012082015181600901559050508060000151600260006101000a81548173ffffffffffffffffffffffffffffffffffffffff021916908373ffffffffffffffffffffffffffffffffffffffff1602179055505062000544565b60008060009054906101000a900473ffffffffffffffffffffffffffffffffffffffff169050816000806101000a81548173ffffffffffffffffffffffffffffffffffffffff021916908373ffffffffffffffffffffffffffffffffffffffff1602179055508173ffffffffffffffffffffffffffffffffffffffff168173ffffffffffffffffffffffffffffffffffffffff167f8be0079c531659141344cd1fd0a4f28419497f9722a3daafe3b4186f6b6457e060405160405180910390a35050565b6000604051905090565b600080fd5b600080fd5b6000601f19601f8301169050919050565b7f4e487b7100000000000000000000000000000000000000000000000000000000600052604160045260246000fd5b620002ea826200029f565b810181811067ffffffffffffffff821117156200030c576200030b620002b0565b5b80604052505050565b6000620003216200028b565b90506200032f8282620002df565b919050565b600073ffffffffffffffffffffffffffffffffffffffff82169050919050565b6000620003618262000334565b9050919050565b620003738162000354565b81146200037f57600080fd5b50565b600081519050620003938162000368565b92915050565b6000819050919050565b620003ae8162000399565b8114620003ba57600080fd5b50565b600081519050620003ce81620003a3565b92915050565b60006101408284031215620003ee57620003ed6200029a565b5b620003fb61014062000315565b905060006200040d8482850162000382565b60008301525060206200042384828501620003bd565b60208301525060406200043984828501620003bd565b60408301525060606200044f84828501620003bd565b60608301525060806200046584828501620003bd565b60808301525060a06200047b84828501620003bd565b60a08301525060c06200049184828501620003bd565b60c08301525060e0620004a784828501620003bd565b60e083015250610100620004be84828501620003bd565b61010083015250610120620004d684828501620003bd565b6101208301525092915050565b60006101408284031215620004fd57620004fc62000295565b5b60006200050d84828501620003d4565b91505092915050565b620005218162000354565b82525050565b60006020820190506200053e600083018462000516565b92915050565b612e7580620005546000396000f3fe6080604052600436106101445760003560e01c806378bc1d3b116100b6578063aa9a196f1161006f578063aa9a196f1461042c578063b5d5b5fa14610455578063bf9befb114610492578063d216b0af146104bd578063f2fde38b146104e6578063fc0c546a1461050f5761014b565b806378bc1d3b146103295780637ba6f45814610359578063817b1cd2146103965780638456cb59146103c15780638da5cb5b146103d85780639e281a98146104035761014b565b80633ebbcd80116101085780633ebbcd801461023c5780633f4ba83a14610267578063423362021461027e57806348a88706146102a95780635c975abb146102e7578063715018a6146103125761014b565b8063010035af1461015057806302b9f127146101845780631303d4fb146101ad5780632e17de78146101d6578063308e401e146101ff5761014b565b3661014b57005b600080fd5b34801561015c57600080fd5b5061016561053a565b60405161017b9a99989796959493929190612134565b60405180910390f35b34801561019057600080fd5b506101ab60048036038101906101a6919061222d565b61059c565b005b3480156101b957600080fd5b506101d460048036038101906101cf919061226d565b6105ef565b005b3480156101e257600080fd5b506101fd60048036038101906101f8919061226d565b610a5e565b005b34801561020b57600080fd5b506102266004803603810190610221919061229a565b610d46565b60405161023391906123ed565b60405180910390f35b34801561024857600080fd5b5061025161101b565b60405161025e919061240f565b60405180910390f35b34801561027357600080fd5b5061027c611021565b005b34801561028a57600080fd5b50610293611033565b6040516102a0919061240f565b60405180910390f35b3480156102b557600080fd5b506102d060048036038101906102cb919061242a565b611039565b6040516102de92919061246a565b60405180910390f35b3480156102f357600080fd5b506102fc611104565b60405161030991906124ae565b60405180910390f35b34801561031e57600080fd5b5061032761111a565b005b610343600480360381019061033e91906124ee565b61112e565b604051610350919061240f565b60405180910390f35b34801561036557600080fd5b50610380600480360381019061037b919061229a565b6112cb565b60405161038d919061271c565b60405180910390f35b3480156103a257600080fd5b506103ab61152b565b6040516103b8919061240f565b60405180910390f35b3480156103cd57600080fd5b506103d6611531565b005b3480156103e457600080fd5b506103ed611543565b6040516103fa919061273e565b60405180910390f35b34801561040f57600080fd5b5061042a6004803603810190610425919061222d565b61156c565b005b34801561043857600080fd5b50610453600480360381019061044e919061242a565b611657565b005b34801561046157600080fd5b5061047c6004803603810190610477919061222d565b6116b8565b604051610489919061240f565b60405180910390f35b34801561049e57600080fd5b506104a76116e9565b6040516104b4919061240f565b60405180910390f35b3480156104c957600080fd5b506104e460048036038101906104df919061226d565b6116ef565b005b3480156104f257600080fd5b5061050d6004803603810190610508919061229a565b61173b565b005b34801561051b57600080fd5b506105246117c1565b60405161053191906127b8565b60405180910390f35b60098060000160009054906101000a900473ffffffffffffffffffffffffffffffffffffffff1690806001015490806002015490806003015490806004015490806005015490806006015490806007015490806008015490806009015490508a565b6105a46117e7565b8173ffffffffffffffffffffffffffffffffffffffff166108fc829081150290604051600060405180830381858888f193505050501580156105ea573d6000803e3d6000fd5b505050565b6105f761186e565b6105ff6118b4565b3373ffffffffffffffffffffffffffffffffffffffff166004828154811061062a576106296127d3565b5b90600052602060002090600d0201600a0160009054906101000a900473ffffffffffffffffffffffffffffffffffffffff1673ffffffffffffffffffffffffffffffffffffffff16146106b2576040517f08c379a00000000000000000000000000000000000000000000000000000000081526004016106a99061285f565b60405180910390fd5b6000600482815481106106c8576106c76127d3565b5b90600052602060002090600d0201905080600a0160149054906101000a900460ff161561072a576040517f08c379a0000000000000000000000000000000000000000000000000000000008152600401610721906128cb565b60405180910390fd5b600061082b82604051806101c001604052908160008201548152602001600182015481526020016002820154815260200160038201548152602001600482015481526020016005820154815260200160068201548152602001600782015481526020016008820154815260200160098201548152602001600a820160009054906101000a900473ffffffffffffffffffffffffffffffffffffffff1673ffffffffffffffffffffffffffffffffffffffff1673ffffffffffffffffffffffffffffffffffffffff168152602001600a820160149054906101000a900460ff16151515158152602001600b8201548152602001600c82015481525050846118f5565b905081600601548160400151118061084a575081600701548160600151115b610889576040517f08c379a000000000000000000000000000000000000000000000000000000000815260040161088090612937565b60405180910390fd5b60008160400151905060008260600151905082604001518460060160008282546108b39190612986565b9250508190555082606001518460070160008282546108d29190612986565b925050819055503373ffffffffffffffffffffffffffffffffffffffff166108fc839081150290604051600060405180830381858888f1935050505015801561091f573d6000803e3d6000fd5b50600260009054906101000a900473ffffffffffffffffffffffffffffffffffffffff1673ffffffffffffffffffffffffffffffffffffffff1663a9059cbb33836040518363ffffffff1660e01b815260040161097d9291906129ba565b6020604051808303816000875af115801561099c573d6000803e3d6000fd5b505050506040513d601f19601f820116820180604052508101906109c09190612a0f565b6109ff576040517f08c379a00000000000000000000000000000000000000000000000000000000081526004016109f690612a88565b60405180910390fd5b3373ffffffffffffffffffffffffffffffffffffffff167f70de20a533702af05c8faf1637846c4586a021bbc71b6928b089b6d555e4fbc28383604051610a4792919061246a565b60405180910390a250505050610a5b611a2e565b50565b610a6661186e565b610a6e6118b4565b600060048281548110610a8457610a836127d3565b5b90600052602060002090600d0201905080600a0160149054906101000a900460ff1615610ae6576040517f08c379a0000000000000000000000000000000000000000000000000000000008152600401610add906128cb565b60405180910390fd5b42816002015410610b2c576040517f08c379a0000000000000000000000000000000000000000000000000000000008152600401610b2390612af4565b60405180910390fd5b3373ffffffffffffffffffffffffffffffffffffffff1681600a0160009054906101000a900473ffffffffffffffffffffffffffffffffffffffff1673ffffffffffffffffffffffffffffffffffffffff1614610bbe576040517f08c379a0000000000000000000000000000000000000000000000000000000008152600401610bb59061285f565b60405180910390fd5b600181600a0160146101000a81548160ff021916908315150217905550600260009054906101000a900473ffffffffffffffffffffffffffffffffffffffff1673ffffffffffffffffffffffffffffffffffffffff1663a9059cbb3383600001546040518363ffffffff1660e01b8152600401610c3c9291906129ba565b6020604051808303816000875af1158015610c5b573d6000803e3d6000fd5b505050506040513d601f19601f82011682018060405250810190610c7f9190612a0f565b610cbe576040517f08c379a0000000000000000000000000000000000000000000000000000000008152600401610cb590612a88565b60405180910390fd5b3373ffffffffffffffffffffffffffffffffffffffff167f204fccf0d92ed8d48f204adb39b2e81e92bad0dedb93f5716ca9478cfb57de00826000015483600601548460030154610d0f9190612b14565b84600701548560040154610d239190612b14565b604051610d3293929190612b48565b60405180910390a250610d43611a2e565b50565b60606000600360008473ffffffffffffffffffffffffffffffffffffffff1673ffffffffffffffffffffffffffffffffffffffff168152602001908152602001600020805480602002602001604051908101604052809291908181526020018280548015610dd357602002820191906000526020600020905b815481526020019060010190808311610dbf575b50505050509050805167ffffffffffffffff811115610df557610df4612b7f565b5b604051908082528060200260200182016040528015610e2e57816020015b610e1b612024565b815260200190600190039081610e135790505b50915060005b8151811015611014576004828281518110610e5257610e516127d3565b5b602002602001015181548110610e6b57610e6a6127d3565b5b90600052602060002090600d0201600a0160149054906101000a900460ff166110075760006004838381518110610ea557610ea46127d3565b5b602002602001015181548110610ebe57610ebd6127d3565b5b90600052602060002090600d0201604051806101c001604052908160008201548152602001600182015481526020016002820154815260200160038201548152602001600482015481526020016005820154815260200160068201548152602001600782015481526020016008820154815260200160098201548152602001600a820160009054906101000a900473ffffffffffffffffffffffffffffffffffffffff1673ffffffffffffffffffffffffffffffffffffffff1673ffffffffffffffffffffffffffffffffffffffff168152602001600a820160149054906101000a900460ff16151515158152602001600b8201548152602001600c820154815250509050610fe781848481518110610fda57610fd96127d3565b5b60200260200101516118f5565b848381518110610ffa57610ff96127d3565b5b6020026020010181905250505b8080600101915050610e34565b5050919050565b60065481565b6110296117e7565b611031611a37565b565b60075481565b60008060006103e8905060006301e13380858360096005015461105c9190612bae565b6110669190612bae565b6110709190612c1f565b905060006301e13380868460096006015461108b9190612bae565b6110959190612bae565b61109f9190612c1f565b905082606482896110b09190612bae565b6110ba9190612c1f565b6110c49190612c1f565b93506009800154836064848a6110da9190612bae565b6110e49190612c1f565b6110ee9190612c1f565b6110f89190612c1f565b94505050509250929050565b60008060149054906101000a900460ff16905090565b6111226117e7565b61112c6000611a99565b565b600061113861186e565b6111406118b4565b600960010154421015611188576040517f08c379a000000000000000000000000000000000000000000000000000000000815260040161117f90612c9c565b60405180910390fd5b6009600201544211156111d0576040517f08c379a00000000000000000000000000000000000000000000000000000000081526004016111c790612d08565b60405180910390fd5b600260009054906101000a900473ffffffffffffffffffffffffffffffffffffffff1673ffffffffffffffffffffffffffffffffffffffff166323b872dd3330866040518463ffffffff1660e01b815260040161122f93929190612d28565b6020604051808303816000875af115801561124e573d6000803e3d6000fd5b505050506040513d601f19601f820116820180604052508101906112729190612a0f565b6112b1576040517f08c379a00000000000000000000000000000000000000000000000000000000081526004016112a890612a88565b60405180910390fd5b6112bb8383611b5d565b90506112c5611a2e565b92915050565b60606000600360008473ffffffffffffffffffffffffffffffffffffffff1673ffffffffffffffffffffffffffffffffffffffff16815260200190815260200160002080548060200260200160405190810160405280929190818152602001828054801561135857602002820191906000526020600020905b815481526020019060010190808311611344575b505050505090506000815167ffffffffffffffff81111561137c5761137b612b7f565b5b6040519080825280602002602001820160405280156113b557816020015b6113a2612053565b81526020019060019003908161139a5790505b50905060005b82518110156115205760048382815181106113d9576113d86127d3565b5b6020026020010151815481106113f2576113f16127d3565b5b90600052602060002090600d0201604051806101c001604052908160008201548152602001600182015481526020016002820154815260200160038201548152602001600482015481526020016005820154815260200160068201548152602001600782015481526020016008820154815260200160098201548152602001600a820160009054906101000a900473ffffffffffffffffffffffffffffffffffffffff1673ffffffffffffffffffffffffffffffffffffffff1673ffffffffffffffffffffffffffffffffffffffff168152602001600a820160149054906101000a900460ff16151515158152602001600b8201548152602001600c82015481525050828281518110611508576115076127d3565b5b602002602001018190525080806001019150506113bb565b508092505050919050565b60055481565b6115396117e7565b611541611e97565b565b60008060009054906101000a900473ffffffffffffffffffffffffffffffffffffffff16905090565b6115746117e7565b600260009054906101000a900473ffffffffffffffffffffffffffffffffffffffff1673ffffffffffffffffffffffffffffffffffffffff1663a9059cbb83836040518363ffffffff1660e01b81526004016115d19291906129ba565b6020604051808303816000875af11580156115f0573d6000803e3d6000fd5b505050506040513d601f19601f820116820180604052508101906116149190612a0f565b611653576040517f08c379a000000000000000000000000000000000000000000000000000000000815260040161164a90612a88565b60405180910390fd5b5050565b61165f6118b4565b6116676117e7565b81600960050181905550806009600601819055507f787a1fca55641ce34a438271930bbb9401df20db2b4f510d4f252227d85df43d82826040516116ac92919061246a565b60405180910390a15050565b600360205281600052604060002081815481106116d457600080fd5b90600052602060002001600091509150505481565b60085481565b6116f76117e7565b806009600401819055507ff4045d7dd317de89564c3f12c35961242ed2a4dce3ae4e7a75847ffa04bb083481604051611730919061240f565b60405180910390a150565b6117436117e7565b600073ffffffffffffffffffffffffffffffffffffffff168173ffffffffffffffffffffffffffffffffffffffff16036117b55760006040517f1e4fbdf70000000000000000000000000000000000000000000000000000000081526004016117ac919061273e565b60405180910390fd5b6117be81611a99565b50565b600260009054906101000a900473ffffffffffffffffffffffffffffffffffffffff1681565b6117ef611efa565b73ffffffffffffffffffffffffffffffffffffffff1661180d611543565b73ffffffffffffffffffffffffffffffffffffffff161461186c57611830611efa565b6040517f118cdaa7000000000000000000000000000000000000000000000000000000008152600401611863919061273e565b60405180910390fd5b565b6002600154036118aa576040517f3ee5aeb500000000000000000000000000000000000000000000000000000000815260040160405180910390fd5b6002600181905550565b6118bc611104565b156118f3576040517fd93c066500000000000000000000000000000000000000000000000000000000815260040160405180910390fd5b565b6118fd612024565b60006103e8905060008460200151426119169190612b14565b905060006301e1338082848861018001516119319190612bae565b61193b9190612bae565b6119459190612c1f565b905060006301e133808385896101a001516119609190612bae565b61196a9190612bae565b6119749190612c1f565b905060006009800154856064858b600001516119909190612bae565b61199a9190612c1f565b6119a49190612c1f565b6119ae9190612c1f565b90506000856064848b600001516119c59190612bae565b6119cf9190612c1f565b6119d99190612c1f565b90506040518060a001604052808381526020018281526020018a60c0015184611a029190612b14565b81526020018a60e0015183611a179190612b14565b815260200189815250965050505050505092915050565b60018081905550565b611a3f611f02565b60008060146101000a81548160ff0219169083151502179055507f5db9ee0a495bf2e6ff9c91a7834c1ba4fdd244a5e8aa4e537bd38aeae4b073aa611a82611efa565b604051611a8f919061273e565b60405180910390a1565b60008060009054906101000a900473ffffffffffffffffffffffffffffffffffffffff169050816000806101000a81548173ffffffffffffffffffffffffffffffffffffffff021916908373ffffffffffffffffffffffffffffffffffffffff1602179055508173ffffffffffffffffffffffffffffffffffffffff168173ffffffffffffffffffffffffffffffffffffffff167f8be0079c531659141344cd1fd0a4f28419497f9722a3daafe3b4186f6b6457e060405160405180910390a35050565b6000600960040154831015611ba7576040517f08c379a0000000000000000000000000000000000000000000000000000000008152600401611b9e90612dab565b60405180910390fd5b6000611bb283611f42565b9050600080611bc18684611039565b9150915060048054905093506004604051806101c001604052808881526020014281526020018542611bf39190612986565b8152602001848152602001838152602001858152602001600081526020016000815260200160008152602001600081526020013373ffffffffffffffffffffffffffffffffffffffff168152602001600015158152602001600960050154815260200160096006015481525090806001815401808255809150506001900390600052602060002090600d0201600090919091909150600082015181600001556020820151816001015560408201518160020155606082015181600301556080820151816004015560a0820151816005015560c0820151816006015560e082015181600701556101008201518160080155610120820151816009015561014082015181600a0160006101000a81548173ffffffffffffffffffffffffffffffffffffffff021916908373ffffffffffffffffffffffffffffffffffffffff16021790555061016082015181600a0160146101000a81548160ff02191690831515021790555061018082015181600b01556101a082015181600c01555050600360003373ffffffffffffffffffffffffffffffffffffffff1673ffffffffffffffffffffffffffffffffffffffff1681526020019081526020016000208490806001815401808255809150506001900390600052602060002001600090919091909150558560056000828254611de79190612986565b925050819055508160066000828254611e009190612986565b925050819055508060076000828254611e199190612986565b92505081905550600160086000828254611e339190612986565b925050819055503373ffffffffffffffffffffffffffffffffffffffff167f9cfd25589d1eb8ad71e342a86a8524e83522e3936c0803048c08f6d9ad974f4087858585604051611e869493929190612dcb565b60405180910390a250505092915050565b611e9f6118b4565b6001600060146101000a81548160ff0219169083151502179055507f62e78cea01bee320cd4e420270b5ea74000d11b0c9f74754ebdbfc544b05a258611ee3611efa565b604051611ef0919061273e565b60405180910390a1565b600033905090565b611f0a611104565b611f40576040517f8dfc202b00000000000000000000000000000000000000000000000000000000815260040160405180910390fd5b565b6000806003811115611f5757611f56612e10565b5b826003811115611f6a57611f69612e10565b5b03611f7a5762278d00905061201f565b60016003811115611f8e57611f8d612e10565b5b826003811115611fa157611fa0612e10565b5b03611fb157623b5380905061201f565b60026003811115611fc557611fc4612e10565b5b826003811115611fd857611fd7612e10565b5b03611fe857624f1a00905061201f565b600380811115611ffb57611ffa612e10565b5b82600381111561200e5761200d612e10565b5b0361201e576276a700905061201f565b5b919050565b6040518060a0016040528060008152602001600081526020016000815260200160008152602001600081525090565b604051806101c0016040528060008152602001600081526020016000815260200160008152602001600081526020016000815260200160008152602001600081526020016000815260200160008152602001600073ffffffffffffffffffffffffffffffffffffffff16815260200160001515815260200160008152602001600081525090565b600073ffffffffffffffffffffffffffffffffffffffff82169050919050565b6000612105826120da565b9050919050565b612115816120fa565b82525050565b6000819050919050565b61212e8161211b565b82525050565b60006101408201905061214a600083018d61210c565b612157602083018c612125565b612164604083018b612125565b612171606083018a612125565b61217e6080830189612125565b61218b60a0830188612125565b61219860c0830187612125565b6121a560e0830186612125565b6121b3610100830185612125565b6121c1610120830184612125565b9b9a5050505050505050505050565b600080fd5b6121de816120fa565b81146121e957600080fd5b50565b6000813590506121fb816121d5565b92915050565b61220a8161211b565b811461221557600080fd5b50565b60008135905061222781612201565b92915050565b60008060408385031215612244576122436121d0565b5b6000612252858286016121ec565b925050602061226385828601612218565b9150509250929050565b600060208284031215612283576122826121d0565b5b600061229184828501612218565b91505092915050565b6000602082840312156122b0576122af6121d0565b5b60006122be848285016121ec565b91505092915050565b600081519050919050565b600082825260208201905092915050565b6000819050602082019050919050565b6122fc8161211b565b82525050565b60a08201600082015161231860008501826122f3565b50602082015161232b60208501826122f3565b50604082015161233e60408501826122f3565b50606082015161235160608501826122f3565b50608082015161236460808501826122f3565b50505050565b60006123768383612302565b60a08301905092915050565b6000602082019050919050565b600061239a826122c7565b6123a481856122d2565b93506123af836122e3565b8060005b838110156123e05781516123c7888261236a565b97506123d283612382565b9250506001810190506123b3565b5085935050505092915050565b60006020820190508181036000830152612407818461238f565b905092915050565b60006020820190506124246000830184612125565b92915050565b60008060408385031215612441576124406121d0565b5b600061244f85828601612218565b925050602061246085828601612218565b9150509250929050565b600060408201905061247f6000830185612125565b61248c6020830184612125565b9392505050565b60008115159050919050565b6124a881612493565b82525050565b60006020820190506124c3600083018461249f565b92915050565b600481106124d657600080fd5b50565b6000813590506124e8816124c9565b92915050565b60008060408385031215612505576125046121d0565b5b600061251385828601612218565b9250506020612524858286016124d9565b9150509250929050565b600081519050919050565b600082825260208201905092915050565b6000819050602082019050919050565b612563816120fa565b82525050565b61257281612493565b82525050565b6101c08201600082015161258f60008501826122f3565b5060208201516125a260208501826122f3565b5060408201516125b560408501826122f3565b5060608201516125c860608501826122f3565b5060808201516125db60808501826122f3565b5060a08201516125ee60a08501826122f3565b5060c082015161260160c08501826122f3565b5060e082015161261460e08501826122f3565b506101008201516126296101008501826122f3565b5061012082015161263e6101208501826122f3565b5061014082015161265361014085018261255a565b50610160820151612668610160850182612569565b5061018082015161267d6101808501826122f3565b506101a08201516126926101a08501826122f3565b50505050565b60006126a48383612578565b6101c08301905092915050565b6000602082019050919050565b60006126c98261252e565b6126d38185612539565b93506126de8361254a565b8060005b8381101561270f5781516126f68882612698565b9750612701836126b1565b9250506001810190506126e2565b5085935050505092915050565b6000602082019050818103600083015261273681846126be565b905092915050565b6000602082019050612753600083018461210c565b92915050565b6000819050919050565b600061277e612779612774846120da565b612759565b6120da565b9050919050565b600061279082612763565b9050919050565b60006127a282612785565b9050919050565b6127b281612797565b82525050565b60006020820190506127cd60008301846127a9565b92915050565b7f4e487b7100000000000000000000000000000000000000000000000000000000600052603260045260246000fd5b600082825260208201905092915050565b7f4e6f74206f776e65720000000000000000000000000000000000000000000000600082015250565b6000612849600983612802565b915061285482612813565b602082019050919050565b600060208201905081810360008301526128788161283c565b9050919050565b7f416c726561647920756e7374616b656400000000000000000000000000000000600082015250565b60006128b5601083612802565b91506128c08261287f565b602082019050919050565b600060208201905081810360008301526128e4816128a8565b9050919050565b7f4e6f207265776172647320746f20636c61696d00000000000000000000000000600082015250565b6000612921601383612802565b915061292c826128eb565b602082019050919050565b6000602082019050818103600083015261295081612914565b9050919050565b7f4e487b7100000000000000000000000000000000000000000000000000000000600052601160045260246000fd5b60006129918261211b565b915061299c8361211b565b92508282019050808211156129b4576129b3612957565b5b92915050565b60006040820190506129cf600083018561210c565b6129dc6020830184612125565b9392505050565b6129ec81612493565b81146129f757600080fd5b50565b600081519050612a09816129e3565b92915050565b600060208284031215612a2557612a246121d0565b5b6000612a33848285016129fa565b91505092915050565b7f5472616e73666572206661696c65640000000000000000000000000000000000600082015250565b6000612a72600f83612802565b9150612a7d82612a3c565b602082019050919050565b60006020820190508181036000830152612aa181612a65565b9050919050565b7f5374616b65206e6f74206d617475726564000000000000000000000000000000600082015250565b6000612ade601183612802565b9150612ae982612aa8565b602082019050919050565b60006020820190508181036000830152612b0d81612ad1565b9050919050565b6000612b1f8261211b565b9150612b2a8361211b565b9250828203905081811115612b4257612b41612957565b5b92915050565b6000606082019050612b5d6000830186612125565b612b6a6020830185612125565b612b776040830184612125565b949350505050565b7f4e487b7100000000000000000000000000000000000000000000000000000000600052604160045260246000fd5b6000612bb98261211b565b9150612bc48361211b565b9250828202612bd28161211b565b91508282048414831517612be957612be8612957565b5b5092915050565b7f4e487b7100000000000000000000000000000000000000000000000000000000600052601260045260246000fd5b6000612c2a8261211b565b9150612c358361211b565b925082612c4557612c44612bf0565b5b828204905092915050565b7f5374616b696e67206e6f74207374617274656400000000000000000000000000600082015250565b6000612c86601383612802565b9150612c9182612c50565b602082019050919050565b60006020820190508181036000830152612cb581612c79565b9050919050565b7f5374616b696e6720656e64656400000000000000000000000000000000000000600082015250565b6000612cf2600d83612802565b9150612cfd82612cbc565b602082019050919050565b60006020820190508181036000830152612d2181612ce5565b9050919050565b6000606082019050612d3d600083018661210c565b612d4a602083018561210c565b612d576040830184612125565b949350505050565b7f4d696e696d756d207374616b65206e6f74206d65740000000000000000000000600082015250565b6000612d95601583612802565b9150612da082612d5f565b602082019050919050565b60006020820190508181036000830152612dc481612d88565b9050919050565b6000608082019050612de06000830187612125565b612ded6020830186612125565b612dfa6040830185612125565b612e076060830184612125565b95945050505050565b7f4e487b7100000000000000000000000000000000000000000000000000000000600052602160045260246000fdfea2646970667358221220e0f7d880fd0afa0ea51f018214d44954bafd3a9d0d64b4a3e0ba0982288fef6764736f6c63430008180033a2646970667358221220f350f9ec6e30f42795c4392e180a0cc45c7992a9b708bc3d025b64668b8ad66964736f6c63430008180033",
  "linkReferences": {},
  "deployedLinkReferences": {}
}