{
  "_format": "hh-sol-artifact-1",
  "contractName": "ThrustpadStakerFactory",
  "sourceName": "contracts/staking/ThrustpadStakerFactory.sol",
  "abi": [
    {
      "anonymous": false,
      "inputs": [
        {
          "indexed": true,
          "internalType": "address",
          "name": "creator",
          "type": "address"
        },
        {
          "indexed": true,
          "internalType": "address",
          "name": "token",
          "type": "address"
        },
        {
          "indexed": true,
          "internalType": "address",
          "name": "staker",
          "type": "address"
        }
      ],
      "name": "NewStaking",
      "type": "event"
    },
    {
      "inputs": [
        {
          "internalType": "address",
          "name": "",
          "type": "address"
        },
        {
          "internalType": "uint256",
          "name": "",
          "type": "uint256"
        }
      ],
      "name": "deployedStakers",
      "outputs": [
        {
          "internalType": "address",
          "name": "",
          "type": "address"
        }
      ],
      "stateMutability": "view",
      "type": "function"
    },
    {
      "inputs": [
        {
          "internalType": "bytes",
          "name": "bytecode",
          "type": "bytes"
        },
        {
          "internalType": "uint256",
          "name": "salt",
          "type": "uint256"
        }
      ],
      "name": "getAddressCreate2",
      "outputs": [
        {
          "internalType": "address",
          "name": "",
          "type": "address"
        }
      ],
      "stateMutability": "view",
      "type": "function"
    },
    {
      "inputs": [
        {
          "components": [
            {
              "internalType": "address",
              "name": "token",
              "type": "address"
            },
            {
              "internalType": "uint256",
              "name": "startDate",
              "type": "uint256"
            },
            {
              "internalType": "uint256",
              "name": "endDate",
              "type": "uint256"
            },
            {
              "internalType": "uint256",
              "name": "hardCap",
              "type": "uint256"
            },
            {
              "internalType": "uint256",
              "name": "minTokenStake",
              "type": "uint256"
            },
            {
              "internalType": "uint256",
              "name": "apyEdu",
              "type": "uint256"
            },
            {
              "internalType": "uint256",
              "name": "apyToken",
              "type": "uint256"
            },
            {
              "internalType": "uint256",
              "name": "rewardPoolToken",
              "type": "uint256"
            },
            {
              "internalType": "uint256",
              "name": "rewardPoolEDU",
              "type": "uint256"
            },
            {
              "internalType": "uint256",
              "name": "tokenToEDURate",
              "type": "uint256"
            }
          ],
          "internalType": "struct stakeOption",
          "name": "option",
          "type": "tuple"
        }
      ],
      "name": "getBytecode",
      "outputs": [
        {
          "internalType": "bytes",
          "name": "",
          "type": "bytes"
        }
      ],
      "stateMutability": "pure",
      "type": "function"
    },
    {
      "inputs": [
        {
          "internalType": "address",
          "name": "creator",
          "type": "address"
        }
      ],
      "name": "getdeployedStakers",
      "outputs": [
        {
          "internalType": "address[]",
          "name": "",
          "type": "address[]"
        }
      ],
      "stateMutability": "view",
      "type": "function"
    },
    {
      "inputs": [
        {
          "internalType": "address",
          "name": "creator",
          "type": "address"
        }
      ],
      "name": "getdeployedStakersLen",
      "outputs": [
        {
          "internalType": "uint256",
          "name": "",
          "type": "uint256"
        }
      ],
      "stateMutability": "view",
      "type": "function"
    },
    {
      "inputs": [
        {
          "components": [
            {
              "internalType": "address",
              "name": "token",
              "type": "address"
            },
            {
              "internalType": "uint256",
              "name": "startDate",
              "type": "uint256"
            },
            {
              "internalType": "uint256",
              "name": "endDate",
              "type": "uint256"
            },
            {
              "internalType": "uint256",
              "name": "hardCap",
              "type": "uint256"
            },
            {
              "internalType": "uint256",
              "name": "minTokenStake",
              "type": "uint256"
            },
            {
              "internalType": "uint256",
              "name": "apyEdu",
              "type": "uint256"
            },
            {
              "internalType": "uint256",
              "name": "apyToken",
              "type": "uint256"
            },
            {
              "internalType": "uint256",
              "name": "rewardPoolToken",
              "type": "uint256"
            },
            {
              "internalType": "uint256",
              "name": "rewardPoolEDU",
              "type": "uint256"
            },
            {
              "internalType": "uint256",
              "name": "tokenToEDURate",
              "type": "uint256"
            }
          ],
          "internalType": "struct stakeOption",
          "name": "option",
          "type": "tuple"
        }
      ],
      "name": "newStaker",
      "outputs": [
        {
          "internalType": "address",
          "name": "",
          "type": "address"
        }
      ],
      "stateMutability": "payable",
      "type": "function"
    }
  ],
  "bytecode": "0x608060405234801561001057600080fd5b50614a14806100206000396000f3fe6080604052600436106200005c5760003560e01c80631f07a41e146200006157806332b6cfb214620000a557806337807fd614620000e957806357f59948146200012d5780639f886f261462000163578063c763f7a714620001a7575b600080fd5b3480156200006e57600080fd5b506200008d600480360381019062000087919062000919565b620001eb565b6040516200009c919062000a19565b60405180910390f35b348015620000b257600080fd5b50620000d16004803603810190620000cb919062000c21565b620002b9565b604051620000e0919062000cdd565b60405180910390f35b348015620000f657600080fd5b506200011560048036038101906200010f919062000d01565b62000332565b60405162000124919062000d59565b60405180910390f35b6200014b600480360381019062000145919062000c21565b62000381565b6040516200015a919062000d59565b60405180910390f35b3480156200017057600080fd5b506200018f600480360381019062000189919062000e43565b620007fb565b6040516200019e919062000d59565b60405180910390f35b348015620001b457600080fd5b50620001d36004803603810190620001cd919062000919565b62000847565b604051620001e2919062000eba565b60405180910390f35b60606000808373ffffffffffffffffffffffffffffffffffffffff1673ffffffffffffffffffffffffffffffffffffffff168152602001908152602001600020805480602002602001604051908101604052809291908181526020018280548015620002ad57602002820191906000526020600020905b8160009054906101000a900473ffffffffffffffffffffffffffffffffffffffff1673ffffffffffffffffffffffffffffffffffffffff168152602001906001019080831162000262575b50505050509050919050565b6060600060405180602001620002cf9062000892565b6020820181038252601f19601f8201166040525090508083604051602001620002f9919062000fc8565b6040516020818303038152906040526040516020016200031b92919062001028565b604051602081830303815290604052915050919050565b600060205281600052604060002081815481106200034f57600080fd5b906000526020600020016000915091509054906101000a900473ffffffffffffffffffffffffffffffffffffffff1681565b600060028260a001511015620003ce576040517f08c379a0000000000000000000000000000000000000000000000000000000008152600401620003c590620010b1565b60405180910390fd5b60088260c00151101562000419576040517f08c379a0000000000000000000000000000000000000000000000000000000008152600401620004109062001123565b60405180910390fd5b6012826000015173ffffffffffffffffffffffffffffffffffffffff1663313ce5676040518163ffffffff1660e01b8152600401602060405180830381865afa1580156200046b573d6000803e3d6000fd5b505050506040513d601f19601f8201168201806040525081019062000491919062001183565b60ff1614620004d7576040517f08c379a0000000000000000000000000000000000000000000000000000000008152600401620004ce906200122b565b60405180910390fd5b600060648360c001518460600151620004f191906200127c565b620004fd9190620012f6565b9050600083610120015160648560a0015186606001516200051f91906200127c565b6200052b9190620012f6565b620005379190620012f6565b9050803410156200057f576040517f08c379a00000000000000000000000000000000000000000000000000000000081526004016200057690620013a4565b60405180910390fd5b8360e00151821015620005c9576040517f08c379a0000000000000000000000000000000000000000000000000000000008152600401620005c0906200143c565b60405180910390fd5b6000346000803373ffffffffffffffffffffffffffffffffffffffff1673ffffffffffffffffffffffffffffffffffffffff1681526020019081526020016000208054905060001b9086604051620006219062000892565b6200062d919062000fc8565b82906040518091039083f590509050801580156200064f573d6000803e3d6000fd5b5090506000803373ffffffffffffffffffffffffffffffffffffffff1673ffffffffffffffffffffffffffffffffffffffff168152602001908152602001600020819080600181540180825580915050600190039060005260206000200160009091909190916101000a81548173ffffffffffffffffffffffffffffffffffffffff021916908373ffffffffffffffffffffffffffffffffffffffff160217905550846000015173ffffffffffffffffffffffffffffffffffffffff166323b872dd33838860e001516040518463ffffffff1660e01b815260040162000738939291906200145e565b6020604051808303816000875af115801562000758573d6000803e3d6000fd5b505050506040513d601f19601f820116820180604052508101906200077e9190620014d8565b508073ffffffffffffffffffffffffffffffffffffffff168173ffffffffffffffffffffffffffffffffffffffff163373ffffffffffffffffffffffffffffffffffffffff167f99a53d54f4251977744f3244789e0336c21b251d2bc5c8142b38e7b614d6a32260405160405180910390a4809350505050919050565b60008060ff60f81b30848680519060200120604051602001620008229493929190620015ff565b6040516020818303038152906040528051906020012090508060001c91505092915050565b60008060008373ffffffffffffffffffffffffffffffffffffffff1673ffffffffffffffffffffffffffffffffffffffff168152602001908152602001600020805490509050919050565b613389806200165683390190565b6000604051905090565b600080fd5b600080fd5b600073ffffffffffffffffffffffffffffffffffffffff82169050919050565b6000620008e182620008b4565b9050919050565b620008f381620008d4565b8114620008ff57600080fd5b50565b6000813590506200091381620008e8565b92915050565b600060208284031215620009325762000931620008aa565b5b6000620009428482850162000902565b91505092915050565b600081519050919050565b600082825260208201905092915050565b6000819050602082019050919050565b6200098281620008d4565b82525050565b600062000996838362000977565b60208301905092915050565b6000602082019050919050565b6000620009bc826200094b565b620009c8818562000956565b9350620009d58362000967565b8060005b8381101562000a0c578151620009f0888262000988565b9750620009fd83620009a2565b925050600181019050620009d9565b5085935050505092915050565b6000602082019050818103600083015262000a358184620009af565b905092915050565b600080fd5b6000601f19601f8301169050919050565b7f4e487b7100000000000000000000000000000000000000000000000000000000600052604160045260246000fd5b62000a8d8262000a42565b810181811067ffffffffffffffff8211171562000aaf5762000aae62000a53565b5b80604052505050565b600062000ac4620008a0565b905062000ad2828262000a82565b919050565b6000819050919050565b62000aec8162000ad7565b811462000af857600080fd5b50565b60008135905062000b0c8162000ae1565b92915050565b6000610140828403121562000b2c5762000b2b62000a3d565b5b62000b3961014062000ab8565b9050600062000b4b8482850162000902565b600083015250602062000b618482850162000afb565b602083015250604062000b778482850162000afb565b604083015250606062000b8d8482850162000afb565b606083015250608062000ba38482850162000afb565b60808301525060a062000bb98482850162000afb565b60a08301525060c062000bcf8482850162000afb565b60c08301525060e062000be58482850162000afb565b60e08301525061010062000bfc8482850162000afb565b6101008301525061012062000c148482850162000afb565b6101208301525092915050565b6000610140828403121562000c3b5762000c3a620008aa565b5b600062000c4b8482850162000b12565b91505092915050565b600081519050919050565b600082825260208201905092915050565b60005b8381101562000c9057808201518184015260208101905062000c73565b60008484015250505050565b600062000ca98262000c54565b62000cb5818562000c5f565b935062000cc781856020860162000c70565b62000cd28162000a42565b840191505092915050565b6000602082019050818103600083015262000cf9818462000c9c565b905092915050565b6000806040838503121562000d1b5762000d1a620008aa565b5b600062000d2b8582860162000902565b925050602062000d3e8582860162000afb565b9150509250929050565b62000d5381620008d4565b82525050565b600060208201905062000d70600083018462000d48565b92915050565b600080fd5b600080fd5b600067ffffffffffffffff82111562000d9e5762000d9d62000a53565b5b62000da98262000a42565b9050602081019050919050565b82818337600083830152505050565b600062000ddc62000dd68462000d80565b62000ab8565b90508281526020810184848401111562000dfb5762000dfa62000d7b565b5b62000e0884828562000db6565b509392505050565b600082601f83011262000e285762000e2762000d76565b5b813562000e3a84826020860162000dc5565b91505092915050565b6000806040838503121562000e5d5762000e5c620008aa565b5b600083013567ffffffffffffffff81111562000e7e5762000e7d620008af565b5b62000e8c8582860162000e10565b925050602062000e9f8582860162000afb565b9150509250929050565b62000eb48162000ad7565b82525050565b600060208201905062000ed1600083018462000ea9565b92915050565b62000ee28162000ad7565b82525050565b6101408201600082015162000f01600085018262000977565b50602082015162000f16602085018262000ed7565b50604082015162000f2b604085018262000ed7565b50606082015162000f40606085018262000ed7565b50608082015162000f55608085018262000ed7565b5060a082015162000f6a60a085018262000ed7565b5060c082015162000f7f60c085018262000ed7565b5060e082015162000f9460e085018262000ed7565b5061010082015162000fab61010085018262000ed7565b5061012082015162000fc261012085018262000ed7565b50505050565b60006101408201905062000fe0600083018462000ee8565b92915050565b600081905092915050565b600062000ffe8262000c54565b6200100a818562000fe6565b93506200101c81856020860162000c70565b80840191505092915050565b600062001036828562000ff1565b915062001044828462000ff1565b91508190509392505050565b600082825260208201905092915050565b7f41505920454455206d7573742062652067726561746572207468616e20320000600082015250565b600062001099601e8362001050565b9150620010a68262001061565b602082019050919050565b60006020820190508181036000830152620010cc816200108a565b9050919050565b7f41505920546f6b656e206d7573742062652067726561746572207468616e2038600082015250565b60006200110b60208362001050565b91506200111882620010d3565b602082019050919050565b600060208201905081810360008301526200113e81620010fc565b9050919050565b600060ff82169050919050565b6200115d8162001145565b81146200116957600080fd5b50565b6000815190506200117d8162001152565b92915050565b6000602082840312156200119c576200119b620008aa565b5b6000620011ac848285016200116c565b91505092915050565b7f5468727573747061645374616b6572466163746f72793a20746f6b656e206d7560008201527f7374206861766520313820646563696d616c7300000000000000000000000000602082015250565b60006200121360338362001050565b91506200122082620011b5565b604082019050919050565b60006020820190508181036000830152620012468162001204565b9050919050565b7f4e487b7100000000000000000000000000000000000000000000000000000000600052601160045260246000fd5b6000620012898262000ad7565b9150620012968362000ad7565b9250828202620012a68162000ad7565b91508282048414831517620012c057620012bf6200124d565b5b5092915050565b7f4e487b7100000000000000000000000000000000000000000000000000000000600052601260045260246000fd5b6000620013038262000ad7565b9150620013108362000ad7565b925082620013235762001322620012c7565b5b828204905092915050565b7f454455206465706f73697420746f20636f766572207969656c6473207061796f60008201527f7574206e6f7420656e6f75676800000000000000000000000000000000000000602082015250565b60006200138c602d8362001050565b915062001399826200132e565b604082019050919050565b60006020820190508181036000830152620013bf816200137d565b9050919050565b7f4465706f73697420746f6b656e7320746f20636f766572207969656c6473207060008201527f61796f7574206e6f7420656e6f75676800000000000000000000000000000000602082015250565b60006200142460308362001050565b91506200143182620013c6565b604082019050919050565b60006020820190508181036000830152620014578162001415565b9050919050565b600060608201905062001475600083018662000d48565b62001484602083018562000d48565b62001493604083018462000ea9565b949350505050565b60008115159050919050565b620014b2816200149b565b8114620014be57600080fd5b50565b600081519050620014d281620014a7565b92915050565b600060208284031215620014f157620014f0620008aa565b5b60006200150184828501620014c1565b91505092915050565b60007fff0000000000000000000000000000000000000000000000000000000000000082169050919050565b6000819050919050565b620015556200154f826200150a565b62001536565b82525050565b60008160601b9050919050565b600062001575826200155b565b9050919050565b6000620015898262001568565b9050919050565b620015a56200159f82620008d4565b6200157c565b82525050565b6000819050919050565b620015ca620015c48262000ad7565b620015ab565b82525050565b6000819050919050565b6000819050919050565b620015f9620015f382620015d0565b620015da565b82525050565b60006200160d828762001540565b6001820191506200161f828662001590565b601482019150620016318285620015b5565b602082019150620016438284620015e4565b6020820191508190509594505050505056fe608060405260405162003389380380620033898339818101604052810190620000299190620004e3565b32600073ffffffffffffffffffffffffffffffffffffffff168173ffffffffffffffffffffffffffffffffffffffff16036200009f5760006040517f1e4fbdf700000000000000000000000000000000000000000000000000000000815260040162000096919062000527565b60405180910390fd5b620000b081620001c760201b60201c565b5060008060146101000a81548160ff0219169083151502179055506001808190555080600960008201518160000160006101000a81548173ffffffffffffffffffffffffffffffffffffffff021916908373ffffffffffffffffffffffffffffffffffffffff1602179055506020820151816001015560408201518160020155606082015181600301556080820151816004015560a0820151816005015560c0820151816006015560e08201518160070155610100820151816008015561012082015181600901559050508060000151600260006101000a81548173ffffffffffffffffffffffffffffffffffffffff021916908373ffffffffffffffffffffffffffffffffffffffff1602179055505062000544565b60008060009054906101000a900473ffffffffffffffffffffffffffffffffffffffff169050816000806101000a81548173ffffffffffffffffffffffffffffffffffffffff021916908373ffffffffffffffffffffffffffffffffffffffff1602179055508173ffffffffffffffffffffffffffffffffffffffff168173ffffffffffffffffffffffffffffffffffffffff167f8be0079c531659141344cd1fd0a4f28419497f9722a3daafe3b4186f6b6457e060405160405180910390a35050565b6000604051905090565b600080fd5b600080fd5b6000601f19601f8301169050919050565b7f4e487b7100000000000000000000000000000000000000000000000000000000600052604160045260246000fd5b620002ea826200029f565b810181811067ffffffffffffffff821117156200030c576200030b620002b0565b5b80604052505050565b6000620003216200028b565b90506200032f8282620002df565b919050565b600073ffffffffffffffffffffffffffffffffffffffff82169050919050565b6000620003618262000334565b9050919050565b620003738162000354565b81146200037f57600080fd5b50565b600081519050620003938162000368565b92915050565b6000819050919050565b620003ae8162000399565b8114620003ba57600080fd5b50565b600081519050620003ce81620003a3565b92915050565b60006101408284031215620003ee57620003ed6200029a565b5b620003fb61014062000315565b905060006200040d8482850162000382565b60008301525060206200042384828501620003bd565b60208301525060406200043984828501620003bd565b60408301525060606200044f84828501620003bd565b60608301525060806200046584828501620003bd565b60808301525060a06200047b84828501620003bd565b60a08301525060c06200049184828501620003bd565b60c08301525060e0620004a784828501620003bd565b60e083015250610100620004be84828501620003bd565b61010083015250610120620004d684828501620003bd565b6101208301525092915050565b60006101408284031215620004fd57620004fc62000295565b5b60006200050d84828501620003d4565b91505092915050565b620005218162000354565b82525050565b60006020820190506200053e600083018462000516565b92915050565b612e3580620005546000396000f3fe6080604052600436106101445760003560e01c806378bc1d3b116100b6578063aa9a196f1161006f578063aa9a196f1461042c578063b5d5b5fa14610455578063bf9befb114610492578063d216b0af146104bd578063f2fde38b146104e6578063fc0c546a1461050f5761014b565b806378bc1d3b146103295780637ba6f45814610359578063817b1cd2146103965780638456cb59146103c15780638da5cb5b146103d85780639e281a98146104035761014b565b80633ebbcd80116101085780633ebbcd801461023c5780633f4ba83a14610267578063423362021461027e57806348a88706146102a95780635c975abb146102e7578063715018a6146103125761014b565b8063010035af1461015057806302b9f127146101845780631303d4fb146101ad5780632e17de78146101d6578063308e401e146101ff5761014b565b3661014b57005b600080fd5b34801561015c57600080fd5b5061016561053a565b60405161017b9a9998979695949392919061211a565b60405180910390f35b34801561019057600080fd5b506101ab60048036038101906101a69190612213565b61059c565b005b3480156101b957600080fd5b506101d460048036038101906101cf9190612253565b6105ef565b005b3480156101e257600080fd5b506101fd60048036038101906101f89190612253565b610a5e565b005b34801561020b57600080fd5b5061022660048036038101906102219190612280565b610d46565b60405161023391906123ad565b60405180910390f35b34801561024857600080fd5b5061025161101b565b60405161025e91906123cf565b60405180910390f35b34801561027357600080fd5b5061027c611021565b005b34801561028a57600080fd5b50610293611033565b6040516102a091906123cf565b60405180910390f35b3480156102b557600080fd5b506102d060048036038101906102cb91906123ea565b611039565b6040516102de92919061242a565b60405180910390f35b3480156102f357600080fd5b506102fc611104565b604051610309919061246e565b60405180910390f35b34801561031e57600080fd5b5061032761111a565b005b610343600480360381019061033e91906124ae565b61112e565b60405161035091906123cf565b60405180910390f35b34801561036557600080fd5b50610380600480360381019061037b9190612280565b6112cb565b60405161038d91906126dc565b60405180910390f35b3480156103a257600080fd5b506103ab61152b565b6040516103b891906123cf565b60405180910390f35b3480156103cd57600080fd5b506103d6611531565b005b3480156103e457600080fd5b506103ed611543565b6040516103fa91906126fe565b60405180910390f35b34801561040f57600080fd5b5061042a60048036038101906104259190612213565b61156c565b005b34801561043857600080fd5b50610453600480360381019061044e91906123ea565b611657565b005b34801561046157600080fd5b5061047c60048036038101906104779190612213565b6116b8565b60405161048991906123cf565b60405180910390f35b34801561049e57600080fd5b506104a76116e9565b6040516104b491906123cf565b60405180910390f35b3480156104c957600080fd5b506104e460048036038101906104df9190612253565b6116ef565b005b3480156104f257600080fd5b5061050d60048036038101906105089190612280565b61173b565b005b34801561051b57600080fd5b506105246117c1565b6040516105319190612778565b60405180910390f35b60098060000160009054906101000a900473ffffffffffffffffffffffffffffffffffffffff1690806001015490806002015490806003015490806004015490806005015490806006015490806007015490806008015490806009015490508a565b6105a46117e7565b8173ffffffffffffffffffffffffffffffffffffffff166108fc829081150290604051600060405180830381858888f193505050501580156105ea573d6000803e3d6000fd5b505050565b6105f761186e565b6105ff6118b4565b3373ffffffffffffffffffffffffffffffffffffffff166004828154811061062a57610629612793565b5b90600052602060002090600d0201600a0160009054906101000a900473ffffffffffffffffffffffffffffffffffffffff1673ffffffffffffffffffffffffffffffffffffffff16146106b2576040517f08c379a00000000000000000000000000000000000000000000000000000000081526004016106a99061281f565b60405180910390fd5b6000600482815481106106c8576106c7612793565b5b90600052602060002090600d0201905080600a0160149054906101000a900460ff161561072a576040517f08c379a00000000000000000000000000000000000000000000000000000000081526004016107219061288b565b60405180910390fd5b600061082b82604051806101c001604052908160008201548152602001600182015481526020016002820154815260200160038201548152602001600482015481526020016005820154815260200160068201548152602001600782015481526020016008820154815260200160098201548152602001600a820160009054906101000a900473ffffffffffffffffffffffffffffffffffffffff1673ffffffffffffffffffffffffffffffffffffffff1673ffffffffffffffffffffffffffffffffffffffff168152602001600a820160149054906101000a900460ff16151515158152602001600b8201548152602001600c82015481525050846118f5565b905081600601548160000151118061084a575081600701548160200151115b610889576040517f08c379a0000000000000000000000000000000000000000000000000000000008152600401610880906128f7565b60405180910390fd5b60008160000151905060008260200151905082600001518460060160008282546108b39190612946565b9250508190555082602001518460070160008282546108d29190612946565b925050819055503373ffffffffffffffffffffffffffffffffffffffff166108fc839081150290604051600060405180830381858888f1935050505015801561091f573d6000803e3d6000fd5b50600260009054906101000a900473ffffffffffffffffffffffffffffffffffffffff1673ffffffffffffffffffffffffffffffffffffffff1663a9059cbb33836040518363ffffffff1660e01b815260040161097d92919061297a565b6020604051808303816000875af115801561099c573d6000803e3d6000fd5b505050506040513d601f19601f820116820180604052508101906109c091906129cf565b6109ff576040517f08c379a00000000000000000000000000000000000000000000000000000000081526004016109f690612a48565b60405180910390fd5b3373ffffffffffffffffffffffffffffffffffffffff167f70de20a533702af05c8faf1637846c4586a021bbc71b6928b089b6d555e4fbc28383604051610a4792919061242a565b60405180910390a250505050610a5b611a22565b50565b610a6661186e565b610a6e6118b4565b600060048281548110610a8457610a83612793565b5b90600052602060002090600d0201905080600a0160149054906101000a900460ff1615610ae6576040517f08c379a0000000000000000000000000000000000000000000000000000000008152600401610add9061288b565b60405180910390fd5b42816002015410610b2c576040517f08c379a0000000000000000000000000000000000000000000000000000000008152600401610b2390612ab4565b60405180910390fd5b3373ffffffffffffffffffffffffffffffffffffffff1681600a0160009054906101000a900473ffffffffffffffffffffffffffffffffffffffff1673ffffffffffffffffffffffffffffffffffffffff1614610bbe576040517f08c379a0000000000000000000000000000000000000000000000000000000008152600401610bb59061281f565b60405180910390fd5b600181600a0160146101000a81548160ff021916908315150217905550600260009054906101000a900473ffffffffffffffffffffffffffffffffffffffff1673ffffffffffffffffffffffffffffffffffffffff1663a9059cbb3383600001546040518363ffffffff1660e01b8152600401610c3c92919061297a565b6020604051808303816000875af1158015610c5b573d6000803e3d6000fd5b505050506040513d601f19601f82011682018060405250810190610c7f91906129cf565b610cbe576040517f08c379a0000000000000000000000000000000000000000000000000000000008152600401610cb590612a48565b60405180910390fd5b3373ffffffffffffffffffffffffffffffffffffffff167f204fccf0d92ed8d48f204adb39b2e81e92bad0dedb93f5716ca9478cfb57de00826000015483600601548460030154610d0f9190612ad4565b84600701548560040154610d239190612ad4565b604051610d3293929190612b08565b60405180910390a250610d43611a22565b50565b60606000600360008473ffffffffffffffffffffffffffffffffffffffff1673ffffffffffffffffffffffffffffffffffffffff168152602001908152602001600020805480602002602001604051908101604052809291908181526020018280548015610dd357602002820191906000526020600020905b815481526020019060010190808311610dbf575b50505050509050805167ffffffffffffffff811115610df557610df4612b3f565b5b604051908082528060200260200182016040528015610e2e57816020015b610e1b612018565b815260200190600190039081610e135790505b50915060005b8151811015611014576004828281518110610e5257610e51612793565b5b602002602001015181548110610e6b57610e6a612793565b5b90600052602060002090600d0201600a0160149054906101000a900460ff166110075760006004838381518110610ea557610ea4612793565b5b602002602001015181548110610ebe57610ebd612793565b5b90600052602060002090600d0201604051806101c001604052908160008201548152602001600182015481526020016002820154815260200160038201548152602001600482015481526020016005820154815260200160068201548152602001600782015481526020016008820154815260200160098201548152602001600a820160009054906101000a900473ffffffffffffffffffffffffffffffffffffffff1673ffffffffffffffffffffffffffffffffffffffff1673ffffffffffffffffffffffffffffffffffffffff168152602001600a820160149054906101000a900460ff16151515158152602001600b8201548152602001600c820154815250509050610fe781848481518110610fda57610fd9612793565b5b60200260200101516118f5565b848381518110610ffa57610ff9612793565b5b6020026020010181905250505b8080600101915050610e34565b5050919050565b60065481565b6110296117e7565b611031611a2b565b565b60075481565b60008060006103e8905060006301e13380858360096005015461105c9190612b6e565b6110669190612b6e565b6110709190612bdf565b905060006301e13380868460096006015461108b9190612b6e565b6110959190612b6e565b61109f9190612bdf565b905082606482896110b09190612b6e565b6110ba9190612bdf565b6110c49190612bdf565b93506009800154836064848a6110da9190612b6e565b6110e49190612bdf565b6110ee9190612bdf565b6110f89190612bdf565b94505050509250929050565b60008060149054906101000a900460ff16905090565b6111226117e7565b61112c6000611a8d565b565b600061113861186e565b6111406118b4565b600960010154421015611188576040517f08c379a000000000000000000000000000000000000000000000000000000000815260040161117f90612c5c565b60405180910390fd5b6009600201544211156111d0576040517f08c379a00000000000000000000000000000000000000000000000000000000081526004016111c790612cc8565b60405180910390fd5b600260009054906101000a900473ffffffffffffffffffffffffffffffffffffffff1673ffffffffffffffffffffffffffffffffffffffff166323b872dd3330866040518463ffffffff1660e01b815260040161122f93929190612ce8565b6020604051808303816000875af115801561124e573d6000803e3d6000fd5b505050506040513d601f19601f8201168201806040525081019061127291906129cf565b6112b1576040517f08c379a00000000000000000000000000000000000000000000000000000000081526004016112a890612a48565b60405180910390fd5b6112bb8383611b51565b90506112c5611a22565b92915050565b60606000600360008473ffffffffffffffffffffffffffffffffffffffff1673ffffffffffffffffffffffffffffffffffffffff16815260200190815260200160002080548060200260200160405190810160405280929190818152602001828054801561135857602002820191906000526020600020905b815481526020019060010190808311611344575b505050505090506000815167ffffffffffffffff81111561137c5761137b612b3f565b5b6040519080825280602002602001820160405280156113b557816020015b6113a2612039565b81526020019060019003908161139a5790505b50905060005b82518110156115205760048382815181106113d9576113d8612793565b5b6020026020010151815481106113f2576113f1612793565b5b90600052602060002090600d0201604051806101c001604052908160008201548152602001600182015481526020016002820154815260200160038201548152602001600482015481526020016005820154815260200160068201548152602001600782015481526020016008820154815260200160098201548152602001600a820160009054906101000a900473ffffffffffffffffffffffffffffffffffffffff1673ffffffffffffffffffffffffffffffffffffffff1673ffffffffffffffffffffffffffffffffffffffff168152602001600a820160149054906101000a900460ff16151515158152602001600b8201548152602001600c8201548152505082828151811061150857611507612793565b5b602002602001018190525080806001019150506113bb565b508092505050919050565b60055481565b6115396117e7565b611541611e8b565b565b60008060009054906101000a900473ffffffffffffffffffffffffffffffffffffffff16905090565b6115746117e7565b600260009054906101000a900473ffffffffffffffffffffffffffffffffffffffff1673ffffffffffffffffffffffffffffffffffffffff1663a9059cbb83836040518363ffffffff1660e01b81526004016115d192919061297a565b6020604051808303816000875af11580156115f0573d6000803e3d6000fd5b505050506040513d601f19601f8201168201806040525081019061161491906129cf565b611653576040517f08c379a000000000000000000000000000000000000000000000000000000000815260040161164a90612a48565b60405180910390fd5b5050565b61165f6118b4565b6116676117e7565b81600960050181905550806009600601819055507f787a1fca55641ce34a438271930bbb9401df20db2b4f510d4f252227d85df43d82826040516116ac92919061242a565b60405180910390a15050565b600360205281600052604060002081815481106116d457600080fd5b90600052602060002001600091509150505481565b60085481565b6116f76117e7565b806009600401819055507ff4045d7dd317de89564c3f12c35961242ed2a4dce3ae4e7a75847ffa04bb08348160405161173091906123cf565b60405180910390a150565b6117436117e7565b600073ffffffffffffffffffffffffffffffffffffffff168173ffffffffffffffffffffffffffffffffffffffff16036117b55760006040517f1e4fbdf70000000000000000000000000000000000000000000000000000000081526004016117ac91906126fe565b60405180910390fd5b6117be81611a8d565b50565b600260009054906101000a900473ffffffffffffffffffffffffffffffffffffffff1681565b6117ef611eee565b73ffffffffffffffffffffffffffffffffffffffff1661180d611543565b73ffffffffffffffffffffffffffffffffffffffff161461186c57611830611eee565b6040517f118cdaa700000000000000000000000000000000000000000000000000000000815260040161186391906126fe565b60405180910390fd5b565b6002600154036118aa576040517f3ee5aeb500000000000000000000000000000000000000000000000000000000815260040160405180910390fd5b6002600181905550565b6118bc611104565b156118f3576040517fd93c066500000000000000000000000000000000000000000000000000000000815260040160405180910390fd5b565b6118fd612018565b60006103e8905060008460200151426119169190612ad4565b905060006301e1338082848861018001516119319190612b6e565b61193b9190612b6e565b6119459190612bdf565b905060006301e133808385896101a001516119609190612b6e565b61196a9190612b6e565b6119749190612bdf565b905060006009800154856064858b600001516119909190612b6e565b61199a9190612bdf565b6119a49190612bdf565b6119ae9190612bdf565b90506000856064848b600001516119c59190612b6e565b6119cf9190612bdf565b6119d99190612bdf565b905060405180606001604052808a60c00151846119f69190612ad4565b81526020018a60e0015183611a0b9190612ad4565b815260200189815250965050505050505092915050565b60018081905550565b611a33611ef6565b60008060146101000a81548160ff0219169083151502179055507f5db9ee0a495bf2e6ff9c91a7834c1ba4fdd244a5e8aa4e537bd38aeae4b073aa611a76611eee565b604051611a8391906126fe565b60405180910390a1565b60008060009054906101000a900473ffffffffffffffffffffffffffffffffffffffff169050816000806101000a81548173ffffffffffffffffffffffffffffffffffffffff021916908373ffffffffffffffffffffffffffffffffffffffff1602179055508173ffffffffffffffffffffffffffffffffffffffff168173ffffffffffffffffffffffffffffffffffffffff167f8be0079c531659141344cd1fd0a4f28419497f9722a3daafe3b4186f6b6457e060405160405180910390a35050565b6000600960040154831015611b9b576040517f08c379a0000000000000000000000000000000000000000000000000000000008152600401611b9290612d6b565b60405180910390fd5b6000611ba683611f36565b9050600080611bb58684611039565b9150915060048054905093506004604051806101c001604052808881526020014281526020018542611be79190612946565b8152602001848152602001838152602001858152602001600081526020016000815260200160008152602001600081526020013373ffffffffffffffffffffffffffffffffffffffff168152602001600015158152602001600960050154815260200160096006015481525090806001815401808255809150506001900390600052602060002090600d0201600090919091909150600082015181600001556020820151816001015560408201518160020155606082015181600301556080820151816004015560a0820151816005015560c0820151816006015560e082015181600701556101008201518160080155610120820151816009015561014082015181600a0160006101000a81548173ffffffffffffffffffffffffffffffffffffffff021916908373ffffffffffffffffffffffffffffffffffffffff16021790555061016082015181600a0160146101000a81548160ff02191690831515021790555061018082015181600b01556101a082015181600c01555050600360003373ffffffffffffffffffffffffffffffffffffffff1673ffffffffffffffffffffffffffffffffffffffff1681526020019081526020016000208490806001815401808255809150506001900390600052602060002001600090919091909150558560056000828254611ddb9190612946565b925050819055508160066000828254611df49190612946565b925050819055508060076000828254611e0d9190612946565b92505081905550600160086000828254611e279190612946565b925050819055503373ffffffffffffffffffffffffffffffffffffffff167f9cfd25589d1eb8ad71e342a86a8524e83522e3936c0803048c08f6d9ad974f4087858585604051611e7a9493929190612d8b565b60405180910390a250505092915050565b611e936118b4565b6001600060146101000a81548160ff0219169083151502179055507f62e78cea01bee320cd4e420270b5ea74000d11b0c9f74754ebdbfc544b05a258611ed7611eee565b604051611ee491906126fe565b60405180910390a1565b600033905090565b611efe611104565b611f34576040517f8dfc202b00000000000000000000000000000000000000000000000000000000815260040160405180910390fd5b565b6000806003811115611f4b57611f4a612dd0565b5b826003811115611f5e57611f5d612dd0565b5b03611f6e5762278d009050612013565b60016003811115611f8257611f81612dd0565b5b826003811115611f9557611f94612dd0565b5b03611fa557623b53809050612013565b60026003811115611fb957611fb8612dd0565b5b826003811115611fcc57611fcb612dd0565b5b03611fdc57624f1a009050612013565b600380811115611fef57611fee612dd0565b5b82600381111561200257612001612dd0565b5b03612012576276a7009050612013565b5b919050565b60405180606001604052806000815260200160008152602001600081525090565b604051806101c0016040528060008152602001600081526020016000815260200160008152602001600081526020016000815260200160008152602001600081526020016000815260200160008152602001600073ffffffffffffffffffffffffffffffffffffffff16815260200160001515815260200160008152602001600081525090565b600073ffffffffffffffffffffffffffffffffffffffff82169050919050565b60006120eb826120c0565b9050919050565b6120fb816120e0565b82525050565b6000819050919050565b61211481612101565b82525050565b600061014082019050612130600083018d6120f2565b61213d602083018c61210b565b61214a604083018b61210b565b612157606083018a61210b565b612164608083018961210b565b61217160a083018861210b565b61217e60c083018761210b565b61218b60e083018661210b565b61219961010083018561210b565b6121a761012083018461210b565b9b9a5050505050505050505050565b600080fd5b6121c4816120e0565b81146121cf57600080fd5b50565b6000813590506121e1816121bb565b92915050565b6121f081612101565b81146121fb57600080fd5b50565b60008135905061220d816121e7565b92915050565b6000806040838503121561222a576122296121b6565b5b6000612238858286016121d2565b9250506020612249858286016121fe565b9150509250929050565b600060208284031215612269576122686121b6565b5b6000612277848285016121fe565b91505092915050565b600060208284031215612296576122956121b6565b5b60006122a4848285016121d2565b91505092915050565b600081519050919050565b600082825260208201905092915050565b6000819050602082019050919050565b6122e281612101565b82525050565b6060820160008201516122fe60008501826122d9565b50602082015161231160208501826122d9565b50604082015161232460408501826122d9565b50505050565b600061233683836122e8565b60608301905092915050565b6000602082019050919050565b600061235a826122ad565b61236481856122b8565b935061236f836122c9565b8060005b838110156123a0578151612387888261232a565b975061239283612342565b925050600181019050612373565b5085935050505092915050565b600060208201905081810360008301526123c7818461234f565b905092915050565b60006020820190506123e4600083018461210b565b92915050565b60008060408385031215612401576124006121b6565b5b600061240f858286016121fe565b9250506020612420858286016121fe565b9150509250929050565b600060408201905061243f600083018561210b565b61244c602083018461210b565b9392505050565b60008115159050919050565b61246881612453565b82525050565b6000602082019050612483600083018461245f565b92915050565b6004811061249657600080fd5b50565b6000813590506124a881612489565b92915050565b600080604083850312156124c5576124c46121b6565b5b60006124d3858286016121fe565b92505060206124e485828601612499565b9150509250929050565b600081519050919050565b600082825260208201905092915050565b6000819050602082019050919050565b612523816120e0565b82525050565b61253281612453565b82525050565b6101c08201600082015161254f60008501826122d9565b50602082015161256260208501826122d9565b50604082015161257560408501826122d9565b50606082015161258860608501826122d9565b50608082015161259b60808501826122d9565b5060a08201516125ae60a08501826122d9565b5060c08201516125c160c08501826122d9565b5060e08201516125d460e08501826122d9565b506101008201516125e96101008501826122d9565b506101208201516125fe6101208501826122d9565b5061014082015161261361014085018261251a565b50610160820151612628610160850182612529565b5061018082015161263d6101808501826122d9565b506101a08201516126526101a08501826122d9565b50505050565b60006126648383612538565b6101c08301905092915050565b6000602082019050919050565b6000612689826124ee565b61269381856124f9565b935061269e8361250a565b8060005b838110156126cf5781516126b68882612658565b97506126c183612671565b9250506001810190506126a2565b5085935050505092915050565b600060208201905081810360008301526126f6818461267e565b905092915050565b600060208201905061271360008301846120f2565b92915050565b6000819050919050565b600061273e612739612734846120c0565b612719565b6120c0565b9050919050565b600061275082612723565b9050919050565b600061276282612745565b9050919050565b61277281612757565b82525050565b600060208201905061278d6000830184612769565b92915050565b7f4e487b7100000000000000000000000000000000000000000000000000000000600052603260045260246000fd5b600082825260208201905092915050565b7f4e6f74206f776e65720000000000000000000000000000000000000000000000600082015250565b60006128096009836127c2565b9150612814826127d3565b602082019050919050565b60006020820190508181036000830152612838816127fc565b9050919050565b7f416c726561647920756e7374616b656400000000000000000000000000000000600082015250565b60006128756010836127c2565b91506128808261283f565b602082019050919050565b600060208201905081810360008301526128a481612868565b9050919050565b7f4e6f207265776172647320746f20636c61696d00000000000000000000000000600082015250565b60006128e16013836127c2565b91506128ec826128ab565b602082019050919050565b60006020820190508181036000830152612910816128d4565b9050919050565b7f4e487b7100000000000000000000000000000000000000000000000000000000600052601160045260246000fd5b600061295182612101565b915061295c83612101565b925082820190508082111561297457612973612917565b5b92915050565b600060408201905061298f60008301856120f2565b61299c602083018461210b565b9392505050565b6129ac81612453565b81146129b757600080fd5b50565b6000815190506129c9816129a3565b92915050565b6000602082840312156129e5576129e46121b6565b5b60006129f3848285016129ba565b91505092915050565b7f5472616e73666572206661696c65640000000000000000000000000000000000600082015250565b6000612a32600f836127c2565b9150612a3d826129fc565b602082019050919050565b60006020820190508181036000830152612a6181612a25565b9050919050565b7f5374616b65206e6f74206d617475726564000000000000000000000000000000600082015250565b6000612a9e6011836127c2565b9150612aa982612a68565b602082019050919050565b60006020820190508181036000830152612acd81612a91565b9050919050565b6000612adf82612101565b9150612aea83612101565b9250828203905081811115612b0257612b01612917565b5b92915050565b6000606082019050612b1d600083018661210b565b612b2a602083018561210b565b612b37604083018461210b565b949350505050565b7f4e487b7100000000000000000000000000000000000000000000000000000000600052604160045260246000fd5b6000612b7982612101565b9150612b8483612101565b9250828202612b9281612101565b91508282048414831517612ba957612ba8612917565b5b5092915050565b7f4e487b7100000000000000000000000000000000000000000000000000000000600052601260045260246000fd5b6000612bea82612101565b9150612bf583612101565b925082612c0557612c04612bb0565b5b828204905092915050565b7f5374616b696e67206e6f74207374617274656400000000000000000000000000600082015250565b6000612c466013836127c2565b9150612c5182612c10565b602082019050919050565b60006020820190508181036000830152612c7581612c39565b9050919050565b7f5374616b696e6720656e64656400000000000000000000000000000000000000600082015250565b6000612cb2600d836127c2565b9150612cbd82612c7c565b602082019050919050565b60006020820190508181036000830152612ce181612ca5565b9050919050565b6000606082019050612cfd60008301866120f2565b612d0a60208301856120f2565b612d17604083018461210b565b949350505050565b7f4d696e696d756d207374616b65206e6f74206d65740000000000000000000000600082015250565b6000612d556015836127c2565b9150612d6082612d1f565b602082019050919050565b60006020820190508181036000830152612d8481612d48565b9050919050565b6000608082019050612da0600083018761210b565b612dad602083018661210b565b612dba604083018561210b565b612dc7606083018461210b565b95945050505050565b7f4e487b7100000000000000000000000000000000000000000000000000000000600052602160045260246000fdfea264697066735822122066afdc66a5aa67cf45dcd30d39a8cbde7c6f749aca022bf3fe9842c68afc848e64736f6c63430008180033a26469706673582212204327a038e25bbfd4d286ee6cc37b35e31ae482a7fa8d4c6885965bd59edea15064736f6c63430008180033",
  "linkReferences": {},
  "deployedLinkReferences": {}
}