{
  "_format": "hh-sol-artifact-1",
  "contractName": "ThrustpadFairLaunch",
  "sourceName": "contracts/fair-launch/ThrustpadFairLaunch.sol",
  "abi": [
    {
      "inputs": [
        {
          "components": [
            {
              "internalType": "address",
              "name": "token",
              "type": "address"
            },
            {
              "internalType": "uint256",
              "name": "softCap",
              "type": "uint256"
            },
            {
              "internalType": "uint256",
              "name": "hardCap",
              "type": "uint256"
            },
            {
              "internalType": "uint256",
              "name": "amountForSale",
              "type": "uint256"
            },
            {
              "internalType": "uint256",
              "name": "listingRate",
              "type": "uint256"
            },
            {
              "internalType": "uint256",
              "name": "minimumBuy",
              "type": "uint256"
            },
            {
              "internalType": "uint256",
              "name": "maximumBuy",
              "type": "uint256"
            },
            {
              "internalType": "uint256",
              "name": "percentageForLiquidity",
              "type": "uint256"
            },
            {
              "internalType": "uint256",
              "name": "percentageForTeam",
              "type": "uint256"
            },
            {
              "internalType": "uint256",
              "name": "startDate",
              "type": "uint256"
            },
            {
              "internalType": "uint256",
              "name": "endDate",
              "type": "uint256"
            }
          ],
          "internalType": "struct FairLaunchConfig",
          "name": "_config",
          "type": "tuple"
        }
      ],
      "stateMutability": "nonpayable",
      "type": "constructor"
    },
    {
      "inputs": [
        {
          "internalType": "address",
          "name": "owner",
          "type": "address"
        }
      ],
      "name": "OwnableInvalidOwner",
      "type": "error"
    },
    {
      "inputs": [
        {
          "internalType": "address",
          "name": "account",
          "type": "address"
        }
      ],
      "name": "OwnableUnauthorizedAccount",
      "type": "error"
    },
    {
      "inputs": [],
      "name": "ReentrancyGuardReentrantCall",
      "type": "error"
    },
    {
      "anonymous": false,
      "inputs": [
        {
          "indexed": true,
          "internalType": "address",
          "name": "owner",
          "type": "address"
        },
        {
          "indexed": true,
          "internalType": "address",
          "name": "pair",
          "type": "address"
        },
        {
          "indexed": false,
          "internalType": "uint256",
          "name": "amountLPTokens",
          "type": "uint256"
        }
      ],
      "name": "LPTokensClaimed",
      "type": "event"
    },
    {
      "anonymous": false,
      "inputs": [
        {
          "indexed": true,
          "internalType": "address",
          "name": "pair",
          "type": "address"
        },
        {
          "indexed": true,
          "internalType": "address",
          "name": "token",
          "type": "address"
        },
        {
          "indexed": false,
          "internalType": "uint256",
          "name": "amountMinted",
          "type": "uint256"
        }
      ],
      "name": "LiquidityDeployed",
      "type": "event"
    },
    {
      "anonymous": false,
      "inputs": [
        {
          "indexed": true,
          "internalType": "address",
          "name": "previousOwner",
          "type": "address"
        },
        {
          "indexed": true,
          "internalType": "address",
          "name": "newOwner",
          "type": "address"
        }
      ],
      "name": "OwnershipTransferred",
      "type": "event"
    },
    {
      "anonymous": false,
      "inputs": [
        {
          "indexed": true,
          "internalType": "address",
          "name": "buyer",
          "type": "address"
        },
        {
          "indexed": true,
          "internalType": "address",
          "name": "token",
          "type": "address"
        },
        {
          "indexed": false,
          "internalType": "uint256",
          "name": "amountInEdu",
          "type": "uint256"
        }
      ],
      "name": "Refund",
      "type": "event"
    },
    {
      "anonymous": false,
      "inputs": [
        {
          "indexed": true,
          "internalType": "address",
          "name": "team",
          "type": "address"
        },
        {
          "indexed": true,
          "internalType": "address",
          "name": "token",
          "type": "address"
        },
        {
          "indexed": false,
          "internalType": "uint256",
          "name": "amountInToken",
          "type": "uint256"
        }
      ],
      "name": "TeamClaimed",
      "type": "event"
    },
    {
      "anonymous": false,
      "inputs": [
        {
          "indexed": true,
          "internalType": "address",
          "name": "buyer",
          "type": "address"
        },
        {
          "indexed": true,
          "internalType": "address",
          "name": "token",
          "type": "address"
        },
        {
          "indexed": false,
          "internalType": "uint256",
          "name": "amountInEdu",
          "type": "uint256"
        }
      ],
      "name": "TokenBought",
      "type": "event"
    },
    {
      "anonymous": false,
      "inputs": [
        {
          "indexed": true,
          "internalType": "address",
          "name": "buyer",
          "type": "address"
        },
        {
          "indexed": true,
          "internalType": "address",
          "name": "token",
          "type": "address"
        },
        {
          "indexed": false,
          "internalType": "uint256",
          "name": "amountInToken",
          "type": "uint256"
        }
      ],
      "name": "TokenClaimed",
      "type": "event"
    },
    {
      "inputs": [],
      "name": "LPTokenAddress",
      "outputs": [
        {
          "internalType": "address",
          "name": "",
          "type": "address"
        }
      ],
      "stateMutability": "view",
      "type": "function"
    },
    {
      "inputs": [
        {
          "internalType": "bool",
          "name": "_allow",
          "type": "bool"
        }
      ],
      "name": "allowEmergencyTransferEDU",
      "outputs": [],
      "stateMutability": "nonpayable",
      "type": "function"
    },
    {
      "inputs": [
        {
          "internalType": "bool",
          "name": "_allow",
          "type": "bool"
        }
      ],
      "name": "allowEmergencyTransferToken",
      "outputs": [],
      "stateMutability": "nonpayable",
      "type": "function"
    },
    {
      "inputs": [],
      "name": "buyToken",
      "outputs": [],
      "stateMutability": "payable",
      "type": "function"
    },
    {
      "inputs": [],
      "name": "claimLPTokens",
      "outputs": [],
      "stateMutability": "nonpayable",
      "type": "function"
    },
    {
      "inputs": [],
      "name": "claimRefund",
      "outputs": [],
      "stateMutability": "nonpayable",
      "type": "function"
    },
    {
      "inputs": [],
      "name": "claimTokens",
      "outputs": [],
      "stateMutability": "nonpayable",
      "type": "function"
    },
    {
      "inputs": [
        {
          "internalType": "address",
          "name": "",
          "type": "address"
        }
      ],
      "name": "claimed",
      "outputs": [
        {
          "internalType": "uint256",
          "name": "",
          "type": "uint256"
        }
      ],
      "stateMutability": "view",
      "type": "function"
    },
    {
      "inputs": [],
      "name": "config",
      "outputs": [
        {
          "internalType": "address",
          "name": "token",
          "type": "address"
        },
        {
          "internalType": "uint256",
          "name": "softCap",
          "type": "uint256"
        },
        {
          "internalType": "uint256",
          "name": "hardCap",
          "type": "uint256"
        },
        {
          "internalType": "uint256",
          "name": "amountForSale",
          "type": "uint256"
        },
        {
          "internalType": "uint256",
          "name": "listingRate",
          "type": "uint256"
        },
        {
          "internalType": "uint256",
          "name": "minimumBuy",
          "type": "uint256"
        },
        {
          "internalType": "uint256",
          "name": "maximumBuy",
          "type": "uint256"
        },
        {
          "internalType": "uint256",
          "name": "percentageForLiquidity",
          "type": "uint256"
        },
        {
          "internalType": "uint256",
          "name": "percentageForTeam",
          "type": "uint256"
        },
        {
          "internalType": "uint256",
          "name": "startDate",
          "type": "uint256"
        },
        {
          "internalType": "uint256",
          "name": "endDate",
          "type": "uint256"
        }
      ],
      "stateMutability": "view",
      "type": "function"
    },
    {
      "inputs": [],
      "name": "deployLiquidity",
      "outputs": [],
      "stateMutability": "nonpayable",
      "type": "function"
    },
    {
      "inputs": [
        {
          "internalType": "address",
          "name": "_token",
          "type": "address"
        },
        {
          "internalType": "uint256",
          "name": "_amount",
          "type": "uint256"
        }
      ],
      "name": "emergencyTransfer",
      "outputs": [],
      "stateMutability": "nonpayable",
      "type": "function"
    },
    {
      "inputs": [
        {
          "internalType": "uint256",
          "name": "_amount",
          "type": "uint256"
        }
      ],
      "name": "emergencyTransferEDU",
      "outputs": [],
      "stateMutability": "nonpayable",
      "type": "function"
    },
    {
      "inputs": [],
      "name": "liquidityDeployed",
      "outputs": [
        {
          "internalType": "bool",
          "name": "",
          "type": "bool"
        }
      ],
      "stateMutability": "view",
      "type": "function"
    },
    {
      "inputs": [],
      "name": "owner",
      "outputs": [
        {
          "internalType": "address",
          "name": "",
          "type": "address"
        }
      ],
      "stateMutability": "view",
      "type": "function"
    },
    {
      "inputs": [
        {
          "internalType": "address",
          "name": "",
          "type": "address"
        }
      ],
      "name": "purchaseHistory",
      "outputs": [
        {
          "internalType": "uint256",
          "name": "",
          "type": "uint256"
        }
      ],
      "stateMutability": "view",
      "type": "function"
    },
    {
      "inputs": [],
      "name": "renounceOwnership",
      "outputs": [],
      "stateMutability": "nonpayable",
      "type": "function"
    },
    {
      "inputs": [],
      "name": "teamClaimed",
      "outputs": [
        {
          "internalType": "bool",
          "name": "",
          "type": "bool"
        }
      ],
      "stateMutability": "view",
      "type": "function"
    },
    {
      "inputs": [],
      "name": "totalContributors",
      "outputs": [
        {
          "internalType": "uint256",
          "name": "",
          "type": "uint256"
        }
      ],
      "stateMutability": "view",
      "type": "function"
    },
    {
      "inputs": [],
      "name": "totalSold",
      "outputs": [
        {
          "internalType": "uint256",
          "name": "",
          "type": "uint256"
        }
      ],
      "stateMutability": "view",
      "type": "function"
    },
    {
      "inputs": [
        {
          "internalType": "address",
          "name": "newOwner",
          "type": "address"
        }
      ],
      "name": "transferOwnership",
      "outputs": [],
      "stateMutability": "nonpayable",
      "type": "function"
    },
    {
      "inputs": [],
      "name": "withdrawTeamTokens",
      "outputs": [],
      "stateMutability": "nonpayable",
      "type": "function"
    },
    {
      "stateMutability": "payable",
      "type": "receive"
    }
  ],
  "bytecode": "0x6080604052731ccc7382d46313c24e1d13510b1c9445a792f4d4601260006101000a81548173ffffffffffffffffffffffffffffffffffffffff021916908373ffffffffffffffffffffffffffffffffffffffff16021790555073b97582dcb6f2866098ca210095a04df3e11b76a6601360006101000a81548173ffffffffffffffffffffffffffffffffffffffff021916908373ffffffffffffffffffffffffffffffffffffffff1602179055507383e46e6e193b284d26f7a4b7d865b65952a50bf2601460006101000a81548173ffffffffffffffffffffffffffffffffffffffff021916908373ffffffffffffffffffffffffffffffffffffffff1602179055503480156200011057600080fd5b5060405162003243380380620032438339818101604052810190620001369190620005b4565b32600073ffffffffffffffffffffffffffffffffffffffff168173ffffffffffffffffffffffffffffffffffffffff1603620001ac5760006040517f1e4fbdf7000000000000000000000000000000000000000000000000000000008152600401620001a39190620005f8565b60405180910390fd5b620001bd816200028060201b60201c565b506001808190555080600260008201518160000160006101000a81548173ffffffffffffffffffffffffffffffffffffffff021916908373ffffffffffffffffffffffffffffffffffffffff1602179055506020820151816001015560408201518160020155606082015181600301556080820151816004015560a0820151816005015560c0820151816006015560e082015181600701556101008201518160080155610120820151816009015561014082015181600a01559050505062000615565b60008060009054906101000a900473ffffffffffffffffffffffffffffffffffffffff169050816000806101000a81548173ffffffffffffffffffffffffffffffffffffffff021916908373ffffffffffffffffffffffffffffffffffffffff1602179055508173ffffffffffffffffffffffffffffffffffffffff168173ffffffffffffffffffffffffffffffffffffffff167f8be0079c531659141344cd1fd0a4f28419497f9722a3daafe3b4186f6b6457e060405160405180910390a35050565b6000604051905090565b600080fd5b600080fd5b6000601f19601f8301169050919050565b7f4e487b7100000000000000000000000000000000000000000000000000000000600052604160045260246000fd5b620003a38262000358565b810181811067ffffffffffffffff82111715620003c557620003c462000369565b5b80604052505050565b6000620003da62000344565b9050620003e8828262000398565b919050565b600073ffffffffffffffffffffffffffffffffffffffff82169050919050565b60006200041a82620003ed565b9050919050565b6200042c816200040d565b81146200043857600080fd5b50565b6000815190506200044c8162000421565b92915050565b6000819050919050565b620004678162000452565b81146200047357600080fd5b50565b60008151905062000487816200045c565b92915050565b60006101608284031215620004a757620004a662000353565b5b620004b4610160620003ce565b90506000620004c6848285016200043b565b6000830152506020620004dc8482850162000476565b6020830152506040620004f28482850162000476565b6040830152506060620005088482850162000476565b60608301525060806200051e8482850162000476565b60808301525060a0620005348482850162000476565b60a08301525060c06200054a8482850162000476565b60c08301525060e0620005608482850162000476565b60e083015250610100620005778482850162000476565b610100830152506101206200058f8482850162000476565b61012083015250610140620005a78482850162000476565b6101408301525092915050565b60006101608284031215620005ce57620005cd6200034e565b5b6000620005de848285016200048d565b91505092915050565b620005f2816200040d565b82525050565b60006020820190506200060f6000830184620005e7565b92915050565b612c1e80620006256000396000f3fe60806040526004361061012e5760003560e01c80639c5913cc116100ab578063c884ef831161006f578063c884ef831461032c578063d812195c14610369578063dbf0f3e214610392578063e45f2b8a146103bb578063f251fc8c146103f8578063f2fde38b1461042357610135565b80639c5913cc1461028c578063a4821719146102b7578063a86d60b8146102c1578063b5545a3c146102ea578063c3828bf01461030157610135565b8063715018a6116100f2578063715018a6146101d357806379502c55146101ea5780638da5cb5b1461021f5780639106d7ba1461024a578063953b7ef81461027557610135565b80632f3346521461013a57806338af6632146101655780634086bf891461017c57806348c54b9d146101935780636d4ed434146101aa57610135565b3661013557005b600080fd5b34801561014657600080fd5b5061014f61044c565b60405161015c9190611e80565b60405180910390f35b34801561017157600080fd5b5061017a61045f565b005b34801561018857600080fd5b50610191610692565b005b34801561019f57600080fd5b506101a8610d03565b005b3480156101b657600080fd5b506101d160048036038101906101cc9190611ecc565b611005565b005b3480156101df57600080fd5b506101e8611072565b005b3480156101f657600080fd5b506101ff611086565b6040516102169b9a99989796959493929190611f53565b60405180910390f35b34801561022b57600080fd5b506102346110ee565b6040516102419190611ffe565b60405180910390f35b34801561025657600080fd5b5061025f611117565b60405161026c9190612019565b60405180910390f35b34801561028157600080fd5b5061028a61111d565b005b34801561029857600080fd5b506102a1611327565b6040516102ae9190611e80565b60405180910390f35b6102bf61133a565b005b3480156102cd57600080fd5b506102e860048036038101906102e39190611ecc565b611655565b005b3480156102f657600080fd5b506102ff6116c2565b005b34801561030d57600080fd5b50610316611941565b6040516103239190611ffe565b60405180910390f35b34801561033857600080fd5b50610353600480360381019061034e9190612060565b611967565b6040516103609190612019565b60405180910390f35b34801561037557600080fd5b50610390600480360381019061038b91906120b9565b61197f565b005b34801561039e57600080fd5b506103b960048036038101906103b491906120e6565b611aa1565b005b3480156103c757600080fd5b506103e260048036038101906103dd9190612060565b611bfc565b6040516103ef9190612019565b60405180910390f35b34801561040457600080fd5b5061040d611c14565b60405161041a9190612019565b60405180910390f35b34801561042f57600080fd5b5061044a60048036038101906104459190612060565b611c1a565b005b600f60019054906101000a900460ff1681565b610467611ca0565b62278d006002600a015461047b9190612155565b4210156104bd576040517f08c379a00000000000000000000000000000000000000000000000000000000081526004016104b49061220c565b60405180910390fd5b6000600f60029054906101000a900473ffffffffffffffffffffffffffffffffffffffff1673ffffffffffffffffffffffffffffffffffffffff166370a08231306040518263ffffffff1660e01b815260040161051a9190611ffe565b602060405180830381865afa158015610537573d6000803e3d6000fd5b505050506040513d601f19601f8201168201806040525081019061055b9190612241565b9050600081111561068f57600f60029054906101000a900473ffffffffffffffffffffffffffffffffffffffff1673ffffffffffffffffffffffffffffffffffffffff1663a9059cbb33836040518363ffffffff1660e01b81526004016105c392919061226e565b6020604051808303816000875af11580156105e2573d6000803e3d6000fd5b505050506040513d601f19601f8201168201806040525081019061060691906122ac565b50600f60029054906101000a900473ffffffffffffffffffffffffffffffffffffffff1673ffffffffffffffffffffffffffffffffffffffff163373ffffffffffffffffffffffffffffffffffffffff167f4f2e1c4d34092405172a61f387073a9b61bfcbb54eceb1e96383d36e19b394a9836040516106869190612019565b60405180910390a35b50565b61069a611ca0565b6002600a01544210156106e2576040517f08c379a00000000000000000000000000000000000000000000000000000000081526004016106d99061234b565b60405180910390fd5b600260010154600d54101561072c576040517f08c379a0000000000000000000000000000000000000000000000000000000008152600401610723906123dd565b60405180910390fd5b6000601260009054906101000a900473ffffffffffffffffffffffffffffffffffffffff1673ffffffffffffffffffffffffffffffffffffffff1663171223dd73ffffffffffffffffffffffffffffffffffffffff60001b7feeeeeeeeeeeeeeeeeeeeeeeeeeeeeeeeeeeeeeeeeeeeeeeeeeeeeeeeeeeeeeee60001b166107d7600260000160009054906101000a900473ffffffffffffffffffffffffffffffffffffffff16611d27565b6040518363ffffffff1660e01b81526004016107f4929190612428565b6020604051808303816000875af1158015610813573d6000803e3d6000fd5b505050506040513d601f19601f820116820180604052508101906108379190612466565b905080600f60026101000a81548173ffffffffffffffffffffffffffffffffffffffff021916908373ffffffffffffffffffffffffffffffffffffffff160217905550600260000160009054906101000a900473ffffffffffffffffffffffffffffffffffffffff1673ffffffffffffffffffffffffffffffffffffffff1663095ea7b3601360009054906101000a900473ffffffffffffffffffffffffffffffffffffffff167fffffffffffffffffffffffffffffffffffffffffffffffffffffffffffffffff6040518363ffffffff1660e01b815260040161091c92919061226e565b6020604051808303816000875af115801561093b573d6000803e3d6000fd5b505050506040513d601f19601f8201168201806040525081019061095f91906122ac565b5060006064600d546002600701546109779190612493565b6109819190612504565b90506000600260040154826109969190612493565b9050601360009054906101000a900473ffffffffffffffffffffffffffffffffffffffff1673ffffffffffffffffffffffffffffffffffffffff16635a47ddc383600260000160009054906101000a900473ffffffffffffffffffffffffffffffffffffffff166000808688600080307fffffffffffffffffffffffffffffffffffffffffffffffffffffffffffffffff6040518b63ffffffff1660e01b8152600401610a4b9998979695949392919061257a565b60606040518083038185885af1158015610a69573d6000803e3d6000fd5b50505050506040513d601f19601f82011682018060405250810190610a8e9190612607565b5050506000600260000160009054906101000a900473ffffffffffffffffffffffffffffffffffffffff1673ffffffffffffffffffffffffffffffffffffffff166370a08231306040518263ffffffff1660e01b8152600401610af19190611ffe565b602060405180830381865afa158015610b0e573d6000803e3d6000fd5b505050506040513d601f19601f82011682018060405250810190610b329190612241565b9050600260000160009054906101000a900473ffffffffffffffffffffffffffffffffffffffff1673ffffffffffffffffffffffffffffffffffffffff1663a9059cbb6000836040518363ffffffff1660e01b8152600401610b9592919061226e565b6020604051808303816000875af1158015610bb4573d6000803e3d6000fd5b505050506040513d601f19601f82011682018060405250810190610bd891906122ac565b5060008473ffffffffffffffffffffffffffffffffffffffff166370a08231306040518263ffffffff1660e01b8152600401610c149190611ffe565b602060405180830381865afa158015610c31573d6000803e3d6000fd5b505050506040513d601f19601f82011682018060405250810190610c559190612241565b90506001600f60006101000a81548160ff021916908315150217905550600260000160009054906101000a900473ffffffffffffffffffffffffffffffffffffffff1673ffffffffffffffffffffffffffffffffffffffff168573ffffffffffffffffffffffffffffffffffffffff167f2be745126d540f8314c97b28a1687816ebc31358eb0259f21907ff16cd11eeb983604051610cf49190612019565b60405180910390a35050505050565b610d0b611d4a565b6002600a0154421015610d53576040517f08c379a0000000000000000000000000000000000000000000000000000000008152600401610d4a9061234b565b60405180910390fd5b600260010154600d541015610d9d576040517f08c379a0000000000000000000000000000000000000000000000000000000008152600401610d94906123dd565b60405180910390fd5b6000601160003373ffffffffffffffffffffffffffffffffffffffff1673ffffffffffffffffffffffffffffffffffffffff1681526020019081526020016000205414610e1f576040517f08c379a0000000000000000000000000000000000000000000000000000000008152600401610e16906126cc565b60405180910390fd5b60006002800154600260030154610e369190612504565b9050600081601060003373ffffffffffffffffffffffffffffffffffffffff1673ffffffffffffffffffffffffffffffffffffffff16815260200190815260200160002054610e859190612493565b905080601160003373ffffffffffffffffffffffffffffffffffffffff1673ffffffffffffffffffffffffffffffffffffffff16815260200190815260200160002081905550600260000160009054906101000a900473ffffffffffffffffffffffffffffffffffffffff1673ffffffffffffffffffffffffffffffffffffffff1663a9059cbb33836040518363ffffffff1660e01b8152600401610f2b92919061226e565b6020604051808303816000875af1158015610f4a573d6000803e3d6000fd5b505050506040513d601f19601f82011682018060405250810190610f6e91906122ac565b50600260000160009054906101000a900473ffffffffffffffffffffffffffffffffffffffff1673ffffffffffffffffffffffffffffffffffffffff163373ffffffffffffffffffffffffffffffffffffffff167f4831bdd9dcf3048a28319ce81d3cab7a15366bcf449bc7803a539107440809cc83604051610ff19190612019565b60405180910390a35050611003611d90565b565b61100d611ca0565b6002600a0154421015611055576040517f08c379a000000000000000000000000000000000000000000000000000000000815260040161104c90612738565b60405180910390fd5b80600f60166101000a81548160ff02191690831515021790555050565b61107a611ca0565b6110846000611d99565b565b60028060000160009054906101000a900473ffffffffffffffffffffffffffffffffffffffff169080600101549080600201549080600301549080600401549080600501549080600601549080600701549080600801549080600901549080600a015490508b565b60008060009054906101000a900473ffffffffffffffffffffffffffffffffffffffff16905090565b600d5481565b611125611ca0565b6002600a015442101561116d576040517f08c379a00000000000000000000000000000000000000000000000000000000081526004016111649061234b565b60405180910390fd5b600260010154600d5410156111b7576040517f08c379a00000000000000000000000000000000000000000000000000000000081526004016111ae906123dd565b60405180910390fd5b600f60019054906101000a900460ff1615611207576040517f08c379a00000000000000000000000000000000000000000000000000000000081526004016111fe906127ca565b60405180910390fd5b60006064600d5460026008015461121e9190612493565b6112289190612504565b90506001600f60016101000a81548160ff02191690831515021790555061124d6110ee565b73ffffffffffffffffffffffffffffffffffffffff166108fc829081150290604051600060405180830381858888f19350505050158015611292573d6000803e3d6000fd5b50600260000160009054906101000a900473ffffffffffffffffffffffffffffffffffffffff1673ffffffffffffffffffffffffffffffffffffffff166112d76110ee565b73ffffffffffffffffffffffffffffffffffffffff167fa95e69983c44f17474cba286953deb119463b9f5cb8cfde4fd709df3660266f78360405161131c9190612019565b60405180910390a350565b600f60009054906101000a900460ff1681565b600260090154421015611382576040517f08c379a00000000000000000000000000000000000000000000000000000000081526004016113799061285c565b60405180910390fd5b6002600a01544211156113ca576040517f08c379a00000000000000000000000000000000000000000000000000000000081526004016113c1906128ee565b60405180910390fd5b600260050154341015611412576040517f08c379a000000000000000000000000000000000000000000000000000000000815260040161140990612980565b60405180910390fd5b60026006015434111561145a576040517f08c379a000000000000000000000000000000000000000000000000000000000815260040161145190612a12565b60405180910390fd5b600280015434600d5461146d9190612155565b11156114ae576040517f08c379a00000000000000000000000000000000000000000000000000000000081526004016114a590612aa4565b60405180910390fd5b60026006015434601060003373ffffffffffffffffffffffffffffffffffffffff1673ffffffffffffffffffffffffffffffffffffffff168152602001908152602001600020546114ff9190612155565b1115611540576040517f08c379a000000000000000000000000000000000000000000000000000000000815260040161153790612b36565b60405180910390fd5b34600d60008282546115529190612155565b925050819055506001600e600082825461156c9190612155565b9250508190555034601060003373ffffffffffffffffffffffffffffffffffffffff1673ffffffffffffffffffffffffffffffffffffffff16815260200190815260200160002060008282546115c29190612155565b92505081905550600260000160009054906101000a900473ffffffffffffffffffffffffffffffffffffffff1673ffffffffffffffffffffffffffffffffffffffff163373ffffffffffffffffffffffffffffffffffffffff167f9b24bd0884170cbce51f9f00df6b3f9aed2231e4086241d1d04687b42afdf7b93460405161164b9190612019565b60405180910390a3565b61165d611ca0565b6002600a01544210156116a5576040517f08c379a000000000000000000000000000000000000000000000000000000000815260040161169c90612738565b60405180910390fd5b80600f60176101000a81548160ff02191690831515021790555050565b6116ca611d4a565b6002600a0154421015611712576040517f08c379a00000000000000000000000000000000000000000000000000000000081526004016117099061234b565b60405180910390fd5b600260010154600d541061175b576040517f08c379a000000000000000000000000000000000000000000000000000000000815260040161175290612bc8565b60405180910390fd5b6000601160003373ffffffffffffffffffffffffffffffffffffffff1673ffffffffffffffffffffffffffffffffffffffff16815260200190815260200160002054146117dd576040517f08c379a00000000000000000000000000000000000000000000000000000000081526004016117d4906126cc565b60405180910390fd5b6000601060003373ffffffffffffffffffffffffffffffffffffffff1673ffffffffffffffffffffffffffffffffffffffff16815260200190815260200160002054905080601160003373ffffffffffffffffffffffffffffffffffffffff1673ffffffffffffffffffffffffffffffffffffffff168152602001908152602001600020819055503373ffffffffffffffffffffffffffffffffffffffff166108fc829081150290604051600060405180830381858888f193505050501580156118ab573d6000803e3d6000fd5b50600260000160009054906101000a900473ffffffffffffffffffffffffffffffffffffffff1673ffffffffffffffffffffffffffffffffffffffff163373ffffffffffffffffffffffffffffffffffffffff167ff40cc8c1a1d17359049ba500cfc894596a692cffc9d03943cd92ec2e159cf6ae8360405161192e9190612019565b60405180910390a35061193f611d90565b565b600f60029054906101000a900473ffffffffffffffffffffffffffffffffffffffff1681565b60116020528060005260406000206000915090505481565b6002600a01544210156119c7576040517f08c379a00000000000000000000000000000000000000000000000000000000081526004016119be90612738565b60405180910390fd5b601460009054906101000a900473ffffffffffffffffffffffffffffffffffffffff1673ffffffffffffffffffffffffffffffffffffffff163373ffffffffffffffffffffffffffffffffffffffff1614611a57576040517f08c379a0000000000000000000000000000000000000000000000000000000008152600401611a4e90612738565b60405180910390fd5b3373ffffffffffffffffffffffffffffffffffffffff166108fc829081150290604051600060405180830381858888f19350505050158015611a9d573d6000803e3d6000fd5b5050565b6002600a0154421015611ae9576040517f08c379a0000000000000000000000000000000000000000000000000000000008152600401611ae090612738565b60405180910390fd5b601460009054906101000a900473ffffffffffffffffffffffffffffffffffffffff1673ffffffffffffffffffffffffffffffffffffffff163373ffffffffffffffffffffffffffffffffffffffff1614611b79576040517f08c379a0000000000000000000000000000000000000000000000000000000008152600401611b7090612738565b60405180910390fd5b8173ffffffffffffffffffffffffffffffffffffffff1663a9059cbb33836040518363ffffffff1660e01b8152600401611bb492919061226e565b6020604051808303816000875af1158015611bd3573d6000803e3d6000fd5b505050506040513d601f19601f82011682018060405250810190611bf791906122ac565b505050565b60106020528060005260406000206000915090505481565b600e5481565b611c22611ca0565b600073ffffffffffffffffffffffffffffffffffffffff168173ffffffffffffffffffffffffffffffffffffffff1603611c945760006040517f1e4fbdf7000000000000000000000000000000000000000000000000000000008152600401611c8b9190611ffe565b60405180910390fd5b611c9d81611d99565b50565b611ca8611e5d565b73ffffffffffffffffffffffffffffffffffffffff16611cc66110ee565b73ffffffffffffffffffffffffffffffffffffffff1614611d2557611ce9611e5d565b6040517f118cdaa7000000000000000000000000000000000000000000000000000000008152600401611d1c9190611ffe565b60405180910390fd5b565b60008173ffffffffffffffffffffffffffffffffffffffff1660001b9050919050565b600260015403611d86576040517f3ee5aeb500000000000000000000000000000000000000000000000000000000815260040160405180910390fd5b6002600181905550565b60018081905550565b60008060009054906101000a900473ffffffffffffffffffffffffffffffffffffffff169050816000806101000a81548173ffffffffffffffffffffffffffffffffffffffff021916908373ffffffffffffffffffffffffffffffffffffffff1602179055508173ffffffffffffffffffffffffffffffffffffffff168173ffffffffffffffffffffffffffffffffffffffff167f8be0079c531659141344cd1fd0a4f28419497f9722a3daafe3b4186f6b6457e060405160405180910390a35050565b600033905090565b60008115159050919050565b611e7a81611e65565b82525050565b6000602082019050611e956000830184611e71565b92915050565b600080fd5b611ea981611e65565b8114611eb457600080fd5b50565b600081359050611ec681611ea0565b92915050565b600060208284031215611ee257611ee1611e9b565b5b6000611ef084828501611eb7565b91505092915050565b600073ffffffffffffffffffffffffffffffffffffffff82169050919050565b6000611f2482611ef9565b9050919050565b611f3481611f19565b82525050565b6000819050919050565b611f4d81611f3a565b82525050565b600061016082019050611f69600083018e611f2b565b611f76602083018d611f44565b611f83604083018c611f44565b611f90606083018b611f44565b611f9d608083018a611f44565b611faa60a0830189611f44565b611fb760c0830188611f44565b611fc460e0830187611f44565b611fd2610100830186611f44565b611fe0610120830185611f44565b611fee610140830184611f44565b9c9b505050505050505050505050565b60006020820190506120136000830184611f2b565b92915050565b600060208201905061202e6000830184611f44565b92915050565b61203d81611f19565b811461204857600080fd5b50565b60008135905061205a81612034565b92915050565b60006020828403121561207657612075611e9b565b5b60006120848482850161204b565b91505092915050565b61209681611f3a565b81146120a157600080fd5b50565b6000813590506120b38161208d565b92915050565b6000602082840312156120cf576120ce611e9b565b5b60006120dd848285016120a4565b91505092915050565b600080604083850312156120fd576120fc611e9b565b5b600061210b8582860161204b565b925050602061211c858286016120a4565b9150509250929050565b7f4e487b7100000000000000000000000000000000000000000000000000000000600052601160045260246000fd5b600061216082611f3a565b915061216b83611f3a565b925082820190508082111561218357612182612126565b5b92915050565b600082825260208201905092915050565b7f546872757374706164466169724c61756e63683a204c6f636b20706572696f6460008201527f206e6f74206f7665722079657400000000000000000000000000000000000000602082015250565b60006121f6602d83612189565b91506122018261219a565b604082019050919050565b60006020820190508181036000830152612225816121e9565b9050919050565b60008151905061223b8161208d565b92915050565b60006020828403121561225757612256611e9b565b5b60006122658482850161222c565b91505092915050565b60006040820190506122836000830185611f2b565b6122906020830184611f44565b9392505050565b6000815190506122a681611ea0565b92915050565b6000602082840312156122c2576122c1611e9b565b5b60006122d084828501612297565b91505092915050565b7f546872757374706164466169724c61756e63683a2073616c6520686173206e6f60008201527f7420656e64656420796574000000000000000000000000000000000000000000602082015250565b6000612335602b83612189565b9150612340826122d9565b604082019050919050565b6000602082019050818103600083015261236481612328565b9050919050565b7f546872757374706164466169724c61756e63683a20736f667420636170206e6f60008201527f7420726561636865640000000000000000000000000000000000000000000000602082015250565b60006123c7602983612189565b91506123d28261236b565b604082019050919050565b600060208201905081810360008301526123f6816123ba565b9050919050565b6000819050919050565b6000612412826123fd565b9050919050565b61242281612407565b82525050565b600060408201905061243d6000830185612419565b61244a6020830184612419565b9392505050565b60008151905061246081612034565b92915050565b60006020828403121561247c5761247b611e9b565b5b600061248a84828501612451565b91505092915050565b600061249e82611f3a565b91506124a983611f3a565b92508282026124b781611f3a565b915082820484148315176124ce576124cd612126565b5b5092915050565b7f4e487b7100000000000000000000000000000000000000000000000000000000600052601260045260246000fd5b600061250f82611f3a565b915061251a83611f3a565b92508261252a576125296124d5565b5b828204905092915050565b6000819050919050565b6000819050919050565b600061256461255f61255a84612535565b61253f565b611f3a565b9050919050565b61257481612549565b82525050565b600061012082019050612590600083018c611f2b565b61259d602083018b611f2b565b6125aa604083018a611e71565b6125b76060830189611f44565b6125c46080830188611f44565b6125d160a083018761256b565b6125de60c083018661256b565b6125eb60e0830185611f2b565b6125f9610100830184611f44565b9a9950505050505050505050565b6000806000606084860312156126205761261f611e9b565b5b600061262e8682870161222c565b935050602061263f8682870161222c565b92505060406126508682870161222c565b9150509250925092565b7f546872757374706164466169724c61756e63683a20746f6b656e7320616c726560008201527f61647920636c61696d6564000000000000000000000000000000000000000000602082015250565b60006126b6602b83612189565b91506126c18261265a565b604082019050919050565b600060208201905081810360008301526126e5816126a9565b9050919050565b7f4e6f7420617574686f72697a6564000000000000000000000000000000000000600082015250565b6000612722600e83612189565b915061272d826126ec565b602082019050919050565b6000602082019050818103600083015261275181612715565b9050919050565b7f546872757374706164466169724c61756e63683a207465616d20746f6b656e7360008201527f20616c726561647920636c61696d656400000000000000000000000000000000602082015250565b60006127b4603083612189565b91506127bf82612758565b604082019050919050565b600060208201905081810360008301526127e3816127a7565b9050919050565b7f546872757374706164466169724c61756e63683a2073616c6520686173206e6f60008201527f7420737461727465642079657400000000000000000000000000000000000000602082015250565b6000612846602d83612189565b9150612851826127ea565b604082019050919050565b6000602082019050818103600083015261287581612839565b9050919050565b7f546872757374706164466169724c61756e63683a2073616c652068617320656e60008201527f6465640000000000000000000000000000000000000000000000000000000000602082015250565b60006128d8602383612189565b91506128e38261287c565b604082019050919050565b60006020820190508181036000830152612907816128cb565b9050919050565b7f546872757374706164466169724c61756e63683a20616d6f756e74206973206c60008201527f657373207468616e206d696e696d756d20627579000000000000000000000000602082015250565b600061296a603483612189565b91506129758261290e565b604082019050919050565b600060208201905081810360008301526129998161295d565b9050919050565b7f546872757374706164466169724c61756e63683a20616d6f756e74206973206d60008201527f6f7265207468616e206d6178696d756d20627579000000000000000000000000602082015250565b60006129fc603483612189565b9150612a07826129a0565b604082019050919050565b60006020820190508181036000830152612a2b816129ef565b9050919050565b7f546872757374706164466169724c61756e63683a20686172642063617020726560008201527f6163686564000000000000000000000000000000000000000000000000000000602082015250565b6000612a8e602583612189565b9150612a9982612a32565b604082019050919050565b60006020820190508181036000830152612abd81612a81565b9050919050565b7f546872757374706164466169724c61756e63683a2077616c6c6574206861732060008201527f72656163686564206d6178696d756d2062757900000000000000000000000000602082015250565b6000612b20603383612189565b9150612b2b82612ac4565b604082019050919050565b60006020820190508181036000830152612b4f81612b13565b9050919050565b7f546872757374706164466169724c61756e63683a20736f66742063617020726560008201527f6163686564000000000000000000000000000000000000000000000000000000602082015250565b6000612bb2602583612189565b9150612bbd82612b56565b604082019050919050565b60006020820190508181036000830152612be181612ba5565b905091905056fea264697066735822122002d868a0a8e3a59e44e8a4cffc913f6dbf1855334eb37048284fa75f7c8a63d864736f6c63430008180033",
  "linkReferences": {},
  "deployedLinkReferences": {}
}