{
  "_format": "hh-sol-artifact-1",
  "contractName": "ThrustpadFairLaunch",
  "sourceName": "contracts/fair-launch/ThrustpadFairLaunch.sol",
  "abi": [
    {
      "inputs": [
        {
          "components": [
            {
              "internalType": "address",
              "name": "token",
              "type": "address"
            },
            {
              "internalType": "uint256",
              "name": "softCap",
              "type": "uint256"
            },
            {
              "internalType": "uint256",
              "name": "hardCap",
              "type": "uint256"
            },
            {
              "internalType": "uint256",
              "name": "amountForSale",
              "type": "uint256"
            },
            {
              "internalType": "uint256",
              "name": "listingRate",
              "type": "uint256"
            },
            {
              "internalType": "uint256",
              "name": "minimumBuy",
              "type": "uint256"
            },
            {
              "internalType": "uint256",
              "name": "maximumBuy",
              "type": "uint256"
            },
            {
              "internalType": "uint256",
              "name": "percentageForLiquidity",
              "type": "uint256"
            },
            {
              "internalType": "uint256",
              "name": "percentageForTeam",
              "type": "uint256"
            },
            {
              "internalType": "uint256",
              "name": "startDate",
              "type": "uint256"
            },
            {
              "internalType": "uint256",
              "name": "endDate",
              "type": "uint256"
            }
          ],
          "internalType": "struct FairLaunchConfig",
          "name": "_config",
          "type": "tuple"
        },
        {
          "internalType": "address",
          "name": "_owner",
          "type": "address"
        }
      ],
      "stateMutability": "nonpayable",
      "type": "constructor"
    },
    {
      "inputs": [
        {
          "internalType": "address",
          "name": "owner",
          "type": "address"
        }
      ],
      "name": "OwnableInvalidOwner",
      "type": "error"
    },
    {
      "inputs": [
        {
          "internalType": "address",
          "name": "account",
          "type": "address"
        }
      ],
      "name": "OwnableUnauthorizedAccount",
      "type": "error"
    },
    {
      "inputs": [],
      "name": "ReentrancyGuardReentrantCall",
      "type": "error"
    },
    {
      "anonymous": false,
      "inputs": [
        {
          "indexed": true,
          "internalType": "address",
          "name": "owner",
          "type": "address"
        },
        {
          "indexed": true,
          "internalType": "address",
          "name": "pair",
          "type": "address"
        },
        {
          "indexed": false,
          "internalType": "uint256",
          "name": "amountLPTokens",
          "type": "uint256"
        }
      ],
      "name": "LPTokensClaimed",
      "type": "event"
    },
    {
      "anonymous": false,
      "inputs": [
        {
          "indexed": true,
          "internalType": "address",
          "name": "pair",
          "type": "address"
        },
        {
          "indexed": true,
          "internalType": "address",
          "name": "token",
          "type": "address"
        },
        {
          "indexed": false,
          "internalType": "uint256",
          "name": "amountMinted",
          "type": "uint256"
        }
      ],
      "name": "LiquidityDeployed",
      "type": "event"
    },
    {
      "anonymous": false,
      "inputs": [
        {
          "indexed": true,
          "internalType": "address",
          "name": "previousOwner",
          "type": "address"
        },
        {
          "indexed": true,
          "internalType": "address",
          "name": "newOwner",
          "type": "address"
        }
      ],
      "name": "OwnershipTransferred",
      "type": "event"
    },
    {
      "anonymous": false,
      "inputs": [
        {
          "indexed": true,
          "internalType": "address",
          "name": "buyer",
          "type": "address"
        },
        {
          "indexed": true,
          "internalType": "address",
          "name": "token",
          "type": "address"
        },
        {
          "indexed": false,
          "internalType": "uint256",
          "name": "amountInEdu",
          "type": "uint256"
        }
      ],
      "name": "Refund",
      "type": "event"
    },
    {
      "anonymous": false,
      "inputs": [
        {
          "indexed": true,
          "internalType": "address",
          "name": "team",
          "type": "address"
        },
        {
          "indexed": true,
          "internalType": "address",
          "name": "token",
          "type": "address"
        },
        {
          "indexed": false,
          "internalType": "uint256",
          "name": "amountInToken",
          "type": "uint256"
        }
      ],
      "name": "TeamClaimed",
      "type": "event"
    },
    {
      "anonymous": false,
      "inputs": [
        {
          "indexed": true,
          "internalType": "address",
          "name": "buyer",
          "type": "address"
        },
        {
          "indexed": true,
          "internalType": "address",
          "name": "token",
          "type": "address"
        },
        {
          "indexed": false,
          "internalType": "uint256",
          "name": "amountInEdu",
          "type": "uint256"
        }
      ],
      "name": "TokenBought",
      "type": "event"
    },
    {
      "anonymous": false,
      "inputs": [
        {
          "indexed": true,
          "internalType": "address",
          "name": "buyer",
          "type": "address"
        },
        {
          "indexed": true,
          "internalType": "address",
          "name": "token",
          "type": "address"
        },
        {
          "indexed": false,
          "internalType": "uint256",
          "name": "amountInToken",
          "type": "uint256"
        }
      ],
      "name": "TokenClaimed",
      "type": "event"
    },
    {
      "inputs": [],
      "name": "LPTokenAddress",
      "outputs": [
        {
          "internalType": "address",
          "name": "",
          "type": "address"
        }
      ],
      "stateMutability": "view",
      "type": "function"
    },
    {
      "inputs": [
        {
          "internalType": "bool",
          "name": "_allow",
          "type": "bool"
        }
      ],
      "name": "allowEmergencyTransferEDU",
      "outputs": [],
      "stateMutability": "nonpayable",
      "type": "function"
    },
    {
      "inputs": [
        {
          "internalType": "bool",
          "name": "_allow",
          "type": "bool"
        }
      ],
      "name": "allowEmergencyTransferToken",
      "outputs": [],
      "stateMutability": "nonpayable",
      "type": "function"
    },
    {
      "inputs": [],
      "name": "buyToken",
      "outputs": [],
      "stateMutability": "payable",
      "type": "function"
    },
    {
      "inputs": [],
      "name": "claimLPTokens",
      "outputs": [],
      "stateMutability": "nonpayable",
      "type": "function"
    },
    {
      "inputs": [],
      "name": "claimRefund",
      "outputs": [],
      "stateMutability": "nonpayable",
      "type": "function"
    },
    {
      "inputs": [],
      "name": "claimTokens",
      "outputs": [],
      "stateMutability": "nonpayable",
      "type": "function"
    },
    {
      "inputs": [
        {
          "internalType": "address",
          "name": "",
          "type": "address"
        }
      ],
      "name": "claimed",
      "outputs": [
        {
          "internalType": "uint256",
          "name": "",
          "type": "uint256"
        }
      ],
      "stateMutability": "view",
      "type": "function"
    },
    {
      "inputs": [],
      "name": "config",
      "outputs": [
        {
          "internalType": "address",
          "name": "token",
          "type": "address"
        },
        {
          "internalType": "uint256",
          "name": "softCap",
          "type": "uint256"
        },
        {
          "internalType": "uint256",
          "name": "hardCap",
          "type": "uint256"
        },
        {
          "internalType": "uint256",
          "name": "amountForSale",
          "type": "uint256"
        },
        {
          "internalType": "uint256",
          "name": "listingRate",
          "type": "uint256"
        },
        {
          "internalType": "uint256",
          "name": "minimumBuy",
          "type": "uint256"
        },
        {
          "internalType": "uint256",
          "name": "maximumBuy",
          "type": "uint256"
        },
        {
          "internalType": "uint256",
          "name": "percentageForLiquidity",
          "type": "uint256"
        },
        {
          "internalType": "uint256",
          "name": "percentageForTeam",
          "type": "uint256"
        },
        {
          "internalType": "uint256",
          "name": "startDate",
          "type": "uint256"
        },
        {
          "internalType": "uint256",
          "name": "endDate",
          "type": "uint256"
        }
      ],
      "stateMutability": "view",
      "type": "function"
    },
    {
      "inputs": [],
      "name": "deployLiquidity",
      "outputs": [],
      "stateMutability": "nonpayable",
      "type": "function"
    },
    {
      "inputs": [
        {
          "internalType": "address",
          "name": "_token",
          "type": "address"
        },
        {
          "internalType": "uint256",
          "name": "_amount",
          "type": "uint256"
        }
      ],
      "name": "emergencyTransfer",
      "outputs": [],
      "stateMutability": "nonpayable",
      "type": "function"
    },
    {
      "inputs": [
        {
          "internalType": "uint256",
          "name": "_amount",
          "type": "uint256"
        }
      ],
      "name": "emergencyTransferEDU",
      "outputs": [],
      "stateMutability": "nonpayable",
      "type": "function"
    },
    {
      "inputs": [],
      "name": "liquidityDeployed",
      "outputs": [
        {
          "internalType": "bool",
          "name": "",
          "type": "bool"
        }
      ],
      "stateMutability": "view",
      "type": "function"
    },
    {
      "inputs": [],
      "name": "owner",
      "outputs": [
        {
          "internalType": "address",
          "name": "",
          "type": "address"
        }
      ],
      "stateMutability": "view",
      "type": "function"
    },
    {
      "inputs": [
        {
          "internalType": "address",
          "name": "",
          "type": "address"
        }
      ],
      "name": "purchaseHistory",
      "outputs": [
        {
          "internalType": "uint256",
          "name": "",
          "type": "uint256"
        }
      ],
      "stateMutability": "view",
      "type": "function"
    },
    {
      "inputs": [],
      "name": "renounceOwnership",
      "outputs": [],
      "stateMutability": "nonpayable",
      "type": "function"
    },
    {
      "inputs": [],
      "name": "teamClaimed",
      "outputs": [
        {
          "internalType": "bool",
          "name": "",
          "type": "bool"
        }
      ],
      "stateMutability": "view",
      "type": "function"
    },
    {
      "inputs": [],
      "name": "totalContributors",
      "outputs": [
        {
          "internalType": "uint256",
          "name": "",
          "type": "uint256"
        }
      ],
      "stateMutability": "view",
      "type": "function"
    },
    {
      "inputs": [],
      "name": "totalSold",
      "outputs": [
        {
          "internalType": "uint256",
          "name": "",
          "type": "uint256"
        }
      ],
      "stateMutability": "view",
      "type": "function"
    },
    {
      "inputs": [
        {
          "internalType": "address",
          "name": "newOwner",
          "type": "address"
        }
      ],
      "name": "transferOwnership",
      "outputs": [],
      "stateMutability": "nonpayable",
      "type": "function"
    },
    {
      "inputs": [],
      "name": "withdrawTeamTokens",
      "outputs": [],
      "stateMutability": "nonpayable",
      "type": "function"
    },
    {
      "stateMutability": "payable",
      "type": "receive"
    }
  ],
  "bytecode": "0x6080346200022057601f6200185b38819003918201601f1916830192916001600160401b039190828511848610176200020a578084926040968752833981010392610180841262000220576101608094126200022057805191848301908111838210176200020a578152620000748362000225565b82526020830151602083019081528184015182840190815260608501516060850190815260808601516080860190815260a08701519160a0870192835260c08801519360c0880194855260e08901519560e0890196875261010097888b0151988a01988952610120998a8c01519a81019a8b526101409b8c8101519c82019c8d526200010a60018060a01b039e8f920162000225565b168015620001f257600080546001600160a01b03198082168417835594519f939291908416907f8be0079c531659141344cd1fd0a4f28419497f9722a3daafe3b4186f6b6457e09080a36001805573a12ffa65079f3cf91b93fe059099e447c88cc9e98360125416176012557374713db9d9cc38a7120b9da60f582c1861bc1c8a8360135416176013557383e46e6e193b284d26f7a4b7d865b65952a50bf283601454161760145551169060025416176002555160035551600455516005555160065551600755516008555160095551600a5551600b5551600c5561162090816200023b8239f35b8251631e4fbdf760e01b815260006004820152602490fd5b634e487b7160e01b600052604160045260246000fd5b600080fd5b51906001600160a01b0382168203620002205756fe60806040818152600480361015610021575b505050361561001f57600080fd5b005b600092833560e01c9081632f334652146112e95750806338af66321461112b5780634086bf8914610cc057806348c54b9d14610b7d5780636d4ed43414610aff578063715018a614610a9657806379502c5514610a175780638da5cb5b146109f15780639106d7ba146109d2578063953b7ef81461089a5780639c5913cc14610876578063a482171914610535578063a86d60b8146104b6578063b5545a3c1461039c578063c3828bf014610371578063c884ef831461033a57838163d812195c146102d657508063dbf0f3e21461021c578063e45f2b8a146101e5578063f251fc8c146101c25763f2fde38b0361001157346101be5760203660031901126101be5761012c61130d565b9061013561156b565b6001600160a01b0380921692831561018f57505082548273ffffffffffffffffffffffffffffffffffffffff198216178455167f8be0079c531659141344cd1fd0a4f28419497f9722a3daafe3b4186f6b6457e08380a380f35b908460249251917f1e4fbdf7000000000000000000000000000000000000000000000000000000008352820152fd5b8280fd5b5050346101e157816003193601126101e157602090600e549051908152f35b5080fd5b5050346101e15760203660031901126101e157806020926001600160a01b0361020c61130d565b1681526010845220549051908152f35b5090346101be57806003193601126101be57602061028c61023b61130d565b610249600c54421015611520565b6001600160a01b039461026186601454163314611520565b845163a9059cbb60e01b81523391810191825260243560208301529586938492899291849160400190565b0393165af19081156102cd57506102a1575080f35b6102c29060203d6020116102c6575b6102ba818361134b565b810190611383565b5080f35b503d6102b0565b513d84823e3d90fd5b919050346101e15760203660031901126101e15781808092356102fd600c54421015611520565b6103136001600160a01b03601454163314611520565b818115610331575b3390f115610327575080f35b51903d90823e3d90fd5b506108fc61031b565b5050346101e15760203660031901126101e157806020926001600160a01b0361036161130d565b1681526011845220549051908152f35b5050346101e157816003193601126101e1576020906001600160a01b03600f5460101c169051908152f35b50346101be57826003193601126101be576103b56115af565b6103c3600c5442101561139b565b600d546003541115610466575033825260116020526103e581832054156114af565b33825260106020528082205460116020528082842055828082801561045c575b8280929181923390f115610451576001600160a01b036002541691519081527ff40cc8c1a1d17359049ba500cfc894596a692cffc9d03943cd92ec2e159cf6ae60203392a36001805580f35b5051903d90823e3d90fd5b6108fc9150610405565b6020608492519162461bcd60e51b8352820152602560248201527f546872757374706164466169724c61756e63683a20736f6674206361702072656044820152641858da195960da1b6064820152fd5b8382346101e15760203660031901126101e157358015158091036101e1576104dc61156b565b6104ea600c54421015611520565b7fffffffffffffffff00ffffffffffffffffffffffffffffffffffffffffffffff77ff0000000000000000000000000000000000000000000000600f549260b81b16911617600f5580f35b50826003193601126101be57600b54421061080e57600c5442116107a657600754341061073e576008548034116106d557600d54906105743483611328565b8354106106845733855260106020526105903485872054611328565b1161061b576105a0903490611328565b600d55600e5490600182018092116106085750600e5533825260106020528082206105cc348254611328565b90556001600160a01b036002541690513481527f9b24bd0884170cbce51f9f00df6b3f9aed2231e4086241d1d04687b42afdf7b960203392a380f35b836011602492634e487b7160e01b835252fd5b506020608492519162461bcd60e51b8352820152603360248201527f546872757374706164466169724c61756e63683a2077616c6c6574206861732060448201527f72656163686564206d6178696d756d20627579000000000000000000000000006064820152fd5b608483602086519162461bcd60e51b8352820152602560248201527f546872757374706164466169724c61756e63683a2068617264206361702072656044820152641858da195960da1b6064820152fd5b506020608492519162461bcd60e51b8352820152603460248201527f546872757374706164466169724c61756e63683a20616d6f756e74206973206d60448201527f6f7265207468616e206d6178696d756d206275790000000000000000000000006064820152fd5b6020608492519162461bcd60e51b8352820152603460248201527f546872757374706164466169724c61756e63683a20616d6f756e74206973206c60448201527f657373207468616e206d696e696d756d206275790000000000000000000000006064820152fd5b6020608492519162461bcd60e51b8352820152602360248201527f546872757374706164466169724c61756e63683a2073616c652068617320656e60448201527f64656400000000000000000000000000000000000000000000000000000000006064820152fd5b6020608492519162461bcd60e51b8352820152602d60248201527f546872757374706164466169724c61756e63683a2073616c6520686173206e6f60448201527f74207374617274656420796574000000000000000000000000000000000000006064820152fd5b5050346101e157816003193601126101e15760209060ff600f541690519015158152f35b50346101be57826003193601126101be576108b361156b565b6108c1600c5442101561139b565b600d546108d260035482101561140c565b600f549160ff8360081c16610969575060646108f361010092600a5461149c565b049161ff00191617600f556001600160a01b0390838080808486825416828215610960575bf1156109545760207fa95e69983c44f17474cba286953deb119463b9f5cb8cfde4fd709df3660266f7918386541693600254169451908152a380f35b505051903d90823e3d90fd5b506108fc610918565b608490602085519162461bcd60e51b8352820152603060248201527f546872757374706164466169724c61756e63683a207465616d20746f6b656e7360448201527f20616c726561647920636c61696d6564000000000000000000000000000000006064820152fd5b5050346101e157816003193601126101e157602090600d549051908152f35b5050346101e157816003193601126101e1576001600160a01b0360209254169051908152f35b50346101be57826003193601126101be5761016092506001600160a01b03600254169160035491546005546006546007546008549160095493600a5495600b5497600c549981519b8c5260208c01528a01526060890152608088015260a087015260c086015260e0850152610100840152610120830152610140820152f35b8334610afc5780600319360112610afc57610aaf61156b565b806001600160a01b03815473ffffffffffffffffffffffffffffffffffffffff1981168355167f8be0079c531659141344cd1fd0a4f28419497f9722a3daafe3b4186f6b6457e08280a380f35b80fd5b8382346101e15760203660031901126101e157358015158091036101e157610b2561156b565b610b33600c54421015611520565b7fffffffffffffffffff00ffffffffffffffffffffffffffffffffffffffffffff76ff00000000000000000000000000000000000000000000600f549260b01b16911617600f5580f35b50346101be57826003193601126101be57610b966115af565b610ba4600c5442101561139b565b610bb4600d54600354111561140c565b338352602060118152610bca83852054156114af565b6005548254908115610cad57610c409291610bf09133885260108452048587205461149c565b9233865260118252838587205581846001600160a01b039283600254169089895180988195829463a9059cbb60e01b845233908401602090939291936001600160a01b0360408201951681520152565b03925af1928315610ca3577f4831bdd9dcf3048a28319ce81d3cab7a15366bcf449bc7803a539107440809cc93610c86575b506002541693519283523392a36001805580f35b610c9c90833d85116102c6576102ba818361134b565b5038610c72565b85513d88823e3d90fd5b602486601286634e487b7160e01b835252fd5b50346101be57826003193601126101be57610cd961156b565b610ce7600c5442101561139b565b610cf7600d54600354111561140c565b6001600160a01b03908160135416918060025416908585519485937fe6a439050000000000000000000000000000000000000000000000000000000085528086860152602491838387015285604460209788935afa96871561103757839761110c575b5083871615611068575b50828616957fffffffffffffffffffff0000000000000000000000000000000000000000ffff75ffffffffffffffffffffffffffffffffffffffff0000600f549260101b16911617600f55826002541683601354168851907f095ea7b3000000000000000000000000000000000000000000000000000000008252878201528581604481876000199687898401525af1801561105e57611041575b50606088610124886064610e18600954600d549061149c565b04610e256006548261149c565b958960135416908a60025416955197889687957f5a47ddc30000000000000000000000000000000000000000000000000000000087528601528a8a8601528a604486015260648501528260848501528960a48501528960c48501523060e48501526101048401525af180156110375761100c575b5082600254169087516370a0823160e01b92838252308883015286828481845afa80156110025787928691610fcd575b506044908b51968793849263a9059cbb60e01b8452828d850152878401525af1928315610fc3578593610fa6575b5087519586928352309083015281875afa908115610ca3578691610f53575b7f2be745126d540f8314c97b28a1687816ebc31358eb0259f21907ff16cd11eeb99350600160ff19600f541617600f55600254169451908152a380f35b90508183813d8311610f9f575b610f6a818361134b565b81010312610f9b577f2be745126d540f8314c97b28a1687816ebc31358eb0259f21907ff16cd11eeb9925190610f16565b8580fd5b503d610f60565b610fbc90843d86116102c6576102ba818361134b565b5038610ef7565b88513d8b823e3d90fd5b83819492503d8311610ffb575b610fe4818361134b565b81010312610ff757604487925190610ec9565b8480fd5b503d610fda565b8a513d87823e3d90fd5b606090813d8311611030575b611022818361134b565b810103126101e15738610e99565b503d611018565b88513d85823e3d90fd5b61105790863d88116102c6576102ba818361134b565b5038610dff565b89513d86823e3d90fd5b82919650849060448560125416918a5194859384927f171223dd00000000000000000000000000000000000000000000000000000000845273eeeeeeeeeeeeeeeeeeeeeeeeeeeeeeeeeeeeeeee8c8501528c8401525af19081156111025782916110d5575b509438610d64565b6110f59150843d86116110fb575b6110ed818361134b565b81019061147d565b386110cd565b503d6110e3565b87513d84823e3d90fd5b611124919750853d87116110fb576110ed818361134b565b9538610d5a565b50346101be57826003193601126101be5761114461156b565b600c5462278d0081018091116112d657421061126e576001600160a01b039081600f5460101c168351926370a0823160e01b845230838501526020918285602481845afa948515611264578795611231575b50846111a0578680f35b855163a9059cbb60e01b81523394810194855260208501869052938391859182908a90829060400103925af1928315610ca3577f4f2e1c4d34092405172a61f387073a9b61bfcbb54eceb1e96383d36e19b394a993611214575b50600f5460101c1693519283523392a33880808080808680f35b61122a90833d85116102c6576102ba818361134b565b50386111fa565b9094508281813d831161125d575b611249818361134b565b8101031261125957519338611196565b8680fd5b503d61123f565b86513d89823e3d90fd5b6020608492519162461bcd60e51b8352820152602d60248201527f546872757374706164466169724c61756e63683a204c6f636b20706572696f6460448201527f206e6f74206f76657220796574000000000000000000000000000000000000006064820152fd5b602484601184634e487b7160e01b835252fd5b8490346101e157816003193601126101e15760209060ff600f5460081c1615158152f35b600435906001600160a01b038216820361132357565b600080fd5b9190820180921161133557565b634e487b7160e01b600052601160045260246000fd5b90601f8019910116810190811067ffffffffffffffff82111761136d57604052565b634e487b7160e01b600052604160045260246000fd5b90816020910312611323575180151581036113235790565b156113a257565b608460405162461bcd60e51b815260206004820152602b60248201527f546872757374706164466169724c61756e63683a2073616c6520686173206e6f60448201527f7420656e646564207965740000000000000000000000000000000000000000006064820152fd5b1561141357565b608460405162461bcd60e51b815260206004820152602960248201527f546872757374706164466169724c61756e63683a20736f667420636170206e6f60448201527f74207265616368656400000000000000000000000000000000000000000000006064820152fd5b9081602091031261132357516001600160a01b03811681036113235790565b8181029291811591840414171561133557565b156114b657565b608460405162461bcd60e51b815260206004820152602b60248201527f546872757374706164466169724c61756e63683a20746f6b656e7320616c726560448201527f61647920636c61696d65640000000000000000000000000000000000000000006064820152fd5b1561152757565b606460405162461bcd60e51b815260206004820152600e60248201527f4e6f7420617574686f72697a65640000000000000000000000000000000000006044820152fd5b6001600160a01b0360005416330361157f57565b60246040517f118cdaa7000000000000000000000000000000000000000000000000000000008152336004820152fd5b6002600154146115c0576002600155565b60046040517f3ee5aeb5000000000000000000000000000000000000000000000000000000008152fdfea26469706673582212204c8d52dfabbd8975adcf2608ba18d87ed23552b653f1cf9db6e5d90bee6a081f64736f6c63430008180033",
  "linkReferences": {},
  "deployedLinkReferences": {}
}