{
  "_format": "hh-sol-artifact-1",
  "contractName": "ThrustpadFairLaunch",
  "sourceName": "contracts/fair-launch/ThrustpadFairLaunch.sol",
  "abi": [
    {
      "inputs": [
        {
          "components": [
            {
              "internalType": "address",
              "name": "token",
              "type": "address"
            },
            {
              "internalType": "uint256",
              "name": "softCap",
              "type": "uint256"
            },
            {
              "internalType": "uint256",
              "name": "hardCap",
              "type": "uint256"
            },
            {
              "internalType": "uint256",
              "name": "amountForSale",
              "type": "uint256"
            },
            {
              "internalType": "uint256",
              "name": "listingRate",
              "type": "uint256"
            },
            {
              "internalType": "uint256",
              "name": "minimumBuy",
              "type": "uint256"
            },
            {
              "internalType": "uint256",
              "name": "maximumBuy",
              "type": "uint256"
            },
            {
              "internalType": "uint256",
              "name": "percentageForLiquidity",
              "type": "uint256"
            },
            {
              "internalType": "uint256",
              "name": "percentageForTeam",
              "type": "uint256"
            },
            {
              "internalType": "uint256",
              "name": "startDate",
              "type": "uint256"
            },
            {
              "internalType": "uint256",
              "name": "endDate",
              "type": "uint256"
            }
          ],
          "internalType": "struct FairLaunchConfig",
          "name": "_config",
          "type": "tuple"
        },
        {
          "internalType": "address",
          "name": "_owner",
          "type": "address"
        }
      ],
      "stateMutability": "nonpayable",
      "type": "constructor"
    },
    {
      "inputs": [
        {
          "internalType": "address",
          "name": "owner",
          "type": "address"
        }
      ],
      "name": "OwnableInvalidOwner",
      "type": "error"
    },
    {
      "inputs": [
        {
          "internalType": "address",
          "name": "account",
          "type": "address"
        }
      ],
      "name": "OwnableUnauthorizedAccount",
      "type": "error"
    },
    {
      "inputs": [],
      "name": "ReentrancyGuardReentrantCall",
      "type": "error"
    },
    {
      "anonymous": false,
      "inputs": [
        {
          "indexed": true,
          "internalType": "address",
          "name": "owner",
          "type": "address"
        },
        {
          "indexed": true,
          "internalType": "address",
          "name": "pair",
          "type": "address"
        },
        {
          "indexed": false,
          "internalType": "uint256",
          "name": "amountLPTokens",
          "type": "uint256"
        }
      ],
      "name": "LPTokensClaimed",
      "type": "event"
    },
    {
      "anonymous": false,
      "inputs": [
        {
          "indexed": true,
          "internalType": "uint256",
          "name": "tokenId",
          "type": "uint256"
        },
        {
          "indexed": false,
          "internalType": "uint256",
          "name": "liquidity",
          "type": "uint256"
        }
      ],
      "name": "LiquidityDeployed",
      "type": "event"
    },
    {
      "anonymous": false,
      "inputs": [
        {
          "indexed": true,
          "internalType": "address",
          "name": "previousOwner",
          "type": "address"
        },
        {
          "indexed": true,
          "internalType": "address",
          "name": "newOwner",
          "type": "address"
        }
      ],
      "name": "OwnershipTransferred",
      "type": "event"
    },
    {
      "anonymous": false,
      "inputs": [
        {
          "indexed": true,
          "internalType": "address",
          "name": "buyer",
          "type": "address"
        },
        {
          "indexed": true,
          "internalType": "address",
          "name": "token",
          "type": "address"
        },
        {
          "indexed": false,
          "internalType": "uint256",
          "name": "amountInEdu",
          "type": "uint256"
        }
      ],
      "name": "Refund",
      "type": "event"
    },
    {
      "anonymous": false,
      "inputs": [
        {
          "indexed": true,
          "internalType": "address",
          "name": "team",
          "type": "address"
        },
        {
          "indexed": true,
          "internalType": "address",
          "name": "token",
          "type": "address"
        },
        {
          "indexed": false,
          "internalType": "uint256",
          "name": "amountInToken",
          "type": "uint256"
        }
      ],
      "name": "TeamClaimed",
      "type": "event"
    },
    {
      "anonymous": false,
      "inputs": [
        {
          "indexed": true,
          "internalType": "address",
          "name": "buyer",
          "type": "address"
        },
        {
          "indexed": true,
          "internalType": "address",
          "name": "token",
          "type": "address"
        },
        {
          "indexed": false,
          "internalType": "uint256",
          "name": "amountInEdu",
          "type": "uint256"
        }
      ],
      "name": "TokenBought",
      "type": "event"
    },
    {
      "anonymous": false,
      "inputs": [
        {
          "indexed": true,
          "internalType": "address",
          "name": "buyer",
          "type": "address"
        },
        {
          "indexed": true,
          "internalType": "address",
          "name": "token",
          "type": "address"
        },
        {
          "indexed": false,
          "internalType": "uint256",
          "name": "amountInToken",
          "type": "uint256"
        }
      ],
      "name": "TokenClaimed",
      "type": "event"
    },
    {
      "inputs": [],
      "name": "LPTokenAddress",
      "outputs": [
        {
          "internalType": "address",
          "name": "",
          "type": "address"
        }
      ],
      "stateMutability": "view",
      "type": "function"
    },
    {
      "inputs": [],
      "name": "NFTManager",
      "outputs": [
        {
          "internalType": "address",
          "name": "",
          "type": "address"
        }
      ],
      "stateMutability": "view",
      "type": "function"
    },
    {
      "inputs": [],
      "name": "V3Factory",
      "outputs": [
        {
          "internalType": "address",
          "name": "",
          "type": "address"
        }
      ],
      "stateMutability": "view",
      "type": "function"
    },
    {
      "inputs": [],
      "name": "WEDU",
      "outputs": [
        {
          "internalType": "address",
          "name": "",
          "type": "address"
        }
      ],
      "stateMutability": "view",
      "type": "function"
    },
    {
      "inputs": [],
      "name": "buyToken",
      "outputs": [],
      "stateMutability": "payable",
      "type": "function"
    },
    {
      "inputs": [],
      "name": "claimRefund",
      "outputs": [],
      "stateMutability": "nonpayable",
      "type": "function"
    },
    {
      "inputs": [],
      "name": "claimTokens",
      "outputs": [],
      "stateMutability": "nonpayable",
      "type": "function"
    },
    {
      "inputs": [
        {
          "internalType": "address",
          "name": "",
          "type": "address"
        }
      ],
      "name": "claimed",
      "outputs": [
        {
          "internalType": "uint256",
          "name": "",
          "type": "uint256"
        }
      ],
      "stateMutability": "view",
      "type": "function"
    },
    {
      "inputs": [],
      "name": "config",
      "outputs": [
        {
          "internalType": "address",
          "name": "token",
          "type": "address"
        },
        {
          "internalType": "uint256",
          "name": "softCap",
          "type": "uint256"
        },
        {
          "internalType": "uint256",
          "name": "hardCap",
          "type": "uint256"
        },
        {
          "internalType": "uint256",
          "name": "amountForSale",
          "type": "uint256"
        },
        {
          "internalType": "uint256",
          "name": "listingRate",
          "type": "uint256"
        },
        {
          "internalType": "uint256",
          "name": "minimumBuy",
          "type": "uint256"
        },
        {
          "internalType": "uint256",
          "name": "maximumBuy",
          "type": "uint256"
        },
        {
          "internalType": "uint256",
          "name": "percentageForLiquidity",
          "type": "uint256"
        },
        {
          "internalType": "uint256",
          "name": "percentageForTeam",
          "type": "uint256"
        },
        {
          "internalType": "uint256",
          "name": "startDate",
          "type": "uint256"
        },
        {
          "internalType": "uint256",
          "name": "endDate",
          "type": "uint256"
        }
      ],
      "stateMutability": "view",
      "type": "function"
    },
    {
      "inputs": [
        {
          "internalType": "address",
          "name": "token0",
          "type": "address"
        },
        {
          "internalType": "address",
          "name": "token1",
          "type": "address"
        },
        {
          "internalType": "uint16",
          "name": "feeTier",
          "type": "uint16"
        },
        {
          "internalType": "uint160",
          "name": "sqrtPriceX96",
          "type": "uint160"
        }
      ],
      "name": "deployLiquidity",
      "outputs": [],
      "stateMutability": "nonpayable",
      "type": "function"
    },
    {
      "inputs": [
        {
          "internalType": "uint256",
          "name": "_amount",
          "type": "uint256"
        }
      ],
      "name": "emergencyTransferEDU",
      "outputs": [],
      "stateMutability": "nonpayable",
      "type": "function"
    },
    {
      "inputs": [
        {
          "internalType": "address",
          "name": "_token",
          "type": "address"
        },
        {
          "internalType": "uint256",
          "name": "_amount",
          "type": "uint256"
        }
      ],
      "name": "emergencyTransferTokens",
      "outputs": [],
      "stateMutability": "nonpayable",
      "type": "function"
    },
    {
      "inputs": [],
      "name": "liquidityDeployed",
      "outputs": [
        {
          "internalType": "bool",
          "name": "",
          "type": "bool"
        }
      ],
      "stateMutability": "view",
      "type": "function"
    },
    {
      "inputs": [],
      "name": "owner",
      "outputs": [
        {
          "internalType": "address",
          "name": "",
          "type": "address"
        }
      ],
      "stateMutability": "view",
      "type": "function"
    },
    {
      "inputs": [
        {
          "internalType": "address",
          "name": "",
          "type": "address"
        }
      ],
      "name": "purchaseHistory",
      "outputs": [
        {
          "internalType": "uint256",
          "name": "",
          "type": "uint256"
        }
      ],
      "stateMutability": "view",
      "type": "function"
    },
    {
      "inputs": [],
      "name": "renounceOwnership",
      "outputs": [],
      "stateMutability": "nonpayable",
      "type": "function"
    },
    {
      "inputs": [],
      "name": "teamClaimed",
      "outputs": [
        {
          "internalType": "bool",
          "name": "",
          "type": "bool"
        }
      ],
      "stateMutability": "view",
      "type": "function"
    },
    {
      "inputs": [],
      "name": "totalContributors",
      "outputs": [
        {
          "internalType": "uint256",
          "name": "",
          "type": "uint256"
        }
      ],
      "stateMutability": "view",
      "type": "function"
    },
    {
      "inputs": [],
      "name": "totalSold",
      "outputs": [
        {
          "internalType": "uint256",
          "name": "",
          "type": "uint256"
        }
      ],
      "stateMutability": "view",
      "type": "function"
    },
    {
      "inputs": [
        {
          "internalType": "address",
          "name": "newOwner",
          "type": "address"
        }
      ],
      "name": "transferOwnership",
      "outputs": [],
      "stateMutability": "nonpayable",
      "type": "function"
    },
    {
      "inputs": [],
      "name": "withdrawTeamTokens",
      "outputs": [],
      "stateMutability": "nonpayable",
      "type": "function"
    },
    {
      "stateMutability": "payable",
      "type": "receive"
    }
  ],
  "bytecode": "0x6080604052601280546001600160a01b031990811673a9cbef0c9274f985340816ed2074abf5aac254631790915560138054821673135e304139c5113895c97dce8b9eda56d4b53cf91790556014805490911673b5cab4e42cb5f16d00c644cb7163f8b427d7a8bf1790553480156200007757600080fd5b5060405162002003380380620020038339810160408190526200009a91620001f9565b806001600160a01b038116620000ca57604051631e4fbdf760e01b81526000600482015260240160405180910390fd5b620000d58162000154565b5050600180558051600280546001600160a01b0319166001600160a01b03909216919091179055602081015160035560408101516004556060810151600555608081015160065560a081015160075560c081015160085560e0810151600955610100810151600a55610120810151600b556101400151600c55620002be565b600080546001600160a01b038381166001600160a01b0319831681178455604051919092169283917f8be0079c531659141344cd1fd0a4f28419497f9722a3daafe3b4186f6b6457e09190a35050565b60405161016081016001600160401b0381118282101715620001d657634e487b7160e01b600052604160045260246000fd5b60405290565b80516001600160a01b0381168114620001f457600080fd5b919050565b6000808284036101808112156200020f57600080fd5b610160808212156200022057600080fd5b6200022a620001a4565b91506200023785620001dc565b82526020850151602083015260408501516040830152606085015160608301526080850151608083015260a085015160a083015260c085015160c083015260e085015160e0830152610100808601518184015250610120808601518184015250610140808601518184015250819350620002b3818601620001dc565b925050509250929050565b611d3580620002ce6000396000f3fe60806040526004361061016e5760003560e01c8063953b7ef8116100cb578063c3828bf01161007f578063e45f2b8a11610059578063e45f2b8a14610438578063f251fc8c14610465578063f2fde38b1461047b57600080fd5b8063c3828bf0146103c5578063c884ef83146103eb578063d812195c1461041857600080fd5b80639c5913cc116100b05780639c5913cc1461038e578063a4821719146103a8578063b5545a3c146103b057600080fd5b8063953b7ef81461035957806397d569971461036e57600080fd5b806379502c55116101225780638da5cb5b116101075780638da5cb5b146102f75780639106d7ba14610315578063948da0101461033957600080fd5b806379502c55146102325780637d7cf6c5146102d757600080fd5b806348c54b9d1161015357806348c54b9d146101d057806362eba8b0146101e5578063715018a61461021d57600080fd5b8063162d21671461017a5780632f3346521461019c57600080fd5b3661017557005b600080fd5b34801561018657600080fd5b5061019a610195366004611822565b61049b565b005b3480156101a857600080fd5b50600f546101bb90610100900460ff1681565b60405190151581526020015b60405180910390f35b3480156101dc57600080fd5b5061019a610a4d565b3480156101f157600080fd5b50601254610205906001600160a01b031681565b6040516001600160a01b0390911681526020016101c7565b34801561022957600080fd5b5061019a610ca2565b34801561023e57600080fd5b50600254600354600454600554600654600754600854600954600a54600b54600c5461027a9a6001600160a01b0316999897969594939291908b565b604080516001600160a01b03909c168c5260208c019a909a52988a01979097526060890195909552608088019390935260a087019190915260c086015260e0850152610100840152610120830152610140820152610160016101c7565b3480156102e357600080fd5b50601354610205906001600160a01b031681565b34801561030357600080fd5b506000546001600160a01b0316610205565b34801561032157600080fd5b5061032b600d5481565b6040519081526020016101c7565b34801561034557600080fd5b5061019a610354366004611885565b610cb4565b34801561036557600080fd5b5061019a610d84565b34801561037a57600080fd5b50601454610205906001600160a01b031681565b34801561039a57600080fd5b50600f546101bb9060ff1681565b61019a610fb6565b3480156103bc57600080fd5b5061019a6112e0565b3480156103d157600080fd5b50600f54610205906201000090046001600160a01b031681565b3480156103f757600080fd5b5061032b6104063660046118b1565b60116020526000908152604090205481565b34801561042457600080fd5b5061019a6104333660046118d5565b6114b7565b34801561044457600080fd5b5061032b6104533660046118b1565b60106020526000908152604090205481565b34801561047157600080fd5b5061032b600e5481565b34801561048757600080fd5b5061019a6104963660046118b1565b611542565b6104a3611599565b600c5442101561050e5760405162461bcd60e51b815260206004820152602b60248201527f546872757374706164466169724c61756e63683a2073616c6520686173206e6f60448201526a1d08195b991959081e595d60aa1b60648201526084015b60405180910390fd5b600354600d5410156105745760405162461bcd60e51b815260206004820152602960248201527f546872757374706164466169724c61756e63683a20736f667420636170206e6f6044820152681d081c995858da195960ba1b6064820152608401610505565b600f5460ff16156105ed5760405162461bcd60e51b815260206004820152602f60248201527f546872757374706164466169724c61756e63683a206c6971756964697479206160448201527f6c7265616479206465706c6f79656400000000000000000000000000000000006064820152608401610505565b6014546012546002546013546040517f1698ee820000000000000000000000000000000000000000000000000000000081526001600160a01b039283166004820152908216602482015261ffff86166044820152928116929116906000908390631698ee8290606401602060405180830381865afa158015610673573d6000803e3d6000fd5b505050506040513d601f19601f8201168201806040525081019061069791906118ee565b90506001600160a01b038116156107165760405162461bcd60e51b815260206004820152602860248201527f546872757374706164466169724c61756e63683a205061697220616c7265616460448201527f79206578697374730000000000000000000000000000000000000000000000006064820152608401610505565b6040517f13ead5620000000000000000000000000000000000000000000000000000000081526001600160a01b038881166004830152878116602483015261ffff8716604483015285811660648301528316906313ead562906084016020604051808303816000875af1158015610791573d6000803e3d6000fd5b505050506040513d601f19601f820116820180604052508101906107b591906118ee565b506002546012546040517f095ea7b30000000000000000000000000000000000000000000000000000000081526001600160a01b039182166004820152600019602482015291169063095ea7b3906044016020604051808303816000875af1158015610825573d6000803e3d6000fd5b505050506040513d601f19601f82011682018060405250810190610849919061190b565b50600254604080517f313ce56700000000000000000000000000000000000000000000000000000000815290516000926001600160a01b03169163313ce5679160048083019260209291908290030181865afa1580156108ad573d6000803e3d6000fd5b505050506040513d601f19601f820116820180604052508101906108d1919061192d565b905060006064600d546002600701546108ea9190611966565b6108f4919061197d565b9050600061090383600a611a83565b6006546109109084611966565b61091a919061197d565b60125460408051610160810182526001600160a01b038e81168083528e8216602084015261ffff8e1693830193909352620d89b3196060830152620d89b4608083015260025494955092831693638831645693879360a0840192909116146109825786610984565b855b81526002546020909101906001600160a01b038f81169116146109a757866109a9565b855b815260006020820181905260408201523360608201526080016109ce4261012c611a92565b8152506040518363ffffffff1660e01b81526004016109ed9190611aa5565b60806040518083038185885af1158015610a0b573d6000803e3d6000fd5b50505050506040513d601f19601f82011682018060405250810190610a309190611b69565b5050600f805460ff19166001179055505050505050505050505050565b610a556115df565b600c54421015610abb5760405162461bcd60e51b815260206004820152602b60248201527f546872757374706164466169724c61756e63683a2073616c6520686173206e6f60448201526a1d08195b991959081e595d60aa1b6064820152608401610505565b600354600d541015610b215760405162461bcd60e51b815260206004820152602960248201527f546872757374706164466169724c61756e63683a20736f667420636170206e6f6044820152681d081c995858da195960ba1b6064820152608401610505565b3360009081526011602052604090205415610b925760405162461bcd60e51b815260206004820152602b60248201527f546872757374706164466169724c61756e63683a20746f6b656e7320616c726560448201526a18591e4818db185a5b595960aa1b6064820152608401610505565b600454600554600091610ba49161197d565b3360009081526010602052604081205491925090610bc3908390611966565b3360008181526011602052604090819020839055600254905163a9059cbb60e01b81526004810192909252602482018390529192506001600160a01b039091169063a9059cbb906044016020604051808303816000875af1158015610c2c573d6000803e3d6000fd5b505050506040513d601f19601f82011682018060405250810190610c50919061190b565b506002546040518281526001600160a01b039091169033907f4831bdd9dcf3048a28319ce81d3cab7a15366bcf449bc7803a539107440809cc9060200160405180910390a35050610ca060018055565b565b610caa611599565b610ca06000611622565b610cbc611599565b600c54421015610d0e5760405162461bcd60e51b815260206004820152601660248201527f53616c6520686173206e6f7420656e64656420796574000000000000000000006044820152606401610505565b60405163a9059cbb60e01b8152336004820152602481018290526001600160a01b0383169063a9059cbb906044016020604051808303816000875af1158015610d5b573d6000803e3d6000fd5b505050506040513d601f19601f82011682018060405250810190610d7f919061190b565b505050565b610d8c611599565b600c54421015610df25760405162461bcd60e51b815260206004820152602b60248201527f546872757374706164466169724c61756e63683a2073616c6520686173206e6f60448201526a1d08195b991959081e595d60aa1b6064820152608401610505565b600354600d541015610e585760405162461bcd60e51b815260206004820152602960248201527f546872757374706164466169724c61756e63683a20736f667420636170206e6f6044820152681d081c995858da195960ba1b6064820152608401610505565b600f54610100900460ff1615610ed65760405162461bcd60e51b815260206004820152603060248201527f546872757374706164466169724c61756e63683a207465616d20746f6b656e7360448201527f20616c726561647920636c61696d6564000000000000000000000000000000006064820152608401610505565b60006064600d54600260080154610eed9190611966565b610ef7919061197d565b600f805461ff0019166101001790559050610f1a6000546001600160a01b031690565b6001600160a01b03166108fc829081150290604051600060405180830381858888f19350505050158015610f52573d6000803e3d6000fd5b506002546001600160a01b0316610f716000546001600160a01b031690565b6001600160a01b03167fa95e69983c44f17474cba286953deb119463b9f5cb8cfde4fd709df3660266f783604051610fab91815260200190565b60405180910390a350565b600260090154421015610fc84261168a565b604051602001610fd89190611be0565b604051602081830303815290604052906110055760405162461bcd60e51b81526004016105059190611c4b565b506002600a01544211156110184261168a565b6040516020016110289190611c7e565b604051602081830303815290604052906110555760405162461bcd60e51b81526004016105059190611c4b565b506007543410156110ce5760405162461bcd60e51b815260206004820152603460248201527f546872757374706164466169724c61756e63683a20616d6f756e74206973206c60448201527f657373207468616e206d696e696d756d206275790000000000000000000000006064820152608401610505565b6008543411156111465760405162461bcd60e51b815260206004820152603460248201527f546872757374706164466169724c61756e63683a20616d6f756e74206973206d60448201527f6f7265207468616e206d6178696d756d206275790000000000000000000000006064820152608401610505565b600454600d54611157903490611a92565b11156111b35760405162461bcd60e51b815260206004820152602560248201527f546872757374706164466169724c61756e63683a2068617264206361702072656044820152641858da195960da1b6064820152608401610505565b600854336000908152601060205260409020546111d1903490611a92565b11156112455760405162461bcd60e51b815260206004820152603360248201527f546872757374706164466169724c61756e63683a2077616c6c6574206861732060448201527f72656163686564206d6178696d756d20627579000000000000000000000000006064820152608401610505565b34600d60008282546112579190611a92565b925050819055506001600e60008282546112719190611a92565b90915550503360009081526010602052604081208054349290611295908490611a92565b90915550506002546040513481526001600160a01b039091169033907f9b24bd0884170cbce51f9f00df6b3f9aed2231e4086241d1d04687b42afdf7b99060200160405180910390a3565b6112e86115df565b600c5442101561134e5760405162461bcd60e51b815260206004820152602b60248201527f546872757374706164466169724c61756e63683a2073616c6520686173206e6f60448201526a1d08195b991959081e595d60aa1b6064820152608401610505565b600354600d54106113af5760405162461bcd60e51b815260206004820152602560248201527f546872757374706164466169724c61756e63683a20736f6674206361702072656044820152641858da195960da1b6064820152608401610505565b33600090815260116020526040902054156114205760405162461bcd60e51b815260206004820152602b60248201527f546872757374706164466169724c61756e63683a20746f6b656e7320616c726560448201526a18591e4818db185a5b595960aa1b6064820152608401610505565b3360008181526010602090815260408083205460119092528083208290555190929183156108fc02918491818181858888f19350505050158015611468573d6000803e3d6000fd5b506002546040518281526001600160a01b039091169033907ff40cc8c1a1d17359049ba500cfc894596a692cffc9d03943cd92ec2e159cf6ae9060200160405180910390a350610ca060018055565b6114bf611599565b600c544210156115115760405162461bcd60e51b815260206004820152601660248201527f53616c6520686173206e6f7420656e64656420796574000000000000000000006044820152606401610505565b604051339082156108fc029083906000818181858888f1935050505015801561153e573d6000803e3d6000fd5b5050565b61154a611599565b6001600160a01b03811661158d576040517f1e4fbdf700000000000000000000000000000000000000000000000000000000815260006004820152602401610505565b61159681611622565b50565b6000546001600160a01b03163314610ca0576040517f118cdaa7000000000000000000000000000000000000000000000000000000008152336004820152602401610505565b60026001540361161b576040517f3ee5aeb500000000000000000000000000000000000000000000000000000000815260040160405180910390fd5b6002600155565b600080546001600160a01b038381167fffffffffffffffffffffffff0000000000000000000000000000000000000000831681178455604051919092169283917f8be0079c531659141344cd1fd0a4f28419497f9722a3daafe3b4186f6b6457e09190a35050565b606060006116978361172a565b600101905060008167ffffffffffffffff8111156116b7576116b7611ce9565b6040519080825280601f01601f1916602001820160405280156116e1576020820181803683370190505b5090508181016020015b600019017f3031323334353637383961626364656600000000000000000000000000000000600a86061a8153600a85049450846116eb57509392505050565b6000807a184f03e93ff9f4daa797ed6e38ed64bf6a1f0100000000000000008310611773577a184f03e93ff9f4daa797ed6e38ed64bf6a1f010000000000000000830492506040015b6d04ee2d6d415b85acef8100000000831061179f576d04ee2d6d415b85acef8100000000830492506020015b662386f26fc1000083106117bd57662386f26fc10000830492506010015b6305f5e10083106117d5576305f5e100830492506008015b61271083106117e957612710830492506004015b606483106117fb576064830492506002015b600a8310611807576001015b92915050565b6001600160a01b038116811461159657600080fd5b6000806000806080858703121561183857600080fd5b84356118438161180d565b935060208501356118538161180d565b9250604085013561ffff8116811461186a57600080fd5b9150606085013561187a8161180d565b939692955090935050565b6000806040838503121561189857600080fd5b82356118a38161180d565b946020939093013593505050565b6000602082840312156118c357600080fd5b81356118ce8161180d565b9392505050565b6000602082840312156118e757600080fd5b5035919050565b60006020828403121561190057600080fd5b81516118ce8161180d565b60006020828403121561191d57600080fd5b815180151581146118ce57600080fd5b60006020828403121561193f57600080fd5b815160ff811681146118ce57600080fd5b634e487b7160e01b600052601160045260246000fd5b808202811582820484141761180757611807611950565b60008261199a57634e487b7160e01b600052601260045260246000fd5b500490565b600181815b808511156119da5781600019048211156119c0576119c0611950565b808516156119cd57918102915b93841c93908002906119a4565b509250929050565b6000826119f157506001611807565b816119fe57506000611807565b8160018114611a145760028114611a1e57611a3a565b6001915050611807565b60ff841115611a2f57611a2f611950565b50506001821b611807565b5060208310610133831016604e8410600b8410161715611a5d575081810a611807565b611a67838361199f565b8060001904821115611a7b57611a7b611950565b029392505050565b60006118ce60ff8416836119e2565b8082018082111561180757611807611950565b81516001600160a01b0316815261016081016020830151611ad160208401826001600160a01b03169052565b506040830151611ae8604084018262ffffff169052565b506060830151611afd606084018260020b9052565b506080830151611b12608084018260020b9052565b5060a083015160a083015260c083015160c083015260e083015160e083015261010080840151818401525061012080840151611b58828501826001600160a01b03169052565b505061014092830151919092015290565b60008060008060808587031215611b7f57600080fd5b8451935060208501516fffffffffffffffffffffffffffffffff81168114611ba657600080fd5b6040860151606090960151949790965092505050565b60005b83811015611bd7578181015183820152602001611bbf565b50506000910152565b7f546872757374706164466169724c61756e63683a2073616c6520686173206e6f81527f742073746172746564207965743a200000000000000000000000000000000000602082015260008251611c3e81602f850160208701611bbc565b91909101602f0192915050565b6020815260008251806020840152611c6a816040850160208701611bbc565b601f01601f19169190910160400192915050565b7f546872757374706164466169724c61756e63683a2073616c652068617320656e81527f6465643a20000000000000000000000000000000000000000000000000000000602082015260008251611cdc816025850160208701611bbc565b9190910160250192915050565b634e487b7160e01b600052604160045260246000fdfea26469706673582212208da53e912297255931661d1d77ebbcd03463985e6bfaf4024d78a717e1001e3164736f6c63430008180033",
  "linkReferences": {},
  "deployedLinkReferences": {}
}