{
  "_format": "hh-sol-artifact-1",
  "contractName": "ThrustpadFairLaunch",
  "sourceName": "contracts/fair-launch/ThrustpadFairLaunch.sol",
  "abi": [
    {
      "inputs": [
        {
          "components": [
            {
              "internalType": "address",
              "name": "token",
              "type": "address"
            },
            {
              "internalType": "uint256",
              "name": "softCap",
              "type": "uint256"
            },
            {
              "internalType": "uint256",
              "name": "hardCap",
              "type": "uint256"
            },
            {
              "internalType": "uint256",
              "name": "amountForSale",
              "type": "uint256"
            },
            {
              "internalType": "uint256",
              "name": "listingRate",
              "type": "uint256"
            },
            {
              "internalType": "uint256",
              "name": "minimumBuy",
              "type": "uint256"
            },
            {
              "internalType": "uint256",
              "name": "maximumBuy",
              "type": "uint256"
            },
            {
              "internalType": "uint256",
              "name": "percentageForLiquidity",
              "type": "uint256"
            },
            {
              "internalType": "uint256",
              "name": "percentageForTeam",
              "type": "uint256"
            },
            {
              "internalType": "uint256",
              "name": "startDate",
              "type": "uint256"
            },
            {
              "internalType": "uint256",
              "name": "endDate",
              "type": "uint256"
            }
          ],
          "internalType": "struct FairLaunchConfig",
          "name": "_config",
          "type": "tuple"
        }
      ],
      "stateMutability": "nonpayable",
      "type": "constructor"
    },
    {
      "inputs": [
        {
          "internalType": "address",
          "name": "owner",
          "type": "address"
        }
      ],
      "name": "OwnableInvalidOwner",
      "type": "error"
    },
    {
      "inputs": [
        {
          "internalType": "address",
          "name": "account",
          "type": "address"
        }
      ],
      "name": "OwnableUnauthorizedAccount",
      "type": "error"
    },
    {
      "inputs": [],
      "name": "ReentrancyGuardReentrantCall",
      "type": "error"
    },
    {
      "anonymous": false,
      "inputs": [
        {
          "indexed": true,
          "internalType": "address",
          "name": "owner",
          "type": "address"
        },
        {
          "indexed": true,
          "internalType": "address",
          "name": "pair",
          "type": "address"
        },
        {
          "indexed": false,
          "internalType": "uint256",
          "name": "amountLPTokens",
          "type": "uint256"
        }
      ],
      "name": "LPTokensClaimed",
      "type": "event"
    },
    {
      "anonymous": false,
      "inputs": [
        {
          "indexed": true,
          "internalType": "address",
          "name": "pair",
          "type": "address"
        },
        {
          "indexed": true,
          "internalType": "address",
          "name": "token",
          "type": "address"
        },
        {
          "indexed": false,
          "internalType": "uint256",
          "name": "amountMinted",
          "type": "uint256"
        }
      ],
      "name": "LiquidityDeployed",
      "type": "event"
    },
    {
      "anonymous": false,
      "inputs": [
        {
          "indexed": true,
          "internalType": "address",
          "name": "previousOwner",
          "type": "address"
        },
        {
          "indexed": true,
          "internalType": "address",
          "name": "newOwner",
          "type": "address"
        }
      ],
      "name": "OwnershipTransferred",
      "type": "event"
    },
    {
      "anonymous": false,
      "inputs": [
        {
          "indexed": true,
          "internalType": "address",
          "name": "buyer",
          "type": "address"
        },
        {
          "indexed": true,
          "internalType": "address",
          "name": "token",
          "type": "address"
        },
        {
          "indexed": false,
          "internalType": "uint256",
          "name": "amountInEdu",
          "type": "uint256"
        }
      ],
      "name": "Refund",
      "type": "event"
    },
    {
      "anonymous": false,
      "inputs": [
        {
          "indexed": true,
          "internalType": "address",
          "name": "team",
          "type": "address"
        },
        {
          "indexed": true,
          "internalType": "address",
          "name": "token",
          "type": "address"
        },
        {
          "indexed": false,
          "internalType": "uint256",
          "name": "amountInToken",
          "type": "uint256"
        }
      ],
      "name": "TeamClaimed",
      "type": "event"
    },
    {
      "anonymous": false,
      "inputs": [
        {
          "indexed": true,
          "internalType": "address",
          "name": "buyer",
          "type": "address"
        },
        {
          "indexed": true,
          "internalType": "address",
          "name": "token",
          "type": "address"
        },
        {
          "indexed": false,
          "internalType": "uint256",
          "name": "amountInEdu",
          "type": "uint256"
        }
      ],
      "name": "TokenBought",
      "type": "event"
    },
    {
      "anonymous": false,
      "inputs": [
        {
          "indexed": true,
          "internalType": "address",
          "name": "buyer",
          "type": "address"
        },
        {
          "indexed": true,
          "internalType": "address",
          "name": "token",
          "type": "address"
        },
        {
          "indexed": false,
          "internalType": "uint256",
          "name": "amountInToken",
          "type": "uint256"
        }
      ],
      "name": "TokenClaimed",
      "type": "event"
    },
    {
      "inputs": [],
      "name": "LPTokenAddress",
      "outputs": [
        {
          "internalType": "address",
          "name": "",
          "type": "address"
        }
      ],
      "stateMutability": "view",
      "type": "function"
    },
    {
      "inputs": [],
      "name": "buyToken",
      "outputs": [],
      "stateMutability": "payable",
      "type": "function"
    },
    {
      "inputs": [],
      "name": "claimLPTokens",
      "outputs": [],
      "stateMutability": "nonpayable",
      "type": "function"
    },
    {
      "inputs": [],
      "name": "claimRefund",
      "outputs": [],
      "stateMutability": "nonpayable",
      "type": "function"
    },
    {
      "inputs": [],
      "name": "claimTokens",
      "outputs": [],
      "stateMutability": "nonpayable",
      "type": "function"
    },
    {
      "inputs": [
        {
          "internalType": "address",
          "name": "",
          "type": "address"
        }
      ],
      "name": "claimed",
      "outputs": [
        {
          "internalType": "uint256",
          "name": "",
          "type": "uint256"
        }
      ],
      "stateMutability": "view",
      "type": "function"
    },
    {
      "inputs": [],
      "name": "config",
      "outputs": [
        {
          "internalType": "address",
          "name": "token",
          "type": "address"
        },
        {
          "internalType": "uint256",
          "name": "softCap",
          "type": "uint256"
        },
        {
          "internalType": "uint256",
          "name": "hardCap",
          "type": "uint256"
        },
        {
          "internalType": "uint256",
          "name": "amountForSale",
          "type": "uint256"
        },
        {
          "internalType": "uint256",
          "name": "listingRate",
          "type": "uint256"
        },
        {
          "internalType": "uint256",
          "name": "minimumBuy",
          "type": "uint256"
        },
        {
          "internalType": "uint256",
          "name": "maximumBuy",
          "type": "uint256"
        },
        {
          "internalType": "uint256",
          "name": "percentageForLiquidity",
          "type": "uint256"
        },
        {
          "internalType": "uint256",
          "name": "percentageForTeam",
          "type": "uint256"
        },
        {
          "internalType": "uint256",
          "name": "startDate",
          "type": "uint256"
        },
        {
          "internalType": "uint256",
          "name": "endDate",
          "type": "uint256"
        }
      ],
      "stateMutability": "view",
      "type": "function"
    },
    {
      "inputs": [],
      "name": "deployLiquidity",
      "outputs": [],
      "stateMutability": "nonpayable",
      "type": "function"
    },
    {
      "inputs": [],
      "name": "owner",
      "outputs": [
        {
          "internalType": "address",
          "name": "",
          "type": "address"
        }
      ],
      "stateMutability": "view",
      "type": "function"
    },
    {
      "inputs": [
        {
          "internalType": "address",
          "name": "",
          "type": "address"
        }
      ],
      "name": "purchaseHistory",
      "outputs": [
        {
          "internalType": "uint256",
          "name": "",
          "type": "uint256"
        }
      ],
      "stateMutability": "view",
      "type": "function"
    },
    {
      "inputs": [],
      "name": "renounceOwnership",
      "outputs": [],
      "stateMutability": "nonpayable",
      "type": "function"
    },
    {
      "inputs": [],
      "name": "totalContributors",
      "outputs": [
        {
          "internalType": "uint256",
          "name": "",
          "type": "uint256"
        }
      ],
      "stateMutability": "view",
      "type": "function"
    },
    {
      "inputs": [],
      "name": "totalSold",
      "outputs": [
        {
          "internalType": "uint256",
          "name": "",
          "type": "uint256"
        }
      ],
      "stateMutability": "view",
      "type": "function"
    },
    {
      "inputs": [
        {
          "internalType": "address",
          "name": "newOwner",
          "type": "address"
        }
      ],
      "name": "transferOwnership",
      "outputs": [],
      "stateMutability": "nonpayable",
      "type": "function"
    },
    {
      "inputs": [],
      "name": "withdrawTeamTokens",
      "outputs": [],
      "stateMutability": "nonpayable",
      "type": "function"
    },
    {
      "stateMutability": "payable",
      "type": "receive"
    }
  ],
  "bytecode": "0x6080604052731ccc7382d46313c24e1d13510b1c9445a792f4d4601260006101000a81548173ffffffffffffffffffffffffffffffffffffffff021916908373ffffffffffffffffffffffffffffffffffffffff16021790555073b97582dcb6f2866098ca210095a04df3e11b76a6601360006101000a81548173ffffffffffffffffffffffffffffffffffffffff021916908373ffffffffffffffffffffffffffffffffffffffff160217905550348015620000bb57600080fd5b5060405162002abf38038062002abf8339818101604052810190620000e191906200055f565b32600073ffffffffffffffffffffffffffffffffffffffff168173ffffffffffffffffffffffffffffffffffffffff1603620001575760006040517f1e4fbdf70000000000000000000000000000000000000000000000000000000081526004016200014e9190620005a3565b60405180910390fd5b62000168816200022b60201b60201c565b506001808190555080600260008201518160000160006101000a81548173ffffffffffffffffffffffffffffffffffffffff021916908373ffffffffffffffffffffffffffffffffffffffff1602179055506020820151816001015560408201518160020155606082015181600301556080820151816004015560a0820151816005015560c0820151816006015560e082015181600701556101008201518160080155610120820151816009015561014082015181600a015590505050620005c0565b60008060009054906101000a900473ffffffffffffffffffffffffffffffffffffffff169050816000806101000a81548173ffffffffffffffffffffffffffffffffffffffff021916908373ffffffffffffffffffffffffffffffffffffffff1602179055508173ffffffffffffffffffffffffffffffffffffffff168173ffffffffffffffffffffffffffffffffffffffff167f8be0079c531659141344cd1fd0a4f28419497f9722a3daafe3b4186f6b6457e060405160405180910390a35050565b6000604051905090565b600080fd5b600080fd5b6000601f19601f8301169050919050565b7f4e487b7100000000000000000000000000000000000000000000000000000000600052604160045260246000fd5b6200034e8262000303565b810181811067ffffffffffffffff8211171562000370576200036f62000314565b5b80604052505050565b600062000385620002ef565b905062000393828262000343565b919050565b600073ffffffffffffffffffffffffffffffffffffffff82169050919050565b6000620003c58262000398565b9050919050565b620003d781620003b8565b8114620003e357600080fd5b50565b600081519050620003f781620003cc565b92915050565b6000819050919050565b6200041281620003fd565b81146200041e57600080fd5b50565b600081519050620004328162000407565b92915050565b60006101608284031215620004525762000451620002fe565b5b6200045f61016062000379565b905060006200047184828501620003e6565b6000830152506020620004878482850162000421565b60208301525060406200049d8482850162000421565b6040830152506060620004b38482850162000421565b6060830152506080620004c98482850162000421565b60808301525060a0620004df8482850162000421565b60a08301525060c0620004f58482850162000421565b60c08301525060e06200050b8482850162000421565b60e083015250610100620005228482850162000421565b610100830152506101206200053a8482850162000421565b61012083015250610140620005528482850162000421565b6101408301525092915050565b60006101608284031215620005795762000578620002f9565b5b6000620005898482850162000438565b91505092915050565b6200059d81620003b8565b82525050565b6000602082019050620005ba600083018462000592565b92915050565b6124ef80620005d06000396000f3fe6080604052600436106100ec5760003560e01c8063953b7ef81161008a578063c884ef8311610059578063c884ef8314610242578063e45f2b8a1461027f578063f251fc8c146102bc578063f2fde38b146102e7576100f3565b8063953b7ef8146101df578063a4821719146101f6578063b5545a3c14610200578063c3828bf014610217576100f3565b8063715018a6116100c6578063715018a61461013d57806379502c55146101545780638da5cb5b146101895780639106d7ba146101b4576100f3565b806338af6632146100f85780634086bf891461010f57806348c54b9d14610126576100f3565b366100f357005b600080fd5b34801561010457600080fd5b5061010d610310565b005b34801561011b57600080fd5b506101246105ca565b005b34801561013257600080fd5b5061013b610c18565b005b34801561014957600080fd5b50610152610f1a565b005b34801561016057600080fd5b50610169610f2e565b6040516101809b9a9998979695949392919061196d565b60405180910390f35b34801561019557600080fd5b5061019e610f96565b6040516101ab9190611a18565b60405180910390f35b3480156101c057600080fd5b506101c9610fbf565b6040516101d69190611a33565b60405180910390f35b3480156101eb57600080fd5b506101f4610fc5565b005b6101fe611164565b005b34801561020c57600080fd5b506102156113ed565b005b34801561022357600080fd5b5061022c61166c565b6040516102399190611a18565b60405180910390f35b34801561024e57600080fd5b5061026960048036038101906102649190611a7f565b611692565b6040516102769190611a33565b60405180910390f35b34801561028b57600080fd5b506102a660048036038101906102a19190611a7f565b6116aa565b6040516102b39190611a33565b60405180910390f35b3480156102c857600080fd5b506102d16116c2565b6040516102de9190611a33565b60405180910390f35b3480156102f357600080fd5b5061030e60048036038101906103099190611a7f565b6116c8565b005b61031861174e565b62278d006002600a015461032c9190611adb565b42101561036e576040517f08c379a000000000000000000000000000000000000000000000000000000000815260040161036590611b92565b60405180910390fd5b600073ffffffffffffffffffffffffffffffffffffffff16600f60009054906101000a900473ffffffffffffffffffffffffffffffffffffffff1673ffffffffffffffffffffffffffffffffffffffff16036103ff576040517f08c379a00000000000000000000000000000000000000000000000000000000081526004016103f690611c24565b60405180910390fd5b6000600f60009054906101000a900473ffffffffffffffffffffffffffffffffffffffff1673ffffffffffffffffffffffffffffffffffffffff166370a08231306040518263ffffffff1660e01b815260040161045c9190611a18565b602060405180830381865afa158015610479573d6000803e3d6000fd5b505050506040513d601f19601f8201168201806040525081019061049d9190611c70565b9050600f60009054906101000a900473ffffffffffffffffffffffffffffffffffffffff1673ffffffffffffffffffffffffffffffffffffffff1663a9059cbb33836040518363ffffffff1660e01b81526004016104fc929190611c9d565b6020604051808303816000875af115801561051b573d6000803e3d6000fd5b505050506040513d601f19601f8201168201806040525081019061053f9190611cfe565b50600f60009054906101000a900473ffffffffffffffffffffffffffffffffffffffff1673ffffffffffffffffffffffffffffffffffffffff163373ffffffffffffffffffffffffffffffffffffffff167f4f2e1c4d34092405172a61f387073a9b61bfcbb54eceb1e96383d36e19b394a9836040516105bf9190611a33565b60405180910390a350565b6002600a0154421015610612576040517f08c379a000000000000000000000000000000000000000000000000000000000815260040161060990611d9d565b60405180910390fd5b600260010154600d54101561065c576040517f08c379a000000000000000000000000000000000000000000000000000000000815260040161065390611e2f565b60405180910390fd5b6000601260009054906101000a900473ffffffffffffffffffffffffffffffffffffffff1673ffffffffffffffffffffffffffffffffffffffff1663171223dd73ffffffffffffffffffffffffffffffffffffffff60001b7feeeeeeeeeeeeeeeeeeeeeeeeeeeeeeeeeeeeeeeeeeeeeeeeeeeeeeeeeeeeeeee60001b16610707600260000160009054906101000a900473ffffffffffffffffffffffffffffffffffffffff166117d5565b6040518363ffffffff1660e01b8152600401610724929190611e7a565b6020604051808303816000875af1158015610743573d6000803e3d6000fd5b505050506040513d601f19601f820116820180604052508101906107679190611eb8565b905080600f60006101000a81548173ffffffffffffffffffffffffffffffffffffffff021916908373ffffffffffffffffffffffffffffffffffffffff160217905550600260000160009054906101000a900473ffffffffffffffffffffffffffffffffffffffff1673ffffffffffffffffffffffffffffffffffffffff1663095ea7b3601360009054906101000a900473ffffffffffffffffffffffffffffffffffffffff167fffffffffffffffffffffffffffffffffffffffffffffffffffffffffffffffff6040518363ffffffff1660e01b815260040161084c929190611c9d565b6020604051808303816000875af115801561086b573d6000803e3d6000fd5b505050506040513d601f19601f8201168201806040525081019061088f9190611cfe565b5060006064600d546002600701546108a79190611ee5565b6108b19190611f56565b90506000600260040154826108c69190611ee5565b9050601360009054906101000a900473ffffffffffffffffffffffffffffffffffffffff1673ffffffffffffffffffffffffffffffffffffffff16635a47ddc383600260000160009054906101000a900473ffffffffffffffffffffffffffffffffffffffff166000808688600080307fffffffffffffffffffffffffffffffffffffffffffffffffffffffffffffffff6040518b63ffffffff1660e01b815260040161097b99989796959493929190611fdb565b60606040518083038185885af1158015610999573d6000803e3d6000fd5b50505050506040513d601f19601f820116820180604052508101906109be9190612068565b5050506000600260000160009054906101000a900473ffffffffffffffffffffffffffffffffffffffff1673ffffffffffffffffffffffffffffffffffffffff166370a08231306040518263ffffffff1660e01b8152600401610a219190611a18565b602060405180830381865afa158015610a3e573d6000803e3d6000fd5b505050506040513d601f19601f82011682018060405250810190610a629190611c70565b9050600260000160009054906101000a900473ffffffffffffffffffffffffffffffffffffffff1673ffffffffffffffffffffffffffffffffffffffff1663a9059cbb6000836040518363ffffffff1660e01b8152600401610ac5929190611c9d565b6020604051808303816000875af1158015610ae4573d6000803e3d6000fd5b505050506040513d601f19601f82011682018060405250810190610b089190611cfe565b5060008473ffffffffffffffffffffffffffffffffffffffff166370a08231306040518263ffffffff1660e01b8152600401610b449190611a18565b602060405180830381865afa158015610b61573d6000803e3d6000fd5b505050506040513d601f19601f82011682018060405250810190610b859190611c70565b9050600260000160009054906101000a900473ffffffffffffffffffffffffffffffffffffffff1673ffffffffffffffffffffffffffffffffffffffff168573ffffffffffffffffffffffffffffffffffffffff167f2be745126d540f8314c97b28a1687816ebc31358eb0259f21907ff16cd11eeb983604051610c099190611a33565b60405180910390a35050505050565b610c206117f8565b6002600a0154421015610c68576040517f08c379a0000000000000000000000000000000000000000000000000000000008152600401610c5f90611d9d565b60405180910390fd5b600260010154600d541015610cb2576040517f08c379a0000000000000000000000000000000000000000000000000000000008152600401610ca990611e2f565b60405180910390fd5b6000601160003373ffffffffffffffffffffffffffffffffffffffff1673ffffffffffffffffffffffffffffffffffffffff1681526020019081526020016000205414610d34576040517f08c379a0000000000000000000000000000000000000000000000000000000008152600401610d2b9061212d565b60405180910390fd5b60006002800154600260030154610d4b9190611f56565b9050600081601060003373ffffffffffffffffffffffffffffffffffffffff1673ffffffffffffffffffffffffffffffffffffffff16815260200190815260200160002054610d9a9190611ee5565b905080601160003373ffffffffffffffffffffffffffffffffffffffff1673ffffffffffffffffffffffffffffffffffffffff16815260200190815260200160002081905550600260000160009054906101000a900473ffffffffffffffffffffffffffffffffffffffff1673ffffffffffffffffffffffffffffffffffffffff1663a9059cbb33836040518363ffffffff1660e01b8152600401610e40929190611c9d565b6020604051808303816000875af1158015610e5f573d6000803e3d6000fd5b505050506040513d601f19601f82011682018060405250810190610e839190611cfe565b50600260000160009054906101000a900473ffffffffffffffffffffffffffffffffffffffff1673ffffffffffffffffffffffffffffffffffffffff163373ffffffffffffffffffffffffffffffffffffffff167f4831bdd9dcf3048a28319ce81d3cab7a15366bcf449bc7803a539107440809cc83604051610f069190611a33565b60405180910390a35050610f1861183e565b565b610f2261174e565b610f2c6000611847565b565b60028060000160009054906101000a900473ffffffffffffffffffffffffffffffffffffffff169080600101549080600201549080600301549080600401549080600501549080600601549080600701549080600801549080600901549080600a015490508b565b60008060009054906101000a900473ffffffffffffffffffffffffffffffffffffffff16905090565b600d5481565b610fcd61174e565b6002600a0154421015611015576040517f08c379a000000000000000000000000000000000000000000000000000000000815260040161100c90611d9d565b60405180910390fd5b600260010154600d54101561105f576040517f08c379a000000000000000000000000000000000000000000000000000000000815260040161105690611e2f565b60405180910390fd5b60006064600d546002600801546110769190611ee5565b6110809190611f56565b905061108a610f96565b73ffffffffffffffffffffffffffffffffffffffff166108fc829081150290604051600060405180830381858888f193505050501580156110cf573d6000803e3d6000fd5b50600260000160009054906101000a900473ffffffffffffffffffffffffffffffffffffffff1673ffffffffffffffffffffffffffffffffffffffff16611114610f96565b73ffffffffffffffffffffffffffffffffffffffff167fa95e69983c44f17474cba286953deb119463b9f5cb8cfde4fd709df3660266f7836040516111599190611a33565b60405180910390a350565b6002600901544210156111ac576040517f08c379a00000000000000000000000000000000000000000000000000000000081526004016111a3906121bf565b60405180910390fd5b6002600a01544211156111f4576040517f08c379a00000000000000000000000000000000000000000000000000000000081526004016111eb90612251565b60405180910390fd5b60026005015434101561123c576040517f08c379a0000000000000000000000000000000000000000000000000000000008152600401611233906122e3565b60405180910390fd5b600260060154341115611284576040517f08c379a000000000000000000000000000000000000000000000000000000000815260040161127b90612375565b60405180910390fd5b600280015434600d546112979190611adb565b11156112d8576040517f08c379a00000000000000000000000000000000000000000000000000000000081526004016112cf90612407565b60405180910390fd5b34600d60008282546112ea9190611adb565b925050819055506001600e60008282546113049190611adb565b9250508190555034601060003373ffffffffffffffffffffffffffffffffffffffff1673ffffffffffffffffffffffffffffffffffffffff168152602001908152602001600020600082825461135a9190611adb565b92505081905550600260000160009054906101000a900473ffffffffffffffffffffffffffffffffffffffff1673ffffffffffffffffffffffffffffffffffffffff163373ffffffffffffffffffffffffffffffffffffffff167f9b24bd0884170cbce51f9f00df6b3f9aed2231e4086241d1d04687b42afdf7b9346040516113e39190611a33565b60405180910390a3565b6113f56117f8565b6002600a015442101561143d576040517f08c379a000000000000000000000000000000000000000000000000000000000815260040161143490611d9d565b60405180910390fd5b600260010154600d5410611486576040517f08c379a000000000000000000000000000000000000000000000000000000000815260040161147d90612499565b60405180910390fd5b6000601160003373ffffffffffffffffffffffffffffffffffffffff1673ffffffffffffffffffffffffffffffffffffffff1681526020019081526020016000205414611508576040517f08c379a00000000000000000000000000000000000000000000000000000000081526004016114ff9061212d565b60405180910390fd5b6000601060003373ffffffffffffffffffffffffffffffffffffffff1673ffffffffffffffffffffffffffffffffffffffff16815260200190815260200160002054905080601160003373ffffffffffffffffffffffffffffffffffffffff1673ffffffffffffffffffffffffffffffffffffffff168152602001908152602001600020819055503373ffffffffffffffffffffffffffffffffffffffff166108fc829081150290604051600060405180830381858888f193505050501580156115d6573d6000803e3d6000fd5b50600260000160009054906101000a900473ffffffffffffffffffffffffffffffffffffffff1673ffffffffffffffffffffffffffffffffffffffff163373ffffffffffffffffffffffffffffffffffffffff167ff40cc8c1a1d17359049ba500cfc894596a692cffc9d03943cd92ec2e159cf6ae836040516116599190611a33565b60405180910390a35061166a61183e565b565b600f60009054906101000a900473ffffffffffffffffffffffffffffffffffffffff1681565b60116020528060005260406000206000915090505481565b60106020528060005260406000206000915090505481565b600e5481565b6116d061174e565b600073ffffffffffffffffffffffffffffffffffffffff168173ffffffffffffffffffffffffffffffffffffffff16036117425760006040517f1e4fbdf70000000000000000000000000000000000000000000000000000000081526004016117399190611a18565b60405180910390fd5b61174b81611847565b50565b61175661190b565b73ffffffffffffffffffffffffffffffffffffffff16611774610f96565b73ffffffffffffffffffffffffffffffffffffffff16146117d35761179761190b565b6040517f118cdaa70000000000000000000000000000000000000000000000000000000081526004016117ca9190611a18565b60405180910390fd5b565b60008173ffffffffffffffffffffffffffffffffffffffff1660001b9050919050565b600260015403611834576040517f3ee5aeb500000000000000000000000000000000000000000000000000000000815260040160405180910390fd5b6002600181905550565b60018081905550565b60008060009054906101000a900473ffffffffffffffffffffffffffffffffffffffff169050816000806101000a81548173ffffffffffffffffffffffffffffffffffffffff021916908373ffffffffffffffffffffffffffffffffffffffff1602179055508173ffffffffffffffffffffffffffffffffffffffff168173ffffffffffffffffffffffffffffffffffffffff167f8be0079c531659141344cd1fd0a4f28419497f9722a3daafe3b4186f6b6457e060405160405180910390a35050565b600033905090565b600073ffffffffffffffffffffffffffffffffffffffff82169050919050565b600061193e82611913565b9050919050565b61194e81611933565b82525050565b6000819050919050565b61196781611954565b82525050565b600061016082019050611983600083018e611945565b611990602083018d61195e565b61199d604083018c61195e565b6119aa606083018b61195e565b6119b7608083018a61195e565b6119c460a083018961195e565b6119d160c083018861195e565b6119de60e083018761195e565b6119ec61010083018661195e565b6119fa61012083018561195e565b611a0861014083018461195e565b9c9b505050505050505050505050565b6000602082019050611a2d6000830184611945565b92915050565b6000602082019050611a48600083018461195e565b92915050565b600080fd5b611a5c81611933565b8114611a6757600080fd5b50565b600081359050611a7981611a53565b92915050565b600060208284031215611a9557611a94611a4e565b5b6000611aa384828501611a6a565b91505092915050565b7f4e487b7100000000000000000000000000000000000000000000000000000000600052601160045260246000fd5b6000611ae682611954565b9150611af183611954565b9250828201905080821115611b0957611b08611aac565b5b92915050565b600082825260208201905092915050565b7f546872757374706164466169724c61756e63683a204c6f636b20706572696f6460008201527f206e6f74206f7665722079657400000000000000000000000000000000000000602082015250565b6000611b7c602d83611b0f565b9150611b8782611b20565b604082019050919050565b60006020820190508181036000830152611bab81611b6f565b9050919050565b7f546872757374706164466169724c61756e63683a204c5020746f6b656e73206e60008201527f6f74206465706c6f796564207965740000000000000000000000000000000000602082015250565b6000611c0e602f83611b0f565b9150611c1982611bb2565b604082019050919050565b60006020820190508181036000830152611c3d81611c01565b9050919050565b611c4d81611954565b8114611c5857600080fd5b50565b600081519050611c6a81611c44565b92915050565b600060208284031215611c8657611c85611a4e565b5b6000611c9484828501611c5b565b91505092915050565b6000604082019050611cb26000830185611945565b611cbf602083018461195e565b9392505050565b60008115159050919050565b611cdb81611cc6565b8114611ce657600080fd5b50565b600081519050611cf881611cd2565b92915050565b600060208284031215611d1457611d13611a4e565b5b6000611d2284828501611ce9565b91505092915050565b7f546872757374706164466169724c61756e63683a2073616c6520686173206e6f60008201527f7420656e64656420796574000000000000000000000000000000000000000000602082015250565b6000611d87602b83611b0f565b9150611d9282611d2b565b604082019050919050565b60006020820190508181036000830152611db681611d7a565b9050919050565b7f546872757374706164466169724c61756e63683a20736f667420636170206e6f60008201527f7420726561636865640000000000000000000000000000000000000000000000602082015250565b6000611e19602983611b0f565b9150611e2482611dbd565b604082019050919050565b60006020820190508181036000830152611e4881611e0c565b9050919050565b6000819050919050565b6000611e6482611e4f565b9050919050565b611e7481611e59565b82525050565b6000604082019050611e8f6000830185611e6b565b611e9c6020830184611e6b565b9392505050565b600081519050611eb281611a53565b92915050565b600060208284031215611ece57611ecd611a4e565b5b6000611edc84828501611ea3565b91505092915050565b6000611ef082611954565b9150611efb83611954565b9250828202611f0981611954565b91508282048414831517611f2057611f1f611aac565b5b5092915050565b7f4e487b7100000000000000000000000000000000000000000000000000000000600052601260045260246000fd5b6000611f6182611954565b9150611f6c83611954565b925082611f7c57611f7b611f27565b5b828204905092915050565b611f9081611cc6565b82525050565b6000819050919050565b6000819050919050565b6000611fc5611fc0611fbb84611f96565b611fa0565b611954565b9050919050565b611fd581611faa565b82525050565b600061012082019050611ff1600083018c611945565b611ffe602083018b611945565b61200b604083018a611f87565b612018606083018961195e565b612025608083018861195e565b61203260a0830187611fcc565b61203f60c0830186611fcc565b61204c60e0830185611945565b61205a61010083018461195e565b9a9950505050505050505050565b60008060006060848603121561208157612080611a4e565b5b600061208f86828701611c5b565b93505060206120a086828701611c5b565b92505060406120b186828701611c5b565b9150509250925092565b7f546872757374706164466169724c61756e63683a20746f6b656e7320616c726560008201527f61647920636c61696d6564000000000000000000000000000000000000000000602082015250565b6000612117602b83611b0f565b9150612122826120bb565b604082019050919050565b600060208201905081810360008301526121468161210a565b9050919050565b7f546872757374706164466169724c61756e63683a2073616c6520686173206e6f60008201527f7420737461727465642079657400000000000000000000000000000000000000602082015250565b60006121a9602d83611b0f565b91506121b48261214d565b604082019050919050565b600060208201905081810360008301526121d88161219c565b9050919050565b7f546872757374706164466169724c61756e63683a2073616c652068617320656e60008201527f6465640000000000000000000000000000000000000000000000000000000000602082015250565b600061223b602383611b0f565b9150612246826121df565b604082019050919050565b6000602082019050818103600083015261226a8161222e565b9050919050565b7f546872757374706164466169724c61756e63683a20616d6f756e74206973206c60008201527f657373207468616e206d696e696d756d20627579000000000000000000000000602082015250565b60006122cd603483611b0f565b91506122d882612271565b604082019050919050565b600060208201905081810360008301526122fc816122c0565b9050919050565b7f546872757374706164466169724c61756e63683a20616d6f756e74206973206d60008201527f6f7265207468616e206d6178696d756d20627579000000000000000000000000602082015250565b600061235f603483611b0f565b915061236a82612303565b604082019050919050565b6000602082019050818103600083015261238e81612352565b9050919050565b7f546872757374706164466169724c61756e63683a20686172642063617020726560008201527f6163686564000000000000000000000000000000000000000000000000000000602082015250565b60006123f1602583611b0f565b91506123fc82612395565b604082019050919050565b60006020820190508181036000830152612420816123e4565b9050919050565b7f546872757374706164466169724c61756e63683a20736f66742063617020726560008201527f6163686564000000000000000000000000000000000000000000000000000000602082015250565b6000612483602583611b0f565b915061248e82612427565b604082019050919050565b600060208201905081810360008301526124b281612476565b905091905056fea2646970667358221220d2628431791c2428a2795c5e56fceed8421bbebf1ada4666ac5cefe720478b7764736f6c63430008180033",
  "linkReferences": {},
  "deployedLinkReferences": {}
}