{
  "_format": "hh-sol-artifact-1",
  "contractName": "ThrustpadFairLaunch",
  "sourceName": "contracts/fair-launch/ThrustpadFairLaunch.sol",
  "abi": [
    {
      "inputs": [
        {
          "components": [
            {
              "internalType": "address",
              "name": "token",
              "type": "address"
            },
            {
              "internalType": "uint256",
              "name": "softCap",
              "type": "uint256"
            },
            {
              "internalType": "uint256",
              "name": "hardCap",
              "type": "uint256"
            },
            {
              "internalType": "uint256",
              "name": "amountForSale",
              "type": "uint256"
            },
            {
              "internalType": "uint256",
              "name": "listingRate",
              "type": "uint256"
            },
            {
              "internalType": "uint256",
              "name": "minimumBuy",
              "type": "uint256"
            },
            {
              "internalType": "uint256",
              "name": "maximumBuy",
              "type": "uint256"
            },
            {
              "internalType": "uint256",
              "name": "percentageForLiquidity",
              "type": "uint256"
            },
            {
              "internalType": "uint256",
              "name": "percentageForTeam",
              "type": "uint256"
            },
            {
              "internalType": "uint256",
              "name": "startDate",
              "type": "uint256"
            },
            {
              "internalType": "uint256",
              "name": "endDate",
              "type": "uint256"
            }
          ],
          "internalType": "struct FairLaunchConfig",
          "name": "_config",
          "type": "tuple"
        },
        {
          "internalType": "address",
          "name": "_owner",
          "type": "address"
        }
      ],
      "stateMutability": "nonpayable",
      "type": "constructor"
    },
    {
      "inputs": [
        {
          "internalType": "address",
          "name": "owner",
          "type": "address"
        }
      ],
      "name": "OwnableInvalidOwner",
      "type": "error"
    },
    {
      "inputs": [
        {
          "internalType": "address",
          "name": "account",
          "type": "address"
        }
      ],
      "name": "OwnableUnauthorizedAccount",
      "type": "error"
    },
    {
      "inputs": [],
      "name": "ReentrancyGuardReentrantCall",
      "type": "error"
    },
    {
      "anonymous": false,
      "inputs": [
        {
          "indexed": true,
          "internalType": "address",
          "name": "owner",
          "type": "address"
        },
        {
          "indexed": true,
          "internalType": "address",
          "name": "pair",
          "type": "address"
        },
        {
          "indexed": false,
          "internalType": "uint256",
          "name": "amountLPTokens",
          "type": "uint256"
        }
      ],
      "name": "LPTokensClaimed",
      "type": "event"
    },
    {
      "anonymous": false,
      "inputs": [
        {
          "indexed": true,
          "internalType": "uint256",
          "name": "tokenId",
          "type": "uint256"
        },
        {
          "indexed": false,
          "internalType": "uint256",
          "name": "liquidity",
          "type": "uint256"
        }
      ],
      "name": "LiquidityDeployed",
      "type": "event"
    },
    {
      "anonymous": false,
      "inputs": [
        {
          "indexed": true,
          "internalType": "address",
          "name": "previousOwner",
          "type": "address"
        },
        {
          "indexed": true,
          "internalType": "address",
          "name": "newOwner",
          "type": "address"
        }
      ],
      "name": "OwnershipTransferred",
      "type": "event"
    },
    {
      "anonymous": false,
      "inputs": [
        {
          "indexed": true,
          "internalType": "address",
          "name": "buyer",
          "type": "address"
        },
        {
          "indexed": true,
          "internalType": "address",
          "name": "token",
          "type": "address"
        },
        {
          "indexed": false,
          "internalType": "uint256",
          "name": "amountInEdu",
          "type": "uint256"
        }
      ],
      "name": "Refund",
      "type": "event"
    },
    {
      "anonymous": false,
      "inputs": [
        {
          "indexed": true,
          "internalType": "address",
          "name": "team",
          "type": "address"
        },
        {
          "indexed": true,
          "internalType": "address",
          "name": "token",
          "type": "address"
        },
        {
          "indexed": false,
          "internalType": "uint256",
          "name": "amountInToken",
          "type": "uint256"
        }
      ],
      "name": "TeamClaimed",
      "type": "event"
    },
    {
      "anonymous": false,
      "inputs": [
        {
          "indexed": true,
          "internalType": "address",
          "name": "buyer",
          "type": "address"
        },
        {
          "indexed": true,
          "internalType": "address",
          "name": "token",
          "type": "address"
        },
        {
          "indexed": false,
          "internalType": "uint256",
          "name": "amountInEdu",
          "type": "uint256"
        }
      ],
      "name": "TokenBought",
      "type": "event"
    },
    {
      "anonymous": false,
      "inputs": [
        {
          "indexed": true,
          "internalType": "address",
          "name": "buyer",
          "type": "address"
        },
        {
          "indexed": true,
          "internalType": "address",
          "name": "token",
          "type": "address"
        },
        {
          "indexed": false,
          "internalType": "uint256",
          "name": "amountInToken",
          "type": "uint256"
        }
      ],
      "name": "TokenClaimed",
      "type": "event"
    },
    {
      "inputs": [],
      "name": "LPTokenAddress",
      "outputs": [
        {
          "internalType": "address",
          "name": "",
          "type": "address"
        }
      ],
      "stateMutability": "view",
      "type": "function"
    },
    {
      "inputs": [],
      "name": "NFTManager",
      "outputs": [
        {
          "internalType": "address",
          "name": "",
          "type": "address"
        }
      ],
      "stateMutability": "view",
      "type": "function"
    },
    {
      "inputs": [],
      "name": "V3Factory",
      "outputs": [
        {
          "internalType": "address",
          "name": "",
          "type": "address"
        }
      ],
      "stateMutability": "view",
      "type": "function"
    },
    {
      "inputs": [],
      "name": "WEDU",
      "outputs": [
        {
          "internalType": "address",
          "name": "",
          "type": "address"
        }
      ],
      "stateMutability": "view",
      "type": "function"
    },
    {
      "inputs": [],
      "name": "buyToken",
      "outputs": [],
      "stateMutability": "payable",
      "type": "function"
    },
    {
      "inputs": [],
      "name": "claimRefund",
      "outputs": [],
      "stateMutability": "nonpayable",
      "type": "function"
    },
    {
      "inputs": [],
      "name": "claimTokens",
      "outputs": [],
      "stateMutability": "nonpayable",
      "type": "function"
    },
    {
      "inputs": [
        {
          "internalType": "address",
          "name": "",
          "type": "address"
        }
      ],
      "name": "claimed",
      "outputs": [
        {
          "internalType": "uint256",
          "name": "",
          "type": "uint256"
        }
      ],
      "stateMutability": "view",
      "type": "function"
    },
    {
      "inputs": [],
      "name": "config",
      "outputs": [
        {
          "internalType": "address",
          "name": "token",
          "type": "address"
        },
        {
          "internalType": "uint256",
          "name": "softCap",
          "type": "uint256"
        },
        {
          "internalType": "uint256",
          "name": "hardCap",
          "type": "uint256"
        },
        {
          "internalType": "uint256",
          "name": "amountForSale",
          "type": "uint256"
        },
        {
          "internalType": "uint256",
          "name": "listingRate",
          "type": "uint256"
        },
        {
          "internalType": "uint256",
          "name": "minimumBuy",
          "type": "uint256"
        },
        {
          "internalType": "uint256",
          "name": "maximumBuy",
          "type": "uint256"
        },
        {
          "internalType": "uint256",
          "name": "percentageForLiquidity",
          "type": "uint256"
        },
        {
          "internalType": "uint256",
          "name": "percentageForTeam",
          "type": "uint256"
        },
        {
          "internalType": "uint256",
          "name": "startDate",
          "type": "uint256"
        },
        {
          "internalType": "uint256",
          "name": "endDate",
          "type": "uint256"
        }
      ],
      "stateMutability": "view",
      "type": "function"
    },
    {
      "inputs": [
        {
          "internalType": "address",
          "name": "token0",
          "type": "address"
        },
        {
          "internalType": "address",
          "name": "token1",
          "type": "address"
        },
        {
          "internalType": "uint16",
          "name": "feeTier",
          "type": "uint16"
        },
        {
          "internalType": "uint160",
          "name": "sqrtPriceX96",
          "type": "uint160"
        }
      ],
      "name": "deployLiquidity",
      "outputs": [],
      "stateMutability": "nonpayable",
      "type": "function"
    },
    {
      "inputs": [
        {
          "internalType": "uint256",
          "name": "_amount",
          "type": "uint256"
        }
      ],
      "name": "emergencyTransferEDU",
      "outputs": [],
      "stateMutability": "nonpayable",
      "type": "function"
    },
    {
      "inputs": [
        {
          "internalType": "address",
          "name": "_token",
          "type": "address"
        },
        {
          "internalType": "uint256",
          "name": "_amount",
          "type": "uint256"
        }
      ],
      "name": "emergencyTransferTokens",
      "outputs": [],
      "stateMutability": "nonpayable",
      "type": "function"
    },
    {
      "inputs": [],
      "name": "liquidityDeployed",
      "outputs": [
        {
          "internalType": "bool",
          "name": "",
          "type": "bool"
        }
      ],
      "stateMutability": "view",
      "type": "function"
    },
    {
      "inputs": [],
      "name": "owner",
      "outputs": [
        {
          "internalType": "address",
          "name": "",
          "type": "address"
        }
      ],
      "stateMutability": "view",
      "type": "function"
    },
    {
      "inputs": [
        {
          "internalType": "address",
          "name": "",
          "type": "address"
        }
      ],
      "name": "purchaseHistory",
      "outputs": [
        {
          "internalType": "uint256",
          "name": "",
          "type": "uint256"
        }
      ],
      "stateMutability": "view",
      "type": "function"
    },
    {
      "inputs": [],
      "name": "renounceOwnership",
      "outputs": [],
      "stateMutability": "nonpayable",
      "type": "function"
    },
    {
      "inputs": [],
      "name": "teamClaimed",
      "outputs": [
        {
          "internalType": "bool",
          "name": "",
          "type": "bool"
        }
      ],
      "stateMutability": "view",
      "type": "function"
    },
    {
      "inputs": [],
      "name": "totalContributors",
      "outputs": [
        {
          "internalType": "uint256",
          "name": "",
          "type": "uint256"
        }
      ],
      "stateMutability": "view",
      "type": "function"
    },
    {
      "inputs": [],
      "name": "totalSold",
      "outputs": [
        {
          "internalType": "uint256",
          "name": "",
          "type": "uint256"
        }
      ],
      "stateMutability": "view",
      "type": "function"
    },
    {
      "inputs": [
        {
          "internalType": "address",
          "name": "newOwner",
          "type": "address"
        }
      ],
      "name": "transferOwnership",
      "outputs": [],
      "stateMutability": "nonpayable",
      "type": "function"
    },
    {
      "inputs": [],
      "name": "withdrawTeamTokens",
      "outputs": [],
      "stateMutability": "nonpayable",
      "type": "function"
    },
    {
      "stateMutability": "payable",
      "type": "receive"
    }
  ],
  "bytecode": "0x6080346200022057601f62001a3538819003918201601f1916830192916001600160401b039190828511848610176200020a578084926040968752833981010392610180841262000220576101608094126200022057805191848301908111838210176200020a578152620000748362000225565b82526020830151602083019081528184015182840190815260608501516060850190815260808601516080860190815260a08701519160a0870192835260c08801519360c0880194855260e08901519560e0890196875261010097888b0151988a01988952610120998a8c01519a81019a8b526101409b8c8101519c82019c8d526200010a60018060a01b039e8f920162000225565b168015620001f257600080546001600160a01b03198082168417835594519f939291908416907f8be0079c531659141344cd1fd0a4f28419497f9722a3daafe3b4186f6b6457e09080a36001805573a9cbef0c9274f985340816ed2074abf5aac2546383601254161760125573135e304139c5113895c97dce8b9eda56d4b53cf983601354161760135573b5cab4e42cb5f16d00c644cb7163f8b427d7a8bf83601454161760145551169060025416176002555160035551600455516005555160065551600755516008555160095551600a5551600b5551600c556117fa90816200023b8239f35b8251631e4fbdf760e01b815260006004820152602490fd5b634e487b7160e01b600052604160045260246000fd5b600080fd5b51906001600160a01b0382168203620002205756fe6080604052600436101561001b575b361561001957600080fd5b005b60003560e01c8063162d216714610c445780632f33465214610c1e57806348c54b9d14610af057806362eba8b014610ac9578063715018a614610a6357806379502c55146109e35780637d7cf6c5146109bc5780638da5cb5b146109955780639106d7ba14610977578063948da010146108e0578063953b7ef8146107b357806397d569971461078c5780639c5913cc14610769578063a4821719146103e3578063b5545a3c146102ca578063c3828bf0146102a0578063c884ef8314610266578063d812195c14610210578063e45f2b8a146101d6578063f251fc8c146101b85763f2fde38b0361000e57346101b35760203660031901126101b3576101206112fd565b6101286115b3565b6001600160a01b03809116908115610182576000548273ffffffffffffffffffffffffffffffffffffffff19821617600055167f8be0079c531659141344cd1fd0a4f28419497f9722a3daafe3b4186f6b6457e0600080a3005b60246040517f1e4fbdf700000000000000000000000000000000000000000000000000000000815260006004820152fd5b600080fd5b346101b35760003660031901126101b3576020600e54604051908152f35b346101b35760203660031901126101b3576001600160a01b036101f76112fd565b1660005260106020526020604060002054604051908152f35b346101b35760203660031901126101b35760008080806004356102316115b3565b61023f600c544210156114ff565b81811561025d575b3390f11561025157005b6040513d6000823e3d90fd5b506108fc610247565b346101b35760203660031901126101b3576001600160a01b036102876112fd565b1660005260116020526020604060002054604051908152f35b346101b35760003660031901126101b35760206001600160a01b03600f5460101c16604051908152f35b346101b35760003660031901126101b3576102e36115f7565b6102f1600c54421015611313565b600d546003541115610391573360005260116020526103156040600020541561148e565b3360005260106020526040600020546011602052806040600020558060008115610388575b600080809381933390f115610251576001600160a01b0360025416906040519081527ff40cc8c1a1d17359049ba500cfc894596a692cffc9d03943cd92ec2e159cf6ae60203392a360018055005b506108fc61033a565b608460405162461bcd60e51b815260206004820152602560248201527f546872757374706164466169724c61756e63683a20736f6674206361702072656044820152641858da195960da1b6064820152fd5b60003660031901126101b357600b544210156104816104014261164e565b916040519061047c604f836020967f546872757374706164466169724c61756e63683a2073616c6520686173206e6f888301527f742073746172746564207965743a200000000000000000000000000000000000604083015261046c815180928a868601910161154a565b810103602f8101855201836113f5565b61156d565b61050b600c544211156104934261164e565b9061047c604560405180947f546872757374706164466169724c61756e63683a2073616c652068617320656e888301527f6465643a2000000000000000000000000000000000000000000000000000000060408301526104fb815180928a868601910161154a565b81010360258101855201836113f5565b60075434106106ff5760085480341161069557600d549061052c3483611481565b6004541061064357336000526010835261054b34604060002054611481565b116105d95761055b903490611481565b600d55600e54600181018091116105c357600e5533600052601081526040600020610587348254611481565b90556001600160a01b0360025416907f9b24bd0884170cbce51f9f00df6b3f9aed2231e4086241d1d04687b42afdf7b9604051913483523392a3005b634e487b7160e01b600052601160045260246000fd5b6084826040519062461bcd60e51b82526004820152603360248201527f546872757374706164466169724c61756e63683a2077616c6c6574206861732060448201527f72656163686564206d6178696d756d20627579000000000000000000000000006064820152fd5b6084836040519062461bcd60e51b82526004820152602560248201527f546872757374706164466169724c61756e63683a2068617264206361702072656044820152641858da195960da1b6064820152fd5b6084826040519062461bcd60e51b82526004820152603460248201527f546872757374706164466169724c61756e63683a20616d6f756e74206973206d60448201527f6f7265207468616e206d6178696d756d206275790000000000000000000000006064820152fd5b6084906040519062461bcd60e51b82526004820152603460248201527f546872757374706164466169724c61756e63683a20616d6f756e74206973206c60448201527f657373207468616e206d696e696d756d206275790000000000000000000000006064820152fd5b346101b35760003660031901126101b357602060ff600f54166040519015158152f35b346101b35760003660031901126101b35760206001600160a01b0360145416604051908152f35b346101b35760003660031901126101b3576107cc6115b3565b6107da600c54421015611313565b600d546107eb600354821015611384565b600f549060ff8260081c1661087657606461080b61010092600a5461144e565b049161ff00191617600f556001600160a01b036000808080858582541682821561086d575bf115610251577fa95e69983c44f17474cba286953deb119463b9f5cb8cfde4fd709df3660266f760208260005416926002541693604051908152a3005b506108fc610830565b608460405162461bcd60e51b815260206004820152603060248201527f546872757374706164466169724c61756e63683a207465616d20746f6b656e7360448201527f20616c726561647920636c61696d6564000000000000000000000000000000006064820152fd5b346101b35760403660031901126101b3576108f96112fd565b6109016115b3565b61090f600c544210156114ff565b60405163a9059cbb60e01b8152336004820152602480359082015290602090829060449082906000906001600160a01b03165af180156102515761094f57005b6100199060203d602011610970575b61096881836113f5565b810190611436565b503d61095e565b346101b35760003660031901126101b3576020600d54604051908152f35b346101b35760003660031901126101b35760206001600160a01b0360005416604051908152f35b346101b35760003660031901126101b35760206001600160a01b0360135416604051908152f35b346101b35760003660031901126101b3576101606001600160a01b03600254166003546004546005546006546007546008549060095492600a5494600b5496600c54986040519a8b5260208b015260408a01526060890152608088015260a087015260c086015260e0850152610100840152610120830152610140820152f35b346101b35760003660031901126101b357610a7c6115b3565b60006001600160a01b03815473ffffffffffffffffffffffffffffffffffffffff1981168355167f8be0079c531659141344cd1fd0a4f28419497f9722a3daafe3b4186f6b6457e08280a3005b346101b35760003660031901126101b35760206001600160a01b0360125416604051908152f35b346101b35760003660031901126101b357610b096115f7565b610b17600c54421015611313565b610b27600d546003541115611384565b33600052602060118152610b406040600020541561148e565b610b65610b5260055460045490611461565b336000526010835260406000205461144e565b3360005260118252806040600020556001600160a01b0380600254169083604051809363a9059cbb60e01b825281600081610bba893360048401602090939291936001600160a01b0360408201951681520152565b03925af1918215610251577f4831bdd9dcf3048a28319ce81d3cab7a15366bcf449bc7803a539107440809cc92610c01575b5060025416926040519283523392a360018055005b610c1790853d87116109705761096881836113f5565b5084610bec565b346101b35760003660031901126101b357602060ff600f5460081c166040519015158152f35b346101b35760803660031901126101b357610c5d6112fd565b6024356001600160a01b03811681036101b35760443561ffff811681036101b3576064356001600160a01b03811681036101b357610c996115b3565b610ca7600c54421015611313565b610cb7600d546003541115611384565b6001600160a01b0360145416906001600160a01b03601254169160206001600160a01b036002541660646001600160a01b03601354169160405194859384927f1698ee820000000000000000000000000000000000000000000000000000000084526004840152602483015261ffff891660448301525afa8015610251576001600160a01b03916000916112de575b5016611274576001600160a01b036084602092600060405195869485937f13ead562000000000000000000000000000000000000000000000000000000008552818c166004860152818b16602486015261ffff8a1660448601521660648401525af1801561025157611245575b50600060206001600160a01b036002541660446001600160a01b036012541660405194859384927f095ea7b30000000000000000000000000000000000000000000000000000000084526004840152811960248401525af1801561025157611226575b506001600160a01b036002541692604051937f313ce567000000000000000000000000000000000000000000000000000000008552602085600481845afa948515610251576000956111e8575b50610e90610e8a6064610e7b600954600d549061144e565b049660ff600654911690611461565b8661144e565b946001600160a01b036012541695826001600160a01b038516146000146111e15780925b6001600160a01b038716036111da575b61012c420142116105c357604051928361016081011067ffffffffffffffff610160860111176111c45761ffff610140966001600160a01b0360809981610164996101608a01604052168852166020870152166040850152620d89b3196060850152620d89b48785015260a084015260c0830152600060e083015260006101008301523361012083015261012c42018483015260405195869485937f883164560000000000000000000000000000000000000000000000000000000085526001600160a01b0381511660048601526001600160a01b03602082015116602486015262ffffff6040820151166044860152606081015160020b60648601528781015160020b608486015260a081015160a486015260c081015160c486015260e081015160e48601526101008101516101048601526001600160a01b036101208201511661012486015201516101448401525af1801561025157600091600091611170575b506001600160a01b03600254166040517f70a08231000000000000000000000000000000000000000000000000000000008152306004820152602081602481855afa9081156102515760009161113e575b50806110bf575b837fcd9786339b2475ad263433c45f6538d0c19eb978a2e5cd7c621a24ee4c4e29c66020856fffffffffffffffffffffffffffffffff60405191168152a2005b600092916044602092604051958693849263a9059cbb60e01b845261dead600485015260248401525af1908115610251577fcd9786339b2475ad263433c45f6538d0c19eb978a2e5cd7c621a24ee4c4e29c692602092611121575b509161107f565b61113790833d85116109705761096881836113f5565b508461111a565b90506020813d602011611168575b81611159602093836113f5565b810103126101b3575184611078565b3d915061114c565b9150506080813d6080116111bc575b8161118c608093836113f5565b810103126101b35760208151910151906fffffffffffffffffffffffffffffffff821682036101b3579082611027565b3d915061117f565b634e487b7160e01b600052604160045260246000fd5b5080610ec4565b8192610eb4565b9094506020813d60201161121e575b81611204602093836113f5565b810103126101b3575160ff811681036101b3579385610e63565b3d91506111f7565b61123e9060203d6020116109705761096881836113f5565b5083610e16565b6112669060203d60201161126d575b61125e81836113f5565b810190611417565b5083610db3565b503d611254565b608460405162461bcd60e51b815260206004820152602860248201527f546872757374706164466169724c61756e63683a205061697220616c7265616460448201527f79206578697374730000000000000000000000000000000000000000000000006064820152fd5b6112f7915060203d60201161126d5761125e81836113f5565b87610d46565b600435906001600160a01b03821682036101b357565b1561131a57565b608460405162461bcd60e51b815260206004820152602b60248201527f546872757374706164466169724c61756e63683a2073616c6520686173206e6f60448201527f7420656e646564207965740000000000000000000000000000000000000000006064820152fd5b1561138b57565b608460405162461bcd60e51b815260206004820152602960248201527f546872757374706164466169724c61756e63683a20736f667420636170206e6f60448201527f74207265616368656400000000000000000000000000000000000000000000006064820152fd5b90601f8019910116810190811067ffffffffffffffff8211176111c457604052565b908160209103126101b357516001600160a01b03811681036101b35790565b908160209103126101b3575180151581036101b35790565b818102929181159184041417156105c357565b811561146b570490565b634e487b7160e01b600052601260045260246000fd5b919082018092116105c357565b1561149557565b608460405162461bcd60e51b815260206004820152602b60248201527f546872757374706164466169724c61756e63683a20746f6b656e7320616c726560448201527f61647920636c61696d65640000000000000000000000000000000000000000006064820152fd5b1561150657565b606460405162461bcd60e51b815260206004820152601660248201527f53616c6520686173206e6f7420656e64656420796574000000000000000000006044820152fd5b60005b83811061155d5750506000910152565b818101518382015260200161154d565b156115755750565b6044604051809262461bcd60e51b8252602060048301526115a5815180928160248601526020868601910161154a565b601f01601f19168101030190fd5b6001600160a01b036000541633036115c757565b60246040517f118cdaa7000000000000000000000000000000000000000000000000000000008152336004820152fd5b600260015414611608576002600155565b60046040517f3ee5aeb5000000000000000000000000000000000000000000000000000000008152fd5b67ffffffffffffffff81116111c457601f01601f191660200190565b806000917a184f03e93ff9f4daa797ed6e38ed64bf6a1f010000000000000000808210156117b6575b506d04ee2d6d415b85acef8100000000808310156117a7575b50662386f26fc1000080831015611798575b506305f5e10080831015611789575b506127108083101561177a575b50606482101561176a575b600a80921015611760575b60019081602160018601956116e887611632565b966116f660405198896113f5565b808852611705601f1991611632565b01366020890137860101905b61171d575b5050505090565b600019019083907f30313233343536373839616263646566000000000000000000000000000000008282061a83530491821561175b57919082611711565b611716565b91600101916116d4565b91906064600291049101916116c9565b600491939204910191386116be565b600891939204910191386116b1565b601091939204910191386116a2565b60209193920491019138611690565b60409350810491503861167756fea2646970667358221220de406f27365bade0b0bc6e8f2fb1757a119e92379d858c2b9cab999a4421766964736f6c63430008180033",
  "linkReferences": {},
  "deployedLinkReferences": {}
}