{
  "_format": "hh-sol-artifact-1",
  "contractName": "ThrustpadFairLaunch",
  "sourceName": "contracts/fair-launch/ThrustpadFairLaunch.sol",
  "abi": [
    {
      "inputs": [
        {
          "components": [
            {
              "internalType": "address",
              "name": "token",
              "type": "address"
            },
            {
              "internalType": "uint256",
              "name": "softCap",
              "type": "uint256"
            },
            {
              "internalType": "uint256",
              "name": "hardCap",
              "type": "uint256"
            },
            {
              "internalType": "uint256",
              "name": "amountForSale",
              "type": "uint256"
            },
            {
              "internalType": "uint256",
              "name": "listingRate",
              "type": "uint256"
            },
            {
              "internalType": "uint256",
              "name": "minimumBuy",
              "type": "uint256"
            },
            {
              "internalType": "uint256",
              "name": "maximumBuy",
              "type": "uint256"
            },
            {
              "internalType": "uint256",
              "name": "percentageForLiquidity",
              "type": "uint256"
            },
            {
              "internalType": "uint256",
              "name": "percentageForTeam",
              "type": "uint256"
            },
            {
              "internalType": "uint256",
              "name": "startDate",
              "type": "uint256"
            },
            {
              "internalType": "uint256",
              "name": "endDate",
              "type": "uint256"
            }
          ],
          "internalType": "struct FairLaunchConfig",
          "name": "_config",
          "type": "tuple"
        }
      ],
      "stateMutability": "nonpayable",
      "type": "constructor"
    },
    {
      "inputs": [
        {
          "internalType": "address",
          "name": "owner",
          "type": "address"
        }
      ],
      "name": "OwnableInvalidOwner",
      "type": "error"
    },
    {
      "inputs": [
        {
          "internalType": "address",
          "name": "account",
          "type": "address"
        }
      ],
      "name": "OwnableUnauthorizedAccount",
      "type": "error"
    },
    {
      "inputs": [],
      "name": "ReentrancyGuardReentrantCall",
      "type": "error"
    },
    {
      "anonymous": false,
      "inputs": [
        {
          "indexed": true,
          "internalType": "address",
          "name": "owner",
          "type": "address"
        },
        {
          "indexed": true,
          "internalType": "address",
          "name": "pair",
          "type": "address"
        },
        {
          "indexed": false,
          "internalType": "uint256",
          "name": "amountLPTokens",
          "type": "uint256"
        }
      ],
      "name": "LPTokensClaimed",
      "type": "event"
    },
    {
      "anonymous": false,
      "inputs": [
        {
          "indexed": true,
          "internalType": "address",
          "name": "pair",
          "type": "address"
        },
        {
          "indexed": true,
          "internalType": "address",
          "name": "token",
          "type": "address"
        },
        {
          "indexed": false,
          "internalType": "uint256",
          "name": "amountMinted",
          "type": "uint256"
        }
      ],
      "name": "LiquidityDeployed",
      "type": "event"
    },
    {
      "anonymous": false,
      "inputs": [
        {
          "indexed": true,
          "internalType": "address",
          "name": "previousOwner",
          "type": "address"
        },
        {
          "indexed": true,
          "internalType": "address",
          "name": "newOwner",
          "type": "address"
        }
      ],
      "name": "OwnershipTransferred",
      "type": "event"
    },
    {
      "anonymous": false,
      "inputs": [
        {
          "indexed": true,
          "internalType": "address",
          "name": "buyer",
          "type": "address"
        },
        {
          "indexed": true,
          "internalType": "address",
          "name": "token",
          "type": "address"
        },
        {
          "indexed": false,
          "internalType": "uint256",
          "name": "amountInEdu",
          "type": "uint256"
        }
      ],
      "name": "Refund",
      "type": "event"
    },
    {
      "anonymous": false,
      "inputs": [
        {
          "indexed": true,
          "internalType": "address",
          "name": "team",
          "type": "address"
        },
        {
          "indexed": true,
          "internalType": "address",
          "name": "token",
          "type": "address"
        },
        {
          "indexed": false,
          "internalType": "uint256",
          "name": "amountInToken",
          "type": "uint256"
        }
      ],
      "name": "TeamClaimed",
      "type": "event"
    },
    {
      "anonymous": false,
      "inputs": [
        {
          "indexed": true,
          "internalType": "address",
          "name": "buyer",
          "type": "address"
        },
        {
          "indexed": true,
          "internalType": "address",
          "name": "token",
          "type": "address"
        },
        {
          "indexed": false,
          "internalType": "uint256",
          "name": "amountInEdu",
          "type": "uint256"
        }
      ],
      "name": "TokenBought",
      "type": "event"
    },
    {
      "anonymous": false,
      "inputs": [
        {
          "indexed": true,
          "internalType": "address",
          "name": "buyer",
          "type": "address"
        },
        {
          "indexed": true,
          "internalType": "address",
          "name": "token",
          "type": "address"
        },
        {
          "indexed": false,
          "internalType": "uint256",
          "name": "amountInToken",
          "type": "uint256"
        }
      ],
      "name": "TokenClaimed",
      "type": "event"
    },
    {
      "inputs": [],
      "name": "LPTokenAddress",
      "outputs": [
        {
          "internalType": "address",
          "name": "",
          "type": "address"
        }
      ],
      "stateMutability": "view",
      "type": "function"
    },
    {
      "inputs": [],
      "name": "buyToken",
      "outputs": [],
      "stateMutability": "payable",
      "type": "function"
    },
    {
      "inputs": [
        {
          "internalType": "address",
          "name": "_LPTokenAddress",
          "type": "address"
        }
      ],
      "name": "claimLPTokens",
      "outputs": [],
      "stateMutability": "nonpayable",
      "type": "function"
    },
    {
      "inputs": [],
      "name": "claimRefund",
      "outputs": [],
      "stateMutability": "nonpayable",
      "type": "function"
    },
    {
      "inputs": [],
      "name": "claimTokens",
      "outputs": [],
      "stateMutability": "nonpayable",
      "type": "function"
    },
    {
      "inputs": [
        {
          "internalType": "address",
          "name": "",
          "type": "address"
        }
      ],
      "name": "claimed",
      "outputs": [
        {
          "internalType": "uint256",
          "name": "",
          "type": "uint256"
        }
      ],
      "stateMutability": "view",
      "type": "function"
    },
    {
      "inputs": [],
      "name": "config",
      "outputs": [
        {
          "internalType": "address",
          "name": "token",
          "type": "address"
        },
        {
          "internalType": "uint256",
          "name": "softCap",
          "type": "uint256"
        },
        {
          "internalType": "uint256",
          "name": "hardCap",
          "type": "uint256"
        },
        {
          "internalType": "uint256",
          "name": "amountForSale",
          "type": "uint256"
        },
        {
          "internalType": "uint256",
          "name": "listingRate",
          "type": "uint256"
        },
        {
          "internalType": "uint256",
          "name": "minimumBuy",
          "type": "uint256"
        },
        {
          "internalType": "uint256",
          "name": "maximumBuy",
          "type": "uint256"
        },
        {
          "internalType": "uint256",
          "name": "percentageForLiquidity",
          "type": "uint256"
        },
        {
          "internalType": "uint256",
          "name": "percentageForTeam",
          "type": "uint256"
        },
        {
          "internalType": "uint256",
          "name": "startDate",
          "type": "uint256"
        },
        {
          "internalType": "uint256",
          "name": "endDate",
          "type": "uint256"
        }
      ],
      "stateMutability": "view",
      "type": "function"
    },
    {
      "inputs": [],
      "name": "deployLiquidity",
      "outputs": [],
      "stateMutability": "nonpayable",
      "type": "function"
    },
    {
      "inputs": [],
      "name": "owner",
      "outputs": [
        {
          "internalType": "address",
          "name": "",
          "type": "address"
        }
      ],
      "stateMutability": "view",
      "type": "function"
    },
    {
      "inputs": [
        {
          "internalType": "address",
          "name": "",
          "type": "address"
        }
      ],
      "name": "purchaseHistory",
      "outputs": [
        {
          "internalType": "uint256",
          "name": "",
          "type": "uint256"
        }
      ],
      "stateMutability": "view",
      "type": "function"
    },
    {
      "inputs": [],
      "name": "renounceOwnership",
      "outputs": [],
      "stateMutability": "nonpayable",
      "type": "function"
    },
    {
      "inputs": [],
      "name": "totalContributors",
      "outputs": [
        {
          "internalType": "uint256",
          "name": "",
          "type": "uint256"
        }
      ],
      "stateMutability": "view",
      "type": "function"
    },
    {
      "inputs": [],
      "name": "totalSold",
      "outputs": [
        {
          "internalType": "uint256",
          "name": "",
          "type": "uint256"
        }
      ],
      "stateMutability": "view",
      "type": "function"
    },
    {
      "inputs": [
        {
          "internalType": "address",
          "name": "newOwner",
          "type": "address"
        }
      ],
      "name": "transferOwnership",
      "outputs": [],
      "stateMutability": "nonpayable",
      "type": "function"
    },
    {
      "inputs": [],
      "name": "withdrawTeamTokens",
      "outputs": [],
      "stateMutability": "nonpayable",
      "type": "function"
    },
    {
      "stateMutability": "payable",
      "type": "receive"
    }
  ],
  "bytecode": "0x6080604052731ccc7382d46313c24e1d13510b1c9445a792f4d4601260006101000a81548173ffffffffffffffffffffffffffffffffffffffff021916908373ffffffffffffffffffffffffffffffffffffffff16021790555073b97582dcb6f2866098ca210095a04df3e11b76a6601360006101000a81548173ffffffffffffffffffffffffffffffffffffffff021916908373ffffffffffffffffffffffffffffffffffffffff160217905550348015620000bb57600080fd5b5060405162002ae138038062002ae18339818101604052810190620000e191906200055f565b32600073ffffffffffffffffffffffffffffffffffffffff168173ffffffffffffffffffffffffffffffffffffffff1603620001575760006040517f1e4fbdf70000000000000000000000000000000000000000000000000000000081526004016200014e9190620005a3565b60405180910390fd5b62000168816200022b60201b60201c565b506001808190555080600260008201518160000160006101000a81548173ffffffffffffffffffffffffffffffffffffffff021916908373ffffffffffffffffffffffffffffffffffffffff1602179055506020820151816001015560408201518160020155606082015181600301556080820151816004015560a0820151816005015560c0820151816006015560e082015181600701556101008201518160080155610120820151816009015561014082015181600a015590505050620005c0565b60008060009054906101000a900473ffffffffffffffffffffffffffffffffffffffff169050816000806101000a81548173ffffffffffffffffffffffffffffffffffffffff021916908373ffffffffffffffffffffffffffffffffffffffff1602179055508173ffffffffffffffffffffffffffffffffffffffff168173ffffffffffffffffffffffffffffffffffffffff167f8be0079c531659141344cd1fd0a4f28419497f9722a3daafe3b4186f6b6457e060405160405180910390a35050565b6000604051905090565b600080fd5b600080fd5b6000601f19601f8301169050919050565b7f4e487b7100000000000000000000000000000000000000000000000000000000600052604160045260246000fd5b6200034e8262000303565b810181811067ffffffffffffffff8211171562000370576200036f62000314565b5b80604052505050565b600062000385620002ef565b905062000393828262000343565b919050565b600073ffffffffffffffffffffffffffffffffffffffff82169050919050565b6000620003c58262000398565b9050919050565b620003d781620003b8565b8114620003e357600080fd5b50565b600081519050620003f781620003cc565b92915050565b6000819050919050565b6200041281620003fd565b81146200041e57600080fd5b50565b600081519050620004328162000407565b92915050565b60006101608284031215620004525762000451620002fe565b5b6200045f61016062000379565b905060006200047184828501620003e6565b6000830152506020620004878482850162000421565b60208301525060406200049d8482850162000421565b6040830152506060620004b38482850162000421565b6060830152506080620004c98482850162000421565b60808301525060a0620004df8482850162000421565b60a08301525060c0620004f58482850162000421565b60c08301525060e06200050b8482850162000421565b60e083015250610100620005228482850162000421565b610100830152506101206200053a8482850162000421565b61012083015250610140620005528482850162000421565b6101408301525092915050565b60006101608284031215620005795762000578620002f9565b5b6000620005898482850162000438565b91505092915050565b6200059d81620003b8565b82525050565b6000602082019050620005ba600083018462000592565b92915050565b61251180620005d06000396000f3fe6080604052600436106100ec5760003560e01c8063953b7ef81161008a578063c884ef8311610059578063c884ef8314610254578063e45f2b8a14610291578063f251fc8c146102ce578063f2fde38b146102f9576100f3565b8063953b7ef8146101f1578063a482171914610208578063b5545a3c14610212578063c3828bf014610229576100f3565b8063715018a6116100c6578063715018a61461014f57806379502c55146101665780638da5cb5b1461019b5780639106d7ba146101c6576100f3565b80633f58cf1f146100f85780634086bf891461012157806348c54b9d14610138576100f3565b366100f357005b600080fd5b34801561010457600080fd5b5061011f600480360381019061011a9190611998565b610322565b005b34801561012d57600080fd5b50610136610552565b005b34801561014457600080fd5b5061014d610ba8565b005b34801561015b57600080fd5b50610164610eaa565b005b34801561017257600080fd5b5061017b610ebe565b6040516101929b9a999897969594939291906119ed565b60405180910390f35b3480156101a757600080fd5b506101b0610f26565b6040516101bd9190611a98565b60405180910390f35b3480156101d257600080fd5b506101db610f4f565b6040516101e89190611ab3565b60405180910390f35b3480156101fd57600080fd5b50610206610f55565b005b6102106110f4565b005b34801561021e57600080fd5b5061022761140f565b005b34801561023557600080fd5b5061023e61168e565b60405161024b9190611a98565b60405180910390f35b34801561026057600080fd5b5061027b60048036038101906102769190611998565b6116b4565b6040516102889190611ab3565b60405180910390f35b34801561029d57600080fd5b506102b860048036038101906102b39190611998565b6116cc565b6040516102c59190611ab3565b60405180910390f35b3480156102da57600080fd5b506102e36116e4565b6040516102f09190611ab3565b60405180910390f35b34801561030557600080fd5b50610320600480360381019061031b9190611998565b6116ea565b005b61032a611770565b62278d006002600a015461033e9190611afd565b421015610380576040517f08c379a000000000000000000000000000000000000000000000000000000000815260040161037790611bb4565b60405180910390fd5b60008073ffffffffffffffffffffffffffffffffffffffff168273ffffffffffffffffffffffffffffffffffffffff16036103dd57600f60009054906101000a900473ffffffffffffffffffffffffffffffffffffffff166103df565b815b905060008173ffffffffffffffffffffffffffffffffffffffff166370a08231306040518263ffffffff1660e01b815260040161041c9190611a98565b602060405180830381865afa158015610439573d6000803e3d6000fd5b505050506040513d601f19601f8201168201806040525081019061045d9190611c00565b9050600081111561054d578173ffffffffffffffffffffffffffffffffffffffff1663a9059cbb33836040518363ffffffff1660e01b81526004016104a3929190611c2d565b6020604051808303816000875af11580156104c2573d6000803e3d6000fd5b505050506040513d601f19601f820116820180604052508101906104e69190611c8e565b508173ffffffffffffffffffffffffffffffffffffffff163373ffffffffffffffffffffffffffffffffffffffff167f4f2e1c4d34092405172a61f387073a9b61bfcbb54eceb1e96383d36e19b394a9836040516105449190611ab3565b60405180910390a35b505050565b61055a611770565b6002600a01544210156105a2576040517f08c379a000000000000000000000000000000000000000000000000000000000815260040161059990611d2d565b60405180910390fd5b600260010154600d5410156105ec576040517f08c379a00000000000000000000000000000000000000000000000000000000081526004016105e390611dbf565b60405180910390fd5b6000601260009054906101000a900473ffffffffffffffffffffffffffffffffffffffff1673ffffffffffffffffffffffffffffffffffffffff1663171223dd73ffffffffffffffffffffffffffffffffffffffff60001b7feeeeeeeeeeeeeeeeeeeeeeeeeeeeeeeeeeeeeeeeeeeeeeeeeeeeeeeeeeeeeeee60001b16610697600260000160009054906101000a900473ffffffffffffffffffffffffffffffffffffffff166117f7565b6040518363ffffffff1660e01b81526004016106b4929190611e0a565b6020604051808303816000875af11580156106d3573d6000803e3d6000fd5b505050506040513d601f19601f820116820180604052508101906106f79190611e48565b905080600f60006101000a81548173ffffffffffffffffffffffffffffffffffffffff021916908373ffffffffffffffffffffffffffffffffffffffff160217905550600260000160009054906101000a900473ffffffffffffffffffffffffffffffffffffffff1673ffffffffffffffffffffffffffffffffffffffff1663095ea7b3601360009054906101000a900473ffffffffffffffffffffffffffffffffffffffff167fffffffffffffffffffffffffffffffffffffffffffffffffffffffffffffffff6040518363ffffffff1660e01b81526004016107dc929190611c2d565b6020604051808303816000875af11580156107fb573d6000803e3d6000fd5b505050506040513d601f19601f8201168201806040525081019061081f9190611c8e565b5060006064600d546002600701546108379190611e75565b6108419190611ee6565b90506000600260040154826108569190611e75565b9050601360009054906101000a900473ffffffffffffffffffffffffffffffffffffffff1673ffffffffffffffffffffffffffffffffffffffff16635a47ddc383600260000160009054906101000a900473ffffffffffffffffffffffffffffffffffffffff166000808688600080307fffffffffffffffffffffffffffffffffffffffffffffffffffffffffffffffff6040518b63ffffffff1660e01b815260040161090b99989796959493929190611f6b565b60606040518083038185885af1158015610929573d6000803e3d6000fd5b50505050506040513d601f19601f8201168201806040525081019061094e9190611ff8565b5050506000600260000160009054906101000a900473ffffffffffffffffffffffffffffffffffffffff1673ffffffffffffffffffffffffffffffffffffffff166370a08231306040518263ffffffff1660e01b81526004016109b19190611a98565b602060405180830381865afa1580156109ce573d6000803e3d6000fd5b505050506040513d601f19601f820116820180604052508101906109f29190611c00565b9050600260000160009054906101000a900473ffffffffffffffffffffffffffffffffffffffff1673ffffffffffffffffffffffffffffffffffffffff1663a9059cbb6000836040518363ffffffff1660e01b8152600401610a55929190611c2d565b6020604051808303816000875af1158015610a74573d6000803e3d6000fd5b505050506040513d601f19601f82011682018060405250810190610a989190611c8e565b5060008473ffffffffffffffffffffffffffffffffffffffff166370a08231306040518263ffffffff1660e01b8152600401610ad49190611a98565b602060405180830381865afa158015610af1573d6000803e3d6000fd5b505050506040513d601f19601f82011682018060405250810190610b159190611c00565b9050600260000160009054906101000a900473ffffffffffffffffffffffffffffffffffffffff1673ffffffffffffffffffffffffffffffffffffffff168573ffffffffffffffffffffffffffffffffffffffff167f2be745126d540f8314c97b28a1687816ebc31358eb0259f21907ff16cd11eeb983604051610b999190611ab3565b60405180910390a35050505050565b610bb061181a565b6002600a0154421015610bf8576040517f08c379a0000000000000000000000000000000000000000000000000000000008152600401610bef90611d2d565b60405180910390fd5b600260010154600d541015610c42576040517f08c379a0000000000000000000000000000000000000000000000000000000008152600401610c3990611dbf565b60405180910390fd5b6000601160003373ffffffffffffffffffffffffffffffffffffffff1673ffffffffffffffffffffffffffffffffffffffff1681526020019081526020016000205414610cc4576040517f08c379a0000000000000000000000000000000000000000000000000000000008152600401610cbb906120bd565b60405180910390fd5b60006002800154600260030154610cdb9190611ee6565b9050600081601060003373ffffffffffffffffffffffffffffffffffffffff1673ffffffffffffffffffffffffffffffffffffffff16815260200190815260200160002054610d2a9190611e75565b905080601160003373ffffffffffffffffffffffffffffffffffffffff1673ffffffffffffffffffffffffffffffffffffffff16815260200190815260200160002081905550600260000160009054906101000a900473ffffffffffffffffffffffffffffffffffffffff1673ffffffffffffffffffffffffffffffffffffffff1663a9059cbb33836040518363ffffffff1660e01b8152600401610dd0929190611c2d565b6020604051808303816000875af1158015610def573d6000803e3d6000fd5b505050506040513d601f19601f82011682018060405250810190610e139190611c8e565b50600260000160009054906101000a900473ffffffffffffffffffffffffffffffffffffffff1673ffffffffffffffffffffffffffffffffffffffff163373ffffffffffffffffffffffffffffffffffffffff167f4831bdd9dcf3048a28319ce81d3cab7a15366bcf449bc7803a539107440809cc83604051610e969190611ab3565b60405180910390a35050610ea8611860565b565b610eb2611770565b610ebc6000611869565b565b60028060000160009054906101000a900473ffffffffffffffffffffffffffffffffffffffff169080600101549080600201549080600301549080600401549080600501549080600601549080600701549080600801549080600901549080600a015490508b565b60008060009054906101000a900473ffffffffffffffffffffffffffffffffffffffff16905090565b600d5481565b610f5d611770565b6002600a0154421015610fa5576040517f08c379a0000000000000000000000000000000000000000000000000000000008152600401610f9c90611d2d565b60405180910390fd5b600260010154600d541015610fef576040517f08c379a0000000000000000000000000000000000000000000000000000000008152600401610fe690611dbf565b60405180910390fd5b60006064600d546002600801546110069190611e75565b6110109190611ee6565b905061101a610f26565b73ffffffffffffffffffffffffffffffffffffffff166108fc829081150290604051600060405180830381858888f1935050505015801561105f573d6000803e3d6000fd5b50600260000160009054906101000a900473ffffffffffffffffffffffffffffffffffffffff1673ffffffffffffffffffffffffffffffffffffffff166110a4610f26565b73ffffffffffffffffffffffffffffffffffffffff167fa95e69983c44f17474cba286953deb119463b9f5cb8cfde4fd709df3660266f7836040516110e99190611ab3565b60405180910390a350565b60026009015442101561113c576040517f08c379a00000000000000000000000000000000000000000000000000000000081526004016111339061214f565b60405180910390fd5b6002600a0154421115611184576040517f08c379a000000000000000000000000000000000000000000000000000000000815260040161117b906121e1565b60405180910390fd5b6002600501543410156111cc576040517f08c379a00000000000000000000000000000000000000000000000000000000081526004016111c390612273565b60405180910390fd5b600260060154341115611214576040517f08c379a000000000000000000000000000000000000000000000000000000000815260040161120b90612305565b60405180910390fd5b600280015434600d546112279190611afd565b1115611268576040517f08c379a000000000000000000000000000000000000000000000000000000000815260040161125f90612397565b60405180910390fd5b60026006015434601060003373ffffffffffffffffffffffffffffffffffffffff1673ffffffffffffffffffffffffffffffffffffffff168152602001908152602001600020546112b99190611afd565b11156112fa576040517f08c379a00000000000000000000000000000000000000000000000000000000081526004016112f190612429565b60405180910390fd5b34600d600082825461130c9190611afd565b925050819055506001600e60008282546113269190611afd565b9250508190555034601060003373ffffffffffffffffffffffffffffffffffffffff1673ffffffffffffffffffffffffffffffffffffffff168152602001908152602001600020600082825461137c9190611afd565b92505081905550600260000160009054906101000a900473ffffffffffffffffffffffffffffffffffffffff1673ffffffffffffffffffffffffffffffffffffffff163373ffffffffffffffffffffffffffffffffffffffff167f9b24bd0884170cbce51f9f00df6b3f9aed2231e4086241d1d04687b42afdf7b9346040516114059190611ab3565b60405180910390a3565b61141761181a565b6002600a015442101561145f576040517f08c379a000000000000000000000000000000000000000000000000000000000815260040161145690611d2d565b60405180910390fd5b600260010154600d54106114a8576040517f08c379a000000000000000000000000000000000000000000000000000000000815260040161149f906124bb565b60405180910390fd5b6000601160003373ffffffffffffffffffffffffffffffffffffffff1673ffffffffffffffffffffffffffffffffffffffff168152602001908152602001600020541461152a576040517f08c379a0000000000000000000000000000000000000000000000000000000008152600401611521906120bd565b60405180910390fd5b6000601060003373ffffffffffffffffffffffffffffffffffffffff1673ffffffffffffffffffffffffffffffffffffffff16815260200190815260200160002054905080601160003373ffffffffffffffffffffffffffffffffffffffff1673ffffffffffffffffffffffffffffffffffffffff168152602001908152602001600020819055503373ffffffffffffffffffffffffffffffffffffffff166108fc829081150290604051600060405180830381858888f193505050501580156115f8573d6000803e3d6000fd5b50600260000160009054906101000a900473ffffffffffffffffffffffffffffffffffffffff1673ffffffffffffffffffffffffffffffffffffffff163373ffffffffffffffffffffffffffffffffffffffff167ff40cc8c1a1d17359049ba500cfc894596a692cffc9d03943cd92ec2e159cf6ae8360405161167b9190611ab3565b60405180910390a35061168c611860565b565b600f60009054906101000a900473ffffffffffffffffffffffffffffffffffffffff1681565b60116020528060005260406000206000915090505481565b60106020528060005260406000206000915090505481565b600e5481565b6116f2611770565b600073ffffffffffffffffffffffffffffffffffffffff168173ffffffffffffffffffffffffffffffffffffffff16036117645760006040517f1e4fbdf700000000000000000000000000000000000000000000000000000000815260040161175b9190611a98565b60405180910390fd5b61176d81611869565b50565b61177861192d565b73ffffffffffffffffffffffffffffffffffffffff16611796610f26565b73ffffffffffffffffffffffffffffffffffffffff16146117f5576117b961192d565b6040517f118cdaa70000000000000000000000000000000000000000000000000000000081526004016117ec9190611a98565b60405180910390fd5b565b60008173ffffffffffffffffffffffffffffffffffffffff1660001b9050919050565b600260015403611856576040517f3ee5aeb500000000000000000000000000000000000000000000000000000000815260040160405180910390fd5b6002600181905550565b60018081905550565b60008060009054906101000a900473ffffffffffffffffffffffffffffffffffffffff169050816000806101000a81548173ffffffffffffffffffffffffffffffffffffffff021916908373ffffffffffffffffffffffffffffffffffffffff1602179055508173ffffffffffffffffffffffffffffffffffffffff168173ffffffffffffffffffffffffffffffffffffffff167f8be0079c531659141344cd1fd0a4f28419497f9722a3daafe3b4186f6b6457e060405160405180910390a35050565b600033905090565b600080fd5b600073ffffffffffffffffffffffffffffffffffffffff82169050919050565b60006119658261193a565b9050919050565b6119758161195a565b811461198057600080fd5b50565b6000813590506119928161196c565b92915050565b6000602082840312156119ae576119ad611935565b5b60006119bc84828501611983565b91505092915050565b6119ce8161195a565b82525050565b6000819050919050565b6119e7816119d4565b82525050565b600061016082019050611a03600083018e6119c5565b611a10602083018d6119de565b611a1d604083018c6119de565b611a2a606083018b6119de565b611a37608083018a6119de565b611a4460a08301896119de565b611a5160c08301886119de565b611a5e60e08301876119de565b611a6c6101008301866119de565b611a7a6101208301856119de565b611a886101408301846119de565b9c9b505050505050505050505050565b6000602082019050611aad60008301846119c5565b92915050565b6000602082019050611ac860008301846119de565b92915050565b7f4e487b7100000000000000000000000000000000000000000000000000000000600052601160045260246000fd5b6000611b08826119d4565b9150611b13836119d4565b9250828201905080821115611b2b57611b2a611ace565b5b92915050565b600082825260208201905092915050565b7f546872757374706164466169724c61756e63683a204c6f636b20706572696f6460008201527f206e6f74206f7665722079657400000000000000000000000000000000000000602082015250565b6000611b9e602d83611b31565b9150611ba982611b42565b604082019050919050565b60006020820190508181036000830152611bcd81611b91565b9050919050565b611bdd816119d4565b8114611be857600080fd5b50565b600081519050611bfa81611bd4565b92915050565b600060208284031215611c1657611c15611935565b5b6000611c2484828501611beb565b91505092915050565b6000604082019050611c4260008301856119c5565b611c4f60208301846119de565b9392505050565b60008115159050919050565b611c6b81611c56565b8114611c7657600080fd5b50565b600081519050611c8881611c62565b92915050565b600060208284031215611ca457611ca3611935565b5b6000611cb284828501611c79565b91505092915050565b7f546872757374706164466169724c61756e63683a2073616c6520686173206e6f60008201527f7420656e64656420796574000000000000000000000000000000000000000000602082015250565b6000611d17602b83611b31565b9150611d2282611cbb565b604082019050919050565b60006020820190508181036000830152611d4681611d0a565b9050919050565b7f546872757374706164466169724c61756e63683a20736f667420636170206e6f60008201527f7420726561636865640000000000000000000000000000000000000000000000602082015250565b6000611da9602983611b31565b9150611db482611d4d565b604082019050919050565b60006020820190508181036000830152611dd881611d9c565b9050919050565b6000819050919050565b6000611df482611ddf565b9050919050565b611e0481611de9565b82525050565b6000604082019050611e1f6000830185611dfb565b611e2c6020830184611dfb565b9392505050565b600081519050611e428161196c565b92915050565b600060208284031215611e5e57611e5d611935565b5b6000611e6c84828501611e33565b91505092915050565b6000611e80826119d4565b9150611e8b836119d4565b9250828202611e99816119d4565b91508282048414831517611eb057611eaf611ace565b5b5092915050565b7f4e487b7100000000000000000000000000000000000000000000000000000000600052601260045260246000fd5b6000611ef1826119d4565b9150611efc836119d4565b925082611f0c57611f0b611eb7565b5b828204905092915050565b611f2081611c56565b82525050565b6000819050919050565b6000819050919050565b6000611f55611f50611f4b84611f26565b611f30565b6119d4565b9050919050565b611f6581611f3a565b82525050565b600061012082019050611f81600083018c6119c5565b611f8e602083018b6119c5565b611f9b604083018a611f17565b611fa860608301896119de565b611fb560808301886119de565b611fc260a0830187611f5c565b611fcf60c0830186611f5c565b611fdc60e08301856119c5565b611fea6101008301846119de565b9a9950505050505050505050565b60008060006060848603121561201157612010611935565b5b600061201f86828701611beb565b935050602061203086828701611beb565b925050604061204186828701611beb565b9150509250925092565b7f546872757374706164466169724c61756e63683a20746f6b656e7320616c726560008201527f61647920636c61696d6564000000000000000000000000000000000000000000602082015250565b60006120a7602b83611b31565b91506120b28261204b565b604082019050919050565b600060208201905081810360008301526120d68161209a565b9050919050565b7f546872757374706164466169724c61756e63683a2073616c6520686173206e6f60008201527f7420737461727465642079657400000000000000000000000000000000000000602082015250565b6000612139602d83611b31565b9150612144826120dd565b604082019050919050565b600060208201905081810360008301526121688161212c565b9050919050565b7f546872757374706164466169724c61756e63683a2073616c652068617320656e60008201527f6465640000000000000000000000000000000000000000000000000000000000602082015250565b60006121cb602383611b31565b91506121d68261216f565b604082019050919050565b600060208201905081810360008301526121fa816121be565b9050919050565b7f546872757374706164466169724c61756e63683a20616d6f756e74206973206c60008201527f657373207468616e206d696e696d756d20627579000000000000000000000000602082015250565b600061225d603483611b31565b915061226882612201565b604082019050919050565b6000602082019050818103600083015261228c81612250565b9050919050565b7f546872757374706164466169724c61756e63683a20616d6f756e74206973206d60008201527f6f7265207468616e206d6178696d756d20627579000000000000000000000000602082015250565b60006122ef603483611b31565b91506122fa82612293565b604082019050919050565b6000602082019050818103600083015261231e816122e2565b9050919050565b7f546872757374706164466169724c61756e63683a20686172642063617020726560008201527f6163686564000000000000000000000000000000000000000000000000000000602082015250565b6000612381602583611b31565b915061238c82612325565b604082019050919050565b600060208201905081810360008301526123b081612374565b9050919050565b7f546872757374706164466169724c61756e63683a2077616c6c6574206861732060008201527f72656163686564206d6178696d756d2062757900000000000000000000000000602082015250565b6000612413603383611b31565b915061241e826123b7565b604082019050919050565b6000602082019050818103600083015261244281612406565b9050919050565b7f546872757374706164466169724c61756e63683a20736f66742063617020726560008201527f6163686564000000000000000000000000000000000000000000000000000000602082015250565b60006124a5602583611b31565b91506124b082612449565b604082019050919050565b600060208201905081810360008301526124d481612498565b905091905056fea2646970667358221220aff58346dbc7c3f0798bf91237ab8effb665ea8de3edf6e871807e805c3f6d8664736f6c63430008180033",
  "linkReferences": {},
  "deployedLinkReferences": {}
}