{
  "_format": "hh-sol-artifact-1",
  "contractName": "ThrustpadMultiSenderFactory",
  "sourceName": "contracts/multisender/ThrustpadMultiSenderFactory.sol",
  "abi": [
    {
      "inputs": [],
      "stateMutability": "nonpayable",
      "type": "constructor"
    },
    {
      "inputs": [
        {
          "internalType": "address",
          "name": "owner",
          "type": "address"
        }
      ],
      "name": "OwnableInvalidOwner",
      "type": "error"
    },
    {
      "inputs": [
        {
          "internalType": "address",
          "name": "account",
          "type": "address"
        }
      ],
      "name": "OwnableUnauthorizedAccount",
      "type": "error"
    },
    {
      "anonymous": false,
      "inputs": [
        {
          "indexed": true,
          "internalType": "address",
          "name": "creator",
          "type": "address"
        },
        {
          "indexed": true,
          "internalType": "address",
          "name": "multisender",
          "type": "address"
        }
      ],
      "name": "NewMultiSender",
      "type": "event"
    },
    {
      "anonymous": false,
      "inputs": [
        {
          "indexed": true,
          "internalType": "address",
          "name": "previousOwner",
          "type": "address"
        },
        {
          "indexed": true,
          "internalType": "address",
          "name": "newOwner",
          "type": "address"
        }
      ],
      "name": "OwnershipTransferred",
      "type": "event"
    },
    {
      "inputs": [],
      "name": "creationFee",
      "outputs": [
        {
          "internalType": "uint256",
          "name": "",
          "type": "uint256"
        }
      ],
      "stateMutability": "view",
      "type": "function"
    },
    {
      "inputs": [
        {
          "internalType": "address",
          "name": "",
          "type": "address"
        },
        {
          "internalType": "uint256",
          "name": "",
          "type": "uint256"
        }
      ],
      "name": "deployedMultisenders",
      "outputs": [
        {
          "internalType": "address",
          "name": "",
          "type": "address"
        }
      ],
      "stateMutability": "view",
      "type": "function"
    },
    {
      "inputs": [],
      "name": "feeEarned",
      "outputs": [
        {
          "internalType": "uint256",
          "name": "",
          "type": "uint256"
        }
      ],
      "stateMutability": "view",
      "type": "function"
    },
    {
      "inputs": [
        {
          "internalType": "bytes",
          "name": "bytecode",
          "type": "bytes"
        },
        {
          "internalType": "uint256",
          "name": "salt",
          "type": "uint256"
        }
      ],
      "name": "getAddressCreate2",
      "outputs": [
        {
          "internalType": "address",
          "name": "",
          "type": "address"
        }
      ],
      "stateMutability": "view",
      "type": "function"
    },
    {
      "inputs": [
        {
          "internalType": "address",
          "name": "token",
          "type": "address"
        },
        {
          "internalType": "address[]",
          "name": "receivers",
          "type": "address[]"
        },
        {
          "internalType": "uint256[]",
          "name": "amounts",
          "type": "uint256[]"
        }
      ],
      "name": "getBytecode",
      "outputs": [
        {
          "internalType": "bytes",
          "name": "",
          "type": "bytes"
        }
      ],
      "stateMutability": "pure",
      "type": "function"
    },
    {
      "inputs": [
        {
          "internalType": "address",
          "name": "creator",
          "type": "address"
        }
      ],
      "name": "getdeployedMultisenders",
      "outputs": [
        {
          "internalType": "address[]",
          "name": "",
          "type": "address[]"
        }
      ],
      "stateMutability": "view",
      "type": "function"
    },
    {
      "inputs": [
        {
          "internalType": "address",
          "name": "creator",
          "type": "address"
        }
      ],
      "name": "getdeployedMultisendersLen",
      "outputs": [
        {
          "internalType": "uint256",
          "name": "",
          "type": "uint256"
        }
      ],
      "stateMutability": "view",
      "type": "function"
    },
    {
      "inputs": [],
      "name": "maxReceivers",
      "outputs": [
        {
          "internalType": "uint256",
          "name": "",
          "type": "uint256"
        }
      ],
      "stateMutability": "view",
      "type": "function"
    },
    {
      "inputs": [
        {
          "internalType": "address",
          "name": "token",
          "type": "address"
        },
        {
          "internalType": "address[]",
          "name": "receivers",
          "type": "address[]"
        },
        {
          "internalType": "uint256[]",
          "name": "amounts",
          "type": "uint256[]"
        }
      ],
      "name": "newMultisender",
      "outputs": [
        {
          "internalType": "address",
          "name": "",
          "type": "address"
        }
      ],
      "stateMutability": "payable",
      "type": "function"
    },
    {
      "inputs": [],
      "name": "owner",
      "outputs": [
        {
          "internalType": "address",
          "name": "",
          "type": "address"
        }
      ],
      "stateMutability": "view",
      "type": "function"
    },
    {
      "inputs": [],
      "name": "renounceOwnership",
      "outputs": [],
      "stateMutability": "nonpayable",
      "type": "function"
    },
    {
      "inputs": [
        {
          "internalType": "address",
          "name": "newOwner",
          "type": "address"
        }
      ],
      "name": "transferOwnership",
      "outputs": [],
      "stateMutability": "nonpayable",
      "type": "function"
    },
    {
      "inputs": [
        {
          "internalType": "uint256",
          "name": "_fee",
          "type": "uint256"
        }
      ],
      "name": "updateCreationFee",
      "outputs": [],
      "stateMutability": "nonpayable",
      "type": "function"
    },
    {
      "inputs": [
        {
          "internalType": "uint256",
          "name": "_maxReceivers",
          "type": "uint256"
        }
      ],
      "name": "updateMaxReceivers",
      "outputs": [],
      "stateMutability": "nonpayable",
      "type": "function"
    },
    {
      "inputs": [],
      "name": "withdraw",
      "outputs": [],
      "stateMutability": "nonpayable",
      "type": "function"
    },
    {
      "inputs": [
        {
          "internalType": "address",
          "name": "token",
          "type": "address"
        }
      ],
      "name": "withdrawToken",
      "outputs": [],
      "stateMutability": "nonpayable",
      "type": "function"
    },
    {
      "stateMutability": "payable",
      "type": "receive"
    }
  ],
  "bytecode": "0x6080604052670de0b6b3a764000060025560646004553480156200002257600080fd5b5033600073ffffffffffffffffffffffffffffffffffffffff168173ffffffffffffffffffffffffffffffffffffffff1603620000995760006040517f1e4fbdf7000000000000000000000000000000000000000000000000000000008152600401620000909190620001ba565b60405180910390fd5b620000aa81620000b160201b60201c565b50620001d7565b60008060009054906101000a900473ffffffffffffffffffffffffffffffffffffffff169050816000806101000a81548173ffffffffffffffffffffffffffffffffffffffff021916908373ffffffffffffffffffffffffffffffffffffffff1602179055508173ffffffffffffffffffffffffffffffffffffffff168173ffffffffffffffffffffffffffffffffffffffff167f8be0079c531659141344cd1fd0a4f28419497f9722a3daafe3b4186f6b6457e060405160405180910390a35050565b600073ffffffffffffffffffffffffffffffffffffffff82169050919050565b6000620001a28262000175565b9050919050565b620001b48162000195565b82525050565b6000602082019050620001d16000830184620001a9565b92915050565b612eed80620001e76000396000f3fe6080604052600436106200010f5760003560e01c8063894760691162000097578063d5f63a061162000061578063d5f63a061462000380578063dce0b4e414620003b0578063f2fde38b14620003e0578063fcc31af0146200040e5762000117565b806389476069146200029a5780638da5cb5b14620002c8578063949938e914620002f85780639f886f26146200033c5762000117565b80636fa2379511620000d95780636fa2379514620001ca578063715018a614620001f85780637f7825c51462000212578063877a403914620002565762000117565b80633433887b146200011c5780633ccfd60b146200014a57806353fa27a3146200016457806357148245146200019a5762000117565b366200011757005b600080fd5b3480156200012957600080fd5b5062000148600480360381019062000142919062001000565b62000452565b005b3480156200015757600080fd5b506200016262000466565b005b6200018260048036038101906200017c9190620012e2565b620004c3565b6040516200019191906200138d565b60405180910390f35b348015620001a757600080fd5b50620001b262000a06565b604051620001c19190620013bb565b60405180910390f35b348015620001d757600080fd5b50620001f66004803603810190620001f0919062001000565b62000a0c565b005b3480156200020557600080fd5b506200021062000a20565b005b3480156200021f57600080fd5b506200023e6004803603810190620002389190620012e2565b62000a38565b6040516200024d919062001461565b60405180910390f35b3480156200026357600080fd5b506200028260048036038101906200027c919062001485565b62000ab7565b604051620002919190620013bb565b60405180910390f35b348015620002a757600080fd5b50620002c66004803603810190620002c0919062001485565b62000b03565b005b348015620002d557600080fd5b50620002e062000c1b565b604051620002ef91906200138d565b60405180910390f35b3480156200030557600080fd5b506200032460048036038101906200031e919062001485565b62000c44565b60405162000333919062001585565b60405180910390f35b3480156200034957600080fd5b5062000368600480360381019062000362919062001671565b62000d13565b6040516200037791906200138d565b60405180910390f35b3480156200038d57600080fd5b506200039862000d5f565b604051620003a79190620013bb565b60405180910390f35b348015620003bd57600080fd5b50620003c862000d65565b604051620003d79190620013bb565b60405180910390f35b348015620003ed57600080fd5b506200040c600480360381019062000406919062001485565b62000d6b565b005b3480156200041b57600080fd5b506200043a6004803603810190620004349190620016d7565b62000df8565b6040516200044991906200138d565b60405180910390f35b6200045c62000e47565b8060048190555050565b6200047062000e47565b6200047a62000c1b565b73ffffffffffffffffffffffffffffffffffffffff166108fc479081150290604051600060405180830381858888f19350505050158015620004c0573d6000803e3d6000fd5b50565b600082518251146200050c576040517f08c379a00000000000000000000000000000000000000000000000000000000081526004016200050390620017a5565b60405180910390fd5b6004548251111562000555576040517f08c379a00000000000000000000000000000000000000000000000000000000081526004016200054c906200183d565b60405180910390fd5b6000805b83518110156200059e578381815181106200057957620005786200185f565b5b6020026020010151826200058e9190620018bd565b9150808060010191505062000559565b50600073ffffffffffffffffffffffffffffffffffffffff168573ffffffffffffffffffffffffffffffffffffffff16036200062f5780600254620005e49190620018bd565b34101562000629576040517f08c379a000000000000000000000000000000000000000000000000000000000815260040162000620906200196e565b60405180910390fd5b620006fc565b60008573ffffffffffffffffffffffffffffffffffffffff1663dd62ed3e33306040518363ffffffff1660e01b81526004016200066e92919062001990565b602060405180830381865afa1580156200068c573d6000803e3d6000fd5b505050506040513d601f19601f82011682018060405250810190620006b29190620019d4565b905081811015620006fa576040517f08c379a0000000000000000000000000000000000000000000000000000000008152600401620006f19062001a7c565b60405180910390fd5b505b60008073ffffffffffffffffffffffffffffffffffffffff168673ffffffffffffffffffffffffffffffffffffffff16146200073a5760006200073c565b815b600160003373ffffffffffffffffffffffffffffffffffffffff1673ffffffffffffffffffffffffffffffffffffffff1681526020019081526020016000208054905060001b90878787604051620007949062000fa3565b620007a29392919062001b6c565b82906040518091039083f59050905080158015620007c4573d6000803e3d6000fd5b509050600160003373ffffffffffffffffffffffffffffffffffffffff1673ffffffffffffffffffffffffffffffffffffffff168152602001908152602001600020819080600181540180825580915050600190039060005260206000200160009091909190916101000a81548173ffffffffffffffffffffffffffffffffffffffff021916908373ffffffffffffffffffffffffffffffffffffffff160217905550600073ffffffffffffffffffffffffffffffffffffffff168673ffffffffffffffffffffffffffffffffffffffff161462000923578573ffffffffffffffffffffffffffffffffffffffff166323b872dd3383856040518463ffffffff1660e01b8152600401620008db9392919062001bb7565b6020604051808303816000875af1158015620008fb573d6000803e3d6000fd5b505050506040513d601f19601f8201168201806040525081019062000921919062001c31565b505b8073ffffffffffffffffffffffffffffffffffffffff1663294402cc6040518163ffffffff1660e01b8152600401600060405180830381600087803b1580156200096c57600080fd5b505af115801562000981573d6000803e3d6000fd5b505050508073ffffffffffffffffffffffffffffffffffffffff163373ffffffffffffffffffffffffffffffffffffffff167f6d1f96e538195eebc344e4fd73efd605a9cfdf73d3267009398ed160d33f193860405160405180910390a33460036000828254620009f39190620018bd565b9250508190555080925050509392505050565b60045481565b62000a1662000e47565b8060028190555050565b62000a2a62000e47565b62000a36600062000ed7565b565b606060006040518060200162000a4e9062000fa3565b6020820181038252601f19601f8201166040525090508085858560405160200162000a7c9392919062001b6c565b60405160208183030381529060405260405160200162000a9e92919062001ca5565b6040516020818303038152906040529150509392505050565b6000600160008373ffffffffffffffffffffffffffffffffffffffff1673ffffffffffffffffffffffffffffffffffffffff168152602001908152602001600020805490509050919050565b62000b0d62000e47565b8073ffffffffffffffffffffffffffffffffffffffff1663a9059cbb62000b3362000c1b565b8373ffffffffffffffffffffffffffffffffffffffff166370a08231306040518263ffffffff1660e01b815260040162000b6e91906200138d565b602060405180830381865afa15801562000b8c573d6000803e3d6000fd5b505050506040513d601f19601f8201168201806040525081019062000bb29190620019d4565b6040518363ffffffff1660e01b815260040162000bd192919062001ccd565b6020604051808303816000875af115801562000bf1573d6000803e3d6000fd5b505050506040513d601f19601f8201168201806040525081019062000c17919062001c31565b5050565b60008060009054906101000a900473ffffffffffffffffffffffffffffffffffffffff16905090565b6060600160008373ffffffffffffffffffffffffffffffffffffffff1673ffffffffffffffffffffffffffffffffffffffff16815260200190815260200160002080548060200260200160405190810160405280929190818152602001828054801562000d0757602002820191906000526020600020905b8160009054906101000a900473ffffffffffffffffffffffffffffffffffffffff1673ffffffffffffffffffffffffffffffffffffffff168152602001906001019080831162000cbc575b50505050509050919050565b60008060ff60f81b3084868051906020012060405160200162000d3a949392919062001def565b6040516020818303038152906040528051906020012090508060001c91505092915050565b60035481565b60025481565b62000d7562000e47565b600073ffffffffffffffffffffffffffffffffffffffff168173ffffffffffffffffffffffffffffffffffffffff160362000dea5760006040517f1e4fbdf700000000000000000000000000000000000000000000000000000000815260040162000de191906200138d565b60405180910390fd5b62000df58162000ed7565b50565b6001602052816000526040600020818154811062000e1557600080fd5b906000526020600020016000915091509054906101000a900473ffffffffffffffffffffffffffffffffffffffff1681565b62000e5162000f9b565b73ffffffffffffffffffffffffffffffffffffffff1662000e7162000c1b565b73ffffffffffffffffffffffffffffffffffffffff161462000ed55762000e9762000f9b565b6040517f118cdaa700000000000000000000000000000000000000000000000000000000815260040162000ecc91906200138d565b60405180910390fd5b565b60008060009054906101000a900473ffffffffffffffffffffffffffffffffffffffff169050816000806101000a81548173ffffffffffffffffffffffffffffffffffffffff021916908373ffffffffffffffffffffffffffffffffffffffff1602179055508173ffffffffffffffffffffffffffffffffffffffff168173ffffffffffffffffffffffffffffffffffffffff167f8be0079c531659141344cd1fd0a4f28419497f9722a3daafe3b4186f6b6457e060405160405180910390a35050565b600033905090565b6110728062001e4683390190565b6000604051905090565b600080fd5b600080fd5b6000819050919050565b62000fda8162000fc5565b811462000fe657600080fd5b50565b60008135905062000ffa8162000fcf565b92915050565b60006020828403121562001019576200101862000fbb565b5b6000620010298482850162000fe9565b91505092915050565b600073ffffffffffffffffffffffffffffffffffffffff82169050919050565b60006200105f8262001032565b9050919050565b620010718162001052565b81146200107d57600080fd5b50565b600081359050620010918162001066565b92915050565b600080fd5b6000601f19601f8301169050919050565b7f4e487b7100000000000000000000000000000000000000000000000000000000600052604160045260246000fd5b620010e7826200109c565b810181811067ffffffffffffffff82111715620011095762001108620010ad565b5b80604052505050565b60006200111e62000fb1565b90506200112c8282620010dc565b919050565b600067ffffffffffffffff8211156200114f576200114e620010ad565b5b602082029050602081019050919050565b600080fd5b60006200117c620011768462001131565b62001112565b90508083825260208201905060208402830185811115620011a257620011a162001160565b5b835b81811015620011cf5780620011ba888262001080565b845260208401935050602081019050620011a4565b5050509392505050565b600082601f830112620011f157620011f062001097565b5b81356200120384826020860162001165565b91505092915050565b600067ffffffffffffffff8211156200122a5762001229620010ad565b5b602082029050602081019050919050565b6000620012526200124c846200120c565b62001112565b9050808382526020820190506020840283018581111562001278576200127762001160565b5b835b81811015620012a5578062001290888262000fe9565b8452602084019350506020810190506200127a565b5050509392505050565b600082601f830112620012c757620012c662001097565b5b8135620012d98482602086016200123b565b91505092915050565b600080600060608486031215620012fe57620012fd62000fbb565b5b60006200130e8682870162001080565b935050602084013567ffffffffffffffff81111562001332576200133162000fc0565b5b6200134086828701620011d9565b925050604084013567ffffffffffffffff81111562001364576200136362000fc0565b5b6200137286828701620012af565b9150509250925092565b620013878162001052565b82525050565b6000602082019050620013a460008301846200137c565b92915050565b620013b58162000fc5565b82525050565b6000602082019050620013d26000830184620013aa565b92915050565b600081519050919050565b600082825260208201905092915050565b60005b8381101562001414578082015181840152602081019050620013f7565b60008484015250505050565b60006200142d82620013d8565b620014398185620013e3565b93506200144b818560208601620013f4565b62001456816200109c565b840191505092915050565b600060208201905081810360008301526200147d818462001420565b905092915050565b6000602082840312156200149e576200149d62000fbb565b5b6000620014ae8482850162001080565b91505092915050565b600081519050919050565b600082825260208201905092915050565b6000819050602082019050919050565b620014ee8162001052565b82525050565b6000620015028383620014e3565b60208301905092915050565b6000602082019050919050565b60006200152882620014b7565b620015348185620014c2565b93506200154183620014d3565b8060005b83811015620015785781516200155c8882620014f4565b975062001569836200150e565b92505060018101905062001545565b5085935050505092915050565b60006020820190508181036000830152620015a181846200151b565b905092915050565b600080fd5b600067ffffffffffffffff821115620015cc57620015cb620010ad565b5b620015d7826200109c565b9050602081019050919050565b82818337600083830152505050565b60006200160a6200160484620015ae565b62001112565b905082815260208101848484011115620016295762001628620015a9565b5b62001636848285620015e4565b509392505050565b600082601f83011262001656576200165562001097565b5b813562001668848260208601620015f3565b91505092915050565b600080604083850312156200168b576200168a62000fbb565b5b600083013567ffffffffffffffff811115620016ac57620016ab62000fc0565b5b620016ba858286016200163e565b9250506020620016cd8582860162000fe9565b9150509250929050565b60008060408385031215620016f157620016f062000fbb565b5b6000620017018582860162001080565b9250506020620017148582860162000fe9565b9150509250929050565b600082825260208201905092915050565b7f546872757374706164546f6b656e466163746f72793a20496e76616c6964206960008201527f6e70757400000000000000000000000000000000000000000000000000000000602082015250565b60006200178d6024836200171e565b91506200179a826200172f565b604082019050919050565b60006020820190508181036000830152620017c0816200177e565b9050919050565b7f546872757374706164546f6b656e466163746f72793a20546f6f206d616e792060008201527f7265636569766572732070657220636f6e747261637400000000000000000000602082015250565b6000620018256036836200171e565b91506200183282620017c7565b604082019050919050565b60006020820190508181036000830152620018588162001816565b9050919050565b7f4e487b7100000000000000000000000000000000000000000000000000000000600052603260045260246000fd5b7f4e487b7100000000000000000000000000000000000000000000000000000000600052601160045260246000fd5b6000620018ca8262000fc5565b9150620018d78362000fc5565b9250828201905080821115620018f257620018f16200188e565b5b92915050565b7f546872757374706164546f6b656e466163746f72793a20496e7375666669636960008201527f656e742076616c75653a20666565202b20746f74616c20616d6f756e74000000602082015250565b600062001956603d836200171e565b91506200196382620018f8565b604082019050919050565b60006020820190508181036000830152620019898162001947565b9050919050565b6000604082019050620019a760008301856200137c565b620019b660208301846200137c565b9392505050565b600081519050620019ce8162000fcf565b92915050565b600060208284031215620019ed57620019ec62000fbb565b5b6000620019fd84828501620019bd565b91505092915050565b7f546872757374706164546f6b656e466163746f72793a20496e7375666669636960008201527f656e7420616c6c6f77616e636500000000000000000000000000000000000000602082015250565b600062001a64602d836200171e565b915062001a718262001a06565b604082019050919050565b6000602082019050818103600083015262001a978162001a55565b9050919050565b600081519050919050565b600082825260208201905092915050565b6000819050602082019050919050565b62001ad58162000fc5565b82525050565b600062001ae9838362001aca565b60208301905092915050565b6000602082019050919050565b600062001b0f8262001a9e565b62001b1b818562001aa9565b935062001b288362001aba565b8060005b8381101562001b5f57815162001b43888262001adb565b975062001b508362001af5565b92505060018101905062001b2c565b5085935050505092915050565b600060608201905062001b8360008301866200137c565b818103602083015262001b9781856200151b565b9050818103604083015262001bad818462001b02565b9050949350505050565b600060608201905062001bce60008301866200137c565b62001bdd60208301856200137c565b62001bec6040830184620013aa565b949350505050565b60008115159050919050565b62001c0b8162001bf4565b811462001c1757600080fd5b50565b60008151905062001c2b8162001c00565b92915050565b60006020828403121562001c4a5762001c4962000fbb565b5b600062001c5a8482850162001c1a565b91505092915050565b600081905092915050565b600062001c7b82620013d8565b62001c87818562001c63565b935062001c99818560208601620013f4565b80840191505092915050565b600062001cb3828562001c6e565b915062001cc1828462001c6e565b91508190509392505050565b600060408201905062001ce460008301856200137c565b62001cf36020830184620013aa565b9392505050565b60007fff0000000000000000000000000000000000000000000000000000000000000082169050919050565b6000819050919050565b62001d4562001d3f8262001cfa565b62001d26565b82525050565b60008160601b9050919050565b600062001d658262001d4b565b9050919050565b600062001d798262001d58565b9050919050565b62001d9562001d8f8262001052565b62001d6c565b82525050565b6000819050919050565b62001dba62001db48262000fc5565b62001d9b565b82525050565b6000819050919050565b6000819050919050565b62001de962001de38262001dc0565b62001dca565b82525050565b600062001dfd828762001d30565b60018201915062001e0f828662001d80565b60148201915062001e21828562001da5565b60208201915062001e33828462001dd4565b6020820191508190509594505050505056fe608060405260405162001072380380620010728339818101604052810190620000299190620005f0565b33600073ffffffffffffffffffffffffffffffffffffffff168173ffffffffffffffffffffffffffffffffffffffff16036200009f5760006040517f1e4fbdf70000000000000000000000000000000000000000000000000000000081526004016200009691906200069b565b60405180910390fd5b620000b0816200012d60201b60201c565b5082600160006101000a81548173ffffffffffffffffffffffffffffffffffffffff021916908373ffffffffffffffffffffffffffffffffffffffff16021790555081600290805190602001906200010a929190620001f1565b5080600390805190602001906200012392919062000280565b50505050620006b8565b60008060009054906101000a900473ffffffffffffffffffffffffffffffffffffffff169050816000806101000a81548173ffffffffffffffffffffffffffffffffffffffff021916908373ffffffffffffffffffffffffffffffffffffffff1602179055508173ffffffffffffffffffffffffffffffffffffffff168173ffffffffffffffffffffffffffffffffffffffff167f8be0079c531659141344cd1fd0a4f28419497f9722a3daafe3b4186f6b6457e060405160405180910390a35050565b8280548282559060005260206000209081019282156200026d579160200282015b828111156200026c5782518260006101000a81548173ffffffffffffffffffffffffffffffffffffffff021916908373ffffffffffffffffffffffffffffffffffffffff1602179055509160200191906001019062000212565b5b5090506200027c9190620002d2565b5090565b828054828255906000526020600020908101928215620002bf579160200282015b82811115620002be578251825591602001919060010190620002a1565b5b509050620002ce9190620002d2565b5090565b5b80821115620002ed576000816000905550600101620002d3565b5090565b6000604051905090565b600080fd5b600080fd5b600073ffffffffffffffffffffffffffffffffffffffff82169050919050565b6000620003328262000305565b9050919050565b620003448162000325565b81146200035057600080fd5b50565b600081519050620003648162000339565b92915050565b600080fd5b6000601f19601f8301169050919050565b7f4e487b7100000000000000000000000000000000000000000000000000000000600052604160045260246000fd5b620003ba826200036f565b810181811067ffffffffffffffff82111715620003dc57620003db62000380565b5b80604052505050565b6000620003f1620002f1565b9050620003ff8282620003af565b919050565b600067ffffffffffffffff82111562000422576200042162000380565b5b602082029050602081019050919050565b600080fd5b60006200044f620004498462000404565b620003e5565b9050808382526020820190506020840283018581111562000475576200047462000433565b5b835b81811015620004a257806200048d888262000353565b84526020840193505060208101905062000477565b5050509392505050565b600082601f830112620004c457620004c36200036a565b5b8151620004d684826020860162000438565b91505092915050565b600067ffffffffffffffff821115620004fd57620004fc62000380565b5b602082029050602081019050919050565b6000819050919050565b62000523816200050e565b81146200052f57600080fd5b50565b600081519050620005438162000518565b92915050565b6000620005606200055a84620004df565b620003e5565b9050808382526020820190506020840283018581111562000586576200058562000433565b5b835b81811015620005b357806200059e888262000532565b84526020840193505060208101905062000588565b5050509392505050565b600082601f830112620005d557620005d46200036a565b5b8151620005e784826020860162000549565b91505092915050565b6000806000606084860312156200060c576200060b620002fb565b5b60006200061c8682870162000353565b935050602084015167ffffffffffffffff81111562000640576200063f62000300565b5b6200064e86828701620004ac565b925050604084015167ffffffffffffffff81111562000672576200067162000300565b5b6200068086828701620005bd565b9150509250925092565b620006958162000325565b82525050565b6000602082019050620006b260008301846200068a565b92915050565b6109aa80620006c86000396000f3fe6080604052600436106100745760003560e01c80638da5cb5b1161004e5780638da5cb5b146100eb578063bfd772fc14610116578063f2fde38b14610153578063fc0c546a1461017c5761007b565b8063294402cc1461008057806345f0a44f14610097578063715018a6146100d45761007b565b3661007b57005b600080fd5b34801561008c57600080fd5b506100956101a7565b005b3480156100a357600080fd5b506100be60048036038101906100b991906107ab565b6104d1565b6040516100cb91906107e7565b60405180910390f35b3480156100e057600080fd5b506100e96104f5565b005b3480156100f757600080fd5b50610100610509565b60405161010d9190610843565b60405180910390f35b34801561012257600080fd5b5061013d600480360381019061013891906107ab565b610532565b60405161014a9190610843565b60405180910390f35b34801561015f57600080fd5b5061017a6004803603810190610175919061088a565b610571565b005b34801561018857600080fd5b506101916105f7565b60405161019e9190610843565b60405180910390f35b6101af61061d565b600073ffffffffffffffffffffffffffffffffffffffff16600160009054906101000a900473ffffffffffffffffffffffffffffffffffffffff1673ffffffffffffffffffffffffffffffffffffffff160361033f5760005b60028054905081101561033957600073ffffffffffffffffffffffffffffffffffffffff1660028281548110610241576102406108b7565b5b9060005260206000200160009054906101000a900473ffffffffffffffffffffffffffffffffffffffff1673ffffffffffffffffffffffffffffffffffffffff16031561032c576002818154811061029c5761029b6108b7565b5b9060005260206000200160009054906101000a900473ffffffffffffffffffffffffffffffffffffffff1673ffffffffffffffffffffffffffffffffffffffff166108fc600383815481106102f4576102f36108b7565b5b90600052602060002001549081150290604051600060405180830381858888f1935050505015801561032a573d6000803e3d6000fd5b505b8080600101915050610208565b506104cf565b60005b6002805490508110156104cd57600073ffffffffffffffffffffffffffffffffffffffff166002828154811061037b5761037a6108b7565b5b9060005260206000200160009054906101000a900473ffffffffffffffffffffffffffffffffffffffff1673ffffffffffffffffffffffffffffffffffffffff1603156104c057600160009054906101000a900473ffffffffffffffffffffffffffffffffffffffff1673ffffffffffffffffffffffffffffffffffffffff1663a9059cbb60028381548110610414576104136108b7565b5b9060005260206000200160009054906101000a900473ffffffffffffffffffffffffffffffffffffffff1660038481548110610453576104526108b7565b5b90600052602060002001546040518363ffffffff1660e01b815260040161047b9291906108e6565b6020604051808303816000875af115801561049a573d6000803e3d6000fd5b505050506040513d601f19601f820116820180604052508101906104be9190610947565b505b8080600101915050610342565b505b565b600381815481106104e157600080fd5b906000526020600020016000915090505481565b6104fd61061d565b61050760006106a4565b565b60008060009054906101000a900473ffffffffffffffffffffffffffffffffffffffff16905090565b6002818154811061054257600080fd5b906000526020600020016000915054906101000a900473ffffffffffffffffffffffffffffffffffffffff1681565b61057961061d565b600073ffffffffffffffffffffffffffffffffffffffff168173ffffffffffffffffffffffffffffffffffffffff16036105eb5760006040517f1e4fbdf70000000000000000000000000000000000000000000000000000000081526004016105e29190610843565b60405180910390fd5b6105f4816106a4565b50565b600160009054906101000a900473ffffffffffffffffffffffffffffffffffffffff1681565b610625610768565b73ffffffffffffffffffffffffffffffffffffffff16610643610509565b73ffffffffffffffffffffffffffffffffffffffff16146106a257610666610768565b6040517f118cdaa70000000000000000000000000000000000000000000000000000000081526004016106999190610843565b60405180910390fd5b565b60008060009054906101000a900473ffffffffffffffffffffffffffffffffffffffff169050816000806101000a81548173ffffffffffffffffffffffffffffffffffffffff021916908373ffffffffffffffffffffffffffffffffffffffff1602179055508173ffffffffffffffffffffffffffffffffffffffff168173ffffffffffffffffffffffffffffffffffffffff167f8be0079c531659141344cd1fd0a4f28419497f9722a3daafe3b4186f6b6457e060405160405180910390a35050565b600033905090565b600080fd5b6000819050919050565b61078881610775565b811461079357600080fd5b50565b6000813590506107a58161077f565b92915050565b6000602082840312156107c1576107c0610770565b5b60006107cf84828501610796565b91505092915050565b6107e181610775565b82525050565b60006020820190506107fc60008301846107d8565b92915050565b600073ffffffffffffffffffffffffffffffffffffffff82169050919050565b600061082d82610802565b9050919050565b61083d81610822565b82525050565b60006020820190506108586000830184610834565b92915050565b61086781610822565b811461087257600080fd5b50565b6000813590506108848161085e565b92915050565b6000602082840312156108a05761089f610770565b5b60006108ae84828501610875565b91505092915050565b7f4e487b7100000000000000000000000000000000000000000000000000000000600052603260045260246000fd5b60006040820190506108fb6000830185610834565b61090860208301846107d8565b9392505050565b60008115159050919050565b6109248161090f565b811461092f57600080fd5b50565b6000815190506109418161091b565b92915050565b60006020828403121561095d5761095c610770565b5b600061096b84828501610932565b9150509291505056fea26469706673582212203680893646fbb6b8aa3ca3c779db18e0352cab4f5c3e2590ce3ae011b9f1d1b764736f6c63430008180033a264697066735822122090409ce0d4195acc016fa2620166ebd05879ad0bca4e36066ad695ec4b02ee8f64736f6c63430008180033",
  "linkReferences": {},
  "deployedLinkReferences": {}
}