{
  "_format": "hh-sol-artifact-1",
  "contractName": "ThrustpadMultiSenderFactory",
  "sourceName": "contracts/multisender/ThrustpadMultiSenderFactory.sol",
  "abi": [
    {
      "inputs": [],
      "stateMutability": "nonpayable",
      "type": "constructor"
    },
    {
      "inputs": [
        {
          "internalType": "address",
          "name": "owner",
          "type": "address"
        }
      ],
      "name": "OwnableInvalidOwner",
      "type": "error"
    },
    {
      "inputs": [
        {
          "internalType": "address",
          "name": "account",
          "type": "address"
        }
      ],
      "name": "OwnableUnauthorizedAccount",
      "type": "error"
    },
    {
      "anonymous": false,
      "inputs": [
        {
          "indexed": true,
          "internalType": "address",
          "name": "creator",
          "type": "address"
        },
        {
          "indexed": true,
          "internalType": "address",
          "name": "multisender",
          "type": "address"
        }
      ],
      "name": "NewMultiSender",
      "type": "event"
    },
    {
      "anonymous": false,
      "inputs": [
        {
          "indexed": true,
          "internalType": "address",
          "name": "previousOwner",
          "type": "address"
        },
        {
          "indexed": true,
          "internalType": "address",
          "name": "newOwner",
          "type": "address"
        }
      ],
      "name": "OwnershipTransferred",
      "type": "event"
    },
    {
      "inputs": [],
      "name": "creationFee",
      "outputs": [
        {
          "internalType": "uint256",
          "name": "",
          "type": "uint256"
        }
      ],
      "stateMutability": "view",
      "type": "function"
    },
    {
      "inputs": [
        {
          "internalType": "address",
          "name": "",
          "type": "address"
        },
        {
          "internalType": "uint256",
          "name": "",
          "type": "uint256"
        }
      ],
      "name": "deployedMultisenders",
      "outputs": [
        {
          "internalType": "address",
          "name": "",
          "type": "address"
        }
      ],
      "stateMutability": "view",
      "type": "function"
    },
    {
      "inputs": [],
      "name": "feeEarned",
      "outputs": [
        {
          "internalType": "uint256",
          "name": "",
          "type": "uint256"
        }
      ],
      "stateMutability": "view",
      "type": "function"
    },
    {
      "inputs": [
        {
          "internalType": "bytes",
          "name": "bytecode",
          "type": "bytes"
        },
        {
          "internalType": "uint256",
          "name": "salt",
          "type": "uint256"
        }
      ],
      "name": "getAddressCreate2",
      "outputs": [
        {
          "internalType": "address",
          "name": "",
          "type": "address"
        }
      ],
      "stateMutability": "view",
      "type": "function"
    },
    {
      "inputs": [
        {
          "internalType": "address",
          "name": "token",
          "type": "address"
        },
        {
          "internalType": "address[]",
          "name": "receivers",
          "type": "address[]"
        },
        {
          "internalType": "uint256[]",
          "name": "amounts",
          "type": "uint256[]"
        }
      ],
      "name": "getBytecode",
      "outputs": [
        {
          "internalType": "bytes",
          "name": "",
          "type": "bytes"
        }
      ],
      "stateMutability": "pure",
      "type": "function"
    },
    {
      "inputs": [
        {
          "internalType": "address",
          "name": "creator",
          "type": "address"
        }
      ],
      "name": "getdeployedMultisenders",
      "outputs": [
        {
          "internalType": "address[]",
          "name": "",
          "type": "address[]"
        }
      ],
      "stateMutability": "view",
      "type": "function"
    },
    {
      "inputs": [
        {
          "internalType": "address",
          "name": "creator",
          "type": "address"
        }
      ],
      "name": "getdeployedMultisendersLen",
      "outputs": [
        {
          "internalType": "uint256",
          "name": "",
          "type": "uint256"
        }
      ],
      "stateMutability": "view",
      "type": "function"
    },
    {
      "inputs": [],
      "name": "maxReceivers",
      "outputs": [
        {
          "internalType": "uint256",
          "name": "",
          "type": "uint256"
        }
      ],
      "stateMutability": "view",
      "type": "function"
    },
    {
      "inputs": [
        {
          "internalType": "address",
          "name": "token",
          "type": "address"
        },
        {
          "internalType": "address[]",
          "name": "receivers",
          "type": "address[]"
        },
        {
          "internalType": "uint256[]",
          "name": "amounts",
          "type": "uint256[]"
        }
      ],
      "name": "newMultisender",
      "outputs": [
        {
          "internalType": "address",
          "name": "",
          "type": "address"
        }
      ],
      "stateMutability": "payable",
      "type": "function"
    },
    {
      "inputs": [],
      "name": "owner",
      "outputs": [
        {
          "internalType": "address",
          "name": "",
          "type": "address"
        }
      ],
      "stateMutability": "view",
      "type": "function"
    },
    {
      "inputs": [],
      "name": "renounceOwnership",
      "outputs": [],
      "stateMutability": "nonpayable",
      "type": "function"
    },
    {
      "inputs": [
        {
          "internalType": "address",
          "name": "newOwner",
          "type": "address"
        }
      ],
      "name": "transferOwnership",
      "outputs": [],
      "stateMutability": "nonpayable",
      "type": "function"
    },
    {
      "inputs": [
        {
          "internalType": "uint256",
          "name": "_fee",
          "type": "uint256"
        }
      ],
      "name": "updateCreationFee",
      "outputs": [],
      "stateMutability": "nonpayable",
      "type": "function"
    },
    {
      "inputs": [
        {
          "internalType": "uint256",
          "name": "_maxReceivers",
          "type": "uint256"
        }
      ],
      "name": "updateMaxReceivers",
      "outputs": [],
      "stateMutability": "nonpayable",
      "type": "function"
    },
    {
      "inputs": [],
      "name": "withdraw",
      "outputs": [],
      "stateMutability": "nonpayable",
      "type": "function"
    },
    {
      "inputs": [
        {
          "internalType": "address",
          "name": "token",
          "type": "address"
        }
      ],
      "name": "withdrawToken",
      "outputs": [],
      "stateMutability": "nonpayable",
      "type": "function"
    },
    {
      "stateMutability": "payable",
      "type": "receive"
    }
  ],
  "bytecode": "0x6080806040523461008b5733156100755760008054336001600160a01b03198216811783556040519290916001600160a01b0316907f8be0079c531659141344cd1fd0a4f28419497f9722a3daafe3b4186f6b6457e09080a3678ac7230489e80000600255606460045561187090816100918239f35b631e4fbdf760e01b815260006004820152602490fd5b600080fdfe6040608081526004908136101562000022575b505036156200002057600080fd5b005b600091823560e01c9081633433887b1462000c805781633ccfd60b1462000c2957816353fa27a314620007435781635714824514620007235781636fa2379514620006fd578163715018a614620006925781637f7825c514620005c3578163877a403914620005885781638947606914620004295781638da5cb5b1462000401578163949938e914620003655781639f886f26146200024d578163d5f63a06146200022c578163dce0b4e4146200020b578163f2fde38b1462000150575063fcc31af0036200001257346200014c57806003193601126200014c576200010762000ca6565b602435926001600160a01b03809216815260016020528281209081548510156200014957506020936200013a9162000e92565b92905490519260031b1c168152f35b80fd5b5080fd5b9050346200020757602036600319011262000207576200016f62000ca6565b906200017a62000f61565b6001600160a01b03809216928315620001d85750506000548273ffffffffffffffffffffffffffffffffffffffff19821617600055167f8be0079c531659141344cd1fd0a4f28419497f9722a3daafe3b4186f6b6457e0600080a380f35b908460249251917f1e4fbdf7000000000000000000000000000000000000000000000000000000008352820152fd5b8280fd5b5050346200014c57816003193601126200014c576020906002549051908152f35b5050346200014c57816003193601126200014c576020906003549051908152f35b839150346200014c57826003193601126200014c57803567ffffffffffffffff92838211620001495736602383011215620001495781830135908482116200035257855191620002a8601f8201601f19166020018462000cbd565b80835260208301933660248383010111620002075790806024602093018637830101525190209280519160208301947fff0000000000000000000000000000000000000000000000000000000000000086523060601b602185015260243560358501526055840152605583526080830193838510908511176200033d5750926001600160a01b03918360209552519020168152f35b604190634e487b7160e01b6000525260246000fd5b80604185634e487b7160e01b6024945252fd5b5050346200014c576020908160031936011262000207576001600160a01b03806200038f62000ca6565b1684526001936001845282812090835195868794878554928381520194845287842093905b88838310620003e6578790620003e28a620003d2848b038562000cbd565b5192828493845283019062000e53565b0390f35b8554821687528a9750909501949383019390830190620003b4565b5050346200014c57816003193601126200014c576001600160a01b0360209254169051908152f35b90503462000207576020918260031936011262000584576200044a62000ca6565b916200045562000f61565b6001600160a01b038093169285541690858351947f70a0823100000000000000000000000000000000000000000000000000000000865230838701528686602481845afa9586156200057a57908291889594939762000537575b509060449291865197889586947fa9059cbb00000000000000000000000000000000000000000000000000000000865285015260248401525af19081156200052e5750620004fb578280f35b816200051f92903d1062000526575b62000516818362000cbd565b81019062000f47565b5038808280f35b503d6200050a565b513d85823e3d90fd5b9294839197508092503d831162000572575b62000555818362000cbd565b810103126200056d57519385929087906044620004af565b600080fd5b503d62000549565b85513d84823e3d90fd5b8380fd5b5050346200014c5760203660031901126200014c57806020926001600160a01b03620005b362000ca6565b1681526001845220549051908152f35b5050346200014c57601f906200065e620005dd3662000d0f565b916200066b959195610894916020978891885191620005ff8487018462000cbd565b8583528383019562000fa78739620006208a51988992868401948562000ee5565b03966200063587199889810183528262000cbd565b89519889936200064e8686019889925192839162000e2e565b8401915180938684019062000e2e565b0103808752018562000cbd565b62000689855196879581875251928380928801528787019062000e2e565b01168101030190f35b83346200014957806003193601126200014957620006af62000f61565b60006001600160a01b03815473ffffffffffffffffffffffffffffffffffffffff1981168355167f8be0079c531659141344cd1fd0a4f28419497f9722a3daafe3b4186f6b6457e08280a380f35b8390346200014c5760203660031901126200014c576200071c62000f61565b3560025580f35b905034620002075782600319360112620002075760209250549051908152f35b8383620007503662000d0f565b92909193835183510362000bc157835186541062000b5857809481955b855187101562000798576200078f60019160208960051b890101519062000ec1565b9601956200076d565b939487906001600160a01b0395868416918215908160001462000a5257620007c38360025462000ec1565b3410620009e9575b8115620009e257825b33885260209a60018c5289892054928a5191610894998a840167ffffffffffffffff9b8582108d831117620009cf579162000819939186959362000fa7873962000ee5565b0391f58015620009c55788169733875260018a5287872080549068010000000000000000821015620009b257916200085d828d969460018c99979501815562000e92565b819291549060031b918d831b921b1916179055156200093a575b50505050843b1562000207578351917f294402cc00000000000000000000000000000000000000000000000000000000835283838381838a5af18015620009305790869493929162000903575b5050507f6d1f96e538195eebc344e4fd73efd605a9cfdf73d3267009398ed160d33f1938339180a3620008fa3460035462000ec1565b60035551908152f35b909180939450116200091d575082528290858080620008c4565b826041602492634e487b7160e01b835252fd5b85513d86823e3d90fd5b606490885194859384927f23b872dd00000000000000000000000000000000000000000000000000000000845233898501528c602485015260448401525af18015620009305762000990575b8681859262000877565b620009aa90873d8911620005265762000516818362000cbd565b508662000986565b602489604189634e487b7160e01b835252fd5b87513d88823e3d90fd5b60248e60418e634e487b7160e01b835252fd5b86620007d4565b60848560208a519162461bcd60e51b8352820152603d60248201527f546872757374706164546f6b656e466163746f72793a20496e7375666669636960448201527f656e742076616c75653a20666565202b20746f74616c20616d6f756e740000006064820152fd5b87517fdd62ed3e0000000000000000000000000000000000000000000000000000000081523386820152306024820152602081604481885afa90811562000b4e57908491899162000b0f575b501015620007cb5760848560208a519162461bcd60e51b8352820152602d60248201527f546872757374706164546f6b656e466163746f72793a20496e7375666669636960448201527f656e7420616c6c6f77616e6365000000000000000000000000000000000000006064820152fd5b9150506020813d60201162000b45575b8162000b2e6020938362000cbd565b8101031262000b41578390518c62000a9e565b8780fd5b3d915062000b1f565b89513d8a823e3d90fd5b608486602084519162461bcd60e51b8352820152603660248201527f546872757374706164546f6b656e466163746f72793a20546f6f206d616e792060448201527f7265636569766572732070657220636f6e7472616374000000000000000000006064820152fd5b608486602084519162461bcd60e51b83528201526024808201527f546872757374706164546f6b656e466163746f72793a20496e76616c6964206960448201527f6e707574000000000000000000000000000000000000000000000000000000006064820152fd5b5050346200014c57816003193601126200014c5762000c4762000f61565b818080806001600160a01b03815416479082821562000c76575bf11562000c6c575080f35b51903d90823e3d90fd5b506108fc62000c61565b8390346200014c5760203660031901126200014c5762000c9f62000f61565b8035905580f35b600435906001600160a01b03821682036200056d57565b90601f8019910116810190811067ffffffffffffffff82111762000ce057604052565b634e487b7160e01b600052604160045260246000fd5b67ffffffffffffffff811162000ce05760051b60200190565b60606003198201126200056d576001600160a01b039160043583811681036200056d579260243567ffffffffffffffff918282116200056d57846023830112156200056d5781600401359162000d658362000cf6565b9162000d75604051938462000cbd565b83835260209360248585019160051b840101928884116200056d57602401905b83821062000e145750505050936044359283116200056d57806023840112156200056d57826004013562000dc98162000cf6565b9362000dd9604051958662000cbd565b81855260248486019260051b8201019283116200056d57602401905b82821062000e04575050505090565b8135815290830190830162000df5565b813583811681036200056d57815290850190850162000d95565b60005b83811062000e425750506000910152565b818101518382015260200162000e31565b90815180825260208080930193019160005b82811062000e74575050505090565b83516001600160a01b03168552938101939281019260010162000e65565b805482101562000eab5760005260206000200190600090565b634e487b7160e01b600052603260045260246000fd5b9190820180921162000ecf57565b634e487b7160e01b600052601160045260246000fd5b906001600160a01b0316815262000f0a60209260606020840152606083019062000e53565b9060408183039101526020808451928381520193019160005b82811062000f32575050505090565b83518552938101939281019260010162000f23565b908160209103126200056d575180151581036200056d5790565b6001600160a01b0360005416330362000f7657565b60246040517f118cdaa7000000000000000000000000000000000000000000000000000000008152336004820152fdfe608060405261089480380380610014816102b2565b92833981016060828203126102955761002c826102ed565b60208084015191936001600160401b039390928481116102955783019281601f850112156102955783519061006861006383610301565b6102b2565b9484868481520185819460051b830101918583116102955786809101915b83831061029a5750505050604081015190868211610295570182601f82011215610295578051926100b961006385610301565b918583868152019086829660051b8201019283116102955786809101915b8383106102855750505050331561026c57600080546001600160a01b031980821633908117845592976001600160a01b0393909284167f8be0079c531659141344cd1fd0a4f28419497f9722a3daafe3b4186f6b6457e08a80a38260019a1690600154161760015551908782116102585768010000000000000000938483116102445760025483600255808410610229575b509060028852868820908a895b85811061021557505050505050519485116102015784116101ed57600354846003558085106101d2575b509160038152818120905b8481106101c15760405161056490816103308239f35b8351828201559282019285016101ab565b600384528284206101e7918101908601610318565b386101a0565b634e487b7160e01b83526041600452602483fd5b634e487b7160e01b84526041600452602484fd5b898386511695019481850155018b90610176565b6002895287892061023e918101908501610318565b38610169565b634e487b7160e01b88526041600452602488fd5b634e487b7160e01b87526041600452602487fd5b604051631e4fbdf760e01b815260006004820152602490fd5b82518152918101918791016100d7565b600080fd5b81906102a5846102ed565b8152019101908690610086565b6040519190601f01601f191682016001600160401b038111838210176102d757604052565b634e487b7160e01b600052604160045260246000fd5b51906001600160a01b038216820361029557565b6001600160401b0381116102d75760051b60200190565b818110610323575050565b6000815560010161031856fe60406080815260049081361015610020575b5050361561001e57600080fd5b005b600091823560e01c908163294402cc1461026157816345f0a44f14610228578163715018a6146101c25781638da5cb5b1461019c578163bfd772fc14610157578163f2fde38b146100a0575063fc0c546a03610011573461009c578160031936011261009c576020906001600160a01b03600154169051908152f35b5080fd5b91905034610153576020366003190112610153578135916001600160a01b039182841680940361014f576100d26104ea565b831561012057505082548273ffffffffffffffffffffffffffffffffffffffff198216178455167f8be0079c531659141344cd1fd0a4f28419497f9722a3daafe3b4186f6b6457e08380a380f35b908460249251917f1e4fbdf7000000000000000000000000000000000000000000000000000000008352820152fd5b8480fd5b8280fd5b90503461015357602036600319011261015357359160025483101561019957506001600160a01b0361018a602093610466565b92905490519260031b1c168152f35b80fd5b50503461009c578160031936011261009c576001600160a01b0360209254169051908152f35b83346101995780600319360112610199576101db6104ea565b806001600160a01b03815473ffffffffffffffffffffffffffffffffffffffff1981168355167f8be0079c531659141344cd1fd0a4f28419497f9722a3daafe3b4186f6b6457e08280a380f35b90503461015357602036600319011261015357359160035483101561019957506102536020926104b3565b90549060031b1c9051908152f35b90503461015357826003193601126101535761027b6104ea565b6001600160a01b036001928392828454161560001461032957509084935b6102a5575b5050505080f35b6002548410156103245784816102ba86610466565b919054600392831b1c161561031a5781808092856102d78a610466565b905490831b1c16906102e88a6104b3565b9054911b1c90828215610311575bf115610307578280945b0193610299565b81513d86823e3d90fd5b506108fc6102f6565b5050828094610300565b61029e565b85949294925b61033c575b505050505080f35b60025483101561046157826103518694610466565b969054600397881b1c1615610457578385541695878561037084610466565b905490841b1c1691610381846104b3565b9054911b1c978551927fa9059cbb00000000000000000000000000000000000000000000000000000000845285840152602498898401528260448160209485945af197881561044d5787986103df575b50505084905b01929461032f565b908092939750903d8311610445575b601f8201601f191684019067ffffffffffffffff8211858310176104345750855282018290031261043057518015150361042c5784933880806103d1565b8580fd5b8680fd5b8a604187634e487b7160e01b835252fd5b3d91506103ee565b85513d8b823e3d90fd5b84955084906103d7565b610334565b60025481101561049d5760026000527f405787fa12a823e0f2b7631cc41b3ba8828b3321ca811111fa75cd3aa3bb5ace0190600090565b634e487b7160e01b600052603260045260246000fd5b60035481101561049d5760036000527fc2575a0e9e593c00f959f8c92f12db2869c3395a3b0502d05e2516446f71f85b0190600090565b6001600160a01b036000541633036104fe57565b60246040517f118cdaa7000000000000000000000000000000000000000000000000000000008152336004820152fdfea2646970667358221220f55e3282732d9f489cb8458d0d331d1722409e667936cfa1d0034e91bc86125364736f6c63430008180033a26469706673582212204b5cc2eee7da16cfa1334f1be1ccaef1525a7b03b367ac6b24021b173224bd7364736f6c63430008180033",
  "linkReferences": {},
  "deployedLinkReferences": {}
}