{
  "_format": "hh-sol-artifact-1",
  "contractName": "ThrustpadMultiSenderFactory",
  "sourceName": "contracts/multisender/ThrustpadMultiSenderFactory.sol",
  "abi": [
    {
      "inputs": [],
      "stateMutability": "nonpayable",
      "type": "constructor"
    },
    {
      "inputs": [
        {
          "internalType": "address",
          "name": "owner",
          "type": "address"
        }
      ],
      "name": "OwnableInvalidOwner",
      "type": "error"
    },
    {
      "inputs": [
        {
          "internalType": "address",
          "name": "account",
          "type": "address"
        }
      ],
      "name": "OwnableUnauthorizedAccount",
      "type": "error"
    },
    {
      "anonymous": false,
      "inputs": [
        {
          "indexed": true,
          "internalType": "address",
          "name": "creator",
          "type": "address"
        },
        {
          "indexed": true,
          "internalType": "address",
          "name": "multisender",
          "type": "address"
        }
      ],
      "name": "NewMultiSender",
      "type": "event"
    },
    {
      "anonymous": false,
      "inputs": [
        {
          "indexed": true,
          "internalType": "address",
          "name": "previousOwner",
          "type": "address"
        },
        {
          "indexed": true,
          "internalType": "address",
          "name": "newOwner",
          "type": "address"
        }
      ],
      "name": "OwnershipTransferred",
      "type": "event"
    },
    {
      "inputs": [],
      "name": "creationFee",
      "outputs": [
        {
          "internalType": "uint256",
          "name": "",
          "type": "uint256"
        }
      ],
      "stateMutability": "view",
      "type": "function"
    },
    {
      "inputs": [
        {
          "internalType": "address",
          "name": "",
          "type": "address"
        },
        {
          "internalType": "uint256",
          "name": "",
          "type": "uint256"
        }
      ],
      "name": "deployedMultisenders",
      "outputs": [
        {
          "internalType": "address",
          "name": "",
          "type": "address"
        }
      ],
      "stateMutability": "view",
      "type": "function"
    },
    {
      "inputs": [],
      "name": "feeEarned",
      "outputs": [
        {
          "internalType": "uint256",
          "name": "",
          "type": "uint256"
        }
      ],
      "stateMutability": "view",
      "type": "function"
    },
    {
      "inputs": [
        {
          "internalType": "bytes",
          "name": "bytecode",
          "type": "bytes"
        },
        {
          "internalType": "uint256",
          "name": "salt",
          "type": "uint256"
        }
      ],
      "name": "getAddressCreate2",
      "outputs": [
        {
          "internalType": "address",
          "name": "",
          "type": "address"
        }
      ],
      "stateMutability": "view",
      "type": "function"
    },
    {
      "inputs": [
        {
          "internalType": "address",
          "name": "token",
          "type": "address"
        },
        {
          "internalType": "address[]",
          "name": "receivers",
          "type": "address[]"
        },
        {
          "internalType": "uint256[]",
          "name": "amounts",
          "type": "uint256[]"
        }
      ],
      "name": "getBytecode",
      "outputs": [
        {
          "internalType": "bytes",
          "name": "",
          "type": "bytes"
        }
      ],
      "stateMutability": "pure",
      "type": "function"
    },
    {
      "inputs": [
        {
          "internalType": "address",
          "name": "creator",
          "type": "address"
        }
      ],
      "name": "getdeployedMultisenders",
      "outputs": [
        {
          "internalType": "address[]",
          "name": "",
          "type": "address[]"
        }
      ],
      "stateMutability": "view",
      "type": "function"
    },
    {
      "inputs": [
        {
          "internalType": "address",
          "name": "creator",
          "type": "address"
        }
      ],
      "name": "getdeployedMultisendersLen",
      "outputs": [
        {
          "internalType": "uint256",
          "name": "",
          "type": "uint256"
        }
      ],
      "stateMutability": "view",
      "type": "function"
    },
    {
      "inputs": [
        {
          "internalType": "address",
          "name": "token",
          "type": "address"
        },
        {
          "internalType": "address[]",
          "name": "receivers",
          "type": "address[]"
        },
        {
          "internalType": "uint256[]",
          "name": "amounts",
          "type": "uint256[]"
        }
      ],
      "name": "newMultisender",
      "outputs": [
        {
          "internalType": "address",
          "name": "",
          "type": "address"
        }
      ],
      "stateMutability": "payable",
      "type": "function"
    },
    {
      "inputs": [],
      "name": "owner",
      "outputs": [
        {
          "internalType": "address",
          "name": "",
          "type": "address"
        }
      ],
      "stateMutability": "view",
      "type": "function"
    },
    {
      "inputs": [],
      "name": "renounceOwnership",
      "outputs": [],
      "stateMutability": "nonpayable",
      "type": "function"
    },
    {
      "inputs": [
        {
          "internalType": "address",
          "name": "newOwner",
          "type": "address"
        }
      ],
      "name": "transferOwnership",
      "outputs": [],
      "stateMutability": "nonpayable",
      "type": "function"
    },
    {
      "inputs": [],
      "name": "withdraw",
      "outputs": [],
      "stateMutability": "nonpayable",
      "type": "function"
    },
    {
      "inputs": [
        {
          "internalType": "address",
          "name": "token",
          "type": "address"
        }
      ],
      "name": "withdrawToken",
      "outputs": [],
      "stateMutability": "nonpayable",
      "type": "function"
    },
    {
      "stateMutability": "payable",
      "type": "receive"
    }
  ],
  "bytecode": "0x6080604052670de0b6b3a76400006002556064600460006101000a81548160ff021916908360ff1602179055503480156200003957600080fd5b5033600073ffffffffffffffffffffffffffffffffffffffff168173ffffffffffffffffffffffffffffffffffffffff1603620000b05760006040517f1e4fbdf7000000000000000000000000000000000000000000000000000000008152600401620000a79190620001d1565b60405180910390fd5b620000c181620000c860201b60201c565b50620001ee565b60008060009054906101000a900473ffffffffffffffffffffffffffffffffffffffff169050816000806101000a81548173ffffffffffffffffffffffffffffffffffffffff021916908373ffffffffffffffffffffffffffffffffffffffff1602179055508173ffffffffffffffffffffffffffffffffffffffff168173ffffffffffffffffffffffffffffffffffffffff167f8be0079c531659141344cd1fd0a4f28419497f9722a3daafe3b4186f6b6457e060405160405180910390a35050565b600073ffffffffffffffffffffffffffffffffffffffff82169050919050565b6000620001b9826200018c565b9050919050565b620001cb81620001ac565b82525050565b6000602082019050620001e86000830184620001c0565b92915050565b612ddb80620001fe6000396000f3fe608060405260043610620000d95760003560e01c80638da5cb5b116200008b578063d5f63a061162000061578063d5f63a0614620002be578063dce0b4e414620002ee578063f2fde38b146200031e578063fcc31af0146200034c57620000e1565b80638da5cb5b1462000206578063949938e914620002365780639f886f26146200027a57620000e1565b80633ccfd60b14620000e657806353fa27a31462000100578063715018a614620001365780637f7825c51462000150578063877a403914620001945780638947606914620001d857620000e1565b36620000e157005b600080fd5b348015620000f357600080fd5b50620000fe62000390565b005b6200011e6004803603810190620001189190620011d0565b620003ed565b6040516200012d91906200127b565b60405180910390f35b3480156200014357600080fd5b506200014e62000940565b005b3480156200015d57600080fd5b506200017c6004803603810190620001769190620011d0565b62000958565b6040516200018b919062001321565b60405180910390f35b348015620001a157600080fd5b50620001c06004803603810190620001ba919062001345565b620009d7565b604051620001cf919062001388565b60405180910390f35b348015620001e557600080fd5b50620002046004803603810190620001fe919062001345565b62000a23565b005b3480156200021357600080fd5b506200021e62000b3b565b6040516200022d91906200127b565b60405180910390f35b3480156200024357600080fd5b506200026260048036038101906200025c919062001345565b62000b64565b60405162000271919062001473565b60405180910390f35b3480156200028757600080fd5b50620002a66004803603810190620002a091906200155f565b62000c33565b604051620002b591906200127b565b60405180910390f35b348015620002cb57600080fd5b50620002d662000c7f565b604051620002e5919062001388565b60405180910390f35b348015620002fb57600080fd5b506200030662000c85565b60405162000315919062001388565b60405180910390f35b3480156200032b57600080fd5b506200034a600480360381019062000344919062001345565b62000c8b565b005b3480156200035957600080fd5b50620003786004803603810190620003729190620015c5565b62000d18565b6040516200038791906200127b565b60405180910390f35b6200039a62000d67565b620003a462000b3b565b73ffffffffffffffffffffffffffffffffffffffff166108fc479081150290604051600060405180830381858888f19350505050158015620003ea573d6000803e3d6000fd5b50565b6000825182511462000436576040517f08c379a00000000000000000000000000000000000000000000000000000000081526004016200042d9062001693565b60405180910390fd5b600460009054906101000a900460ff1660ff16825111156200048f576040517f08c379a000000000000000000000000000000000000000000000000000000000815260040162000486906200172b565b60405180910390fd5b6000805b8351811015620004d857838181518110620004b357620004b26200174d565b5b602002602001015182620004c89190620017ab565b9150808060010191505062000493565b50600073ffffffffffffffffffffffffffffffffffffffff168573ffffffffffffffffffffffffffffffffffffffff16036200056957806002546200051e9190620017ab565b34101562000563576040517f08c379a00000000000000000000000000000000000000000000000000000000081526004016200055a906200185c565b60405180910390fd5b62000636565b60008573ffffffffffffffffffffffffffffffffffffffff1663dd62ed3e33306040518363ffffffff1660e01b8152600401620005a89291906200187e565b602060405180830381865afa158015620005c6573d6000803e3d6000fd5b505050506040513d601f19601f82011682018060405250810190620005ec9190620018c2565b90508181101562000634576040517f08c379a00000000000000000000000000000000000000000000000000000000081526004016200062b906200196a565b60405180910390fd5b505b60008073ffffffffffffffffffffffffffffffffffffffff168673ffffffffffffffffffffffffffffffffffffffff16146200067457600062000676565b815b600160003373ffffffffffffffffffffffffffffffffffffffff1673ffffffffffffffffffffffffffffffffffffffff1681526020019081526020016000208054905060001b90878787604051620006ce9062000ec3565b620006dc9392919062001a5a565b82906040518091039083f59050905080158015620006fe573d6000803e3d6000fd5b509050600160003373ffffffffffffffffffffffffffffffffffffffff1673ffffffffffffffffffffffffffffffffffffffff168152602001908152602001600020819080600181540180825580915050600190039060005260206000200160009091909190916101000a81548173ffffffffffffffffffffffffffffffffffffffff021916908373ffffffffffffffffffffffffffffffffffffffff160217905550600073ffffffffffffffffffffffffffffffffffffffff168673ffffffffffffffffffffffffffffffffffffffff16146200085d578573ffffffffffffffffffffffffffffffffffffffff166323b872dd3383856040518463ffffffff1660e01b8152600401620008159392919062001aa5565b6020604051808303816000875af115801562000835573d6000803e3d6000fd5b505050506040513d601f19601f820116820180604052508101906200085b919062001b1f565b505b8073ffffffffffffffffffffffffffffffffffffffff1663294402cc6040518163ffffffff1660e01b8152600401600060405180830381600087803b158015620008a657600080fd5b505af1158015620008bb573d6000803e3d6000fd5b505050508073ffffffffffffffffffffffffffffffffffffffff163373ffffffffffffffffffffffffffffffffffffffff167f6d1f96e538195eebc344e4fd73efd605a9cfdf73d3267009398ed160d33f193860405160405180910390a334600360008282546200092d9190620017ab565b9250508190555080925050509392505050565b6200094a62000d67565b62000956600062000df7565b565b60606000604051806020016200096e9062000ec3565b6020820181038252601f19601f820116604052509050808585856040516020016200099c9392919062001a5a565b604051602081830303815290604052604051602001620009be92919062001b93565b6040516020818303038152906040529150509392505050565b6000600160008373ffffffffffffffffffffffffffffffffffffffff1673ffffffffffffffffffffffffffffffffffffffff168152602001908152602001600020805490509050919050565b62000a2d62000d67565b8073ffffffffffffffffffffffffffffffffffffffff1663a9059cbb62000a5362000b3b565b8373ffffffffffffffffffffffffffffffffffffffff166370a08231306040518263ffffffff1660e01b815260040162000a8e91906200127b565b602060405180830381865afa15801562000aac573d6000803e3d6000fd5b505050506040513d601f19601f8201168201806040525081019062000ad29190620018c2565b6040518363ffffffff1660e01b815260040162000af192919062001bbb565b6020604051808303816000875af115801562000b11573d6000803e3d6000fd5b505050506040513d601f19601f8201168201806040525081019062000b37919062001b1f565b5050565b60008060009054906101000a900473ffffffffffffffffffffffffffffffffffffffff16905090565b6060600160008373ffffffffffffffffffffffffffffffffffffffff1673ffffffffffffffffffffffffffffffffffffffff16815260200190815260200160002080548060200260200160405190810160405280929190818152602001828054801562000c2757602002820191906000526020600020905b8160009054906101000a900473ffffffffffffffffffffffffffffffffffffffff1673ffffffffffffffffffffffffffffffffffffffff168152602001906001019080831162000bdc575b50505050509050919050565b60008060ff60f81b3084868051906020012060405160200162000c5a949392919062001cdd565b6040516020818303038152906040528051906020012090508060001c91505092915050565b60035481565b60025481565b62000c9562000d67565b600073ffffffffffffffffffffffffffffffffffffffff168173ffffffffffffffffffffffffffffffffffffffff160362000d0a5760006040517f1e4fbdf700000000000000000000000000000000000000000000000000000000815260040162000d0191906200127b565b60405180910390fd5b62000d158162000df7565b50565b6001602052816000526040600020818154811062000d3557600080fd5b906000526020600020016000915091509054906101000a900473ffffffffffffffffffffffffffffffffffffffff1681565b62000d7162000ebb565b73ffffffffffffffffffffffffffffffffffffffff1662000d9162000b3b565b73ffffffffffffffffffffffffffffffffffffffff161462000df55762000db762000ebb565b6040517f118cdaa700000000000000000000000000000000000000000000000000000000815260040162000dec91906200127b565b60405180910390fd5b565b60008060009054906101000a900473ffffffffffffffffffffffffffffffffffffffff169050816000806101000a81548173ffffffffffffffffffffffffffffffffffffffff021916908373ffffffffffffffffffffffffffffffffffffffff1602179055508173ffffffffffffffffffffffffffffffffffffffff168173ffffffffffffffffffffffffffffffffffffffff167f8be0079c531659141344cd1fd0a4f28419497f9722a3daafe3b4186f6b6457e060405160405180910390a35050565b600033905090565b6110728062001d3483390190565b6000604051905090565b600080fd5b600080fd5b600073ffffffffffffffffffffffffffffffffffffffff82169050919050565b600062000f128262000ee5565b9050919050565b62000f248162000f05565b811462000f3057600080fd5b50565b60008135905062000f448162000f19565b92915050565b600080fd5b6000601f19601f8301169050919050565b7f4e487b7100000000000000000000000000000000000000000000000000000000600052604160045260246000fd5b62000f9a8262000f4f565b810181811067ffffffffffffffff8211171562000fbc5762000fbb62000f60565b5b80604052505050565b600062000fd162000ed1565b905062000fdf828262000f8f565b919050565b600067ffffffffffffffff82111562001002576200100162000f60565b5b602082029050602081019050919050565b600080fd5b60006200102f620010298462000fe4565b62000fc5565b9050808382526020820190506020840283018581111562001055576200105462001013565b5b835b818110156200108257806200106d888262000f33565b84526020840193505060208101905062001057565b5050509392505050565b600082601f830112620010a457620010a362000f4a565b5b8135620010b684826020860162001018565b91505092915050565b600067ffffffffffffffff821115620010dd57620010dc62000f60565b5b602082029050602081019050919050565b6000819050919050565b6200110381620010ee565b81146200110f57600080fd5b50565b6000813590506200112381620010f8565b92915050565b6000620011406200113a84620010bf565b62000fc5565b9050808382526020820190506020840283018581111562001166576200116562001013565b5b835b818110156200119357806200117e888262001112565b84526020840193505060208101905062001168565b5050509392505050565b600082601f830112620011b557620011b462000f4a565b5b8135620011c784826020860162001129565b91505092915050565b600080600060608486031215620011ec57620011eb62000edb565b5b6000620011fc8682870162000f33565b935050602084013567ffffffffffffffff81111562001220576200121f62000ee0565b5b6200122e868287016200108c565b925050604084013567ffffffffffffffff81111562001252576200125162000ee0565b5b62001260868287016200119d565b9150509250925092565b620012758162000f05565b82525050565b60006020820190506200129260008301846200126a565b92915050565b600081519050919050565b600082825260208201905092915050565b60005b83811015620012d4578082015181840152602081019050620012b7565b60008484015250505050565b6000620012ed8262001298565b620012f98185620012a3565b93506200130b818560208601620012b4565b620013168162000f4f565b840191505092915050565b600060208201905081810360008301526200133d8184620012e0565b905092915050565b6000602082840312156200135e576200135d62000edb565b5b60006200136e8482850162000f33565b91505092915050565b6200138281620010ee565b82525050565b60006020820190506200139f600083018462001377565b92915050565b600081519050919050565b600082825260208201905092915050565b6000819050602082019050919050565b620013dc8162000f05565b82525050565b6000620013f08383620013d1565b60208301905092915050565b6000602082019050919050565b60006200141682620013a5565b620014228185620013b0565b93506200142f83620013c1565b8060005b83811015620014665781516200144a8882620013e2565b97506200145783620013fc565b92505060018101905062001433565b5085935050505092915050565b600060208201905081810360008301526200148f818462001409565b905092915050565b600080fd5b600067ffffffffffffffff821115620014ba57620014b962000f60565b5b620014c58262000f4f565b9050602081019050919050565b82818337600083830152505050565b6000620014f8620014f2846200149c565b62000fc5565b90508281526020810184848401111562001517576200151662001497565b5b62001524848285620014d2565b509392505050565b600082601f83011262001544576200154362000f4a565b5b813562001556848260208601620014e1565b91505092915050565b6000806040838503121562001579576200157862000edb565b5b600083013567ffffffffffffffff8111156200159a576200159962000ee0565b5b620015a8858286016200152c565b9250506020620015bb8582860162001112565b9150509250929050565b60008060408385031215620015df57620015de62000edb565b5b6000620015ef8582860162000f33565b9250506020620016028582860162001112565b9150509250929050565b600082825260208201905092915050565b7f546872757374706164546f6b656e466163746f72793a20496e76616c6964206960008201527f6e70757400000000000000000000000000000000000000000000000000000000602082015250565b60006200167b6024836200160c565b915062001688826200161d565b604082019050919050565b60006020820190508181036000830152620016ae816200166c565b9050919050565b7f546872757374706164546f6b656e466163746f72793a20546f6f206d616e792060008201527f7265636569766572732070657220636f6e747261637400000000000000000000602082015250565b6000620017136036836200160c565b91506200172082620016b5565b604082019050919050565b60006020820190508181036000830152620017468162001704565b9050919050565b7f4e487b7100000000000000000000000000000000000000000000000000000000600052603260045260246000fd5b7f4e487b7100000000000000000000000000000000000000000000000000000000600052601160045260246000fd5b6000620017b882620010ee565b9150620017c583620010ee565b9250828201905080821115620017e057620017df6200177c565b5b92915050565b7f546872757374706164546f6b656e466163746f72793a20496e7375666669636960008201527f656e742076616c75653a20666565202b20746f74616c20616d6f756e74000000602082015250565b600062001844603d836200160c565b91506200185182620017e6565b604082019050919050565b60006020820190508181036000830152620018778162001835565b9050919050565b60006040820190506200189560008301856200126a565b620018a460208301846200126a565b9392505050565b600081519050620018bc81620010f8565b92915050565b600060208284031215620018db57620018da62000edb565b5b6000620018eb84828501620018ab565b91505092915050565b7f546872757374706164546f6b656e466163746f72793a20496e7375666669636960008201527f656e7420616c6c6f77616e636500000000000000000000000000000000000000602082015250565b600062001952602d836200160c565b91506200195f82620018f4565b604082019050919050565b60006020820190508181036000830152620019858162001943565b9050919050565b600081519050919050565b600082825260208201905092915050565b6000819050602082019050919050565b620019c381620010ee565b82525050565b6000620019d78383620019b8565b60208301905092915050565b6000602082019050919050565b6000620019fd826200198c565b62001a09818562001997565b935062001a1683620019a8565b8060005b8381101562001a4d57815162001a318882620019c9565b975062001a3e83620019e3565b92505060018101905062001a1a565b5085935050505092915050565b600060608201905062001a7160008301866200126a565b818103602083015262001a85818562001409565b9050818103604083015262001a9b8184620019f0565b9050949350505050565b600060608201905062001abc60008301866200126a565b62001acb60208301856200126a565b62001ada604083018462001377565b949350505050565b60008115159050919050565b62001af98162001ae2565b811462001b0557600080fd5b50565b60008151905062001b198162001aee565b92915050565b60006020828403121562001b385762001b3762000edb565b5b600062001b488482850162001b08565b91505092915050565b600081905092915050565b600062001b698262001298565b62001b75818562001b51565b935062001b87818560208601620012b4565b80840191505092915050565b600062001ba1828562001b5c565b915062001baf828462001b5c565b91508190509392505050565b600060408201905062001bd260008301856200126a565b62001be1602083018462001377565b9392505050565b60007fff0000000000000000000000000000000000000000000000000000000000000082169050919050565b6000819050919050565b62001c3362001c2d8262001be8565b62001c14565b82525050565b60008160601b9050919050565b600062001c538262001c39565b9050919050565b600062001c678262001c46565b9050919050565b62001c8362001c7d8262000f05565b62001c5a565b82525050565b6000819050919050565b62001ca862001ca282620010ee565b62001c89565b82525050565b6000819050919050565b6000819050919050565b62001cd762001cd18262001cae565b62001cb8565b82525050565b600062001ceb828762001c1e565b60018201915062001cfd828662001c6e565b60148201915062001d0f828562001c93565b60208201915062001d21828462001cc2565b6020820191508190509594505050505056fe608060405260405162001072380380620010728339818101604052810190620000299190620005f0565b33600073ffffffffffffffffffffffffffffffffffffffff168173ffffffffffffffffffffffffffffffffffffffff16036200009f5760006040517f1e4fbdf70000000000000000000000000000000000000000000000000000000081526004016200009691906200069b565b60405180910390fd5b620000b0816200012d60201b60201c565b5082600160006101000a81548173ffffffffffffffffffffffffffffffffffffffff021916908373ffffffffffffffffffffffffffffffffffffffff16021790555081600290805190602001906200010a929190620001f1565b5080600390805190602001906200012392919062000280565b50505050620006b8565b60008060009054906101000a900473ffffffffffffffffffffffffffffffffffffffff169050816000806101000a81548173ffffffffffffffffffffffffffffffffffffffff021916908373ffffffffffffffffffffffffffffffffffffffff1602179055508173ffffffffffffffffffffffffffffffffffffffff168173ffffffffffffffffffffffffffffffffffffffff167f8be0079c531659141344cd1fd0a4f28419497f9722a3daafe3b4186f6b6457e060405160405180910390a35050565b8280548282559060005260206000209081019282156200026d579160200282015b828111156200026c5782518260006101000a81548173ffffffffffffffffffffffffffffffffffffffff021916908373ffffffffffffffffffffffffffffffffffffffff1602179055509160200191906001019062000212565b5b5090506200027c9190620002d2565b5090565b828054828255906000526020600020908101928215620002bf579160200282015b82811115620002be578251825591602001919060010190620002a1565b5b509050620002ce9190620002d2565b5090565b5b80821115620002ed576000816000905550600101620002d3565b5090565b6000604051905090565b600080fd5b600080fd5b600073ffffffffffffffffffffffffffffffffffffffff82169050919050565b6000620003328262000305565b9050919050565b620003448162000325565b81146200035057600080fd5b50565b600081519050620003648162000339565b92915050565b600080fd5b6000601f19601f8301169050919050565b7f4e487b7100000000000000000000000000000000000000000000000000000000600052604160045260246000fd5b620003ba826200036f565b810181811067ffffffffffffffff82111715620003dc57620003db62000380565b5b80604052505050565b6000620003f1620002f1565b9050620003ff8282620003af565b919050565b600067ffffffffffffffff82111562000422576200042162000380565b5b602082029050602081019050919050565b600080fd5b60006200044f620004498462000404565b620003e5565b9050808382526020820190506020840283018581111562000475576200047462000433565b5b835b81811015620004a257806200048d888262000353565b84526020840193505060208101905062000477565b5050509392505050565b600082601f830112620004c457620004c36200036a565b5b8151620004d684826020860162000438565b91505092915050565b600067ffffffffffffffff821115620004fd57620004fc62000380565b5b602082029050602081019050919050565b6000819050919050565b62000523816200050e565b81146200052f57600080fd5b50565b600081519050620005438162000518565b92915050565b6000620005606200055a84620004df565b620003e5565b9050808382526020820190506020840283018581111562000586576200058562000433565b5b835b81811015620005b357806200059e888262000532565b84526020840193505060208101905062000588565b5050509392505050565b600082601f830112620005d557620005d46200036a565b5b8151620005e784826020860162000549565b91505092915050565b6000806000606084860312156200060c576200060b620002fb565b5b60006200061c8682870162000353565b935050602084015167ffffffffffffffff81111562000640576200063f62000300565b5b6200064e86828701620004ac565b925050604084015167ffffffffffffffff81111562000672576200067162000300565b5b6200068086828701620005bd565b9150509250925092565b620006958162000325565b82525050565b6000602082019050620006b260008301846200068a565b92915050565b6109aa80620006c86000396000f3fe6080604052600436106100745760003560e01c80638da5cb5b1161004e5780638da5cb5b146100eb578063bfd772fc14610116578063f2fde38b14610153578063fc0c546a1461017c5761007b565b8063294402cc1461008057806345f0a44f14610097578063715018a6146100d45761007b565b3661007b57005b600080fd5b34801561008c57600080fd5b506100956101a7565b005b3480156100a357600080fd5b506100be60048036038101906100b991906107ab565b6104d1565b6040516100cb91906107e7565b60405180910390f35b3480156100e057600080fd5b506100e96104f5565b005b3480156100f757600080fd5b50610100610509565b60405161010d9190610843565b60405180910390f35b34801561012257600080fd5b5061013d600480360381019061013891906107ab565b610532565b60405161014a9190610843565b60405180910390f35b34801561015f57600080fd5b5061017a6004803603810190610175919061088a565b610571565b005b34801561018857600080fd5b506101916105f7565b60405161019e9190610843565b60405180910390f35b6101af61061d565b600073ffffffffffffffffffffffffffffffffffffffff16600160009054906101000a900473ffffffffffffffffffffffffffffffffffffffff1673ffffffffffffffffffffffffffffffffffffffff160361033f5760005b60028054905081101561033957600073ffffffffffffffffffffffffffffffffffffffff1660028281548110610241576102406108b7565b5b9060005260206000200160009054906101000a900473ffffffffffffffffffffffffffffffffffffffff1673ffffffffffffffffffffffffffffffffffffffff16031561032c576002818154811061029c5761029b6108b7565b5b9060005260206000200160009054906101000a900473ffffffffffffffffffffffffffffffffffffffff1673ffffffffffffffffffffffffffffffffffffffff166108fc600383815481106102f4576102f36108b7565b5b90600052602060002001549081150290604051600060405180830381858888f1935050505015801561032a573d6000803e3d6000fd5b505b8080600101915050610208565b506104cf565b60005b6002805490508110156104cd57600073ffffffffffffffffffffffffffffffffffffffff166002828154811061037b5761037a6108b7565b5b9060005260206000200160009054906101000a900473ffffffffffffffffffffffffffffffffffffffff1673ffffffffffffffffffffffffffffffffffffffff1603156104c057600160009054906101000a900473ffffffffffffffffffffffffffffffffffffffff1673ffffffffffffffffffffffffffffffffffffffff1663a9059cbb60028381548110610414576104136108b7565b5b9060005260206000200160009054906101000a900473ffffffffffffffffffffffffffffffffffffffff1660038481548110610453576104526108b7565b5b90600052602060002001546040518363ffffffff1660e01b815260040161047b9291906108e6565b6020604051808303816000875af115801561049a573d6000803e3d6000fd5b505050506040513d601f19601f820116820180604052508101906104be9190610947565b505b8080600101915050610342565b505b565b600381815481106104e157600080fd5b906000526020600020016000915090505481565b6104fd61061d565b61050760006106a4565b565b60008060009054906101000a900473ffffffffffffffffffffffffffffffffffffffff16905090565b6002818154811061054257600080fd5b906000526020600020016000915054906101000a900473ffffffffffffffffffffffffffffffffffffffff1681565b61057961061d565b600073ffffffffffffffffffffffffffffffffffffffff168173ffffffffffffffffffffffffffffffffffffffff16036105eb5760006040517f1e4fbdf70000000000000000000000000000000000000000000000000000000081526004016105e29190610843565b60405180910390fd5b6105f4816106a4565b50565b600160009054906101000a900473ffffffffffffffffffffffffffffffffffffffff1681565b610625610768565b73ffffffffffffffffffffffffffffffffffffffff16610643610509565b73ffffffffffffffffffffffffffffffffffffffff16146106a257610666610768565b6040517f118cdaa70000000000000000000000000000000000000000000000000000000081526004016106999190610843565b60405180910390fd5b565b60008060009054906101000a900473ffffffffffffffffffffffffffffffffffffffff169050816000806101000a81548173ffffffffffffffffffffffffffffffffffffffff021916908373ffffffffffffffffffffffffffffffffffffffff1602179055508173ffffffffffffffffffffffffffffffffffffffff168173ffffffffffffffffffffffffffffffffffffffff167f8be0079c531659141344cd1fd0a4f28419497f9722a3daafe3b4186f6b6457e060405160405180910390a35050565b600033905090565b600080fd5b6000819050919050565b61078881610775565b811461079357600080fd5b50565b6000813590506107a58161077f565b92915050565b6000602082840312156107c1576107c0610770565b5b60006107cf84828501610796565b91505092915050565b6107e181610775565b82525050565b60006020820190506107fc60008301846107d8565b92915050565b600073ffffffffffffffffffffffffffffffffffffffff82169050919050565b600061082d82610802565b9050919050565b61083d81610822565b82525050565b60006020820190506108586000830184610834565b92915050565b61086781610822565b811461087257600080fd5b50565b6000813590506108848161085e565b92915050565b6000602082840312156108a05761089f610770565b5b60006108ae84828501610875565b91505092915050565b7f4e487b7100000000000000000000000000000000000000000000000000000000600052603260045260246000fd5b60006040820190506108fb6000830185610834565b61090860208301846107d8565b9392505050565b60008115159050919050565b6109248161090f565b811461092f57600080fd5b50565b6000815190506109418161091b565b92915050565b60006020828403121561095d5761095c610770565b5b600061096b84828501610932565b9150509291505056fea26469706673582212203680893646fbb6b8aa3ca3c779db18e0352cab4f5c3e2590ce3ae011b9f1d1b764736f6c63430008180033a26469706673582212209f077a45c9ad8277da5ea006e57d3475714ec4964e2d6c98ced56577e3582dce64736f6c63430008180033",
  "linkReferences": {},
  "deployedLinkReferences": {}
}