{
  "_format": "hh-sol-artifact-1",
  "contractName": "ThrustpadMultiSenderFactory",
  "sourceName": "contracts/multisender/ThrustpadMultiSenderFactory.sol",
  "abi": [
    {
      "inputs": [],
      "stateMutability": "nonpayable",
      "type": "constructor"
    },
    {
      "inputs": [
        {
          "internalType": "address",
          "name": "owner",
          "type": "address"
        }
      ],
      "name": "OwnableInvalidOwner",
      "type": "error"
    },
    {
      "inputs": [
        {
          "internalType": "address",
          "name": "account",
          "type": "address"
        }
      ],
      "name": "OwnableUnauthorizedAccount",
      "type": "error"
    },
    {
      "anonymous": false,
      "inputs": [
        {
          "indexed": true,
          "internalType": "address",
          "name": "creator",
          "type": "address"
        },
        {
          "indexed": true,
          "internalType": "address",
          "name": "multisender",
          "type": "address"
        }
      ],
      "name": "NewMultiSender",
      "type": "event"
    },
    {
      "anonymous": false,
      "inputs": [
        {
          "indexed": true,
          "internalType": "address",
          "name": "previousOwner",
          "type": "address"
        },
        {
          "indexed": true,
          "internalType": "address",
          "name": "newOwner",
          "type": "address"
        }
      ],
      "name": "OwnershipTransferred",
      "type": "event"
    },
    {
      "inputs": [],
      "name": "creationFee",
      "outputs": [
        {
          "internalType": "uint256",
          "name": "",
          "type": "uint256"
        }
      ],
      "stateMutability": "view",
      "type": "function"
    },
    {
      "inputs": [
        {
          "internalType": "address",
          "name": "",
          "type": "address"
        },
        {
          "internalType": "uint256",
          "name": "",
          "type": "uint256"
        }
      ],
      "name": "deployedMultisenders",
      "outputs": [
        {
          "internalType": "address",
          "name": "",
          "type": "address"
        }
      ],
      "stateMutability": "view",
      "type": "function"
    },
    {
      "inputs": [],
      "name": "feeEarned",
      "outputs": [
        {
          "internalType": "uint256",
          "name": "",
          "type": "uint256"
        }
      ],
      "stateMutability": "view",
      "type": "function"
    },
    {
      "inputs": [
        {
          "internalType": "bytes",
          "name": "bytecode",
          "type": "bytes"
        },
        {
          "internalType": "uint256",
          "name": "salt",
          "type": "uint256"
        }
      ],
      "name": "getAddressCreate2",
      "outputs": [
        {
          "internalType": "address",
          "name": "",
          "type": "address"
        }
      ],
      "stateMutability": "view",
      "type": "function"
    },
    {
      "inputs": [
        {
          "internalType": "address",
          "name": "token",
          "type": "address"
        },
        {
          "internalType": "address[]",
          "name": "receivers",
          "type": "address[]"
        },
        {
          "internalType": "uint256[]",
          "name": "amounts",
          "type": "uint256[]"
        }
      ],
      "name": "getBytecode",
      "outputs": [
        {
          "internalType": "bytes",
          "name": "",
          "type": "bytes"
        }
      ],
      "stateMutability": "pure",
      "type": "function"
    },
    {
      "inputs": [
        {
          "internalType": "address",
          "name": "creator",
          "type": "address"
        }
      ],
      "name": "getdeployedMultisenders",
      "outputs": [
        {
          "internalType": "address[]",
          "name": "",
          "type": "address[]"
        }
      ],
      "stateMutability": "view",
      "type": "function"
    },
    {
      "inputs": [
        {
          "internalType": "address",
          "name": "creator",
          "type": "address"
        }
      ],
      "name": "getdeployedMultisendersLen",
      "outputs": [
        {
          "internalType": "uint256",
          "name": "",
          "type": "uint256"
        }
      ],
      "stateMutability": "view",
      "type": "function"
    },
    {
      "inputs": [
        {
          "internalType": "address",
          "name": "token",
          "type": "address"
        },
        {
          "internalType": "address[]",
          "name": "receivers",
          "type": "address[]"
        },
        {
          "internalType": "uint256[]",
          "name": "amounts",
          "type": "uint256[]"
        }
      ],
      "name": "newMultisender",
      "outputs": [
        {
          "internalType": "address",
          "name": "",
          "type": "address"
        }
      ],
      "stateMutability": "payable",
      "type": "function"
    },
    {
      "inputs": [],
      "name": "owner",
      "outputs": [
        {
          "internalType": "address",
          "name": "",
          "type": "address"
        }
      ],
      "stateMutability": "view",
      "type": "function"
    },
    {
      "inputs": [],
      "name": "renounceOwnership",
      "outputs": [],
      "stateMutability": "nonpayable",
      "type": "function"
    },
    {
      "inputs": [
        {
          "internalType": "address",
          "name": "newOwner",
          "type": "address"
        }
      ],
      "name": "transferOwnership",
      "outputs": [],
      "stateMutability": "nonpayable",
      "type": "function"
    },
    {
      "inputs": [
        {
          "internalType": "uint256",
          "name": "_fee",
          "type": "uint256"
        }
      ],
      "name": "updateCreationFee",
      "outputs": [],
      "stateMutability": "nonpayable",
      "type": "function"
    },
    {
      "inputs": [],
      "name": "withdraw",
      "outputs": [],
      "stateMutability": "nonpayable",
      "type": "function"
    },
    {
      "inputs": [
        {
          "internalType": "address",
          "name": "token",
          "type": "address"
        }
      ],
      "name": "withdrawToken",
      "outputs": [],
      "stateMutability": "nonpayable",
      "type": "function"
    },
    {
      "stateMutability": "payable",
      "type": "receive"
    }
  ],
  "bytecode": "0x6080604052670de0b6b3a76400006002556064600460006101000a81548160ff021916908360ff1602179055503480156200003957600080fd5b5033600073ffffffffffffffffffffffffffffffffffffffff168173ffffffffffffffffffffffffffffffffffffffff1603620000b05760006040517f1e4fbdf7000000000000000000000000000000000000000000000000000000008152600401620000a79190620001d1565b60405180910390fd5b620000c181620000c860201b60201c565b50620001ee565b60008060009054906101000a900473ffffffffffffffffffffffffffffffffffffffff169050816000806101000a81548173ffffffffffffffffffffffffffffffffffffffff021916908373ffffffffffffffffffffffffffffffffffffffff1602179055508173ffffffffffffffffffffffffffffffffffffffff168173ffffffffffffffffffffffffffffffffffffffff167f8be0079c531659141344cd1fd0a4f28419497f9722a3daafe3b4186f6b6457e060405160405180910390a35050565b600073ffffffffffffffffffffffffffffffffffffffff82169050919050565b6000620001b9826200018c565b9050919050565b620001cb81620001ac565b82525050565b6000602082019050620001e86000830184620001c0565b92915050565b612e6d80620001fe6000396000f3fe608060405260043610620000f75760003560e01c80638da5cb5b116200008b578063d5f63a061162000061578063d5f63a06146200030a578063dce0b4e4146200033a578063f2fde38b146200036a578063fcc31af0146200039857620000ff565b80638da5cb5b1462000252578063949938e914620002825780639f886f2614620002c657620000ff565b8063715018a611620000cd578063715018a614620001825780637f7825c5146200019c578063877a403914620001e057806389476069146200022457620000ff565b80633ccfd60b146200010457806353fa27a3146200011e5780636fa23795146200015457620000ff565b36620000ff57005b600080fd5b3480156200011157600080fd5b506200011c620003dc565b005b6200013c600480360381019062000136919062001230565b62000439565b6040516200014b9190620012db565b60405180910390f35b3480156200016157600080fd5b506200018060048036038101906200017a9190620012f8565b6200098c565b005b3480156200018f57600080fd5b506200019a620009a0565b005b348015620001a957600080fd5b50620001c86004803603810190620001c2919062001230565b620009b8565b604051620001d79190620013b3565b60405180910390f35b348015620001ed57600080fd5b506200020c6004803603810190620002069190620013d7565b62000a37565b6040516200021b91906200141a565b60405180910390f35b3480156200023157600080fd5b506200025060048036038101906200024a9190620013d7565b62000a83565b005b3480156200025f57600080fd5b506200026a62000b9b565b604051620002799190620012db565b60405180910390f35b3480156200028f57600080fd5b50620002ae6004803603810190620002a89190620013d7565b62000bc4565b604051620002bd919062001505565b60405180910390f35b348015620002d357600080fd5b50620002f26004803603810190620002ec9190620015f1565b62000c93565b604051620003019190620012db565b60405180910390f35b3480156200031757600080fd5b506200032262000cdf565b6040516200033191906200141a565b60405180910390f35b3480156200034757600080fd5b506200035262000ce5565b6040516200036191906200141a565b60405180910390f35b3480156200037757600080fd5b50620003966004803603810190620003909190620013d7565b62000ceb565b005b348015620003a557600080fd5b50620003c46004803603810190620003be919062001657565b62000d78565b604051620003d39190620012db565b60405180910390f35b620003e662000dc7565b620003f062000b9b565b73ffffffffffffffffffffffffffffffffffffffff166108fc479081150290604051600060405180830381858888f1935050505015801562000436573d6000803e3d6000fd5b50565b6000825182511462000482576040517f08c379a0000000000000000000000000000000000000000000000000000000008152600401620004799062001725565b60405180910390fd5b600460009054906101000a900460ff1660ff1682511115620004db576040517f08c379a0000000000000000000000000000000000000000000000000000000008152600401620004d290620017bd565b60405180910390fd5b6000805b83518110156200052457838181518110620004ff57620004fe620017df565b5b6020026020010151826200051491906200183d565b91508080600101915050620004df565b50600073ffffffffffffffffffffffffffffffffffffffff168573ffffffffffffffffffffffffffffffffffffffff1603620005b557806002546200056a91906200183d565b341015620005af576040517f08c379a0000000000000000000000000000000000000000000000000000000008152600401620005a690620018ee565b60405180910390fd5b62000682565b60008573ffffffffffffffffffffffffffffffffffffffff1663dd62ed3e33306040518363ffffffff1660e01b8152600401620005f492919062001910565b602060405180830381865afa15801562000612573d6000803e3d6000fd5b505050506040513d601f19601f8201168201806040525081019062000638919062001954565b90508181101562000680576040517f08c379a00000000000000000000000000000000000000000000000000000000081526004016200067790620019fc565b60405180910390fd5b505b60008073ffffffffffffffffffffffffffffffffffffffff168673ffffffffffffffffffffffffffffffffffffffff1614620006c0576000620006c2565b815b600160003373ffffffffffffffffffffffffffffffffffffffff1673ffffffffffffffffffffffffffffffffffffffff1681526020019081526020016000208054905060001b908787876040516200071a9062000f23565b620007289392919062001aec565b82906040518091039083f590509050801580156200074a573d6000803e3d6000fd5b509050600160003373ffffffffffffffffffffffffffffffffffffffff1673ffffffffffffffffffffffffffffffffffffffff168152602001908152602001600020819080600181540180825580915050600190039060005260206000200160009091909190916101000a81548173ffffffffffffffffffffffffffffffffffffffff021916908373ffffffffffffffffffffffffffffffffffffffff160217905550600073ffffffffffffffffffffffffffffffffffffffff168673ffffffffffffffffffffffffffffffffffffffff1614620008a9578573ffffffffffffffffffffffffffffffffffffffff166323b872dd3383856040518463ffffffff1660e01b8152600401620008619392919062001b37565b6020604051808303816000875af115801562000881573d6000803e3d6000fd5b505050506040513d601f19601f82011682018060405250810190620008a7919062001bb1565b505b8073ffffffffffffffffffffffffffffffffffffffff1663294402cc6040518163ffffffff1660e01b8152600401600060405180830381600087803b158015620008f257600080fd5b505af115801562000907573d6000803e3d6000fd5b505050508073ffffffffffffffffffffffffffffffffffffffff163373ffffffffffffffffffffffffffffffffffffffff167f6d1f96e538195eebc344e4fd73efd605a9cfdf73d3267009398ed160d33f193860405160405180910390a334600360008282546200097991906200183d565b9250508190555080925050509392505050565b6200099662000dc7565b8060028190555050565b620009aa62000dc7565b620009b6600062000e57565b565b6060600060405180602001620009ce9062000f23565b6020820181038252601f19601f82011660405250905080858585604051602001620009fc9392919062001aec565b60405160208183030381529060405260405160200162000a1e92919062001c25565b6040516020818303038152906040529150509392505050565b6000600160008373ffffffffffffffffffffffffffffffffffffffff1673ffffffffffffffffffffffffffffffffffffffff168152602001908152602001600020805490509050919050565b62000a8d62000dc7565b8073ffffffffffffffffffffffffffffffffffffffff1663a9059cbb62000ab362000b9b565b8373ffffffffffffffffffffffffffffffffffffffff166370a08231306040518263ffffffff1660e01b815260040162000aee9190620012db565b602060405180830381865afa15801562000b0c573d6000803e3d6000fd5b505050506040513d601f19601f8201168201806040525081019062000b32919062001954565b6040518363ffffffff1660e01b815260040162000b5192919062001c4d565b6020604051808303816000875af115801562000b71573d6000803e3d6000fd5b505050506040513d601f19601f8201168201806040525081019062000b97919062001bb1565b5050565b60008060009054906101000a900473ffffffffffffffffffffffffffffffffffffffff16905090565b6060600160008373ffffffffffffffffffffffffffffffffffffffff1673ffffffffffffffffffffffffffffffffffffffff16815260200190815260200160002080548060200260200160405190810160405280929190818152602001828054801562000c8757602002820191906000526020600020905b8160009054906101000a900473ffffffffffffffffffffffffffffffffffffffff1673ffffffffffffffffffffffffffffffffffffffff168152602001906001019080831162000c3c575b50505050509050919050565b60008060ff60f81b3084868051906020012060405160200162000cba949392919062001d6f565b6040516020818303038152906040528051906020012090508060001c91505092915050565b60035481565b60025481565b62000cf562000dc7565b600073ffffffffffffffffffffffffffffffffffffffff168173ffffffffffffffffffffffffffffffffffffffff160362000d6a5760006040517f1e4fbdf700000000000000000000000000000000000000000000000000000000815260040162000d619190620012db565b60405180910390fd5b62000d758162000e57565b50565b6001602052816000526040600020818154811062000d9557600080fd5b906000526020600020016000915091509054906101000a900473ffffffffffffffffffffffffffffffffffffffff1681565b62000dd162000f1b565b73ffffffffffffffffffffffffffffffffffffffff1662000df162000b9b565b73ffffffffffffffffffffffffffffffffffffffff161462000e555762000e1762000f1b565b6040517f118cdaa700000000000000000000000000000000000000000000000000000000815260040162000e4c9190620012db565b60405180910390fd5b565b60008060009054906101000a900473ffffffffffffffffffffffffffffffffffffffff169050816000806101000a81548173ffffffffffffffffffffffffffffffffffffffff021916908373ffffffffffffffffffffffffffffffffffffffff1602179055508173ffffffffffffffffffffffffffffffffffffffff168173ffffffffffffffffffffffffffffffffffffffff167f8be0079c531659141344cd1fd0a4f28419497f9722a3daafe3b4186f6b6457e060405160405180910390a35050565b600033905090565b6110728062001dc683390190565b6000604051905090565b600080fd5b600080fd5b600073ffffffffffffffffffffffffffffffffffffffff82169050919050565b600062000f728262000f45565b9050919050565b62000f848162000f65565b811462000f9057600080fd5b50565b60008135905062000fa48162000f79565b92915050565b600080fd5b6000601f19601f8301169050919050565b7f4e487b7100000000000000000000000000000000000000000000000000000000600052604160045260246000fd5b62000ffa8262000faf565b810181811067ffffffffffffffff821117156200101c576200101b62000fc0565b5b80604052505050565b60006200103162000f31565b90506200103f828262000fef565b919050565b600067ffffffffffffffff82111562001062576200106162000fc0565b5b602082029050602081019050919050565b600080fd5b60006200108f620010898462001044565b62001025565b90508083825260208201905060208402830185811115620010b557620010b462001073565b5b835b81811015620010e25780620010cd888262000f93565b845260208401935050602081019050620010b7565b5050509392505050565b600082601f83011262001104576200110362000faa565b5b81356200111684826020860162001078565b91505092915050565b600067ffffffffffffffff8211156200113d576200113c62000fc0565b5b602082029050602081019050919050565b6000819050919050565b62001163816200114e565b81146200116f57600080fd5b50565b600081359050620011838162001158565b92915050565b6000620011a06200119a846200111f565b62001025565b90508083825260208201905060208402830185811115620011c657620011c562001073565b5b835b81811015620011f35780620011de888262001172565b845260208401935050602081019050620011c8565b5050509392505050565b600082601f83011262001215576200121462000faa565b5b81356200122784826020860162001189565b91505092915050565b6000806000606084860312156200124c576200124b62000f3b565b5b60006200125c8682870162000f93565b935050602084013567ffffffffffffffff81111562001280576200127f62000f40565b5b6200128e86828701620010ec565b925050604084013567ffffffffffffffff811115620012b257620012b162000f40565b5b620012c086828701620011fd565b9150509250925092565b620012d58162000f65565b82525050565b6000602082019050620012f26000830184620012ca565b92915050565b60006020828403121562001311576200131062000f3b565b5b6000620013218482850162001172565b91505092915050565b600081519050919050565b600082825260208201905092915050565b60005b838110156200136657808201518184015260208101905062001349565b60008484015250505050565b60006200137f826200132a565b6200138b818562001335565b93506200139d81856020860162001346565b620013a88162000faf565b840191505092915050565b60006020820190508181036000830152620013cf818462001372565b905092915050565b600060208284031215620013f057620013ef62000f3b565b5b6000620014008482850162000f93565b91505092915050565b62001414816200114e565b82525050565b600060208201905062001431600083018462001409565b92915050565b600081519050919050565b600082825260208201905092915050565b6000819050602082019050919050565b6200146e8162000f65565b82525050565b600062001482838362001463565b60208301905092915050565b6000602082019050919050565b6000620014a88262001437565b620014b4818562001442565b9350620014c18362001453565b8060005b83811015620014f8578151620014dc888262001474565b9750620014e9836200148e565b925050600181019050620014c5565b5085935050505092915050565b600060208201905081810360008301526200152181846200149b565b905092915050565b600080fd5b600067ffffffffffffffff8211156200154c576200154b62000fc0565b5b620015578262000faf565b9050602081019050919050565b82818337600083830152505050565b60006200158a62001584846200152e565b62001025565b905082815260208101848484011115620015a957620015a862001529565b5b620015b684828562001564565b509392505050565b600082601f830112620015d657620015d562000faa565b5b8135620015e884826020860162001573565b91505092915050565b600080604083850312156200160b576200160a62000f3b565b5b600083013567ffffffffffffffff8111156200162c576200162b62000f40565b5b6200163a85828601620015be565b92505060206200164d8582860162001172565b9150509250929050565b6000806040838503121562001671576200167062000f3b565b5b6000620016818582860162000f93565b9250506020620016948582860162001172565b9150509250929050565b600082825260208201905092915050565b7f546872757374706164546f6b656e466163746f72793a20496e76616c6964206960008201527f6e70757400000000000000000000000000000000000000000000000000000000602082015250565b60006200170d6024836200169e565b91506200171a82620016af565b604082019050919050565b600060208201905081810360008301526200174081620016fe565b9050919050565b7f546872757374706164546f6b656e466163746f72793a20546f6f206d616e792060008201527f7265636569766572732070657220636f6e747261637400000000000000000000602082015250565b6000620017a56036836200169e565b9150620017b28262001747565b604082019050919050565b60006020820190508181036000830152620017d88162001796565b9050919050565b7f4e487b7100000000000000000000000000000000000000000000000000000000600052603260045260246000fd5b7f4e487b7100000000000000000000000000000000000000000000000000000000600052601160045260246000fd5b60006200184a826200114e565b915062001857836200114e565b92508282019050808211156200187257620018716200180e565b5b92915050565b7f546872757374706164546f6b656e466163746f72793a20496e7375666669636960008201527f656e742076616c75653a20666565202b20746f74616c20616d6f756e74000000602082015250565b6000620018d6603d836200169e565b9150620018e38262001878565b604082019050919050565b600060208201905081810360008301526200190981620018c7565b9050919050565b6000604082019050620019276000830185620012ca565b620019366020830184620012ca565b9392505050565b6000815190506200194e8162001158565b92915050565b6000602082840312156200196d576200196c62000f3b565b5b60006200197d848285016200193d565b91505092915050565b7f546872757374706164546f6b656e466163746f72793a20496e7375666669636960008201527f656e7420616c6c6f77616e636500000000000000000000000000000000000000602082015250565b6000620019e4602d836200169e565b9150620019f18262001986565b604082019050919050565b6000602082019050818103600083015262001a1781620019d5565b9050919050565b600081519050919050565b600082825260208201905092915050565b6000819050602082019050919050565b62001a55816200114e565b82525050565b600062001a69838362001a4a565b60208301905092915050565b6000602082019050919050565b600062001a8f8262001a1e565b62001a9b818562001a29565b935062001aa88362001a3a565b8060005b8381101562001adf57815162001ac3888262001a5b565b975062001ad08362001a75565b92505060018101905062001aac565b5085935050505092915050565b600060608201905062001b036000830186620012ca565b818103602083015262001b1781856200149b565b9050818103604083015262001b2d818462001a82565b9050949350505050565b600060608201905062001b4e6000830186620012ca565b62001b5d6020830185620012ca565b62001b6c604083018462001409565b949350505050565b60008115159050919050565b62001b8b8162001b74565b811462001b9757600080fd5b50565b60008151905062001bab8162001b80565b92915050565b60006020828403121562001bca5762001bc962000f3b565b5b600062001bda8482850162001b9a565b91505092915050565b600081905092915050565b600062001bfb826200132a565b62001c07818562001be3565b935062001c1981856020860162001346565b80840191505092915050565b600062001c33828562001bee565b915062001c41828462001bee565b91508190509392505050565b600060408201905062001c646000830185620012ca565b62001c73602083018462001409565b9392505050565b60007fff0000000000000000000000000000000000000000000000000000000000000082169050919050565b6000819050919050565b62001cc562001cbf8262001c7a565b62001ca6565b82525050565b60008160601b9050919050565b600062001ce58262001ccb565b9050919050565b600062001cf98262001cd8565b9050919050565b62001d1562001d0f8262000f65565b62001cec565b82525050565b6000819050919050565b62001d3a62001d34826200114e565b62001d1b565b82525050565b6000819050919050565b6000819050919050565b62001d6962001d638262001d40565b62001d4a565b82525050565b600062001d7d828762001cb0565b60018201915062001d8f828662001d00565b60148201915062001da1828562001d25565b60208201915062001db3828462001d54565b6020820191508190509594505050505056fe608060405260405162001072380380620010728339818101604052810190620000299190620005f0565b33600073ffffffffffffffffffffffffffffffffffffffff168173ffffffffffffffffffffffffffffffffffffffff16036200009f5760006040517f1e4fbdf70000000000000000000000000000000000000000000000000000000081526004016200009691906200069b565b60405180910390fd5b620000b0816200012d60201b60201c565b5082600160006101000a81548173ffffffffffffffffffffffffffffffffffffffff021916908373ffffffffffffffffffffffffffffffffffffffff16021790555081600290805190602001906200010a929190620001f1565b5080600390805190602001906200012392919062000280565b50505050620006b8565b60008060009054906101000a900473ffffffffffffffffffffffffffffffffffffffff169050816000806101000a81548173ffffffffffffffffffffffffffffffffffffffff021916908373ffffffffffffffffffffffffffffffffffffffff1602179055508173ffffffffffffffffffffffffffffffffffffffff168173ffffffffffffffffffffffffffffffffffffffff167f8be0079c531659141344cd1fd0a4f28419497f9722a3daafe3b4186f6b6457e060405160405180910390a35050565b8280548282559060005260206000209081019282156200026d579160200282015b828111156200026c5782518260006101000a81548173ffffffffffffffffffffffffffffffffffffffff021916908373ffffffffffffffffffffffffffffffffffffffff1602179055509160200191906001019062000212565b5b5090506200027c9190620002d2565b5090565b828054828255906000526020600020908101928215620002bf579160200282015b82811115620002be578251825591602001919060010190620002a1565b5b509050620002ce9190620002d2565b5090565b5b80821115620002ed576000816000905550600101620002d3565b5090565b6000604051905090565b600080fd5b600080fd5b600073ffffffffffffffffffffffffffffffffffffffff82169050919050565b6000620003328262000305565b9050919050565b620003448162000325565b81146200035057600080fd5b50565b600081519050620003648162000339565b92915050565b600080fd5b6000601f19601f8301169050919050565b7f4e487b7100000000000000000000000000000000000000000000000000000000600052604160045260246000fd5b620003ba826200036f565b810181811067ffffffffffffffff82111715620003dc57620003db62000380565b5b80604052505050565b6000620003f1620002f1565b9050620003ff8282620003af565b919050565b600067ffffffffffffffff82111562000422576200042162000380565b5b602082029050602081019050919050565b600080fd5b60006200044f620004498462000404565b620003e5565b9050808382526020820190506020840283018581111562000475576200047462000433565b5b835b81811015620004a257806200048d888262000353565b84526020840193505060208101905062000477565b5050509392505050565b600082601f830112620004c457620004c36200036a565b5b8151620004d684826020860162000438565b91505092915050565b600067ffffffffffffffff821115620004fd57620004fc62000380565b5b602082029050602081019050919050565b6000819050919050565b62000523816200050e565b81146200052f57600080fd5b50565b600081519050620005438162000518565b92915050565b6000620005606200055a84620004df565b620003e5565b9050808382526020820190506020840283018581111562000586576200058562000433565b5b835b81811015620005b357806200059e888262000532565b84526020840193505060208101905062000588565b5050509392505050565b600082601f830112620005d557620005d46200036a565b5b8151620005e784826020860162000549565b91505092915050565b6000806000606084860312156200060c576200060b620002fb565b5b60006200061c8682870162000353565b935050602084015167ffffffffffffffff81111562000640576200063f62000300565b5b6200064e86828701620004ac565b925050604084015167ffffffffffffffff81111562000672576200067162000300565b5b6200068086828701620005bd565b9150509250925092565b620006958162000325565b82525050565b6000602082019050620006b260008301846200068a565b92915050565b6109aa80620006c86000396000f3fe6080604052600436106100745760003560e01c80638da5cb5b1161004e5780638da5cb5b146100eb578063bfd772fc14610116578063f2fde38b14610153578063fc0c546a1461017c5761007b565b8063294402cc1461008057806345f0a44f14610097578063715018a6146100d45761007b565b3661007b57005b600080fd5b34801561008c57600080fd5b506100956101a7565b005b3480156100a357600080fd5b506100be60048036038101906100b991906107ab565b6104d1565b6040516100cb91906107e7565b60405180910390f35b3480156100e057600080fd5b506100e96104f5565b005b3480156100f757600080fd5b50610100610509565b60405161010d9190610843565b60405180910390f35b34801561012257600080fd5b5061013d600480360381019061013891906107ab565b610532565b60405161014a9190610843565b60405180910390f35b34801561015f57600080fd5b5061017a6004803603810190610175919061088a565b610571565b005b34801561018857600080fd5b506101916105f7565b60405161019e9190610843565b60405180910390f35b6101af61061d565b600073ffffffffffffffffffffffffffffffffffffffff16600160009054906101000a900473ffffffffffffffffffffffffffffffffffffffff1673ffffffffffffffffffffffffffffffffffffffff160361033f5760005b60028054905081101561033957600073ffffffffffffffffffffffffffffffffffffffff1660028281548110610241576102406108b7565b5b9060005260206000200160009054906101000a900473ffffffffffffffffffffffffffffffffffffffff1673ffffffffffffffffffffffffffffffffffffffff16031561032c576002818154811061029c5761029b6108b7565b5b9060005260206000200160009054906101000a900473ffffffffffffffffffffffffffffffffffffffff1673ffffffffffffffffffffffffffffffffffffffff166108fc600383815481106102f4576102f36108b7565b5b90600052602060002001549081150290604051600060405180830381858888f1935050505015801561032a573d6000803e3d6000fd5b505b8080600101915050610208565b506104cf565b60005b6002805490508110156104cd57600073ffffffffffffffffffffffffffffffffffffffff166002828154811061037b5761037a6108b7565b5b9060005260206000200160009054906101000a900473ffffffffffffffffffffffffffffffffffffffff1673ffffffffffffffffffffffffffffffffffffffff1603156104c057600160009054906101000a900473ffffffffffffffffffffffffffffffffffffffff1673ffffffffffffffffffffffffffffffffffffffff1663a9059cbb60028381548110610414576104136108b7565b5b9060005260206000200160009054906101000a900473ffffffffffffffffffffffffffffffffffffffff1660038481548110610453576104526108b7565b5b90600052602060002001546040518363ffffffff1660e01b815260040161047b9291906108e6565b6020604051808303816000875af115801561049a573d6000803e3d6000fd5b505050506040513d601f19601f820116820180604052508101906104be9190610947565b505b8080600101915050610342565b505b565b600381815481106104e157600080fd5b906000526020600020016000915090505481565b6104fd61061d565b61050760006106a4565b565b60008060009054906101000a900473ffffffffffffffffffffffffffffffffffffffff16905090565b6002818154811061054257600080fd5b906000526020600020016000915054906101000a900473ffffffffffffffffffffffffffffffffffffffff1681565b61057961061d565b600073ffffffffffffffffffffffffffffffffffffffff168173ffffffffffffffffffffffffffffffffffffffff16036105eb5760006040517f1e4fbdf70000000000000000000000000000000000000000000000000000000081526004016105e29190610843565b60405180910390fd5b6105f4816106a4565b50565b600160009054906101000a900473ffffffffffffffffffffffffffffffffffffffff1681565b610625610768565b73ffffffffffffffffffffffffffffffffffffffff16610643610509565b73ffffffffffffffffffffffffffffffffffffffff16146106a257610666610768565b6040517f118cdaa70000000000000000000000000000000000000000000000000000000081526004016106999190610843565b60405180910390fd5b565b60008060009054906101000a900473ffffffffffffffffffffffffffffffffffffffff169050816000806101000a81548173ffffffffffffffffffffffffffffffffffffffff021916908373ffffffffffffffffffffffffffffffffffffffff1602179055508173ffffffffffffffffffffffffffffffffffffffff168173ffffffffffffffffffffffffffffffffffffffff167f8be0079c531659141344cd1fd0a4f28419497f9722a3daafe3b4186f6b6457e060405160405180910390a35050565b600033905090565b600080fd5b6000819050919050565b61078881610775565b811461079357600080fd5b50565b6000813590506107a58161077f565b92915050565b6000602082840312156107c1576107c0610770565b5b60006107cf84828501610796565b91505092915050565b6107e181610775565b82525050565b60006020820190506107fc60008301846107d8565b92915050565b600073ffffffffffffffffffffffffffffffffffffffff82169050919050565b600061082d82610802565b9050919050565b61083d81610822565b82525050565b60006020820190506108586000830184610834565b92915050565b61086781610822565b811461087257600080fd5b50565b6000813590506108848161085e565b92915050565b6000602082840312156108a05761089f610770565b5b60006108ae84828501610875565b91505092915050565b7f4e487b7100000000000000000000000000000000000000000000000000000000600052603260045260246000fd5b60006040820190506108fb6000830185610834565b61090860208301846107d8565b9392505050565b60008115159050919050565b6109248161090f565b811461092f57600080fd5b50565b6000815190506109418161091b565b92915050565b60006020828403121561095d5761095c610770565b5b600061096b84828501610932565b9150509291505056fea26469706673582212203680893646fbb6b8aa3ca3c779db18e0352cab4f5c3e2590ce3ae011b9f1d1b764736f6c63430008180033a264697066735822122050a784840e560deff223d87c03903c29110dd4be45c6361b4425cb15d04ecbe664736f6c63430008180033",
  "linkReferences": {},
  "deployedLinkReferences": {}
}