{
  "_format": "hh-sol-artifact-1",
  "contractName": "ThrustpadToken",
  "sourceName": "contracts/token/ThrustpadToken.sol",
  "abi": [
    {
      "inputs": [
        {
          "internalType": "string",
          "name": "name",
          "type": "string"
        },
        {
          "internalType": "string",
          "name": "symbol",
          "type": "string"
        },
        {
          "internalType": "uint256",
          "name": "tokenDecimals",
          "type": "uint256"
        },
        {
          "internalType": "uint256",
          "name": "supply",
          "type": "uint256"
        },
        {
          "components": [
            {
              "internalType": "bool",
              "name": "mintable",
              "type": "bool"
            },
            {
              "internalType": "bool",
              "name": "pausable",
              "type": "bool"
            },
            {
              "internalType": "bool",
              "name": "burnable",
              "type": "bool"
            }
          ],
          "internalType": "struct LaunchType",
          "name": "_launchType",
          "type": "tuple"
        },
        {
          "internalType": "address",
          "name": "_owner",
          "type": "address"
        }
      ],
      "stateMutability": "nonpayable",
      "type": "constructor"
    },
    {
      "inputs": [
        {
          "internalType": "address",
          "name": "spender",
          "type": "address"
        },
        {
          "internalType": "uint256",
          "name": "allowance",
          "type": "uint256"
        },
        {
          "internalType": "uint256",
          "name": "needed",
          "type": "uint256"
        }
      ],
      "name": "ERC20InsufficientAllowance",
      "type": "error"
    },
    {
      "inputs": [
        {
          "internalType": "address",
          "name": "sender",
          "type": "address"
        },
        {
          "internalType": "uint256",
          "name": "balance",
          "type": "uint256"
        },
        {
          "internalType": "uint256",
          "name": "needed",
          "type": "uint256"
        }
      ],
      "name": "ERC20InsufficientBalance",
      "type": "error"
    },
    {
      "inputs": [
        {
          "internalType": "address",
          "name": "approver",
          "type": "address"
        }
      ],
      "name": "ERC20InvalidApprover",
      "type": "error"
    },
    {
      "inputs": [
        {
          "internalType": "address",
          "name": "receiver",
          "type": "address"
        }
      ],
      "name": "ERC20InvalidReceiver",
      "type": "error"
    },
    {
      "inputs": [
        {
          "internalType": "address",
          "name": "sender",
          "type": "address"
        }
      ],
      "name": "ERC20InvalidSender",
      "type": "error"
    },
    {
      "inputs": [
        {
          "internalType": "address",
          "name": "spender",
          "type": "address"
        }
      ],
      "name": "ERC20InvalidSpender",
      "type": "error"
    },
    {
      "inputs": [],
      "name": "EnforcedPause",
      "type": "error"
    },
    {
      "inputs": [],
      "name": "ExpectedPause",
      "type": "error"
    },
    {
      "inputs": [
        {
          "internalType": "address",
          "name": "owner",
          "type": "address"
        }
      ],
      "name": "OwnableInvalidOwner",
      "type": "error"
    },
    {
      "inputs": [
        {
          "internalType": "address",
          "name": "account",
          "type": "address"
        }
      ],
      "name": "OwnableUnauthorizedAccount",
      "type": "error"
    },
    {
      "anonymous": false,
      "inputs": [
        {
          "indexed": true,
          "internalType": "address",
          "name": "owner",
          "type": "address"
        },
        {
          "indexed": true,
          "internalType": "address",
          "name": "spender",
          "type": "address"
        },
        {
          "indexed": false,
          "internalType": "uint256",
          "name": "value",
          "type": "uint256"
        }
      ],
      "name": "Approval",
      "type": "event"
    },
    {
      "anonymous": false,
      "inputs": [
        {
          "indexed": true,
          "internalType": "address",
          "name": "previousOwner",
          "type": "address"
        },
        {
          "indexed": true,
          "internalType": "address",
          "name": "newOwner",
          "type": "address"
        }
      ],
      "name": "OwnershipTransferred",
      "type": "event"
    },
    {
      "anonymous": false,
      "inputs": [
        {
          "indexed": false,
          "internalType": "address",
          "name": "account",
          "type": "address"
        }
      ],
      "name": "Paused",
      "type": "event"
    },
    {
      "anonymous": false,
      "inputs": [
        {
          "indexed": true,
          "internalType": "address",
          "name": "from",
          "type": "address"
        },
        {
          "indexed": true,
          "internalType": "address",
          "name": "to",
          "type": "address"
        },
        {
          "indexed": false,
          "internalType": "uint256",
          "name": "value",
          "type": "uint256"
        }
      ],
      "name": "Transfer",
      "type": "event"
    },
    {
      "anonymous": false,
      "inputs": [
        {
          "indexed": false,
          "internalType": "address",
          "name": "account",
          "type": "address"
        }
      ],
      "name": "Unpaused",
      "type": "event"
    },
    {
      "inputs": [],
      "name": "_decimals",
      "outputs": [
        {
          "internalType": "uint256",
          "name": "",
          "type": "uint256"
        }
      ],
      "stateMutability": "view",
      "type": "function"
    },
    {
      "inputs": [
        {
          "internalType": "address",
          "name": "owner",
          "type": "address"
        },
        {
          "internalType": "address",
          "name": "spender",
          "type": "address"
        }
      ],
      "name": "allowance",
      "outputs": [
        {
          "internalType": "uint256",
          "name": "",
          "type": "uint256"
        }
      ],
      "stateMutability": "view",
      "type": "function"
    },
    {
      "inputs": [
        {
          "internalType": "address",
          "name": "spender",
          "type": "address"
        },
        {
          "internalType": "uint256",
          "name": "value",
          "type": "uint256"
        }
      ],
      "name": "approve",
      "outputs": [
        {
          "internalType": "bool",
          "name": "",
          "type": "bool"
        }
      ],
      "stateMutability": "nonpayable",
      "type": "function"
    },
    {
      "inputs": [
        {
          "internalType": "address",
          "name": "account",
          "type": "address"
        }
      ],
      "name": "balanceOf",
      "outputs": [
        {
          "internalType": "uint256",
          "name": "",
          "type": "uint256"
        }
      ],
      "stateMutability": "view",
      "type": "function"
    },
    {
      "inputs": [
        {
          "internalType": "uint256",
          "name": "amount",
          "type": "uint256"
        }
      ],
      "name": "burn",
      "outputs": [],
      "stateMutability": "nonpayable",
      "type": "function"
    },
    {
      "inputs": [
        {
          "internalType": "address",
          "name": "account",
          "type": "address"
        },
        {
          "internalType": "uint256",
          "name": "value",
          "type": "uint256"
        }
      ],
      "name": "burnFrom",
      "outputs": [],
      "stateMutability": "nonpayable",
      "type": "function"
    },
    {
      "inputs": [],
      "name": "decimals",
      "outputs": [
        {
          "internalType": "uint8",
          "name": "",
          "type": "uint8"
        }
      ],
      "stateMutability": "view",
      "type": "function"
    },
    {
      "inputs": [],
      "name": "launchType",
      "outputs": [
        {
          "internalType": "bool",
          "name": "mintable",
          "type": "bool"
        },
        {
          "internalType": "bool",
          "name": "pausable",
          "type": "bool"
        },
        {
          "internalType": "bool",
          "name": "burnable",
          "type": "bool"
        }
      ],
      "stateMutability": "view",
      "type": "function"
    },
    {
      "inputs": [
        {
          "internalType": "address",
          "name": "to",
          "type": "address"
        },
        {
          "internalType": "uint256",
          "name": "amount",
          "type": "uint256"
        }
      ],
      "name": "mint",
      "outputs": [],
      "stateMutability": "nonpayable",
      "type": "function"
    },
    {
      "inputs": [],
      "name": "name",
      "outputs": [
        {
          "internalType": "string",
          "name": "",
          "type": "string"
        }
      ],
      "stateMutability": "view",
      "type": "function"
    },
    {
      "inputs": [],
      "name": "owner",
      "outputs": [
        {
          "internalType": "address",
          "name": "",
          "type": "address"
        }
      ],
      "stateMutability": "view",
      "type": "function"
    },
    {
      "inputs": [],
      "name": "pause",
      "outputs": [],
      "stateMutability": "nonpayable",
      "type": "function"
    },
    {
      "inputs": [],
      "name": "paused",
      "outputs": [
        {
          "internalType": "bool",
          "name": "",
          "type": "bool"
        }
      ],
      "stateMutability": "view",
      "type": "function"
    },
    {
      "inputs": [],
      "name": "renounceOwnership",
      "outputs": [],
      "stateMutability": "nonpayable",
      "type": "function"
    },
    {
      "inputs": [],
      "name": "symbol",
      "outputs": [
        {
          "internalType": "string",
          "name": "",
          "type": "string"
        }
      ],
      "stateMutability": "view",
      "type": "function"
    },
    {
      "inputs": [],
      "name": "totalSupply",
      "outputs": [
        {
          "internalType": "uint256",
          "name": "",
          "type": "uint256"
        }
      ],
      "stateMutability": "view",
      "type": "function"
    },
    {
      "inputs": [
        {
          "internalType": "address",
          "name": "to",
          "type": "address"
        },
        {
          "internalType": "uint256",
          "name": "value",
          "type": "uint256"
        }
      ],
      "name": "transfer",
      "outputs": [
        {
          "internalType": "bool",
          "name": "",
          "type": "bool"
        }
      ],
      "stateMutability": "nonpayable",
      "type": "function"
    },
    {
      "inputs": [
        {
          "internalType": "address",
          "name": "from",
          "type": "address"
        },
        {
          "internalType": "address",
          "name": "to",
          "type": "address"
        },
        {
          "internalType": "uint256",
          "name": "value",
          "type": "uint256"
        }
      ],
      "name": "transferFrom",
      "outputs": [
        {
          "internalType": "bool",
          "name": "",
          "type": "bool"
        }
      ],
      "stateMutability": "nonpayable",
      "type": "function"
    },
    {
      "inputs": [
        {
          "internalType": "address",
          "name": "newOwner",
          "type": "address"
        }
      ],
      "name": "transferOwnership",
      "outputs": [],
      "stateMutability": "nonpayable",
      "type": "function"
    },
    {
      "inputs": [],
      "name": "unpause",
      "outputs": [],
      "stateMutability": "nonpayable",
      "type": "function"
    }
  ],
  "bytecode": "0x604060808152346200051d5762001364803803806200001e8162000522565b9283398101908082039161010083126200051d5781516001600160401b0393908481116200051d57826200005491850162000548565b9160209081850151908682116200051d576200007291860162000548565b868501519360608087015194607f1901126200051d5787519460608601868110898211176200040e578952620000ab60808801620005ba565b8652620000bb60a08801620005ba565b9784870198895260e0620000d260c08a01620005ba565b888c01908152980151926001600160a01b03808516929091908386036200051d5781518181116200040e576003908154906001948583811c9316801562000512575b8c841014620004fc5781908c601f94858111620004a3575b50508c90848311600114620004305760009262000424575b505060001982851b1c191690851b1782555b88519283116200040e5760049889548581811c9116801562000403575b8c821014620003ee5780838d9211620003a1575b50508a918411600114620003345793839491849260009562000328575b50501b92600019911b1c19161785555b60055493821562000311576001600160a81b03198516600891821b610100600160a81b0316176005558b5194901c167f8be0079c531659141344cd1fd0a4f28419497f9722a3daafe3b4186f6b6457e0600080a380600755604d8111620002fc57600a0a93848102948186041490151715620002e7573215620002d3575060025490838201809211620002be57506000917fddf252ad1be2c89b69c2b068fc378daa952ba7f163c4a11628f55a4df523b3ef9160025532835282815287832084815401905587519384523293a35115159160ff62ff000061ff006006549351151560081b169351151560101b1693169062ffffff191617171760065551610d9b9081620005c98239f35b601190634e487b7160e01b6000525260246000fd5b600060249263ec442f0560e01b8352820152fd5b601182634e487b7160e01b6000525260246000fd5b601183634e487b7160e01b6000525260246000fd5b8b51631e4fbdf760e01b8152600081880152602490fd5b015193503880620001a4565b9190601f198416928a600052848c600020948d6000905b898383106200038857505050106200036d575b50505050811b018555620001b4565b01519060f884600019921b161c19169055388080806200035e565b8686015189559097019694850194889350018e6200034b565b8b60005283826000209181880160051c8301938810620003e4575b0160051c019086905b828110620003d757508c915062000187565b60008155018690620003c5565b92508192620003bc565b60228b634e487b7160e01b6000525260246000fd5b90607f169062000173565b634e487b7160e01b600052604160045260246000fd5b01519050388062000144565b879350908d91601f1984168760005283600020936000905b82821062000481575050841162000468575b505050811b01825562000156565b015160001983871b60f8161c191690553880806200045a565b91929395968291958786015181550195019301908f918a969594939262000448565b909192508560005284826000209181860160051c8301938610620004f2575b918991869594930160051c01915b828110620004e257508e91506200012c565b60008155859450899101620004d0565b92508192620004c2565b634e487b7160e01b600052602260045260246000fd5b92607f169262000114565b600080fd5b6040519190601f01601f191682016001600160401b038111838210176200040e57604052565b919080601f840112156200051d5782516001600160401b0381116200040e576020906200057e601f8201601f1916830162000522565b928184528282870101116200051d5760005b818110620005a657508260009394955001015290565b858101830151848201840152820162000590565b519081151582036200051d5756fe6080604081815260048036101561001557600080fd5b600092833560e01c90816306fdde031461089d57508063095ea7b3146107f657806318160ddd146107d757806323b872dd1461079a578063313ce5671461077857806332424aa3146107595780633f4ba83a146106c157806340c10f19146105b857806342966c68146105445780635c975abb1461052057806370a08231146104ea578063715018a61461047e57806379cc6790146104485780638456cb59146103d75780638da5cb5b146103ac578063900621521461036e57806395d89b411461024c578063a9059cbb1461021b578063dd62ed3e146101ce5763f2fde38b146100ff57600080fd5b346101ca5760203660031901126101ca576101186109dd565b610120610c41565b6001600160a01b039182821693841561019b57505074ffffffffffffffffffffffffffffffffffffffff006005549160081b1674ffffffffffffffffffffffffffffffffffffffff001982161760055560081c167f8be0079c531659141344cd1fd0a4f28419497f9722a3daafe3b4186f6b6457e08380a380f35b908560249251917f1e4fbdf7000000000000000000000000000000000000000000000000000000008352820152fd5b8280fd5b505034610217578060031936011261021757806020926101ec6109dd565b6101f46109f8565b6001600160a01b0391821683526001865283832091168252845220549051908152f35b5080fd5b50503461021757806003193601126102175760209061024561023b6109dd565b6024359033610b44565b5160018152f35b5091903461021757816003193601126102175780519082845460018160011c9060018316928315610364575b60209384841081146103515783885290811561033557506001146102e0575b505050829003601f01601f191682019267ffffffffffffffff8411838510176102cd57508291826102c9925282610994565b0390f35b80604186634e487b7160e01b6024945252fd5b8787529192508591837f8a35acfbc15ff81a39ae7d344fd709f28e8600b4aa8c65c6b64bfe7fe36bd19b5b8385106103215750505050830101388080610297565b80548886018301529301928490820161030b565b60ff1916878501525050151560051b8401019050388080610297565b60248960228c634e487b7160e01b835252fd5b91607f1691610278565b5050346102175781600319360112610217576060906006549060ff81519281811615158452818160081c161515602085015260101c16151590820152f35b5050346102175781600319360112610217576020906001600160a01b0360055460081c169051908152f35b50503461021757816003193601126102175760207f62e78cea01bee320cd4e420270b5ea74000d11b0c9f74754ebdbfc544b05a25891610415610c41565b61042b600160ff60065460081c16151514610a0e565b610433610d2f565b600160ff19600554161760055551338152a180f35b5050346102175736600319011261047b576104786104646109dd565b60243590610473823383610a59565b610c88565b80f35b80fd5b833461047b578060031936011261047b57610497610c41565b806001600160a01b0360055474ffffffffffffffffffffffffffffffffffffffff0019811660055560081c167f8be0079c531659141344cd1fd0a4f28419497f9722a3daafe3b4186f6b6457e08280a380f35b50503461021757602036600319011261021757806020926001600160a01b036105116109dd565b16815280845220549051908152f35b50503461021757816003193601126102175760209060ff6005541690519015158152f35b5090346101ca5760203660031901126101ca57600160ff60065460101c161515036105755750610478903533610c88565b906020606492519162461bcd60e51b8352820152601360248201527f6275726e696e672069732064697361626c6564000000000000000000000000006044820152fd5b5090346101ca57806003193601126101ca576105d26109dd565b90602435916105df610c41565b600160ff6006541615150361067e576001600160a01b031692831561066957610606610d2f565b60025490838201809211610656575084927fddf252ad1be2c89b69c2b068fc378daa952ba7f163c4a11628f55a4df523b3ef9260209260025585855284835280852082815401905551908152a380f35b856011602492634e487b7160e01b835252fd5b84602492519163ec442f0560e01b8352820152fd5b606484602084519162461bcd60e51b8352820152601360248201527f6d696e74696e672069732064697361626c6564000000000000000000000000006044820152fd5b50346101ca57826003193601126101ca576106da610c41565b6106f0600160ff60065460081c16151514610a0e565b6005549060ff821615610732575060ff1916600555513381527f5db9ee0a495bf2e6ff9c91a7834c1ba4fdd244a5e8aa4e537bd38aeae4b073aa90602090a180f35b82517f8dfc202b000000000000000000000000000000000000000000000000000000008152fd5b5050346102175781600319360112610217576020906007549051908152f35b50503461021757816003193601126102175760209060ff600754169051908152f35b505034610217576060366003190112610217576020906102456107bb6109dd565b6107c36109f8565b604435916107d2833383610a59565b610b44565b5050346102175781600319360112610217576020906002549051908152f35b50346101ca57816003193601126101ca5761080f6109dd565b602435903315610887576001600160a01b031691821561087157508083602095338152600187528181208582528752205582519081527f8c5be1e5ebec7d5bd14f71427d1e84f3dd0314c0f7b2291e5b200ac8c7c3b925843392a35160018152f35b60249085855191634a1406b160e11b8352820152fd5b6024838686519163e602df0560e01b8352820152fd5b84915083346101ca57826003193601126101ca578260035460018160011c906001831692831561098a575b60209384841081146103515783885290811561096e575060011461091857505050829003601f01601f191682019267ffffffffffffffff8411838510176102cd57508291826102c9925282610994565b600387529192508591837fc2575a0e9e593c00f959f8c92f12db2869c3395a3b0502d05e2516446f71f85b5b83851061095a5750505050830101858080610297565b805488860183015293019284908201610944565b60ff1916878501525050151560051b8401019050858080610297565b91607f16916108c8565b6020808252825181830181905290939260005b8281106109c957505060409293506000838284010152601f8019910116010190565b8181018601518482016040015285016109a7565b600435906001600160a01b03821682036109f357565b600080fd5b602435906001600160a01b03821682036109f357565b15610a1557565b606460405162461bcd60e51b815260206004820152601360248201527f70617573696e672069732064697361626c6564000000000000000000000000006044820152fd5b916001600160a01b038093169160009383855260016020526040938486209183169182875260205284862054926000198403610a99575b50505050505050565b848410610afb57508015610ae4578115610acd57855260016020528385209085526020520391205538808080808080610a90565b602486865190634a1406b160e11b82526004820152fd5b60248686519063e602df0560e01b82526004820152fd5b85517ffb8f41b20000000000000000000000000000000000000000000000000000000081526001600160a01b039190911660048201526024810184905260448101859052606490fd5b916001600160a01b03808416928315610c105716928315610bf857610b67610d2f565b60009083825281602052604082205490838210610bc6575091604082827fddf252ad1be2c89b69c2b068fc378daa952ba7f163c4a11628f55a4df523b3ef958760209652828652038282205586815220818154019055604051908152a3565b60405163391434e360e21b81526001600160a01b03919091166004820152602481019190915260448101839052606490fd5b602460405163ec442f0560e01b815260006004820152fd5b60246040517f96c6fd1e00000000000000000000000000000000000000000000000000000000815260006004820152fd5b6001600160a01b0360055460081c163303610c5857565b60246040517f118cdaa7000000000000000000000000000000000000000000000000000000008152336004820152fd5b906001600160a01b038216908115610c1057610ca2610d2f565b60009282845283602052604084205490828210610cfd5750817fddf252ad1be2c89b69c2b068fc378daa952ba7f163c4a11628f55a4df523b3ef926020928587528684520360408620558060025403600255604051908152a3565b60405163391434e360e21b81526001600160a01b03919091166004820152602481019190915260448101829052606490fd5b60ff60055416610d3b57565b60046040517fd93c0665000000000000000000000000000000000000000000000000000000008152fdfea2646970667358221220774bb7ec3adb78aed8772b6cd248d6aeced819b01e27a88fbbe3fd075ddf93c764736f6c63430008180033",
  "linkReferences": {},
  "deployedLinkReferences": {}
}