{
  "_format": "hh-sol-artifact-1",
  "contractName": "ThrustpadToken",
  "sourceName": "contracts/token/ThrustpadToken.sol",
  "abi": [
    {
      "inputs": [
        {
          "internalType": "string",
          "name": "name",
          "type": "string"
        },
        {
          "internalType": "string",
          "name": "symbol",
          "type": "string"
        },
        {
          "internalType": "uint256",
          "name": "decimals",
          "type": "uint256"
        },
        {
          "internalType": "uint256",
          "name": "supply",
          "type": "uint256"
        },
        {
          "components": [
            {
              "internalType": "bool",
              "name": "mintable",
              "type": "bool"
            },
            {
              "internalType": "bool",
              "name": "pausable",
              "type": "bool"
            },
            {
              "internalType": "bool",
              "name": "renounce",
              "type": "bool"
            }
          ],
          "internalType": "struct LaunchType",
          "name": "_launchType",
          "type": "tuple"
        }
      ],
      "stateMutability": "nonpayable",
      "type": "constructor"
    },
    {
      "inputs": [
        {
          "internalType": "address",
          "name": "spender",
          "type": "address"
        },
        {
          "internalType": "uint256",
          "name": "allowance",
          "type": "uint256"
        },
        {
          "internalType": "uint256",
          "name": "needed",
          "type": "uint256"
        }
      ],
      "name": "ERC20InsufficientAllowance",
      "type": "error"
    },
    {
      "inputs": [
        {
          "internalType": "address",
          "name": "sender",
          "type": "address"
        },
        {
          "internalType": "uint256",
          "name": "balance",
          "type": "uint256"
        },
        {
          "internalType": "uint256",
          "name": "needed",
          "type": "uint256"
        }
      ],
      "name": "ERC20InsufficientBalance",
      "type": "error"
    },
    {
      "inputs": [
        {
          "internalType": "address",
          "name": "approver",
          "type": "address"
        }
      ],
      "name": "ERC20InvalidApprover",
      "type": "error"
    },
    {
      "inputs": [
        {
          "internalType": "address",
          "name": "receiver",
          "type": "address"
        }
      ],
      "name": "ERC20InvalidReceiver",
      "type": "error"
    },
    {
      "inputs": [
        {
          "internalType": "address",
          "name": "sender",
          "type": "address"
        }
      ],
      "name": "ERC20InvalidSender",
      "type": "error"
    },
    {
      "inputs": [
        {
          "internalType": "address",
          "name": "spender",
          "type": "address"
        }
      ],
      "name": "ERC20InvalidSpender",
      "type": "error"
    },
    {
      "inputs": [],
      "name": "EnforcedPause",
      "type": "error"
    },
    {
      "inputs": [],
      "name": "ExpectedPause",
      "type": "error"
    },
    {
      "inputs": [
        {
          "internalType": "address",
          "name": "owner",
          "type": "address"
        }
      ],
      "name": "OwnableInvalidOwner",
      "type": "error"
    },
    {
      "inputs": [
        {
          "internalType": "address",
          "name": "account",
          "type": "address"
        }
      ],
      "name": "OwnableUnauthorizedAccount",
      "type": "error"
    },
    {
      "anonymous": false,
      "inputs": [
        {
          "indexed": true,
          "internalType": "address",
          "name": "owner",
          "type": "address"
        },
        {
          "indexed": true,
          "internalType": "address",
          "name": "spender",
          "type": "address"
        },
        {
          "indexed": false,
          "internalType": "uint256",
          "name": "value",
          "type": "uint256"
        }
      ],
      "name": "Approval",
      "type": "event"
    },
    {
      "anonymous": false,
      "inputs": [
        {
          "indexed": true,
          "internalType": "address",
          "name": "previousOwner",
          "type": "address"
        },
        {
          "indexed": true,
          "internalType": "address",
          "name": "newOwner",
          "type": "address"
        }
      ],
      "name": "OwnershipTransferred",
      "type": "event"
    },
    {
      "anonymous": false,
      "inputs": [
        {
          "indexed": false,
          "internalType": "address",
          "name": "account",
          "type": "address"
        }
      ],
      "name": "Paused",
      "type": "event"
    },
    {
      "anonymous": false,
      "inputs": [
        {
          "indexed": true,
          "internalType": "address",
          "name": "from",
          "type": "address"
        },
        {
          "indexed": true,
          "internalType": "address",
          "name": "to",
          "type": "address"
        },
        {
          "indexed": false,
          "internalType": "uint256",
          "name": "value",
          "type": "uint256"
        }
      ],
      "name": "Transfer",
      "type": "event"
    },
    {
      "anonymous": false,
      "inputs": [
        {
          "indexed": false,
          "internalType": "address",
          "name": "account",
          "type": "address"
        }
      ],
      "name": "Unpaused",
      "type": "event"
    },
    {
      "inputs": [
        {
          "internalType": "address",
          "name": "owner",
          "type": "address"
        },
        {
          "internalType": "address",
          "name": "spender",
          "type": "address"
        }
      ],
      "name": "allowance",
      "outputs": [
        {
          "internalType": "uint256",
          "name": "",
          "type": "uint256"
        }
      ],
      "stateMutability": "view",
      "type": "function"
    },
    {
      "inputs": [
        {
          "internalType": "address",
          "name": "spender",
          "type": "address"
        },
        {
          "internalType": "uint256",
          "name": "value",
          "type": "uint256"
        }
      ],
      "name": "approve",
      "outputs": [
        {
          "internalType": "bool",
          "name": "",
          "type": "bool"
        }
      ],
      "stateMutability": "nonpayable",
      "type": "function"
    },
    {
      "inputs": [
        {
          "internalType": "address",
          "name": "account",
          "type": "address"
        }
      ],
      "name": "balanceOf",
      "outputs": [
        {
          "internalType": "uint256",
          "name": "",
          "type": "uint256"
        }
      ],
      "stateMutability": "view",
      "type": "function"
    },
    {
      "inputs": [
        {
          "internalType": "uint256",
          "name": "value",
          "type": "uint256"
        }
      ],
      "name": "burn",
      "outputs": [],
      "stateMutability": "nonpayable",
      "type": "function"
    },
    {
      "inputs": [
        {
          "internalType": "address",
          "name": "account",
          "type": "address"
        },
        {
          "internalType": "uint256",
          "name": "value",
          "type": "uint256"
        }
      ],
      "name": "burnFrom",
      "outputs": [],
      "stateMutability": "nonpayable",
      "type": "function"
    },
    {
      "inputs": [],
      "name": "decimals",
      "outputs": [
        {
          "internalType": "uint8",
          "name": "",
          "type": "uint8"
        }
      ],
      "stateMutability": "view",
      "type": "function"
    },
    {
      "inputs": [],
      "name": "launchType",
      "outputs": [
        {
          "internalType": "bool",
          "name": "mintable",
          "type": "bool"
        },
        {
          "internalType": "bool",
          "name": "pausable",
          "type": "bool"
        },
        {
          "internalType": "bool",
          "name": "renounce",
          "type": "bool"
        }
      ],
      "stateMutability": "view",
      "type": "function"
    },
    {
      "inputs": [
        {
          "internalType": "address",
          "name": "to",
          "type": "address"
        },
        {
          "internalType": "uint256",
          "name": "amount",
          "type": "uint256"
        }
      ],
      "name": "mint",
      "outputs": [],
      "stateMutability": "nonpayable",
      "type": "function"
    },
    {
      "inputs": [],
      "name": "name",
      "outputs": [
        {
          "internalType": "string",
          "name": "",
          "type": "string"
        }
      ],
      "stateMutability": "view",
      "type": "function"
    },
    {
      "inputs": [],
      "name": "owner",
      "outputs": [
        {
          "internalType": "address",
          "name": "",
          "type": "address"
        }
      ],
      "stateMutability": "view",
      "type": "function"
    },
    {
      "inputs": [],
      "name": "pause",
      "outputs": [],
      "stateMutability": "nonpayable",
      "type": "function"
    },
    {
      "inputs": [],
      "name": "paused",
      "outputs": [
        {
          "internalType": "bool",
          "name": "",
          "type": "bool"
        }
      ],
      "stateMutability": "view",
      "type": "function"
    },
    {
      "inputs": [],
      "name": "renounceOwnership",
      "outputs": [],
      "stateMutability": "nonpayable",
      "type": "function"
    },
    {
      "inputs": [],
      "name": "symbol",
      "outputs": [
        {
          "internalType": "string",
          "name": "",
          "type": "string"
        }
      ],
      "stateMutability": "view",
      "type": "function"
    },
    {
      "inputs": [],
      "name": "totalSupply",
      "outputs": [
        {
          "internalType": "uint256",
          "name": "",
          "type": "uint256"
        }
      ],
      "stateMutability": "view",
      "type": "function"
    },
    {
      "inputs": [
        {
          "internalType": "address",
          "name": "to",
          "type": "address"
        },
        {
          "internalType": "uint256",
          "name": "value",
          "type": "uint256"
        }
      ],
      "name": "transfer",
      "outputs": [
        {
          "internalType": "bool",
          "name": "",
          "type": "bool"
        }
      ],
      "stateMutability": "nonpayable",
      "type": "function"
    },
    {
      "inputs": [
        {
          "internalType": "address",
          "name": "from",
          "type": "address"
        },
        {
          "internalType": "address",
          "name": "to",
          "type": "address"
        },
        {
          "internalType": "uint256",
          "name": "value",
          "type": "uint256"
        }
      ],
      "name": "transferFrom",
      "outputs": [
        {
          "internalType": "bool",
          "name": "",
          "type": "bool"
        }
      ],
      "stateMutability": "nonpayable",
      "type": "function"
    },
    {
      "inputs": [
        {
          "internalType": "address",
          "name": "newOwner",
          "type": "address"
        }
      ],
      "name": "transferOwnership",
      "outputs": [],
      "stateMutability": "nonpayable",
      "type": "function"
    },
    {
      "inputs": [],
      "name": "unpause",
      "outputs": [],
      "stateMutability": "nonpayable",
      "type": "function"
    }
  ],
  "bytecode": "0x60806040523480156200001157600080fd5b50604051620027d4380380620027d4833981810160405281019062000037919062000965565b33858581600390816200004b919062000c6c565b5080600490816200005d919062000c6c565b5050506000600560006101000a81548160ff021916908315150217905550600073ffffffffffffffffffffffffffffffffffffffff168173ffffffffffffffffffffffffffffffffffffffff1603620000f05760006040517f1e4fbdf7000000000000000000000000000000000000000000000000000000008152600401620000e7919062000d98565b60405180910390fd5b6200010181620001ca60201b60201c565b506200012f3384600a62000116919062000f38565b8462000123919062000f89565b6200029060201b60201c565b80600660008201518160000160006101000a81548160ff02191690831515021790555060208201518160000160016101000a81548160ff02191690831515021790555060408201518160000160026101000a81548160ff021916908315150217905550905050600660000160029054906101000a900460ff1615620001bf57620001be6200031d60201b60201c565b5b50505050506200107a565b6000600560019054906101000a900473ffffffffffffffffffffffffffffffffffffffff16905081600560016101000a81548173ffffffffffffffffffffffffffffffffffffffff021916908373ffffffffffffffffffffffffffffffffffffffff1602179055508173ffffffffffffffffffffffffffffffffffffffff168173ffffffffffffffffffffffffffffffffffffffff167f8be0079c531659141344cd1fd0a4f28419497f9722a3daafe3b4186f6b6457e060405160405180910390a35050565b600073ffffffffffffffffffffffffffffffffffffffff168273ffffffffffffffffffffffffffffffffffffffff1603620003055760006040517fec442f05000000000000000000000000000000000000000000000000000000008152600401620002fc919062000d98565b60405180910390fd5b62000319600083836200034160201b60201c565b5050565b6200032d6200035960201b60201c565b6200033f6000620001ca60201b60201c565b565b62000354838383620003fb60201b60201c565b505050565b620003696200042360201b60201c565b73ffffffffffffffffffffffffffffffffffffffff166200038f6200042b60201b60201c565b73ffffffffffffffffffffffffffffffffffffffff1614620003f957620003bb6200042360201b60201c565b6040517f118cdaa7000000000000000000000000000000000000000000000000000000008152600401620003f0919062000d98565b60405180910390fd5b565b6200040b6200045560201b60201c565b6200041e8383836200049f60201b60201c565b505050565b600033905090565b6000600560019054906101000a900473ffffffffffffffffffffffffffffffffffffffff16905090565b62000465620006cf60201b60201c565b156200049d576040517fd93c066500000000000000000000000000000000000000000000000000000000815260040160405180910390fd5b565b600073ffffffffffffffffffffffffffffffffffffffff168373ffffffffffffffffffffffffffffffffffffffff1603620004f5578060026000828254620004e8919062000fd4565b92505081905550620005cb565b60008060008573ffffffffffffffffffffffffffffffffffffffff1673ffffffffffffffffffffffffffffffffffffffff1681526020019081526020016000205490508181101562000584578381836040517fe450d38c0000000000000000000000000000000000000000000000000000000081526004016200057b9392919062001020565b60405180910390fd5b8181036000808673ffffffffffffffffffffffffffffffffffffffff1673ffffffffffffffffffffffffffffffffffffffff16815260200190815260200160002081905550505b600073ffffffffffffffffffffffffffffffffffffffff168273ffffffffffffffffffffffffffffffffffffffff160362000616578060026000828254039250508190555062000663565b806000808473ffffffffffffffffffffffffffffffffffffffff1673ffffffffffffffffffffffffffffffffffffffff168152602001908152602001600020600082825401925050819055505b8173ffffffffffffffffffffffffffffffffffffffff168373ffffffffffffffffffffffffffffffffffffffff167fddf252ad1be2c89b69c2b068fc378daa952ba7f163c4a11628f55a4df523b3ef83604051620006c291906200105d565b60405180910390a3505050565b6000600560009054906101000a900460ff16905090565b6000604051905090565b600080fd5b600080fd5b600080fd5b600080fd5b6000601f19601f8301169050919050565b7f4e487b7100000000000000000000000000000000000000000000000000000000600052604160045260246000fd5b6200074f8262000704565b810181811067ffffffffffffffff8211171562000771576200077062000715565b5b80604052505050565b600062000786620006e6565b905062000794828262000744565b919050565b600067ffffffffffffffff821115620007b757620007b662000715565b5b620007c28262000704565b9050602081019050919050565b60005b83811015620007ef578082015181840152602081019050620007d2565b60008484015250505050565b6000620008126200080c8462000799565b6200077a565b905082815260208101848484011115620008315762000830620006ff565b5b6200083e848285620007cf565b509392505050565b600082601f8301126200085e576200085d620006fa565b5b815162000870848260208601620007fb565b91505092915050565b6000819050919050565b6200088e8162000879565b81146200089a57600080fd5b50565b600081519050620008ae8162000883565b92915050565b600080fd5b60008115159050919050565b620008d081620008b9565b8114620008dc57600080fd5b50565b600081519050620008f081620008c5565b92915050565b6000606082840312156200090f576200090e620008b4565b5b6200091b60606200077a565b905060006200092d84828501620008df565b60008301525060206200094384828501620008df565b60208301525060406200095984828501620008df565b60408301525092915050565b600080600080600060e08688031215620009845762000983620006f0565b5b600086015167ffffffffffffffff811115620009a557620009a4620006f5565b5b620009b38882890162000846565b955050602086015167ffffffffffffffff811115620009d757620009d6620006f5565b5b620009e58882890162000846565b9450506040620009f8888289016200089d565b935050606062000a0b888289016200089d565b925050608062000a1e88828901620008f6565b9150509295509295909350565b600081519050919050565b7f4e487b7100000000000000000000000000000000000000000000000000000000600052602260045260246000fd5b6000600282049050600182168062000a7e57607f821691505b60208210810362000a945762000a9362000a36565b5b50919050565b60008190508160005260206000209050919050565b60006020601f8301049050919050565b600082821b905092915050565b60006008830262000afe7fffffffffffffffffffffffffffffffffffffffffffffffffffffffffffffffff8262000abf565b62000b0a868362000abf565b95508019841693508086168417925050509392505050565b6000819050919050565b600062000b4d62000b4762000b418462000879565b62000b22565b62000879565b9050919050565b6000819050919050565b62000b698362000b2c565b62000b8162000b788262000b54565b84845462000acc565b825550505050565b600090565b62000b9862000b89565b62000ba581848462000b5e565b505050565b5b8181101562000bcd5762000bc160008262000b8e565b60018101905062000bab565b5050565b601f82111562000c1c5762000be68162000a9a565b62000bf18462000aaf565b8101602085101562000c01578190505b62000c1962000c108562000aaf565b83018262000baa565b50505b505050565b600082821c905092915050565b600062000c416000198460080262000c21565b1980831691505092915050565b600062000c5c838362000c2e565b9150826002028217905092915050565b62000c778262000a2b565b67ffffffffffffffff81111562000c935762000c9262000715565b5b62000c9f825462000a65565b62000cac82828562000bd1565b600060209050601f83116001811462000ce4576000841562000ccf578287015190505b62000cdb858262000c4e565b86555062000d4b565b601f19841662000cf48662000a9a565b60005b8281101562000d1e5784890151825560018201915060208501945060208101905062000cf7565b8683101562000d3e578489015162000d3a601f89168262000c2e565b8355505b6001600288020188555050505b505050505050565b600073ffffffffffffffffffffffffffffffffffffffff82169050919050565b600062000d808262000d53565b9050919050565b62000d928162000d73565b82525050565b600060208201905062000daf600083018462000d87565b92915050565b7f4e487b7100000000000000000000000000000000000000000000000000000000600052601160045260246000fd5b60008160011c9050919050565b6000808291508390505b600185111562000e435780860481111562000e1b5762000e1a62000db5565b5b600185161562000e2b5780820291505b808102905062000e3b8562000de4565b945062000dfb565b94509492505050565b60008262000e5e576001905062000f31565b8162000e6e576000905062000f31565b816001811462000e87576002811462000e925762000ec8565b600191505062000f31565b60ff84111562000ea75762000ea662000db5565b5b8360020a91508482111562000ec15762000ec062000db5565b5b5062000f31565b5060208310610133831016604e8410600b841016171562000f025782820a90508381111562000efc5762000efb62000db5565b5b62000f31565b62000f11848484600162000df1565b9250905081840481111562000f2b5762000f2a62000db5565b5b81810290505b9392505050565b600062000f458262000879565b915062000f528362000879565b925062000f817fffffffffffffffffffffffffffffffffffffffffffffffffffffffffffffffff848462000e4c565b905092915050565b600062000f968262000879565b915062000fa38362000879565b925082820262000fb38162000879565b9150828204841483151762000fcd5762000fcc62000db5565b5b5092915050565b600062000fe18262000879565b915062000fee8362000879565b925082820190508082111562001009576200100862000db5565b5b92915050565b6200101a8162000879565b82525050565b600060608201905062001037600083018662000d87565b6200104660208301856200100f565b6200105560408301846200100f565b949350505050565b60006020820190506200107460008301846200100f565b92915050565b61174a806200108a6000396000f3fe608060405234801561001057600080fd5b50600436106101215760003560e01c806370a08231116100ad578063900621521161007157806390062152146102be57806395d89b41146102de578063a9059cbb146102fc578063dd62ed3e1461032c578063f2fde38b1461035c57610121565b806370a0823114610240578063715018a61461027057806379cc67901461027a5780638456cb59146102965780638da5cb5b146102a057610121565b8063313ce567116100f4578063313ce567146101c25780633f4ba83a146101e057806340c10f19146101ea57806342966c68146102065780635c975abb1461022257610121565b806306fdde0314610126578063095ea7b31461014457806318160ddd1461017457806323b872dd14610192575b600080fd5b61012e610378565b60405161013b9190611262565b60405180910390f35b61015e6004803603810190610159919061131d565b61040a565b60405161016b9190611378565b60405180910390f35b61017c61042d565b60405161018991906113a2565b60405180910390f35b6101ac60048036038101906101a791906113bd565b610437565b6040516101b99190611378565b60405180910390f35b6101ca610466565b6040516101d7919061142c565b60405180910390f35b6101e861046f565b005b61020460048036038101906101ff919061131d565b6104d4565b005b610220600480360381019061021b9190611447565b61053d565b005b61022a610551565b6040516102379190611378565b60405180910390f35b61025a60048036038101906102559190611474565b610568565b60405161026791906113a2565b60405180910390f35b6102786105b0565b005b610294600480360381019061028f919061131d565b6105c4565b005b61029e6105e4565b005b6102a8610649565b6040516102b591906114b0565b60405180910390f35b6102c6610673565b6040516102d5939291906114cb565b60405180910390f35b6102e66106b2565b6040516102f39190611262565b60405180910390f35b6103166004803603810190610311919061131d565b610744565b6040516103239190611378565b60405180910390f35b61034660048036038101906103419190611502565b610767565b60405161035391906113a2565b60405180910390f35b61037660048036038101906103719190611474565b6107ee565b005b60606003805461038790611571565b80601f01602080910402602001604051908101604052809291908181526020018280546103b390611571565b80156104005780601f106103d557610100808354040283529160200191610400565b820191906000526020600020905b8154815290600101906020018083116103e357829003601f168201915b5050505050905090565b600080610415610874565b905061042281858561087c565b600191505092915050565b6000600254905090565b600080610442610874565b905061044f85828561088e565b61045a858585610922565b60019150509392505050565b60006012905090565b610477610a16565b600660000160019054906101000a900460ff16156104ca576040517f08c379a00000000000000000000000000000000000000000000000000000000081526004016104c1906115ee565b60405180910390fd5b6104d2610a9d565b565b6104dc610a16565b600660000160009054906101000a900460ff161561052f576040517f08c379a00000000000000000000000000000000000000000000000000000000081526004016105269061165a565b60405180910390fd5b6105398282610b00565b5050565b61054e610548610874565b82610b82565b50565b6000600560009054906101000a900460ff16905090565b60008060008373ffffffffffffffffffffffffffffffffffffffff1673ffffffffffffffffffffffffffffffffffffffff168152602001908152602001600020549050919050565b6105b8610a16565b6105c26000610c04565b565b6105d6826105d0610874565b8361088e565b6105e08282610b82565b5050565b6105ec610a16565b600660000160019054906101000a900460ff161561063f576040517f08c379a0000000000000000000000000000000000000000000000000000000008152600401610636906115ee565b60405180910390fd5b610647610cca565b565b6000600560019054906101000a900473ffffffffffffffffffffffffffffffffffffffff16905090565b60068060000160009054906101000a900460ff16908060000160019054906101000a900460ff16908060000160029054906101000a900460ff16905083565b6060600480546106c190611571565b80601f01602080910402602001604051908101604052809291908181526020018280546106ed90611571565b801561073a5780601f1061070f5761010080835404028352916020019161073a565b820191906000526020600020905b81548152906001019060200180831161071d57829003601f168201915b5050505050905090565b60008061074f610874565b905061075c818585610922565b600191505092915050565b6000600160008473ffffffffffffffffffffffffffffffffffffffff1673ffffffffffffffffffffffffffffffffffffffff16815260200190815260200160002060008373ffffffffffffffffffffffffffffffffffffffff1673ffffffffffffffffffffffffffffffffffffffff16815260200190815260200160002054905092915050565b6107f6610a16565b600073ffffffffffffffffffffffffffffffffffffffff168173ffffffffffffffffffffffffffffffffffffffff16036108685760006040517f1e4fbdf700000000000000000000000000000000000000000000000000000000815260040161085f91906114b0565b60405180910390fd5b61087181610c04565b50565b600033905090565b6108898383836001610d2d565b505050565b600061089a8484610767565b90507fffffffffffffffffffffffffffffffffffffffffffffffffffffffffffffffff811461091c578181101561090c578281836040517ffb8f41b20000000000000000000000000000000000000000000000000000000081526004016109039392919061167a565b60405180910390fd5b61091b84848484036000610d2d565b5b50505050565b600073ffffffffffffffffffffffffffffffffffffffff168373ffffffffffffffffffffffffffffffffffffffff16036109945760006040517f96c6fd1e00000000000000000000000000000000000000000000000000000000815260040161098b91906114b0565b60405180910390fd5b600073ffffffffffffffffffffffffffffffffffffffff168273ffffffffffffffffffffffffffffffffffffffff1603610a065760006040517fec442f050000000000000000000000000000000000000000000000000000000081526004016109fd91906114b0565b60405180910390fd5b610a11838383610f04565b505050565b610a1e610874565b73ffffffffffffffffffffffffffffffffffffffff16610a3c610649565b73ffffffffffffffffffffffffffffffffffffffff1614610a9b57610a5f610874565b6040517f118cdaa7000000000000000000000000000000000000000000000000000000008152600401610a9291906114b0565b60405180910390fd5b565b610aa5610f14565b6000600560006101000a81548160ff0219169083151502179055507f5db9ee0a495bf2e6ff9c91a7834c1ba4fdd244a5e8aa4e537bd38aeae4b073aa610ae9610874565b604051610af691906114b0565b60405180910390a1565b600073ffffffffffffffffffffffffffffffffffffffff168273ffffffffffffffffffffffffffffffffffffffff1603610b725760006040517fec442f05000000000000000000000000000000000000000000000000000000008152600401610b6991906114b0565b60405180910390fd5b610b7e60008383610f04565b5050565b600073ffffffffffffffffffffffffffffffffffffffff168273ffffffffffffffffffffffffffffffffffffffff1603610bf45760006040517f96c6fd1e000000000000000000000000000000000000000000000000000000008152600401610beb91906114b0565b60405180910390fd5b610c0082600083610f04565b5050565b6000600560019054906101000a900473ffffffffffffffffffffffffffffffffffffffff16905081600560016101000a81548173ffffffffffffffffffffffffffffffffffffffff021916908373ffffffffffffffffffffffffffffffffffffffff1602179055508173ffffffffffffffffffffffffffffffffffffffff168173ffffffffffffffffffffffffffffffffffffffff167f8be0079c531659141344cd1fd0a4f28419497f9722a3daafe3b4186f6b6457e060405160405180910390a35050565b610cd2610f54565b6001600560006101000a81548160ff0219169083151502179055507f62e78cea01bee320cd4e420270b5ea74000d11b0c9f74754ebdbfc544b05a258610d16610874565b604051610d2391906114b0565b60405180910390a1565b600073ffffffffffffffffffffffffffffffffffffffff168473ffffffffffffffffffffffffffffffffffffffff1603610d9f5760006040517fe602df05000000000000000000000000000000000000000000000000000000008152600401610d9691906114b0565b60405180910390fd5b600073ffffffffffffffffffffffffffffffffffffffff168373ffffffffffffffffffffffffffffffffffffffff1603610e115760006040517f94280d62000000000000000000000000000000000000000000000000000000008152600401610e0891906114b0565b60405180910390fd5b81600160008673ffffffffffffffffffffffffffffffffffffffff1673ffffffffffffffffffffffffffffffffffffffff16815260200190815260200160002060008573ffffffffffffffffffffffffffffffffffffffff1673ffffffffffffffffffffffffffffffffffffffff168152602001908152602001600020819055508015610efe578273ffffffffffffffffffffffffffffffffffffffff168473ffffffffffffffffffffffffffffffffffffffff167f8c5be1e5ebec7d5bd14f71427d1e84f3dd0314c0f7b2291e5b200ac8c7c3b92584604051610ef591906113a2565b60405180910390a35b50505050565b610f0f838383610f95565b505050565b610f1c610551565b610f52576040517f8dfc202b00000000000000000000000000000000000000000000000000000000815260040160405180910390fd5b565b610f5c610551565b15610f93576040517fd93c066500000000000000000000000000000000000000000000000000000000815260040160405180910390fd5b565b610f9d610f54565b610fa8838383610fad565b505050565b600073ffffffffffffffffffffffffffffffffffffffff168373ffffffffffffffffffffffffffffffffffffffff1603610fff578060026000828254610ff391906116e0565b925050819055506110d2565b60008060008573ffffffffffffffffffffffffffffffffffffffff1673ffffffffffffffffffffffffffffffffffffffff1681526020019081526020016000205490508181101561108b578381836040517fe450d38c0000000000000000000000000000000000000000000000000000000081526004016110829392919061167a565b60405180910390fd5b8181036000808673ffffffffffffffffffffffffffffffffffffffff1673ffffffffffffffffffffffffffffffffffffffff16815260200190815260200160002081905550505b600073ffffffffffffffffffffffffffffffffffffffff168273ffffffffffffffffffffffffffffffffffffffff160361111b5780600260008282540392505081905550611168565b806000808473ffffffffffffffffffffffffffffffffffffffff1673ffffffffffffffffffffffffffffffffffffffff168152602001908152602001600020600082825401925050819055505b8173ffffffffffffffffffffffffffffffffffffffff168373ffffffffffffffffffffffffffffffffffffffff167fddf252ad1be2c89b69c2b068fc378daa952ba7f163c4a11628f55a4df523b3ef836040516111c591906113a2565b60405180910390a3505050565b600081519050919050565b600082825260208201905092915050565b60005b8381101561120c5780820151818401526020810190506111f1565b60008484015250505050565b6000601f19601f8301169050919050565b6000611234826111d2565b61123e81856111dd565b935061124e8185602086016111ee565b61125781611218565b840191505092915050565b6000602082019050818103600083015261127c8184611229565b905092915050565b600080fd5b600073ffffffffffffffffffffffffffffffffffffffff82169050919050565b60006112b482611289565b9050919050565b6112c4816112a9565b81146112cf57600080fd5b50565b6000813590506112e1816112bb565b92915050565b6000819050919050565b6112fa816112e7565b811461130557600080fd5b50565b600081359050611317816112f1565b92915050565b6000806040838503121561133457611333611284565b5b6000611342858286016112d2565b925050602061135385828601611308565b9150509250929050565b60008115159050919050565b6113728161135d565b82525050565b600060208201905061138d6000830184611369565b92915050565b61139c816112e7565b82525050565b60006020820190506113b76000830184611393565b92915050565b6000806000606084860312156113d6576113d5611284565b5b60006113e4868287016112d2565b93505060206113f5868287016112d2565b925050604061140686828701611308565b9150509250925092565b600060ff82169050919050565b61142681611410565b82525050565b6000602082019050611441600083018461141d565b92915050565b60006020828403121561145d5761145c611284565b5b600061146b84828501611308565b91505092915050565b60006020828403121561148a57611489611284565b5b6000611498848285016112d2565b91505092915050565b6114aa816112a9565b82525050565b60006020820190506114c560008301846114a1565b92915050565b60006060820190506114e06000830186611369565b6114ed6020830185611369565b6114fa6040830184611369565b949350505050565b6000806040838503121561151957611518611284565b5b6000611527858286016112d2565b9250506020611538858286016112d2565b9150509250929050565b7f4e487b7100000000000000000000000000000000000000000000000000000000600052602260045260246000fd5b6000600282049050600182168061158957607f821691505b60208210810361159c5761159b611542565b5b50919050565b7f70617573696e672069732064697361626c656400000000000000000000000000600082015250565b60006115d86013836111dd565b91506115e3826115a2565b602082019050919050565b60006020820190508181036000830152611607816115cb565b9050919050565b7f6d696e74696e672069732064697361626c656400000000000000000000000000600082015250565b60006116446013836111dd565b915061164f8261160e565b602082019050919050565b6000602082019050818103600083015261167381611637565b9050919050565b600060608201905061168f60008301866114a1565b61169c6020830185611393565b6116a96040830184611393565b949350505050565b7f4e487b7100000000000000000000000000000000000000000000000000000000600052601160045260246000fd5b60006116eb826112e7565b91506116f6836112e7565b925082820190508082111561170e5761170d6116b1565b5b9291505056fea26469706673582212205c6cd4ec4a536ace98aab404cc601f829b8ee01fe5c9224bca34f5237e049b9d64736f6c63430008180033",
  "linkReferences": {},
  "deployedLinkReferences": {}
}