{
  "_format": "hh-sol-artifact-1",
  "contractName": "ThrustpadLocker",
  "sourceName": "contracts/locker/ThrustpadLocker.sol",
  "abi": [
    {
      "inputs": [
        {
          "internalType": "contract IERC20",
          "name": "_token",
          "type": "address"
        },
        {
          "internalType": "uint256",
          "name": "_lockTime",
          "type": "uint256"
        },
        {
          "internalType": "uint256",
          "name": "_amount",
          "type": "uint256"
        },
        {
          "internalType": "address",
          "name": "_owner",
          "type": "address"
        }
      ],
      "stateMutability": "nonpayable",
      "type": "constructor"
    },
    {
      "inputs": [
        {
          "internalType": "address",
          "name": "owner",
          "type": "address"
        }
      ],
      "name": "OwnableInvalidOwner",
      "type": "error"
    },
    {
      "inputs": [
        {
          "internalType": "address",
          "name": "account",
          "type": "address"
        }
      ],
      "name": "OwnableUnauthorizedAccount",
      "type": "error"
    },
    {
      "anonymous": false,
      "inputs": [
        {
          "indexed": true,
          "internalType": "address",
          "name": "previousOwner",
          "type": "address"
        },
        {
          "indexed": true,
          "internalType": "address",
          "name": "newOwner",
          "type": "address"
        }
      ],
      "name": "OwnershipTransferred",
      "type": "event"
    },
    {
      "anonymous": false,
      "inputs": [
        {
          "indexed": true,
          "internalType": "address",
          "name": "beneficiary",
          "type": "address"
        },
        {
          "indexed": true,
          "internalType": "address",
          "name": "token",
          "type": "address"
        },
        {
          "indexed": false,
          "internalType": "uint256",
          "name": "releaseTime",
          "type": "uint256"
        },
        {
          "indexed": false,
          "internalType": "uint256",
          "name": "amount",
          "type": "uint256"
        }
      ],
      "name": "Release",
      "type": "event"
    },
    {
      "anonymous": false,
      "inputs": [
        {
          "indexed": true,
          "internalType": "address",
          "name": "beneficiary",
          "type": "address"
        },
        {
          "indexed": true,
          "internalType": "address",
          "name": "token",
          "type": "address"
        },
        {
          "indexed": false,
          "internalType": "uint256",
          "name": "startTime",
          "type": "uint256"
        },
        {
          "indexed": false,
          "internalType": "uint256",
          "name": "lockTime",
          "type": "uint256"
        }
      ],
      "name": "TokenLockStart",
      "type": "event"
    },
    {
      "inputs": [],
      "name": "beneficiary",
      "outputs": [
        {
          "internalType": "address",
          "name": "",
          "type": "address"
        }
      ],
      "stateMutability": "view",
      "type": "function"
    },
    {
      "inputs": [],
      "name": "lockAmount",
      "outputs": [
        {
          "internalType": "uint256",
          "name": "",
          "type": "uint256"
        }
      ],
      "stateMutability": "view",
      "type": "function"
    },
    {
      "inputs": [],
      "name": "lockTime",
      "outputs": [
        {
          "internalType": "uint256",
          "name": "",
          "type": "uint256"
        }
      ],
      "stateMutability": "view",
      "type": "function"
    },
    {
      "inputs": [],
      "name": "owner",
      "outputs": [
        {
          "internalType": "address",
          "name": "",
          "type": "address"
        }
      ],
      "stateMutability": "view",
      "type": "function"
    },
    {
      "inputs": [],
      "name": "release",
      "outputs": [],
      "stateMutability": "nonpayable",
      "type": "function"
    },
    {
      "inputs": [],
      "name": "released",
      "outputs": [
        {
          "internalType": "bool",
          "name": "",
          "type": "bool"
        }
      ],
      "stateMutability": "view",
      "type": "function"
    },
    {
      "inputs": [],
      "name": "renounceOwnership",
      "outputs": [],
      "stateMutability": "nonpayable",
      "type": "function"
    },
    {
      "inputs": [],
      "name": "startTime",
      "outputs": [
        {
          "internalType": "uint256",
          "name": "",
          "type": "uint256"
        }
      ],
      "stateMutability": "view",
      "type": "function"
    },
    {
      "inputs": [],
      "name": "token",
      "outputs": [
        {
          "internalType": "contract IERC20",
          "name": "",
          "type": "address"
        }
      ],
      "stateMutability": "view",
      "type": "function"
    },
    {
      "inputs": [
        {
          "internalType": "address",
          "name": "newOwner",
          "type": "address"
        }
      ],
      "name": "transferOwnership",
      "outputs": [],
      "stateMutability": "nonpayable",
      "type": "function"
    }
  ],
  "bytecode": "0x6101206040526000805460ff60a01b1916905534801561001e57600080fd5b5060405161096838038061096883398101604081905261003d916101aa565b806001600160a01b03811661006d57604051631e4fbdf760e01b8152600060048201526024015b60405180910390fd5b61007681610142565b50600083116100da5760405162461bcd60e51b815260206004820152602a60248201527f546f6b656e4c6f636b3a206c6f636b2074696d652073686f756c6420677265616044820152690746572207468616e20360b41b6064820152608401610064565b6001600160a01b03841660808190523260a081905260c08590524260e081905261010085905260408051918252602082018790527fe5d7d4b5cb0219916a8be73968f7baf3c806fd018b0cc5598f5129436cf5c316910160405180910390a3505050506101f6565b600080546001600160a01b038381166001600160a01b0319831681178455604051919092169283917f8be0079c531659141344cd1fd0a4f28419497f9722a3daafe3b4186f6b6457e09190a35050565b6001600160a01b03811681146101a757600080fd5b50565b600080600080608085870312156101c057600080fd5b84516101cb81610192565b80945050602085015192506040850151915060608501516101eb81610192565b939692955090935050565b60805160a05160c05160e0516101005161070561026360003960006101af01526000818161014b015261024d01526000818160c8015261022c01526000818161010201526103eb0152600081816101e9015281816102f60152818161041a01526104ce01526107056000f3fe608060405234801561001057600080fd5b50600436106100be5760003560e01c80638da5cb5b11610076578063d8df5dc11161005b578063d8df5dc1146101aa578063f2fde38b146101d1578063fc0c546a146101e457600080fd5b80638da5cb5b14610175578063961325211461018657600080fd5b8063715018a6116100a7578063715018a61461013c57806378e979251461014657806386d1a69f1461016d57600080fd5b80630d668087146100c357806338af3eed146100fd575b600080fd5b6100ea7f000000000000000000000000000000000000000000000000000000000000000081565b6040519081526020015b60405180910390f35b6101247f000000000000000000000000000000000000000000000000000000000000000081565b6040516001600160a01b0390911681526020016100f4565b61014461020b565b005b6100ea7f000000000000000000000000000000000000000000000000000000000000000081565b61014461021f565b6000546001600160a01b0316610124565b60005461019a90600160a01b900460ff1681565b60405190151581526020016100f4565b6100ea7f000000000000000000000000000000000000000000000000000000000000000081565b6101446101df366004610624565b61051f565b6101247f000000000000000000000000000000000000000000000000000000000000000081565b610213610576565b61021d60006105bc565b565b610227610576565b6102717f00000000000000000000000000000000000000000000000000000000000000007f0000000000000000000000000000000000000000000000000000000000000000610654565b4210156102c55760405162461bcd60e51b815260206004820181905260248201527f546f6b656e4c6f636b3a206c6f636b2074696d65206e6f74206578706972656460448201526064015b60405180910390fd5b6040517f70a082310000000000000000000000000000000000000000000000000000000081523060048201526000907f00000000000000000000000000000000000000000000000000000000000000006001600160a01b0316906370a0823190602401602060405180830381865afa158015610345573d6000803e3d6000fd5b505050506040513d601f19601f820116820180604052508101906103699190610694565b9050600081116103bb5760405162461bcd60e51b815260206004820152601f60248201527f546f6b656e4c6f636b3a206e6f20746f6b656e7320746f2072656c656173650060448201526064016102bc565b6040517fa9059cbb0000000000000000000000000000000000000000000000000000000081526001600160a01b037f000000000000000000000000000000000000000000000000000000000000000081166004830152602482018390527f0000000000000000000000000000000000000000000000000000000000000000169063a9059cbb906044016020604051808303816000875af1158015610463573d6000803e3d6000fd5b505050506040513d601f19601f8201168201806040525081019061048791906106ad565b50600080547fffffffffffffffffffffff00ffffffffffffffffffffffffffffffffffffffff16600160a01b17905560408051428152602081018390526001600160a01b037f0000000000000000000000000000000000000000000000000000000000000000169133917f10b55f01b1cfe0feeb7d144f66162661602d8e73256499b6d8342aac37ff0679910160405180910390a350565b610527610576565b6001600160a01b03811661056a576040517f1e4fbdf7000000000000000000000000000000000000000000000000000000008152600060048201526024016102bc565b610573816105bc565b50565b6000546001600160a01b0316331461021d576040517f118cdaa70000000000000000000000000000000000000000000000000000000081523360048201526024016102bc565b600080546001600160a01b038381167fffffffffffffffffffffffff0000000000000000000000000000000000000000831681178455604051919092169283917f8be0079c531659141344cd1fd0a4f28419497f9722a3daafe3b4186f6b6457e09190a35050565b60006020828403121561063657600080fd5b81356001600160a01b038116811461064d57600080fd5b9392505050565b8082018082111561068e577f4e487b7100000000000000000000000000000000000000000000000000000000600052601160045260246000fd5b92915050565b6000602082840312156106a657600080fd5b5051919050565b6000602082840312156106bf57600080fd5b8151801515811461064d57600080fdfea2646970667358221220897d6035c1cec0cb6b5841ebd50ff486a571e869b83dfd2f41be607e1a2f34e464736f6c63430008180033",
  "linkReferences": {},
  "deployedLinkReferences": {}
}