{
  "_format": "hh-sol-artifact-1",
  "contractName": "ThrustpadLocker",
  "sourceName": "contracts/locker/ThrustpadLocker.sol",
  "abi": [
    {
      "inputs": [
        {
          "internalType": "contract IERC20",
          "name": "_token",
          "type": "address"
        },
        {
          "internalType": "uint256",
          "name": "_lockTime",
          "type": "uint256"
        },
        {
          "internalType": "uint256",
          "name": "_amount",
          "type": "uint256"
        },
        {
          "internalType": "address",
          "name": "_owner",
          "type": "address"
        }
      ],
      "stateMutability": "nonpayable",
      "type": "constructor"
    },
    {
      "inputs": [
        {
          "internalType": "address",
          "name": "owner",
          "type": "address"
        }
      ],
      "name": "OwnableInvalidOwner",
      "type": "error"
    },
    {
      "inputs": [
        {
          "internalType": "address",
          "name": "account",
          "type": "address"
        }
      ],
      "name": "OwnableUnauthorizedAccount",
      "type": "error"
    },
    {
      "anonymous": false,
      "inputs": [
        {
          "indexed": true,
          "internalType": "address",
          "name": "previousOwner",
          "type": "address"
        },
        {
          "indexed": true,
          "internalType": "address",
          "name": "newOwner",
          "type": "address"
        }
      ],
      "name": "OwnershipTransferred",
      "type": "event"
    },
    {
      "anonymous": false,
      "inputs": [
        {
          "indexed": true,
          "internalType": "address",
          "name": "beneficiary",
          "type": "address"
        },
        {
          "indexed": true,
          "internalType": "address",
          "name": "token",
          "type": "address"
        },
        {
          "indexed": false,
          "internalType": "uint256",
          "name": "releaseTime",
          "type": "uint256"
        },
        {
          "indexed": false,
          "internalType": "uint256",
          "name": "amount",
          "type": "uint256"
        }
      ],
      "name": "Release",
      "type": "event"
    },
    {
      "anonymous": false,
      "inputs": [
        {
          "indexed": true,
          "internalType": "address",
          "name": "beneficiary",
          "type": "address"
        },
        {
          "indexed": true,
          "internalType": "address",
          "name": "token",
          "type": "address"
        },
        {
          "indexed": false,
          "internalType": "uint256",
          "name": "startTime",
          "type": "uint256"
        },
        {
          "indexed": false,
          "internalType": "uint256",
          "name": "lockTime",
          "type": "uint256"
        }
      ],
      "name": "TokenLockStart",
      "type": "event"
    },
    {
      "inputs": [],
      "name": "beneficiary",
      "outputs": [
        {
          "internalType": "address",
          "name": "",
          "type": "address"
        }
      ],
      "stateMutability": "view",
      "type": "function"
    },
    {
      "inputs": [],
      "name": "lockAmount",
      "outputs": [
        {
          "internalType": "uint256",
          "name": "",
          "type": "uint256"
        }
      ],
      "stateMutability": "view",
      "type": "function"
    },
    {
      "inputs": [],
      "name": "lockTime",
      "outputs": [
        {
          "internalType": "uint256",
          "name": "",
          "type": "uint256"
        }
      ],
      "stateMutability": "view",
      "type": "function"
    },
    {
      "inputs": [],
      "name": "owner",
      "outputs": [
        {
          "internalType": "address",
          "name": "",
          "type": "address"
        }
      ],
      "stateMutability": "view",
      "type": "function"
    },
    {
      "inputs": [],
      "name": "release",
      "outputs": [],
      "stateMutability": "nonpayable",
      "type": "function"
    },
    {
      "inputs": [],
      "name": "released",
      "outputs": [
        {
          "internalType": "bool",
          "name": "",
          "type": "bool"
        }
      ],
      "stateMutability": "view",
      "type": "function"
    },
    {
      "inputs": [],
      "name": "renounceOwnership",
      "outputs": [],
      "stateMutability": "nonpayable",
      "type": "function"
    },
    {
      "inputs": [],
      "name": "startTime",
      "outputs": [
        {
          "internalType": "uint256",
          "name": "",
          "type": "uint256"
        }
      ],
      "stateMutability": "view",
      "type": "function"
    },
    {
      "inputs": [],
      "name": "token",
      "outputs": [
        {
          "internalType": "contract IERC20",
          "name": "",
          "type": "address"
        }
      ],
      "stateMutability": "view",
      "type": "function"
    },
    {
      "inputs": [
        {
          "internalType": "address",
          "name": "newOwner",
          "type": "address"
        }
      ],
      "name": "transferOwnership",
      "outputs": [],
      "stateMutability": "nonpayable",
      "type": "function"
    }
  ],
  "bytecode": "0x610120346101be57601f61089038819003918201601f1916830191906001600160401b038311848410176101c35781608092859260409586528339810103126101be5781516001600160a01b03808216918281036101be576020850151916060858701519601518181168091036101be5780156101a6576000548187519382167f8be0079c531659141344cd1fd0a4f28419497f9722a3daafe3b4186f6b6457e0600080a36001600160a81b03191617600055821561015157506080523260a0528060c0524260e05261010093845282519042825260208201527fe5d7d4b5cb0219916a8be73968f7baf3c806fd018b0cc5598f5129436cf5c316833292a3516106b691826101da833960805182818160b1015261028c015260a05182818161032001526105a6015260c05182818161025301526105e1015260e05182818161023201526104fa015251816101a80152f35b62461bcd60e51b815260206004820152602a60248201527f546f6b656e4c6f636b3a206c6f636b2074696d652073686f756c6420677265616044820152690746572207468616e20360b41b6064820152608490fd5b8551631e4fbdf760e01b815260006004820152602490fd5b600080fd5b634e487b7160e01b600052604160045260246000fdfe608060408181526004918236101561001657600080fd5b600092833560e01c9182630d668087146105ca5750816338af3eed14610586578163715018a61461051d57816378e97925146104e257816386d1a69f146102165781638da5cb5b146101f057816396132521146101cb578163d8df5dc114610190578163f2fde38b146100d9575063fc0c546a1461009357600080fd5b346100d557816003193601126100d557602090516001600160a01b037f0000000000000000000000000000000000000000000000000000000000000000168152f35b5080fd5b9190503461018c57602036600319011261018c578135916001600160a01b03918284168094036101885761010b61063c565b831561015957505082548273ffffffffffffffffffffffffffffffffffffffff198216178455167f8be0079c531659141344cd1fd0a4f28419497f9722a3daafe3b4186f6b6457e08380a380f35b908460249251917f1e4fbdf7000000000000000000000000000000000000000000000000000000008352820152fd5b8480fd5b8280fd5b5050346100d557816003193601126100d557602090517f00000000000000000000000000000000000000000000000000000000000000008152f35b5050346100d557816003193601126100d55760ff6020925460a01c1690519015158152f35b5050346100d557816003193601126100d5576001600160a01b0360209254169051908152f35b90503461018c578260031936011261018c5761023061063c565b7f00000000000000000000000000000000000000000000000000000000000000007f000000000000000000000000000000000000000000000000000000000000000081018091116104cf57421061048d576001600160a01b03807f000000000000000000000000000000000000000000000000000000000000000016928051917f70a0823100000000000000000000000000000000000000000000000000000000835230848401526020938484602481895afa938415610483578794610450575b50831561040e578251917fa9059cbb0000000000000000000000000000000000000000000000000000000083527f00000000000000000000000000000000000000000000000000000000000000001690820152826024820152838160448189895af18015610404576103cd575b507f10b55f01b1cfe0feeb7d144f66162661602d8e73256499b6d8342aac37ff067991740100000000000000000000000000000000000000007fffffffffffffffffffffff00ffffffffffffffffffffffffffffffffffffffff8754161786558151934285528401523392a380f35b8381813d83116103fd575b6103e28183610604565b810103126103f9575180151503610188573861035e565b8580fd5b503d6103d8565b82513d88823e3d90fd5b6064908584519162461bcd60e51b8352820152601f60248201527f546f6b656e4c6f636b3a206e6f20746f6b656e7320746f2072656c65617365006044820152fd5b9093508481813d831161047c575b6104688183610604565b81010312610478575192386102f1565b8680fd5b503d61045e565b83513d89823e3d90fd5b6020606492519162461bcd60e51b8352820152602060248201527f546f6b656e4c6f636b3a206c6f636b2074696d65206e6f7420657870697265646044820152fd5b602484601184634e487b7160e01b835252fd5b5050346100d557816003193601126100d557602090517f00000000000000000000000000000000000000000000000000000000000000008152f35b833461058357806003193601126105835761053661063c565b806001600160a01b03815473ffffffffffffffffffffffffffffffffffffffff1981168355167f8be0079c531659141344cd1fd0a4f28419497f9722a3daafe3b4186f6b6457e08280a380f35b80fd5b5050346100d557816003193601126100d557602090516001600160a01b037f0000000000000000000000000000000000000000000000000000000000000000168152f35b8490346100d557816003193601126100d5576020907f00000000000000000000000000000000000000000000000000000000000000008152f35b90601f8019910116810190811067ffffffffffffffff82111761062657604052565b634e487b7160e01b600052604160045260246000fd5b6001600160a01b0360005416330361065057565b60246040517f118cdaa7000000000000000000000000000000000000000000000000000000008152336004820152fdfea2646970667358221220e39bba9453b36766f3bc4b9b1fa647541359383815ec9e3890d265a9fa5128ad64736f6c63430008180033",
  "linkReferences": {},
  "deployedLinkReferences": {}
}